{
	"Blackjack.sol": {
		"Blackjack": {
			"abi": [
				{
					"inputs": [],
					"stateMutability": "payable",
					"type": "constructor"
				},
				{
					"anonymous": false,
					"inputs": [
						{
							"indexed": false,
							"internalType": "uint8",
							"name": "card",
							"type": "uint8"
						}
					],
					"name": "BankCardDrawn",
					"type": "event"
				},
				{
					"anonymous": false,
					"inputs": [
						{
							"indexed": false,
							"internalType": "address",
							"name": "winner",
							"type": "address"
						},
						{
							"indexed": false,
							"internalType": "uint8",
							"name": "score",
							"type": "uint8"
						}
					],
					"name": "GameResult",
					"type": "event"
				},
				{
					"inputs": [],
					"name": "LastBankHand",
					"outputs": [
						{
							"internalType": "string",
							"name": "",
							"type": "string"
						}
					],
					"stateMutability": "view",
					"type": "function"
				},
				{
					"inputs": [],
					"name": "Winners",
					"outputs": [
						{
							"internalType": "string",
							"name": "",
							"type": "string"
						}
					],
					"stateMutability": "view",
					"type": "function"
				},
				{
					"inputs": [],
					"name": "determineWinner",
					"outputs": [
						{
							"internalType": "string",
							"name": "",
							"type": "string"
						},
						{
							"internalType": "address[]",
							"name": "",
							"type": "address[]"
						}
					],
					"stateMutability": "nonpayable",
					"type": "function"
				},
				{
					"inputs": [],
					"name": "getAllHands",
					"outputs": [
						{
							"internalType": "string[]",
							"name": "",
							"type": "string[]"
						}
					],
					"stateMutability": "view",
					"type": "function"
				},
				{
					"inputs": [],
					"name": "hit",
					"outputs": [],
					"stateMutability": "nonpayable",
					"type": "function"
				},
				{
					"inputs": [
						{
							"internalType": "uint256",
							"name": "bet",
							"type": "uint256"
						}
					],
					"name": "joinGame",
					"outputs": [],
					"stateMutability": "payable",
					"type": "function"
				},
				{
					"inputs": [
						{
							"internalType": "uint256",
							"name": "playerIndex",
							"type": "uint256"
						}
					],
					"name": "stand",
					"outputs": [],
					"stateMutability": "nonpayable",
					"type": "function"
				},
				{
					"inputs": [],
					"name": "startGame",
					"outputs": [],
					"stateMutability": "nonpayable",
					"type": "function"
				}
			],
			"devdoc": {
				"kind": "dev",
				"methods": {},
				"version": 1
			},
			"evm": {
				"assembly": "    /* \"Blackjack.sol\":116:7069  contract Blackjack is CardDeck, Randomness {... */\n  mstore(0x40, 0x80)\n    /* \"CardDeck.sol\":140:151  resetDeck() */\n  tag_4\n    /* \"CardDeck.sol\":140:149  resetDeck */\n  shl(0x20, tag_5)\n    /* \"CardDeck.sol\":140:151  resetDeck() */\n  0x20\n  shr\n  jump\t// in\ntag_4:\n    /* \"Blackjack.sol\":644:654  msg.sender */\n  caller\n    /* \"Blackjack.sol\":637:641  bank */\n  0x04\n  0x00\n    /* \"Blackjack.sol\":637:654  bank = msg.sender */\n  0x0100\n  exp\n  dup2\n  sload\n  dup2\n  0xffffffffffffffffffffffffffffffffffffffff\n  mul\n  not\n  and\n  swap1\n  dup4\n  0xffffffffffffffffffffffffffffffffffffffff\n  and\n  mul\n  or\n  swap1\n  sstore\n  pop\n    /* \"Blackjack.sol\":116:7069  contract Blackjack is CardDeck, Randomness {... */\n  jump(tag_7)\n    /* \"CardDeck.sol\":167:361  function resetDeck() internal {... */\ntag_5:\n    /* \"CardDeck.sol\":215:219  deck */\n  0x00\n  dup1\n    /* \"CardDeck.sol\":208:219  delete deck */\n  tag_9\n  swap2\n  swap1\n  tag_10\n  jump\t// in\ntag_9:\n    /* \"CardDeck.sol\":253:260  uint8 i */\n  0x00\n    /* \"CardDeck.sol\":263:264  1 */\n  0x01\n    /* \"CardDeck.sol\":253:264  uint8 i = 1 */\n  swap1\n  pop\n    /* \"CardDeck.sol\":248:354  for (uint8 i = 1; i <= 52; i++) {... */\ntag_11:\n    /* \"CardDeck.sol\":271:273  52 */\n  0x34\n    /* \"CardDeck.sol\":266:267  i */\n  dup2\n    /* \"CardDeck.sol\":266:273  i <= 52 */\n  0xff\n  and\n  gt\n    /* \"CardDeck.sol\":248:354  for (uint8 i = 1; i <= 52; i++) {... */\n  tag_12\n  jumpi\n    /* \"CardDeck.sol\":295:299  deck */\n  0x00\n    /* \"CardDeck.sol\":305:306  i */\n  dup2\n    /* \"CardDeck.sol\":295:307  deck.push(i) */\n  swap1\n  dup1\n  0x01\n  dup2\n  sload\n  add\n  dup1\n  dup3\n  sstore\n  dup1\n  swap2\n  pop\n  pop\n  0x01\n  swap1\n  sub\n  swap1\n  0x00\n  mstore\n  keccak256(0x00, 0x20)\n  swap1\n  0x20\n  swap2\n  dup3\n  dup3\n  div\n  add\n  swap2\n  swap1\n  mod\n  swap1\n  swap2\n  swap1\n  swap2\n  swap1\n  swap2\n  0x0100\n  exp\n  dup2\n  sload\n  dup2\n  0xff\n  mul\n  not\n  and\n  swap1\n  dup4\n  0xff\n  and\n  mul\n  or\n  swap1\n  sstore\n  pop\n    /* \"CardDeck.sol\":275:278  i++ */\n  dup1\n  dup1\n  tag_15\n  swap1\n  tag_16\n  jump\t// in\ntag_15:\n  swap2\n  pop\n  pop\n    /* \"CardDeck.sol\":248:354  for (uint8 i = 1; i <= 52; i++) {... */\n  jump(tag_11)\ntag_12:\n  pop\n    /* \"CardDeck.sol\":167:361  function resetDeck() internal {... */\n  jump\t// out\n    /* \"Blackjack.sol\":116:7069  contract Blackjack is CardDeck, Randomness {... */\ntag_10:\n  pop\n  dup1\n  sload\n  0x00\n  dup3\n  sstore\n  0x1f\n  add\n  0x20\n  swap1\n  div\n  swap1\n  0x00\n  mstore\n  keccak256(0x00, 0x20)\n  swap1\n  dup2\n  add\n  swap1\n  tag_18\n  swap2\n  swap1\n  tag_19\n  jump\t// in\ntag_18:\n  pop\n  jump\t// out\ntag_19:\ntag_20:\n  dup1\n  dup3\n  gt\n  iszero\n  tag_21\n  jumpi\n  0x00\n  dup2\n  0x00\n  swap1\n  sstore\n  pop\n  0x01\n  add\n  jump(tag_20)\ntag_21:\n  pop\n  swap1\n  jump\t// out\n    /* \"#utility.yul\":7:187   */\ntag_22:\n    /* \"#utility.yul\":55:132   */\n  0x4e487b7100000000000000000000000000000000000000000000000000000000\n    /* \"#utility.yul\":52:53   */\n  0x00\n    /* \"#utility.yul\":45:133   */\n  mstore\n    /* \"#utility.yul\":152:156   */\n  0x11\n    /* \"#utility.yul\":149:150   */\n  0x04\n    /* \"#utility.yul\":142:157   */\n  mstore\n    /* \"#utility.yul\":176:180   */\n  0x24\n    /* \"#utility.yul\":173:174   */\n  0x00\n    /* \"#utility.yul\":166:181   */\n  revert\n    /* \"#utility.yul\":193:279   */\ntag_23:\n    /* \"#utility.yul\":228:235   */\n  0x00\n    /* \"#utility.yul\":268:272   */\n  0xff\n    /* \"#utility.yul\":261:266   */\n  dup3\n    /* \"#utility.yul\":257:273   */\n  and\n    /* \"#utility.yul\":246:273   */\n  swap1\n  pop\n    /* \"#utility.yul\":193:279   */\n  swap2\n  swap1\n  pop\n  jump\t// out\n    /* \"#utility.yul\":285:452   */\ntag_16:\n    /* \"#utility.yul\":322:325   */\n  0x00\n    /* \"#utility.yul\":345:367   */\n  tag_28\n    /* \"#utility.yul\":361:366   */\n  dup3\n    /* \"#utility.yul\":345:367   */\n  tag_23\n  jump\t// in\ntag_28:\n    /* \"#utility.yul\":336:367   */\n  swap2\n  pop\n    /* \"#utility.yul\":389:393   */\n  0xff\n    /* \"#utility.yul\":382:387   */\n  dup3\n    /* \"#utility.yul\":379:394   */\n  sub\n    /* \"#utility.yul\":376:417   */\n  tag_29\n  jumpi\n    /* \"#utility.yul\":397:415   */\n  tag_30\n  tag_22\n  jump\t// in\ntag_30:\n    /* \"#utility.yul\":376:417   */\ntag_29:\n    /* \"#utility.yul\":444:445   */\n  0x01\n    /* \"#utility.yul\":437:442   */\n  dup3\n    /* \"#utility.yul\":433:446   */\n  add\n    /* \"#utility.yul\":426:446   */\n  swap1\n  pop\n    /* \"#utility.yul\":285:452   */\n  swap2\n  swap1\n  pop\n  jump\t// out\n    /* \"Blackjack.sol\":116:7069  contract Blackjack is CardDeck, Randomness {... */\ntag_7:\n  dataSize(sub_0)\n  dup1\n  dataOffset(sub_0)\n  0x00\n  codecopy\n  0x00\n  return\nstop\n\nsub_0: assembly {\n        /* \"Blackjack.sol\":116:7069  contract Blackjack is CardDeck, Randomness {... */\n      mstore(0x40, 0x80)\n      jumpi(tag_1, lt(calldatasize, 0x04))\n      shr(0xe0, calldataload(0x00))\n      dup1\n      0x9951a417\n      gt\n      tag_10\n      jumpi\n      dup1\n      0x9951a417\n      eq\n      tag_6\n      jumpi\n      dup1\n      0xd0e514fa\n      eq\n      tag_7\n      jumpi\n      dup1\n      0xd65ab5f2\n      eq\n      tag_8\n      jumpi\n      dup1\n      0xefaa55a0\n      eq\n      tag_9\n      jumpi\n      jump(tag_1)\n    tag_10:\n      dup1\n      0x14106ad6\n      eq\n      tag_2\n      jumpi\n      dup1\n      0x2ae3594a\n      eq\n      tag_3\n      jumpi\n      dup1\n      0x33b16d93\n      eq\n      tag_4\n      jumpi\n      dup1\n      0x96b76c23\n      eq\n      tag_5\n      jumpi\n    tag_1:\n      0x00\n      dup1\n      revert\n        /* \"Blackjack.sol\":3855:3881  string public LastBankHand */\n    tag_2:\n      callvalue\n      dup1\n      iszero\n      tag_11\n      jumpi\n      0x00\n      dup1\n      revert\n    tag_11:\n      pop\n      tag_12\n      tag_13\n      jump\t// in\n    tag_12:\n      mload(0x40)\n      tag_14\n      swap2\n      swap1\n      tag_15\n      jump\t// in\n    tag_14:\n      mload(0x40)\n      dup1\n      swap2\n      sub\n      swap1\n      return\n        /* \"Blackjack.sol\":2989:3570  function hit() external {... */\n    tag_3:\n      callvalue\n      dup1\n      iszero\n      tag_16\n      jumpi\n      0x00\n      dup1\n      revert\n    tag_16:\n      pop\n      tag_17\n      tag_18\n      jump\t// in\n    tag_17:\n      stop\n        /* \"Blackjack.sol\":3988:5044  function determineWinner() external returns (string memory, address[] memory) {... */\n    tag_4:\n      callvalue\n      dup1\n      iszero\n      tag_19\n      jumpi\n      0x00\n      dup1\n      revert\n    tag_19:\n      pop\n      tag_20\n      tag_21\n      jump\t// in\n    tag_20:\n      mload(0x40)\n      tag_22\n      swap3\n      swap2\n      swap1\n      tag_23\n      jump\t// in\n    tag_22:\n      mload(0x40)\n      dup1\n      swap2\n      sub\n      swap1\n      return\n        /* \"Blackjack.sol\":3578:3755  function stand(uint256 playerIndex) external {... */\n    tag_5:\n      callvalue\n      dup1\n      iszero\n      tag_24\n      jumpi\n      0x00\n      dup1\n      revert\n    tag_24:\n      pop\n      tag_25\n      0x04\n      dup1\n      calldatasize\n      sub\n      dup2\n      add\n      swap1\n      tag_26\n      swap2\n      swap1\n      tag_27\n      jump\t// in\n    tag_26:\n      tag_28\n      jump\t// in\n    tag_25:\n      stop\n        /* \"Blackjack.sol\":3921:3942  string public Winners */\n    tag_6:\n      callvalue\n      dup1\n      iszero\n      tag_29\n      jumpi\n      0x00\n      dup1\n      revert\n    tag_29:\n      pop\n      tag_30\n      tag_31\n      jump\t// in\n    tag_30:\n      mload(0x40)\n      tag_32\n      swap2\n      swap1\n      tag_15\n      jump\t// in\n    tag_32:\n      mload(0x40)\n      dup1\n      swap2\n      sub\n      swap1\n      return\n        /* \"Blackjack.sol\":2471:2981  function getAllHands() external view returns (string[] memory) {... */\n    tag_7:\n      callvalue\n      dup1\n      iszero\n      tag_33\n      jumpi\n      0x00\n      dup1\n      revert\n    tag_33:\n      pop\n      tag_34\n      tag_35\n      jump\t// in\n    tag_34:\n      mload(0x40)\n      tag_36\n      swap2\n      swap1\n      tag_37\n      jump\t// in\n    tag_36:\n      mload(0x40)\n      dup1\n      swap2\n      sub\n      swap1\n      return\n        /* \"Blackjack.sol\":1073:1431  function startGame() external {... */\n    tag_8:\n      callvalue\n      dup1\n      iszero\n      tag_38\n      jumpi\n      0x00\n      dup1\n      revert\n    tag_38:\n      pop\n      tag_39\n      tag_40\n      jump\t// in\n    tag_39:\n      stop\n        /* \"Blackjack.sol\":670:1065  function joinGame(uint256 bet) external payable {... */\n    tag_9:\n      tag_41\n      0x04\n      dup1\n      calldatasize\n      sub\n      dup2\n      add\n      swap1\n      tag_42\n      swap2\n      swap1\n      tag_27\n      jump\t// in\n    tag_42:\n      tag_43\n      jump\t// in\n    tag_41:\n      stop\n        /* \"Blackjack.sol\":3855:3881  string public LastBankHand */\n    tag_13:\n      0x07\n      dup1\n      sload\n      tag_44\n      swap1\n      tag_45\n      jump\t// in\n    tag_44:\n      dup1\n      0x1f\n      add\n      0x20\n      dup1\n      swap2\n      div\n      mul\n      0x20\n      add\n      mload(0x40)\n      swap1\n      dup2\n      add\n      0x40\n      mstore\n      dup1\n      swap3\n      swap2\n      swap1\n      dup2\n      dup2\n      mstore\n      0x20\n      add\n      dup3\n      dup1\n      sload\n      tag_46\n      swap1\n      tag_45\n      jump\t// in\n    tag_46:\n      dup1\n      iszero\n      tag_47\n      jumpi\n      dup1\n      0x1f\n      lt\n      tag_48\n      jumpi\n      0x0100\n      dup1\n      dup4\n      sload\n      div\n      mul\n      dup4\n      mstore\n      swap2\n      0x20\n      add\n      swap2\n      jump(tag_47)\n    tag_48:\n      dup3\n      add\n      swap2\n      swap1\n      0x00\n      mstore\n      keccak256(0x00, 0x20)\n      swap1\n    tag_49:\n      dup2\n      sload\n      dup2\n      mstore\n      swap1\n      0x01\n      add\n      swap1\n      0x20\n      add\n      dup1\n      dup4\n      gt\n      tag_49\n      jumpi\n      dup3\n      swap1\n      sub\n      0x1f\n      and\n      dup3\n      add\n      swap2\n    tag_47:\n      pop\n      pop\n      pop\n      pop\n      pop\n      dup2\n      jump\t// out\n        /* \"Blackjack.sol\":2989:3570  function hit() external {... */\n    tag_18:\n        /* \"Blackjack.sol\":3024:3043  uint256 playerIndex */\n      0x00\n        /* \"Blackjack.sol\":3046:3073  findPlayerIndex(msg.sender) */\n      tag_51\n        /* \"Blackjack.sol\":3062:3072  msg.sender */\n      caller\n        /* \"Blackjack.sol\":3046:3061  findPlayerIndex */\n      tag_52\n        /* \"Blackjack.sol\":3046:3073  findPlayerIndex(msg.sender) */\n      jump\t// in\n    tag_51:\n        /* \"Blackjack.sol\":3024:3073  uint256 playerIndex = findPlayerIndex(msg.sender) */\n      swap1\n      pop\n        /* \"Blackjack.sol\":3107:3124  type(uint256).max */\n      0xffffffffffffffffffffffffffffffffffffffffffffffffffffffffffffffff\n        /* \"Blackjack.sol\":3092:3103  playerIndex */\n      dup2\n        /* \"Blackjack.sol\":3092:3124  playerIndex != type(uint256).max */\n      sub\n        /* \"Blackjack.sol\":3084:3149  require(playerIndex != type(uint256).max, \"You are not a player\") */\n      tag_53\n      jumpi\n      mload(0x40)\n      0x08c379a000000000000000000000000000000000000000000000000000000000\n      dup2\n      mstore\n      0x04\n      add\n      tag_54\n      swap1\n      tag_55\n      jump\t// in\n    tag_54:\n      mload(0x40)\n      dup1\n      swap2\n      sub\n      swap1\n      revert\n    tag_53:\n        /* \"Blackjack.sol\":3170:3177  players */\n      0x01\n        /* \"Blackjack.sol\":3178:3189  playerIndex */\n      dup2\n        /* \"Blackjack.sol\":3170:3190  players[playerIndex] */\n      dup2\n      sload\n      dup2\n      lt\n      tag_56\n      jumpi\n      tag_57\n      tag_58\n      jump\t// in\n    tag_57:\n    tag_56:\n      swap1\n      0x00\n      mstore\n      keccak256(0x00, 0x20)\n      swap1\n      0x04\n      mul\n      add\n        /* \"Blackjack.sol\":3170:3199  players[playerIndex].isActive */\n      0x03\n      add\n      0x00\n      swap1\n      sload\n      swap1\n      0x0100\n      exp\n      swap1\n      div\n      0xff\n      and\n        /* \"Blackjack.sol\":3162:3224  require(players[playerIndex].isActive, \"Player is not active\") */\n      tag_60\n      jumpi\n      mload(0x40)\n      0x08c379a000000000000000000000000000000000000000000000000000000000\n      dup2\n      mstore\n      0x04\n      add\n      tag_61\n      swap1\n      tag_62\n      jump\t// in\n    tag_61:\n      mload(0x40)\n      dup1\n      swap2\n      sub\n      swap1\n      revert\n    tag_60:\n        /* \"Blackjack.sol\":3244:3251  players */\n      0x01\n        /* \"Blackjack.sol\":3252:3263  playerIndex */\n      dup2\n        /* \"Blackjack.sol\":3244:3264  players[playerIndex] */\n      dup2\n      sload\n      dup2\n      lt\n      tag_63\n      jumpi\n      tag_64\n      tag_58\n      jump\t// in\n    tag_64:\n    tag_63:\n      swap1\n      0x00\n      mstore\n      keccak256(0x00, 0x20)\n      swap1\n      0x04\n      mul\n      add\n        /* \"Blackjack.sol\":3244:3273  players[playerIndex].isBusted */\n      0x03\n      add\n      0x01\n      swap1\n      sload\n      swap1\n      0x0100\n      exp\n      swap1\n      div\n      0xff\n      and\n        /* \"Blackjack.sol\":3243:3273  !players[playerIndex].isBusted */\n      iszero\n        /* \"Blackjack.sol\":3235:3302  require(!players[playerIndex].isBusted, \"Player is already busted\") */\n      tag_66\n      jumpi\n      mload(0x40)\n      0x08c379a000000000000000000000000000000000000000000000000000000000\n      dup2\n      mstore\n      0x04\n      add\n      tag_67\n      swap1\n      tag_68\n      jump\t// in\n    tag_67:\n      mload(0x40)\n      dup1\n      swap2\n      sub\n      swap1\n      revert\n    tag_66:\n        /* \"Blackjack.sol\":3315:3325  uint8 card */\n      0x00\n        /* \"Blackjack.sol\":3328:3338  drawCard() */\n      tag_69\n        /* \"Blackjack.sol\":3328:3336  drawCard */\n      tag_70\n        /* \"Blackjack.sol\":3328:3338  drawCard() */\n      jump\t// in\n    tag_69:\n        /* \"Blackjack.sol\":3315:3338  uint8 card = drawCard() */\n      swap1\n      pop\n        /* \"Blackjack.sol\":3349:3356  players */\n      0x01\n        /* \"Blackjack.sol\":3357:3368  playerIndex */\n      dup3\n        /* \"Blackjack.sol\":3349:3369  players[playerIndex] */\n      dup2\n      sload\n      dup2\n      lt\n      tag_71\n      jumpi\n      tag_72\n      tag_58\n      jump\t// in\n    tag_72:\n    tag_71:\n      swap1\n      0x00\n      mstore\n      keccak256(0x00, 0x20)\n      swap1\n      0x04\n      mul\n      add\n        /* \"Blackjack.sol\":3349:3374  players[playerIndex].hand */\n      0x02\n      add\n        /* \"Blackjack.sol\":3380:3384  card */\n      dup2\n        /* \"Blackjack.sol\":3349:3385  players[playerIndex].hand.push(card) */\n      swap1\n      dup1\n      0x01\n      dup2\n      sload\n      add\n      dup1\n      dup3\n      sstore\n      dup1\n      swap2\n      pop\n      pop\n      0x01\n      swap1\n      sub\n      swap1\n      0x00\n      mstore\n      keccak256(0x00, 0x20)\n      swap1\n      0x20\n      swap2\n      dup3\n      dup3\n      div\n      add\n      swap2\n      swap1\n      mod\n      swap1\n      swap2\n      swap1\n      swap2\n      swap1\n      swap2\n      0x0100\n      exp\n      dup2\n      sload\n      dup2\n      0xff\n      mul\n      not\n      and\n      swap1\n      dup4\n      0xff\n      and\n      mul\n      or\n      swap1\n      sstore\n      pop\n        /* \"Blackjack.sol\":3444:3446  21 */\n      0x15\n        /* \"Blackjack.sol\":3402:3441  getHandValue(players[playerIndex].hand) */\n      tag_75\n        /* \"Blackjack.sol\":3415:3422  players */\n      0x01\n        /* \"Blackjack.sol\":3423:3434  playerIndex */\n      dup5\n        /* \"Blackjack.sol\":3415:3435  players[playerIndex] */\n      dup2\n      sload\n      dup2\n      lt\n      tag_76\n      jumpi\n      tag_77\n      tag_58\n      jump\t// in\n    tag_77:\n    tag_76:\n      swap1\n      0x00\n      mstore\n      keccak256(0x00, 0x20)\n      swap1\n      0x04\n      mul\n      add\n        /* \"Blackjack.sol\":3415:3440  players[playerIndex].hand */\n      0x02\n      add\n        /* \"Blackjack.sol\":3402:3441  getHandValue(players[playerIndex].hand) */\n      dup1\n      sload\n      dup1\n      0x20\n      mul\n      0x20\n      add\n      mload(0x40)\n      swap1\n      dup2\n      add\n      0x40\n      mstore\n      dup1\n      swap3\n      swap2\n      swap1\n      dup2\n      dup2\n      mstore\n      0x20\n      add\n      dup3\n      dup1\n      sload\n      dup1\n      iszero\n      tag_79\n      jumpi\n      0x20\n      mul\n      dup3\n      add\n      swap2\n      swap1\n      0x00\n      mstore\n      keccak256(0x00, 0x20)\n      swap1\n      0x00\n      swap1\n    tag_80:\n      dup3\n      dup3\n      swap1\n      sload\n      swap1\n      0x0100\n      exp\n      swap1\n      div\n      0xff\n      and\n      0xff\n      and\n      dup2\n      mstore\n      0x20\n      add\n      swap1\n      0x01\n      add\n      swap1\n      0x20\n      dup3\n      0x00\n      add\n      div\n      swap3\n      dup4\n      add\n      swap3\n      0x01\n      sub\n      dup3\n      mul\n      swap2\n      pop\n      dup1\n      dup5\n      gt\n      tag_80\n      jumpi\n      swap1\n      pop\n    tag_79:\n      pop\n      pop\n      pop\n      pop\n      pop\n        /* \"Blackjack.sol\":3402:3414  getHandValue */\n      tag_81\n        /* \"Blackjack.sol\":3402:3441  getHandValue(players[playerIndex].hand) */\n      jump\t// in\n    tag_75:\n        /* \"Blackjack.sol\":3402:3446  getHandValue(players[playerIndex].hand) > 21 */\n      0xff\n      and\n      gt\n        /* \"Blackjack.sol\":3398:3563  if (getHandValue(players[playerIndex].hand) > 21) {... */\n      iszero\n      tag_82\n      jumpi\n        /* \"Blackjack.sol\":3495:3499  true */\n      0x01\n        /* \"Blackjack.sol\":3463:3470  players */\n      dup1\n        /* \"Blackjack.sol\":3471:3482  playerIndex */\n      dup4\n        /* \"Blackjack.sol\":3463:3483  players[playerIndex] */\n      dup2\n      sload\n      dup2\n      lt\n      tag_83\n      jumpi\n      tag_84\n      tag_58\n      jump\t// in\n    tag_84:\n    tag_83:\n      swap1\n      0x00\n      mstore\n      keccak256(0x00, 0x20)\n      swap1\n      0x04\n      mul\n      add\n        /* \"Blackjack.sol\":3463:3492  players[playerIndex].isBusted */\n      0x03\n      add\n      0x01\n        /* \"Blackjack.sol\":3463:3499  players[playerIndex].isBusted = true */\n      0x0100\n      exp\n      dup2\n      sload\n      dup2\n      0xff\n      mul\n      not\n      and\n      swap1\n      dup4\n      iszero\n      iszero\n      mul\n      or\n      swap1\n      sstore\n      pop\n        /* \"Blackjack.sol\":3546:3551  false */\n      0x00\n        /* \"Blackjack.sol\":3514:3521  players */\n      0x01\n        /* \"Blackjack.sol\":3522:3533  playerIndex */\n      dup4\n        /* \"Blackjack.sol\":3514:3534  players[playerIndex] */\n      dup2\n      sload\n      dup2\n      lt\n      tag_86\n      jumpi\n      tag_87\n      tag_58\n      jump\t// in\n    tag_87:\n    tag_86:\n      swap1\n      0x00\n      mstore\n      keccak256(0x00, 0x20)\n      swap1\n      0x04\n      mul\n      add\n        /* \"Blackjack.sol\":3514:3543  players[playerIndex].isActive */\n      0x03\n      add\n      0x00\n        /* \"Blackjack.sol\":3514:3551  players[playerIndex].isActive = false */\n      0x0100\n      exp\n      dup2\n      sload\n      dup2\n      0xff\n      mul\n      not\n      and\n      swap1\n      dup4\n      iszero\n      iszero\n      mul\n      or\n      swap1\n      sstore\n      pop\n        /* \"Blackjack.sol\":3398:3563  if (getHandValue(players[playerIndex].hand) > 21) {... */\n    tag_82:\n        /* \"Blackjack.sol\":3013:3570  {... */\n      pop\n      pop\n        /* \"Blackjack.sol\":2989:3570  function hit() external {... */\n      jump\t// out\n        /* \"Blackjack.sol\":3988:5044  function determineWinner() external returns (string memory, address[] memory) {... */\n    tag_21:\n        /* \"Blackjack.sol\":4033:4046  string memory */\n      0x60\n        /* \"Blackjack.sol\":4048:4064  address[] memory */\n      dup1\n        /* \"Blackjack.sol\":4077:4092  uint8 bankScore */\n      0x00\n        /* \"Blackjack.sol\":4095:4117  getHandValue(bankHand) */\n      tag_90\n        /* \"Blackjack.sol\":4108:4116  bankHand */\n      0x03\n        /* \"Blackjack.sol\":4095:4117  getHandValue(bankHand) */\n      dup1\n      sload\n      dup1\n      0x20\n      mul\n      0x20\n      add\n      mload(0x40)\n      swap1\n      dup2\n      add\n      0x40\n      mstore\n      dup1\n      swap3\n      swap2\n      swap1\n      dup2\n      dup2\n      mstore\n      0x20\n      add\n      dup3\n      dup1\n      sload\n      dup1\n      iszero\n      tag_91\n      jumpi\n      0x20\n      mul\n      dup3\n      add\n      swap2\n      swap1\n      0x00\n      mstore\n      keccak256(0x00, 0x20)\n      swap1\n      0x00\n      swap1\n    tag_92:\n      dup3\n      dup3\n      swap1\n      sload\n      swap1\n      0x0100\n      exp\n      swap1\n      div\n      0xff\n      and\n      0xff\n      and\n      dup2\n      mstore\n      0x20\n      add\n      swap1\n      0x01\n      add\n      swap1\n      0x20\n      dup3\n      0x00\n      add\n      div\n      swap3\n      dup4\n      add\n      swap3\n      0x01\n      sub\n      dup3\n      mul\n      swap2\n      pop\n      dup1\n      dup5\n      gt\n      tag_92\n      jumpi\n      swap1\n      pop\n    tag_91:\n      pop\n      pop\n      pop\n      pop\n      pop\n        /* \"Blackjack.sol\":4095:4107  getHandValue */\n      tag_81\n        /* \"Blackjack.sol\":4095:4117  getHandValue(bankHand) */\n      jump\t// in\n    tag_90:\n        /* \"Blackjack.sol\":4077:4117  uint8 bankScore = getHandValue(bankHand) */\n      swap1\n      pop\n        /* \"Blackjack.sol\":4135:4146  lastWinners */\n      0x06\n      0x00\n        /* \"Blackjack.sol\":4128:4146  delete lastWinners */\n      tag_93\n      swap2\n      swap1\n      tag_94\n      jump\t// in\n    tag_93:\n        /* \"Blackjack.sol\":4159:4354  while (bankScore < 17) {... */\n    tag_95:\n        /* \"Blackjack.sol\":4178:4180  17 */\n      0x11\n        /* \"Blackjack.sol\":4166:4175  bankScore */\n      dup2\n        /* \"Blackjack.sol\":4166:4180  bankScore < 17 */\n      0xff\n      and\n      lt\n        /* \"Blackjack.sol\":4159:4354  while (bankScore < 17) {... */\n      iszero\n      tag_96\n      jumpi\n        /* \"Blackjack.sol\":4197:4207  uint8 card */\n      0x00\n        /* \"Blackjack.sol\":4210:4220  drawCard() */\n      tag_97\n        /* \"Blackjack.sol\":4210:4218  drawCard */\n      tag_70\n        /* \"Blackjack.sol\":4210:4220  drawCard() */\n      jump\t// in\n    tag_97:\n        /* \"Blackjack.sol\":4197:4220  uint8 card = drawCard() */\n      swap1\n      pop\n        /* \"Blackjack.sol\":4235:4243  bankHand */\n      0x03\n        /* \"Blackjack.sol\":4249:4253  card */\n      dup2\n        /* \"Blackjack.sol\":4235:4254  bankHand.push(card) */\n      swap1\n      dup1\n      0x01\n      dup2\n      sload\n      add\n      dup1\n      dup3\n      sstore\n      dup1\n      swap2\n      pop\n      pop\n      0x01\n      swap1\n      sub\n      swap1\n      0x00\n      mstore\n      keccak256(0x00, 0x20)\n      swap1\n      0x20\n      swap2\n      dup3\n      dup3\n      div\n      add\n      swap2\n      swap1\n      mod\n      swap1\n      swap2\n      swap1\n      swap2\n      swap1\n      swap2\n      0x0100\n      exp\n      dup2\n      sload\n      dup2\n      0xff\n      mul\n      not\n      and\n      swap1\n      dup4\n      0xff\n      and\n      mul\n      or\n      swap1\n      sstore\n      pop\n        /* \"Blackjack.sol\":4281:4303  getHandValue(bankHand) */\n      tag_99\n        /* \"Blackjack.sol\":4294:4302  bankHand */\n      0x03\n        /* \"Blackjack.sol\":4281:4303  getHandValue(bankHand) */\n      dup1\n      sload\n      dup1\n      0x20\n      mul\n      0x20\n      add\n      mload(0x40)\n      swap1\n      dup2\n      add\n      0x40\n      mstore\n      dup1\n      swap3\n      swap2\n      swap1\n      dup2\n      dup2\n      mstore\n      0x20\n      add\n      dup3\n      dup1\n      sload\n      dup1\n      iszero\n      tag_100\n      jumpi\n      0x20\n      mul\n      dup3\n      add\n      swap2\n      swap1\n      0x00\n      mstore\n      keccak256(0x00, 0x20)\n      swap1\n      0x00\n      swap1\n    tag_101:\n      dup3\n      dup3\n      swap1\n      sload\n      swap1\n      0x0100\n      exp\n      swap1\n      div\n      0xff\n      and\n      0xff\n      and\n      dup2\n      mstore\n      0x20\n      add\n      swap1\n      0x01\n      add\n      swap1\n      0x20\n      dup3\n      0x00\n      add\n      div\n      swap3\n      dup4\n      add\n      swap3\n      0x01\n      sub\n      dup3\n      mul\n      swap2\n      pop\n      dup1\n      dup5\n      gt\n      tag_101\n      jumpi\n      swap1\n      pop\n    tag_100:\n      pop\n      pop\n      pop\n      pop\n      pop\n        /* \"Blackjack.sol\":4281:4293  getHandValue */\n      tag_81\n        /* \"Blackjack.sol\":4281:4303  getHandValue(bankHand) */\n      jump\t// in\n    tag_99:\n        /* \"Blackjack.sol\":4269:4303  bankScore = getHandValue(bankHand) */\n      swap2\n      pop\n        /* \"Blackjack.sol\":4323:4342  BankCardDrawn(card) */\n      0x74719e1845aac9a5b808b73f76f15e0ded61fd1f03fc0cd802e98e8e1d2299fe\n        /* \"Blackjack.sol\":4337:4341  card */\n      dup2\n        /* \"Blackjack.sol\":4323:4342  BankCardDrawn(card) */\n      mload(0x40)\n      tag_102\n      swap2\n      swap1\n      tag_103\n      jump\t// in\n    tag_102:\n      mload(0x40)\n      dup1\n      swap2\n      sub\n      swap1\n      log1\n        /* \"Blackjack.sol\":4182:4354  {... */\n      pop\n        /* \"Blackjack.sol\":4159:4354  while (bankScore < 17) {... */\n      jump(tag_95)\n    tag_96:\n        /* \"Blackjack.sol\":4414:4422  bankHand */\n      0x03\n        /* \"Blackjack.sol\":4399:4411  lastBankHand */\n      0x05\n        /* \"Blackjack.sol\":4399:4422  lastBankHand = bankHand */\n      swap1\n      dup1\n      sload\n      tag_104\n      swap3\n      swap2\n      swap1\n      tag_105\n      jump\t// in\n    tag_104:\n      pop\n        /* \"Blackjack.sol\":4448:4492  formatHand(lastBankHand, \"Last Bank Hand: \") */\n      tag_106\n        /* \"Blackjack.sol\":4459:4471  lastBankHand */\n      0x05\n        /* \"Blackjack.sol\":4448:4492  formatHand(lastBankHand, \"Last Bank Hand: \") */\n      dup1\n      sload\n      dup1\n      0x20\n      mul\n      0x20\n      add\n      mload(0x40)\n      swap1\n      dup2\n      add\n      0x40\n      mstore\n      dup1\n      swap3\n      swap2\n      swap1\n      dup2\n      dup2\n      mstore\n      0x20\n      add\n      dup3\n      dup1\n      sload\n      dup1\n      iszero\n      tag_107\n      jumpi\n      0x20\n      mul\n      dup3\n      add\n      swap2\n      swap1\n      0x00\n      mstore\n      keccak256(0x00, 0x20)\n      swap1\n      0x00\n      swap1\n    tag_108:\n      dup3\n      dup3\n      swap1\n      sload\n      swap1\n      0x0100\n      exp\n      swap1\n      div\n      0xff\n      and\n      0xff\n      and\n      dup2\n      mstore\n      0x20\n      add\n      swap1\n      0x01\n      add\n      swap1\n      0x20\n      dup3\n      0x00\n      add\n      div\n      swap3\n      dup4\n      add\n      swap3\n      0x01\n      sub\n      dup3\n      mul\n      swap2\n      pop\n      dup1\n      dup5\n      gt\n      tag_108\n      jumpi\n      swap1\n      pop\n    tag_107:\n      pop\n      pop\n      pop\n      pop\n      pop\n      mload(0x40)\n      dup1\n      0x40\n      add\n      0x40\n      mstore\n      dup1\n      0x10\n      dup2\n      mstore\n      0x20\n      add\n      0x4c6173742042616e6b2048616e643a2000000000000000000000000000000000\n      dup2\n      mstore\n      pop\n        /* \"Blackjack.sol\":4448:4458  formatHand */\n      tag_109\n        /* \"Blackjack.sol\":4448:4492  formatHand(lastBankHand, \"Last Bank Hand: \") */\n      jump\t// in\n    tag_106:\n        /* \"Blackjack.sol\":4433:4445  LastBankHand */\n      0x07\n        /* \"Blackjack.sol\":4433:4492  LastBankHand = formatHand(lastBankHand, \"Last Bank Hand: \") */\n      swap1\n      dup2\n      tag_110\n      swap2\n      swap1\n      tag_111\n      jump\t// in\n    tag_110:\n      pop\n        /* \"Blackjack.sol\":4510:4519  uint256 i */\n      0x00\n        /* \"Blackjack.sol\":4505:4917  for (uint256 i = 0; i < players.length; i++) {... */\n    tag_112:\n        /* \"Blackjack.sol\":4529:4536  players */\n      0x01\n        /* \"Blackjack.sol\":4529:4543  players.length */\n      dup1\n      sload\n      swap1\n      pop\n        /* \"Blackjack.sol\":4525:4526  i */\n      dup2\n        /* \"Blackjack.sol\":4525:4543  i < players.length */\n      lt\n        /* \"Blackjack.sol\":4505:4917  for (uint256 i = 0; i < players.length; i++) {... */\n      iszero\n      tag_113\n      jumpi\n        /* \"Blackjack.sol\":4565:4582  uint8 playerScore */\n      0x00\n        /* \"Blackjack.sol\":4585:4614  getHandValue(players[i].hand) */\n      tag_115\n        /* \"Blackjack.sol\":4598:4605  players */\n      0x01\n        /* \"Blackjack.sol\":4606:4607  i */\n      dup4\n        /* \"Blackjack.sol\":4598:4608  players[i] */\n      dup2\n      sload\n      dup2\n      lt\n      tag_116\n      jumpi\n      tag_117\n      tag_58\n      jump\t// in\n    tag_117:\n    tag_116:\n      swap1\n      0x00\n      mstore\n      keccak256(0x00, 0x20)\n      swap1\n      0x04\n      mul\n      add\n        /* \"Blackjack.sol\":4598:4613  players[i].hand */\n      0x02\n      add\n        /* \"Blackjack.sol\":4585:4614  getHandValue(players[i].hand) */\n      dup1\n      sload\n      dup1\n      0x20\n      mul\n      0x20\n      add\n      mload(0x40)\n      swap1\n      dup2\n      add\n      0x40\n      mstore\n      dup1\n      swap3\n      swap2\n      swap1\n      dup2\n      dup2\n      mstore\n      0x20\n      add\n      dup3\n      dup1\n      sload\n      dup1\n      iszero\n      tag_119\n      jumpi\n      0x20\n      mul\n      dup3\n      add\n      swap2\n      swap1\n      0x00\n      mstore\n      keccak256(0x00, 0x20)\n      swap1\n      0x00\n      swap1\n    tag_120:\n      dup3\n      dup3\n      swap1\n      sload\n      swap1\n      0x0100\n      exp\n      swap1\n      div\n      0xff\n      and\n      0xff\n      and\n      dup2\n      mstore\n      0x20\n      add\n      swap1\n      0x01\n      add\n      swap1\n      0x20\n      dup3\n      0x00\n      add\n      div\n      swap3\n      dup4\n      add\n      swap3\n      0x01\n      sub\n      dup3\n      mul\n      swap2\n      pop\n      dup1\n      dup5\n      gt\n      tag_120\n      jumpi\n      swap1\n      pop\n    tag_119:\n      pop\n      pop\n      pop\n      pop\n      pop\n        /* \"Blackjack.sol\":4585:4597  getHandValue */\n      tag_81\n        /* \"Blackjack.sol\":4585:4614  getHandValue(players[i].hand) */\n      jump\t// in\n    tag_115:\n        /* \"Blackjack.sol\":4565:4614  uint8 playerScore = getHandValue(players[i].hand) */\n      swap1\n      pop\n        /* \"Blackjack.sol\":4634:4641  players */\n      0x01\n        /* \"Blackjack.sol\":4642:4643  i */\n      dup3\n        /* \"Blackjack.sol\":4634:4644  players[i] */\n      dup2\n      sload\n      dup2\n      lt\n      tag_121\n      jumpi\n      tag_122\n      tag_58\n      jump\t// in\n    tag_122:\n    tag_121:\n      swap1\n      0x00\n      mstore\n      keccak256(0x00, 0x20)\n      swap1\n      0x04\n      mul\n      add\n        /* \"Blackjack.sol\":4634:4653  players[i].isBusted */\n      0x03\n      add\n      0x01\n      swap1\n      sload\n      swap1\n      0x0100\n      exp\n      swap1\n      div\n      0xff\n      and\n        /* \"Blackjack.sol\":4633:4653  !players[i].isBusted */\n      iszero\n        /* \"Blackjack.sol\":4633:4700  !players[i].isBusted && (playerScore > bankScore || bankScore > 21) */\n      dup1\n      iszero\n      tag_124\n      jumpi\n      pop\n        /* \"Blackjack.sol\":4672:4681  bankScore */\n      dup3\n        /* \"Blackjack.sol\":4658:4681  playerScore > bankScore */\n      0xff\n      and\n        /* \"Blackjack.sol\":4658:4669  playerScore */\n      dup2\n        /* \"Blackjack.sol\":4658:4681  playerScore > bankScore */\n      0xff\n      and\n      gt\n        /* \"Blackjack.sol\":4658:4699  playerScore > bankScore || bankScore > 21 */\n      dup1\n      tag_125\n      jumpi\n      pop\n        /* \"Blackjack.sol\":4697:4699  21 */\n      0x15\n        /* \"Blackjack.sol\":4685:4694  bankScore */\n      dup4\n        /* \"Blackjack.sol\":4685:4699  bankScore > 21 */\n      0xff\n      and\n      gt\n        /* \"Blackjack.sol\":4658:4699  playerScore > bankScore || bankScore > 21 */\n    tag_125:\n        /* \"Blackjack.sol\":4633:4700  !players[i].isBusted && (playerScore > bankScore || bankScore > 21) */\n    tag_124:\n        /* \"Blackjack.sol\":4629:4906  if (!players[i].isBusted && (playerScore > bankScore || bankScore > 21)) {... */\n      iszero\n      tag_126\n      jumpi\n        /* \"Blackjack.sol\":4729:4736  players */\n      0x01\n        /* \"Blackjack.sol\":4737:4738  i */\n      dup3\n        /* \"Blackjack.sol\":4729:4739  players[i] */\n      dup2\n      sload\n      dup2\n      lt\n      tag_127\n      jumpi\n      tag_128\n      tag_58\n      jump\t// in\n    tag_128:\n    tag_127:\n      swap1\n      0x00\n      mstore\n      keccak256(0x00, 0x20)\n      swap1\n      0x04\n      mul\n      add\n        /* \"Blackjack.sol\":4729:4744  players[i].addr */\n      0x00\n      add\n      0x00\n      swap1\n      sload\n      swap1\n      0x0100\n      exp\n      swap1\n      div\n      0xffffffffffffffffffffffffffffffffffffffff\n      and\n        /* \"Blackjack.sol\":4721:4754  payable(players[i].addr).transfer */\n      0xffffffffffffffffffffffffffffffffffffffff\n      and\n        /* \"Blackjack.sol\":4721:4774  payable(players[i].addr).transfer(players[i].bet * 2) */\n      0x08fc\n        /* \"Blackjack.sol\":4772:4773  2 */\n      0x02\n        /* \"Blackjack.sol\":4755:4762  players */\n      0x01\n        /* \"Blackjack.sol\":4763:4764  i */\n      dup6\n        /* \"Blackjack.sol\":4755:4765  players[i] */\n      dup2\n      sload\n      dup2\n      lt\n      tag_130\n      jumpi\n      tag_131\n      tag_58\n      jump\t// in\n    tag_131:\n    tag_130:\n      swap1\n      0x00\n      mstore\n      keccak256(0x00, 0x20)\n      swap1\n      0x04\n      mul\n      add\n        /* \"Blackjack.sol\":4755:4769  players[i].bet */\n      0x01\n      add\n      sload\n        /* \"Blackjack.sol\":4755:4773  players[i].bet * 2 */\n      tag_133\n      swap2\n      swap1\n      tag_134\n      jump\t// in\n    tag_133:\n        /* \"Blackjack.sol\":4721:4774  payable(players[i].addr).transfer(players[i].bet * 2) */\n      swap1\n      dup2\n      iszero\n      mul\n      swap1\n      mload(0x40)\n      0x00\n      mload(0x40)\n      dup1\n      dup4\n      sub\n      dup2\n      dup6\n      dup9\n      dup9\n      call\n      swap4\n      pop\n      pop\n      pop\n      pop\n      iszero\n      dup1\n      iszero\n      tag_136\n      jumpi\n      returndatasize\n      0x00\n      dup1\n      returndatacopy\n      revert(0x00, returndatasize)\n    tag_136:\n      pop\n        /* \"Blackjack.sol\":4793:4804  lastWinners */\n      0x06\n        /* \"Blackjack.sol\":4810:4817  players */\n      0x01\n        /* \"Blackjack.sol\":4818:4819  i */\n      dup4\n        /* \"Blackjack.sol\":4810:4820  players[i] */\n      dup2\n      sload\n      dup2\n      lt\n      tag_137\n      jumpi\n      tag_138\n      tag_58\n      jump\t// in\n    tag_138:\n    tag_137:\n      swap1\n      0x00\n      mstore\n      keccak256(0x00, 0x20)\n      swap1\n      0x04\n      mul\n      add\n        /* \"Blackjack.sol\":4810:4825  players[i].addr */\n      0x00\n      add\n      0x00\n      swap1\n      sload\n      swap1\n      0x0100\n      exp\n      swap1\n      div\n      0xffffffffffffffffffffffffffffffffffffffff\n      and\n        /* \"Blackjack.sol\":4793:4826  lastWinners.push(players[i].addr) */\n      swap1\n      dup1\n      0x01\n      dup2\n      sload\n      add\n      dup1\n      dup3\n      sstore\n      dup1\n      swap2\n      pop\n      pop\n      0x01\n      swap1\n      sub\n      swap1\n      0x00\n      mstore\n      keccak256(0x00, 0x20)\n      add\n      0x00\n      swap1\n      swap2\n      swap1\n      swap2\n      swap1\n      swap2\n      0x0100\n      exp\n      dup2\n      sload\n      dup2\n      0xffffffffffffffffffffffffffffffffffffffff\n      mul\n      not\n      and\n      swap1\n      dup4\n      0xffffffffffffffffffffffffffffffffffffffff\n      and\n      mul\n      or\n      swap1\n      sstore\n      pop\n        /* \"Blackjack.sol\":4850:4890  GameResult(players[i].addr, playerScore) */\n      0xe9b0a743935d9854ac97b39452742c48f05e62b1ee44825328d7bc53901b03b1\n        /* \"Blackjack.sol\":4861:4868  players */\n      0x01\n        /* \"Blackjack.sol\":4869:4870  i */\n      dup4\n        /* \"Blackjack.sol\":4861:4871  players[i] */\n      dup2\n      sload\n      dup2\n      lt\n      tag_141\n      jumpi\n      tag_142\n      tag_58\n      jump\t// in\n    tag_142:\n    tag_141:\n      swap1\n      0x00\n      mstore\n      keccak256(0x00, 0x20)\n      swap1\n      0x04\n      mul\n      add\n        /* \"Blackjack.sol\":4861:4876  players[i].addr */\n      0x00\n      add\n      0x00\n      swap1\n      sload\n      swap1\n      0x0100\n      exp\n      swap1\n      div\n      0xffffffffffffffffffffffffffffffffffffffff\n      and\n        /* \"Blackjack.sol\":4878:4889  playerScore */\n      dup3\n        /* \"Blackjack.sol\":4850:4890  GameResult(players[i].addr, playerScore) */\n      mload(0x40)\n      tag_144\n      swap3\n      swap2\n      swap1\n      tag_145\n      jump\t// in\n    tag_144:\n      mload(0x40)\n      dup1\n      swap2\n      sub\n      swap1\n      log1\n        /* \"Blackjack.sol\":4629:4906  if (!players[i].isBusted && (playerScore > bankScore || bankScore > 21)) {... */\n    tag_126:\n        /* \"Blackjack.sol\":4550:4917  {... */\n      pop\n        /* \"Blackjack.sol\":4545:4548  i++ */\n      dup1\n      dup1\n      0x01\n      add\n      swap2\n      pop\n      pop\n        /* \"Blackjack.sol\":4505:4917  for (uint256 i = 0; i < players.length; i++) {... */\n      jump(tag_112)\n    tag_113:\n      pop\n        /* \"Blackjack.sol\":4939:4965  formatWinners(lastWinners) */\n      tag_146\n        /* \"Blackjack.sol\":4953:4964  lastWinners */\n      0x06\n        /* \"Blackjack.sol\":4939:4965  formatWinners(lastWinners) */\n      dup1\n      sload\n      dup1\n      0x20\n      mul\n      0x20\n      add\n      mload(0x40)\n      swap1\n      dup2\n      add\n      0x40\n      mstore\n      dup1\n      swap3\n      swap2\n      swap1\n      dup2\n      dup2\n      mstore\n      0x20\n      add\n      dup3\n      dup1\n      sload\n      dup1\n      iszero\n      tag_147\n      jumpi\n      0x20\n      mul\n      dup3\n      add\n      swap2\n      swap1\n      0x00\n      mstore\n      keccak256(0x00, 0x20)\n      swap1\n    tag_148:\n      dup2\n      0x00\n      swap1\n      sload\n      swap1\n      0x0100\n      exp\n      swap1\n      div\n      0xffffffffffffffffffffffffffffffffffffffff\n      and\n      0xffffffffffffffffffffffffffffffffffffffff\n      and\n      dup2\n      mstore\n      0x20\n      add\n      swap1\n      0x01\n      add\n      swap1\n      dup1\n      dup4\n      gt\n      tag_148\n      jumpi\n    tag_147:\n      pop\n      pop\n      pop\n      pop\n      pop\n        /* \"Blackjack.sol\":4939:4952  formatWinners */\n      tag_149\n        /* \"Blackjack.sol\":4939:4965  formatWinners(lastWinners) */\n      jump\t// in\n    tag_146:\n        /* \"Blackjack.sol\":4929:4936  Winners */\n      0x08\n        /* \"Blackjack.sol\":4929:4965  Winners = formatWinners(lastWinners) */\n      swap1\n      dup2\n      tag_150\n      swap2\n      swap1\n      tag_111\n      jump\t// in\n    tag_150:\n      pop\n        /* \"Blackjack.sol\":4978:4989  resetGame() */\n      tag_151\n        /* \"Blackjack.sol\":4978:4987  resetGame */\n      tag_152\n        /* \"Blackjack.sol\":4978:4989  resetGame() */\n      jump\t// in\n    tag_151:\n        /* \"Blackjack.sol\":5010:5022  LastBankHand */\n      0x07\n        /* \"Blackjack.sol\":5024:5035  lastWinners */\n      0x06\n        /* \"Blackjack.sol\":5002:5036  return (LastBankHand, lastWinners) */\n      dup2\n      dup1\n      sload\n      tag_153\n      swap1\n      tag_45\n      jump\t// in\n    tag_153:\n      dup1\n      0x1f\n      add\n      0x20\n      dup1\n      swap2\n      div\n      mul\n      0x20\n      add\n      mload(0x40)\n      swap1\n      dup2\n      add\n      0x40\n      mstore\n      dup1\n      swap3\n      swap2\n      swap1\n      dup2\n      dup2\n      mstore\n      0x20\n      add\n      dup3\n      dup1\n      sload\n      tag_154\n      swap1\n      tag_45\n      jump\t// in\n    tag_154:\n      dup1\n      iszero\n      tag_155\n      jumpi\n      dup1\n      0x1f\n      lt\n      tag_156\n      jumpi\n      0x0100\n      dup1\n      dup4\n      sload\n      div\n      mul\n      dup4\n      mstore\n      swap2\n      0x20\n      add\n      swap2\n      jump(tag_155)\n    tag_156:\n      dup3\n      add\n      swap2\n      swap1\n      0x00\n      mstore\n      keccak256(0x00, 0x20)\n      swap1\n    tag_157:\n      dup2\n      sload\n      dup2\n      mstore\n      swap1\n      0x01\n      add\n      swap1\n      0x20\n      add\n      dup1\n      dup4\n      gt\n      tag_157\n      jumpi\n      dup3\n      swap1\n      sub\n      0x1f\n      and\n      dup3\n      add\n      swap2\n    tag_155:\n      pop\n      pop\n      pop\n      pop\n      pop\n      swap2\n      pop\n      dup1\n      dup1\n      sload\n      dup1\n      0x20\n      mul\n      0x20\n      add\n      mload(0x40)\n      swap1\n      dup2\n      add\n      0x40\n      mstore\n      dup1\n      swap3\n      swap2\n      swap1\n      dup2\n      dup2\n      mstore\n      0x20\n      add\n      dup3\n      dup1\n      sload\n      dup1\n      iszero\n      tag_158\n      jumpi\n      0x20\n      mul\n      dup3\n      add\n      swap2\n      swap1\n      0x00\n      mstore\n      keccak256(0x00, 0x20)\n      swap1\n    tag_159:\n      dup2\n      0x00\n      swap1\n      sload\n      swap1\n      0x0100\n      exp\n      swap1\n      div\n      0xffffffffffffffffffffffffffffffffffffffff\n      and\n      0xffffffffffffffffffffffffffffffffffffffff\n      and\n      dup2\n      mstore\n      0x20\n      add\n      swap1\n      0x01\n      add\n      swap1\n      dup1\n      dup4\n      gt\n      tag_159\n      jumpi\n    tag_158:\n      pop\n      pop\n      pop\n      pop\n      pop\n      swap1\n      pop\n      swap3\n      pop\n      swap3\n      pop\n      pop\n        /* \"Blackjack.sol\":3988:5044  function determineWinner() external returns (string memory, address[] memory) {... */\n      swap1\n      swap2\n      jump\t// out\n        /* \"Blackjack.sol\":3578:3755  function stand(uint256 playerIndex) external {... */\n    tag_28:\n        /* \"Blackjack.sol\":3656:3663  players */\n      0x01\n        /* \"Blackjack.sol\":3664:3675  playerIndex */\n      dup2\n        /* \"Blackjack.sol\":3656:3676  players[playerIndex] */\n      dup2\n      sload\n      dup2\n      lt\n      tag_161\n      jumpi\n      tag_162\n      tag_58\n      jump\t// in\n    tag_162:\n    tag_161:\n      swap1\n      0x00\n      mstore\n      keccak256(0x00, 0x20)\n      swap1\n      0x04\n      mul\n      add\n        /* \"Blackjack.sol\":3656:3681  players[playerIndex].addr */\n      0x00\n      add\n      0x00\n      swap1\n      sload\n      swap1\n      0x0100\n      exp\n      swap1\n      div\n      0xffffffffffffffffffffffffffffffffffffffff\n      and\n        /* \"Blackjack.sol\":3642:3681  msg.sender == players[playerIndex].addr */\n      0xffffffffffffffffffffffffffffffffffffffff\n      and\n        /* \"Blackjack.sol\":3642:3652  msg.sender */\n      caller\n        /* \"Blackjack.sol\":3642:3681  msg.sender == players[playerIndex].addr */\n      0xffffffffffffffffffffffffffffffffffffffff\n      and\n      eq\n        /* \"Blackjack.sol\":3634:3699  require(msg.sender == players[playerIndex].addr, \"Not your turn\") */\n      tag_164\n      jumpi\n      mload(0x40)\n      0x08c379a000000000000000000000000000000000000000000000000000000000\n      dup2\n      mstore\n      0x04\n      add\n      tag_165\n      swap1\n      tag_166\n      jump\t// in\n    tag_165:\n      mload(0x40)\n      dup1\n      swap2\n      sub\n      swap1\n      revert\n    tag_164:\n        /* \"Blackjack.sol\":3742:3747  false */\n      0x00\n        /* \"Blackjack.sol\":3710:3717  players */\n      0x01\n        /* \"Blackjack.sol\":3718:3729  playerIndex */\n      dup3\n        /* \"Blackjack.sol\":3710:3730  players[playerIndex] */\n      dup2\n      sload\n      dup2\n      lt\n      tag_167\n      jumpi\n      tag_168\n      tag_58\n      jump\t// in\n    tag_168:\n    tag_167:\n      swap1\n      0x00\n      mstore\n      keccak256(0x00, 0x20)\n      swap1\n      0x04\n      mul\n      add\n        /* \"Blackjack.sol\":3710:3739  players[playerIndex].isActive */\n      0x03\n      add\n      0x00\n        /* \"Blackjack.sol\":3710:3747  players[playerIndex].isActive = false */\n      0x0100\n      exp\n      dup2\n      sload\n      dup2\n      0xff\n      mul\n      not\n      and\n      swap1\n      dup4\n      iszero\n      iszero\n      mul\n      or\n      swap1\n      sstore\n      pop\n        /* \"Blackjack.sol\":3578:3755  function stand(uint256 playerIndex) external {... */\n      pop\n      jump\t// out\n        /* \"Blackjack.sol\":3921:3942  string public Winners */\n    tag_31:\n      0x08\n      dup1\n      sload\n      tag_170\n      swap1\n      tag_45\n      jump\t// in\n    tag_170:\n      dup1\n      0x1f\n      add\n      0x20\n      dup1\n      swap2\n      div\n      mul\n      0x20\n      add\n      mload(0x40)\n      swap1\n      dup2\n      add\n      0x40\n      mstore\n      dup1\n      swap3\n      swap2\n      swap1\n      dup2\n      dup2\n      mstore\n      0x20\n      add\n      dup3\n      dup1\n      sload\n      tag_171\n      swap1\n      tag_45\n      jump\t// in\n    tag_171:\n      dup1\n      iszero\n      tag_172\n      jumpi\n      dup1\n      0x1f\n      lt\n      tag_173\n      jumpi\n      0x0100\n      dup1\n      dup4\n      sload\n      div\n      mul\n      dup4\n      mstore\n      swap2\n      0x20\n      add\n      swap2\n      jump(tag_172)\n    tag_173:\n      dup3\n      add\n      swap2\n      swap1\n      0x00\n      mstore\n      keccak256(0x00, 0x20)\n      swap1\n    tag_174:\n      dup2\n      sload\n      dup2\n      mstore\n      swap1\n      0x01\n      add\n      swap1\n      0x20\n      add\n      dup1\n      dup4\n      gt\n      tag_174\n      jumpi\n      dup3\n      swap1\n      sub\n      0x1f\n      and\n      dup3\n      add\n      swap2\n    tag_172:\n      pop\n      pop\n      pop\n      pop\n      pop\n      dup2\n      jump\t// out\n        /* \"Blackjack.sol\":2471:2981  function getAllHands() external view returns (string[] memory) {... */\n    tag_35:\n        /* \"Blackjack.sol\":2517:2532  string[] memory */\n      0x60\n        /* \"Blackjack.sol\":2545:2575  string[] memory formattedHands */\n      0x00\n        /* \"Blackjack.sol\":2608:2609  1 */\n      0x01\n        /* \"Blackjack.sol\":2591:2598  players */\n      dup1\n        /* \"Blackjack.sol\":2591:2605  players.length */\n      dup1\n      sload\n      swap1\n      pop\n        /* \"Blackjack.sol\":2591:2609  players.length + 1 */\n      tag_176\n      swap2\n      swap1\n      tag_177\n      jump\t// in\n    tag_176:\n        /* \"Blackjack.sol\":2578:2610  new string[](players.length + 1) */\n      0xffffffffffffffff\n      dup2\n      gt\n      iszero\n      tag_178\n      jumpi\n      tag_179\n      tag_180\n      jump\t// in\n    tag_179:\n    tag_178:\n      mload(0x40)\n      swap1\n      dup1\n      dup3\n      mstore\n      dup1\n      0x20\n      mul\n      0x20\n      add\n      dup3\n      add\n      0x40\n      mstore\n      dup1\n      iszero\n      tag_181\n      jumpi\n      dup2\n      0x20\n      add\n    tag_182:\n      0x60\n      dup2\n      mstore\n      0x20\n      add\n      swap1\n      0x01\n      swap1\n      sub\n      swap1\n      dup2\n      tag_182\n      jumpi\n      swap1\n      pop\n    tag_181:\n      pop\n        /* \"Blackjack.sol\":2545:2610  string[] memory formattedHands = new string[](players.length + 1) */\n      swap1\n      pop\n        /* \"Blackjack.sol\":2676:2706  formatHand(bankHand, \"Bank: \") */\n      tag_183\n        /* \"Blackjack.sol\":2687:2695  bankHand */\n      0x03\n        /* \"Blackjack.sol\":2676:2706  formatHand(bankHand, \"Bank: \") */\n      dup1\n      sload\n      dup1\n      0x20\n      mul\n      0x20\n      add\n      mload(0x40)\n      swap1\n      dup2\n      add\n      0x40\n      mstore\n      dup1\n      swap3\n      swap2\n      swap1\n      dup2\n      dup2\n      mstore\n      0x20\n      add\n      dup3\n      dup1\n      sload\n      dup1\n      iszero\n      tag_184\n      jumpi\n      0x20\n      mul\n      dup3\n      add\n      swap2\n      swap1\n      0x00\n      mstore\n      keccak256(0x00, 0x20)\n      swap1\n      0x00\n      swap1\n    tag_185:\n      dup3\n      dup3\n      swap1\n      sload\n      swap1\n      0x0100\n      exp\n      swap1\n      div\n      0xff\n      and\n      0xff\n      and\n      dup2\n      mstore\n      0x20\n      add\n      swap1\n      0x01\n      add\n      swap1\n      0x20\n      dup3\n      0x00\n      add\n      div\n      swap3\n      dup4\n      add\n      swap3\n      0x01\n      sub\n      dup3\n      mul\n      swap2\n      pop\n      dup1\n      dup5\n      gt\n      tag_185\n      jumpi\n      swap1\n      pop\n    tag_184:\n      pop\n      pop\n      pop\n      pop\n      pop\n      mload(0x40)\n      dup1\n      0x40\n      add\n      0x40\n      mstore\n      dup1\n      0x06\n      dup2\n      mstore\n      0x20\n      add\n      0x42616e6b3a200000000000000000000000000000000000000000000000000000\n      dup2\n      mstore\n      pop\n        /* \"Blackjack.sol\":2676:2686  formatHand */\n      tag_109\n        /* \"Blackjack.sol\":2676:2706  formatHand(bankHand, \"Bank: \") */\n      jump\t// in\n    tag_183:\n        /* \"Blackjack.sol\":2656:2670  formattedHands */\n      dup2\n        /* \"Blackjack.sol\":2671:2672  0 */\n      0x00\n        /* \"Blackjack.sol\":2656:2673  formattedHands[0] */\n      dup2\n      mload\n      dup2\n      lt\n      tag_186\n      jumpi\n      tag_187\n      tag_58\n      jump\t// in\n    tag_187:\n    tag_186:\n      0x20\n      mul\n      0x20\n      add\n      add\n        /* \"Blackjack.sol\":2656:2706  formattedHands[0] = formatHand(bankHand, \"Bank: \") */\n      dup2\n      swap1\n      mstore\n      pop\n        /* \"Blackjack.sol\":2762:2771  uint256 i */\n      0x00\n        /* \"Blackjack.sol\":2757:2940  for (uint256 i = 0; i < players.length; i++) {... */\n    tag_188:\n        /* \"Blackjack.sol\":2781:2788  players */\n      0x01\n        /* \"Blackjack.sol\":2781:2795  players.length */\n      dup1\n      sload\n      swap1\n      pop\n        /* \"Blackjack.sol\":2777:2778  i */\n      dup2\n        /* \"Blackjack.sol\":2777:2795  i < players.length */\n      lt\n        /* \"Blackjack.sol\":2757:2940  for (uint256 i = 0; i < players.length; i++) {... */\n      iszero\n      tag_189\n      jumpi\n        /* \"Blackjack.sol\":2841:2928  formatHand(players[i].hand, string(abi.encodePacked(\"Player \", uint2str(i + 1), \": \"))) */\n      tag_191\n        /* \"Blackjack.sol\":2852:2859  players */\n      0x01\n        /* \"Blackjack.sol\":2860:2861  i */\n      dup3\n        /* \"Blackjack.sol\":2852:2862  players[i] */\n      dup2\n      sload\n      dup2\n      lt\n      tag_192\n      jumpi\n      tag_193\n      tag_58\n      jump\t// in\n    tag_193:\n    tag_192:\n      swap1\n      0x00\n      mstore\n      keccak256(0x00, 0x20)\n      swap1\n      0x04\n      mul\n      add\n        /* \"Blackjack.sol\":2852:2867  players[i].hand */\n      0x02\n      add\n        /* \"Blackjack.sol\":2841:2928  formatHand(players[i].hand, string(abi.encodePacked(\"Player \", uint2str(i + 1), \": \"))) */\n      dup1\n      sload\n      dup1\n      0x20\n      mul\n      0x20\n      add\n      mload(0x40)\n      swap1\n      dup2\n      add\n      0x40\n      mstore\n      dup1\n      swap3\n      swap2\n      swap1\n      dup2\n      dup2\n      mstore\n      0x20\n      add\n      dup3\n      dup1\n      sload\n      dup1\n      iszero\n      tag_195\n      jumpi\n      0x20\n      mul\n      dup3\n      add\n      swap2\n      swap1\n      0x00\n      mstore\n      keccak256(0x00, 0x20)\n      swap1\n      0x00\n      swap1\n    tag_196:\n      dup3\n      dup3\n      swap1\n      sload\n      swap1\n      0x0100\n      exp\n      swap1\n      div\n      0xff\n      and\n      0xff\n      and\n      dup2\n      mstore\n      0x20\n      add\n      swap1\n      0x01\n      add\n      swap1\n      0x20\n      dup3\n      0x00\n      add\n      div\n      swap3\n      dup4\n      add\n      swap3\n      0x01\n      sub\n      dup3\n      mul\n      swap2\n      pop\n      dup1\n      dup5\n      gt\n      tag_196\n      jumpi\n      swap1\n      pop\n    tag_195:\n      pop\n      pop\n      pop\n      pop\n      pop\n        /* \"Blackjack.sol\":2904:2919  uint2str(i + 1) */\n      tag_197\n        /* \"Blackjack.sol\":2917:2918  1 */\n      0x01\n        /* \"Blackjack.sol\":2913:2914  i */\n      dup5\n        /* \"Blackjack.sol\":2913:2918  i + 1 */\n      tag_198\n      swap2\n      swap1\n      tag_177\n      jump\t// in\n    tag_198:\n        /* \"Blackjack.sol\":2904:2912  uint2str */\n      tag_199\n        /* \"Blackjack.sol\":2904:2919  uint2str(i + 1) */\n      jump\t// in\n    tag_197:\n        /* \"Blackjack.sol\":2876:2926  abi.encodePacked(\"Player \", uint2str(i + 1), \": \") */\n      add(0x20, mload(0x40))\n      tag_200\n      swap2\n      swap1\n      tag_201\n      jump\t// in\n    tag_200:\n      mload(0x40)\n      0x20\n      dup2\n      dup4\n      sub\n      sub\n      dup2\n      mstore\n      swap1\n      0x40\n      mstore\n        /* \"Blackjack.sol\":2841:2851  formatHand */\n      tag_109\n        /* \"Blackjack.sol\":2841:2928  formatHand(players[i].hand, string(abi.encodePacked(\"Player \", uint2str(i + 1), \": \"))) */\n      jump\t// in\n    tag_191:\n        /* \"Blackjack.sol\":2817:2831  formattedHands */\n      dup3\n        /* \"Blackjack.sol\":2836:2837  1 */\n      0x01\n        /* \"Blackjack.sol\":2832:2833  i */\n      dup4\n        /* \"Blackjack.sol\":2832:2837  i + 1 */\n      tag_202\n      swap2\n      swap1\n      tag_177\n      jump\t// in\n    tag_202:\n        /* \"Blackjack.sol\":2817:2838  formattedHands[i + 1] */\n      dup2\n      mload\n      dup2\n      lt\n      tag_203\n      jumpi\n      tag_204\n      tag_58\n      jump\t// in\n    tag_204:\n    tag_203:\n      0x20\n      mul\n      0x20\n      add\n      add\n        /* \"Blackjack.sol\":2817:2928  formattedHands[i + 1] = formatHand(players[i].hand, string(abi.encodePacked(\"Player \", uint2str(i + 1), \": \"))) */\n      dup2\n      swap1\n      mstore\n      pop\n        /* \"Blackjack.sol\":2797:2800  i++ */\n      dup1\n      dup1\n      0x01\n      add\n      swap2\n      pop\n      pop\n        /* \"Blackjack.sol\":2757:2940  for (uint256 i = 0; i < players.length; i++) {... */\n      jump(tag_188)\n    tag_189:\n      pop\n        /* \"Blackjack.sol\":2959:2973  formattedHands */\n      dup1\n        /* \"Blackjack.sol\":2952:2973  return formattedHands */\n      swap2\n      pop\n      pop\n        /* \"Blackjack.sol\":2471:2981  function getAllHands() external view returns (string[] memory) {... */\n      swap1\n      jump\t// out\n        /* \"Blackjack.sol\":1073:1431  function startGame() external {... */\n    tag_40:\n        /* \"Blackjack.sol\":1136:1137  0 */\n      0x00\n        /* \"Blackjack.sol\":1122:1133  playerCount */\n      sload(0x02)\n        /* \"Blackjack.sol\":1122:1137  playerCount > 0 */\n      gt\n        /* \"Blackjack.sol\":1114:1164  require(playerCount > 0, \"No players in the game\") */\n      tag_206\n      jumpi\n      mload(0x40)\n      0x08c379a000000000000000000000000000000000000000000000000000000000\n      dup2\n      mstore\n      0x04\n      add\n      tag_207\n      swap1\n      tag_208\n      jump\t// in\n    tag_207:\n      mload(0x40)\n      dup1\n      swap2\n      sub\n      swap1\n      revert\n    tag_206:\n        /* \"Blackjack.sol\":1175:1188  shuffleDeck() */\n      tag_209\n        /* \"Blackjack.sol\":1175:1186  shuffleDeck */\n      tag_210\n        /* \"Blackjack.sol\":1175:1188  shuffleDeck() */\n      jump\t// in\n    tag_209:\n        /* \"Blackjack.sol\":1206:1215  uint256 i */\n      0x00\n        /* \"Blackjack.sol\":1201:1352  for (uint256 i = 0; i < players.length; i++) {... */\n    tag_211:\n        /* \"Blackjack.sol\":1225:1232  players */\n      0x01\n        /* \"Blackjack.sol\":1225:1239  players.length */\n      dup1\n      sload\n      swap1\n      pop\n        /* \"Blackjack.sol\":1221:1222  i */\n      dup2\n        /* \"Blackjack.sol\":1221:1239  i < players.length */\n      lt\n        /* \"Blackjack.sol\":1201:1352  for (uint256 i = 0; i < players.length; i++) {... */\n      iszero\n      tag_212\n      jumpi\n        /* \"Blackjack.sol\":1261:1268  players */\n      0x01\n        /* \"Blackjack.sol\":1269:1270  i */\n      dup2\n        /* \"Blackjack.sol\":1261:1271  players[i] */\n      dup2\n      sload\n      dup2\n      lt\n      tag_214\n      jumpi\n      tag_215\n      tag_58\n      jump\t// in\n    tag_215:\n    tag_214:\n      swap1\n      0x00\n      mstore\n      keccak256(0x00, 0x20)\n      swap1\n      0x04\n      mul\n      add\n        /* \"Blackjack.sol\":1261:1276  players[i].hand */\n      0x02\n      add\n        /* \"Blackjack.sol\":1282:1292  drawCard() */\n      tag_217\n        /* \"Blackjack.sol\":1282:1290  drawCard */\n      tag_70\n        /* \"Blackjack.sol\":1282:1292  drawCard() */\n      jump\t// in\n    tag_217:\n        /* \"Blackjack.sol\":1261:1293  players[i].hand.push(drawCard()) */\n      swap1\n      dup1\n      0x01\n      dup2\n      sload\n      add\n      dup1\n      dup3\n      sstore\n      dup1\n      swap2\n      pop\n      pop\n      0x01\n      swap1\n      sub\n      swap1\n      0x00\n      mstore\n      keccak256(0x00, 0x20)\n      swap1\n      0x20\n      swap2\n      dup3\n      dup3\n      div\n      add\n      swap2\n      swap1\n      mod\n      swap1\n      swap2\n      swap1\n      swap2\n      swap1\n      swap2\n      0x0100\n      exp\n      dup2\n      sload\n      dup2\n      0xff\n      mul\n      not\n      and\n      swap1\n      dup4\n      0xff\n      and\n      mul\n      or\n      swap1\n      sstore\n      pop\n        /* \"Blackjack.sol\":1308:1315  players */\n      0x01\n        /* \"Blackjack.sol\":1316:1317  i */\n      dup2\n        /* \"Blackjack.sol\":1308:1318  players[i] */\n      dup2\n      sload\n      dup2\n      lt\n      tag_219\n      jumpi\n      tag_220\n      tag_58\n      jump\t// in\n    tag_220:\n    tag_219:\n      swap1\n      0x00\n      mstore\n      keccak256(0x00, 0x20)\n      swap1\n      0x04\n      mul\n      add\n        /* \"Blackjack.sol\":1308:1323  players[i].hand */\n      0x02\n      add\n        /* \"Blackjack.sol\":1329:1339  drawCard() */\n      tag_222\n        /* \"Blackjack.sol\":1329:1337  drawCard */\n      tag_70\n        /* \"Blackjack.sol\":1329:1339  drawCard() */\n      jump\t// in\n    tag_222:\n        /* \"Blackjack.sol\":1308:1340  players[i].hand.push(drawCard()) */\n      swap1\n      dup1\n      0x01\n      dup2\n      sload\n      add\n      dup1\n      dup3\n      sstore\n      dup1\n      swap2\n      pop\n      pop\n      0x01\n      swap1\n      sub\n      swap1\n      0x00\n      mstore\n      keccak256(0x00, 0x20)\n      swap1\n      0x20\n      swap2\n      dup3\n      dup3\n      div\n      add\n      swap2\n      swap1\n      mod\n      swap1\n      swap2\n      swap1\n      swap2\n      swap1\n      swap2\n      0x0100\n      exp\n      dup2\n      sload\n      dup2\n      0xff\n      mul\n      not\n      and\n      swap1\n      dup4\n      0xff\n      and\n      mul\n      or\n      swap1\n      sstore\n      pop\n        /* \"Blackjack.sol\":1241:1244  i++ */\n      dup1\n      dup1\n      0x01\n      add\n      swap2\n      pop\n      pop\n        /* \"Blackjack.sol\":1201:1352  for (uint256 i = 0; i < players.length; i++) {... */\n      jump(tag_211)\n    tag_212:\n      pop\n        /* \"Blackjack.sol\":1362:1370  bankHand */\n      0x03\n        /* \"Blackjack.sol\":1376:1386  drawCard() */\n      tag_224\n        /* \"Blackjack.sol\":1376:1384  drawCard */\n      tag_70\n        /* \"Blackjack.sol\":1376:1386  drawCard() */\n      jump\t// in\n    tag_224:\n        /* \"Blackjack.sol\":1362:1387  bankHand.push(drawCard()) */\n      swap1\n      dup1\n      0x01\n      dup2\n      sload\n      add\n      dup1\n      dup3\n      sstore\n      dup1\n      swap2\n      pop\n      pop\n      0x01\n      swap1\n      sub\n      swap1\n      0x00\n      mstore\n      keccak256(0x00, 0x20)\n      swap1\n      0x20\n      swap2\n      dup3\n      dup3\n      div\n      add\n      swap2\n      swap1\n      mod\n      swap1\n      swap2\n      swap1\n      swap2\n      swap1\n      swap2\n      0x0100\n      exp\n      dup2\n      sload\n      dup2\n      0xff\n      mul\n      not\n      and\n      swap1\n      dup4\n      0xff\n      and\n      mul\n      or\n      swap1\n      sstore\n      pop\n        /* \"Blackjack.sol\":1398:1406  bankHand */\n      0x03\n        /* \"Blackjack.sol\":1412:1422  drawCard() */\n      tag_226\n        /* \"Blackjack.sol\":1412:1420  drawCard */\n      tag_70\n        /* \"Blackjack.sol\":1412:1422  drawCard() */\n      jump\t// in\n    tag_226:\n        /* \"Blackjack.sol\":1398:1423  bankHand.push(drawCard()) */\n      swap1\n      dup1\n      0x01\n      dup2\n      sload\n      add\n      dup1\n      dup3\n      sstore\n      dup1\n      swap2\n      pop\n      pop\n      0x01\n      swap1\n      sub\n      swap1\n      0x00\n      mstore\n      keccak256(0x00, 0x20)\n      swap1\n      0x20\n      swap2\n      dup3\n      dup3\n      div\n      add\n      swap2\n      swap1\n      mod\n      swap1\n      swap2\n      swap1\n      swap2\n      swap1\n      swap2\n      0x0100\n      exp\n      dup2\n      sload\n      dup2\n      0xff\n      mul\n      not\n      and\n      swap1\n      dup4\n      0xff\n      and\n      mul\n      or\n      swap1\n      sstore\n      pop\n        /* \"Blackjack.sol\":1073:1431  function startGame() external {... */\n      jump\t// out\n        /* \"Blackjack.sol\":670:1065  function joinGame(uint256 bet) external payable {... */\n    tag_43:\n        /* \"Blackjack.sol\":751:752  4 */\n      0x04\n        /* \"Blackjack.sol\":737:748  playerCount */\n      sload(0x02)\n        /* \"Blackjack.sol\":737:752  playerCount < 4 */\n      lt\n        /* \"Blackjack.sol\":729:778  require(playerCount < 4, \"Max 4 players allowed\") */\n      tag_229\n      jumpi\n      mload(0x40)\n      0x08c379a000000000000000000000000000000000000000000000000000000000\n      dup2\n      mstore\n      0x04\n      add\n      tag_230\n      swap1\n      tag_231\n      jump\t// in\n    tag_230:\n      mload(0x40)\n      dup1\n      swap2\n      sub\n      swap1\n      revert\n    tag_229:\n        /* \"Blackjack.sol\":810:813  bet */\n      dup1\n        /* \"Blackjack.sol\":797:806  msg.value */\n      callvalue\n        /* \"Blackjack.sol\":797:813  msg.value == bet */\n      eq\n        /* \"Blackjack.sol\":789:837  require(msg.value == bet, \"Bet amount mismatch\") */\n      tag_232\n      jumpi\n      mload(0x40)\n      0x08c379a000000000000000000000000000000000000000000000000000000000\n      dup2\n      mstore\n      0x04\n      add\n      tag_233\n      swap1\n      tag_234\n      jump\t// in\n    tag_233:\n      mload(0x40)\n      dup1\n      swap2\n      sub\n      swap1\n      revert\n    tag_232:\n        /* \"Blackjack.sol\":850:857  players */\n      0x01\n        /* \"Blackjack.sol\":863:1030  Player({... */\n      mload(0x40)\n      dup1\n      0xa0\n      add\n      0x40\n      mstore\n      dup1\n        /* \"Blackjack.sol\":891:901  msg.sender */\n      caller\n        /* \"Blackjack.sol\":863:1030  Player({... */\n      0xffffffffffffffffffffffffffffffffffffffff\n      and\n      dup2\n      mstore\n      0x20\n      add\n        /* \"Blackjack.sol\":921:924  bet */\n      dup4\n        /* \"Blackjack.sol\":863:1030  Player({... */\n      dup2\n      mstore\n      0x20\n      add\n        /* \"Blackjack.sol\":957:958  0 */\n      0x00\n        /* \"Blackjack.sol\":945:959  new uint8[](0) */\n      0xffffffffffffffff\n      dup2\n      gt\n      iszero\n      tag_235\n      jumpi\n      tag_236\n      tag_180\n      jump\t// in\n    tag_236:\n    tag_235:\n      mload(0x40)\n      swap1\n      dup1\n      dup3\n      mstore\n      dup1\n      0x20\n      mul\n      0x20\n      add\n      dup3\n      add\n      0x40\n      mstore\n      dup1\n      iszero\n      tag_237\n      jumpi\n      dup2\n      0x20\n      add\n      0x20\n      dup3\n      mul\n      dup1\n      calldatasize\n      dup4\n      calldatacopy\n      dup1\n      dup3\n      add\n      swap2\n      pop\n      pop\n      swap1\n      pop\n    tag_237:\n      pop\n        /* \"Blackjack.sol\":863:1030  Player({... */\n      dup2\n      mstore\n      0x20\n      add\n        /* \"Blackjack.sol\":984:988  true */\n      0x01\n        /* \"Blackjack.sol\":863:1030  Player({... */\n      iszero\n      iszero\n      dup2\n      mstore\n      0x20\n      add\n        /* \"Blackjack.sol\":1013:1018  false */\n      0x00\n        /* \"Blackjack.sol\":863:1030  Player({... */\n      iszero\n      iszero\n      dup2\n      mstore\n      pop\n        /* \"Blackjack.sol\":850:1031  players.push(Player({... */\n      swap1\n      dup1\n      0x01\n      dup2\n      sload\n      add\n      dup1\n      dup3\n      sstore\n      dup1\n      swap2\n      pop\n      pop\n      0x01\n      swap1\n      sub\n      swap1\n      0x00\n      mstore\n      keccak256(0x00, 0x20)\n      swap1\n      0x04\n      mul\n      add\n      0x00\n      swap1\n      swap2\n      swap1\n      swap2\n      swap1\n      swap2\n      pop\n      0x00\n      dup3\n      add\n      mload\n      dup2\n      0x00\n      add\n      exp(0x0100, 0x00)\n      dup2\n      sload\n      dup2\n      0xffffffffffffffffffffffffffffffffffffffff\n      mul\n      not\n      and\n      swap1\n      dup4\n      0xffffffffffffffffffffffffffffffffffffffff\n      and\n      mul\n      or\n      swap1\n      sstore\n      pop\n      0x20\n      dup3\n      add\n      mload\n      dup2\n      0x01\n      add\n      sstore\n      0x40\n      dup3\n      add\n      mload\n      dup2\n      0x02\n      add\n      swap1\n      dup1\n      mload\n      swap1\n      0x20\n      add\n      swap1\n      tag_239\n      swap3\n      swap2\n      swap1\n      tag_240\n      jump\t// in\n    tag_239:\n      pop\n      0x60\n      dup3\n      add\n      mload\n      dup2\n      0x03\n      add\n      exp(0x0100, 0x00)\n      dup2\n      sload\n      dup2\n      0xff\n      mul\n      not\n      and\n      swap1\n      dup4\n      iszero\n      iszero\n      mul\n      or\n      swap1\n      sstore\n      pop\n      0x80\n      dup3\n      add\n      mload\n      dup2\n      0x03\n      add\n      exp(0x0100, 0x01)\n      dup2\n      sload\n      dup2\n      0xff\n      mul\n      not\n      and\n      swap1\n      dup4\n      iszero\n      iszero\n      mul\n      or\n      swap1\n      sstore\n      pop\n      pop\n      pop\n        /* \"Blackjack.sol\":1044:1055  playerCount */\n      0x02\n      0x00\n        /* \"Blackjack.sol\":1044:1057  playerCount++ */\n      dup2\n      sload\n      dup1\n      swap3\n      swap2\n      swap1\n      tag_241\n      swap1\n      tag_242\n      jump\t// in\n    tag_241:\n      swap2\n      swap1\n      pop\n      sstore\n      pop\n        /* \"Blackjack.sol\":670:1065  function joinGame(uint256 bet) external payable {... */\n      pop\n      jump\t// out\n        /* \"Blackjack.sol\":6110:6395  function findPlayerIndex(address playerAddress) internal view returns (uint256) {... */\n    tag_52:\n        /* \"Blackjack.sol\":6181:6188  uint256 */\n      0x00\n        /* \"Blackjack.sol\":6206:6215  uint256 i */\n      dup1\n        /* \"Blackjack.sol\":6218:6219  0 */\n      0x00\n        /* \"Blackjack.sol\":6206:6219  uint256 i = 0 */\n      swap1\n      pop\n        /* \"Blackjack.sol\":6201:6353  for (uint256 i = 0; i < players.length; i++) {... */\n    tag_244:\n        /* \"Blackjack.sol\":6225:6232  players */\n      0x01\n        /* \"Blackjack.sol\":6225:6239  players.length */\n      dup1\n      sload\n      swap1\n      pop\n        /* \"Blackjack.sol\":6221:6222  i */\n      dup2\n        /* \"Blackjack.sol\":6221:6239  i < players.length */\n      lt\n        /* \"Blackjack.sol\":6201:6353  for (uint256 i = 0; i < players.length; i++) {... */\n      iszero\n      tag_245\n      jumpi\n        /* \"Blackjack.sol\":6284:6297  playerAddress */\n      dup3\n        /* \"Blackjack.sol\":6265:6297  players[i].addr == playerAddress */\n      0xffffffffffffffffffffffffffffffffffffffff\n      and\n        /* \"Blackjack.sol\":6265:6272  players */\n      0x01\n        /* \"Blackjack.sol\":6273:6274  i */\n      dup3\n        /* \"Blackjack.sol\":6265:6275  players[i] */\n      dup2\n      sload\n      dup2\n      lt\n      tag_247\n      jumpi\n      tag_248\n      tag_58\n      jump\t// in\n    tag_248:\n    tag_247:\n      swap1\n      0x00\n      mstore\n      keccak256(0x00, 0x20)\n      swap1\n      0x04\n      mul\n      add\n        /* \"Blackjack.sol\":6265:6280  players[i].addr */\n      0x00\n      add\n      0x00\n      swap1\n      sload\n      swap1\n      0x0100\n      exp\n      swap1\n      div\n      0xffffffffffffffffffffffffffffffffffffffff\n      and\n        /* \"Blackjack.sol\":6265:6297  players[i].addr == playerAddress */\n      0xffffffffffffffffffffffffffffffffffffffff\n      and\n      sub\n        /* \"Blackjack.sol\":6261:6342  if (players[i].addr == playerAddress) {... */\n      tag_250\n      jumpi\n        /* \"Blackjack.sol\":6325:6326  i */\n      dup1\n        /* \"Blackjack.sol\":6318:6326  return i */\n      swap2\n      pop\n      pop\n      jump(tag_243)\n        /* \"Blackjack.sol\":6261:6342  if (players[i].addr == playerAddress) {... */\n    tag_250:\n        /* \"Blackjack.sol\":6241:6244  i++ */\n      dup1\n      dup1\n      0x01\n      add\n      swap2\n      pop\n      pop\n        /* \"Blackjack.sol\":6201:6353  for (uint256 i = 0; i < players.length; i++) {... */\n      jump(tag_244)\n    tag_245:\n      pop\n        /* \"Blackjack.sol\":6370:6387  type(uint256).max */\n      0xffffffffffffffffffffffffffffffffffffffffffffffffffffffffffffffff\n        /* \"Blackjack.sol\":6363:6387  return type(uint256).max */\n      swap1\n      pop\n        /* \"Blackjack.sol\":6110:6395  function findPlayerIndex(address playerAddress) internal view returns (uint256) {... */\n    tag_243:\n      swap2\n      swap1\n      pop\n      jump\t// out\n        /* \"CardDeck.sol\":833:1069  function drawCard() internal returns (uint8) {... */\n    tag_70:\n        /* \"CardDeck.sol\":871:876  uint8 */\n      0x00\n        /* \"CardDeck.sol\":911:912  0 */\n      dup1\n        /* \"CardDeck.sol\":897:901  deck */\n      0x00\n        /* \"CardDeck.sol\":897:908  deck.length */\n      dup1\n      sload\n      swap1\n      pop\n        /* \"CardDeck.sol\":897:912  deck.length > 0 */\n      gt\n        /* \"CardDeck.sol\":889:942  require(deck.length > 0, \"No cards left in the deck\") */\n      tag_252\n      jumpi\n      mload(0x40)\n      0x08c379a000000000000000000000000000000000000000000000000000000000\n      dup2\n      mstore\n      0x04\n      add\n      tag_253\n      swap1\n      tag_254\n      jump\t// in\n    tag_253:\n      mload(0x40)\n      dup1\n      swap2\n      sub\n      swap1\n      revert\n    tag_252:\n        /* \"CardDeck.sol\":953:963  uint8 card */\n      0x00\n        /* \"CardDeck.sol\":966:970  deck */\n      dup1\n        /* \"CardDeck.sol\":985:986  1 */\n      0x01\n        /* \"CardDeck.sol\":971:975  deck */\n      0x00\n        /* \"CardDeck.sol\":971:982  deck.length */\n      dup1\n      sload\n      swap1\n      pop\n        /* \"CardDeck.sol\":971:986  deck.length - 1 */\n      tag_255\n      swap2\n      swap1\n      tag_256\n      jump\t// in\n    tag_255:\n        /* \"CardDeck.sol\":966:987  deck[deck.length - 1] */\n      dup2\n      sload\n      dup2\n      lt\n      tag_257\n      jumpi\n      tag_258\n      tag_58\n      jump\t// in\n    tag_258:\n    tag_257:\n      swap1\n      0x00\n      mstore\n      keccak256(0x00, 0x20)\n      swap1\n      0x20\n      swap2\n      dup3\n      dup3\n      div\n      add\n      swap2\n      swap1\n      mod\n      swap1\n      sload\n      swap1\n      0x0100\n      exp\n      swap1\n      div\n      0xff\n      and\n        /* \"CardDeck.sol\":953:987  uint8 card = deck[deck.length - 1] */\n      swap1\n      pop\n        /* \"CardDeck.sol\":998:1002  deck */\n      0x00\n        /* \"CardDeck.sol\":998:1008  deck.pop() */\n      dup1\n      sload\n      dup1\n      tag_260\n      jumpi\n      tag_261\n      tag_262\n      jump\t// in\n    tag_261:\n    tag_260:\n      0x01\n      swap1\n      sub\n      dup2\n      dup2\n      swap1\n      0x00\n      mstore\n      keccak256(0x00, 0x20)\n      swap1\n      0x20\n      swap2\n      dup3\n      dup3\n      div\n      add\n      swap2\n      swap1\n      mod\n      0x0100\n      exp\n      dup2\n      sload\n      swap1\n      0xff\n      mul\n      not\n      and\n      swap1\n      sstore\n      swap1\n      sstore\n        /* \"CardDeck.sol\":1057:1061  card */\n      dup1\n        /* \"CardDeck.sol\":1050:1061  return card */\n      swap2\n      pop\n      pop\n        /* \"CardDeck.sol\":833:1069  function drawCard() internal returns (uint8) {... */\n      swap1\n      jump\t// out\n        /* \"CardDeck.sol\":1077:1707  function getHandValue(uint8[] memory hand) internal pure returns (uint8) {... */\n    tag_81:\n        /* \"CardDeck.sol\":1143:1148  uint8 */\n      0x00\n        /* \"CardDeck.sol\":1161:1172  uint8 value */\n      dup1\n        /* \"CardDeck.sol\":1175:1176  0 */\n      0x00\n        /* \"CardDeck.sol\":1161:1176  uint8 value = 0 */\n      swap1\n      pop\n        /* \"CardDeck.sol\":1187:1197  uint8 aces */\n      0x00\n        /* \"CardDeck.sol\":1219:1228  uint256 i */\n      dup1\n        /* \"CardDeck.sol\":1214:1540  for (uint256 i = 0; i < hand.length; i++) {... */\n    tag_265:\n        /* \"CardDeck.sol\":1238:1242  hand */\n      dup5\n        /* \"CardDeck.sol\":1238:1249  hand.length */\n      mload\n        /* \"CardDeck.sol\":1234:1235  i */\n      dup2\n        /* \"CardDeck.sol\":1234:1249  i < hand.length */\n      lt\n        /* \"CardDeck.sol\":1214:1540  for (uint256 i = 0; i < hand.length; i++) {... */\n      iszero\n      tag_266\n      jumpi\n        /* \"CardDeck.sol\":1271:1286  uint8 cardValue */\n      0x00\n        /* \"CardDeck.sol\":1299:1301  13 */\n      0x0d\n        /* \"CardDeck.sol\":1289:1293  hand */\n      dup7\n        /* \"CardDeck.sol\":1294:1295  i */\n      dup4\n        /* \"CardDeck.sol\":1289:1296  hand[i] */\n      dup2\n      mload\n      dup2\n      lt\n      tag_268\n      jumpi\n      tag_269\n      tag_58\n      jump\t// in\n    tag_269:\n    tag_268:\n      0x20\n      mul\n      0x20\n      add\n      add\n      mload\n        /* \"CardDeck.sol\":1289:1301  hand[i] % 13 */\n      tag_270\n      swap2\n      swap1\n      tag_271\n      jump\t// in\n    tag_270:\n        /* \"CardDeck.sol\":1271:1301  uint8 cardValue = hand[i] % 13 */\n      swap1\n      pop\n        /* \"CardDeck.sol\":1356:1357  0 */\n      0x00\n        /* \"CardDeck.sol\":1343:1352  cardValue */\n      dup2\n        /* \"CardDeck.sol\":1343:1357  cardValue == 0 */\n      0xff\n      and\n      sub\n        /* \"CardDeck.sol\":1339:1373  if (cardValue == 0) cardValue = 13 */\n      tag_272\n      jumpi\n        /* \"CardDeck.sol\":1371:1373  13 */\n      0x0d\n        /* \"CardDeck.sol\":1359:1373  cardValue = 13 */\n      swap1\n      pop\n        /* \"CardDeck.sol\":1339:1373  if (cardValue == 0) cardValue = 13 */\n    tag_272:\n        /* \"CardDeck.sol\":1404:1406  10 */\n      0x0a\n        /* \"CardDeck.sol\":1392:1401  cardValue */\n      dup2\n        /* \"CardDeck.sol\":1392:1406  cardValue > 10 */\n      0xff\n      and\n      gt\n        /* \"CardDeck.sol\":1388:1422  if (cardValue > 10) cardValue = 10 */\n      iszero\n      tag_273\n      jumpi\n        /* \"CardDeck.sol\":1420:1422  10 */\n      0x0a\n        /* \"CardDeck.sol\":1408:1422  cardValue = 10 */\n      swap1\n      pop\n        /* \"CardDeck.sol\":1388:1422  if (cardValue > 10) cardValue = 10 */\n    tag_273:\n        /* \"CardDeck.sol\":1479:1480  1 */\n      0x01\n        /* \"CardDeck.sol\":1466:1475  cardValue */\n      dup2\n        /* \"CardDeck.sol\":1466:1480  cardValue == 1 */\n      0xff\n      and\n      sub\n        /* \"CardDeck.sol\":1462:1488  if (cardValue == 1) aces++ */\n      tag_274\n      jumpi\n        /* \"CardDeck.sol\":1482:1488  aces++ */\n      dup3\n      dup1\n      tag_275\n      swap1\n      tag_276\n      jump\t// in\n    tag_275:\n      swap4\n      pop\n      pop\n        /* \"CardDeck.sol\":1462:1488  if (cardValue == 1) aces++ */\n    tag_274:\n        /* \"CardDeck.sol\":1519:1528  cardValue */\n      dup1\n        /* \"CardDeck.sol\":1510:1528  value += cardValue */\n      dup5\n      tag_277\n      swap2\n      swap1\n      tag_278\n      jump\t// in\n    tag_277:\n      swap4\n      pop\n        /* \"CardDeck.sol\":1256:1540  {... */\n      pop\n        /* \"CardDeck.sol\":1251:1254  i++ */\n      dup1\n      dup1\n      0x01\n      add\n      swap2\n      pop\n      pop\n        /* \"CardDeck.sol\":1214:1540  for (uint256 i = 0; i < hand.length; i++) {... */\n      jump(tag_265)\n    tag_266:\n      pop\n        /* \"CardDeck.sol\":1552:1675  while (value <= 11 && aces > 0) {... */\n    tag_279:\n        /* \"CardDeck.sol\":1568:1570  11 */\n      0x0b\n        /* \"CardDeck.sol\":1559:1564  value */\n      dup3\n        /* \"CardDeck.sol\":1559:1570  value <= 11 */\n      0xff\n      and\n      gt\n      iszero\n        /* \"CardDeck.sol\":1559:1582  value <= 11 && aces > 0 */\n      dup1\n      iszero\n      tag_281\n      jumpi\n      pop\n        /* \"CardDeck.sol\":1581:1582  0 */\n      0x00\n        /* \"CardDeck.sol\":1574:1578  aces */\n      dup2\n        /* \"CardDeck.sol\":1574:1582  aces > 0 */\n      0xff\n      and\n      gt\n        /* \"CardDeck.sol\":1559:1582  value <= 11 && aces > 0 */\n    tag_281:\n        /* \"CardDeck.sol\":1552:1675  while (value <= 11 && aces > 0) {... */\n      iszero\n      tag_280\n      jumpi\n        /* \"CardDeck.sol\":1608:1610  10 */\n      0x0a\n        /* \"CardDeck.sol\":1599:1610  value += 10 */\n      dup3\n      tag_282\n      swap2\n      swap1\n      tag_278\n      jump\t// in\n    tag_282:\n      swap2\n      pop\n        /* \"CardDeck.sol\":1657:1663  aces-- */\n      dup1\n      dup1\n      tag_283\n      swap1\n      tag_284\n      jump\t// in\n    tag_283:\n      swap2\n      pop\n      pop\n        /* \"CardDeck.sol\":1552:1675  while (value <= 11 && aces > 0) {... */\n      jump(tag_279)\n    tag_280:\n        /* \"CardDeck.sol\":1694:1699  value */\n      dup2\n        /* \"CardDeck.sol\":1687:1699  return value */\n      swap3\n      pop\n      pop\n      pop\n        /* \"CardDeck.sol\":1077:1707  function getHandValue(uint8[] memory hand) internal pure returns (uint8) {... */\n      swap2\n      swap1\n      pop\n      jump\t// out\n        /* \"Blackjack.sol\":1439:2463  function formatHand(uint8[] memory hand, string memory prefix) internal pure returns (string memory) {... */\n    tag_109:\n        /* \"Blackjack.sol\":1525:1538  string memory */\n      0x60\n        /* \"Blackjack.sol\":1551:1575  string memory handString */\n      0x00\n        /* \"Blackjack.sol\":1578:1584  prefix */\n      dup3\n        /* \"Blackjack.sol\":1551:1584  string memory handString = prefix */\n      swap1\n      pop\n        /* \"Blackjack.sol\":1602:1611  uint256 i */\n      0x00\n        /* \"Blackjack.sol\":1597:2426  for (uint256 i = 0; i < hand.length; i++) {... */\n    tag_286:\n        /* \"Blackjack.sol\":1621:1625  hand */\n      dup5\n        /* \"Blackjack.sol\":1621:1632  hand.length */\n      mload\n        /* \"Blackjack.sol\":1617:1618  i */\n      dup2\n        /* \"Blackjack.sol\":1617:1632  i < hand.length */\n      lt\n        /* \"Blackjack.sol\":1597:2426  for (uint256 i = 0; i < hand.length; i++) {... */\n      iszero\n      tag_287\n      jumpi\n        /* \"Blackjack.sol\":1654:1669  uint8 cardValue */\n      0x00\n        /* \"Blackjack.sol\":1682:1684  13 */\n      0x0d\n        /* \"Blackjack.sol\":1672:1676  hand */\n      dup7\n        /* \"Blackjack.sol\":1677:1678  i */\n      dup4\n        /* \"Blackjack.sol\":1672:1679  hand[i] */\n      dup2\n      mload\n      dup2\n      lt\n      tag_289\n      jumpi\n      tag_290\n      tag_58\n      jump\t// in\n    tag_290:\n    tag_289:\n      0x20\n      mul\n      0x20\n      add\n      add\n      mload\n        /* \"Blackjack.sol\":1672:1684  hand[i] % 13 */\n      tag_291\n      swap2\n      swap1\n      tag_271\n      jump\t// in\n    tag_291:\n        /* \"Blackjack.sol\":1654:1684  uint8 cardValue = hand[i] % 13 */\n      swap1\n      pop\n        /* \"Blackjack.sol\":1716:1717  0 */\n      0x00\n        /* \"Blackjack.sol\":1703:1712  cardValue */\n      dup2\n        /* \"Blackjack.sol\":1703:1717  cardValue == 0 */\n      0xff\n      and\n      sub\n        /* \"Blackjack.sol\":1699:1773  if (cardValue == 0) {... */\n      tag_292\n      jumpi\n        /* \"Blackjack.sol\":1750:1752  13 */\n      0x0d\n        /* \"Blackjack.sol\":1738:1752  cardValue = 13 */\n      swap1\n      pop\n        /* \"Blackjack.sol\":1699:1773  if (cardValue == 0) {... */\n    tag_292:\n        /* \"Blackjack.sol\":1789:1813  string memory cardSymbol */\n      0x60\n        /* \"Blackjack.sol\":1845:1846  1 */\n      0x01\n        /* \"Blackjack.sol\":1832:1841  cardValue */\n      dup3\n        /* \"Blackjack.sol\":1832:1846  cardValue == 1 */\n      0xff\n      and\n      sub\n        /* \"Blackjack.sol\":1828:2206  if (cardValue == 1) {... */\n      tag_293\n      jumpi\n        /* \"Blackjack.sol\":1867:1883  cardSymbol = \"A\" */\n      mload(0x40)\n      dup1\n      0x40\n      add\n      0x40\n      mstore\n      dup1\n      0x01\n      dup2\n      mstore\n      0x20\n      add\n      0x4100000000000000000000000000000000000000000000000000000000000000\n      dup2\n      mstore\n      pop\n      swap1\n      pop\n        /* \"Blackjack.sol\":1828:2206  if (cardValue == 1) {... */\n      jump(tag_294)\n    tag_293:\n        /* \"Blackjack.sol\":1922:1924  11 */\n      0x0b\n        /* \"Blackjack.sol\":1909:1918  cardValue */\n      dup3\n        /* \"Blackjack.sol\":1909:1924  cardValue == 11 */\n      0xff\n      and\n      sub\n        /* \"Blackjack.sol\":1905:2206  if (cardValue == 11) {... */\n      tag_295\n      jumpi\n        /* \"Blackjack.sol\":1945:1961  cardSymbol = \"J\" */\n      mload(0x40)\n      dup1\n      0x40\n      add\n      0x40\n      mstore\n      dup1\n      0x01\n      dup2\n      mstore\n      0x20\n      add\n      0x4a00000000000000000000000000000000000000000000000000000000000000\n      dup2\n      mstore\n      pop\n      swap1\n      pop\n        /* \"Blackjack.sol\":1905:2206  if (cardValue == 11) {... */\n      jump(tag_296)\n    tag_295:\n        /* \"Blackjack.sol\":2000:2002  12 */\n      0x0c\n        /* \"Blackjack.sol\":1987:1996  cardValue */\n      dup3\n        /* \"Blackjack.sol\":1987:2002  cardValue == 12 */\n      0xff\n      and\n      sub\n        /* \"Blackjack.sol\":1983:2206  if (cardValue == 12) {... */\n      tag_297\n      jumpi\n        /* \"Blackjack.sol\":2023:2039  cardSymbol = \"Q\" */\n      mload(0x40)\n      dup1\n      0x40\n      add\n      0x40\n      mstore\n      dup1\n      0x01\n      dup2\n      mstore\n      0x20\n      add\n      0x5100000000000000000000000000000000000000000000000000000000000000\n      dup2\n      mstore\n      pop\n      swap1\n      pop\n        /* \"Blackjack.sol\":1983:2206  if (cardValue == 12) {... */\n      jump(tag_298)\n    tag_297:\n        /* \"Blackjack.sol\":2078:2080  13 */\n      0x0d\n        /* \"Blackjack.sol\":2065:2074  cardValue */\n      dup3\n        /* \"Blackjack.sol\":2065:2080  cardValue == 13 */\n      0xff\n      and\n      sub\n        /* \"Blackjack.sol\":2061:2206  if (cardValue == 13) {... */\n      tag_299\n      jumpi\n        /* \"Blackjack.sol\":2101:2117  cardSymbol = \"K\" */\n      mload(0x40)\n      dup1\n      0x40\n      add\n      0x40\n      mstore\n      dup1\n      0x01\n      dup2\n      mstore\n      0x20\n      add\n      0x4b00000000000000000000000000000000000000000000000000000000000000\n      dup2\n      mstore\n      pop\n      swap1\n      pop\n        /* \"Blackjack.sol\":2061:2206  if (cardValue == 13) {... */\n      jump(tag_300)\n    tag_299:\n        /* \"Blackjack.sol\":2171:2190  uint2str(cardValue) */\n      tag_301\n        /* \"Blackjack.sol\":2180:2189  cardValue */\n      dup3\n        /* \"Blackjack.sol\":2171:2190  uint2str(cardValue) */\n      0xff\n      and\n        /* \"Blackjack.sol\":2171:2179  uint2str */\n      tag_199\n        /* \"Blackjack.sol\":2171:2190  uint2str(cardValue) */\n      jump\t// in\n    tag_301:\n        /* \"Blackjack.sol\":2158:2190  cardSymbol = uint2str(cardValue) */\n      swap1\n      pop\n        /* \"Blackjack.sol\":2061:2206  if (cardValue == 13) {... */\n    tag_300:\n        /* \"Blackjack.sol\":1983:2206  if (cardValue == 12) {... */\n    tag_298:\n        /* \"Blackjack.sol\":1905:2206  if (cardValue == 11) {... */\n    tag_296:\n        /* \"Blackjack.sol\":1828:2206  if (cardValue == 1) {... */\n    tag_294:\n        /* \"Blackjack.sol\":2259:2269  handString */\n      dup4\n        /* \"Blackjack.sol\":2271:2281  cardSymbol */\n      dup2\n        /* \"Blackjack.sol\":2242:2282  abi.encodePacked(handString, cardSymbol) */\n      add(0x20, mload(0x40))\n      tag_302\n      swap3\n      swap2\n      swap1\n      tag_303\n      jump\t// in\n    tag_302:\n      mload(0x40)\n      0x20\n      dup2\n      dup4\n      sub\n      sub\n      dup2\n      mstore\n      swap1\n      0x40\n      mstore\n        /* \"Blackjack.sol\":2222:2283  handString = string(abi.encodePacked(handString, cardSymbol)) */\n      swap4\n      pop\n        /* \"Blackjack.sol\":2322:2323  1 */\n      0x01\n        /* \"Blackjack.sol\":2308:2312  hand */\n      dup8\n        /* \"Blackjack.sol\":2308:2319  hand.length */\n      mload\n        /* \"Blackjack.sol\":2308:2323  hand.length - 1 */\n      tag_304\n      swap2\n      swap1\n      tag_256\n      jump\t// in\n    tag_304:\n        /* \"Blackjack.sol\":2304:2305  i */\n      dup4\n        /* \"Blackjack.sol\":2304:2323  i < hand.length - 1 */\n      lt\n        /* \"Blackjack.sol\":2300:2415  if (i < hand.length - 1) {... */\n      iszero\n      tag_305\n      jumpi\n        /* \"Blackjack.sol\":2381:2391  handString */\n      dup4\n        /* \"Blackjack.sol\":2364:2398  abi.encodePacked(handString, \", \") */\n      add(0x20, mload(0x40))\n      tag_306\n      swap2\n      swap1\n      tag_307\n      jump\t// in\n    tag_306:\n      mload(0x40)\n      0x20\n      dup2\n      dup4\n      sub\n      sub\n      dup2\n      mstore\n      swap1\n      0x40\n      mstore\n        /* \"Blackjack.sol\":2344:2399  handString = string(abi.encodePacked(handString, \", \")) */\n      swap4\n      pop\n        /* \"Blackjack.sol\":2300:2415  if (i < hand.length - 1) {... */\n    tag_305:\n        /* \"Blackjack.sol\":1639:2426  {... */\n      pop\n      pop\n        /* \"Blackjack.sol\":1634:1637  i++ */\n      dup1\n      dup1\n      0x01\n      add\n      swap2\n      pop\n      pop\n        /* \"Blackjack.sol\":1597:2426  for (uint256 i = 0; i < hand.length; i++) {... */\n      jump(tag_286)\n    tag_287:\n      pop\n        /* \"Blackjack.sol\":2445:2455  handString */\n      dup1\n        /* \"Blackjack.sol\":2438:2455  return handString */\n      swap2\n      pop\n      pop\n        /* \"Blackjack.sol\":1439:2463  function formatHand(uint8[] memory hand, string memory prefix) internal pure returns (string memory) {... */\n      swap3\n      swap2\n      pop\n      pop\n      jump\t// out\n        /* \"Blackjack.sol\":5052:6102  function formatWinners(address[] memory winners) internal view returns (string memory) {... */\n    tag_149:\n        /* \"Blackjack.sol\":5124:5137  string memory */\n      0x60\n        /* \"Blackjack.sol\":5150:5170  uint256 nonBankCount */\n      0x00\n        /* \"Blackjack.sol\":5190:5199  uint256 i */\n      dup1\n        /* \"Blackjack.sol\":5185:5329  for (uint256 i = 0; i < winners.length; i++) {... */\n    tag_309:\n        /* \"Blackjack.sol\":5209:5216  winners */\n      dup4\n        /* \"Blackjack.sol\":5209:5223  winners.length */\n      mload\n        /* \"Blackjack.sol\":5205:5206  i */\n      dup2\n        /* \"Blackjack.sol\":5205:5223  i < winners.length */\n      lt\n        /* \"Blackjack.sol\":5185:5329  for (uint256 i = 0; i < winners.length; i++) {... */\n      iszero\n      tag_310\n      jumpi\n        /* \"Blackjack.sol\":5263:5267  bank */\n      0x04\n      0x00\n      swap1\n      sload\n      swap1\n      0x0100\n      exp\n      swap1\n      div\n      0xffffffffffffffffffffffffffffffffffffffff\n      and\n        /* \"Blackjack.sol\":5249:5267  winners[i] != bank */\n      0xffffffffffffffffffffffffffffffffffffffff\n      and\n        /* \"Blackjack.sol\":5249:5256  winners */\n      dup5\n        /* \"Blackjack.sol\":5257:5258  i */\n      dup3\n        /* \"Blackjack.sol\":5249:5259  winners[i] */\n      dup2\n      mload\n      dup2\n      lt\n      tag_312\n      jumpi\n      tag_313\n      tag_58\n      jump\t// in\n    tag_313:\n    tag_312:\n      0x20\n      mul\n      0x20\n      add\n      add\n      mload\n        /* \"Blackjack.sol\":5249:5267  winners[i] != bank */\n      0xffffffffffffffffffffffffffffffffffffffff\n      and\n      eq\n        /* \"Blackjack.sol\":5245:5318  if (winners[i] != bank) {... */\n      tag_314\n      jumpi\n        /* \"Blackjack.sol\":5288:5302  nonBankCount++ */\n      dup2\n      dup1\n      tag_315\n      swap1\n      tag_242\n      jump\t// in\n    tag_315:\n      swap3\n      pop\n      pop\n        /* \"Blackjack.sol\":5245:5318  if (winners[i] != bank) {... */\n    tag_314:\n        /* \"Blackjack.sol\":5225:5228  i++ */\n      dup1\n      dup1\n      0x01\n      add\n      swap2\n      pop\n      pop\n        /* \"Blackjack.sol\":5185:5329  for (uint256 i = 0; i < winners.length; i++) {... */\n      jump(tag_309)\n    tag_310:\n      pop\n        /* \"Blackjack.sol\":5361:5362  0 */\n      0x00\n        /* \"Blackjack.sol\":5345:5357  nonBankCount */\n      dup2\n        /* \"Blackjack.sol\":5345:5362  nonBankCount == 0 */\n      sub\n        /* \"Blackjack.sol\":5341:5415  if (nonBankCount == 0) {... */\n      tag_316\n      jumpi\n        /* \"Blackjack.sol\":5379:5403  return \"No players won.\" */\n      mload(0x40)\n      dup1\n      0x40\n      add\n      0x40\n      mstore\n      dup1\n      0x0f\n      dup2\n      mstore\n      0x20\n      add\n      0x4e6f20706c617965727320776f6e2e0000000000000000000000000000000000\n      dup2\n      mstore\n      pop\n      swap2\n      pop\n      pop\n      jump(tag_308)\n        /* \"Blackjack.sol\":5341:5415  if (nonBankCount == 0) {... */\n    tag_316:\n        /* \"Blackjack.sol\":5427:5447  string memory result */\n      0x00\n        /* \"Blackjack.sol\":5427:5452  string memory result = \"\" */\n      mload(0x40)\n      dup1\n      0x20\n      add\n      0x40\n      mstore\n      dup1\n      0x00\n      dup2\n      mstore\n      pop\n      swap1\n      pop\n        /* \"Blackjack.sol\":5468:5477  uint256 i */\n      0x00\n        /* \"Blackjack.sol\":5463:6069  for (uint256 i = 0; i < winners.length; i++) {... */\n    tag_317:\n        /* \"Blackjack.sol\":5487:5494  winners */\n      dup5\n        /* \"Blackjack.sol\":5487:5501  winners.length */\n      mload\n        /* \"Blackjack.sol\":5483:5484  i */\n      dup2\n        /* \"Blackjack.sol\":5483:5501  i < winners.length */\n      lt\n        /* \"Blackjack.sol\":5463:6069  for (uint256 i = 0; i < winners.length; i++) {... */\n      iszero\n      tag_318\n      jumpi\n        /* \"Blackjack.sol\":5541:5545  bank */\n      0x04\n      0x00\n      swap1\n      sload\n      swap1\n      0x0100\n      exp\n      swap1\n      div\n      0xffffffffffffffffffffffffffffffffffffffff\n      and\n        /* \"Blackjack.sol\":5527:5545  winners[i] != bank */\n      0xffffffffffffffffffffffffffffffffffffffff\n      and\n        /* \"Blackjack.sol\":5527:5534  winners */\n      dup6\n        /* \"Blackjack.sol\":5535:5536  i */\n      dup3\n        /* \"Blackjack.sol\":5527:5537  winners[i] */\n      dup2\n      mload\n      dup2\n      lt\n      tag_320\n      jumpi\n      tag_321\n      tag_58\n      jump\t// in\n    tag_321:\n    tag_320:\n      0x20\n      mul\n      0x20\n      add\n      add\n      mload\n        /* \"Blackjack.sol\":5527:5545  winners[i] != bank */\n      0xffffffffffffffffffffffffffffffffffffffff\n      and\n      eq\n        /* \"Blackjack.sol\":5523:6058  if (winners[i] != bank) {... */\n      tag_322\n      jumpi\n        /* \"Blackjack.sol\":5566:5585  uint256 playerIndex */\n      0x00\n        /* \"Blackjack.sol\":5588:5615  findPlayerIndex(winners[i]) */\n      tag_323\n        /* \"Blackjack.sol\":5604:5611  winners */\n      dup7\n        /* \"Blackjack.sol\":5612:5613  i */\n      dup4\n        /* \"Blackjack.sol\":5604:5614  winners[i] */\n      dup2\n      mload\n      dup2\n      lt\n      tag_324\n      jumpi\n      tag_325\n      tag_58\n      jump\t// in\n    tag_325:\n    tag_324:\n      0x20\n      mul\n      0x20\n      add\n      add\n      mload\n        /* \"Blackjack.sol\":5588:5603  findPlayerIndex */\n      tag_52\n        /* \"Blackjack.sol\":5588:5615  findPlayerIndex(winners[i]) */\n      jump\t// in\n    tag_323:\n        /* \"Blackjack.sol\":5566:5615  uint256 playerIndex = findPlayerIndex(winners[i]) */\n      swap1\n      pop\n        /* \"Blackjack.sol\":5653:5670  type(uint256).max */\n      0xffffffffffffffffffffffffffffffffffffffffffffffffffffffffffffffff\n        /* \"Blackjack.sol\":5638:5649  playerIndex */\n      dup2\n        /* \"Blackjack.sol\":5638:5670  playerIndex != type(uint256).max */\n      eq\n        /* \"Blackjack.sol\":5634:6043  if (playerIndex != type(uint256).max) {... */\n      tag_326\n      jumpi\n        /* \"Blackjack.sol\":5695:5719  string memory playerName */\n      0x00\n        /* \"Blackjack.sol\":5757:5782  uint2str(playerIndex + 1) */\n      tag_327\n        /* \"Blackjack.sol\":5780:5781  1 */\n      0x01\n        /* \"Blackjack.sol\":5766:5777  playerIndex */\n      dup4\n        /* \"Blackjack.sol\":5766:5781  playerIndex + 1 */\n      tag_328\n      swap2\n      swap1\n      tag_177\n      jump\t// in\n    tag_328:\n        /* \"Blackjack.sol\":5757:5765  uint2str */\n      tag_199\n        /* \"Blackjack.sol\":5757:5782  uint2str(playerIndex + 1) */\n      jump\t// in\n    tag_327:\n        /* \"Blackjack.sol\":5729:5783  abi.encodePacked(\"Player \", uint2str(playerIndex + 1)) */\n      add(0x20, mload(0x40))\n      tag_329\n      swap2\n      swap1\n      tag_330\n      jump\t// in\n    tag_329:\n      mload(0x40)\n      0x20\n      dup2\n      dup4\n      sub\n      sub\n      dup2\n      mstore\n      swap1\n      0x40\n      mstore\n        /* \"Blackjack.sol\":5695:5784  string memory playerName = string(abi.encodePacked(\"Player \", uint2str(playerIndex + 1))) */\n      swap1\n      pop\n        /* \"Blackjack.sol\":5835:5836  0 */\n      0x00\n        /* \"Blackjack.sol\":5817:5823  result */\n      dup5\n        /* \"Blackjack.sol\":5811:5831  bytes(result).length */\n      mload\n        /* \"Blackjack.sol\":5811:5836  bytes(result).length == 0 */\n      sub\n        /* \"Blackjack.sol\":5807:6024  if (bytes(result).length == 0) {... */\n      tag_331\n      jumpi\n        /* \"Blackjack.sol\":5874:5884  playerName */\n      dup1\n        /* \"Blackjack.sol\":5865:5884  result = playerName */\n      swap4\n      pop\n        /* \"Blackjack.sol\":5807:6024  if (bytes(result).length == 0) {... */\n      jump(tag_332)\n    tag_331:\n        /* \"Blackjack.sol\":5974:5980  result */\n      dup4\n        /* \"Blackjack.sol\":5988:5998  playerName */\n      dup2\n        /* \"Blackjack.sol\":5957:5999  abi.encodePacked(result, \", \", playerName) */\n      add(0x20, mload(0x40))\n      tag_333\n      swap3\n      swap2\n      swap1\n      tag_334\n      jump\t// in\n    tag_333:\n      mload(0x40)\n      0x20\n      dup2\n      dup4\n      sub\n      sub\n      dup2\n      mstore\n      swap1\n      0x40\n      mstore\n        /* \"Blackjack.sol\":5941:6000  result = string(abi.encodePacked(result, \", \", playerName)) */\n      swap4\n      pop\n        /* \"Blackjack.sol\":5807:6024  if (bytes(result).length == 0) {... */\n    tag_332:\n        /* \"Blackjack.sol\":5672:6043  {... */\n      pop\n        /* \"Blackjack.sol\":5634:6043  if (playerIndex != type(uint256).max) {... */\n    tag_326:\n        /* \"Blackjack.sol\":5547:6058  {... */\n      pop\n        /* \"Blackjack.sol\":5523:6058  if (winners[i] != bank) {... */\n    tag_322:\n        /* \"Blackjack.sol\":5503:5506  i++ */\n      dup1\n      dup1\n      0x01\n      add\n      swap2\n      pop\n      pop\n        /* \"Blackjack.sol\":5463:6069  for (uint256 i = 0; i < winners.length; i++) {... */\n      jump(tag_317)\n    tag_318:\n      pop\n        /* \"Blackjack.sol\":6088:6094  result */\n      dup1\n        /* \"Blackjack.sol\":6081:6094  return result */\n      swap3\n      pop\n      pop\n      pop\n        /* \"Blackjack.sol\":5052:6102  function formatWinners(address[] memory winners) internal view returns (string memory) {... */\n    tag_308:\n      swap2\n      swap1\n      pop\n      jump\t// out\n        /* \"Blackjack.sol\":6403:6540  function resetGame() internal {... */\n    tag_152:\n        /* \"Blackjack.sol\":6451:6458  players */\n      0x01\n      0x00\n        /* \"Blackjack.sol\":6444:6458  delete players */\n      tag_336\n      swap2\n      swap1\n      tag_337\n      jump\t// in\n    tag_336:\n        /* \"Blackjack.sol\":6476:6484  bankHand */\n      0x03\n      0x00\n        /* \"Blackjack.sol\":6469:6484  delete bankHand */\n      tag_338\n      swap2\n      swap1\n      tag_339\n      jump\t// in\n    tag_338:\n        /* \"Blackjack.sol\":6509:6510  0 */\n      0x00\n        /* \"Blackjack.sol\":6495:6506  playerCount */\n      0x02\n        /* \"Blackjack.sol\":6495:6510  playerCount = 0 */\n      dup2\n      swap1\n      sstore\n      pop\n        /* \"Blackjack.sol\":6521:6532  resetDeck() */\n      tag_340\n        /* \"Blackjack.sol\":6521:6530  resetDeck */\n      tag_341\n        /* \"Blackjack.sol\":6521:6532  resetDeck() */\n      jump\t// in\n    tag_340:\n        /* \"Blackjack.sol\":6403:6540  function resetGame() internal {... */\n      jump\t// out\n        /* \"Blackjack.sol\":6548:7066  function uint2str(uint256 _i) internal pure returns (string memory _uintAsString) {... */\n    tag_199:\n        /* \"Blackjack.sol\":6601:6628  string memory _uintAsString */\n      0x60\n        /* \"Blackjack.sol\":6651:6652  0 */\n      0x00\n        /* \"Blackjack.sol\":6645:6647  _i */\n      dup3\n        /* \"Blackjack.sol\":6645:6652  _i == 0 */\n      sub\n        /* \"Blackjack.sol\":6641:6691  if (_i == 0) {... */\n      tag_343\n      jumpi\n        /* \"Blackjack.sol\":6669:6679  return \"0\" */\n      mload(0x40)\n      dup1\n      0x40\n      add\n      0x40\n      mstore\n      dup1\n      0x01\n      dup2\n      mstore\n      0x20\n      add\n      0x3000000000000000000000000000000000000000000000000000000000000000\n      dup2\n      mstore\n      pop\n      swap1\n      pop\n      jump(tag_342)\n        /* \"Blackjack.sol\":6641:6691  if (_i == 0) {... */\n    tag_343:\n        /* \"Blackjack.sol\":6701:6710  uint256 j */\n      0x00\n        /* \"Blackjack.sol\":6713:6715  _i */\n      dup3\n        /* \"Blackjack.sol\":6701:6715  uint256 j = _i */\n      swap1\n      pop\n        /* \"Blackjack.sol\":6726:6740  uint256 length */\n      0x00\n        /* \"Blackjack.sol\":6751:6823  while (j != 0) {... */\n    tag_344:\n        /* \"Blackjack.sol\":6763:6764  0 */\n      0x00\n        /* \"Blackjack.sol\":6758:6759  j */\n      dup3\n        /* \"Blackjack.sol\":6758:6764  j != 0 */\n      eq\n        /* \"Blackjack.sol\":6751:6823  while (j != 0) {... */\n      tag_345\n      jumpi\n        /* \"Blackjack.sol\":6781:6789  length++ */\n      dup1\n      dup1\n      tag_346\n      swap1\n      tag_242\n      jump\t// in\n    tag_346:\n      swap2\n      pop\n      pop\n        /* \"Blackjack.sol\":6809:6811  10 */\n      0x0a\n        /* \"Blackjack.sol\":6804:6811  j /= 10 */\n      dup3\n      tag_347\n      swap2\n      swap1\n      tag_348\n      jump\t// in\n    tag_347:\n      swap2\n      pop\n        /* \"Blackjack.sol\":6751:6823  while (j != 0) {... */\n      jump(tag_344)\n    tag_345:\n        /* \"Blackjack.sol\":6833:6850  bytes memory bstr */\n      0x00\n        /* \"Blackjack.sol\":6863:6869  length */\n      dup2\n        /* \"Blackjack.sol\":6853:6870  new bytes(length) */\n      0xffffffffffffffff\n      dup2\n      gt\n      iszero\n      tag_349\n      jumpi\n      tag_350\n      tag_180\n      jump\t// in\n    tag_350:\n    tag_349:\n      mload(0x40)\n      swap1\n      dup1\n      dup3\n      mstore\n      dup1\n      0x1f\n      add\n      not(0x1f)\n      and\n      0x20\n      add\n      dup3\n      add\n      0x40\n      mstore\n      dup1\n      iszero\n      tag_351\n      jumpi\n      dup2\n      0x20\n      add\n      0x01\n      dup3\n      mul\n      dup1\n      calldatasize\n      dup4\n      calldatacopy\n      dup1\n      dup3\n      add\n      swap2\n      pop\n      pop\n      swap1\n      pop\n    tag_351:\n      pop\n        /* \"Blackjack.sol\":6833:6870  bytes memory bstr = new bytes(length) */\n      swap1\n      pop\n        /* \"Blackjack.sol\":6881:6890  uint256 k */\n      0x00\n        /* \"Blackjack.sol\":6893:6899  length */\n      dup3\n        /* \"Blackjack.sol\":6881:6899  uint256 k = length */\n      swap1\n      pop\n        /* \"Blackjack.sol\":6914:6916  _i */\n      dup6\n        /* \"Blackjack.sol\":6910:6916  j = _i */\n      swap4\n      pop\n        /* \"Blackjack.sol\":6927:7029  while (j != 0) {... */\n    tag_352:\n        /* \"Blackjack.sol\":6939:6940  0 */\n      0x00\n        /* \"Blackjack.sol\":6934:6935  j */\n      dup5\n        /* \"Blackjack.sol\":6934:6940  j != 0 */\n      eq\n        /* \"Blackjack.sol\":6927:7029  while (j != 0) {... */\n      tag_353\n      jumpi\n        /* \"Blackjack.sol\":6991:6993  10 */\n      0x0a\n        /* \"Blackjack.sol\":6987:6988  j */\n      dup5\n        /* \"Blackjack.sol\":6987:6993  j % 10 */\n      tag_354\n      swap2\n      swap1\n      tag_355\n      jump\t// in\n    tag_354:\n        /* \"Blackjack.sol\":6982:6984  48 */\n      0x30\n        /* \"Blackjack.sol\":6982:6993  48 + j % 10 */\n      tag_356\n      swap2\n      swap1\n      tag_177\n      jump\t// in\n    tag_356:\n        /* \"Blackjack.sol\":6969:6995  bytes1(uint8(48 + j % 10)) */\n      0xf8\n      shl\n        /* \"Blackjack.sol\":6957:6961  bstr */\n      dup3\n        /* \"Blackjack.sol\":6962:6965  --k */\n      dup3\n      tag_357\n      swap1\n      tag_358\n      jump\t// in\n    tag_357:\n      swap3\n      pop\n      dup3\n        /* \"Blackjack.sol\":6957:6966  bstr[--k] */\n      dup2\n      mload\n      dup2\n      lt\n      tag_359\n      jumpi\n      tag_360\n      tag_58\n      jump\t// in\n    tag_360:\n    tag_359:\n      0x20\n      add\n      add\n        /* \"Blackjack.sol\":6957:6995  bstr[--k] = bytes1(uint8(48 + j % 10)) */\n      swap1\n      not(0xffffffffffffffffffffffffffffffffffffffffffffffffffffffffffffff)\n      and\n      swap1\n      dup2\n      0x00\n      byte\n      swap1\n      mstore8\n      pop\n        /* \"Blackjack.sol\":7015:7017  10 */\n      0x0a\n        /* \"Blackjack.sol\":7010:7017  j /= 10 */\n      dup5\n      tag_361\n      swap2\n      swap1\n      tag_348\n      jump\t// in\n    tag_361:\n      swap4\n      pop\n        /* \"Blackjack.sol\":6927:7029  while (j != 0) {... */\n      jump(tag_352)\n    tag_353:\n        /* \"Blackjack.sol\":7053:7057  bstr */\n      dup2\n        /* \"Blackjack.sol\":7039:7058  return string(bstr) */\n      swap5\n      pop\n      pop\n      pop\n      pop\n      pop\n        /* \"Blackjack.sol\":6548:7066  function uint2str(uint256 _i) internal pure returns (string memory _uintAsString) {... */\n    tag_342:\n      swap2\n      swap1\n      pop\n      jump\t// out\n        /* \"CardDeck.sol\":369:825  function shuffleDeck() internal {... */\n    tag_210:\n        /* \"CardDeck.sol\":412:424  uint256 seed */\n      0x00\n        /* \"CardDeck.sol\":462:477  block.timestamp */\n      timestamp\n        /* \"CardDeck.sol\":479:495  block.prevrandao */\n      prevrandao\n        /* \"CardDeck.sol\":522:523  1 */\n      0x01\n        /* \"CardDeck.sol\":507:519  block.number */\n      number\n        /* \"CardDeck.sol\":507:523  block.number - 1 */\n      tag_363\n      swap2\n      swap1\n      tag_256\n      jump\t// in\n    tag_363:\n        /* \"CardDeck.sol\":497:524  blockhash(block.number - 1) */\n      blockhash\n        /* \"CardDeck.sol\":445:525  abi.encodePacked(block.timestamp, block.prevrandao, blockhash(block.number - 1)) */\n      add(0x20, mload(0x40))\n      tag_364\n      swap4\n      swap3\n      swap2\n      swap1\n      tag_365\n      jump\t// in\n    tag_364:\n      mload(0x40)\n      0x20\n      dup2\n      dup4\n      sub\n      sub\n      dup2\n      mstore\n      swap1\n      0x40\n      mstore\n        /* \"CardDeck.sol\":435:526  keccak256(abi.encodePacked(block.timestamp, block.prevrandao, blockhash(block.number - 1))) */\n      dup1\n      mload\n      swap1\n      0x20\n      add\n      keccak256\n        /* \"CardDeck.sol\":427:527  uint256(keccak256(abi.encodePacked(block.timestamp, block.prevrandao, blockhash(block.number - 1)))) */\n      0x00\n      shr\n        /* \"CardDeck.sol\":412:527  uint256 seed = uint256(keccak256(abi.encodePacked(block.timestamp, block.prevrandao, blockhash(block.number - 1)))) */\n      swap1\n      pop\n        /* \"CardDeck.sol\":543:552  uint256 i */\n      0x00\n        /* \"CardDeck.sol\":538:818  for (uint256 i = 0; i < deck.length; i++) {... */\n    tag_366:\n        /* \"CardDeck.sol\":562:566  deck */\n      0x00\n        /* \"CardDeck.sol\":562:573  deck.length */\n      dup1\n      sload\n      swap1\n      pop\n        /* \"CardDeck.sol\":558:559  i */\n      dup2\n        /* \"CardDeck.sol\":558:573  i < deck.length */\n      lt\n        /* \"CardDeck.sol\":538:818  for (uint256 i = 0; i < deck.length; i++) {... */\n      iszero\n      tag_367\n      jumpi\n        /* \"CardDeck.sol\":595:612  uint256 swapIndex */\n      0x00\n        /* \"CardDeck.sol\":622:626  deck */\n      dup1\n        /* \"CardDeck.sol\":622:633  deck.length */\n      dup1\n      sload\n      swap1\n      pop\n        /* \"CardDeck.sol\":615:619  seed */\n      dup4\n        /* \"CardDeck.sol\":615:633  seed % deck.length */\n      tag_369\n      swap2\n      swap1\n      tag_355\n      jump\t// in\n    tag_369:\n        /* \"CardDeck.sol\":595:633  uint256 swapIndex = seed % deck.length */\n      swap1\n      pop\n        /* \"CardDeck.sol\":678:682  deck */\n      0x00\n        /* \"CardDeck.sol\":683:692  swapIndex */\n      dup2\n        /* \"CardDeck.sol\":678:693  deck[swapIndex] */\n      dup2\n      sload\n      dup2\n      lt\n      tag_370\n      jumpi\n      tag_371\n      tag_58\n      jump\t// in\n    tag_371:\n    tag_370:\n      swap1\n      0x00\n      mstore\n      keccak256(0x00, 0x20)\n      swap1\n      0x20\n      swap2\n      dup3\n      dup3\n      div\n      add\n      swap2\n      swap1\n      mod\n      swap1\n      sload\n      swap1\n      0x0100\n      exp\n      swap1\n      div\n      0xff\n      and\n        /* \"CardDeck.sol\":695:699  deck */\n      0x00\n        /* \"CardDeck.sol\":700:701  i */\n      dup4\n        /* \"CardDeck.sol\":695:702  deck[i] */\n      dup2\n      sload\n      dup2\n      lt\n      tag_373\n      jumpi\n      tag_374\n      tag_58\n      jump\t// in\n    tag_374:\n    tag_373:\n      swap1\n      0x00\n      mstore\n      keccak256(0x00, 0x20)\n      swap1\n      0x20\n      swap2\n      dup3\n      dup3\n      div\n      add\n      swap2\n      swap1\n      mod\n      swap1\n      sload\n      swap1\n      0x0100\n      exp\n      swap1\n      div\n      0xff\n      and\n        /* \"CardDeck.sol\":649:653  deck */\n      0x00\n        /* \"CardDeck.sol\":654:655  i */\n      dup5\n        /* \"CardDeck.sol\":649:656  deck[i] */\n      dup2\n      sload\n      dup2\n      lt\n      tag_376\n      jumpi\n      tag_377\n      tag_58\n      jump\t// in\n    tag_377:\n    tag_376:\n      swap1\n      0x00\n      mstore\n      keccak256(0x00, 0x20)\n      swap1\n      0x20\n      swap2\n      dup3\n      dup3\n      div\n      add\n      swap2\n      swap1\n      mod\n        /* \"CardDeck.sol\":658:662  deck */\n      0x00\n        /* \"CardDeck.sol\":663:672  swapIndex */\n      dup6\n        /* \"CardDeck.sol\":658:673  deck[swapIndex] */\n      dup2\n      sload\n      dup2\n      lt\n      tag_379\n      jumpi\n      tag_380\n      tag_58\n      jump\t// in\n    tag_380:\n    tag_379:\n      swap1\n      0x00\n      mstore\n      keccak256(0x00, 0x20)\n      swap1\n      0x20\n      swap2\n      dup3\n      dup3\n      div\n      add\n      swap2\n      swap1\n      mod\n        /* \"CardDeck.sol\":648:703  (deck[i], deck[swapIndex]) = (deck[swapIndex], deck[i]) */\n      dup5\n      swap2\n      swap1\n      0x0100\n      exp\n      dup2\n      sload\n      dup2\n      0xff\n      mul\n      not\n      and\n      swap1\n      dup4\n      0xff\n      and\n      mul\n      or\n      swap1\n      sstore\n      pop\n      dup4\n      swap2\n      swap1\n      0x0100\n      exp\n      dup2\n      sload\n      dup2\n      0xff\n      mul\n      not\n      and\n      swap1\n      dup4\n      0xff\n      and\n      mul\n      or\n      swap1\n      sstore\n      pop\n      pop\n      pop\n        /* \"CardDeck.sol\":778:782  seed */\n      dup3\n        /* \"CardDeck.sol\":761:783  abi.encodePacked(seed) */\n      add(0x20, mload(0x40))\n      tag_382\n      swap2\n      swap1\n      tag_383\n      jump\t// in\n    tag_382:\n      mload(0x40)\n      0x20\n      dup2\n      dup4\n      sub\n      sub\n      dup2\n      mstore\n      swap1\n      0x40\n      mstore\n        /* \"CardDeck.sol\":751:784  keccak256(abi.encodePacked(seed)) */\n      dup1\n      mload\n      swap1\n      0x20\n      add\n      keccak256\n        /* \"CardDeck.sol\":743:785  uint256(keccak256(abi.encodePacked(seed))) */\n      0x00\n      shr\n        /* \"CardDeck.sol\":736:785  seed = uint256(keccak256(abi.encodePacked(seed))) */\n      swap3\n      pop\n        /* \"CardDeck.sol\":580:818  {... */\n      pop\n        /* \"CardDeck.sol\":575:578  i++ */\n      dup1\n      dup1\n      0x01\n      add\n      swap2\n      pop\n      pop\n        /* \"CardDeck.sol\":538:818  for (uint256 i = 0; i < deck.length; i++) {... */\n      jump(tag_366)\n    tag_367:\n      pop\n        /* \"CardDeck.sol\":401:825  {... */\n      pop\n        /* \"CardDeck.sol\":369:825  function shuffleDeck() internal {... */\n      jump\t// out\n        /* \"CardDeck.sol\":167:361  function resetDeck() internal {... */\n    tag_341:\n        /* \"CardDeck.sol\":215:219  deck */\n      0x00\n      dup1\n        /* \"CardDeck.sol\":208:219  delete deck */\n      tag_385\n      swap2\n      swap1\n      tag_339\n      jump\t// in\n    tag_385:\n        /* \"CardDeck.sol\":253:260  uint8 i */\n      0x00\n        /* \"CardDeck.sol\":263:264  1 */\n      0x01\n        /* \"CardDeck.sol\":253:264  uint8 i = 1 */\n      swap1\n      pop\n        /* \"CardDeck.sol\":248:354  for (uint8 i = 1; i <= 52; i++) {... */\n    tag_386:\n        /* \"CardDeck.sol\":271:273  52 */\n      0x34\n        /* \"CardDeck.sol\":266:267  i */\n      dup2\n        /* \"CardDeck.sol\":266:273  i <= 52 */\n      0xff\n      and\n      gt\n        /* \"CardDeck.sol\":248:354  for (uint8 i = 1; i <= 52; i++) {... */\n      tag_387\n      jumpi\n        /* \"CardDeck.sol\":295:299  deck */\n      0x00\n        /* \"CardDeck.sol\":305:306  i */\n      dup2\n        /* \"CardDeck.sol\":295:307  deck.push(i) */\n      swap1\n      dup1\n      0x01\n      dup2\n      sload\n      add\n      dup1\n      dup3\n      sstore\n      dup1\n      swap2\n      pop\n      pop\n      0x01\n      swap1\n      sub\n      swap1\n      0x00\n      mstore\n      keccak256(0x00, 0x20)\n      swap1\n      0x20\n      swap2\n      dup3\n      dup3\n      div\n      add\n      swap2\n      swap1\n      mod\n      swap1\n      swap2\n      swap1\n      swap2\n      swap1\n      swap2\n      0x0100\n      exp\n      dup2\n      sload\n      dup2\n      0xff\n      mul\n      not\n      and\n      swap1\n      dup4\n      0xff\n      and\n      mul\n      or\n      swap1\n      sstore\n      pop\n        /* \"CardDeck.sol\":275:278  i++ */\n      dup1\n      dup1\n      tag_390\n      swap1\n      tag_276\n      jump\t// in\n    tag_390:\n      swap2\n      pop\n      pop\n        /* \"CardDeck.sol\":248:354  for (uint8 i = 1; i <= 52; i++) {... */\n      jump(tag_386)\n    tag_387:\n      pop\n        /* \"CardDeck.sol\":167:361  function resetDeck() internal {... */\n      jump\t// out\n    tag_94:\n      pop\n      dup1\n      sload\n      0x00\n      dup3\n      sstore\n      swap1\n      0x00\n      mstore\n      keccak256(0x00, 0x20)\n      swap1\n      dup2\n      add\n      swap1\n      tag_392\n      swap2\n      swap1\n      tag_393\n      jump\t// in\n    tag_392:\n      pop\n      jump\t// out\n    tag_105:\n      dup3\n      dup1\n      sload\n      dup3\n      dup3\n      sstore\n      swap1\n      0x00\n      mstore\n      keccak256(0x00, 0x20)\n      swap1\n      0x1f\n      add\n      0x20\n      swap1\n      div\n      dup2\n      add\n      swap3\n      dup3\n      iszero\n      tag_394\n      jumpi\n      0x00\n      mstore\n      keccak256(0x00, 0x20)\n      swap2\n      0x1f\n      add\n      0x20\n      swap1\n      div\n      dup3\n      add\n    tag_395:\n      dup3\n      dup2\n      gt\n      iszero\n      tag_396\n      jumpi\n      dup3\n      sload\n      dup3\n      sstore\n      swap2\n      0x01\n      add\n      swap2\n      swap1\n      0x01\n      add\n      swap1\n      jump(tag_395)\n    tag_396:\n    tag_394:\n      pop\n      swap1\n      pop\n      tag_397\n      swap2\n      swap1\n      tag_393\n      jump\t// in\n    tag_397:\n      pop\n      swap1\n      jump\t// out\n    tag_240:\n      dup3\n      dup1\n      sload\n      dup3\n      dup3\n      sstore\n      swap1\n      0x00\n      mstore\n      keccak256(0x00, 0x20)\n      swap1\n      0x1f\n      add\n      0x20\n      swap1\n      div\n      dup2\n      add\n      swap3\n      dup3\n      iszero\n      tag_398\n      jumpi\n      swap2\n      0x20\n      mul\n      dup3\n      add\n      0x00\n    tag_399:\n      dup4\n      dup3\n      gt\n      iszero\n      tag_400\n      jumpi\n      dup4\n      mload\n      dup4\n      dup3\n      0x0100\n      exp\n      dup2\n      sload\n      dup2\n      0xff\n      mul\n      not\n      and\n      swap1\n      dup4\n      0xff\n      and\n      mul\n      or\n      swap1\n      sstore\n      pop\n      swap3\n      0x20\n      add\n      swap3\n      0x01\n      add\n      0x20\n      dup2\n      0x00\n      add\n      div\n      swap3\n      dup4\n      add\n      swap3\n      0x01\n      sub\n      mul\n      jump(tag_399)\n    tag_400:\n      dup1\n      iszero\n      tag_401\n      jumpi\n      dup3\n      dup2\n      0x0100\n      exp\n      dup2\n      sload\n      swap1\n      0xff\n      mul\n      not\n      and\n      swap1\n      sstore\n      0x01\n      add\n      0x20\n      dup2\n      0x00\n      add\n      div\n      swap3\n      dup4\n      add\n      swap3\n      0x01\n      sub\n      mul\n      jump(tag_400)\n    tag_401:\n      pop\n    tag_398:\n      pop\n      swap1\n      pop\n      tag_402\n      swap2\n      swap1\n      tag_393\n      jump\t// in\n    tag_402:\n      pop\n      swap1\n      jump\t// out\n    tag_337:\n      pop\n      dup1\n      sload\n      0x00\n      dup3\n      sstore\n      0x04\n      mul\n      swap1\n      0x00\n      mstore\n      keccak256(0x00, 0x20)\n      swap1\n      dup2\n      add\n      swap1\n      tag_404\n      swap2\n      swap1\n      tag_405\n      jump\t// in\n    tag_404:\n      pop\n      jump\t// out\n    tag_339:\n      pop\n      dup1\n      sload\n      0x00\n      dup3\n      sstore\n      0x1f\n      add\n      0x20\n      swap1\n      div\n      swap1\n      0x00\n      mstore\n      keccak256(0x00, 0x20)\n      swap1\n      dup2\n      add\n      swap1\n      tag_407\n      swap2\n      swap1\n      tag_393\n      jump\t// in\n    tag_407:\n      pop\n      jump\t// out\n    tag_393:\n    tag_408:\n      dup1\n      dup3\n      gt\n      iszero\n      tag_409\n      jumpi\n      0x00\n      dup2\n      0x00\n      swap1\n      sstore\n      pop\n      0x01\n      add\n      jump(tag_408)\n    tag_409:\n      pop\n      swap1\n      jump\t// out\n    tag_405:\n    tag_410:\n      dup1\n      dup3\n      gt\n      iszero\n      tag_411\n      jumpi\n      0x00\n      dup1\n      dup3\n      add\n      exp(0x0100, 0x00)\n      dup2\n      sload\n      swap1\n      0xffffffffffffffffffffffffffffffffffffffff\n      mul\n      not\n      and\n      swap1\n      sstore\n      0x01\n      dup3\n      add\n      0x00\n      swap1\n      sstore\n      0x02\n      dup3\n      add\n      0x00\n      tag_412\n      swap2\n      swap1\n      tag_339\n      jump\t// in\n    tag_412:\n      0x03\n      dup3\n      add\n      exp(0x0100, 0x00)\n      dup2\n      sload\n      swap1\n      0xff\n      mul\n      not\n      and\n      swap1\n      sstore\n      0x03\n      dup3\n      add\n      exp(0x0100, 0x01)\n      dup2\n      sload\n      swap1\n      0xff\n      mul\n      not\n      and\n      swap1\n      sstore\n      pop\n      0x04\n      add\n      jump(tag_410)\n    tag_411:\n      pop\n      swap1\n      jump\t// out\n        /* \"#utility.yul\":7:106   */\n    tag_413:\n        /* \"#utility.yul\":59:65   */\n      0x00\n        /* \"#utility.yul\":93:98   */\n      dup2\n        /* \"#utility.yul\":87:99   */\n      mload\n        /* \"#utility.yul\":77:99   */\n      swap1\n      pop\n        /* \"#utility.yul\":7:106   */\n      swap2\n      swap1\n      pop\n      jump\t// out\n        /* \"#utility.yul\":112:281   */\n    tag_414:\n        /* \"#utility.yul\":196:207   */\n      0x00\n        /* \"#utility.yul\":230:236   */\n      dup3\n        /* \"#utility.yul\":225:228   */\n      dup3\n        /* \"#utility.yul\":218:237   */\n      mstore\n        /* \"#utility.yul\":270:274   */\n      0x20\n        /* \"#utility.yul\":265:268   */\n      dup3\n        /* \"#utility.yul\":261:275   */\n      add\n        /* \"#utility.yul\":246:275   */\n      swap1\n      pop\n        /* \"#utility.yul\":112:281   */\n      swap3\n      swap2\n      pop\n      pop\n      jump\t// out\n        /* \"#utility.yul\":287:426   */\n    tag_415:\n        /* \"#utility.yul\":376:382   */\n      dup3\n        /* \"#utility.yul\":371:374   */\n      dup2\n        /* \"#utility.yul\":366:369   */\n      dup4\n        /* \"#utility.yul\":360:383   */\n      mcopy\n        /* \"#utility.yul\":417:418   */\n      0x00\n        /* \"#utility.yul\":408:414   */\n      dup4\n        /* \"#utility.yul\":403:406   */\n      dup4\n        /* \"#utility.yul\":399:415   */\n      add\n        /* \"#utility.yul\":392:419   */\n      mstore\n        /* \"#utility.yul\":287:426   */\n      pop\n      pop\n      pop\n      jump\t// out\n        /* \"#utility.yul\":432:534   */\n    tag_416:\n        /* \"#utility.yul\":473:479   */\n      0x00\n        /* \"#utility.yul\":524:526   */\n      0x1f\n        /* \"#utility.yul\":520:527   */\n      not\n        /* \"#utility.yul\":515:517   */\n      0x1f\n        /* \"#utility.yul\":508:513   */\n      dup4\n        /* \"#utility.yul\":504:518   */\n      add\n        /* \"#utility.yul\":500:528   */\n      and\n        /* \"#utility.yul\":490:528   */\n      swap1\n      pop\n        /* \"#utility.yul\":432:534   */\n      swap2\n      swap1\n      pop\n      jump\t// out\n        /* \"#utility.yul\":540:917   */\n    tag_417:\n        /* \"#utility.yul\":628:631   */\n      0x00\n        /* \"#utility.yul\":656:695   */\n      tag_497\n        /* \"#utility.yul\":689:694   */\n      dup3\n        /* \"#utility.yul\":656:695   */\n      tag_413\n      jump\t// in\n    tag_497:\n        /* \"#utility.yul\":711:782   */\n      tag_498\n        /* \"#utility.yul\":775:781   */\n      dup2\n        /* \"#utility.yul\":770:773   */\n      dup6\n        /* \"#utility.yul\":711:782   */\n      tag_414\n      jump\t// in\n    tag_498:\n        /* \"#utility.yul\":704:782   */\n      swap4\n      pop\n        /* \"#utility.yul\":791:856   */\n      tag_499\n        /* \"#utility.yul\":849:855   */\n      dup2\n        /* \"#utility.yul\":844:847   */\n      dup6\n        /* \"#utility.yul\":837:841   */\n      0x20\n        /* \"#utility.yul\":830:835   */\n      dup7\n        /* \"#utility.yul\":826:842   */\n      add\n        /* \"#utility.yul\":791:856   */\n      tag_415\n      jump\t// in\n    tag_499:\n        /* \"#utility.yul\":881:910   */\n      tag_500\n        /* \"#utility.yul\":903:909   */\n      dup2\n        /* \"#utility.yul\":881:910   */\n      tag_416\n      jump\t// in\n    tag_500:\n        /* \"#utility.yul\":876:879   */\n      dup5\n        /* \"#utility.yul\":872:911   */\n      add\n        /* \"#utility.yul\":865:911   */\n      swap2\n      pop\n        /* \"#utility.yul\":632:917   */\n      pop\n        /* \"#utility.yul\":540:917   */\n      swap3\n      swap2\n      pop\n      pop\n      jump\t// out\n        /* \"#utility.yul\":923:1236   */\n    tag_15:\n        /* \"#utility.yul\":1036:1040   */\n      0x00\n        /* \"#utility.yul\":1074:1076   */\n      0x20\n        /* \"#utility.yul\":1063:1072   */\n      dup3\n        /* \"#utility.yul\":1059:1077   */\n      add\n        /* \"#utility.yul\":1051:1077   */\n      swap1\n      pop\n        /* \"#utility.yul\":1123:1132   */\n      dup2\n        /* \"#utility.yul\":1117:1121   */\n      dup2\n        /* \"#utility.yul\":1113:1133   */\n      sub\n        /* \"#utility.yul\":1109:1110   */\n      0x00\n        /* \"#utility.yul\":1098:1107   */\n      dup4\n        /* \"#utility.yul\":1094:1111   */\n      add\n        /* \"#utility.yul\":1087:1134   */\n      mstore\n        /* \"#utility.yul\":1151:1229   */\n      tag_502\n        /* \"#utility.yul\":1224:1228   */\n      dup2\n        /* \"#utility.yul\":1215:1221   */\n      dup5\n        /* \"#utility.yul\":1151:1229   */\n      tag_417\n      jump\t// in\n    tag_502:\n        /* \"#utility.yul\":1143:1229   */\n      swap1\n      pop\n        /* \"#utility.yul\":923:1236   */\n      swap3\n      swap2\n      pop\n      pop\n      jump\t// out\n        /* \"#utility.yul\":1242:1356   */\n    tag_418:\n        /* \"#utility.yul\":1309:1315   */\n      0x00\n        /* \"#utility.yul\":1343:1348   */\n      dup2\n        /* \"#utility.yul\":1337:1349   */\n      mload\n        /* \"#utility.yul\":1327:1349   */\n      swap1\n      pop\n        /* \"#utility.yul\":1242:1356   */\n      swap2\n      swap1\n      pop\n      jump\t// out\n        /* \"#utility.yul\":1362:1546   */\n    tag_419:\n        /* \"#utility.yul\":1461:1472   */\n      0x00\n        /* \"#utility.yul\":1495:1501   */\n      dup3\n        /* \"#utility.yul\":1490:1493   */\n      dup3\n        /* \"#utility.yul\":1483:1502   */\n      mstore\n        /* \"#utility.yul\":1535:1539   */\n      0x20\n        /* \"#utility.yul\":1530:1533   */\n      dup3\n        /* \"#utility.yul\":1526:1540   */\n      add\n        /* \"#utility.yul\":1511:1540   */\n      swap1\n      pop\n        /* \"#utility.yul\":1362:1546   */\n      swap3\n      swap2\n      pop\n      pop\n      jump\t// out\n        /* \"#utility.yul\":1552:1684   */\n    tag_420:\n        /* \"#utility.yul\":1619:1623   */\n      0x00\n        /* \"#utility.yul\":1642:1645   */\n      dup2\n        /* \"#utility.yul\":1634:1645   */\n      swap1\n      pop\n        /* \"#utility.yul\":1672:1676   */\n      0x20\n        /* \"#utility.yul\":1667:1670   */\n      dup3\n        /* \"#utility.yul\":1663:1677   */\n      add\n        /* \"#utility.yul\":1655:1677   */\n      swap1\n      pop\n        /* \"#utility.yul\":1552:1684   */\n      swap2\n      swap1\n      pop\n      jump\t// out\n        /* \"#utility.yul\":1690:1816   */\n    tag_421:\n        /* \"#utility.yul\":1727:1734   */\n      0x00\n        /* \"#utility.yul\":1767:1809   */\n      0xffffffffffffffffffffffffffffffffffffffff\n        /* \"#utility.yul\":1760:1765   */\n      dup3\n        /* \"#utility.yul\":1756:1810   */\n      and\n        /* \"#utility.yul\":1745:1810   */\n      swap1\n      pop\n        /* \"#utility.yul\":1690:1816   */\n      swap2\n      swap1\n      pop\n      jump\t// out\n        /* \"#utility.yul\":1822:1918   */\n    tag_422:\n        /* \"#utility.yul\":1859:1866   */\n      0x00\n        /* \"#utility.yul\":1888:1912   */\n      tag_508\n        /* \"#utility.yul\":1906:1911   */\n      dup3\n        /* \"#utility.yul\":1888:1912   */\n      tag_421\n      jump\t// in\n    tag_508:\n        /* \"#utility.yul\":1877:1912   */\n      swap1\n      pop\n        /* \"#utility.yul\":1822:1918   */\n      swap2\n      swap1\n      pop\n      jump\t// out\n        /* \"#utility.yul\":1924:2032   */\n    tag_423:\n        /* \"#utility.yul\":2001:2025   */\n      tag_510\n        /* \"#utility.yul\":2019:2024   */\n      dup2\n        /* \"#utility.yul\":2001:2025   */\n      tag_422\n      jump\t// in\n    tag_510:\n        /* \"#utility.yul\":1996:1999   */\n      dup3\n        /* \"#utility.yul\":1989:2026   */\n      mstore\n        /* \"#utility.yul\":1924:2032   */\n      pop\n      pop\n      jump\t// out\n        /* \"#utility.yul\":2038:2217   */\n    tag_424:\n        /* \"#utility.yul\":2107:2117   */\n      0x00\n        /* \"#utility.yul\":2128:2174   */\n      tag_512\n        /* \"#utility.yul\":2170:2173   */\n      dup4\n        /* \"#utility.yul\":2162:2168   */\n      dup4\n        /* \"#utility.yul\":2128:2174   */\n      tag_423\n      jump\t// in\n    tag_512:\n        /* \"#utility.yul\":2206:2210   */\n      0x20\n        /* \"#utility.yul\":2201:2204   */\n      dup4\n        /* \"#utility.yul\":2197:2211   */\n      add\n        /* \"#utility.yul\":2183:2211   */\n      swap1\n      pop\n        /* \"#utility.yul\":2038:2217   */\n      swap3\n      swap2\n      pop\n      pop\n      jump\t// out\n        /* \"#utility.yul\":2223:2336   */\n    tag_425:\n        /* \"#utility.yul\":2293:2297   */\n      0x00\n        /* \"#utility.yul\":2325:2329   */\n      0x20\n        /* \"#utility.yul\":2320:2323   */\n      dup3\n        /* \"#utility.yul\":2316:2330   */\n      add\n        /* \"#utility.yul\":2308:2330   */\n      swap1\n      pop\n        /* \"#utility.yul\":2223:2336   */\n      swap2\n      swap1\n      pop\n      jump\t// out\n        /* \"#utility.yul\":2372:3104   */\n    tag_426:\n        /* \"#utility.yul\":2491:2494   */\n      0x00\n        /* \"#utility.yul\":2520:2574   */\n      tag_515\n        /* \"#utility.yul\":2568:2573   */\n      dup3\n        /* \"#utility.yul\":2520:2574   */\n      tag_418\n      jump\t// in\n    tag_515:\n        /* \"#utility.yul\":2590:2676   */\n      tag_516\n        /* \"#utility.yul\":2669:2675   */\n      dup2\n        /* \"#utility.yul\":2664:2667   */\n      dup6\n        /* \"#utility.yul\":2590:2676   */\n      tag_419\n      jump\t// in\n    tag_516:\n        /* \"#utility.yul\":2583:2676   */\n      swap4\n      pop\n        /* \"#utility.yul\":2700:2756   */\n      tag_517\n        /* \"#utility.yul\":2750:2755   */\n      dup4\n        /* \"#utility.yul\":2700:2756   */\n      tag_420\n      jump\t// in\n    tag_517:\n        /* \"#utility.yul\":2779:2786   */\n      dup1\n        /* \"#utility.yul\":2810:2811   */\n      0x00\n        /* \"#utility.yul\":2795:3079   */\n    tag_518:\n        /* \"#utility.yul\":2820:2826   */\n      dup4\n        /* \"#utility.yul\":2817:2818   */\n      dup2\n        /* \"#utility.yul\":2814:2827   */\n      lt\n        /* \"#utility.yul\":2795:3079   */\n      iszero\n      tag_520\n      jumpi\n        /* \"#utility.yul\":2896:2902   */\n      dup2\n        /* \"#utility.yul\":2890:2903   */\n      mload\n        /* \"#utility.yul\":2923:2986   */\n      tag_521\n        /* \"#utility.yul\":2982:2985   */\n      dup9\n        /* \"#utility.yul\":2967:2980   */\n      dup3\n        /* \"#utility.yul\":2923:2986   */\n      tag_424\n      jump\t// in\n    tag_521:\n        /* \"#utility.yul\":2916:2986   */\n      swap8\n      pop\n        /* \"#utility.yul\":3009:3069   */\n      tag_522\n        /* \"#utility.yul\":3062:3068   */\n      dup4\n        /* \"#utility.yul\":3009:3069   */\n      tag_425\n      jump\t// in\n    tag_522:\n        /* \"#utility.yul\":2999:3069   */\n      swap3\n      pop\n        /* \"#utility.yul\":2855:3079   */\n      pop\n        /* \"#utility.yul\":2842:2843   */\n      0x01\n        /* \"#utility.yul\":2839:2840   */\n      dup2\n        /* \"#utility.yul\":2835:2844   */\n      add\n        /* \"#utility.yul\":2830:2844   */\n      swap1\n      pop\n        /* \"#utility.yul\":2795:3079   */\n      jump(tag_518)\n    tag_520:\n        /* \"#utility.yul\":2799:2813   */\n      pop\n        /* \"#utility.yul\":3095:3098   */\n      dup6\n        /* \"#utility.yul\":3088:3098   */\n      swap4\n      pop\n        /* \"#utility.yul\":2496:3104   */\n      pop\n      pop\n      pop\n        /* \"#utility.yul\":2372:3104   */\n      swap3\n      swap2\n      pop\n      pop\n      jump\t// out\n        /* \"#utility.yul\":3110:3684   */\n    tag_23:\n        /* \"#utility.yul\":3301:3305   */\n      0x00\n        /* \"#utility.yul\":3339:3341   */\n      0x40\n        /* \"#utility.yul\":3328:3337   */\n      dup3\n        /* \"#utility.yul\":3324:3342   */\n      add\n        /* \"#utility.yul\":3316:3342   */\n      swap1\n      pop\n        /* \"#utility.yul\":3388:3397   */\n      dup2\n        /* \"#utility.yul\":3382:3386   */\n      dup2\n        /* \"#utility.yul\":3378:3398   */\n      sub\n        /* \"#utility.yul\":3374:3375   */\n      0x00\n        /* \"#utility.yul\":3363:3372   */\n      dup4\n        /* \"#utility.yul\":3359:3376   */\n      add\n        /* \"#utility.yul\":3352:3399   */\n      mstore\n        /* \"#utility.yul\":3416:3494   */\n      tag_524\n        /* \"#utility.yul\":3489:3493   */\n      dup2\n        /* \"#utility.yul\":3480:3486   */\n      dup6\n        /* \"#utility.yul\":3416:3494   */\n      tag_417\n      jump\t// in\n    tag_524:\n        /* \"#utility.yul\":3408:3494   */\n      swap1\n      pop\n        /* \"#utility.yul\":3541:3550   */\n      dup2\n        /* \"#utility.yul\":3535:3539   */\n      dup2\n        /* \"#utility.yul\":3531:3551   */\n      sub\n        /* \"#utility.yul\":3526:3528   */\n      0x20\n        /* \"#utility.yul\":3515:3524   */\n      dup4\n        /* \"#utility.yul\":3511:3529   */\n      add\n        /* \"#utility.yul\":3504:3552   */\n      mstore\n        /* \"#utility.yul\":3569:3677   */\n      tag_525\n        /* \"#utility.yul\":3672:3676   */\n      dup2\n        /* \"#utility.yul\":3663:3669   */\n      dup5\n        /* \"#utility.yul\":3569:3677   */\n      tag_426\n      jump\t// in\n    tag_525:\n        /* \"#utility.yul\":3561:3677   */\n      swap1\n      pop\n        /* \"#utility.yul\":3110:3684   */\n      swap4\n      swap3\n      pop\n      pop\n      pop\n      jump\t// out\n        /* \"#utility.yul\":3771:3888   */\n    tag_428:\n        /* \"#utility.yul\":3880:3881   */\n      0x00\n        /* \"#utility.yul\":3877:3878   */\n      dup1\n        /* \"#utility.yul\":3870:3882   */\n      revert\n        /* \"#utility.yul\":4017:4094   */\n    tag_430:\n        /* \"#utility.yul\":4054:4061   */\n      0x00\n        /* \"#utility.yul\":4083:4088   */\n      dup2\n        /* \"#utility.yul\":4072:4088   */\n      swap1\n      pop\n        /* \"#utility.yul\":4017:4094   */\n      swap2\n      swap1\n      pop\n      jump\t// out\n        /* \"#utility.yul\":4100:4222   */\n    tag_431:\n        /* \"#utility.yul\":4173:4197   */\n      tag_531\n        /* \"#utility.yul\":4191:4196   */\n      dup2\n        /* \"#utility.yul\":4173:4197   */\n      tag_430\n      jump\t// in\n    tag_531:\n        /* \"#utility.yul\":4166:4171   */\n      dup2\n        /* \"#utility.yul\":4163:4198   */\n      eq\n        /* \"#utility.yul\":4153:4216   */\n      tag_532\n      jumpi\n        /* \"#utility.yul\":4212:4213   */\n      0x00\n        /* \"#utility.yul\":4209:4210   */\n      dup1\n        /* \"#utility.yul\":4202:4214   */\n      revert\n        /* \"#utility.yul\":4153:4216   */\n    tag_532:\n        /* \"#utility.yul\":4100:4222   */\n      pop\n      jump\t// out\n        /* \"#utility.yul\":4228:4367   */\n    tag_432:\n        /* \"#utility.yul\":4274:4279   */\n      0x00\n        /* \"#utility.yul\":4312:4318   */\n      dup2\n        /* \"#utility.yul\":4299:4319   */\n      calldataload\n        /* \"#utility.yul\":4290:4319   */\n      swap1\n      pop\n        /* \"#utility.yul\":4328:4361   */\n      tag_534\n        /* \"#utility.yul\":4355:4360   */\n      dup2\n        /* \"#utility.yul\":4328:4361   */\n      tag_431\n      jump\t// in\n    tag_534:\n        /* \"#utility.yul\":4228:4367   */\n      swap3\n      swap2\n      pop\n      pop\n      jump\t// out\n        /* \"#utility.yul\":4373:4702   */\n    tag_27:\n        /* \"#utility.yul\":4432:4438   */\n      0x00\n        /* \"#utility.yul\":4481:4483   */\n      0x20\n        /* \"#utility.yul\":4469:4478   */\n      dup3\n        /* \"#utility.yul\":4460:4467   */\n      dup5\n        /* \"#utility.yul\":4456:4479   */\n      sub\n        /* \"#utility.yul\":4452:4484   */\n      slt\n        /* \"#utility.yul\":4449:4568   */\n      iszero\n      tag_536\n      jumpi\n        /* \"#utility.yul\":4487:4566   */\n      tag_537\n      tag_428\n      jump\t// in\n    tag_537:\n        /* \"#utility.yul\":4449:4568   */\n    tag_536:\n        /* \"#utility.yul\":4607:4608   */\n      0x00\n        /* \"#utility.yul\":4632:4685   */\n      tag_538\n        /* \"#utility.yul\":4677:4684   */\n      dup5\n        /* \"#utility.yul\":4668:4674   */\n      dup3\n        /* \"#utility.yul\":4657:4666   */\n      dup6\n        /* \"#utility.yul\":4653:4675   */\n      add\n        /* \"#utility.yul\":4632:4685   */\n      tag_432\n      jump\t// in\n    tag_538:\n        /* \"#utility.yul\":4622:4685   */\n      swap2\n      pop\n        /* \"#utility.yul\":4578:4695   */\n      pop\n        /* \"#utility.yul\":4373:4702   */\n      swap3\n      swap2\n      pop\n      pop\n      jump\t// out\n        /* \"#utility.yul\":4708:4832   */\n    tag_433:\n        /* \"#utility.yul\":4785:4791   */\n      0x00\n        /* \"#utility.yul\":4819:4824   */\n      dup2\n        /* \"#utility.yul\":4813:4825   */\n      mload\n        /* \"#utility.yul\":4803:4825   */\n      swap1\n      pop\n        /* \"#utility.yul\":4708:4832   */\n      swap2\n      swap1\n      pop\n      jump\t// out\n        /* \"#utility.yul\":4838:5032   */\n    tag_434:\n        /* \"#utility.yul\":4947:4958   */\n      0x00\n        /* \"#utility.yul\":4981:4987   */\n      dup3\n        /* \"#utility.yul\":4976:4979   */\n      dup3\n        /* \"#utility.yul\":4969:4988   */\n      mstore\n        /* \"#utility.yul\":5021:5025   */\n      0x20\n        /* \"#utility.yul\":5016:5019   */\n      dup3\n        /* \"#utility.yul\":5012:5026   */\n      add\n        /* \"#utility.yul\":4997:5026   */\n      swap1\n      pop\n        /* \"#utility.yul\":4838:5032   */\n      swap3\n      swap2\n      pop\n      pop\n      jump\t// out\n        /* \"#utility.yul\":5038:5180   */\n    tag_435:\n        /* \"#utility.yul\":5115:5119   */\n      0x00\n        /* \"#utility.yul\":5138:5141   */\n      dup2\n        /* \"#utility.yul\":5130:5141   */\n      swap1\n      pop\n        /* \"#utility.yul\":5168:5172   */\n      0x20\n        /* \"#utility.yul\":5163:5166   */\n      dup3\n        /* \"#utility.yul\":5159:5173   */\n      add\n        /* \"#utility.yul\":5151:5173   */\n      swap1\n      pop\n        /* \"#utility.yul\":5038:5180   */\n      swap2\n      swap1\n      pop\n      jump\t// out\n        /* \"#utility.yul\":5186:5345   */\n    tag_436:\n        /* \"#utility.yul\":5260:5271   */\n      0x00\n        /* \"#utility.yul\":5294:5300   */\n      dup3\n        /* \"#utility.yul\":5289:5292   */\n      dup3\n        /* \"#utility.yul\":5282:5301   */\n      mstore\n        /* \"#utility.yul\":5334:5338   */\n      0x20\n        /* \"#utility.yul\":5329:5332   */\n      dup3\n        /* \"#utility.yul\":5325:5339   */\n      add\n        /* \"#utility.yul\":5310:5339   */\n      swap1\n      pop\n        /* \"#utility.yul\":5186:5345   */\n      swap3\n      swap2\n      pop\n      pop\n      jump\t// out\n        /* \"#utility.yul\":5351:5708   */\n    tag_437:\n        /* \"#utility.yul\":5429:5432   */\n      0x00\n        /* \"#utility.yul\":5457:5496   */\n      tag_544\n        /* \"#utility.yul\":5490:5495   */\n      dup3\n        /* \"#utility.yul\":5457:5496   */\n      tag_413\n      jump\t// in\n    tag_544:\n        /* \"#utility.yul\":5512:5573   */\n      tag_545\n        /* \"#utility.yul\":5566:5572   */\n      dup2\n        /* \"#utility.yul\":5561:5564   */\n      dup6\n        /* \"#utility.yul\":5512:5573   */\n      tag_436\n      jump\t// in\n    tag_545:\n        /* \"#utility.yul\":5505:5573   */\n      swap4\n      pop\n        /* \"#utility.yul\":5582:5647   */\n      tag_546\n        /* \"#utility.yul\":5640:5646   */\n      dup2\n        /* \"#utility.yul\":5635:5638   */\n      dup6\n        /* \"#utility.yul\":5628:5632   */\n      0x20\n        /* \"#utility.yul\":5621:5626   */\n      dup7\n        /* \"#utility.yul\":5617:5633   */\n      add\n        /* \"#utility.yul\":5582:5647   */\n      tag_415\n      jump\t// in\n    tag_546:\n        /* \"#utility.yul\":5672:5701   */\n      tag_547\n        /* \"#utility.yul\":5694:5700   */\n      dup2\n        /* \"#utility.yul\":5672:5701   */\n      tag_416\n      jump\t// in\n    tag_547:\n        /* \"#utility.yul\":5667:5670   */\n      dup5\n        /* \"#utility.yul\":5663:5702   */\n      add\n        /* \"#utility.yul\":5656:5702   */\n      swap2\n      pop\n        /* \"#utility.yul\":5433:5708   */\n      pop\n        /* \"#utility.yul\":5351:5708   */\n      swap3\n      swap2\n      pop\n      pop\n      jump\t// out\n        /* \"#utility.yul\":5714:5910   */\n    tag_438:\n        /* \"#utility.yul\":5803:5813   */\n      0x00\n        /* \"#utility.yul\":5838:5904   */\n      tag_549\n        /* \"#utility.yul\":5900:5903   */\n      dup4\n        /* \"#utility.yul\":5892:5898   */\n      dup4\n        /* \"#utility.yul\":5838:5904   */\n      tag_437\n      jump\t// in\n    tag_549:\n        /* \"#utility.yul\":5824:5904   */\n      swap1\n      pop\n        /* \"#utility.yul\":5714:5910   */\n      swap3\n      swap2\n      pop\n      pop\n      jump\t// out\n        /* \"#utility.yul\":5916:6039   */\n    tag_439:\n        /* \"#utility.yul\":5996:6000   */\n      0x00\n        /* \"#utility.yul\":6028:6032   */\n      0x20\n        /* \"#utility.yul\":6023:6026   */\n      dup3\n        /* \"#utility.yul\":6019:6033   */\n      add\n        /* \"#utility.yul\":6011:6033   */\n      swap1\n      pop\n        /* \"#utility.yul\":5916:6039   */\n      swap2\n      swap1\n      pop\n      jump\t// out\n        /* \"#utility.yul\":6073:7064   */\n    tag_440:\n        /* \"#utility.yul\":6212:6215   */\n      0x00\n        /* \"#utility.yul\":6241:6305   */\n      tag_552\n        /* \"#utility.yul\":6299:6304   */\n      dup3\n        /* \"#utility.yul\":6241:6305   */\n      tag_433\n      jump\t// in\n    tag_552:\n        /* \"#utility.yul\":6321:6417   */\n      tag_553\n        /* \"#utility.yul\":6410:6416   */\n      dup2\n        /* \"#utility.yul\":6405:6408   */\n      dup6\n        /* \"#utility.yul\":6321:6417   */\n      tag_434\n      jump\t// in\n    tag_553:\n        /* \"#utility.yul\":6314:6417   */\n      swap4\n      pop\n        /* \"#utility.yul\":6443:6446   */\n      dup4\n        /* \"#utility.yul\":6488:6492   */\n      0x20\n        /* \"#utility.yul\":6480:6486   */\n      dup3\n        /* \"#utility.yul\":6476:6493   */\n      mul\n        /* \"#utility.yul\":6471:6474   */\n      dup6\n        /* \"#utility.yul\":6467:6494   */\n      add\n        /* \"#utility.yul\":6518:6584   */\n      tag_554\n        /* \"#utility.yul\":6578:6583   */\n      dup6\n        /* \"#utility.yul\":6518:6584   */\n      tag_435\n      jump\t// in\n    tag_554:\n        /* \"#utility.yul\":6607:6614   */\n      dup1\n        /* \"#utility.yul\":6638:6639   */\n      0x00\n        /* \"#utility.yul\":6623:7019   */\n    tag_555:\n        /* \"#utility.yul\":6648:6654   */\n      dup6\n        /* \"#utility.yul\":6645:6646   */\n      dup2\n        /* \"#utility.yul\":6642:6655   */\n      lt\n        /* \"#utility.yul\":6623:7019   */\n      iszero\n      tag_557\n      jumpi\n        /* \"#utility.yul\":6719:6728   */\n      dup5\n        /* \"#utility.yul\":6713:6717   */\n      dup5\n        /* \"#utility.yul\":6709:6729   */\n      sub\n        /* \"#utility.yul\":6704:6707   */\n      dup10\n        /* \"#utility.yul\":6697:6730   */\n      mstore\n        /* \"#utility.yul\":6770:6776   */\n      dup2\n        /* \"#utility.yul\":6764:6777   */\n      mload\n        /* \"#utility.yul\":6798:6882   */\n      tag_558\n        /* \"#utility.yul\":6877:6881   */\n      dup6\n        /* \"#utility.yul\":6862:6875   */\n      dup3\n        /* \"#utility.yul\":6798:6882   */\n      tag_438\n      jump\t// in\n    tag_558:\n        /* \"#utility.yul\":6790:6882   */\n      swap5\n      pop\n        /* \"#utility.yul\":6905:6975   */\n      tag_559\n        /* \"#utility.yul\":6968:6974   */\n      dup4\n        /* \"#utility.yul\":6905:6975   */\n      tag_439\n      jump\t// in\n    tag_559:\n        /* \"#utility.yul\":6895:6975   */\n      swap3\n      pop\n        /* \"#utility.yul\":7004:7008   */\n      0x20\n        /* \"#utility.yul\":6999:7002   */\n      dup11\n        /* \"#utility.yul\":6995:7009   */\n      add\n        /* \"#utility.yul\":6988:7009   */\n      swap10\n      pop\n        /* \"#utility.yul\":6683:7019   */\n      pop\n        /* \"#utility.yul\":6670:6671   */\n      0x01\n        /* \"#utility.yul\":6667:6668   */\n      dup2\n        /* \"#utility.yul\":6663:6672   */\n      add\n        /* \"#utility.yul\":6658:6672   */\n      swap1\n      pop\n        /* \"#utility.yul\":6623:7019   */\n      jump(tag_555)\n    tag_557:\n        /* \"#utility.yul\":6627:6641   */\n      pop\n        /* \"#utility.yul\":7035:7039   */\n      dup3\n        /* \"#utility.yul\":7028:7039   */\n      swap8\n      pop\n        /* \"#utility.yul\":7055:7058   */\n      dup8\n        /* \"#utility.yul\":7048:7058   */\n      swap6\n      pop\n        /* \"#utility.yul\":6217:7064   */\n      pop\n      pop\n      pop\n      pop\n      pop\n        /* \"#utility.yul\":6073:7064   */\n      swap3\n      swap2\n      pop\n      pop\n      jump\t// out\n        /* \"#utility.yul\":7070:7483   */\n    tag_37:\n        /* \"#utility.yul\":7233:7237   */\n      0x00\n        /* \"#utility.yul\":7271:7273   */\n      0x20\n        /* \"#utility.yul\":7260:7269   */\n      dup3\n        /* \"#utility.yul\":7256:7274   */\n      add\n        /* \"#utility.yul\":7248:7274   */\n      swap1\n      pop\n        /* \"#utility.yul\":7320:7329   */\n      dup2\n        /* \"#utility.yul\":7314:7318   */\n      dup2\n        /* \"#utility.yul\":7310:7330   */\n      sub\n        /* \"#utility.yul\":7306:7307   */\n      0x00\n        /* \"#utility.yul\":7295:7304   */\n      dup4\n        /* \"#utility.yul\":7291:7308   */\n      add\n        /* \"#utility.yul\":7284:7331   */\n      mstore\n        /* \"#utility.yul\":7348:7476   */\n      tag_561\n        /* \"#utility.yul\":7471:7475   */\n      dup2\n        /* \"#utility.yul\":7462:7468   */\n      dup5\n        /* \"#utility.yul\":7348:7476   */\n      tag_440\n      jump\t// in\n    tag_561:\n        /* \"#utility.yul\":7340:7476   */\n      swap1\n      pop\n        /* \"#utility.yul\":7070:7483   */\n      swap3\n      swap2\n      pop\n      pop\n      jump\t// out\n        /* \"#utility.yul\":7489:7669   */\n    tag_441:\n        /* \"#utility.yul\":7537:7614   */\n      0x4e487b7100000000000000000000000000000000000000000000000000000000\n        /* \"#utility.yul\":7534:7535   */\n      0x00\n        /* \"#utility.yul\":7527:7615   */\n      mstore\n        /* \"#utility.yul\":7634:7638   */\n      0x22\n        /* \"#utility.yul\":7631:7632   */\n      0x04\n        /* \"#utility.yul\":7624:7639   */\n      mstore\n        /* \"#utility.yul\":7658:7662   */\n      0x24\n        /* \"#utility.yul\":7655:7656   */\n      0x00\n        /* \"#utility.yul\":7648:7663   */\n      revert\n        /* \"#utility.yul\":7675:7995   */\n    tag_45:\n        /* \"#utility.yul\":7719:7725   */\n      0x00\n        /* \"#utility.yul\":7756:7757   */\n      0x02\n        /* \"#utility.yul\":7750:7754   */\n      dup3\n        /* \"#utility.yul\":7746:7758   */\n      div\n        /* \"#utility.yul\":7736:7758   */\n      swap1\n      pop\n        /* \"#utility.yul\":7803:7804   */\n      0x01\n        /* \"#utility.yul\":7797:7801   */\n      dup3\n        /* \"#utility.yul\":7793:7805   */\n      and\n        /* \"#utility.yul\":7824:7842   */\n      dup1\n        /* \"#utility.yul\":7814:7895   */\n      tag_564\n      jumpi\n        /* \"#utility.yul\":7880:7884   */\n      0x7f\n        /* \"#utility.yul\":7872:7878   */\n      dup3\n        /* \"#utility.yul\":7868:7885   */\n      and\n        /* \"#utility.yul\":7858:7885   */\n      swap2\n      pop\n        /* \"#utility.yul\":7814:7895   */\n    tag_564:\n        /* \"#utility.yul\":7942:7944   */\n      0x20\n        /* \"#utility.yul\":7934:7940   */\n      dup3\n        /* \"#utility.yul\":7931:7945   */\n      lt\n        /* \"#utility.yul\":7911:7929   */\n      dup2\n        /* \"#utility.yul\":7908:7946   */\n      sub\n        /* \"#utility.yul\":7905:7989   */\n      tag_565\n      jumpi\n        /* \"#utility.yul\":7961:7979   */\n      tag_566\n      tag_441\n      jump\t// in\n    tag_566:\n        /* \"#utility.yul\":7905:7989   */\n    tag_565:\n        /* \"#utility.yul\":7726:7995   */\n      pop\n        /* \"#utility.yul\":7675:7995   */\n      swap2\n      swap1\n      pop\n      jump\t// out\n        /* \"#utility.yul\":8001:8171   */\n    tag_442:\n        /* \"#utility.yul\":8141:8163   */\n      0x596f7520617265206e6f74206120706c61796572000000000000000000000000\n        /* \"#utility.yul\":8137:8138   */\n      0x00\n        /* \"#utility.yul\":8129:8135   */\n      dup3\n        /* \"#utility.yul\":8125:8139   */\n      add\n        /* \"#utility.yul\":8118:8164   */\n      mstore\n        /* \"#utility.yul\":8001:8171   */\n      pop\n      jump\t// out\n        /* \"#utility.yul\":8177:8543   */\n    tag_443:\n        /* \"#utility.yul\":8319:8322   */\n      0x00\n        /* \"#utility.yul\":8340:8407   */\n      tag_569\n        /* \"#utility.yul\":8404:8406   */\n      0x14\n        /* \"#utility.yul\":8399:8402   */\n      dup4\n        /* \"#utility.yul\":8340:8407   */\n      tag_414\n      jump\t// in\n    tag_569:\n        /* \"#utility.yul\":8333:8407   */\n      swap2\n      pop\n        /* \"#utility.yul\":8416:8509   */\n      tag_570\n        /* \"#utility.yul\":8505:8508   */\n      dup3\n        /* \"#utility.yul\":8416:8509   */\n      tag_442\n      jump\t// in\n    tag_570:\n        /* \"#utility.yul\":8534:8536   */\n      0x20\n        /* \"#utility.yul\":8529:8532   */\n      dup3\n        /* \"#utility.yul\":8525:8537   */\n      add\n        /* \"#utility.yul\":8518:8537   */\n      swap1\n      pop\n        /* \"#utility.yul\":8177:8543   */\n      swap2\n      swap1\n      pop\n      jump\t// out\n        /* \"#utility.yul\":8549:8968   */\n    tag_55:\n        /* \"#utility.yul\":8715:8719   */\n      0x00\n        /* \"#utility.yul\":8753:8755   */\n      0x20\n        /* \"#utility.yul\":8742:8751   */\n      dup3\n        /* \"#utility.yul\":8738:8756   */\n      add\n        /* \"#utility.yul\":8730:8756   */\n      swap1\n      pop\n        /* \"#utility.yul\":8802:8811   */\n      dup2\n        /* \"#utility.yul\":8796:8800   */\n      dup2\n        /* \"#utility.yul\":8792:8812   */\n      sub\n        /* \"#utility.yul\":8788:8789   */\n      0x00\n        /* \"#utility.yul\":8777:8786   */\n      dup4\n        /* \"#utility.yul\":8773:8790   */\n      add\n        /* \"#utility.yul\":8766:8813   */\n      mstore\n        /* \"#utility.yul\":8830:8961   */\n      tag_572\n        /* \"#utility.yul\":8956:8960   */\n      dup2\n        /* \"#utility.yul\":8830:8961   */\n      tag_443\n      jump\t// in\n    tag_572:\n        /* \"#utility.yul\":8822:8961   */\n      swap1\n      pop\n        /* \"#utility.yul\":8549:8968   */\n      swap2\n      swap1\n      pop\n      jump\t// out\n        /* \"#utility.yul\":8974:9154   */\n    tag_58:\n        /* \"#utility.yul\":9022:9099   */\n      0x4e487b7100000000000000000000000000000000000000000000000000000000\n        /* \"#utility.yul\":9019:9020   */\n      0x00\n        /* \"#utility.yul\":9012:9100   */\n      mstore\n        /* \"#utility.yul\":9119:9123   */\n      0x32\n        /* \"#utility.yul\":9116:9117   */\n      0x04\n        /* \"#utility.yul\":9109:9124   */\n      mstore\n        /* \"#utility.yul\":9143:9147   */\n      0x24\n        /* \"#utility.yul\":9140:9141   */\n      0x00\n        /* \"#utility.yul\":9133:9148   */\n      revert\n        /* \"#utility.yul\":9160:9330   */\n    tag_444:\n        /* \"#utility.yul\":9300:9322   */\n      0x506c61796572206973206e6f7420616374697665000000000000000000000000\n        /* \"#utility.yul\":9296:9297   */\n      0x00\n        /* \"#utility.yul\":9288:9294   */\n      dup3\n        /* \"#utility.yul\":9284:9298   */\n      add\n        /* \"#utility.yul\":9277:9323   */\n      mstore\n        /* \"#utility.yul\":9160:9330   */\n      pop\n      jump\t// out\n        /* \"#utility.yul\":9336:9702   */\n    tag_445:\n        /* \"#utility.yul\":9478:9481   */\n      0x00\n        /* \"#utility.yul\":9499:9566   */\n      tag_576\n        /* \"#utility.yul\":9563:9565   */\n      0x14\n        /* \"#utility.yul\":9558:9561   */\n      dup4\n        /* \"#utility.yul\":9499:9566   */\n      tag_414\n      jump\t// in\n    tag_576:\n        /* \"#utility.yul\":9492:9566   */\n      swap2\n      pop\n        /* \"#utility.yul\":9575:9668   */\n      tag_577\n        /* \"#utility.yul\":9664:9667   */\n      dup3\n        /* \"#utility.yul\":9575:9668   */\n      tag_444\n      jump\t// in\n    tag_577:\n        /* \"#utility.yul\":9693:9695   */\n      0x20\n        /* \"#utility.yul\":9688:9691   */\n      dup3\n        /* \"#utility.yul\":9684:9696   */\n      add\n        /* \"#utility.yul\":9677:9696   */\n      swap1\n      pop\n        /* \"#utility.yul\":9336:9702   */\n      swap2\n      swap1\n      pop\n      jump\t// out\n        /* \"#utility.yul\":9708:10127   */\n    tag_62:\n        /* \"#utility.yul\":9874:9878   */\n      0x00\n        /* \"#utility.yul\":9912:9914   */\n      0x20\n        /* \"#utility.yul\":9901:9910   */\n      dup3\n        /* \"#utility.yul\":9897:9915   */\n      add\n        /* \"#utility.yul\":9889:9915   */\n      swap1\n      pop\n        /* \"#utility.yul\":9961:9970   */\n      dup2\n        /* \"#utility.yul\":9955:9959   */\n      dup2\n        /* \"#utility.yul\":9951:9971   */\n      sub\n        /* \"#utility.yul\":9947:9948   */\n      0x00\n        /* \"#utility.yul\":9936:9945   */\n      dup4\n        /* \"#utility.yul\":9932:9949   */\n      add\n        /* \"#utility.yul\":9925:9972   */\n      mstore\n        /* \"#utility.yul\":9989:10120   */\n      tag_579\n        /* \"#utility.yul\":10115:10119   */\n      dup2\n        /* \"#utility.yul\":9989:10120   */\n      tag_445\n      jump\t// in\n    tag_579:\n        /* \"#utility.yul\":9981:10120   */\n      swap1\n      pop\n        /* \"#utility.yul\":9708:10127   */\n      swap2\n      swap1\n      pop\n      jump\t// out\n        /* \"#utility.yul\":10133:10307   */\n    tag_446:\n        /* \"#utility.yul\":10273:10299   */\n      0x506c6179657220697320616c7265616479206275737465640000000000000000\n        /* \"#utility.yul\":10269:10270   */\n      0x00\n        /* \"#utility.yul\":10261:10267   */\n      dup3\n        /* \"#utility.yul\":10257:10271   */\n      add\n        /* \"#utility.yul\":10250:10300   */\n      mstore\n        /* \"#utility.yul\":10133:10307   */\n      pop\n      jump\t// out\n        /* \"#utility.yul\":10313:10679   */\n    tag_447:\n        /* \"#utility.yul\":10455:10458   */\n      0x00\n        /* \"#utility.yul\":10476:10543   */\n      tag_582\n        /* \"#utility.yul\":10540:10542   */\n      0x18\n        /* \"#utility.yul\":10535:10538   */\n      dup4\n        /* \"#utility.yul\":10476:10543   */\n      tag_414\n      jump\t// in\n    tag_582:\n        /* \"#utility.yul\":10469:10543   */\n      swap2\n      pop\n        /* \"#utility.yul\":10552:10645   */\n      tag_583\n        /* \"#utility.yul\":10641:10644   */\n      dup3\n        /* \"#utility.yul\":10552:10645   */\n      tag_446\n      jump\t// in\n    tag_583:\n        /* \"#utility.yul\":10670:10672   */\n      0x20\n        /* \"#utility.yul\":10665:10668   */\n      dup3\n        /* \"#utility.yul\":10661:10673   */\n      add\n        /* \"#utility.yul\":10654:10673   */\n      swap1\n      pop\n        /* \"#utility.yul\":10313:10679   */\n      swap2\n      swap1\n      pop\n      jump\t// out\n        /* \"#utility.yul\":10685:11104   */\n    tag_68:\n        /* \"#utility.yul\":10851:10855   */\n      0x00\n        /* \"#utility.yul\":10889:10891   */\n      0x20\n        /* \"#utility.yul\":10878:10887   */\n      dup3\n        /* \"#utility.yul\":10874:10892   */\n      add\n        /* \"#utility.yul\":10866:10892   */\n      swap1\n      pop\n        /* \"#utility.yul\":10938:10947   */\n      dup2\n        /* \"#utility.yul\":10932:10936   */\n      dup2\n        /* \"#utility.yul\":10928:10948   */\n      sub\n        /* \"#utility.yul\":10924:10925   */\n      0x00\n        /* \"#utility.yul\":10913:10922   */\n      dup4\n        /* \"#utility.yul\":10909:10926   */\n      add\n        /* \"#utility.yul\":10902:10949   */\n      mstore\n        /* \"#utility.yul\":10966:11097   */\n      tag_585\n        /* \"#utility.yul\":11092:11096   */\n      dup2\n        /* \"#utility.yul\":10966:11097   */\n      tag_447\n      jump\t// in\n    tag_585:\n        /* \"#utility.yul\":10958:11097   */\n      swap1\n      pop\n        /* \"#utility.yul\":10685:11104   */\n      swap2\n      swap1\n      pop\n      jump\t// out\n        /* \"#utility.yul\":11110:11196   */\n    tag_448:\n        /* \"#utility.yul\":11145:11152   */\n      0x00\n        /* \"#utility.yul\":11185:11189   */\n      0xff\n        /* \"#utility.yul\":11178:11183   */\n      dup3\n        /* \"#utility.yul\":11174:11190   */\n      and\n        /* \"#utility.yul\":11163:11190   */\n      swap1\n      pop\n        /* \"#utility.yul\":11110:11196   */\n      swap2\n      swap1\n      pop\n      jump\t// out\n        /* \"#utility.yul\":11202:11314   */\n    tag_449:\n        /* \"#utility.yul\":11285:11307   */\n      tag_588\n        /* \"#utility.yul\":11301:11306   */\n      dup2\n        /* \"#utility.yul\":11285:11307   */\n      tag_448\n      jump\t// in\n    tag_588:\n        /* \"#utility.yul\":11280:11283   */\n      dup3\n        /* \"#utility.yul\":11273:11308   */\n      mstore\n        /* \"#utility.yul\":11202:11314   */\n      pop\n      pop\n      jump\t// out\n        /* \"#utility.yul\":11320:11534   */\n    tag_103:\n        /* \"#utility.yul\":11409:11413   */\n      0x00\n        /* \"#utility.yul\":11447:11449   */\n      0x20\n        /* \"#utility.yul\":11436:11445   */\n      dup3\n        /* \"#utility.yul\":11432:11450   */\n      add\n        /* \"#utility.yul\":11424:11450   */\n      swap1\n      pop\n        /* \"#utility.yul\":11460:11527   */\n      tag_590\n        /* \"#utility.yul\":11524:11525   */\n      0x00\n        /* \"#utility.yul\":11513:11522   */\n      dup4\n        /* \"#utility.yul\":11509:11526   */\n      add\n        /* \"#utility.yul\":11500:11506   */\n      dup5\n        /* \"#utility.yul\":11460:11527   */\n      tag_449\n      jump\t// in\n    tag_590:\n        /* \"#utility.yul\":11320:11534   */\n      swap3\n      swap2\n      pop\n      pop\n      jump\t// out\n        /* \"#utility.yul\":11540:11720   */\n    tag_180:\n        /* \"#utility.yul\":11588:11665   */\n      0x4e487b7100000000000000000000000000000000000000000000000000000000\n        /* \"#utility.yul\":11585:11586   */\n      0x00\n        /* \"#utility.yul\":11578:11666   */\n      mstore\n        /* \"#utility.yul\":11685:11689   */\n      0x41\n        /* \"#utility.yul\":11682:11683   */\n      0x04\n        /* \"#utility.yul\":11675:11690   */\n      mstore\n        /* \"#utility.yul\":11709:11713   */\n      0x24\n        /* \"#utility.yul\":11706:11707   */\n      0x00\n        /* \"#utility.yul\":11699:11714   */\n      revert\n        /* \"#utility.yul\":11726:11867   */\n    tag_450:\n        /* \"#utility.yul\":11775:11779   */\n      0x00\n        /* \"#utility.yul\":11798:11801   */\n      dup2\n        /* \"#utility.yul\":11790:11801   */\n      swap1\n      pop\n        /* \"#utility.yul\":11821:11824   */\n      dup2\n        /* \"#utility.yul\":11818:11819   */\n      0x00\n        /* \"#utility.yul\":11811:11825   */\n      mstore\n        /* \"#utility.yul\":11855:11859   */\n      0x20\n        /* \"#utility.yul\":11852:11853   */\n      0x00\n        /* \"#utility.yul\":11842:11860   */\n      keccak256\n        /* \"#utility.yul\":11834:11860   */\n      swap1\n      pop\n        /* \"#utility.yul\":11726:11867   */\n      swap2\n      swap1\n      pop\n      jump\t// out\n        /* \"#utility.yul\":11873:11966   */\n    tag_451:\n        /* \"#utility.yul\":11910:11916   */\n      0x00\n        /* \"#utility.yul\":11957:11959   */\n      0x20\n        /* \"#utility.yul\":11952:11954   */\n      0x1f\n        /* \"#utility.yul\":11945:11950   */\n      dup4\n        /* \"#utility.yul\":11941:11955   */\n      add\n        /* \"#utility.yul\":11937:11960   */\n      div\n        /* \"#utility.yul\":11927:11960   */\n      swap1\n      pop\n        /* \"#utility.yul\":11873:11966   */\n      swap2\n      swap1\n      pop\n      jump\t// out\n        /* \"#utility.yul\":11972:12079   */\n    tag_452:\n        /* \"#utility.yul\":12016:12024   */\n      0x00\n        /* \"#utility.yul\":12066:12071   */\n      dup3\n        /* \"#utility.yul\":12060:12064   */\n      dup3\n        /* \"#utility.yul\":12056:12072   */\n      shl\n        /* \"#utility.yul\":12035:12072   */\n      swap1\n      pop\n        /* \"#utility.yul\":11972:12079   */\n      swap3\n      swap2\n      pop\n      pop\n      jump\t// out\n        /* \"#utility.yul\":12085:12478   */\n    tag_453:\n        /* \"#utility.yul\":12154:12160   */\n      0x00\n        /* \"#utility.yul\":12204:12205   */\n      0x08\n        /* \"#utility.yul\":12192:12202   */\n      dup4\n        /* \"#utility.yul\":12188:12206   */\n      mul\n        /* \"#utility.yul\":12227:12324   */\n      tag_596\n        /* \"#utility.yul\":12257:12323   */\n      0xffffffffffffffffffffffffffffffffffffffffffffffffffffffffffffffff\n        /* \"#utility.yul\":12246:12255   */\n      dup3\n        /* \"#utility.yul\":12227:12324   */\n      tag_452\n      jump\t// in\n    tag_596:\n        /* \"#utility.yul\":12345:12384   */\n      tag_597\n        /* \"#utility.yul\":12375:12383   */\n      dup7\n        /* \"#utility.yul\":12364:12373   */\n      dup4\n        /* \"#utility.yul\":12345:12384   */\n      tag_452\n      jump\t// in\n    tag_597:\n        /* \"#utility.yul\":12333:12384   */\n      swap6\n      pop\n        /* \"#utility.yul\":12417:12421   */\n      dup1\n        /* \"#utility.yul\":12413:12422   */\n      not\n        /* \"#utility.yul\":12406:12411   */\n      dup5\n        /* \"#utility.yul\":12402:12423   */\n      and\n        /* \"#utility.yul\":12393:12423   */\n      swap4\n      pop\n        /* \"#utility.yul\":12466:12470   */\n      dup1\n        /* \"#utility.yul\":12456:12464   */\n      dup7\n        /* \"#utility.yul\":12452:12471   */\n      and\n        /* \"#utility.yul\":12445:12450   */\n      dup5\n        /* \"#utility.yul\":12442:12472   */\n      or\n        /* \"#utility.yul\":12432:12472   */\n      swap3\n      pop\n        /* \"#utility.yul\":12161:12478   */\n      pop\n      pop\n        /* \"#utility.yul\":12085:12478   */\n      swap4\n      swap3\n      pop\n      pop\n      pop\n      jump\t// out\n        /* \"#utility.yul\":12484:12544   */\n    tag_454:\n        /* \"#utility.yul\":12512:12515   */\n      0x00\n        /* \"#utility.yul\":12533:12538   */\n      dup2\n        /* \"#utility.yul\":12526:12538   */\n      swap1\n      pop\n        /* \"#utility.yul\":12484:12544   */\n      swap2\n      swap1\n      pop\n      jump\t// out\n        /* \"#utility.yul\":12550:12692   */\n    tag_455:\n        /* \"#utility.yul\":12600:12609   */\n      0x00\n        /* \"#utility.yul\":12633:12686   */\n      tag_600\n        /* \"#utility.yul\":12651:12685   */\n      tag_601\n        /* \"#utility.yul\":12660:12684   */\n      tag_602\n        /* \"#utility.yul\":12678:12683   */\n      dup5\n        /* \"#utility.yul\":12660:12684   */\n      tag_430\n      jump\t// in\n    tag_602:\n        /* \"#utility.yul\":12651:12685   */\n      tag_454\n      jump\t// in\n    tag_601:\n        /* \"#utility.yul\":12633:12686   */\n      tag_430\n      jump\t// in\n    tag_600:\n        /* \"#utility.yul\":12620:12686   */\n      swap1\n      pop\n        /* \"#utility.yul\":12550:12692   */\n      swap2\n      swap1\n      pop\n      jump\t// out\n        /* \"#utility.yul\":12698:12773   */\n    tag_456:\n        /* \"#utility.yul\":12741:12744   */\n      0x00\n        /* \"#utility.yul\":12762:12767   */\n      dup2\n        /* \"#utility.yul\":12755:12767   */\n      swap1\n      pop\n        /* \"#utility.yul\":12698:12773   */\n      swap2\n      swap1\n      pop\n      jump\t// out\n        /* \"#utility.yul\":12779:13048   */\n    tag_457:\n        /* \"#utility.yul\":12889:12928   */\n      tag_605\n        /* \"#utility.yul\":12920:12927   */\n      dup4\n        /* \"#utility.yul\":12889:12928   */\n      tag_455\n      jump\t// in\n    tag_605:\n        /* \"#utility.yul\":12950:13041   */\n      tag_606\n        /* \"#utility.yul\":12999:13040   */\n      tag_607\n        /* \"#utility.yul\":13023:13039   */\n      dup3\n        /* \"#utility.yul\":12999:13040   */\n      tag_456\n      jump\t// in\n    tag_607:\n        /* \"#utility.yul\":12991:12997   */\n      dup5\n        /* \"#utility.yul\":12984:12988   */\n      dup5\n        /* \"#utility.yul\":12978:12989   */\n      sload\n        /* \"#utility.yul\":12950:13041   */\n      tag_453\n      jump\t// in\n    tag_606:\n        /* \"#utility.yul\":12944:12948   */\n      dup3\n        /* \"#utility.yul\":12937:13042   */\n      sstore\n        /* \"#utility.yul\":12855:13048   */\n      pop\n        /* \"#utility.yul\":12779:13048   */\n      pop\n      pop\n      pop\n      jump\t// out\n        /* \"#utility.yul\":13054:13127   */\n    tag_458:\n        /* \"#utility.yul\":13099:13102   */\n      0x00\n        /* \"#utility.yul\":13054:13127   */\n      swap1\n      jump\t// out\n        /* \"#utility.yul\":13133:13322   */\n    tag_459:\n        /* \"#utility.yul\":13210:13242   */\n      tag_610\n      tag_458\n      jump\t// in\n    tag_610:\n        /* \"#utility.yul\":13251:13316   */\n      tag_611\n        /* \"#utility.yul\":13309:13315   */\n      dup2\n        /* \"#utility.yul\":13301:13307   */\n      dup5\n        /* \"#utility.yul\":13295:13299   */\n      dup5\n        /* \"#utility.yul\":13251:13316   */\n      tag_457\n      jump\t// in\n    tag_611:\n        /* \"#utility.yul\":13186:13322   */\n      pop\n        /* \"#utility.yul\":13133:13322   */\n      pop\n      pop\n      jump\t// out\n        /* \"#utility.yul\":13328:13514   */\n    tag_460:\n        /* \"#utility.yul\":13388:13508   */\n    tag_613:\n        /* \"#utility.yul\":13405:13408   */\n      dup2\n        /* \"#utility.yul\":13398:13403   */\n      dup2\n        /* \"#utility.yul\":13395:13409   */\n      lt\n        /* \"#utility.yul\":13388:13508   */\n      iszero\n      tag_615\n      jumpi\n        /* \"#utility.yul\":13459:13498   */\n      tag_616\n        /* \"#utility.yul\":13496:13497   */\n      0x00\n        /* \"#utility.yul\":13489:13494   */\n      dup3\n        /* \"#utility.yul\":13459:13498   */\n      tag_459\n      jump\t// in\n    tag_616:\n        /* \"#utility.yul\":13432:13433   */\n      0x01\n        /* \"#utility.yul\":13425:13430   */\n      dup2\n        /* \"#utility.yul\":13421:13434   */\n      add\n        /* \"#utility.yul\":13412:13434   */\n      swap1\n      pop\n        /* \"#utility.yul\":13388:13508   */\n      jump(tag_613)\n    tag_615:\n        /* \"#utility.yul\":13328:13514   */\n      pop\n      pop\n      jump\t// out\n        /* \"#utility.yul\":13520:14063   */\n    tag_461:\n        /* \"#utility.yul\":13621:13623   */\n      0x1f\n        /* \"#utility.yul\":13616:13619   */\n      dup3\n        /* \"#utility.yul\":13613:13624   */\n      gt\n        /* \"#utility.yul\":13610:14056   */\n      iszero\n      tag_618\n      jumpi\n        /* \"#utility.yul\":13655:13693   */\n      tag_619\n        /* \"#utility.yul\":13687:13692   */\n      dup2\n        /* \"#utility.yul\":13655:13693   */\n      tag_450\n      jump\t// in\n    tag_619:\n        /* \"#utility.yul\":13739:13768   */\n      tag_620\n        /* \"#utility.yul\":13757:13767   */\n      dup5\n        /* \"#utility.yul\":13739:13768   */\n      tag_451\n      jump\t// in\n    tag_620:\n        /* \"#utility.yul\":13729:13737   */\n      dup2\n        /* \"#utility.yul\":13725:13769   */\n      add\n        /* \"#utility.yul\":13922:13924   */\n      0x20\n        /* \"#utility.yul\":13910:13920   */\n      dup6\n        /* \"#utility.yul\":13907:13925   */\n      lt\n        /* \"#utility.yul\":13904:13953   */\n      iszero\n      tag_621\n      jumpi\n        /* \"#utility.yul\":13943:13951   */\n      dup2\n        /* \"#utility.yul\":13928:13951   */\n      swap1\n      pop\n        /* \"#utility.yul\":13904:13953   */\n    tag_621:\n        /* \"#utility.yul\":13966:14046   */\n      tag_622\n        /* \"#utility.yul\":14022:14044   */\n      tag_623\n        /* \"#utility.yul\":14040:14043   */\n      dup6\n        /* \"#utility.yul\":14022:14044   */\n      tag_451\n      jump\t// in\n    tag_623:\n        /* \"#utility.yul\":14012:14020   */\n      dup4\n        /* \"#utility.yul\":14008:14045   */\n      add\n        /* \"#utility.yul\":13995:14006   */\n      dup3\n        /* \"#utility.yul\":13966:14046   */\n      tag_460\n      jump\t// in\n    tag_622:\n        /* \"#utility.yul\":13625:14056   */\n      pop\n      pop\n        /* \"#utility.yul\":13610:14056   */\n    tag_618:\n        /* \"#utility.yul\":13520:14063   */\n      pop\n      pop\n      pop\n      jump\t// out\n        /* \"#utility.yul\":14069:14186   */\n    tag_462:\n        /* \"#utility.yul\":14123:14131   */\n      0x00\n        /* \"#utility.yul\":14173:14178   */\n      dup3\n        /* \"#utility.yul\":14167:14171   */\n      dup3\n        /* \"#utility.yul\":14163:14179   */\n      shr\n        /* \"#utility.yul\":14142:14179   */\n      swap1\n      pop\n        /* \"#utility.yul\":14069:14186   */\n      swap3\n      swap2\n      pop\n      pop\n      jump\t// out\n        /* \"#utility.yul\":14192:14361   */\n    tag_463:\n        /* \"#utility.yul\":14236:14242   */\n      0x00\n        /* \"#utility.yul\":14269:14320   */\n      tag_626\n        /* \"#utility.yul\":14317:14318   */\n      0x00\n        /* \"#utility.yul\":14313:14319   */\n      not\n        /* \"#utility.yul\":14305:14310   */\n      dup5\n        /* \"#utility.yul\":14302:14303   */\n      0x08\n        /* \"#utility.yul\":14298:14311   */\n      mul\n        /* \"#utility.yul\":14269:14320   */\n      tag_462\n      jump\t// in\n    tag_626:\n        /* \"#utility.yul\":14265:14321   */\n      not\n        /* \"#utility.yul\":14350:14354   */\n      dup1\n        /* \"#utility.yul\":14344:14348   */\n      dup4\n        /* \"#utility.yul\":14340:14355   */\n      and\n        /* \"#utility.yul\":14330:14355   */\n      swap2\n      pop\n        /* \"#utility.yul\":14243:14361   */\n      pop\n        /* \"#utility.yul\":14192:14361   */\n      swap3\n      swap2\n      pop\n      pop\n      jump\t// out\n        /* \"#utility.yul\":14366:14661   */\n    tag_464:\n        /* \"#utility.yul\":14442:14446   */\n      0x00\n        /* \"#utility.yul\":14588:14617   */\n      tag_628\n        /* \"#utility.yul\":14613:14616   */\n      dup4\n        /* \"#utility.yul\":14607:14611   */\n      dup4\n        /* \"#utility.yul\":14588:14617   */\n      tag_463\n      jump\t// in\n    tag_628:\n        /* \"#utility.yul\":14580:14617   */\n      swap2\n      pop\n        /* \"#utility.yul\":14650:14653   */\n      dup3\n        /* \"#utility.yul\":14647:14648   */\n      0x02\n        /* \"#utility.yul\":14643:14654   */\n      mul\n        /* \"#utility.yul\":14637:14641   */\n      dup3\n        /* \"#utility.yul\":14634:14655   */\n      or\n        /* \"#utility.yul\":14626:14655   */\n      swap1\n      pop\n        /* \"#utility.yul\":14366:14661   */\n      swap3\n      swap2\n      pop\n      pop\n      jump\t// out\n        /* \"#utility.yul\":14666:16061   */\n    tag_111:\n        /* \"#utility.yul\":14783:14820   */\n      tag_630\n        /* \"#utility.yul\":14816:14819   */\n      dup3\n        /* \"#utility.yul\":14783:14820   */\n      tag_413\n      jump\t// in\n    tag_630:\n        /* \"#utility.yul\":14885:14903   */\n      0xffffffffffffffff\n        /* \"#utility.yul\":14877:14883   */\n      dup2\n        /* \"#utility.yul\":14874:14904   */\n      gt\n        /* \"#utility.yul\":14871:14927   */\n      iszero\n      tag_631\n      jumpi\n        /* \"#utility.yul\":14907:14925   */\n      tag_632\n      tag_180\n      jump\t// in\n    tag_632:\n        /* \"#utility.yul\":14871:14927   */\n    tag_631:\n        /* \"#utility.yul\":14951:14989   */\n      tag_633\n        /* \"#utility.yul\":14983:14987   */\n      dup3\n        /* \"#utility.yul\":14977:14988   */\n      sload\n        /* \"#utility.yul\":14951:14989   */\n      tag_45\n      jump\t// in\n    tag_633:\n        /* \"#utility.yul\":15036:15103   */\n      tag_634\n        /* \"#utility.yul\":15096:15102   */\n      dup3\n        /* \"#utility.yul\":15088:15094   */\n      dup3\n        /* \"#utility.yul\":15082:15086   */\n      dup6\n        /* \"#utility.yul\":15036:15103   */\n      tag_461\n      jump\t// in\n    tag_634:\n        /* \"#utility.yul\":15130:15131   */\n      0x00\n        /* \"#utility.yul\":15154:15158   */\n      0x20\n        /* \"#utility.yul\":15141:15158   */\n      swap1\n      pop\n        /* \"#utility.yul\":15186:15188   */\n      0x1f\n        /* \"#utility.yul\":15178:15184   */\n      dup4\n        /* \"#utility.yul\":15175:15189   */\n      gt\n        /* \"#utility.yul\":15203:15204   */\n      0x01\n        /* \"#utility.yul\":15198:15816   */\n      dup2\n      eq\n      tag_636\n      jumpi\n        /* \"#utility.yul\":15860:15861   */\n      0x00\n        /* \"#utility.yul\":15877:15883   */\n      dup5\n        /* \"#utility.yul\":15874:15951   */\n      iszero\n      tag_637\n      jumpi\n        /* \"#utility.yul\":15926:15935   */\n      dup3\n        /* \"#utility.yul\":15921:15924   */\n      dup8\n        /* \"#utility.yul\":15917:15936   */\n      add\n        /* \"#utility.yul\":15911:15937   */\n      mload\n        /* \"#utility.yul\":15902:15937   */\n      swap1\n      pop\n        /* \"#utility.yul\":15874:15951   */\n    tag_637:\n        /* \"#utility.yul\":15977:16044   */\n      tag_638\n        /* \"#utility.yul\":16037:16043   */\n      dup6\n        /* \"#utility.yul\":16030:16035   */\n      dup3\n        /* \"#utility.yul\":15977:16044   */\n      tag_464\n      jump\t// in\n    tag_638:\n        /* \"#utility.yul\":15971:15975   */\n      dup7\n        /* \"#utility.yul\":15964:16045   */\n      sstore\n        /* \"#utility.yul\":15833:16055   */\n      pop\n        /* \"#utility.yul\":15168:16055   */\n      jump(tag_635)\n        /* \"#utility.yul\":15198:15816   */\n    tag_636:\n        /* \"#utility.yul\":15250:15254   */\n      0x1f\n        /* \"#utility.yul\":15246:15255   */\n      not\n        /* \"#utility.yul\":15238:15244   */\n      dup5\n        /* \"#utility.yul\":15234:15256   */\n      and\n        /* \"#utility.yul\":15284:15321   */\n      tag_639\n        /* \"#utility.yul\":15316:15320   */\n      dup7\n        /* \"#utility.yul\":15284:15321   */\n      tag_450\n      jump\t// in\n    tag_639:\n        /* \"#utility.yul\":15343:15344   */\n      0x00\n        /* \"#utility.yul\":15357:15565   */\n    tag_640:\n        /* \"#utility.yul\":15371:15378   */\n      dup3\n        /* \"#utility.yul\":15368:15369   */\n      dup2\n        /* \"#utility.yul\":15365:15379   */\n      lt\n        /* \"#utility.yul\":15357:15565   */\n      iszero\n      tag_642\n      jumpi\n        /* \"#utility.yul\":15450:15459   */\n      dup5\n        /* \"#utility.yul\":15445:15448   */\n      dup10\n        /* \"#utility.yul\":15441:15460   */\n      add\n        /* \"#utility.yul\":15435:15461   */\n      mload\n        /* \"#utility.yul\":15427:15433   */\n      dup3\n        /* \"#utility.yul\":15420:15462   */\n      sstore\n        /* \"#utility.yul\":15501:15502   */\n      0x01\n        /* \"#utility.yul\":15493:15499   */\n      dup3\n        /* \"#utility.yul\":15489:15503   */\n      add\n        /* \"#utility.yul\":15479:15503   */\n      swap2\n      pop\n        /* \"#utility.yul\":15548:15550   */\n      0x20\n        /* \"#utility.yul\":15537:15546   */\n      dup6\n        /* \"#utility.yul\":15533:15551   */\n      add\n        /* \"#utility.yul\":15520:15551   */\n      swap5\n      pop\n        /* \"#utility.yul\":15394:15398   */\n      0x20\n        /* \"#utility.yul\":15391:15392   */\n      dup2\n        /* \"#utility.yul\":15387:15399   */\n      add\n        /* \"#utility.yul\":15382:15399   */\n      swap1\n      pop\n        /* \"#utility.yul\":15357:15565   */\n      jump(tag_640)\n    tag_642:\n        /* \"#utility.yul\":15593:15599   */\n      dup7\n        /* \"#utility.yul\":15584:15591   */\n      dup4\n        /* \"#utility.yul\":15581:15600   */\n      lt\n        /* \"#utility.yul\":15578:15757   */\n      iszero\n      tag_643\n      jumpi\n        /* \"#utility.yul\":15651:15660   */\n      dup5\n        /* \"#utility.yul\":15646:15649   */\n      dup10\n        /* \"#utility.yul\":15642:15661   */\n      add\n        /* \"#utility.yul\":15636:15662   */\n      mload\n        /* \"#utility.yul\":15694:15742   */\n      tag_644\n        /* \"#utility.yul\":15736:15740   */\n      0x1f\n        /* \"#utility.yul\":15728:15734   */\n      dup10\n        /* \"#utility.yul\":15724:15741   */\n      and\n        /* \"#utility.yul\":15713:15722   */\n      dup3\n        /* \"#utility.yul\":15694:15742   */\n      tag_463\n      jump\t// in\n    tag_644:\n        /* \"#utility.yul\":15686:15692   */\n      dup4\n        /* \"#utility.yul\":15679:15743   */\n      sstore\n        /* \"#utility.yul\":15601:15757   */\n      pop\n        /* \"#utility.yul\":15578:15757   */\n    tag_643:\n        /* \"#utility.yul\":15803:15804   */\n      0x01\n        /* \"#utility.yul\":15799:15800   */\n      0x02\n        /* \"#utility.yul\":15791:15797   */\n      dup9\n        /* \"#utility.yul\":15787:15801   */\n      mul\n        /* \"#utility.yul\":15783:15805   */\n      add\n        /* \"#utility.yul\":15777:15781   */\n      dup9\n        /* \"#utility.yul\":15770:15806   */\n      sstore\n        /* \"#utility.yul\":15205:15816   */\n      pop\n      pop\n      pop\n        /* \"#utility.yul\":15168:16055   */\n    tag_635:\n      pop\n        /* \"#utility.yul\":14758:16061   */\n      pop\n      pop\n      pop\n        /* \"#utility.yul\":14666:16061   */\n      pop\n      pop\n      jump\t// out\n        /* \"#utility.yul\":16067:16247   */\n    tag_465:\n        /* \"#utility.yul\":16115:16192   */\n      0x4e487b7100000000000000000000000000000000000000000000000000000000\n        /* \"#utility.yul\":16112:16113   */\n      0x00\n        /* \"#utility.yul\":16105:16193   */\n      mstore\n        /* \"#utility.yul\":16212:16216   */\n      0x11\n        /* \"#utility.yul\":16209:16210   */\n      0x04\n        /* \"#utility.yul\":16202:16217   */\n      mstore\n        /* \"#utility.yul\":16236:16240   */\n      0x24\n        /* \"#utility.yul\":16233:16234   */\n      0x00\n        /* \"#utility.yul\":16226:16241   */\n      revert\n        /* \"#utility.yul\":16253:16663   */\n    tag_134:\n        /* \"#utility.yul\":16293:16300   */\n      0x00\n        /* \"#utility.yul\":16316:16336   */\n      tag_647\n        /* \"#utility.yul\":16334:16335   */\n      dup3\n        /* \"#utility.yul\":16316:16336   */\n      tag_430\n      jump\t// in\n    tag_647:\n        /* \"#utility.yul\":16311:16336   */\n      swap2\n      pop\n        /* \"#utility.yul\":16350:16370   */\n      tag_648\n        /* \"#utility.yul\":16368:16369   */\n      dup4\n        /* \"#utility.yul\":16350:16370   */\n      tag_430\n      jump\t// in\n    tag_648:\n        /* \"#utility.yul\":16345:16370   */\n      swap3\n      pop\n        /* \"#utility.yul\":16405:16406   */\n      dup3\n        /* \"#utility.yul\":16402:16403   */\n      dup3\n        /* \"#utility.yul\":16398:16407   */\n      mul\n        /* \"#utility.yul\":16427:16457   */\n      tag_649\n        /* \"#utility.yul\":16445:16456   */\n      dup2\n        /* \"#utility.yul\":16427:16457   */\n      tag_430\n      jump\t// in\n    tag_649:\n        /* \"#utility.yul\":16416:16457   */\n      swap2\n      pop\n        /* \"#utility.yul\":16606:16607   */\n      dup3\n        /* \"#utility.yul\":16597:16604   */\n      dup3\n        /* \"#utility.yul\":16593:16608   */\n      div\n        /* \"#utility.yul\":16590:16591   */\n      dup5\n        /* \"#utility.yul\":16587:16609   */\n      eq\n        /* \"#utility.yul\":16567:16568   */\n      dup4\n        /* \"#utility.yul\":16560:16569   */\n      iszero\n        /* \"#utility.yul\":16540:16623   */\n      or\n        /* \"#utility.yul\":16517:16656   */\n      tag_650\n      jumpi\n        /* \"#utility.yul\":16636:16654   */\n      tag_651\n      tag_465\n      jump\t// in\n    tag_651:\n        /* \"#utility.yul\":16517:16656   */\n    tag_650:\n        /* \"#utility.yul\":16301:16663   */\n      pop\n        /* \"#utility.yul\":16253:16663   */\n      swap3\n      swap2\n      pop\n      pop\n      jump\t// out\n        /* \"#utility.yul\":16669:16787   */\n    tag_466:\n        /* \"#utility.yul\":16756:16780   */\n      tag_653\n        /* \"#utility.yul\":16774:16779   */\n      dup2\n        /* \"#utility.yul\":16756:16780   */\n      tag_422\n      jump\t// in\n    tag_653:\n        /* \"#utility.yul\":16751:16754   */\n      dup3\n        /* \"#utility.yul\":16744:16781   */\n      mstore\n        /* \"#utility.yul\":16669:16787   */\n      pop\n      pop\n      jump\t// out\n        /* \"#utility.yul\":16793:17117   */\n    tag_145:\n        /* \"#utility.yul\":16910:16914   */\n      0x00\n        /* \"#utility.yul\":16948:16950   */\n      0x40\n        /* \"#utility.yul\":16937:16946   */\n      dup3\n        /* \"#utility.yul\":16933:16951   */\n      add\n        /* \"#utility.yul\":16925:16951   */\n      swap1\n      pop\n        /* \"#utility.yul\":16961:17032   */\n      tag_655\n        /* \"#utility.yul\":17029:17030   */\n      0x00\n        /* \"#utility.yul\":17018:17027   */\n      dup4\n        /* \"#utility.yul\":17014:17031   */\n      add\n        /* \"#utility.yul\":17005:17011   */\n      dup6\n        /* \"#utility.yul\":16961:17032   */\n      tag_466\n      jump\t// in\n    tag_655:\n        /* \"#utility.yul\":17042:17110   */\n      tag_656\n        /* \"#utility.yul\":17106:17108   */\n      0x20\n        /* \"#utility.yul\":17095:17104   */\n      dup4\n        /* \"#utility.yul\":17091:17109   */\n      add\n        /* \"#utility.yul\":17082:17088   */\n      dup5\n        /* \"#utility.yul\":17042:17110   */\n      tag_449\n      jump\t// in\n    tag_656:\n        /* \"#utility.yul\":16793:17117   */\n      swap4\n      swap3\n      pop\n      pop\n      pop\n      jump\t// out\n        /* \"#utility.yul\":17123:17286   */\n    tag_467:\n        /* \"#utility.yul\":17263:17278   */\n      0x4e6f7420796f7572207475726e00000000000000000000000000000000000000\n        /* \"#utility.yul\":17259:17260   */\n      0x00\n        /* \"#utility.yul\":17251:17257   */\n      dup3\n        /* \"#utility.yul\":17247:17261   */\n      add\n        /* \"#utility.yul\":17240:17279   */\n      mstore\n        /* \"#utility.yul\":17123:17286   */\n      pop\n      jump\t// out\n        /* \"#utility.yul\":17292:17658   */\n    tag_468:\n        /* \"#utility.yul\":17434:17437   */\n      0x00\n        /* \"#utility.yul\":17455:17522   */\n      tag_659\n        /* \"#utility.yul\":17519:17521   */\n      0x0d\n        /* \"#utility.yul\":17514:17517   */\n      dup4\n        /* \"#utility.yul\":17455:17522   */\n      tag_414\n      jump\t// in\n    tag_659:\n        /* \"#utility.yul\":17448:17522   */\n      swap2\n      pop\n        /* \"#utility.yul\":17531:17624   */\n      tag_660\n        /* \"#utility.yul\":17620:17623   */\n      dup3\n        /* \"#utility.yul\":17531:17624   */\n      tag_467\n      jump\t// in\n    tag_660:\n        /* \"#utility.yul\":17649:17651   */\n      0x20\n        /* \"#utility.yul\":17644:17647   */\n      dup3\n        /* \"#utility.yul\":17640:17652   */\n      add\n        /* \"#utility.yul\":17633:17652   */\n      swap1\n      pop\n        /* \"#utility.yul\":17292:17658   */\n      swap2\n      swap1\n      pop\n      jump\t// out\n        /* \"#utility.yul\":17664:18083   */\n    tag_166:\n        /* \"#utility.yul\":17830:17834   */\n      0x00\n        /* \"#utility.yul\":17868:17870   */\n      0x20\n        /* \"#utility.yul\":17857:17866   */\n      dup3\n        /* \"#utility.yul\":17853:17871   */\n      add\n        /* \"#utility.yul\":17845:17871   */\n      swap1\n      pop\n        /* \"#utility.yul\":17917:17926   */\n      dup2\n        /* \"#utility.yul\":17911:17915   */\n      dup2\n        /* \"#utility.yul\":17907:17927   */\n      sub\n        /* \"#utility.yul\":17903:17904   */\n      0x00\n        /* \"#utility.yul\":17892:17901   */\n      dup4\n        /* \"#utility.yul\":17888:17905   */\n      add\n        /* \"#utility.yul\":17881:17928   */\n      mstore\n        /* \"#utility.yul\":17945:18076   */\n      tag_662\n        /* \"#utility.yul\":18071:18075   */\n      dup2\n        /* \"#utility.yul\":17945:18076   */\n      tag_468\n      jump\t// in\n    tag_662:\n        /* \"#utility.yul\":17937:18076   */\n      swap1\n      pop\n        /* \"#utility.yul\":17664:18083   */\n      swap2\n      swap1\n      pop\n      jump\t// out\n        /* \"#utility.yul\":18089:18280   */\n    tag_177:\n        /* \"#utility.yul\":18129:18132   */\n      0x00\n        /* \"#utility.yul\":18148:18168   */\n      tag_664\n        /* \"#utility.yul\":18166:18167   */\n      dup3\n        /* \"#utility.yul\":18148:18168   */\n      tag_430\n      jump\t// in\n    tag_664:\n        /* \"#utility.yul\":18143:18168   */\n      swap2\n      pop\n        /* \"#utility.yul\":18182:18202   */\n      tag_665\n        /* \"#utility.yul\":18200:18201   */\n      dup4\n        /* \"#utility.yul\":18182:18202   */\n      tag_430\n      jump\t// in\n    tag_665:\n        /* \"#utility.yul\":18177:18202   */\n      swap3\n      pop\n        /* \"#utility.yul\":18225:18226   */\n      dup3\n        /* \"#utility.yul\":18222:18223   */\n      dup3\n        /* \"#utility.yul\":18218:18227   */\n      add\n        /* \"#utility.yul\":18211:18227   */\n      swap1\n      pop\n        /* \"#utility.yul\":18246:18249   */\n      dup1\n        /* \"#utility.yul\":18243:18244   */\n      dup3\n        /* \"#utility.yul\":18240:18250   */\n      gt\n        /* \"#utility.yul\":18237:18273   */\n      iszero\n      tag_666\n      jumpi\n        /* \"#utility.yul\":18253:18271   */\n      tag_667\n      tag_465\n      jump\t// in\n    tag_667:\n        /* \"#utility.yul\":18237:18273   */\n    tag_666:\n        /* \"#utility.yul\":18089:18280   */\n      swap3\n      swap2\n      pop\n      pop\n      jump\t// out\n        /* \"#utility.yul\":18286:18434   */\n    tag_469:\n        /* \"#utility.yul\":18388:18399   */\n      0x00\n        /* \"#utility.yul\":18425:18428   */\n      dup2\n        /* \"#utility.yul\":18410:18428   */\n      swap1\n      pop\n        /* \"#utility.yul\":18286:18434   */\n      swap3\n      swap2\n      pop\n      pop\n      jump\t// out\n        /* \"#utility.yul\":18440:18597   */\n    tag_470:\n        /* \"#utility.yul\":18580:18589   */\n      0x506c617965722000000000000000000000000000000000000000000000000000\n        /* \"#utility.yul\":18576:18577   */\n      0x00\n        /* \"#utility.yul\":18568:18574   */\n      dup3\n        /* \"#utility.yul\":18564:18578   */\n      add\n        /* \"#utility.yul\":18557:18590   */\n      mstore\n        /* \"#utility.yul\":18440:18597   */\n      pop\n      jump\t// out\n        /* \"#utility.yul\":18603:19003   */\n    tag_471:\n        /* \"#utility.yul\":18763:18766   */\n      0x00\n        /* \"#utility.yul\":18784:18868   */\n      tag_671\n        /* \"#utility.yul\":18866:18867   */\n      0x07\n        /* \"#utility.yul\":18861:18864   */\n      dup4\n        /* \"#utility.yul\":18784:18868   */\n      tag_469\n      jump\t// in\n    tag_671:\n        /* \"#utility.yul\":18777:18868   */\n      swap2\n      pop\n        /* \"#utility.yul\":18877:18970   */\n      tag_672\n        /* \"#utility.yul\":18966:18969   */\n      dup3\n        /* \"#utility.yul\":18877:18970   */\n      tag_470\n      jump\t// in\n    tag_672:\n        /* \"#utility.yul\":18995:18996   */\n      0x07\n        /* \"#utility.yul\":18990:18993   */\n      dup3\n        /* \"#utility.yul\":18986:18997   */\n      add\n        /* \"#utility.yul\":18979:18997   */\n      swap1\n      pop\n        /* \"#utility.yul\":18603:19003   */\n      swap2\n      swap1\n      pop\n      jump\t// out\n        /* \"#utility.yul\":19009:19399   */\n    tag_472:\n        /* \"#utility.yul\":19115:19118   */\n      0x00\n        /* \"#utility.yul\":19143:19182   */\n      tag_674\n        /* \"#utility.yul\":19176:19181   */\n      dup3\n        /* \"#utility.yul\":19143:19182   */\n      tag_413\n      jump\t// in\n    tag_674:\n        /* \"#utility.yul\":19198:19287   */\n      tag_675\n        /* \"#utility.yul\":19280:19286   */\n      dup2\n        /* \"#utility.yul\":19275:19278   */\n      dup6\n        /* \"#utility.yul\":19198:19287   */\n      tag_469\n      jump\t// in\n    tag_675:\n        /* \"#utility.yul\":19191:19287   */\n      swap4\n      pop\n        /* \"#utility.yul\":19296:19361   */\n      tag_676\n        /* \"#utility.yul\":19354:19360   */\n      dup2\n        /* \"#utility.yul\":19349:19352   */\n      dup6\n        /* \"#utility.yul\":19342:19346   */\n      0x20\n        /* \"#utility.yul\":19335:19340   */\n      dup7\n        /* \"#utility.yul\":19331:19347   */\n      add\n        /* \"#utility.yul\":19296:19361   */\n      tag_415\n      jump\t// in\n    tag_676:\n        /* \"#utility.yul\":19386:19392   */\n      dup1\n        /* \"#utility.yul\":19381:19384   */\n      dup5\n        /* \"#utility.yul\":19377:19393   */\n      add\n        /* \"#utility.yul\":19370:19393   */\n      swap2\n      pop\n        /* \"#utility.yul\":19119:19399   */\n      pop\n        /* \"#utility.yul\":19009:19399   */\n      swap3\n      swap2\n      pop\n      pop\n      jump\t// out\n        /* \"#utility.yul\":19405:19557   */\n    tag_473:\n        /* \"#utility.yul\":19545:19549   */\n      0x3a20000000000000000000000000000000000000000000000000000000000000\n        /* \"#utility.yul\":19541:19542   */\n      0x00\n        /* \"#utility.yul\":19533:19539   */\n      dup3\n        /* \"#utility.yul\":19529:19543   */\n      add\n        /* \"#utility.yul\":19522:19550   */\n      mstore\n        /* \"#utility.yul\":19405:19557   */\n      pop\n      jump\t// out\n        /* \"#utility.yul\":19563:19963   */\n    tag_474:\n        /* \"#utility.yul\":19723:19726   */\n      0x00\n        /* \"#utility.yul\":19744:19828   */\n      tag_679\n        /* \"#utility.yul\":19826:19827   */\n      0x02\n        /* \"#utility.yul\":19821:19824   */\n      dup4\n        /* \"#utility.yul\":19744:19828   */\n      tag_469\n      jump\t// in\n    tag_679:\n        /* \"#utility.yul\":19737:19828   */\n      swap2\n      pop\n        /* \"#utility.yul\":19837:19930   */\n      tag_680\n        /* \"#utility.yul\":19926:19929   */\n      dup3\n        /* \"#utility.yul\":19837:19930   */\n      tag_473\n      jump\t// in\n    tag_680:\n        /* \"#utility.yul\":19955:19956   */\n      0x02\n        /* \"#utility.yul\":19950:19953   */\n      dup3\n        /* \"#utility.yul\":19946:19957   */\n      add\n        /* \"#utility.yul\":19939:19957   */\n      swap1\n      pop\n        /* \"#utility.yul\":19563:19963   */\n      swap2\n      swap1\n      pop\n      jump\t// out\n        /* \"#utility.yul\":19969:20776   */\n    tag_201:\n        /* \"#utility.yul\":20303:20306   */\n      0x00\n        /* \"#utility.yul\":20325:20473   */\n      tag_682\n        /* \"#utility.yul\":20469:20472   */\n      dup3\n        /* \"#utility.yul\":20325:20473   */\n      tag_471\n      jump\t// in\n    tag_682:\n        /* \"#utility.yul\":20318:20473   */\n      swap2\n      pop\n        /* \"#utility.yul\":20490:20585   */\n      tag_683\n        /* \"#utility.yul\":20581:20584   */\n      dup3\n        /* \"#utility.yul\":20572:20578   */\n      dup5\n        /* \"#utility.yul\":20490:20585   */\n      tag_472\n      jump\t// in\n    tag_683:\n        /* \"#utility.yul\":20483:20585   */\n      swap2\n      pop\n        /* \"#utility.yul\":20602:20750   */\n      tag_684\n        /* \"#utility.yul\":20746:20749   */\n      dup3\n        /* \"#utility.yul\":20602:20750   */\n      tag_474\n      jump\t// in\n    tag_684:\n        /* \"#utility.yul\":20595:20750   */\n      swap2\n      pop\n        /* \"#utility.yul\":20767:20770   */\n      dup2\n        /* \"#utility.yul\":20760:20770   */\n      swap1\n      pop\n        /* \"#utility.yul\":19969:20776   */\n      swap3\n      swap2\n      pop\n      pop\n      jump\t// out\n        /* \"#utility.yul\":20782:20954   */\n    tag_475:\n        /* \"#utility.yul\":20922:20946   */\n      0x4e6f20706c617965727320696e207468652067616d6500000000000000000000\n        /* \"#utility.yul\":20918:20919   */\n      0x00\n        /* \"#utility.yul\":20910:20916   */\n      dup3\n        /* \"#utility.yul\":20906:20920   */\n      add\n        /* \"#utility.yul\":20899:20947   */\n      mstore\n        /* \"#utility.yul\":20782:20954   */\n      pop\n      jump\t// out\n        /* \"#utility.yul\":20960:21326   */\n    tag_476:\n        /* \"#utility.yul\":21102:21105   */\n      0x00\n        /* \"#utility.yul\":21123:21190   */\n      tag_687\n        /* \"#utility.yul\":21187:21189   */\n      0x16\n        /* \"#utility.yul\":21182:21185   */\n      dup4\n        /* \"#utility.yul\":21123:21190   */\n      tag_414\n      jump\t// in\n    tag_687:\n        /* \"#utility.yul\":21116:21190   */\n      swap2\n      pop\n        /* \"#utility.yul\":21199:21292   */\n      tag_688\n        /* \"#utility.yul\":21288:21291   */\n      dup3\n        /* \"#utility.yul\":21199:21292   */\n      tag_475\n      jump\t// in\n    tag_688:\n        /* \"#utility.yul\":21317:21319   */\n      0x20\n        /* \"#utility.yul\":21312:21315   */\n      dup3\n        /* \"#utility.yul\":21308:21320   */\n      add\n        /* \"#utility.yul\":21301:21320   */\n      swap1\n      pop\n        /* \"#utility.yul\":20960:21326   */\n      swap2\n      swap1\n      pop\n      jump\t// out\n        /* \"#utility.yul\":21332:21751   */\n    tag_208:\n        /* \"#utility.yul\":21498:21502   */\n      0x00\n        /* \"#utility.yul\":21536:21538   */\n      0x20\n        /* \"#utility.yul\":21525:21534   */\n      dup3\n        /* \"#utility.yul\":21521:21539   */\n      add\n        /* \"#utility.yul\":21513:21539   */\n      swap1\n      pop\n        /* \"#utility.yul\":21585:21594   */\n      dup2\n        /* \"#utility.yul\":21579:21583   */\n      dup2\n        /* \"#utility.yul\":21575:21595   */\n      sub\n        /* \"#utility.yul\":21571:21572   */\n      0x00\n        /* \"#utility.yul\":21560:21569   */\n      dup4\n        /* \"#utility.yul\":21556:21573   */\n      add\n        /* \"#utility.yul\":21549:21596   */\n      mstore\n        /* \"#utility.yul\":21613:21744   */\n      tag_690\n        /* \"#utility.yul\":21739:21743   */\n      dup2\n        /* \"#utility.yul\":21613:21744   */\n      tag_476\n      jump\t// in\n    tag_690:\n        /* \"#utility.yul\":21605:21744   */\n      swap1\n      pop\n        /* \"#utility.yul\":21332:21751   */\n      swap2\n      swap1\n      pop\n      jump\t// out\n        /* \"#utility.yul\":21757:21928   */\n    tag_477:\n        /* \"#utility.yul\":21897:21920   */\n      0x4d6178203420706c617965727320616c6c6f7765640000000000000000000000\n        /* \"#utility.yul\":21893:21894   */\n      0x00\n        /* \"#utility.yul\":21885:21891   */\n      dup3\n        /* \"#utility.yul\":21881:21895   */\n      add\n        /* \"#utility.yul\":21874:21921   */\n      mstore\n        /* \"#utility.yul\":21757:21928   */\n      pop\n      jump\t// out\n        /* \"#utility.yul\":21934:22300   */\n    tag_478:\n        /* \"#utility.yul\":22076:22079   */\n      0x00\n        /* \"#utility.yul\":22097:22164   */\n      tag_693\n        /* \"#utility.yul\":22161:22163   */\n      0x15\n        /* \"#utility.yul\":22156:22159   */\n      dup4\n        /* \"#utility.yul\":22097:22164   */\n      tag_414\n      jump\t// in\n    tag_693:\n        /* \"#utility.yul\":22090:22164   */\n      swap2\n      pop\n        /* \"#utility.yul\":22173:22266   */\n      tag_694\n        /* \"#utility.yul\":22262:22265   */\n      dup3\n        /* \"#utility.yul\":22173:22266   */\n      tag_477\n      jump\t// in\n    tag_694:\n        /* \"#utility.yul\":22291:22293   */\n      0x20\n        /* \"#utility.yul\":22286:22289   */\n      dup3\n        /* \"#utility.yul\":22282:22294   */\n      add\n        /* \"#utility.yul\":22275:22294   */\n      swap1\n      pop\n        /* \"#utility.yul\":21934:22300   */\n      swap2\n      swap1\n      pop\n      jump\t// out\n        /* \"#utility.yul\":22306:22725   */\n    tag_231:\n        /* \"#utility.yul\":22472:22476   */\n      0x00\n        /* \"#utility.yul\":22510:22512   */\n      0x20\n        /* \"#utility.yul\":22499:22508   */\n      dup3\n        /* \"#utility.yul\":22495:22513   */\n      add\n        /* \"#utility.yul\":22487:22513   */\n      swap1\n      pop\n        /* \"#utility.yul\":22559:22568   */\n      dup2\n        /* \"#utility.yul\":22553:22557   */\n      dup2\n        /* \"#utility.yul\":22549:22569   */\n      sub\n        /* \"#utility.yul\":22545:22546   */\n      0x00\n        /* \"#utility.yul\":22534:22543   */\n      dup4\n        /* \"#utility.yul\":22530:22547   */\n      add\n        /* \"#utility.yul\":22523:22570   */\n      mstore\n        /* \"#utility.yul\":22587:22718   */\n      tag_696\n        /* \"#utility.yul\":22713:22717   */\n      dup2\n        /* \"#utility.yul\":22587:22718   */\n      tag_478\n      jump\t// in\n    tag_696:\n        /* \"#utility.yul\":22579:22718   */\n      swap1\n      pop\n        /* \"#utility.yul\":22306:22725   */\n      swap2\n      swap1\n      pop\n      jump\t// out\n        /* \"#utility.yul\":22731:22900   */\n    tag_479:\n        /* \"#utility.yul\":22871:22892   */\n      0x42657420616d6f756e74206d69736d6174636800000000000000000000000000\n        /* \"#utility.yul\":22867:22868   */\n      0x00\n        /* \"#utility.yul\":22859:22865   */\n      dup3\n        /* \"#utility.yul\":22855:22869   */\n      add\n        /* \"#utility.yul\":22848:22893   */\n      mstore\n        /* \"#utility.yul\":22731:22900   */\n      pop\n      jump\t// out\n        /* \"#utility.yul\":22906:23272   */\n    tag_480:\n        /* \"#utility.yul\":23048:23051   */\n      0x00\n        /* \"#utility.yul\":23069:23136   */\n      tag_699\n        /* \"#utility.yul\":23133:23135   */\n      0x13\n        /* \"#utility.yul\":23128:23131   */\n      dup4\n        /* \"#utility.yul\":23069:23136   */\n      tag_414\n      jump\t// in\n    tag_699:\n        /* \"#utility.yul\":23062:23136   */\n      swap2\n      pop\n        /* \"#utility.yul\":23145:23238   */\n      tag_700\n        /* \"#utility.yul\":23234:23237   */\n      dup3\n        /* \"#utility.yul\":23145:23238   */\n      tag_479\n      jump\t// in\n    tag_700:\n        /* \"#utility.yul\":23263:23265   */\n      0x20\n        /* \"#utility.yul\":23258:23261   */\n      dup3\n        /* \"#utility.yul\":23254:23266   */\n      add\n        /* \"#utility.yul\":23247:23266   */\n      swap1\n      pop\n        /* \"#utility.yul\":22906:23272   */\n      swap2\n      swap1\n      pop\n      jump\t// out\n        /* \"#utility.yul\":23278:23697   */\n    tag_234:\n        /* \"#utility.yul\":23444:23448   */\n      0x00\n        /* \"#utility.yul\":23482:23484   */\n      0x20\n        /* \"#utility.yul\":23471:23480   */\n      dup3\n        /* \"#utility.yul\":23467:23485   */\n      add\n        /* \"#utility.yul\":23459:23485   */\n      swap1\n      pop\n        /* \"#utility.yul\":23531:23540   */\n      dup2\n        /* \"#utility.yul\":23525:23529   */\n      dup2\n        /* \"#utility.yul\":23521:23541   */\n      sub\n        /* \"#utility.yul\":23517:23518   */\n      0x00\n        /* \"#utility.yul\":23506:23515   */\n      dup4\n        /* \"#utility.yul\":23502:23519   */\n      add\n        /* \"#utility.yul\":23495:23542   */\n      mstore\n        /* \"#utility.yul\":23559:23690   */\n      tag_702\n        /* \"#utility.yul\":23685:23689   */\n      dup2\n        /* \"#utility.yul\":23559:23690   */\n      tag_480\n      jump\t// in\n    tag_702:\n        /* \"#utility.yul\":23551:23690   */\n      swap1\n      pop\n        /* \"#utility.yul\":23278:23697   */\n      swap2\n      swap1\n      pop\n      jump\t// out\n        /* \"#utility.yul\":23703:23936   */\n    tag_242:\n        /* \"#utility.yul\":23742:23745   */\n      0x00\n        /* \"#utility.yul\":23765:23789   */\n      tag_704\n        /* \"#utility.yul\":23783:23788   */\n      dup3\n        /* \"#utility.yul\":23765:23789   */\n      tag_430\n      jump\t// in\n    tag_704:\n        /* \"#utility.yul\":23756:23789   */\n      swap2\n      pop\n        /* \"#utility.yul\":23811:23877   */\n      0xffffffffffffffffffffffffffffffffffffffffffffffffffffffffffffffff\n        /* \"#utility.yul\":23804:23809   */\n      dup3\n        /* \"#utility.yul\":23801:23878   */\n      sub\n        /* \"#utility.yul\":23798:23901   */\n      tag_705\n      jumpi\n        /* \"#utility.yul\":23881:23899   */\n      tag_706\n      tag_465\n      jump\t// in\n    tag_706:\n        /* \"#utility.yul\":23798:23901   */\n    tag_705:\n        /* \"#utility.yul\":23928:23929   */\n      0x01\n        /* \"#utility.yul\":23921:23926   */\n      dup3\n        /* \"#utility.yul\":23917:23930   */\n      add\n        /* \"#utility.yul\":23910:23930   */\n      swap1\n      pop\n        /* \"#utility.yul\":23703:23936   */\n      swap2\n      swap1\n      pop\n      jump\t// out\n        /* \"#utility.yul\":23942:24117   */\n    tag_481:\n        /* \"#utility.yul\":24082:24109   */\n      0x4e6f206361726473206c65667420696e20746865206465636b00000000000000\n        /* \"#utility.yul\":24078:24079   */\n      0x00\n        /* \"#utility.yul\":24070:24076   */\n      dup3\n        /* \"#utility.yul\":24066:24080   */\n      add\n        /* \"#utility.yul\":24059:24110   */\n      mstore\n        /* \"#utility.yul\":23942:24117   */\n      pop\n      jump\t// out\n        /* \"#utility.yul\":24123:24489   */\n    tag_482:\n        /* \"#utility.yul\":24265:24268   */\n      0x00\n        /* \"#utility.yul\":24286:24353   */\n      tag_709\n        /* \"#utility.yul\":24350:24352   */\n      0x19\n        /* \"#utility.yul\":24345:24348   */\n      dup4\n        /* \"#utility.yul\":24286:24353   */\n      tag_414\n      jump\t// in\n    tag_709:\n        /* \"#utility.yul\":24279:24353   */\n      swap2\n      pop\n        /* \"#utility.yul\":24362:24455   */\n      tag_710\n        /* \"#utility.yul\":24451:24454   */\n      dup3\n        /* \"#utility.yul\":24362:24455   */\n      tag_481\n      jump\t// in\n    tag_710:\n        /* \"#utility.yul\":24480:24482   */\n      0x20\n        /* \"#utility.yul\":24475:24478   */\n      dup3\n        /* \"#utility.yul\":24471:24483   */\n      add\n        /* \"#utility.yul\":24464:24483   */\n      swap1\n      pop\n        /* \"#utility.yul\":24123:24489   */\n      swap2\n      swap1\n      pop\n      jump\t// out\n        /* \"#utility.yul\":24495:24914   */\n    tag_254:\n        /* \"#utility.yul\":24661:24665   */\n      0x00\n        /* \"#utility.yul\":24699:24701   */\n      0x20\n        /* \"#utility.yul\":24688:24697   */\n      dup3\n        /* \"#utility.yul\":24684:24702   */\n      add\n        /* \"#utility.yul\":24676:24702   */\n      swap1\n      pop\n        /* \"#utility.yul\":24748:24757   */\n      dup2\n        /* \"#utility.yul\":24742:24746   */\n      dup2\n        /* \"#utility.yul\":24738:24758   */\n      sub\n        /* \"#utility.yul\":24734:24735   */\n      0x00\n        /* \"#utility.yul\":24723:24732   */\n      dup4\n        /* \"#utility.yul\":24719:24736   */\n      add\n        /* \"#utility.yul\":24712:24759   */\n      mstore\n        /* \"#utility.yul\":24776:24907   */\n      tag_712\n        /* \"#utility.yul\":24902:24906   */\n      dup2\n        /* \"#utility.yul\":24776:24907   */\n      tag_482\n      jump\t// in\n    tag_712:\n        /* \"#utility.yul\":24768:24907   */\n      swap1\n      pop\n        /* \"#utility.yul\":24495:24914   */\n      swap2\n      swap1\n      pop\n      jump\t// out\n        /* \"#utility.yul\":24920:25114   */\n    tag_256:\n        /* \"#utility.yul\":24960:24964   */\n      0x00\n        /* \"#utility.yul\":24980:25000   */\n      tag_714\n        /* \"#utility.yul\":24998:24999   */\n      dup3\n        /* \"#utility.yul\":24980:25000   */\n      tag_430\n      jump\t// in\n    tag_714:\n        /* \"#utility.yul\":24975:25000   */\n      swap2\n      pop\n        /* \"#utility.yul\":25014:25034   */\n      tag_715\n        /* \"#utility.yul\":25032:25033   */\n      dup4\n        /* \"#utility.yul\":25014:25034   */\n      tag_430\n      jump\t// in\n    tag_715:\n        /* \"#utility.yul\":25009:25034   */\n      swap3\n      pop\n        /* \"#utility.yul\":25058:25059   */\n      dup3\n        /* \"#utility.yul\":25055:25056   */\n      dup3\n        /* \"#utility.yul\":25051:25060   */\n      sub\n        /* \"#utility.yul\":25043:25060   */\n      swap1\n      pop\n        /* \"#utility.yul\":25082:25083   */\n      dup2\n        /* \"#utility.yul\":25076:25080   */\n      dup2\n        /* \"#utility.yul\":25073:25084   */\n      gt\n        /* \"#utility.yul\":25070:25107   */\n      iszero\n      tag_716\n      jumpi\n        /* \"#utility.yul\":25087:25105   */\n      tag_717\n      tag_465\n      jump\t// in\n    tag_717:\n        /* \"#utility.yul\":25070:25107   */\n    tag_716:\n        /* \"#utility.yul\":24920:25114   */\n      swap3\n      swap2\n      pop\n      pop\n      jump\t// out\n        /* \"#utility.yul\":25120:25300   */\n    tag_262:\n        /* \"#utility.yul\":25168:25245   */\n      0x4e487b7100000000000000000000000000000000000000000000000000000000\n        /* \"#utility.yul\":25165:25166   */\n      0x00\n        /* \"#utility.yul\":25158:25246   */\n      mstore\n        /* \"#utility.yul\":25265:25269   */\n      0x31\n        /* \"#utility.yul\":25262:25263   */\n      0x04\n        /* \"#utility.yul\":25255:25270   */\n      mstore\n        /* \"#utility.yul\":25289:25293   */\n      0x24\n        /* \"#utility.yul\":25286:25287   */\n      0x00\n        /* \"#utility.yul\":25279:25294   */\n      revert\n        /* \"#utility.yul\":25306:25486   */\n    tag_483:\n        /* \"#utility.yul\":25354:25431   */\n      0x4e487b7100000000000000000000000000000000000000000000000000000000\n        /* \"#utility.yul\":25351:25352   */\n      0x00\n        /* \"#utility.yul\":25344:25432   */\n      mstore\n        /* \"#utility.yul\":25451:25455   */\n      0x12\n        /* \"#utility.yul\":25448:25449   */\n      0x04\n        /* \"#utility.yul\":25441:25456   */\n      mstore\n        /* \"#utility.yul\":25475:25479   */\n      0x24\n        /* \"#utility.yul\":25472:25473   */\n      0x00\n        /* \"#utility.yul\":25465:25480   */\n      revert\n        /* \"#utility.yul\":25492:25662   */\n    tag_271:\n        /* \"#utility.yul\":25522:25523   */\n      0x00\n        /* \"#utility.yul\":25539:25557   */\n      tag_721\n        /* \"#utility.yul\":25555:25556   */\n      dup3\n        /* \"#utility.yul\":25539:25557   */\n      tag_448\n      jump\t// in\n    tag_721:\n        /* \"#utility.yul\":25534:25557   */\n      swap2\n      pop\n        /* \"#utility.yul\":25571:25589   */\n      tag_722\n        /* \"#utility.yul\":25587:25588   */\n      dup4\n        /* \"#utility.yul\":25571:25589   */\n      tag_448\n      jump\t// in\n    tag_722:\n        /* \"#utility.yul\":25566:25589   */\n      swap3\n      pop\n        /* \"#utility.yul\":25608:25609   */\n      dup3\n        /* \"#utility.yul\":25598:25633   */\n      tag_723\n      jumpi\n        /* \"#utility.yul\":25613:25631   */\n      tag_724\n      tag_483\n      jump\t// in\n    tag_724:\n        /* \"#utility.yul\":25598:25633   */\n    tag_723:\n        /* \"#utility.yul\":25654:25655   */\n      dup3\n        /* \"#utility.yul\":25651:25652   */\n      dup3\n        /* \"#utility.yul\":25647:25656   */\n      mod\n        /* \"#utility.yul\":25642:25656   */\n      swap1\n      pop\n        /* \"#utility.yul\":25492:25662   */\n      swap3\n      swap2\n      pop\n      pop\n      jump\t// out\n        /* \"#utility.yul\":25668:25835   */\n    tag_276:\n        /* \"#utility.yul\":25705:25708   */\n      0x00\n        /* \"#utility.yul\":25728:25750   */\n      tag_726\n        /* \"#utility.yul\":25744:25749   */\n      dup3\n        /* \"#utility.yul\":25728:25750   */\n      tag_448\n      jump\t// in\n    tag_726:\n        /* \"#utility.yul\":25719:25750   */\n      swap2\n      pop\n        /* \"#utility.yul\":25772:25776   */\n      0xff\n        /* \"#utility.yul\":25765:25770   */\n      dup3\n        /* \"#utility.yul\":25762:25777   */\n      sub\n        /* \"#utility.yul\":25759:25800   */\n      tag_727\n      jumpi\n        /* \"#utility.yul\":25780:25798   */\n      tag_728\n      tag_465\n      jump\t// in\n    tag_728:\n        /* \"#utility.yul\":25759:25800   */\n    tag_727:\n        /* \"#utility.yul\":25827:25828   */\n      0x01\n        /* \"#utility.yul\":25820:25825   */\n      dup3\n        /* \"#utility.yul\":25816:25829   */\n      add\n        /* \"#utility.yul\":25809:25829   */\n      swap1\n      pop\n        /* \"#utility.yul\":25668:25835   */\n      swap2\n      swap1\n      pop\n      jump\t// out\n        /* \"#utility.yul\":25841:26029   */\n    tag_278:\n        /* \"#utility.yul\":25879:25882   */\n      0x00\n        /* \"#utility.yul\":25898:25916   */\n      tag_730\n        /* \"#utility.yul\":25914:25915   */\n      dup3\n        /* \"#utility.yul\":25898:25916   */\n      tag_448\n      jump\t// in\n    tag_730:\n        /* \"#utility.yul\":25893:25916   */\n      swap2\n      pop\n        /* \"#utility.yul\":25930:25948   */\n      tag_731\n        /* \"#utility.yul\":25946:25947   */\n      dup4\n        /* \"#utility.yul\":25930:25948   */\n      tag_448\n      jump\t// in\n    tag_731:\n        /* \"#utility.yul\":25925:25948   */\n      swap3\n      pop\n        /* \"#utility.yul\":25971:25972   */\n      dup3\n        /* \"#utility.yul\":25968:25969   */\n      dup3\n        /* \"#utility.yul\":25964:25973   */\n      add\n        /* \"#utility.yul\":25957:25973   */\n      swap1\n      pop\n        /* \"#utility.yul\":25994:25998   */\n      0xff\n        /* \"#utility.yul\":25989:25992   */\n      dup2\n        /* \"#utility.yul\":25986:25999   */\n      gt\n        /* \"#utility.yul\":25983:26022   */\n      iszero\n      tag_732\n      jumpi\n        /* \"#utility.yul\":26002:26020   */\n      tag_733\n      tag_465\n      jump\t// in\n    tag_733:\n        /* \"#utility.yul\":25983:26022   */\n    tag_732:\n        /* \"#utility.yul\":25841:26029   */\n      swap3\n      swap2\n      pop\n      pop\n      jump\t// out\n        /* \"#utility.yul\":26035:26202   */\n    tag_284:\n        /* \"#utility.yul\":26072:26075   */\n      0x00\n        /* \"#utility.yul\":26095:26117   */\n      tag_735\n        /* \"#utility.yul\":26111:26116   */\n      dup3\n        /* \"#utility.yul\":26095:26117   */\n      tag_448\n      jump\t// in\n    tag_735:\n        /* \"#utility.yul\":26086:26117   */\n      swap2\n      pop\n        /* \"#utility.yul\":26139:26143   */\n      0x00\n        /* \"#utility.yul\":26132:26137   */\n      dup3\n        /* \"#utility.yul\":26129:26144   */\n      sub\n        /* \"#utility.yul\":26126:26167   */\n      tag_736\n      jumpi\n        /* \"#utility.yul\":26147:26165   */\n      tag_737\n      tag_465\n      jump\t// in\n    tag_737:\n        /* \"#utility.yul\":26126:26167   */\n    tag_736:\n        /* \"#utility.yul\":26194:26195   */\n      0x01\n        /* \"#utility.yul\":26187:26192   */\n      dup3\n        /* \"#utility.yul\":26183:26196   */\n      sub\n        /* \"#utility.yul\":26176:26196   */\n      swap1\n      pop\n        /* \"#utility.yul\":26035:26202   */\n      swap2\n      swap1\n      pop\n      jump\t// out\n        /* \"#utility.yul\":26208:26643   */\n    tag_303:\n        /* \"#utility.yul\":26388:26391   */\n      0x00\n        /* \"#utility.yul\":26410:26505   */\n      tag_739\n        /* \"#utility.yul\":26501:26504   */\n      dup3\n        /* \"#utility.yul\":26492:26498   */\n      dup6\n        /* \"#utility.yul\":26410:26505   */\n      tag_472\n      jump\t// in\n    tag_739:\n        /* \"#utility.yul\":26403:26505   */\n      swap2\n      pop\n        /* \"#utility.yul\":26522:26617   */\n      tag_740\n        /* \"#utility.yul\":26613:26616   */\n      dup3\n        /* \"#utility.yul\":26604:26610   */\n      dup5\n        /* \"#utility.yul\":26522:26617   */\n      tag_472\n      jump\t// in\n    tag_740:\n        /* \"#utility.yul\":26515:26617   */\n      swap2\n      pop\n        /* \"#utility.yul\":26634:26637   */\n      dup2\n        /* \"#utility.yul\":26627:26637   */\n      swap1\n      pop\n        /* \"#utility.yul\":26208:26643   */\n      swap4\n      swap3\n      pop\n      pop\n      pop\n      jump\t// out\n        /* \"#utility.yul\":26649:26801   */\n    tag_484:\n        /* \"#utility.yul\":26789:26793   */\n      0x2c20000000000000000000000000000000000000000000000000000000000000\n        /* \"#utility.yul\":26785:26786   */\n      0x00\n        /* \"#utility.yul\":26777:26783   */\n      dup3\n        /* \"#utility.yul\":26773:26787   */\n      add\n        /* \"#utility.yul\":26766:26794   */\n      mstore\n        /* \"#utility.yul\":26649:26801   */\n      pop\n      jump\t// out\n        /* \"#utility.yul\":26807:27207   */\n    tag_485:\n        /* \"#utility.yul\":26967:26970   */\n      0x00\n        /* \"#utility.yul\":26988:27072   */\n      tag_743\n        /* \"#utility.yul\":27070:27071   */\n      0x02\n        /* \"#utility.yul\":27065:27068   */\n      dup4\n        /* \"#utility.yul\":26988:27072   */\n      tag_469\n      jump\t// in\n    tag_743:\n        /* \"#utility.yul\":26981:27072   */\n      swap2\n      pop\n        /* \"#utility.yul\":27081:27174   */\n      tag_744\n        /* \"#utility.yul\":27170:27173   */\n      dup3\n        /* \"#utility.yul\":27081:27174   */\n      tag_484\n      jump\t// in\n    tag_744:\n        /* \"#utility.yul\":27199:27200   */\n      0x02\n        /* \"#utility.yul\":27194:27197   */\n      dup3\n        /* \"#utility.yul\":27190:27201   */\n      add\n        /* \"#utility.yul\":27183:27201   */\n      swap1\n      pop\n        /* \"#utility.yul\":26807:27207   */\n      swap2\n      swap1\n      pop\n      jump\t// out\n        /* \"#utility.yul\":27213:27754   */\n    tag_307:\n        /* \"#utility.yul\":27446:27449   */\n      0x00\n        /* \"#utility.yul\":27468:27563   */\n      tag_746\n        /* \"#utility.yul\":27559:27562   */\n      dup3\n        /* \"#utility.yul\":27550:27556   */\n      dup5\n        /* \"#utility.yul\":27468:27563   */\n      tag_472\n      jump\t// in\n    tag_746:\n        /* \"#utility.yul\":27461:27563   */\n      swap2\n      pop\n        /* \"#utility.yul\":27580:27728   */\n      tag_747\n        /* \"#utility.yul\":27724:27727   */\n      dup3\n        /* \"#utility.yul\":27580:27728   */\n      tag_485\n      jump\t// in\n    tag_747:\n        /* \"#utility.yul\":27573:27728   */\n      swap2\n      pop\n        /* \"#utility.yul\":27745:27748   */\n      dup2\n        /* \"#utility.yul\":27738:27748   */\n      swap1\n      pop\n        /* \"#utility.yul\":27213:27754   */\n      swap3\n      swap2\n      pop\n      pop\n      jump\t// out\n        /* \"#utility.yul\":27760:28301   */\n    tag_330:\n        /* \"#utility.yul\":27993:27996   */\n      0x00\n        /* \"#utility.yul\":28015:28163   */\n      tag_749\n        /* \"#utility.yul\":28159:28162   */\n      dup3\n        /* \"#utility.yul\":28015:28163   */\n      tag_471\n      jump\t// in\n    tag_749:\n        /* \"#utility.yul\":28008:28163   */\n      swap2\n      pop\n        /* \"#utility.yul\":28180:28275   */\n      tag_750\n        /* \"#utility.yul\":28271:28274   */\n      dup3\n        /* \"#utility.yul\":28262:28268   */\n      dup5\n        /* \"#utility.yul\":28180:28275   */\n      tag_472\n      jump\t// in\n    tag_750:\n        /* \"#utility.yul\":28173:28275   */\n      swap2\n      pop\n        /* \"#utility.yul\":28292:28295   */\n      dup2\n        /* \"#utility.yul\":28285:28295   */\n      swap1\n      pop\n        /* \"#utility.yul\":27760:28301   */\n      swap3\n      swap2\n      pop\n      pop\n      jump\t// out\n        /* \"#utility.yul\":28307:29008   */\n    tag_334:\n        /* \"#utility.yul\":28588:28591   */\n      0x00\n        /* \"#utility.yul\":28610:28705   */\n      tag_752\n        /* \"#utility.yul\":28701:28704   */\n      dup3\n        /* \"#utility.yul\":28692:28698   */\n      dup6\n        /* \"#utility.yul\":28610:28705   */\n      tag_472\n      jump\t// in\n    tag_752:\n        /* \"#utility.yul\":28603:28705   */\n      swap2\n      pop\n        /* \"#utility.yul\":28722:28870   */\n      tag_753\n        /* \"#utility.yul\":28866:28869   */\n      dup3\n        /* \"#utility.yul\":28722:28870   */\n      tag_485\n      jump\t// in\n    tag_753:\n        /* \"#utility.yul\":28715:28870   */\n      swap2\n      pop\n        /* \"#utility.yul\":28887:28982   */\n      tag_754\n        /* \"#utility.yul\":28978:28981   */\n      dup3\n        /* \"#utility.yul\":28969:28975   */\n      dup5\n        /* \"#utility.yul\":28887:28982   */\n      tag_472\n      jump\t// in\n    tag_754:\n        /* \"#utility.yul\":28880:28982   */\n      swap2\n      pop\n        /* \"#utility.yul\":28999:29002   */\n      dup2\n        /* \"#utility.yul\":28992:29002   */\n      swap1\n      pop\n        /* \"#utility.yul\":28307:29008   */\n      swap4\n      swap3\n      pop\n      pop\n      pop\n      jump\t// out\n        /* \"#utility.yul\":29014:29199   */\n    tag_348:\n        /* \"#utility.yul\":29054:29055   */\n      0x00\n        /* \"#utility.yul\":29071:29091   */\n      tag_756\n        /* \"#utility.yul\":29089:29090   */\n      dup3\n        /* \"#utility.yul\":29071:29091   */\n      tag_430\n      jump\t// in\n    tag_756:\n        /* \"#utility.yul\":29066:29091   */\n      swap2\n      pop\n        /* \"#utility.yul\":29105:29125   */\n      tag_757\n        /* \"#utility.yul\":29123:29124   */\n      dup4\n        /* \"#utility.yul\":29105:29125   */\n      tag_430\n      jump\t// in\n    tag_757:\n        /* \"#utility.yul\":29100:29125   */\n      swap3\n      pop\n        /* \"#utility.yul\":29144:29145   */\n      dup3\n        /* \"#utility.yul\":29134:29169   */\n      tag_758\n      jumpi\n        /* \"#utility.yul\":29149:29167   */\n      tag_759\n      tag_483\n      jump\t// in\n    tag_759:\n        /* \"#utility.yul\":29134:29169   */\n    tag_758:\n        /* \"#utility.yul\":29191:29192   */\n      dup3\n        /* \"#utility.yul\":29188:29189   */\n      dup3\n        /* \"#utility.yul\":29184:29193   */\n      div\n        /* \"#utility.yul\":29179:29193   */\n      swap1\n      pop\n        /* \"#utility.yul\":29014:29199   */\n      swap3\n      swap2\n      pop\n      pop\n      jump\t// out\n        /* \"#utility.yul\":29205:29381   */\n    tag_355:\n        /* \"#utility.yul\":29237:29238   */\n      0x00\n        /* \"#utility.yul\":29254:29274   */\n      tag_761\n        /* \"#utility.yul\":29272:29273   */\n      dup3\n        /* \"#utility.yul\":29254:29274   */\n      tag_430\n      jump\t// in\n    tag_761:\n        /* \"#utility.yul\":29249:29274   */\n      swap2\n      pop\n        /* \"#utility.yul\":29288:29308   */\n      tag_762\n        /* \"#utility.yul\":29306:29307   */\n      dup4\n        /* \"#utility.yul\":29288:29308   */\n      tag_430\n      jump\t// in\n    tag_762:\n        /* \"#utility.yul\":29283:29308   */\n      swap3\n      pop\n        /* \"#utility.yul\":29327:29328   */\n      dup3\n        /* \"#utility.yul\":29317:29352   */\n      tag_763\n      jumpi\n        /* \"#utility.yul\":29332:29350   */\n      tag_764\n      tag_483\n      jump\t// in\n    tag_764:\n        /* \"#utility.yul\":29317:29352   */\n    tag_763:\n        /* \"#utility.yul\":29373:29374   */\n      dup3\n        /* \"#utility.yul\":29370:29371   */\n      dup3\n        /* \"#utility.yul\":29366:29375   */\n      mod\n        /* \"#utility.yul\":29361:29375   */\n      swap1\n      pop\n        /* \"#utility.yul\":29205:29381   */\n      swap3\n      swap2\n      pop\n      pop\n      jump\t// out\n        /* \"#utility.yul\":29387:29558   */\n    tag_358:\n        /* \"#utility.yul\":29426:29429   */\n      0x00\n        /* \"#utility.yul\":29449:29473   */\n      tag_766\n        /* \"#utility.yul\":29467:29472   */\n      dup3\n        /* \"#utility.yul\":29449:29473   */\n      tag_430\n      jump\t// in\n    tag_766:\n        /* \"#utility.yul\":29440:29473   */\n      swap2\n      pop\n        /* \"#utility.yul\":29495:29499   */\n      0x00\n        /* \"#utility.yul\":29488:29493   */\n      dup3\n        /* \"#utility.yul\":29485:29500   */\n      sub\n        /* \"#utility.yul\":29482:29523   */\n      tag_767\n      jumpi\n        /* \"#utility.yul\":29503:29521   */\n      tag_768\n      tag_465\n      jump\t// in\n    tag_768:\n        /* \"#utility.yul\":29482:29523   */\n    tag_767:\n        /* \"#utility.yul\":29550:29551   */\n      0x01\n        /* \"#utility.yul\":29543:29548   */\n      dup3\n        /* \"#utility.yul\":29539:29552   */\n      sub\n        /* \"#utility.yul\":29532:29552   */\n      swap1\n      pop\n        /* \"#utility.yul\":29387:29558   */\n      swap2\n      swap1\n      pop\n      jump\t// out\n        /* \"#utility.yul\":29564:29643   */\n    tag_486:\n        /* \"#utility.yul\":29603:29610   */\n      0x00\n        /* \"#utility.yul\":29632:29637   */\n      dup2\n        /* \"#utility.yul\":29621:29637   */\n      swap1\n      pop\n        /* \"#utility.yul\":29564:29643   */\n      swap2\n      swap1\n      pop\n      jump\t// out\n        /* \"#utility.yul\":29649:29806   */\n    tag_487:\n        /* \"#utility.yul\":29754:29799   */\n      tag_771\n        /* \"#utility.yul\":29774:29798   */\n      tag_772\n        /* \"#utility.yul\":29792:29797   */\n      dup3\n        /* \"#utility.yul\":29774:29798   */\n      tag_430\n      jump\t// in\n    tag_772:\n        /* \"#utility.yul\":29754:29799   */\n      tag_486\n      jump\t// in\n    tag_771:\n        /* \"#utility.yul\":29749:29752   */\n      dup3\n        /* \"#utility.yul\":29742:29800   */\n      mstore\n        /* \"#utility.yul\":29649:29806   */\n      pop\n      pop\n      jump\t// out\n        /* \"#utility.yul\":29812:29889   */\n    tag_488:\n        /* \"#utility.yul\":29849:29856   */\n      0x00\n        /* \"#utility.yul\":29878:29883   */\n      dup2\n        /* \"#utility.yul\":29867:29883   */\n      swap1\n      pop\n        /* \"#utility.yul\":29812:29889   */\n      swap2\n      swap1\n      pop\n      jump\t// out\n        /* \"#utility.yul\":29895:29974   */\n    tag_489:\n        /* \"#utility.yul\":29934:29941   */\n      0x00\n        /* \"#utility.yul\":29963:29968   */\n      dup2\n        /* \"#utility.yul\":29952:29968   */\n      swap1\n      pop\n        /* \"#utility.yul\":29895:29974   */\n      swap2\n      swap1\n      pop\n      jump\t// out\n        /* \"#utility.yul\":29980:30137   */\n    tag_490:\n        /* \"#utility.yul\":30085:30130   */\n      tag_776\n        /* \"#utility.yul\":30105:30129   */\n      tag_777\n        /* \"#utility.yul\":30123:30128   */\n      dup3\n        /* \"#utility.yul\":30105:30129   */\n      tag_488\n      jump\t// in\n    tag_777:\n        /* \"#utility.yul\":30085:30130   */\n      tag_489\n      jump\t// in\n    tag_776:\n        /* \"#utility.yul\":30080:30083   */\n      dup3\n        /* \"#utility.yul\":30073:30131   */\n      mstore\n        /* \"#utility.yul\":29980:30137   */\n      pop\n      pop\n      jump\t// out\n        /* \"#utility.yul\":30143:30681   */\n    tag_365:\n        /* \"#utility.yul\":30311:30314   */\n      0x00\n        /* \"#utility.yul\":30326:30401   */\n      tag_779\n        /* \"#utility.yul\":30397:30400   */\n      dup3\n        /* \"#utility.yul\":30388:30394   */\n      dup7\n        /* \"#utility.yul\":30326:30401   */\n      tag_487\n      jump\t// in\n    tag_779:\n        /* \"#utility.yul\":30426:30428   */\n      0x20\n        /* \"#utility.yul\":30421:30424   */\n      dup3\n        /* \"#utility.yul\":30417:30429   */\n      add\n        /* \"#utility.yul\":30410:30429   */\n      swap2\n      pop\n        /* \"#utility.yul\":30439:30514   */\n      tag_780\n        /* \"#utility.yul\":30510:30513   */\n      dup3\n        /* \"#utility.yul\":30501:30507   */\n      dup6\n        /* \"#utility.yul\":30439:30514   */\n      tag_487\n      jump\t// in\n    tag_780:\n        /* \"#utility.yul\":30539:30541   */\n      0x20\n        /* \"#utility.yul\":30534:30537   */\n      dup3\n        /* \"#utility.yul\":30530:30542   */\n      add\n        /* \"#utility.yul\":30523:30542   */\n      swap2\n      pop\n        /* \"#utility.yul\":30552:30627   */\n      tag_781\n        /* \"#utility.yul\":30623:30626   */\n      dup3\n        /* \"#utility.yul\":30614:30620   */\n      dup5\n        /* \"#utility.yul\":30552:30627   */\n      tag_490\n      jump\t// in\n    tag_781:\n        /* \"#utility.yul\":30652:30654   */\n      0x20\n        /* \"#utility.yul\":30647:30650   */\n      dup3\n        /* \"#utility.yul\":30643:30655   */\n      add\n        /* \"#utility.yul\":30636:30655   */\n      swap2\n      pop\n        /* \"#utility.yul\":30672:30675   */\n      dup2\n        /* \"#utility.yul\":30665:30675   */\n      swap1\n      pop\n        /* \"#utility.yul\":30143:30681   */\n      swap5\n      swap4\n      pop\n      pop\n      pop\n      pop\n      jump\t// out\n        /* \"#utility.yul\":30687:30943   */\n    tag_383:\n        /* \"#utility.yul\":30799:30802   */\n      0x00\n        /* \"#utility.yul\":30814:30889   */\n      tag_783\n        /* \"#utility.yul\":30885:30888   */\n      dup3\n        /* \"#utility.yul\":30876:30882   */\n      dup5\n        /* \"#utility.yul\":30814:30889   */\n      tag_487\n      jump\t// in\n    tag_783:\n        /* \"#utility.yul\":30914:30916   */\n      0x20\n        /* \"#utility.yul\":30909:30912   */\n      dup3\n        /* \"#utility.yul\":30905:30917   */\n      add\n        /* \"#utility.yul\":30898:30917   */\n      swap2\n      pop\n        /* \"#utility.yul\":30934:30937   */\n      dup2\n        /* \"#utility.yul\":30927:30937   */\n      swap1\n      pop\n        /* \"#utility.yul\":30687:30943   */\n      swap3\n      swap2\n      pop\n      pop\n      jump\t// out\n\n    auxdata: 0xa264697066735822122085813ae19e9c4fe216736e0725605709458363605e4b6ae9a4335aaeff9fdc4164736f6c634300081a0033\n}\n",
				"bytecode": {
					"linkReferences": {},
					"object": "608060405261001261005760201b60201c565b3360045f6101000a81548173ffffffffffffffffffffffffffffffffffffffff021916908373ffffffffffffffffffffffffffffffffffffffff16021790555061016d565b5f8061006391906100cc565b5f600190505b60348160ff16116100c9575f81908060018154018082558091505060019003905f5260205f2090602091828204019190069091909190916101000a81548160ff021916908360ff16021790555080806100c190610145565b915050610069565b50565b5080545f8255601f0160209004905f5260205f20908101906100ee91906100f1565b50565b5b80821115610108575f815f9055506001016100f2565b5090565b7f4e487b71000000000000000000000000000000000000000000000000000000005f52601160045260245ffd5b5f60ff82169050919050565b5f61014f82610139565b915060ff82036101625761016161010c565b5b600182019050919050565b612f1c8061017a5f395ff3fe60806040526004361061007a575f3560e01c80639951a4171161004d5780639951a41714610111578063d0e514fa1461013b578063d65ab5f214610165578063efaa55a01461017b5761007a565b806314106ad61461007e5780632ae3594a146100a857806333b16d93146100be57806396b76c23146100e9575b5f80fd5b348015610089575f80fd5b50610092610197565b60405161009f9190612033565b60405180910390f35b3480156100b3575f80fd5b506100bc610223565b005b3480156100c9575f80fd5b506100d2610501565b6040516100e092919061213a565b60405180910390f35b3480156100f4575f80fd5b5061010f600480360381019061010a91906121a6565b610c19565b005b34801561011c575f80fd5b50610125610d05565b6040516101329190612033565b60405180910390f35b348015610146575f80fd5b5061014f610d91565b60405161015c91906122d4565b60405180910390f35b348015610170575f80fd5b50610179610fe1565b005b610195600480360381019061019091906121a6565b6111b6565b005b600780546101a490612321565b80601f01602080910402602001604051908101604052809291908181526020018280546101d090612321565b801561021b5780601f106101f25761010080835404028352916020019161021b565b820191905f5260205f20905b8154815290600101906020018083116101fe57829003601f168201915b505050505081565b5f61022d336113b5565b90507fffffffffffffffffffffffffffffffffffffffffffffffffffffffffffffffff8103610291576040517f08c379a00000000000000000000000000000000000000000000000000000000081526004016102889061239b565b60405180910390fd5b600181815481106102a5576102a46123b9565b5b905f5260205f2090600402016003015f9054906101000a900460ff16610300576040517f08c379a00000000000000000000000000000000000000000000000000000000081526004016102f790612430565b60405180910390fd5b60018181548110610314576103136123b9565b5b905f5260205f20906004020160030160019054906101000a900460ff1615610371576040517f08c379a000000000000000000000000000000000000000000000000000000000815260040161036890612498565b60405180910390fd5b5f61037a61147c565b9050600182815481106103905761038f6123b9565b5b905f5260205f20906004020160020181908060018154018082558091505060019003905f5260205f2090602091828204019190069091909190916101000a81548160ff021916908360ff160217905550601561047e600184815481106103f9576103f86123b9565b5b905f5260205f20906004020160020180548060200260200160405190810160405280929190818152602001828054801561047457602002820191905f5260205f20905f905b82829054906101000a900460ff1660ff16815260200190600101906020825f0104928301926001038202915080841161043e5790505b5050505050611547565b60ff1611156104fd57600180838154811061049c5761049b6123b9565b5b905f5260205f20906004020160030160016101000a81548160ff0219169083151502179055505f600183815481106104d7576104d66123b9565b5b905f5260205f2090600402016003015f6101000a81548160ff0219169083151502179055505b5050565b6060805f610580600380548060200260200160405190810160405280929190818152602001828054801561057657602002820191905f5260205f20905f905b82829054906101000a900460ff1660ff16815260200190600101906020825f010492830192600103820291508084116105405790505b5050505050611547565b905060065f61058f9190611dcd565b5b60118160ff1610156106a4575f6105a561147c565b9050600381908060018154018082558091505060019003905f5260205f2090602091828204019190069091909190916101000a81548160ff021916908360ff160217905550610665600380548060200260200160405190810160405280929190818152602001828054801561065b57602002820191905f5260205f20905f905b82829054906101000a900460ff1660ff16815260200190600101906020825f010492830192600103820291508084116106255790505b5050505050611547565b91507f74719e1845aac9a5b808b73f76f15e0ded61fd1f03fc0cd802e98e8e1d2299fe8160405161069691906124d1565b60405180910390a150610590565b600360059080546106b6929190611deb565b50610768600580548060200260200160405190810160405280929190818152602001828054801561072857602002820191905f5260205f20905f905b82829054906101000a900460ff1660ff16815260200190600101906020825f010492830192600103820291508084116106f25790505b50505050506040518060400160405280601081526020017f4c6173742042616e6b2048616e643a2000000000000000000000000000000000815250611621565b6007908161077691906126b4565b505f5b600180549050811015610a59575f6108236001838154811061079e5761079d6123b9565b5b905f5260205f20906004020160020180548060200260200160405190810160405280929190818152602001828054801561081957602002820191905f5260205f20905f905b82829054906101000a900460ff1660ff16815260200190600101906020825f010492830192600103820291508084116107e35790505b5050505050611547565b905060018281548110610839576108386123b9565b5b905f5260205f20906004020160030160019054906101000a900460ff1615801561087657508260ff168160ff161180610875575060158360ff16115b5b15610a4b576001828154811061088f5761088e6123b9565b5b905f5260205f2090600402015f015f9054906101000a900473ffffffffffffffffffffffffffffffffffffffff1673ffffffffffffffffffffffffffffffffffffffff166108fc6002600185815481106108ec576108eb6123b9565b5b905f5260205f2090600402016001015461090691906127b0565b90811502906040515f60405180830381858888f1935050505015801561092e573d5f803e3d5ffd5b50600660018381548110610945576109446123b9565b5b905f5260205f2090600402015f015f9054906101000a900473ffffffffffffffffffffffffffffffffffffffff16908060018154018082558091505060019003905f5260205f20015f9091909190916101000a81548173ffffffffffffffffffffffffffffffffffffffff021916908373ffffffffffffffffffffffffffffffffffffffff1602179055507fe9b0a743935d9854ac97b39452742c48f05e62b1ee44825328d7bc53901b03b160018381548110610a0557610a046123b9565b5b905f5260205f2090600402015f015f9054906101000a900473ffffffffffffffffffffffffffffffffffffffff1682604051610a42929190612800565b60405180910390a15b508080600101915050610779565b50610ae66006805480602002602001604051908101604052809291908181526020018280548015610adc57602002820191905f5260205f20905b815f9054906101000a900473ffffffffffffffffffffffffffffffffffffffff1673ffffffffffffffffffffffffffffffffffffffff1681526020019060010190808311610a93575b5050505050611815565b60089081610af491906126b4565b50610afd611a54565b60076006818054610b0d90612321565b80601f0160208091040260200160405190810160405280929190818152602001828054610b3990612321565b8015610b845780601f10610b5b57610100808354040283529160200191610b84565b820191905f5260205f20905b815481529060010190602001808311610b6757829003601f168201915b5050505050915080805480602002602001604051908101604052809291908181526020018280548015610c0957602002820191905f5260205f20905b815f9054906101000a900473ffffffffffffffffffffffffffffffffffffffff1673ffffffffffffffffffffffffffffffffffffffff1681526020019060010190808311610bc0575b5050505050905092509250509091565b60018181548110610c2d57610c2c6123b9565b5b905f5260205f2090600402015f015f9054906101000a900473ffffffffffffffffffffffffffffffffffffffff1673ffffffffffffffffffffffffffffffffffffffff163373ffffffffffffffffffffffffffffffffffffffff1614610cc8576040517f08c379a0000000000000000000000000000000000000000000000000000000008152600401610cbf90612871565b60405180910390fd5b5f60018281548110610cdd57610cdc6123b9565b5b905f5260205f2090600402016003015f6101000a81548160ff02191690831515021790555050565b60088054610d1290612321565b80601f0160208091040260200160405190810160405280929190818152602001828054610d3e90612321565b8015610d895780601f10610d6057610100808354040283529160200191610d89565b820191905f5260205f20905b815481529060010190602001808311610d6c57829003601f168201915b505050505081565b60605f60018080549050610da5919061288f565b67ffffffffffffffff811115610dbe57610dbd6124ea565b5b604051908082528060200260200182016040528015610df157816020015b6060815260200190600190039081610ddc5790505b509050610ea56003805480602002602001604051908101604052809291908181526020018280548015610e6557602002820191905f5260205f20905f905b82829054906101000a900460ff1660ff16815260200190600101906020825f01049283019260010382029150808411610e2f5790505b50505050506040518060400160405280600681526020017f42616e6b3a200000000000000000000000000000000000000000000000000000815250611621565b815f81518110610eb857610eb76123b9565b5b60200260200101819052505f5b600180549050811015610fd957610fa260018281548110610ee957610ee86123b9565b5b905f5260205f209060040201600201805480602002602001604051908101604052809291908181526020018280548015610f6457602002820191905f5260205f20905f905b82829054906101000a900460ff1660ff16815260200190600101906020825f01049283019260010382029150808411610f2e5790505b5050505050610f7e600184610f79919061288f565b611a7f565b604051602001610f8e9190612990565b604051602081830303815290604052611621565b82600183610fb0919061288f565b81518110610fc157610fc06123b9565b5b60200260200101819052508080600101915050610ec5565b508091505090565b5f60025411611025576040517f08c379a000000000000000000000000000000000000000000000000000000000815260040161101c90612a06565b60405180910390fd5b61102d611bdd565b5f5b60018054905081101561111f57600181815481106110505761104f6123b9565b5b905f5260205f20906004020160020161106761147c565b908060018154018082558091505060019003905f5260205f2090602091828204019190069091909190916101000a81548160ff021916908360ff160217905550600181815481106110bb576110ba6123b9565b5b905f5260205f2090600402016002016110d261147c565b908060018154018082558091505060019003905f5260205f2090602091828204019190069091909190916101000a81548160ff021916908360ff160217905550808060010191505061102f565b50600361112a61147c565b908060018154018082558091505060019003905f5260205f2090602091828204019190069091909190916101000a81548160ff021916908360ff160217905550600361117461147c565b908060018154018082558091505060019003905f5260205f2090602091828204019190069091909190916101000a81548160ff021916908360ff160217905550565b6004600254106111fb576040517f08c379a00000000000000000000000000000000000000000000000000000000081526004016111f290612a6e565b60405180910390fd5b80341461123d576040517f08c379a000000000000000000000000000000000000000000000000000000000815260040161123490612ad6565b60405180910390fd5b60016040518060a001604052803373ffffffffffffffffffffffffffffffffffffffff1681526020018381526020015f67ffffffffffffffff811115611286576112856124ea565b5b6040519080825280602002602001820160405280156112b45781602001602082028036833780820191505090505b5081526020016001151581526020015f1515815250908060018154018082558091505060019003905f5260205f2090600402015f909190919091505f820151815f015f6101000a81548173ffffffffffffffffffffffffffffffffffffffff021916908373ffffffffffffffffffffffffffffffffffffffff160217905550602082015181600101556040820151816002019080519060200190611359929190611e47565b506060820151816003015f6101000a81548160ff02191690831515021790555060808201518160030160016101000a81548160ff021916908315150217905550505060025f8154809291906113ad90612af4565b919050555050565b5f805f90505b600180549050811015611452578273ffffffffffffffffffffffffffffffffffffffff16600182815481106113f3576113f26123b9565b5b905f5260205f2090600402015f015f9054906101000a900473ffffffffffffffffffffffffffffffffffffffff1673ffffffffffffffffffffffffffffffffffffffff16036114455780915050611477565b80806001019150506113bb565b507fffffffffffffffffffffffffffffffffffffffffffffffffffffffffffffffff90505b919050565b5f805f80549050116114c3576040517f08c379a00000000000000000000000000000000000000000000000000000000081526004016114ba90612b85565b60405180910390fd5b5f8060015f805490506114d69190612ba3565b815481106114e7576114e66123b9565b5b905f5260205f2090602091828204019190069054906101000a900460ff1690505f80548061151857611517612bd6565b5b600190038181905f5260205f2090602091828204019190066101000a81549060ff021916905590558091505090565b5f805f90505f805b84518110156115d8575f600d86838151811061156e5761156d6123b9565b5b60200260200101516115809190612c30565b90505f8160ff160361159157600d90505b600a8160ff1611156115a257600a90505b60018160ff16036115bc5782806115b890612c60565b9350505b80846115c89190612c88565b935050808060010191505061154f565b505b600b8260ff16111580156115f057505f8160ff16115b1561161757600a826116029190612c88565b9150808061160f90612cbc565b9150506115da565b8192505050919050565b60605f8290505f5b845181101561180a575f600d868381518110611648576116476123b9565b5b602002602001015161165a9190612c30565b90505f8160ff160361166b57600d90505b606060018260ff16036116b5576040518060400160405280600181526020017f4100000000000000000000000000000000000000000000000000000000000000815250905061179f565b600b8260ff16036116fd576040518060400160405280600181526020017f4a00000000000000000000000000000000000000000000000000000000000000815250905061179e565b600c8260ff1603611745576040518060400160405280600181526020017f5100000000000000000000000000000000000000000000000000000000000000815250905061179d565b600d8260ff160361178d576040518060400160405280600181526020017f4b00000000000000000000000000000000000000000000000000000000000000815250905061179c565b6117998260ff16611a7f565b90505b5b5b5b83816040516020016117b2929190612ce3565b6040516020818303038152906040529350600187516117d19190612ba3565b8310156117fb57836040516020016117e99190612d50565b60405160208183030381529060405293505b50508080600101915050611629565b508091505092915050565b60605f805b83518110156118ad5760045f9054906101000a900473ffffffffffffffffffffffffffffffffffffffff1673ffffffffffffffffffffffffffffffffffffffff1684828151811061186e5761186d6123b9565b5b602002602001015173ffffffffffffffffffffffffffffffffffffffff16146118a057818061189c90612af4565b9250505b808060010191505061181a565b505f81036118f3576040518060400160405280600f81526020017f4e6f20706c617965727320776f6e2e0000000000000000000000000000000000815250915050611a4f565b5f60405180602001604052805f81525090505f5b8451811015611a485760045f9054906101000a900473ffffffffffffffffffffffffffffffffffffffff1673ffffffffffffffffffffffffffffffffffffffff1685828151811061195b5761195a6123b9565b5b602002602001015173ffffffffffffffffffffffffffffffffffffffff1614611a3b575f6119a2868381518110611995576119946123b9565b5b60200260200101516113b5565b90507fffffffffffffffffffffffffffffffffffffffffffffffffffffffffffffffff8114611a39575f6119e16001836119dc919061288f565b611a7f565b6040516020016119f19190612d71565b60405160208183030381529060405290505f845103611a1257809350611a37565b8381604051602001611a25929190612d92565b60405160208183030381529060405293505b505b505b8080600101915050611907565b5080925050505b919050565b60015f611a619190611ee9565b60035f611a6e9190611f0a565b5f600281905550611a7d611d58565b565b60605f8203611ac5576040518060400160405280600181526020017f30000000000000000000000000000000000000000000000000000000000000008152509050611bd8565b5f8290505f5b5f8214611af4578080611add90612af4565b915050600a82611aed9190612dc0565b9150611acb565b5f8167ffffffffffffffff811115611b0f57611b0e6124ea565b5b6040519080825280601f01601f191660200182016040528015611b415781602001600182028036833780820191505090505b5090505f8290508593505b5f8414611bd057600a84611b609190612df0565b6030611b6c919061288f565b60f81b8282611b7a90612e20565b92508281518110611b8e57611b8d6123b9565b5b60200101907effffffffffffffffffffffffffffffffffffffffffffffffffffffffffffff191690815f1a905350600a84611bc99190612dc0565b9350611b4c565b819450505050505b919050565b5f4244600143611bed9190612ba3565b40604051602001611c0093929190612e90565b604051602081830303815290604052805190602001205f1c90505f5b5f80549050811015611d54575f808054905083611c399190612df0565b90505f8181548110611c4e57611c4d6123b9565b5b905f5260205f2090602091828204019190069054906101000a900460ff165f8381548110611c7f57611c7e6123b9565b5b905f5260205f2090602091828204019190069054906101000a900460ff165f8481548110611cb057611caf6123b9565b5b905f5260205f2090602091828204019190065f8581548110611cd557611cd46123b9565b5b905f5260205f2090602091828204019190068491906101000a81548160ff021916908360ff1602179055508391906101000a81548160ff021916908360ff160217905550505082604051602001611d2c9190612ecc565b604051602081830303815290604052805190602001205f1c9250508080600101915050611c1c565b5050565b5f80611d649190611f0a565b5f600190505b60348160ff1611611dca575f81908060018154018082558091505060019003905f5260205f2090602091828204019190069091909190916101000a81548160ff021916908360ff1602179055508080611dc290612c60565b915050611d6a565b50565b5080545f8255905f5260205f2090810190611de89190611f2f565b50565b828054828255905f5260205f2090601f01602090048101928215611e36575f5260205f2091601f016020900482015b82811115611e35578254825591600101919060010190611e1a565b5b509050611e439190611f2f565b5090565b828054828255905f5260205f2090601f01602090048101928215611ed8579160200282015f5b83821115611eaa57835183826101000a81548160ff021916908360ff16021790555092602001926001016020815f01049283019260010302611e6d565b8015611ed65782816101000a81549060ff02191690556001016020815f01049283019260010302611eaa565b505b509050611ee59190611f2f565b5090565b5080545f8255600402905f5260205f2090810190611f079190611f4a565b50565b5080545f8255601f0160209004905f5260205f2090810190611f2c9190611f2f565b50565b5b80821115611f46575f815f905550600101611f30565b5090565b5b80821115611fbf575f8082015f6101000a81549073ffffffffffffffffffffffffffffffffffffffff0219169055600182015f9055600282015f611f8f9190611f0a565b600382015f6101000a81549060ff02191690556003820160016101000a81549060ff021916905550600401611f4b565b5090565b5f81519050919050565b5f82825260208201905092915050565b8281835e5f83830152505050565b5f601f19601f8301169050919050565b5f61200582611fc3565b61200f8185611fcd565b935061201f818560208601611fdd565b61202881611feb565b840191505092915050565b5f6020820190508181035f83015261204b8184611ffb565b905092915050565b5f81519050919050565b5f82825260208201905092915050565b5f819050602082019050919050565b5f73ffffffffffffffffffffffffffffffffffffffff82169050919050565b5f6120a58261207c565b9050919050565b6120b58161209b565b82525050565b5f6120c683836120ac565b60208301905092915050565b5f602082019050919050565b5f6120e882612053565b6120f2818561205d565b93506120fd8361206d565b805f5b8381101561212d57815161211488826120bb565b975061211f836120d2565b925050600181019050612100565b5085935050505092915050565b5f6040820190508181035f8301526121528185611ffb565b9050818103602083015261216681846120de565b90509392505050565b5f80fd5b5f819050919050565b61218581612173565b811461218f575f80fd5b50565b5f813590506121a08161217c565b92915050565b5f602082840312156121bb576121ba61216f565b5b5f6121c884828501612192565b91505092915050565b5f81519050919050565b5f82825260208201905092915050565b5f819050602082019050919050565b5f82825260208201905092915050565b5f61221482611fc3565b61221e81856121fa565b935061222e818560208601611fdd565b61223781611feb565b840191505092915050565b5f61224d838361220a565b905092915050565b5f602082019050919050565b5f61226b826121d1565b61227581856121db565b935083602082028501612287856121eb565b805f5b858110156122c257848403895281516122a38582612242565b94506122ae83612255565b925060208a0199505060018101905061228a565b50829750879550505050505092915050565b5f6020820190508181035f8301526122ec8184612261565b905092915050565b7f4e487b71000000000000000000000000000000000000000000000000000000005f52602260045260245ffd5b5f600282049050600182168061233857607f821691505b60208210810361234b5761234a6122f4565b5b50919050565b7f596f7520617265206e6f74206120706c617965720000000000000000000000005f82015250565b5f612385601483611fcd565b915061239082612351565b602082019050919050565b5f6020820190508181035f8301526123b281612379565b9050919050565b7f4e487b71000000000000000000000000000000000000000000000000000000005f52603260045260245ffd5b7f506c61796572206973206e6f74206163746976650000000000000000000000005f82015250565b5f61241a601483611fcd565b9150612425826123e6565b602082019050919050565b5f6020820190508181035f8301526124478161240e565b9050919050565b7f506c6179657220697320616c72656164792062757374656400000000000000005f82015250565b5f612482601883611fcd565b915061248d8261244e565b602082019050919050565b5f6020820190508181035f8301526124af81612476565b9050919050565b5f60ff82169050919050565b6124cb816124b6565b82525050565b5f6020820190506124e45f8301846124c2565b92915050565b7f4e487b71000000000000000000000000000000000000000000000000000000005f52604160045260245ffd5b5f819050815f5260205f209050919050565b5f6020601f8301049050919050565b5f82821b905092915050565b5f600883026125737fffffffffffffffffffffffffffffffffffffffffffffffffffffffffffffffff82612538565b61257d8683612538565b95508019841693508086168417925050509392505050565b5f819050919050565b5f6125b86125b36125ae84612173565b612595565b612173565b9050919050565b5f819050919050565b6125d18361259e565b6125e56125dd826125bf565b848454612544565b825550505050565b5f90565b6125f96125ed565b6126048184846125c8565b505050565b5b818110156126275761261c5f826125f1565b60018101905061260a565b5050565b601f82111561266c5761263d81612517565b61264684612529565b81016020851015612655578190505b61266961266185612529565b830182612609565b50505b505050565b5f82821c905092915050565b5f61268c5f1984600802612671565b1980831691505092915050565b5f6126a4838361267d565b9150826002028217905092915050565b6126bd82611fc3565b67ffffffffffffffff8111156126d6576126d56124ea565b5b6126e08254612321565b6126eb82828561262b565b5f60209050601f83116001811461271c575f841561270a578287015190505b6127148582612699565b86555061277b565b601f19841661272a86612517565b5f5b828110156127515784890151825560018201915060208501945060208101905061272c565b8683101561276e578489015161276a601f89168261267d565b8355505b6001600288020188555050505b505050505050565b7f4e487b71000000000000000000000000000000000000000000000000000000005f52601160045260245ffd5b5f6127ba82612173565b91506127c583612173565b92508282026127d381612173565b915082820484148315176127ea576127e9612783565b5b5092915050565b6127fa8161209b565b82525050565b5f6040820190506128135f8301856127f1565b61282060208301846124c2565b9392505050565b7f4e6f7420796f7572207475726e000000000000000000000000000000000000005f82015250565b5f61285b600d83611fcd565b915061286682612827565b602082019050919050565b5f6020820190508181035f8301526128888161284f565b9050919050565b5f61289982612173565b91506128a483612173565b92508282019050808211156128bc576128bb612783565b5b92915050565b5f81905092915050565b7f506c6179657220000000000000000000000000000000000000000000000000005f82015250565b5f6129006007836128c2565b915061290b826128cc565b600782019050919050565b5f61292082611fc3565b61292a81856128c2565b935061293a818560208601611fdd565b80840191505092915050565b7f3a200000000000000000000000000000000000000000000000000000000000005f82015250565b5f61297a6002836128c2565b915061298582612946565b600282019050919050565b5f61299a826128f4565b91506129a68284612916565b91506129b18261296e565b915081905092915050565b7f4e6f20706c617965727320696e207468652067616d65000000000000000000005f82015250565b5f6129f0601683611fcd565b91506129fb826129bc565b602082019050919050565b5f6020820190508181035f830152612a1d816129e4565b9050919050565b7f4d6178203420706c617965727320616c6c6f77656400000000000000000000005f82015250565b5f612a58601583611fcd565b9150612a6382612a24565b602082019050919050565b5f6020820190508181035f830152612a8581612a4c565b9050919050565b7f42657420616d6f756e74206d69736d61746368000000000000000000000000005f82015250565b5f612ac0601383611fcd565b9150612acb82612a8c565b602082019050919050565b5f6020820190508181035f830152612aed81612ab4565b9050919050565b5f612afe82612173565b91507fffffffffffffffffffffffffffffffffffffffffffffffffffffffffffffffff8203612b3057612b2f612783565b5b600182019050919050565b7f4e6f206361726473206c65667420696e20746865206465636b000000000000005f82015250565b5f612b6f601983611fcd565b9150612b7a82612b3b565b602082019050919050565b5f6020820190508181035f830152612b9c81612b63565b9050919050565b5f612bad82612173565b9150612bb883612173565b9250828203905081811115612bd057612bcf612783565b5b92915050565b7f4e487b71000000000000000000000000000000000000000000000000000000005f52603160045260245ffd5b7f4e487b71000000000000000000000000000000000000000000000000000000005f52601260045260245ffd5b5f612c3a826124b6565b9150612c45836124b6565b925082612c5557612c54612c03565b5b828206905092915050565b5f612c6a826124b6565b915060ff8203612c7d57612c7c612783565b5b600182019050919050565b5f612c92826124b6565b9150612c9d836124b6565b9250828201905060ff811115612cb657612cb5612783565b5b92915050565b5f612cc6826124b6565b91505f8203612cd857612cd7612783565b5b600182039050919050565b5f612cee8285612916565b9150612cfa8284612916565b91508190509392505050565b7f2c200000000000000000000000000000000000000000000000000000000000005f82015250565b5f612d3a6002836128c2565b9150612d4582612d06565b600282019050919050565b5f612d5b8284612916565b9150612d6682612d2e565b915081905092915050565b5f612d7b826128f4565b9150612d878284612916565b915081905092915050565b5f612d9d8285612916565b9150612da882612d2e565b9150612db48284612916565b91508190509392505050565b5f612dca82612173565b9150612dd583612173565b925082612de557612de4612c03565b5b828204905092915050565b5f612dfa82612173565b9150612e0583612173565b925082612e1557612e14612c03565b5b828206905092915050565b5f612e2a82612173565b91505f8203612e3c57612e3b612783565b5b600182039050919050565b5f819050919050565b612e61612e5c82612173565b612e47565b82525050565b5f819050919050565b5f819050919050565b612e8a612e8582612e67565b612e70565b82525050565b5f612e9b8286612e50565b602082019150612eab8285612e50565b602082019150612ebb8284612e79565b602082019150819050949350505050565b5f612ed78284612e50565b6020820191508190509291505056fea264697066735822122085813ae19e9c4fe216736e0725605709458363605e4b6ae9a4335aaeff9fdc4164736f6c634300081a0033",
					"opcodes": "PUSH1 0x80 PUSH1 0x40 MSTORE PUSH2 0x12 PUSH2 0x57 PUSH1 0x20 SHL PUSH1 0x20 SHR JUMP JUMPDEST CALLER PUSH1 0x4 PUSH0 PUSH2 0x100 EXP DUP2 SLOAD DUP2 PUSH20 0xFFFFFFFFFFFFFFFFFFFFFFFFFFFFFFFFFFFFFFFF MUL NOT AND SWAP1 DUP4 PUSH20 0xFFFFFFFFFFFFFFFFFFFFFFFFFFFFFFFFFFFFFFFF AND MUL OR SWAP1 SSTORE POP PUSH2 0x16D JUMP JUMPDEST PUSH0 DUP1 PUSH2 0x63 SWAP2 SWAP1 PUSH2 0xCC JUMP JUMPDEST PUSH0 PUSH1 0x1 SWAP1 POP JUMPDEST PUSH1 0x34 DUP2 PUSH1 0xFF AND GT PUSH2 0xC9 JUMPI PUSH0 DUP2 SWAP1 DUP1 PUSH1 0x1 DUP2 SLOAD ADD DUP1 DUP3 SSTORE DUP1 SWAP2 POP POP PUSH1 0x1 SWAP1 SUB SWAP1 PUSH0 MSTORE PUSH1 0x20 PUSH0 KECCAK256 SWAP1 PUSH1 0x20 SWAP2 DUP3 DUP3 DIV ADD SWAP2 SWAP1 MOD SWAP1 SWAP2 SWAP1 SWAP2 SWAP1 SWAP2 PUSH2 0x100 EXP DUP2 SLOAD DUP2 PUSH1 0xFF MUL NOT AND SWAP1 DUP4 PUSH1 0xFF AND MUL OR SWAP1 SSTORE POP DUP1 DUP1 PUSH2 0xC1 SWAP1 PUSH2 0x145 JUMP JUMPDEST SWAP2 POP POP PUSH2 0x69 JUMP JUMPDEST POP JUMP JUMPDEST POP DUP1 SLOAD PUSH0 DUP3 SSTORE PUSH1 0x1F ADD PUSH1 0x20 SWAP1 DIV SWAP1 PUSH0 MSTORE PUSH1 0x20 PUSH0 KECCAK256 SWAP1 DUP2 ADD SWAP1 PUSH2 0xEE SWAP2 SWAP1 PUSH2 0xF1 JUMP JUMPDEST POP JUMP JUMPDEST JUMPDEST DUP1 DUP3 GT ISZERO PUSH2 0x108 JUMPI PUSH0 DUP2 PUSH0 SWAP1 SSTORE POP PUSH1 0x1 ADD PUSH2 0xF2 JUMP JUMPDEST POP SWAP1 JUMP JUMPDEST PUSH32 0x4E487B7100000000000000000000000000000000000000000000000000000000 PUSH0 MSTORE PUSH1 0x11 PUSH1 0x4 MSTORE PUSH1 0x24 PUSH0 REVERT JUMPDEST PUSH0 PUSH1 0xFF DUP3 AND SWAP1 POP SWAP2 SWAP1 POP JUMP JUMPDEST PUSH0 PUSH2 0x14F DUP3 PUSH2 0x139 JUMP JUMPDEST SWAP2 POP PUSH1 0xFF DUP3 SUB PUSH2 0x162 JUMPI PUSH2 0x161 PUSH2 0x10C JUMP JUMPDEST JUMPDEST PUSH1 0x1 DUP3 ADD SWAP1 POP SWAP2 SWAP1 POP JUMP JUMPDEST PUSH2 0x2F1C DUP1 PUSH2 0x17A PUSH0 CODECOPY PUSH0 RETURN INVALID PUSH1 0x80 PUSH1 0x40 MSTORE PUSH1 0x4 CALLDATASIZE LT PUSH2 0x7A JUMPI PUSH0 CALLDATALOAD PUSH1 0xE0 SHR DUP1 PUSH4 0x9951A417 GT PUSH2 0x4D JUMPI DUP1 PUSH4 0x9951A417 EQ PUSH2 0x111 JUMPI DUP1 PUSH4 0xD0E514FA EQ PUSH2 0x13B JUMPI DUP1 PUSH4 0xD65AB5F2 EQ PUSH2 0x165 JUMPI DUP1 PUSH4 0xEFAA55A0 EQ PUSH2 0x17B JUMPI PUSH2 0x7A JUMP JUMPDEST DUP1 PUSH4 0x14106AD6 EQ PUSH2 0x7E JUMPI DUP1 PUSH4 0x2AE3594A EQ PUSH2 0xA8 JUMPI DUP1 PUSH4 0x33B16D93 EQ PUSH2 0xBE JUMPI DUP1 PUSH4 0x96B76C23 EQ PUSH2 0xE9 JUMPI JUMPDEST PUSH0 DUP1 REVERT JUMPDEST CALLVALUE DUP1 ISZERO PUSH2 0x89 JUMPI PUSH0 DUP1 REVERT JUMPDEST POP PUSH2 0x92 PUSH2 0x197 JUMP JUMPDEST PUSH1 0x40 MLOAD PUSH2 0x9F SWAP2 SWAP1 PUSH2 0x2033 JUMP JUMPDEST PUSH1 0x40 MLOAD DUP1 SWAP2 SUB SWAP1 RETURN JUMPDEST CALLVALUE DUP1 ISZERO PUSH2 0xB3 JUMPI PUSH0 DUP1 REVERT JUMPDEST POP PUSH2 0xBC PUSH2 0x223 JUMP JUMPDEST STOP JUMPDEST CALLVALUE DUP1 ISZERO PUSH2 0xC9 JUMPI PUSH0 DUP1 REVERT JUMPDEST POP PUSH2 0xD2 PUSH2 0x501 JUMP JUMPDEST PUSH1 0x40 MLOAD PUSH2 0xE0 SWAP3 SWAP2 SWAP1 PUSH2 0x213A JUMP JUMPDEST PUSH1 0x40 MLOAD DUP1 SWAP2 SUB SWAP1 RETURN JUMPDEST CALLVALUE DUP1 ISZERO PUSH2 0xF4 JUMPI PUSH0 DUP1 REVERT JUMPDEST POP PUSH2 0x10F PUSH1 0x4 DUP1 CALLDATASIZE SUB DUP2 ADD SWAP1 PUSH2 0x10A SWAP2 SWAP1 PUSH2 0x21A6 JUMP JUMPDEST PUSH2 0xC19 JUMP JUMPDEST STOP JUMPDEST CALLVALUE DUP1 ISZERO PUSH2 0x11C JUMPI PUSH0 DUP1 REVERT JUMPDEST POP PUSH2 0x125 PUSH2 0xD05 JUMP JUMPDEST PUSH1 0x40 MLOAD PUSH2 0x132 SWAP2 SWAP1 PUSH2 0x2033 JUMP JUMPDEST PUSH1 0x40 MLOAD DUP1 SWAP2 SUB SWAP1 RETURN JUMPDEST CALLVALUE DUP1 ISZERO PUSH2 0x146 JUMPI PUSH0 DUP1 REVERT JUMPDEST POP PUSH2 0x14F PUSH2 0xD91 JUMP JUMPDEST PUSH1 0x40 MLOAD PUSH2 0x15C SWAP2 SWAP1 PUSH2 0x22D4 JUMP JUMPDEST PUSH1 0x40 MLOAD DUP1 SWAP2 SUB SWAP1 RETURN JUMPDEST CALLVALUE DUP1 ISZERO PUSH2 0x170 JUMPI PUSH0 DUP1 REVERT JUMPDEST POP PUSH2 0x179 PUSH2 0xFE1 JUMP JUMPDEST STOP JUMPDEST PUSH2 0x195 PUSH1 0x4 DUP1 CALLDATASIZE SUB DUP2 ADD SWAP1 PUSH2 0x190 SWAP2 SWAP1 PUSH2 0x21A6 JUMP JUMPDEST PUSH2 0x11B6 JUMP JUMPDEST STOP JUMPDEST PUSH1 0x7 DUP1 SLOAD PUSH2 0x1A4 SWAP1 PUSH2 0x2321 JUMP JUMPDEST DUP1 PUSH1 0x1F ADD PUSH1 0x20 DUP1 SWAP2 DIV MUL PUSH1 0x20 ADD PUSH1 0x40 MLOAD SWAP1 DUP2 ADD PUSH1 0x40 MSTORE DUP1 SWAP3 SWAP2 SWAP1 DUP2 DUP2 MSTORE PUSH1 0x20 ADD DUP3 DUP1 SLOAD PUSH2 0x1D0 SWAP1 PUSH2 0x2321 JUMP JUMPDEST DUP1 ISZERO PUSH2 0x21B JUMPI DUP1 PUSH1 0x1F LT PUSH2 0x1F2 JUMPI PUSH2 0x100 DUP1 DUP4 SLOAD DIV MUL DUP4 MSTORE SWAP2 PUSH1 0x20 ADD SWAP2 PUSH2 0x21B JUMP JUMPDEST DUP3 ADD SWAP2 SWAP1 PUSH0 MSTORE PUSH1 0x20 PUSH0 KECCAK256 SWAP1 JUMPDEST DUP2 SLOAD DUP2 MSTORE SWAP1 PUSH1 0x1 ADD SWAP1 PUSH1 0x20 ADD DUP1 DUP4 GT PUSH2 0x1FE JUMPI DUP3 SWAP1 SUB PUSH1 0x1F AND DUP3 ADD SWAP2 JUMPDEST POP POP POP POP POP DUP2 JUMP JUMPDEST PUSH0 PUSH2 0x22D CALLER PUSH2 0x13B5 JUMP JUMPDEST SWAP1 POP PUSH32 0xFFFFFFFFFFFFFFFFFFFFFFFFFFFFFFFFFFFFFFFFFFFFFFFFFFFFFFFFFFFFFFFF DUP2 SUB PUSH2 0x291 JUMPI PUSH1 0x40 MLOAD PUSH32 0x8C379A000000000000000000000000000000000000000000000000000000000 DUP2 MSTORE PUSH1 0x4 ADD PUSH2 0x288 SWAP1 PUSH2 0x239B JUMP JUMPDEST PUSH1 0x40 MLOAD DUP1 SWAP2 SUB SWAP1 REVERT JUMPDEST PUSH1 0x1 DUP2 DUP2 SLOAD DUP2 LT PUSH2 0x2A5 JUMPI PUSH2 0x2A4 PUSH2 0x23B9 JUMP JUMPDEST JUMPDEST SWAP1 PUSH0 MSTORE PUSH1 0x20 PUSH0 KECCAK256 SWAP1 PUSH1 0x4 MUL ADD PUSH1 0x3 ADD PUSH0 SWAP1 SLOAD SWAP1 PUSH2 0x100 EXP SWAP1 DIV PUSH1 0xFF AND PUSH2 0x300 JUMPI PUSH1 0x40 MLOAD PUSH32 0x8C379A000000000000000000000000000000000000000000000000000000000 DUP2 MSTORE PUSH1 0x4 ADD PUSH2 0x2F7 SWAP1 PUSH2 0x2430 JUMP JUMPDEST PUSH1 0x40 MLOAD DUP1 SWAP2 SUB SWAP1 REVERT JUMPDEST PUSH1 0x1 DUP2 DUP2 SLOAD DUP2 LT PUSH2 0x314 JUMPI PUSH2 0x313 PUSH2 0x23B9 JUMP JUMPDEST JUMPDEST SWAP1 PUSH0 MSTORE PUSH1 0x20 PUSH0 KECCAK256 SWAP1 PUSH1 0x4 MUL ADD PUSH1 0x3 ADD PUSH1 0x1 SWAP1 SLOAD SWAP1 PUSH2 0x100 EXP SWAP1 DIV PUSH1 0xFF AND ISZERO PUSH2 0x371 JUMPI PUSH1 0x40 MLOAD PUSH32 0x8C379A000000000000000000000000000000000000000000000000000000000 DUP2 MSTORE PUSH1 0x4 ADD PUSH2 0x368 SWAP1 PUSH2 0x2498 JUMP JUMPDEST PUSH1 0x40 MLOAD DUP1 SWAP2 SUB SWAP1 REVERT JUMPDEST PUSH0 PUSH2 0x37A PUSH2 0x147C JUMP JUMPDEST SWAP1 POP PUSH1 0x1 DUP3 DUP2 SLOAD DUP2 LT PUSH2 0x390 JUMPI PUSH2 0x38F PUSH2 0x23B9 JUMP JUMPDEST JUMPDEST SWAP1 PUSH0 MSTORE PUSH1 0x20 PUSH0 KECCAK256 SWAP1 PUSH1 0x4 MUL ADD PUSH1 0x2 ADD DUP2 SWAP1 DUP1 PUSH1 0x1 DUP2 SLOAD ADD DUP1 DUP3 SSTORE DUP1 SWAP2 POP POP PUSH1 0x1 SWAP1 SUB SWAP1 PUSH0 MSTORE PUSH1 0x20 PUSH0 KECCAK256 SWAP1 PUSH1 0x20 SWAP2 DUP3 DUP3 DIV ADD SWAP2 SWAP1 MOD SWAP1 SWAP2 SWAP1 SWAP2 SWAP1 SWAP2 PUSH2 0x100 EXP DUP2 SLOAD DUP2 PUSH1 0xFF MUL NOT AND SWAP1 DUP4 PUSH1 0xFF AND MUL OR SWAP1 SSTORE POP PUSH1 0x15 PUSH2 0x47E PUSH1 0x1 DUP5 DUP2 SLOAD DUP2 LT PUSH2 0x3F9 JUMPI PUSH2 0x3F8 PUSH2 0x23B9 JUMP JUMPDEST JUMPDEST SWAP1 PUSH0 MSTORE PUSH1 0x20 PUSH0 KECCAK256 SWAP1 PUSH1 0x4 MUL ADD PUSH1 0x2 ADD DUP1 SLOAD DUP1 PUSH1 0x20 MUL PUSH1 0x20 ADD PUSH1 0x40 MLOAD SWAP1 DUP2 ADD PUSH1 0x40 MSTORE DUP1 SWAP3 SWAP2 SWAP1 DUP2 DUP2 MSTORE PUSH1 0x20 ADD DUP3 DUP1 SLOAD DUP1 ISZERO PUSH2 0x474 JUMPI PUSH1 0x20 MUL DUP3 ADD SWAP2 SWAP1 PUSH0 MSTORE PUSH1 0x20 PUSH0 KECCAK256 SWAP1 PUSH0 SWAP1 JUMPDEST DUP3 DUP3 SWAP1 SLOAD SWAP1 PUSH2 0x100 EXP SWAP1 DIV PUSH1 0xFF AND PUSH1 0xFF AND DUP2 MSTORE PUSH1 0x20 ADD SWAP1 PUSH1 0x1 ADD SWAP1 PUSH1 0x20 DUP3 PUSH0 ADD DIV SWAP3 DUP4 ADD SWAP3 PUSH1 0x1 SUB DUP3 MUL SWAP2 POP DUP1 DUP5 GT PUSH2 0x43E JUMPI SWAP1 POP JUMPDEST POP POP POP POP POP PUSH2 0x1547 JUMP JUMPDEST PUSH1 0xFF AND GT ISZERO PUSH2 0x4FD JUMPI PUSH1 0x1 DUP1 DUP4 DUP2 SLOAD DUP2 LT PUSH2 0x49C JUMPI PUSH2 0x49B PUSH2 0x23B9 JUMP JUMPDEST JUMPDEST SWAP1 PUSH0 MSTORE PUSH1 0x20 PUSH0 KECCAK256 SWAP1 PUSH1 0x4 MUL ADD PUSH1 0x3 ADD PUSH1 0x1 PUSH2 0x100 EXP DUP2 SLOAD DUP2 PUSH1 0xFF MUL NOT AND SWAP1 DUP4 ISZERO ISZERO MUL OR SWAP1 SSTORE POP PUSH0 PUSH1 0x1 DUP4 DUP2 SLOAD DUP2 LT PUSH2 0x4D7 JUMPI PUSH2 0x4D6 PUSH2 0x23B9 JUMP JUMPDEST JUMPDEST SWAP1 PUSH0 MSTORE PUSH1 0x20 PUSH0 KECCAK256 SWAP1 PUSH1 0x4 MUL ADD PUSH1 0x3 ADD PUSH0 PUSH2 0x100 EXP DUP2 SLOAD DUP2 PUSH1 0xFF MUL NOT AND SWAP1 DUP4 ISZERO ISZERO MUL OR SWAP1 SSTORE POP JUMPDEST POP POP JUMP JUMPDEST PUSH1 0x60 DUP1 PUSH0 PUSH2 0x580 PUSH1 0x3 DUP1 SLOAD DUP1 PUSH1 0x20 MUL PUSH1 0x20 ADD PUSH1 0x40 MLOAD SWAP1 DUP2 ADD PUSH1 0x40 MSTORE DUP1 SWAP3 SWAP2 SWAP1 DUP2 DUP2 MSTORE PUSH1 0x20 ADD DUP3 DUP1 SLOAD DUP1 ISZERO PUSH2 0x576 JUMPI PUSH1 0x20 MUL DUP3 ADD SWAP2 SWAP1 PUSH0 MSTORE PUSH1 0x20 PUSH0 KECCAK256 SWAP1 PUSH0 SWAP1 JUMPDEST DUP3 DUP3 SWAP1 SLOAD SWAP1 PUSH2 0x100 EXP SWAP1 DIV PUSH1 0xFF AND PUSH1 0xFF AND DUP2 MSTORE PUSH1 0x20 ADD SWAP1 PUSH1 0x1 ADD SWAP1 PUSH1 0x20 DUP3 PUSH0 ADD DIV SWAP3 DUP4 ADD SWAP3 PUSH1 0x1 SUB DUP3 MUL SWAP2 POP DUP1 DUP5 GT PUSH2 0x540 JUMPI SWAP1 POP JUMPDEST POP POP POP POP POP PUSH2 0x1547 JUMP JUMPDEST SWAP1 POP PUSH1 0x6 PUSH0 PUSH2 0x58F SWAP2 SWAP1 PUSH2 0x1DCD JUMP JUMPDEST JUMPDEST PUSH1 0x11 DUP2 PUSH1 0xFF AND LT ISZERO PUSH2 0x6A4 JUMPI PUSH0 PUSH2 0x5A5 PUSH2 0x147C JUMP JUMPDEST SWAP1 POP PUSH1 0x3 DUP2 SWAP1 DUP1 PUSH1 0x1 DUP2 SLOAD ADD DUP1 DUP3 SSTORE DUP1 SWAP2 POP POP PUSH1 0x1 SWAP1 SUB SWAP1 PUSH0 MSTORE PUSH1 0x20 PUSH0 KECCAK256 SWAP1 PUSH1 0x20 SWAP2 DUP3 DUP3 DIV ADD SWAP2 SWAP1 MOD SWAP1 SWAP2 SWAP1 SWAP2 SWAP1 SWAP2 PUSH2 0x100 EXP DUP2 SLOAD DUP2 PUSH1 0xFF MUL NOT AND SWAP1 DUP4 PUSH1 0xFF AND MUL OR SWAP1 SSTORE POP PUSH2 0x665 PUSH1 0x3 DUP1 SLOAD DUP1 PUSH1 0x20 MUL PUSH1 0x20 ADD PUSH1 0x40 MLOAD SWAP1 DUP2 ADD PUSH1 0x40 MSTORE DUP1 SWAP3 SWAP2 SWAP1 DUP2 DUP2 MSTORE PUSH1 0x20 ADD DUP3 DUP1 SLOAD DUP1 ISZERO PUSH2 0x65B JUMPI PUSH1 0x20 MUL DUP3 ADD SWAP2 SWAP1 PUSH0 MSTORE PUSH1 0x20 PUSH0 KECCAK256 SWAP1 PUSH0 SWAP1 JUMPDEST DUP3 DUP3 SWAP1 SLOAD SWAP1 PUSH2 0x100 EXP SWAP1 DIV PUSH1 0xFF AND PUSH1 0xFF AND DUP2 MSTORE PUSH1 0x20 ADD SWAP1 PUSH1 0x1 ADD SWAP1 PUSH1 0x20 DUP3 PUSH0 ADD DIV SWAP3 DUP4 ADD SWAP3 PUSH1 0x1 SUB DUP3 MUL SWAP2 POP DUP1 DUP5 GT PUSH2 0x625 JUMPI SWAP1 POP JUMPDEST POP POP POP POP POP PUSH2 0x1547 JUMP JUMPDEST SWAP2 POP PUSH32 0x74719E1845AAC9A5B808B73F76F15E0DED61FD1F03FC0CD802E98E8E1D2299FE DUP2 PUSH1 0x40 MLOAD PUSH2 0x696 SWAP2 SWAP1 PUSH2 0x24D1 JUMP JUMPDEST PUSH1 0x40 MLOAD DUP1 SWAP2 SUB SWAP1 LOG1 POP PUSH2 0x590 JUMP JUMPDEST PUSH1 0x3 PUSH1 0x5 SWAP1 DUP1 SLOAD PUSH2 0x6B6 SWAP3 SWAP2 SWAP1 PUSH2 0x1DEB JUMP JUMPDEST POP PUSH2 0x768 PUSH1 0x5 DUP1 SLOAD DUP1 PUSH1 0x20 MUL PUSH1 0x20 ADD PUSH1 0x40 MLOAD SWAP1 DUP2 ADD PUSH1 0x40 MSTORE DUP1 SWAP3 SWAP2 SWAP1 DUP2 DUP2 MSTORE PUSH1 0x20 ADD DUP3 DUP1 SLOAD DUP1 ISZERO PUSH2 0x728 JUMPI PUSH1 0x20 MUL DUP3 ADD SWAP2 SWAP1 PUSH0 MSTORE PUSH1 0x20 PUSH0 KECCAK256 SWAP1 PUSH0 SWAP1 JUMPDEST DUP3 DUP3 SWAP1 SLOAD SWAP1 PUSH2 0x100 EXP SWAP1 DIV PUSH1 0xFF AND PUSH1 0xFF AND DUP2 MSTORE PUSH1 0x20 ADD SWAP1 PUSH1 0x1 ADD SWAP1 PUSH1 0x20 DUP3 PUSH0 ADD DIV SWAP3 DUP4 ADD SWAP3 PUSH1 0x1 SUB DUP3 MUL SWAP2 POP DUP1 DUP5 GT PUSH2 0x6F2 JUMPI SWAP1 POP JUMPDEST POP POP POP POP POP PUSH1 0x40 MLOAD DUP1 PUSH1 0x40 ADD PUSH1 0x40 MSTORE DUP1 PUSH1 0x10 DUP2 MSTORE PUSH1 0x20 ADD PUSH32 0x4C6173742042616E6B2048616E643A2000000000000000000000000000000000 DUP2 MSTORE POP PUSH2 0x1621 JUMP JUMPDEST PUSH1 0x7 SWAP1 DUP2 PUSH2 0x776 SWAP2 SWAP1 PUSH2 0x26B4 JUMP JUMPDEST POP PUSH0 JUMPDEST PUSH1 0x1 DUP1 SLOAD SWAP1 POP DUP2 LT ISZERO PUSH2 0xA59 JUMPI PUSH0 PUSH2 0x823 PUSH1 0x1 DUP4 DUP2 SLOAD DUP2 LT PUSH2 0x79E JUMPI PUSH2 0x79D PUSH2 0x23B9 JUMP JUMPDEST JUMPDEST SWAP1 PUSH0 MSTORE PUSH1 0x20 PUSH0 KECCAK256 SWAP1 PUSH1 0x4 MUL ADD PUSH1 0x2 ADD DUP1 SLOAD DUP1 PUSH1 0x20 MUL PUSH1 0x20 ADD PUSH1 0x40 MLOAD SWAP1 DUP2 ADD PUSH1 0x40 MSTORE DUP1 SWAP3 SWAP2 SWAP1 DUP2 DUP2 MSTORE PUSH1 0x20 ADD DUP3 DUP1 SLOAD DUP1 ISZERO PUSH2 0x819 JUMPI PUSH1 0x20 MUL DUP3 ADD SWAP2 SWAP1 PUSH0 MSTORE PUSH1 0x20 PUSH0 KECCAK256 SWAP1 PUSH0 SWAP1 JUMPDEST DUP3 DUP3 SWAP1 SLOAD SWAP1 PUSH2 0x100 EXP SWAP1 DIV PUSH1 0xFF AND PUSH1 0xFF AND DUP2 MSTORE PUSH1 0x20 ADD SWAP1 PUSH1 0x1 ADD SWAP1 PUSH1 0x20 DUP3 PUSH0 ADD DIV SWAP3 DUP4 ADD SWAP3 PUSH1 0x1 SUB DUP3 MUL SWAP2 POP DUP1 DUP5 GT PUSH2 0x7E3 JUMPI SWAP1 POP JUMPDEST POP POP POP POP POP PUSH2 0x1547 JUMP JUMPDEST SWAP1 POP PUSH1 0x1 DUP3 DUP2 SLOAD DUP2 LT PUSH2 0x839 JUMPI PUSH2 0x838 PUSH2 0x23B9 JUMP JUMPDEST JUMPDEST SWAP1 PUSH0 MSTORE PUSH1 0x20 PUSH0 KECCAK256 SWAP1 PUSH1 0x4 MUL ADD PUSH1 0x3 ADD PUSH1 0x1 SWAP1 SLOAD SWAP1 PUSH2 0x100 EXP SWAP1 DIV PUSH1 0xFF AND ISZERO DUP1 ISZERO PUSH2 0x876 JUMPI POP DUP3 PUSH1 0xFF AND DUP2 PUSH1 0xFF AND GT DUP1 PUSH2 0x875 JUMPI POP PUSH1 0x15 DUP4 PUSH1 0xFF AND GT JUMPDEST JUMPDEST ISZERO PUSH2 0xA4B JUMPI PUSH1 0x1 DUP3 DUP2 SLOAD DUP2 LT PUSH2 0x88F JUMPI PUSH2 0x88E PUSH2 0x23B9 JUMP JUMPDEST JUMPDEST SWAP1 PUSH0 MSTORE PUSH1 0x20 PUSH0 KECCAK256 SWAP1 PUSH1 0x4 MUL ADD PUSH0 ADD PUSH0 SWAP1 SLOAD SWAP1 PUSH2 0x100 EXP SWAP1 DIV PUSH20 0xFFFFFFFFFFFFFFFFFFFFFFFFFFFFFFFFFFFFFFFF AND PUSH20 0xFFFFFFFFFFFFFFFFFFFFFFFFFFFFFFFFFFFFFFFF AND PUSH2 0x8FC PUSH1 0x2 PUSH1 0x1 DUP6 DUP2 SLOAD DUP2 LT PUSH2 0x8EC JUMPI PUSH2 0x8EB PUSH2 0x23B9 JUMP JUMPDEST JUMPDEST SWAP1 PUSH0 MSTORE PUSH1 0x20 PUSH0 KECCAK256 SWAP1 PUSH1 0x4 MUL ADD PUSH1 0x1 ADD SLOAD PUSH2 0x906 SWAP2 SWAP1 PUSH2 0x27B0 JUMP JUMPDEST SWAP1 DUP2 ISZERO MUL SWAP1 PUSH1 0x40 MLOAD PUSH0 PUSH1 0x40 MLOAD DUP1 DUP4 SUB DUP2 DUP6 DUP9 DUP9 CALL SWAP4 POP POP POP POP ISZERO DUP1 ISZERO PUSH2 0x92E JUMPI RETURNDATASIZE PUSH0 DUP1 RETURNDATACOPY RETURNDATASIZE PUSH0 REVERT JUMPDEST POP PUSH1 0x6 PUSH1 0x1 DUP4 DUP2 SLOAD DUP2 LT PUSH2 0x945 JUMPI PUSH2 0x944 PUSH2 0x23B9 JUMP JUMPDEST JUMPDEST SWAP1 PUSH0 MSTORE PUSH1 0x20 PUSH0 KECCAK256 SWAP1 PUSH1 0x4 MUL ADD PUSH0 ADD PUSH0 SWAP1 SLOAD SWAP1 PUSH2 0x100 EXP SWAP1 DIV PUSH20 0xFFFFFFFFFFFFFFFFFFFFFFFFFFFFFFFFFFFFFFFF AND SWAP1 DUP1 PUSH1 0x1 DUP2 SLOAD ADD DUP1 DUP3 SSTORE DUP1 SWAP2 POP POP PUSH1 0x1 SWAP1 SUB SWAP1 PUSH0 MSTORE PUSH1 0x20 PUSH0 KECCAK256 ADD PUSH0 SWAP1 SWAP2 SWAP1 SWAP2 SWAP1 SWAP2 PUSH2 0x100 EXP DUP2 SLOAD DUP2 PUSH20 0xFFFFFFFFFFFFFFFFFFFFFFFFFFFFFFFFFFFFFFFF MUL NOT AND SWAP1 DUP4 PUSH20 0xFFFFFFFFFFFFFFFFFFFFFFFFFFFFFFFFFFFFFFFF AND MUL OR SWAP1 SSTORE POP PUSH32 0xE9B0A743935D9854AC97B39452742C48F05E62B1EE44825328D7BC53901B03B1 PUSH1 0x1 DUP4 DUP2 SLOAD DUP2 LT PUSH2 0xA05 JUMPI PUSH2 0xA04 PUSH2 0x23B9 JUMP JUMPDEST JUMPDEST SWAP1 PUSH0 MSTORE PUSH1 0x20 PUSH0 KECCAK256 SWAP1 PUSH1 0x4 MUL ADD PUSH0 ADD PUSH0 SWAP1 SLOAD SWAP1 PUSH2 0x100 EXP SWAP1 DIV PUSH20 0xFFFFFFFFFFFFFFFFFFFFFFFFFFFFFFFFFFFFFFFF AND DUP3 PUSH1 0x40 MLOAD PUSH2 0xA42 SWAP3 SWAP2 SWAP1 PUSH2 0x2800 JUMP JUMPDEST PUSH1 0x40 MLOAD DUP1 SWAP2 SUB SWAP1 LOG1 JUMPDEST POP DUP1 DUP1 PUSH1 0x1 ADD SWAP2 POP POP PUSH2 0x779 JUMP JUMPDEST POP PUSH2 0xAE6 PUSH1 0x6 DUP1 SLOAD DUP1 PUSH1 0x20 MUL PUSH1 0x20 ADD PUSH1 0x40 MLOAD SWAP1 DUP2 ADD PUSH1 0x40 MSTORE DUP1 SWAP3 SWAP2 SWAP1 DUP2 DUP2 MSTORE PUSH1 0x20 ADD DUP3 DUP1 SLOAD DUP1 ISZERO PUSH2 0xADC JUMPI PUSH1 0x20 MUL DUP3 ADD SWAP2 SWAP1 PUSH0 MSTORE PUSH1 0x20 PUSH0 KECCAK256 SWAP1 JUMPDEST DUP2 PUSH0 SWAP1 SLOAD SWAP1 PUSH2 0x100 EXP SWAP1 DIV PUSH20 0xFFFFFFFFFFFFFFFFFFFFFFFFFFFFFFFFFFFFFFFF AND PUSH20 0xFFFFFFFFFFFFFFFFFFFFFFFFFFFFFFFFFFFFFFFF AND DUP2 MSTORE PUSH1 0x20 ADD SWAP1 PUSH1 0x1 ADD SWAP1 DUP1 DUP4 GT PUSH2 0xA93 JUMPI JUMPDEST POP POP POP POP POP PUSH2 0x1815 JUMP JUMPDEST PUSH1 0x8 SWAP1 DUP2 PUSH2 0xAF4 SWAP2 SWAP1 PUSH2 0x26B4 JUMP JUMPDEST POP PUSH2 0xAFD PUSH2 0x1A54 JUMP JUMPDEST PUSH1 0x7 PUSH1 0x6 DUP2 DUP1 SLOAD PUSH2 0xB0D SWAP1 PUSH2 0x2321 JUMP JUMPDEST DUP1 PUSH1 0x1F ADD PUSH1 0x20 DUP1 SWAP2 DIV MUL PUSH1 0x20 ADD PUSH1 0x40 MLOAD SWAP1 DUP2 ADD PUSH1 0x40 MSTORE DUP1 SWAP3 SWAP2 SWAP1 DUP2 DUP2 MSTORE PUSH1 0x20 ADD DUP3 DUP1 SLOAD PUSH2 0xB39 SWAP1 PUSH2 0x2321 JUMP JUMPDEST DUP1 ISZERO PUSH2 0xB84 JUMPI DUP1 PUSH1 0x1F LT PUSH2 0xB5B JUMPI PUSH2 0x100 DUP1 DUP4 SLOAD DIV MUL DUP4 MSTORE SWAP2 PUSH1 0x20 ADD SWAP2 PUSH2 0xB84 JUMP JUMPDEST DUP3 ADD SWAP2 SWAP1 PUSH0 MSTORE PUSH1 0x20 PUSH0 KECCAK256 SWAP1 JUMPDEST DUP2 SLOAD DUP2 MSTORE SWAP1 PUSH1 0x1 ADD SWAP1 PUSH1 0x20 ADD DUP1 DUP4 GT PUSH2 0xB67 JUMPI DUP3 SWAP1 SUB PUSH1 0x1F AND DUP3 ADD SWAP2 JUMPDEST POP POP POP POP POP SWAP2 POP DUP1 DUP1 SLOAD DUP1 PUSH1 0x20 MUL PUSH1 0x20 ADD PUSH1 0x40 MLOAD SWAP1 DUP2 ADD PUSH1 0x40 MSTORE DUP1 SWAP3 SWAP2 SWAP1 DUP2 DUP2 MSTORE PUSH1 0x20 ADD DUP3 DUP1 SLOAD DUP1 ISZERO PUSH2 0xC09 JUMPI PUSH1 0x20 MUL DUP3 ADD SWAP2 SWAP1 PUSH0 MSTORE PUSH1 0x20 PUSH0 KECCAK256 SWAP1 JUMPDEST DUP2 PUSH0 SWAP1 SLOAD SWAP1 PUSH2 0x100 EXP SWAP1 DIV PUSH20 0xFFFFFFFFFFFFFFFFFFFFFFFFFFFFFFFFFFFFFFFF AND PUSH20 0xFFFFFFFFFFFFFFFFFFFFFFFFFFFFFFFFFFFFFFFF AND DUP2 MSTORE PUSH1 0x20 ADD SWAP1 PUSH1 0x1 ADD SWAP1 DUP1 DUP4 GT PUSH2 0xBC0 JUMPI JUMPDEST POP POP POP POP POP SWAP1 POP SWAP3 POP SWAP3 POP POP SWAP1 SWAP2 JUMP JUMPDEST PUSH1 0x1 DUP2 DUP2 SLOAD DUP2 LT PUSH2 0xC2D JUMPI PUSH2 0xC2C PUSH2 0x23B9 JUMP JUMPDEST JUMPDEST SWAP1 PUSH0 MSTORE PUSH1 0x20 PUSH0 KECCAK256 SWAP1 PUSH1 0x4 MUL ADD PUSH0 ADD PUSH0 SWAP1 SLOAD SWAP1 PUSH2 0x100 EXP SWAP1 DIV PUSH20 0xFFFFFFFFFFFFFFFFFFFFFFFFFFFFFFFFFFFFFFFF AND PUSH20 0xFFFFFFFFFFFFFFFFFFFFFFFFFFFFFFFFFFFFFFFF AND CALLER PUSH20 0xFFFFFFFFFFFFFFFFFFFFFFFFFFFFFFFFFFFFFFFF AND EQ PUSH2 0xCC8 JUMPI PUSH1 0x40 MLOAD PUSH32 0x8C379A000000000000000000000000000000000000000000000000000000000 DUP2 MSTORE PUSH1 0x4 ADD PUSH2 0xCBF SWAP1 PUSH2 0x2871 JUMP JUMPDEST PUSH1 0x40 MLOAD DUP1 SWAP2 SUB SWAP1 REVERT JUMPDEST PUSH0 PUSH1 0x1 DUP3 DUP2 SLOAD DUP2 LT PUSH2 0xCDD JUMPI PUSH2 0xCDC PUSH2 0x23B9 JUMP JUMPDEST JUMPDEST SWAP1 PUSH0 MSTORE PUSH1 0x20 PUSH0 KECCAK256 SWAP1 PUSH1 0x4 MUL ADD PUSH1 0x3 ADD PUSH0 PUSH2 0x100 EXP DUP2 SLOAD DUP2 PUSH1 0xFF MUL NOT AND SWAP1 DUP4 ISZERO ISZERO MUL OR SWAP1 SSTORE POP POP JUMP JUMPDEST PUSH1 0x8 DUP1 SLOAD PUSH2 0xD12 SWAP1 PUSH2 0x2321 JUMP JUMPDEST DUP1 PUSH1 0x1F ADD PUSH1 0x20 DUP1 SWAP2 DIV MUL PUSH1 0x20 ADD PUSH1 0x40 MLOAD SWAP1 DUP2 ADD PUSH1 0x40 MSTORE DUP1 SWAP3 SWAP2 SWAP1 DUP2 DUP2 MSTORE PUSH1 0x20 ADD DUP3 DUP1 SLOAD PUSH2 0xD3E SWAP1 PUSH2 0x2321 JUMP JUMPDEST DUP1 ISZERO PUSH2 0xD89 JUMPI DUP1 PUSH1 0x1F LT PUSH2 0xD60 JUMPI PUSH2 0x100 DUP1 DUP4 SLOAD DIV MUL DUP4 MSTORE SWAP2 PUSH1 0x20 ADD SWAP2 PUSH2 0xD89 JUMP JUMPDEST DUP3 ADD SWAP2 SWAP1 PUSH0 MSTORE PUSH1 0x20 PUSH0 KECCAK256 SWAP1 JUMPDEST DUP2 SLOAD DUP2 MSTORE SWAP1 PUSH1 0x1 ADD SWAP1 PUSH1 0x20 ADD DUP1 DUP4 GT PUSH2 0xD6C JUMPI DUP3 SWAP1 SUB PUSH1 0x1F AND DUP3 ADD SWAP2 JUMPDEST POP POP POP POP POP DUP2 JUMP JUMPDEST PUSH1 0x60 PUSH0 PUSH1 0x1 DUP1 DUP1 SLOAD SWAP1 POP PUSH2 0xDA5 SWAP2 SWAP1 PUSH2 0x288F JUMP JUMPDEST PUSH8 0xFFFFFFFFFFFFFFFF DUP2 GT ISZERO PUSH2 0xDBE JUMPI PUSH2 0xDBD PUSH2 0x24EA JUMP JUMPDEST JUMPDEST PUSH1 0x40 MLOAD SWAP1 DUP1 DUP3 MSTORE DUP1 PUSH1 0x20 MUL PUSH1 0x20 ADD DUP3 ADD PUSH1 0x40 MSTORE DUP1 ISZERO PUSH2 0xDF1 JUMPI DUP2 PUSH1 0x20 ADD JUMPDEST PUSH1 0x60 DUP2 MSTORE PUSH1 0x20 ADD SWAP1 PUSH1 0x1 SWAP1 SUB SWAP1 DUP2 PUSH2 0xDDC JUMPI SWAP1 POP JUMPDEST POP SWAP1 POP PUSH2 0xEA5 PUSH1 0x3 DUP1 SLOAD DUP1 PUSH1 0x20 MUL PUSH1 0x20 ADD PUSH1 0x40 MLOAD SWAP1 DUP2 ADD PUSH1 0x40 MSTORE DUP1 SWAP3 SWAP2 SWAP1 DUP2 DUP2 MSTORE PUSH1 0x20 ADD DUP3 DUP1 SLOAD DUP1 ISZERO PUSH2 0xE65 JUMPI PUSH1 0x20 MUL DUP3 ADD SWAP2 SWAP1 PUSH0 MSTORE PUSH1 0x20 PUSH0 KECCAK256 SWAP1 PUSH0 SWAP1 JUMPDEST DUP3 DUP3 SWAP1 SLOAD SWAP1 PUSH2 0x100 EXP SWAP1 DIV PUSH1 0xFF AND PUSH1 0xFF AND DUP2 MSTORE PUSH1 0x20 ADD SWAP1 PUSH1 0x1 ADD SWAP1 PUSH1 0x20 DUP3 PUSH0 ADD DIV SWAP3 DUP4 ADD SWAP3 PUSH1 0x1 SUB DUP3 MUL SWAP2 POP DUP1 DUP5 GT PUSH2 0xE2F JUMPI SWAP1 POP JUMPDEST POP POP POP POP POP PUSH1 0x40 MLOAD DUP1 PUSH1 0x40 ADD PUSH1 0x40 MSTORE DUP1 PUSH1 0x6 DUP2 MSTORE PUSH1 0x20 ADD PUSH32 0x42616E6B3A200000000000000000000000000000000000000000000000000000 DUP2 MSTORE POP PUSH2 0x1621 JUMP JUMPDEST DUP2 PUSH0 DUP2 MLOAD DUP2 LT PUSH2 0xEB8 JUMPI PUSH2 0xEB7 PUSH2 0x23B9 JUMP JUMPDEST JUMPDEST PUSH1 0x20 MUL PUSH1 0x20 ADD ADD DUP2 SWAP1 MSTORE POP PUSH0 JUMPDEST PUSH1 0x1 DUP1 SLOAD SWAP1 POP DUP2 LT ISZERO PUSH2 0xFD9 JUMPI PUSH2 0xFA2 PUSH1 0x1 DUP3 DUP2 SLOAD DUP2 LT PUSH2 0xEE9 JUMPI PUSH2 0xEE8 PUSH2 0x23B9 JUMP JUMPDEST JUMPDEST SWAP1 PUSH0 MSTORE PUSH1 0x20 PUSH0 KECCAK256 SWAP1 PUSH1 0x4 MUL ADD PUSH1 0x2 ADD DUP1 SLOAD DUP1 PUSH1 0x20 MUL PUSH1 0x20 ADD PUSH1 0x40 MLOAD SWAP1 DUP2 ADD PUSH1 0x40 MSTORE DUP1 SWAP3 SWAP2 SWAP1 DUP2 DUP2 MSTORE PUSH1 0x20 ADD DUP3 DUP1 SLOAD DUP1 ISZERO PUSH2 0xF64 JUMPI PUSH1 0x20 MUL DUP3 ADD SWAP2 SWAP1 PUSH0 MSTORE PUSH1 0x20 PUSH0 KECCAK256 SWAP1 PUSH0 SWAP1 JUMPDEST DUP3 DUP3 SWAP1 SLOAD SWAP1 PUSH2 0x100 EXP SWAP1 DIV PUSH1 0xFF AND PUSH1 0xFF AND DUP2 MSTORE PUSH1 0x20 ADD SWAP1 PUSH1 0x1 ADD SWAP1 PUSH1 0x20 DUP3 PUSH0 ADD DIV SWAP3 DUP4 ADD SWAP3 PUSH1 0x1 SUB DUP3 MUL SWAP2 POP DUP1 DUP5 GT PUSH2 0xF2E JUMPI SWAP1 POP JUMPDEST POP POP POP POP POP PUSH2 0xF7E PUSH1 0x1 DUP5 PUSH2 0xF79 SWAP2 SWAP1 PUSH2 0x288F JUMP JUMPDEST PUSH2 0x1A7F JUMP JUMPDEST PUSH1 0x40 MLOAD PUSH1 0x20 ADD PUSH2 0xF8E SWAP2 SWAP1 PUSH2 0x2990 JUMP JUMPDEST PUSH1 0x40 MLOAD PUSH1 0x20 DUP2 DUP4 SUB SUB DUP2 MSTORE SWAP1 PUSH1 0x40 MSTORE PUSH2 0x1621 JUMP JUMPDEST DUP3 PUSH1 0x1 DUP4 PUSH2 0xFB0 SWAP2 SWAP1 PUSH2 0x288F JUMP JUMPDEST DUP2 MLOAD DUP2 LT PUSH2 0xFC1 JUMPI PUSH2 0xFC0 PUSH2 0x23B9 JUMP JUMPDEST JUMPDEST PUSH1 0x20 MUL PUSH1 0x20 ADD ADD DUP2 SWAP1 MSTORE POP DUP1 DUP1 PUSH1 0x1 ADD SWAP2 POP POP PUSH2 0xEC5 JUMP JUMPDEST POP DUP1 SWAP2 POP POP SWAP1 JUMP JUMPDEST PUSH0 PUSH1 0x2 SLOAD GT PUSH2 0x1025 JUMPI PUSH1 0x40 MLOAD PUSH32 0x8C379A000000000000000000000000000000000000000000000000000000000 DUP2 MSTORE PUSH1 0x4 ADD PUSH2 0x101C SWAP1 PUSH2 0x2A06 JUMP JUMPDEST PUSH1 0x40 MLOAD DUP1 SWAP2 SUB SWAP1 REVERT JUMPDEST PUSH2 0x102D PUSH2 0x1BDD JUMP JUMPDEST PUSH0 JUMPDEST PUSH1 0x1 DUP1 SLOAD SWAP1 POP DUP2 LT ISZERO PUSH2 0x111F JUMPI PUSH1 0x1 DUP2 DUP2 SLOAD DUP2 LT PUSH2 0x1050 JUMPI PUSH2 0x104F PUSH2 0x23B9 JUMP JUMPDEST JUMPDEST SWAP1 PUSH0 MSTORE PUSH1 0x20 PUSH0 KECCAK256 SWAP1 PUSH1 0x4 MUL ADD PUSH1 0x2 ADD PUSH2 0x1067 PUSH2 0x147C JUMP JUMPDEST SWAP1 DUP1 PUSH1 0x1 DUP2 SLOAD ADD DUP1 DUP3 SSTORE DUP1 SWAP2 POP POP PUSH1 0x1 SWAP1 SUB SWAP1 PUSH0 MSTORE PUSH1 0x20 PUSH0 KECCAK256 SWAP1 PUSH1 0x20 SWAP2 DUP3 DUP3 DIV ADD SWAP2 SWAP1 MOD SWAP1 SWAP2 SWAP1 SWAP2 SWAP1 SWAP2 PUSH2 0x100 EXP DUP2 SLOAD DUP2 PUSH1 0xFF MUL NOT AND SWAP1 DUP4 PUSH1 0xFF AND MUL OR SWAP1 SSTORE POP PUSH1 0x1 DUP2 DUP2 SLOAD DUP2 LT PUSH2 0x10BB JUMPI PUSH2 0x10BA PUSH2 0x23B9 JUMP JUMPDEST JUMPDEST SWAP1 PUSH0 MSTORE PUSH1 0x20 PUSH0 KECCAK256 SWAP1 PUSH1 0x4 MUL ADD PUSH1 0x2 ADD PUSH2 0x10D2 PUSH2 0x147C JUMP JUMPDEST SWAP1 DUP1 PUSH1 0x1 DUP2 SLOAD ADD DUP1 DUP3 SSTORE DUP1 SWAP2 POP POP PUSH1 0x1 SWAP1 SUB SWAP1 PUSH0 MSTORE PUSH1 0x20 PUSH0 KECCAK256 SWAP1 PUSH1 0x20 SWAP2 DUP3 DUP3 DIV ADD SWAP2 SWAP1 MOD SWAP1 SWAP2 SWAP1 SWAP2 SWAP1 SWAP2 PUSH2 0x100 EXP DUP2 SLOAD DUP2 PUSH1 0xFF MUL NOT AND SWAP1 DUP4 PUSH1 0xFF AND MUL OR SWAP1 SSTORE POP DUP1 DUP1 PUSH1 0x1 ADD SWAP2 POP POP PUSH2 0x102F JUMP JUMPDEST POP PUSH1 0x3 PUSH2 0x112A PUSH2 0x147C JUMP JUMPDEST SWAP1 DUP1 PUSH1 0x1 DUP2 SLOAD ADD DUP1 DUP3 SSTORE DUP1 SWAP2 POP POP PUSH1 0x1 SWAP1 SUB SWAP1 PUSH0 MSTORE PUSH1 0x20 PUSH0 KECCAK256 SWAP1 PUSH1 0x20 SWAP2 DUP3 DUP3 DIV ADD SWAP2 SWAP1 MOD SWAP1 SWAP2 SWAP1 SWAP2 SWAP1 SWAP2 PUSH2 0x100 EXP DUP2 SLOAD DUP2 PUSH1 0xFF MUL NOT AND SWAP1 DUP4 PUSH1 0xFF AND MUL OR SWAP1 SSTORE POP PUSH1 0x3 PUSH2 0x1174 PUSH2 0x147C JUMP JUMPDEST SWAP1 DUP1 PUSH1 0x1 DUP2 SLOAD ADD DUP1 DUP3 SSTORE DUP1 SWAP2 POP POP PUSH1 0x1 SWAP1 SUB SWAP1 PUSH0 MSTORE PUSH1 0x20 PUSH0 KECCAK256 SWAP1 PUSH1 0x20 SWAP2 DUP3 DUP3 DIV ADD SWAP2 SWAP1 MOD SWAP1 SWAP2 SWAP1 SWAP2 SWAP1 SWAP2 PUSH2 0x100 EXP DUP2 SLOAD DUP2 PUSH1 0xFF MUL NOT AND SWAP1 DUP4 PUSH1 0xFF AND MUL OR SWAP1 SSTORE POP JUMP JUMPDEST PUSH1 0x4 PUSH1 0x2 SLOAD LT PUSH2 0x11FB JUMPI PUSH1 0x40 MLOAD PUSH32 0x8C379A000000000000000000000000000000000000000000000000000000000 DUP2 MSTORE PUSH1 0x4 ADD PUSH2 0x11F2 SWAP1 PUSH2 0x2A6E JUMP JUMPDEST PUSH1 0x40 MLOAD DUP1 SWAP2 SUB SWAP1 REVERT JUMPDEST DUP1 CALLVALUE EQ PUSH2 0x123D JUMPI PUSH1 0x40 MLOAD PUSH32 0x8C379A000000000000000000000000000000000000000000000000000000000 DUP2 MSTORE PUSH1 0x4 ADD PUSH2 0x1234 SWAP1 PUSH2 0x2AD6 JUMP JUMPDEST PUSH1 0x40 MLOAD DUP1 SWAP2 SUB SWAP1 REVERT JUMPDEST PUSH1 0x1 PUSH1 0x40 MLOAD DUP1 PUSH1 0xA0 ADD PUSH1 0x40 MSTORE DUP1 CALLER PUSH20 0xFFFFFFFFFFFFFFFFFFFFFFFFFFFFFFFFFFFFFFFF AND DUP2 MSTORE PUSH1 0x20 ADD DUP4 DUP2 MSTORE PUSH1 0x20 ADD PUSH0 PUSH8 0xFFFFFFFFFFFFFFFF DUP2 GT ISZERO PUSH2 0x1286 JUMPI PUSH2 0x1285 PUSH2 0x24EA JUMP JUMPDEST JUMPDEST PUSH1 0x40 MLOAD SWAP1 DUP1 DUP3 MSTORE DUP1 PUSH1 0x20 MUL PUSH1 0x20 ADD DUP3 ADD PUSH1 0x40 MSTORE DUP1 ISZERO PUSH2 0x12B4 JUMPI DUP2 PUSH1 0x20 ADD PUSH1 0x20 DUP3 MUL DUP1 CALLDATASIZE DUP4 CALLDATACOPY DUP1 DUP3 ADD SWAP2 POP POP SWAP1 POP JUMPDEST POP DUP2 MSTORE PUSH1 0x20 ADD PUSH1 0x1 ISZERO ISZERO DUP2 MSTORE PUSH1 0x20 ADD PUSH0 ISZERO ISZERO DUP2 MSTORE POP SWAP1 DUP1 PUSH1 0x1 DUP2 SLOAD ADD DUP1 DUP3 SSTORE DUP1 SWAP2 POP POP PUSH1 0x1 SWAP1 SUB SWAP1 PUSH0 MSTORE PUSH1 0x20 PUSH0 KECCAK256 SWAP1 PUSH1 0x4 MUL ADD PUSH0 SWAP1 SWAP2 SWAP1 SWAP2 SWAP1 SWAP2 POP PUSH0 DUP3 ADD MLOAD DUP2 PUSH0 ADD PUSH0 PUSH2 0x100 EXP DUP2 SLOAD DUP2 PUSH20 0xFFFFFFFFFFFFFFFFFFFFFFFFFFFFFFFFFFFFFFFF MUL NOT AND SWAP1 DUP4 PUSH20 0xFFFFFFFFFFFFFFFFFFFFFFFFFFFFFFFFFFFFFFFF AND MUL OR SWAP1 SSTORE POP PUSH1 0x20 DUP3 ADD MLOAD DUP2 PUSH1 0x1 ADD SSTORE PUSH1 0x40 DUP3 ADD MLOAD DUP2 PUSH1 0x2 ADD SWAP1 DUP1 MLOAD SWAP1 PUSH1 0x20 ADD SWAP1 PUSH2 0x1359 SWAP3 SWAP2 SWAP1 PUSH2 0x1E47 JUMP JUMPDEST POP PUSH1 0x60 DUP3 ADD MLOAD DUP2 PUSH1 0x3 ADD PUSH0 PUSH2 0x100 EXP DUP2 SLOAD DUP2 PUSH1 0xFF MUL NOT AND SWAP1 DUP4 ISZERO ISZERO MUL OR SWAP1 SSTORE POP PUSH1 0x80 DUP3 ADD MLOAD DUP2 PUSH1 0x3 ADD PUSH1 0x1 PUSH2 0x100 EXP DUP2 SLOAD DUP2 PUSH1 0xFF MUL NOT AND SWAP1 DUP4 ISZERO ISZERO MUL OR SWAP1 SSTORE POP POP POP PUSH1 0x2 PUSH0 DUP2 SLOAD DUP1 SWAP3 SWAP2 SWAP1 PUSH2 0x13AD SWAP1 PUSH2 0x2AF4 JUMP JUMPDEST SWAP2 SWAP1 POP SSTORE POP POP JUMP JUMPDEST PUSH0 DUP1 PUSH0 SWAP1 POP JUMPDEST PUSH1 0x1 DUP1 SLOAD SWAP1 POP DUP2 LT ISZERO PUSH2 0x1452 JUMPI DUP3 PUSH20 0xFFFFFFFFFFFFFFFFFFFFFFFFFFFFFFFFFFFFFFFF AND PUSH1 0x1 DUP3 DUP2 SLOAD DUP2 LT PUSH2 0x13F3 JUMPI PUSH2 0x13F2 PUSH2 0x23B9 JUMP JUMPDEST JUMPDEST SWAP1 PUSH0 MSTORE PUSH1 0x20 PUSH0 KECCAK256 SWAP1 PUSH1 0x4 MUL ADD PUSH0 ADD PUSH0 SWAP1 SLOAD SWAP1 PUSH2 0x100 EXP SWAP1 DIV PUSH20 0xFFFFFFFFFFFFFFFFFFFFFFFFFFFFFFFFFFFFFFFF AND PUSH20 0xFFFFFFFFFFFFFFFFFFFFFFFFFFFFFFFFFFFFFFFF AND SUB PUSH2 0x1445 JUMPI DUP1 SWAP2 POP POP PUSH2 0x1477 JUMP JUMPDEST DUP1 DUP1 PUSH1 0x1 ADD SWAP2 POP POP PUSH2 0x13BB JUMP JUMPDEST POP PUSH32 0xFFFFFFFFFFFFFFFFFFFFFFFFFFFFFFFFFFFFFFFFFFFFFFFFFFFFFFFFFFFFFFFF SWAP1 POP JUMPDEST SWAP2 SWAP1 POP JUMP JUMPDEST PUSH0 DUP1 PUSH0 DUP1 SLOAD SWAP1 POP GT PUSH2 0x14C3 JUMPI PUSH1 0x40 MLOAD PUSH32 0x8C379A000000000000000000000000000000000000000000000000000000000 DUP2 MSTORE PUSH1 0x4 ADD PUSH2 0x14BA SWAP1 PUSH2 0x2B85 JUMP JUMPDEST PUSH1 0x40 MLOAD DUP1 SWAP2 SUB SWAP1 REVERT JUMPDEST PUSH0 DUP1 PUSH1 0x1 PUSH0 DUP1 SLOAD SWAP1 POP PUSH2 0x14D6 SWAP2 SWAP1 PUSH2 0x2BA3 JUMP JUMPDEST DUP2 SLOAD DUP2 LT PUSH2 0x14E7 JUMPI PUSH2 0x14E6 PUSH2 0x23B9 JUMP JUMPDEST JUMPDEST SWAP1 PUSH0 MSTORE PUSH1 0x20 PUSH0 KECCAK256 SWAP1 PUSH1 0x20 SWAP2 DUP3 DUP3 DIV ADD SWAP2 SWAP1 MOD SWAP1 SLOAD SWAP1 PUSH2 0x100 EXP SWAP1 DIV PUSH1 0xFF AND SWAP1 POP PUSH0 DUP1 SLOAD DUP1 PUSH2 0x1518 JUMPI PUSH2 0x1517 PUSH2 0x2BD6 JUMP JUMPDEST JUMPDEST PUSH1 0x1 SWAP1 SUB DUP2 DUP2 SWAP1 PUSH0 MSTORE PUSH1 0x20 PUSH0 KECCAK256 SWAP1 PUSH1 0x20 SWAP2 DUP3 DUP3 DIV ADD SWAP2 SWAP1 MOD PUSH2 0x100 EXP DUP2 SLOAD SWAP1 PUSH1 0xFF MUL NOT AND SWAP1 SSTORE SWAP1 SSTORE DUP1 SWAP2 POP POP SWAP1 JUMP JUMPDEST PUSH0 DUP1 PUSH0 SWAP1 POP PUSH0 DUP1 JUMPDEST DUP5 MLOAD DUP2 LT ISZERO PUSH2 0x15D8 JUMPI PUSH0 PUSH1 0xD DUP7 DUP4 DUP2 MLOAD DUP2 LT PUSH2 0x156E JUMPI PUSH2 0x156D PUSH2 0x23B9 JUMP JUMPDEST JUMPDEST PUSH1 0x20 MUL PUSH1 0x20 ADD ADD MLOAD PUSH2 0x1580 SWAP2 SWAP1 PUSH2 0x2C30 JUMP JUMPDEST SWAP1 POP PUSH0 DUP2 PUSH1 0xFF AND SUB PUSH2 0x1591 JUMPI PUSH1 0xD SWAP1 POP JUMPDEST PUSH1 0xA DUP2 PUSH1 0xFF AND GT ISZERO PUSH2 0x15A2 JUMPI PUSH1 0xA SWAP1 POP JUMPDEST PUSH1 0x1 DUP2 PUSH1 0xFF AND SUB PUSH2 0x15BC JUMPI DUP3 DUP1 PUSH2 0x15B8 SWAP1 PUSH2 0x2C60 JUMP JUMPDEST SWAP4 POP POP JUMPDEST DUP1 DUP5 PUSH2 0x15C8 SWAP2 SWAP1 PUSH2 0x2C88 JUMP JUMPDEST SWAP4 POP POP DUP1 DUP1 PUSH1 0x1 ADD SWAP2 POP POP PUSH2 0x154F JUMP JUMPDEST POP JUMPDEST PUSH1 0xB DUP3 PUSH1 0xFF AND GT ISZERO DUP1 ISZERO PUSH2 0x15F0 JUMPI POP PUSH0 DUP2 PUSH1 0xFF AND GT JUMPDEST ISZERO PUSH2 0x1617 JUMPI PUSH1 0xA DUP3 PUSH2 0x1602 SWAP2 SWAP1 PUSH2 0x2C88 JUMP JUMPDEST SWAP2 POP DUP1 DUP1 PUSH2 0x160F SWAP1 PUSH2 0x2CBC JUMP JUMPDEST SWAP2 POP POP PUSH2 0x15DA JUMP JUMPDEST DUP2 SWAP3 POP POP POP SWAP2 SWAP1 POP JUMP JUMPDEST PUSH1 0x60 PUSH0 DUP3 SWAP1 POP PUSH0 JUMPDEST DUP5 MLOAD DUP2 LT ISZERO PUSH2 0x180A JUMPI PUSH0 PUSH1 0xD DUP7 DUP4 DUP2 MLOAD DUP2 LT PUSH2 0x1648 JUMPI PUSH2 0x1647 PUSH2 0x23B9 JUMP JUMPDEST JUMPDEST PUSH1 0x20 MUL PUSH1 0x20 ADD ADD MLOAD PUSH2 0x165A SWAP2 SWAP1 PUSH2 0x2C30 JUMP JUMPDEST SWAP1 POP PUSH0 DUP2 PUSH1 0xFF AND SUB PUSH2 0x166B JUMPI PUSH1 0xD SWAP1 POP JUMPDEST PUSH1 0x60 PUSH1 0x1 DUP3 PUSH1 0xFF AND SUB PUSH2 0x16B5 JUMPI PUSH1 0x40 MLOAD DUP1 PUSH1 0x40 ADD PUSH1 0x40 MSTORE DUP1 PUSH1 0x1 DUP2 MSTORE PUSH1 0x20 ADD PUSH32 0x4100000000000000000000000000000000000000000000000000000000000000 DUP2 MSTORE POP SWAP1 POP PUSH2 0x179F JUMP JUMPDEST PUSH1 0xB DUP3 PUSH1 0xFF AND SUB PUSH2 0x16FD JUMPI PUSH1 0x40 MLOAD DUP1 PUSH1 0x40 ADD PUSH1 0x40 MSTORE DUP1 PUSH1 0x1 DUP2 MSTORE PUSH1 0x20 ADD PUSH32 0x4A00000000000000000000000000000000000000000000000000000000000000 DUP2 MSTORE POP SWAP1 POP PUSH2 0x179E JUMP JUMPDEST PUSH1 0xC DUP3 PUSH1 0xFF AND SUB PUSH2 0x1745 JUMPI PUSH1 0x40 MLOAD DUP1 PUSH1 0x40 ADD PUSH1 0x40 MSTORE DUP1 PUSH1 0x1 DUP2 MSTORE PUSH1 0x20 ADD PUSH32 0x5100000000000000000000000000000000000000000000000000000000000000 DUP2 MSTORE POP SWAP1 POP PUSH2 0x179D JUMP JUMPDEST PUSH1 0xD DUP3 PUSH1 0xFF AND SUB PUSH2 0x178D JUMPI PUSH1 0x40 MLOAD DUP1 PUSH1 0x40 ADD PUSH1 0x40 MSTORE DUP1 PUSH1 0x1 DUP2 MSTORE PUSH1 0x20 ADD PUSH32 0x4B00000000000000000000000000000000000000000000000000000000000000 DUP2 MSTORE POP SWAP1 POP PUSH2 0x179C JUMP JUMPDEST PUSH2 0x1799 DUP3 PUSH1 0xFF AND PUSH2 0x1A7F JUMP JUMPDEST SWAP1 POP JUMPDEST JUMPDEST JUMPDEST JUMPDEST DUP4 DUP2 PUSH1 0x40 MLOAD PUSH1 0x20 ADD PUSH2 0x17B2 SWAP3 SWAP2 SWAP1 PUSH2 0x2CE3 JUMP JUMPDEST PUSH1 0x40 MLOAD PUSH1 0x20 DUP2 DUP4 SUB SUB DUP2 MSTORE SWAP1 PUSH1 0x40 MSTORE SWAP4 POP PUSH1 0x1 DUP8 MLOAD PUSH2 0x17D1 SWAP2 SWAP1 PUSH2 0x2BA3 JUMP JUMPDEST DUP4 LT ISZERO PUSH2 0x17FB JUMPI DUP4 PUSH1 0x40 MLOAD PUSH1 0x20 ADD PUSH2 0x17E9 SWAP2 SWAP1 PUSH2 0x2D50 JUMP JUMPDEST PUSH1 0x40 MLOAD PUSH1 0x20 DUP2 DUP4 SUB SUB DUP2 MSTORE SWAP1 PUSH1 0x40 MSTORE SWAP4 POP JUMPDEST POP POP DUP1 DUP1 PUSH1 0x1 ADD SWAP2 POP POP PUSH2 0x1629 JUMP JUMPDEST POP DUP1 SWAP2 POP POP SWAP3 SWAP2 POP POP JUMP JUMPDEST PUSH1 0x60 PUSH0 DUP1 JUMPDEST DUP4 MLOAD DUP2 LT ISZERO PUSH2 0x18AD JUMPI PUSH1 0x4 PUSH0 SWAP1 SLOAD SWAP1 PUSH2 0x100 EXP SWAP1 DIV PUSH20 0xFFFFFFFFFFFFFFFFFFFFFFFFFFFFFFFFFFFFFFFF AND PUSH20 0xFFFFFFFFFFFFFFFFFFFFFFFFFFFFFFFFFFFFFFFF AND DUP5 DUP3 DUP2 MLOAD DUP2 LT PUSH2 0x186E JUMPI PUSH2 0x186D PUSH2 0x23B9 JUMP JUMPDEST JUMPDEST PUSH1 0x20 MUL PUSH1 0x20 ADD ADD MLOAD PUSH20 0xFFFFFFFFFFFFFFFFFFFFFFFFFFFFFFFFFFFFFFFF AND EQ PUSH2 0x18A0 JUMPI DUP2 DUP1 PUSH2 0x189C SWAP1 PUSH2 0x2AF4 JUMP JUMPDEST SWAP3 POP POP JUMPDEST DUP1 DUP1 PUSH1 0x1 ADD SWAP2 POP POP PUSH2 0x181A JUMP JUMPDEST POP PUSH0 DUP2 SUB PUSH2 0x18F3 JUMPI PUSH1 0x40 MLOAD DUP1 PUSH1 0x40 ADD PUSH1 0x40 MSTORE DUP1 PUSH1 0xF DUP2 MSTORE PUSH1 0x20 ADD PUSH32 0x4E6F20706C617965727320776F6E2E0000000000000000000000000000000000 DUP2 MSTORE POP SWAP2 POP POP PUSH2 0x1A4F JUMP JUMPDEST PUSH0 PUSH1 0x40 MLOAD DUP1 PUSH1 0x20 ADD PUSH1 0x40 MSTORE DUP1 PUSH0 DUP2 MSTORE POP SWAP1 POP PUSH0 JUMPDEST DUP5 MLOAD DUP2 LT ISZERO PUSH2 0x1A48 JUMPI PUSH1 0x4 PUSH0 SWAP1 SLOAD SWAP1 PUSH2 0x100 EXP SWAP1 DIV PUSH20 0xFFFFFFFFFFFFFFFFFFFFFFFFFFFFFFFFFFFFFFFF AND PUSH20 0xFFFFFFFFFFFFFFFFFFFFFFFFFFFFFFFFFFFFFFFF AND DUP6 DUP3 DUP2 MLOAD DUP2 LT PUSH2 0x195B JUMPI PUSH2 0x195A PUSH2 0x23B9 JUMP JUMPDEST JUMPDEST PUSH1 0x20 MUL PUSH1 0x20 ADD ADD MLOAD PUSH20 0xFFFFFFFFFFFFFFFFFFFFFFFFFFFFFFFFFFFFFFFF AND EQ PUSH2 0x1A3B JUMPI PUSH0 PUSH2 0x19A2 DUP7 DUP4 DUP2 MLOAD DUP2 LT PUSH2 0x1995 JUMPI PUSH2 0x1994 PUSH2 0x23B9 JUMP JUMPDEST JUMPDEST PUSH1 0x20 MUL PUSH1 0x20 ADD ADD MLOAD PUSH2 0x13B5 JUMP JUMPDEST SWAP1 POP PUSH32 0xFFFFFFFFFFFFFFFFFFFFFFFFFFFFFFFFFFFFFFFFFFFFFFFFFFFFFFFFFFFFFFFF DUP2 EQ PUSH2 0x1A39 JUMPI PUSH0 PUSH2 0x19E1 PUSH1 0x1 DUP4 PUSH2 0x19DC SWAP2 SWAP1 PUSH2 0x288F JUMP JUMPDEST PUSH2 0x1A7F JUMP JUMPDEST PUSH1 0x40 MLOAD PUSH1 0x20 ADD PUSH2 0x19F1 SWAP2 SWAP1 PUSH2 0x2D71 JUMP JUMPDEST PUSH1 0x40 MLOAD PUSH1 0x20 DUP2 DUP4 SUB SUB DUP2 MSTORE SWAP1 PUSH1 0x40 MSTORE SWAP1 POP PUSH0 DUP5 MLOAD SUB PUSH2 0x1A12 JUMPI DUP1 SWAP4 POP PUSH2 0x1A37 JUMP JUMPDEST DUP4 DUP2 PUSH1 0x40 MLOAD PUSH1 0x20 ADD PUSH2 0x1A25 SWAP3 SWAP2 SWAP1 PUSH2 0x2D92 JUMP JUMPDEST PUSH1 0x40 MLOAD PUSH1 0x20 DUP2 DUP4 SUB SUB DUP2 MSTORE SWAP1 PUSH1 0x40 MSTORE SWAP4 POP JUMPDEST POP JUMPDEST POP JUMPDEST DUP1 DUP1 PUSH1 0x1 ADD SWAP2 POP POP PUSH2 0x1907 JUMP JUMPDEST POP DUP1 SWAP3 POP POP POP JUMPDEST SWAP2 SWAP1 POP JUMP JUMPDEST PUSH1 0x1 PUSH0 PUSH2 0x1A61 SWAP2 SWAP1 PUSH2 0x1EE9 JUMP JUMPDEST PUSH1 0x3 PUSH0 PUSH2 0x1A6E SWAP2 SWAP1 PUSH2 0x1F0A JUMP JUMPDEST PUSH0 PUSH1 0x2 DUP2 SWAP1 SSTORE POP PUSH2 0x1A7D PUSH2 0x1D58 JUMP JUMPDEST JUMP JUMPDEST PUSH1 0x60 PUSH0 DUP3 SUB PUSH2 0x1AC5 JUMPI PUSH1 0x40 MLOAD DUP1 PUSH1 0x40 ADD PUSH1 0x40 MSTORE DUP1 PUSH1 0x1 DUP2 MSTORE PUSH1 0x20 ADD PUSH32 0x3000000000000000000000000000000000000000000000000000000000000000 DUP2 MSTORE POP SWAP1 POP PUSH2 0x1BD8 JUMP JUMPDEST PUSH0 DUP3 SWAP1 POP PUSH0 JUMPDEST PUSH0 DUP3 EQ PUSH2 0x1AF4 JUMPI DUP1 DUP1 PUSH2 0x1ADD SWAP1 PUSH2 0x2AF4 JUMP JUMPDEST SWAP2 POP POP PUSH1 0xA DUP3 PUSH2 0x1AED SWAP2 SWAP1 PUSH2 0x2DC0 JUMP JUMPDEST SWAP2 POP PUSH2 0x1ACB JUMP JUMPDEST PUSH0 DUP2 PUSH8 0xFFFFFFFFFFFFFFFF DUP2 GT ISZERO PUSH2 0x1B0F JUMPI PUSH2 0x1B0E PUSH2 0x24EA JUMP JUMPDEST JUMPDEST PUSH1 0x40 MLOAD SWAP1 DUP1 DUP3 MSTORE DUP1 PUSH1 0x1F ADD PUSH1 0x1F NOT AND PUSH1 0x20 ADD DUP3 ADD PUSH1 0x40 MSTORE DUP1 ISZERO PUSH2 0x1B41 JUMPI DUP2 PUSH1 0x20 ADD PUSH1 0x1 DUP3 MUL DUP1 CALLDATASIZE DUP4 CALLDATACOPY DUP1 DUP3 ADD SWAP2 POP POP SWAP1 POP JUMPDEST POP SWAP1 POP PUSH0 DUP3 SWAP1 POP DUP6 SWAP4 POP JUMPDEST PUSH0 DUP5 EQ PUSH2 0x1BD0 JUMPI PUSH1 0xA DUP5 PUSH2 0x1B60 SWAP2 SWAP1 PUSH2 0x2DF0 JUMP JUMPDEST PUSH1 0x30 PUSH2 0x1B6C SWAP2 SWAP1 PUSH2 0x288F JUMP JUMPDEST PUSH1 0xF8 SHL DUP3 DUP3 PUSH2 0x1B7A SWAP1 PUSH2 0x2E20 JUMP JUMPDEST SWAP3 POP DUP3 DUP2 MLOAD DUP2 LT PUSH2 0x1B8E JUMPI PUSH2 0x1B8D PUSH2 0x23B9 JUMP JUMPDEST JUMPDEST PUSH1 0x20 ADD ADD SWAP1 PUSH31 0xFFFFFFFFFFFFFFFFFFFFFFFFFFFFFFFFFFFFFFFFFFFFFFFFFFFFFFFFFFFFFF NOT AND SWAP1 DUP2 PUSH0 BYTE SWAP1 MSTORE8 POP PUSH1 0xA DUP5 PUSH2 0x1BC9 SWAP2 SWAP1 PUSH2 0x2DC0 JUMP JUMPDEST SWAP4 POP PUSH2 0x1B4C JUMP JUMPDEST DUP2 SWAP5 POP POP POP POP POP JUMPDEST SWAP2 SWAP1 POP JUMP JUMPDEST PUSH0 TIMESTAMP PREVRANDAO PUSH1 0x1 NUMBER PUSH2 0x1BED SWAP2 SWAP1 PUSH2 0x2BA3 JUMP JUMPDEST BLOCKHASH PUSH1 0x40 MLOAD PUSH1 0x20 ADD PUSH2 0x1C00 SWAP4 SWAP3 SWAP2 SWAP1 PUSH2 0x2E90 JUMP JUMPDEST PUSH1 0x40 MLOAD PUSH1 0x20 DUP2 DUP4 SUB SUB DUP2 MSTORE SWAP1 PUSH1 0x40 MSTORE DUP1 MLOAD SWAP1 PUSH1 0x20 ADD KECCAK256 PUSH0 SHR SWAP1 POP PUSH0 JUMPDEST PUSH0 DUP1 SLOAD SWAP1 POP DUP2 LT ISZERO PUSH2 0x1D54 JUMPI PUSH0 DUP1 DUP1 SLOAD SWAP1 POP DUP4 PUSH2 0x1C39 SWAP2 SWAP1 PUSH2 0x2DF0 JUMP JUMPDEST SWAP1 POP PUSH0 DUP2 DUP2 SLOAD DUP2 LT PUSH2 0x1C4E JUMPI PUSH2 0x1C4D PUSH2 0x23B9 JUMP JUMPDEST JUMPDEST SWAP1 PUSH0 MSTORE PUSH1 0x20 PUSH0 KECCAK256 SWAP1 PUSH1 0x20 SWAP2 DUP3 DUP3 DIV ADD SWAP2 SWAP1 MOD SWAP1 SLOAD SWAP1 PUSH2 0x100 EXP SWAP1 DIV PUSH1 0xFF AND PUSH0 DUP4 DUP2 SLOAD DUP2 LT PUSH2 0x1C7F JUMPI PUSH2 0x1C7E PUSH2 0x23B9 JUMP JUMPDEST JUMPDEST SWAP1 PUSH0 MSTORE PUSH1 0x20 PUSH0 KECCAK256 SWAP1 PUSH1 0x20 SWAP2 DUP3 DUP3 DIV ADD SWAP2 SWAP1 MOD SWAP1 SLOAD SWAP1 PUSH2 0x100 EXP SWAP1 DIV PUSH1 0xFF AND PUSH0 DUP5 DUP2 SLOAD DUP2 LT PUSH2 0x1CB0 JUMPI PUSH2 0x1CAF PUSH2 0x23B9 JUMP JUMPDEST JUMPDEST SWAP1 PUSH0 MSTORE PUSH1 0x20 PUSH0 KECCAK256 SWAP1 PUSH1 0x20 SWAP2 DUP3 DUP3 DIV ADD SWAP2 SWAP1 MOD PUSH0 DUP6 DUP2 SLOAD DUP2 LT PUSH2 0x1CD5 JUMPI PUSH2 0x1CD4 PUSH2 0x23B9 JUMP JUMPDEST JUMPDEST SWAP1 PUSH0 MSTORE PUSH1 0x20 PUSH0 KECCAK256 SWAP1 PUSH1 0x20 SWAP2 DUP3 DUP3 DIV ADD SWAP2 SWAP1 MOD DUP5 SWAP2 SWAP1 PUSH2 0x100 EXP DUP2 SLOAD DUP2 PUSH1 0xFF MUL NOT AND SWAP1 DUP4 PUSH1 0xFF AND MUL OR SWAP1 SSTORE POP DUP4 SWAP2 SWAP1 PUSH2 0x100 EXP DUP2 SLOAD DUP2 PUSH1 0xFF MUL NOT AND SWAP1 DUP4 PUSH1 0xFF AND MUL OR SWAP1 SSTORE POP POP POP DUP3 PUSH1 0x40 MLOAD PUSH1 0x20 ADD PUSH2 0x1D2C SWAP2 SWAP1 PUSH2 0x2ECC JUMP JUMPDEST PUSH1 0x40 MLOAD PUSH1 0x20 DUP2 DUP4 SUB SUB DUP2 MSTORE SWAP1 PUSH1 0x40 MSTORE DUP1 MLOAD SWAP1 PUSH1 0x20 ADD KECCAK256 PUSH0 SHR SWAP3 POP POP DUP1 DUP1 PUSH1 0x1 ADD SWAP2 POP POP PUSH2 0x1C1C JUMP JUMPDEST POP POP JUMP JUMPDEST PUSH0 DUP1 PUSH2 0x1D64 SWAP2 SWAP1 PUSH2 0x1F0A JUMP JUMPDEST PUSH0 PUSH1 0x1 SWAP1 POP JUMPDEST PUSH1 0x34 DUP2 PUSH1 0xFF AND GT PUSH2 0x1DCA JUMPI PUSH0 DUP2 SWAP1 DUP1 PUSH1 0x1 DUP2 SLOAD ADD DUP1 DUP3 SSTORE DUP1 SWAP2 POP POP PUSH1 0x1 SWAP1 SUB SWAP1 PUSH0 MSTORE PUSH1 0x20 PUSH0 KECCAK256 SWAP1 PUSH1 0x20 SWAP2 DUP3 DUP3 DIV ADD SWAP2 SWAP1 MOD SWAP1 SWAP2 SWAP1 SWAP2 SWAP1 SWAP2 PUSH2 0x100 EXP DUP2 SLOAD DUP2 PUSH1 0xFF MUL NOT AND SWAP1 DUP4 PUSH1 0xFF AND MUL OR SWAP1 SSTORE POP DUP1 DUP1 PUSH2 0x1DC2 SWAP1 PUSH2 0x2C60 JUMP JUMPDEST SWAP2 POP POP PUSH2 0x1D6A JUMP JUMPDEST POP JUMP JUMPDEST POP DUP1 SLOAD PUSH0 DUP3 SSTORE SWAP1 PUSH0 MSTORE PUSH1 0x20 PUSH0 KECCAK256 SWAP1 DUP2 ADD SWAP1 PUSH2 0x1DE8 SWAP2 SWAP1 PUSH2 0x1F2F JUMP JUMPDEST POP JUMP JUMPDEST DUP3 DUP1 SLOAD DUP3 DUP3 SSTORE SWAP1 PUSH0 MSTORE PUSH1 0x20 PUSH0 KECCAK256 SWAP1 PUSH1 0x1F ADD PUSH1 0x20 SWAP1 DIV DUP2 ADD SWAP3 DUP3 ISZERO PUSH2 0x1E36 JUMPI PUSH0 MSTORE PUSH1 0x20 PUSH0 KECCAK256 SWAP2 PUSH1 0x1F ADD PUSH1 0x20 SWAP1 DIV DUP3 ADD JUMPDEST DUP3 DUP2 GT ISZERO PUSH2 0x1E35 JUMPI DUP3 SLOAD DUP3 SSTORE SWAP2 PUSH1 0x1 ADD SWAP2 SWAP1 PUSH1 0x1 ADD SWAP1 PUSH2 0x1E1A JUMP JUMPDEST JUMPDEST POP SWAP1 POP PUSH2 0x1E43 SWAP2 SWAP1 PUSH2 0x1F2F JUMP JUMPDEST POP SWAP1 JUMP JUMPDEST DUP3 DUP1 SLOAD DUP3 DUP3 SSTORE SWAP1 PUSH0 MSTORE PUSH1 0x20 PUSH0 KECCAK256 SWAP1 PUSH1 0x1F ADD PUSH1 0x20 SWAP1 DIV DUP2 ADD SWAP3 DUP3 ISZERO PUSH2 0x1ED8 JUMPI SWAP2 PUSH1 0x20 MUL DUP3 ADD PUSH0 JUMPDEST DUP4 DUP3 GT ISZERO PUSH2 0x1EAA JUMPI DUP4 MLOAD DUP4 DUP3 PUSH2 0x100 EXP DUP2 SLOAD DUP2 PUSH1 0xFF MUL NOT AND SWAP1 DUP4 PUSH1 0xFF AND MUL OR SWAP1 SSTORE POP SWAP3 PUSH1 0x20 ADD SWAP3 PUSH1 0x1 ADD PUSH1 0x20 DUP2 PUSH0 ADD DIV SWAP3 DUP4 ADD SWAP3 PUSH1 0x1 SUB MUL PUSH2 0x1E6D JUMP JUMPDEST DUP1 ISZERO PUSH2 0x1ED6 JUMPI DUP3 DUP2 PUSH2 0x100 EXP DUP2 SLOAD SWAP1 PUSH1 0xFF MUL NOT AND SWAP1 SSTORE PUSH1 0x1 ADD PUSH1 0x20 DUP2 PUSH0 ADD DIV SWAP3 DUP4 ADD SWAP3 PUSH1 0x1 SUB MUL PUSH2 0x1EAA JUMP JUMPDEST POP JUMPDEST POP SWAP1 POP PUSH2 0x1EE5 SWAP2 SWAP1 PUSH2 0x1F2F JUMP JUMPDEST POP SWAP1 JUMP JUMPDEST POP DUP1 SLOAD PUSH0 DUP3 SSTORE PUSH1 0x4 MUL SWAP1 PUSH0 MSTORE PUSH1 0x20 PUSH0 KECCAK256 SWAP1 DUP2 ADD SWAP1 PUSH2 0x1F07 SWAP2 SWAP1 PUSH2 0x1F4A JUMP JUMPDEST POP JUMP JUMPDEST POP DUP1 SLOAD PUSH0 DUP3 SSTORE PUSH1 0x1F ADD PUSH1 0x20 SWAP1 DIV SWAP1 PUSH0 MSTORE PUSH1 0x20 PUSH0 KECCAK256 SWAP1 DUP2 ADD SWAP1 PUSH2 0x1F2C SWAP2 SWAP1 PUSH2 0x1F2F JUMP JUMPDEST POP JUMP JUMPDEST JUMPDEST DUP1 DUP3 GT ISZERO PUSH2 0x1F46 JUMPI PUSH0 DUP2 PUSH0 SWAP1 SSTORE POP PUSH1 0x1 ADD PUSH2 0x1F30 JUMP JUMPDEST POP SWAP1 JUMP JUMPDEST JUMPDEST DUP1 DUP3 GT ISZERO PUSH2 0x1FBF JUMPI PUSH0 DUP1 DUP3 ADD PUSH0 PUSH2 0x100 EXP DUP2 SLOAD SWAP1 PUSH20 0xFFFFFFFFFFFFFFFFFFFFFFFFFFFFFFFFFFFFFFFF MUL NOT AND SWAP1 SSTORE PUSH1 0x1 DUP3 ADD PUSH0 SWAP1 SSTORE PUSH1 0x2 DUP3 ADD PUSH0 PUSH2 0x1F8F SWAP2 SWAP1 PUSH2 0x1F0A JUMP JUMPDEST PUSH1 0x3 DUP3 ADD PUSH0 PUSH2 0x100 EXP DUP2 SLOAD SWAP1 PUSH1 0xFF MUL NOT AND SWAP1 SSTORE PUSH1 0x3 DUP3 ADD PUSH1 0x1 PUSH2 0x100 EXP DUP2 SLOAD SWAP1 PUSH1 0xFF MUL NOT AND SWAP1 SSTORE POP PUSH1 0x4 ADD PUSH2 0x1F4B JUMP JUMPDEST POP SWAP1 JUMP JUMPDEST PUSH0 DUP2 MLOAD SWAP1 POP SWAP2 SWAP1 POP JUMP JUMPDEST PUSH0 DUP3 DUP3 MSTORE PUSH1 0x20 DUP3 ADD SWAP1 POP SWAP3 SWAP2 POP POP JUMP JUMPDEST DUP3 DUP2 DUP4 MCOPY PUSH0 DUP4 DUP4 ADD MSTORE POP POP POP JUMP JUMPDEST PUSH0 PUSH1 0x1F NOT PUSH1 0x1F DUP4 ADD AND SWAP1 POP SWAP2 SWAP1 POP JUMP JUMPDEST PUSH0 PUSH2 0x2005 DUP3 PUSH2 0x1FC3 JUMP JUMPDEST PUSH2 0x200F DUP2 DUP6 PUSH2 0x1FCD JUMP JUMPDEST SWAP4 POP PUSH2 0x201F DUP2 DUP6 PUSH1 0x20 DUP7 ADD PUSH2 0x1FDD JUMP JUMPDEST PUSH2 0x2028 DUP2 PUSH2 0x1FEB JUMP JUMPDEST DUP5 ADD SWAP2 POP POP SWAP3 SWAP2 POP POP JUMP JUMPDEST PUSH0 PUSH1 0x20 DUP3 ADD SWAP1 POP DUP2 DUP2 SUB PUSH0 DUP4 ADD MSTORE PUSH2 0x204B DUP2 DUP5 PUSH2 0x1FFB JUMP JUMPDEST SWAP1 POP SWAP3 SWAP2 POP POP JUMP JUMPDEST PUSH0 DUP2 MLOAD SWAP1 POP SWAP2 SWAP1 POP JUMP JUMPDEST PUSH0 DUP3 DUP3 MSTORE PUSH1 0x20 DUP3 ADD SWAP1 POP SWAP3 SWAP2 POP POP JUMP JUMPDEST PUSH0 DUP2 SWAP1 POP PUSH1 0x20 DUP3 ADD SWAP1 POP SWAP2 SWAP1 POP JUMP JUMPDEST PUSH0 PUSH20 0xFFFFFFFFFFFFFFFFFFFFFFFFFFFFFFFFFFFFFFFF DUP3 AND SWAP1 POP SWAP2 SWAP1 POP JUMP JUMPDEST PUSH0 PUSH2 0x20A5 DUP3 PUSH2 0x207C JUMP JUMPDEST SWAP1 POP SWAP2 SWAP1 POP JUMP JUMPDEST PUSH2 0x20B5 DUP2 PUSH2 0x209B JUMP JUMPDEST DUP3 MSTORE POP POP JUMP JUMPDEST PUSH0 PUSH2 0x20C6 DUP4 DUP4 PUSH2 0x20AC JUMP JUMPDEST PUSH1 0x20 DUP4 ADD SWAP1 POP SWAP3 SWAP2 POP POP JUMP JUMPDEST PUSH0 PUSH1 0x20 DUP3 ADD SWAP1 POP SWAP2 SWAP1 POP JUMP JUMPDEST PUSH0 PUSH2 0x20E8 DUP3 PUSH2 0x2053 JUMP JUMPDEST PUSH2 0x20F2 DUP2 DUP6 PUSH2 0x205D JUMP JUMPDEST SWAP4 POP PUSH2 0x20FD DUP4 PUSH2 0x206D JUMP JUMPDEST DUP1 PUSH0 JUMPDEST DUP4 DUP2 LT ISZERO PUSH2 0x212D JUMPI DUP2 MLOAD PUSH2 0x2114 DUP9 DUP3 PUSH2 0x20BB JUMP JUMPDEST SWAP8 POP PUSH2 0x211F DUP4 PUSH2 0x20D2 JUMP JUMPDEST SWAP3 POP POP PUSH1 0x1 DUP2 ADD SWAP1 POP PUSH2 0x2100 JUMP JUMPDEST POP DUP6 SWAP4 POP POP POP POP SWAP3 SWAP2 POP POP JUMP JUMPDEST PUSH0 PUSH1 0x40 DUP3 ADD SWAP1 POP DUP2 DUP2 SUB PUSH0 DUP4 ADD MSTORE PUSH2 0x2152 DUP2 DUP6 PUSH2 0x1FFB JUMP JUMPDEST SWAP1 POP DUP2 DUP2 SUB PUSH1 0x20 DUP4 ADD MSTORE PUSH2 0x2166 DUP2 DUP5 PUSH2 0x20DE JUMP JUMPDEST SWAP1 POP SWAP4 SWAP3 POP POP POP JUMP JUMPDEST PUSH0 DUP1 REVERT JUMPDEST PUSH0 DUP2 SWAP1 POP SWAP2 SWAP1 POP JUMP JUMPDEST PUSH2 0x2185 DUP2 PUSH2 0x2173 JUMP JUMPDEST DUP2 EQ PUSH2 0x218F JUMPI PUSH0 DUP1 REVERT JUMPDEST POP JUMP JUMPDEST PUSH0 DUP2 CALLDATALOAD SWAP1 POP PUSH2 0x21A0 DUP2 PUSH2 0x217C JUMP JUMPDEST SWAP3 SWAP2 POP POP JUMP JUMPDEST PUSH0 PUSH1 0x20 DUP3 DUP5 SUB SLT ISZERO PUSH2 0x21BB JUMPI PUSH2 0x21BA PUSH2 0x216F JUMP JUMPDEST JUMPDEST PUSH0 PUSH2 0x21C8 DUP5 DUP3 DUP6 ADD PUSH2 0x2192 JUMP JUMPDEST SWAP2 POP POP SWAP3 SWAP2 POP POP JUMP JUMPDEST PUSH0 DUP2 MLOAD SWAP1 POP SWAP2 SWAP1 POP JUMP JUMPDEST PUSH0 DUP3 DUP3 MSTORE PUSH1 0x20 DUP3 ADD SWAP1 POP SWAP3 SWAP2 POP POP JUMP JUMPDEST PUSH0 DUP2 SWAP1 POP PUSH1 0x20 DUP3 ADD SWAP1 POP SWAP2 SWAP1 POP JUMP JUMPDEST PUSH0 DUP3 DUP3 MSTORE PUSH1 0x20 DUP3 ADD SWAP1 POP SWAP3 SWAP2 POP POP JUMP JUMPDEST PUSH0 PUSH2 0x2214 DUP3 PUSH2 0x1FC3 JUMP JUMPDEST PUSH2 0x221E DUP2 DUP6 PUSH2 0x21FA JUMP JUMPDEST SWAP4 POP PUSH2 0x222E DUP2 DUP6 PUSH1 0x20 DUP7 ADD PUSH2 0x1FDD JUMP JUMPDEST PUSH2 0x2237 DUP2 PUSH2 0x1FEB JUMP JUMPDEST DUP5 ADD SWAP2 POP POP SWAP3 SWAP2 POP POP JUMP JUMPDEST PUSH0 PUSH2 0x224D DUP4 DUP4 PUSH2 0x220A JUMP JUMPDEST SWAP1 POP SWAP3 SWAP2 POP POP JUMP JUMPDEST PUSH0 PUSH1 0x20 DUP3 ADD SWAP1 POP SWAP2 SWAP1 POP JUMP JUMPDEST PUSH0 PUSH2 0x226B DUP3 PUSH2 0x21D1 JUMP JUMPDEST PUSH2 0x2275 DUP2 DUP6 PUSH2 0x21DB JUMP JUMPDEST SWAP4 POP DUP4 PUSH1 0x20 DUP3 MUL DUP6 ADD PUSH2 0x2287 DUP6 PUSH2 0x21EB JUMP JUMPDEST DUP1 PUSH0 JUMPDEST DUP6 DUP2 LT ISZERO PUSH2 0x22C2 JUMPI DUP5 DUP5 SUB DUP10 MSTORE DUP2 MLOAD PUSH2 0x22A3 DUP6 DUP3 PUSH2 0x2242 JUMP JUMPDEST SWAP5 POP PUSH2 0x22AE DUP4 PUSH2 0x2255 JUMP JUMPDEST SWAP3 POP PUSH1 0x20 DUP11 ADD SWAP10 POP POP PUSH1 0x1 DUP2 ADD SWAP1 POP PUSH2 0x228A JUMP JUMPDEST POP DUP3 SWAP8 POP DUP8 SWAP6 POP POP POP POP POP POP SWAP3 SWAP2 POP POP JUMP JUMPDEST PUSH0 PUSH1 0x20 DUP3 ADD SWAP1 POP DUP2 DUP2 SUB PUSH0 DUP4 ADD MSTORE PUSH2 0x22EC DUP2 DUP5 PUSH2 0x2261 JUMP JUMPDEST SWAP1 POP SWAP3 SWAP2 POP POP JUMP JUMPDEST PUSH32 0x4E487B7100000000000000000000000000000000000000000000000000000000 PUSH0 MSTORE PUSH1 0x22 PUSH1 0x4 MSTORE PUSH1 0x24 PUSH0 REVERT JUMPDEST PUSH0 PUSH1 0x2 DUP3 DIV SWAP1 POP PUSH1 0x1 DUP3 AND DUP1 PUSH2 0x2338 JUMPI PUSH1 0x7F DUP3 AND SWAP2 POP JUMPDEST PUSH1 0x20 DUP3 LT DUP2 SUB PUSH2 0x234B JUMPI PUSH2 0x234A PUSH2 0x22F4 JUMP JUMPDEST JUMPDEST POP SWAP2 SWAP1 POP JUMP JUMPDEST PUSH32 0x596F7520617265206E6F74206120706C61796572000000000000000000000000 PUSH0 DUP3 ADD MSTORE POP JUMP JUMPDEST PUSH0 PUSH2 0x2385 PUSH1 0x14 DUP4 PUSH2 0x1FCD JUMP JUMPDEST SWAP2 POP PUSH2 0x2390 DUP3 PUSH2 0x2351 JUMP JUMPDEST PUSH1 0x20 DUP3 ADD SWAP1 POP SWAP2 SWAP1 POP JUMP JUMPDEST PUSH0 PUSH1 0x20 DUP3 ADD SWAP1 POP DUP2 DUP2 SUB PUSH0 DUP4 ADD MSTORE PUSH2 0x23B2 DUP2 PUSH2 0x2379 JUMP JUMPDEST SWAP1 POP SWAP2 SWAP1 POP JUMP JUMPDEST PUSH32 0x4E487B7100000000000000000000000000000000000000000000000000000000 PUSH0 MSTORE PUSH1 0x32 PUSH1 0x4 MSTORE PUSH1 0x24 PUSH0 REVERT JUMPDEST PUSH32 0x506C61796572206973206E6F7420616374697665000000000000000000000000 PUSH0 DUP3 ADD MSTORE POP JUMP JUMPDEST PUSH0 PUSH2 0x241A PUSH1 0x14 DUP4 PUSH2 0x1FCD JUMP JUMPDEST SWAP2 POP PUSH2 0x2425 DUP3 PUSH2 0x23E6 JUMP JUMPDEST PUSH1 0x20 DUP3 ADD SWAP1 POP SWAP2 SWAP1 POP JUMP JUMPDEST PUSH0 PUSH1 0x20 DUP3 ADD SWAP1 POP DUP2 DUP2 SUB PUSH0 DUP4 ADD MSTORE PUSH2 0x2447 DUP2 PUSH2 0x240E JUMP JUMPDEST SWAP1 POP SWAP2 SWAP1 POP JUMP JUMPDEST PUSH32 0x506C6179657220697320616C7265616479206275737465640000000000000000 PUSH0 DUP3 ADD MSTORE POP JUMP JUMPDEST PUSH0 PUSH2 0x2482 PUSH1 0x18 DUP4 PUSH2 0x1FCD JUMP JUMPDEST SWAP2 POP PUSH2 0x248D DUP3 PUSH2 0x244E JUMP JUMPDEST PUSH1 0x20 DUP3 ADD SWAP1 POP SWAP2 SWAP1 POP JUMP JUMPDEST PUSH0 PUSH1 0x20 DUP3 ADD SWAP1 POP DUP2 DUP2 SUB PUSH0 DUP4 ADD MSTORE PUSH2 0x24AF DUP2 PUSH2 0x2476 JUMP JUMPDEST SWAP1 POP SWAP2 SWAP1 POP JUMP JUMPDEST PUSH0 PUSH1 0xFF DUP3 AND SWAP1 POP SWAP2 SWAP1 POP JUMP JUMPDEST PUSH2 0x24CB DUP2 PUSH2 0x24B6 JUMP JUMPDEST DUP3 MSTORE POP POP JUMP JUMPDEST PUSH0 PUSH1 0x20 DUP3 ADD SWAP1 POP PUSH2 0x24E4 PUSH0 DUP4 ADD DUP5 PUSH2 0x24C2 JUMP JUMPDEST SWAP3 SWAP2 POP POP JUMP JUMPDEST PUSH32 0x4E487B7100000000000000000000000000000000000000000000000000000000 PUSH0 MSTORE PUSH1 0x41 PUSH1 0x4 MSTORE PUSH1 0x24 PUSH0 REVERT JUMPDEST PUSH0 DUP2 SWAP1 POP DUP2 PUSH0 MSTORE PUSH1 0x20 PUSH0 KECCAK256 SWAP1 POP SWAP2 SWAP1 POP JUMP JUMPDEST PUSH0 PUSH1 0x20 PUSH1 0x1F DUP4 ADD DIV SWAP1 POP SWAP2 SWAP1 POP JUMP JUMPDEST PUSH0 DUP3 DUP3 SHL SWAP1 POP SWAP3 SWAP2 POP POP JUMP JUMPDEST PUSH0 PUSH1 0x8 DUP4 MUL PUSH2 0x2573 PUSH32 0xFFFFFFFFFFFFFFFFFFFFFFFFFFFFFFFFFFFFFFFFFFFFFFFFFFFFFFFFFFFFFFFF DUP3 PUSH2 0x2538 JUMP JUMPDEST PUSH2 0x257D DUP7 DUP4 PUSH2 0x2538 JUMP JUMPDEST SWAP6 POP DUP1 NOT DUP5 AND SWAP4 POP DUP1 DUP7 AND DUP5 OR SWAP3 POP POP POP SWAP4 SWAP3 POP POP POP JUMP JUMPDEST PUSH0 DUP2 SWAP1 POP SWAP2 SWAP1 POP JUMP JUMPDEST PUSH0 PUSH2 0x25B8 PUSH2 0x25B3 PUSH2 0x25AE DUP5 PUSH2 0x2173 JUMP JUMPDEST PUSH2 0x2595 JUMP JUMPDEST PUSH2 0x2173 JUMP JUMPDEST SWAP1 POP SWAP2 SWAP1 POP JUMP JUMPDEST PUSH0 DUP2 SWAP1 POP SWAP2 SWAP1 POP JUMP JUMPDEST PUSH2 0x25D1 DUP4 PUSH2 0x259E JUMP JUMPDEST PUSH2 0x25E5 PUSH2 0x25DD DUP3 PUSH2 0x25BF JUMP JUMPDEST DUP5 DUP5 SLOAD PUSH2 0x2544 JUMP JUMPDEST DUP3 SSTORE POP POP POP POP JUMP JUMPDEST PUSH0 SWAP1 JUMP JUMPDEST PUSH2 0x25F9 PUSH2 0x25ED JUMP JUMPDEST PUSH2 0x2604 DUP2 DUP5 DUP5 PUSH2 0x25C8 JUMP JUMPDEST POP POP POP JUMP JUMPDEST JUMPDEST DUP2 DUP2 LT ISZERO PUSH2 0x2627 JUMPI PUSH2 0x261C PUSH0 DUP3 PUSH2 0x25F1 JUMP JUMPDEST PUSH1 0x1 DUP2 ADD SWAP1 POP PUSH2 0x260A JUMP JUMPDEST POP POP JUMP JUMPDEST PUSH1 0x1F DUP3 GT ISZERO PUSH2 0x266C JUMPI PUSH2 0x263D DUP2 PUSH2 0x2517 JUMP JUMPDEST PUSH2 0x2646 DUP5 PUSH2 0x2529 JUMP JUMPDEST DUP2 ADD PUSH1 0x20 DUP6 LT ISZERO PUSH2 0x2655 JUMPI DUP2 SWAP1 POP JUMPDEST PUSH2 0x2669 PUSH2 0x2661 DUP6 PUSH2 0x2529 JUMP JUMPDEST DUP4 ADD DUP3 PUSH2 0x2609 JUMP JUMPDEST POP POP JUMPDEST POP POP POP JUMP JUMPDEST PUSH0 DUP3 DUP3 SHR SWAP1 POP SWAP3 SWAP2 POP POP JUMP JUMPDEST PUSH0 PUSH2 0x268C PUSH0 NOT DUP5 PUSH1 0x8 MUL PUSH2 0x2671 JUMP JUMPDEST NOT DUP1 DUP4 AND SWAP2 POP POP SWAP3 SWAP2 POP POP JUMP JUMPDEST PUSH0 PUSH2 0x26A4 DUP4 DUP4 PUSH2 0x267D JUMP JUMPDEST SWAP2 POP DUP3 PUSH1 0x2 MUL DUP3 OR SWAP1 POP SWAP3 SWAP2 POP POP JUMP JUMPDEST PUSH2 0x26BD DUP3 PUSH2 0x1FC3 JUMP JUMPDEST PUSH8 0xFFFFFFFFFFFFFFFF DUP2 GT ISZERO PUSH2 0x26D6 JUMPI PUSH2 0x26D5 PUSH2 0x24EA JUMP JUMPDEST JUMPDEST PUSH2 0x26E0 DUP3 SLOAD PUSH2 0x2321 JUMP JUMPDEST PUSH2 0x26EB DUP3 DUP3 DUP6 PUSH2 0x262B JUMP JUMPDEST PUSH0 PUSH1 0x20 SWAP1 POP PUSH1 0x1F DUP4 GT PUSH1 0x1 DUP2 EQ PUSH2 0x271C JUMPI PUSH0 DUP5 ISZERO PUSH2 0x270A JUMPI DUP3 DUP8 ADD MLOAD SWAP1 POP JUMPDEST PUSH2 0x2714 DUP6 DUP3 PUSH2 0x2699 JUMP JUMPDEST DUP7 SSTORE POP PUSH2 0x277B JUMP JUMPDEST PUSH1 0x1F NOT DUP5 AND PUSH2 0x272A DUP7 PUSH2 0x2517 JUMP JUMPDEST PUSH0 JUMPDEST DUP3 DUP2 LT ISZERO PUSH2 0x2751 JUMPI DUP5 DUP10 ADD MLOAD DUP3 SSTORE PUSH1 0x1 DUP3 ADD SWAP2 POP PUSH1 0x20 DUP6 ADD SWAP5 POP PUSH1 0x20 DUP2 ADD SWAP1 POP PUSH2 0x272C JUMP JUMPDEST DUP7 DUP4 LT ISZERO PUSH2 0x276E JUMPI DUP5 DUP10 ADD MLOAD PUSH2 0x276A PUSH1 0x1F DUP10 AND DUP3 PUSH2 0x267D JUMP JUMPDEST DUP4 SSTORE POP JUMPDEST PUSH1 0x1 PUSH1 0x2 DUP9 MUL ADD DUP9 SSTORE POP POP POP JUMPDEST POP POP POP POP POP POP JUMP JUMPDEST PUSH32 0x4E487B7100000000000000000000000000000000000000000000000000000000 PUSH0 MSTORE PUSH1 0x11 PUSH1 0x4 MSTORE PUSH1 0x24 PUSH0 REVERT JUMPDEST PUSH0 PUSH2 0x27BA DUP3 PUSH2 0x2173 JUMP JUMPDEST SWAP2 POP PUSH2 0x27C5 DUP4 PUSH2 0x2173 JUMP JUMPDEST SWAP3 POP DUP3 DUP3 MUL PUSH2 0x27D3 DUP2 PUSH2 0x2173 JUMP JUMPDEST SWAP2 POP DUP3 DUP3 DIV DUP5 EQ DUP4 ISZERO OR PUSH2 0x27EA JUMPI PUSH2 0x27E9 PUSH2 0x2783 JUMP JUMPDEST JUMPDEST POP SWAP3 SWAP2 POP POP JUMP JUMPDEST PUSH2 0x27FA DUP2 PUSH2 0x209B JUMP JUMPDEST DUP3 MSTORE POP POP JUMP JUMPDEST PUSH0 PUSH1 0x40 DUP3 ADD SWAP1 POP PUSH2 0x2813 PUSH0 DUP4 ADD DUP6 PUSH2 0x27F1 JUMP JUMPDEST PUSH2 0x2820 PUSH1 0x20 DUP4 ADD DUP5 PUSH2 0x24C2 JUMP JUMPDEST SWAP4 SWAP3 POP POP POP JUMP JUMPDEST PUSH32 0x4E6F7420796F7572207475726E00000000000000000000000000000000000000 PUSH0 DUP3 ADD MSTORE POP JUMP JUMPDEST PUSH0 PUSH2 0x285B PUSH1 0xD DUP4 PUSH2 0x1FCD JUMP JUMPDEST SWAP2 POP PUSH2 0x2866 DUP3 PUSH2 0x2827 JUMP JUMPDEST PUSH1 0x20 DUP3 ADD SWAP1 POP SWAP2 SWAP1 POP JUMP JUMPDEST PUSH0 PUSH1 0x20 DUP3 ADD SWAP1 POP DUP2 DUP2 SUB PUSH0 DUP4 ADD MSTORE PUSH2 0x2888 DUP2 PUSH2 0x284F JUMP JUMPDEST SWAP1 POP SWAP2 SWAP1 POP JUMP JUMPDEST PUSH0 PUSH2 0x2899 DUP3 PUSH2 0x2173 JUMP JUMPDEST SWAP2 POP PUSH2 0x28A4 DUP4 PUSH2 0x2173 JUMP JUMPDEST SWAP3 POP DUP3 DUP3 ADD SWAP1 POP DUP1 DUP3 GT ISZERO PUSH2 0x28BC JUMPI PUSH2 0x28BB PUSH2 0x2783 JUMP JUMPDEST JUMPDEST SWAP3 SWAP2 POP POP JUMP JUMPDEST PUSH0 DUP2 SWAP1 POP SWAP3 SWAP2 POP POP JUMP JUMPDEST PUSH32 0x506C617965722000000000000000000000000000000000000000000000000000 PUSH0 DUP3 ADD MSTORE POP JUMP JUMPDEST PUSH0 PUSH2 0x2900 PUSH1 0x7 DUP4 PUSH2 0x28C2 JUMP JUMPDEST SWAP2 POP PUSH2 0x290B DUP3 PUSH2 0x28CC JUMP JUMPDEST PUSH1 0x7 DUP3 ADD SWAP1 POP SWAP2 SWAP1 POP JUMP JUMPDEST PUSH0 PUSH2 0x2920 DUP3 PUSH2 0x1FC3 JUMP JUMPDEST PUSH2 0x292A DUP2 DUP6 PUSH2 0x28C2 JUMP JUMPDEST SWAP4 POP PUSH2 0x293A DUP2 DUP6 PUSH1 0x20 DUP7 ADD PUSH2 0x1FDD JUMP JUMPDEST DUP1 DUP5 ADD SWAP2 POP POP SWAP3 SWAP2 POP POP JUMP JUMPDEST PUSH32 0x3A20000000000000000000000000000000000000000000000000000000000000 PUSH0 DUP3 ADD MSTORE POP JUMP JUMPDEST PUSH0 PUSH2 0x297A PUSH1 0x2 DUP4 PUSH2 0x28C2 JUMP JUMPDEST SWAP2 POP PUSH2 0x2985 DUP3 PUSH2 0x2946 JUMP JUMPDEST PUSH1 0x2 DUP3 ADD SWAP1 POP SWAP2 SWAP1 POP JUMP JUMPDEST PUSH0 PUSH2 0x299A DUP3 PUSH2 0x28F4 JUMP JUMPDEST SWAP2 POP PUSH2 0x29A6 DUP3 DUP5 PUSH2 0x2916 JUMP JUMPDEST SWAP2 POP PUSH2 0x29B1 DUP3 PUSH2 0x296E JUMP JUMPDEST SWAP2 POP DUP2 SWAP1 POP SWAP3 SWAP2 POP POP JUMP JUMPDEST PUSH32 0x4E6F20706C617965727320696E207468652067616D6500000000000000000000 PUSH0 DUP3 ADD MSTORE POP JUMP JUMPDEST PUSH0 PUSH2 0x29F0 PUSH1 0x16 DUP4 PUSH2 0x1FCD JUMP JUMPDEST SWAP2 POP PUSH2 0x29FB DUP3 PUSH2 0x29BC JUMP JUMPDEST PUSH1 0x20 DUP3 ADD SWAP1 POP SWAP2 SWAP1 POP JUMP JUMPDEST PUSH0 PUSH1 0x20 DUP3 ADD SWAP1 POP DUP2 DUP2 SUB PUSH0 DUP4 ADD MSTORE PUSH2 0x2A1D DUP2 PUSH2 0x29E4 JUMP JUMPDEST SWAP1 POP SWAP2 SWAP1 POP JUMP JUMPDEST PUSH32 0x4D6178203420706C617965727320616C6C6F7765640000000000000000000000 PUSH0 DUP3 ADD MSTORE POP JUMP JUMPDEST PUSH0 PUSH2 0x2A58 PUSH1 0x15 DUP4 PUSH2 0x1FCD JUMP JUMPDEST SWAP2 POP PUSH2 0x2A63 DUP3 PUSH2 0x2A24 JUMP JUMPDEST PUSH1 0x20 DUP3 ADD SWAP1 POP SWAP2 SWAP1 POP JUMP JUMPDEST PUSH0 PUSH1 0x20 DUP3 ADD SWAP1 POP DUP2 DUP2 SUB PUSH0 DUP4 ADD MSTORE PUSH2 0x2A85 DUP2 PUSH2 0x2A4C JUMP JUMPDEST SWAP1 POP SWAP2 SWAP1 POP JUMP JUMPDEST PUSH32 0x42657420616D6F756E74206D69736D6174636800000000000000000000000000 PUSH0 DUP3 ADD MSTORE POP JUMP JUMPDEST PUSH0 PUSH2 0x2AC0 PUSH1 0x13 DUP4 PUSH2 0x1FCD JUMP JUMPDEST SWAP2 POP PUSH2 0x2ACB DUP3 PUSH2 0x2A8C JUMP JUMPDEST PUSH1 0x20 DUP3 ADD SWAP1 POP SWAP2 SWAP1 POP JUMP JUMPDEST PUSH0 PUSH1 0x20 DUP3 ADD SWAP1 POP DUP2 DUP2 SUB PUSH0 DUP4 ADD MSTORE PUSH2 0x2AED DUP2 PUSH2 0x2AB4 JUMP JUMPDEST SWAP1 POP SWAP2 SWAP1 POP JUMP JUMPDEST PUSH0 PUSH2 0x2AFE DUP3 PUSH2 0x2173 JUMP JUMPDEST SWAP2 POP PUSH32 0xFFFFFFFFFFFFFFFFFFFFFFFFFFFFFFFFFFFFFFFFFFFFFFFFFFFFFFFFFFFFFFFF DUP3 SUB PUSH2 0x2B30 JUMPI PUSH2 0x2B2F PUSH2 0x2783 JUMP JUMPDEST JUMPDEST PUSH1 0x1 DUP3 ADD SWAP1 POP SWAP2 SWAP1 POP JUMP JUMPDEST PUSH32 0x4E6F206361726473206C65667420696E20746865206465636B00000000000000 PUSH0 DUP3 ADD MSTORE POP JUMP JUMPDEST PUSH0 PUSH2 0x2B6F PUSH1 0x19 DUP4 PUSH2 0x1FCD JUMP JUMPDEST SWAP2 POP PUSH2 0x2B7A DUP3 PUSH2 0x2B3B JUMP JUMPDEST PUSH1 0x20 DUP3 ADD SWAP1 POP SWAP2 SWAP1 POP JUMP JUMPDEST PUSH0 PUSH1 0x20 DUP3 ADD SWAP1 POP DUP2 DUP2 SUB PUSH0 DUP4 ADD MSTORE PUSH2 0x2B9C DUP2 PUSH2 0x2B63 JUMP JUMPDEST SWAP1 POP SWAP2 SWAP1 POP JUMP JUMPDEST PUSH0 PUSH2 0x2BAD DUP3 PUSH2 0x2173 JUMP JUMPDEST SWAP2 POP PUSH2 0x2BB8 DUP4 PUSH2 0x2173 JUMP JUMPDEST SWAP3 POP DUP3 DUP3 SUB SWAP1 POP DUP2 DUP2 GT ISZERO PUSH2 0x2BD0 JUMPI PUSH2 0x2BCF PUSH2 0x2783 JUMP JUMPDEST JUMPDEST SWAP3 SWAP2 POP POP JUMP JUMPDEST PUSH32 0x4E487B7100000000000000000000000000000000000000000000000000000000 PUSH0 MSTORE PUSH1 0x31 PUSH1 0x4 MSTORE PUSH1 0x24 PUSH0 REVERT JUMPDEST PUSH32 0x4E487B7100000000000000000000000000000000000000000000000000000000 PUSH0 MSTORE PUSH1 0x12 PUSH1 0x4 MSTORE PUSH1 0x24 PUSH0 REVERT JUMPDEST PUSH0 PUSH2 0x2C3A DUP3 PUSH2 0x24B6 JUMP JUMPDEST SWAP2 POP PUSH2 0x2C45 DUP4 PUSH2 0x24B6 JUMP JUMPDEST SWAP3 POP DUP3 PUSH2 0x2C55 JUMPI PUSH2 0x2C54 PUSH2 0x2C03 JUMP JUMPDEST JUMPDEST DUP3 DUP3 MOD SWAP1 POP SWAP3 SWAP2 POP POP JUMP JUMPDEST PUSH0 PUSH2 0x2C6A DUP3 PUSH2 0x24B6 JUMP JUMPDEST SWAP2 POP PUSH1 0xFF DUP3 SUB PUSH2 0x2C7D JUMPI PUSH2 0x2C7C PUSH2 0x2783 JUMP JUMPDEST JUMPDEST PUSH1 0x1 DUP3 ADD SWAP1 POP SWAP2 SWAP1 POP JUMP JUMPDEST PUSH0 PUSH2 0x2C92 DUP3 PUSH2 0x24B6 JUMP JUMPDEST SWAP2 POP PUSH2 0x2C9D DUP4 PUSH2 0x24B6 JUMP JUMPDEST SWAP3 POP DUP3 DUP3 ADD SWAP1 POP PUSH1 0xFF DUP2 GT ISZERO PUSH2 0x2CB6 JUMPI PUSH2 0x2CB5 PUSH2 0x2783 JUMP JUMPDEST JUMPDEST SWAP3 SWAP2 POP POP JUMP JUMPDEST PUSH0 PUSH2 0x2CC6 DUP3 PUSH2 0x24B6 JUMP JUMPDEST SWAP2 POP PUSH0 DUP3 SUB PUSH2 0x2CD8 JUMPI PUSH2 0x2CD7 PUSH2 0x2783 JUMP JUMPDEST JUMPDEST PUSH1 0x1 DUP3 SUB SWAP1 POP SWAP2 SWAP1 POP JUMP JUMPDEST PUSH0 PUSH2 0x2CEE DUP3 DUP6 PUSH2 0x2916 JUMP JUMPDEST SWAP2 POP PUSH2 0x2CFA DUP3 DUP5 PUSH2 0x2916 JUMP JUMPDEST SWAP2 POP DUP2 SWAP1 POP SWAP4 SWAP3 POP POP POP JUMP JUMPDEST PUSH32 0x2C20000000000000000000000000000000000000000000000000000000000000 PUSH0 DUP3 ADD MSTORE POP JUMP JUMPDEST PUSH0 PUSH2 0x2D3A PUSH1 0x2 DUP4 PUSH2 0x28C2 JUMP JUMPDEST SWAP2 POP PUSH2 0x2D45 DUP3 PUSH2 0x2D06 JUMP JUMPDEST PUSH1 0x2 DUP3 ADD SWAP1 POP SWAP2 SWAP1 POP JUMP JUMPDEST PUSH0 PUSH2 0x2D5B DUP3 DUP5 PUSH2 0x2916 JUMP JUMPDEST SWAP2 POP PUSH2 0x2D66 DUP3 PUSH2 0x2D2E JUMP JUMPDEST SWAP2 POP DUP2 SWAP1 POP SWAP3 SWAP2 POP POP JUMP JUMPDEST PUSH0 PUSH2 0x2D7B DUP3 PUSH2 0x28F4 JUMP JUMPDEST SWAP2 POP PUSH2 0x2D87 DUP3 DUP5 PUSH2 0x2916 JUMP JUMPDEST SWAP2 POP DUP2 SWAP1 POP SWAP3 SWAP2 POP POP JUMP JUMPDEST PUSH0 PUSH2 0x2D9D DUP3 DUP6 PUSH2 0x2916 JUMP JUMPDEST SWAP2 POP PUSH2 0x2DA8 DUP3 PUSH2 0x2D2E JUMP JUMPDEST SWAP2 POP PUSH2 0x2DB4 DUP3 DUP5 PUSH2 0x2916 JUMP JUMPDEST SWAP2 POP DUP2 SWAP1 POP SWAP4 SWAP3 POP POP POP JUMP JUMPDEST PUSH0 PUSH2 0x2DCA DUP3 PUSH2 0x2173 JUMP JUMPDEST SWAP2 POP PUSH2 0x2DD5 DUP4 PUSH2 0x2173 JUMP JUMPDEST SWAP3 POP DUP3 PUSH2 0x2DE5 JUMPI PUSH2 0x2DE4 PUSH2 0x2C03 JUMP JUMPDEST JUMPDEST DUP3 DUP3 DIV SWAP1 POP SWAP3 SWAP2 POP POP JUMP JUMPDEST PUSH0 PUSH2 0x2DFA DUP3 PUSH2 0x2173 JUMP JUMPDEST SWAP2 POP PUSH2 0x2E05 DUP4 PUSH2 0x2173 JUMP JUMPDEST SWAP3 POP DUP3 PUSH2 0x2E15 JUMPI PUSH2 0x2E14 PUSH2 0x2C03 JUMP JUMPDEST JUMPDEST DUP3 DUP3 MOD SWAP1 POP SWAP3 SWAP2 POP POP JUMP JUMPDEST PUSH0 PUSH2 0x2E2A DUP3 PUSH2 0x2173 JUMP JUMPDEST SWAP2 POP PUSH0 DUP3 SUB PUSH2 0x2E3C JUMPI PUSH2 0x2E3B PUSH2 0x2783 JUMP JUMPDEST JUMPDEST PUSH1 0x1 DUP3 SUB SWAP1 POP SWAP2 SWAP1 POP JUMP JUMPDEST PUSH0 DUP2 SWAP1 POP SWAP2 SWAP1 POP JUMP JUMPDEST PUSH2 0x2E61 PUSH2 0x2E5C DUP3 PUSH2 0x2173 JUMP JUMPDEST PUSH2 0x2E47 JUMP JUMPDEST DUP3 MSTORE POP POP JUMP JUMPDEST PUSH0 DUP2 SWAP1 POP SWAP2 SWAP1 POP JUMP JUMPDEST PUSH0 DUP2 SWAP1 POP SWAP2 SWAP1 POP JUMP JUMPDEST PUSH2 0x2E8A PUSH2 0x2E85 DUP3 PUSH2 0x2E67 JUMP JUMPDEST PUSH2 0x2E70 JUMP JUMPDEST DUP3 MSTORE POP POP JUMP JUMPDEST PUSH0 PUSH2 0x2E9B DUP3 DUP7 PUSH2 0x2E50 JUMP JUMPDEST PUSH1 0x20 DUP3 ADD SWAP2 POP PUSH2 0x2EAB DUP3 DUP6 PUSH2 0x2E50 JUMP JUMPDEST PUSH1 0x20 DUP3 ADD SWAP2 POP PUSH2 0x2EBB DUP3 DUP5 PUSH2 0x2E79 JUMP JUMPDEST PUSH1 0x20 DUP3 ADD SWAP2 POP DUP2 SWAP1 POP SWAP5 SWAP4 POP POP POP POP JUMP JUMPDEST PUSH0 PUSH2 0x2ED7 DUP3 DUP5 PUSH2 0x2E50 JUMP JUMPDEST PUSH1 0x20 DUP3 ADD SWAP2 POP DUP2 SWAP1 POP SWAP3 SWAP2 POP POP JUMP INVALID LOG2 PUSH5 0x6970667358 0x22 SLT KECCAK256 DUP6 DUP2 GASPRICE 0xE1 SWAP15 SWAP13 0x4F 0xE2 AND PUSH20 0x6E0725605709458363605E4B6AE9A4335AAEFF9F 0xDC COINBASE PUSH5 0x736F6C6343 STOP ADDMOD BYTE STOP CALLER "
				},
				"gasEstimates": {
					"creation": {
						"codeDepositCost": "2412000",
						"executionCost": "infinite",
						"totalCost": "infinite"
					},
					"external": {
						"LastBankHand()": "infinite",
						"Winners()": "infinite",
						"determineWinner()": "infinite",
						"getAllHands()": "infinite",
						"hit()": "infinite",
						"joinGame(uint256)": "infinite",
						"stand(uint256)": "31291",
						"startGame()": "infinite"
					},
					"internal": {
						"findPlayerIndex(address)": "infinite",
						"formatHand(uint8[] memory,string memory)": "infinite",
						"formatWinners(address[] memory)": "infinite",
						"resetGame()": "infinite",
						"uint2str(uint256)": "infinite"
					}
				},
				"methodIdentifiers": {
					"LastBankHand()": "14106ad6",
					"Winners()": "9951a417",
					"determineWinner()": "33b16d93",
					"getAllHands()": "d0e514fa",
					"hit()": "2ae3594a",
					"joinGame(uint256)": "efaa55a0",
					"stand(uint256)": "96b76c23",
					"startGame()": "d65ab5f2"
				}
			},
			"storageLayout": {
				"storage": [
					{
						"astId": 859,
						"contract": "Blackjack.sol:Blackjack",
						"label": "deck",
						"offset": 0,
						"slot": "0",
						"type": "t_array(t_uint8)dyn_storage"
					},
					{
						"astId": 23,
						"contract": "Blackjack.sol:Blackjack",
						"label": "players",
						"offset": 0,
						"slot": "1",
						"type": "t_array(t_struct(Player)19_storage)dyn_storage"
					},
					{
						"astId": 25,
						"contract": "Blackjack.sol:Blackjack",
						"label": "playerCount",
						"offset": 0,
						"slot": "2",
						"type": "t_uint256"
					},
					{
						"astId": 28,
						"contract": "Blackjack.sol:Blackjack",
						"label": "bankHand",
						"offset": 0,
						"slot": "3",
						"type": "t_array(t_uint8)dyn_storage"
					},
					{
						"astId": 30,
						"contract": "Blackjack.sol:Blackjack",
						"label": "bank",
						"offset": 0,
						"slot": "4",
						"type": "t_address"
					},
					{
						"astId": 33,
						"contract": "Blackjack.sol:Blackjack",
						"label": "lastBankHand",
						"offset": 0,
						"slot": "5",
						"type": "t_array(t_uint8)dyn_storage"
					},
					{
						"astId": 36,
						"contract": "Blackjack.sol:Blackjack",
						"label": "lastWinners",
						"offset": 0,
						"slot": "6",
						"type": "t_array(t_address)dyn_storage"
					},
					{
						"astId": 451,
						"contract": "Blackjack.sol:Blackjack",
						"label": "LastBankHand",
						"offset": 0,
						"slot": "7",
						"type": "t_string_storage"
					},
					{
						"astId": 453,
						"contract": "Blackjack.sol:Blackjack",
						"label": "Winners",
						"offset": 0,
						"slot": "8",
						"type": "t_string_storage"
					}
				],
				"types": {
					"t_address": {
						"encoding": "inplace",
						"label": "address",
						"numberOfBytes": "20"
					},
					"t_array(t_address)dyn_storage": {
						"base": "t_address",
						"encoding": "dynamic_array",
						"label": "address[]",
						"numberOfBytes": "32"
					},
					"t_array(t_struct(Player)19_storage)dyn_storage": {
						"base": "t_struct(Player)19_storage",
						"encoding": "dynamic_array",
						"label": "struct Blackjack.Player[]",
						"numberOfBytes": "32"
					},
					"t_array(t_uint8)dyn_storage": {
						"base": "t_uint8",
						"encoding": "dynamic_array",
						"label": "uint8[]",
						"numberOfBytes": "32"
					},
					"t_bool": {
						"encoding": "inplace",
						"label": "bool",
						"numberOfBytes": "1"
					},
					"t_string_storage": {
						"encoding": "bytes",
						"label": "string",
						"numberOfBytes": "32"
					},
					"t_struct(Player)19_storage": {
						"encoding": "inplace",
						"label": "struct Blackjack.Player",
						"members": [
							{
								"astId": 9,
								"contract": "Blackjack.sol:Blackjack",
								"label": "addr",
								"offset": 0,
								"slot": "0",
								"type": "t_address"
							},
							{
								"astId": 11,
								"contract": "Blackjack.sol:Blackjack",
								"label": "bet",
								"offset": 0,
								"slot": "1",
								"type": "t_uint256"
							},
							{
								"astId": 14,
								"contract": "Blackjack.sol:Blackjack",
								"label": "hand",
								"offset": 0,
								"slot": "2",
								"type": "t_array(t_uint8)dyn_storage"
							},
							{
								"astId": 16,
								"contract": "Blackjack.sol:Blackjack",
								"label": "isActive",
								"offset": 0,
								"slot": "3",
								"type": "t_bool"
							},
							{
								"astId": 18,
								"contract": "Blackjack.sol:Blackjack",
								"label": "isBusted",
								"offset": 1,
								"slot": "3",
								"type": "t_bool"
							}
						],
						"numberOfBytes": "128"
					},
					"t_uint256": {
						"encoding": "inplace",
						"label": "uint256",
						"numberOfBytes": "32"
					},
					"t_uint8": {
						"encoding": "inplace",
						"label": "uint8",
						"numberOfBytes": "1"
					}
				}
			},
			"userdoc": {
				"kind": "user",
				"methods": {},
				"version": 1
			}
		}
	}
}