{
	"C1.sol": {
		"CardUtils": {
			"abi": [
				{
					"inputs": [
						{
							"internalType": "uint256",
							"name": "playerNumber",
							"type": "uint256"
						},
						{
							"internalType": "uint256",
							"name": "bankNumber",
							"type": "uint256"
						}
					],
					"name": "generateHand",
					"outputs": [
						{
							"internalType": "uint8[2]",
							"name": "",
							"type": "uint8[2]"
						}
					],
					"stateMutability": "pure",
					"type": "function"
				}
			],
			"devdoc": {
				"kind": "dev",
				"methods": {},
				"version": 1
			},
			"evm": {
				"assembly": "    /* \"C1.sol\":60:497  library CardUtils {... */\n  dataSize(sub_0)\n  dataOffset(sub_0)\n  0x0b\n  dup3\n  dup3\n  dup3\n  codecopy\n  dup1\n  mload\n  0x00\n  byte\n  0x73\n  eq\n  tag_1\n  jumpi\n  mstore(0x00, 0x4e487b7100000000000000000000000000000000000000000000000000000000)\n  mstore(0x04, 0x00)\n  revert(0x00, 0x24)\ntag_1:\n  mstore(0x00, address)\n  0x73\n  dup2\n  mstore8\n  dup3\n  dup2\n  return\nstop\n\nsub_0: assembly {\n        /* \"C1.sol\":60:497  library CardUtils {... */\n      eq(address, deployTimeAddress())\n      mstore(0x40, 0x80)\n      jumpi(tag_1, lt(calldatasize, 0x04))\n      shr(0xe0, calldataload(0x00))\n      dup1\n      0x10f8b35c\n      eq\n      tag_2\n      jumpi\n    tag_1:\n      0x00\n      dup1\n      revert\n        /* \"C1.sol\":126:492  function generateHand(uint256 playerNumber, uint256 bankNumber) external pure returns (uint8[2] memory) {... */\n    tag_2:\n      tag_3\n      0x04\n      dup1\n      calldatasize\n      sub\n      dup2\n      add\n      swap1\n      tag_4\n      swap2\n      swap1\n      tag_5\n      jump\t// in\n    tag_4:\n      tag_6\n      jump\t// in\n    tag_3:\n      mload(0x40)\n      tag_7\n      swap2\n      swap1\n      tag_8\n      jump\t// in\n    tag_7:\n      mload(0x40)\n      dup1\n      swap2\n      sub\n      swap1\n      return\n    tag_6:\n        /* \"C1.sol\":213:228  uint8[2] memory */\n      tag_9\n      tag_10\n      jump\t// in\n    tag_9:\n        /* \"C1.sol\":241:252  uint8 card1 */\n      0x00\n        /* \"C1.sol\":339:340  1 */\n      0x01\n        /* \"C1.sol\":115:117  13 */\n      0x0d\n        /* \"C1.sol\":296:308  playerNumber */\n      dup6\n        /* \"C1.sol\":310:320  bankNumber */\n      dup6\n        /* \"C1.sol\":279:321  abi.encodePacked(playerNumber, bankNumber) */\n      add(0x20, mload(0x40))\n      tag_12\n      swap3\n      swap2\n      swap1\n      tag_13\n      jump\t// in\n    tag_12:\n      mload(0x40)\n      0x20\n      dup2\n      dup4\n      sub\n      sub\n      dup2\n      mstore\n      swap1\n      0x40\n      mstore\n        /* \"C1.sol\":269:322  keccak256(abi.encodePacked(playerNumber, bankNumber)) */\n      dup1\n      mload\n      swap1\n      0x20\n      add\n      keccak256\n        /* \"C1.sol\":261:323  uint256(keccak256(abi.encodePacked(playerNumber, bankNumber))) */\n      0x00\n      shr\n        /* \"C1.sol\":261:336  uint256(keccak256(abi.encodePacked(playerNumber, bankNumber))) % RANK_COUNT */\n      tag_14\n      swap2\n      swap1\n      tag_15\n      jump\t// in\n    tag_14:\n        /* \"C1.sol\":261:340  uint256(keccak256(abi.encodePacked(playerNumber, bankNumber))) % RANK_COUNT + 1 */\n      tag_16\n      swap2\n      swap1\n      tag_17\n      jump\t// in\n    tag_16:\n        /* \"C1.sol\":241:341  uint8 card1 = uint8(uint256(keccak256(abi.encodePacked(playerNumber, bankNumber))) % RANK_COUNT + 1) */\n      swap1\n      pop\n        /* \"C1.sol\":352:363  uint8 card2 */\n      0x00\n        /* \"C1.sol\":450:451  1 */\n      0x01\n        /* \"C1.sol\":115:117  13 */\n      0x0d\n        /* \"C1.sol\":407:417  bankNumber */\n      dup6\n        /* \"C1.sol\":419:431  playerNumber */\n      dup8\n        /* \"C1.sol\":390:432  abi.encodePacked(bankNumber, playerNumber) */\n      add(0x20, mload(0x40))\n      tag_18\n      swap3\n      swap2\n      swap1\n      tag_13\n      jump\t// in\n    tag_18:\n      mload(0x40)\n      0x20\n      dup2\n      dup4\n      sub\n      sub\n      dup2\n      mstore\n      swap1\n      0x40\n      mstore\n        /* \"C1.sol\":380:433  keccak256(abi.encodePacked(bankNumber, playerNumber)) */\n      dup1\n      mload\n      swap1\n      0x20\n      add\n      keccak256\n        /* \"C1.sol\":372:434  uint256(keccak256(abi.encodePacked(bankNumber, playerNumber))) */\n      0x00\n      shr\n        /* \"C1.sol\":372:447  uint256(keccak256(abi.encodePacked(bankNumber, playerNumber))) % RANK_COUNT */\n      tag_19\n      swap2\n      swap1\n      tag_15\n      jump\t// in\n    tag_19:\n        /* \"C1.sol\":372:451  uint256(keccak256(abi.encodePacked(bankNumber, playerNumber))) % RANK_COUNT + 1 */\n      tag_20\n      swap2\n      swap1\n      tag_17\n      jump\t// in\n    tag_20:\n        /* \"C1.sol\":352:452  uint8 card2 = uint8(uint256(keccak256(abi.encodePacked(bankNumber, playerNumber))) % RANK_COUNT + 1) */\n      swap1\n      pop\n        /* \"C1.sol\":463:484  return [card1, card2] */\n      mload(0x40)\n      dup1\n      0x40\n      add\n      0x40\n      mstore\n      dup1\n        /* \"C1.sol\":471:476  card1 */\n      dup4\n        /* \"C1.sol\":463:484  return [card1, card2] */\n      0xff\n      and\n      0xff\n      and\n      dup2\n      mstore\n      0x20\n      add\n        /* \"C1.sol\":478:483  card2 */\n      dup3\n        /* \"C1.sol\":463:484  return [card1, card2] */\n      0xff\n      and\n      0xff\n      and\n      dup2\n      mstore\n      pop\n      swap3\n      pop\n      pop\n      pop\n        /* \"C1.sol\":126:492  function generateHand(uint256 playerNumber, uint256 bankNumber) external pure returns (uint8[2] memory) {... */\n      swap3\n      swap2\n      pop\n      pop\n      jump\t// out\n    tag_10:\n      mload(0x40)\n      dup1\n      0x40\n      add\n      0x40\n      mstore\n      dup1\n      0x02\n      swap1\n      0x20\n      dup3\n      mul\n      dup1\n      calldatasize\n      dup4\n      calldatacopy\n      dup1\n      dup3\n      add\n      swap2\n      pop\n      pop\n      swap1\n      pop\n      pop\n      swap1\n      jump\t// out\n        /* \"#utility.yul\":88:205   */\n    tag_22:\n        /* \"#utility.yul\":197:198   */\n      0x00\n        /* \"#utility.yul\":194:195   */\n      dup1\n        /* \"#utility.yul\":187:199   */\n      revert\n        /* \"#utility.yul\":334:411   */\n    tag_24:\n        /* \"#utility.yul\":371:378   */\n      0x00\n        /* \"#utility.yul\":400:405   */\n      dup2\n        /* \"#utility.yul\":389:405   */\n      swap1\n      pop\n        /* \"#utility.yul\":334:411   */\n      swap2\n      swap1\n      pop\n      jump\t// out\n        /* \"#utility.yul\":417:539   */\n    tag_25:\n        /* \"#utility.yul\":490:514   */\n      tag_45\n        /* \"#utility.yul\":508:513   */\n      dup2\n        /* \"#utility.yul\":490:514   */\n      tag_24\n      jump\t// in\n    tag_45:\n        /* \"#utility.yul\":483:488   */\n      dup2\n        /* \"#utility.yul\":480:515   */\n      eq\n        /* \"#utility.yul\":470:533   */\n      tag_46\n      jumpi\n        /* \"#utility.yul\":529:530   */\n      0x00\n        /* \"#utility.yul\":526:527   */\n      dup1\n        /* \"#utility.yul\":519:531   */\n      revert\n        /* \"#utility.yul\":470:533   */\n    tag_46:\n        /* \"#utility.yul\":417:539   */\n      pop\n      jump\t// out\n        /* \"#utility.yul\":545:684   */\n    tag_26:\n        /* \"#utility.yul\":591:596   */\n      0x00\n        /* \"#utility.yul\":629:635   */\n      dup2\n        /* \"#utility.yul\":616:636   */\n      calldataload\n        /* \"#utility.yul\":607:636   */\n      swap1\n      pop\n        /* \"#utility.yul\":645:678   */\n      tag_48\n        /* \"#utility.yul\":672:677   */\n      dup2\n        /* \"#utility.yul\":645:678   */\n      tag_25\n      jump\t// in\n    tag_48:\n        /* \"#utility.yul\":545:684   */\n      swap3\n      swap2\n      pop\n      pop\n      jump\t// out\n        /* \"#utility.yul\":690:1164   */\n    tag_5:\n        /* \"#utility.yul\":758:764   */\n      0x00\n        /* \"#utility.yul\":766:772   */\n      dup1\n        /* \"#utility.yul\":815:817   */\n      0x40\n        /* \"#utility.yul\":803:812   */\n      dup4\n        /* \"#utility.yul\":794:801   */\n      dup6\n        /* \"#utility.yul\":790:813   */\n      sub\n        /* \"#utility.yul\":786:818   */\n      slt\n        /* \"#utility.yul\":783:902   */\n      iszero\n      tag_50\n      jumpi\n        /* \"#utility.yul\":821:900   */\n      tag_51\n      tag_22\n      jump\t// in\n    tag_51:\n        /* \"#utility.yul\":783:902   */\n    tag_50:\n        /* \"#utility.yul\":941:942   */\n      0x00\n        /* \"#utility.yul\":966:1019   */\n      tag_52\n        /* \"#utility.yul\":1011:1018   */\n      dup6\n        /* \"#utility.yul\":1002:1008   */\n      dup3\n        /* \"#utility.yul\":991:1000   */\n      dup7\n        /* \"#utility.yul\":987:1009   */\n      add\n        /* \"#utility.yul\":966:1019   */\n      tag_26\n      jump\t// in\n    tag_52:\n        /* \"#utility.yul\":956:1019   */\n      swap3\n      pop\n        /* \"#utility.yul\":912:1029   */\n      pop\n        /* \"#utility.yul\":1068:1070   */\n      0x20\n        /* \"#utility.yul\":1094:1147   */\n      tag_53\n        /* \"#utility.yul\":1139:1146   */\n      dup6\n        /* \"#utility.yul\":1130:1136   */\n      dup3\n        /* \"#utility.yul\":1119:1128   */\n      dup7\n        /* \"#utility.yul\":1115:1137   */\n      add\n        /* \"#utility.yul\":1094:1147   */\n      tag_26\n      jump\t// in\n    tag_53:\n        /* \"#utility.yul\":1084:1147   */\n      swap2\n      pop\n        /* \"#utility.yul\":1039:1157   */\n      pop\n        /* \"#utility.yul\":690:1164   */\n      swap3\n      pop\n      swap3\n      swap1\n      pop\n      jump\t// out\n        /* \"#utility.yul\":1170:1272   */\n    tag_27:\n        /* \"#utility.yul\":1233:1239   */\n      0x00\n        /* \"#utility.yul\":1261:1265   */\n      0x02\n        /* \"#utility.yul\":1251:1265   */\n      swap1\n      pop\n        /* \"#utility.yul\":1170:1272   */\n      swap2\n      swap1\n      pop\n      jump\t// out\n        /* \"#utility.yul\":1278:1427   */\n    tag_28:\n        /* \"#utility.yul\":1381:1392   */\n      0x00\n        /* \"#utility.yul\":1418:1421   */\n      dup2\n        /* \"#utility.yul\":1403:1421   */\n      swap1\n      pop\n        /* \"#utility.yul\":1278:1427   */\n      swap3\n      swap2\n      pop\n      pop\n      jump\t// out\n        /* \"#utility.yul\":1433:1529   */\n    tag_29:\n        /* \"#utility.yul\":1496:1500   */\n      0x00\n        /* \"#utility.yul\":1519:1522   */\n      dup2\n        /* \"#utility.yul\":1511:1522   */\n      swap1\n      pop\n        /* \"#utility.yul\":1433:1529   */\n      swap2\n      swap1\n      pop\n      jump\t// out\n        /* \"#utility.yul\":1535:1621   */\n    tag_30:\n        /* \"#utility.yul\":1570:1577   */\n      0x00\n        /* \"#utility.yul\":1610:1614   */\n      0xff\n        /* \"#utility.yul\":1603:1608   */\n      dup3\n        /* \"#utility.yul\":1599:1615   */\n      and\n        /* \"#utility.yul\":1588:1615   */\n      swap1\n      pop\n        /* \"#utility.yul\":1535:1621   */\n      swap2\n      swap1\n      pop\n      jump\t// out\n        /* \"#utility.yul\":1627:1737   */\n    tag_31:\n        /* \"#utility.yul\":1708:1730   */\n      tag_59\n        /* \"#utility.yul\":1724:1729   */\n      dup2\n        /* \"#utility.yul\":1708:1730   */\n      tag_30\n      jump\t// in\n    tag_59:\n        /* \"#utility.yul\":1703:1706   */\n      dup3\n        /* \"#utility.yul\":1696:1731   */\n      mstore\n        /* \"#utility.yul\":1627:1737   */\n      pop\n      pop\n      jump\t// out\n        /* \"#utility.yul\":1743:1930   */\n    tag_32:\n        /* \"#utility.yul\":1816:1826   */\n      0x00\n        /* \"#utility.yul\":1837:1887   */\n      tag_61\n        /* \"#utility.yul\":1883:1886   */\n      dup4\n        /* \"#utility.yul\":1875:1881   */\n      dup4\n        /* \"#utility.yul\":1837:1887   */\n      tag_31\n      jump\t// in\n    tag_61:\n        /* \"#utility.yul\":1919:1923   */\n      0x20\n        /* \"#utility.yul\":1914:1917   */\n      dup4\n        /* \"#utility.yul\":1910:1924   */\n      add\n        /* \"#utility.yul\":1896:1924   */\n      swap1\n      pop\n        /* \"#utility.yul\":1743:1930   */\n      swap3\n      swap2\n      pop\n      pop\n      jump\t// out\n        /* \"#utility.yul\":1936:2045   */\n    tag_33:\n        /* \"#utility.yul\":2002:2006   */\n      0x00\n        /* \"#utility.yul\":2034:2038   */\n      0x20\n        /* \"#utility.yul\":2029:2032   */\n      dup3\n        /* \"#utility.yul\":2025:2039   */\n      add\n        /* \"#utility.yul\":2017:2039   */\n      swap1\n      pop\n        /* \"#utility.yul\":1936:2045   */\n      swap2\n      swap1\n      pop\n      jump\t// out\n        /* \"#utility.yul\":2079:2781   */\n    tag_34:\n        /* \"#utility.yul\":2219:2269   */\n      tag_64\n        /* \"#utility.yul\":2263:2268   */\n      dup2\n        /* \"#utility.yul\":2219:2269   */\n      tag_27\n      jump\t// in\n    tag_64:\n        /* \"#utility.yul\":2285:2375   */\n      tag_65\n        /* \"#utility.yul\":2368:2374   */\n      dup2\n        /* \"#utility.yul\":2363:2366   */\n      dup5\n        /* \"#utility.yul\":2285:2375   */\n      tag_28\n      jump\t// in\n    tag_65:\n        /* \"#utility.yul\":2278:2375   */\n      swap3\n      pop\n        /* \"#utility.yul\":2399:2451   */\n      tag_66\n        /* \"#utility.yul\":2445:2450   */\n      dup3\n        /* \"#utility.yul\":2399:2451   */\n      tag_29\n      jump\t// in\n    tag_66:\n        /* \"#utility.yul\":2474:2481   */\n      dup1\n        /* \"#utility.yul\":2505:2506   */\n      0x00\n        /* \"#utility.yul\":2490:2774   */\n    tag_67:\n        /* \"#utility.yul\":2515:2521   */\n      dup4\n        /* \"#utility.yul\":2512:2513   */\n      dup2\n        /* \"#utility.yul\":2509:2522   */\n      lt\n        /* \"#utility.yul\":2490:2774   */\n      iszero\n      tag_69\n      jumpi\n        /* \"#utility.yul\":2591:2597   */\n      dup2\n        /* \"#utility.yul\":2585:2598   */\n      mload\n        /* \"#utility.yul\":2618:2685   */\n      tag_70\n        /* \"#utility.yul\":2681:2684   */\n      dup8\n        /* \"#utility.yul\":2666:2679   */\n      dup3\n        /* \"#utility.yul\":2618:2685   */\n      tag_32\n      jump\t// in\n    tag_70:\n        /* \"#utility.yul\":2611:2685   */\n      swap7\n      pop\n        /* \"#utility.yul\":2708:2764   */\n      tag_71\n        /* \"#utility.yul\":2757:2763   */\n      dup4\n        /* \"#utility.yul\":2708:2764   */\n      tag_33\n      jump\t// in\n    tag_71:\n        /* \"#utility.yul\":2698:2764   */\n      swap3\n      pop\n        /* \"#utility.yul\":2550:2774   */\n      pop\n        /* \"#utility.yul\":2537:2538   */\n      0x01\n        /* \"#utility.yul\":2534:2535   */\n      dup2\n        /* \"#utility.yul\":2530:2539   */\n      add\n        /* \"#utility.yul\":2525:2539   */\n      swap1\n      pop\n        /* \"#utility.yul\":2490:2774   */\n      jump(tag_67)\n    tag_69:\n        /* \"#utility.yul\":2494:2508   */\n      pop\n        /* \"#utility.yul\":2195:2781   */\n      pop\n      pop\n      pop\n        /* \"#utility.yul\":2079:2781   */\n      pop\n      pop\n      jump\t// out\n        /* \"#utility.yul\":2787:3109   */\n    tag_8:\n        /* \"#utility.yul\":2930:2934   */\n      0x00\n        /* \"#utility.yul\":2968:2970   */\n      0x40\n        /* \"#utility.yul\":2957:2966   */\n      dup3\n        /* \"#utility.yul\":2953:2971   */\n      add\n        /* \"#utility.yul\":2945:2971   */\n      swap1\n      pop\n        /* \"#utility.yul\":2981:3102   */\n      tag_73\n        /* \"#utility.yul\":3099:3100   */\n      0x00\n        /* \"#utility.yul\":3088:3097   */\n      dup4\n        /* \"#utility.yul\":3084:3101   */\n      add\n        /* \"#utility.yul\":3075:3081   */\n      dup5\n        /* \"#utility.yul\":2981:3102   */\n      tag_34\n      jump\t// in\n    tag_73:\n        /* \"#utility.yul\":2787:3109   */\n      swap3\n      swap2\n      pop\n      pop\n      jump\t// out\n        /* \"#utility.yul\":3115:3194   */\n    tag_35:\n        /* \"#utility.yul\":3154:3161   */\n      0x00\n        /* \"#utility.yul\":3183:3188   */\n      dup2\n        /* \"#utility.yul\":3172:3188   */\n      swap1\n      pop\n        /* \"#utility.yul\":3115:3194   */\n      swap2\n      swap1\n      pop\n      jump\t// out\n        /* \"#utility.yul\":3200:3357   */\n    tag_36:\n        /* \"#utility.yul\":3305:3350   */\n      tag_76\n        /* \"#utility.yul\":3325:3349   */\n      tag_77\n        /* \"#utility.yul\":3343:3348   */\n      dup3\n        /* \"#utility.yul\":3325:3349   */\n      tag_24\n      jump\t// in\n    tag_77:\n        /* \"#utility.yul\":3305:3350   */\n      tag_35\n      jump\t// in\n    tag_76:\n        /* \"#utility.yul\":3300:3303   */\n      dup3\n        /* \"#utility.yul\":3293:3351   */\n      mstore\n        /* \"#utility.yul\":3200:3357   */\n      pop\n      pop\n      jump\t// out\n        /* \"#utility.yul\":3363:3760   */\n    tag_13:\n        /* \"#utility.yul\":3503:3506   */\n      0x00\n        /* \"#utility.yul\":3518:3593   */\n      tag_79\n        /* \"#utility.yul\":3589:3592   */\n      dup3\n        /* \"#utility.yul\":3580:3586   */\n      dup6\n        /* \"#utility.yul\":3518:3593   */\n      tag_36\n      jump\t// in\n    tag_79:\n        /* \"#utility.yul\":3618:3620   */\n      0x20\n        /* \"#utility.yul\":3613:3616   */\n      dup3\n        /* \"#utility.yul\":3609:3621   */\n      add\n        /* \"#utility.yul\":3602:3621   */\n      swap2\n      pop\n        /* \"#utility.yul\":3631:3706   */\n      tag_80\n        /* \"#utility.yul\":3702:3705   */\n      dup3\n        /* \"#utility.yul\":3693:3699   */\n      dup5\n        /* \"#utility.yul\":3631:3706   */\n      tag_36\n      jump\t// in\n    tag_80:\n        /* \"#utility.yul\":3731:3733   */\n      0x20\n        /* \"#utility.yul\":3726:3729   */\n      dup3\n        /* \"#utility.yul\":3722:3734   */\n      add\n        /* \"#utility.yul\":3715:3734   */\n      swap2\n      pop\n        /* \"#utility.yul\":3751:3754   */\n      dup2\n        /* \"#utility.yul\":3744:3754   */\n      swap1\n      pop\n        /* \"#utility.yul\":3363:3760   */\n      swap4\n      swap3\n      pop\n      pop\n      pop\n      jump\t// out\n        /* \"#utility.yul\":3766:3946   */\n    tag_37:\n        /* \"#utility.yul\":3814:3891   */\n      0x4e487b7100000000000000000000000000000000000000000000000000000000\n        /* \"#utility.yul\":3811:3812   */\n      0x00\n        /* \"#utility.yul\":3804:3892   */\n      mstore\n        /* \"#utility.yul\":3911:3915   */\n      0x12\n        /* \"#utility.yul\":3908:3909   */\n      0x04\n        /* \"#utility.yul\":3901:3916   */\n      mstore\n        /* \"#utility.yul\":3935:3939   */\n      0x24\n        /* \"#utility.yul\":3932:3933   */\n      0x00\n        /* \"#utility.yul\":3925:3940   */\n      revert\n        /* \"#utility.yul\":3952:4128   */\n    tag_15:\n        /* \"#utility.yul\":3984:3985   */\n      0x00\n        /* \"#utility.yul\":4001:4021   */\n      tag_83\n        /* \"#utility.yul\":4019:4020   */\n      dup3\n        /* \"#utility.yul\":4001:4021   */\n      tag_24\n      jump\t// in\n    tag_83:\n        /* \"#utility.yul\":3996:4021   */\n      swap2\n      pop\n        /* \"#utility.yul\":4035:4055   */\n      tag_84\n        /* \"#utility.yul\":4053:4054   */\n      dup4\n        /* \"#utility.yul\":4035:4055   */\n      tag_24\n      jump\t// in\n    tag_84:\n        /* \"#utility.yul\":4030:4055   */\n      swap3\n      pop\n        /* \"#utility.yul\":4074:4075   */\n      dup3\n        /* \"#utility.yul\":4064:4099   */\n      tag_85\n      jumpi\n        /* \"#utility.yul\":4079:4097   */\n      tag_86\n      tag_37\n      jump\t// in\n    tag_86:\n        /* \"#utility.yul\":4064:4099   */\n    tag_85:\n        /* \"#utility.yul\":4120:4121   */\n      dup3\n        /* \"#utility.yul\":4117:4118   */\n      dup3\n        /* \"#utility.yul\":4113:4122   */\n      mod\n        /* \"#utility.yul\":4108:4122   */\n      swap1\n      pop\n        /* \"#utility.yul\":3952:4128   */\n      swap3\n      swap2\n      pop\n      pop\n      jump\t// out\n        /* \"#utility.yul\":4134:4314   */\n    tag_38:\n        /* \"#utility.yul\":4182:4259   */\n      0x4e487b7100000000000000000000000000000000000000000000000000000000\n        /* \"#utility.yul\":4179:4180   */\n      0x00\n        /* \"#utility.yul\":4172:4260   */\n      mstore\n        /* \"#utility.yul\":4279:4283   */\n      0x11\n        /* \"#utility.yul\":4276:4277   */\n      0x04\n        /* \"#utility.yul\":4269:4284   */\n      mstore\n        /* \"#utility.yul\":4303:4307   */\n      0x24\n        /* \"#utility.yul\":4300:4301   */\n      0x00\n        /* \"#utility.yul\":4293:4308   */\n      revert\n        /* \"#utility.yul\":4320:4511   */\n    tag_17:\n        /* \"#utility.yul\":4360:4363   */\n      0x00\n        /* \"#utility.yul\":4379:4399   */\n      tag_89\n        /* \"#utility.yul\":4397:4398   */\n      dup3\n        /* \"#utility.yul\":4379:4399   */\n      tag_24\n      jump\t// in\n    tag_89:\n        /* \"#utility.yul\":4374:4399   */\n      swap2\n      pop\n        /* \"#utility.yul\":4413:4433   */\n      tag_90\n        /* \"#utility.yul\":4431:4432   */\n      dup4\n        /* \"#utility.yul\":4413:4433   */\n      tag_24\n      jump\t// in\n    tag_90:\n        /* \"#utility.yul\":4408:4433   */\n      swap3\n      pop\n        /* \"#utility.yul\":4456:4457   */\n      dup3\n        /* \"#utility.yul\":4453:4454   */\n      dup3\n        /* \"#utility.yul\":4449:4458   */\n      add\n        /* \"#utility.yul\":4442:4458   */\n      swap1\n      pop\n        /* \"#utility.yul\":4477:4480   */\n      dup1\n        /* \"#utility.yul\":4474:4475   */\n      dup3\n        /* \"#utility.yul\":4471:4481   */\n      gt\n        /* \"#utility.yul\":4468:4504   */\n      iszero\n      tag_91\n      jumpi\n        /* \"#utility.yul\":4484:4502   */\n      tag_92\n      tag_38\n      jump\t// in\n    tag_92:\n        /* \"#utility.yul\":4468:4504   */\n    tag_91:\n        /* \"#utility.yul\":4320:4511   */\n      swap3\n      swap2\n      pop\n      pop\n      jump\t// out\n\n    auxdata: 0xa26469706673582212208891be74dc05943891b0050188da4ed0ddf44b1bd9219329ef834c8124706ae364736f6c634300081a0033\n}\n",
				"bytecode": {
					"linkReferences": {},
					"object": "6103c661004d600b8282823980515f1a6073146041577f4e487b71000000000000000000000000000000000000000000000000000000005f525f60045260245ffd5b305f52607381538281f3fe7300000000000000000000000000000000000000003014608060405260043610610034575f3560e01c806310f8b35c14610038575b5f80fd5b610052600480360381019061004d9190610180565b610068565b60405161005f919061026f565b60405180910390f35b610070610127565b5f6001600d85856040516020016100889291906102a8565b604051602081830303815290604052805190602001205f1c6100aa9190610300565b6100b4919061035d565b90505f6001600d85876040516020016100ce9291906102a8565b604051602081830303815290604052805190602001205f1c6100f09190610300565b6100fa919061035d565b905060405180604001604052808360ff1660ff1681526020018260ff1660ff168152509250505092915050565b6040518060400160405280600290602082028036833780820191505090505090565b5f80fd5b5f819050919050565b61015f8161014d565b8114610169575f80fd5b50565b5f8135905061017a81610156565b92915050565b5f806040838503121561019657610195610149565b5b5f6101a38582860161016c565b92505060206101b48582860161016c565b9150509250929050565b5f60029050919050565b5f81905092915050565b5f819050919050565b5f60ff82169050919050565b6101f0816101db565b82525050565b5f61020183836101e7565b60208301905092915050565b5f602082019050919050565b610222816101be565b61022c81846101c8565b9250610237826101d2565b805f5b8381101561026757815161024e87826101f6565b96506102598361020d565b92505060018101905061023a565b505050505050565b5f6040820190506102825f830184610219565b92915050565b5f819050919050565b6102a261029d8261014d565b610288565b82525050565b5f6102b38285610291565b6020820191506102c38284610291565b6020820191508190509392505050565b7f4e487b71000000000000000000000000000000000000000000000000000000005f52601260045260245ffd5b5f61030a8261014d565b91506103158361014d565b925082610325576103246102d3565b5b828206905092915050565b7f4e487b71000000000000000000000000000000000000000000000000000000005f52601160045260245ffd5b5f6103678261014d565b91506103728361014d565b925082820190508082111561038a57610389610330565b5b9291505056fea26469706673582212208891be74dc05943891b0050188da4ed0ddf44b1bd9219329ef834c8124706ae364736f6c634300081a0033",
					"opcodes": "PUSH2 0x3C6 PUSH2 0x4D PUSH1 0xB DUP3 DUP3 DUP3 CODECOPY DUP1 MLOAD PUSH0 BYTE PUSH1 0x73 EQ PUSH1 0x41 JUMPI PUSH32 0x4E487B7100000000000000000000000000000000000000000000000000000000 PUSH0 MSTORE PUSH0 PUSH1 0x4 MSTORE PUSH1 0x24 PUSH0 REVERT JUMPDEST ADDRESS PUSH0 MSTORE PUSH1 0x73 DUP2 MSTORE8 DUP3 DUP2 RETURN INVALID PUSH20 0x0 ADDRESS EQ PUSH1 0x80 PUSH1 0x40 MSTORE PUSH1 0x4 CALLDATASIZE LT PUSH2 0x34 JUMPI PUSH0 CALLDATALOAD PUSH1 0xE0 SHR DUP1 PUSH4 0x10F8B35C EQ PUSH2 0x38 JUMPI JUMPDEST PUSH0 DUP1 REVERT JUMPDEST PUSH2 0x52 PUSH1 0x4 DUP1 CALLDATASIZE SUB DUP2 ADD SWAP1 PUSH2 0x4D SWAP2 SWAP1 PUSH2 0x180 JUMP JUMPDEST PUSH2 0x68 JUMP JUMPDEST PUSH1 0x40 MLOAD PUSH2 0x5F SWAP2 SWAP1 PUSH2 0x26F JUMP JUMPDEST PUSH1 0x40 MLOAD DUP1 SWAP2 SUB SWAP1 RETURN JUMPDEST PUSH2 0x70 PUSH2 0x127 JUMP JUMPDEST PUSH0 PUSH1 0x1 PUSH1 0xD DUP6 DUP6 PUSH1 0x40 MLOAD PUSH1 0x20 ADD PUSH2 0x88 SWAP3 SWAP2 SWAP1 PUSH2 0x2A8 JUMP JUMPDEST PUSH1 0x40 MLOAD PUSH1 0x20 DUP2 DUP4 SUB SUB DUP2 MSTORE SWAP1 PUSH1 0x40 MSTORE DUP1 MLOAD SWAP1 PUSH1 0x20 ADD KECCAK256 PUSH0 SHR PUSH2 0xAA SWAP2 SWAP1 PUSH2 0x300 JUMP JUMPDEST PUSH2 0xB4 SWAP2 SWAP1 PUSH2 0x35D JUMP JUMPDEST SWAP1 POP PUSH0 PUSH1 0x1 PUSH1 0xD DUP6 DUP8 PUSH1 0x40 MLOAD PUSH1 0x20 ADD PUSH2 0xCE SWAP3 SWAP2 SWAP1 PUSH2 0x2A8 JUMP JUMPDEST PUSH1 0x40 MLOAD PUSH1 0x20 DUP2 DUP4 SUB SUB DUP2 MSTORE SWAP1 PUSH1 0x40 MSTORE DUP1 MLOAD SWAP1 PUSH1 0x20 ADD KECCAK256 PUSH0 SHR PUSH2 0xF0 SWAP2 SWAP1 PUSH2 0x300 JUMP JUMPDEST PUSH2 0xFA SWAP2 SWAP1 PUSH2 0x35D JUMP JUMPDEST SWAP1 POP PUSH1 0x40 MLOAD DUP1 PUSH1 0x40 ADD PUSH1 0x40 MSTORE DUP1 DUP4 PUSH1 0xFF AND PUSH1 0xFF AND DUP2 MSTORE PUSH1 0x20 ADD DUP3 PUSH1 0xFF AND PUSH1 0xFF AND DUP2 MSTORE POP SWAP3 POP POP POP SWAP3 SWAP2 POP POP JUMP JUMPDEST PUSH1 0x40 MLOAD DUP1 PUSH1 0x40 ADD PUSH1 0x40 MSTORE DUP1 PUSH1 0x2 SWAP1 PUSH1 0x20 DUP3 MUL DUP1 CALLDATASIZE DUP4 CALLDATACOPY DUP1 DUP3 ADD SWAP2 POP POP SWAP1 POP POP SWAP1 JUMP JUMPDEST PUSH0 DUP1 REVERT JUMPDEST PUSH0 DUP2 SWAP1 POP SWAP2 SWAP1 POP JUMP JUMPDEST PUSH2 0x15F DUP2 PUSH2 0x14D JUMP JUMPDEST DUP2 EQ PUSH2 0x169 JUMPI PUSH0 DUP1 REVERT JUMPDEST POP JUMP JUMPDEST PUSH0 DUP2 CALLDATALOAD SWAP1 POP PUSH2 0x17A DUP2 PUSH2 0x156 JUMP JUMPDEST SWAP3 SWAP2 POP POP JUMP JUMPDEST PUSH0 DUP1 PUSH1 0x40 DUP4 DUP6 SUB SLT ISZERO PUSH2 0x196 JUMPI PUSH2 0x195 PUSH2 0x149 JUMP JUMPDEST JUMPDEST PUSH0 PUSH2 0x1A3 DUP6 DUP3 DUP7 ADD PUSH2 0x16C JUMP JUMPDEST SWAP3 POP POP PUSH1 0x20 PUSH2 0x1B4 DUP6 DUP3 DUP7 ADD PUSH2 0x16C JUMP JUMPDEST SWAP2 POP POP SWAP3 POP SWAP3 SWAP1 POP JUMP JUMPDEST PUSH0 PUSH1 0x2 SWAP1 POP SWAP2 SWAP1 POP JUMP JUMPDEST PUSH0 DUP2 SWAP1 POP SWAP3 SWAP2 POP POP JUMP JUMPDEST PUSH0 DUP2 SWAP1 POP SWAP2 SWAP1 POP JUMP JUMPDEST PUSH0 PUSH1 0xFF DUP3 AND SWAP1 POP SWAP2 SWAP1 POP JUMP JUMPDEST PUSH2 0x1F0 DUP2 PUSH2 0x1DB JUMP JUMPDEST DUP3 MSTORE POP POP JUMP JUMPDEST PUSH0 PUSH2 0x201 DUP4 DUP4 PUSH2 0x1E7 JUMP JUMPDEST PUSH1 0x20 DUP4 ADD SWAP1 POP SWAP3 SWAP2 POP POP JUMP JUMPDEST PUSH0 PUSH1 0x20 DUP3 ADD SWAP1 POP SWAP2 SWAP1 POP JUMP JUMPDEST PUSH2 0x222 DUP2 PUSH2 0x1BE JUMP JUMPDEST PUSH2 0x22C DUP2 DUP5 PUSH2 0x1C8 JUMP JUMPDEST SWAP3 POP PUSH2 0x237 DUP3 PUSH2 0x1D2 JUMP JUMPDEST DUP1 PUSH0 JUMPDEST DUP4 DUP2 LT ISZERO PUSH2 0x267 JUMPI DUP2 MLOAD PUSH2 0x24E DUP8 DUP3 PUSH2 0x1F6 JUMP JUMPDEST SWAP7 POP PUSH2 0x259 DUP4 PUSH2 0x20D JUMP JUMPDEST SWAP3 POP POP PUSH1 0x1 DUP2 ADD SWAP1 POP PUSH2 0x23A JUMP JUMPDEST POP POP POP POP POP POP JUMP JUMPDEST PUSH0 PUSH1 0x40 DUP3 ADD SWAP1 POP PUSH2 0x282 PUSH0 DUP4 ADD DUP5 PUSH2 0x219 JUMP JUMPDEST SWAP3 SWAP2 POP POP JUMP JUMPDEST PUSH0 DUP2 SWAP1 POP SWAP2 SWAP1 POP JUMP JUMPDEST PUSH2 0x2A2 PUSH2 0x29D DUP3 PUSH2 0x14D JUMP JUMPDEST PUSH2 0x288 JUMP JUMPDEST DUP3 MSTORE POP POP JUMP JUMPDEST PUSH0 PUSH2 0x2B3 DUP3 DUP6 PUSH2 0x291 JUMP JUMPDEST PUSH1 0x20 DUP3 ADD SWAP2 POP PUSH2 0x2C3 DUP3 DUP5 PUSH2 0x291 JUMP JUMPDEST PUSH1 0x20 DUP3 ADD SWAP2 POP DUP2 SWAP1 POP SWAP4 SWAP3 POP POP POP JUMP JUMPDEST PUSH32 0x4E487B7100000000000000000000000000000000000000000000000000000000 PUSH0 MSTORE PUSH1 0x12 PUSH1 0x4 MSTORE PUSH1 0x24 PUSH0 REVERT JUMPDEST PUSH0 PUSH2 0x30A DUP3 PUSH2 0x14D JUMP JUMPDEST SWAP2 POP PUSH2 0x315 DUP4 PUSH2 0x14D JUMP JUMPDEST SWAP3 POP DUP3 PUSH2 0x325 JUMPI PUSH2 0x324 PUSH2 0x2D3 JUMP JUMPDEST JUMPDEST DUP3 DUP3 MOD SWAP1 POP SWAP3 SWAP2 POP POP JUMP JUMPDEST PUSH32 0x4E487B7100000000000000000000000000000000000000000000000000000000 PUSH0 MSTORE PUSH1 0x11 PUSH1 0x4 MSTORE PUSH1 0x24 PUSH0 REVERT JUMPDEST PUSH0 PUSH2 0x367 DUP3 PUSH2 0x14D JUMP JUMPDEST SWAP2 POP PUSH2 0x372 DUP4 PUSH2 0x14D JUMP JUMPDEST SWAP3 POP DUP3 DUP3 ADD SWAP1 POP DUP1 DUP3 GT ISZERO PUSH2 0x38A JUMPI PUSH2 0x389 PUSH2 0x330 JUMP JUMPDEST JUMPDEST SWAP3 SWAP2 POP POP JUMP INVALID LOG2 PUSH5 0x6970667358 0x22 SLT KECCAK256 DUP9 SWAP2 0xBE PUSH21 0xDC05943891B0050188DA4ED0DDF44B1BD9219329EF DUP4 0x4C DUP2 0x24 PUSH17 0x6AE364736F6C634300081A003300000000 "
				},
				"gasEstimates": {
					"creation": {
						"codeDepositCost": "193200",
						"executionCost": "261",
						"totalCost": "193461"
					},
					"external": {
						"generateHand(uint256,uint256)": "infinite"
					}
				},
				"methodIdentifiers": {
					"generateHand(uint256,uint256)": "10f8b35c"
				}
			},
			"storageLayout": {
				"storage": [],
				"types": null
			},
			"userdoc": {
				"kind": "user",
				"methods": {},
				"version": 1
			}
		}
	}
}