{
	"test.sol": {
		"Blackjack": {
			"abi": [
				{
					"inputs": [],
					"stateMutability": "payable",
					"type": "constructor"
				},
				{
					"anonymous": false,
					"inputs": [
						{
							"indexed": false,
							"internalType": "uint8",
							"name": "card",
							"type": "uint8"
						}
					],
					"name": "BankCardDrawn",
					"type": "event"
				},
				{
					"anonymous": false,
					"inputs": [
						{
							"indexed": false,
							"internalType": "address",
							"name": "winner",
							"type": "address"
						},
						{
							"indexed": false,
							"internalType": "uint8",
							"name": "score",
							"type": "uint8"
						}
					],
					"name": "GameResult",
					"type": "event"
				},
				{
					"inputs": [],
					"name": "bank",
					"outputs": [
						{
							"internalType": "address",
							"name": "",
							"type": "address"
						}
					],
					"stateMutability": "view",
					"type": "function"
				},
				{
					"inputs": [
						{
							"internalType": "uint256",
							"name": "",
							"type": "uint256"
						}
					],
					"name": "bankHand",
					"outputs": [
						{
							"internalType": "uint8",
							"name": "",
							"type": "uint8"
						}
					],
					"stateMutability": "view",
					"type": "function"
				},
				{
					"inputs": [],
					"name": "determineWinner",
					"outputs": [
						{
							"internalType": "string",
							"name": "",
							"type": "string"
						},
						{
							"internalType": "address[]",
							"name": "",
							"type": "address[]"
						}
					],
					"stateMutability": "nonpayable",
					"type": "function"
				},
				{
					"inputs": [],
					"name": "getAllHandsFormatted",
					"outputs": [
						{
							"internalType": "string[]",
							"name": "",
							"type": "string[]"
						}
					],
					"stateMutability": "view",
					"type": "function"
				},
				{
					"inputs": [],
					"name": "hit",
					"outputs": [],
					"stateMutability": "nonpayable",
					"type": "function"
				},
				{
					"inputs": [
						{
							"internalType": "uint256",
							"name": "bet",
							"type": "uint256"
						}
					],
					"name": "joinGame",
					"outputs": [],
					"stateMutability": "payable",
					"type": "function"
				},
				{
					"inputs": [
						{
							"internalType": "uint256",
							"name": "",
							"type": "uint256"
						}
					],
					"name": "lastBankHand",
					"outputs": [
						{
							"internalType": "uint8",
							"name": "",
							"type": "uint8"
						}
					],
					"stateMutability": "view",
					"type": "function"
				},
				{
					"inputs": [
						{
							"internalType": "uint256",
							"name": "",
							"type": "uint256"
						}
					],
					"name": "lastWinners",
					"outputs": [
						{
							"internalType": "address",
							"name": "",
							"type": "address"
						}
					],
					"stateMutability": "view",
					"type": "function"
				},
				{
					"inputs": [],
					"name": "playerCount",
					"outputs": [
						{
							"internalType": "uint256",
							"name": "",
							"type": "uint256"
						}
					],
					"stateMutability": "view",
					"type": "function"
				},
				{
					"inputs": [
						{
							"internalType": "uint256",
							"name": "",
							"type": "uint256"
						}
					],
					"name": "players",
					"outputs": [
						{
							"internalType": "address",
							"name": "addr",
							"type": "address"
						},
						{
							"internalType": "uint256",
							"name": "bet",
							"type": "uint256"
						},
						{
							"internalType": "bool",
							"name": "isActive",
							"type": "bool"
						},
						{
							"internalType": "bool",
							"name": "isBusted",
							"type": "bool"
						}
					],
					"stateMutability": "view",
					"type": "function"
				},
				{
					"inputs": [
						{
							"internalType": "uint256",
							"name": "playerIndex",
							"type": "uint256"
						}
					],
					"name": "stand",
					"outputs": [],
					"stateMutability": "nonpayable",
					"type": "function"
				},
				{
					"inputs": [],
					"name": "startGame",
					"outputs": [],
					"stateMutability": "nonpayable",
					"type": "function"
				}
			],
			"devdoc": {
				"kind": "dev",
				"methods": {},
				"version": 1
			},
			"evm": {
				"assembly": "    /* \"test.sol\":116:7180  contract Blackjack is CardDeck, Randomness {... */\n  mstore(0x40, 0x80)\n    /* \"CardDeck.sol\":140:151  resetDeck() */\n  tag_4\n    /* \"CardDeck.sol\":140:149  resetDeck */\n  shl(0x20, tag_5)\n    /* \"CardDeck.sol\":140:151  resetDeck() */\n  0x20\n  shr\n  jump\t// in\ntag_4:\n    /* \"test.sol\":545:555  msg.sender */\n  caller\n    /* \"test.sol\":538:542  bank */\n  0x04\n  0x00\n    /* \"test.sol\":538:555  bank = msg.sender */\n  0x0100\n  exp\n  dup2\n  sload\n  dup2\n  0xffffffffffffffffffffffffffffffffffffffff\n  mul\n  not\n  and\n  swap1\n  dup4\n  0xffffffffffffffffffffffffffffffffffffffff\n  and\n  mul\n  or\n  swap1\n  sstore\n  pop\n    /* \"test.sol\":116:7180  contract Blackjack is CardDeck, Randomness {... */\n  jump(tag_7)\n    /* \"CardDeck.sol\":167:361  function resetDeck() internal {... */\ntag_5:\n    /* \"CardDeck.sol\":215:219  deck */\n  0x00\n  dup1\n    /* \"CardDeck.sol\":208:219  delete deck */\n  tag_9\n  swap2\n  swap1\n  tag_10\n  jump\t// in\ntag_9:\n    /* \"CardDeck.sol\":253:260  uint8 i */\n  0x00\n    /* \"CardDeck.sol\":263:264  1 */\n  0x01\n    /* \"CardDeck.sol\":253:264  uint8 i = 1 */\n  swap1\n  pop\n    /* \"CardDeck.sol\":248:354  for (uint8 i = 1; i <= 52; i++) {... */\ntag_11:\n    /* \"CardDeck.sol\":271:273  52 */\n  0x34\n    /* \"CardDeck.sol\":266:267  i */\n  dup2\n    /* \"CardDeck.sol\":266:273  i <= 52 */\n  0xff\n  and\n  gt\n    /* \"CardDeck.sol\":248:354  for (uint8 i = 1; i <= 52; i++) {... */\n  tag_12\n  jumpi\n    /* \"CardDeck.sol\":295:299  deck */\n  0x00\n    /* \"CardDeck.sol\":305:306  i */\n  dup2\n    /* \"CardDeck.sol\":295:307  deck.push(i) */\n  swap1\n  dup1\n  0x01\n  dup2\n  sload\n  add\n  dup1\n  dup3\n  sstore\n  dup1\n  swap2\n  pop\n  pop\n  0x01\n  swap1\n  sub\n  swap1\n  0x00\n  mstore\n  keccak256(0x00, 0x20)\n  swap1\n  0x20\n  swap2\n  dup3\n  dup3\n  div\n  add\n  swap2\n  swap1\n  mod\n  swap1\n  swap2\n  swap1\n  swap2\n  swap1\n  swap2\n  0x0100\n  exp\n  dup2\n  sload\n  dup2\n  0xff\n  mul\n  not\n  and\n  swap1\n  dup4\n  0xff\n  and\n  mul\n  or\n  swap1\n  sstore\n  pop\n    /* \"CardDeck.sol\":275:278  i++ */\n  dup1\n  dup1\n  tag_15\n  swap1\n  tag_16\n  jump\t// in\ntag_15:\n  swap2\n  pop\n  pop\n    /* \"CardDeck.sol\":248:354  for (uint8 i = 1; i <= 52; i++) {... */\n  jump(tag_11)\ntag_12:\n  pop\n    /* \"CardDeck.sol\":167:361  function resetDeck() internal {... */\n  jump\t// out\n    /* \"test.sol\":116:7180  contract Blackjack is CardDeck, Randomness {... */\ntag_10:\n  pop\n  dup1\n  sload\n  0x00\n  dup3\n  sstore\n  0x1f\n  add\n  0x20\n  swap1\n  div\n  swap1\n  0x00\n  mstore\n  keccak256(0x00, 0x20)\n  swap1\n  dup2\n  add\n  swap1\n  tag_18\n  swap2\n  swap1\n  tag_19\n  jump\t// in\ntag_18:\n  pop\n  jump\t// out\ntag_19:\ntag_20:\n  dup1\n  dup3\n  gt\n  iszero\n  tag_21\n  jumpi\n  0x00\n  dup2\n  0x00\n  swap1\n  sstore\n  pop\n  0x01\n  add\n  jump(tag_20)\ntag_21:\n  pop\n  swap1\n  jump\t// out\n    /* \"#utility.yul\":7:187   */\ntag_22:\n    /* \"#utility.yul\":55:132   */\n  0x4e487b7100000000000000000000000000000000000000000000000000000000\n    /* \"#utility.yul\":52:53   */\n  0x00\n    /* \"#utility.yul\":45:133   */\n  mstore\n    /* \"#utility.yul\":152:156   */\n  0x11\n    /* \"#utility.yul\":149:150   */\n  0x04\n    /* \"#utility.yul\":142:157   */\n  mstore\n    /* \"#utility.yul\":176:180   */\n  0x24\n    /* \"#utility.yul\":173:174   */\n  0x00\n    /* \"#utility.yul\":166:181   */\n  revert\n    /* \"#utility.yul\":193:279   */\ntag_23:\n    /* \"#utility.yul\":228:235   */\n  0x00\n    /* \"#utility.yul\":268:272   */\n  0xff\n    /* \"#utility.yul\":261:266   */\n  dup3\n    /* \"#utility.yul\":257:273   */\n  and\n    /* \"#utility.yul\":246:273   */\n  swap1\n  pop\n    /* \"#utility.yul\":193:279   */\n  swap2\n  swap1\n  pop\n  jump\t// out\n    /* \"#utility.yul\":285:452   */\ntag_16:\n    /* \"#utility.yul\":322:325   */\n  0x00\n    /* \"#utility.yul\":345:367   */\n  tag_28\n    /* \"#utility.yul\":361:366   */\n  dup3\n    /* \"#utility.yul\":345:367   */\n  tag_23\n  jump\t// in\ntag_28:\n    /* \"#utility.yul\":336:367   */\n  swap2\n  pop\n    /* \"#utility.yul\":389:393   */\n  0xff\n    /* \"#utility.yul\":382:387   */\n  dup3\n    /* \"#utility.yul\":379:394   */\n  sub\n    /* \"#utility.yul\":376:417   */\n  tag_29\n  jumpi\n    /* \"#utility.yul\":397:415   */\n  tag_30\n  tag_22\n  jump\t// in\ntag_30:\n    /* \"#utility.yul\":376:417   */\ntag_29:\n    /* \"#utility.yul\":444:445   */\n  0x01\n    /* \"#utility.yul\":437:442   */\n  dup3\n    /* \"#utility.yul\":433:446   */\n  add\n    /* \"#utility.yul\":426:446   */\n  swap1\n  pop\n    /* \"#utility.yul\":285:452   */\n  swap2\n  swap1\n  pop\n  jump\t// out\n    /* \"test.sol\":116:7180  contract Blackjack is CardDeck, Randomness {... */\ntag_7:\n  dataSize(sub_0)\n  dup1\n  dataOffset(sub_0)\n  0x00\n  codecopy\n  0x00\n  return\nstop\n\nsub_0: assembly {\n        /* \"test.sol\":116:7180  contract Blackjack is CardDeck, Randomness {... */\n      mstore(0x40, 0x80)\n      jumpi(tag_1, lt(calldatasize, 0x04))\n      shr(0xe0, calldataload(0x00))\n      dup1\n      0x96b76c23\n      gt\n      tag_14\n      jumpi\n      dup1\n      0x96b76c23\n      eq\n      tag_8\n      jumpi\n      dup1\n      0xadda2c2e\n      eq\n      tag_9\n      jumpi\n      dup1\n      0xb984354a\n      eq\n      tag_10\n      jumpi\n      dup1\n      0xd65ab5f2\n      eq\n      tag_11\n      jumpi\n      dup1\n      0xefaa55a0\n      eq\n      tag_12\n      jumpi\n      dup1\n      0xf71d96cb\n      eq\n      tag_13\n      jumpi\n      jump(tag_1)\n    tag_14:\n      dup1\n      0x2ae3594a\n      eq\n      tag_2\n      jumpi\n      dup1\n      0x302bcc57\n      eq\n      tag_3\n      jumpi\n      dup1\n      0x33b16d93\n      eq\n      tag_4\n      jumpi\n      dup1\n      0x4fdd055b\n      eq\n      tag_5\n      jumpi\n      dup1\n      0x70a88f84\n      eq\n      tag_6\n      jumpi\n      dup1\n      0x76cdb03b\n      eq\n      tag_7\n      jumpi\n    tag_1:\n      0x00\n      dup1\n      revert\n        /* \"test.sol\":1340:1921  function hit() external {... */\n    tag_2:\n      callvalue\n      dup1\n      iszero\n      tag_15\n      jumpi\n      0x00\n      dup1\n      revert\n    tag_15:\n      pop\n      tag_16\n      tag_17\n      jump\t// in\n    tag_16:\n      stop\n        /* \"test.sol\":342:368  uint256 public playerCount */\n    tag_3:\n      callvalue\n      dup1\n      iszero\n      tag_18\n      jumpi\n      0x00\n      dup1\n      revert\n    tag_18:\n      pop\n      tag_19\n      tag_20\n      jump\t// in\n    tag_19:\n      mload(0x40)\n      tag_21\n      swap2\n      swap1\n      tag_22\n      jump\t// in\n    tag_21:\n      mload(0x40)\n      dup1\n      swap2\n      sub\n      swap1\n      return\n        /* \"test.sol\":2214:3547  function determineWinner() external returns (string memory, address[] memory) {... */\n    tag_4:\n      callvalue\n      dup1\n      iszero\n      tag_23\n      jumpi\n      0x00\n      dup1\n      revert\n    tag_23:\n      pop\n      tag_24\n      tag_25\n      jump\t// in\n    tag_24:\n      mload(0x40)\n      tag_26\n      swap3\n      swap2\n      swap1\n      tag_27\n      jump\t// in\n    tag_26:\n      mload(0x40)\n      dup1\n      swap2\n      sub\n      swap1\n      return\n        /* \"test.sol\":432:459  uint8[] public lastBankHand */\n    tag_5:\n      callvalue\n      dup1\n      iszero\n      tag_28\n      jumpi\n      0x00\n      dup1\n      revert\n    tag_28:\n      pop\n      tag_29\n      0x04\n      dup1\n      calldatasize\n      sub\n      dup2\n      add\n      swap1\n      tag_30\n      swap2\n      swap1\n      tag_31\n      jump\t// in\n    tag_30:\n      tag_32\n      jump\t// in\n    tag_29:\n      mload(0x40)\n      tag_33\n      swap2\n      swap1\n      tag_34\n      jump\t// in\n    tag_33:\n      mload(0x40)\n      dup1\n      swap2\n      sub\n      swap1\n      return\n        /* \"test.sol\":375:398  uint8[] public bankHand */\n    tag_6:\n      callvalue\n      dup1\n      iszero\n      tag_35\n      jumpi\n      0x00\n      dup1\n      revert\n    tag_35:\n      pop\n      tag_36\n      0x04\n      dup1\n      calldatasize\n      sub\n      dup2\n      add\n      swap1\n      tag_37\n      swap2\n      swap1\n      tag_31\n      jump\t// in\n    tag_37:\n      tag_38\n      jump\t// in\n    tag_36:\n      mload(0x40)\n      tag_39\n      swap2\n      swap1\n      tag_34\n      jump\t// in\n    tag_39:\n      mload(0x40)\n      dup1\n      swap2\n      sub\n      swap1\n      return\n        /* \"test.sol\":406:425  address public bank */\n    tag_7:\n      callvalue\n      dup1\n      iszero\n      tag_40\n      jumpi\n      0x00\n      dup1\n      revert\n    tag_40:\n      pop\n      tag_41\n      tag_42\n      jump\t// in\n    tag_41:\n      mload(0x40)\n      tag_43\n      swap2\n      swap1\n      tag_44\n      jump\t// in\n    tag_43:\n      mload(0x40)\n      dup1\n      swap2\n      sub\n      swap1\n      return\n        /* \"test.sol\":1929:2106  function stand(uint256 playerIndex) external {... */\n    tag_8:\n      callvalue\n      dup1\n      iszero\n      tag_45\n      jumpi\n      0x00\n      dup1\n      revert\n    tag_45:\n      pop\n      tag_46\n      0x04\n      dup1\n      calldatasize\n      sub\n      dup2\n      add\n      swap1\n      tag_47\n      swap2\n      swap1\n      tag_31\n      jump\t// in\n    tag_47:\n      tag_48\n      jump\t// in\n    tag_46:\n      stop\n        /* \"test.sol\":467:495  address[] public lastWinners */\n    tag_9:\n      callvalue\n      dup1\n      iszero\n      tag_49\n      jumpi\n      0x00\n      dup1\n      revert\n    tag_49:\n      pop\n      tag_50\n      0x04\n      dup1\n      calldatasize\n      sub\n      dup2\n      add\n      swap1\n      tag_51\n      swap2\n      swap1\n      tag_31\n      jump\t// in\n    tag_51:\n      tag_52\n      jump\t// in\n    tag_50:\n      mload(0x40)\n      tag_53\n      swap2\n      swap1\n      tag_44\n      jump\t// in\n    tag_53:\n      mload(0x40)\n      dup1\n      swap2\n      sub\n      swap1\n      return\n        /* \"test.sol\":6735:7177  function getAllHandsFormatted() external view returns (string[] memory) {... */\n    tag_10:\n      callvalue\n      dup1\n      iszero\n      tag_54\n      jumpi\n      0x00\n      dup1\n      revert\n    tag_54:\n      pop\n      tag_55\n      tag_56\n      jump\t// in\n    tag_55:\n      mload(0x40)\n      tag_57\n      swap2\n      swap1\n      tag_58\n      jump\t// in\n    tag_57:\n      mload(0x40)\n      dup1\n      swap2\n      sub\n      swap1\n      return\n        /* \"test.sol\":974:1332  function startGame() external {... */\n    tag_11:\n      callvalue\n      dup1\n      iszero\n      tag_59\n      jumpi\n      0x00\n      dup1\n      revert\n    tag_59:\n      pop\n      tag_60\n      tag_61\n      jump\t// in\n    tag_60:\n      stop\n        /* \"test.sol\":571:966  function joinGame(uint256 bet) external payable {... */\n    tag_12:\n      tag_62\n      0x04\n      dup1\n      calldatasize\n      sub\n      dup2\n      add\n      swap1\n      tag_63\n      swap2\n      swap1\n      tag_31\n      jump\t// in\n    tag_63:\n      tag_64\n      jump\t// in\n    tag_62:\n      stop\n        /* \"test.sol\":312:335  Player[] public players */\n    tag_13:\n      callvalue\n      dup1\n      iszero\n      tag_65\n      jumpi\n      0x00\n      dup1\n      revert\n    tag_65:\n      pop\n      tag_66\n      0x04\n      dup1\n      calldatasize\n      sub\n      dup2\n      add\n      swap1\n      tag_67\n      swap2\n      swap1\n      tag_31\n      jump\t// in\n    tag_67:\n      tag_68\n      jump\t// in\n    tag_66:\n      mload(0x40)\n      tag_69\n      swap5\n      swap4\n      swap3\n      swap2\n      swap1\n      tag_70\n      jump\t// in\n    tag_69:\n      mload(0x40)\n      dup1\n      swap2\n      sub\n      swap1\n      return\n        /* \"test.sol\":1340:1921  function hit() external {... */\n    tag_17:\n        /* \"test.sol\":1375:1394  uint256 playerIndex */\n      0x00\n        /* \"test.sol\":1397:1424  findPlayerIndex(msg.sender) */\n      tag_72\n        /* \"test.sol\":1413:1423  msg.sender */\n      caller\n        /* \"test.sol\":1397:1412  findPlayerIndex */\n      tag_73\n        /* \"test.sol\":1397:1424  findPlayerIndex(msg.sender) */\n      jump\t// in\n    tag_72:\n        /* \"test.sol\":1375:1424  uint256 playerIndex = findPlayerIndex(msg.sender) */\n      swap1\n      pop\n        /* \"test.sol\":1458:1475  type(uint256).max */\n      0xffffffffffffffffffffffffffffffffffffffffffffffffffffffffffffffff\n        /* \"test.sol\":1443:1454  playerIndex */\n      dup2\n        /* \"test.sol\":1443:1475  playerIndex != type(uint256).max */\n      sub\n        /* \"test.sol\":1435:1500  require(playerIndex != type(uint256).max, \"You are not a player\") */\n      tag_74\n      jumpi\n      mload(0x40)\n      0x08c379a000000000000000000000000000000000000000000000000000000000\n      dup2\n      mstore\n      0x04\n      add\n      tag_75\n      swap1\n      tag_76\n      jump\t// in\n    tag_75:\n      mload(0x40)\n      dup1\n      swap2\n      sub\n      swap1\n      revert\n    tag_74:\n        /* \"test.sol\":1521:1528  players */\n      0x01\n        /* \"test.sol\":1529:1540  playerIndex */\n      dup2\n        /* \"test.sol\":1521:1541  players[playerIndex] */\n      dup2\n      sload\n      dup2\n      lt\n      tag_77\n      jumpi\n      tag_78\n      tag_79\n      jump\t// in\n    tag_78:\n    tag_77:\n      swap1\n      0x00\n      mstore\n      keccak256(0x00, 0x20)\n      swap1\n      0x04\n      mul\n      add\n        /* \"test.sol\":1521:1550  players[playerIndex].isActive */\n      0x03\n      add\n      0x00\n      swap1\n      sload\n      swap1\n      0x0100\n      exp\n      swap1\n      div\n      0xff\n      and\n        /* \"test.sol\":1513:1575  require(players[playerIndex].isActive, \"Player is not active\") */\n      tag_81\n      jumpi\n      mload(0x40)\n      0x08c379a000000000000000000000000000000000000000000000000000000000\n      dup2\n      mstore\n      0x04\n      add\n      tag_82\n      swap1\n      tag_83\n      jump\t// in\n    tag_82:\n      mload(0x40)\n      dup1\n      swap2\n      sub\n      swap1\n      revert\n    tag_81:\n        /* \"test.sol\":1595:1602  players */\n      0x01\n        /* \"test.sol\":1603:1614  playerIndex */\n      dup2\n        /* \"test.sol\":1595:1615  players[playerIndex] */\n      dup2\n      sload\n      dup2\n      lt\n      tag_84\n      jumpi\n      tag_85\n      tag_79\n      jump\t// in\n    tag_85:\n    tag_84:\n      swap1\n      0x00\n      mstore\n      keccak256(0x00, 0x20)\n      swap1\n      0x04\n      mul\n      add\n        /* \"test.sol\":1595:1624  players[playerIndex].isBusted */\n      0x03\n      add\n      0x01\n      swap1\n      sload\n      swap1\n      0x0100\n      exp\n      swap1\n      div\n      0xff\n      and\n        /* \"test.sol\":1594:1624  !players[playerIndex].isBusted */\n      iszero\n        /* \"test.sol\":1586:1653  require(!players[playerIndex].isBusted, \"Player is already busted\") */\n      tag_87\n      jumpi\n      mload(0x40)\n      0x08c379a000000000000000000000000000000000000000000000000000000000\n      dup2\n      mstore\n      0x04\n      add\n      tag_88\n      swap1\n      tag_89\n      jump\t// in\n    tag_88:\n      mload(0x40)\n      dup1\n      swap2\n      sub\n      swap1\n      revert\n    tag_87:\n        /* \"test.sol\":1666:1676  uint8 card */\n      0x00\n        /* \"test.sol\":1679:1689  drawCard() */\n      tag_90\n        /* \"test.sol\":1679:1687  drawCard */\n      tag_91\n        /* \"test.sol\":1679:1689  drawCard() */\n      jump\t// in\n    tag_90:\n        /* \"test.sol\":1666:1689  uint8 card = drawCard() */\n      swap1\n      pop\n        /* \"test.sol\":1700:1707  players */\n      0x01\n        /* \"test.sol\":1708:1719  playerIndex */\n      dup3\n        /* \"test.sol\":1700:1720  players[playerIndex] */\n      dup2\n      sload\n      dup2\n      lt\n      tag_92\n      jumpi\n      tag_93\n      tag_79\n      jump\t// in\n    tag_93:\n    tag_92:\n      swap1\n      0x00\n      mstore\n      keccak256(0x00, 0x20)\n      swap1\n      0x04\n      mul\n      add\n        /* \"test.sol\":1700:1725  players[playerIndex].hand */\n      0x02\n      add\n        /* \"test.sol\":1731:1735  card */\n      dup2\n        /* \"test.sol\":1700:1736  players[playerIndex].hand.push(card) */\n      swap1\n      dup1\n      0x01\n      dup2\n      sload\n      add\n      dup1\n      dup3\n      sstore\n      dup1\n      swap2\n      pop\n      pop\n      0x01\n      swap1\n      sub\n      swap1\n      0x00\n      mstore\n      keccak256(0x00, 0x20)\n      swap1\n      0x20\n      swap2\n      dup3\n      dup3\n      div\n      add\n      swap2\n      swap1\n      mod\n      swap1\n      swap2\n      swap1\n      swap2\n      swap1\n      swap2\n      0x0100\n      exp\n      dup2\n      sload\n      dup2\n      0xff\n      mul\n      not\n      and\n      swap1\n      dup4\n      0xff\n      and\n      mul\n      or\n      swap1\n      sstore\n      pop\n        /* \"test.sol\":1795:1797  21 */\n      0x15\n        /* \"test.sol\":1753:1792  getHandValue(players[playerIndex].hand) */\n      tag_96\n        /* \"test.sol\":1766:1773  players */\n      0x01\n        /* \"test.sol\":1774:1785  playerIndex */\n      dup5\n        /* \"test.sol\":1766:1786  players[playerIndex] */\n      dup2\n      sload\n      dup2\n      lt\n      tag_97\n      jumpi\n      tag_98\n      tag_79\n      jump\t// in\n    tag_98:\n    tag_97:\n      swap1\n      0x00\n      mstore\n      keccak256(0x00, 0x20)\n      swap1\n      0x04\n      mul\n      add\n        /* \"test.sol\":1766:1791  players[playerIndex].hand */\n      0x02\n      add\n        /* \"test.sol\":1753:1792  getHandValue(players[playerIndex].hand) */\n      dup1\n      sload\n      dup1\n      0x20\n      mul\n      0x20\n      add\n      mload(0x40)\n      swap1\n      dup2\n      add\n      0x40\n      mstore\n      dup1\n      swap3\n      swap2\n      swap1\n      dup2\n      dup2\n      mstore\n      0x20\n      add\n      dup3\n      dup1\n      sload\n      dup1\n      iszero\n      tag_100\n      jumpi\n      0x20\n      mul\n      dup3\n      add\n      swap2\n      swap1\n      0x00\n      mstore\n      keccak256(0x00, 0x20)\n      swap1\n      0x00\n      swap1\n    tag_101:\n      dup3\n      dup3\n      swap1\n      sload\n      swap1\n      0x0100\n      exp\n      swap1\n      div\n      0xff\n      and\n      0xff\n      and\n      dup2\n      mstore\n      0x20\n      add\n      swap1\n      0x01\n      add\n      swap1\n      0x20\n      dup3\n      0x00\n      add\n      div\n      swap3\n      dup4\n      add\n      swap3\n      0x01\n      sub\n      dup3\n      mul\n      swap2\n      pop\n      dup1\n      dup5\n      gt\n      tag_101\n      jumpi\n      swap1\n      pop\n    tag_100:\n      pop\n      pop\n      pop\n      pop\n      pop\n        /* \"test.sol\":1753:1765  getHandValue */\n      tag_102\n        /* \"test.sol\":1753:1792  getHandValue(players[playerIndex].hand) */\n      jump\t// in\n    tag_96:\n        /* \"test.sol\":1753:1797  getHandValue(players[playerIndex].hand) > 21 */\n      0xff\n      and\n      gt\n        /* \"test.sol\":1749:1914  if (getHandValue(players[playerIndex].hand) > 21) {... */\n      iszero\n      tag_103\n      jumpi\n        /* \"test.sol\":1846:1850  true */\n      0x01\n        /* \"test.sol\":1814:1821  players */\n      dup1\n        /* \"test.sol\":1822:1833  playerIndex */\n      dup4\n        /* \"test.sol\":1814:1834  players[playerIndex] */\n      dup2\n      sload\n      dup2\n      lt\n      tag_104\n      jumpi\n      tag_105\n      tag_79\n      jump\t// in\n    tag_105:\n    tag_104:\n      swap1\n      0x00\n      mstore\n      keccak256(0x00, 0x20)\n      swap1\n      0x04\n      mul\n      add\n        /* \"test.sol\":1814:1843  players[playerIndex].isBusted */\n      0x03\n      add\n      0x01\n        /* \"test.sol\":1814:1850  players[playerIndex].isBusted = true */\n      0x0100\n      exp\n      dup2\n      sload\n      dup2\n      0xff\n      mul\n      not\n      and\n      swap1\n      dup4\n      iszero\n      iszero\n      mul\n      or\n      swap1\n      sstore\n      pop\n        /* \"test.sol\":1897:1902  false */\n      0x00\n        /* \"test.sol\":1865:1872  players */\n      0x01\n        /* \"test.sol\":1873:1884  playerIndex */\n      dup4\n        /* \"test.sol\":1865:1885  players[playerIndex] */\n      dup2\n      sload\n      dup2\n      lt\n      tag_107\n      jumpi\n      tag_108\n      tag_79\n      jump\t// in\n    tag_108:\n    tag_107:\n      swap1\n      0x00\n      mstore\n      keccak256(0x00, 0x20)\n      swap1\n      0x04\n      mul\n      add\n        /* \"test.sol\":1865:1894  players[playerIndex].isActive */\n      0x03\n      add\n      0x00\n        /* \"test.sol\":1865:1902  players[playerIndex].isActive = false */\n      0x0100\n      exp\n      dup2\n      sload\n      dup2\n      0xff\n      mul\n      not\n      and\n      swap1\n      dup4\n      iszero\n      iszero\n      mul\n      or\n      swap1\n      sstore\n      pop\n        /* \"test.sol\":1749:1914  if (getHandValue(players[playerIndex].hand) > 21) {... */\n    tag_103:\n        /* \"test.sol\":1364:1921  {... */\n      pop\n      pop\n        /* \"test.sol\":1340:1921  function hit() external {... */\n      jump\t// out\n        /* \"test.sol\":342:368  uint256 public playerCount */\n    tag_20:\n      sload(0x02)\n      dup2\n      jump\t// out\n        /* \"test.sol\":2214:3547  function determineWinner() external returns (string memory, address[] memory) {... */\n    tag_25:\n        /* \"test.sol\":2259:2272  string memory */\n      0x60\n        /* \"test.sol\":2274:2290  address[] memory */\n      dup1\n        /* \"test.sol\":2303:2318  uint8 bankScore */\n      0x00\n        /* \"test.sol\":2321:2343  getHandValue(bankHand) */\n      tag_111\n        /* \"test.sol\":2334:2342  bankHand */\n      0x03\n        /* \"test.sol\":2321:2343  getHandValue(bankHand) */\n      dup1\n      sload\n      dup1\n      0x20\n      mul\n      0x20\n      add\n      mload(0x40)\n      swap1\n      dup2\n      add\n      0x40\n      mstore\n      dup1\n      swap3\n      swap2\n      swap1\n      dup2\n      dup2\n      mstore\n      0x20\n      add\n      dup3\n      dup1\n      sload\n      dup1\n      iszero\n      tag_112\n      jumpi\n      0x20\n      mul\n      dup3\n      add\n      swap2\n      swap1\n      0x00\n      mstore\n      keccak256(0x00, 0x20)\n      swap1\n      0x00\n      swap1\n    tag_113:\n      dup3\n      dup3\n      swap1\n      sload\n      swap1\n      0x0100\n      exp\n      swap1\n      div\n      0xff\n      and\n      0xff\n      and\n      dup2\n      mstore\n      0x20\n      add\n      swap1\n      0x01\n      add\n      swap1\n      0x20\n      dup3\n      0x00\n      add\n      div\n      swap3\n      dup4\n      add\n      swap3\n      0x01\n      sub\n      dup3\n      mul\n      swap2\n      pop\n      dup1\n      dup5\n      gt\n      tag_113\n      jumpi\n      swap1\n      pop\n    tag_112:\n      pop\n      pop\n      pop\n      pop\n      pop\n        /* \"test.sol\":2321:2333  getHandValue */\n      tag_102\n        /* \"test.sol\":2321:2343  getHandValue(bankHand) */\n      jump\t// in\n    tag_111:\n        /* \"test.sol\":2303:2343  uint8 bankScore = getHandValue(bankHand) */\n      swap1\n      pop\n        /* \"test.sol\":2361:2372  lastWinners */\n      0x06\n      0x00\n        /* \"test.sol\":2354:2372  delete lastWinners */\n      tag_114\n      swap2\n      swap1\n      tag_115\n      jump\t// in\n    tag_114:\n        /* \"test.sol\":2415:2610  while (bankScore < 17) {... */\n    tag_116:\n        /* \"test.sol\":2434:2436  17 */\n      0x11\n        /* \"test.sol\":2422:2431  bankScore */\n      dup2\n        /* \"test.sol\":2422:2436  bankScore < 17 */\n      0xff\n      and\n      lt\n        /* \"test.sol\":2415:2610  while (bankScore < 17) {... */\n      iszero\n      tag_117\n      jumpi\n        /* \"test.sol\":2453:2463  uint8 card */\n      0x00\n        /* \"test.sol\":2466:2476  drawCard() */\n      tag_118\n        /* \"test.sol\":2466:2474  drawCard */\n      tag_91\n        /* \"test.sol\":2466:2476  drawCard() */\n      jump\t// in\n    tag_118:\n        /* \"test.sol\":2453:2476  uint8 card = drawCard() */\n      swap1\n      pop\n        /* \"test.sol\":2491:2499  bankHand */\n      0x03\n        /* \"test.sol\":2505:2509  card */\n      dup2\n        /* \"test.sol\":2491:2510  bankHand.push(card) */\n      swap1\n      dup1\n      0x01\n      dup2\n      sload\n      add\n      dup1\n      dup3\n      sstore\n      dup1\n      swap2\n      pop\n      pop\n      0x01\n      swap1\n      sub\n      swap1\n      0x00\n      mstore\n      keccak256(0x00, 0x20)\n      swap1\n      0x20\n      swap2\n      dup3\n      dup3\n      div\n      add\n      swap2\n      swap1\n      mod\n      swap1\n      swap2\n      swap1\n      swap2\n      swap1\n      swap2\n      0x0100\n      exp\n      dup2\n      sload\n      dup2\n      0xff\n      mul\n      not\n      and\n      swap1\n      dup4\n      0xff\n      and\n      mul\n      or\n      swap1\n      sstore\n      pop\n        /* \"test.sol\":2537:2559  getHandValue(bankHand) */\n      tag_120\n        /* \"test.sol\":2550:2558  bankHand */\n      0x03\n        /* \"test.sol\":2537:2559  getHandValue(bankHand) */\n      dup1\n      sload\n      dup1\n      0x20\n      mul\n      0x20\n      add\n      mload(0x40)\n      swap1\n      dup2\n      add\n      0x40\n      mstore\n      dup1\n      swap3\n      swap2\n      swap1\n      dup2\n      dup2\n      mstore\n      0x20\n      add\n      dup3\n      dup1\n      sload\n      dup1\n      iszero\n      tag_121\n      jumpi\n      0x20\n      mul\n      dup3\n      add\n      swap2\n      swap1\n      0x00\n      mstore\n      keccak256(0x00, 0x20)\n      swap1\n      0x00\n      swap1\n    tag_122:\n      dup3\n      dup3\n      swap1\n      sload\n      swap1\n      0x0100\n      exp\n      swap1\n      div\n      0xff\n      and\n      0xff\n      and\n      dup2\n      mstore\n      0x20\n      add\n      swap1\n      0x01\n      add\n      swap1\n      0x20\n      dup3\n      0x00\n      add\n      div\n      swap3\n      dup4\n      add\n      swap3\n      0x01\n      sub\n      dup3\n      mul\n      swap2\n      pop\n      dup1\n      dup5\n      gt\n      tag_122\n      jumpi\n      swap1\n      pop\n    tag_121:\n      pop\n      pop\n      pop\n      pop\n      pop\n        /* \"test.sol\":2537:2549  getHandValue */\n      tag_102\n        /* \"test.sol\":2537:2559  getHandValue(bankHand) */\n      jump\t// in\n    tag_120:\n        /* \"test.sol\":2525:2559  bankScore = getHandValue(bankHand) */\n      swap2\n      pop\n        /* \"test.sol\":2579:2598  BankCardDrawn(card) */\n      0x74719e1845aac9a5b808b73f76f15e0ded61fd1f03fc0cd802e98e8e1d2299fe\n        /* \"test.sol\":2593:2597  card */\n      dup2\n        /* \"test.sol\":2579:2598  BankCardDrawn(card) */\n      mload(0x40)\n      tag_123\n      swap2\n      swap1\n      tag_34\n      jump\t// in\n    tag_123:\n      mload(0x40)\n      dup1\n      swap2\n      sub\n      swap1\n      log1\n        /* \"test.sol\":2438:2610  {... */\n      pop\n        /* \"test.sol\":2415:2610  while (bankScore < 17) {... */\n      jump(tag_116)\n    tag_117:\n        /* \"test.sol\":2665:2673  bankHand */\n      0x03\n        /* \"test.sol\":2650:2662  lastBankHand */\n      0x05\n        /* \"test.sol\":2650:2673  lastBankHand = bankHand */\n      swap1\n      dup1\n      sload\n      tag_124\n      swap3\n      swap2\n      swap1\n      tag_125\n      jump\t// in\n    tag_124:\n      pop\n        /* \"test.sol\":2717:2744  string memory finalBankHand */\n      0x00\n        /* \"test.sol\":2747:2791  formatHand(lastBankHand, \"Last Bank Hand: \") */\n      tag_126\n        /* \"test.sol\":2758:2770  lastBankHand */\n      0x05\n        /* \"test.sol\":2747:2791  formatHand(lastBankHand, \"Last Bank Hand: \") */\n      dup1\n      sload\n      dup1\n      0x20\n      mul\n      0x20\n      add\n      mload(0x40)\n      swap1\n      dup2\n      add\n      0x40\n      mstore\n      dup1\n      swap3\n      swap2\n      swap1\n      dup2\n      dup2\n      mstore\n      0x20\n      add\n      dup3\n      dup1\n      sload\n      dup1\n      iszero\n      tag_127\n      jumpi\n      0x20\n      mul\n      dup3\n      add\n      swap2\n      swap1\n      0x00\n      mstore\n      keccak256(0x00, 0x20)\n      swap1\n      0x00\n      swap1\n    tag_128:\n      dup3\n      dup3\n      swap1\n      sload\n      swap1\n      0x0100\n      exp\n      swap1\n      div\n      0xff\n      and\n      0xff\n      and\n      dup2\n      mstore\n      0x20\n      add\n      swap1\n      0x01\n      add\n      swap1\n      0x20\n      dup3\n      0x00\n      add\n      div\n      swap3\n      dup4\n      add\n      swap3\n      0x01\n      sub\n      dup3\n      mul\n      swap2\n      pop\n      dup1\n      dup5\n      gt\n      tag_128\n      jumpi\n      swap1\n      pop\n    tag_127:\n      pop\n      pop\n      pop\n      pop\n      pop\n      mload(0x40)\n      dup1\n      0x40\n      add\n      0x40\n      mstore\n      dup1\n      0x10\n      dup2\n      mstore\n      0x20\n      add\n      0x4c6173742042616e6b2048616e643a2000000000000000000000000000000000\n      dup2\n      mstore\n      pop\n        /* \"test.sol\":2747:2757  formatHand */\n      tag_129\n        /* \"test.sol\":2747:2791  formatHand(lastBankHand, \"Last Bank Hand: \") */\n      jump\t// in\n    tag_126:\n        /* \"test.sol\":2717:2791  string memory finalBankHand = formatHand(lastBankHand, \"Last Bank Hand: \") */\n      swap1\n      pop\n        /* \"test.sol\":2840:2849  uint256 i */\n      0x00\n        /* \"test.sol\":2835:3247  for (uint256 i = 0; i < players.length; i++) {... */\n    tag_130:\n        /* \"test.sol\":2859:2866  players */\n      0x01\n        /* \"test.sol\":2859:2873  players.length */\n      dup1\n      sload\n      swap1\n      pop\n        /* \"test.sol\":2855:2856  i */\n      dup2\n        /* \"test.sol\":2855:2873  i < players.length */\n      lt\n        /* \"test.sol\":2835:3247  for (uint256 i = 0; i < players.length; i++) {... */\n      iszero\n      tag_131\n      jumpi\n        /* \"test.sol\":2895:2912  uint8 playerScore */\n      0x00\n        /* \"test.sol\":2915:2944  getHandValue(players[i].hand) */\n      tag_133\n        /* \"test.sol\":2928:2935  players */\n      0x01\n        /* \"test.sol\":2936:2937  i */\n      dup4\n        /* \"test.sol\":2928:2938  players[i] */\n      dup2\n      sload\n      dup2\n      lt\n      tag_134\n      jumpi\n      tag_135\n      tag_79\n      jump\t// in\n    tag_135:\n    tag_134:\n      swap1\n      0x00\n      mstore\n      keccak256(0x00, 0x20)\n      swap1\n      0x04\n      mul\n      add\n        /* \"test.sol\":2928:2943  players[i].hand */\n      0x02\n      add\n        /* \"test.sol\":2915:2944  getHandValue(players[i].hand) */\n      dup1\n      sload\n      dup1\n      0x20\n      mul\n      0x20\n      add\n      mload(0x40)\n      swap1\n      dup2\n      add\n      0x40\n      mstore\n      dup1\n      swap3\n      swap2\n      swap1\n      dup2\n      dup2\n      mstore\n      0x20\n      add\n      dup3\n      dup1\n      sload\n      dup1\n      iszero\n      tag_137\n      jumpi\n      0x20\n      mul\n      dup3\n      add\n      swap2\n      swap1\n      0x00\n      mstore\n      keccak256(0x00, 0x20)\n      swap1\n      0x00\n      swap1\n    tag_138:\n      dup3\n      dup3\n      swap1\n      sload\n      swap1\n      0x0100\n      exp\n      swap1\n      div\n      0xff\n      and\n      0xff\n      and\n      dup2\n      mstore\n      0x20\n      add\n      swap1\n      0x01\n      add\n      swap1\n      0x20\n      dup3\n      0x00\n      add\n      div\n      swap3\n      dup4\n      add\n      swap3\n      0x01\n      sub\n      dup3\n      mul\n      swap2\n      pop\n      dup1\n      dup5\n      gt\n      tag_138\n      jumpi\n      swap1\n      pop\n    tag_137:\n      pop\n      pop\n      pop\n      pop\n      pop\n        /* \"test.sol\":2915:2927  getHandValue */\n      tag_102\n        /* \"test.sol\":2915:2944  getHandValue(players[i].hand) */\n      jump\t// in\n    tag_133:\n        /* \"test.sol\":2895:2944  uint8 playerScore = getHandValue(players[i].hand) */\n      swap1\n      pop\n        /* \"test.sol\":2964:2971  players */\n      0x01\n        /* \"test.sol\":2972:2973  i */\n      dup3\n        /* \"test.sol\":2964:2974  players[i] */\n      dup2\n      sload\n      dup2\n      lt\n      tag_139\n      jumpi\n      tag_140\n      tag_79\n      jump\t// in\n    tag_140:\n    tag_139:\n      swap1\n      0x00\n      mstore\n      keccak256(0x00, 0x20)\n      swap1\n      0x04\n      mul\n      add\n        /* \"test.sol\":2964:2983  players[i].isBusted */\n      0x03\n      add\n      0x01\n      swap1\n      sload\n      swap1\n      0x0100\n      exp\n      swap1\n      div\n      0xff\n      and\n        /* \"test.sol\":2963:2983  !players[i].isBusted */\n      iszero\n        /* \"test.sol\":2963:3030  !players[i].isBusted && (playerScore > bankScore || bankScore > 21) */\n      dup1\n      iszero\n      tag_142\n      jumpi\n      pop\n        /* \"test.sol\":3002:3011  bankScore */\n      dup4\n        /* \"test.sol\":2988:3011  playerScore > bankScore */\n      0xff\n      and\n        /* \"test.sol\":2988:2999  playerScore */\n      dup2\n        /* \"test.sol\":2988:3011  playerScore > bankScore */\n      0xff\n      and\n      gt\n        /* \"test.sol\":2988:3029  playerScore > bankScore || bankScore > 21 */\n      dup1\n      tag_143\n      jumpi\n      pop\n        /* \"test.sol\":3027:3029  21 */\n      0x15\n        /* \"test.sol\":3015:3024  bankScore */\n      dup5\n        /* \"test.sol\":3015:3029  bankScore > 21 */\n      0xff\n      and\n      gt\n        /* \"test.sol\":2988:3029  playerScore > bankScore || bankScore > 21 */\n    tag_143:\n        /* \"test.sol\":2963:3030  !players[i].isBusted && (playerScore > bankScore || bankScore > 21) */\n    tag_142:\n        /* \"test.sol\":2959:3236  if (!players[i].isBusted && (playerScore > bankScore || bankScore > 21)) {... */\n      iszero\n      tag_144\n      jumpi\n        /* \"test.sol\":3059:3066  players */\n      0x01\n        /* \"test.sol\":3067:3068  i */\n      dup3\n        /* \"test.sol\":3059:3069  players[i] */\n      dup2\n      sload\n      dup2\n      lt\n      tag_145\n      jumpi\n      tag_146\n      tag_79\n      jump\t// in\n    tag_146:\n    tag_145:\n      swap1\n      0x00\n      mstore\n      keccak256(0x00, 0x20)\n      swap1\n      0x04\n      mul\n      add\n        /* \"test.sol\":3059:3074  players[i].addr */\n      0x00\n      add\n      0x00\n      swap1\n      sload\n      swap1\n      0x0100\n      exp\n      swap1\n      div\n      0xffffffffffffffffffffffffffffffffffffffff\n      and\n        /* \"test.sol\":3051:3084  payable(players[i].addr).transfer */\n      0xffffffffffffffffffffffffffffffffffffffff\n      and\n        /* \"test.sol\":3051:3104  payable(players[i].addr).transfer(players[i].bet * 2) */\n      0x08fc\n        /* \"test.sol\":3102:3103  2 */\n      0x02\n        /* \"test.sol\":3085:3092  players */\n      0x01\n        /* \"test.sol\":3093:3094  i */\n      dup6\n        /* \"test.sol\":3085:3095  players[i] */\n      dup2\n      sload\n      dup2\n      lt\n      tag_148\n      jumpi\n      tag_149\n      tag_79\n      jump\t// in\n    tag_149:\n    tag_148:\n      swap1\n      0x00\n      mstore\n      keccak256(0x00, 0x20)\n      swap1\n      0x04\n      mul\n      add\n        /* \"test.sol\":3085:3099  players[i].bet */\n      0x01\n      add\n      sload\n        /* \"test.sol\":3085:3103  players[i].bet * 2 */\n      tag_151\n      swap2\n      swap1\n      tag_152\n      jump\t// in\n    tag_151:\n        /* \"test.sol\":3051:3104  payable(players[i].addr).transfer(players[i].bet * 2) */\n      swap1\n      dup2\n      iszero\n      mul\n      swap1\n      mload(0x40)\n      0x00\n      mload(0x40)\n      dup1\n      dup4\n      sub\n      dup2\n      dup6\n      dup9\n      dup9\n      call\n      swap4\n      pop\n      pop\n      pop\n      pop\n      iszero\n      dup1\n      iszero\n      tag_154\n      jumpi\n      returndatasize\n      0x00\n      dup1\n      returndatacopy\n      revert(0x00, returndatasize)\n    tag_154:\n      pop\n        /* \"test.sol\":3123:3134  lastWinners */\n      0x06\n        /* \"test.sol\":3140:3147  players */\n      0x01\n        /* \"test.sol\":3148:3149  i */\n      dup4\n        /* \"test.sol\":3140:3150  players[i] */\n      dup2\n      sload\n      dup2\n      lt\n      tag_155\n      jumpi\n      tag_156\n      tag_79\n      jump\t// in\n    tag_156:\n    tag_155:\n      swap1\n      0x00\n      mstore\n      keccak256(0x00, 0x20)\n      swap1\n      0x04\n      mul\n      add\n        /* \"test.sol\":3140:3155  players[i].addr */\n      0x00\n      add\n      0x00\n      swap1\n      sload\n      swap1\n      0x0100\n      exp\n      swap1\n      div\n      0xffffffffffffffffffffffffffffffffffffffff\n      and\n        /* \"test.sol\":3123:3156  lastWinners.push(players[i].addr) */\n      swap1\n      dup1\n      0x01\n      dup2\n      sload\n      add\n      dup1\n      dup3\n      sstore\n      dup1\n      swap2\n      pop\n      pop\n      0x01\n      swap1\n      sub\n      swap1\n      0x00\n      mstore\n      keccak256(0x00, 0x20)\n      add\n      0x00\n      swap1\n      swap2\n      swap1\n      swap2\n      swap1\n      swap2\n      0x0100\n      exp\n      dup2\n      sload\n      dup2\n      0xffffffffffffffffffffffffffffffffffffffff\n      mul\n      not\n      and\n      swap1\n      dup4\n      0xffffffffffffffffffffffffffffffffffffffff\n      and\n      mul\n      or\n      swap1\n      sstore\n      pop\n        /* \"test.sol\":3180:3220  GameResult(players[i].addr, playerScore) */\n      0xe9b0a743935d9854ac97b39452742c48f05e62b1ee44825328d7bc53901b03b1\n        /* \"test.sol\":3191:3198  players */\n      0x01\n        /* \"test.sol\":3199:3200  i */\n      dup4\n        /* \"test.sol\":3191:3201  players[i] */\n      dup2\n      sload\n      dup2\n      lt\n      tag_159\n      jumpi\n      tag_160\n      tag_79\n      jump\t// in\n    tag_160:\n    tag_159:\n      swap1\n      0x00\n      mstore\n      keccak256(0x00, 0x20)\n      swap1\n      0x04\n      mul\n      add\n        /* \"test.sol\":3191:3206  players[i].addr */\n      0x00\n      add\n      0x00\n      swap1\n      sload\n      swap1\n      0x0100\n      exp\n      swap1\n      div\n      0xffffffffffffffffffffffffffffffffffffffff\n      and\n        /* \"test.sol\":3208:3219  playerScore */\n      dup3\n        /* \"test.sol\":3180:3220  GameResult(players[i].addr, playerScore) */\n      mload(0x40)\n      tag_162\n      swap3\n      swap2\n      swap1\n      tag_163\n      jump\t// in\n    tag_162:\n      mload(0x40)\n      dup1\n      swap2\n      sub\n      swap1\n      log1\n        /* \"test.sol\":2959:3236  if (!players[i].isBusted && (playerScore > bankScore || bankScore > 21)) {... */\n    tag_144:\n        /* \"test.sol\":2880:3247  {... */\n      pop\n        /* \"test.sol\":2875:2878  i++ */\n      dup1\n      dup1\n      0x01\n      add\n      swap2\n      pop\n      pop\n        /* \"test.sol\":2835:3247  for (uint256 i = 0; i < players.length; i++) {... */\n      jump(tag_130)\n    tag_131:\n      pop\n        /* \"test.sol\":3293:3304  resetGame() */\n      tag_164\n        /* \"test.sol\":3293:3302  resetGame */\n      tag_165\n        /* \"test.sol\":3293:3304  resetGame() */\n      jump\t// in\n    tag_164:\n        /* \"test.sol\":3512:3525  finalBankHand */\n      dup1\n        /* \"test.sol\":3527:3538  lastWinners */\n      0x06\n        /* \"test.sol\":3504:3539  return (finalBankHand, lastWinners) */\n      dup1\n      dup1\n      sload\n      dup1\n      0x20\n      mul\n      0x20\n      add\n      mload(0x40)\n      swap1\n      dup2\n      add\n      0x40\n      mstore\n      dup1\n      swap3\n      swap2\n      swap1\n      dup2\n      dup2\n      mstore\n      0x20\n      add\n      dup3\n      dup1\n      sload\n      dup1\n      iszero\n      tag_166\n      jumpi\n      0x20\n      mul\n      dup3\n      add\n      swap2\n      swap1\n      0x00\n      mstore\n      keccak256(0x00, 0x20)\n      swap1\n    tag_167:\n      dup2\n      0x00\n      swap1\n      sload\n      swap1\n      0x0100\n      exp\n      swap1\n      div\n      0xffffffffffffffffffffffffffffffffffffffff\n      and\n      0xffffffffffffffffffffffffffffffffffffffff\n      and\n      dup2\n      mstore\n      0x20\n      add\n      swap1\n      0x01\n      add\n      swap1\n      dup1\n      dup4\n      gt\n      tag_167\n      jumpi\n    tag_166:\n      pop\n      pop\n      pop\n      pop\n      pop\n      swap1\n      pop\n      swap4\n      pop\n      swap4\n      pop\n      pop\n      pop\n        /* \"test.sol\":2214:3547  function determineWinner() external returns (string memory, address[] memory) {... */\n      swap1\n      swap2\n      jump\t// out\n        /* \"test.sol\":432:459  uint8[] public lastBankHand */\n    tag_32:\n      0x05\n      dup2\n      dup2\n      sload\n      dup2\n      lt\n      tag_168\n      jumpi\n      0x00\n      dup1\n      revert\n    tag_168:\n      swap1\n      0x00\n      mstore\n      keccak256(0x00, 0x20)\n      swap1\n      0x20\n      swap2\n      dup3\n      dup3\n      div\n      add\n      swap2\n      swap1\n      mod\n      swap2\n      pop\n      sload\n      swap1\n      0x0100\n      exp\n      swap1\n      div\n      0xff\n      and\n      dup2\n      jump\t// out\n        /* \"test.sol\":375:398  uint8[] public bankHand */\n    tag_38:\n      0x03\n      dup2\n      dup2\n      sload\n      dup2\n      lt\n      tag_170\n      jumpi\n      0x00\n      dup1\n      revert\n    tag_170:\n      swap1\n      0x00\n      mstore\n      keccak256(0x00, 0x20)\n      swap1\n      0x20\n      swap2\n      dup3\n      dup3\n      div\n      add\n      swap2\n      swap1\n      mod\n      swap2\n      pop\n      sload\n      swap1\n      0x0100\n      exp\n      swap1\n      div\n      0xff\n      and\n      dup2\n      jump\t// out\n        /* \"test.sol\":406:425  address public bank */\n    tag_42:\n      0x04\n      0x00\n      swap1\n      sload\n      swap1\n      0x0100\n      exp\n      swap1\n      div\n      0xffffffffffffffffffffffffffffffffffffffff\n      and\n      dup2\n      jump\t// out\n        /* \"test.sol\":1929:2106  function stand(uint256 playerIndex) external {... */\n    tag_48:\n        /* \"test.sol\":2007:2014  players */\n      0x01\n        /* \"test.sol\":2015:2026  playerIndex */\n      dup2\n        /* \"test.sol\":2007:2027  players[playerIndex] */\n      dup2\n      sload\n      dup2\n      lt\n      tag_173\n      jumpi\n      tag_174\n      tag_79\n      jump\t// in\n    tag_174:\n    tag_173:\n      swap1\n      0x00\n      mstore\n      keccak256(0x00, 0x20)\n      swap1\n      0x04\n      mul\n      add\n        /* \"test.sol\":2007:2032  players[playerIndex].addr */\n      0x00\n      add\n      0x00\n      swap1\n      sload\n      swap1\n      0x0100\n      exp\n      swap1\n      div\n      0xffffffffffffffffffffffffffffffffffffffff\n      and\n        /* \"test.sol\":1993:2032  msg.sender == players[playerIndex].addr */\n      0xffffffffffffffffffffffffffffffffffffffff\n      and\n        /* \"test.sol\":1993:2003  msg.sender */\n      caller\n        /* \"test.sol\":1993:2032  msg.sender == players[playerIndex].addr */\n      0xffffffffffffffffffffffffffffffffffffffff\n      and\n      eq\n        /* \"test.sol\":1985:2050  require(msg.sender == players[playerIndex].addr, \"Not your turn\") */\n      tag_176\n      jumpi\n      mload(0x40)\n      0x08c379a000000000000000000000000000000000000000000000000000000000\n      dup2\n      mstore\n      0x04\n      add\n      tag_177\n      swap1\n      tag_178\n      jump\t// in\n    tag_177:\n      mload(0x40)\n      dup1\n      swap2\n      sub\n      swap1\n      revert\n    tag_176:\n        /* \"test.sol\":2093:2098  false */\n      0x00\n        /* \"test.sol\":2061:2068  players */\n      0x01\n        /* \"test.sol\":2069:2080  playerIndex */\n      dup3\n        /* \"test.sol\":2061:2081  players[playerIndex] */\n      dup2\n      sload\n      dup2\n      lt\n      tag_179\n      jumpi\n      tag_180\n      tag_79\n      jump\t// in\n    tag_180:\n    tag_179:\n      swap1\n      0x00\n      mstore\n      keccak256(0x00, 0x20)\n      swap1\n      0x04\n      mul\n      add\n        /* \"test.sol\":2061:2090  players[playerIndex].isActive */\n      0x03\n      add\n      0x00\n        /* \"test.sol\":2061:2098  players[playerIndex].isActive = false */\n      0x0100\n      exp\n      dup2\n      sload\n      dup2\n      0xff\n      mul\n      not\n      and\n      swap1\n      dup4\n      iszero\n      iszero\n      mul\n      or\n      swap1\n      sstore\n      pop\n        /* \"test.sol\":1929:2106  function stand(uint256 playerIndex) external {... */\n      pop\n      jump\t// out\n        /* \"test.sol\":467:495  address[] public lastWinners */\n    tag_52:\n      0x06\n      dup2\n      dup2\n      sload\n      dup2\n      lt\n      tag_182\n      jumpi\n      0x00\n      dup1\n      revert\n    tag_182:\n      swap1\n      0x00\n      mstore\n      keccak256(0x00, 0x20)\n      add\n      0x00\n      swap2\n      pop\n      sload\n      swap1\n      0x0100\n      exp\n      swap1\n      div\n      0xffffffffffffffffffffffffffffffffffffffff\n      and\n      dup2\n      jump\t// out\n        /* \"test.sol\":6735:7177  function getAllHandsFormatted() external view returns (string[] memory) {... */\n    tag_56:\n        /* \"test.sol\":6790:6805  string[] memory */\n      0x60\n        /* \"test.sol\":6818:6848  string[] memory formattedHands */\n      0x00\n        /* \"test.sol\":6881:6882  1 */\n      0x01\n        /* \"test.sol\":6864:6871  players */\n      dup1\n        /* \"test.sol\":6864:6878  players.length */\n      dup1\n      sload\n      swap1\n      pop\n        /* \"test.sol\":6864:6882  players.length + 1 */\n      tag_185\n      swap2\n      swap1\n      tag_186\n      jump\t// in\n    tag_185:\n        /* \"test.sol\":6851:6883  new string[](players.length + 1) */\n      0xffffffffffffffff\n      dup2\n      gt\n      iszero\n      tag_187\n      jumpi\n      tag_188\n      tag_189\n      jump\t// in\n    tag_188:\n    tag_187:\n      mload(0x40)\n      swap1\n      dup1\n      dup3\n      mstore\n      dup1\n      0x20\n      mul\n      0x20\n      add\n      dup3\n      add\n      0x40\n      mstore\n      dup1\n      iszero\n      tag_190\n      jumpi\n      dup2\n      0x20\n      add\n    tag_191:\n      0x60\n      dup2\n      mstore\n      0x20\n      add\n      swap1\n      0x01\n      swap1\n      sub\n      swap1\n      dup2\n      tag_191\n      jumpi\n      swap1\n      pop\n    tag_190:\n      pop\n        /* \"test.sol\":6818:6883  string[] memory formattedHands = new string[](players.length + 1) */\n      swap1\n      pop\n        /* \"test.sol\":6914:6944  formatHand(bankHand, \"Bank: \") */\n      tag_192\n        /* \"test.sol\":6925:6933  bankHand */\n      0x03\n        /* \"test.sol\":6914:6944  formatHand(bankHand, \"Bank: \") */\n      dup1\n      sload\n      dup1\n      0x20\n      mul\n      0x20\n      add\n      mload(0x40)\n      swap1\n      dup2\n      add\n      0x40\n      mstore\n      dup1\n      swap3\n      swap2\n      swap1\n      dup2\n      dup2\n      mstore\n      0x20\n      add\n      dup3\n      dup1\n      sload\n      dup1\n      iszero\n      tag_193\n      jumpi\n      0x20\n      mul\n      dup3\n      add\n      swap2\n      swap1\n      0x00\n      mstore\n      keccak256(0x00, 0x20)\n      swap1\n      0x00\n      swap1\n    tag_194:\n      dup3\n      dup3\n      swap1\n      sload\n      swap1\n      0x0100\n      exp\n      swap1\n      div\n      0xff\n      and\n      0xff\n      and\n      dup2\n      mstore\n      0x20\n      add\n      swap1\n      0x01\n      add\n      swap1\n      0x20\n      dup3\n      0x00\n      add\n      div\n      swap3\n      dup4\n      add\n      swap3\n      0x01\n      sub\n      dup3\n      mul\n      swap2\n      pop\n      dup1\n      dup5\n      gt\n      tag_194\n      jumpi\n      swap1\n      pop\n    tag_193:\n      pop\n      pop\n      pop\n      pop\n      pop\n      mload(0x40)\n      dup1\n      0x40\n      add\n      0x40\n      mstore\n      dup1\n      0x06\n      dup2\n      mstore\n      0x20\n      add\n      0x42616e6b3a200000000000000000000000000000000000000000000000000000\n      dup2\n      mstore\n      pop\n        /* \"test.sol\":6914:6924  formatHand */\n      tag_129\n        /* \"test.sol\":6914:6944  formatHand(bankHand, \"Bank: \") */\n      jump\t// in\n    tag_192:\n        /* \"test.sol\":6894:6908  formattedHands */\n      dup2\n        /* \"test.sol\":6909:6910  0 */\n      0x00\n        /* \"test.sol\":6894:6911  formattedHands[0] */\n      dup2\n      mload\n      dup2\n      lt\n      tag_195\n      jumpi\n      tag_196\n      tag_79\n      jump\t// in\n    tag_196:\n    tag_195:\n      0x20\n      mul\n      0x20\n      add\n      add\n        /* \"test.sol\":6894:6944  formattedHands[0] = formatHand(bankHand, \"Bank: \") */\n      dup2\n      swap1\n      mstore\n      pop\n        /* \"test.sol\":6960:6969  uint256 i */\n      0x00\n        /* \"test.sol\":6955:7138  for (uint256 i = 0; i < players.length; i++) {... */\n    tag_197:\n        /* \"test.sol\":6979:6986  players */\n      0x01\n        /* \"test.sol\":6979:6993  players.length */\n      dup1\n      sload\n      swap1\n      pop\n        /* \"test.sol\":6975:6976  i */\n      dup2\n        /* \"test.sol\":6975:6993  i < players.length */\n      lt\n        /* \"test.sol\":6955:7138  for (uint256 i = 0; i < players.length; i++) {... */\n      iszero\n      tag_198\n      jumpi\n        /* \"test.sol\":7039:7126  formatHand(players[i].hand, string(abi.encodePacked(\"Player \", uint2str(i + 1), \": \"))) */\n      tag_200\n        /* \"test.sol\":7050:7057  players */\n      0x01\n        /* \"test.sol\":7058:7059  i */\n      dup3\n        /* \"test.sol\":7050:7060  players[i] */\n      dup2\n      sload\n      dup2\n      lt\n      tag_201\n      jumpi\n      tag_202\n      tag_79\n      jump\t// in\n    tag_202:\n    tag_201:\n      swap1\n      0x00\n      mstore\n      keccak256(0x00, 0x20)\n      swap1\n      0x04\n      mul\n      add\n        /* \"test.sol\":7050:7065  players[i].hand */\n      0x02\n      add\n        /* \"test.sol\":7039:7126  formatHand(players[i].hand, string(abi.encodePacked(\"Player \", uint2str(i + 1), \": \"))) */\n      dup1\n      sload\n      dup1\n      0x20\n      mul\n      0x20\n      add\n      mload(0x40)\n      swap1\n      dup2\n      add\n      0x40\n      mstore\n      dup1\n      swap3\n      swap2\n      swap1\n      dup2\n      dup2\n      mstore\n      0x20\n      add\n      dup3\n      dup1\n      sload\n      dup1\n      iszero\n      tag_204\n      jumpi\n      0x20\n      mul\n      dup3\n      add\n      swap2\n      swap1\n      0x00\n      mstore\n      keccak256(0x00, 0x20)\n      swap1\n      0x00\n      swap1\n    tag_205:\n      dup3\n      dup3\n      swap1\n      sload\n      swap1\n      0x0100\n      exp\n      swap1\n      div\n      0xff\n      and\n      0xff\n      and\n      dup2\n      mstore\n      0x20\n      add\n      swap1\n      0x01\n      add\n      swap1\n      0x20\n      dup3\n      0x00\n      add\n      div\n      swap3\n      dup4\n      add\n      swap3\n      0x01\n      sub\n      dup3\n      mul\n      swap2\n      pop\n      dup1\n      dup5\n      gt\n      tag_205\n      jumpi\n      swap1\n      pop\n    tag_204:\n      pop\n      pop\n      pop\n      pop\n      pop\n        /* \"test.sol\":7102:7117  uint2str(i + 1) */\n      tag_206\n        /* \"test.sol\":7115:7116  1 */\n      0x01\n        /* \"test.sol\":7111:7112  i */\n      dup5\n        /* \"test.sol\":7111:7116  i + 1 */\n      tag_207\n      swap2\n      swap1\n      tag_186\n      jump\t// in\n    tag_207:\n        /* \"test.sol\":7102:7110  uint2str */\n      tag_208\n        /* \"test.sol\":7102:7117  uint2str(i + 1) */\n      jump\t// in\n    tag_206:\n        /* \"test.sol\":7074:7124  abi.encodePacked(\"Player \", uint2str(i + 1), \": \") */\n      add(0x20, mload(0x40))\n      tag_209\n      swap2\n      swap1\n      tag_210\n      jump\t// in\n    tag_209:\n      mload(0x40)\n      0x20\n      dup2\n      dup4\n      sub\n      sub\n      dup2\n      mstore\n      swap1\n      0x40\n      mstore\n        /* \"test.sol\":7039:7049  formatHand */\n      tag_129\n        /* \"test.sol\":7039:7126  formatHand(players[i].hand, string(abi.encodePacked(\"Player \", uint2str(i + 1), \": \"))) */\n      jump\t// in\n    tag_200:\n        /* \"test.sol\":7015:7029  formattedHands */\n      dup3\n        /* \"test.sol\":7034:7035  1 */\n      0x01\n        /* \"test.sol\":7030:7031  i */\n      dup4\n        /* \"test.sol\":7030:7035  i + 1 */\n      tag_211\n      swap2\n      swap1\n      tag_186\n      jump\t// in\n    tag_211:\n        /* \"test.sol\":7015:7036  formattedHands[i + 1] */\n      dup2\n      mload\n      dup2\n      lt\n      tag_212\n      jumpi\n      tag_213\n      tag_79\n      jump\t// in\n    tag_213:\n    tag_212:\n      0x20\n      mul\n      0x20\n      add\n      add\n        /* \"test.sol\":7015:7126  formattedHands[i + 1] = formatHand(players[i].hand, string(abi.encodePacked(\"Player \", uint2str(i + 1), \": \"))) */\n      dup2\n      swap1\n      mstore\n      pop\n        /* \"test.sol\":6995:6998  i++ */\n      dup1\n      dup1\n      0x01\n      add\n      swap2\n      pop\n      pop\n        /* \"test.sol\":6955:7138  for (uint256 i = 0; i < players.length; i++) {... */\n      jump(tag_197)\n    tag_198:\n      pop\n        /* \"test.sol\":7155:7169  formattedHands */\n      dup1\n        /* \"test.sol\":7148:7169  return formattedHands */\n      swap2\n      pop\n      pop\n        /* \"test.sol\":6735:7177  function getAllHandsFormatted() external view returns (string[] memory) {... */\n      swap1\n      jump\t// out\n        /* \"test.sol\":974:1332  function startGame() external {... */\n    tag_61:\n        /* \"test.sol\":1037:1038  0 */\n      0x00\n        /* \"test.sol\":1023:1034  playerCount */\n      sload(0x02)\n        /* \"test.sol\":1023:1038  playerCount > 0 */\n      gt\n        /* \"test.sol\":1015:1065  require(playerCount > 0, \"No players in the game\") */\n      tag_215\n      jumpi\n      mload(0x40)\n      0x08c379a000000000000000000000000000000000000000000000000000000000\n      dup2\n      mstore\n      0x04\n      add\n      tag_216\n      swap1\n      tag_217\n      jump\t// in\n    tag_216:\n      mload(0x40)\n      dup1\n      swap2\n      sub\n      swap1\n      revert\n    tag_215:\n        /* \"test.sol\":1076:1089  shuffleDeck() */\n      tag_218\n        /* \"test.sol\":1076:1087  shuffleDeck */\n      tag_219\n        /* \"test.sol\":1076:1089  shuffleDeck() */\n      jump\t// in\n    tag_218:\n        /* \"test.sol\":1107:1116  uint256 i */\n      0x00\n        /* \"test.sol\":1102:1253  for (uint256 i = 0; i < players.length; i++) {... */\n    tag_220:\n        /* \"test.sol\":1126:1133  players */\n      0x01\n        /* \"test.sol\":1126:1140  players.length */\n      dup1\n      sload\n      swap1\n      pop\n        /* \"test.sol\":1122:1123  i */\n      dup2\n        /* \"test.sol\":1122:1140  i < players.length */\n      lt\n        /* \"test.sol\":1102:1253  for (uint256 i = 0; i < players.length; i++) {... */\n      iszero\n      tag_221\n      jumpi\n        /* \"test.sol\":1162:1169  players */\n      0x01\n        /* \"test.sol\":1170:1171  i */\n      dup2\n        /* \"test.sol\":1162:1172  players[i] */\n      dup2\n      sload\n      dup2\n      lt\n      tag_223\n      jumpi\n      tag_224\n      tag_79\n      jump\t// in\n    tag_224:\n    tag_223:\n      swap1\n      0x00\n      mstore\n      keccak256(0x00, 0x20)\n      swap1\n      0x04\n      mul\n      add\n        /* \"test.sol\":1162:1177  players[i].hand */\n      0x02\n      add\n        /* \"test.sol\":1183:1193  drawCard() */\n      tag_226\n        /* \"test.sol\":1183:1191  drawCard */\n      tag_91\n        /* \"test.sol\":1183:1193  drawCard() */\n      jump\t// in\n    tag_226:\n        /* \"test.sol\":1162:1194  players[i].hand.push(drawCard()) */\n      swap1\n      dup1\n      0x01\n      dup2\n      sload\n      add\n      dup1\n      dup3\n      sstore\n      dup1\n      swap2\n      pop\n      pop\n      0x01\n      swap1\n      sub\n      swap1\n      0x00\n      mstore\n      keccak256(0x00, 0x20)\n      swap1\n      0x20\n      swap2\n      dup3\n      dup3\n      div\n      add\n      swap2\n      swap1\n      mod\n      swap1\n      swap2\n      swap1\n      swap2\n      swap1\n      swap2\n      0x0100\n      exp\n      dup2\n      sload\n      dup2\n      0xff\n      mul\n      not\n      and\n      swap1\n      dup4\n      0xff\n      and\n      mul\n      or\n      swap1\n      sstore\n      pop\n        /* \"test.sol\":1209:1216  players */\n      0x01\n        /* \"test.sol\":1217:1218  i */\n      dup2\n        /* \"test.sol\":1209:1219  players[i] */\n      dup2\n      sload\n      dup2\n      lt\n      tag_228\n      jumpi\n      tag_229\n      tag_79\n      jump\t// in\n    tag_229:\n    tag_228:\n      swap1\n      0x00\n      mstore\n      keccak256(0x00, 0x20)\n      swap1\n      0x04\n      mul\n      add\n        /* \"test.sol\":1209:1224  players[i].hand */\n      0x02\n      add\n        /* \"test.sol\":1230:1240  drawCard() */\n      tag_231\n        /* \"test.sol\":1230:1238  drawCard */\n      tag_91\n        /* \"test.sol\":1230:1240  drawCard() */\n      jump\t// in\n    tag_231:\n        /* \"test.sol\":1209:1241  players[i].hand.push(drawCard()) */\n      swap1\n      dup1\n      0x01\n      dup2\n      sload\n      add\n      dup1\n      dup3\n      sstore\n      dup1\n      swap2\n      pop\n      pop\n      0x01\n      swap1\n      sub\n      swap1\n      0x00\n      mstore\n      keccak256(0x00, 0x20)\n      swap1\n      0x20\n      swap2\n      dup3\n      dup3\n      div\n      add\n      swap2\n      swap1\n      mod\n      swap1\n      swap2\n      swap1\n      swap2\n      swap1\n      swap2\n      0x0100\n      exp\n      dup2\n      sload\n      dup2\n      0xff\n      mul\n      not\n      and\n      swap1\n      dup4\n      0xff\n      and\n      mul\n      or\n      swap1\n      sstore\n      pop\n        /* \"test.sol\":1142:1145  i++ */\n      dup1\n      dup1\n      0x01\n      add\n      swap2\n      pop\n      pop\n        /* \"test.sol\":1102:1253  for (uint256 i = 0; i < players.length; i++) {... */\n      jump(tag_220)\n    tag_221:\n      pop\n        /* \"test.sol\":1263:1271  bankHand */\n      0x03\n        /* \"test.sol\":1277:1287  drawCard() */\n      tag_233\n        /* \"test.sol\":1277:1285  drawCard */\n      tag_91\n        /* \"test.sol\":1277:1287  drawCard() */\n      jump\t// in\n    tag_233:\n        /* \"test.sol\":1263:1288  bankHand.push(drawCard()) */\n      swap1\n      dup1\n      0x01\n      dup2\n      sload\n      add\n      dup1\n      dup3\n      sstore\n      dup1\n      swap2\n      pop\n      pop\n      0x01\n      swap1\n      sub\n      swap1\n      0x00\n      mstore\n      keccak256(0x00, 0x20)\n      swap1\n      0x20\n      swap2\n      dup3\n      dup3\n      div\n      add\n      swap2\n      swap1\n      mod\n      swap1\n      swap2\n      swap1\n      swap2\n      swap1\n      swap2\n      0x0100\n      exp\n      dup2\n      sload\n      dup2\n      0xff\n      mul\n      not\n      and\n      swap1\n      dup4\n      0xff\n      and\n      mul\n      or\n      swap1\n      sstore\n      pop\n        /* \"test.sol\":1299:1307  bankHand */\n      0x03\n        /* \"test.sol\":1313:1323  drawCard() */\n      tag_235\n        /* \"test.sol\":1313:1321  drawCard */\n      tag_91\n        /* \"test.sol\":1313:1323  drawCard() */\n      jump\t// in\n    tag_235:\n        /* \"test.sol\":1299:1324  bankHand.push(drawCard()) */\n      swap1\n      dup1\n      0x01\n      dup2\n      sload\n      add\n      dup1\n      dup3\n      sstore\n      dup1\n      swap2\n      pop\n      pop\n      0x01\n      swap1\n      sub\n      swap1\n      0x00\n      mstore\n      keccak256(0x00, 0x20)\n      swap1\n      0x20\n      swap2\n      dup3\n      dup3\n      div\n      add\n      swap2\n      swap1\n      mod\n      swap1\n      swap2\n      swap1\n      swap2\n      swap1\n      swap2\n      0x0100\n      exp\n      dup2\n      sload\n      dup2\n      0xff\n      mul\n      not\n      and\n      swap1\n      dup4\n      0xff\n      and\n      mul\n      or\n      swap1\n      sstore\n      pop\n        /* \"test.sol\":974:1332  function startGame() external {... */\n      jump\t// out\n        /* \"test.sol\":571:966  function joinGame(uint256 bet) external payable {... */\n    tag_64:\n        /* \"test.sol\":652:653  4 */\n      0x04\n        /* \"test.sol\":638:649  playerCount */\n      sload(0x02)\n        /* \"test.sol\":638:653  playerCount < 4 */\n      lt\n        /* \"test.sol\":630:679  require(playerCount < 4, \"Max 4 players allowed\") */\n      tag_238\n      jumpi\n      mload(0x40)\n      0x08c379a000000000000000000000000000000000000000000000000000000000\n      dup2\n      mstore\n      0x04\n      add\n      tag_239\n      swap1\n      tag_240\n      jump\t// in\n    tag_239:\n      mload(0x40)\n      dup1\n      swap2\n      sub\n      swap1\n      revert\n    tag_238:\n        /* \"test.sol\":711:714  bet */\n      dup1\n        /* \"test.sol\":698:707  msg.value */\n      callvalue\n        /* \"test.sol\":698:714  msg.value == bet */\n      eq\n        /* \"test.sol\":690:738  require(msg.value == bet, \"Bet amount mismatch\") */\n      tag_241\n      jumpi\n      mload(0x40)\n      0x08c379a000000000000000000000000000000000000000000000000000000000\n      dup2\n      mstore\n      0x04\n      add\n      tag_242\n      swap1\n      tag_243\n      jump\t// in\n    tag_242:\n      mload(0x40)\n      dup1\n      swap2\n      sub\n      swap1\n      revert\n    tag_241:\n        /* \"test.sol\":751:758  players */\n      0x01\n        /* \"test.sol\":764:931  Player({... */\n      mload(0x40)\n      dup1\n      0xa0\n      add\n      0x40\n      mstore\n      dup1\n        /* \"test.sol\":792:802  msg.sender */\n      caller\n        /* \"test.sol\":764:931  Player({... */\n      0xffffffffffffffffffffffffffffffffffffffff\n      and\n      dup2\n      mstore\n      0x20\n      add\n        /* \"test.sol\":822:825  bet */\n      dup4\n        /* \"test.sol\":764:931  Player({... */\n      dup2\n      mstore\n      0x20\n      add\n        /* \"test.sol\":858:859  0 */\n      0x00\n        /* \"test.sol\":846:860  new uint8[](0) */\n      0xffffffffffffffff\n      dup2\n      gt\n      iszero\n      tag_244\n      jumpi\n      tag_245\n      tag_189\n      jump\t// in\n    tag_245:\n    tag_244:\n      mload(0x40)\n      swap1\n      dup1\n      dup3\n      mstore\n      dup1\n      0x20\n      mul\n      0x20\n      add\n      dup3\n      add\n      0x40\n      mstore\n      dup1\n      iszero\n      tag_246\n      jumpi\n      dup2\n      0x20\n      add\n      0x20\n      dup3\n      mul\n      dup1\n      calldatasize\n      dup4\n      calldatacopy\n      dup1\n      dup3\n      add\n      swap2\n      pop\n      pop\n      swap1\n      pop\n    tag_246:\n      pop\n        /* \"test.sol\":764:931  Player({... */\n      dup2\n      mstore\n      0x20\n      add\n        /* \"test.sol\":885:889  true */\n      0x01\n        /* \"test.sol\":764:931  Player({... */\n      iszero\n      iszero\n      dup2\n      mstore\n      0x20\n      add\n        /* \"test.sol\":914:919  false */\n      0x00\n        /* \"test.sol\":764:931  Player({... */\n      iszero\n      iszero\n      dup2\n      mstore\n      pop\n        /* \"test.sol\":751:932  players.push(Player({... */\n      swap1\n      dup1\n      0x01\n      dup2\n      sload\n      add\n      dup1\n      dup3\n      sstore\n      dup1\n      swap2\n      pop\n      pop\n      0x01\n      swap1\n      sub\n      swap1\n      0x00\n      mstore\n      keccak256(0x00, 0x20)\n      swap1\n      0x04\n      mul\n      add\n      0x00\n      swap1\n      swap2\n      swap1\n      swap2\n      swap1\n      swap2\n      pop\n      0x00\n      dup3\n      add\n      mload\n      dup2\n      0x00\n      add\n      exp(0x0100, 0x00)\n      dup2\n      sload\n      dup2\n      0xffffffffffffffffffffffffffffffffffffffff\n      mul\n      not\n      and\n      swap1\n      dup4\n      0xffffffffffffffffffffffffffffffffffffffff\n      and\n      mul\n      or\n      swap1\n      sstore\n      pop\n      0x20\n      dup3\n      add\n      mload\n      dup2\n      0x01\n      add\n      sstore\n      0x40\n      dup3\n      add\n      mload\n      dup2\n      0x02\n      add\n      swap1\n      dup1\n      mload\n      swap1\n      0x20\n      add\n      swap1\n      tag_248\n      swap3\n      swap2\n      swap1\n      tag_249\n      jump\t// in\n    tag_248:\n      pop\n      0x60\n      dup3\n      add\n      mload\n      dup2\n      0x03\n      add\n      exp(0x0100, 0x00)\n      dup2\n      sload\n      dup2\n      0xff\n      mul\n      not\n      and\n      swap1\n      dup4\n      iszero\n      iszero\n      mul\n      or\n      swap1\n      sstore\n      pop\n      0x80\n      dup3\n      add\n      mload\n      dup2\n      0x03\n      add\n      exp(0x0100, 0x01)\n      dup2\n      sload\n      dup2\n      0xff\n      mul\n      not\n      and\n      swap1\n      dup4\n      iszero\n      iszero\n      mul\n      or\n      swap1\n      sstore\n      pop\n      pop\n      pop\n        /* \"test.sol\":945:956  playerCount */\n      0x02\n      0x00\n        /* \"test.sol\":945:958  playerCount++ */\n      dup2\n      sload\n      dup1\n      swap3\n      swap2\n      swap1\n      tag_250\n      swap1\n      tag_251\n      jump\t// in\n    tag_250:\n      swap2\n      swap1\n      pop\n      sstore\n      pop\n        /* \"test.sol\":571:966  function joinGame(uint256 bet) external payable {... */\n      pop\n      jump\t// out\n        /* \"test.sol\":312:335  Player[] public players */\n    tag_68:\n      0x01\n      dup2\n      dup2\n      sload\n      dup2\n      lt\n      tag_252\n      jumpi\n      0x00\n      dup1\n      revert\n    tag_252:\n      swap1\n      0x00\n      mstore\n      keccak256(0x00, 0x20)\n      swap1\n      0x04\n      mul\n      add\n      0x00\n      swap2\n      pop\n      swap1\n      pop\n      dup1\n      0x00\n      add\n      0x00\n      swap1\n      sload\n      swap1\n      0x0100\n      exp\n      swap1\n      div\n      0xffffffffffffffffffffffffffffffffffffffff\n      and\n      swap1\n      dup1\n      0x01\n      add\n      sload\n      swap1\n      dup1\n      0x03\n      add\n      0x00\n      swap1\n      sload\n      swap1\n      0x0100\n      exp\n      swap1\n      div\n      0xff\n      and\n      swap1\n      dup1\n      0x03\n      add\n      0x01\n      swap1\n      sload\n      swap1\n      0x0100\n      exp\n      swap1\n      div\n      0xff\n      and\n      swap1\n      pop\n      dup5\n      jump\t// out\n        /* \"test.sol\":4613:4899  function findPlayerIndex(address playerAddress) internal view returns (uint256) {... */\n    tag_73:\n        /* \"test.sol\":4684:4691  uint256 */\n      0x00\n        /* \"test.sol\":4709:4718  uint256 i */\n      dup1\n        /* \"test.sol\":4721:4722  0 */\n      0x00\n        /* \"test.sol\":4709:4722  uint256 i = 0 */\n      swap1\n      pop\n        /* \"test.sol\":4704:4856  for (uint256 i = 0; i < players.length; i++) {... */\n    tag_255:\n        /* \"test.sol\":4728:4735  players */\n      0x01\n        /* \"test.sol\":4728:4742  players.length */\n      dup1\n      sload\n      swap1\n      pop\n        /* \"test.sol\":4724:4725  i */\n      dup2\n        /* \"test.sol\":4724:4742  i < players.length */\n      lt\n        /* \"test.sol\":4704:4856  for (uint256 i = 0; i < players.length; i++) {... */\n      iszero\n      tag_256\n      jumpi\n        /* \"test.sol\":4787:4800  playerAddress */\n      dup3\n        /* \"test.sol\":4768:4800  players[i].addr == playerAddress */\n      0xffffffffffffffffffffffffffffffffffffffff\n      and\n        /* \"test.sol\":4768:4775  players */\n      0x01\n        /* \"test.sol\":4776:4777  i */\n      dup3\n        /* \"test.sol\":4768:4778  players[i] */\n      dup2\n      sload\n      dup2\n      lt\n      tag_258\n      jumpi\n      tag_259\n      tag_79\n      jump\t// in\n    tag_259:\n    tag_258:\n      swap1\n      0x00\n      mstore\n      keccak256(0x00, 0x20)\n      swap1\n      0x04\n      mul\n      add\n        /* \"test.sol\":4768:4783  players[i].addr */\n      0x00\n      add\n      0x00\n      swap1\n      sload\n      swap1\n      0x0100\n      exp\n      swap1\n      div\n      0xffffffffffffffffffffffffffffffffffffffff\n      and\n        /* \"test.sol\":4768:4800  players[i].addr == playerAddress */\n      0xffffffffffffffffffffffffffffffffffffffff\n      and\n      sub\n        /* \"test.sol\":4764:4845  if (players[i].addr == playerAddress) {... */\n      tag_261\n      jumpi\n        /* \"test.sol\":4828:4829  i */\n      dup1\n        /* \"test.sol\":4821:4829  return i */\n      swap2\n      pop\n      pop\n      jump(tag_254)\n        /* \"test.sol\":4764:4845  if (players[i].addr == playerAddress) {... */\n    tag_261:\n        /* \"test.sol\":4744:4747  i++ */\n      dup1\n      dup1\n      0x01\n      add\n      swap2\n      pop\n      pop\n        /* \"test.sol\":4704:4856  for (uint256 i = 0; i < players.length; i++) {... */\n      jump(tag_255)\n    tag_256:\n      pop\n        /* \"test.sol\":4873:4890  type(uint256).max */\n      0xffffffffffffffffffffffffffffffffffffffffffffffffffffffffffffffff\n        /* \"test.sol\":4866:4890  return type(uint256).max */\n      swap1\n      pop\n        /* \"test.sol\":4613:4899  function findPlayerIndex(address playerAddress) internal view returns (uint256) {... */\n    tag_254:\n      swap2\n      swap1\n      pop\n      jump\t// out\n        /* \"CardDeck.sol\":833:1069  function drawCard() internal returns (uint8) {... */\n    tag_91:\n        /* \"CardDeck.sol\":871:876  uint8 */\n      0x00\n        /* \"CardDeck.sol\":911:912  0 */\n      dup1\n        /* \"CardDeck.sol\":897:901  deck */\n      0x00\n        /* \"CardDeck.sol\":897:908  deck.length */\n      dup1\n      sload\n      swap1\n      pop\n        /* \"CardDeck.sol\":897:912  deck.length > 0 */\n      gt\n        /* \"CardDeck.sol\":889:942  require(deck.length > 0, \"No cards left in the deck\") */\n      tag_263\n      jumpi\n      mload(0x40)\n      0x08c379a000000000000000000000000000000000000000000000000000000000\n      dup2\n      mstore\n      0x04\n      add\n      tag_264\n      swap1\n      tag_265\n      jump\t// in\n    tag_264:\n      mload(0x40)\n      dup1\n      swap2\n      sub\n      swap1\n      revert\n    tag_263:\n        /* \"CardDeck.sol\":953:963  uint8 card */\n      0x00\n        /* \"CardDeck.sol\":966:970  deck */\n      dup1\n        /* \"CardDeck.sol\":985:986  1 */\n      0x01\n        /* \"CardDeck.sol\":971:975  deck */\n      0x00\n        /* \"CardDeck.sol\":971:982  deck.length */\n      dup1\n      sload\n      swap1\n      pop\n        /* \"CardDeck.sol\":971:986  deck.length - 1 */\n      tag_266\n      swap2\n      swap1\n      tag_267\n      jump\t// in\n    tag_266:\n        /* \"CardDeck.sol\":966:987  deck[deck.length - 1] */\n      dup2\n      sload\n      dup2\n      lt\n      tag_268\n      jumpi\n      tag_269\n      tag_79\n      jump\t// in\n    tag_269:\n    tag_268:\n      swap1\n      0x00\n      mstore\n      keccak256(0x00, 0x20)\n      swap1\n      0x20\n      swap2\n      dup3\n      dup3\n      div\n      add\n      swap2\n      swap1\n      mod\n      swap1\n      sload\n      swap1\n      0x0100\n      exp\n      swap1\n      div\n      0xff\n      and\n        /* \"CardDeck.sol\":953:987  uint8 card = deck[deck.length - 1] */\n      swap1\n      pop\n        /* \"CardDeck.sol\":998:1002  deck */\n      0x00\n        /* \"CardDeck.sol\":998:1008  deck.pop() */\n      dup1\n      sload\n      dup1\n      tag_271\n      jumpi\n      tag_272\n      tag_273\n      jump\t// in\n    tag_272:\n    tag_271:\n      0x01\n      swap1\n      sub\n      dup2\n      dup2\n      swap1\n      0x00\n      mstore\n      keccak256(0x00, 0x20)\n      swap1\n      0x20\n      swap2\n      dup3\n      dup3\n      div\n      add\n      swap2\n      swap1\n      mod\n      0x0100\n      exp\n      dup2\n      sload\n      swap1\n      0xff\n      mul\n      not\n      and\n      swap1\n      sstore\n      swap1\n      sstore\n        /* \"CardDeck.sol\":1057:1061  card */\n      dup1\n        /* \"CardDeck.sol\":1050:1061  return card */\n      swap2\n      pop\n      pop\n        /* \"CardDeck.sol\":833:1069  function drawCard() internal returns (uint8) {... */\n      swap1\n      jump\t// out\n        /* \"CardDeck.sol\":1077:1707  function getHandValue(uint8[] memory hand) internal pure returns (uint8) {... */\n    tag_102:\n        /* \"CardDeck.sol\":1143:1148  uint8 */\n      0x00\n        /* \"CardDeck.sol\":1161:1172  uint8 value */\n      dup1\n        /* \"CardDeck.sol\":1175:1176  0 */\n      0x00\n        /* \"CardDeck.sol\":1161:1176  uint8 value = 0 */\n      swap1\n      pop\n        /* \"CardDeck.sol\":1187:1197  uint8 aces */\n      0x00\n        /* \"CardDeck.sol\":1219:1228  uint256 i */\n      dup1\n        /* \"CardDeck.sol\":1214:1540  for (uint256 i = 0; i < hand.length; i++) {... */\n    tag_276:\n        /* \"CardDeck.sol\":1238:1242  hand */\n      dup5\n        /* \"CardDeck.sol\":1238:1249  hand.length */\n      mload\n        /* \"CardDeck.sol\":1234:1235  i */\n      dup2\n        /* \"CardDeck.sol\":1234:1249  i < hand.length */\n      lt\n        /* \"CardDeck.sol\":1214:1540  for (uint256 i = 0; i < hand.length; i++) {... */\n      iszero\n      tag_277\n      jumpi\n        /* \"CardDeck.sol\":1271:1286  uint8 cardValue */\n      0x00\n        /* \"CardDeck.sol\":1299:1301  13 */\n      0x0d\n        /* \"CardDeck.sol\":1289:1293  hand */\n      dup7\n        /* \"CardDeck.sol\":1294:1295  i */\n      dup4\n        /* \"CardDeck.sol\":1289:1296  hand[i] */\n      dup2\n      mload\n      dup2\n      lt\n      tag_279\n      jumpi\n      tag_280\n      tag_79\n      jump\t// in\n    tag_280:\n    tag_279:\n      0x20\n      mul\n      0x20\n      add\n      add\n      mload\n        /* \"CardDeck.sol\":1289:1301  hand[i] % 13 */\n      tag_281\n      swap2\n      swap1\n      tag_282\n      jump\t// in\n    tag_281:\n        /* \"CardDeck.sol\":1271:1301  uint8 cardValue = hand[i] % 13 */\n      swap1\n      pop\n        /* \"CardDeck.sol\":1356:1357  0 */\n      0x00\n        /* \"CardDeck.sol\":1343:1352  cardValue */\n      dup2\n        /* \"CardDeck.sol\":1343:1357  cardValue == 0 */\n      0xff\n      and\n      sub\n        /* \"CardDeck.sol\":1339:1373  if (cardValue == 0) cardValue = 13 */\n      tag_283\n      jumpi\n        /* \"CardDeck.sol\":1371:1373  13 */\n      0x0d\n        /* \"CardDeck.sol\":1359:1373  cardValue = 13 */\n      swap1\n      pop\n        /* \"CardDeck.sol\":1339:1373  if (cardValue == 0) cardValue = 13 */\n    tag_283:\n        /* \"CardDeck.sol\":1404:1406  10 */\n      0x0a\n        /* \"CardDeck.sol\":1392:1401  cardValue */\n      dup2\n        /* \"CardDeck.sol\":1392:1406  cardValue > 10 */\n      0xff\n      and\n      gt\n        /* \"CardDeck.sol\":1388:1422  if (cardValue > 10) cardValue = 10 */\n      iszero\n      tag_284\n      jumpi\n        /* \"CardDeck.sol\":1420:1422  10 */\n      0x0a\n        /* \"CardDeck.sol\":1408:1422  cardValue = 10 */\n      swap1\n      pop\n        /* \"CardDeck.sol\":1388:1422  if (cardValue > 10) cardValue = 10 */\n    tag_284:\n        /* \"CardDeck.sol\":1479:1480  1 */\n      0x01\n        /* \"CardDeck.sol\":1466:1475  cardValue */\n      dup2\n        /* \"CardDeck.sol\":1466:1480  cardValue == 1 */\n      0xff\n      and\n      sub\n        /* \"CardDeck.sol\":1462:1488  if (cardValue == 1) aces++ */\n      tag_285\n      jumpi\n        /* \"CardDeck.sol\":1482:1488  aces++ */\n      dup3\n      dup1\n      tag_286\n      swap1\n      tag_287\n      jump\t// in\n    tag_286:\n      swap4\n      pop\n      pop\n        /* \"CardDeck.sol\":1462:1488  if (cardValue == 1) aces++ */\n    tag_285:\n        /* \"CardDeck.sol\":1519:1528  cardValue */\n      dup1\n        /* \"CardDeck.sol\":1510:1528  value += cardValue */\n      dup5\n      tag_288\n      swap2\n      swap1\n      tag_289\n      jump\t// in\n    tag_288:\n      swap4\n      pop\n        /* \"CardDeck.sol\":1256:1540  {... */\n      pop\n        /* \"CardDeck.sol\":1251:1254  i++ */\n      dup1\n      dup1\n      0x01\n      add\n      swap2\n      pop\n      pop\n        /* \"CardDeck.sol\":1214:1540  for (uint256 i = 0; i < hand.length; i++) {... */\n      jump(tag_276)\n    tag_277:\n      pop\n        /* \"CardDeck.sol\":1552:1675  while (value <= 11 && aces > 0) {... */\n    tag_290:\n        /* \"CardDeck.sol\":1568:1570  11 */\n      0x0b\n        /* \"CardDeck.sol\":1559:1564  value */\n      dup3\n        /* \"CardDeck.sol\":1559:1570  value <= 11 */\n      0xff\n      and\n      gt\n      iszero\n        /* \"CardDeck.sol\":1559:1582  value <= 11 && aces > 0 */\n      dup1\n      iszero\n      tag_292\n      jumpi\n      pop\n        /* \"CardDeck.sol\":1581:1582  0 */\n      0x00\n        /* \"CardDeck.sol\":1574:1578  aces */\n      dup2\n        /* \"CardDeck.sol\":1574:1582  aces > 0 */\n      0xff\n      and\n      gt\n        /* \"CardDeck.sol\":1559:1582  value <= 11 && aces > 0 */\n    tag_292:\n        /* \"CardDeck.sol\":1552:1675  while (value <= 11 && aces > 0) {... */\n      iszero\n      tag_291\n      jumpi\n        /* \"CardDeck.sol\":1608:1610  10 */\n      0x0a\n        /* \"CardDeck.sol\":1599:1610  value += 10 */\n      dup3\n      tag_293\n      swap2\n      swap1\n      tag_289\n      jump\t// in\n    tag_293:\n      swap2\n      pop\n        /* \"CardDeck.sol\":1657:1663  aces-- */\n      dup1\n      dup1\n      tag_294\n      swap1\n      tag_295\n      jump\t// in\n    tag_294:\n      swap2\n      pop\n      pop\n        /* \"CardDeck.sol\":1552:1675  while (value <= 11 && aces > 0) {... */\n      jump(tag_290)\n    tag_291:\n        /* \"CardDeck.sol\":1694:1699  value */\n      dup2\n        /* \"CardDeck.sol\":1687:1699  return value */\n      swap3\n      pop\n      pop\n      pop\n        /* \"CardDeck.sol\":1077:1707  function getHandValue(uint8[] memory hand) internal pure returns (uint8) {... */\n      swap2\n      swap1\n      pop\n      jump\t// out\n        /* \"test.sol\":5052:6071  function formatHand(uint8[] memory hand, string memory prefix) internal pure returns (string memory) {... */\n    tag_129:\n        /* \"test.sol\":5138:5151  string memory */\n      0x60\n        /* \"test.sol\":5164:5188  string memory handString */\n      0x00\n        /* \"test.sol\":5191:5197  prefix */\n      dup3\n        /* \"test.sol\":5164:5197  string memory handString = prefix */\n      swap1\n      pop\n        /* \"test.sol\":5213:5222  uint256 i */\n      0x00\n        /* \"test.sol\":5208:6036  for (uint256 i = 0; i < hand.length; i++) {... */\n    tag_297:\n        /* \"test.sol\":5232:5236  hand */\n      dup5\n        /* \"test.sol\":5232:5243  hand.length */\n      mload\n        /* \"test.sol\":5228:5229  i */\n      dup2\n        /* \"test.sol\":5228:5243  i < hand.length */\n      lt\n        /* \"test.sol\":5208:6036  for (uint256 i = 0; i < hand.length; i++) {... */\n      iszero\n      tag_298\n      jumpi\n        /* \"test.sol\":5265:5280  uint8 cardValue */\n      0x00\n        /* \"test.sol\":5293:5295  13 */\n      0x0d\n        /* \"test.sol\":5283:5287  hand */\n      dup7\n        /* \"test.sol\":5288:5289  i */\n      dup4\n        /* \"test.sol\":5283:5290  hand[i] */\n      dup2\n      mload\n      dup2\n      lt\n      tag_300\n      jumpi\n      tag_301\n      tag_79\n      jump\t// in\n    tag_301:\n    tag_300:\n      0x20\n      mul\n      0x20\n      add\n      add\n      mload\n        /* \"test.sol\":5283:5295  hand[i] % 13 */\n      tag_302\n      swap2\n      swap1\n      tag_282\n      jump\t// in\n    tag_302:\n        /* \"test.sol\":5265:5295  uint8 cardValue = hand[i] % 13 */\n      swap1\n      pop\n        /* \"test.sol\":5327:5328  0 */\n      0x00\n        /* \"test.sol\":5314:5323  cardValue */\n      dup2\n        /* \"test.sol\":5314:5328  cardValue == 0 */\n      0xff\n      and\n      sub\n        /* \"test.sol\":5310:5384  if (cardValue == 0) {... */\n      tag_303\n      jumpi\n        /* \"test.sol\":5361:5363  13 */\n      0x0d\n        /* \"test.sol\":5349:5363  cardValue = 13 */\n      swap1\n      pop\n        /* \"test.sol\":5310:5384  if (cardValue == 0) {... */\n    tag_303:\n        /* \"test.sol\":5400:5424  string memory cardSymbol */\n      0x60\n        /* \"test.sol\":5456:5457  1 */\n      0x01\n        /* \"test.sol\":5443:5452  cardValue */\n      dup3\n        /* \"test.sol\":5443:5457  cardValue == 1 */\n      0xff\n      and\n      sub\n        /* \"test.sol\":5439:5818  if (cardValue == 1) {... */\n      tag_304\n      jumpi\n        /* \"test.sol\":5478:5494  cardSymbol = \"A\" */\n      mload(0x40)\n      dup1\n      0x40\n      add\n      0x40\n      mstore\n      dup1\n      0x01\n      dup2\n      mstore\n      0x20\n      add\n      0x4100000000000000000000000000000000000000000000000000000000000000\n      dup2\n      mstore\n      pop\n      swap1\n      pop\n        /* \"test.sol\":5439:5818  if (cardValue == 1) {... */\n      jump(tag_305)\n    tag_304:\n        /* \"test.sol\":5533:5535  11 */\n      0x0b\n        /* \"test.sol\":5520:5529  cardValue */\n      dup3\n        /* \"test.sol\":5520:5535  cardValue == 11 */\n      0xff\n      and\n      sub\n        /* \"test.sol\":5516:5818  if (cardValue == 11) {... */\n      tag_306\n      jumpi\n        /* \"test.sol\":5556:5572  cardSymbol = \"J\" */\n      mload(0x40)\n      dup1\n      0x40\n      add\n      0x40\n      mstore\n      dup1\n      0x01\n      dup2\n      mstore\n      0x20\n      add\n      0x4a00000000000000000000000000000000000000000000000000000000000000\n      dup2\n      mstore\n      pop\n      swap1\n      pop\n        /* \"test.sol\":5516:5818  if (cardValue == 11) {... */\n      jump(tag_307)\n    tag_306:\n        /* \"test.sol\":5611:5613  12 */\n      0x0c\n        /* \"test.sol\":5598:5607  cardValue */\n      dup3\n        /* \"test.sol\":5598:5613  cardValue == 12 */\n      0xff\n      and\n      sub\n        /* \"test.sol\":5594:5818  if (cardValue == 12) {... */\n      tag_308\n      jumpi\n        /* \"test.sol\":5634:5650  cardSymbol = \"Q\" */\n      mload(0x40)\n      dup1\n      0x40\n      add\n      0x40\n      mstore\n      dup1\n      0x01\n      dup2\n      mstore\n      0x20\n      add\n      0x5100000000000000000000000000000000000000000000000000000000000000\n      dup2\n      mstore\n      pop\n      swap1\n      pop\n        /* \"test.sol\":5594:5818  if (cardValue == 12) {... */\n      jump(tag_309)\n    tag_308:\n        /* \"test.sol\":5689:5691  13 */\n      0x0d\n        /* \"test.sol\":5676:5685  cardValue */\n      dup3\n        /* \"test.sol\":5676:5691  cardValue == 13 */\n      0xff\n      and\n      sub\n        /* \"test.sol\":5672:5818  if (cardValue == 13) {... */\n      tag_310\n      jumpi\n        /* \"test.sol\":5712:5728  cardSymbol = \"K\" */\n      mload(0x40)\n      dup1\n      0x40\n      add\n      0x40\n      mstore\n      dup1\n      0x01\n      dup2\n      mstore\n      0x20\n      add\n      0x4b00000000000000000000000000000000000000000000000000000000000000\n      dup2\n      mstore\n      pop\n      swap1\n      pop\n        /* \"test.sol\":5672:5818  if (cardValue == 13) {... */\n      jump(tag_311)\n    tag_310:\n        /* \"test.sol\":5782:5801  uint2str(cardValue) */\n      tag_312\n        /* \"test.sol\":5791:5800  cardValue */\n      dup3\n        /* \"test.sol\":5782:5801  uint2str(cardValue) */\n      0xff\n      and\n        /* \"test.sol\":5782:5790  uint2str */\n      tag_208\n        /* \"test.sol\":5782:5801  uint2str(cardValue) */\n      jump\t// in\n    tag_312:\n        /* \"test.sol\":5769:5801  cardSymbol = uint2str(cardValue) */\n      swap1\n      pop\n        /* \"test.sol\":5672:5818  if (cardValue == 13) {... */\n    tag_311:\n        /* \"test.sol\":5594:5818  if (cardValue == 12) {... */\n    tag_309:\n        /* \"test.sol\":5516:5818  if (cardValue == 11) {... */\n    tag_307:\n        /* \"test.sol\":5439:5818  if (cardValue == 1) {... */\n    tag_305:\n        /* \"test.sol\":5871:5881  handString */\n      dup4\n        /* \"test.sol\":5883:5893  cardSymbol */\n      dup2\n        /* \"test.sol\":5854:5894  abi.encodePacked(handString, cardSymbol) */\n      add(0x20, mload(0x40))\n      tag_313\n      swap3\n      swap2\n      swap1\n      tag_314\n      jump\t// in\n    tag_313:\n      mload(0x40)\n      0x20\n      dup2\n      dup4\n      sub\n      sub\n      dup2\n      mstore\n      swap1\n      0x40\n      mstore\n        /* \"test.sol\":5834:5895  handString = string(abi.encodePacked(handString, cardSymbol)) */\n      swap4\n      pop\n        /* \"test.sol\":5932:5933  1 */\n      0x01\n        /* \"test.sol\":5918:5922  hand */\n      dup8\n        /* \"test.sol\":5918:5929  hand.length */\n      mload\n        /* \"test.sol\":5918:5933  hand.length - 1 */\n      tag_315\n      swap2\n      swap1\n      tag_267\n      jump\t// in\n    tag_315:\n        /* \"test.sol\":5914:5915  i */\n      dup4\n        /* \"test.sol\":5914:5933  i < hand.length - 1 */\n      lt\n        /* \"test.sol\":5910:6025  if (i < hand.length - 1) {... */\n      iszero\n      tag_316\n      jumpi\n        /* \"test.sol\":5991:6001  handString */\n      dup4\n        /* \"test.sol\":5974:6008  abi.encodePacked(handString, \", \") */\n      add(0x20, mload(0x40))\n      tag_317\n      swap2\n      swap1\n      tag_318\n      jump\t// in\n    tag_317:\n      mload(0x40)\n      0x20\n      dup2\n      dup4\n      sub\n      sub\n      dup2\n      mstore\n      swap1\n      0x40\n      mstore\n        /* \"test.sol\":5954:6009  handString = string(abi.encodePacked(handString, \", \")) */\n      swap4\n      pop\n        /* \"test.sol\":5910:6025  if (i < hand.length - 1) {... */\n    tag_316:\n        /* \"test.sol\":5250:6036  {... */\n      pop\n      pop\n        /* \"test.sol\":5245:5248  i++ */\n      dup1\n      dup1\n      0x01\n      add\n      swap2\n      pop\n      pop\n        /* \"test.sol\":5208:6036  for (uint256 i = 0; i < hand.length; i++) {... */\n      jump(tag_297)\n    tag_298:\n      pop\n        /* \"test.sol\":6053:6063  handString */\n      dup1\n        /* \"test.sol\":6046:6063  return handString */\n      swap2\n      pop\n      pop\n        /* \"test.sol\":5052:6071  function formatHand(uint8[] memory hand, string memory prefix) internal pure returns (string memory) {... */\n      swap3\n      swap2\n      pop\n      pop\n      jump\t// out\n        /* \"test.sol\":4907:5044  function resetGame() internal {... */\n    tag_165:\n        /* \"test.sol\":4955:4962  players */\n      0x01\n      0x00\n        /* \"test.sol\":4948:4962  delete players */\n      tag_320\n      swap2\n      swap1\n      tag_321\n      jump\t// in\n    tag_320:\n        /* \"test.sol\":4980:4988  bankHand */\n      0x03\n      0x00\n        /* \"test.sol\":4973:4988  delete bankHand */\n      tag_322\n      swap2\n      swap1\n      tag_323\n      jump\t// in\n    tag_322:\n        /* \"test.sol\":5013:5014  0 */\n      0x00\n        /* \"test.sol\":4999:5010  playerCount */\n      0x02\n        /* \"test.sol\":4999:5014  playerCount = 0 */\n      dup2\n      swap1\n      sstore\n      pop\n        /* \"test.sol\":5025:5036  resetDeck() */\n      tag_324\n        /* \"test.sol\":5025:5034  resetDeck */\n      tag_325\n        /* \"test.sol\":5025:5036  resetDeck() */\n      jump\t// in\n    tag_324:\n        /* \"test.sol\":4907:5044  function resetGame() internal {... */\n      jump\t// out\n        /* \"test.sol\":6079:6597  function uint2str(uint256 _i) internal pure returns (string memory _uintAsString) {... */\n    tag_208:\n        /* \"test.sol\":6132:6159  string memory _uintAsString */\n      0x60\n        /* \"test.sol\":6182:6183  0 */\n      0x00\n        /* \"test.sol\":6176:6178  _i */\n      dup3\n        /* \"test.sol\":6176:6183  _i == 0 */\n      sub\n        /* \"test.sol\":6172:6222  if (_i == 0) {... */\n      tag_327\n      jumpi\n        /* \"test.sol\":6200:6210  return \"0\" */\n      mload(0x40)\n      dup1\n      0x40\n      add\n      0x40\n      mstore\n      dup1\n      0x01\n      dup2\n      mstore\n      0x20\n      add\n      0x3000000000000000000000000000000000000000000000000000000000000000\n      dup2\n      mstore\n      pop\n      swap1\n      pop\n      jump(tag_326)\n        /* \"test.sol\":6172:6222  if (_i == 0) {... */\n    tag_327:\n        /* \"test.sol\":6232:6241  uint256 j */\n      0x00\n        /* \"test.sol\":6244:6246  _i */\n      dup3\n        /* \"test.sol\":6232:6246  uint256 j = _i */\n      swap1\n      pop\n        /* \"test.sol\":6257:6271  uint256 length */\n      0x00\n        /* \"test.sol\":6282:6354  while (j != 0) {... */\n    tag_328:\n        /* \"test.sol\":6294:6295  0 */\n      0x00\n        /* \"test.sol\":6289:6290  j */\n      dup3\n        /* \"test.sol\":6289:6295  j != 0 */\n      eq\n        /* \"test.sol\":6282:6354  while (j != 0) {... */\n      tag_329\n      jumpi\n        /* \"test.sol\":6312:6320  length++ */\n      dup1\n      dup1\n      tag_330\n      swap1\n      tag_251\n      jump\t// in\n    tag_330:\n      swap2\n      pop\n      pop\n        /* \"test.sol\":6340:6342  10 */\n      0x0a\n        /* \"test.sol\":6335:6342  j /= 10 */\n      dup3\n      tag_331\n      swap2\n      swap1\n      tag_332\n      jump\t// in\n    tag_331:\n      swap2\n      pop\n        /* \"test.sol\":6282:6354  while (j != 0) {... */\n      jump(tag_328)\n    tag_329:\n        /* \"test.sol\":6364:6381  bytes memory bstr */\n      0x00\n        /* \"test.sol\":6394:6400  length */\n      dup2\n        /* \"test.sol\":6384:6401  new bytes(length) */\n      0xffffffffffffffff\n      dup2\n      gt\n      iszero\n      tag_333\n      jumpi\n      tag_334\n      tag_189\n      jump\t// in\n    tag_334:\n    tag_333:\n      mload(0x40)\n      swap1\n      dup1\n      dup3\n      mstore\n      dup1\n      0x1f\n      add\n      not(0x1f)\n      and\n      0x20\n      add\n      dup3\n      add\n      0x40\n      mstore\n      dup1\n      iszero\n      tag_335\n      jumpi\n      dup2\n      0x20\n      add\n      0x01\n      dup3\n      mul\n      dup1\n      calldatasize\n      dup4\n      calldatacopy\n      dup1\n      dup3\n      add\n      swap2\n      pop\n      pop\n      swap1\n      pop\n    tag_335:\n      pop\n        /* \"test.sol\":6364:6401  bytes memory bstr = new bytes(length) */\n      swap1\n      pop\n        /* \"test.sol\":6412:6421  uint256 k */\n      0x00\n        /* \"test.sol\":6424:6430  length */\n      dup3\n        /* \"test.sol\":6412:6430  uint256 k = length */\n      swap1\n      pop\n        /* \"test.sol\":6445:6447  _i */\n      dup6\n        /* \"test.sol\":6441:6447  j = _i */\n      swap4\n      pop\n        /* \"test.sol\":6458:6560  while (j != 0) {... */\n    tag_336:\n        /* \"test.sol\":6470:6471  0 */\n      0x00\n        /* \"test.sol\":6465:6466  j */\n      dup5\n        /* \"test.sol\":6465:6471  j != 0 */\n      eq\n        /* \"test.sol\":6458:6560  while (j != 0) {... */\n      tag_337\n      jumpi\n        /* \"test.sol\":6522:6524  10 */\n      0x0a\n        /* \"test.sol\":6518:6519  j */\n      dup5\n        /* \"test.sol\":6518:6524  j % 10 */\n      tag_338\n      swap2\n      swap1\n      tag_339\n      jump\t// in\n    tag_338:\n        /* \"test.sol\":6513:6515  48 */\n      0x30\n        /* \"test.sol\":6513:6524  48 + j % 10 */\n      tag_340\n      swap2\n      swap1\n      tag_186\n      jump\t// in\n    tag_340:\n        /* \"test.sol\":6500:6526  bytes1(uint8(48 + j % 10)) */\n      0xf8\n      shl\n        /* \"test.sol\":6488:6492  bstr */\n      dup3\n        /* \"test.sol\":6493:6496  --k */\n      dup3\n      tag_341\n      swap1\n      tag_342\n      jump\t// in\n    tag_341:\n      swap3\n      pop\n      dup3\n        /* \"test.sol\":6488:6497  bstr[--k] */\n      dup2\n      mload\n      dup2\n      lt\n      tag_343\n      jumpi\n      tag_344\n      tag_79\n      jump\t// in\n    tag_344:\n    tag_343:\n      0x20\n      add\n      add\n        /* \"test.sol\":6488:6526  bstr[--k] = bytes1(uint8(48 + j % 10)) */\n      swap1\n      not(0xffffffffffffffffffffffffffffffffffffffffffffffffffffffffffffff)\n      and\n      swap1\n      dup2\n      0x00\n      byte\n      swap1\n      mstore8\n      pop\n        /* \"test.sol\":6546:6548  10 */\n      0x0a\n        /* \"test.sol\":6541:6548  j /= 10 */\n      dup5\n      tag_345\n      swap2\n      swap1\n      tag_332\n      jump\t// in\n    tag_345:\n      swap4\n      pop\n        /* \"test.sol\":6458:6560  while (j != 0) {... */\n      jump(tag_336)\n    tag_337:\n        /* \"test.sol\":6584:6588  bstr */\n      dup2\n        /* \"test.sol\":6570:6589  return string(bstr) */\n      swap5\n      pop\n      pop\n      pop\n      pop\n      pop\n        /* \"test.sol\":6079:6597  function uint2str(uint256 _i) internal pure returns (string memory _uintAsString) {... */\n    tag_326:\n      swap2\n      swap1\n      pop\n      jump\t// out\n        /* \"CardDeck.sol\":369:825  function shuffleDeck() internal {... */\n    tag_219:\n        /* \"CardDeck.sol\":412:424  uint256 seed */\n      0x00\n        /* \"CardDeck.sol\":462:477  block.timestamp */\n      timestamp\n        /* \"CardDeck.sol\":479:495  block.prevrandao */\n      prevrandao\n        /* \"CardDeck.sol\":522:523  1 */\n      0x01\n        /* \"CardDeck.sol\":507:519  block.number */\n      number\n        /* \"CardDeck.sol\":507:523  block.number - 1 */\n      tag_347\n      swap2\n      swap1\n      tag_267\n      jump\t// in\n    tag_347:\n        /* \"CardDeck.sol\":497:524  blockhash(block.number - 1) */\n      blockhash\n        /* \"CardDeck.sol\":445:525  abi.encodePacked(block.timestamp, block.prevrandao, blockhash(block.number - 1)) */\n      add(0x20, mload(0x40))\n      tag_348\n      swap4\n      swap3\n      swap2\n      swap1\n      tag_349\n      jump\t// in\n    tag_348:\n      mload(0x40)\n      0x20\n      dup2\n      dup4\n      sub\n      sub\n      dup2\n      mstore\n      swap1\n      0x40\n      mstore\n        /* \"CardDeck.sol\":435:526  keccak256(abi.encodePacked(block.timestamp, block.prevrandao, blockhash(block.number - 1))) */\n      dup1\n      mload\n      swap1\n      0x20\n      add\n      keccak256\n        /* \"CardDeck.sol\":427:527  uint256(keccak256(abi.encodePacked(block.timestamp, block.prevrandao, blockhash(block.number - 1)))) */\n      0x00\n      shr\n        /* \"CardDeck.sol\":412:527  uint256 seed = uint256(keccak256(abi.encodePacked(block.timestamp, block.prevrandao, blockhash(block.number - 1)))) */\n      swap1\n      pop\n        /* \"CardDeck.sol\":543:552  uint256 i */\n      0x00\n        /* \"CardDeck.sol\":538:818  for (uint256 i = 0; i < deck.length; i++) {... */\n    tag_350:\n        /* \"CardDeck.sol\":562:566  deck */\n      0x00\n        /* \"CardDeck.sol\":562:573  deck.length */\n      dup1\n      sload\n      swap1\n      pop\n        /* \"CardDeck.sol\":558:559  i */\n      dup2\n        /* \"CardDeck.sol\":558:573  i < deck.length */\n      lt\n        /* \"CardDeck.sol\":538:818  for (uint256 i = 0; i < deck.length; i++) {... */\n      iszero\n      tag_351\n      jumpi\n        /* \"CardDeck.sol\":595:612  uint256 swapIndex */\n      0x00\n        /* \"CardDeck.sol\":622:626  deck */\n      dup1\n        /* \"CardDeck.sol\":622:633  deck.length */\n      dup1\n      sload\n      swap1\n      pop\n        /* \"CardDeck.sol\":615:619  seed */\n      dup4\n        /* \"CardDeck.sol\":615:633  seed % deck.length */\n      tag_353\n      swap2\n      swap1\n      tag_339\n      jump\t// in\n    tag_353:\n        /* \"CardDeck.sol\":595:633  uint256 swapIndex = seed % deck.length */\n      swap1\n      pop\n        /* \"CardDeck.sol\":678:682  deck */\n      0x00\n        /* \"CardDeck.sol\":683:692  swapIndex */\n      dup2\n        /* \"CardDeck.sol\":678:693  deck[swapIndex] */\n      dup2\n      sload\n      dup2\n      lt\n      tag_354\n      jumpi\n      tag_355\n      tag_79\n      jump\t// in\n    tag_355:\n    tag_354:\n      swap1\n      0x00\n      mstore\n      keccak256(0x00, 0x20)\n      swap1\n      0x20\n      swap2\n      dup3\n      dup3\n      div\n      add\n      swap2\n      swap1\n      mod\n      swap1\n      sload\n      swap1\n      0x0100\n      exp\n      swap1\n      div\n      0xff\n      and\n        /* \"CardDeck.sol\":695:699  deck */\n      0x00\n        /* \"CardDeck.sol\":700:701  i */\n      dup4\n        /* \"CardDeck.sol\":695:702  deck[i] */\n      dup2\n      sload\n      dup2\n      lt\n      tag_357\n      jumpi\n      tag_358\n      tag_79\n      jump\t// in\n    tag_358:\n    tag_357:\n      swap1\n      0x00\n      mstore\n      keccak256(0x00, 0x20)\n      swap1\n      0x20\n      swap2\n      dup3\n      dup3\n      div\n      add\n      swap2\n      swap1\n      mod\n      swap1\n      sload\n      swap1\n      0x0100\n      exp\n      swap1\n      div\n      0xff\n      and\n        /* \"CardDeck.sol\":649:653  deck */\n      0x00\n        /* \"CardDeck.sol\":654:655  i */\n      dup5\n        /* \"CardDeck.sol\":649:656  deck[i] */\n      dup2\n      sload\n      dup2\n      lt\n      tag_360\n      jumpi\n      tag_361\n      tag_79\n      jump\t// in\n    tag_361:\n    tag_360:\n      swap1\n      0x00\n      mstore\n      keccak256(0x00, 0x20)\n      swap1\n      0x20\n      swap2\n      dup3\n      dup3\n      div\n      add\n      swap2\n      swap1\n      mod\n        /* \"CardDeck.sol\":658:662  deck */\n      0x00\n        /* \"CardDeck.sol\":663:672  swapIndex */\n      dup6\n        /* \"CardDeck.sol\":658:673  deck[swapIndex] */\n      dup2\n      sload\n      dup2\n      lt\n      tag_363\n      jumpi\n      tag_364\n      tag_79\n      jump\t// in\n    tag_364:\n    tag_363:\n      swap1\n      0x00\n      mstore\n      keccak256(0x00, 0x20)\n      swap1\n      0x20\n      swap2\n      dup3\n      dup3\n      div\n      add\n      swap2\n      swap1\n      mod\n        /* \"CardDeck.sol\":648:703  (deck[i], deck[swapIndex]) = (deck[swapIndex], deck[i]) */\n      dup5\n      swap2\n      swap1\n      0x0100\n      exp\n      dup2\n      sload\n      dup2\n      0xff\n      mul\n      not\n      and\n      swap1\n      dup4\n      0xff\n      and\n      mul\n      or\n      swap1\n      sstore\n      pop\n      dup4\n      swap2\n      swap1\n      0x0100\n      exp\n      dup2\n      sload\n      dup2\n      0xff\n      mul\n      not\n      and\n      swap1\n      dup4\n      0xff\n      and\n      mul\n      or\n      swap1\n      sstore\n      pop\n      pop\n      pop\n        /* \"CardDeck.sol\":778:782  seed */\n      dup3\n        /* \"CardDeck.sol\":761:783  abi.encodePacked(seed) */\n      add(0x20, mload(0x40))\n      tag_366\n      swap2\n      swap1\n      tag_367\n      jump\t// in\n    tag_366:\n      mload(0x40)\n      0x20\n      dup2\n      dup4\n      sub\n      sub\n      dup2\n      mstore\n      swap1\n      0x40\n      mstore\n        /* \"CardDeck.sol\":751:784  keccak256(abi.encodePacked(seed)) */\n      dup1\n      mload\n      swap1\n      0x20\n      add\n      keccak256\n        /* \"CardDeck.sol\":743:785  uint256(keccak256(abi.encodePacked(seed))) */\n      0x00\n      shr\n        /* \"CardDeck.sol\":736:785  seed = uint256(keccak256(abi.encodePacked(seed))) */\n      swap3\n      pop\n        /* \"CardDeck.sol\":580:818  {... */\n      pop\n        /* \"CardDeck.sol\":575:578  i++ */\n      dup1\n      dup1\n      0x01\n      add\n      swap2\n      pop\n      pop\n        /* \"CardDeck.sol\":538:818  for (uint256 i = 0; i < deck.length; i++) {... */\n      jump(tag_350)\n    tag_351:\n      pop\n        /* \"CardDeck.sol\":401:825  {... */\n      pop\n        /* \"CardDeck.sol\":369:825  function shuffleDeck() internal {... */\n      jump\t// out\n        /* \"CardDeck.sol\":167:361  function resetDeck() internal {... */\n    tag_325:\n        /* \"CardDeck.sol\":215:219  deck */\n      0x00\n      dup1\n        /* \"CardDeck.sol\":208:219  delete deck */\n      tag_369\n      swap2\n      swap1\n      tag_323\n      jump\t// in\n    tag_369:\n        /* \"CardDeck.sol\":253:260  uint8 i */\n      0x00\n        /* \"CardDeck.sol\":263:264  1 */\n      0x01\n        /* \"CardDeck.sol\":253:264  uint8 i = 1 */\n      swap1\n      pop\n        /* \"CardDeck.sol\":248:354  for (uint8 i = 1; i <= 52; i++) {... */\n    tag_370:\n        /* \"CardDeck.sol\":271:273  52 */\n      0x34\n        /* \"CardDeck.sol\":266:267  i */\n      dup2\n        /* \"CardDeck.sol\":266:273  i <= 52 */\n      0xff\n      and\n      gt\n        /* \"CardDeck.sol\":248:354  for (uint8 i = 1; i <= 52; i++) {... */\n      tag_371\n      jumpi\n        /* \"CardDeck.sol\":295:299  deck */\n      0x00\n        /* \"CardDeck.sol\":305:306  i */\n      dup2\n        /* \"CardDeck.sol\":295:307  deck.push(i) */\n      swap1\n      dup1\n      0x01\n      dup2\n      sload\n      add\n      dup1\n      dup3\n      sstore\n      dup1\n      swap2\n      pop\n      pop\n      0x01\n      swap1\n      sub\n      swap1\n      0x00\n      mstore\n      keccak256(0x00, 0x20)\n      swap1\n      0x20\n      swap2\n      dup3\n      dup3\n      div\n      add\n      swap2\n      swap1\n      mod\n      swap1\n      swap2\n      swap1\n      swap2\n      swap1\n      swap2\n      0x0100\n      exp\n      dup2\n      sload\n      dup2\n      0xff\n      mul\n      not\n      and\n      swap1\n      dup4\n      0xff\n      and\n      mul\n      or\n      swap1\n      sstore\n      pop\n        /* \"CardDeck.sol\":275:278  i++ */\n      dup1\n      dup1\n      tag_374\n      swap1\n      tag_287\n      jump\t// in\n    tag_374:\n      swap2\n      pop\n      pop\n        /* \"CardDeck.sol\":248:354  for (uint8 i = 1; i <= 52; i++) {... */\n      jump(tag_370)\n    tag_371:\n      pop\n        /* \"CardDeck.sol\":167:361  function resetDeck() internal {... */\n      jump\t// out\n    tag_115:\n      pop\n      dup1\n      sload\n      0x00\n      dup3\n      sstore\n      swap1\n      0x00\n      mstore\n      keccak256(0x00, 0x20)\n      swap1\n      dup2\n      add\n      swap1\n      tag_376\n      swap2\n      swap1\n      tag_377\n      jump\t// in\n    tag_376:\n      pop\n      jump\t// out\n    tag_125:\n      dup3\n      dup1\n      sload\n      dup3\n      dup3\n      sstore\n      swap1\n      0x00\n      mstore\n      keccak256(0x00, 0x20)\n      swap1\n      0x1f\n      add\n      0x20\n      swap1\n      div\n      dup2\n      add\n      swap3\n      dup3\n      iszero\n      tag_378\n      jumpi\n      0x00\n      mstore\n      keccak256(0x00, 0x20)\n      swap2\n      0x1f\n      add\n      0x20\n      swap1\n      div\n      dup3\n      add\n    tag_379:\n      dup3\n      dup2\n      gt\n      iszero\n      tag_380\n      jumpi\n      dup3\n      sload\n      dup3\n      sstore\n      swap2\n      0x01\n      add\n      swap2\n      swap1\n      0x01\n      add\n      swap1\n      jump(tag_379)\n    tag_380:\n    tag_378:\n      pop\n      swap1\n      pop\n      tag_381\n      swap2\n      swap1\n      tag_377\n      jump\t// in\n    tag_381:\n      pop\n      swap1\n      jump\t// out\n    tag_249:\n      dup3\n      dup1\n      sload\n      dup3\n      dup3\n      sstore\n      swap1\n      0x00\n      mstore\n      keccak256(0x00, 0x20)\n      swap1\n      0x1f\n      add\n      0x20\n      swap1\n      div\n      dup2\n      add\n      swap3\n      dup3\n      iszero\n      tag_382\n      jumpi\n      swap2\n      0x20\n      mul\n      dup3\n      add\n      0x00\n    tag_383:\n      dup4\n      dup3\n      gt\n      iszero\n      tag_384\n      jumpi\n      dup4\n      mload\n      dup4\n      dup3\n      0x0100\n      exp\n      dup2\n      sload\n      dup2\n      0xff\n      mul\n      not\n      and\n      swap1\n      dup4\n      0xff\n      and\n      mul\n      or\n      swap1\n      sstore\n      pop\n      swap3\n      0x20\n      add\n      swap3\n      0x01\n      add\n      0x20\n      dup2\n      0x00\n      add\n      div\n      swap3\n      dup4\n      add\n      swap3\n      0x01\n      sub\n      mul\n      jump(tag_383)\n    tag_384:\n      dup1\n      iszero\n      tag_385\n      jumpi\n      dup3\n      dup2\n      0x0100\n      exp\n      dup2\n      sload\n      swap1\n      0xff\n      mul\n      not\n      and\n      swap1\n      sstore\n      0x01\n      add\n      0x20\n      dup2\n      0x00\n      add\n      div\n      swap3\n      dup4\n      add\n      swap3\n      0x01\n      sub\n      mul\n      jump(tag_384)\n    tag_385:\n      pop\n    tag_382:\n      pop\n      swap1\n      pop\n      tag_386\n      swap2\n      swap1\n      tag_377\n      jump\t// in\n    tag_386:\n      pop\n      swap1\n      jump\t// out\n    tag_321:\n      pop\n      dup1\n      sload\n      0x00\n      dup3\n      sstore\n      0x04\n      mul\n      swap1\n      0x00\n      mstore\n      keccak256(0x00, 0x20)\n      swap1\n      dup2\n      add\n      swap1\n      tag_388\n      swap2\n      swap1\n      tag_389\n      jump\t// in\n    tag_388:\n      pop\n      jump\t// out\n    tag_323:\n      pop\n      dup1\n      sload\n      0x00\n      dup3\n      sstore\n      0x1f\n      add\n      0x20\n      swap1\n      div\n      swap1\n      0x00\n      mstore\n      keccak256(0x00, 0x20)\n      swap1\n      dup2\n      add\n      swap1\n      tag_391\n      swap2\n      swap1\n      tag_377\n      jump\t// in\n    tag_391:\n      pop\n      jump\t// out\n    tag_377:\n    tag_392:\n      dup1\n      dup3\n      gt\n      iszero\n      tag_393\n      jumpi\n      0x00\n      dup2\n      0x00\n      swap1\n      sstore\n      pop\n      0x01\n      add\n      jump(tag_392)\n    tag_393:\n      pop\n      swap1\n      jump\t// out\n    tag_389:\n    tag_394:\n      dup1\n      dup3\n      gt\n      iszero\n      tag_395\n      jumpi\n      0x00\n      dup1\n      dup3\n      add\n      exp(0x0100, 0x00)\n      dup2\n      sload\n      swap1\n      0xffffffffffffffffffffffffffffffffffffffff\n      mul\n      not\n      and\n      swap1\n      sstore\n      0x01\n      dup3\n      add\n      0x00\n      swap1\n      sstore\n      0x02\n      dup3\n      add\n      0x00\n      tag_396\n      swap2\n      swap1\n      tag_323\n      jump\t// in\n    tag_396:\n      0x03\n      dup3\n      add\n      exp(0x0100, 0x00)\n      dup2\n      sload\n      swap1\n      0xff\n      mul\n      not\n      and\n      swap1\n      sstore\n      0x03\n      dup3\n      add\n      exp(0x0100, 0x01)\n      dup2\n      sload\n      swap1\n      0xff\n      mul\n      not\n      and\n      swap1\n      sstore\n      pop\n      0x04\n      add\n      jump(tag_394)\n    tag_395:\n      pop\n      swap1\n      jump\t// out\n        /* \"#utility.yul\":7:84   */\n    tag_397:\n        /* \"#utility.yul\":44:51   */\n      0x00\n        /* \"#utility.yul\":73:78   */\n      dup2\n        /* \"#utility.yul\":62:78   */\n      swap1\n      pop\n        /* \"#utility.yul\":7:84   */\n      swap2\n      swap1\n      pop\n      jump\t// out\n        /* \"#utility.yul\":90:208   */\n    tag_398:\n        /* \"#utility.yul\":177:201   */\n      tag_465\n        /* \"#utility.yul\":195:200   */\n      dup2\n        /* \"#utility.yul\":177:201   */\n      tag_397\n      jump\t// in\n    tag_465:\n        /* \"#utility.yul\":172:175   */\n      dup3\n        /* \"#utility.yul\":165:202   */\n      mstore\n        /* \"#utility.yul\":90:208   */\n      pop\n      pop\n      jump\t// out\n        /* \"#utility.yul\":214:436   */\n    tag_22:\n        /* \"#utility.yul\":307:311   */\n      0x00\n        /* \"#utility.yul\":345:347   */\n      0x20\n        /* \"#utility.yul\":334:343   */\n      dup3\n        /* \"#utility.yul\":330:348   */\n      add\n        /* \"#utility.yul\":322:348   */\n      swap1\n      pop\n        /* \"#utility.yul\":358:429   */\n      tag_467\n        /* \"#utility.yul\":426:427   */\n      0x00\n        /* \"#utility.yul\":415:424   */\n      dup4\n        /* \"#utility.yul\":411:428   */\n      add\n        /* \"#utility.yul\":402:408   */\n      dup5\n        /* \"#utility.yul\":358:429   */\n      tag_398\n      jump\t// in\n    tag_467:\n        /* \"#utility.yul\":214:436   */\n      swap3\n      swap2\n      pop\n      pop\n      jump\t// out\n        /* \"#utility.yul\":442:541   */\n    tag_399:\n        /* \"#utility.yul\":494:500   */\n      0x00\n        /* \"#utility.yul\":528:533   */\n      dup2\n        /* \"#utility.yul\":522:534   */\n      mload\n        /* \"#utility.yul\":512:534   */\n      swap1\n      pop\n        /* \"#utility.yul\":442:541   */\n      swap2\n      swap1\n      pop\n      jump\t// out\n        /* \"#utility.yul\":547:716   */\n    tag_400:\n        /* \"#utility.yul\":631:642   */\n      0x00\n        /* \"#utility.yul\":665:671   */\n      dup3\n        /* \"#utility.yul\":660:663   */\n      dup3\n        /* \"#utility.yul\":653:672   */\n      mstore\n        /* \"#utility.yul\":705:709   */\n      0x20\n        /* \"#utility.yul\":700:703   */\n      dup3\n        /* \"#utility.yul\":696:710   */\n      add\n        /* \"#utility.yul\":681:710   */\n      swap1\n      pop\n        /* \"#utility.yul\":547:716   */\n      swap3\n      swap2\n      pop\n      pop\n      jump\t// out\n        /* \"#utility.yul\":722:861   */\n    tag_401:\n        /* \"#utility.yul\":811:817   */\n      dup3\n        /* \"#utility.yul\":806:809   */\n      dup2\n        /* \"#utility.yul\":801:804   */\n      dup4\n        /* \"#utility.yul\":795:818   */\n      mcopy\n        /* \"#utility.yul\":852:853   */\n      0x00\n        /* \"#utility.yul\":843:849   */\n      dup4\n        /* \"#utility.yul\":838:841   */\n      dup4\n        /* \"#utility.yul\":834:850   */\n      add\n        /* \"#utility.yul\":827:854   */\n      mstore\n        /* \"#utility.yul\":722:861   */\n      pop\n      pop\n      pop\n      jump\t// out\n        /* \"#utility.yul\":867:969   */\n    tag_402:\n        /* \"#utility.yul\":908:914   */\n      0x00\n        /* \"#utility.yul\":959:961   */\n      0x1f\n        /* \"#utility.yul\":955:962   */\n      not\n        /* \"#utility.yul\":950:952   */\n      0x1f\n        /* \"#utility.yul\":943:948   */\n      dup4\n        /* \"#utility.yul\":939:953   */\n      add\n        /* \"#utility.yul\":935:963   */\n      and\n        /* \"#utility.yul\":925:963   */\n      swap1\n      pop\n        /* \"#utility.yul\":867:969   */\n      swap2\n      swap1\n      pop\n      jump\t// out\n        /* \"#utility.yul\":975:1352   */\n    tag_403:\n        /* \"#utility.yul\":1063:1066   */\n      0x00\n        /* \"#utility.yul\":1091:1130   */\n      tag_473\n        /* \"#utility.yul\":1124:1129   */\n      dup3\n        /* \"#utility.yul\":1091:1130   */\n      tag_399\n      jump\t// in\n    tag_473:\n        /* \"#utility.yul\":1146:1217   */\n      tag_474\n        /* \"#utility.yul\":1210:1216   */\n      dup2\n        /* \"#utility.yul\":1205:1208   */\n      dup6\n        /* \"#utility.yul\":1146:1217   */\n      tag_400\n      jump\t// in\n    tag_474:\n        /* \"#utility.yul\":1139:1217   */\n      swap4\n      pop\n        /* \"#utility.yul\":1226:1291   */\n      tag_475\n        /* \"#utility.yul\":1284:1290   */\n      dup2\n        /* \"#utility.yul\":1279:1282   */\n      dup6\n        /* \"#utility.yul\":1272:1276   */\n      0x20\n        /* \"#utility.yul\":1265:1270   */\n      dup7\n        /* \"#utility.yul\":1261:1277   */\n      add\n        /* \"#utility.yul\":1226:1291   */\n      tag_401\n      jump\t// in\n    tag_475:\n        /* \"#utility.yul\":1316:1345   */\n      tag_476\n        /* \"#utility.yul\":1338:1344   */\n      dup2\n        /* \"#utility.yul\":1316:1345   */\n      tag_402\n      jump\t// in\n    tag_476:\n        /* \"#utility.yul\":1311:1314   */\n      dup5\n        /* \"#utility.yul\":1307:1346   */\n      add\n        /* \"#utility.yul\":1300:1346   */\n      swap2\n      pop\n        /* \"#utility.yul\":1067:1352   */\n      pop\n        /* \"#utility.yul\":975:1352   */\n      swap3\n      swap2\n      pop\n      pop\n      jump\t// out\n        /* \"#utility.yul\":1358:1472   */\n    tag_404:\n        /* \"#utility.yul\":1425:1431   */\n      0x00\n        /* \"#utility.yul\":1459:1464   */\n      dup2\n        /* \"#utility.yul\":1453:1465   */\n      mload\n        /* \"#utility.yul\":1443:1465   */\n      swap1\n      pop\n        /* \"#utility.yul\":1358:1472   */\n      swap2\n      swap1\n      pop\n      jump\t// out\n        /* \"#utility.yul\":1478:1662   */\n    tag_405:\n        /* \"#utility.yul\":1577:1588   */\n      0x00\n        /* \"#utility.yul\":1611:1617   */\n      dup3\n        /* \"#utility.yul\":1606:1609   */\n      dup3\n        /* \"#utility.yul\":1599:1618   */\n      mstore\n        /* \"#utility.yul\":1651:1655   */\n      0x20\n        /* \"#utility.yul\":1646:1649   */\n      dup3\n        /* \"#utility.yul\":1642:1656   */\n      add\n        /* \"#utility.yul\":1627:1656   */\n      swap1\n      pop\n        /* \"#utility.yul\":1478:1662   */\n      swap3\n      swap2\n      pop\n      pop\n      jump\t// out\n        /* \"#utility.yul\":1668:1800   */\n    tag_406:\n        /* \"#utility.yul\":1735:1739   */\n      0x00\n        /* \"#utility.yul\":1758:1761   */\n      dup2\n        /* \"#utility.yul\":1750:1761   */\n      swap1\n      pop\n        /* \"#utility.yul\":1788:1792   */\n      0x20\n        /* \"#utility.yul\":1783:1786   */\n      dup3\n        /* \"#utility.yul\":1779:1793   */\n      add\n        /* \"#utility.yul\":1771:1793   */\n      swap1\n      pop\n        /* \"#utility.yul\":1668:1800   */\n      swap2\n      swap1\n      pop\n      jump\t// out\n        /* \"#utility.yul\":1806:1932   */\n    tag_407:\n        /* \"#utility.yul\":1843:1850   */\n      0x00\n        /* \"#utility.yul\":1883:1925   */\n      0xffffffffffffffffffffffffffffffffffffffff\n        /* \"#utility.yul\":1876:1881   */\n      dup3\n        /* \"#utility.yul\":1872:1926   */\n      and\n        /* \"#utility.yul\":1861:1926   */\n      swap1\n      pop\n        /* \"#utility.yul\":1806:1932   */\n      swap2\n      swap1\n      pop\n      jump\t// out\n        /* \"#utility.yul\":1938:2034   */\n    tag_408:\n        /* \"#utility.yul\":1975:1982   */\n      0x00\n        /* \"#utility.yul\":2004:2028   */\n      tag_482\n        /* \"#utility.yul\":2022:2027   */\n      dup3\n        /* \"#utility.yul\":2004:2028   */\n      tag_407\n      jump\t// in\n    tag_482:\n        /* \"#utility.yul\":1993:2028   */\n      swap1\n      pop\n        /* \"#utility.yul\":1938:2034   */\n      swap2\n      swap1\n      pop\n      jump\t// out\n        /* \"#utility.yul\":2040:2148   */\n    tag_409:\n        /* \"#utility.yul\":2117:2141   */\n      tag_484\n        /* \"#utility.yul\":2135:2140   */\n      dup2\n        /* \"#utility.yul\":2117:2141   */\n      tag_408\n      jump\t// in\n    tag_484:\n        /* \"#utility.yul\":2112:2115   */\n      dup3\n        /* \"#utility.yul\":2105:2142   */\n      mstore\n        /* \"#utility.yul\":2040:2148   */\n      pop\n      pop\n      jump\t// out\n        /* \"#utility.yul\":2154:2333   */\n    tag_410:\n        /* \"#utility.yul\":2223:2233   */\n      0x00\n        /* \"#utility.yul\":2244:2290   */\n      tag_486\n        /* \"#utility.yul\":2286:2289   */\n      dup4\n        /* \"#utility.yul\":2278:2284   */\n      dup4\n        /* \"#utility.yul\":2244:2290   */\n      tag_409\n      jump\t// in\n    tag_486:\n        /* \"#utility.yul\":2322:2326   */\n      0x20\n        /* \"#utility.yul\":2317:2320   */\n      dup4\n        /* \"#utility.yul\":2313:2327   */\n      add\n        /* \"#utility.yul\":2299:2327   */\n      swap1\n      pop\n        /* \"#utility.yul\":2154:2333   */\n      swap3\n      swap2\n      pop\n      pop\n      jump\t// out\n        /* \"#utility.yul\":2339:2452   */\n    tag_411:\n        /* \"#utility.yul\":2409:2413   */\n      0x00\n        /* \"#utility.yul\":2441:2445   */\n      0x20\n        /* \"#utility.yul\":2436:2439   */\n      dup3\n        /* \"#utility.yul\":2432:2446   */\n      add\n        /* \"#utility.yul\":2424:2446   */\n      swap1\n      pop\n        /* \"#utility.yul\":2339:2452   */\n      swap2\n      swap1\n      pop\n      jump\t// out\n        /* \"#utility.yul\":2488:3220   */\n    tag_412:\n        /* \"#utility.yul\":2607:2610   */\n      0x00\n        /* \"#utility.yul\":2636:2690   */\n      tag_489\n        /* \"#utility.yul\":2684:2689   */\n      dup3\n        /* \"#utility.yul\":2636:2690   */\n      tag_404\n      jump\t// in\n    tag_489:\n        /* \"#utility.yul\":2706:2792   */\n      tag_490\n        /* \"#utility.yul\":2785:2791   */\n      dup2\n        /* \"#utility.yul\":2780:2783   */\n      dup6\n        /* \"#utility.yul\":2706:2792   */\n      tag_405\n      jump\t// in\n    tag_490:\n        /* \"#utility.yul\":2699:2792   */\n      swap4\n      pop\n        /* \"#utility.yul\":2816:2872   */\n      tag_491\n        /* \"#utility.yul\":2866:2871   */\n      dup4\n        /* \"#utility.yul\":2816:2872   */\n      tag_406\n      jump\t// in\n    tag_491:\n        /* \"#utility.yul\":2895:2902   */\n      dup1\n        /* \"#utility.yul\":2926:2927   */\n      0x00\n        /* \"#utility.yul\":2911:3195   */\n    tag_492:\n        /* \"#utility.yul\":2936:2942   */\n      dup4\n        /* \"#utility.yul\":2933:2934   */\n      dup2\n        /* \"#utility.yul\":2930:2943   */\n      lt\n        /* \"#utility.yul\":2911:3195   */\n      iszero\n      tag_494\n      jumpi\n        /* \"#utility.yul\":3012:3018   */\n      dup2\n        /* \"#utility.yul\":3006:3019   */\n      mload\n        /* \"#utility.yul\":3039:3102   */\n      tag_495\n        /* \"#utility.yul\":3098:3101   */\n      dup9\n        /* \"#utility.yul\":3083:3096   */\n      dup3\n        /* \"#utility.yul\":3039:3102   */\n      tag_410\n      jump\t// in\n    tag_495:\n        /* \"#utility.yul\":3032:3102   */\n      swap8\n      pop\n        /* \"#utility.yul\":3125:3185   */\n      tag_496\n        /* \"#utility.yul\":3178:3184   */\n      dup4\n        /* \"#utility.yul\":3125:3185   */\n      tag_411\n      jump\t// in\n    tag_496:\n        /* \"#utility.yul\":3115:3185   */\n      swap3\n      pop\n        /* \"#utility.yul\":2971:3195   */\n      pop\n        /* \"#utility.yul\":2958:2959   */\n      0x01\n        /* \"#utility.yul\":2955:2956   */\n      dup2\n        /* \"#utility.yul\":2951:2960   */\n      add\n        /* \"#utility.yul\":2946:2960   */\n      swap1\n      pop\n        /* \"#utility.yul\":2911:3195   */\n      jump(tag_492)\n    tag_494:\n        /* \"#utility.yul\":2915:2929   */\n      pop\n        /* \"#utility.yul\":3211:3214   */\n      dup6\n        /* \"#utility.yul\":3204:3214   */\n      swap4\n      pop\n        /* \"#utility.yul\":2612:3220   */\n      pop\n      pop\n      pop\n        /* \"#utility.yul\":2488:3220   */\n      swap3\n      swap2\n      pop\n      pop\n      jump\t// out\n        /* \"#utility.yul\":3226:3800   */\n    tag_27:\n        /* \"#utility.yul\":3417:3421   */\n      0x00\n        /* \"#utility.yul\":3455:3457   */\n      0x40\n        /* \"#utility.yul\":3444:3453   */\n      dup3\n        /* \"#utility.yul\":3440:3458   */\n      add\n        /* \"#utility.yul\":3432:3458   */\n      swap1\n      pop\n        /* \"#utility.yul\":3504:3513   */\n      dup2\n        /* \"#utility.yul\":3498:3502   */\n      dup2\n        /* \"#utility.yul\":3494:3514   */\n      sub\n        /* \"#utility.yul\":3490:3491   */\n      0x00\n        /* \"#utility.yul\":3479:3488   */\n      dup4\n        /* \"#utility.yul\":3475:3492   */\n      add\n        /* \"#utility.yul\":3468:3515   */\n      mstore\n        /* \"#utility.yul\":3532:3610   */\n      tag_498\n        /* \"#utility.yul\":3605:3609   */\n      dup2\n        /* \"#utility.yul\":3596:3602   */\n      dup6\n        /* \"#utility.yul\":3532:3610   */\n      tag_403\n      jump\t// in\n    tag_498:\n        /* \"#utility.yul\":3524:3610   */\n      swap1\n      pop\n        /* \"#utility.yul\":3657:3666   */\n      dup2\n        /* \"#utility.yul\":3651:3655   */\n      dup2\n        /* \"#utility.yul\":3647:3667   */\n      sub\n        /* \"#utility.yul\":3642:3644   */\n      0x20\n        /* \"#utility.yul\":3631:3640   */\n      dup4\n        /* \"#utility.yul\":3627:3645   */\n      add\n        /* \"#utility.yul\":3620:3668   */\n      mstore\n        /* \"#utility.yul\":3685:3793   */\n      tag_499\n        /* \"#utility.yul\":3788:3792   */\n      dup2\n        /* \"#utility.yul\":3779:3785   */\n      dup5\n        /* \"#utility.yul\":3685:3793   */\n      tag_412\n      jump\t// in\n    tag_499:\n        /* \"#utility.yul\":3677:3793   */\n      swap1\n      pop\n        /* \"#utility.yul\":3226:3800   */\n      swap4\n      swap3\n      pop\n      pop\n      pop\n      jump\t// out\n        /* \"#utility.yul\":3887:4004   */\n    tag_414:\n        /* \"#utility.yul\":3996:3997   */\n      0x00\n        /* \"#utility.yul\":3993:3994   */\n      dup1\n        /* \"#utility.yul\":3986:3998   */\n      revert\n        /* \"#utility.yul\":4133:4255   */\n    tag_416:\n        /* \"#utility.yul\":4206:4230   */\n      tag_504\n        /* \"#utility.yul\":4224:4229   */\n      dup2\n        /* \"#utility.yul\":4206:4230   */\n      tag_397\n      jump\t// in\n    tag_504:\n        /* \"#utility.yul\":4199:4204   */\n      dup2\n        /* \"#utility.yul\":4196:4231   */\n      eq\n        /* \"#utility.yul\":4186:4249   */\n      tag_505\n      jumpi\n        /* \"#utility.yul\":4245:4246   */\n      0x00\n        /* \"#utility.yul\":4242:4243   */\n      dup1\n        /* \"#utility.yul\":4235:4247   */\n      revert\n        /* \"#utility.yul\":4186:4249   */\n    tag_505:\n        /* \"#utility.yul\":4133:4255   */\n      pop\n      jump\t// out\n        /* \"#utility.yul\":4261:4400   */\n    tag_417:\n        /* \"#utility.yul\":4307:4312   */\n      0x00\n        /* \"#utility.yul\":4345:4351   */\n      dup2\n        /* \"#utility.yul\":4332:4352   */\n      calldataload\n        /* \"#utility.yul\":4323:4352   */\n      swap1\n      pop\n        /* \"#utility.yul\":4361:4394   */\n      tag_507\n        /* \"#utility.yul\":4388:4393   */\n      dup2\n        /* \"#utility.yul\":4361:4394   */\n      tag_416\n      jump\t// in\n    tag_507:\n        /* \"#utility.yul\":4261:4400   */\n      swap3\n      swap2\n      pop\n      pop\n      jump\t// out\n        /* \"#utility.yul\":4406:4735   */\n    tag_31:\n        /* \"#utility.yul\":4465:4471   */\n      0x00\n        /* \"#utility.yul\":4514:4516   */\n      0x20\n        /* \"#utility.yul\":4502:4511   */\n      dup3\n        /* \"#utility.yul\":4493:4500   */\n      dup5\n        /* \"#utility.yul\":4489:4512   */\n      sub\n        /* \"#utility.yul\":4485:4517   */\n      slt\n        /* \"#utility.yul\":4482:4601   */\n      iszero\n      tag_509\n      jumpi\n        /* \"#utility.yul\":4520:4599   */\n      tag_510\n      tag_414\n      jump\t// in\n    tag_510:\n        /* \"#utility.yul\":4482:4601   */\n    tag_509:\n        /* \"#utility.yul\":4640:4641   */\n      0x00\n        /* \"#utility.yul\":4665:4718   */\n      tag_511\n        /* \"#utility.yul\":4710:4717   */\n      dup5\n        /* \"#utility.yul\":4701:4707   */\n      dup3\n        /* \"#utility.yul\":4690:4699   */\n      dup6\n        /* \"#utility.yul\":4686:4708   */\n      add\n        /* \"#utility.yul\":4665:4718   */\n      tag_417\n      jump\t// in\n    tag_511:\n        /* \"#utility.yul\":4655:4718   */\n      swap2\n      pop\n        /* \"#utility.yul\":4611:4728   */\n      pop\n        /* \"#utility.yul\":4406:4735   */\n      swap3\n      swap2\n      pop\n      pop\n      jump\t// out\n        /* \"#utility.yul\":4741:4827   */\n    tag_418:\n        /* \"#utility.yul\":4776:4783   */\n      0x00\n        /* \"#utility.yul\":4816:4820   */\n      0xff\n        /* \"#utility.yul\":4809:4814   */\n      dup3\n        /* \"#utility.yul\":4805:4821   */\n      and\n        /* \"#utility.yul\":4794:4821   */\n      swap1\n      pop\n        /* \"#utility.yul\":4741:4827   */\n      swap2\n      swap1\n      pop\n      jump\t// out\n        /* \"#utility.yul\":4833:4945   */\n    tag_419:\n        /* \"#utility.yul\":4916:4938   */\n      tag_514\n        /* \"#utility.yul\":4932:4937   */\n      dup2\n        /* \"#utility.yul\":4916:4938   */\n      tag_418\n      jump\t// in\n    tag_514:\n        /* \"#utility.yul\":4911:4914   */\n      dup3\n        /* \"#utility.yul\":4904:4939   */\n      mstore\n        /* \"#utility.yul\":4833:4945   */\n      pop\n      pop\n      jump\t// out\n        /* \"#utility.yul\":4951:5165   */\n    tag_34:\n        /* \"#utility.yul\":5040:5044   */\n      0x00\n        /* \"#utility.yul\":5078:5080   */\n      0x20\n        /* \"#utility.yul\":5067:5076   */\n      dup3\n        /* \"#utility.yul\":5063:5081   */\n      add\n        /* \"#utility.yul\":5055:5081   */\n      swap1\n      pop\n        /* \"#utility.yul\":5091:5158   */\n      tag_516\n        /* \"#utility.yul\":5155:5156   */\n      0x00\n        /* \"#utility.yul\":5144:5153   */\n      dup4\n        /* \"#utility.yul\":5140:5157   */\n      add\n        /* \"#utility.yul\":5131:5137   */\n      dup5\n        /* \"#utility.yul\":5091:5158   */\n      tag_419\n      jump\t// in\n    tag_516:\n        /* \"#utility.yul\":4951:5165   */\n      swap3\n      swap2\n      pop\n      pop\n      jump\t// out\n        /* \"#utility.yul\":5171:5289   */\n    tag_420:\n        /* \"#utility.yul\":5258:5282   */\n      tag_518\n        /* \"#utility.yul\":5276:5281   */\n      dup2\n        /* \"#utility.yul\":5258:5282   */\n      tag_408\n      jump\t// in\n    tag_518:\n        /* \"#utility.yul\":5253:5256   */\n      dup3\n        /* \"#utility.yul\":5246:5283   */\n      mstore\n        /* \"#utility.yul\":5171:5289   */\n      pop\n      pop\n      jump\t// out\n        /* \"#utility.yul\":5295:5517   */\n    tag_44:\n        /* \"#utility.yul\":5388:5392   */\n      0x00\n        /* \"#utility.yul\":5426:5428   */\n      0x20\n        /* \"#utility.yul\":5415:5424   */\n      dup3\n        /* \"#utility.yul\":5411:5429   */\n      add\n        /* \"#utility.yul\":5403:5429   */\n      swap1\n      pop\n        /* \"#utility.yul\":5439:5510   */\n      tag_520\n        /* \"#utility.yul\":5507:5508   */\n      0x00\n        /* \"#utility.yul\":5496:5505   */\n      dup4\n        /* \"#utility.yul\":5492:5509   */\n      add\n        /* \"#utility.yul\":5483:5489   */\n      dup5\n        /* \"#utility.yul\":5439:5510   */\n      tag_420\n      jump\t// in\n    tag_520:\n        /* \"#utility.yul\":5295:5517   */\n      swap3\n      swap2\n      pop\n      pop\n      jump\t// out\n        /* \"#utility.yul\":5523:5647   */\n    tag_421:\n        /* \"#utility.yul\":5600:5606   */\n      0x00\n        /* \"#utility.yul\":5634:5639   */\n      dup2\n        /* \"#utility.yul\":5628:5640   */\n      mload\n        /* \"#utility.yul\":5618:5640   */\n      swap1\n      pop\n        /* \"#utility.yul\":5523:5647   */\n      swap2\n      swap1\n      pop\n      jump\t// out\n        /* \"#utility.yul\":5653:5847   */\n    tag_422:\n        /* \"#utility.yul\":5762:5773   */\n      0x00\n        /* \"#utility.yul\":5796:5802   */\n      dup3\n        /* \"#utility.yul\":5791:5794   */\n      dup3\n        /* \"#utility.yul\":5784:5803   */\n      mstore\n        /* \"#utility.yul\":5836:5840   */\n      0x20\n        /* \"#utility.yul\":5831:5834   */\n      dup3\n        /* \"#utility.yul\":5827:5841   */\n      add\n        /* \"#utility.yul\":5812:5841   */\n      swap1\n      pop\n        /* \"#utility.yul\":5653:5847   */\n      swap3\n      swap2\n      pop\n      pop\n      jump\t// out\n        /* \"#utility.yul\":5853:5995   */\n    tag_423:\n        /* \"#utility.yul\":5930:5934   */\n      0x00\n        /* \"#utility.yul\":5953:5956   */\n      dup2\n        /* \"#utility.yul\":5945:5956   */\n      swap1\n      pop\n        /* \"#utility.yul\":5983:5987   */\n      0x20\n        /* \"#utility.yul\":5978:5981   */\n      dup3\n        /* \"#utility.yul\":5974:5988   */\n      add\n        /* \"#utility.yul\":5966:5988   */\n      swap1\n      pop\n        /* \"#utility.yul\":5853:5995   */\n      swap2\n      swap1\n      pop\n      jump\t// out\n        /* \"#utility.yul\":6001:6160   */\n    tag_424:\n        /* \"#utility.yul\":6075:6086   */\n      0x00\n        /* \"#utility.yul\":6109:6115   */\n      dup3\n        /* \"#utility.yul\":6104:6107   */\n      dup3\n        /* \"#utility.yul\":6097:6116   */\n      mstore\n        /* \"#utility.yul\":6149:6153   */\n      0x20\n        /* \"#utility.yul\":6144:6147   */\n      dup3\n        /* \"#utility.yul\":6140:6154   */\n      add\n        /* \"#utility.yul\":6125:6154   */\n      swap1\n      pop\n        /* \"#utility.yul\":6001:6160   */\n      swap3\n      swap2\n      pop\n      pop\n      jump\t// out\n        /* \"#utility.yul\":6166:6523   */\n    tag_425:\n        /* \"#utility.yul\":6244:6247   */\n      0x00\n        /* \"#utility.yul\":6272:6311   */\n      tag_526\n        /* \"#utility.yul\":6305:6310   */\n      dup3\n        /* \"#utility.yul\":6272:6311   */\n      tag_399\n      jump\t// in\n    tag_526:\n        /* \"#utility.yul\":6327:6388   */\n      tag_527\n        /* \"#utility.yul\":6381:6387   */\n      dup2\n        /* \"#utility.yul\":6376:6379   */\n      dup6\n        /* \"#utility.yul\":6327:6388   */\n      tag_424\n      jump\t// in\n    tag_527:\n        /* \"#utility.yul\":6320:6388   */\n      swap4\n      pop\n        /* \"#utility.yul\":6397:6462   */\n      tag_528\n        /* \"#utility.yul\":6455:6461   */\n      dup2\n        /* \"#utility.yul\":6450:6453   */\n      dup6\n        /* \"#utility.yul\":6443:6447   */\n      0x20\n        /* \"#utility.yul\":6436:6441   */\n      dup7\n        /* \"#utility.yul\":6432:6448   */\n      add\n        /* \"#utility.yul\":6397:6462   */\n      tag_401\n      jump\t// in\n    tag_528:\n        /* \"#utility.yul\":6487:6516   */\n      tag_529\n        /* \"#utility.yul\":6509:6515   */\n      dup2\n        /* \"#utility.yul\":6487:6516   */\n      tag_402\n      jump\t// in\n    tag_529:\n        /* \"#utility.yul\":6482:6485   */\n      dup5\n        /* \"#utility.yul\":6478:6517   */\n      add\n        /* \"#utility.yul\":6471:6517   */\n      swap2\n      pop\n        /* \"#utility.yul\":6248:6523   */\n      pop\n        /* \"#utility.yul\":6166:6523   */\n      swap3\n      swap2\n      pop\n      pop\n      jump\t// out\n        /* \"#utility.yul\":6529:6725   */\n    tag_426:\n        /* \"#utility.yul\":6618:6628   */\n      0x00\n        /* \"#utility.yul\":6653:6719   */\n      tag_531\n        /* \"#utility.yul\":6715:6718   */\n      dup4\n        /* \"#utility.yul\":6707:6713   */\n      dup4\n        /* \"#utility.yul\":6653:6719   */\n      tag_425\n      jump\t// in\n    tag_531:\n        /* \"#utility.yul\":6639:6719   */\n      swap1\n      pop\n        /* \"#utility.yul\":6529:6725   */\n      swap3\n      swap2\n      pop\n      pop\n      jump\t// out\n        /* \"#utility.yul\":6731:6854   */\n    tag_427:\n        /* \"#utility.yul\":6811:6815   */\n      0x00\n        /* \"#utility.yul\":6843:6847   */\n      0x20\n        /* \"#utility.yul\":6838:6841   */\n      dup3\n        /* \"#utility.yul\":6834:6848   */\n      add\n        /* \"#utility.yul\":6826:6848   */\n      swap1\n      pop\n        /* \"#utility.yul\":6731:6854   */\n      swap2\n      swap1\n      pop\n      jump\t// out\n        /* \"#utility.yul\":6888:7879   */\n    tag_428:\n        /* \"#utility.yul\":7027:7030   */\n      0x00\n        /* \"#utility.yul\":7056:7120   */\n      tag_534\n        /* \"#utility.yul\":7114:7119   */\n      dup3\n        /* \"#utility.yul\":7056:7120   */\n      tag_421\n      jump\t// in\n    tag_534:\n        /* \"#utility.yul\":7136:7232   */\n      tag_535\n        /* \"#utility.yul\":7225:7231   */\n      dup2\n        /* \"#utility.yul\":7220:7223   */\n      dup6\n        /* \"#utility.yul\":7136:7232   */\n      tag_422\n      jump\t// in\n    tag_535:\n        /* \"#utility.yul\":7129:7232   */\n      swap4\n      pop\n        /* \"#utility.yul\":7258:7261   */\n      dup4\n        /* \"#utility.yul\":7303:7307   */\n      0x20\n        /* \"#utility.yul\":7295:7301   */\n      dup3\n        /* \"#utility.yul\":7291:7308   */\n      mul\n        /* \"#utility.yul\":7286:7289   */\n      dup6\n        /* \"#utility.yul\":7282:7309   */\n      add\n        /* \"#utility.yul\":7333:7399   */\n      tag_536\n        /* \"#utility.yul\":7393:7398   */\n      dup6\n        /* \"#utility.yul\":7333:7399   */\n      tag_423\n      jump\t// in\n    tag_536:\n        /* \"#utility.yul\":7422:7429   */\n      dup1\n        /* \"#utility.yul\":7453:7454   */\n      0x00\n        /* \"#utility.yul\":7438:7834   */\n    tag_537:\n        /* \"#utility.yul\":7463:7469   */\n      dup6\n        /* \"#utility.yul\":7460:7461   */\n      dup2\n        /* \"#utility.yul\":7457:7470   */\n      lt\n        /* \"#utility.yul\":7438:7834   */\n      iszero\n      tag_539\n      jumpi\n        /* \"#utility.yul\":7534:7543   */\n      dup5\n        /* \"#utility.yul\":7528:7532   */\n      dup5\n        /* \"#utility.yul\":7524:7544   */\n      sub\n        /* \"#utility.yul\":7519:7522   */\n      dup10\n        /* \"#utility.yul\":7512:7545   */\n      mstore\n        /* \"#utility.yul\":7585:7591   */\n      dup2\n        /* \"#utility.yul\":7579:7592   */\n      mload\n        /* \"#utility.yul\":7613:7697   */\n      tag_540\n        /* \"#utility.yul\":7692:7696   */\n      dup6\n        /* \"#utility.yul\":7677:7690   */\n      dup3\n        /* \"#utility.yul\":7613:7697   */\n      tag_426\n      jump\t// in\n    tag_540:\n        /* \"#utility.yul\":7605:7697   */\n      swap5\n      pop\n        /* \"#utility.yul\":7720:7790   */\n      tag_541\n        /* \"#utility.yul\":7783:7789   */\n      dup4\n        /* \"#utility.yul\":7720:7790   */\n      tag_427\n      jump\t// in\n    tag_541:\n        /* \"#utility.yul\":7710:7790   */\n      swap3\n      pop\n        /* \"#utility.yul\":7819:7823   */\n      0x20\n        /* \"#utility.yul\":7814:7817   */\n      dup11\n        /* \"#utility.yul\":7810:7824   */\n      add\n        /* \"#utility.yul\":7803:7824   */\n      swap10\n      pop\n        /* \"#utility.yul\":7498:7834   */\n      pop\n        /* \"#utility.yul\":7485:7486   */\n      0x01\n        /* \"#utility.yul\":7482:7483   */\n      dup2\n        /* \"#utility.yul\":7478:7487   */\n      add\n        /* \"#utility.yul\":7473:7487   */\n      swap1\n      pop\n        /* \"#utility.yul\":7438:7834   */\n      jump(tag_537)\n    tag_539:\n        /* \"#utility.yul\":7442:7456   */\n      pop\n        /* \"#utility.yul\":7850:7854   */\n      dup3\n        /* \"#utility.yul\":7843:7854   */\n      swap8\n      pop\n        /* \"#utility.yul\":7870:7873   */\n      dup8\n        /* \"#utility.yul\":7863:7873   */\n      swap6\n      pop\n        /* \"#utility.yul\":7032:7879   */\n      pop\n      pop\n      pop\n      pop\n      pop\n        /* \"#utility.yul\":6888:7879   */\n      swap3\n      swap2\n      pop\n      pop\n      jump\t// out\n        /* \"#utility.yul\":7885:8298   */\n    tag_58:\n        /* \"#utility.yul\":8048:8052   */\n      0x00\n        /* \"#utility.yul\":8086:8088   */\n      0x20\n        /* \"#utility.yul\":8075:8084   */\n      dup3\n        /* \"#utility.yul\":8071:8089   */\n      add\n        /* \"#utility.yul\":8063:8089   */\n      swap1\n      pop\n        /* \"#utility.yul\":8135:8144   */\n      dup2\n        /* \"#utility.yul\":8129:8133   */\n      dup2\n        /* \"#utility.yul\":8125:8145   */\n      sub\n        /* \"#utility.yul\":8121:8122   */\n      0x00\n        /* \"#utility.yul\":8110:8119   */\n      dup4\n        /* \"#utility.yul\":8106:8123   */\n      add\n        /* \"#utility.yul\":8099:8146   */\n      mstore\n        /* \"#utility.yul\":8163:8291   */\n      tag_543\n        /* \"#utility.yul\":8286:8290   */\n      dup2\n        /* \"#utility.yul\":8277:8283   */\n      dup5\n        /* \"#utility.yul\":8163:8291   */\n      tag_428\n      jump\t// in\n    tag_543:\n        /* \"#utility.yul\":8155:8291   */\n      swap1\n      pop\n        /* \"#utility.yul\":7885:8298   */\n      swap3\n      swap2\n      pop\n      pop\n      jump\t// out\n        /* \"#utility.yul\":8304:8394   */\n    tag_429:\n        /* \"#utility.yul\":8338:8345   */\n      0x00\n        /* \"#utility.yul\":8381:8386   */\n      dup2\n        /* \"#utility.yul\":8374:8387   */\n      iszero\n        /* \"#utility.yul\":8367:8388   */\n      iszero\n        /* \"#utility.yul\":8356:8388   */\n      swap1\n      pop\n        /* \"#utility.yul\":8304:8394   */\n      swap2\n      swap1\n      pop\n      jump\t// out\n        /* \"#utility.yul\":8400:8509   */\n    tag_430:\n        /* \"#utility.yul\":8481:8502   */\n      tag_546\n        /* \"#utility.yul\":8496:8501   */\n      dup2\n        /* \"#utility.yul\":8481:8502   */\n      tag_429\n      jump\t// in\n    tag_546:\n        /* \"#utility.yul\":8476:8479   */\n      dup3\n        /* \"#utility.yul\":8469:8503   */\n      mstore\n        /* \"#utility.yul\":8400:8509   */\n      pop\n      pop\n      jump\t// out\n        /* \"#utility.yul\":8515:9044   */\n    tag_70:\n        /* \"#utility.yul\":8680:8684   */\n      0x00\n        /* \"#utility.yul\":8718:8721   */\n      0x80\n        /* \"#utility.yul\":8707:8716   */\n      dup3\n        /* \"#utility.yul\":8703:8722   */\n      add\n        /* \"#utility.yul\":8695:8722   */\n      swap1\n      pop\n        /* \"#utility.yul\":8732:8803   */\n      tag_548\n        /* \"#utility.yul\":8800:8801   */\n      0x00\n        /* \"#utility.yul\":8789:8798   */\n      dup4\n        /* \"#utility.yul\":8785:8802   */\n      add\n        /* \"#utility.yul\":8776:8782   */\n      dup8\n        /* \"#utility.yul\":8732:8803   */\n      tag_420\n      jump\t// in\n    tag_548:\n        /* \"#utility.yul\":8813:8885   */\n      tag_549\n        /* \"#utility.yul\":8881:8883   */\n      0x20\n        /* \"#utility.yul\":8870:8879   */\n      dup4\n        /* \"#utility.yul\":8866:8884   */\n      add\n        /* \"#utility.yul\":8857:8863   */\n      dup7\n        /* \"#utility.yul\":8813:8885   */\n      tag_398\n      jump\t// in\n    tag_549:\n        /* \"#utility.yul\":8895:8961   */\n      tag_550\n        /* \"#utility.yul\":8957:8959   */\n      0x40\n        /* \"#utility.yul\":8946:8955   */\n      dup4\n        /* \"#utility.yul\":8942:8960   */\n      add\n        /* \"#utility.yul\":8933:8939   */\n      dup6\n        /* \"#utility.yul\":8895:8961   */\n      tag_430\n      jump\t// in\n    tag_550:\n        /* \"#utility.yul\":8971:9037   */\n      tag_551\n        /* \"#utility.yul\":9033:9035   */\n      0x60\n        /* \"#utility.yul\":9022:9031   */\n      dup4\n        /* \"#utility.yul\":9018:9036   */\n      add\n        /* \"#utility.yul\":9009:9015   */\n      dup5\n        /* \"#utility.yul\":8971:9037   */\n      tag_430\n      jump\t// in\n    tag_551:\n        /* \"#utility.yul\":8515:9044   */\n      swap6\n      swap5\n      pop\n      pop\n      pop\n      pop\n      pop\n      jump\t// out\n        /* \"#utility.yul\":9050:9220   */\n    tag_431:\n        /* \"#utility.yul\":9190:9212   */\n      0x596f7520617265206e6f74206120706c61796572000000000000000000000000\n        /* \"#utility.yul\":9186:9187   */\n      0x00\n        /* \"#utility.yul\":9178:9184   */\n      dup3\n        /* \"#utility.yul\":9174:9188   */\n      add\n        /* \"#utility.yul\":9167:9213   */\n      mstore\n        /* \"#utility.yul\":9050:9220   */\n      pop\n      jump\t// out\n        /* \"#utility.yul\":9226:9592   */\n    tag_432:\n        /* \"#utility.yul\":9368:9371   */\n      0x00\n        /* \"#utility.yul\":9389:9456   */\n      tag_554\n        /* \"#utility.yul\":9453:9455   */\n      0x14\n        /* \"#utility.yul\":9448:9451   */\n      dup4\n        /* \"#utility.yul\":9389:9456   */\n      tag_400\n      jump\t// in\n    tag_554:\n        /* \"#utility.yul\":9382:9456   */\n      swap2\n      pop\n        /* \"#utility.yul\":9465:9558   */\n      tag_555\n        /* \"#utility.yul\":9554:9557   */\n      dup3\n        /* \"#utility.yul\":9465:9558   */\n      tag_431\n      jump\t// in\n    tag_555:\n        /* \"#utility.yul\":9583:9585   */\n      0x20\n        /* \"#utility.yul\":9578:9581   */\n      dup3\n        /* \"#utility.yul\":9574:9586   */\n      add\n        /* \"#utility.yul\":9567:9586   */\n      swap1\n      pop\n        /* \"#utility.yul\":9226:9592   */\n      swap2\n      swap1\n      pop\n      jump\t// out\n        /* \"#utility.yul\":9598:10017   */\n    tag_76:\n        /* \"#utility.yul\":9764:9768   */\n      0x00\n        /* \"#utility.yul\":9802:9804   */\n      0x20\n        /* \"#utility.yul\":9791:9800   */\n      dup3\n        /* \"#utility.yul\":9787:9805   */\n      add\n        /* \"#utility.yul\":9779:9805   */\n      swap1\n      pop\n        /* \"#utility.yul\":9851:9860   */\n      dup2\n        /* \"#utility.yul\":9845:9849   */\n      dup2\n        /* \"#utility.yul\":9841:9861   */\n      sub\n        /* \"#utility.yul\":9837:9838   */\n      0x00\n        /* \"#utility.yul\":9826:9835   */\n      dup4\n        /* \"#utility.yul\":9822:9839   */\n      add\n        /* \"#utility.yul\":9815:9862   */\n      mstore\n        /* \"#utility.yul\":9879:10010   */\n      tag_557\n        /* \"#utility.yul\":10005:10009   */\n      dup2\n        /* \"#utility.yul\":9879:10010   */\n      tag_432\n      jump\t// in\n    tag_557:\n        /* \"#utility.yul\":9871:10010   */\n      swap1\n      pop\n        /* \"#utility.yul\":9598:10017   */\n      swap2\n      swap1\n      pop\n      jump\t// out\n        /* \"#utility.yul\":10023:10203   */\n    tag_79:\n        /* \"#utility.yul\":10071:10148   */\n      0x4e487b7100000000000000000000000000000000000000000000000000000000\n        /* \"#utility.yul\":10068:10069   */\n      0x00\n        /* \"#utility.yul\":10061:10149   */\n      mstore\n        /* \"#utility.yul\":10168:10172   */\n      0x32\n        /* \"#utility.yul\":10165:10166   */\n      0x04\n        /* \"#utility.yul\":10158:10173   */\n      mstore\n        /* \"#utility.yul\":10192:10196   */\n      0x24\n        /* \"#utility.yul\":10189:10190   */\n      0x00\n        /* \"#utility.yul\":10182:10197   */\n      revert\n        /* \"#utility.yul\":10209:10379   */\n    tag_433:\n        /* \"#utility.yul\":10349:10371   */\n      0x506c61796572206973206e6f7420616374697665000000000000000000000000\n        /* \"#utility.yul\":10345:10346   */\n      0x00\n        /* \"#utility.yul\":10337:10343   */\n      dup3\n        /* \"#utility.yul\":10333:10347   */\n      add\n        /* \"#utility.yul\":10326:10372   */\n      mstore\n        /* \"#utility.yul\":10209:10379   */\n      pop\n      jump\t// out\n        /* \"#utility.yul\":10385:10751   */\n    tag_434:\n        /* \"#utility.yul\":10527:10530   */\n      0x00\n        /* \"#utility.yul\":10548:10615   */\n      tag_561\n        /* \"#utility.yul\":10612:10614   */\n      0x14\n        /* \"#utility.yul\":10607:10610   */\n      dup4\n        /* \"#utility.yul\":10548:10615   */\n      tag_400\n      jump\t// in\n    tag_561:\n        /* \"#utility.yul\":10541:10615   */\n      swap2\n      pop\n        /* \"#utility.yul\":10624:10717   */\n      tag_562\n        /* \"#utility.yul\":10713:10716   */\n      dup3\n        /* \"#utility.yul\":10624:10717   */\n      tag_433\n      jump\t// in\n    tag_562:\n        /* \"#utility.yul\":10742:10744   */\n      0x20\n        /* \"#utility.yul\":10737:10740   */\n      dup3\n        /* \"#utility.yul\":10733:10745   */\n      add\n        /* \"#utility.yul\":10726:10745   */\n      swap1\n      pop\n        /* \"#utility.yul\":10385:10751   */\n      swap2\n      swap1\n      pop\n      jump\t// out\n        /* \"#utility.yul\":10757:11176   */\n    tag_83:\n        /* \"#utility.yul\":10923:10927   */\n      0x00\n        /* \"#utility.yul\":10961:10963   */\n      0x20\n        /* \"#utility.yul\":10950:10959   */\n      dup3\n        /* \"#utility.yul\":10946:10964   */\n      add\n        /* \"#utility.yul\":10938:10964   */\n      swap1\n      pop\n        /* \"#utility.yul\":11010:11019   */\n      dup2\n        /* \"#utility.yul\":11004:11008   */\n      dup2\n        /* \"#utility.yul\":11000:11020   */\n      sub\n        /* \"#utility.yul\":10996:10997   */\n      0x00\n        /* \"#utility.yul\":10985:10994   */\n      dup4\n        /* \"#utility.yul\":10981:10998   */\n      add\n        /* \"#utility.yul\":10974:11021   */\n      mstore\n        /* \"#utility.yul\":11038:11169   */\n      tag_564\n        /* \"#utility.yul\":11164:11168   */\n      dup2\n        /* \"#utility.yul\":11038:11169   */\n      tag_434\n      jump\t// in\n    tag_564:\n        /* \"#utility.yul\":11030:11169   */\n      swap1\n      pop\n        /* \"#utility.yul\":10757:11176   */\n      swap2\n      swap1\n      pop\n      jump\t// out\n        /* \"#utility.yul\":11182:11356   */\n    tag_435:\n        /* \"#utility.yul\":11322:11348   */\n      0x506c6179657220697320616c7265616479206275737465640000000000000000\n        /* \"#utility.yul\":11318:11319   */\n      0x00\n        /* \"#utility.yul\":11310:11316   */\n      dup3\n        /* \"#utility.yul\":11306:11320   */\n      add\n        /* \"#utility.yul\":11299:11349   */\n      mstore\n        /* \"#utility.yul\":11182:11356   */\n      pop\n      jump\t// out\n        /* \"#utility.yul\":11362:11728   */\n    tag_436:\n        /* \"#utility.yul\":11504:11507   */\n      0x00\n        /* \"#utility.yul\":11525:11592   */\n      tag_567\n        /* \"#utility.yul\":11589:11591   */\n      0x18\n        /* \"#utility.yul\":11584:11587   */\n      dup4\n        /* \"#utility.yul\":11525:11592   */\n      tag_400\n      jump\t// in\n    tag_567:\n        /* \"#utility.yul\":11518:11592   */\n      swap2\n      pop\n        /* \"#utility.yul\":11601:11694   */\n      tag_568\n        /* \"#utility.yul\":11690:11693   */\n      dup3\n        /* \"#utility.yul\":11601:11694   */\n      tag_435\n      jump\t// in\n    tag_568:\n        /* \"#utility.yul\":11719:11721   */\n      0x20\n        /* \"#utility.yul\":11714:11717   */\n      dup3\n        /* \"#utility.yul\":11710:11722   */\n      add\n        /* \"#utility.yul\":11703:11722   */\n      swap1\n      pop\n        /* \"#utility.yul\":11362:11728   */\n      swap2\n      swap1\n      pop\n      jump\t// out\n        /* \"#utility.yul\":11734:12153   */\n    tag_89:\n        /* \"#utility.yul\":11900:11904   */\n      0x00\n        /* \"#utility.yul\":11938:11940   */\n      0x20\n        /* \"#utility.yul\":11927:11936   */\n      dup3\n        /* \"#utility.yul\":11923:11941   */\n      add\n        /* \"#utility.yul\":11915:11941   */\n      swap1\n      pop\n        /* \"#utility.yul\":11987:11996   */\n      dup2\n        /* \"#utility.yul\":11981:11985   */\n      dup2\n        /* \"#utility.yul\":11977:11997   */\n      sub\n        /* \"#utility.yul\":11973:11974   */\n      0x00\n        /* \"#utility.yul\":11962:11971   */\n      dup4\n        /* \"#utility.yul\":11958:11975   */\n      add\n        /* \"#utility.yul\":11951:11998   */\n      mstore\n        /* \"#utility.yul\":12015:12146   */\n      tag_570\n        /* \"#utility.yul\":12141:12145   */\n      dup2\n        /* \"#utility.yul\":12015:12146   */\n      tag_436\n      jump\t// in\n    tag_570:\n        /* \"#utility.yul\":12007:12146   */\n      swap1\n      pop\n        /* \"#utility.yul\":11734:12153   */\n      swap2\n      swap1\n      pop\n      jump\t// out\n        /* \"#utility.yul\":12159:12339   */\n    tag_437:\n        /* \"#utility.yul\":12207:12284   */\n      0x4e487b7100000000000000000000000000000000000000000000000000000000\n        /* \"#utility.yul\":12204:12205   */\n      0x00\n        /* \"#utility.yul\":12197:12285   */\n      mstore\n        /* \"#utility.yul\":12304:12308   */\n      0x11\n        /* \"#utility.yul\":12301:12302   */\n      0x04\n        /* \"#utility.yul\":12294:12309   */\n      mstore\n        /* \"#utility.yul\":12328:12332   */\n      0x24\n        /* \"#utility.yul\":12325:12326   */\n      0x00\n        /* \"#utility.yul\":12318:12333   */\n      revert\n        /* \"#utility.yul\":12345:12755   */\n    tag_152:\n        /* \"#utility.yul\":12385:12392   */\n      0x00\n        /* \"#utility.yul\":12408:12428   */\n      tag_573\n        /* \"#utility.yul\":12426:12427   */\n      dup3\n        /* \"#utility.yul\":12408:12428   */\n      tag_397\n      jump\t// in\n    tag_573:\n        /* \"#utility.yul\":12403:12428   */\n      swap2\n      pop\n        /* \"#utility.yul\":12442:12462   */\n      tag_574\n        /* \"#utility.yul\":12460:12461   */\n      dup4\n        /* \"#utility.yul\":12442:12462   */\n      tag_397\n      jump\t// in\n    tag_574:\n        /* \"#utility.yul\":12437:12462   */\n      swap3\n      pop\n        /* \"#utility.yul\":12497:12498   */\n      dup3\n        /* \"#utility.yul\":12494:12495   */\n      dup3\n        /* \"#utility.yul\":12490:12499   */\n      mul\n        /* \"#utility.yul\":12519:12549   */\n      tag_575\n        /* \"#utility.yul\":12537:12548   */\n      dup2\n        /* \"#utility.yul\":12519:12549   */\n      tag_397\n      jump\t// in\n    tag_575:\n        /* \"#utility.yul\":12508:12549   */\n      swap2\n      pop\n        /* \"#utility.yul\":12698:12699   */\n      dup3\n        /* \"#utility.yul\":12689:12696   */\n      dup3\n        /* \"#utility.yul\":12685:12700   */\n      div\n        /* \"#utility.yul\":12682:12683   */\n      dup5\n        /* \"#utility.yul\":12679:12701   */\n      eq\n        /* \"#utility.yul\":12659:12660   */\n      dup4\n        /* \"#utility.yul\":12652:12661   */\n      iszero\n        /* \"#utility.yul\":12632:12715   */\n      or\n        /* \"#utility.yul\":12609:12748   */\n      tag_576\n      jumpi\n        /* \"#utility.yul\":12728:12746   */\n      tag_577\n      tag_437\n      jump\t// in\n    tag_577:\n        /* \"#utility.yul\":12609:12748   */\n    tag_576:\n        /* \"#utility.yul\":12393:12755   */\n      pop\n        /* \"#utility.yul\":12345:12755   */\n      swap3\n      swap2\n      pop\n      pop\n      jump\t// out\n        /* \"#utility.yul\":12761:13085   */\n    tag_163:\n        /* \"#utility.yul\":12878:12882   */\n      0x00\n        /* \"#utility.yul\":12916:12918   */\n      0x40\n        /* \"#utility.yul\":12905:12914   */\n      dup3\n        /* \"#utility.yul\":12901:12919   */\n      add\n        /* \"#utility.yul\":12893:12919   */\n      swap1\n      pop\n        /* \"#utility.yul\":12929:13000   */\n      tag_579\n        /* \"#utility.yul\":12997:12998   */\n      0x00\n        /* \"#utility.yul\":12986:12995   */\n      dup4\n        /* \"#utility.yul\":12982:12999   */\n      add\n        /* \"#utility.yul\":12973:12979   */\n      dup6\n        /* \"#utility.yul\":12929:13000   */\n      tag_420\n      jump\t// in\n    tag_579:\n        /* \"#utility.yul\":13010:13078   */\n      tag_580\n        /* \"#utility.yul\":13074:13076   */\n      0x20\n        /* \"#utility.yul\":13063:13072   */\n      dup4\n        /* \"#utility.yul\":13059:13077   */\n      add\n        /* \"#utility.yul\":13050:13056   */\n      dup5\n        /* \"#utility.yul\":13010:13078   */\n      tag_419\n      jump\t// in\n    tag_580:\n        /* \"#utility.yul\":12761:13085   */\n      swap4\n      swap3\n      pop\n      pop\n      pop\n      jump\t// out\n        /* \"#utility.yul\":13091:13254   */\n    tag_438:\n        /* \"#utility.yul\":13231:13246   */\n      0x4e6f7420796f7572207475726e00000000000000000000000000000000000000\n        /* \"#utility.yul\":13227:13228   */\n      0x00\n        /* \"#utility.yul\":13219:13225   */\n      dup3\n        /* \"#utility.yul\":13215:13229   */\n      add\n        /* \"#utility.yul\":13208:13247   */\n      mstore\n        /* \"#utility.yul\":13091:13254   */\n      pop\n      jump\t// out\n        /* \"#utility.yul\":13260:13626   */\n    tag_439:\n        /* \"#utility.yul\":13402:13405   */\n      0x00\n        /* \"#utility.yul\":13423:13490   */\n      tag_583\n        /* \"#utility.yul\":13487:13489   */\n      0x0d\n        /* \"#utility.yul\":13482:13485   */\n      dup4\n        /* \"#utility.yul\":13423:13490   */\n      tag_400\n      jump\t// in\n    tag_583:\n        /* \"#utility.yul\":13416:13490   */\n      swap2\n      pop\n        /* \"#utility.yul\":13499:13592   */\n      tag_584\n        /* \"#utility.yul\":13588:13591   */\n      dup3\n        /* \"#utility.yul\":13499:13592   */\n      tag_438\n      jump\t// in\n    tag_584:\n        /* \"#utility.yul\":13617:13619   */\n      0x20\n        /* \"#utility.yul\":13612:13615   */\n      dup3\n        /* \"#utility.yul\":13608:13620   */\n      add\n        /* \"#utility.yul\":13601:13620   */\n      swap1\n      pop\n        /* \"#utility.yul\":13260:13626   */\n      swap2\n      swap1\n      pop\n      jump\t// out\n        /* \"#utility.yul\":13632:14051   */\n    tag_178:\n        /* \"#utility.yul\":13798:13802   */\n      0x00\n        /* \"#utility.yul\":13836:13838   */\n      0x20\n        /* \"#utility.yul\":13825:13834   */\n      dup3\n        /* \"#utility.yul\":13821:13839   */\n      add\n        /* \"#utility.yul\":13813:13839   */\n      swap1\n      pop\n        /* \"#utility.yul\":13885:13894   */\n      dup2\n        /* \"#utility.yul\":13879:13883   */\n      dup2\n        /* \"#utility.yul\":13875:13895   */\n      sub\n        /* \"#utility.yul\":13871:13872   */\n      0x00\n        /* \"#utility.yul\":13860:13869   */\n      dup4\n        /* \"#utility.yul\":13856:13873   */\n      add\n        /* \"#utility.yul\":13849:13896   */\n      mstore\n        /* \"#utility.yul\":13913:14044   */\n      tag_586\n        /* \"#utility.yul\":14039:14043   */\n      dup2\n        /* \"#utility.yul\":13913:14044   */\n      tag_439\n      jump\t// in\n    tag_586:\n        /* \"#utility.yul\":13905:14044   */\n      swap1\n      pop\n        /* \"#utility.yul\":13632:14051   */\n      swap2\n      swap1\n      pop\n      jump\t// out\n        /* \"#utility.yul\":14057:14248   */\n    tag_186:\n        /* \"#utility.yul\":14097:14100   */\n      0x00\n        /* \"#utility.yul\":14116:14136   */\n      tag_588\n        /* \"#utility.yul\":14134:14135   */\n      dup3\n        /* \"#utility.yul\":14116:14136   */\n      tag_397\n      jump\t// in\n    tag_588:\n        /* \"#utility.yul\":14111:14136   */\n      swap2\n      pop\n        /* \"#utility.yul\":14150:14170   */\n      tag_589\n        /* \"#utility.yul\":14168:14169   */\n      dup4\n        /* \"#utility.yul\":14150:14170   */\n      tag_397\n      jump\t// in\n    tag_589:\n        /* \"#utility.yul\":14145:14170   */\n      swap3\n      pop\n        /* \"#utility.yul\":14193:14194   */\n      dup3\n        /* \"#utility.yul\":14190:14191   */\n      dup3\n        /* \"#utility.yul\":14186:14195   */\n      add\n        /* \"#utility.yul\":14179:14195   */\n      swap1\n      pop\n        /* \"#utility.yul\":14214:14217   */\n      dup1\n        /* \"#utility.yul\":14211:14212   */\n      dup3\n        /* \"#utility.yul\":14208:14218   */\n      gt\n        /* \"#utility.yul\":14205:14241   */\n      iszero\n      tag_590\n      jumpi\n        /* \"#utility.yul\":14221:14239   */\n      tag_591\n      tag_437\n      jump\t// in\n    tag_591:\n        /* \"#utility.yul\":14205:14241   */\n    tag_590:\n        /* \"#utility.yul\":14057:14248   */\n      swap3\n      swap2\n      pop\n      pop\n      jump\t// out\n        /* \"#utility.yul\":14254:14434   */\n    tag_189:\n        /* \"#utility.yul\":14302:14379   */\n      0x4e487b7100000000000000000000000000000000000000000000000000000000\n        /* \"#utility.yul\":14299:14300   */\n      0x00\n        /* \"#utility.yul\":14292:14380   */\n      mstore\n        /* \"#utility.yul\":14399:14403   */\n      0x41\n        /* \"#utility.yul\":14396:14397   */\n      0x04\n        /* \"#utility.yul\":14389:14404   */\n      mstore\n        /* \"#utility.yul\":14423:14427   */\n      0x24\n        /* \"#utility.yul\":14420:14421   */\n      0x00\n        /* \"#utility.yul\":14413:14428   */\n      revert\n        /* \"#utility.yul\":14440:14588   */\n    tag_440:\n        /* \"#utility.yul\":14542:14553   */\n      0x00\n        /* \"#utility.yul\":14579:14582   */\n      dup2\n        /* \"#utility.yul\":14564:14582   */\n      swap1\n      pop\n        /* \"#utility.yul\":14440:14588   */\n      swap3\n      swap2\n      pop\n      pop\n      jump\t// out\n        /* \"#utility.yul\":14594:14751   */\n    tag_441:\n        /* \"#utility.yul\":14734:14743   */\n      0x506c617965722000000000000000000000000000000000000000000000000000\n        /* \"#utility.yul\":14730:14731   */\n      0x00\n        /* \"#utility.yul\":14722:14728   */\n      dup3\n        /* \"#utility.yul\":14718:14732   */\n      add\n        /* \"#utility.yul\":14711:14744   */\n      mstore\n        /* \"#utility.yul\":14594:14751   */\n      pop\n      jump\t// out\n        /* \"#utility.yul\":14757:15157   */\n    tag_442:\n        /* \"#utility.yul\":14917:14920   */\n      0x00\n        /* \"#utility.yul\":14938:15022   */\n      tag_596\n        /* \"#utility.yul\":15020:15021   */\n      0x07\n        /* \"#utility.yul\":15015:15018   */\n      dup4\n        /* \"#utility.yul\":14938:15022   */\n      tag_440\n      jump\t// in\n    tag_596:\n        /* \"#utility.yul\":14931:15022   */\n      swap2\n      pop\n        /* \"#utility.yul\":15031:15124   */\n      tag_597\n        /* \"#utility.yul\":15120:15123   */\n      dup3\n        /* \"#utility.yul\":15031:15124   */\n      tag_441\n      jump\t// in\n    tag_597:\n        /* \"#utility.yul\":15149:15150   */\n      0x07\n        /* \"#utility.yul\":15144:15147   */\n      dup3\n        /* \"#utility.yul\":15140:15151   */\n      add\n        /* \"#utility.yul\":15133:15151   */\n      swap1\n      pop\n        /* \"#utility.yul\":14757:15157   */\n      swap2\n      swap1\n      pop\n      jump\t// out\n        /* \"#utility.yul\":15163:15553   */\n    tag_443:\n        /* \"#utility.yul\":15269:15272   */\n      0x00\n        /* \"#utility.yul\":15297:15336   */\n      tag_599\n        /* \"#utility.yul\":15330:15335   */\n      dup3\n        /* \"#utility.yul\":15297:15336   */\n      tag_399\n      jump\t// in\n    tag_599:\n        /* \"#utility.yul\":15352:15441   */\n      tag_600\n        /* \"#utility.yul\":15434:15440   */\n      dup2\n        /* \"#utility.yul\":15429:15432   */\n      dup6\n        /* \"#utility.yul\":15352:15441   */\n      tag_440\n      jump\t// in\n    tag_600:\n        /* \"#utility.yul\":15345:15441   */\n      swap4\n      pop\n        /* \"#utility.yul\":15450:15515   */\n      tag_601\n        /* \"#utility.yul\":15508:15514   */\n      dup2\n        /* \"#utility.yul\":15503:15506   */\n      dup6\n        /* \"#utility.yul\":15496:15500   */\n      0x20\n        /* \"#utility.yul\":15489:15494   */\n      dup7\n        /* \"#utility.yul\":15485:15501   */\n      add\n        /* \"#utility.yul\":15450:15515   */\n      tag_401\n      jump\t// in\n    tag_601:\n        /* \"#utility.yul\":15540:15546   */\n      dup1\n        /* \"#utility.yul\":15535:15538   */\n      dup5\n        /* \"#utility.yul\":15531:15547   */\n      add\n        /* \"#utility.yul\":15524:15547   */\n      swap2\n      pop\n        /* \"#utility.yul\":15273:15553   */\n      pop\n        /* \"#utility.yul\":15163:15553   */\n      swap3\n      swap2\n      pop\n      pop\n      jump\t// out\n        /* \"#utility.yul\":15559:15711   */\n    tag_444:\n        /* \"#utility.yul\":15699:15703   */\n      0x3a20000000000000000000000000000000000000000000000000000000000000\n        /* \"#utility.yul\":15695:15696   */\n      0x00\n        /* \"#utility.yul\":15687:15693   */\n      dup3\n        /* \"#utility.yul\":15683:15697   */\n      add\n        /* \"#utility.yul\":15676:15704   */\n      mstore\n        /* \"#utility.yul\":15559:15711   */\n      pop\n      jump\t// out\n        /* \"#utility.yul\":15717:16117   */\n    tag_445:\n        /* \"#utility.yul\":15877:15880   */\n      0x00\n        /* \"#utility.yul\":15898:15982   */\n      tag_604\n        /* \"#utility.yul\":15980:15981   */\n      0x02\n        /* \"#utility.yul\":15975:15978   */\n      dup4\n        /* \"#utility.yul\":15898:15982   */\n      tag_440\n      jump\t// in\n    tag_604:\n        /* \"#utility.yul\":15891:15982   */\n      swap2\n      pop\n        /* \"#utility.yul\":15991:16084   */\n      tag_605\n        /* \"#utility.yul\":16080:16083   */\n      dup3\n        /* \"#utility.yul\":15991:16084   */\n      tag_444\n      jump\t// in\n    tag_605:\n        /* \"#utility.yul\":16109:16110   */\n      0x02\n        /* \"#utility.yul\":16104:16107   */\n      dup3\n        /* \"#utility.yul\":16100:16111   */\n      add\n        /* \"#utility.yul\":16093:16111   */\n      swap1\n      pop\n        /* \"#utility.yul\":15717:16117   */\n      swap2\n      swap1\n      pop\n      jump\t// out\n        /* \"#utility.yul\":16123:16930   */\n    tag_210:\n        /* \"#utility.yul\":16457:16460   */\n      0x00\n        /* \"#utility.yul\":16479:16627   */\n      tag_607\n        /* \"#utility.yul\":16623:16626   */\n      dup3\n        /* \"#utility.yul\":16479:16627   */\n      tag_442\n      jump\t// in\n    tag_607:\n        /* \"#utility.yul\":16472:16627   */\n      swap2\n      pop\n        /* \"#utility.yul\":16644:16739   */\n      tag_608\n        /* \"#utility.yul\":16735:16738   */\n      dup3\n        /* \"#utility.yul\":16726:16732   */\n      dup5\n        /* \"#utility.yul\":16644:16739   */\n      tag_443\n      jump\t// in\n    tag_608:\n        /* \"#utility.yul\":16637:16739   */\n      swap2\n      pop\n        /* \"#utility.yul\":16756:16904   */\n      tag_609\n        /* \"#utility.yul\":16900:16903   */\n      dup3\n        /* \"#utility.yul\":16756:16904   */\n      tag_445\n      jump\t// in\n    tag_609:\n        /* \"#utility.yul\":16749:16904   */\n      swap2\n      pop\n        /* \"#utility.yul\":16921:16924   */\n      dup2\n        /* \"#utility.yul\":16914:16924   */\n      swap1\n      pop\n        /* \"#utility.yul\":16123:16930   */\n      swap3\n      swap2\n      pop\n      pop\n      jump\t// out\n        /* \"#utility.yul\":16936:17108   */\n    tag_446:\n        /* \"#utility.yul\":17076:17100   */\n      0x4e6f20706c617965727320696e207468652067616d6500000000000000000000\n        /* \"#utility.yul\":17072:17073   */\n      0x00\n        /* \"#utility.yul\":17064:17070   */\n      dup3\n        /* \"#utility.yul\":17060:17074   */\n      add\n        /* \"#utility.yul\":17053:17101   */\n      mstore\n        /* \"#utility.yul\":16936:17108   */\n      pop\n      jump\t// out\n        /* \"#utility.yul\":17114:17480   */\n    tag_447:\n        /* \"#utility.yul\":17256:17259   */\n      0x00\n        /* \"#utility.yul\":17277:17344   */\n      tag_612\n        /* \"#utility.yul\":17341:17343   */\n      0x16\n        /* \"#utility.yul\":17336:17339   */\n      dup4\n        /* \"#utility.yul\":17277:17344   */\n      tag_400\n      jump\t// in\n    tag_612:\n        /* \"#utility.yul\":17270:17344   */\n      swap2\n      pop\n        /* \"#utility.yul\":17353:17446   */\n      tag_613\n        /* \"#utility.yul\":17442:17445   */\n      dup3\n        /* \"#utility.yul\":17353:17446   */\n      tag_446\n      jump\t// in\n    tag_613:\n        /* \"#utility.yul\":17471:17473   */\n      0x20\n        /* \"#utility.yul\":17466:17469   */\n      dup3\n        /* \"#utility.yul\":17462:17474   */\n      add\n        /* \"#utility.yul\":17455:17474   */\n      swap1\n      pop\n        /* \"#utility.yul\":17114:17480   */\n      swap2\n      swap1\n      pop\n      jump\t// out\n        /* \"#utility.yul\":17486:17905   */\n    tag_217:\n        /* \"#utility.yul\":17652:17656   */\n      0x00\n        /* \"#utility.yul\":17690:17692   */\n      0x20\n        /* \"#utility.yul\":17679:17688   */\n      dup3\n        /* \"#utility.yul\":17675:17693   */\n      add\n        /* \"#utility.yul\":17667:17693   */\n      swap1\n      pop\n        /* \"#utility.yul\":17739:17748   */\n      dup2\n        /* \"#utility.yul\":17733:17737   */\n      dup2\n        /* \"#utility.yul\":17729:17749   */\n      sub\n        /* \"#utility.yul\":17725:17726   */\n      0x00\n        /* \"#utility.yul\":17714:17723   */\n      dup4\n        /* \"#utility.yul\":17710:17727   */\n      add\n        /* \"#utility.yul\":17703:17750   */\n      mstore\n        /* \"#utility.yul\":17767:17898   */\n      tag_615\n        /* \"#utility.yul\":17893:17897   */\n      dup2\n        /* \"#utility.yul\":17767:17898   */\n      tag_447\n      jump\t// in\n    tag_615:\n        /* \"#utility.yul\":17759:17898   */\n      swap1\n      pop\n        /* \"#utility.yul\":17486:17905   */\n      swap2\n      swap1\n      pop\n      jump\t// out\n        /* \"#utility.yul\":17911:18082   */\n    tag_448:\n        /* \"#utility.yul\":18051:18074   */\n      0x4d6178203420706c617965727320616c6c6f7765640000000000000000000000\n        /* \"#utility.yul\":18047:18048   */\n      0x00\n        /* \"#utility.yul\":18039:18045   */\n      dup3\n        /* \"#utility.yul\":18035:18049   */\n      add\n        /* \"#utility.yul\":18028:18075   */\n      mstore\n        /* \"#utility.yul\":17911:18082   */\n      pop\n      jump\t// out\n        /* \"#utility.yul\":18088:18454   */\n    tag_449:\n        /* \"#utility.yul\":18230:18233   */\n      0x00\n        /* \"#utility.yul\":18251:18318   */\n      tag_618\n        /* \"#utility.yul\":18315:18317   */\n      0x15\n        /* \"#utility.yul\":18310:18313   */\n      dup4\n        /* \"#utility.yul\":18251:18318   */\n      tag_400\n      jump\t// in\n    tag_618:\n        /* \"#utility.yul\":18244:18318   */\n      swap2\n      pop\n        /* \"#utility.yul\":18327:18420   */\n      tag_619\n        /* \"#utility.yul\":18416:18419   */\n      dup3\n        /* \"#utility.yul\":18327:18420   */\n      tag_448\n      jump\t// in\n    tag_619:\n        /* \"#utility.yul\":18445:18447   */\n      0x20\n        /* \"#utility.yul\":18440:18443   */\n      dup3\n        /* \"#utility.yul\":18436:18448   */\n      add\n        /* \"#utility.yul\":18429:18448   */\n      swap1\n      pop\n        /* \"#utility.yul\":18088:18454   */\n      swap2\n      swap1\n      pop\n      jump\t// out\n        /* \"#utility.yul\":18460:18879   */\n    tag_240:\n        /* \"#utility.yul\":18626:18630   */\n      0x00\n        /* \"#utility.yul\":18664:18666   */\n      0x20\n        /* \"#utility.yul\":18653:18662   */\n      dup3\n        /* \"#utility.yul\":18649:18667   */\n      add\n        /* \"#utility.yul\":18641:18667   */\n      swap1\n      pop\n        /* \"#utility.yul\":18713:18722   */\n      dup2\n        /* \"#utility.yul\":18707:18711   */\n      dup2\n        /* \"#utility.yul\":18703:18723   */\n      sub\n        /* \"#utility.yul\":18699:18700   */\n      0x00\n        /* \"#utility.yul\":18688:18697   */\n      dup4\n        /* \"#utility.yul\":18684:18701   */\n      add\n        /* \"#utility.yul\":18677:18724   */\n      mstore\n        /* \"#utility.yul\":18741:18872   */\n      tag_621\n        /* \"#utility.yul\":18867:18871   */\n      dup2\n        /* \"#utility.yul\":18741:18872   */\n      tag_449\n      jump\t// in\n    tag_621:\n        /* \"#utility.yul\":18733:18872   */\n      swap1\n      pop\n        /* \"#utility.yul\":18460:18879   */\n      swap2\n      swap1\n      pop\n      jump\t// out\n        /* \"#utility.yul\":18885:19054   */\n    tag_450:\n        /* \"#utility.yul\":19025:19046   */\n      0x42657420616d6f756e74206d69736d6174636800000000000000000000000000\n        /* \"#utility.yul\":19021:19022   */\n      0x00\n        /* \"#utility.yul\":19013:19019   */\n      dup3\n        /* \"#utility.yul\":19009:19023   */\n      add\n        /* \"#utility.yul\":19002:19047   */\n      mstore\n        /* \"#utility.yul\":18885:19054   */\n      pop\n      jump\t// out\n        /* \"#utility.yul\":19060:19426   */\n    tag_451:\n        /* \"#utility.yul\":19202:19205   */\n      0x00\n        /* \"#utility.yul\":19223:19290   */\n      tag_624\n        /* \"#utility.yul\":19287:19289   */\n      0x13\n        /* \"#utility.yul\":19282:19285   */\n      dup4\n        /* \"#utility.yul\":19223:19290   */\n      tag_400\n      jump\t// in\n    tag_624:\n        /* \"#utility.yul\":19216:19290   */\n      swap2\n      pop\n        /* \"#utility.yul\":19299:19392   */\n      tag_625\n        /* \"#utility.yul\":19388:19391   */\n      dup3\n        /* \"#utility.yul\":19299:19392   */\n      tag_450\n      jump\t// in\n    tag_625:\n        /* \"#utility.yul\":19417:19419   */\n      0x20\n        /* \"#utility.yul\":19412:19415   */\n      dup3\n        /* \"#utility.yul\":19408:19420   */\n      add\n        /* \"#utility.yul\":19401:19420   */\n      swap1\n      pop\n        /* \"#utility.yul\":19060:19426   */\n      swap2\n      swap1\n      pop\n      jump\t// out\n        /* \"#utility.yul\":19432:19851   */\n    tag_243:\n        /* \"#utility.yul\":19598:19602   */\n      0x00\n        /* \"#utility.yul\":19636:19638   */\n      0x20\n        /* \"#utility.yul\":19625:19634   */\n      dup3\n        /* \"#utility.yul\":19621:19639   */\n      add\n        /* \"#utility.yul\":19613:19639   */\n      swap1\n      pop\n        /* \"#utility.yul\":19685:19694   */\n      dup2\n        /* \"#utility.yul\":19679:19683   */\n      dup2\n        /* \"#utility.yul\":19675:19695   */\n      sub\n        /* \"#utility.yul\":19671:19672   */\n      0x00\n        /* \"#utility.yul\":19660:19669   */\n      dup4\n        /* \"#utility.yul\":19656:19673   */\n      add\n        /* \"#utility.yul\":19649:19696   */\n      mstore\n        /* \"#utility.yul\":19713:19844   */\n      tag_627\n        /* \"#utility.yul\":19839:19843   */\n      dup2\n        /* \"#utility.yul\":19713:19844   */\n      tag_451\n      jump\t// in\n    tag_627:\n        /* \"#utility.yul\":19705:19844   */\n      swap1\n      pop\n        /* \"#utility.yul\":19432:19851   */\n      swap2\n      swap1\n      pop\n      jump\t// out\n        /* \"#utility.yul\":19857:20090   */\n    tag_251:\n        /* \"#utility.yul\":19896:19899   */\n      0x00\n        /* \"#utility.yul\":19919:19943   */\n      tag_629\n        /* \"#utility.yul\":19937:19942   */\n      dup3\n        /* \"#utility.yul\":19919:19943   */\n      tag_397\n      jump\t// in\n    tag_629:\n        /* \"#utility.yul\":19910:19943   */\n      swap2\n      pop\n        /* \"#utility.yul\":19965:20031   */\n      0xffffffffffffffffffffffffffffffffffffffffffffffffffffffffffffffff\n        /* \"#utility.yul\":19958:19963   */\n      dup3\n        /* \"#utility.yul\":19955:20032   */\n      sub\n        /* \"#utility.yul\":19952:20055   */\n      tag_630\n      jumpi\n        /* \"#utility.yul\":20035:20053   */\n      tag_631\n      tag_437\n      jump\t// in\n    tag_631:\n        /* \"#utility.yul\":19952:20055   */\n    tag_630:\n        /* \"#utility.yul\":20082:20083   */\n      0x01\n        /* \"#utility.yul\":20075:20080   */\n      dup3\n        /* \"#utility.yul\":20071:20084   */\n      add\n        /* \"#utility.yul\":20064:20084   */\n      swap1\n      pop\n        /* \"#utility.yul\":19857:20090   */\n      swap2\n      swap1\n      pop\n      jump\t// out\n        /* \"#utility.yul\":20096:20271   */\n    tag_452:\n        /* \"#utility.yul\":20236:20263   */\n      0x4e6f206361726473206c65667420696e20746865206465636b00000000000000\n        /* \"#utility.yul\":20232:20233   */\n      0x00\n        /* \"#utility.yul\":20224:20230   */\n      dup3\n        /* \"#utility.yul\":20220:20234   */\n      add\n        /* \"#utility.yul\":20213:20264   */\n      mstore\n        /* \"#utility.yul\":20096:20271   */\n      pop\n      jump\t// out\n        /* \"#utility.yul\":20277:20643   */\n    tag_453:\n        /* \"#utility.yul\":20419:20422   */\n      0x00\n        /* \"#utility.yul\":20440:20507   */\n      tag_634\n        /* \"#utility.yul\":20504:20506   */\n      0x19\n        /* \"#utility.yul\":20499:20502   */\n      dup4\n        /* \"#utility.yul\":20440:20507   */\n      tag_400\n      jump\t// in\n    tag_634:\n        /* \"#utility.yul\":20433:20507   */\n      swap2\n      pop\n        /* \"#utility.yul\":20516:20609   */\n      tag_635\n        /* \"#utility.yul\":20605:20608   */\n      dup3\n        /* \"#utility.yul\":20516:20609   */\n      tag_452\n      jump\t// in\n    tag_635:\n        /* \"#utility.yul\":20634:20636   */\n      0x20\n        /* \"#utility.yul\":20629:20632   */\n      dup3\n        /* \"#utility.yul\":20625:20637   */\n      add\n        /* \"#utility.yul\":20618:20637   */\n      swap1\n      pop\n        /* \"#utility.yul\":20277:20643   */\n      swap2\n      swap1\n      pop\n      jump\t// out\n        /* \"#utility.yul\":20649:21068   */\n    tag_265:\n        /* \"#utility.yul\":20815:20819   */\n      0x00\n        /* \"#utility.yul\":20853:20855   */\n      0x20\n        /* \"#utility.yul\":20842:20851   */\n      dup3\n        /* \"#utility.yul\":20838:20856   */\n      add\n        /* \"#utility.yul\":20830:20856   */\n      swap1\n      pop\n        /* \"#utility.yul\":20902:20911   */\n      dup2\n        /* \"#utility.yul\":20896:20900   */\n      dup2\n        /* \"#utility.yul\":20892:20912   */\n      sub\n        /* \"#utility.yul\":20888:20889   */\n      0x00\n        /* \"#utility.yul\":20877:20886   */\n      dup4\n        /* \"#utility.yul\":20873:20890   */\n      add\n        /* \"#utility.yul\":20866:20913   */\n      mstore\n        /* \"#utility.yul\":20930:21061   */\n      tag_637\n        /* \"#utility.yul\":21056:21060   */\n      dup2\n        /* \"#utility.yul\":20930:21061   */\n      tag_453\n      jump\t// in\n    tag_637:\n        /* \"#utility.yul\":20922:21061   */\n      swap1\n      pop\n        /* \"#utility.yul\":20649:21068   */\n      swap2\n      swap1\n      pop\n      jump\t// out\n        /* \"#utility.yul\":21074:21268   */\n    tag_267:\n        /* \"#utility.yul\":21114:21118   */\n      0x00\n        /* \"#utility.yul\":21134:21154   */\n      tag_639\n        /* \"#utility.yul\":21152:21153   */\n      dup3\n        /* \"#utility.yul\":21134:21154   */\n      tag_397\n      jump\t// in\n    tag_639:\n        /* \"#utility.yul\":21129:21154   */\n      swap2\n      pop\n        /* \"#utility.yul\":21168:21188   */\n      tag_640\n        /* \"#utility.yul\":21186:21187   */\n      dup4\n        /* \"#utility.yul\":21168:21188   */\n      tag_397\n      jump\t// in\n    tag_640:\n        /* \"#utility.yul\":21163:21188   */\n      swap3\n      pop\n        /* \"#utility.yul\":21212:21213   */\n      dup3\n        /* \"#utility.yul\":21209:21210   */\n      dup3\n        /* \"#utility.yul\":21205:21214   */\n      sub\n        /* \"#utility.yul\":21197:21214   */\n      swap1\n      pop\n        /* \"#utility.yul\":21236:21237   */\n      dup2\n        /* \"#utility.yul\":21230:21234   */\n      dup2\n        /* \"#utility.yul\":21227:21238   */\n      gt\n        /* \"#utility.yul\":21224:21261   */\n      iszero\n      tag_641\n      jumpi\n        /* \"#utility.yul\":21241:21259   */\n      tag_642\n      tag_437\n      jump\t// in\n    tag_642:\n        /* \"#utility.yul\":21224:21261   */\n    tag_641:\n        /* \"#utility.yul\":21074:21268   */\n      swap3\n      swap2\n      pop\n      pop\n      jump\t// out\n        /* \"#utility.yul\":21274:21454   */\n    tag_273:\n        /* \"#utility.yul\":21322:21399   */\n      0x4e487b7100000000000000000000000000000000000000000000000000000000\n        /* \"#utility.yul\":21319:21320   */\n      0x00\n        /* \"#utility.yul\":21312:21400   */\n      mstore\n        /* \"#utility.yul\":21419:21423   */\n      0x31\n        /* \"#utility.yul\":21416:21417   */\n      0x04\n        /* \"#utility.yul\":21409:21424   */\n      mstore\n        /* \"#utility.yul\":21443:21447   */\n      0x24\n        /* \"#utility.yul\":21440:21441   */\n      0x00\n        /* \"#utility.yul\":21433:21448   */\n      revert\n        /* \"#utility.yul\":21460:21640   */\n    tag_454:\n        /* \"#utility.yul\":21508:21585   */\n      0x4e487b7100000000000000000000000000000000000000000000000000000000\n        /* \"#utility.yul\":21505:21506   */\n      0x00\n        /* \"#utility.yul\":21498:21586   */\n      mstore\n        /* \"#utility.yul\":21605:21609   */\n      0x12\n        /* \"#utility.yul\":21602:21603   */\n      0x04\n        /* \"#utility.yul\":21595:21610   */\n      mstore\n        /* \"#utility.yul\":21629:21633   */\n      0x24\n        /* \"#utility.yul\":21626:21627   */\n      0x00\n        /* \"#utility.yul\":21619:21634   */\n      revert\n        /* \"#utility.yul\":21646:21816   */\n    tag_282:\n        /* \"#utility.yul\":21676:21677   */\n      0x00\n        /* \"#utility.yul\":21693:21711   */\n      tag_646\n        /* \"#utility.yul\":21709:21710   */\n      dup3\n        /* \"#utility.yul\":21693:21711   */\n      tag_418\n      jump\t// in\n    tag_646:\n        /* \"#utility.yul\":21688:21711   */\n      swap2\n      pop\n        /* \"#utility.yul\":21725:21743   */\n      tag_647\n        /* \"#utility.yul\":21741:21742   */\n      dup4\n        /* \"#utility.yul\":21725:21743   */\n      tag_418\n      jump\t// in\n    tag_647:\n        /* \"#utility.yul\":21720:21743   */\n      swap3\n      pop\n        /* \"#utility.yul\":21762:21763   */\n      dup3\n        /* \"#utility.yul\":21752:21787   */\n      tag_648\n      jumpi\n        /* \"#utility.yul\":21767:21785   */\n      tag_649\n      tag_454\n      jump\t// in\n    tag_649:\n        /* \"#utility.yul\":21752:21787   */\n    tag_648:\n        /* \"#utility.yul\":21808:21809   */\n      dup3\n        /* \"#utility.yul\":21805:21806   */\n      dup3\n        /* \"#utility.yul\":21801:21810   */\n      mod\n        /* \"#utility.yul\":21796:21810   */\n      swap1\n      pop\n        /* \"#utility.yul\":21646:21816   */\n      swap3\n      swap2\n      pop\n      pop\n      jump\t// out\n        /* \"#utility.yul\":21822:21989   */\n    tag_287:\n        /* \"#utility.yul\":21859:21862   */\n      0x00\n        /* \"#utility.yul\":21882:21904   */\n      tag_651\n        /* \"#utility.yul\":21898:21903   */\n      dup3\n        /* \"#utility.yul\":21882:21904   */\n      tag_418\n      jump\t// in\n    tag_651:\n        /* \"#utility.yul\":21873:21904   */\n      swap2\n      pop\n        /* \"#utility.yul\":21926:21930   */\n      0xff\n        /* \"#utility.yul\":21919:21924   */\n      dup3\n        /* \"#utility.yul\":21916:21931   */\n      sub\n        /* \"#utility.yul\":21913:21954   */\n      tag_652\n      jumpi\n        /* \"#utility.yul\":21934:21952   */\n      tag_653\n      tag_437\n      jump\t// in\n    tag_653:\n        /* \"#utility.yul\":21913:21954   */\n    tag_652:\n        /* \"#utility.yul\":21981:21982   */\n      0x01\n        /* \"#utility.yul\":21974:21979   */\n      dup3\n        /* \"#utility.yul\":21970:21983   */\n      add\n        /* \"#utility.yul\":21963:21983   */\n      swap1\n      pop\n        /* \"#utility.yul\":21822:21989   */\n      swap2\n      swap1\n      pop\n      jump\t// out\n        /* \"#utility.yul\":21995:22183   */\n    tag_289:\n        /* \"#utility.yul\":22033:22036   */\n      0x00\n        /* \"#utility.yul\":22052:22070   */\n      tag_655\n        /* \"#utility.yul\":22068:22069   */\n      dup3\n        /* \"#utility.yul\":22052:22070   */\n      tag_418\n      jump\t// in\n    tag_655:\n        /* \"#utility.yul\":22047:22070   */\n      swap2\n      pop\n        /* \"#utility.yul\":22084:22102   */\n      tag_656\n        /* \"#utility.yul\":22100:22101   */\n      dup4\n        /* \"#utility.yul\":22084:22102   */\n      tag_418\n      jump\t// in\n    tag_656:\n        /* \"#utility.yul\":22079:22102   */\n      swap3\n      pop\n        /* \"#utility.yul\":22125:22126   */\n      dup3\n        /* \"#utility.yul\":22122:22123   */\n      dup3\n        /* \"#utility.yul\":22118:22127   */\n      add\n        /* \"#utility.yul\":22111:22127   */\n      swap1\n      pop\n        /* \"#utility.yul\":22148:22152   */\n      0xff\n        /* \"#utility.yul\":22143:22146   */\n      dup2\n        /* \"#utility.yul\":22140:22153   */\n      gt\n        /* \"#utility.yul\":22137:22176   */\n      iszero\n      tag_657\n      jumpi\n        /* \"#utility.yul\":22156:22174   */\n      tag_658\n      tag_437\n      jump\t// in\n    tag_658:\n        /* \"#utility.yul\":22137:22176   */\n    tag_657:\n        /* \"#utility.yul\":21995:22183   */\n      swap3\n      swap2\n      pop\n      pop\n      jump\t// out\n        /* \"#utility.yul\":22189:22356   */\n    tag_295:\n        /* \"#utility.yul\":22226:22229   */\n      0x00\n        /* \"#utility.yul\":22249:22271   */\n      tag_660\n        /* \"#utility.yul\":22265:22270   */\n      dup3\n        /* \"#utility.yul\":22249:22271   */\n      tag_418\n      jump\t// in\n    tag_660:\n        /* \"#utility.yul\":22240:22271   */\n      swap2\n      pop\n        /* \"#utility.yul\":22293:22297   */\n      0x00\n        /* \"#utility.yul\":22286:22291   */\n      dup3\n        /* \"#utility.yul\":22283:22298   */\n      sub\n        /* \"#utility.yul\":22280:22321   */\n      tag_661\n      jumpi\n        /* \"#utility.yul\":22301:22319   */\n      tag_662\n      tag_437\n      jump\t// in\n    tag_662:\n        /* \"#utility.yul\":22280:22321   */\n    tag_661:\n        /* \"#utility.yul\":22348:22349   */\n      0x01\n        /* \"#utility.yul\":22341:22346   */\n      dup3\n        /* \"#utility.yul\":22337:22350   */\n      sub\n        /* \"#utility.yul\":22330:22350   */\n      swap1\n      pop\n        /* \"#utility.yul\":22189:22356   */\n      swap2\n      swap1\n      pop\n      jump\t// out\n        /* \"#utility.yul\":22362:22797   */\n    tag_314:\n        /* \"#utility.yul\":22542:22545   */\n      0x00\n        /* \"#utility.yul\":22564:22659   */\n      tag_664\n        /* \"#utility.yul\":22655:22658   */\n      dup3\n        /* \"#utility.yul\":22646:22652   */\n      dup6\n        /* \"#utility.yul\":22564:22659   */\n      tag_443\n      jump\t// in\n    tag_664:\n        /* \"#utility.yul\":22557:22659   */\n      swap2\n      pop\n        /* \"#utility.yul\":22676:22771   */\n      tag_665\n        /* \"#utility.yul\":22767:22770   */\n      dup3\n        /* \"#utility.yul\":22758:22764   */\n      dup5\n        /* \"#utility.yul\":22676:22771   */\n      tag_443\n      jump\t// in\n    tag_665:\n        /* \"#utility.yul\":22669:22771   */\n      swap2\n      pop\n        /* \"#utility.yul\":22788:22791   */\n      dup2\n        /* \"#utility.yul\":22781:22791   */\n      swap1\n      pop\n        /* \"#utility.yul\":22362:22797   */\n      swap4\n      swap3\n      pop\n      pop\n      pop\n      jump\t// out\n        /* \"#utility.yul\":22803:22955   */\n    tag_455:\n        /* \"#utility.yul\":22943:22947   */\n      0x2c20000000000000000000000000000000000000000000000000000000000000\n        /* \"#utility.yul\":22939:22940   */\n      0x00\n        /* \"#utility.yul\":22931:22937   */\n      dup3\n        /* \"#utility.yul\":22927:22941   */\n      add\n        /* \"#utility.yul\":22920:22948   */\n      mstore\n        /* \"#utility.yul\":22803:22955   */\n      pop\n      jump\t// out\n        /* \"#utility.yul\":22961:23361   */\n    tag_456:\n        /* \"#utility.yul\":23121:23124   */\n      0x00\n        /* \"#utility.yul\":23142:23226   */\n      tag_668\n        /* \"#utility.yul\":23224:23225   */\n      0x02\n        /* \"#utility.yul\":23219:23222   */\n      dup4\n        /* \"#utility.yul\":23142:23226   */\n      tag_440\n      jump\t// in\n    tag_668:\n        /* \"#utility.yul\":23135:23226   */\n      swap2\n      pop\n        /* \"#utility.yul\":23235:23328   */\n      tag_669\n        /* \"#utility.yul\":23324:23327   */\n      dup3\n        /* \"#utility.yul\":23235:23328   */\n      tag_455\n      jump\t// in\n    tag_669:\n        /* \"#utility.yul\":23353:23354   */\n      0x02\n        /* \"#utility.yul\":23348:23351   */\n      dup3\n        /* \"#utility.yul\":23344:23355   */\n      add\n        /* \"#utility.yul\":23337:23355   */\n      swap1\n      pop\n        /* \"#utility.yul\":22961:23361   */\n      swap2\n      swap1\n      pop\n      jump\t// out\n        /* \"#utility.yul\":23367:23908   */\n    tag_318:\n        /* \"#utility.yul\":23600:23603   */\n      0x00\n        /* \"#utility.yul\":23622:23717   */\n      tag_671\n        /* \"#utility.yul\":23713:23716   */\n      dup3\n        /* \"#utility.yul\":23704:23710   */\n      dup5\n        /* \"#utility.yul\":23622:23717   */\n      tag_443\n      jump\t// in\n    tag_671:\n        /* \"#utility.yul\":23615:23717   */\n      swap2\n      pop\n        /* \"#utility.yul\":23734:23882   */\n      tag_672\n        /* \"#utility.yul\":23878:23881   */\n      dup3\n        /* \"#utility.yul\":23734:23882   */\n      tag_456\n      jump\t// in\n    tag_672:\n        /* \"#utility.yul\":23727:23882   */\n      swap2\n      pop\n        /* \"#utility.yul\":23899:23902   */\n      dup2\n        /* \"#utility.yul\":23892:23902   */\n      swap1\n      pop\n        /* \"#utility.yul\":23367:23908   */\n      swap3\n      swap2\n      pop\n      pop\n      jump\t// out\n        /* \"#utility.yul\":23914:24099   */\n    tag_332:\n        /* \"#utility.yul\":23954:23955   */\n      0x00\n        /* \"#utility.yul\":23971:23991   */\n      tag_674\n        /* \"#utility.yul\":23989:23990   */\n      dup3\n        /* \"#utility.yul\":23971:23991   */\n      tag_397\n      jump\t// in\n    tag_674:\n        /* \"#utility.yul\":23966:23991   */\n      swap2\n      pop\n        /* \"#utility.yul\":24005:24025   */\n      tag_675\n        /* \"#utility.yul\":24023:24024   */\n      dup4\n        /* \"#utility.yul\":24005:24025   */\n      tag_397\n      jump\t// in\n    tag_675:\n        /* \"#utility.yul\":24000:24025   */\n      swap3\n      pop\n        /* \"#utility.yul\":24044:24045   */\n      dup3\n        /* \"#utility.yul\":24034:24069   */\n      tag_676\n      jumpi\n        /* \"#utility.yul\":24049:24067   */\n      tag_677\n      tag_454\n      jump\t// in\n    tag_677:\n        /* \"#utility.yul\":24034:24069   */\n    tag_676:\n        /* \"#utility.yul\":24091:24092   */\n      dup3\n        /* \"#utility.yul\":24088:24089   */\n      dup3\n        /* \"#utility.yul\":24084:24093   */\n      div\n        /* \"#utility.yul\":24079:24093   */\n      swap1\n      pop\n        /* \"#utility.yul\":23914:24099   */\n      swap3\n      swap2\n      pop\n      pop\n      jump\t// out\n        /* \"#utility.yul\":24105:24281   */\n    tag_339:\n        /* \"#utility.yul\":24137:24138   */\n      0x00\n        /* \"#utility.yul\":24154:24174   */\n      tag_679\n        /* \"#utility.yul\":24172:24173   */\n      dup3\n        /* \"#utility.yul\":24154:24174   */\n      tag_397\n      jump\t// in\n    tag_679:\n        /* \"#utility.yul\":24149:24174   */\n      swap2\n      pop\n        /* \"#utility.yul\":24188:24208   */\n      tag_680\n        /* \"#utility.yul\":24206:24207   */\n      dup4\n        /* \"#utility.yul\":24188:24208   */\n      tag_397\n      jump\t// in\n    tag_680:\n        /* \"#utility.yul\":24183:24208   */\n      swap3\n      pop\n        /* \"#utility.yul\":24227:24228   */\n      dup3\n        /* \"#utility.yul\":24217:24252   */\n      tag_681\n      jumpi\n        /* \"#utility.yul\":24232:24250   */\n      tag_682\n      tag_454\n      jump\t// in\n    tag_682:\n        /* \"#utility.yul\":24217:24252   */\n    tag_681:\n        /* \"#utility.yul\":24273:24274   */\n      dup3\n        /* \"#utility.yul\":24270:24271   */\n      dup3\n        /* \"#utility.yul\":24266:24275   */\n      mod\n        /* \"#utility.yul\":24261:24275   */\n      swap1\n      pop\n        /* \"#utility.yul\":24105:24281   */\n      swap3\n      swap2\n      pop\n      pop\n      jump\t// out\n        /* \"#utility.yul\":24287:24458   */\n    tag_342:\n        /* \"#utility.yul\":24326:24329   */\n      0x00\n        /* \"#utility.yul\":24349:24373   */\n      tag_684\n        /* \"#utility.yul\":24367:24372   */\n      dup3\n        /* \"#utility.yul\":24349:24373   */\n      tag_397\n      jump\t// in\n    tag_684:\n        /* \"#utility.yul\":24340:24373   */\n      swap2\n      pop\n        /* \"#utility.yul\":24395:24399   */\n      0x00\n        /* \"#utility.yul\":24388:24393   */\n      dup3\n        /* \"#utility.yul\":24385:24400   */\n      sub\n        /* \"#utility.yul\":24382:24423   */\n      tag_685\n      jumpi\n        /* \"#utility.yul\":24403:24421   */\n      tag_686\n      tag_437\n      jump\t// in\n    tag_686:\n        /* \"#utility.yul\":24382:24423   */\n    tag_685:\n        /* \"#utility.yul\":24450:24451   */\n      0x01\n        /* \"#utility.yul\":24443:24448   */\n      dup3\n        /* \"#utility.yul\":24439:24452   */\n      sub\n        /* \"#utility.yul\":24432:24452   */\n      swap1\n      pop\n        /* \"#utility.yul\":24287:24458   */\n      swap2\n      swap1\n      pop\n      jump\t// out\n        /* \"#utility.yul\":24464:24543   */\n    tag_457:\n        /* \"#utility.yul\":24503:24510   */\n      0x00\n        /* \"#utility.yul\":24532:24537   */\n      dup2\n        /* \"#utility.yul\":24521:24537   */\n      swap1\n      pop\n        /* \"#utility.yul\":24464:24543   */\n      swap2\n      swap1\n      pop\n      jump\t// out\n        /* \"#utility.yul\":24549:24706   */\n    tag_458:\n        /* \"#utility.yul\":24654:24699   */\n      tag_689\n        /* \"#utility.yul\":24674:24698   */\n      tag_690\n        /* \"#utility.yul\":24692:24697   */\n      dup3\n        /* \"#utility.yul\":24674:24698   */\n      tag_397\n      jump\t// in\n    tag_690:\n        /* \"#utility.yul\":24654:24699   */\n      tag_457\n      jump\t// in\n    tag_689:\n        /* \"#utility.yul\":24649:24652   */\n      dup3\n        /* \"#utility.yul\":24642:24700   */\n      mstore\n        /* \"#utility.yul\":24549:24706   */\n      pop\n      pop\n      jump\t// out\n        /* \"#utility.yul\":24712:24789   */\n    tag_459:\n        /* \"#utility.yul\":24749:24756   */\n      0x00\n        /* \"#utility.yul\":24778:24783   */\n      dup2\n        /* \"#utility.yul\":24767:24783   */\n      swap1\n      pop\n        /* \"#utility.yul\":24712:24789   */\n      swap2\n      swap1\n      pop\n      jump\t// out\n        /* \"#utility.yul\":24795:24874   */\n    tag_460:\n        /* \"#utility.yul\":24834:24841   */\n      0x00\n        /* \"#utility.yul\":24863:24868   */\n      dup2\n        /* \"#utility.yul\":24852:24868   */\n      swap1\n      pop\n        /* \"#utility.yul\":24795:24874   */\n      swap2\n      swap1\n      pop\n      jump\t// out\n        /* \"#utility.yul\":24880:25037   */\n    tag_461:\n        /* \"#utility.yul\":24985:25030   */\n      tag_694\n        /* \"#utility.yul\":25005:25029   */\n      tag_695\n        /* \"#utility.yul\":25023:25028   */\n      dup3\n        /* \"#utility.yul\":25005:25029   */\n      tag_459\n      jump\t// in\n    tag_695:\n        /* \"#utility.yul\":24985:25030   */\n      tag_460\n      jump\t// in\n    tag_694:\n        /* \"#utility.yul\":24980:24983   */\n      dup3\n        /* \"#utility.yul\":24973:25031   */\n      mstore\n        /* \"#utility.yul\":24880:25037   */\n      pop\n      pop\n      jump\t// out\n        /* \"#utility.yul\":25043:25581   */\n    tag_349:\n        /* \"#utility.yul\":25211:25214   */\n      0x00\n        /* \"#utility.yul\":25226:25301   */\n      tag_697\n        /* \"#utility.yul\":25297:25300   */\n      dup3\n        /* \"#utility.yul\":25288:25294   */\n      dup7\n        /* \"#utility.yul\":25226:25301   */\n      tag_458\n      jump\t// in\n    tag_697:\n        /* \"#utility.yul\":25326:25328   */\n      0x20\n        /* \"#utility.yul\":25321:25324   */\n      dup3\n        /* \"#utility.yul\":25317:25329   */\n      add\n        /* \"#utility.yul\":25310:25329   */\n      swap2\n      pop\n        /* \"#utility.yul\":25339:25414   */\n      tag_698\n        /* \"#utility.yul\":25410:25413   */\n      dup3\n        /* \"#utility.yul\":25401:25407   */\n      dup6\n        /* \"#utility.yul\":25339:25414   */\n      tag_458\n      jump\t// in\n    tag_698:\n        /* \"#utility.yul\":25439:25441   */\n      0x20\n        /* \"#utility.yul\":25434:25437   */\n      dup3\n        /* \"#utility.yul\":25430:25442   */\n      add\n        /* \"#utility.yul\":25423:25442   */\n      swap2\n      pop\n        /* \"#utility.yul\":25452:25527   */\n      tag_699\n        /* \"#utility.yul\":25523:25526   */\n      dup3\n        /* \"#utility.yul\":25514:25520   */\n      dup5\n        /* \"#utility.yul\":25452:25527   */\n      tag_461\n      jump\t// in\n    tag_699:\n        /* \"#utility.yul\":25552:25554   */\n      0x20\n        /* \"#utility.yul\":25547:25550   */\n      dup3\n        /* \"#utility.yul\":25543:25555   */\n      add\n        /* \"#utility.yul\":25536:25555   */\n      swap2\n      pop\n        /* \"#utility.yul\":25572:25575   */\n      dup2\n        /* \"#utility.yul\":25565:25575   */\n      swap1\n      pop\n        /* \"#utility.yul\":25043:25581   */\n      swap5\n      swap4\n      pop\n      pop\n      pop\n      pop\n      jump\t// out\n        /* \"#utility.yul\":25587:25843   */\n    tag_367:\n        /* \"#utility.yul\":25699:25702   */\n      0x00\n        /* \"#utility.yul\":25714:25789   */\n      tag_701\n        /* \"#utility.yul\":25785:25788   */\n      dup3\n        /* \"#utility.yul\":25776:25782   */\n      dup5\n        /* \"#utility.yul\":25714:25789   */\n      tag_458\n      jump\t// in\n    tag_701:\n        /* \"#utility.yul\":25814:25816   */\n      0x20\n        /* \"#utility.yul\":25809:25812   */\n      dup3\n        /* \"#utility.yul\":25805:25817   */\n      add\n        /* \"#utility.yul\":25798:25817   */\n      swap2\n      pop\n        /* \"#utility.yul\":25834:25837   */\n      dup2\n        /* \"#utility.yul\":25827:25837   */\n      swap1\n      pop\n        /* \"#utility.yul\":25587:25843   */\n      swap3\n      swap2\n      pop\n      pop\n      jump\t// out\n\n    auxdata: 0xa264697066735822122092356d7c78705bc580c21643ca70e7eaea0dbddb0c690e795d74521b05083c6b64736f6c634300081a0033\n}\n",
				"bytecode": {
					"linkReferences": {},
					"object": "608060405261001261005760201b60201c565b3360045f6101000a81548173ffffffffffffffffffffffffffffffffffffffff021916908373ffffffffffffffffffffffffffffffffffffffff16021790555061016d565b5f8061006391906100cc565b5f600190505b60348160ff16116100c9575f81908060018154018082558091505060019003905f5260205f2090602091828204019190069091909190916101000a81548160ff021916908360ff16021790555080806100c190610145565b915050610069565b50565b5080545f8255601f0160209004905f5260205f20908101906100ee91906100f1565b50565b5b80821115610108575f815f9055506001016100f2565b5090565b7f4e487b71000000000000000000000000000000000000000000000000000000005f52601160045260245ffd5b5f60ff82169050919050565b5f61014f82610139565b915060ff82036101625761016161010c565b5b600182019050919050565b612a548061017a5f395ff3fe6080604052600436106100a6575f3560e01c806396b76c231161006357806396b76c23146101b7578063adda2c2e146101df578063b984354a1461021b578063d65ab5f214610245578063efaa55a01461025b578063f71d96cb14610277576100a6565b80632ae3594a146100aa578063302bcc57146100c057806333b16d93146100ea5780634fdd055b1461011557806370a88f841461015157806376cdb03b1461018d575b5f80fd5b3480156100b5575f80fd5b506100be6102b6565b005b3480156100cb575f80fd5b506100d4610594565b6040516100e19190611dad565b60405180910390f35b3480156100f5575f80fd5b506100fe61059a565b60405161010c929190611f1d565b60405180910390f35b348015610120575f80fd5b5061013b60048036038101906101369190611f80565b610b81565b6040516101489190611fc6565b60405180910390f35b34801561015c575f80fd5b5061017760048036038101906101729190611f80565b610bb2565b6040516101849190611fc6565b60405180910390f35b348015610198575f80fd5b506101a1610be3565b6040516101ae9190611fee565b60405180910390f35b3480156101c2575f80fd5b506101dd60048036038101906101d89190611f80565b610c08565b005b3480156101ea575f80fd5b5061020560048036038101906102009190611f80565b610cf4565b6040516102129190611fee565b60405180910390f35b348015610226575f80fd5b5061022f610d2f565b60405161023c919061210a565b60405180910390f35b348015610250575f80fd5b50610259610f7f565b005b61027560048036038101906102709190611f80565b611154565b005b348015610282575f80fd5b5061029d60048036038101906102989190611f80565b611353565b6040516102ad9493929190612144565b60405180910390f35b5f6102c0336113c6565b90507fffffffffffffffffffffffffffffffffffffffffffffffffffffffffffffffff8103610324576040517f08c379a000000000000000000000000000000000000000000000000000000000815260040161031b906121d1565b60405180910390fd5b60018181548110610338576103376121ef565b5b905f5260205f2090600402016003015f9054906101000a900460ff16610393576040517f08c379a000000000000000000000000000000000000000000000000000000000815260040161038a90612266565b60405180910390fd5b600181815481106103a7576103a66121ef565b5b905f5260205f20906004020160030160019054906101000a900460ff1615610404576040517f08c379a00000000000000000000000000000000000000000000000000000000081526004016103fb906122ce565b60405180910390fd5b5f61040d61148d565b905060018281548110610423576104226121ef565b5b905f5260205f20906004020160020181908060018154018082558091505060019003905f5260205f2090602091828204019190069091909190916101000a81548160ff021916908360ff16021790555060156105116001848154811061048c5761048b6121ef565b5b905f5260205f20906004020160020180548060200260200160405190810160405280929190818152602001828054801561050757602002820191905f5260205f20905f905b82829054906101000a900460ff1660ff16815260200190600101906020825f010492830192600103820291508084116104d15790505b5050505050611558565b60ff16111561059057600180838154811061052f5761052e6121ef565b5b905f5260205f20906004020160030160016101000a81548160ff0219169083151502179055505f6001838154811061056a576105696121ef565b5b905f5260205f2090600402016003015f6101000a81548160ff0219169083151502179055505b5050565b60025481565b6060805f610619600380548060200260200160405190810160405280929190818152602001828054801561060f57602002820191905f5260205f20905f905b82829054906101000a900460ff1660ff16815260200190600101906020825f010492830192600103820291508084116105d95790505b5050505050611558565b905060065f6106289190611b9f565b5b60118160ff16101561073d575f61063e61148d565b9050600381908060018154018082558091505060019003905f5260205f2090602091828204019190069091909190916101000a81548160ff021916908360ff1602179055506106fe60038054806020026020016040519081016040528092919081815260200182805480156106f457602002820191905f5260205f20905f905b82829054906101000a900460ff1660ff16815260200190600101906020825f010492830192600103820291508084116106be5790505b5050505050611558565b91507f74719e1845aac9a5b808b73f76f15e0ded61fd1f03fc0cd802e98e8e1d2299fe8160405161072f9190611fc6565b60405180910390a150610629565b6003600590805461074f929190611bbd565b505f61080260058054806020026020016040519081016040528092919081815260200182805480156107c257602002820191905f5260205f20905f905b82829054906101000a900460ff1660ff16815260200190600101906020825f0104928301926001038202915080841161078c5790505b50505050506040518060400160405280601081526020017f4c6173742042616e6b2048616e643a2000000000000000000000000000000000815250611632565b90505f5b600180549050811015610ae6575f6108b06001838154811061082b5761082a6121ef565b5b905f5260205f2090600402016002018054806020026020016040519081016040528092919081815260200182805480156108a657602002820191905f5260205f20905f905b82829054906101000a900460ff1660ff16815260200190600101906020825f010492830192600103820291508084116108705790505b5050505050611558565b9050600182815481106108c6576108c56121ef565b5b905f5260205f20906004020160030160019054906101000a900460ff1615801561090357508360ff168160ff161180610902575060158460ff16115b5b15610ad8576001828154811061091c5761091b6121ef565b5b905f5260205f2090600402015f015f9054906101000a900473ffffffffffffffffffffffffffffffffffffffff1673ffffffffffffffffffffffffffffffffffffffff166108fc600260018581548110610979576109786121ef565b5b905f5260205f209060040201600101546109939190612319565b90811502906040515f60405180830381858888f193505050501580156109bb573d5f803e3d5ffd5b506006600183815481106109d2576109d16121ef565b5b905f5260205f2090600402015f015f9054906101000a900473ffffffffffffffffffffffffffffffffffffffff16908060018154018082558091505060019003905f5260205f20015f9091909190916101000a81548173ffffffffffffffffffffffffffffffffffffffff021916908373ffffffffffffffffffffffffffffffffffffffff1602179055507fe9b0a743935d9854ac97b39452742c48f05e62b1ee44825328d7bc53901b03b160018381548110610a9257610a916121ef565b5b905f5260205f2090600402015f015f9054906101000a900473ffffffffffffffffffffffffffffffffffffffff1682604051610acf92919061235a565b60405180910390a15b508080600101915050610806565b50610aef611826565b80600680805480602002602001604051908101604052809291908181526020018280548015610b7057602002820191905f5260205f20905b815f9054906101000a900473ffffffffffffffffffffffffffffffffffffffff1673ffffffffffffffffffffffffffffffffffffffff1681526020019060010190808311610b27575b505050505090509350935050509091565b60058181548110610b90575f80fd5b905f5260205f209060209182820401919006915054906101000a900460ff1681565b60038181548110610bc1575f80fd5b905f5260205f209060209182820401919006915054906101000a900460ff1681565b60045f9054906101000a900473ffffffffffffffffffffffffffffffffffffffff1681565b60018181548110610c1c57610c1b6121ef565b5b905f5260205f2090600402015f015f9054906101000a900473ffffffffffffffffffffffffffffffffffffffff1673ffffffffffffffffffffffffffffffffffffffff163373ffffffffffffffffffffffffffffffffffffffff1614610cb7576040517f08c379a0000000000000000000000000000000000000000000000000000000008152600401610cae906123cb565b60405180910390fd5b5f60018281548110610ccc57610ccb6121ef565b5b905f5260205f2090600402016003015f6101000a81548160ff02191690831515021790555050565b60068181548110610d03575f80fd5b905f5260205f20015f915054906101000a900473ffffffffffffffffffffffffffffffffffffffff1681565b60605f60018080549050610d4391906123e9565b67ffffffffffffffff811115610d5c57610d5b61241c565b5b604051908082528060200260200182016040528015610d8f57816020015b6060815260200190600190039081610d7a5790505b509050610e436003805480602002602001604051908101604052809291908181526020018280548015610e0357602002820191905f5260205f20905f905b82829054906101000a900460ff1660ff16815260200190600101906020825f01049283019260010382029150808411610dcd5790505b50505050506040518060400160405280600681526020017f42616e6b3a200000000000000000000000000000000000000000000000000000815250611632565b815f81518110610e5657610e556121ef565b5b60200260200101819052505f5b600180549050811015610f7757610f4060018281548110610e8757610e866121ef565b5b905f5260205f209060040201600201805480602002602001604051908101604052809291908181526020018280548015610f0257602002820191905f5260205f20905f905b82829054906101000a900460ff1660ff16815260200190600101906020825f01049283019260010382029150808411610ecc5790505b5050505050610f1c600184610f1791906123e9565b611851565b604051602001610f2c9190612517565b604051602081830303815290604052611632565b82600183610f4e91906123e9565b81518110610f5f57610f5e6121ef565b5b60200260200101819052508080600101915050610e63565b508091505090565b5f60025411610fc3576040517f08c379a0000000000000000000000000000000000000000000000000000000008152600401610fba9061258d565b60405180910390fd5b610fcb6119af565b5f5b6001805490508110156110bd5760018181548110610fee57610fed6121ef565b5b905f5260205f20906004020160020161100561148d565b908060018154018082558091505060019003905f5260205f2090602091828204019190069091909190916101000a81548160ff021916908360ff16021790555060018181548110611059576110586121ef565b5b905f5260205f20906004020160020161107061148d565b908060018154018082558091505060019003905f5260205f2090602091828204019190069091909190916101000a81548160ff021916908360ff1602179055508080600101915050610fcd565b5060036110c861148d565b908060018154018082558091505060019003905f5260205f2090602091828204019190069091909190916101000a81548160ff021916908360ff160217905550600361111261148d565b908060018154018082558091505060019003905f5260205f2090602091828204019190069091909190916101000a81548160ff021916908360ff160217905550565b600460025410611199576040517f08c379a0000000000000000000000000000000000000000000000000000000008152600401611190906125f5565b60405180910390fd5b8034146111db576040517f08c379a00000000000000000000000000000000000000000000000000000000081526004016111d29061265d565b60405180910390fd5b60016040518060a001604052803373ffffffffffffffffffffffffffffffffffffffff1681526020018381526020015f67ffffffffffffffff8111156112245761122361241c565b5b6040519080825280602002602001820160405280156112525781602001602082028036833780820191505090505b5081526020016001151581526020015f1515815250908060018154018082558091505060019003905f5260205f2090600402015f909190919091505f820151815f015f6101000a81548173ffffffffffffffffffffffffffffffffffffffff021916908373ffffffffffffffffffffffffffffffffffffffff1602179055506020820151816001015560408201518160020190805190602001906112f7929190611c19565b506060820151816003015f6101000a81548160ff02191690831515021790555060808201518160030160016101000a81548160ff021916908315150217905550505060025f81548092919061134b9061267b565b919050555050565b60018181548110611362575f80fd5b905f5260205f2090600402015f91509050805f015f9054906101000a900473ffffffffffffffffffffffffffffffffffffffff1690806001015490806003015f9054906101000a900460ff16908060030160019054906101000a900460ff16905084565b5f805f90505b600180549050811015611463578273ffffffffffffffffffffffffffffffffffffffff1660018281548110611404576114036121ef565b5b905f5260205f2090600402015f015f9054906101000a900473ffffffffffffffffffffffffffffffffffffffff1673ffffffffffffffffffffffffffffffffffffffff16036114565780915050611488565b80806001019150506113cc565b507fffffffffffffffffffffffffffffffffffffffffffffffffffffffffffffffff90505b919050565b5f805f80549050116114d4576040517f08c379a00000000000000000000000000000000000000000000000000000000081526004016114cb9061270c565b60405180910390fd5b5f8060015f805490506114e7919061272a565b815481106114f8576114f76121ef565b5b905f5260205f2090602091828204019190069054906101000a900460ff1690505f8054806115295761152861275d565b5b600190038181905f5260205f2090602091828204019190066101000a81549060ff021916905590558091505090565b5f805f90505f805b84518110156115e9575f600d86838151811061157f5761157e6121ef565b5b602002602001015161159191906127b7565b90505f8160ff16036115a257600d90505b600a8160ff1611156115b357600a90505b60018160ff16036115cd5782806115c9906127e7565b9350505b80846115d9919061280f565b9350508080600101915050611560565b505b600b8260ff161115801561160157505f8160ff16115b1561162857600a82611613919061280f565b9150808061162090612843565b9150506115eb565b8192505050919050565b60605f8290505f5b845181101561181b575f600d868381518110611659576116586121ef565b5b602002602001015161166b91906127b7565b90505f8160ff160361167c57600d90505b606060018260ff16036116c6576040518060400160405280600181526020017f410000000000000000000000000000000000000000000000000000000000000081525090506117b0565b600b8260ff160361170e576040518060400160405280600181526020017f4a0000000000000000000000000000000000000000000000000000000000000081525090506117af565b600c8260ff1603611756576040518060400160405280600181526020017f510000000000000000000000000000000000000000000000000000000000000081525090506117ae565b600d8260ff160361179e576040518060400160405280600181526020017f4b0000000000000000000000000000000000000000000000000000000000000081525090506117ad565b6117aa8260ff16611851565b90505b5b5b5b83816040516020016117c392919061286a565b6040516020818303038152906040529350600187516117e2919061272a565b83101561180c57836040516020016117fa91906128d7565b60405160208183030381529060405293505b5050808060010191505061163a565b508091505092915050565b60015f6118339190611cbb565b60035f6118409190611cdc565b5f60028190555061184f611b2a565b565b60605f8203611897576040518060400160405280600181526020017f300000000000000000000000000000000000000000000000000000000000000081525090506119aa565b5f8290505f5b5f82146118c65780806118af9061267b565b915050600a826118bf91906128f8565b915061189d565b5f8167ffffffffffffffff8111156118e1576118e061241c565b5b6040519080825280601f01601f1916602001820160405280156119135781602001600182028036833780820191505090505b5090505f8290508593505b5f84146119a257600a846119329190612928565b603061193e91906123e9565b60f81b828261194c90612958565b925082815181106119605761195f6121ef565b5b60200101907effffffffffffffffffffffffffffffffffffffffffffffffffffffffffffff191690815f1a905350600a8461199b91906128f8565b935061191e565b819450505050505b919050565b5f42446001436119bf919061272a565b406040516020016119d2939291906129c8565b604051602081830303815290604052805190602001205f1c90505f5b5f80549050811015611b26575f808054905083611a0b9190612928565b90505f8181548110611a2057611a1f6121ef565b5b905f5260205f2090602091828204019190069054906101000a900460ff165f8381548110611a5157611a506121ef565b5b905f5260205f2090602091828204019190069054906101000a900460ff165f8481548110611a8257611a816121ef565b5b905f5260205f2090602091828204019190065f8581548110611aa757611aa66121ef565b5b905f5260205f2090602091828204019190068491906101000a81548160ff021916908360ff1602179055508391906101000a81548160ff021916908360ff160217905550505082604051602001611afe9190612a04565b604051602081830303815290604052805190602001205f1c92505080806001019150506119ee565b5050565b5f80611b369190611cdc565b5f600190505b60348160ff1611611b9c575f81908060018154018082558091505060019003905f5260205f2090602091828204019190069091909190916101000a81548160ff021916908360ff1602179055508080611b94906127e7565b915050611b3c565b50565b5080545f8255905f5260205f2090810190611bba9190611d01565b50565b828054828255905f5260205f2090601f01602090048101928215611c08575f5260205f2091601f016020900482015b82811115611c07578254825591600101919060010190611bec565b5b509050611c159190611d01565b5090565b828054828255905f5260205f2090601f01602090048101928215611caa579160200282015f5b83821115611c7c57835183826101000a81548160ff021916908360ff16021790555092602001926001016020815f01049283019260010302611c3f565b8015611ca85782816101000a81549060ff02191690556001016020815f01049283019260010302611c7c565b505b509050611cb79190611d01565b5090565b5080545f8255600402905f5260205f2090810190611cd99190611d1c565b50565b5080545f8255601f0160209004905f5260205f2090810190611cfe9190611d01565b50565b5b80821115611d18575f815f905550600101611d02565b5090565b5b80821115611d91575f8082015f6101000a81549073ffffffffffffffffffffffffffffffffffffffff0219169055600182015f9055600282015f611d619190611cdc565b600382015f6101000a81549060ff02191690556003820160016101000a81549060ff021916905550600401611d1d565b5090565b5f819050919050565b611da781611d95565b82525050565b5f602082019050611dc05f830184611d9e565b92915050565b5f81519050919050565b5f82825260208201905092915050565b8281835e5f83830152505050565b5f601f19601f8301169050919050565b5f611e0882611dc6565b611e128185611dd0565b9350611e22818560208601611de0565b611e2b81611dee565b840191505092915050565b5f81519050919050565b5f82825260208201905092915050565b5f819050602082019050919050565b5f73ffffffffffffffffffffffffffffffffffffffff82169050919050565b5f611e8882611e5f565b9050919050565b611e9881611e7e565b82525050565b5f611ea98383611e8f565b60208301905092915050565b5f602082019050919050565b5f611ecb82611e36565b611ed58185611e40565b9350611ee083611e50565b805f5b83811015611f10578151611ef78882611e9e565b9750611f0283611eb5565b925050600181019050611ee3565b5085935050505092915050565b5f6040820190508181035f830152611f358185611dfe565b90508181036020830152611f498184611ec1565b90509392505050565b5f80fd5b611f5f81611d95565b8114611f69575f80fd5b50565b5f81359050611f7a81611f56565b92915050565b5f60208284031215611f9557611f94611f52565b5b5f611fa284828501611f6c565b91505092915050565b5f60ff82169050919050565b611fc081611fab565b82525050565b5f602082019050611fd95f830184611fb7565b92915050565b611fe881611e7e565b82525050565b5f6020820190506120015f830184611fdf565b92915050565b5f81519050919050565b5f82825260208201905092915050565b5f819050602082019050919050565b5f82825260208201905092915050565b5f61204a82611dc6565b6120548185612030565b9350612064818560208601611de0565b61206d81611dee565b840191505092915050565b5f6120838383612040565b905092915050565b5f602082019050919050565b5f6120a182612007565b6120ab8185612011565b9350836020820285016120bd85612021565b805f5b858110156120f857848403895281516120d98582612078565b94506120e48361208b565b925060208a019950506001810190506120c0565b50829750879550505050505092915050565b5f6020820190508181035f8301526121228184612097565b905092915050565b5f8115159050919050565b61213e8161212a565b82525050565b5f6080820190506121575f830187611fdf565b6121646020830186611d9e565b6121716040830185612135565b61217e6060830184612135565b95945050505050565b7f596f7520617265206e6f74206120706c617965720000000000000000000000005f82015250565b5f6121bb601483611dd0565b91506121c682612187565b602082019050919050565b5f6020820190508181035f8301526121e8816121af565b9050919050565b7f4e487b71000000000000000000000000000000000000000000000000000000005f52603260045260245ffd5b7f506c61796572206973206e6f74206163746976650000000000000000000000005f82015250565b5f612250601483611dd0565b915061225b8261221c565b602082019050919050565b5f6020820190508181035f83015261227d81612244565b9050919050565b7f506c6179657220697320616c72656164792062757374656400000000000000005f82015250565b5f6122b8601883611dd0565b91506122c382612284565b602082019050919050565b5f6020820190508181035f8301526122e5816122ac565b9050919050565b7f4e487b71000000000000000000000000000000000000000000000000000000005f52601160045260245ffd5b5f61232382611d95565b915061232e83611d95565b925082820261233c81611d95565b91508282048414831517612353576123526122ec565b5b5092915050565b5f60408201905061236d5f830185611fdf565b61237a6020830184611fb7565b9392505050565b7f4e6f7420796f7572207475726e000000000000000000000000000000000000005f82015250565b5f6123b5600d83611dd0565b91506123c082612381565b602082019050919050565b5f6020820190508181035f8301526123e2816123a9565b9050919050565b5f6123f382611d95565b91506123fe83611d95565b9250828201905080821115612416576124156122ec565b5b92915050565b7f4e487b71000000000000000000000000000000000000000000000000000000005f52604160045260245ffd5b5f81905092915050565b7f506c6179657220000000000000000000000000000000000000000000000000005f82015250565b5f612487600783612449565b915061249282612453565b600782019050919050565b5f6124a782611dc6565b6124b18185612449565b93506124c1818560208601611de0565b80840191505092915050565b7f3a200000000000000000000000000000000000000000000000000000000000005f82015250565b5f612501600283612449565b915061250c826124cd565b600282019050919050565b5f6125218261247b565b915061252d828461249d565b9150612538826124f5565b915081905092915050565b7f4e6f20706c617965727320696e207468652067616d65000000000000000000005f82015250565b5f612577601683611dd0565b915061258282612543565b602082019050919050565b5f6020820190508181035f8301526125a48161256b565b9050919050565b7f4d6178203420706c617965727320616c6c6f77656400000000000000000000005f82015250565b5f6125df601583611dd0565b91506125ea826125ab565b602082019050919050565b5f6020820190508181035f83015261260c816125d3565b9050919050565b7f42657420616d6f756e74206d69736d61746368000000000000000000000000005f82015250565b5f612647601383611dd0565b915061265282612613565b602082019050919050565b5f6020820190508181035f8301526126748161263b565b9050919050565b5f61268582611d95565b91507fffffffffffffffffffffffffffffffffffffffffffffffffffffffffffffffff82036126b7576126b66122ec565b5b600182019050919050565b7f4e6f206361726473206c65667420696e20746865206465636b000000000000005f82015250565b5f6126f6601983611dd0565b9150612701826126c2565b602082019050919050565b5f6020820190508181035f830152612723816126ea565b9050919050565b5f61273482611d95565b915061273f83611d95565b9250828203905081811115612757576127566122ec565b5b92915050565b7f4e487b71000000000000000000000000000000000000000000000000000000005f52603160045260245ffd5b7f4e487b71000000000000000000000000000000000000000000000000000000005f52601260045260245ffd5b5f6127c182611fab565b91506127cc83611fab565b9250826127dc576127db61278a565b5b828206905092915050565b5f6127f182611fab565b915060ff8203612804576128036122ec565b5b600182019050919050565b5f61281982611fab565b915061282483611fab565b9250828201905060ff81111561283d5761283c6122ec565b5b92915050565b5f61284d82611fab565b91505f820361285f5761285e6122ec565b5b600182039050919050565b5f612875828561249d565b9150612881828461249d565b91508190509392505050565b7f2c200000000000000000000000000000000000000000000000000000000000005f82015250565b5f6128c1600283612449565b91506128cc8261288d565b600282019050919050565b5f6128e2828461249d565b91506128ed826128b5565b915081905092915050565b5f61290282611d95565b915061290d83611d95565b92508261291d5761291c61278a565b5b828204905092915050565b5f61293282611d95565b915061293d83611d95565b92508261294d5761294c61278a565b5b828206905092915050565b5f61296282611d95565b91505f8203612974576129736122ec565b5b600182039050919050565b5f819050919050565b61299961299482611d95565b61297f565b82525050565b5f819050919050565b5f819050919050565b6129c26129bd8261299f565b6129a8565b82525050565b5f6129d38286612988565b6020820191506129e38285612988565b6020820191506129f382846129b1565b602082019150819050949350505050565b5f612a0f8284612988565b6020820191508190509291505056fea264697066735822122092356d7c78705bc580c21643ca70e7eaea0dbddb0c690e795d74521b05083c6b64736f6c634300081a0033",
					"opcodes": "PUSH1 0x80 PUSH1 0x40 MSTORE PUSH2 0x12 PUSH2 0x57 PUSH1 0x20 SHL PUSH1 0x20 SHR JUMP JUMPDEST CALLER PUSH1 0x4 PUSH0 PUSH2 0x100 EXP DUP2 SLOAD DUP2 PUSH20 0xFFFFFFFFFFFFFFFFFFFFFFFFFFFFFFFFFFFFFFFF MUL NOT AND SWAP1 DUP4 PUSH20 0xFFFFFFFFFFFFFFFFFFFFFFFFFFFFFFFFFFFFFFFF AND MUL OR SWAP1 SSTORE POP PUSH2 0x16D JUMP JUMPDEST PUSH0 DUP1 PUSH2 0x63 SWAP2 SWAP1 PUSH2 0xCC JUMP JUMPDEST PUSH0 PUSH1 0x1 SWAP1 POP JUMPDEST PUSH1 0x34 DUP2 PUSH1 0xFF AND GT PUSH2 0xC9 JUMPI PUSH0 DUP2 SWAP1 DUP1 PUSH1 0x1 DUP2 SLOAD ADD DUP1 DUP3 SSTORE DUP1 SWAP2 POP POP PUSH1 0x1 SWAP1 SUB SWAP1 PUSH0 MSTORE PUSH1 0x20 PUSH0 KECCAK256 SWAP1 PUSH1 0x20 SWAP2 DUP3 DUP3 DIV ADD SWAP2 SWAP1 MOD SWAP1 SWAP2 SWAP1 SWAP2 SWAP1 SWAP2 PUSH2 0x100 EXP DUP2 SLOAD DUP2 PUSH1 0xFF MUL NOT AND SWAP1 DUP4 PUSH1 0xFF AND MUL OR SWAP1 SSTORE POP DUP1 DUP1 PUSH2 0xC1 SWAP1 PUSH2 0x145 JUMP JUMPDEST SWAP2 POP POP PUSH2 0x69 JUMP JUMPDEST POP JUMP JUMPDEST POP DUP1 SLOAD PUSH0 DUP3 SSTORE PUSH1 0x1F ADD PUSH1 0x20 SWAP1 DIV SWAP1 PUSH0 MSTORE PUSH1 0x20 PUSH0 KECCAK256 SWAP1 DUP2 ADD SWAP1 PUSH2 0xEE SWAP2 SWAP1 PUSH2 0xF1 JUMP JUMPDEST POP JUMP JUMPDEST JUMPDEST DUP1 DUP3 GT ISZERO PUSH2 0x108 JUMPI PUSH0 DUP2 PUSH0 SWAP1 SSTORE POP PUSH1 0x1 ADD PUSH2 0xF2 JUMP JUMPDEST POP SWAP1 JUMP JUMPDEST PUSH32 0x4E487B7100000000000000000000000000000000000000000000000000000000 PUSH0 MSTORE PUSH1 0x11 PUSH1 0x4 MSTORE PUSH1 0x24 PUSH0 REVERT JUMPDEST PUSH0 PUSH1 0xFF DUP3 AND SWAP1 POP SWAP2 SWAP1 POP JUMP JUMPDEST PUSH0 PUSH2 0x14F DUP3 PUSH2 0x139 JUMP JUMPDEST SWAP2 POP PUSH1 0xFF DUP3 SUB PUSH2 0x162 JUMPI PUSH2 0x161 PUSH2 0x10C JUMP JUMPDEST JUMPDEST PUSH1 0x1 DUP3 ADD SWAP1 POP SWAP2 SWAP1 POP JUMP JUMPDEST PUSH2 0x2A54 DUP1 PUSH2 0x17A PUSH0 CODECOPY PUSH0 RETURN INVALID PUSH1 0x80 PUSH1 0x40 MSTORE PUSH1 0x4 CALLDATASIZE LT PUSH2 0xA6 JUMPI PUSH0 CALLDATALOAD PUSH1 0xE0 SHR DUP1 PUSH4 0x96B76C23 GT PUSH2 0x63 JUMPI DUP1 PUSH4 0x96B76C23 EQ PUSH2 0x1B7 JUMPI DUP1 PUSH4 0xADDA2C2E EQ PUSH2 0x1DF JUMPI DUP1 PUSH4 0xB984354A EQ PUSH2 0x21B JUMPI DUP1 PUSH4 0xD65AB5F2 EQ PUSH2 0x245 JUMPI DUP1 PUSH4 0xEFAA55A0 EQ PUSH2 0x25B JUMPI DUP1 PUSH4 0xF71D96CB EQ PUSH2 0x277 JUMPI PUSH2 0xA6 JUMP JUMPDEST DUP1 PUSH4 0x2AE3594A EQ PUSH2 0xAA JUMPI DUP1 PUSH4 0x302BCC57 EQ PUSH2 0xC0 JUMPI DUP1 PUSH4 0x33B16D93 EQ PUSH2 0xEA JUMPI DUP1 PUSH4 0x4FDD055B EQ PUSH2 0x115 JUMPI DUP1 PUSH4 0x70A88F84 EQ PUSH2 0x151 JUMPI DUP1 PUSH4 0x76CDB03B EQ PUSH2 0x18D JUMPI JUMPDEST PUSH0 DUP1 REVERT JUMPDEST CALLVALUE DUP1 ISZERO PUSH2 0xB5 JUMPI PUSH0 DUP1 REVERT JUMPDEST POP PUSH2 0xBE PUSH2 0x2B6 JUMP JUMPDEST STOP JUMPDEST CALLVALUE DUP1 ISZERO PUSH2 0xCB JUMPI PUSH0 DUP1 REVERT JUMPDEST POP PUSH2 0xD4 PUSH2 0x594 JUMP JUMPDEST PUSH1 0x40 MLOAD PUSH2 0xE1 SWAP2 SWAP1 PUSH2 0x1DAD JUMP JUMPDEST PUSH1 0x40 MLOAD DUP1 SWAP2 SUB SWAP1 RETURN JUMPDEST CALLVALUE DUP1 ISZERO PUSH2 0xF5 JUMPI PUSH0 DUP1 REVERT JUMPDEST POP PUSH2 0xFE PUSH2 0x59A JUMP JUMPDEST PUSH1 0x40 MLOAD PUSH2 0x10C SWAP3 SWAP2 SWAP1 PUSH2 0x1F1D JUMP JUMPDEST PUSH1 0x40 MLOAD DUP1 SWAP2 SUB SWAP1 RETURN JUMPDEST CALLVALUE DUP1 ISZERO PUSH2 0x120 JUMPI PUSH0 DUP1 REVERT JUMPDEST POP PUSH2 0x13B PUSH1 0x4 DUP1 CALLDATASIZE SUB DUP2 ADD SWAP1 PUSH2 0x136 SWAP2 SWAP1 PUSH2 0x1F80 JUMP JUMPDEST PUSH2 0xB81 JUMP JUMPDEST PUSH1 0x40 MLOAD PUSH2 0x148 SWAP2 SWAP1 PUSH2 0x1FC6 JUMP JUMPDEST PUSH1 0x40 MLOAD DUP1 SWAP2 SUB SWAP1 RETURN JUMPDEST CALLVALUE DUP1 ISZERO PUSH2 0x15C JUMPI PUSH0 DUP1 REVERT JUMPDEST POP PUSH2 0x177 PUSH1 0x4 DUP1 CALLDATASIZE SUB DUP2 ADD SWAP1 PUSH2 0x172 SWAP2 SWAP1 PUSH2 0x1F80 JUMP JUMPDEST PUSH2 0xBB2 JUMP JUMPDEST PUSH1 0x40 MLOAD PUSH2 0x184 SWAP2 SWAP1 PUSH2 0x1FC6 JUMP JUMPDEST PUSH1 0x40 MLOAD DUP1 SWAP2 SUB SWAP1 RETURN JUMPDEST CALLVALUE DUP1 ISZERO PUSH2 0x198 JUMPI PUSH0 DUP1 REVERT JUMPDEST POP PUSH2 0x1A1 PUSH2 0xBE3 JUMP JUMPDEST PUSH1 0x40 MLOAD PUSH2 0x1AE SWAP2 SWAP1 PUSH2 0x1FEE JUMP JUMPDEST PUSH1 0x40 MLOAD DUP1 SWAP2 SUB SWAP1 RETURN JUMPDEST CALLVALUE DUP1 ISZERO PUSH2 0x1C2 JUMPI PUSH0 DUP1 REVERT JUMPDEST POP PUSH2 0x1DD PUSH1 0x4 DUP1 CALLDATASIZE SUB DUP2 ADD SWAP1 PUSH2 0x1D8 SWAP2 SWAP1 PUSH2 0x1F80 JUMP JUMPDEST PUSH2 0xC08 JUMP JUMPDEST STOP JUMPDEST CALLVALUE DUP1 ISZERO PUSH2 0x1EA JUMPI PUSH0 DUP1 REVERT JUMPDEST POP PUSH2 0x205 PUSH1 0x4 DUP1 CALLDATASIZE SUB DUP2 ADD SWAP1 PUSH2 0x200 SWAP2 SWAP1 PUSH2 0x1F80 JUMP JUMPDEST PUSH2 0xCF4 JUMP JUMPDEST PUSH1 0x40 MLOAD PUSH2 0x212 SWAP2 SWAP1 PUSH2 0x1FEE JUMP JUMPDEST PUSH1 0x40 MLOAD DUP1 SWAP2 SUB SWAP1 RETURN JUMPDEST CALLVALUE DUP1 ISZERO PUSH2 0x226 JUMPI PUSH0 DUP1 REVERT JUMPDEST POP PUSH2 0x22F PUSH2 0xD2F JUMP JUMPDEST PUSH1 0x40 MLOAD PUSH2 0x23C SWAP2 SWAP1 PUSH2 0x210A JUMP JUMPDEST PUSH1 0x40 MLOAD DUP1 SWAP2 SUB SWAP1 RETURN JUMPDEST CALLVALUE DUP1 ISZERO PUSH2 0x250 JUMPI PUSH0 DUP1 REVERT JUMPDEST POP PUSH2 0x259 PUSH2 0xF7F JUMP JUMPDEST STOP JUMPDEST PUSH2 0x275 PUSH1 0x4 DUP1 CALLDATASIZE SUB DUP2 ADD SWAP1 PUSH2 0x270 SWAP2 SWAP1 PUSH2 0x1F80 JUMP JUMPDEST PUSH2 0x1154 JUMP JUMPDEST STOP JUMPDEST CALLVALUE DUP1 ISZERO PUSH2 0x282 JUMPI PUSH0 DUP1 REVERT JUMPDEST POP PUSH2 0x29D PUSH1 0x4 DUP1 CALLDATASIZE SUB DUP2 ADD SWAP1 PUSH2 0x298 SWAP2 SWAP1 PUSH2 0x1F80 JUMP JUMPDEST PUSH2 0x1353 JUMP JUMPDEST PUSH1 0x40 MLOAD PUSH2 0x2AD SWAP5 SWAP4 SWAP3 SWAP2 SWAP1 PUSH2 0x2144 JUMP JUMPDEST PUSH1 0x40 MLOAD DUP1 SWAP2 SUB SWAP1 RETURN JUMPDEST PUSH0 PUSH2 0x2C0 CALLER PUSH2 0x13C6 JUMP JUMPDEST SWAP1 POP PUSH32 0xFFFFFFFFFFFFFFFFFFFFFFFFFFFFFFFFFFFFFFFFFFFFFFFFFFFFFFFFFFFFFFFF DUP2 SUB PUSH2 0x324 JUMPI PUSH1 0x40 MLOAD PUSH32 0x8C379A000000000000000000000000000000000000000000000000000000000 DUP2 MSTORE PUSH1 0x4 ADD PUSH2 0x31B SWAP1 PUSH2 0x21D1 JUMP JUMPDEST PUSH1 0x40 MLOAD DUP1 SWAP2 SUB SWAP1 REVERT JUMPDEST PUSH1 0x1 DUP2 DUP2 SLOAD DUP2 LT PUSH2 0x338 JUMPI PUSH2 0x337 PUSH2 0x21EF JUMP JUMPDEST JUMPDEST SWAP1 PUSH0 MSTORE PUSH1 0x20 PUSH0 KECCAK256 SWAP1 PUSH1 0x4 MUL ADD PUSH1 0x3 ADD PUSH0 SWAP1 SLOAD SWAP1 PUSH2 0x100 EXP SWAP1 DIV PUSH1 0xFF AND PUSH2 0x393 JUMPI PUSH1 0x40 MLOAD PUSH32 0x8C379A000000000000000000000000000000000000000000000000000000000 DUP2 MSTORE PUSH1 0x4 ADD PUSH2 0x38A SWAP1 PUSH2 0x2266 JUMP JUMPDEST PUSH1 0x40 MLOAD DUP1 SWAP2 SUB SWAP1 REVERT JUMPDEST PUSH1 0x1 DUP2 DUP2 SLOAD DUP2 LT PUSH2 0x3A7 JUMPI PUSH2 0x3A6 PUSH2 0x21EF JUMP JUMPDEST JUMPDEST SWAP1 PUSH0 MSTORE PUSH1 0x20 PUSH0 KECCAK256 SWAP1 PUSH1 0x4 MUL ADD PUSH1 0x3 ADD PUSH1 0x1 SWAP1 SLOAD SWAP1 PUSH2 0x100 EXP SWAP1 DIV PUSH1 0xFF AND ISZERO PUSH2 0x404 JUMPI PUSH1 0x40 MLOAD PUSH32 0x8C379A000000000000000000000000000000000000000000000000000000000 DUP2 MSTORE PUSH1 0x4 ADD PUSH2 0x3FB SWAP1 PUSH2 0x22CE JUMP JUMPDEST PUSH1 0x40 MLOAD DUP1 SWAP2 SUB SWAP1 REVERT JUMPDEST PUSH0 PUSH2 0x40D PUSH2 0x148D JUMP JUMPDEST SWAP1 POP PUSH1 0x1 DUP3 DUP2 SLOAD DUP2 LT PUSH2 0x423 JUMPI PUSH2 0x422 PUSH2 0x21EF JUMP JUMPDEST JUMPDEST SWAP1 PUSH0 MSTORE PUSH1 0x20 PUSH0 KECCAK256 SWAP1 PUSH1 0x4 MUL ADD PUSH1 0x2 ADD DUP2 SWAP1 DUP1 PUSH1 0x1 DUP2 SLOAD ADD DUP1 DUP3 SSTORE DUP1 SWAP2 POP POP PUSH1 0x1 SWAP1 SUB SWAP1 PUSH0 MSTORE PUSH1 0x20 PUSH0 KECCAK256 SWAP1 PUSH1 0x20 SWAP2 DUP3 DUP3 DIV ADD SWAP2 SWAP1 MOD SWAP1 SWAP2 SWAP1 SWAP2 SWAP1 SWAP2 PUSH2 0x100 EXP DUP2 SLOAD DUP2 PUSH1 0xFF MUL NOT AND SWAP1 DUP4 PUSH1 0xFF AND MUL OR SWAP1 SSTORE POP PUSH1 0x15 PUSH2 0x511 PUSH1 0x1 DUP5 DUP2 SLOAD DUP2 LT PUSH2 0x48C JUMPI PUSH2 0x48B PUSH2 0x21EF JUMP JUMPDEST JUMPDEST SWAP1 PUSH0 MSTORE PUSH1 0x20 PUSH0 KECCAK256 SWAP1 PUSH1 0x4 MUL ADD PUSH1 0x2 ADD DUP1 SLOAD DUP1 PUSH1 0x20 MUL PUSH1 0x20 ADD PUSH1 0x40 MLOAD SWAP1 DUP2 ADD PUSH1 0x40 MSTORE DUP1 SWAP3 SWAP2 SWAP1 DUP2 DUP2 MSTORE PUSH1 0x20 ADD DUP3 DUP1 SLOAD DUP1 ISZERO PUSH2 0x507 JUMPI PUSH1 0x20 MUL DUP3 ADD SWAP2 SWAP1 PUSH0 MSTORE PUSH1 0x20 PUSH0 KECCAK256 SWAP1 PUSH0 SWAP1 JUMPDEST DUP3 DUP3 SWAP1 SLOAD SWAP1 PUSH2 0x100 EXP SWAP1 DIV PUSH1 0xFF AND PUSH1 0xFF AND DUP2 MSTORE PUSH1 0x20 ADD SWAP1 PUSH1 0x1 ADD SWAP1 PUSH1 0x20 DUP3 PUSH0 ADD DIV SWAP3 DUP4 ADD SWAP3 PUSH1 0x1 SUB DUP3 MUL SWAP2 POP DUP1 DUP5 GT PUSH2 0x4D1 JUMPI SWAP1 POP JUMPDEST POP POP POP POP POP PUSH2 0x1558 JUMP JUMPDEST PUSH1 0xFF AND GT ISZERO PUSH2 0x590 JUMPI PUSH1 0x1 DUP1 DUP4 DUP2 SLOAD DUP2 LT PUSH2 0x52F JUMPI PUSH2 0x52E PUSH2 0x21EF JUMP JUMPDEST JUMPDEST SWAP1 PUSH0 MSTORE PUSH1 0x20 PUSH0 KECCAK256 SWAP1 PUSH1 0x4 MUL ADD PUSH1 0x3 ADD PUSH1 0x1 PUSH2 0x100 EXP DUP2 SLOAD DUP2 PUSH1 0xFF MUL NOT AND SWAP1 DUP4 ISZERO ISZERO MUL OR SWAP1 SSTORE POP PUSH0 PUSH1 0x1 DUP4 DUP2 SLOAD DUP2 LT PUSH2 0x56A JUMPI PUSH2 0x569 PUSH2 0x21EF JUMP JUMPDEST JUMPDEST SWAP1 PUSH0 MSTORE PUSH1 0x20 PUSH0 KECCAK256 SWAP1 PUSH1 0x4 MUL ADD PUSH1 0x3 ADD PUSH0 PUSH2 0x100 EXP DUP2 SLOAD DUP2 PUSH1 0xFF MUL NOT AND SWAP1 DUP4 ISZERO ISZERO MUL OR SWAP1 SSTORE POP JUMPDEST POP POP JUMP JUMPDEST PUSH1 0x2 SLOAD DUP2 JUMP JUMPDEST PUSH1 0x60 DUP1 PUSH0 PUSH2 0x619 PUSH1 0x3 DUP1 SLOAD DUP1 PUSH1 0x20 MUL PUSH1 0x20 ADD PUSH1 0x40 MLOAD SWAP1 DUP2 ADD PUSH1 0x40 MSTORE DUP1 SWAP3 SWAP2 SWAP1 DUP2 DUP2 MSTORE PUSH1 0x20 ADD DUP3 DUP1 SLOAD DUP1 ISZERO PUSH2 0x60F JUMPI PUSH1 0x20 MUL DUP3 ADD SWAP2 SWAP1 PUSH0 MSTORE PUSH1 0x20 PUSH0 KECCAK256 SWAP1 PUSH0 SWAP1 JUMPDEST DUP3 DUP3 SWAP1 SLOAD SWAP1 PUSH2 0x100 EXP SWAP1 DIV PUSH1 0xFF AND PUSH1 0xFF AND DUP2 MSTORE PUSH1 0x20 ADD SWAP1 PUSH1 0x1 ADD SWAP1 PUSH1 0x20 DUP3 PUSH0 ADD DIV SWAP3 DUP4 ADD SWAP3 PUSH1 0x1 SUB DUP3 MUL SWAP2 POP DUP1 DUP5 GT PUSH2 0x5D9 JUMPI SWAP1 POP JUMPDEST POP POP POP POP POP PUSH2 0x1558 JUMP JUMPDEST SWAP1 POP PUSH1 0x6 PUSH0 PUSH2 0x628 SWAP2 SWAP1 PUSH2 0x1B9F JUMP JUMPDEST JUMPDEST PUSH1 0x11 DUP2 PUSH1 0xFF AND LT ISZERO PUSH2 0x73D JUMPI PUSH0 PUSH2 0x63E PUSH2 0x148D JUMP JUMPDEST SWAP1 POP PUSH1 0x3 DUP2 SWAP1 DUP1 PUSH1 0x1 DUP2 SLOAD ADD DUP1 DUP3 SSTORE DUP1 SWAP2 POP POP PUSH1 0x1 SWAP1 SUB SWAP1 PUSH0 MSTORE PUSH1 0x20 PUSH0 KECCAK256 SWAP1 PUSH1 0x20 SWAP2 DUP3 DUP3 DIV ADD SWAP2 SWAP1 MOD SWAP1 SWAP2 SWAP1 SWAP2 SWAP1 SWAP2 PUSH2 0x100 EXP DUP2 SLOAD DUP2 PUSH1 0xFF MUL NOT AND SWAP1 DUP4 PUSH1 0xFF AND MUL OR SWAP1 SSTORE POP PUSH2 0x6FE PUSH1 0x3 DUP1 SLOAD DUP1 PUSH1 0x20 MUL PUSH1 0x20 ADD PUSH1 0x40 MLOAD SWAP1 DUP2 ADD PUSH1 0x40 MSTORE DUP1 SWAP3 SWAP2 SWAP1 DUP2 DUP2 MSTORE PUSH1 0x20 ADD DUP3 DUP1 SLOAD DUP1 ISZERO PUSH2 0x6F4 JUMPI PUSH1 0x20 MUL DUP3 ADD SWAP2 SWAP1 PUSH0 MSTORE PUSH1 0x20 PUSH0 KECCAK256 SWAP1 PUSH0 SWAP1 JUMPDEST DUP3 DUP3 SWAP1 SLOAD SWAP1 PUSH2 0x100 EXP SWAP1 DIV PUSH1 0xFF AND PUSH1 0xFF AND DUP2 MSTORE PUSH1 0x20 ADD SWAP1 PUSH1 0x1 ADD SWAP1 PUSH1 0x20 DUP3 PUSH0 ADD DIV SWAP3 DUP4 ADD SWAP3 PUSH1 0x1 SUB DUP3 MUL SWAP2 POP DUP1 DUP5 GT PUSH2 0x6BE JUMPI SWAP1 POP JUMPDEST POP POP POP POP POP PUSH2 0x1558 JUMP JUMPDEST SWAP2 POP PUSH32 0x74719E1845AAC9A5B808B73F76F15E0DED61FD1F03FC0CD802E98E8E1D2299FE DUP2 PUSH1 0x40 MLOAD PUSH2 0x72F SWAP2 SWAP1 PUSH2 0x1FC6 JUMP JUMPDEST PUSH1 0x40 MLOAD DUP1 SWAP2 SUB SWAP1 LOG1 POP PUSH2 0x629 JUMP JUMPDEST PUSH1 0x3 PUSH1 0x5 SWAP1 DUP1 SLOAD PUSH2 0x74F SWAP3 SWAP2 SWAP1 PUSH2 0x1BBD JUMP JUMPDEST POP PUSH0 PUSH2 0x802 PUSH1 0x5 DUP1 SLOAD DUP1 PUSH1 0x20 MUL PUSH1 0x20 ADD PUSH1 0x40 MLOAD SWAP1 DUP2 ADD PUSH1 0x40 MSTORE DUP1 SWAP3 SWAP2 SWAP1 DUP2 DUP2 MSTORE PUSH1 0x20 ADD DUP3 DUP1 SLOAD DUP1 ISZERO PUSH2 0x7C2 JUMPI PUSH1 0x20 MUL DUP3 ADD SWAP2 SWAP1 PUSH0 MSTORE PUSH1 0x20 PUSH0 KECCAK256 SWAP1 PUSH0 SWAP1 JUMPDEST DUP3 DUP3 SWAP1 SLOAD SWAP1 PUSH2 0x100 EXP SWAP1 DIV PUSH1 0xFF AND PUSH1 0xFF AND DUP2 MSTORE PUSH1 0x20 ADD SWAP1 PUSH1 0x1 ADD SWAP1 PUSH1 0x20 DUP3 PUSH0 ADD DIV SWAP3 DUP4 ADD SWAP3 PUSH1 0x1 SUB DUP3 MUL SWAP2 POP DUP1 DUP5 GT PUSH2 0x78C JUMPI SWAP1 POP JUMPDEST POP POP POP POP POP PUSH1 0x40 MLOAD DUP1 PUSH1 0x40 ADD PUSH1 0x40 MSTORE DUP1 PUSH1 0x10 DUP2 MSTORE PUSH1 0x20 ADD PUSH32 0x4C6173742042616E6B2048616E643A2000000000000000000000000000000000 DUP2 MSTORE POP PUSH2 0x1632 JUMP JUMPDEST SWAP1 POP PUSH0 JUMPDEST PUSH1 0x1 DUP1 SLOAD SWAP1 POP DUP2 LT ISZERO PUSH2 0xAE6 JUMPI PUSH0 PUSH2 0x8B0 PUSH1 0x1 DUP4 DUP2 SLOAD DUP2 LT PUSH2 0x82B JUMPI PUSH2 0x82A PUSH2 0x21EF JUMP JUMPDEST JUMPDEST SWAP1 PUSH0 MSTORE PUSH1 0x20 PUSH0 KECCAK256 SWAP1 PUSH1 0x4 MUL ADD PUSH1 0x2 ADD DUP1 SLOAD DUP1 PUSH1 0x20 MUL PUSH1 0x20 ADD PUSH1 0x40 MLOAD SWAP1 DUP2 ADD PUSH1 0x40 MSTORE DUP1 SWAP3 SWAP2 SWAP1 DUP2 DUP2 MSTORE PUSH1 0x20 ADD DUP3 DUP1 SLOAD DUP1 ISZERO PUSH2 0x8A6 JUMPI PUSH1 0x20 MUL DUP3 ADD SWAP2 SWAP1 PUSH0 MSTORE PUSH1 0x20 PUSH0 KECCAK256 SWAP1 PUSH0 SWAP1 JUMPDEST DUP3 DUP3 SWAP1 SLOAD SWAP1 PUSH2 0x100 EXP SWAP1 DIV PUSH1 0xFF AND PUSH1 0xFF AND DUP2 MSTORE PUSH1 0x20 ADD SWAP1 PUSH1 0x1 ADD SWAP1 PUSH1 0x20 DUP3 PUSH0 ADD DIV SWAP3 DUP4 ADD SWAP3 PUSH1 0x1 SUB DUP3 MUL SWAP2 POP DUP1 DUP5 GT PUSH2 0x870 JUMPI SWAP1 POP JUMPDEST POP POP POP POP POP PUSH2 0x1558 JUMP JUMPDEST SWAP1 POP PUSH1 0x1 DUP3 DUP2 SLOAD DUP2 LT PUSH2 0x8C6 JUMPI PUSH2 0x8C5 PUSH2 0x21EF JUMP JUMPDEST JUMPDEST SWAP1 PUSH0 MSTORE PUSH1 0x20 PUSH0 KECCAK256 SWAP1 PUSH1 0x4 MUL ADD PUSH1 0x3 ADD PUSH1 0x1 SWAP1 SLOAD SWAP1 PUSH2 0x100 EXP SWAP1 DIV PUSH1 0xFF AND ISZERO DUP1 ISZERO PUSH2 0x903 JUMPI POP DUP4 PUSH1 0xFF AND DUP2 PUSH1 0xFF AND GT DUP1 PUSH2 0x902 JUMPI POP PUSH1 0x15 DUP5 PUSH1 0xFF AND GT JUMPDEST JUMPDEST ISZERO PUSH2 0xAD8 JUMPI PUSH1 0x1 DUP3 DUP2 SLOAD DUP2 LT PUSH2 0x91C JUMPI PUSH2 0x91B PUSH2 0x21EF JUMP JUMPDEST JUMPDEST SWAP1 PUSH0 MSTORE PUSH1 0x20 PUSH0 KECCAK256 SWAP1 PUSH1 0x4 MUL ADD PUSH0 ADD PUSH0 SWAP1 SLOAD SWAP1 PUSH2 0x100 EXP SWAP1 DIV PUSH20 0xFFFFFFFFFFFFFFFFFFFFFFFFFFFFFFFFFFFFFFFF AND PUSH20 0xFFFFFFFFFFFFFFFFFFFFFFFFFFFFFFFFFFFFFFFF AND PUSH2 0x8FC PUSH1 0x2 PUSH1 0x1 DUP6 DUP2 SLOAD DUP2 LT PUSH2 0x979 JUMPI PUSH2 0x978 PUSH2 0x21EF JUMP JUMPDEST JUMPDEST SWAP1 PUSH0 MSTORE PUSH1 0x20 PUSH0 KECCAK256 SWAP1 PUSH1 0x4 MUL ADD PUSH1 0x1 ADD SLOAD PUSH2 0x993 SWAP2 SWAP1 PUSH2 0x2319 JUMP JUMPDEST SWAP1 DUP2 ISZERO MUL SWAP1 PUSH1 0x40 MLOAD PUSH0 PUSH1 0x40 MLOAD DUP1 DUP4 SUB DUP2 DUP6 DUP9 DUP9 CALL SWAP4 POP POP POP POP ISZERO DUP1 ISZERO PUSH2 0x9BB JUMPI RETURNDATASIZE PUSH0 DUP1 RETURNDATACOPY RETURNDATASIZE PUSH0 REVERT JUMPDEST POP PUSH1 0x6 PUSH1 0x1 DUP4 DUP2 SLOAD DUP2 LT PUSH2 0x9D2 JUMPI PUSH2 0x9D1 PUSH2 0x21EF JUMP JUMPDEST JUMPDEST SWAP1 PUSH0 MSTORE PUSH1 0x20 PUSH0 KECCAK256 SWAP1 PUSH1 0x4 MUL ADD PUSH0 ADD PUSH0 SWAP1 SLOAD SWAP1 PUSH2 0x100 EXP SWAP1 DIV PUSH20 0xFFFFFFFFFFFFFFFFFFFFFFFFFFFFFFFFFFFFFFFF AND SWAP1 DUP1 PUSH1 0x1 DUP2 SLOAD ADD DUP1 DUP3 SSTORE DUP1 SWAP2 POP POP PUSH1 0x1 SWAP1 SUB SWAP1 PUSH0 MSTORE PUSH1 0x20 PUSH0 KECCAK256 ADD PUSH0 SWAP1 SWAP2 SWAP1 SWAP2 SWAP1 SWAP2 PUSH2 0x100 EXP DUP2 SLOAD DUP2 PUSH20 0xFFFFFFFFFFFFFFFFFFFFFFFFFFFFFFFFFFFFFFFF MUL NOT AND SWAP1 DUP4 PUSH20 0xFFFFFFFFFFFFFFFFFFFFFFFFFFFFFFFFFFFFFFFF AND MUL OR SWAP1 SSTORE POP PUSH32 0xE9B0A743935D9854AC97B39452742C48F05E62B1EE44825328D7BC53901B03B1 PUSH1 0x1 DUP4 DUP2 SLOAD DUP2 LT PUSH2 0xA92 JUMPI PUSH2 0xA91 PUSH2 0x21EF JUMP JUMPDEST JUMPDEST SWAP1 PUSH0 MSTORE PUSH1 0x20 PUSH0 KECCAK256 SWAP1 PUSH1 0x4 MUL ADD PUSH0 ADD PUSH0 SWAP1 SLOAD SWAP1 PUSH2 0x100 EXP SWAP1 DIV PUSH20 0xFFFFFFFFFFFFFFFFFFFFFFFFFFFFFFFFFFFFFFFF AND DUP3 PUSH1 0x40 MLOAD PUSH2 0xACF SWAP3 SWAP2 SWAP1 PUSH2 0x235A JUMP JUMPDEST PUSH1 0x40 MLOAD DUP1 SWAP2 SUB SWAP1 LOG1 JUMPDEST POP DUP1 DUP1 PUSH1 0x1 ADD SWAP2 POP POP PUSH2 0x806 JUMP JUMPDEST POP PUSH2 0xAEF PUSH2 0x1826 JUMP JUMPDEST DUP1 PUSH1 0x6 DUP1 DUP1 SLOAD DUP1 PUSH1 0x20 MUL PUSH1 0x20 ADD PUSH1 0x40 MLOAD SWAP1 DUP2 ADD PUSH1 0x40 MSTORE DUP1 SWAP3 SWAP2 SWAP1 DUP2 DUP2 MSTORE PUSH1 0x20 ADD DUP3 DUP1 SLOAD DUP1 ISZERO PUSH2 0xB70 JUMPI PUSH1 0x20 MUL DUP3 ADD SWAP2 SWAP1 PUSH0 MSTORE PUSH1 0x20 PUSH0 KECCAK256 SWAP1 JUMPDEST DUP2 PUSH0 SWAP1 SLOAD SWAP1 PUSH2 0x100 EXP SWAP1 DIV PUSH20 0xFFFFFFFFFFFFFFFFFFFFFFFFFFFFFFFFFFFFFFFF AND PUSH20 0xFFFFFFFFFFFFFFFFFFFFFFFFFFFFFFFFFFFFFFFF AND DUP2 MSTORE PUSH1 0x20 ADD SWAP1 PUSH1 0x1 ADD SWAP1 DUP1 DUP4 GT PUSH2 0xB27 JUMPI JUMPDEST POP POP POP POP POP SWAP1 POP SWAP4 POP SWAP4 POP POP POP SWAP1 SWAP2 JUMP JUMPDEST PUSH1 0x5 DUP2 DUP2 SLOAD DUP2 LT PUSH2 0xB90 JUMPI PUSH0 DUP1 REVERT JUMPDEST SWAP1 PUSH0 MSTORE PUSH1 0x20 PUSH0 KECCAK256 SWAP1 PUSH1 0x20 SWAP2 DUP3 DUP3 DIV ADD SWAP2 SWAP1 MOD SWAP2 POP SLOAD SWAP1 PUSH2 0x100 EXP SWAP1 DIV PUSH1 0xFF AND DUP2 JUMP JUMPDEST PUSH1 0x3 DUP2 DUP2 SLOAD DUP2 LT PUSH2 0xBC1 JUMPI PUSH0 DUP1 REVERT JUMPDEST SWAP1 PUSH0 MSTORE PUSH1 0x20 PUSH0 KECCAK256 SWAP1 PUSH1 0x20 SWAP2 DUP3 DUP3 DIV ADD SWAP2 SWAP1 MOD SWAP2 POP SLOAD SWAP1 PUSH2 0x100 EXP SWAP1 DIV PUSH1 0xFF AND DUP2 JUMP JUMPDEST PUSH1 0x4 PUSH0 SWAP1 SLOAD SWAP1 PUSH2 0x100 EXP SWAP1 DIV PUSH20 0xFFFFFFFFFFFFFFFFFFFFFFFFFFFFFFFFFFFFFFFF AND DUP2 JUMP JUMPDEST PUSH1 0x1 DUP2 DUP2 SLOAD DUP2 LT PUSH2 0xC1C JUMPI PUSH2 0xC1B PUSH2 0x21EF JUMP JUMPDEST JUMPDEST SWAP1 PUSH0 MSTORE PUSH1 0x20 PUSH0 KECCAK256 SWAP1 PUSH1 0x4 MUL ADD PUSH0 ADD PUSH0 SWAP1 SLOAD SWAP1 PUSH2 0x100 EXP SWAP1 DIV PUSH20 0xFFFFFFFFFFFFFFFFFFFFFFFFFFFFFFFFFFFFFFFF AND PUSH20 0xFFFFFFFFFFFFFFFFFFFFFFFFFFFFFFFFFFFFFFFF AND CALLER PUSH20 0xFFFFFFFFFFFFFFFFFFFFFFFFFFFFFFFFFFFFFFFF AND EQ PUSH2 0xCB7 JUMPI PUSH1 0x40 MLOAD PUSH32 0x8C379A000000000000000000000000000000000000000000000000000000000 DUP2 MSTORE PUSH1 0x4 ADD PUSH2 0xCAE SWAP1 PUSH2 0x23CB JUMP JUMPDEST PUSH1 0x40 MLOAD DUP1 SWAP2 SUB SWAP1 REVERT JUMPDEST PUSH0 PUSH1 0x1 DUP3 DUP2 SLOAD DUP2 LT PUSH2 0xCCC JUMPI PUSH2 0xCCB PUSH2 0x21EF JUMP JUMPDEST JUMPDEST SWAP1 PUSH0 MSTORE PUSH1 0x20 PUSH0 KECCAK256 SWAP1 PUSH1 0x4 MUL ADD PUSH1 0x3 ADD PUSH0 PUSH2 0x100 EXP DUP2 SLOAD DUP2 PUSH1 0xFF MUL NOT AND SWAP1 DUP4 ISZERO ISZERO MUL OR SWAP1 SSTORE POP POP JUMP JUMPDEST PUSH1 0x6 DUP2 DUP2 SLOAD DUP2 LT PUSH2 0xD03 JUMPI PUSH0 DUP1 REVERT JUMPDEST SWAP1 PUSH0 MSTORE PUSH1 0x20 PUSH0 KECCAK256 ADD PUSH0 SWAP2 POP SLOAD SWAP1 PUSH2 0x100 EXP SWAP1 DIV PUSH20 0xFFFFFFFFFFFFFFFFFFFFFFFFFFFFFFFFFFFFFFFF AND DUP2 JUMP JUMPDEST PUSH1 0x60 PUSH0 PUSH1 0x1 DUP1 DUP1 SLOAD SWAP1 POP PUSH2 0xD43 SWAP2 SWAP1 PUSH2 0x23E9 JUMP JUMPDEST PUSH8 0xFFFFFFFFFFFFFFFF DUP2 GT ISZERO PUSH2 0xD5C JUMPI PUSH2 0xD5B PUSH2 0x241C JUMP JUMPDEST JUMPDEST PUSH1 0x40 MLOAD SWAP1 DUP1 DUP3 MSTORE DUP1 PUSH1 0x20 MUL PUSH1 0x20 ADD DUP3 ADD PUSH1 0x40 MSTORE DUP1 ISZERO PUSH2 0xD8F JUMPI DUP2 PUSH1 0x20 ADD JUMPDEST PUSH1 0x60 DUP2 MSTORE PUSH1 0x20 ADD SWAP1 PUSH1 0x1 SWAP1 SUB SWAP1 DUP2 PUSH2 0xD7A JUMPI SWAP1 POP JUMPDEST POP SWAP1 POP PUSH2 0xE43 PUSH1 0x3 DUP1 SLOAD DUP1 PUSH1 0x20 MUL PUSH1 0x20 ADD PUSH1 0x40 MLOAD SWAP1 DUP2 ADD PUSH1 0x40 MSTORE DUP1 SWAP3 SWAP2 SWAP1 DUP2 DUP2 MSTORE PUSH1 0x20 ADD DUP3 DUP1 SLOAD DUP1 ISZERO PUSH2 0xE03 JUMPI PUSH1 0x20 MUL DUP3 ADD SWAP2 SWAP1 PUSH0 MSTORE PUSH1 0x20 PUSH0 KECCAK256 SWAP1 PUSH0 SWAP1 JUMPDEST DUP3 DUP3 SWAP1 SLOAD SWAP1 PUSH2 0x100 EXP SWAP1 DIV PUSH1 0xFF AND PUSH1 0xFF AND DUP2 MSTORE PUSH1 0x20 ADD SWAP1 PUSH1 0x1 ADD SWAP1 PUSH1 0x20 DUP3 PUSH0 ADD DIV SWAP3 DUP4 ADD SWAP3 PUSH1 0x1 SUB DUP3 MUL SWAP2 POP DUP1 DUP5 GT PUSH2 0xDCD JUMPI SWAP1 POP JUMPDEST POP POP POP POP POP PUSH1 0x40 MLOAD DUP1 PUSH1 0x40 ADD PUSH1 0x40 MSTORE DUP1 PUSH1 0x6 DUP2 MSTORE PUSH1 0x20 ADD PUSH32 0x42616E6B3A200000000000000000000000000000000000000000000000000000 DUP2 MSTORE POP PUSH2 0x1632 JUMP JUMPDEST DUP2 PUSH0 DUP2 MLOAD DUP2 LT PUSH2 0xE56 JUMPI PUSH2 0xE55 PUSH2 0x21EF JUMP JUMPDEST JUMPDEST PUSH1 0x20 MUL PUSH1 0x20 ADD ADD DUP2 SWAP1 MSTORE POP PUSH0 JUMPDEST PUSH1 0x1 DUP1 SLOAD SWAP1 POP DUP2 LT ISZERO PUSH2 0xF77 JUMPI PUSH2 0xF40 PUSH1 0x1 DUP3 DUP2 SLOAD DUP2 LT PUSH2 0xE87 JUMPI PUSH2 0xE86 PUSH2 0x21EF JUMP JUMPDEST JUMPDEST SWAP1 PUSH0 MSTORE PUSH1 0x20 PUSH0 KECCAK256 SWAP1 PUSH1 0x4 MUL ADD PUSH1 0x2 ADD DUP1 SLOAD DUP1 PUSH1 0x20 MUL PUSH1 0x20 ADD PUSH1 0x40 MLOAD SWAP1 DUP2 ADD PUSH1 0x40 MSTORE DUP1 SWAP3 SWAP2 SWAP1 DUP2 DUP2 MSTORE PUSH1 0x20 ADD DUP3 DUP1 SLOAD DUP1 ISZERO PUSH2 0xF02 JUMPI PUSH1 0x20 MUL DUP3 ADD SWAP2 SWAP1 PUSH0 MSTORE PUSH1 0x20 PUSH0 KECCAK256 SWAP1 PUSH0 SWAP1 JUMPDEST DUP3 DUP3 SWAP1 SLOAD SWAP1 PUSH2 0x100 EXP SWAP1 DIV PUSH1 0xFF AND PUSH1 0xFF AND DUP2 MSTORE PUSH1 0x20 ADD SWAP1 PUSH1 0x1 ADD SWAP1 PUSH1 0x20 DUP3 PUSH0 ADD DIV SWAP3 DUP4 ADD SWAP3 PUSH1 0x1 SUB DUP3 MUL SWAP2 POP DUP1 DUP5 GT PUSH2 0xECC JUMPI SWAP1 POP JUMPDEST POP POP POP POP POP PUSH2 0xF1C PUSH1 0x1 DUP5 PUSH2 0xF17 SWAP2 SWAP1 PUSH2 0x23E9 JUMP JUMPDEST PUSH2 0x1851 JUMP JUMPDEST PUSH1 0x40 MLOAD PUSH1 0x20 ADD PUSH2 0xF2C SWAP2 SWAP1 PUSH2 0x2517 JUMP JUMPDEST PUSH1 0x40 MLOAD PUSH1 0x20 DUP2 DUP4 SUB SUB DUP2 MSTORE SWAP1 PUSH1 0x40 MSTORE PUSH2 0x1632 JUMP JUMPDEST DUP3 PUSH1 0x1 DUP4 PUSH2 0xF4E SWAP2 SWAP1 PUSH2 0x23E9 JUMP JUMPDEST DUP2 MLOAD DUP2 LT PUSH2 0xF5F JUMPI PUSH2 0xF5E PUSH2 0x21EF JUMP JUMPDEST JUMPDEST PUSH1 0x20 MUL PUSH1 0x20 ADD ADD DUP2 SWAP1 MSTORE POP DUP1 DUP1 PUSH1 0x1 ADD SWAP2 POP POP PUSH2 0xE63 JUMP JUMPDEST POP DUP1 SWAP2 POP POP SWAP1 JUMP JUMPDEST PUSH0 PUSH1 0x2 SLOAD GT PUSH2 0xFC3 JUMPI PUSH1 0x40 MLOAD PUSH32 0x8C379A000000000000000000000000000000000000000000000000000000000 DUP2 MSTORE PUSH1 0x4 ADD PUSH2 0xFBA SWAP1 PUSH2 0x258D JUMP JUMPDEST PUSH1 0x40 MLOAD DUP1 SWAP2 SUB SWAP1 REVERT JUMPDEST PUSH2 0xFCB PUSH2 0x19AF JUMP JUMPDEST PUSH0 JUMPDEST PUSH1 0x1 DUP1 SLOAD SWAP1 POP DUP2 LT ISZERO PUSH2 0x10BD JUMPI PUSH1 0x1 DUP2 DUP2 SLOAD DUP2 LT PUSH2 0xFEE JUMPI PUSH2 0xFED PUSH2 0x21EF JUMP JUMPDEST JUMPDEST SWAP1 PUSH0 MSTORE PUSH1 0x20 PUSH0 KECCAK256 SWAP1 PUSH1 0x4 MUL ADD PUSH1 0x2 ADD PUSH2 0x1005 PUSH2 0x148D JUMP JUMPDEST SWAP1 DUP1 PUSH1 0x1 DUP2 SLOAD ADD DUP1 DUP3 SSTORE DUP1 SWAP2 POP POP PUSH1 0x1 SWAP1 SUB SWAP1 PUSH0 MSTORE PUSH1 0x20 PUSH0 KECCAK256 SWAP1 PUSH1 0x20 SWAP2 DUP3 DUP3 DIV ADD SWAP2 SWAP1 MOD SWAP1 SWAP2 SWAP1 SWAP2 SWAP1 SWAP2 PUSH2 0x100 EXP DUP2 SLOAD DUP2 PUSH1 0xFF MUL NOT AND SWAP1 DUP4 PUSH1 0xFF AND MUL OR SWAP1 SSTORE POP PUSH1 0x1 DUP2 DUP2 SLOAD DUP2 LT PUSH2 0x1059 JUMPI PUSH2 0x1058 PUSH2 0x21EF JUMP JUMPDEST JUMPDEST SWAP1 PUSH0 MSTORE PUSH1 0x20 PUSH0 KECCAK256 SWAP1 PUSH1 0x4 MUL ADD PUSH1 0x2 ADD PUSH2 0x1070 PUSH2 0x148D JUMP JUMPDEST SWAP1 DUP1 PUSH1 0x1 DUP2 SLOAD ADD DUP1 DUP3 SSTORE DUP1 SWAP2 POP POP PUSH1 0x1 SWAP1 SUB SWAP1 PUSH0 MSTORE PUSH1 0x20 PUSH0 KECCAK256 SWAP1 PUSH1 0x20 SWAP2 DUP3 DUP3 DIV ADD SWAP2 SWAP1 MOD SWAP1 SWAP2 SWAP1 SWAP2 SWAP1 SWAP2 PUSH2 0x100 EXP DUP2 SLOAD DUP2 PUSH1 0xFF MUL NOT AND SWAP1 DUP4 PUSH1 0xFF AND MUL OR SWAP1 SSTORE POP DUP1 DUP1 PUSH1 0x1 ADD SWAP2 POP POP PUSH2 0xFCD JUMP JUMPDEST POP PUSH1 0x3 PUSH2 0x10C8 PUSH2 0x148D JUMP JUMPDEST SWAP1 DUP1 PUSH1 0x1 DUP2 SLOAD ADD DUP1 DUP3 SSTORE DUP1 SWAP2 POP POP PUSH1 0x1 SWAP1 SUB SWAP1 PUSH0 MSTORE PUSH1 0x20 PUSH0 KECCAK256 SWAP1 PUSH1 0x20 SWAP2 DUP3 DUP3 DIV ADD SWAP2 SWAP1 MOD SWAP1 SWAP2 SWAP1 SWAP2 SWAP1 SWAP2 PUSH2 0x100 EXP DUP2 SLOAD DUP2 PUSH1 0xFF MUL NOT AND SWAP1 DUP4 PUSH1 0xFF AND MUL OR SWAP1 SSTORE POP PUSH1 0x3 PUSH2 0x1112 PUSH2 0x148D JUMP JUMPDEST SWAP1 DUP1 PUSH1 0x1 DUP2 SLOAD ADD DUP1 DUP3 SSTORE DUP1 SWAP2 POP POP PUSH1 0x1 SWAP1 SUB SWAP1 PUSH0 MSTORE PUSH1 0x20 PUSH0 KECCAK256 SWAP1 PUSH1 0x20 SWAP2 DUP3 DUP3 DIV ADD SWAP2 SWAP1 MOD SWAP1 SWAP2 SWAP1 SWAP2 SWAP1 SWAP2 PUSH2 0x100 EXP DUP2 SLOAD DUP2 PUSH1 0xFF MUL NOT AND SWAP1 DUP4 PUSH1 0xFF AND MUL OR SWAP1 SSTORE POP JUMP JUMPDEST PUSH1 0x4 PUSH1 0x2 SLOAD LT PUSH2 0x1199 JUMPI PUSH1 0x40 MLOAD PUSH32 0x8C379A000000000000000000000000000000000000000000000000000000000 DUP2 MSTORE PUSH1 0x4 ADD PUSH2 0x1190 SWAP1 PUSH2 0x25F5 JUMP JUMPDEST PUSH1 0x40 MLOAD DUP1 SWAP2 SUB SWAP1 REVERT JUMPDEST DUP1 CALLVALUE EQ PUSH2 0x11DB JUMPI PUSH1 0x40 MLOAD PUSH32 0x8C379A000000000000000000000000000000000000000000000000000000000 DUP2 MSTORE PUSH1 0x4 ADD PUSH2 0x11D2 SWAP1 PUSH2 0x265D JUMP JUMPDEST PUSH1 0x40 MLOAD DUP1 SWAP2 SUB SWAP1 REVERT JUMPDEST PUSH1 0x1 PUSH1 0x40 MLOAD DUP1 PUSH1 0xA0 ADD PUSH1 0x40 MSTORE DUP1 CALLER PUSH20 0xFFFFFFFFFFFFFFFFFFFFFFFFFFFFFFFFFFFFFFFF AND DUP2 MSTORE PUSH1 0x20 ADD DUP4 DUP2 MSTORE PUSH1 0x20 ADD PUSH0 PUSH8 0xFFFFFFFFFFFFFFFF DUP2 GT ISZERO PUSH2 0x1224 JUMPI PUSH2 0x1223 PUSH2 0x241C JUMP JUMPDEST JUMPDEST PUSH1 0x40 MLOAD SWAP1 DUP1 DUP3 MSTORE DUP1 PUSH1 0x20 MUL PUSH1 0x20 ADD DUP3 ADD PUSH1 0x40 MSTORE DUP1 ISZERO PUSH2 0x1252 JUMPI DUP2 PUSH1 0x20 ADD PUSH1 0x20 DUP3 MUL DUP1 CALLDATASIZE DUP4 CALLDATACOPY DUP1 DUP3 ADD SWAP2 POP POP SWAP1 POP JUMPDEST POP DUP2 MSTORE PUSH1 0x20 ADD PUSH1 0x1 ISZERO ISZERO DUP2 MSTORE PUSH1 0x20 ADD PUSH0 ISZERO ISZERO DUP2 MSTORE POP SWAP1 DUP1 PUSH1 0x1 DUP2 SLOAD ADD DUP1 DUP3 SSTORE DUP1 SWAP2 POP POP PUSH1 0x1 SWAP1 SUB SWAP1 PUSH0 MSTORE PUSH1 0x20 PUSH0 KECCAK256 SWAP1 PUSH1 0x4 MUL ADD PUSH0 SWAP1 SWAP2 SWAP1 SWAP2 SWAP1 SWAP2 POP PUSH0 DUP3 ADD MLOAD DUP2 PUSH0 ADD PUSH0 PUSH2 0x100 EXP DUP2 SLOAD DUP2 PUSH20 0xFFFFFFFFFFFFFFFFFFFFFFFFFFFFFFFFFFFFFFFF MUL NOT AND SWAP1 DUP4 PUSH20 0xFFFFFFFFFFFFFFFFFFFFFFFFFFFFFFFFFFFFFFFF AND MUL OR SWAP1 SSTORE POP PUSH1 0x20 DUP3 ADD MLOAD DUP2 PUSH1 0x1 ADD SSTORE PUSH1 0x40 DUP3 ADD MLOAD DUP2 PUSH1 0x2 ADD SWAP1 DUP1 MLOAD SWAP1 PUSH1 0x20 ADD SWAP1 PUSH2 0x12F7 SWAP3 SWAP2 SWAP1 PUSH2 0x1C19 JUMP JUMPDEST POP PUSH1 0x60 DUP3 ADD MLOAD DUP2 PUSH1 0x3 ADD PUSH0 PUSH2 0x100 EXP DUP2 SLOAD DUP2 PUSH1 0xFF MUL NOT AND SWAP1 DUP4 ISZERO ISZERO MUL OR SWAP1 SSTORE POP PUSH1 0x80 DUP3 ADD MLOAD DUP2 PUSH1 0x3 ADD PUSH1 0x1 PUSH2 0x100 EXP DUP2 SLOAD DUP2 PUSH1 0xFF MUL NOT AND SWAP1 DUP4 ISZERO ISZERO MUL OR SWAP1 SSTORE POP POP POP PUSH1 0x2 PUSH0 DUP2 SLOAD DUP1 SWAP3 SWAP2 SWAP1 PUSH2 0x134B SWAP1 PUSH2 0x267B JUMP JUMPDEST SWAP2 SWAP1 POP SSTORE POP POP JUMP JUMPDEST PUSH1 0x1 DUP2 DUP2 SLOAD DUP2 LT PUSH2 0x1362 JUMPI PUSH0 DUP1 REVERT JUMPDEST SWAP1 PUSH0 MSTORE PUSH1 0x20 PUSH0 KECCAK256 SWAP1 PUSH1 0x4 MUL ADD PUSH0 SWAP2 POP SWAP1 POP DUP1 PUSH0 ADD PUSH0 SWAP1 SLOAD SWAP1 PUSH2 0x100 EXP SWAP1 DIV PUSH20 0xFFFFFFFFFFFFFFFFFFFFFFFFFFFFFFFFFFFFFFFF AND SWAP1 DUP1 PUSH1 0x1 ADD SLOAD SWAP1 DUP1 PUSH1 0x3 ADD PUSH0 SWAP1 SLOAD SWAP1 PUSH2 0x100 EXP SWAP1 DIV PUSH1 0xFF AND SWAP1 DUP1 PUSH1 0x3 ADD PUSH1 0x1 SWAP1 SLOAD SWAP1 PUSH2 0x100 EXP SWAP1 DIV PUSH1 0xFF AND SWAP1 POP DUP5 JUMP JUMPDEST PUSH0 DUP1 PUSH0 SWAP1 POP JUMPDEST PUSH1 0x1 DUP1 SLOAD SWAP1 POP DUP2 LT ISZERO PUSH2 0x1463 JUMPI DUP3 PUSH20 0xFFFFFFFFFFFFFFFFFFFFFFFFFFFFFFFFFFFFFFFF AND PUSH1 0x1 DUP3 DUP2 SLOAD DUP2 LT PUSH2 0x1404 JUMPI PUSH2 0x1403 PUSH2 0x21EF JUMP JUMPDEST JUMPDEST SWAP1 PUSH0 MSTORE PUSH1 0x20 PUSH0 KECCAK256 SWAP1 PUSH1 0x4 MUL ADD PUSH0 ADD PUSH0 SWAP1 SLOAD SWAP1 PUSH2 0x100 EXP SWAP1 DIV PUSH20 0xFFFFFFFFFFFFFFFFFFFFFFFFFFFFFFFFFFFFFFFF AND PUSH20 0xFFFFFFFFFFFFFFFFFFFFFFFFFFFFFFFFFFFFFFFF AND SUB PUSH2 0x1456 JUMPI DUP1 SWAP2 POP POP PUSH2 0x1488 JUMP JUMPDEST DUP1 DUP1 PUSH1 0x1 ADD SWAP2 POP POP PUSH2 0x13CC JUMP JUMPDEST POP PUSH32 0xFFFFFFFFFFFFFFFFFFFFFFFFFFFFFFFFFFFFFFFFFFFFFFFFFFFFFFFFFFFFFFFF SWAP1 POP JUMPDEST SWAP2 SWAP1 POP JUMP JUMPDEST PUSH0 DUP1 PUSH0 DUP1 SLOAD SWAP1 POP GT PUSH2 0x14D4 JUMPI PUSH1 0x40 MLOAD PUSH32 0x8C379A000000000000000000000000000000000000000000000000000000000 DUP2 MSTORE PUSH1 0x4 ADD PUSH2 0x14CB SWAP1 PUSH2 0x270C JUMP JUMPDEST PUSH1 0x40 MLOAD DUP1 SWAP2 SUB SWAP1 REVERT JUMPDEST PUSH0 DUP1 PUSH1 0x1 PUSH0 DUP1 SLOAD SWAP1 POP PUSH2 0x14E7 SWAP2 SWAP1 PUSH2 0x272A JUMP JUMPDEST DUP2 SLOAD DUP2 LT PUSH2 0x14F8 JUMPI PUSH2 0x14F7 PUSH2 0x21EF JUMP JUMPDEST JUMPDEST SWAP1 PUSH0 MSTORE PUSH1 0x20 PUSH0 KECCAK256 SWAP1 PUSH1 0x20 SWAP2 DUP3 DUP3 DIV ADD SWAP2 SWAP1 MOD SWAP1 SLOAD SWAP1 PUSH2 0x100 EXP SWAP1 DIV PUSH1 0xFF AND SWAP1 POP PUSH0 DUP1 SLOAD DUP1 PUSH2 0x1529 JUMPI PUSH2 0x1528 PUSH2 0x275D JUMP JUMPDEST JUMPDEST PUSH1 0x1 SWAP1 SUB DUP2 DUP2 SWAP1 PUSH0 MSTORE PUSH1 0x20 PUSH0 KECCAK256 SWAP1 PUSH1 0x20 SWAP2 DUP3 DUP3 DIV ADD SWAP2 SWAP1 MOD PUSH2 0x100 EXP DUP2 SLOAD SWAP1 PUSH1 0xFF MUL NOT AND SWAP1 SSTORE SWAP1 SSTORE DUP1 SWAP2 POP POP SWAP1 JUMP JUMPDEST PUSH0 DUP1 PUSH0 SWAP1 POP PUSH0 DUP1 JUMPDEST DUP5 MLOAD DUP2 LT ISZERO PUSH2 0x15E9 JUMPI PUSH0 PUSH1 0xD DUP7 DUP4 DUP2 MLOAD DUP2 LT PUSH2 0x157F JUMPI PUSH2 0x157E PUSH2 0x21EF JUMP JUMPDEST JUMPDEST PUSH1 0x20 MUL PUSH1 0x20 ADD ADD MLOAD PUSH2 0x1591 SWAP2 SWAP1 PUSH2 0x27B7 JUMP JUMPDEST SWAP1 POP PUSH0 DUP2 PUSH1 0xFF AND SUB PUSH2 0x15A2 JUMPI PUSH1 0xD SWAP1 POP JUMPDEST PUSH1 0xA DUP2 PUSH1 0xFF AND GT ISZERO PUSH2 0x15B3 JUMPI PUSH1 0xA SWAP1 POP JUMPDEST PUSH1 0x1 DUP2 PUSH1 0xFF AND SUB PUSH2 0x15CD JUMPI DUP3 DUP1 PUSH2 0x15C9 SWAP1 PUSH2 0x27E7 JUMP JUMPDEST SWAP4 POP POP JUMPDEST DUP1 DUP5 PUSH2 0x15D9 SWAP2 SWAP1 PUSH2 0x280F JUMP JUMPDEST SWAP4 POP POP DUP1 DUP1 PUSH1 0x1 ADD SWAP2 POP POP PUSH2 0x1560 JUMP JUMPDEST POP JUMPDEST PUSH1 0xB DUP3 PUSH1 0xFF AND GT ISZERO DUP1 ISZERO PUSH2 0x1601 JUMPI POP PUSH0 DUP2 PUSH1 0xFF AND GT JUMPDEST ISZERO PUSH2 0x1628 JUMPI PUSH1 0xA DUP3 PUSH2 0x1613 SWAP2 SWAP1 PUSH2 0x280F JUMP JUMPDEST SWAP2 POP DUP1 DUP1 PUSH2 0x1620 SWAP1 PUSH2 0x2843 JUMP JUMPDEST SWAP2 POP POP PUSH2 0x15EB JUMP JUMPDEST DUP2 SWAP3 POP POP POP SWAP2 SWAP1 POP JUMP JUMPDEST PUSH1 0x60 PUSH0 DUP3 SWAP1 POP PUSH0 JUMPDEST DUP5 MLOAD DUP2 LT ISZERO PUSH2 0x181B JUMPI PUSH0 PUSH1 0xD DUP7 DUP4 DUP2 MLOAD DUP2 LT PUSH2 0x1659 JUMPI PUSH2 0x1658 PUSH2 0x21EF JUMP JUMPDEST JUMPDEST PUSH1 0x20 MUL PUSH1 0x20 ADD ADD MLOAD PUSH2 0x166B SWAP2 SWAP1 PUSH2 0x27B7 JUMP JUMPDEST SWAP1 POP PUSH0 DUP2 PUSH1 0xFF AND SUB PUSH2 0x167C JUMPI PUSH1 0xD SWAP1 POP JUMPDEST PUSH1 0x60 PUSH1 0x1 DUP3 PUSH1 0xFF AND SUB PUSH2 0x16C6 JUMPI PUSH1 0x40 MLOAD DUP1 PUSH1 0x40 ADD PUSH1 0x40 MSTORE DUP1 PUSH1 0x1 DUP2 MSTORE PUSH1 0x20 ADD PUSH32 0x4100000000000000000000000000000000000000000000000000000000000000 DUP2 MSTORE POP SWAP1 POP PUSH2 0x17B0 JUMP JUMPDEST PUSH1 0xB DUP3 PUSH1 0xFF AND SUB PUSH2 0x170E JUMPI PUSH1 0x40 MLOAD DUP1 PUSH1 0x40 ADD PUSH1 0x40 MSTORE DUP1 PUSH1 0x1 DUP2 MSTORE PUSH1 0x20 ADD PUSH32 0x4A00000000000000000000000000000000000000000000000000000000000000 DUP2 MSTORE POP SWAP1 POP PUSH2 0x17AF JUMP JUMPDEST PUSH1 0xC DUP3 PUSH1 0xFF AND SUB PUSH2 0x1756 JUMPI PUSH1 0x40 MLOAD DUP1 PUSH1 0x40 ADD PUSH1 0x40 MSTORE DUP1 PUSH1 0x1 DUP2 MSTORE PUSH1 0x20 ADD PUSH32 0x5100000000000000000000000000000000000000000000000000000000000000 DUP2 MSTORE POP SWAP1 POP PUSH2 0x17AE JUMP JUMPDEST PUSH1 0xD DUP3 PUSH1 0xFF AND SUB PUSH2 0x179E JUMPI PUSH1 0x40 MLOAD DUP1 PUSH1 0x40 ADD PUSH1 0x40 MSTORE DUP1 PUSH1 0x1 DUP2 MSTORE PUSH1 0x20 ADD PUSH32 0x4B00000000000000000000000000000000000000000000000000000000000000 DUP2 MSTORE POP SWAP1 POP PUSH2 0x17AD JUMP JUMPDEST PUSH2 0x17AA DUP3 PUSH1 0xFF AND PUSH2 0x1851 JUMP JUMPDEST SWAP1 POP JUMPDEST JUMPDEST JUMPDEST JUMPDEST DUP4 DUP2 PUSH1 0x40 MLOAD PUSH1 0x20 ADD PUSH2 0x17C3 SWAP3 SWAP2 SWAP1 PUSH2 0x286A JUMP JUMPDEST PUSH1 0x40 MLOAD PUSH1 0x20 DUP2 DUP4 SUB SUB DUP2 MSTORE SWAP1 PUSH1 0x40 MSTORE SWAP4 POP PUSH1 0x1 DUP8 MLOAD PUSH2 0x17E2 SWAP2 SWAP1 PUSH2 0x272A JUMP JUMPDEST DUP4 LT ISZERO PUSH2 0x180C JUMPI DUP4 PUSH1 0x40 MLOAD PUSH1 0x20 ADD PUSH2 0x17FA SWAP2 SWAP1 PUSH2 0x28D7 JUMP JUMPDEST PUSH1 0x40 MLOAD PUSH1 0x20 DUP2 DUP4 SUB SUB DUP2 MSTORE SWAP1 PUSH1 0x40 MSTORE SWAP4 POP JUMPDEST POP POP DUP1 DUP1 PUSH1 0x1 ADD SWAP2 POP POP PUSH2 0x163A JUMP JUMPDEST POP DUP1 SWAP2 POP POP SWAP3 SWAP2 POP POP JUMP JUMPDEST PUSH1 0x1 PUSH0 PUSH2 0x1833 SWAP2 SWAP1 PUSH2 0x1CBB JUMP JUMPDEST PUSH1 0x3 PUSH0 PUSH2 0x1840 SWAP2 SWAP1 PUSH2 0x1CDC JUMP JUMPDEST PUSH0 PUSH1 0x2 DUP2 SWAP1 SSTORE POP PUSH2 0x184F PUSH2 0x1B2A JUMP JUMPDEST JUMP JUMPDEST PUSH1 0x60 PUSH0 DUP3 SUB PUSH2 0x1897 JUMPI PUSH1 0x40 MLOAD DUP1 PUSH1 0x40 ADD PUSH1 0x40 MSTORE DUP1 PUSH1 0x1 DUP2 MSTORE PUSH1 0x20 ADD PUSH32 0x3000000000000000000000000000000000000000000000000000000000000000 DUP2 MSTORE POP SWAP1 POP PUSH2 0x19AA JUMP JUMPDEST PUSH0 DUP3 SWAP1 POP PUSH0 JUMPDEST PUSH0 DUP3 EQ PUSH2 0x18C6 JUMPI DUP1 DUP1 PUSH2 0x18AF SWAP1 PUSH2 0x267B JUMP JUMPDEST SWAP2 POP POP PUSH1 0xA DUP3 PUSH2 0x18BF SWAP2 SWAP1 PUSH2 0x28F8 JUMP JUMPDEST SWAP2 POP PUSH2 0x189D JUMP JUMPDEST PUSH0 DUP2 PUSH8 0xFFFFFFFFFFFFFFFF DUP2 GT ISZERO PUSH2 0x18E1 JUMPI PUSH2 0x18E0 PUSH2 0x241C JUMP JUMPDEST JUMPDEST PUSH1 0x40 MLOAD SWAP1 DUP1 DUP3 MSTORE DUP1 PUSH1 0x1F ADD PUSH1 0x1F NOT AND PUSH1 0x20 ADD DUP3 ADD PUSH1 0x40 MSTORE DUP1 ISZERO PUSH2 0x1913 JUMPI DUP2 PUSH1 0x20 ADD PUSH1 0x1 DUP3 MUL DUP1 CALLDATASIZE DUP4 CALLDATACOPY DUP1 DUP3 ADD SWAP2 POP POP SWAP1 POP JUMPDEST POP SWAP1 POP PUSH0 DUP3 SWAP1 POP DUP6 SWAP4 POP JUMPDEST PUSH0 DUP5 EQ PUSH2 0x19A2 JUMPI PUSH1 0xA DUP5 PUSH2 0x1932 SWAP2 SWAP1 PUSH2 0x2928 JUMP JUMPDEST PUSH1 0x30 PUSH2 0x193E SWAP2 SWAP1 PUSH2 0x23E9 JUMP JUMPDEST PUSH1 0xF8 SHL DUP3 DUP3 PUSH2 0x194C SWAP1 PUSH2 0x2958 JUMP JUMPDEST SWAP3 POP DUP3 DUP2 MLOAD DUP2 LT PUSH2 0x1960 JUMPI PUSH2 0x195F PUSH2 0x21EF JUMP JUMPDEST JUMPDEST PUSH1 0x20 ADD ADD SWAP1 PUSH31 0xFFFFFFFFFFFFFFFFFFFFFFFFFFFFFFFFFFFFFFFFFFFFFFFFFFFFFFFFFFFFFF NOT AND SWAP1 DUP2 PUSH0 BYTE SWAP1 MSTORE8 POP PUSH1 0xA DUP5 PUSH2 0x199B SWAP2 SWAP1 PUSH2 0x28F8 JUMP JUMPDEST SWAP4 POP PUSH2 0x191E JUMP JUMPDEST DUP2 SWAP5 POP POP POP POP POP JUMPDEST SWAP2 SWAP1 POP JUMP JUMPDEST PUSH0 TIMESTAMP PREVRANDAO PUSH1 0x1 NUMBER PUSH2 0x19BF SWAP2 SWAP1 PUSH2 0x272A JUMP JUMPDEST BLOCKHASH PUSH1 0x40 MLOAD PUSH1 0x20 ADD PUSH2 0x19D2 SWAP4 SWAP3 SWAP2 SWAP1 PUSH2 0x29C8 JUMP JUMPDEST PUSH1 0x40 MLOAD PUSH1 0x20 DUP2 DUP4 SUB SUB DUP2 MSTORE SWAP1 PUSH1 0x40 MSTORE DUP1 MLOAD SWAP1 PUSH1 0x20 ADD KECCAK256 PUSH0 SHR SWAP1 POP PUSH0 JUMPDEST PUSH0 DUP1 SLOAD SWAP1 POP DUP2 LT ISZERO PUSH2 0x1B26 JUMPI PUSH0 DUP1 DUP1 SLOAD SWAP1 POP DUP4 PUSH2 0x1A0B SWAP2 SWAP1 PUSH2 0x2928 JUMP JUMPDEST SWAP1 POP PUSH0 DUP2 DUP2 SLOAD DUP2 LT PUSH2 0x1A20 JUMPI PUSH2 0x1A1F PUSH2 0x21EF JUMP JUMPDEST JUMPDEST SWAP1 PUSH0 MSTORE PUSH1 0x20 PUSH0 KECCAK256 SWAP1 PUSH1 0x20 SWAP2 DUP3 DUP3 DIV ADD SWAP2 SWAP1 MOD SWAP1 SLOAD SWAP1 PUSH2 0x100 EXP SWAP1 DIV PUSH1 0xFF AND PUSH0 DUP4 DUP2 SLOAD DUP2 LT PUSH2 0x1A51 JUMPI PUSH2 0x1A50 PUSH2 0x21EF JUMP JUMPDEST JUMPDEST SWAP1 PUSH0 MSTORE PUSH1 0x20 PUSH0 KECCAK256 SWAP1 PUSH1 0x20 SWAP2 DUP3 DUP3 DIV ADD SWAP2 SWAP1 MOD SWAP1 SLOAD SWAP1 PUSH2 0x100 EXP SWAP1 DIV PUSH1 0xFF AND PUSH0 DUP5 DUP2 SLOAD DUP2 LT PUSH2 0x1A82 JUMPI PUSH2 0x1A81 PUSH2 0x21EF JUMP JUMPDEST JUMPDEST SWAP1 PUSH0 MSTORE PUSH1 0x20 PUSH0 KECCAK256 SWAP1 PUSH1 0x20 SWAP2 DUP3 DUP3 DIV ADD SWAP2 SWAP1 MOD PUSH0 DUP6 DUP2 SLOAD DUP2 LT PUSH2 0x1AA7 JUMPI PUSH2 0x1AA6 PUSH2 0x21EF JUMP JUMPDEST JUMPDEST SWAP1 PUSH0 MSTORE PUSH1 0x20 PUSH0 KECCAK256 SWAP1 PUSH1 0x20 SWAP2 DUP3 DUP3 DIV ADD SWAP2 SWAP1 MOD DUP5 SWAP2 SWAP1 PUSH2 0x100 EXP DUP2 SLOAD DUP2 PUSH1 0xFF MUL NOT AND SWAP1 DUP4 PUSH1 0xFF AND MUL OR SWAP1 SSTORE POP DUP4 SWAP2 SWAP1 PUSH2 0x100 EXP DUP2 SLOAD DUP2 PUSH1 0xFF MUL NOT AND SWAP1 DUP4 PUSH1 0xFF AND MUL OR SWAP1 SSTORE POP POP POP DUP3 PUSH1 0x40 MLOAD PUSH1 0x20 ADD PUSH2 0x1AFE SWAP2 SWAP1 PUSH2 0x2A04 JUMP JUMPDEST PUSH1 0x40 MLOAD PUSH1 0x20 DUP2 DUP4 SUB SUB DUP2 MSTORE SWAP1 PUSH1 0x40 MSTORE DUP1 MLOAD SWAP1 PUSH1 0x20 ADD KECCAK256 PUSH0 SHR SWAP3 POP POP DUP1 DUP1 PUSH1 0x1 ADD SWAP2 POP POP PUSH2 0x19EE JUMP JUMPDEST POP POP JUMP JUMPDEST PUSH0 DUP1 PUSH2 0x1B36 SWAP2 SWAP1 PUSH2 0x1CDC JUMP JUMPDEST PUSH0 PUSH1 0x1 SWAP1 POP JUMPDEST PUSH1 0x34 DUP2 PUSH1 0xFF AND GT PUSH2 0x1B9C JUMPI PUSH0 DUP2 SWAP1 DUP1 PUSH1 0x1 DUP2 SLOAD ADD DUP1 DUP3 SSTORE DUP1 SWAP2 POP POP PUSH1 0x1 SWAP1 SUB SWAP1 PUSH0 MSTORE PUSH1 0x20 PUSH0 KECCAK256 SWAP1 PUSH1 0x20 SWAP2 DUP3 DUP3 DIV ADD SWAP2 SWAP1 MOD SWAP1 SWAP2 SWAP1 SWAP2 SWAP1 SWAP2 PUSH2 0x100 EXP DUP2 SLOAD DUP2 PUSH1 0xFF MUL NOT AND SWAP1 DUP4 PUSH1 0xFF AND MUL OR SWAP1 SSTORE POP DUP1 DUP1 PUSH2 0x1B94 SWAP1 PUSH2 0x27E7 JUMP JUMPDEST SWAP2 POP POP PUSH2 0x1B3C JUMP JUMPDEST POP JUMP JUMPDEST POP DUP1 SLOAD PUSH0 DUP3 SSTORE SWAP1 PUSH0 MSTORE PUSH1 0x20 PUSH0 KECCAK256 SWAP1 DUP2 ADD SWAP1 PUSH2 0x1BBA SWAP2 SWAP1 PUSH2 0x1D01 JUMP JUMPDEST POP JUMP JUMPDEST DUP3 DUP1 SLOAD DUP3 DUP3 SSTORE SWAP1 PUSH0 MSTORE PUSH1 0x20 PUSH0 KECCAK256 SWAP1 PUSH1 0x1F ADD PUSH1 0x20 SWAP1 DIV DUP2 ADD SWAP3 DUP3 ISZERO PUSH2 0x1C08 JUMPI PUSH0 MSTORE PUSH1 0x20 PUSH0 KECCAK256 SWAP2 PUSH1 0x1F ADD PUSH1 0x20 SWAP1 DIV DUP3 ADD JUMPDEST DUP3 DUP2 GT ISZERO PUSH2 0x1C07 JUMPI DUP3 SLOAD DUP3 SSTORE SWAP2 PUSH1 0x1 ADD SWAP2 SWAP1 PUSH1 0x1 ADD SWAP1 PUSH2 0x1BEC JUMP JUMPDEST JUMPDEST POP SWAP1 POP PUSH2 0x1C15 SWAP2 SWAP1 PUSH2 0x1D01 JUMP JUMPDEST POP SWAP1 JUMP JUMPDEST DUP3 DUP1 SLOAD DUP3 DUP3 SSTORE SWAP1 PUSH0 MSTORE PUSH1 0x20 PUSH0 KECCAK256 SWAP1 PUSH1 0x1F ADD PUSH1 0x20 SWAP1 DIV DUP2 ADD SWAP3 DUP3 ISZERO PUSH2 0x1CAA JUMPI SWAP2 PUSH1 0x20 MUL DUP3 ADD PUSH0 JUMPDEST DUP4 DUP3 GT ISZERO PUSH2 0x1C7C JUMPI DUP4 MLOAD DUP4 DUP3 PUSH2 0x100 EXP DUP2 SLOAD DUP2 PUSH1 0xFF MUL NOT AND SWAP1 DUP4 PUSH1 0xFF AND MUL OR SWAP1 SSTORE POP SWAP3 PUSH1 0x20 ADD SWAP3 PUSH1 0x1 ADD PUSH1 0x20 DUP2 PUSH0 ADD DIV SWAP3 DUP4 ADD SWAP3 PUSH1 0x1 SUB MUL PUSH2 0x1C3F JUMP JUMPDEST DUP1 ISZERO PUSH2 0x1CA8 JUMPI DUP3 DUP2 PUSH2 0x100 EXP DUP2 SLOAD SWAP1 PUSH1 0xFF MUL NOT AND SWAP1 SSTORE PUSH1 0x1 ADD PUSH1 0x20 DUP2 PUSH0 ADD DIV SWAP3 DUP4 ADD SWAP3 PUSH1 0x1 SUB MUL PUSH2 0x1C7C JUMP JUMPDEST POP JUMPDEST POP SWAP1 POP PUSH2 0x1CB7 SWAP2 SWAP1 PUSH2 0x1D01 JUMP JUMPDEST POP SWAP1 JUMP JUMPDEST POP DUP1 SLOAD PUSH0 DUP3 SSTORE PUSH1 0x4 MUL SWAP1 PUSH0 MSTORE PUSH1 0x20 PUSH0 KECCAK256 SWAP1 DUP2 ADD SWAP1 PUSH2 0x1CD9 SWAP2 SWAP1 PUSH2 0x1D1C JUMP JUMPDEST POP JUMP JUMPDEST POP DUP1 SLOAD PUSH0 DUP3 SSTORE PUSH1 0x1F ADD PUSH1 0x20 SWAP1 DIV SWAP1 PUSH0 MSTORE PUSH1 0x20 PUSH0 KECCAK256 SWAP1 DUP2 ADD SWAP1 PUSH2 0x1CFE SWAP2 SWAP1 PUSH2 0x1D01 JUMP JUMPDEST POP JUMP JUMPDEST JUMPDEST DUP1 DUP3 GT ISZERO PUSH2 0x1D18 JUMPI PUSH0 DUP2 PUSH0 SWAP1 SSTORE POP PUSH1 0x1 ADD PUSH2 0x1D02 JUMP JUMPDEST POP SWAP1 JUMP JUMPDEST JUMPDEST DUP1 DUP3 GT ISZERO PUSH2 0x1D91 JUMPI PUSH0 DUP1 DUP3 ADD PUSH0 PUSH2 0x100 EXP DUP2 SLOAD SWAP1 PUSH20 0xFFFFFFFFFFFFFFFFFFFFFFFFFFFFFFFFFFFFFFFF MUL NOT AND SWAP1 SSTORE PUSH1 0x1 DUP3 ADD PUSH0 SWAP1 SSTORE PUSH1 0x2 DUP3 ADD PUSH0 PUSH2 0x1D61 SWAP2 SWAP1 PUSH2 0x1CDC JUMP JUMPDEST PUSH1 0x3 DUP3 ADD PUSH0 PUSH2 0x100 EXP DUP2 SLOAD SWAP1 PUSH1 0xFF MUL NOT AND SWAP1 SSTORE PUSH1 0x3 DUP3 ADD PUSH1 0x1 PUSH2 0x100 EXP DUP2 SLOAD SWAP1 PUSH1 0xFF MUL NOT AND SWAP1 SSTORE POP PUSH1 0x4 ADD PUSH2 0x1D1D JUMP JUMPDEST POP SWAP1 JUMP JUMPDEST PUSH0 DUP2 SWAP1 POP SWAP2 SWAP1 POP JUMP JUMPDEST PUSH2 0x1DA7 DUP2 PUSH2 0x1D95 JUMP JUMPDEST DUP3 MSTORE POP POP JUMP JUMPDEST PUSH0 PUSH1 0x20 DUP3 ADD SWAP1 POP PUSH2 0x1DC0 PUSH0 DUP4 ADD DUP5 PUSH2 0x1D9E JUMP JUMPDEST SWAP3 SWAP2 POP POP JUMP JUMPDEST PUSH0 DUP2 MLOAD SWAP1 POP SWAP2 SWAP1 POP JUMP JUMPDEST PUSH0 DUP3 DUP3 MSTORE PUSH1 0x20 DUP3 ADD SWAP1 POP SWAP3 SWAP2 POP POP JUMP JUMPDEST DUP3 DUP2 DUP4 MCOPY PUSH0 DUP4 DUP4 ADD MSTORE POP POP POP JUMP JUMPDEST PUSH0 PUSH1 0x1F NOT PUSH1 0x1F DUP4 ADD AND SWAP1 POP SWAP2 SWAP1 POP JUMP JUMPDEST PUSH0 PUSH2 0x1E08 DUP3 PUSH2 0x1DC6 JUMP JUMPDEST PUSH2 0x1E12 DUP2 DUP6 PUSH2 0x1DD0 JUMP JUMPDEST SWAP4 POP PUSH2 0x1E22 DUP2 DUP6 PUSH1 0x20 DUP7 ADD PUSH2 0x1DE0 JUMP JUMPDEST PUSH2 0x1E2B DUP2 PUSH2 0x1DEE JUMP JUMPDEST DUP5 ADD SWAP2 POP POP SWAP3 SWAP2 POP POP JUMP JUMPDEST PUSH0 DUP2 MLOAD SWAP1 POP SWAP2 SWAP1 POP JUMP JUMPDEST PUSH0 DUP3 DUP3 MSTORE PUSH1 0x20 DUP3 ADD SWAP1 POP SWAP3 SWAP2 POP POP JUMP JUMPDEST PUSH0 DUP2 SWAP1 POP PUSH1 0x20 DUP3 ADD SWAP1 POP SWAP2 SWAP1 POP JUMP JUMPDEST PUSH0 PUSH20 0xFFFFFFFFFFFFFFFFFFFFFFFFFFFFFFFFFFFFFFFF DUP3 AND SWAP1 POP SWAP2 SWAP1 POP JUMP JUMPDEST PUSH0 PUSH2 0x1E88 DUP3 PUSH2 0x1E5F JUMP JUMPDEST SWAP1 POP SWAP2 SWAP1 POP JUMP JUMPDEST PUSH2 0x1E98 DUP2 PUSH2 0x1E7E JUMP JUMPDEST DUP3 MSTORE POP POP JUMP JUMPDEST PUSH0 PUSH2 0x1EA9 DUP4 DUP4 PUSH2 0x1E8F JUMP JUMPDEST PUSH1 0x20 DUP4 ADD SWAP1 POP SWAP3 SWAP2 POP POP JUMP JUMPDEST PUSH0 PUSH1 0x20 DUP3 ADD SWAP1 POP SWAP2 SWAP1 POP JUMP JUMPDEST PUSH0 PUSH2 0x1ECB DUP3 PUSH2 0x1E36 JUMP JUMPDEST PUSH2 0x1ED5 DUP2 DUP6 PUSH2 0x1E40 JUMP JUMPDEST SWAP4 POP PUSH2 0x1EE0 DUP4 PUSH2 0x1E50 JUMP JUMPDEST DUP1 PUSH0 JUMPDEST DUP4 DUP2 LT ISZERO PUSH2 0x1F10 JUMPI DUP2 MLOAD PUSH2 0x1EF7 DUP9 DUP3 PUSH2 0x1E9E JUMP JUMPDEST SWAP8 POP PUSH2 0x1F02 DUP4 PUSH2 0x1EB5 JUMP JUMPDEST SWAP3 POP POP PUSH1 0x1 DUP2 ADD SWAP1 POP PUSH2 0x1EE3 JUMP JUMPDEST POP DUP6 SWAP4 POP POP POP POP SWAP3 SWAP2 POP POP JUMP JUMPDEST PUSH0 PUSH1 0x40 DUP3 ADD SWAP1 POP DUP2 DUP2 SUB PUSH0 DUP4 ADD MSTORE PUSH2 0x1F35 DUP2 DUP6 PUSH2 0x1DFE JUMP JUMPDEST SWAP1 POP DUP2 DUP2 SUB PUSH1 0x20 DUP4 ADD MSTORE PUSH2 0x1F49 DUP2 DUP5 PUSH2 0x1EC1 JUMP JUMPDEST SWAP1 POP SWAP4 SWAP3 POP POP POP JUMP JUMPDEST PUSH0 DUP1 REVERT JUMPDEST PUSH2 0x1F5F DUP2 PUSH2 0x1D95 JUMP JUMPDEST DUP2 EQ PUSH2 0x1F69 JUMPI PUSH0 DUP1 REVERT JUMPDEST POP JUMP JUMPDEST PUSH0 DUP2 CALLDATALOAD SWAP1 POP PUSH2 0x1F7A DUP2 PUSH2 0x1F56 JUMP JUMPDEST SWAP3 SWAP2 POP POP JUMP JUMPDEST PUSH0 PUSH1 0x20 DUP3 DUP5 SUB SLT ISZERO PUSH2 0x1F95 JUMPI PUSH2 0x1F94 PUSH2 0x1F52 JUMP JUMPDEST JUMPDEST PUSH0 PUSH2 0x1FA2 DUP5 DUP3 DUP6 ADD PUSH2 0x1F6C JUMP JUMPDEST SWAP2 POP POP SWAP3 SWAP2 POP POP JUMP JUMPDEST PUSH0 PUSH1 0xFF DUP3 AND SWAP1 POP SWAP2 SWAP1 POP JUMP JUMPDEST PUSH2 0x1FC0 DUP2 PUSH2 0x1FAB JUMP JUMPDEST DUP3 MSTORE POP POP JUMP JUMPDEST PUSH0 PUSH1 0x20 DUP3 ADD SWAP1 POP PUSH2 0x1FD9 PUSH0 DUP4 ADD DUP5 PUSH2 0x1FB7 JUMP JUMPDEST SWAP3 SWAP2 POP POP JUMP JUMPDEST PUSH2 0x1FE8 DUP2 PUSH2 0x1E7E JUMP JUMPDEST DUP3 MSTORE POP POP JUMP JUMPDEST PUSH0 PUSH1 0x20 DUP3 ADD SWAP1 POP PUSH2 0x2001 PUSH0 DUP4 ADD DUP5 PUSH2 0x1FDF JUMP JUMPDEST SWAP3 SWAP2 POP POP JUMP JUMPDEST PUSH0 DUP2 MLOAD SWAP1 POP SWAP2 SWAP1 POP JUMP JUMPDEST PUSH0 DUP3 DUP3 MSTORE PUSH1 0x20 DUP3 ADD SWAP1 POP SWAP3 SWAP2 POP POP JUMP JUMPDEST PUSH0 DUP2 SWAP1 POP PUSH1 0x20 DUP3 ADD SWAP1 POP SWAP2 SWAP1 POP JUMP JUMPDEST PUSH0 DUP3 DUP3 MSTORE PUSH1 0x20 DUP3 ADD SWAP1 POP SWAP3 SWAP2 POP POP JUMP JUMPDEST PUSH0 PUSH2 0x204A DUP3 PUSH2 0x1DC6 JUMP JUMPDEST PUSH2 0x2054 DUP2 DUP6 PUSH2 0x2030 JUMP JUMPDEST SWAP4 POP PUSH2 0x2064 DUP2 DUP6 PUSH1 0x20 DUP7 ADD PUSH2 0x1DE0 JUMP JUMPDEST PUSH2 0x206D DUP2 PUSH2 0x1DEE JUMP JUMPDEST DUP5 ADD SWAP2 POP POP SWAP3 SWAP2 POP POP JUMP JUMPDEST PUSH0 PUSH2 0x2083 DUP4 DUP4 PUSH2 0x2040 JUMP JUMPDEST SWAP1 POP SWAP3 SWAP2 POP POP JUMP JUMPDEST PUSH0 PUSH1 0x20 DUP3 ADD SWAP1 POP SWAP2 SWAP1 POP JUMP JUMPDEST PUSH0 PUSH2 0x20A1 DUP3 PUSH2 0x2007 JUMP JUMPDEST PUSH2 0x20AB DUP2 DUP6 PUSH2 0x2011 JUMP JUMPDEST SWAP4 POP DUP4 PUSH1 0x20 DUP3 MUL DUP6 ADD PUSH2 0x20BD DUP6 PUSH2 0x2021 JUMP JUMPDEST DUP1 PUSH0 JUMPDEST DUP6 DUP2 LT ISZERO PUSH2 0x20F8 JUMPI DUP5 DUP5 SUB DUP10 MSTORE DUP2 MLOAD PUSH2 0x20D9 DUP6 DUP3 PUSH2 0x2078 JUMP JUMPDEST SWAP5 POP PUSH2 0x20E4 DUP4 PUSH2 0x208B JUMP JUMPDEST SWAP3 POP PUSH1 0x20 DUP11 ADD SWAP10 POP POP PUSH1 0x1 DUP2 ADD SWAP1 POP PUSH2 0x20C0 JUMP JUMPDEST POP DUP3 SWAP8 POP DUP8 SWAP6 POP POP POP POP POP POP SWAP3 SWAP2 POP POP JUMP JUMPDEST PUSH0 PUSH1 0x20 DUP3 ADD SWAP1 POP DUP2 DUP2 SUB PUSH0 DUP4 ADD MSTORE PUSH2 0x2122 DUP2 DUP5 PUSH2 0x2097 JUMP JUMPDEST SWAP1 POP SWAP3 SWAP2 POP POP JUMP JUMPDEST PUSH0 DUP2 ISZERO ISZERO SWAP1 POP SWAP2 SWAP1 POP JUMP JUMPDEST PUSH2 0x213E DUP2 PUSH2 0x212A JUMP JUMPDEST DUP3 MSTORE POP POP JUMP JUMPDEST PUSH0 PUSH1 0x80 DUP3 ADD SWAP1 POP PUSH2 0x2157 PUSH0 DUP4 ADD DUP8 PUSH2 0x1FDF JUMP JUMPDEST PUSH2 0x2164 PUSH1 0x20 DUP4 ADD DUP7 PUSH2 0x1D9E JUMP JUMPDEST PUSH2 0x2171 PUSH1 0x40 DUP4 ADD DUP6 PUSH2 0x2135 JUMP JUMPDEST PUSH2 0x217E PUSH1 0x60 DUP4 ADD DUP5 PUSH2 0x2135 JUMP JUMPDEST SWAP6 SWAP5 POP POP POP POP POP JUMP JUMPDEST PUSH32 0x596F7520617265206E6F74206120706C61796572000000000000000000000000 PUSH0 DUP3 ADD MSTORE POP JUMP JUMPDEST PUSH0 PUSH2 0x21BB PUSH1 0x14 DUP4 PUSH2 0x1DD0 JUMP JUMPDEST SWAP2 POP PUSH2 0x21C6 DUP3 PUSH2 0x2187 JUMP JUMPDEST PUSH1 0x20 DUP3 ADD SWAP1 POP SWAP2 SWAP1 POP JUMP JUMPDEST PUSH0 PUSH1 0x20 DUP3 ADD SWAP1 POP DUP2 DUP2 SUB PUSH0 DUP4 ADD MSTORE PUSH2 0x21E8 DUP2 PUSH2 0x21AF JUMP JUMPDEST SWAP1 POP SWAP2 SWAP1 POP JUMP JUMPDEST PUSH32 0x4E487B7100000000000000000000000000000000000000000000000000000000 PUSH0 MSTORE PUSH1 0x32 PUSH1 0x4 MSTORE PUSH1 0x24 PUSH0 REVERT JUMPDEST PUSH32 0x506C61796572206973206E6F7420616374697665000000000000000000000000 PUSH0 DUP3 ADD MSTORE POP JUMP JUMPDEST PUSH0 PUSH2 0x2250 PUSH1 0x14 DUP4 PUSH2 0x1DD0 JUMP JUMPDEST SWAP2 POP PUSH2 0x225B DUP3 PUSH2 0x221C JUMP JUMPDEST PUSH1 0x20 DUP3 ADD SWAP1 POP SWAP2 SWAP1 POP JUMP JUMPDEST PUSH0 PUSH1 0x20 DUP3 ADD SWAP1 POP DUP2 DUP2 SUB PUSH0 DUP4 ADD MSTORE PUSH2 0x227D DUP2 PUSH2 0x2244 JUMP JUMPDEST SWAP1 POP SWAP2 SWAP1 POP JUMP JUMPDEST PUSH32 0x506C6179657220697320616C7265616479206275737465640000000000000000 PUSH0 DUP3 ADD MSTORE POP JUMP JUMPDEST PUSH0 PUSH2 0x22B8 PUSH1 0x18 DUP4 PUSH2 0x1DD0 JUMP JUMPDEST SWAP2 POP PUSH2 0x22C3 DUP3 PUSH2 0x2284 JUMP JUMPDEST PUSH1 0x20 DUP3 ADD SWAP1 POP SWAP2 SWAP1 POP JUMP JUMPDEST PUSH0 PUSH1 0x20 DUP3 ADD SWAP1 POP DUP2 DUP2 SUB PUSH0 DUP4 ADD MSTORE PUSH2 0x22E5 DUP2 PUSH2 0x22AC JUMP JUMPDEST SWAP1 POP SWAP2 SWAP1 POP JUMP JUMPDEST PUSH32 0x4E487B7100000000000000000000000000000000000000000000000000000000 PUSH0 MSTORE PUSH1 0x11 PUSH1 0x4 MSTORE PUSH1 0x24 PUSH0 REVERT JUMPDEST PUSH0 PUSH2 0x2323 DUP3 PUSH2 0x1D95 JUMP JUMPDEST SWAP2 POP PUSH2 0x232E DUP4 PUSH2 0x1D95 JUMP JUMPDEST SWAP3 POP DUP3 DUP3 MUL PUSH2 0x233C DUP2 PUSH2 0x1D95 JUMP JUMPDEST SWAP2 POP DUP3 DUP3 DIV DUP5 EQ DUP4 ISZERO OR PUSH2 0x2353 JUMPI PUSH2 0x2352 PUSH2 0x22EC JUMP JUMPDEST JUMPDEST POP SWAP3 SWAP2 POP POP JUMP JUMPDEST PUSH0 PUSH1 0x40 DUP3 ADD SWAP1 POP PUSH2 0x236D PUSH0 DUP4 ADD DUP6 PUSH2 0x1FDF JUMP JUMPDEST PUSH2 0x237A PUSH1 0x20 DUP4 ADD DUP5 PUSH2 0x1FB7 JUMP JUMPDEST SWAP4 SWAP3 POP POP POP JUMP JUMPDEST PUSH32 0x4E6F7420796F7572207475726E00000000000000000000000000000000000000 PUSH0 DUP3 ADD MSTORE POP JUMP JUMPDEST PUSH0 PUSH2 0x23B5 PUSH1 0xD DUP4 PUSH2 0x1DD0 JUMP JUMPDEST SWAP2 POP PUSH2 0x23C0 DUP3 PUSH2 0x2381 JUMP JUMPDEST PUSH1 0x20 DUP3 ADD SWAP1 POP SWAP2 SWAP1 POP JUMP JUMPDEST PUSH0 PUSH1 0x20 DUP3 ADD SWAP1 POP DUP2 DUP2 SUB PUSH0 DUP4 ADD MSTORE PUSH2 0x23E2 DUP2 PUSH2 0x23A9 JUMP JUMPDEST SWAP1 POP SWAP2 SWAP1 POP JUMP JUMPDEST PUSH0 PUSH2 0x23F3 DUP3 PUSH2 0x1D95 JUMP JUMPDEST SWAP2 POP PUSH2 0x23FE DUP4 PUSH2 0x1D95 JUMP JUMPDEST SWAP3 POP DUP3 DUP3 ADD SWAP1 POP DUP1 DUP3 GT ISZERO PUSH2 0x2416 JUMPI PUSH2 0x2415 PUSH2 0x22EC JUMP JUMPDEST JUMPDEST SWAP3 SWAP2 POP POP JUMP JUMPDEST PUSH32 0x4E487B7100000000000000000000000000000000000000000000000000000000 PUSH0 MSTORE PUSH1 0x41 PUSH1 0x4 MSTORE PUSH1 0x24 PUSH0 REVERT JUMPDEST PUSH0 DUP2 SWAP1 POP SWAP3 SWAP2 POP POP JUMP JUMPDEST PUSH32 0x506C617965722000000000000000000000000000000000000000000000000000 PUSH0 DUP3 ADD MSTORE POP JUMP JUMPDEST PUSH0 PUSH2 0x2487 PUSH1 0x7 DUP4 PUSH2 0x2449 JUMP JUMPDEST SWAP2 POP PUSH2 0x2492 DUP3 PUSH2 0x2453 JUMP JUMPDEST PUSH1 0x7 DUP3 ADD SWAP1 POP SWAP2 SWAP1 POP JUMP JUMPDEST PUSH0 PUSH2 0x24A7 DUP3 PUSH2 0x1DC6 JUMP JUMPDEST PUSH2 0x24B1 DUP2 DUP6 PUSH2 0x2449 JUMP JUMPDEST SWAP4 POP PUSH2 0x24C1 DUP2 DUP6 PUSH1 0x20 DUP7 ADD PUSH2 0x1DE0 JUMP JUMPDEST DUP1 DUP5 ADD SWAP2 POP POP SWAP3 SWAP2 POP POP JUMP JUMPDEST PUSH32 0x3A20000000000000000000000000000000000000000000000000000000000000 PUSH0 DUP3 ADD MSTORE POP JUMP JUMPDEST PUSH0 PUSH2 0x2501 PUSH1 0x2 DUP4 PUSH2 0x2449 JUMP JUMPDEST SWAP2 POP PUSH2 0x250C DUP3 PUSH2 0x24CD JUMP JUMPDEST PUSH1 0x2 DUP3 ADD SWAP1 POP SWAP2 SWAP1 POP JUMP JUMPDEST PUSH0 PUSH2 0x2521 DUP3 PUSH2 0x247B JUMP JUMPDEST SWAP2 POP PUSH2 0x252D DUP3 DUP5 PUSH2 0x249D JUMP JUMPDEST SWAP2 POP PUSH2 0x2538 DUP3 PUSH2 0x24F5 JUMP JUMPDEST SWAP2 POP DUP2 SWAP1 POP SWAP3 SWAP2 POP POP JUMP JUMPDEST PUSH32 0x4E6F20706C617965727320696E207468652067616D6500000000000000000000 PUSH0 DUP3 ADD MSTORE POP JUMP JUMPDEST PUSH0 PUSH2 0x2577 PUSH1 0x16 DUP4 PUSH2 0x1DD0 JUMP JUMPDEST SWAP2 POP PUSH2 0x2582 DUP3 PUSH2 0x2543 JUMP JUMPDEST PUSH1 0x20 DUP3 ADD SWAP1 POP SWAP2 SWAP1 POP JUMP JUMPDEST PUSH0 PUSH1 0x20 DUP3 ADD SWAP1 POP DUP2 DUP2 SUB PUSH0 DUP4 ADD MSTORE PUSH2 0x25A4 DUP2 PUSH2 0x256B JUMP JUMPDEST SWAP1 POP SWAP2 SWAP1 POP JUMP JUMPDEST PUSH32 0x4D6178203420706C617965727320616C6C6F7765640000000000000000000000 PUSH0 DUP3 ADD MSTORE POP JUMP JUMPDEST PUSH0 PUSH2 0x25DF PUSH1 0x15 DUP4 PUSH2 0x1DD0 JUMP JUMPDEST SWAP2 POP PUSH2 0x25EA DUP3 PUSH2 0x25AB JUMP JUMPDEST PUSH1 0x20 DUP3 ADD SWAP1 POP SWAP2 SWAP1 POP JUMP JUMPDEST PUSH0 PUSH1 0x20 DUP3 ADD SWAP1 POP DUP2 DUP2 SUB PUSH0 DUP4 ADD MSTORE PUSH2 0x260C DUP2 PUSH2 0x25D3 JUMP JUMPDEST SWAP1 POP SWAP2 SWAP1 POP JUMP JUMPDEST PUSH32 0x42657420616D6F756E74206D69736D6174636800000000000000000000000000 PUSH0 DUP3 ADD MSTORE POP JUMP JUMPDEST PUSH0 PUSH2 0x2647 PUSH1 0x13 DUP4 PUSH2 0x1DD0 JUMP JUMPDEST SWAP2 POP PUSH2 0x2652 DUP3 PUSH2 0x2613 JUMP JUMPDEST PUSH1 0x20 DUP3 ADD SWAP1 POP SWAP2 SWAP1 POP JUMP JUMPDEST PUSH0 PUSH1 0x20 DUP3 ADD SWAP1 POP DUP2 DUP2 SUB PUSH0 DUP4 ADD MSTORE PUSH2 0x2674 DUP2 PUSH2 0x263B JUMP JUMPDEST SWAP1 POP SWAP2 SWAP1 POP JUMP JUMPDEST PUSH0 PUSH2 0x2685 DUP3 PUSH2 0x1D95 JUMP JUMPDEST SWAP2 POP PUSH32 0xFFFFFFFFFFFFFFFFFFFFFFFFFFFFFFFFFFFFFFFFFFFFFFFFFFFFFFFFFFFFFFFF DUP3 SUB PUSH2 0x26B7 JUMPI PUSH2 0x26B6 PUSH2 0x22EC JUMP JUMPDEST JUMPDEST PUSH1 0x1 DUP3 ADD SWAP1 POP SWAP2 SWAP1 POP JUMP JUMPDEST PUSH32 0x4E6F206361726473206C65667420696E20746865206465636B00000000000000 PUSH0 DUP3 ADD MSTORE POP JUMP JUMPDEST PUSH0 PUSH2 0x26F6 PUSH1 0x19 DUP4 PUSH2 0x1DD0 JUMP JUMPDEST SWAP2 POP PUSH2 0x2701 DUP3 PUSH2 0x26C2 JUMP JUMPDEST PUSH1 0x20 DUP3 ADD SWAP1 POP SWAP2 SWAP1 POP JUMP JUMPDEST PUSH0 PUSH1 0x20 DUP3 ADD SWAP1 POP DUP2 DUP2 SUB PUSH0 DUP4 ADD MSTORE PUSH2 0x2723 DUP2 PUSH2 0x26EA JUMP JUMPDEST SWAP1 POP SWAP2 SWAP1 POP JUMP JUMPDEST PUSH0 PUSH2 0x2734 DUP3 PUSH2 0x1D95 JUMP JUMPDEST SWAP2 POP PUSH2 0x273F DUP4 PUSH2 0x1D95 JUMP JUMPDEST SWAP3 POP DUP3 DUP3 SUB SWAP1 POP DUP2 DUP2 GT ISZERO PUSH2 0x2757 JUMPI PUSH2 0x2756 PUSH2 0x22EC JUMP JUMPDEST JUMPDEST SWAP3 SWAP2 POP POP JUMP JUMPDEST PUSH32 0x4E487B7100000000000000000000000000000000000000000000000000000000 PUSH0 MSTORE PUSH1 0x31 PUSH1 0x4 MSTORE PUSH1 0x24 PUSH0 REVERT JUMPDEST PUSH32 0x4E487B7100000000000000000000000000000000000000000000000000000000 PUSH0 MSTORE PUSH1 0x12 PUSH1 0x4 MSTORE PUSH1 0x24 PUSH0 REVERT JUMPDEST PUSH0 PUSH2 0x27C1 DUP3 PUSH2 0x1FAB JUMP JUMPDEST SWAP2 POP PUSH2 0x27CC DUP4 PUSH2 0x1FAB JUMP JUMPDEST SWAP3 POP DUP3 PUSH2 0x27DC JUMPI PUSH2 0x27DB PUSH2 0x278A JUMP JUMPDEST JUMPDEST DUP3 DUP3 MOD SWAP1 POP SWAP3 SWAP2 POP POP JUMP JUMPDEST PUSH0 PUSH2 0x27F1 DUP3 PUSH2 0x1FAB JUMP JUMPDEST SWAP2 POP PUSH1 0xFF DUP3 SUB PUSH2 0x2804 JUMPI PUSH2 0x2803 PUSH2 0x22EC JUMP JUMPDEST JUMPDEST PUSH1 0x1 DUP3 ADD SWAP1 POP SWAP2 SWAP1 POP JUMP JUMPDEST PUSH0 PUSH2 0x2819 DUP3 PUSH2 0x1FAB JUMP JUMPDEST SWAP2 POP PUSH2 0x2824 DUP4 PUSH2 0x1FAB JUMP JUMPDEST SWAP3 POP DUP3 DUP3 ADD SWAP1 POP PUSH1 0xFF DUP2 GT ISZERO PUSH2 0x283D JUMPI PUSH2 0x283C PUSH2 0x22EC JUMP JUMPDEST JUMPDEST SWAP3 SWAP2 POP POP JUMP JUMPDEST PUSH0 PUSH2 0x284D DUP3 PUSH2 0x1FAB JUMP JUMPDEST SWAP2 POP PUSH0 DUP3 SUB PUSH2 0x285F JUMPI PUSH2 0x285E PUSH2 0x22EC JUMP JUMPDEST JUMPDEST PUSH1 0x1 DUP3 SUB SWAP1 POP SWAP2 SWAP1 POP JUMP JUMPDEST PUSH0 PUSH2 0x2875 DUP3 DUP6 PUSH2 0x249D JUMP JUMPDEST SWAP2 POP PUSH2 0x2881 DUP3 DUP5 PUSH2 0x249D JUMP JUMPDEST SWAP2 POP DUP2 SWAP1 POP SWAP4 SWAP3 POP POP POP JUMP JUMPDEST PUSH32 0x2C20000000000000000000000000000000000000000000000000000000000000 PUSH0 DUP3 ADD MSTORE POP JUMP JUMPDEST PUSH0 PUSH2 0x28C1 PUSH1 0x2 DUP4 PUSH2 0x2449 JUMP JUMPDEST SWAP2 POP PUSH2 0x28CC DUP3 PUSH2 0x288D JUMP JUMPDEST PUSH1 0x2 DUP3 ADD SWAP1 POP SWAP2 SWAP1 POP JUMP JUMPDEST PUSH0 PUSH2 0x28E2 DUP3 DUP5 PUSH2 0x249D JUMP JUMPDEST SWAP2 POP PUSH2 0x28ED DUP3 PUSH2 0x28B5 JUMP JUMPDEST SWAP2 POP DUP2 SWAP1 POP SWAP3 SWAP2 POP POP JUMP JUMPDEST PUSH0 PUSH2 0x2902 DUP3 PUSH2 0x1D95 JUMP JUMPDEST SWAP2 POP PUSH2 0x290D DUP4 PUSH2 0x1D95 JUMP JUMPDEST SWAP3 POP DUP3 PUSH2 0x291D JUMPI PUSH2 0x291C PUSH2 0x278A JUMP JUMPDEST JUMPDEST DUP3 DUP3 DIV SWAP1 POP SWAP3 SWAP2 POP POP JUMP JUMPDEST PUSH0 PUSH2 0x2932 DUP3 PUSH2 0x1D95 JUMP JUMPDEST SWAP2 POP PUSH2 0x293D DUP4 PUSH2 0x1D95 JUMP JUMPDEST SWAP3 POP DUP3 PUSH2 0x294D JUMPI PUSH2 0x294C PUSH2 0x278A JUMP JUMPDEST JUMPDEST DUP3 DUP3 MOD SWAP1 POP SWAP3 SWAP2 POP POP JUMP JUMPDEST PUSH0 PUSH2 0x2962 DUP3 PUSH2 0x1D95 JUMP JUMPDEST SWAP2 POP PUSH0 DUP3 SUB PUSH2 0x2974 JUMPI PUSH2 0x2973 PUSH2 0x22EC JUMP JUMPDEST JUMPDEST PUSH1 0x1 DUP3 SUB SWAP1 POP SWAP2 SWAP1 POP JUMP JUMPDEST PUSH0 DUP2 SWAP1 POP SWAP2 SWAP1 POP JUMP JUMPDEST PUSH2 0x2999 PUSH2 0x2994 DUP3 PUSH2 0x1D95 JUMP JUMPDEST PUSH2 0x297F JUMP JUMPDEST DUP3 MSTORE POP POP JUMP JUMPDEST PUSH0 DUP2 SWAP1 POP SWAP2 SWAP1 POP JUMP JUMPDEST PUSH0 DUP2 SWAP1 POP SWAP2 SWAP1 POP JUMP JUMPDEST PUSH2 0x29C2 PUSH2 0x29BD DUP3 PUSH2 0x299F JUMP JUMPDEST PUSH2 0x29A8 JUMP JUMPDEST DUP3 MSTORE POP POP JUMP JUMPDEST PUSH0 PUSH2 0x29D3 DUP3 DUP7 PUSH2 0x2988 JUMP JUMPDEST PUSH1 0x20 DUP3 ADD SWAP2 POP PUSH2 0x29E3 DUP3 DUP6 PUSH2 0x2988 JUMP JUMPDEST PUSH1 0x20 DUP3 ADD SWAP2 POP PUSH2 0x29F3 DUP3 DUP5 PUSH2 0x29B1 JUMP JUMPDEST PUSH1 0x20 DUP3 ADD SWAP2 POP DUP2 SWAP1 POP SWAP5 SWAP4 POP POP POP POP JUMP JUMPDEST PUSH0 PUSH2 0x2A0F DUP3 DUP5 PUSH2 0x2988 JUMP JUMPDEST PUSH1 0x20 DUP3 ADD SWAP2 POP DUP2 SWAP1 POP SWAP3 SWAP2 POP POP JUMP INVALID LOG2 PUSH5 0x6970667358 0x22 SLT KECCAK256 SWAP3 CALLDATALOAD PUSH14 0x7C78705BC580C21643CA70E7EAEA 0xD 0xBD 0xDB 0xC PUSH10 0xE795D74521B05083C6B PUSH5 0x736F6C6343 STOP ADDMOD BYTE STOP CALLER "
				},
				"gasEstimates": {
					"creation": {
						"codeDepositCost": "2167200",
						"executionCost": "infinite",
						"totalCost": "infinite"
					},
					"external": {
						"bank()": "2619",
						"bankHand(uint256)": "6620",
						"determineWinner()": "infinite",
						"getAllHandsFormatted()": "infinite",
						"hit()": "infinite",
						"joinGame(uint256)": "infinite",
						"lastBankHand(uint256)": "6598",
						"lastWinners(uint256)": "4966",
						"playerCount()": "2448",
						"players(uint256)": "infinite",
						"stand(uint256)": "31224",
						"startGame()": "infinite"
					},
					"internal": {
						"findPlayerIndex(address)": "infinite",
						"formatHand(uint8[] memory,string memory)": "infinite",
						"formatWinners(address[] memory)": "infinite",
						"resetGame()": "infinite",
						"uint2str(uint256)": "infinite"
					}
				},
				"methodIdentifiers": {
					"bank()": "76cdb03b",
					"bankHand(uint256)": "70a88f84",
					"determineWinner()": "33b16d93",
					"getAllHandsFormatted()": "b984354a",
					"hit()": "2ae3594a",
					"joinGame(uint256)": "efaa55a0",
					"lastBankHand(uint256)": "4fdd055b",
					"lastWinners(uint256)": "adda2c2e",
					"playerCount()": "302bcc57",
					"players(uint256)": "f71d96cb",
					"stand(uint256)": "96b76c23",
					"startGame()": "d65ab5f2"
				}
			},
			"storageLayout": {
				"storage": [
					{
						"astId": 4,
						"contract": "test.sol:Blackjack",
						"label": "deck",
						"offset": 0,
						"slot": "0",
						"type": "t_array(t_uint8)dyn_storage"
					},
					{
						"astId": 279,
						"contract": "test.sol:Blackjack",
						"label": "players",
						"offset": 0,
						"slot": "1",
						"type": "t_array(t_struct(Player)275_storage)dyn_storage"
					},
					{
						"astId": 281,
						"contract": "test.sol:Blackjack",
						"label": "playerCount",
						"offset": 0,
						"slot": "2",
						"type": "t_uint256"
					},
					{
						"astId": 284,
						"contract": "test.sol:Blackjack",
						"label": "bankHand",
						"offset": 0,
						"slot": "3",
						"type": "t_array(t_uint8)dyn_storage"
					},
					{
						"astId": 286,
						"contract": "test.sol:Blackjack",
						"label": "bank",
						"offset": 0,
						"slot": "4",
						"type": "t_address"
					},
					{
						"astId": 289,
						"contract": "test.sol:Blackjack",
						"label": "lastBankHand",
						"offset": 0,
						"slot": "5",
						"type": "t_array(t_uint8)dyn_storage"
					},
					{
						"astId": 292,
						"contract": "test.sol:Blackjack",
						"label": "lastWinners",
						"offset": 0,
						"slot": "6",
						"type": "t_array(t_address)dyn_storage"
					}
				],
				"types": {
					"t_address": {
						"encoding": "inplace",
						"label": "address",
						"numberOfBytes": "20"
					},
					"t_array(t_address)dyn_storage": {
						"base": "t_address",
						"encoding": "dynamic_array",
						"label": "address[]",
						"numberOfBytes": "32"
					},
					"t_array(t_struct(Player)275_storage)dyn_storage": {
						"base": "t_struct(Player)275_storage",
						"encoding": "dynamic_array",
						"label": "struct Blackjack.Player[]",
						"numberOfBytes": "32"
					},
					"t_array(t_uint8)dyn_storage": {
						"base": "t_uint8",
						"encoding": "dynamic_array",
						"label": "uint8[]",
						"numberOfBytes": "32"
					},
					"t_bool": {
						"encoding": "inplace",
						"label": "bool",
						"numberOfBytes": "1"
					},
					"t_struct(Player)275_storage": {
						"encoding": "inplace",
						"label": "struct Blackjack.Player",
						"members": [
							{
								"astId": 265,
								"contract": "test.sol:Blackjack",
								"label": "addr",
								"offset": 0,
								"slot": "0",
								"type": "t_address"
							},
							{
								"astId": 267,
								"contract": "test.sol:Blackjack",
								"label": "bet",
								"offset": 0,
								"slot": "1",
								"type": "t_uint256"
							},
							{
								"astId": 270,
								"contract": "test.sol:Blackjack",
								"label": "hand",
								"offset": 0,
								"slot": "2",
								"type": "t_array(t_uint8)dyn_storage"
							},
							{
								"astId": 272,
								"contract": "test.sol:Blackjack",
								"label": "isActive",
								"offset": 0,
								"slot": "3",
								"type": "t_bool"
							},
							{
								"astId": 274,
								"contract": "test.sol:Blackjack",
								"label": "isBusted",
								"offset": 1,
								"slot": "3",
								"type": "t_bool"
							}
						],
						"numberOfBytes": "128"
					},
					"t_uint256": {
						"encoding": "inplace",
						"label": "uint256",
						"numberOfBytes": "32"
					},
					"t_uint8": {
						"encoding": "inplace",
						"label": "uint8",
						"numberOfBytes": "1"
					}
				}
			},
			"userdoc": {
				"kind": "user",
				"methods": {},
				"version": 1
			}
		}
	}
}