{
	"Blackjack.sol": {
		"Blackjack": {
			"abi": [
				{
					"inputs": [],
					"stateMutability": "nonpayable",
					"type": "constructor"
				},
				{
					"anonymous": false,
					"inputs": [
						{
							"indexed": false,
							"internalType": "uint8",
							"name": "card",
							"type": "uint8"
						}
					],
					"name": "BankCardDrawn",
					"type": "event"
				},
				{
					"anonymous": false,
					"inputs": [
						{
							"indexed": false,
							"internalType": "address",
							"name": "winner",
							"type": "address"
						},
						{
							"indexed": false,
							"internalType": "uint8",
							"name": "score",
							"type": "uint8"
						}
					],
					"name": "GameResult",
					"type": "event"
				},
				{
					"inputs": [],
					"name": "bank",
					"outputs": [
						{
							"internalType": "address",
							"name": "",
							"type": "address"
						}
					],
					"stateMutability": "view",
					"type": "function"
				},
				{
					"inputs": [
						{
							"internalType": "uint256",
							"name": "",
							"type": "uint256"
						}
					],
					"name": "bankHand",
					"outputs": [
						{
							"internalType": "uint8",
							"name": "",
							"type": "uint8"
						}
					],
					"stateMutability": "view",
					"type": "function"
				},
				{
					"inputs": [],
					"name": "determineWinner",
					"outputs": [
						{
							"internalType": "string",
							"name": "",
							"type": "string"
						},
						{
							"internalType": "address[]",
							"name": "",
							"type": "address[]"
						}
					],
					"stateMutability": "nonpayable",
					"type": "function"
				},
				{
					"inputs": [],
					"name": "formattedLastBankHand",
					"outputs": [
						{
							"internalType": "string",
							"name": "",
							"type": "string"
						}
					],
					"stateMutability": "view",
					"type": "function"
				},
				{
					"inputs": [],
					"name": "formattedLastWinners",
					"outputs": [
						{
							"internalType": "string",
							"name": "",
							"type": "string"
						}
					],
					"stateMutability": "view",
					"type": "function"
				},
				{
					"inputs": [],
					"name": "getAllHandsFormatted",
					"outputs": [
						{
							"internalType": "string[]",
							"name": "",
							"type": "string[]"
						}
					],
					"stateMutability": "view",
					"type": "function"
				},
				{
					"inputs": [
						{
							"internalType": "uint256",
							"name": "playerIndex",
							"type": "uint256"
						}
					],
					"name": "hit",
					"outputs": [],
					"stateMutability": "nonpayable",
					"type": "function"
				},
				{
					"inputs": [
						{
							"internalType": "uint256",
							"name": "bet",
							"type": "uint256"
						}
					],
					"name": "joinGame",
					"outputs": [],
					"stateMutability": "payable",
					"type": "function"
				},
				{
					"inputs": [
						{
							"internalType": "uint256",
							"name": "",
							"type": "uint256"
						}
					],
					"name": "lastBankHand",
					"outputs": [
						{
							"internalType": "uint8",
							"name": "",
							"type": "uint8"
						}
					],
					"stateMutability": "view",
					"type": "function"
				},
				{
					"inputs": [
						{
							"internalType": "uint256",
							"name": "",
							"type": "uint256"
						}
					],
					"name": "lastWinners",
					"outputs": [
						{
							"internalType": "address",
							"name": "",
							"type": "address"
						}
					],
					"stateMutability": "view",
					"type": "function"
				},
				{
					"inputs": [],
					"name": "playerCount",
					"outputs": [
						{
							"internalType": "uint256",
							"name": "",
							"type": "uint256"
						}
					],
					"stateMutability": "view",
					"type": "function"
				},
				{
					"inputs": [
						{
							"internalType": "uint256",
							"name": "",
							"type": "uint256"
						}
					],
					"name": "players",
					"outputs": [
						{
							"internalType": "address",
							"name": "addr",
							"type": "address"
						},
						{
							"internalType": "uint256",
							"name": "bet",
							"type": "uint256"
						},
						{
							"internalType": "bool",
							"name": "isActive",
							"type": "bool"
						},
						{
							"internalType": "bool",
							"name": "isBusted",
							"type": "bool"
						}
					],
					"stateMutability": "view",
					"type": "function"
				},
				{
					"inputs": [
						{
							"internalType": "uint256",
							"name": "playerIndex",
							"type": "uint256"
						}
					],
					"name": "stand",
					"outputs": [],
					"stateMutability": "nonpayable",
					"type": "function"
				},
				{
					"inputs": [],
					"name": "startGame",
					"outputs": [],
					"stateMutability": "nonpayable",
					"type": "function"
				}
			],
			"devdoc": {
				"kind": "dev",
				"methods": {},
				"version": 1
			},
			"evm": {
				"assembly": "    /* \"Blackjack.sol\":153:7824  contract Blackjack is CardDeck, Randomness {... */\n  mstore(0x40, 0x80)\n    /* \"Blackjack.sol\":635:738  constructor() {... */\n  callvalue\n  dup1\n  iszero\n  tag_1\n  jumpi\n  0x00\n  dup1\n  revert\ntag_1:\n  pop\n    /* \"CardDeck.sol\":140:151  resetDeck() */\n  tag_5\n    /* \"CardDeck.sol\":140:149  resetDeck */\n  shl(0x20, tag_6)\n    /* \"CardDeck.sol\":140:151  resetDeck() */\n  0x20\n  shr\n  jump\t// in\ntag_5:\n    /* \"Blackjack.sol\":667:677  msg.sender */\n  caller\n    /* \"Blackjack.sol\":660:664  bank */\n  0x04\n  0x00\n    /* \"Blackjack.sol\":660:677  bank = msg.sender */\n  0x0100\n  exp\n  dup2\n  sload\n  dup2\n  0xffffffffffffffffffffffffffffffffffffffff\n  mul\n  not\n  and\n  swap1\n  dup4\n  0xffffffffffffffffffffffffffffffffffffffff\n  and\n  mul\n  or\n  swap1\n  sstore\n  pop\n    /* \"Blackjack.sol\":153:7824  contract Blackjack is CardDeck, Randomness {... */\n  jump(tag_8)\n    /* \"CardDeck.sol\":167:361  function resetDeck() internal {... */\ntag_6:\n    /* \"CardDeck.sol\":215:219  deck */\n  0x00\n  dup1\n    /* \"CardDeck.sol\":208:219  delete deck */\n  tag_10\n  swap2\n  swap1\n  tag_11\n  jump\t// in\ntag_10:\n    /* \"CardDeck.sol\":253:260  uint8 i */\n  0x00\n    /* \"CardDeck.sol\":263:264  1 */\n  0x01\n    /* \"CardDeck.sol\":253:264  uint8 i = 1 */\n  swap1\n  pop\n    /* \"CardDeck.sol\":248:354  for (uint8 i = 1; i <= 52; i++) {... */\ntag_12:\n    /* \"CardDeck.sol\":271:273  52 */\n  0x34\n    /* \"CardDeck.sol\":266:267  i */\n  dup2\n    /* \"CardDeck.sol\":266:273  i <= 52 */\n  0xff\n  and\n  gt\n    /* \"CardDeck.sol\":248:354  for (uint8 i = 1; i <= 52; i++) {... */\n  tag_13\n  jumpi\n    /* \"CardDeck.sol\":295:299  deck */\n  0x00\n    /* \"CardDeck.sol\":305:306  i */\n  dup2\n    /* \"CardDeck.sol\":295:307  deck.push(i) */\n  swap1\n  dup1\n  0x01\n  dup2\n  sload\n  add\n  dup1\n  dup3\n  sstore\n  dup1\n  swap2\n  pop\n  pop\n  0x01\n  swap1\n  sub\n  swap1\n  0x00\n  mstore\n  keccak256(0x00, 0x20)\n  swap1\n  0x20\n  swap2\n  dup3\n  dup3\n  div\n  add\n  swap2\n  swap1\n  mod\n  swap1\n  swap2\n  swap1\n  swap2\n  swap1\n  swap2\n  0x0100\n  exp\n  dup2\n  sload\n  dup2\n  0xff\n  mul\n  not\n  and\n  swap1\n  dup4\n  0xff\n  and\n  mul\n  or\n  swap1\n  sstore\n  pop\n    /* \"CardDeck.sol\":275:278  i++ */\n  dup1\n  dup1\n  tag_16\n  swap1\n  tag_17\n  jump\t// in\ntag_16:\n  swap2\n  pop\n  pop\n    /* \"CardDeck.sol\":248:354  for (uint8 i = 1; i <= 52; i++) {... */\n  jump(tag_12)\ntag_13:\n  pop\n    /* \"CardDeck.sol\":167:361  function resetDeck() internal {... */\n  jump\t// out\n    /* \"Blackjack.sol\":153:7824  contract Blackjack is CardDeck, Randomness {... */\ntag_11:\n  pop\n  dup1\n  sload\n  0x00\n  dup3\n  sstore\n  0x1f\n  add\n  0x20\n  swap1\n  div\n  swap1\n  0x00\n  mstore\n  keccak256(0x00, 0x20)\n  swap1\n  dup2\n  add\n  swap1\n  tag_19\n  swap2\n  swap1\n  tag_20\n  jump\t// in\ntag_19:\n  pop\n  jump\t// out\ntag_20:\ntag_21:\n  dup1\n  dup3\n  gt\n  iszero\n  tag_22\n  jumpi\n  0x00\n  dup2\n  0x00\n  swap1\n  sstore\n  pop\n  0x01\n  add\n  jump(tag_21)\ntag_22:\n  pop\n  swap1\n  jump\t// out\n    /* \"#utility.yul\":7:187   */\ntag_23:\n    /* \"#utility.yul\":55:132   */\n  0x4e487b7100000000000000000000000000000000000000000000000000000000\n    /* \"#utility.yul\":52:53   */\n  0x00\n    /* \"#utility.yul\":45:133   */\n  mstore\n    /* \"#utility.yul\":152:156   */\n  0x11\n    /* \"#utility.yul\":149:150   */\n  0x04\n    /* \"#utility.yul\":142:157   */\n  mstore\n    /* \"#utility.yul\":176:180   */\n  0x24\n    /* \"#utility.yul\":173:174   */\n  0x00\n    /* \"#utility.yul\":166:181   */\n  revert\n    /* \"#utility.yul\":193:279   */\ntag_24:\n    /* \"#utility.yul\":228:235   */\n  0x00\n    /* \"#utility.yul\":268:272   */\n  0xff\n    /* \"#utility.yul\":261:266   */\n  dup3\n    /* \"#utility.yul\":257:273   */\n  and\n    /* \"#utility.yul\":246:273   */\n  swap1\n  pop\n    /* \"#utility.yul\":193:279   */\n  swap2\n  swap1\n  pop\n  jump\t// out\n    /* \"#utility.yul\":285:452   */\ntag_17:\n    /* \"#utility.yul\":322:325   */\n  0x00\n    /* \"#utility.yul\":345:367   */\n  tag_29\n    /* \"#utility.yul\":361:366   */\n  dup3\n    /* \"#utility.yul\":345:367   */\n  tag_24\n  jump\t// in\ntag_29:\n    /* \"#utility.yul\":336:367   */\n  swap2\n  pop\n    /* \"#utility.yul\":389:393   */\n  0xff\n    /* \"#utility.yul\":382:387   */\n  dup3\n    /* \"#utility.yul\":379:394   */\n  sub\n    /* \"#utility.yul\":376:417   */\n  tag_30\n  jumpi\n    /* \"#utility.yul\":397:415   */\n  tag_31\n  tag_23\n  jump\t// in\ntag_31:\n    /* \"#utility.yul\":376:417   */\ntag_30:\n    /* \"#utility.yul\":444:445   */\n  0x01\n    /* \"#utility.yul\":437:442   */\n  dup3\n    /* \"#utility.yul\":433:446   */\n  add\n    /* \"#utility.yul\":426:446   */\n  swap1\n  pop\n    /* \"#utility.yul\":285:452   */\n  swap2\n  swap1\n  pop\n  jump\t// out\n    /* \"Blackjack.sol\":153:7824  contract Blackjack is CardDeck, Randomness {... */\ntag_8:\n  dataSize(sub_0)\n  dup1\n  dataOffset(sub_0)\n  0x00\n  codecopy\n  0x00\n  return\nstop\n\nsub_0: assembly {\n        /* \"Blackjack.sol\":153:7824  contract Blackjack is CardDeck, Randomness {... */\n      mstore(0x40, 0x80)\n      jumpi(tag_1, lt(calldatasize, 0x04))\n      shr(0xe0, calldataload(0x00))\n      dup1\n      0xadda2c2e\n      gt\n      tag_16\n      jumpi\n      dup1\n      0xdf5df4bc\n      gt\n      tag_17\n      jumpi\n      dup1\n      0xdf5df4bc\n      eq\n      tag_12\n      jumpi\n      dup1\n      0xebf6e91d\n      eq\n      tag_13\n      jumpi\n      dup1\n      0xefaa55a0\n      eq\n      tag_14\n      jumpi\n      dup1\n      0xf71d96cb\n      eq\n      tag_15\n      jumpi\n      jump(tag_1)\n    tag_17:\n      dup1\n      0xadda2c2e\n      eq\n      tag_9\n      jumpi\n      dup1\n      0xb984354a\n      eq\n      tag_10\n      jumpi\n      dup1\n      0xd65ab5f2\n      eq\n      tag_11\n      jumpi\n      jump(tag_1)\n    tag_16:\n      dup1\n      0x6bf9609c\n      gt\n      tag_18\n      jumpi\n      dup1\n      0x6bf9609c\n      eq\n      tag_5\n      jumpi\n      dup1\n      0x70a88f84\n      eq\n      tag_6\n      jumpi\n      dup1\n      0x76cdb03b\n      eq\n      tag_7\n      jumpi\n      dup1\n      0x96b76c23\n      eq\n      tag_8\n      jumpi\n      jump(tag_1)\n    tag_18:\n      dup1\n      0x302bcc57\n      eq\n      tag_2\n      jumpi\n      dup1\n      0x33b16d93\n      eq\n      tag_3\n      jumpi\n      dup1\n      0x4fdd055b\n      eq\n      tag_4\n      jumpi\n    tag_1:\n      0x00\n      dup1\n      revert\n        /* \"Blackjack.sol\":379:405  uint256 public playerCount */\n    tag_2:\n      callvalue\n      dup1\n      iszero\n      tag_19\n      jumpi\n      0x00\n      dup1\n      revert\n    tag_19:\n      pop\n      tag_20\n      tag_21\n      jump\t// in\n    tag_20:\n      mload(0x40)\n      tag_22\n      swap2\n      swap1\n      tag_23\n      jump\t// in\n    tag_22:\n      mload(0x40)\n      dup1\n      swap2\n      sub\n      swap1\n      return\n        /* \"Blackjack.sol\":4241:5522  function determineWinner() external returns (string memory, address[] memory) {... */\n    tag_3:\n      callvalue\n      dup1\n      iszero\n      tag_24\n      jumpi\n      0x00\n      dup1\n      revert\n    tag_24:\n      pop\n      tag_25\n      tag_26\n      jump\t// in\n    tag_25:\n      mload(0x40)\n      tag_27\n      swap3\n      swap2\n      swap1\n      tag_28\n      jump\t// in\n    tag_27:\n      mload(0x40)\n      dup1\n      swap2\n      sub\n      swap1\n      return\n        /* \"Blackjack.sol\":485:512  uint8[] public lastBankHand */\n    tag_4:\n      callvalue\n      dup1\n      iszero\n      tag_29\n      jumpi\n      0x00\n      dup1\n      revert\n    tag_29:\n      pop\n      tag_30\n      0x04\n      dup1\n      calldatasize\n      sub\n      dup2\n      add\n      swap1\n      tag_31\n      swap2\n      swap1\n      tag_32\n      jump\t// in\n    tag_31:\n      tag_33\n      jump\t// in\n    tag_30:\n      mload(0x40)\n      tag_34\n      swap2\n      swap1\n      tag_35\n      jump\t// in\n    tag_34:\n      mload(0x40)\n      dup1\n      swap2\n      sub\n      swap1\n      return\n        /* \"Blackjack.sol\":5530:5564  string public formattedLastWinners */\n    tag_5:\n      callvalue\n      dup1\n      iszero\n      tag_36\n      jumpi\n      0x00\n      dup1\n      revert\n    tag_36:\n      pop\n      tag_37\n      tag_38\n      jump\t// in\n    tag_37:\n      mload(0x40)\n      tag_39\n      swap2\n      swap1\n      tag_40\n      jump\t// in\n    tag_39:\n      mload(0x40)\n      dup1\n      swap2\n      sub\n      swap1\n      return\n        /* \"Blackjack.sol\":412:435  uint8[] public bankHand */\n    tag_6:\n      callvalue\n      dup1\n      iszero\n      tag_41\n      jumpi\n      0x00\n      dup1\n      revert\n    tag_41:\n      pop\n      tag_42\n      0x04\n      dup1\n      calldatasize\n      sub\n      dup2\n      add\n      swap1\n      tag_43\n      swap2\n      swap1\n      tag_32\n      jump\t// in\n    tag_43:\n      tag_44\n      jump\t// in\n    tag_42:\n      mload(0x40)\n      tag_45\n      swap2\n      swap1\n      tag_35\n      jump\t// in\n    tag_45:\n      mload(0x40)\n      dup1\n      swap2\n      sub\n      swap1\n      return\n        /* \"Blackjack.sol\":459:478  address public bank */\n    tag_7:\n      callvalue\n      dup1\n      iszero\n      tag_46\n      jumpi\n      0x00\n      dup1\n      revert\n    tag_46:\n      pop\n      tag_47\n      tag_48\n      jump\t// in\n    tag_47:\n      mload(0x40)\n      tag_49\n      swap2\n      swap1\n      tag_50\n      jump\t// in\n    tag_49:\n      mload(0x40)\n      dup1\n      swap2\n      sub\n      swap1\n      return\n        /* \"Blackjack.sol\":3825:4002  function stand(uint256 playerIndex) external {... */\n    tag_8:\n      callvalue\n      dup1\n      iszero\n      tag_51\n      jumpi\n      0x00\n      dup1\n      revert\n    tag_51:\n      pop\n      tag_52\n      0x04\n      dup1\n      calldatasize\n      sub\n      dup2\n      add\n      swap1\n      tag_53\n      swap2\n      swap1\n      tag_32\n      jump\t// in\n    tag_53:\n      tag_54\n      jump\t// in\n    tag_52:\n      stop\n        /* \"Blackjack.sol\":562:590  address[] public lastWinners */\n    tag_9:\n      callvalue\n      dup1\n      iszero\n      tag_55\n      jumpi\n      0x00\n      dup1\n      revert\n    tag_55:\n      pop\n      tag_56\n      0x04\n      dup1\n      calldatasize\n      sub\n      dup2\n      add\n      swap1\n      tag_57\n      swap2\n      swap1\n      tag_32\n      jump\t// in\n    tag_57:\n      tag_58\n      jump\t// in\n    tag_56:\n      mload(0x40)\n      tag_59\n      swap2\n      swap1\n      tag_50\n      jump\t// in\n    tag_59:\n      mload(0x40)\n      dup1\n      swap2\n      sub\n      swap1\n      return\n        /* \"Blackjack.sol\":2685:3204  function getAllHandsFormatted() external view returns (string[] memory) {... */\n    tag_10:\n      callvalue\n      dup1\n      iszero\n      tag_60\n      jumpi\n      0x00\n      dup1\n      revert\n    tag_60:\n      pop\n      tag_61\n      tag_62\n      jump\t// in\n    tag_61:\n      mload(0x40)\n      tag_63\n      swap2\n      swap1\n      tag_64\n      jump\t// in\n    tag_63:\n      mload(0x40)\n      dup1\n      swap2\n      sub\n      swap1\n      return\n        /* \"Blackjack.sol\":1231:1642  function startGame() external {... */\n    tag_11:\n      callvalue\n      dup1\n      iszero\n      tag_65\n      jumpi\n      0x00\n      dup1\n      revert\n    tag_65:\n      pop\n      tag_66\n      tag_67\n      jump\t// in\n    tag_66:\n      stop\n        /* \"Blackjack.sol\":4159:4194  string public formattedLastBankHand */\n    tag_12:\n      callvalue\n      dup1\n      iszero\n      tag_68\n      jumpi\n      0x00\n      dup1\n      revert\n    tag_68:\n      pop\n      tag_69\n      tag_70\n      jump\t// in\n    tag_69:\n      mload(0x40)\n      tag_71\n      swap2\n      swap1\n      tag_40\n      jump\t// in\n    tag_71:\n      mload(0x40)\n      dup1\n      swap2\n      sub\n      swap1\n      return\n        /* \"Blackjack.sol\":3212:3815  function hit(uint256 playerIndex) external {... */\n    tag_13:\n      callvalue\n      dup1\n      iszero\n      tag_72\n      jumpi\n      0x00\n      dup1\n      revert\n    tag_72:\n      pop\n      tag_73\n      0x04\n      dup1\n      calldatasize\n      sub\n      dup2\n      add\n      swap1\n      tag_74\n      swap2\n      swap1\n      tag_32\n      jump\t// in\n    tag_74:\n      tag_75\n      jump\t// in\n    tag_73:\n      stop\n        /* \"Blackjack.sol\":746:1223  function joinGame(uint256 bet) external payable {... */\n    tag_14:\n      tag_76\n      0x04\n      dup1\n      calldatasize\n      sub\n      dup2\n      add\n      swap1\n      tag_77\n      swap2\n      swap1\n      tag_32\n      jump\t// in\n    tag_77:\n      tag_78\n      jump\t// in\n    tag_76:\n      stop\n        /* \"Blackjack.sol\":349:372  Player[] public players */\n    tag_15:\n      callvalue\n      dup1\n      iszero\n      tag_79\n      jumpi\n      0x00\n      dup1\n      revert\n    tag_79:\n      pop\n      tag_80\n      0x04\n      dup1\n      calldatasize\n      sub\n      dup2\n      add\n      swap1\n      tag_81\n      swap2\n      swap1\n      tag_32\n      jump\t// in\n    tag_81:\n      tag_82\n      jump\t// in\n    tag_80:\n      mload(0x40)\n      tag_83\n      swap5\n      swap4\n      swap3\n      swap2\n      swap1\n      tag_84\n      jump\t// in\n    tag_83:\n      mload(0x40)\n      dup1\n      swap2\n      sub\n      swap1\n      return\n        /* \"Blackjack.sol\":379:405  uint256 public playerCount */\n    tag_21:\n      sload(0x02)\n      dup2\n      jump\t// out\n        /* \"Blackjack.sol\":4241:5522  function determineWinner() external returns (string memory, address[] memory) {... */\n    tag_26:\n        /* \"Blackjack.sol\":4286:4299  string memory */\n      0x60\n        /* \"Blackjack.sol\":4301:4317  address[] memory */\n      dup1\n        /* \"Blackjack.sol\":4330:4345  uint8 bankScore */\n      0x00\n        /* \"Blackjack.sol\":4348:4370  getHandValue(bankHand) */\n      tag_86\n        /* \"Blackjack.sol\":4361:4369  bankHand */\n      0x03\n        /* \"Blackjack.sol\":4348:4370  getHandValue(bankHand) */\n      dup1\n      sload\n      dup1\n      0x20\n      mul\n      0x20\n      add\n      mload(0x40)\n      swap1\n      dup2\n      add\n      0x40\n      mstore\n      dup1\n      swap3\n      swap2\n      swap1\n      dup2\n      dup2\n      mstore\n      0x20\n      add\n      dup3\n      dup1\n      sload\n      dup1\n      iszero\n      tag_87\n      jumpi\n      0x20\n      mul\n      dup3\n      add\n      swap2\n      swap1\n      0x00\n      mstore\n      keccak256(0x00, 0x20)\n      swap1\n      0x00\n      swap1\n    tag_88:\n      dup3\n      dup3\n      swap1\n      sload\n      swap1\n      0x0100\n      exp\n      swap1\n      div\n      0xff\n      and\n      0xff\n      and\n      dup2\n      mstore\n      0x20\n      add\n      swap1\n      0x01\n      add\n      swap1\n      0x20\n      dup3\n      0x00\n      add\n      div\n      swap3\n      dup4\n      add\n      swap3\n      0x01\n      sub\n      dup3\n      mul\n      swap2\n      pop\n      dup1\n      dup5\n      gt\n      tag_88\n      jumpi\n      swap1\n      pop\n    tag_87:\n      pop\n      pop\n      pop\n      pop\n      pop\n        /* \"Blackjack.sol\":4348:4360  getHandValue */\n      tag_89\n        /* \"Blackjack.sol\":4348:4370  getHandValue(bankHand) */\n      jump\t// in\n    tag_86:\n        /* \"Blackjack.sol\":4330:4370  uint8 bankScore = getHandValue(bankHand) */\n      swap1\n      pop\n        /* \"Blackjack.sol\":4388:4399  lastWinners */\n      0x06\n      0x00\n        /* \"Blackjack.sol\":4381:4399  delete lastWinners */\n      tag_90\n      swap2\n      swap1\n      tag_91\n      jump\t// in\n    tag_90:\n        /* \"Blackjack.sol\":4473:4668  while (bankScore < 17) {... */\n    tag_92:\n        /* \"Blackjack.sol\":4492:4494  17 */\n      0x11\n        /* \"Blackjack.sol\":4480:4489  bankScore */\n      dup2\n        /* \"Blackjack.sol\":4480:4494  bankScore < 17 */\n      0xff\n      and\n      lt\n        /* \"Blackjack.sol\":4473:4668  while (bankScore < 17) {... */\n      iszero\n      tag_93\n      jumpi\n        /* \"Blackjack.sol\":4511:4521  uint8 card */\n      0x00\n        /* \"Blackjack.sol\":4524:4534  drawCard() */\n      tag_94\n        /* \"Blackjack.sol\":4524:4532  drawCard */\n      tag_95\n        /* \"Blackjack.sol\":4524:4534  drawCard() */\n      jump\t// in\n    tag_94:\n        /* \"Blackjack.sol\":4511:4534  uint8 card = drawCard() */\n      swap1\n      pop\n        /* \"Blackjack.sol\":4549:4557  bankHand */\n      0x03\n        /* \"Blackjack.sol\":4563:4567  card */\n      dup2\n        /* \"Blackjack.sol\":4549:4568  bankHand.push(card) */\n      swap1\n      dup1\n      0x01\n      dup2\n      sload\n      add\n      dup1\n      dup3\n      sstore\n      dup1\n      swap2\n      pop\n      pop\n      0x01\n      swap1\n      sub\n      swap1\n      0x00\n      mstore\n      keccak256(0x00, 0x20)\n      swap1\n      0x20\n      swap2\n      dup3\n      dup3\n      div\n      add\n      swap2\n      swap1\n      mod\n      swap1\n      swap2\n      swap1\n      swap2\n      swap1\n      swap2\n      0x0100\n      exp\n      dup2\n      sload\n      dup2\n      0xff\n      mul\n      not\n      and\n      swap1\n      dup4\n      0xff\n      and\n      mul\n      or\n      swap1\n      sstore\n      pop\n        /* \"Blackjack.sol\":4595:4617  getHandValue(bankHand) */\n      tag_97\n        /* \"Blackjack.sol\":4608:4616  bankHand */\n      0x03\n        /* \"Blackjack.sol\":4595:4617  getHandValue(bankHand) */\n      dup1\n      sload\n      dup1\n      0x20\n      mul\n      0x20\n      add\n      mload(0x40)\n      swap1\n      dup2\n      add\n      0x40\n      mstore\n      dup1\n      swap3\n      swap2\n      swap1\n      dup2\n      dup2\n      mstore\n      0x20\n      add\n      dup3\n      dup1\n      sload\n      dup1\n      iszero\n      tag_98\n      jumpi\n      0x20\n      mul\n      dup3\n      add\n      swap2\n      swap1\n      0x00\n      mstore\n      keccak256(0x00, 0x20)\n      swap1\n      0x00\n      swap1\n    tag_99:\n      dup3\n      dup3\n      swap1\n      sload\n      swap1\n      0x0100\n      exp\n      swap1\n      div\n      0xff\n      and\n      0xff\n      and\n      dup2\n      mstore\n      0x20\n      add\n      swap1\n      0x01\n      add\n      swap1\n      0x20\n      dup3\n      0x00\n      add\n      div\n      swap3\n      dup4\n      add\n      swap3\n      0x01\n      sub\n      dup3\n      mul\n      swap2\n      pop\n      dup1\n      dup5\n      gt\n      tag_99\n      jumpi\n      swap1\n      pop\n    tag_98:\n      pop\n      pop\n      pop\n      pop\n      pop\n        /* \"Blackjack.sol\":4595:4607  getHandValue */\n      tag_89\n        /* \"Blackjack.sol\":4595:4617  getHandValue(bankHand) */\n      jump\t// in\n    tag_97:\n        /* \"Blackjack.sol\":4583:4617  bankScore = getHandValue(bankHand) */\n      swap2\n      pop\n        /* \"Blackjack.sol\":4637:4656  BankCardDrawn(card) */\n      0x74719e1845aac9a5b808b73f76f15e0ded61fd1f03fc0cd802e98e8e1d2299fe\n        /* \"Blackjack.sol\":4651:4655  card */\n      dup2\n        /* \"Blackjack.sol\":4637:4656  BankCardDrawn(card) */\n      mload(0x40)\n      tag_100\n      swap2\n      swap1\n      tag_35\n      jump\t// in\n    tag_100:\n      mload(0x40)\n      dup1\n      swap2\n      sub\n      swap1\n      log1\n        /* \"Blackjack.sol\":4496:4668  {... */\n      pop\n        /* \"Blackjack.sol\":4473:4668  while (bankScore < 17) {... */\n      jump(tag_92)\n    tag_93:\n        /* \"Blackjack.sol\":4728:4736  bankHand */\n      0x03\n        /* \"Blackjack.sol\":4713:4725  lastBankHand */\n      0x05\n        /* \"Blackjack.sol\":4713:4736  lastBankHand = bankHand */\n      swap1\n      dup1\n      sload\n      tag_101\n      swap3\n      swap2\n      swap1\n      tag_102\n      jump\t// in\n    tag_101:\n      pop\n        /* \"Blackjack.sol\":4771:4815  formatHand(lastBankHand, \"Last Bank Hand: \") */\n      tag_103\n        /* \"Blackjack.sol\":4782:4794  lastBankHand */\n      0x05\n        /* \"Blackjack.sol\":4771:4815  formatHand(lastBankHand, \"Last Bank Hand: \") */\n      dup1\n      sload\n      dup1\n      0x20\n      mul\n      0x20\n      add\n      mload(0x40)\n      swap1\n      dup2\n      add\n      0x40\n      mstore\n      dup1\n      swap3\n      swap2\n      swap1\n      dup2\n      dup2\n      mstore\n      0x20\n      add\n      dup3\n      dup1\n      sload\n      dup1\n      iszero\n      tag_104\n      jumpi\n      0x20\n      mul\n      dup3\n      add\n      swap2\n      swap1\n      0x00\n      mstore\n      keccak256(0x00, 0x20)\n      swap1\n      0x00\n      swap1\n    tag_105:\n      dup3\n      dup3\n      swap1\n      sload\n      swap1\n      0x0100\n      exp\n      swap1\n      div\n      0xff\n      and\n      0xff\n      and\n      dup2\n      mstore\n      0x20\n      add\n      swap1\n      0x01\n      add\n      swap1\n      0x20\n      dup3\n      0x00\n      add\n      div\n      swap3\n      dup4\n      add\n      swap3\n      0x01\n      sub\n      dup3\n      mul\n      swap2\n      pop\n      dup1\n      dup5\n      gt\n      tag_105\n      jumpi\n      swap1\n      pop\n    tag_104:\n      pop\n      pop\n      pop\n      pop\n      pop\n      mload(0x40)\n      dup1\n      0x40\n      add\n      0x40\n      mstore\n      dup1\n      0x10\n      dup2\n      mstore\n      0x20\n      add\n      0x4c6173742042616e6b2048616e643a2000000000000000000000000000000000\n      dup2\n      mstore\n      pop\n        /* \"Blackjack.sol\":4771:4781  formatHand */\n      tag_106\n        /* \"Blackjack.sol\":4771:4815  formatHand(lastBankHand, \"Last Bank Hand: \") */\n      jump\t// in\n    tag_103:\n        /* \"Blackjack.sol\":4747:4768  formattedLastBankHand */\n      0x07\n        /* \"Blackjack.sol\":4747:4815  formattedLastBankHand = formatHand(lastBankHand, \"Last Bank Hand: \") */\n      swap1\n      dup2\n      tag_107\n      swap2\n      swap1\n      tag_108\n      jump\t// in\n    tag_107:\n      pop\n        /* \"Blackjack.sol\":4864:4873  uint256 i */\n      0x00\n        /* \"Blackjack.sol\":4859:5271  for (uint256 i = 0; i < players.length; i++) {... */\n    tag_109:\n        /* \"Blackjack.sol\":4883:4890  players */\n      0x01\n        /* \"Blackjack.sol\":4883:4897  players.length */\n      dup1\n      sload\n      swap1\n      pop\n        /* \"Blackjack.sol\":4879:4880  i */\n      dup2\n        /* \"Blackjack.sol\":4879:4897  i < players.length */\n      lt\n        /* \"Blackjack.sol\":4859:5271  for (uint256 i = 0; i < players.length; i++) {... */\n      iszero\n      tag_110\n      jumpi\n        /* \"Blackjack.sol\":4919:4936  uint8 playerScore */\n      0x00\n        /* \"Blackjack.sol\":4939:4968  getHandValue(players[i].hand) */\n      tag_112\n        /* \"Blackjack.sol\":4952:4959  players */\n      0x01\n        /* \"Blackjack.sol\":4960:4961  i */\n      dup4\n        /* \"Blackjack.sol\":4952:4962  players[i] */\n      dup2\n      sload\n      dup2\n      lt\n      tag_113\n      jumpi\n      tag_114\n      tag_115\n      jump\t// in\n    tag_114:\n    tag_113:\n      swap1\n      0x00\n      mstore\n      keccak256(0x00, 0x20)\n      swap1\n      0x04\n      mul\n      add\n        /* \"Blackjack.sol\":4952:4967  players[i].hand */\n      0x02\n      add\n        /* \"Blackjack.sol\":4939:4968  getHandValue(players[i].hand) */\n      dup1\n      sload\n      dup1\n      0x20\n      mul\n      0x20\n      add\n      mload(0x40)\n      swap1\n      dup2\n      add\n      0x40\n      mstore\n      dup1\n      swap3\n      swap2\n      swap1\n      dup2\n      dup2\n      mstore\n      0x20\n      add\n      dup3\n      dup1\n      sload\n      dup1\n      iszero\n      tag_117\n      jumpi\n      0x20\n      mul\n      dup3\n      add\n      swap2\n      swap1\n      0x00\n      mstore\n      keccak256(0x00, 0x20)\n      swap1\n      0x00\n      swap1\n    tag_118:\n      dup3\n      dup3\n      swap1\n      sload\n      swap1\n      0x0100\n      exp\n      swap1\n      div\n      0xff\n      and\n      0xff\n      and\n      dup2\n      mstore\n      0x20\n      add\n      swap1\n      0x01\n      add\n      swap1\n      0x20\n      dup3\n      0x00\n      add\n      div\n      swap3\n      dup4\n      add\n      swap3\n      0x01\n      sub\n      dup3\n      mul\n      swap2\n      pop\n      dup1\n      dup5\n      gt\n      tag_118\n      jumpi\n      swap1\n      pop\n    tag_117:\n      pop\n      pop\n      pop\n      pop\n      pop\n        /* \"Blackjack.sol\":4939:4951  getHandValue */\n      tag_89\n        /* \"Blackjack.sol\":4939:4968  getHandValue(players[i].hand) */\n      jump\t// in\n    tag_112:\n        /* \"Blackjack.sol\":4919:4968  uint8 playerScore = getHandValue(players[i].hand) */\n      swap1\n      pop\n        /* \"Blackjack.sol\":4988:4995  players */\n      0x01\n        /* \"Blackjack.sol\":4996:4997  i */\n      dup3\n        /* \"Blackjack.sol\":4988:4998  players[i] */\n      dup2\n      sload\n      dup2\n      lt\n      tag_119\n      jumpi\n      tag_120\n      tag_115\n      jump\t// in\n    tag_120:\n    tag_119:\n      swap1\n      0x00\n      mstore\n      keccak256(0x00, 0x20)\n      swap1\n      0x04\n      mul\n      add\n        /* \"Blackjack.sol\":4988:5007  players[i].isBusted */\n      0x03\n      add\n      0x01\n      swap1\n      sload\n      swap1\n      0x0100\n      exp\n      swap1\n      div\n      0xff\n      and\n        /* \"Blackjack.sol\":4987:5007  !players[i].isBusted */\n      iszero\n        /* \"Blackjack.sol\":4987:5054  !players[i].isBusted && (playerScore > bankScore || bankScore > 21) */\n      dup1\n      iszero\n      tag_122\n      jumpi\n      pop\n        /* \"Blackjack.sol\":5026:5035  bankScore */\n      dup3\n        /* \"Blackjack.sol\":5012:5035  playerScore > bankScore */\n      0xff\n      and\n        /* \"Blackjack.sol\":5012:5023  playerScore */\n      dup2\n        /* \"Blackjack.sol\":5012:5035  playerScore > bankScore */\n      0xff\n      and\n      gt\n        /* \"Blackjack.sol\":5012:5053  playerScore > bankScore || bankScore > 21 */\n      dup1\n      tag_123\n      jumpi\n      pop\n        /* \"Blackjack.sol\":5051:5053  21 */\n      0x15\n        /* \"Blackjack.sol\":5039:5048  bankScore */\n      dup4\n        /* \"Blackjack.sol\":5039:5053  bankScore > 21 */\n      0xff\n      and\n      gt\n        /* \"Blackjack.sol\":5012:5053  playerScore > bankScore || bankScore > 21 */\n    tag_123:\n        /* \"Blackjack.sol\":4987:5054  !players[i].isBusted && (playerScore > bankScore || bankScore > 21) */\n    tag_122:\n        /* \"Blackjack.sol\":4983:5260  if (!players[i].isBusted && (playerScore > bankScore || bankScore > 21)) {... */\n      iszero\n      tag_124\n      jumpi\n        /* \"Blackjack.sol\":5083:5090  players */\n      0x01\n        /* \"Blackjack.sol\":5091:5092  i */\n      dup3\n        /* \"Blackjack.sol\":5083:5093  players[i] */\n      dup2\n      sload\n      dup2\n      lt\n      tag_125\n      jumpi\n      tag_126\n      tag_115\n      jump\t// in\n    tag_126:\n    tag_125:\n      swap1\n      0x00\n      mstore\n      keccak256(0x00, 0x20)\n      swap1\n      0x04\n      mul\n      add\n        /* \"Blackjack.sol\":5083:5098  players[i].addr */\n      0x00\n      add\n      0x00\n      swap1\n      sload\n      swap1\n      0x0100\n      exp\n      swap1\n      div\n      0xffffffffffffffffffffffffffffffffffffffff\n      and\n        /* \"Blackjack.sol\":5075:5108  payable(players[i].addr).transfer */\n      0xffffffffffffffffffffffffffffffffffffffff\n      and\n        /* \"Blackjack.sol\":5075:5128  payable(players[i].addr).transfer(players[i].bet * 2) */\n      0x08fc\n        /* \"Blackjack.sol\":5126:5127  2 */\n      0x02\n        /* \"Blackjack.sol\":5109:5116  players */\n      0x01\n        /* \"Blackjack.sol\":5117:5118  i */\n      dup6\n        /* \"Blackjack.sol\":5109:5119  players[i] */\n      dup2\n      sload\n      dup2\n      lt\n      tag_128\n      jumpi\n      tag_129\n      tag_115\n      jump\t// in\n    tag_129:\n    tag_128:\n      swap1\n      0x00\n      mstore\n      keccak256(0x00, 0x20)\n      swap1\n      0x04\n      mul\n      add\n        /* \"Blackjack.sol\":5109:5123  players[i].bet */\n      0x01\n      add\n      sload\n        /* \"Blackjack.sol\":5109:5127  players[i].bet * 2 */\n      tag_131\n      swap2\n      swap1\n      tag_132\n      jump\t// in\n    tag_131:\n        /* \"Blackjack.sol\":5075:5128  payable(players[i].addr).transfer(players[i].bet * 2) */\n      swap1\n      dup2\n      iszero\n      mul\n      swap1\n      mload(0x40)\n      0x00\n      mload(0x40)\n      dup1\n      dup4\n      sub\n      dup2\n      dup6\n      dup9\n      dup9\n      call\n      swap4\n      pop\n      pop\n      pop\n      pop\n      iszero\n      dup1\n      iszero\n      tag_134\n      jumpi\n      returndatasize\n      0x00\n      dup1\n      returndatacopy\n      revert(0x00, returndatasize)\n    tag_134:\n      pop\n        /* \"Blackjack.sol\":5147:5158  lastWinners */\n      0x06\n        /* \"Blackjack.sol\":5164:5171  players */\n      0x01\n        /* \"Blackjack.sol\":5172:5173  i */\n      dup4\n        /* \"Blackjack.sol\":5164:5174  players[i] */\n      dup2\n      sload\n      dup2\n      lt\n      tag_135\n      jumpi\n      tag_136\n      tag_115\n      jump\t// in\n    tag_136:\n    tag_135:\n      swap1\n      0x00\n      mstore\n      keccak256(0x00, 0x20)\n      swap1\n      0x04\n      mul\n      add\n        /* \"Blackjack.sol\":5164:5179  players[i].addr */\n      0x00\n      add\n      0x00\n      swap1\n      sload\n      swap1\n      0x0100\n      exp\n      swap1\n      div\n      0xffffffffffffffffffffffffffffffffffffffff\n      and\n        /* \"Blackjack.sol\":5147:5180  lastWinners.push(players[i].addr) */\n      swap1\n      dup1\n      0x01\n      dup2\n      sload\n      add\n      dup1\n      dup3\n      sstore\n      dup1\n      swap2\n      pop\n      pop\n      0x01\n      swap1\n      sub\n      swap1\n      0x00\n      mstore\n      keccak256(0x00, 0x20)\n      add\n      0x00\n      swap1\n      swap2\n      swap1\n      swap2\n      swap1\n      swap2\n      0x0100\n      exp\n      dup2\n      sload\n      dup2\n      0xffffffffffffffffffffffffffffffffffffffff\n      mul\n      not\n      and\n      swap1\n      dup4\n      0xffffffffffffffffffffffffffffffffffffffff\n      and\n      mul\n      or\n      swap1\n      sstore\n      pop\n        /* \"Blackjack.sol\":5204:5244  GameResult(players[i].addr, playerScore) */\n      0xe9b0a743935d9854ac97b39452742c48f05e62b1ee44825328d7bc53901b03b1\n        /* \"Blackjack.sol\":5215:5222  players */\n      0x01\n        /* \"Blackjack.sol\":5223:5224  i */\n      dup4\n        /* \"Blackjack.sol\":5215:5225  players[i] */\n      dup2\n      sload\n      dup2\n      lt\n      tag_139\n      jumpi\n      tag_140\n      tag_115\n      jump\t// in\n    tag_140:\n    tag_139:\n      swap1\n      0x00\n      mstore\n      keccak256(0x00, 0x20)\n      swap1\n      0x04\n      mul\n      add\n        /* \"Blackjack.sol\":5215:5230  players[i].addr */\n      0x00\n      add\n      0x00\n      swap1\n      sload\n      swap1\n      0x0100\n      exp\n      swap1\n      div\n      0xffffffffffffffffffffffffffffffffffffffff\n      and\n        /* \"Blackjack.sol\":5232:5243  playerScore */\n      dup3\n        /* \"Blackjack.sol\":5204:5244  GameResult(players[i].addr, playerScore) */\n      mload(0x40)\n      tag_142\n      swap3\n      swap2\n      swap1\n      tag_143\n      jump\t// in\n    tag_142:\n      mload(0x40)\n      dup1\n      swap2\n      sub\n      swap1\n      log1\n        /* \"Blackjack.sol\":4983:5260  if (!players[i].isBusted && (playerScore > bankScore || bankScore > 21)) {... */\n    tag_124:\n        /* \"Blackjack.sol\":4904:5271  {... */\n      pop\n        /* \"Blackjack.sol\":4899:4902  i++ */\n      dup1\n      dup1\n      0x01\n      add\n      swap2\n      pop\n      pop\n        /* \"Blackjack.sol\":4859:5271  for (uint256 i = 0; i < players.length; i++) {... */\n      jump(tag_109)\n    tag_110:\n      pop\n        /* \"Blackjack.sol\":5376:5402  formatWinners(lastWinners) */\n      tag_144\n        /* \"Blackjack.sol\":5390:5401  lastWinners */\n      0x06\n        /* \"Blackjack.sol\":5376:5402  formatWinners(lastWinners) */\n      dup1\n      sload\n      dup1\n      0x20\n      mul\n      0x20\n      add\n      mload(0x40)\n      swap1\n      dup2\n      add\n      0x40\n      mstore\n      dup1\n      swap3\n      swap2\n      swap1\n      dup2\n      dup2\n      mstore\n      0x20\n      add\n      dup3\n      dup1\n      sload\n      dup1\n      iszero\n      tag_145\n      jumpi\n      0x20\n      mul\n      dup3\n      add\n      swap2\n      swap1\n      0x00\n      mstore\n      keccak256(0x00, 0x20)\n      swap1\n    tag_146:\n      dup2\n      0x00\n      swap1\n      sload\n      swap1\n      0x0100\n      exp\n      swap1\n      div\n      0xffffffffffffffffffffffffffffffffffffffff\n      and\n      0xffffffffffffffffffffffffffffffffffffffff\n      and\n      dup2\n      mstore\n      0x20\n      add\n      swap1\n      0x01\n      add\n      swap1\n      dup1\n      dup4\n      gt\n      tag_146\n      jumpi\n    tag_145:\n      pop\n      pop\n      pop\n      pop\n      pop\n        /* \"Blackjack.sol\":5376:5389  formatWinners */\n      tag_147\n        /* \"Blackjack.sol\":5376:5402  formatWinners(lastWinners) */\n      jump\t// in\n    tag_144:\n        /* \"Blackjack.sol\":5353:5373  formattedLastWinners */\n      0x08\n        /* \"Blackjack.sol\":5353:5402  formattedLastWinners = formatWinners(lastWinners) */\n      swap1\n      dup2\n      tag_148\n      swap2\n      swap1\n      tag_108\n      jump\t// in\n    tag_148:\n      pop\n        /* \"Blackjack.sol\":5447:5458  resetGame() */\n      tag_149\n        /* \"Blackjack.sol\":5447:5456  resetGame */\n      tag_150\n        /* \"Blackjack.sol\":5447:5458  resetGame() */\n      jump\t// in\n    tag_149:\n        /* \"Blackjack.sol\":5479:5500  formattedLastBankHand */\n      0x07\n        /* \"Blackjack.sol\":5502:5513  lastWinners */\n      0x06\n        /* \"Blackjack.sol\":5471:5514  return (formattedLastBankHand, lastWinners) */\n      dup2\n      dup1\n      sload\n      tag_151\n      swap1\n      tag_152\n      jump\t// in\n    tag_151:\n      dup1\n      0x1f\n      add\n      0x20\n      dup1\n      swap2\n      div\n      mul\n      0x20\n      add\n      mload(0x40)\n      swap1\n      dup2\n      add\n      0x40\n      mstore\n      dup1\n      swap3\n      swap2\n      swap1\n      dup2\n      dup2\n      mstore\n      0x20\n      add\n      dup3\n      dup1\n      sload\n      tag_153\n      swap1\n      tag_152\n      jump\t// in\n    tag_153:\n      dup1\n      iszero\n      tag_154\n      jumpi\n      dup1\n      0x1f\n      lt\n      tag_155\n      jumpi\n      0x0100\n      dup1\n      dup4\n      sload\n      div\n      mul\n      dup4\n      mstore\n      swap2\n      0x20\n      add\n      swap2\n      jump(tag_154)\n    tag_155:\n      dup3\n      add\n      swap2\n      swap1\n      0x00\n      mstore\n      keccak256(0x00, 0x20)\n      swap1\n    tag_156:\n      dup2\n      sload\n      dup2\n      mstore\n      swap1\n      0x01\n      add\n      swap1\n      0x20\n      add\n      dup1\n      dup4\n      gt\n      tag_156\n      jumpi\n      dup3\n      swap1\n      sub\n      0x1f\n      and\n      dup3\n      add\n      swap2\n    tag_154:\n      pop\n      pop\n      pop\n      pop\n      pop\n      swap2\n      pop\n      dup1\n      dup1\n      sload\n      dup1\n      0x20\n      mul\n      0x20\n      add\n      mload(0x40)\n      swap1\n      dup2\n      add\n      0x40\n      mstore\n      dup1\n      swap3\n      swap2\n      swap1\n      dup2\n      dup2\n      mstore\n      0x20\n      add\n      dup3\n      dup1\n      sload\n      dup1\n      iszero\n      tag_157\n      jumpi\n      0x20\n      mul\n      dup3\n      add\n      swap2\n      swap1\n      0x00\n      mstore\n      keccak256(0x00, 0x20)\n      swap1\n    tag_158:\n      dup2\n      0x00\n      swap1\n      sload\n      swap1\n      0x0100\n      exp\n      swap1\n      div\n      0xffffffffffffffffffffffffffffffffffffffff\n      and\n      0xffffffffffffffffffffffffffffffffffffffff\n      and\n      dup2\n      mstore\n      0x20\n      add\n      swap1\n      0x01\n      add\n      swap1\n      dup1\n      dup4\n      gt\n      tag_158\n      jumpi\n    tag_157:\n      pop\n      pop\n      pop\n      pop\n      pop\n      swap1\n      pop\n      swap3\n      pop\n      swap3\n      pop\n      pop\n        /* \"Blackjack.sol\":4241:5522  function determineWinner() external returns (string memory, address[] memory) {... */\n      swap1\n      swap2\n      jump\t// out\n        /* \"Blackjack.sol\":485:512  uint8[] public lastBankHand */\n    tag_33:\n      0x05\n      dup2\n      dup2\n      sload\n      dup2\n      lt\n      tag_159\n      jumpi\n      0x00\n      dup1\n      revert\n    tag_159:\n      swap1\n      0x00\n      mstore\n      keccak256(0x00, 0x20)\n      swap1\n      0x20\n      swap2\n      dup3\n      dup3\n      div\n      add\n      swap2\n      swap1\n      mod\n      swap2\n      pop\n      sload\n      swap1\n      0x0100\n      exp\n      swap1\n      div\n      0xff\n      and\n      dup2\n      jump\t// out\n        /* \"Blackjack.sol\":5530:5564  string public formattedLastWinners */\n    tag_38:\n      0x08\n      dup1\n      sload\n      tag_161\n      swap1\n      tag_152\n      jump\t// in\n    tag_161:\n      dup1\n      0x1f\n      add\n      0x20\n      dup1\n      swap2\n      div\n      mul\n      0x20\n      add\n      mload(0x40)\n      swap1\n      dup2\n      add\n      0x40\n      mstore\n      dup1\n      swap3\n      swap2\n      swap1\n      dup2\n      dup2\n      mstore\n      0x20\n      add\n      dup3\n      dup1\n      sload\n      tag_162\n      swap1\n      tag_152\n      jump\t// in\n    tag_162:\n      dup1\n      iszero\n      tag_163\n      jumpi\n      dup1\n      0x1f\n      lt\n      tag_164\n      jumpi\n      0x0100\n      dup1\n      dup4\n      sload\n      div\n      mul\n      dup4\n      mstore\n      swap2\n      0x20\n      add\n      swap2\n      jump(tag_163)\n    tag_164:\n      dup3\n      add\n      swap2\n      swap1\n      0x00\n      mstore\n      keccak256(0x00, 0x20)\n      swap1\n    tag_165:\n      dup2\n      sload\n      dup2\n      mstore\n      swap1\n      0x01\n      add\n      swap1\n      0x20\n      add\n      dup1\n      dup4\n      gt\n      tag_165\n      jumpi\n      dup3\n      swap1\n      sub\n      0x1f\n      and\n      dup3\n      add\n      swap2\n    tag_163:\n      pop\n      pop\n      pop\n      pop\n      pop\n      dup2\n      jump\t// out\n        /* \"Blackjack.sol\":412:435  uint8[] public bankHand */\n    tag_44:\n      0x03\n      dup2\n      dup2\n      sload\n      dup2\n      lt\n      tag_166\n      jumpi\n      0x00\n      dup1\n      revert\n    tag_166:\n      swap1\n      0x00\n      mstore\n      keccak256(0x00, 0x20)\n      swap1\n      0x20\n      swap2\n      dup3\n      dup3\n      div\n      add\n      swap2\n      swap1\n      mod\n      swap2\n      pop\n      sload\n      swap1\n      0x0100\n      exp\n      swap1\n      div\n      0xff\n      and\n      dup2\n      jump\t// out\n        /* \"Blackjack.sol\":459:478  address public bank */\n    tag_48:\n      0x04\n      0x00\n      swap1\n      sload\n      swap1\n      0x0100\n      exp\n      swap1\n      div\n      0xffffffffffffffffffffffffffffffffffffffff\n      and\n      dup2\n      jump\t// out\n        /* \"Blackjack.sol\":3825:4002  function stand(uint256 playerIndex) external {... */\n    tag_54:\n        /* \"Blackjack.sol\":3903:3910  players */\n      0x01\n        /* \"Blackjack.sol\":3911:3922  playerIndex */\n      dup2\n        /* \"Blackjack.sol\":3903:3923  players[playerIndex] */\n      dup2\n      sload\n      dup2\n      lt\n      tag_169\n      jumpi\n      tag_170\n      tag_115\n      jump\t// in\n    tag_170:\n    tag_169:\n      swap1\n      0x00\n      mstore\n      keccak256(0x00, 0x20)\n      swap1\n      0x04\n      mul\n      add\n        /* \"Blackjack.sol\":3903:3928  players[playerIndex].addr */\n      0x00\n      add\n      0x00\n      swap1\n      sload\n      swap1\n      0x0100\n      exp\n      swap1\n      div\n      0xffffffffffffffffffffffffffffffffffffffff\n      and\n        /* \"Blackjack.sol\":3889:3928  msg.sender == players[playerIndex].addr */\n      0xffffffffffffffffffffffffffffffffffffffff\n      and\n        /* \"Blackjack.sol\":3889:3899  msg.sender */\n      caller\n        /* \"Blackjack.sol\":3889:3928  msg.sender == players[playerIndex].addr */\n      0xffffffffffffffffffffffffffffffffffffffff\n      and\n      eq\n        /* \"Blackjack.sol\":3881:3946  require(msg.sender == players[playerIndex].addr, \"Not your turn\") */\n      tag_172\n      jumpi\n      mload(0x40)\n      0x08c379a000000000000000000000000000000000000000000000000000000000\n      dup2\n      mstore\n      0x04\n      add\n      tag_173\n      swap1\n      tag_174\n      jump\t// in\n    tag_173:\n      mload(0x40)\n      dup1\n      swap2\n      sub\n      swap1\n      revert\n    tag_172:\n        /* \"Blackjack.sol\":3989:3994  false */\n      0x00\n        /* \"Blackjack.sol\":3957:3964  players */\n      0x01\n        /* \"Blackjack.sol\":3965:3976  playerIndex */\n      dup3\n        /* \"Blackjack.sol\":3957:3977  players[playerIndex] */\n      dup2\n      sload\n      dup2\n      lt\n      tag_175\n      jumpi\n      tag_176\n      tag_115\n      jump\t// in\n    tag_176:\n    tag_175:\n      swap1\n      0x00\n      mstore\n      keccak256(0x00, 0x20)\n      swap1\n      0x04\n      mul\n      add\n        /* \"Blackjack.sol\":3957:3986  players[playerIndex].isActive */\n      0x03\n      add\n      0x00\n        /* \"Blackjack.sol\":3957:3994  players[playerIndex].isActive = false */\n      0x0100\n      exp\n      dup2\n      sload\n      dup2\n      0xff\n      mul\n      not\n      and\n      swap1\n      dup4\n      iszero\n      iszero\n      mul\n      or\n      swap1\n      sstore\n      pop\n        /* \"Blackjack.sol\":3825:4002  function stand(uint256 playerIndex) external {... */\n      pop\n      jump\t// out\n        /* \"Blackjack.sol\":562:590  address[] public lastWinners */\n    tag_58:\n      0x06\n      dup2\n      dup2\n      sload\n      dup2\n      lt\n      tag_178\n      jumpi\n      0x00\n      dup1\n      revert\n    tag_178:\n      swap1\n      0x00\n      mstore\n      keccak256(0x00, 0x20)\n      add\n      0x00\n      swap2\n      pop\n      sload\n      swap1\n      0x0100\n      exp\n      swap1\n      div\n      0xffffffffffffffffffffffffffffffffffffffff\n      and\n      dup2\n      jump\t// out\n        /* \"Blackjack.sol\":2685:3204  function getAllHandsFormatted() external view returns (string[] memory) {... */\n    tag_62:\n        /* \"Blackjack.sol\":2740:2755  string[] memory */\n      0x60\n        /* \"Blackjack.sol\":2768:2798  string[] memory formattedHands */\n      0x00\n        /* \"Blackjack.sol\":2831:2832  1 */\n      0x01\n        /* \"Blackjack.sol\":2814:2821  players */\n      dup1\n        /* \"Blackjack.sol\":2814:2828  players.length */\n      dup1\n      sload\n      swap1\n      pop\n        /* \"Blackjack.sol\":2814:2832  players.length + 1 */\n      tag_181\n      swap2\n      swap1\n      tag_182\n      jump\t// in\n    tag_181:\n        /* \"Blackjack.sol\":2801:2833  new string[](players.length + 1) */\n      0xffffffffffffffff\n      dup2\n      gt\n      iszero\n      tag_183\n      jumpi\n      tag_184\n      tag_185\n      jump\t// in\n    tag_184:\n    tag_183:\n      mload(0x40)\n      swap1\n      dup1\n      dup3\n      mstore\n      dup1\n      0x20\n      mul\n      0x20\n      add\n      dup3\n      add\n      0x40\n      mstore\n      dup1\n      iszero\n      tag_186\n      jumpi\n      dup2\n      0x20\n      add\n    tag_187:\n      0x60\n      dup2\n      mstore\n      0x20\n      add\n      swap1\n      0x01\n      swap1\n      sub\n      swap1\n      dup2\n      tag_187\n      jumpi\n      swap1\n      pop\n    tag_186:\n      pop\n        /* \"Blackjack.sol\":2768:2833  string[] memory formattedHands = new string[](players.length + 1) */\n      swap1\n      pop\n        /* \"Blackjack.sol\":2899:2929  formatHand(bankHand, \"Bank: \") */\n      tag_188\n        /* \"Blackjack.sol\":2910:2918  bankHand */\n      0x03\n        /* \"Blackjack.sol\":2899:2929  formatHand(bankHand, \"Bank: \") */\n      dup1\n      sload\n      dup1\n      0x20\n      mul\n      0x20\n      add\n      mload(0x40)\n      swap1\n      dup2\n      add\n      0x40\n      mstore\n      dup1\n      swap3\n      swap2\n      swap1\n      dup2\n      dup2\n      mstore\n      0x20\n      add\n      dup3\n      dup1\n      sload\n      dup1\n      iszero\n      tag_189\n      jumpi\n      0x20\n      mul\n      dup3\n      add\n      swap2\n      swap1\n      0x00\n      mstore\n      keccak256(0x00, 0x20)\n      swap1\n      0x00\n      swap1\n    tag_190:\n      dup3\n      dup3\n      swap1\n      sload\n      swap1\n      0x0100\n      exp\n      swap1\n      div\n      0xff\n      and\n      0xff\n      and\n      dup2\n      mstore\n      0x20\n      add\n      swap1\n      0x01\n      add\n      swap1\n      0x20\n      dup3\n      0x00\n      add\n      div\n      swap3\n      dup4\n      add\n      swap3\n      0x01\n      sub\n      dup3\n      mul\n      swap2\n      pop\n      dup1\n      dup5\n      gt\n      tag_190\n      jumpi\n      swap1\n      pop\n    tag_189:\n      pop\n      pop\n      pop\n      pop\n      pop\n      mload(0x40)\n      dup1\n      0x40\n      add\n      0x40\n      mstore\n      dup1\n      0x06\n      dup2\n      mstore\n      0x20\n      add\n      0x42616e6b3a200000000000000000000000000000000000000000000000000000\n      dup2\n      mstore\n      pop\n        /* \"Blackjack.sol\":2899:2909  formatHand */\n      tag_106\n        /* \"Blackjack.sol\":2899:2929  formatHand(bankHand, \"Bank: \") */\n      jump\t// in\n    tag_188:\n        /* \"Blackjack.sol\":2879:2893  formattedHands */\n      dup2\n        /* \"Blackjack.sol\":2894:2895  0 */\n      0x00\n        /* \"Blackjack.sol\":2879:2896  formattedHands[0] */\n      dup2\n      mload\n      dup2\n      lt\n      tag_191\n      jumpi\n      tag_192\n      tag_115\n      jump\t// in\n    tag_192:\n    tag_191:\n      0x20\n      mul\n      0x20\n      add\n      add\n        /* \"Blackjack.sol\":2879:2929  formattedHands[0] = formatHand(bankHand, \"Bank: \") */\n      dup2\n      swap1\n      mstore\n      pop\n        /* \"Blackjack.sol\":2985:2994  uint256 i */\n      0x00\n        /* \"Blackjack.sol\":2980:3163  for (uint256 i = 0; i < players.length; i++) {... */\n    tag_193:\n        /* \"Blackjack.sol\":3004:3011  players */\n      0x01\n        /* \"Blackjack.sol\":3004:3018  players.length */\n      dup1\n      sload\n      swap1\n      pop\n        /* \"Blackjack.sol\":3000:3001  i */\n      dup2\n        /* \"Blackjack.sol\":3000:3018  i < players.length */\n      lt\n        /* \"Blackjack.sol\":2980:3163  for (uint256 i = 0; i < players.length; i++) {... */\n      iszero\n      tag_194\n      jumpi\n        /* \"Blackjack.sol\":3064:3151  formatHand(players[i].hand, string(abi.encodePacked(\"Player \", uint2str(i + 1), \": \"))) */\n      tag_196\n        /* \"Blackjack.sol\":3075:3082  players */\n      0x01\n        /* \"Blackjack.sol\":3083:3084  i */\n      dup3\n        /* \"Blackjack.sol\":3075:3085  players[i] */\n      dup2\n      sload\n      dup2\n      lt\n      tag_197\n      jumpi\n      tag_198\n      tag_115\n      jump\t// in\n    tag_198:\n    tag_197:\n      swap1\n      0x00\n      mstore\n      keccak256(0x00, 0x20)\n      swap1\n      0x04\n      mul\n      add\n        /* \"Blackjack.sol\":3075:3090  players[i].hand */\n      0x02\n      add\n        /* \"Blackjack.sol\":3064:3151  formatHand(players[i].hand, string(abi.encodePacked(\"Player \", uint2str(i + 1), \": \"))) */\n      dup1\n      sload\n      dup1\n      0x20\n      mul\n      0x20\n      add\n      mload(0x40)\n      swap1\n      dup2\n      add\n      0x40\n      mstore\n      dup1\n      swap3\n      swap2\n      swap1\n      dup2\n      dup2\n      mstore\n      0x20\n      add\n      dup3\n      dup1\n      sload\n      dup1\n      iszero\n      tag_200\n      jumpi\n      0x20\n      mul\n      dup3\n      add\n      swap2\n      swap1\n      0x00\n      mstore\n      keccak256(0x00, 0x20)\n      swap1\n      0x00\n      swap1\n    tag_201:\n      dup3\n      dup3\n      swap1\n      sload\n      swap1\n      0x0100\n      exp\n      swap1\n      div\n      0xff\n      and\n      0xff\n      and\n      dup2\n      mstore\n      0x20\n      add\n      swap1\n      0x01\n      add\n      swap1\n      0x20\n      dup3\n      0x00\n      add\n      div\n      swap3\n      dup4\n      add\n      swap3\n      0x01\n      sub\n      dup3\n      mul\n      swap2\n      pop\n      dup1\n      dup5\n      gt\n      tag_201\n      jumpi\n      swap1\n      pop\n    tag_200:\n      pop\n      pop\n      pop\n      pop\n      pop\n        /* \"Blackjack.sol\":3127:3142  uint2str(i + 1) */\n      tag_202\n        /* \"Blackjack.sol\":3140:3141  1 */\n      0x01\n        /* \"Blackjack.sol\":3136:3137  i */\n      dup5\n        /* \"Blackjack.sol\":3136:3141  i + 1 */\n      tag_203\n      swap2\n      swap1\n      tag_182\n      jump\t// in\n    tag_203:\n        /* \"Blackjack.sol\":3127:3135  uint2str */\n      tag_204\n        /* \"Blackjack.sol\":3127:3142  uint2str(i + 1) */\n      jump\t// in\n    tag_202:\n        /* \"Blackjack.sol\":3099:3149  abi.encodePacked(\"Player \", uint2str(i + 1), \": \") */\n      add(0x20, mload(0x40))\n      tag_205\n      swap2\n      swap1\n      tag_206\n      jump\t// in\n    tag_205:\n      mload(0x40)\n      0x20\n      dup2\n      dup4\n      sub\n      sub\n      dup2\n      mstore\n      swap1\n      0x40\n      mstore\n        /* \"Blackjack.sol\":3064:3074  formatHand */\n      tag_106\n        /* \"Blackjack.sol\":3064:3151  formatHand(players[i].hand, string(abi.encodePacked(\"Player \", uint2str(i + 1), \": \"))) */\n      jump\t// in\n    tag_196:\n        /* \"Blackjack.sol\":3040:3054  formattedHands */\n      dup3\n        /* \"Blackjack.sol\":3059:3060  1 */\n      0x01\n        /* \"Blackjack.sol\":3055:3056  i */\n      dup4\n        /* \"Blackjack.sol\":3055:3060  i + 1 */\n      tag_207\n      swap2\n      swap1\n      tag_182\n      jump\t// in\n    tag_207:\n        /* \"Blackjack.sol\":3040:3061  formattedHands[i + 1] */\n      dup2\n      mload\n      dup2\n      lt\n      tag_208\n      jumpi\n      tag_209\n      tag_115\n      jump\t// in\n    tag_209:\n    tag_208:\n      0x20\n      mul\n      0x20\n      add\n      add\n        /* \"Blackjack.sol\":3040:3151  formattedHands[i + 1] = formatHand(players[i].hand, string(abi.encodePacked(\"Player \", uint2str(i + 1), \": \"))) */\n      dup2\n      swap1\n      mstore\n      pop\n        /* \"Blackjack.sol\":3020:3023  i++ */\n      dup1\n      dup1\n      0x01\n      add\n      swap2\n      pop\n      pop\n        /* \"Blackjack.sol\":2980:3163  for (uint256 i = 0; i < players.length; i++) {... */\n      jump(tag_193)\n    tag_194:\n      pop\n        /* \"Blackjack.sol\":3182:3196  formattedHands */\n      dup1\n        /* \"Blackjack.sol\":3175:3196  return formattedHands */\n      swap2\n      pop\n      pop\n        /* \"Blackjack.sol\":2685:3204  function getAllHandsFormatted() external view returns (string[] memory) {... */\n      swap1\n      jump\t// out\n        /* \"Blackjack.sol\":1231:1642  function startGame() external {... */\n    tag_67:\n        /* \"Blackjack.sol\":1294:1295  0 */\n      0x00\n        /* \"Blackjack.sol\":1280:1291  playerCount */\n      sload(0x02)\n        /* \"Blackjack.sol\":1280:1295  playerCount > 0 */\n      gt\n        /* \"Blackjack.sol\":1272:1322  require(playerCount > 0, \"No players in the game\") */\n      tag_211\n      jumpi\n      mload(0x40)\n      0x08c379a000000000000000000000000000000000000000000000000000000000\n      dup2\n      mstore\n      0x04\n      add\n      tag_212\n      swap1\n      tag_213\n      jump\t// in\n    tag_212:\n      mload(0x40)\n      dup1\n      swap2\n      sub\n      swap1\n      revert\n    tag_211:\n        /* \"Blackjack.sol\":1333:1346  shuffleDeck() */\n      tag_214\n        /* \"Blackjack.sol\":1333:1344  shuffleDeck */\n      tag_215\n        /* \"Blackjack.sol\":1333:1346  shuffleDeck() */\n      jump\t// in\n    tag_214:\n        /* \"Blackjack.sol\":1417:1426  uint256 i */\n      0x00\n        /* \"Blackjack.sol\":1412:1563  for (uint256 i = 0; i < players.length; i++) {... */\n    tag_216:\n        /* \"Blackjack.sol\":1436:1443  players */\n      0x01\n        /* \"Blackjack.sol\":1436:1450  players.length */\n      dup1\n      sload\n      swap1\n      pop\n        /* \"Blackjack.sol\":1432:1433  i */\n      dup2\n        /* \"Blackjack.sol\":1432:1450  i < players.length */\n      lt\n        /* \"Blackjack.sol\":1412:1563  for (uint256 i = 0; i < players.length; i++) {... */\n      iszero\n      tag_217\n      jumpi\n        /* \"Blackjack.sol\":1472:1479  players */\n      0x01\n        /* \"Blackjack.sol\":1480:1481  i */\n      dup2\n        /* \"Blackjack.sol\":1472:1482  players[i] */\n      dup2\n      sload\n      dup2\n      lt\n      tag_219\n      jumpi\n      tag_220\n      tag_115\n      jump\t// in\n    tag_220:\n    tag_219:\n      swap1\n      0x00\n      mstore\n      keccak256(0x00, 0x20)\n      swap1\n      0x04\n      mul\n      add\n        /* \"Blackjack.sol\":1472:1487  players[i].hand */\n      0x02\n      add\n        /* \"Blackjack.sol\":1493:1503  drawCard() */\n      tag_222\n        /* \"Blackjack.sol\":1493:1501  drawCard */\n      tag_95\n        /* \"Blackjack.sol\":1493:1503  drawCard() */\n      jump\t// in\n    tag_222:\n        /* \"Blackjack.sol\":1472:1504  players[i].hand.push(drawCard()) */\n      swap1\n      dup1\n      0x01\n      dup2\n      sload\n      add\n      dup1\n      dup3\n      sstore\n      dup1\n      swap2\n      pop\n      pop\n      0x01\n      swap1\n      sub\n      swap1\n      0x00\n      mstore\n      keccak256(0x00, 0x20)\n      swap1\n      0x20\n      swap2\n      dup3\n      dup3\n      div\n      add\n      swap2\n      swap1\n      mod\n      swap1\n      swap2\n      swap1\n      swap2\n      swap1\n      swap2\n      0x0100\n      exp\n      dup2\n      sload\n      dup2\n      0xff\n      mul\n      not\n      and\n      swap1\n      dup4\n      0xff\n      and\n      mul\n      or\n      swap1\n      sstore\n      pop\n        /* \"Blackjack.sol\":1519:1526  players */\n      0x01\n        /* \"Blackjack.sol\":1527:1528  i */\n      dup2\n        /* \"Blackjack.sol\":1519:1529  players[i] */\n      dup2\n      sload\n      dup2\n      lt\n      tag_224\n      jumpi\n      tag_225\n      tag_115\n      jump\t// in\n    tag_225:\n    tag_224:\n      swap1\n      0x00\n      mstore\n      keccak256(0x00, 0x20)\n      swap1\n      0x04\n      mul\n      add\n        /* \"Blackjack.sol\":1519:1534  players[i].hand */\n      0x02\n      add\n        /* \"Blackjack.sol\":1540:1550  drawCard() */\n      tag_227\n        /* \"Blackjack.sol\":1540:1548  drawCard */\n      tag_95\n        /* \"Blackjack.sol\":1540:1550  drawCard() */\n      jump\t// in\n    tag_227:\n        /* \"Blackjack.sol\":1519:1551  players[i].hand.push(drawCard()) */\n      swap1\n      dup1\n      0x01\n      dup2\n      sload\n      add\n      dup1\n      dup3\n      sstore\n      dup1\n      swap2\n      pop\n      pop\n      0x01\n      swap1\n      sub\n      swap1\n      0x00\n      mstore\n      keccak256(0x00, 0x20)\n      swap1\n      0x20\n      swap2\n      dup3\n      dup3\n      div\n      add\n      swap2\n      swap1\n      mod\n      swap1\n      swap2\n      swap1\n      swap2\n      swap1\n      swap2\n      0x0100\n      exp\n      dup2\n      sload\n      dup2\n      0xff\n      mul\n      not\n      and\n      swap1\n      dup4\n      0xff\n      and\n      mul\n      or\n      swap1\n      sstore\n      pop\n        /* \"Blackjack.sol\":1452:1455  i++ */\n      dup1\n      dup1\n      0x01\n      add\n      swap2\n      pop\n      pop\n        /* \"Blackjack.sol\":1412:1563  for (uint256 i = 0; i < players.length; i++) {... */\n      jump(tag_216)\n    tag_217:\n      pop\n        /* \"Blackjack.sol\":1573:1581  bankHand */\n      0x03\n        /* \"Blackjack.sol\":1587:1597  drawCard() */\n      tag_229\n        /* \"Blackjack.sol\":1587:1595  drawCard */\n      tag_95\n        /* \"Blackjack.sol\":1587:1597  drawCard() */\n      jump\t// in\n    tag_229:\n        /* \"Blackjack.sol\":1573:1598  bankHand.push(drawCard()) */\n      swap1\n      dup1\n      0x01\n      dup2\n      sload\n      add\n      dup1\n      dup3\n      sstore\n      dup1\n      swap2\n      pop\n      pop\n      0x01\n      swap1\n      sub\n      swap1\n      0x00\n      mstore\n      keccak256(0x00, 0x20)\n      swap1\n      0x20\n      swap2\n      dup3\n      dup3\n      div\n      add\n      swap2\n      swap1\n      mod\n      swap1\n      swap2\n      swap1\n      swap2\n      swap1\n      swap2\n      0x0100\n      exp\n      dup2\n      sload\n      dup2\n      0xff\n      mul\n      not\n      and\n      swap1\n      dup4\n      0xff\n      and\n      mul\n      or\n      swap1\n      sstore\n      pop\n        /* \"Blackjack.sol\":1609:1617  bankHand */\n      0x03\n        /* \"Blackjack.sol\":1623:1633  drawCard() */\n      tag_231\n        /* \"Blackjack.sol\":1623:1631  drawCard */\n      tag_95\n        /* \"Blackjack.sol\":1623:1633  drawCard() */\n      jump\t// in\n    tag_231:\n        /* \"Blackjack.sol\":1609:1634  bankHand.push(drawCard()) */\n      swap1\n      dup1\n      0x01\n      dup2\n      sload\n      add\n      dup1\n      dup3\n      sstore\n      dup1\n      swap2\n      pop\n      pop\n      0x01\n      swap1\n      sub\n      swap1\n      0x00\n      mstore\n      keccak256(0x00, 0x20)\n      swap1\n      0x20\n      swap2\n      dup3\n      dup3\n      div\n      add\n      swap2\n      swap1\n      mod\n      swap1\n      swap2\n      swap1\n      swap2\n      swap1\n      swap2\n      0x0100\n      exp\n      dup2\n      sload\n      dup2\n      0xff\n      mul\n      not\n      and\n      swap1\n      dup4\n      0xff\n      and\n      mul\n      or\n      swap1\n      sstore\n      pop\n        /* \"Blackjack.sol\":1231:1642  function startGame() external {... */\n      jump\t// out\n        /* \"Blackjack.sol\":4159:4194  string public formattedLastBankHand */\n    tag_70:\n      0x07\n      dup1\n      sload\n      tag_233\n      swap1\n      tag_152\n      jump\t// in\n    tag_233:\n      dup1\n      0x1f\n      add\n      0x20\n      dup1\n      swap2\n      div\n      mul\n      0x20\n      add\n      mload(0x40)\n      swap1\n      dup2\n      add\n      0x40\n      mstore\n      dup1\n      swap3\n      swap2\n      swap1\n      dup2\n      dup2\n      mstore\n      0x20\n      add\n      dup3\n      dup1\n      sload\n      tag_234\n      swap1\n      tag_152\n      jump\t// in\n    tag_234:\n      dup1\n      iszero\n      tag_235\n      jumpi\n      dup1\n      0x1f\n      lt\n      tag_236\n      jumpi\n      0x0100\n      dup1\n      dup4\n      sload\n      div\n      mul\n      dup4\n      mstore\n      swap2\n      0x20\n      add\n      swap2\n      jump(tag_235)\n    tag_236:\n      dup3\n      add\n      swap2\n      swap1\n      0x00\n      mstore\n      keccak256(0x00, 0x20)\n      swap1\n    tag_237:\n      dup2\n      sload\n      dup2\n      mstore\n      swap1\n      0x01\n      add\n      swap1\n      0x20\n      add\n      dup1\n      dup4\n      gt\n      tag_237\n      jumpi\n      dup3\n      swap1\n      sub\n      0x1f\n      and\n      dup3\n      add\n      swap2\n    tag_235:\n      pop\n      pop\n      pop\n      pop\n      pop\n      dup2\n      jump\t// out\n        /* \"Blackjack.sol\":3212:3815  function hit(uint256 playerIndex) external {... */\n    tag_75:\n        /* \"Blackjack.sol\":3288:3295  players */\n      0x01\n        /* \"Blackjack.sol\":3296:3307  playerIndex */\n      dup2\n        /* \"Blackjack.sol\":3288:3308  players[playerIndex] */\n      dup2\n      sload\n      dup2\n      lt\n      tag_239\n      jumpi\n      tag_240\n      tag_115\n      jump\t// in\n    tag_240:\n    tag_239:\n      swap1\n      0x00\n      mstore\n      keccak256(0x00, 0x20)\n      swap1\n      0x04\n      mul\n      add\n        /* \"Blackjack.sol\":3288:3313  players[playerIndex].addr */\n      0x00\n      add\n      0x00\n      swap1\n      sload\n      swap1\n      0x0100\n      exp\n      swap1\n      div\n      0xffffffffffffffffffffffffffffffffffffffff\n      and\n        /* \"Blackjack.sol\":3274:3313  msg.sender == players[playerIndex].addr */\n      0xffffffffffffffffffffffffffffffffffffffff\n      and\n        /* \"Blackjack.sol\":3274:3284  msg.sender */\n      caller\n        /* \"Blackjack.sol\":3274:3313  msg.sender == players[playerIndex].addr */\n      0xffffffffffffffffffffffffffffffffffffffff\n      and\n      eq\n        /* \"Blackjack.sol\":3266:3331  require(msg.sender == players[playerIndex].addr, \"Not your turn\") */\n      tag_242\n      jumpi\n      mload(0x40)\n      0x08c379a000000000000000000000000000000000000000000000000000000000\n      dup2\n      mstore\n      0x04\n      add\n      tag_243\n      swap1\n      tag_174\n      jump\t// in\n    tag_243:\n      mload(0x40)\n      dup1\n      swap2\n      sub\n      swap1\n      revert\n    tag_242:\n        /* \"Blackjack.sol\":3350:3357  players */\n      0x01\n        /* \"Blackjack.sol\":3358:3369  playerIndex */\n      dup2\n        /* \"Blackjack.sol\":3350:3370  players[playerIndex] */\n      dup2\n      sload\n      dup2\n      lt\n      tag_244\n      jumpi\n      tag_245\n      tag_115\n      jump\t// in\n    tag_245:\n    tag_244:\n      swap1\n      0x00\n      mstore\n      keccak256(0x00, 0x20)\n      swap1\n      0x04\n      mul\n      add\n        /* \"Blackjack.sol\":3350:3379  players[playerIndex].isActive */\n      0x03\n      add\n      0x00\n      swap1\n      sload\n      swap1\n      0x0100\n      exp\n      swap1\n      div\n      0xff\n      and\n        /* \"Blackjack.sol\":3342:3404  require(players[playerIndex].isActive, \"Player is not active\") */\n      tag_247\n      jumpi\n      mload(0x40)\n      0x08c379a000000000000000000000000000000000000000000000000000000000\n      dup2\n      mstore\n      0x04\n      add\n      tag_248\n      swap1\n      tag_249\n      jump\t// in\n    tag_248:\n      mload(0x40)\n      dup1\n      swap2\n      sub\n      swap1\n      revert\n    tag_247:\n        /* \"Blackjack.sol\":3424:3431  players */\n      0x01\n        /* \"Blackjack.sol\":3432:3443  playerIndex */\n      dup2\n        /* \"Blackjack.sol\":3424:3444  players[playerIndex] */\n      dup2\n      sload\n      dup2\n      lt\n      tag_250\n      jumpi\n      tag_251\n      tag_115\n      jump\t// in\n    tag_251:\n    tag_250:\n      swap1\n      0x00\n      mstore\n      keccak256(0x00, 0x20)\n      swap1\n      0x04\n      mul\n      add\n        /* \"Blackjack.sol\":3424:3453  players[playerIndex].isBusted */\n      0x03\n      add\n      0x01\n      swap1\n      sload\n      swap1\n      0x0100\n      exp\n      swap1\n      div\n      0xff\n      and\n        /* \"Blackjack.sol\":3423:3453  !players[playerIndex].isBusted */\n      iszero\n        /* \"Blackjack.sol\":3415:3482  require(!players[playerIndex].isBusted, \"Player is already busted\") */\n      tag_253\n      jumpi\n      mload(0x40)\n      0x08c379a000000000000000000000000000000000000000000000000000000000\n      dup2\n      mstore\n      0x04\n      add\n      tag_254\n      swap1\n      tag_255\n      jump\t// in\n    tag_254:\n      mload(0x40)\n      dup1\n      swap2\n      sub\n      swap1\n      revert\n    tag_253:\n        /* \"Blackjack.sol\":3495:3505  uint8 card */\n      0x00\n        /* \"Blackjack.sol\":3508:3518  drawCard() */\n      tag_256\n        /* \"Blackjack.sol\":3508:3516  drawCard */\n      tag_95\n        /* \"Blackjack.sol\":3508:3518  drawCard() */\n      jump\t// in\n    tag_256:\n        /* \"Blackjack.sol\":3495:3518  uint8 card = drawCard() */\n      swap1\n      pop\n        /* \"Blackjack.sol\":3529:3536  players */\n      0x01\n        /* \"Blackjack.sol\":3537:3548  playerIndex */\n      dup3\n        /* \"Blackjack.sol\":3529:3549  players[playerIndex] */\n      dup2\n      sload\n      dup2\n      lt\n      tag_257\n      jumpi\n      tag_258\n      tag_115\n      jump\t// in\n    tag_258:\n    tag_257:\n      swap1\n      0x00\n      mstore\n      keccak256(0x00, 0x20)\n      swap1\n      0x04\n      mul\n      add\n        /* \"Blackjack.sol\":3529:3554  players[playerIndex].hand */\n      0x02\n      add\n        /* \"Blackjack.sol\":3560:3564  card */\n      dup2\n        /* \"Blackjack.sol\":3529:3565  players[playerIndex].hand.push(card) */\n      swap1\n      dup1\n      0x01\n      dup2\n      sload\n      add\n      dup1\n      dup3\n      sstore\n      dup1\n      swap2\n      pop\n      pop\n      0x01\n      swap1\n      sub\n      swap1\n      0x00\n      mstore\n      keccak256(0x00, 0x20)\n      swap1\n      0x20\n      swap2\n      dup3\n      dup3\n      div\n      add\n      swap2\n      swap1\n      mod\n      swap1\n      swap2\n      swap1\n      swap2\n      swap1\n      swap2\n      0x0100\n      exp\n      dup2\n      sload\n      dup2\n      0xff\n      mul\n      not\n      and\n      swap1\n      dup4\n      0xff\n      and\n      mul\n      or\n      swap1\n      sstore\n      pop\n        /* \"Blackjack.sol\":3689:3691  21 */\n      0x15\n        /* \"Blackjack.sol\":3647:3686  getHandValue(players[playerIndex].hand) */\n      tag_261\n        /* \"Blackjack.sol\":3660:3667  players */\n      0x01\n        /* \"Blackjack.sol\":3668:3679  playerIndex */\n      dup5\n        /* \"Blackjack.sol\":3660:3680  players[playerIndex] */\n      dup2\n      sload\n      dup2\n      lt\n      tag_262\n      jumpi\n      tag_263\n      tag_115\n      jump\t// in\n    tag_263:\n    tag_262:\n      swap1\n      0x00\n      mstore\n      keccak256(0x00, 0x20)\n      swap1\n      0x04\n      mul\n      add\n        /* \"Blackjack.sol\":3660:3685  players[playerIndex].hand */\n      0x02\n      add\n        /* \"Blackjack.sol\":3647:3686  getHandValue(players[playerIndex].hand) */\n      dup1\n      sload\n      dup1\n      0x20\n      mul\n      0x20\n      add\n      mload(0x40)\n      swap1\n      dup2\n      add\n      0x40\n      mstore\n      dup1\n      swap3\n      swap2\n      swap1\n      dup2\n      dup2\n      mstore\n      0x20\n      add\n      dup3\n      dup1\n      sload\n      dup1\n      iszero\n      tag_265\n      jumpi\n      0x20\n      mul\n      dup3\n      add\n      swap2\n      swap1\n      0x00\n      mstore\n      keccak256(0x00, 0x20)\n      swap1\n      0x00\n      swap1\n    tag_266:\n      dup3\n      dup3\n      swap1\n      sload\n      swap1\n      0x0100\n      exp\n      swap1\n      div\n      0xff\n      and\n      0xff\n      and\n      dup2\n      mstore\n      0x20\n      add\n      swap1\n      0x01\n      add\n      swap1\n      0x20\n      dup3\n      0x00\n      add\n      div\n      swap3\n      dup4\n      add\n      swap3\n      0x01\n      sub\n      dup3\n      mul\n      swap2\n      pop\n      dup1\n      dup5\n      gt\n      tag_266\n      jumpi\n      swap1\n      pop\n    tag_265:\n      pop\n      pop\n      pop\n      pop\n      pop\n        /* \"Blackjack.sol\":3647:3659  getHandValue */\n      tag_89\n        /* \"Blackjack.sol\":3647:3686  getHandValue(players[playerIndex].hand) */\n      jump\t// in\n    tag_261:\n        /* \"Blackjack.sol\":3647:3691  getHandValue(players[playerIndex].hand) > 21 */\n      0xff\n      and\n      gt\n        /* \"Blackjack.sol\":3643:3808  if (getHandValue(players[playerIndex].hand) > 21) {... */\n      iszero\n      tag_267\n      jumpi\n        /* \"Blackjack.sol\":3740:3744  true */\n      0x01\n        /* \"Blackjack.sol\":3708:3715  players */\n      dup1\n        /* \"Blackjack.sol\":3716:3727  playerIndex */\n      dup4\n        /* \"Blackjack.sol\":3708:3728  players[playerIndex] */\n      dup2\n      sload\n      dup2\n      lt\n      tag_268\n      jumpi\n      tag_269\n      tag_115\n      jump\t// in\n    tag_269:\n    tag_268:\n      swap1\n      0x00\n      mstore\n      keccak256(0x00, 0x20)\n      swap1\n      0x04\n      mul\n      add\n        /* \"Blackjack.sol\":3708:3737  players[playerIndex].isBusted */\n      0x03\n      add\n      0x01\n        /* \"Blackjack.sol\":3708:3744  players[playerIndex].isBusted = true */\n      0x0100\n      exp\n      dup2\n      sload\n      dup2\n      0xff\n      mul\n      not\n      and\n      swap1\n      dup4\n      iszero\n      iszero\n      mul\n      or\n      swap1\n      sstore\n      pop\n        /* \"Blackjack.sol\":3791:3796  false */\n      0x00\n        /* \"Blackjack.sol\":3759:3766  players */\n      0x01\n        /* \"Blackjack.sol\":3767:3778  playerIndex */\n      dup4\n        /* \"Blackjack.sol\":3759:3779  players[playerIndex] */\n      dup2\n      sload\n      dup2\n      lt\n      tag_271\n      jumpi\n      tag_272\n      tag_115\n      jump\t// in\n    tag_272:\n    tag_271:\n      swap1\n      0x00\n      mstore\n      keccak256(0x00, 0x20)\n      swap1\n      0x04\n      mul\n      add\n        /* \"Blackjack.sol\":3759:3788  players[playerIndex].isActive */\n      0x03\n      add\n      0x00\n        /* \"Blackjack.sol\":3759:3796  players[playerIndex].isActive = false */\n      0x0100\n      exp\n      dup2\n      sload\n      dup2\n      0xff\n      mul\n      not\n      and\n      swap1\n      dup4\n      iszero\n      iszero\n      mul\n      or\n      swap1\n      sstore\n      pop\n        /* \"Blackjack.sol\":3643:3808  if (getHandValue(players[playerIndex].hand) > 21) {... */\n    tag_267:\n        /* \"Blackjack.sol\":3255:3815  {... */\n      pop\n        /* \"Blackjack.sol\":3212:3815  function hit(uint256 playerIndex) external {... */\n      pop\n      jump\t// out\n        /* \"Blackjack.sol\":746:1223  function joinGame(uint256 bet) external payable {... */\n    tag_78:\n        /* \"Blackjack.sol\":827:828  4 */\n      0x04\n        /* \"Blackjack.sol\":813:824  playerCount */\n      sload(0x02)\n        /* \"Blackjack.sol\":813:828  playerCount < 4 */\n      lt\n        /* \"Blackjack.sol\":805:854  require(playerCount < 4, \"Max 4 players allowed\") */\n      tag_275\n      jumpi\n      mload(0x40)\n      0x08c379a000000000000000000000000000000000000000000000000000000000\n      dup2\n      mstore\n      0x04\n      add\n      tag_276\n      swap1\n      tag_277\n      jump\t// in\n    tag_276:\n      mload(0x40)\n      dup1\n      swap2\n      sub\n      swap1\n      revert\n    tag_275:\n        /* \"Blackjack.sol\":886:889  bet */\n      dup1\n        /* \"Blackjack.sol\":873:882  msg.value */\n      callvalue\n        /* \"Blackjack.sol\":873:889  msg.value == bet */\n      eq\n        /* \"Blackjack.sol\":865:913  require(msg.value == bet, \"Bet amount mismatch\") */\n      tag_278\n      jumpi\n      mload(0x40)\n      0x08c379a000000000000000000000000000000000000000000000000000000000\n      dup2\n      mstore\n      0x04\n      add\n      tag_279\n      swap1\n      tag_280\n      jump\t// in\n    tag_279:\n      mload(0x40)\n      dup1\n      swap2\n      sub\n      swap1\n      revert\n    tag_278:\n        /* \"Blackjack.sol\":964:971  players */\n      0x01\n        /* \"Blackjack.sol\":977:1188  Player({... */\n      mload(0x40)\n      dup1\n      0xa0\n      add\n      0x40\n      mstore\n      dup1\n        /* \"Blackjack.sol\":1005:1015  msg.sender */\n      caller\n        /* \"Blackjack.sol\":977:1188  Player({... */\n      0xffffffffffffffffffffffffffffffffffffffff\n      and\n      dup2\n      mstore\n      0x20\n      add\n        /* \"Blackjack.sol\":1035:1038  bet */\n      dup4\n        /* \"Blackjack.sol\":977:1188  Player({... */\n      dup2\n      mstore\n      0x20\n      add\n        /* \"Blackjack.sol\":1071:1072  0 */\n      0x00\n        /* \"Blackjack.sol\":1059:1073  new uint8[](0) */\n      0xffffffffffffffff\n      dup2\n      gt\n      iszero\n      tag_281\n      jumpi\n      tag_282\n      tag_185\n      jump\t// in\n    tag_282:\n    tag_281:\n      mload(0x40)\n      swap1\n      dup1\n      dup3\n      mstore\n      dup1\n      0x20\n      mul\n      0x20\n      add\n      dup3\n      add\n      0x40\n      mstore\n      dup1\n      iszero\n      tag_283\n      jumpi\n      dup2\n      0x20\n      add\n      0x20\n      dup3\n      mul\n      dup1\n      calldatasize\n      dup4\n      calldatacopy\n      dup1\n      dup3\n      add\n      swap2\n      pop\n      pop\n      swap1\n      pop\n    tag_283:\n      pop\n        /* \"Blackjack.sol\":977:1188  Player({... */\n      dup2\n      mstore\n      0x20\n      add\n        /* \"Blackjack.sol\":1142:1146  true */\n      0x01\n        /* \"Blackjack.sol\":977:1188  Player({... */\n      iszero\n      iszero\n      dup2\n      mstore\n      0x20\n      add\n        /* \"Blackjack.sol\":1171:1176  false */\n      0x00\n        /* \"Blackjack.sol\":977:1188  Player({... */\n      iszero\n      iszero\n      dup2\n      mstore\n      pop\n        /* \"Blackjack.sol\":964:1189  players.push(Player({... */\n      swap1\n      dup1\n      0x01\n      dup2\n      sload\n      add\n      dup1\n      dup3\n      sstore\n      dup1\n      swap2\n      pop\n      pop\n      0x01\n      swap1\n      sub\n      swap1\n      0x00\n      mstore\n      keccak256(0x00, 0x20)\n      swap1\n      0x04\n      mul\n      add\n      0x00\n      swap1\n      swap2\n      swap1\n      swap2\n      swap1\n      swap2\n      pop\n      0x00\n      dup3\n      add\n      mload\n      dup2\n      0x00\n      add\n      exp(0x0100, 0x00)\n      dup2\n      sload\n      dup2\n      0xffffffffffffffffffffffffffffffffffffffff\n      mul\n      not\n      and\n      swap1\n      dup4\n      0xffffffffffffffffffffffffffffffffffffffff\n      and\n      mul\n      or\n      swap1\n      sstore\n      pop\n      0x20\n      dup3\n      add\n      mload\n      dup2\n      0x01\n      add\n      sstore\n      0x40\n      dup3\n      add\n      mload\n      dup2\n      0x02\n      add\n      swap1\n      dup1\n      mload\n      swap1\n      0x20\n      add\n      swap1\n      tag_285\n      swap3\n      swap2\n      swap1\n      tag_286\n      jump\t// in\n    tag_285:\n      pop\n      0x60\n      dup3\n      add\n      mload\n      dup2\n      0x03\n      add\n      exp(0x0100, 0x00)\n      dup2\n      sload\n      dup2\n      0xff\n      mul\n      not\n      and\n      swap1\n      dup4\n      iszero\n      iszero\n      mul\n      or\n      swap1\n      sstore\n      pop\n      0x80\n      dup3\n      add\n      mload\n      dup2\n      0x03\n      add\n      exp(0x0100, 0x01)\n      dup2\n      sload\n      dup2\n      0xff\n      mul\n      not\n      and\n      swap1\n      dup4\n      iszero\n      iszero\n      mul\n      or\n      swap1\n      sstore\n      pop\n      pop\n      pop\n        /* \"Blackjack.sol\":1202:1213  playerCount */\n      0x02\n      0x00\n        /* \"Blackjack.sol\":1202:1215  playerCount++ */\n      dup2\n      sload\n      dup1\n      swap3\n      swap2\n      swap1\n      tag_287\n      swap1\n      tag_288\n      jump\t// in\n    tag_287:\n      swap2\n      swap1\n      pop\n      sstore\n      pop\n        /* \"Blackjack.sol\":746:1223  function joinGame(uint256 bet) external payable {... */\n      pop\n      jump\t// out\n        /* \"Blackjack.sol\":349:372  Player[] public players */\n    tag_82:\n      0x01\n      dup2\n      dup2\n      sload\n      dup2\n      lt\n      tag_289\n      jumpi\n      0x00\n      dup1\n      revert\n    tag_289:\n      swap1\n      0x00\n      mstore\n      keccak256(0x00, 0x20)\n      swap1\n      0x04\n      mul\n      add\n      0x00\n      swap2\n      pop\n      swap1\n      pop\n      dup1\n      0x00\n      add\n      0x00\n      swap1\n      sload\n      swap1\n      0x0100\n      exp\n      swap1\n      div\n      0xffffffffffffffffffffffffffffffffffffffff\n      and\n      swap1\n      dup1\n      0x01\n      add\n      sload\n      swap1\n      dup1\n      0x03\n      add\n      0x00\n      swap1\n      sload\n      swap1\n      0x0100\n      exp\n      swap1\n      div\n      0xff\n      and\n      swap1\n      dup1\n      0x03\n      add\n      0x01\n      swap1\n      sload\n      swap1\n      0x0100\n      exp\n      swap1\n      div\n      0xff\n      and\n      swap1\n      pop\n      dup5\n      jump\t// out\n        /* \"CardDeck.sol\":1077:1707  function getHandValue(uint8[] memory hand) internal pure returns (uint8) {... */\n    tag_89:\n        /* \"CardDeck.sol\":1143:1148  uint8 */\n      0x00\n        /* \"CardDeck.sol\":1161:1172  uint8 value */\n      dup1\n        /* \"CardDeck.sol\":1175:1176  0 */\n      0x00\n        /* \"CardDeck.sol\":1161:1176  uint8 value = 0 */\n      swap1\n      pop\n        /* \"CardDeck.sol\":1187:1197  uint8 aces */\n      0x00\n        /* \"CardDeck.sol\":1219:1228  uint256 i */\n      dup1\n        /* \"CardDeck.sol\":1214:1540  for (uint256 i = 0; i < hand.length; i++) {... */\n    tag_292:\n        /* \"CardDeck.sol\":1238:1242  hand */\n      dup5\n        /* \"CardDeck.sol\":1238:1249  hand.length */\n      mload\n        /* \"CardDeck.sol\":1234:1235  i */\n      dup2\n        /* \"CardDeck.sol\":1234:1249  i < hand.length */\n      lt\n        /* \"CardDeck.sol\":1214:1540  for (uint256 i = 0; i < hand.length; i++) {... */\n      iszero\n      tag_293\n      jumpi\n        /* \"CardDeck.sol\":1271:1286  uint8 cardValue */\n      0x00\n        /* \"CardDeck.sol\":1299:1301  13 */\n      0x0d\n        /* \"CardDeck.sol\":1289:1293  hand */\n      dup7\n        /* \"CardDeck.sol\":1294:1295  i */\n      dup4\n        /* \"CardDeck.sol\":1289:1296  hand[i] */\n      dup2\n      mload\n      dup2\n      lt\n      tag_295\n      jumpi\n      tag_296\n      tag_115\n      jump\t// in\n    tag_296:\n    tag_295:\n      0x20\n      mul\n      0x20\n      add\n      add\n      mload\n        /* \"CardDeck.sol\":1289:1301  hand[i] % 13 */\n      tag_297\n      swap2\n      swap1\n      tag_298\n      jump\t// in\n    tag_297:\n        /* \"CardDeck.sol\":1271:1301  uint8 cardValue = hand[i] % 13 */\n      swap1\n      pop\n        /* \"CardDeck.sol\":1356:1357  0 */\n      0x00\n        /* \"CardDeck.sol\":1343:1352  cardValue */\n      dup2\n        /* \"CardDeck.sol\":1343:1357  cardValue == 0 */\n      0xff\n      and\n      sub\n        /* \"CardDeck.sol\":1339:1373  if (cardValue == 0) cardValue = 13 */\n      tag_299\n      jumpi\n        /* \"CardDeck.sol\":1371:1373  13 */\n      0x0d\n        /* \"CardDeck.sol\":1359:1373  cardValue = 13 */\n      swap1\n      pop\n        /* \"CardDeck.sol\":1339:1373  if (cardValue == 0) cardValue = 13 */\n    tag_299:\n        /* \"CardDeck.sol\":1404:1406  10 */\n      0x0a\n        /* \"CardDeck.sol\":1392:1401  cardValue */\n      dup2\n        /* \"CardDeck.sol\":1392:1406  cardValue > 10 */\n      0xff\n      and\n      gt\n        /* \"CardDeck.sol\":1388:1422  if (cardValue > 10) cardValue = 10 */\n      iszero\n      tag_300\n      jumpi\n        /* \"CardDeck.sol\":1420:1422  10 */\n      0x0a\n        /* \"CardDeck.sol\":1408:1422  cardValue = 10 */\n      swap1\n      pop\n        /* \"CardDeck.sol\":1388:1422  if (cardValue > 10) cardValue = 10 */\n    tag_300:\n        /* \"CardDeck.sol\":1479:1480  1 */\n      0x01\n        /* \"CardDeck.sol\":1466:1475  cardValue */\n      dup2\n        /* \"CardDeck.sol\":1466:1480  cardValue == 1 */\n      0xff\n      and\n      sub\n        /* \"CardDeck.sol\":1462:1488  if (cardValue == 1) aces++ */\n      tag_301\n      jumpi\n        /* \"CardDeck.sol\":1482:1488  aces++ */\n      dup3\n      dup1\n      tag_302\n      swap1\n      tag_303\n      jump\t// in\n    tag_302:\n      swap4\n      pop\n      pop\n        /* \"CardDeck.sol\":1462:1488  if (cardValue == 1) aces++ */\n    tag_301:\n        /* \"CardDeck.sol\":1519:1528  cardValue */\n      dup1\n        /* \"CardDeck.sol\":1510:1528  value += cardValue */\n      dup5\n      tag_304\n      swap2\n      swap1\n      tag_305\n      jump\t// in\n    tag_304:\n      swap4\n      pop\n        /* \"CardDeck.sol\":1256:1540  {... */\n      pop\n        /* \"CardDeck.sol\":1251:1254  i++ */\n      dup1\n      dup1\n      0x01\n      add\n      swap2\n      pop\n      pop\n        /* \"CardDeck.sol\":1214:1540  for (uint256 i = 0; i < hand.length; i++) {... */\n      jump(tag_292)\n    tag_293:\n      pop\n        /* \"CardDeck.sol\":1552:1675  while (value <= 11 && aces > 0) {... */\n    tag_306:\n        /* \"CardDeck.sol\":1568:1570  11 */\n      0x0b\n        /* \"CardDeck.sol\":1559:1564  value */\n      dup3\n        /* \"CardDeck.sol\":1559:1570  value <= 11 */\n      0xff\n      and\n      gt\n      iszero\n        /* \"CardDeck.sol\":1559:1582  value <= 11 && aces > 0 */\n      dup1\n      iszero\n      tag_308\n      jumpi\n      pop\n        /* \"CardDeck.sol\":1581:1582  0 */\n      0x00\n        /* \"CardDeck.sol\":1574:1578  aces */\n      dup2\n        /* \"CardDeck.sol\":1574:1582  aces > 0 */\n      0xff\n      and\n      gt\n        /* \"CardDeck.sol\":1559:1582  value <= 11 && aces > 0 */\n    tag_308:\n        /* \"CardDeck.sol\":1552:1675  while (value <= 11 && aces > 0) {... */\n      iszero\n      tag_307\n      jumpi\n        /* \"CardDeck.sol\":1608:1610  10 */\n      0x0a\n        /* \"CardDeck.sol\":1599:1610  value += 10 */\n      dup3\n      tag_309\n      swap2\n      swap1\n      tag_305\n      jump\t// in\n    tag_309:\n      swap2\n      pop\n        /* \"CardDeck.sol\":1657:1663  aces-- */\n      dup1\n      dup1\n      tag_310\n      swap1\n      tag_311\n      jump\t// in\n    tag_310:\n      swap2\n      pop\n      pop\n        /* \"CardDeck.sol\":1552:1675  while (value <= 11 && aces > 0) {... */\n      jump(tag_306)\n    tag_307:\n        /* \"CardDeck.sol\":1694:1699  value */\n      dup2\n        /* \"CardDeck.sol\":1687:1699  return value */\n      swap3\n      pop\n      pop\n      pop\n        /* \"CardDeck.sol\":1077:1707  function getHandValue(uint8[] memory hand) internal pure returns (uint8) {... */\n      swap2\n      swap1\n      pop\n      jump\t// out\n        /* \"CardDeck.sol\":833:1069  function drawCard() internal returns (uint8) {... */\n    tag_95:\n        /* \"CardDeck.sol\":871:876  uint8 */\n      0x00\n        /* \"CardDeck.sol\":911:912  0 */\n      dup1\n        /* \"CardDeck.sol\":897:901  deck */\n      0x00\n        /* \"CardDeck.sol\":897:908  deck.length */\n      dup1\n      sload\n      swap1\n      pop\n        /* \"CardDeck.sol\":897:912  deck.length > 0 */\n      gt\n        /* \"CardDeck.sol\":889:942  require(deck.length > 0, \"No cards left in the deck\") */\n      tag_313\n      jumpi\n      mload(0x40)\n      0x08c379a000000000000000000000000000000000000000000000000000000000\n      dup2\n      mstore\n      0x04\n      add\n      tag_314\n      swap1\n      tag_315\n      jump\t// in\n    tag_314:\n      mload(0x40)\n      dup1\n      swap2\n      sub\n      swap1\n      revert\n    tag_313:\n        /* \"CardDeck.sol\":953:963  uint8 card */\n      0x00\n        /* \"CardDeck.sol\":966:970  deck */\n      dup1\n        /* \"CardDeck.sol\":985:986  1 */\n      0x01\n        /* \"CardDeck.sol\":971:975  deck */\n      0x00\n        /* \"CardDeck.sol\":971:982  deck.length */\n      dup1\n      sload\n      swap1\n      pop\n        /* \"CardDeck.sol\":971:986  deck.length - 1 */\n      tag_316\n      swap2\n      swap1\n      tag_317\n      jump\t// in\n    tag_316:\n        /* \"CardDeck.sol\":966:987  deck[deck.length - 1] */\n      dup2\n      sload\n      dup2\n      lt\n      tag_318\n      jumpi\n      tag_319\n      tag_115\n      jump\t// in\n    tag_319:\n    tag_318:\n      swap1\n      0x00\n      mstore\n      keccak256(0x00, 0x20)\n      swap1\n      0x20\n      swap2\n      dup3\n      dup3\n      div\n      add\n      swap2\n      swap1\n      mod\n      swap1\n      sload\n      swap1\n      0x0100\n      exp\n      swap1\n      div\n      0xff\n      and\n        /* \"CardDeck.sol\":953:987  uint8 card = deck[deck.length - 1] */\n      swap1\n      pop\n        /* \"CardDeck.sol\":998:1002  deck */\n      0x00\n        /* \"CardDeck.sol\":998:1008  deck.pop() */\n      dup1\n      sload\n      dup1\n      tag_321\n      jumpi\n      tag_322\n      tag_323\n      jump\t// in\n    tag_322:\n    tag_321:\n      0x01\n      swap1\n      sub\n      dup2\n      dup2\n      swap1\n      0x00\n      mstore\n      keccak256(0x00, 0x20)\n      swap1\n      0x20\n      swap2\n      dup3\n      dup3\n      div\n      add\n      swap2\n      swap1\n      mod\n      0x0100\n      exp\n      dup2\n      sload\n      swap1\n      0xff\n      mul\n      not\n      and\n      swap1\n      sstore\n      swap1\n      sstore\n        /* \"CardDeck.sol\":1057:1061  card */\n      dup1\n        /* \"CardDeck.sol\":1050:1061  return card */\n      swap2\n      pop\n      pop\n        /* \"CardDeck.sol\":833:1069  function drawCard() internal returns (uint8) {... */\n      swap1\n      jump\t// out\n        /* \"Blackjack.sol\":1650:2675  function formatHand(uint8[] memory hand, string memory prefix) internal pure returns (string memory) {... */\n    tag_106:\n        /* \"Blackjack.sol\":1736:1749  string memory */\n      0x60\n        /* \"Blackjack.sol\":1762:1786  string memory handString */\n      0x00\n        /* \"Blackjack.sol\":1789:1795  prefix */\n      dup3\n        /* \"Blackjack.sol\":1762:1795  string memory handString = prefix */\n      swap1\n      pop\n        /* \"Blackjack.sol\":1813:1822  uint256 i */\n      0x00\n        /* \"Blackjack.sol\":1808:2638  for (uint256 i = 0; i < hand.length; i++) {... */\n    tag_326:\n        /* \"Blackjack.sol\":1832:1836  hand */\n      dup5\n        /* \"Blackjack.sol\":1832:1843  hand.length */\n      mload\n        /* \"Blackjack.sol\":1828:1829  i */\n      dup2\n        /* \"Blackjack.sol\":1828:1843  i < hand.length */\n      lt\n        /* \"Blackjack.sol\":1808:2638  for (uint256 i = 0; i < hand.length; i++) {... */\n      iszero\n      tag_327\n      jumpi\n        /* \"Blackjack.sol\":1865:1880  uint8 cardValue */\n      0x00\n        /* \"Blackjack.sol\":1893:1895  13 */\n      0x0d\n        /* \"Blackjack.sol\":1883:1887  hand */\n      dup7\n        /* \"Blackjack.sol\":1888:1889  i */\n      dup4\n        /* \"Blackjack.sol\":1883:1890  hand[i] */\n      dup2\n      mload\n      dup2\n      lt\n      tag_329\n      jumpi\n      tag_330\n      tag_115\n      jump\t// in\n    tag_330:\n    tag_329:\n      0x20\n      mul\n      0x20\n      add\n      add\n      mload\n        /* \"Blackjack.sol\":1883:1895  hand[i] % 13 */\n      tag_331\n      swap2\n      swap1\n      tag_298\n      jump\t// in\n    tag_331:\n        /* \"Blackjack.sol\":1865:1895  uint8 cardValue = hand[i] % 13 */\n      swap1\n      pop\n        /* \"Blackjack.sol\":1927:1928  0 */\n      0x00\n        /* \"Blackjack.sol\":1914:1923  cardValue */\n      dup2\n        /* \"Blackjack.sol\":1914:1928  cardValue == 0 */\n      0xff\n      and\n      sub\n        /* \"Blackjack.sol\":1910:1984  if (cardValue == 0) {... */\n      tag_332\n      jumpi\n        /* \"Blackjack.sol\":1961:1963  13 */\n      0x0d\n        /* \"Blackjack.sol\":1949:1963  cardValue = 13 */\n      swap1\n      pop\n        /* \"Blackjack.sol\":1910:1984  if (cardValue == 0) {... */\n    tag_332:\n        /* \"Blackjack.sol\":2000:2024  string memory cardSymbol */\n      0x60\n        /* \"Blackjack.sol\":2056:2057  1 */\n      0x01\n        /* \"Blackjack.sol\":2043:2052  cardValue */\n      dup3\n        /* \"Blackjack.sol\":2043:2057  cardValue == 1 */\n      0xff\n      and\n      sub\n        /* \"Blackjack.sol\":2039:2418  if (cardValue == 1) {... */\n      tag_333\n      jumpi\n        /* \"Blackjack.sol\":2078:2094  cardSymbol = \"A\" */\n      mload(0x40)\n      dup1\n      0x40\n      add\n      0x40\n      mstore\n      dup1\n      0x01\n      dup2\n      mstore\n      0x20\n      add\n      0x4100000000000000000000000000000000000000000000000000000000000000\n      dup2\n      mstore\n      pop\n      swap1\n      pop\n        /* \"Blackjack.sol\":2039:2418  if (cardValue == 1) {... */\n      jump(tag_334)\n    tag_333:\n        /* \"Blackjack.sol\":2133:2135  11 */\n      0x0b\n        /* \"Blackjack.sol\":2120:2129  cardValue */\n      dup3\n        /* \"Blackjack.sol\":2120:2135  cardValue == 11 */\n      0xff\n      and\n      sub\n        /* \"Blackjack.sol\":2116:2418  if (cardValue == 11) {... */\n      tag_335\n      jumpi\n        /* \"Blackjack.sol\":2156:2172  cardSymbol = \"J\" */\n      mload(0x40)\n      dup1\n      0x40\n      add\n      0x40\n      mstore\n      dup1\n      0x01\n      dup2\n      mstore\n      0x20\n      add\n      0x4a00000000000000000000000000000000000000000000000000000000000000\n      dup2\n      mstore\n      pop\n      swap1\n      pop\n        /* \"Blackjack.sol\":2116:2418  if (cardValue == 11) {... */\n      jump(tag_336)\n    tag_335:\n        /* \"Blackjack.sol\":2211:2213  12 */\n      0x0c\n        /* \"Blackjack.sol\":2198:2207  cardValue */\n      dup3\n        /* \"Blackjack.sol\":2198:2213  cardValue == 12 */\n      0xff\n      and\n      sub\n        /* \"Blackjack.sol\":2194:2418  if (cardValue == 12) {... */\n      tag_337\n      jumpi\n        /* \"Blackjack.sol\":2234:2250  cardSymbol = \"Q\" */\n      mload(0x40)\n      dup1\n      0x40\n      add\n      0x40\n      mstore\n      dup1\n      0x01\n      dup2\n      mstore\n      0x20\n      add\n      0x5100000000000000000000000000000000000000000000000000000000000000\n      dup2\n      mstore\n      pop\n      swap1\n      pop\n        /* \"Blackjack.sol\":2194:2418  if (cardValue == 12) {... */\n      jump(tag_338)\n    tag_337:\n        /* \"Blackjack.sol\":2289:2291  13 */\n      0x0d\n        /* \"Blackjack.sol\":2276:2285  cardValue */\n      dup3\n        /* \"Blackjack.sol\":2276:2291  cardValue == 13 */\n      0xff\n      and\n      sub\n        /* \"Blackjack.sol\":2272:2418  if (cardValue == 13) {... */\n      tag_339\n      jumpi\n        /* \"Blackjack.sol\":2312:2328  cardSymbol = \"K\" */\n      mload(0x40)\n      dup1\n      0x40\n      add\n      0x40\n      mstore\n      dup1\n      0x01\n      dup2\n      mstore\n      0x20\n      add\n      0x4b00000000000000000000000000000000000000000000000000000000000000\n      dup2\n      mstore\n      pop\n      swap1\n      pop\n        /* \"Blackjack.sol\":2272:2418  if (cardValue == 13) {... */\n      jump(tag_340)\n    tag_339:\n        /* \"Blackjack.sol\":2382:2401  uint2str(cardValue) */\n      tag_341\n        /* \"Blackjack.sol\":2391:2400  cardValue */\n      dup3\n        /* \"Blackjack.sol\":2382:2401  uint2str(cardValue) */\n      0xff\n      and\n        /* \"Blackjack.sol\":2382:2390  uint2str */\n      tag_204\n        /* \"Blackjack.sol\":2382:2401  uint2str(cardValue) */\n      jump\t// in\n    tag_341:\n        /* \"Blackjack.sol\":2369:2401  cardSymbol = uint2str(cardValue) */\n      swap1\n      pop\n        /* \"Blackjack.sol\":2272:2418  if (cardValue == 13) {... */\n    tag_340:\n        /* \"Blackjack.sol\":2194:2418  if (cardValue == 12) {... */\n    tag_338:\n        /* \"Blackjack.sol\":2116:2418  if (cardValue == 11) {... */\n    tag_336:\n        /* \"Blackjack.sol\":2039:2418  if (cardValue == 1) {... */\n    tag_334:\n        /* \"Blackjack.sol\":2471:2481  handString */\n      dup4\n        /* \"Blackjack.sol\":2483:2493  cardSymbol */\n      dup2\n        /* \"Blackjack.sol\":2454:2494  abi.encodePacked(handString, cardSymbol) */\n      add(0x20, mload(0x40))\n      tag_342\n      swap3\n      swap2\n      swap1\n      tag_343\n      jump\t// in\n    tag_342:\n      mload(0x40)\n      0x20\n      dup2\n      dup4\n      sub\n      sub\n      dup2\n      mstore\n      swap1\n      0x40\n      mstore\n        /* \"Blackjack.sol\":2434:2495  handString = string(abi.encodePacked(handString, cardSymbol)) */\n      swap4\n      pop\n        /* \"Blackjack.sol\":2534:2535  1 */\n      0x01\n        /* \"Blackjack.sol\":2520:2524  hand */\n      dup8\n        /* \"Blackjack.sol\":2520:2531  hand.length */\n      mload\n        /* \"Blackjack.sol\":2520:2535  hand.length - 1 */\n      tag_344\n      swap2\n      swap1\n      tag_317\n      jump\t// in\n    tag_344:\n        /* \"Blackjack.sol\":2516:2517  i */\n      dup4\n        /* \"Blackjack.sol\":2516:2535  i < hand.length - 1 */\n      lt\n        /* \"Blackjack.sol\":2512:2627  if (i < hand.length - 1) {... */\n      iszero\n      tag_345\n      jumpi\n        /* \"Blackjack.sol\":2593:2603  handString */\n      dup4\n        /* \"Blackjack.sol\":2576:2610  abi.encodePacked(handString, \", \") */\n      add(0x20, mload(0x40))\n      tag_346\n      swap2\n      swap1\n      tag_347\n      jump\t// in\n    tag_346:\n      mload(0x40)\n      0x20\n      dup2\n      dup4\n      sub\n      sub\n      dup2\n      mstore\n      swap1\n      0x40\n      mstore\n        /* \"Blackjack.sol\":2556:2611  handString = string(abi.encodePacked(handString, \", \")) */\n      swap4\n      pop\n        /* \"Blackjack.sol\":2512:2627  if (i < hand.length - 1) {... */\n    tag_345:\n        /* \"Blackjack.sol\":1850:2638  {... */\n      pop\n      pop\n        /* \"Blackjack.sol\":1845:1848  i++ */\n      dup1\n      dup1\n      0x01\n      add\n      swap2\n      pop\n      pop\n        /* \"Blackjack.sol\":1808:2638  for (uint256 i = 0; i < hand.length; i++) {... */\n      jump(tag_326)\n    tag_327:\n      pop\n        /* \"Blackjack.sol\":2657:2667  handString */\n      dup1\n        /* \"Blackjack.sol\":2650:2667  return handString */\n      swap2\n      pop\n      pop\n        /* \"Blackjack.sol\":1650:2675  function formatHand(uint8[] memory hand, string memory prefix) internal pure returns (string memory) {... */\n      swap3\n      swap2\n      pop\n      pop\n      jump\t// out\n        /* \"Blackjack.sol\":5575:6763  function formatWinners(address[] memory winners) internal view returns (string memory) {... */\n    tag_147:\n        /* \"Blackjack.sol\":5647:5660  string memory */\n      0x60\n        /* \"Blackjack.sol\":5743:5763  uint256 nonBankCount */\n      0x00\n        /* \"Blackjack.sol\":5783:5792  uint256 i */\n      dup1\n        /* \"Blackjack.sol\":5778:5922  for (uint256 i = 0; i < winners.length; i++) {... */\n    tag_349:\n        /* \"Blackjack.sol\":5802:5809  winners */\n      dup4\n        /* \"Blackjack.sol\":5802:5816  winners.length */\n      mload\n        /* \"Blackjack.sol\":5798:5799  i */\n      dup2\n        /* \"Blackjack.sol\":5798:5816  i < winners.length */\n      lt\n        /* \"Blackjack.sol\":5778:5922  for (uint256 i = 0; i < winners.length; i++) {... */\n      iszero\n      tag_350\n      jumpi\n        /* \"Blackjack.sol\":5856:5860  bank */\n      0x04\n      0x00\n      swap1\n      sload\n      swap1\n      0x0100\n      exp\n      swap1\n      div\n      0xffffffffffffffffffffffffffffffffffffffff\n      and\n        /* \"Blackjack.sol\":5842:5860  winners[i] != bank */\n      0xffffffffffffffffffffffffffffffffffffffff\n      and\n        /* \"Blackjack.sol\":5842:5849  winners */\n      dup5\n        /* \"Blackjack.sol\":5850:5851  i */\n      dup3\n        /* \"Blackjack.sol\":5842:5852  winners[i] */\n      dup2\n      mload\n      dup2\n      lt\n      tag_352\n      jumpi\n      tag_353\n      tag_115\n      jump\t// in\n    tag_353:\n    tag_352:\n      0x20\n      mul\n      0x20\n      add\n      add\n      mload\n        /* \"Blackjack.sol\":5842:5860  winners[i] != bank */\n      0xffffffffffffffffffffffffffffffffffffffff\n      and\n      eq\n        /* \"Blackjack.sol\":5838:5911  if (winners[i] != bank) {... */\n      tag_354\n      jumpi\n        /* \"Blackjack.sol\":5881:5895  nonBankCount++ */\n      dup2\n      dup1\n      tag_355\n      swap1\n      tag_288\n      jump\t// in\n    tag_355:\n      swap3\n      pop\n      pop\n        /* \"Blackjack.sol\":5838:5911  if (winners[i] != bank) {... */\n    tag_354:\n        /* \"Blackjack.sol\":5818:5821  i++ */\n      dup1\n      dup1\n      0x01\n      add\n      swap2\n      pop\n      pop\n        /* \"Blackjack.sol\":5778:5922  for (uint256 i = 0; i < winners.length; i++) {... */\n      jump(tag_349)\n    tag_350:\n      pop\n        /* \"Blackjack.sol\":5954:5955  0 */\n      0x00\n        /* \"Blackjack.sol\":5938:5950  nonBankCount */\n      dup2\n        /* \"Blackjack.sol\":5938:5955  nonBankCount == 0 */\n      sub\n        /* \"Blackjack.sol\":5934:6008  if (nonBankCount == 0) {... */\n      tag_356\n      jumpi\n        /* \"Blackjack.sol\":5972:5996  return \"No players won.\" */\n      mload(0x40)\n      dup1\n      0x40\n      add\n      0x40\n      mstore\n      dup1\n      0x0f\n      dup2\n      mstore\n      0x20\n      add\n      0x4e6f20706c617965727320776f6e2e0000000000000000000000000000000000\n      dup2\n      mstore\n      pop\n      swap2\n      pop\n      pop\n      jump(tag_348)\n        /* \"Blackjack.sol\":5934:6008  if (nonBankCount == 0) {... */\n    tag_356:\n        /* \"Blackjack.sol\":6088:6108  string memory result */\n      0x00\n        /* \"Blackjack.sol\":6088:6113  string memory result = \"\" */\n      mload(0x40)\n      dup1\n      0x20\n      add\n      0x40\n      mstore\n      dup1\n      0x00\n      dup2\n      mstore\n      pop\n      swap1\n      pop\n        /* \"Blackjack.sol\":6129:6138  uint256 i */\n      0x00\n        /* \"Blackjack.sol\":6124:6730  for (uint256 i = 0; i < winners.length; i++) {... */\n    tag_357:\n        /* \"Blackjack.sol\":6148:6155  winners */\n      dup5\n        /* \"Blackjack.sol\":6148:6162  winners.length */\n      mload\n        /* \"Blackjack.sol\":6144:6145  i */\n      dup2\n        /* \"Blackjack.sol\":6144:6162  i < winners.length */\n      lt\n        /* \"Blackjack.sol\":6124:6730  for (uint256 i = 0; i < winners.length; i++) {... */\n      iszero\n      tag_358\n      jumpi\n        /* \"Blackjack.sol\":6202:6206  bank */\n      0x04\n      0x00\n      swap1\n      sload\n      swap1\n      0x0100\n      exp\n      swap1\n      div\n      0xffffffffffffffffffffffffffffffffffffffff\n      and\n        /* \"Blackjack.sol\":6188:6206  winners[i] != bank */\n      0xffffffffffffffffffffffffffffffffffffffff\n      and\n        /* \"Blackjack.sol\":6188:6195  winners */\n      dup6\n        /* \"Blackjack.sol\":6196:6197  i */\n      dup3\n        /* \"Blackjack.sol\":6188:6198  winners[i] */\n      dup2\n      mload\n      dup2\n      lt\n      tag_360\n      jumpi\n      tag_361\n      tag_115\n      jump\t// in\n    tag_361:\n    tag_360:\n      0x20\n      mul\n      0x20\n      add\n      add\n      mload\n        /* \"Blackjack.sol\":6188:6206  winners[i] != bank */\n      0xffffffffffffffffffffffffffffffffffffffff\n      and\n      eq\n        /* \"Blackjack.sol\":6184:6719  if (winners[i] != bank) {... */\n      tag_362\n      jumpi\n        /* \"Blackjack.sol\":6227:6246  uint256 playerIndex */\n      0x00\n        /* \"Blackjack.sol\":6249:6276  findPlayerIndex(winners[i]) */\n      tag_363\n        /* \"Blackjack.sol\":6265:6272  winners */\n      dup7\n        /* \"Blackjack.sol\":6273:6274  i */\n      dup4\n        /* \"Blackjack.sol\":6265:6275  winners[i] */\n      dup2\n      mload\n      dup2\n      lt\n      tag_364\n      jumpi\n      tag_365\n      tag_115\n      jump\t// in\n    tag_365:\n    tag_364:\n      0x20\n      mul\n      0x20\n      add\n      add\n      mload\n        /* \"Blackjack.sol\":6249:6264  findPlayerIndex */\n      tag_366\n        /* \"Blackjack.sol\":6249:6276  findPlayerIndex(winners[i]) */\n      jump\t// in\n    tag_363:\n        /* \"Blackjack.sol\":6227:6276  uint256 playerIndex = findPlayerIndex(winners[i]) */\n      swap1\n      pop\n        /* \"Blackjack.sol\":6314:6331  type(uint256).max */\n      0xffffffffffffffffffffffffffffffffffffffffffffffffffffffffffffffff\n        /* \"Blackjack.sol\":6299:6310  playerIndex */\n      dup2\n        /* \"Blackjack.sol\":6299:6331  playerIndex != type(uint256).max */\n      eq\n        /* \"Blackjack.sol\":6295:6704  if (playerIndex != type(uint256).max) {... */\n      tag_367\n      jumpi\n        /* \"Blackjack.sol\":6356:6380  string memory playerName */\n      0x00\n        /* \"Blackjack.sol\":6418:6443  uint2str(playerIndex + 1) */\n      tag_368\n        /* \"Blackjack.sol\":6441:6442  1 */\n      0x01\n        /* \"Blackjack.sol\":6427:6438  playerIndex */\n      dup4\n        /* \"Blackjack.sol\":6427:6442  playerIndex + 1 */\n      tag_369\n      swap2\n      swap1\n      tag_182\n      jump\t// in\n    tag_369:\n        /* \"Blackjack.sol\":6418:6426  uint2str */\n      tag_204\n        /* \"Blackjack.sol\":6418:6443  uint2str(playerIndex + 1) */\n      jump\t// in\n    tag_368:\n        /* \"Blackjack.sol\":6390:6444  abi.encodePacked(\"Player \", uint2str(playerIndex + 1)) */\n      add(0x20, mload(0x40))\n      tag_370\n      swap2\n      swap1\n      tag_371\n      jump\t// in\n    tag_370:\n      mload(0x40)\n      0x20\n      dup2\n      dup4\n      sub\n      sub\n      dup2\n      mstore\n      swap1\n      0x40\n      mstore\n        /* \"Blackjack.sol\":6356:6445  string memory playerName = string(abi.encodePacked(\"Player \", uint2str(playerIndex + 1))) */\n      swap1\n      pop\n        /* \"Blackjack.sol\":6496:6497  0 */\n      0x00\n        /* \"Blackjack.sol\":6478:6484  result */\n      dup5\n        /* \"Blackjack.sol\":6472:6492  bytes(result).length */\n      mload\n        /* \"Blackjack.sol\":6472:6497  bytes(result).length == 0 */\n      sub\n        /* \"Blackjack.sol\":6468:6685  if (bytes(result).length == 0) {... */\n      tag_372\n      jumpi\n        /* \"Blackjack.sol\":6535:6545  playerName */\n      dup1\n        /* \"Blackjack.sol\":6526:6545  result = playerName */\n      swap4\n      pop\n        /* \"Blackjack.sol\":6468:6685  if (bytes(result).length == 0) {... */\n      jump(tag_373)\n    tag_372:\n        /* \"Blackjack.sol\":6635:6641  result */\n      dup4\n        /* \"Blackjack.sol\":6649:6659  playerName */\n      dup2\n        /* \"Blackjack.sol\":6618:6660  abi.encodePacked(result, \", \", playerName) */\n      add(0x20, mload(0x40))\n      tag_374\n      swap3\n      swap2\n      swap1\n      tag_375\n      jump\t// in\n    tag_374:\n      mload(0x40)\n      0x20\n      dup2\n      dup4\n      sub\n      sub\n      dup2\n      mstore\n      swap1\n      0x40\n      mstore\n        /* \"Blackjack.sol\":6602:6661  result = string(abi.encodePacked(result, \", \", playerName)) */\n      swap4\n      pop\n        /* \"Blackjack.sol\":6468:6685  if (bytes(result).length == 0) {... */\n    tag_373:\n        /* \"Blackjack.sol\":6333:6704  {... */\n      pop\n        /* \"Blackjack.sol\":6295:6704  if (playerIndex != type(uint256).max) {... */\n    tag_367:\n        /* \"Blackjack.sol\":6208:6719  {... */\n      pop\n        /* \"Blackjack.sol\":6184:6719  if (winners[i] != bank) {... */\n    tag_362:\n        /* \"Blackjack.sol\":6164:6167  i++ */\n      dup1\n      dup1\n      0x01\n      add\n      swap2\n      pop\n      pop\n        /* \"Blackjack.sol\":6124:6730  for (uint256 i = 0; i < winners.length; i++) {... */\n      jump(tag_357)\n    tag_358:\n      pop\n        /* \"Blackjack.sol\":6749:6755  result */\n      dup1\n        /* \"Blackjack.sol\":6742:6755  return result */\n      swap3\n      pop\n      pop\n      pop\n        /* \"Blackjack.sol\":5575:6763  function formatWinners(address[] memory winners) internal view returns (string memory) {... */\n    tag_348:\n      swap2\n      swap1\n      pop\n      jump\t// out\n        /* \"Blackjack.sol\":7099:7236  function resetGame() internal {... */\n    tag_150:\n        /* \"Blackjack.sol\":7147:7154  players */\n      0x01\n      0x00\n        /* \"Blackjack.sol\":7140:7154  delete players */\n      tag_377\n      swap2\n      swap1\n      tag_378\n      jump\t// in\n    tag_377:\n        /* \"Blackjack.sol\":7172:7180  bankHand */\n      0x03\n      0x00\n        /* \"Blackjack.sol\":7165:7180  delete bankHand */\n      tag_379\n      swap2\n      swap1\n      tag_380\n      jump\t// in\n    tag_379:\n        /* \"Blackjack.sol\":7205:7206  0 */\n      0x00\n        /* \"Blackjack.sol\":7191:7202  playerCount */\n      0x02\n        /* \"Blackjack.sol\":7191:7206  playerCount = 0 */\n      dup2\n      swap1\n      sstore\n      pop\n        /* \"Blackjack.sol\":7217:7228  resetDeck() */\n      tag_381\n        /* \"Blackjack.sol\":7217:7226  resetDeck */\n      tag_382\n        /* \"Blackjack.sol\":7217:7228  resetDeck() */\n      jump\t// in\n    tag_381:\n        /* \"Blackjack.sol\":7099:7236  function resetGame() internal {... */\n      jump\t// out\n        /* \"Blackjack.sol\":7303:7821  function uint2str(uint256 _i) internal pure returns (string memory _uintAsString) {... */\n    tag_204:\n        /* \"Blackjack.sol\":7356:7383  string memory _uintAsString */\n      0x60\n        /* \"Blackjack.sol\":7406:7407  0 */\n      0x00\n        /* \"Blackjack.sol\":7400:7402  _i */\n      dup3\n        /* \"Blackjack.sol\":7400:7407  _i == 0 */\n      sub\n        /* \"Blackjack.sol\":7396:7446  if (_i == 0) {... */\n      tag_384\n      jumpi\n        /* \"Blackjack.sol\":7424:7434  return \"0\" */\n      mload(0x40)\n      dup1\n      0x40\n      add\n      0x40\n      mstore\n      dup1\n      0x01\n      dup2\n      mstore\n      0x20\n      add\n      0x3000000000000000000000000000000000000000000000000000000000000000\n      dup2\n      mstore\n      pop\n      swap1\n      pop\n      jump(tag_383)\n        /* \"Blackjack.sol\":7396:7446  if (_i == 0) {... */\n    tag_384:\n        /* \"Blackjack.sol\":7456:7465  uint256 j */\n      0x00\n        /* \"Blackjack.sol\":7468:7470  _i */\n      dup3\n        /* \"Blackjack.sol\":7456:7470  uint256 j = _i */\n      swap1\n      pop\n        /* \"Blackjack.sol\":7481:7495  uint256 length */\n      0x00\n        /* \"Blackjack.sol\":7506:7578  while (j != 0) {... */\n    tag_385:\n        /* \"Blackjack.sol\":7518:7519  0 */\n      0x00\n        /* \"Blackjack.sol\":7513:7514  j */\n      dup3\n        /* \"Blackjack.sol\":7513:7519  j != 0 */\n      eq\n        /* \"Blackjack.sol\":7506:7578  while (j != 0) {... */\n      tag_386\n      jumpi\n        /* \"Blackjack.sol\":7536:7544  length++ */\n      dup1\n      dup1\n      tag_387\n      swap1\n      tag_288\n      jump\t// in\n    tag_387:\n      swap2\n      pop\n      pop\n        /* \"Blackjack.sol\":7564:7566  10 */\n      0x0a\n        /* \"Blackjack.sol\":7559:7566  j /= 10 */\n      dup3\n      tag_388\n      swap2\n      swap1\n      tag_389\n      jump\t// in\n    tag_388:\n      swap2\n      pop\n        /* \"Blackjack.sol\":7506:7578  while (j != 0) {... */\n      jump(tag_385)\n    tag_386:\n        /* \"Blackjack.sol\":7588:7605  bytes memory bstr */\n      0x00\n        /* \"Blackjack.sol\":7618:7624  length */\n      dup2\n        /* \"Blackjack.sol\":7608:7625  new bytes(length) */\n      0xffffffffffffffff\n      dup2\n      gt\n      iszero\n      tag_390\n      jumpi\n      tag_391\n      tag_185\n      jump\t// in\n    tag_391:\n    tag_390:\n      mload(0x40)\n      swap1\n      dup1\n      dup3\n      mstore\n      dup1\n      0x1f\n      add\n      not(0x1f)\n      and\n      0x20\n      add\n      dup3\n      add\n      0x40\n      mstore\n      dup1\n      iszero\n      tag_392\n      jumpi\n      dup2\n      0x20\n      add\n      0x01\n      dup3\n      mul\n      dup1\n      calldatasize\n      dup4\n      calldatacopy\n      dup1\n      dup3\n      add\n      swap2\n      pop\n      pop\n      swap1\n      pop\n    tag_392:\n      pop\n        /* \"Blackjack.sol\":7588:7625  bytes memory bstr = new bytes(length) */\n      swap1\n      pop\n        /* \"Blackjack.sol\":7636:7645  uint256 k */\n      0x00\n        /* \"Blackjack.sol\":7648:7654  length */\n      dup3\n        /* \"Blackjack.sol\":7636:7654  uint256 k = length */\n      swap1\n      pop\n        /* \"Blackjack.sol\":7669:7671  _i */\n      dup6\n        /* \"Blackjack.sol\":7665:7671  j = _i */\n      swap4\n      pop\n        /* \"Blackjack.sol\":7682:7784  while (j != 0) {... */\n    tag_393:\n        /* \"Blackjack.sol\":7694:7695  0 */\n      0x00\n        /* \"Blackjack.sol\":7689:7690  j */\n      dup5\n        /* \"Blackjack.sol\":7689:7695  j != 0 */\n      eq\n        /* \"Blackjack.sol\":7682:7784  while (j != 0) {... */\n      tag_394\n      jumpi\n        /* \"Blackjack.sol\":7746:7748  10 */\n      0x0a\n        /* \"Blackjack.sol\":7742:7743  j */\n      dup5\n        /* \"Blackjack.sol\":7742:7748  j % 10 */\n      tag_395\n      swap2\n      swap1\n      tag_396\n      jump\t// in\n    tag_395:\n        /* \"Blackjack.sol\":7737:7739  48 */\n      0x30\n        /* \"Blackjack.sol\":7737:7748  48 + j % 10 */\n      tag_397\n      swap2\n      swap1\n      tag_182\n      jump\t// in\n    tag_397:\n        /* \"Blackjack.sol\":7724:7750  bytes1(uint8(48 + j % 10)) */\n      0xf8\n      shl\n        /* \"Blackjack.sol\":7712:7716  bstr */\n      dup3\n        /* \"Blackjack.sol\":7717:7720  --k */\n      dup3\n      tag_398\n      swap1\n      tag_399\n      jump\t// in\n    tag_398:\n      swap3\n      pop\n      dup3\n        /* \"Blackjack.sol\":7712:7721  bstr[--k] */\n      dup2\n      mload\n      dup2\n      lt\n      tag_400\n      jumpi\n      tag_401\n      tag_115\n      jump\t// in\n    tag_401:\n    tag_400:\n      0x20\n      add\n      add\n        /* \"Blackjack.sol\":7712:7750  bstr[--k] = bytes1(uint8(48 + j % 10)) */\n      swap1\n      not(0xffffffffffffffffffffffffffffffffffffffffffffffffffffffffffffff)\n      and\n      swap1\n      dup2\n      0x00\n      byte\n      swap1\n      mstore8\n      pop\n        /* \"Blackjack.sol\":7770:7772  10 */\n      0x0a\n        /* \"Blackjack.sol\":7765:7772  j /= 10 */\n      dup5\n      tag_402\n      swap2\n      swap1\n      tag_389\n      jump\t// in\n    tag_402:\n      swap4\n      pop\n        /* \"Blackjack.sol\":7682:7784  while (j != 0) {... */\n      jump(tag_393)\n    tag_394:\n        /* \"Blackjack.sol\":7808:7812  bstr */\n      dup2\n        /* \"Blackjack.sol\":7794:7813  return string(bstr) */\n      swap5\n      pop\n      pop\n      pop\n      pop\n      pop\n        /* \"Blackjack.sol\":7303:7821  function uint2str(uint256 _i) internal pure returns (string memory _uintAsString) {... */\n    tag_383:\n      swap2\n      swap1\n      pop\n      jump\t// out\n        /* \"CardDeck.sol\":369:825  function shuffleDeck() internal {... */\n    tag_215:\n        /* \"CardDeck.sol\":412:424  uint256 seed */\n      0x00\n        /* \"CardDeck.sol\":462:477  block.timestamp */\n      timestamp\n        /* \"CardDeck.sol\":479:495  block.prevrandao */\n      prevrandao\n        /* \"CardDeck.sol\":522:523  1 */\n      0x01\n        /* \"CardDeck.sol\":507:519  block.number */\n      number\n        /* \"CardDeck.sol\":507:523  block.number - 1 */\n      tag_404\n      swap2\n      swap1\n      tag_317\n      jump\t// in\n    tag_404:\n        /* \"CardDeck.sol\":497:524  blockhash(block.number - 1) */\n      blockhash\n        /* \"CardDeck.sol\":445:525  abi.encodePacked(block.timestamp, block.prevrandao, blockhash(block.number - 1)) */\n      add(0x20, mload(0x40))\n      tag_405\n      swap4\n      swap3\n      swap2\n      swap1\n      tag_406\n      jump\t// in\n    tag_405:\n      mload(0x40)\n      0x20\n      dup2\n      dup4\n      sub\n      sub\n      dup2\n      mstore\n      swap1\n      0x40\n      mstore\n        /* \"CardDeck.sol\":435:526  keccak256(abi.encodePacked(block.timestamp, block.prevrandao, blockhash(block.number - 1))) */\n      dup1\n      mload\n      swap1\n      0x20\n      add\n      keccak256\n        /* \"CardDeck.sol\":427:527  uint256(keccak256(abi.encodePacked(block.timestamp, block.prevrandao, blockhash(block.number - 1)))) */\n      0x00\n      shr\n        /* \"CardDeck.sol\":412:527  uint256 seed = uint256(keccak256(abi.encodePacked(block.timestamp, block.prevrandao, blockhash(block.number - 1)))) */\n      swap1\n      pop\n        /* \"CardDeck.sol\":543:552  uint256 i */\n      0x00\n        /* \"CardDeck.sol\":538:818  for (uint256 i = 0; i < deck.length; i++) {... */\n    tag_407:\n        /* \"CardDeck.sol\":562:566  deck */\n      0x00\n        /* \"CardDeck.sol\":562:573  deck.length */\n      dup1\n      sload\n      swap1\n      pop\n        /* \"CardDeck.sol\":558:559  i */\n      dup2\n        /* \"CardDeck.sol\":558:573  i < deck.length */\n      lt\n        /* \"CardDeck.sol\":538:818  for (uint256 i = 0; i < deck.length; i++) {... */\n      iszero\n      tag_408\n      jumpi\n        /* \"CardDeck.sol\":595:612  uint256 swapIndex */\n      0x00\n        /* \"CardDeck.sol\":622:626  deck */\n      dup1\n        /* \"CardDeck.sol\":622:633  deck.length */\n      dup1\n      sload\n      swap1\n      pop\n        /* \"CardDeck.sol\":615:619  seed */\n      dup4\n        /* \"CardDeck.sol\":615:633  seed % deck.length */\n      tag_410\n      swap2\n      swap1\n      tag_396\n      jump\t// in\n    tag_410:\n        /* \"CardDeck.sol\":595:633  uint256 swapIndex = seed % deck.length */\n      swap1\n      pop\n        /* \"CardDeck.sol\":678:682  deck */\n      0x00\n        /* \"CardDeck.sol\":683:692  swapIndex */\n      dup2\n        /* \"CardDeck.sol\":678:693  deck[swapIndex] */\n      dup2\n      sload\n      dup2\n      lt\n      tag_411\n      jumpi\n      tag_412\n      tag_115\n      jump\t// in\n    tag_412:\n    tag_411:\n      swap1\n      0x00\n      mstore\n      keccak256(0x00, 0x20)\n      swap1\n      0x20\n      swap2\n      dup3\n      dup3\n      div\n      add\n      swap2\n      swap1\n      mod\n      swap1\n      sload\n      swap1\n      0x0100\n      exp\n      swap1\n      div\n      0xff\n      and\n        /* \"CardDeck.sol\":695:699  deck */\n      0x00\n        /* \"CardDeck.sol\":700:701  i */\n      dup4\n        /* \"CardDeck.sol\":695:702  deck[i] */\n      dup2\n      sload\n      dup2\n      lt\n      tag_414\n      jumpi\n      tag_415\n      tag_115\n      jump\t// in\n    tag_415:\n    tag_414:\n      swap1\n      0x00\n      mstore\n      keccak256(0x00, 0x20)\n      swap1\n      0x20\n      swap2\n      dup3\n      dup3\n      div\n      add\n      swap2\n      swap1\n      mod\n      swap1\n      sload\n      swap1\n      0x0100\n      exp\n      swap1\n      div\n      0xff\n      and\n        /* \"CardDeck.sol\":649:653  deck */\n      0x00\n        /* \"CardDeck.sol\":654:655  i */\n      dup5\n        /* \"CardDeck.sol\":649:656  deck[i] */\n      dup2\n      sload\n      dup2\n      lt\n      tag_417\n      jumpi\n      tag_418\n      tag_115\n      jump\t// in\n    tag_418:\n    tag_417:\n      swap1\n      0x00\n      mstore\n      keccak256(0x00, 0x20)\n      swap1\n      0x20\n      swap2\n      dup3\n      dup3\n      div\n      add\n      swap2\n      swap1\n      mod\n        /* \"CardDeck.sol\":658:662  deck */\n      0x00\n        /* \"CardDeck.sol\":663:672  swapIndex */\n      dup6\n        /* \"CardDeck.sol\":658:673  deck[swapIndex] */\n      dup2\n      sload\n      dup2\n      lt\n      tag_420\n      jumpi\n      tag_421\n      tag_115\n      jump\t// in\n    tag_421:\n    tag_420:\n      swap1\n      0x00\n      mstore\n      keccak256(0x00, 0x20)\n      swap1\n      0x20\n      swap2\n      dup3\n      dup3\n      div\n      add\n      swap2\n      swap1\n      mod\n        /* \"CardDeck.sol\":648:703  (deck[i], deck[swapIndex]) = (deck[swapIndex], deck[i]) */\n      dup5\n      swap2\n      swap1\n      0x0100\n      exp\n      dup2\n      sload\n      dup2\n      0xff\n      mul\n      not\n      and\n      swap1\n      dup4\n      0xff\n      and\n      mul\n      or\n      swap1\n      sstore\n      pop\n      dup4\n      swap2\n      swap1\n      0x0100\n      exp\n      dup2\n      sload\n      dup2\n      0xff\n      mul\n      not\n      and\n      swap1\n      dup4\n      0xff\n      and\n      mul\n      or\n      swap1\n      sstore\n      pop\n      pop\n      pop\n        /* \"CardDeck.sol\":778:782  seed */\n      dup3\n        /* \"CardDeck.sol\":761:783  abi.encodePacked(seed) */\n      add(0x20, mload(0x40))\n      tag_423\n      swap2\n      swap1\n      tag_424\n      jump\t// in\n    tag_423:\n      mload(0x40)\n      0x20\n      dup2\n      dup4\n      sub\n      sub\n      dup2\n      mstore\n      swap1\n      0x40\n      mstore\n        /* \"CardDeck.sol\":751:784  keccak256(abi.encodePacked(seed)) */\n      dup1\n      mload\n      swap1\n      0x20\n      add\n      keccak256\n        /* \"CardDeck.sol\":743:785  uint256(keccak256(abi.encodePacked(seed))) */\n      0x00\n      shr\n        /* \"CardDeck.sol\":736:785  seed = uint256(keccak256(abi.encodePacked(seed))) */\n      swap3\n      pop\n        /* \"CardDeck.sol\":580:818  {... */\n      pop\n        /* \"CardDeck.sol\":575:578  i++ */\n      dup1\n      dup1\n      0x01\n      add\n      swap2\n      pop\n      pop\n        /* \"CardDeck.sol\":538:818  for (uint256 i = 0; i < deck.length; i++) {... */\n      jump(tag_407)\n    tag_408:\n      pop\n        /* \"CardDeck.sol\":401:825  {... */\n      pop\n        /* \"CardDeck.sol\":369:825  function shuffleDeck() internal {... */\n      jump\t// out\n        /* \"Blackjack.sol\":6773:7083  function findPlayerIndex(address playerAddress) internal view returns (uint256) {... */\n    tag_366:\n        /* \"Blackjack.sol\":6844:6851  uint256 */\n      0x00\n        /* \"Blackjack.sol\":6869:6878  uint256 i */\n      dup1\n        /* \"Blackjack.sol\":6881:6882  0 */\n      0x00\n        /* \"Blackjack.sol\":6869:6882  uint256 i = 0 */\n      swap1\n      pop\n        /* \"Blackjack.sol\":6864:7016  for (uint256 i = 0; i < players.length; i++) {... */\n    tag_426:\n        /* \"Blackjack.sol\":6888:6895  players */\n      0x01\n        /* \"Blackjack.sol\":6888:6902  players.length */\n      dup1\n      sload\n      swap1\n      pop\n        /* \"Blackjack.sol\":6884:6885  i */\n      dup2\n        /* \"Blackjack.sol\":6884:6902  i < players.length */\n      lt\n        /* \"Blackjack.sol\":6864:7016  for (uint256 i = 0; i < players.length; i++) {... */\n      iszero\n      tag_427\n      jumpi\n        /* \"Blackjack.sol\":6947:6960  playerAddress */\n      dup3\n        /* \"Blackjack.sol\":6928:6960  players[i].addr == playerAddress */\n      0xffffffffffffffffffffffffffffffffffffffff\n      and\n        /* \"Blackjack.sol\":6928:6935  players */\n      0x01\n        /* \"Blackjack.sol\":6936:6937  i */\n      dup3\n        /* \"Blackjack.sol\":6928:6938  players[i] */\n      dup2\n      sload\n      dup2\n      lt\n      tag_429\n      jumpi\n      tag_430\n      tag_115\n      jump\t// in\n    tag_430:\n    tag_429:\n      swap1\n      0x00\n      mstore\n      keccak256(0x00, 0x20)\n      swap1\n      0x04\n      mul\n      add\n        /* \"Blackjack.sol\":6928:6943  players[i].addr */\n      0x00\n      add\n      0x00\n      swap1\n      sload\n      swap1\n      0x0100\n      exp\n      swap1\n      div\n      0xffffffffffffffffffffffffffffffffffffffff\n      and\n        /* \"Blackjack.sol\":6928:6960  players[i].addr == playerAddress */\n      0xffffffffffffffffffffffffffffffffffffffff\n      and\n      sub\n        /* \"Blackjack.sol\":6924:7005  if (players[i].addr == playerAddress) {... */\n      tag_432\n      jumpi\n        /* \"Blackjack.sol\":6988:6989  i */\n      dup1\n        /* \"Blackjack.sol\":6981:6989  return i */\n      swap2\n      pop\n      pop\n      jump(tag_425)\n        /* \"Blackjack.sol\":6924:7005  if (players[i].addr == playerAddress) {... */\n    tag_432:\n        /* \"Blackjack.sol\":6904:6907  i++ */\n      dup1\n      dup1\n      0x01\n      add\n      swap2\n      pop\n      pop\n        /* \"Blackjack.sol\":6864:7016  for (uint256 i = 0; i < players.length; i++) {... */\n      jump(tag_426)\n    tag_427:\n      pop\n        /* \"Blackjack.sol\":7033:7050  type(uint256).max */\n      0xffffffffffffffffffffffffffffffffffffffffffffffffffffffffffffffff\n        /* \"Blackjack.sol\":7026:7050  return type(uint256).max */\n      swap1\n      pop\n        /* \"Blackjack.sol\":6773:7083  function findPlayerIndex(address playerAddress) internal view returns (uint256) {... */\n    tag_425:\n      swap2\n      swap1\n      pop\n      jump\t// out\n        /* \"CardDeck.sol\":167:361  function resetDeck() internal {... */\n    tag_382:\n        /* \"CardDeck.sol\":215:219  deck */\n      0x00\n      dup1\n        /* \"CardDeck.sol\":208:219  delete deck */\n      tag_434\n      swap2\n      swap1\n      tag_380\n      jump\t// in\n    tag_434:\n        /* \"CardDeck.sol\":253:260  uint8 i */\n      0x00\n        /* \"CardDeck.sol\":263:264  1 */\n      0x01\n        /* \"CardDeck.sol\":253:264  uint8 i = 1 */\n      swap1\n      pop\n        /* \"CardDeck.sol\":248:354  for (uint8 i = 1; i <= 52; i++) {... */\n    tag_435:\n        /* \"CardDeck.sol\":271:273  52 */\n      0x34\n        /* \"CardDeck.sol\":266:267  i */\n      dup2\n        /* \"CardDeck.sol\":266:273  i <= 52 */\n      0xff\n      and\n      gt\n        /* \"CardDeck.sol\":248:354  for (uint8 i = 1; i <= 52; i++) {... */\n      tag_436\n      jumpi\n        /* \"CardDeck.sol\":295:299  deck */\n      0x00\n        /* \"CardDeck.sol\":305:306  i */\n      dup2\n        /* \"CardDeck.sol\":295:307  deck.push(i) */\n      swap1\n      dup1\n      0x01\n      dup2\n      sload\n      add\n      dup1\n      dup3\n      sstore\n      dup1\n      swap2\n      pop\n      pop\n      0x01\n      swap1\n      sub\n      swap1\n      0x00\n      mstore\n      keccak256(0x00, 0x20)\n      swap1\n      0x20\n      swap2\n      dup3\n      dup3\n      div\n      add\n      swap2\n      swap1\n      mod\n      swap1\n      swap2\n      swap1\n      swap2\n      swap1\n      swap2\n      0x0100\n      exp\n      dup2\n      sload\n      dup2\n      0xff\n      mul\n      not\n      and\n      swap1\n      dup4\n      0xff\n      and\n      mul\n      or\n      swap1\n      sstore\n      pop\n        /* \"CardDeck.sol\":275:278  i++ */\n      dup1\n      dup1\n      tag_439\n      swap1\n      tag_303\n      jump\t// in\n    tag_439:\n      swap2\n      pop\n      pop\n        /* \"CardDeck.sol\":248:354  for (uint8 i = 1; i <= 52; i++) {... */\n      jump(tag_435)\n    tag_436:\n      pop\n        /* \"CardDeck.sol\":167:361  function resetDeck() internal {... */\n      jump\t// out\n    tag_91:\n      pop\n      dup1\n      sload\n      0x00\n      dup3\n      sstore\n      swap1\n      0x00\n      mstore\n      keccak256(0x00, 0x20)\n      swap1\n      dup2\n      add\n      swap1\n      tag_441\n      swap2\n      swap1\n      tag_442\n      jump\t// in\n    tag_441:\n      pop\n      jump\t// out\n    tag_102:\n      dup3\n      dup1\n      sload\n      dup3\n      dup3\n      sstore\n      swap1\n      0x00\n      mstore\n      keccak256(0x00, 0x20)\n      swap1\n      0x1f\n      add\n      0x20\n      swap1\n      div\n      dup2\n      add\n      swap3\n      dup3\n      iszero\n      tag_443\n      jumpi\n      0x00\n      mstore\n      keccak256(0x00, 0x20)\n      swap2\n      0x1f\n      add\n      0x20\n      swap1\n      div\n      dup3\n      add\n    tag_444:\n      dup3\n      dup2\n      gt\n      iszero\n      tag_445\n      jumpi\n      dup3\n      sload\n      dup3\n      sstore\n      swap2\n      0x01\n      add\n      swap2\n      swap1\n      0x01\n      add\n      swap1\n      jump(tag_444)\n    tag_445:\n    tag_443:\n      pop\n      swap1\n      pop\n      tag_446\n      swap2\n      swap1\n      tag_442\n      jump\t// in\n    tag_446:\n      pop\n      swap1\n      jump\t// out\n    tag_286:\n      dup3\n      dup1\n      sload\n      dup3\n      dup3\n      sstore\n      swap1\n      0x00\n      mstore\n      keccak256(0x00, 0x20)\n      swap1\n      0x1f\n      add\n      0x20\n      swap1\n      div\n      dup2\n      add\n      swap3\n      dup3\n      iszero\n      tag_447\n      jumpi\n      swap2\n      0x20\n      mul\n      dup3\n      add\n      0x00\n    tag_448:\n      dup4\n      dup3\n      gt\n      iszero\n      tag_449\n      jumpi\n      dup4\n      mload\n      dup4\n      dup3\n      0x0100\n      exp\n      dup2\n      sload\n      dup2\n      0xff\n      mul\n      not\n      and\n      swap1\n      dup4\n      0xff\n      and\n      mul\n      or\n      swap1\n      sstore\n      pop\n      swap3\n      0x20\n      add\n      swap3\n      0x01\n      add\n      0x20\n      dup2\n      0x00\n      add\n      div\n      swap3\n      dup4\n      add\n      swap3\n      0x01\n      sub\n      mul\n      jump(tag_448)\n    tag_449:\n      dup1\n      iszero\n      tag_450\n      jumpi\n      dup3\n      dup2\n      0x0100\n      exp\n      dup2\n      sload\n      swap1\n      0xff\n      mul\n      not\n      and\n      swap1\n      sstore\n      0x01\n      add\n      0x20\n      dup2\n      0x00\n      add\n      div\n      swap3\n      dup4\n      add\n      swap3\n      0x01\n      sub\n      mul\n      jump(tag_449)\n    tag_450:\n      pop\n    tag_447:\n      pop\n      swap1\n      pop\n      tag_451\n      swap2\n      swap1\n      tag_442\n      jump\t// in\n    tag_451:\n      pop\n      swap1\n      jump\t// out\n    tag_378:\n      pop\n      dup1\n      sload\n      0x00\n      dup3\n      sstore\n      0x04\n      mul\n      swap1\n      0x00\n      mstore\n      keccak256(0x00, 0x20)\n      swap1\n      dup2\n      add\n      swap1\n      tag_453\n      swap2\n      swap1\n      tag_454\n      jump\t// in\n    tag_453:\n      pop\n      jump\t// out\n    tag_380:\n      pop\n      dup1\n      sload\n      0x00\n      dup3\n      sstore\n      0x1f\n      add\n      0x20\n      swap1\n      div\n      swap1\n      0x00\n      mstore\n      keccak256(0x00, 0x20)\n      swap1\n      dup2\n      add\n      swap1\n      tag_456\n      swap2\n      swap1\n      tag_442\n      jump\t// in\n    tag_456:\n      pop\n      jump\t// out\n    tag_442:\n    tag_457:\n      dup1\n      dup3\n      gt\n      iszero\n      tag_458\n      jumpi\n      0x00\n      dup2\n      0x00\n      swap1\n      sstore\n      pop\n      0x01\n      add\n      jump(tag_457)\n    tag_458:\n      pop\n      swap1\n      jump\t// out\n    tag_454:\n    tag_459:\n      dup1\n      dup3\n      gt\n      iszero\n      tag_460\n      jumpi\n      0x00\n      dup1\n      dup3\n      add\n      exp(0x0100, 0x00)\n      dup2\n      sload\n      swap1\n      0xffffffffffffffffffffffffffffffffffffffff\n      mul\n      not\n      and\n      swap1\n      sstore\n      0x01\n      dup3\n      add\n      0x00\n      swap1\n      sstore\n      0x02\n      dup3\n      add\n      0x00\n      tag_461\n      swap2\n      swap1\n      tag_380\n      jump\t// in\n    tag_461:\n      0x03\n      dup3\n      add\n      exp(0x0100, 0x00)\n      dup2\n      sload\n      swap1\n      0xff\n      mul\n      not\n      and\n      swap1\n      sstore\n      0x03\n      dup3\n      add\n      exp(0x0100, 0x01)\n      dup2\n      sload\n      swap1\n      0xff\n      mul\n      not\n      and\n      swap1\n      sstore\n      pop\n      0x04\n      add\n      jump(tag_459)\n    tag_460:\n      pop\n      swap1\n      jump\t// out\n        /* \"#utility.yul\":7:84   */\n    tag_462:\n        /* \"#utility.yul\":44:51   */\n      0x00\n        /* \"#utility.yul\":73:78   */\n      dup2\n        /* \"#utility.yul\":62:78   */\n      swap1\n      pop\n        /* \"#utility.yul\":7:84   */\n      swap2\n      swap1\n      pop\n      jump\t// out\n        /* \"#utility.yul\":90:208   */\n    tag_463:\n        /* \"#utility.yul\":177:201   */\n      tag_544\n        /* \"#utility.yul\":195:200   */\n      dup2\n        /* \"#utility.yul\":177:201   */\n      tag_462\n      jump\t// in\n    tag_544:\n        /* \"#utility.yul\":172:175   */\n      dup3\n        /* \"#utility.yul\":165:202   */\n      mstore\n        /* \"#utility.yul\":90:208   */\n      pop\n      pop\n      jump\t// out\n        /* \"#utility.yul\":214:436   */\n    tag_23:\n        /* \"#utility.yul\":307:311   */\n      0x00\n        /* \"#utility.yul\":345:347   */\n      0x20\n        /* \"#utility.yul\":334:343   */\n      dup3\n        /* \"#utility.yul\":330:348   */\n      add\n        /* \"#utility.yul\":322:348   */\n      swap1\n      pop\n        /* \"#utility.yul\":358:429   */\n      tag_546\n        /* \"#utility.yul\":426:427   */\n      0x00\n        /* \"#utility.yul\":415:424   */\n      dup4\n        /* \"#utility.yul\":411:428   */\n      add\n        /* \"#utility.yul\":402:408   */\n      dup5\n        /* \"#utility.yul\":358:429   */\n      tag_463\n      jump\t// in\n    tag_546:\n        /* \"#utility.yul\":214:436   */\n      swap3\n      swap2\n      pop\n      pop\n      jump\t// out\n        /* \"#utility.yul\":442:541   */\n    tag_464:\n        /* \"#utility.yul\":494:500   */\n      0x00\n        /* \"#utility.yul\":528:533   */\n      dup2\n        /* \"#utility.yul\":522:534   */\n      mload\n        /* \"#utility.yul\":512:534   */\n      swap1\n      pop\n        /* \"#utility.yul\":442:541   */\n      swap2\n      swap1\n      pop\n      jump\t// out\n        /* \"#utility.yul\":547:716   */\n    tag_465:\n        /* \"#utility.yul\":631:642   */\n      0x00\n        /* \"#utility.yul\":665:671   */\n      dup3\n        /* \"#utility.yul\":660:663   */\n      dup3\n        /* \"#utility.yul\":653:672   */\n      mstore\n        /* \"#utility.yul\":705:709   */\n      0x20\n        /* \"#utility.yul\":700:703   */\n      dup3\n        /* \"#utility.yul\":696:710   */\n      add\n        /* \"#utility.yul\":681:710   */\n      swap1\n      pop\n        /* \"#utility.yul\":547:716   */\n      swap3\n      swap2\n      pop\n      pop\n      jump\t// out\n        /* \"#utility.yul\":722:861   */\n    tag_466:\n        /* \"#utility.yul\":811:817   */\n      dup3\n        /* \"#utility.yul\":806:809   */\n      dup2\n        /* \"#utility.yul\":801:804   */\n      dup4\n        /* \"#utility.yul\":795:818   */\n      mcopy\n        /* \"#utility.yul\":852:853   */\n      0x00\n        /* \"#utility.yul\":843:849   */\n      dup4\n        /* \"#utility.yul\":838:841   */\n      dup4\n        /* \"#utility.yul\":834:850   */\n      add\n        /* \"#utility.yul\":827:854   */\n      mstore\n        /* \"#utility.yul\":722:861   */\n      pop\n      pop\n      pop\n      jump\t// out\n        /* \"#utility.yul\":867:969   */\n    tag_467:\n        /* \"#utility.yul\":908:914   */\n      0x00\n        /* \"#utility.yul\":959:961   */\n      0x1f\n        /* \"#utility.yul\":955:962   */\n      not\n        /* \"#utility.yul\":950:952   */\n      0x1f\n        /* \"#utility.yul\":943:948   */\n      dup4\n        /* \"#utility.yul\":939:953   */\n      add\n        /* \"#utility.yul\":935:963   */\n      and\n        /* \"#utility.yul\":925:963   */\n      swap1\n      pop\n        /* \"#utility.yul\":867:969   */\n      swap2\n      swap1\n      pop\n      jump\t// out\n        /* \"#utility.yul\":975:1352   */\n    tag_468:\n        /* \"#utility.yul\":1063:1066   */\n      0x00\n        /* \"#utility.yul\":1091:1130   */\n      tag_552\n        /* \"#utility.yul\":1124:1129   */\n      dup3\n        /* \"#utility.yul\":1091:1130   */\n      tag_464\n      jump\t// in\n    tag_552:\n        /* \"#utility.yul\":1146:1217   */\n      tag_553\n        /* \"#utility.yul\":1210:1216   */\n      dup2\n        /* \"#utility.yul\":1205:1208   */\n      dup6\n        /* \"#utility.yul\":1146:1217   */\n      tag_465\n      jump\t// in\n    tag_553:\n        /* \"#utility.yul\":1139:1217   */\n      swap4\n      pop\n        /* \"#utility.yul\":1226:1291   */\n      tag_554\n        /* \"#utility.yul\":1284:1290   */\n      dup2\n        /* \"#utility.yul\":1279:1282   */\n      dup6\n        /* \"#utility.yul\":1272:1276   */\n      0x20\n        /* \"#utility.yul\":1265:1270   */\n      dup7\n        /* \"#utility.yul\":1261:1277   */\n      add\n        /* \"#utility.yul\":1226:1291   */\n      tag_466\n      jump\t// in\n    tag_554:\n        /* \"#utility.yul\":1316:1345   */\n      tag_555\n        /* \"#utility.yul\":1338:1344   */\n      dup2\n        /* \"#utility.yul\":1316:1345   */\n      tag_467\n      jump\t// in\n    tag_555:\n        /* \"#utility.yul\":1311:1314   */\n      dup5\n        /* \"#utility.yul\":1307:1346   */\n      add\n        /* \"#utility.yul\":1300:1346   */\n      swap2\n      pop\n        /* \"#utility.yul\":1067:1352   */\n      pop\n        /* \"#utility.yul\":975:1352   */\n      swap3\n      swap2\n      pop\n      pop\n      jump\t// out\n        /* \"#utility.yul\":1358:1472   */\n    tag_469:\n        /* \"#utility.yul\":1425:1431   */\n      0x00\n        /* \"#utility.yul\":1459:1464   */\n      dup2\n        /* \"#utility.yul\":1453:1465   */\n      mload\n        /* \"#utility.yul\":1443:1465   */\n      swap1\n      pop\n        /* \"#utility.yul\":1358:1472   */\n      swap2\n      swap1\n      pop\n      jump\t// out\n        /* \"#utility.yul\":1478:1662   */\n    tag_470:\n        /* \"#utility.yul\":1577:1588   */\n      0x00\n        /* \"#utility.yul\":1611:1617   */\n      dup3\n        /* \"#utility.yul\":1606:1609   */\n      dup3\n        /* \"#utility.yul\":1599:1618   */\n      mstore\n        /* \"#utility.yul\":1651:1655   */\n      0x20\n        /* \"#utility.yul\":1646:1649   */\n      dup3\n        /* \"#utility.yul\":1642:1656   */\n      add\n        /* \"#utility.yul\":1627:1656   */\n      swap1\n      pop\n        /* \"#utility.yul\":1478:1662   */\n      swap3\n      swap2\n      pop\n      pop\n      jump\t// out\n        /* \"#utility.yul\":1668:1800   */\n    tag_471:\n        /* \"#utility.yul\":1735:1739   */\n      0x00\n        /* \"#utility.yul\":1758:1761   */\n      dup2\n        /* \"#utility.yul\":1750:1761   */\n      swap1\n      pop\n        /* \"#utility.yul\":1788:1792   */\n      0x20\n        /* \"#utility.yul\":1783:1786   */\n      dup3\n        /* \"#utility.yul\":1779:1793   */\n      add\n        /* \"#utility.yul\":1771:1793   */\n      swap1\n      pop\n        /* \"#utility.yul\":1668:1800   */\n      swap2\n      swap1\n      pop\n      jump\t// out\n        /* \"#utility.yul\":1806:1932   */\n    tag_472:\n        /* \"#utility.yul\":1843:1850   */\n      0x00\n        /* \"#utility.yul\":1883:1925   */\n      0xffffffffffffffffffffffffffffffffffffffff\n        /* \"#utility.yul\":1876:1881   */\n      dup3\n        /* \"#utility.yul\":1872:1926   */\n      and\n        /* \"#utility.yul\":1861:1926   */\n      swap1\n      pop\n        /* \"#utility.yul\":1806:1932   */\n      swap2\n      swap1\n      pop\n      jump\t// out\n        /* \"#utility.yul\":1938:2034   */\n    tag_473:\n        /* \"#utility.yul\":1975:1982   */\n      0x00\n        /* \"#utility.yul\":2004:2028   */\n      tag_561\n        /* \"#utility.yul\":2022:2027   */\n      dup3\n        /* \"#utility.yul\":2004:2028   */\n      tag_472\n      jump\t// in\n    tag_561:\n        /* \"#utility.yul\":1993:2028   */\n      swap1\n      pop\n        /* \"#utility.yul\":1938:2034   */\n      swap2\n      swap1\n      pop\n      jump\t// out\n        /* \"#utility.yul\":2040:2148   */\n    tag_474:\n        /* \"#utility.yul\":2117:2141   */\n      tag_563\n        /* \"#utility.yul\":2135:2140   */\n      dup2\n        /* \"#utility.yul\":2117:2141   */\n      tag_473\n      jump\t// in\n    tag_563:\n        /* \"#utility.yul\":2112:2115   */\n      dup3\n        /* \"#utility.yul\":2105:2142   */\n      mstore\n        /* \"#utility.yul\":2040:2148   */\n      pop\n      pop\n      jump\t// out\n        /* \"#utility.yul\":2154:2333   */\n    tag_475:\n        /* \"#utility.yul\":2223:2233   */\n      0x00\n        /* \"#utility.yul\":2244:2290   */\n      tag_565\n        /* \"#utility.yul\":2286:2289   */\n      dup4\n        /* \"#utility.yul\":2278:2284   */\n      dup4\n        /* \"#utility.yul\":2244:2290   */\n      tag_474\n      jump\t// in\n    tag_565:\n        /* \"#utility.yul\":2322:2326   */\n      0x20\n        /* \"#utility.yul\":2317:2320   */\n      dup4\n        /* \"#utility.yul\":2313:2327   */\n      add\n        /* \"#utility.yul\":2299:2327   */\n      swap1\n      pop\n        /* \"#utility.yul\":2154:2333   */\n      swap3\n      swap2\n      pop\n      pop\n      jump\t// out\n        /* \"#utility.yul\":2339:2452   */\n    tag_476:\n        /* \"#utility.yul\":2409:2413   */\n      0x00\n        /* \"#utility.yul\":2441:2445   */\n      0x20\n        /* \"#utility.yul\":2436:2439   */\n      dup3\n        /* \"#utility.yul\":2432:2446   */\n      add\n        /* \"#utility.yul\":2424:2446   */\n      swap1\n      pop\n        /* \"#utility.yul\":2339:2452   */\n      swap2\n      swap1\n      pop\n      jump\t// out\n        /* \"#utility.yul\":2488:3220   */\n    tag_477:\n        /* \"#utility.yul\":2607:2610   */\n      0x00\n        /* \"#utility.yul\":2636:2690   */\n      tag_568\n        /* \"#utility.yul\":2684:2689   */\n      dup3\n        /* \"#utility.yul\":2636:2690   */\n      tag_469\n      jump\t// in\n    tag_568:\n        /* \"#utility.yul\":2706:2792   */\n      tag_569\n        /* \"#utility.yul\":2785:2791   */\n      dup2\n        /* \"#utility.yul\":2780:2783   */\n      dup6\n        /* \"#utility.yul\":2706:2792   */\n      tag_470\n      jump\t// in\n    tag_569:\n        /* \"#utility.yul\":2699:2792   */\n      swap4\n      pop\n        /* \"#utility.yul\":2816:2872   */\n      tag_570\n        /* \"#utility.yul\":2866:2871   */\n      dup4\n        /* \"#utility.yul\":2816:2872   */\n      tag_471\n      jump\t// in\n    tag_570:\n        /* \"#utility.yul\":2895:2902   */\n      dup1\n        /* \"#utility.yul\":2926:2927   */\n      0x00\n        /* \"#utility.yul\":2911:3195   */\n    tag_571:\n        /* \"#utility.yul\":2936:2942   */\n      dup4\n        /* \"#utility.yul\":2933:2934   */\n      dup2\n        /* \"#utility.yul\":2930:2943   */\n      lt\n        /* \"#utility.yul\":2911:3195   */\n      iszero\n      tag_573\n      jumpi\n        /* \"#utility.yul\":3012:3018   */\n      dup2\n        /* \"#utility.yul\":3006:3019   */\n      mload\n        /* \"#utility.yul\":3039:3102   */\n      tag_574\n        /* \"#utility.yul\":3098:3101   */\n      dup9\n        /* \"#utility.yul\":3083:3096   */\n      dup3\n        /* \"#utility.yul\":3039:3102   */\n      tag_475\n      jump\t// in\n    tag_574:\n        /* \"#utility.yul\":3032:3102   */\n      swap8\n      pop\n        /* \"#utility.yul\":3125:3185   */\n      tag_575\n        /* \"#utility.yul\":3178:3184   */\n      dup4\n        /* \"#utility.yul\":3125:3185   */\n      tag_476\n      jump\t// in\n    tag_575:\n        /* \"#utility.yul\":3115:3185   */\n      swap3\n      pop\n        /* \"#utility.yul\":2971:3195   */\n      pop\n        /* \"#utility.yul\":2958:2959   */\n      0x01\n        /* \"#utility.yul\":2955:2956   */\n      dup2\n        /* \"#utility.yul\":2951:2960   */\n      add\n        /* \"#utility.yul\":2946:2960   */\n      swap1\n      pop\n        /* \"#utility.yul\":2911:3195   */\n      jump(tag_571)\n    tag_573:\n        /* \"#utility.yul\":2915:2929   */\n      pop\n        /* \"#utility.yul\":3211:3214   */\n      dup6\n        /* \"#utility.yul\":3204:3214   */\n      swap4\n      pop\n        /* \"#utility.yul\":2612:3220   */\n      pop\n      pop\n      pop\n        /* \"#utility.yul\":2488:3220   */\n      swap3\n      swap2\n      pop\n      pop\n      jump\t// out\n        /* \"#utility.yul\":3226:3800   */\n    tag_28:\n        /* \"#utility.yul\":3417:3421   */\n      0x00\n        /* \"#utility.yul\":3455:3457   */\n      0x40\n        /* \"#utility.yul\":3444:3453   */\n      dup3\n        /* \"#utility.yul\":3440:3458   */\n      add\n        /* \"#utility.yul\":3432:3458   */\n      swap1\n      pop\n        /* \"#utility.yul\":3504:3513   */\n      dup2\n        /* \"#utility.yul\":3498:3502   */\n      dup2\n        /* \"#utility.yul\":3494:3514   */\n      sub\n        /* \"#utility.yul\":3490:3491   */\n      0x00\n        /* \"#utility.yul\":3479:3488   */\n      dup4\n        /* \"#utility.yul\":3475:3492   */\n      add\n        /* \"#utility.yul\":3468:3515   */\n      mstore\n        /* \"#utility.yul\":3532:3610   */\n      tag_577\n        /* \"#utility.yul\":3605:3609   */\n      dup2\n        /* \"#utility.yul\":3596:3602   */\n      dup6\n        /* \"#utility.yul\":3532:3610   */\n      tag_468\n      jump\t// in\n    tag_577:\n        /* \"#utility.yul\":3524:3610   */\n      swap1\n      pop\n        /* \"#utility.yul\":3657:3666   */\n      dup2\n        /* \"#utility.yul\":3651:3655   */\n      dup2\n        /* \"#utility.yul\":3647:3667   */\n      sub\n        /* \"#utility.yul\":3642:3644   */\n      0x20\n        /* \"#utility.yul\":3631:3640   */\n      dup4\n        /* \"#utility.yul\":3627:3645   */\n      add\n        /* \"#utility.yul\":3620:3668   */\n      mstore\n        /* \"#utility.yul\":3685:3793   */\n      tag_578\n        /* \"#utility.yul\":3788:3792   */\n      dup2\n        /* \"#utility.yul\":3779:3785   */\n      dup5\n        /* \"#utility.yul\":3685:3793   */\n      tag_477\n      jump\t// in\n    tag_578:\n        /* \"#utility.yul\":3677:3793   */\n      swap1\n      pop\n        /* \"#utility.yul\":3226:3800   */\n      swap4\n      swap3\n      pop\n      pop\n      pop\n      jump\t// out\n        /* \"#utility.yul\":3887:4004   */\n    tag_479:\n        /* \"#utility.yul\":3996:3997   */\n      0x00\n        /* \"#utility.yul\":3993:3994   */\n      dup1\n        /* \"#utility.yul\":3986:3998   */\n      revert\n        /* \"#utility.yul\":4133:4255   */\n    tag_481:\n        /* \"#utility.yul\":4206:4230   */\n      tag_583\n        /* \"#utility.yul\":4224:4229   */\n      dup2\n        /* \"#utility.yul\":4206:4230   */\n      tag_462\n      jump\t// in\n    tag_583:\n        /* \"#utility.yul\":4199:4204   */\n      dup2\n        /* \"#utility.yul\":4196:4231   */\n      eq\n        /* \"#utility.yul\":4186:4249   */\n      tag_584\n      jumpi\n        /* \"#utility.yul\":4245:4246   */\n      0x00\n        /* \"#utility.yul\":4242:4243   */\n      dup1\n        /* \"#utility.yul\":4235:4247   */\n      revert\n        /* \"#utility.yul\":4186:4249   */\n    tag_584:\n        /* \"#utility.yul\":4133:4255   */\n      pop\n      jump\t// out\n        /* \"#utility.yul\":4261:4400   */\n    tag_482:\n        /* \"#utility.yul\":4307:4312   */\n      0x00\n        /* \"#utility.yul\":4345:4351   */\n      dup2\n        /* \"#utility.yul\":4332:4352   */\n      calldataload\n        /* \"#utility.yul\":4323:4352   */\n      swap1\n      pop\n        /* \"#utility.yul\":4361:4394   */\n      tag_586\n        /* \"#utility.yul\":4388:4393   */\n      dup2\n        /* \"#utility.yul\":4361:4394   */\n      tag_481\n      jump\t// in\n    tag_586:\n        /* \"#utility.yul\":4261:4400   */\n      swap3\n      swap2\n      pop\n      pop\n      jump\t// out\n        /* \"#utility.yul\":4406:4735   */\n    tag_32:\n        /* \"#utility.yul\":4465:4471   */\n      0x00\n        /* \"#utility.yul\":4514:4516   */\n      0x20\n        /* \"#utility.yul\":4502:4511   */\n      dup3\n        /* \"#utility.yul\":4493:4500   */\n      dup5\n        /* \"#utility.yul\":4489:4512   */\n      sub\n        /* \"#utility.yul\":4485:4517   */\n      slt\n        /* \"#utility.yul\":4482:4601   */\n      iszero\n      tag_588\n      jumpi\n        /* \"#utility.yul\":4520:4599   */\n      tag_589\n      tag_479\n      jump\t// in\n    tag_589:\n        /* \"#utility.yul\":4482:4601   */\n    tag_588:\n        /* \"#utility.yul\":4640:4641   */\n      0x00\n        /* \"#utility.yul\":4665:4718   */\n      tag_590\n        /* \"#utility.yul\":4710:4717   */\n      dup5\n        /* \"#utility.yul\":4701:4707   */\n      dup3\n        /* \"#utility.yul\":4690:4699   */\n      dup6\n        /* \"#utility.yul\":4686:4708   */\n      add\n        /* \"#utility.yul\":4665:4718   */\n      tag_482\n      jump\t// in\n    tag_590:\n        /* \"#utility.yul\":4655:4718   */\n      swap2\n      pop\n        /* \"#utility.yul\":4611:4728   */\n      pop\n        /* \"#utility.yul\":4406:4735   */\n      swap3\n      swap2\n      pop\n      pop\n      jump\t// out\n        /* \"#utility.yul\":4741:4827   */\n    tag_483:\n        /* \"#utility.yul\":4776:4783   */\n      0x00\n        /* \"#utility.yul\":4816:4820   */\n      0xff\n        /* \"#utility.yul\":4809:4814   */\n      dup3\n        /* \"#utility.yul\":4805:4821   */\n      and\n        /* \"#utility.yul\":4794:4821   */\n      swap1\n      pop\n        /* \"#utility.yul\":4741:4827   */\n      swap2\n      swap1\n      pop\n      jump\t// out\n        /* \"#utility.yul\":4833:4945   */\n    tag_484:\n        /* \"#utility.yul\":4916:4938   */\n      tag_593\n        /* \"#utility.yul\":4932:4937   */\n      dup2\n        /* \"#utility.yul\":4916:4938   */\n      tag_483\n      jump\t// in\n    tag_593:\n        /* \"#utility.yul\":4911:4914   */\n      dup3\n        /* \"#utility.yul\":4904:4939   */\n      mstore\n        /* \"#utility.yul\":4833:4945   */\n      pop\n      pop\n      jump\t// out\n        /* \"#utility.yul\":4951:5165   */\n    tag_35:\n        /* \"#utility.yul\":5040:5044   */\n      0x00\n        /* \"#utility.yul\":5078:5080   */\n      0x20\n        /* \"#utility.yul\":5067:5076   */\n      dup3\n        /* \"#utility.yul\":5063:5081   */\n      add\n        /* \"#utility.yul\":5055:5081   */\n      swap1\n      pop\n        /* \"#utility.yul\":5091:5158   */\n      tag_595\n        /* \"#utility.yul\":5155:5156   */\n      0x00\n        /* \"#utility.yul\":5144:5153   */\n      dup4\n        /* \"#utility.yul\":5140:5157   */\n      add\n        /* \"#utility.yul\":5131:5137   */\n      dup5\n        /* \"#utility.yul\":5091:5158   */\n      tag_484\n      jump\t// in\n    tag_595:\n        /* \"#utility.yul\":4951:5165   */\n      swap3\n      swap2\n      pop\n      pop\n      jump\t// out\n        /* \"#utility.yul\":5171:5484   */\n    tag_40:\n        /* \"#utility.yul\":5284:5288   */\n      0x00\n        /* \"#utility.yul\":5322:5324   */\n      0x20\n        /* \"#utility.yul\":5311:5320   */\n      dup3\n        /* \"#utility.yul\":5307:5325   */\n      add\n        /* \"#utility.yul\":5299:5325   */\n      swap1\n      pop\n        /* \"#utility.yul\":5371:5380   */\n      dup2\n        /* \"#utility.yul\":5365:5369   */\n      dup2\n        /* \"#utility.yul\":5361:5381   */\n      sub\n        /* \"#utility.yul\":5357:5358   */\n      0x00\n        /* \"#utility.yul\":5346:5355   */\n      dup4\n        /* \"#utility.yul\":5342:5359   */\n      add\n        /* \"#utility.yul\":5335:5382   */\n      mstore\n        /* \"#utility.yul\":5399:5477   */\n      tag_597\n        /* \"#utility.yul\":5472:5476   */\n      dup2\n        /* \"#utility.yul\":5463:5469   */\n      dup5\n        /* \"#utility.yul\":5399:5477   */\n      tag_468\n      jump\t// in\n    tag_597:\n        /* \"#utility.yul\":5391:5477   */\n      swap1\n      pop\n        /* \"#utility.yul\":5171:5484   */\n      swap3\n      swap2\n      pop\n      pop\n      jump\t// out\n        /* \"#utility.yul\":5490:5608   */\n    tag_485:\n        /* \"#utility.yul\":5577:5601   */\n      tag_599\n        /* \"#utility.yul\":5595:5600   */\n      dup2\n        /* \"#utility.yul\":5577:5601   */\n      tag_473\n      jump\t// in\n    tag_599:\n        /* \"#utility.yul\":5572:5575   */\n      dup3\n        /* \"#utility.yul\":5565:5602   */\n      mstore\n        /* \"#utility.yul\":5490:5608   */\n      pop\n      pop\n      jump\t// out\n        /* \"#utility.yul\":5614:5836   */\n    tag_50:\n        /* \"#utility.yul\":5707:5711   */\n      0x00\n        /* \"#utility.yul\":5745:5747   */\n      0x20\n        /* \"#utility.yul\":5734:5743   */\n      dup3\n        /* \"#utility.yul\":5730:5748   */\n      add\n        /* \"#utility.yul\":5722:5748   */\n      swap1\n      pop\n        /* \"#utility.yul\":5758:5829   */\n      tag_601\n        /* \"#utility.yul\":5826:5827   */\n      0x00\n        /* \"#utility.yul\":5815:5824   */\n      dup4\n        /* \"#utility.yul\":5811:5828   */\n      add\n        /* \"#utility.yul\":5802:5808   */\n      dup5\n        /* \"#utility.yul\":5758:5829   */\n      tag_485\n      jump\t// in\n    tag_601:\n        /* \"#utility.yul\":5614:5836   */\n      swap3\n      swap2\n      pop\n      pop\n      jump\t// out\n        /* \"#utility.yul\":5842:5966   */\n    tag_486:\n        /* \"#utility.yul\":5919:5925   */\n      0x00\n        /* \"#utility.yul\":5953:5958   */\n      dup2\n        /* \"#utility.yul\":5947:5959   */\n      mload\n        /* \"#utility.yul\":5937:5959   */\n      swap1\n      pop\n        /* \"#utility.yul\":5842:5966   */\n      swap2\n      swap1\n      pop\n      jump\t// out\n        /* \"#utility.yul\":5972:6166   */\n    tag_487:\n        /* \"#utility.yul\":6081:6092   */\n      0x00\n        /* \"#utility.yul\":6115:6121   */\n      dup3\n        /* \"#utility.yul\":6110:6113   */\n      dup3\n        /* \"#utility.yul\":6103:6122   */\n      mstore\n        /* \"#utility.yul\":6155:6159   */\n      0x20\n        /* \"#utility.yul\":6150:6153   */\n      dup3\n        /* \"#utility.yul\":6146:6160   */\n      add\n        /* \"#utility.yul\":6131:6160   */\n      swap1\n      pop\n        /* \"#utility.yul\":5972:6166   */\n      swap3\n      swap2\n      pop\n      pop\n      jump\t// out\n        /* \"#utility.yul\":6172:6314   */\n    tag_488:\n        /* \"#utility.yul\":6249:6253   */\n      0x00\n        /* \"#utility.yul\":6272:6275   */\n      dup2\n        /* \"#utility.yul\":6264:6275   */\n      swap1\n      pop\n        /* \"#utility.yul\":6302:6306   */\n      0x20\n        /* \"#utility.yul\":6297:6300   */\n      dup3\n        /* \"#utility.yul\":6293:6307   */\n      add\n        /* \"#utility.yul\":6285:6307   */\n      swap1\n      pop\n        /* \"#utility.yul\":6172:6314   */\n      swap2\n      swap1\n      pop\n      jump\t// out\n        /* \"#utility.yul\":6320:6479   */\n    tag_489:\n        /* \"#utility.yul\":6394:6405   */\n      0x00\n        /* \"#utility.yul\":6428:6434   */\n      dup3\n        /* \"#utility.yul\":6423:6426   */\n      dup3\n        /* \"#utility.yul\":6416:6435   */\n      mstore\n        /* \"#utility.yul\":6468:6472   */\n      0x20\n        /* \"#utility.yul\":6463:6466   */\n      dup3\n        /* \"#utility.yul\":6459:6473   */\n      add\n        /* \"#utility.yul\":6444:6473   */\n      swap1\n      pop\n        /* \"#utility.yul\":6320:6479   */\n      swap3\n      swap2\n      pop\n      pop\n      jump\t// out\n        /* \"#utility.yul\":6485:6842   */\n    tag_490:\n        /* \"#utility.yul\":6563:6566   */\n      0x00\n        /* \"#utility.yul\":6591:6630   */\n      tag_607\n        /* \"#utility.yul\":6624:6629   */\n      dup3\n        /* \"#utility.yul\":6591:6630   */\n      tag_464\n      jump\t// in\n    tag_607:\n        /* \"#utility.yul\":6646:6707   */\n      tag_608\n        /* \"#utility.yul\":6700:6706   */\n      dup2\n        /* \"#utility.yul\":6695:6698   */\n      dup6\n        /* \"#utility.yul\":6646:6707   */\n      tag_489\n      jump\t// in\n    tag_608:\n        /* \"#utility.yul\":6639:6707   */\n      swap4\n      pop\n        /* \"#utility.yul\":6716:6781   */\n      tag_609\n        /* \"#utility.yul\":6774:6780   */\n      dup2\n        /* \"#utility.yul\":6769:6772   */\n      dup6\n        /* \"#utility.yul\":6762:6766   */\n      0x20\n        /* \"#utility.yul\":6755:6760   */\n      dup7\n        /* \"#utility.yul\":6751:6767   */\n      add\n        /* \"#utility.yul\":6716:6781   */\n      tag_466\n      jump\t// in\n    tag_609:\n        /* \"#utility.yul\":6806:6835   */\n      tag_610\n        /* \"#utility.yul\":6828:6834   */\n      dup2\n        /* \"#utility.yul\":6806:6835   */\n      tag_467\n      jump\t// in\n    tag_610:\n        /* \"#utility.yul\":6801:6804   */\n      dup5\n        /* \"#utility.yul\":6797:6836   */\n      add\n        /* \"#utility.yul\":6790:6836   */\n      swap2\n      pop\n        /* \"#utility.yul\":6567:6842   */\n      pop\n        /* \"#utility.yul\":6485:6842   */\n      swap3\n      swap2\n      pop\n      pop\n      jump\t// out\n        /* \"#utility.yul\":6848:7044   */\n    tag_491:\n        /* \"#utility.yul\":6937:6947   */\n      0x00\n        /* \"#utility.yul\":6972:7038   */\n      tag_612\n        /* \"#utility.yul\":7034:7037   */\n      dup4\n        /* \"#utility.yul\":7026:7032   */\n      dup4\n        /* \"#utility.yul\":6972:7038   */\n      tag_490\n      jump\t// in\n    tag_612:\n        /* \"#utility.yul\":6958:7038   */\n      swap1\n      pop\n        /* \"#utility.yul\":6848:7044   */\n      swap3\n      swap2\n      pop\n      pop\n      jump\t// out\n        /* \"#utility.yul\":7050:7173   */\n    tag_492:\n        /* \"#utility.yul\":7130:7134   */\n      0x00\n        /* \"#utility.yul\":7162:7166   */\n      0x20\n        /* \"#utility.yul\":7157:7160   */\n      dup3\n        /* \"#utility.yul\":7153:7167   */\n      add\n        /* \"#utility.yul\":7145:7167   */\n      swap1\n      pop\n        /* \"#utility.yul\":7050:7173   */\n      swap2\n      swap1\n      pop\n      jump\t// out\n        /* \"#utility.yul\":7207:8198   */\n    tag_493:\n        /* \"#utility.yul\":7346:7349   */\n      0x00\n        /* \"#utility.yul\":7375:7439   */\n      tag_615\n        /* \"#utility.yul\":7433:7438   */\n      dup3\n        /* \"#utility.yul\":7375:7439   */\n      tag_486\n      jump\t// in\n    tag_615:\n        /* \"#utility.yul\":7455:7551   */\n      tag_616\n        /* \"#utility.yul\":7544:7550   */\n      dup2\n        /* \"#utility.yul\":7539:7542   */\n      dup6\n        /* \"#utility.yul\":7455:7551   */\n      tag_487\n      jump\t// in\n    tag_616:\n        /* \"#utility.yul\":7448:7551   */\n      swap4\n      pop\n        /* \"#utility.yul\":7577:7580   */\n      dup4\n        /* \"#utility.yul\":7622:7626   */\n      0x20\n        /* \"#utility.yul\":7614:7620   */\n      dup3\n        /* \"#utility.yul\":7610:7627   */\n      mul\n        /* \"#utility.yul\":7605:7608   */\n      dup6\n        /* \"#utility.yul\":7601:7628   */\n      add\n        /* \"#utility.yul\":7652:7718   */\n      tag_617\n        /* \"#utility.yul\":7712:7717   */\n      dup6\n        /* \"#utility.yul\":7652:7718   */\n      tag_488\n      jump\t// in\n    tag_617:\n        /* \"#utility.yul\":7741:7748   */\n      dup1\n        /* \"#utility.yul\":7772:7773   */\n      0x00\n        /* \"#utility.yul\":7757:8153   */\n    tag_618:\n        /* \"#utility.yul\":7782:7788   */\n      dup6\n        /* \"#utility.yul\":7779:7780   */\n      dup2\n        /* \"#utility.yul\":7776:7789   */\n      lt\n        /* \"#utility.yul\":7757:8153   */\n      iszero\n      tag_620\n      jumpi\n        /* \"#utility.yul\":7853:7862   */\n      dup5\n        /* \"#utility.yul\":7847:7851   */\n      dup5\n        /* \"#utility.yul\":7843:7863   */\n      sub\n        /* \"#utility.yul\":7838:7841   */\n      dup10\n        /* \"#utility.yul\":7831:7864   */\n      mstore\n        /* \"#utility.yul\":7904:7910   */\n      dup2\n        /* \"#utility.yul\":7898:7911   */\n      mload\n        /* \"#utility.yul\":7932:8016   */\n      tag_621\n        /* \"#utility.yul\":8011:8015   */\n      dup6\n        /* \"#utility.yul\":7996:8009   */\n      dup3\n        /* \"#utility.yul\":7932:8016   */\n      tag_491\n      jump\t// in\n    tag_621:\n        /* \"#utility.yul\":7924:8016   */\n      swap5\n      pop\n        /* \"#utility.yul\":8039:8109   */\n      tag_622\n        /* \"#utility.yul\":8102:8108   */\n      dup4\n        /* \"#utility.yul\":8039:8109   */\n      tag_492\n      jump\t// in\n    tag_622:\n        /* \"#utility.yul\":8029:8109   */\n      swap3\n      pop\n        /* \"#utility.yul\":8138:8142   */\n      0x20\n        /* \"#utility.yul\":8133:8136   */\n      dup11\n        /* \"#utility.yul\":8129:8143   */\n      add\n        /* \"#utility.yul\":8122:8143   */\n      swap10\n      pop\n        /* \"#utility.yul\":7817:8153   */\n      pop\n        /* \"#utility.yul\":7804:7805   */\n      0x01\n        /* \"#utility.yul\":7801:7802   */\n      dup2\n        /* \"#utility.yul\":7797:7806   */\n      add\n        /* \"#utility.yul\":7792:7806   */\n      swap1\n      pop\n        /* \"#utility.yul\":7757:8153   */\n      jump(tag_618)\n    tag_620:\n        /* \"#utility.yul\":7761:7775   */\n      pop\n        /* \"#utility.yul\":8169:8173   */\n      dup3\n        /* \"#utility.yul\":8162:8173   */\n      swap8\n      pop\n        /* \"#utility.yul\":8189:8192   */\n      dup8\n        /* \"#utility.yul\":8182:8192   */\n      swap6\n      pop\n        /* \"#utility.yul\":7351:8198   */\n      pop\n      pop\n      pop\n      pop\n      pop\n        /* \"#utility.yul\":7207:8198   */\n      swap3\n      swap2\n      pop\n      pop\n      jump\t// out\n        /* \"#utility.yul\":8204:8617   */\n    tag_64:\n        /* \"#utility.yul\":8367:8371   */\n      0x00\n        /* \"#utility.yul\":8405:8407   */\n      0x20\n        /* \"#utility.yul\":8394:8403   */\n      dup3\n        /* \"#utility.yul\":8390:8408   */\n      add\n        /* \"#utility.yul\":8382:8408   */\n      swap1\n      pop\n        /* \"#utility.yul\":8454:8463   */\n      dup2\n        /* \"#utility.yul\":8448:8452   */\n      dup2\n        /* \"#utility.yul\":8444:8464   */\n      sub\n        /* \"#utility.yul\":8440:8441   */\n      0x00\n        /* \"#utility.yul\":8429:8438   */\n      dup4\n        /* \"#utility.yul\":8425:8442   */\n      add\n        /* \"#utility.yul\":8418:8465   */\n      mstore\n        /* \"#utility.yul\":8482:8610   */\n      tag_624\n        /* \"#utility.yul\":8605:8609   */\n      dup2\n        /* \"#utility.yul\":8596:8602   */\n      dup5\n        /* \"#utility.yul\":8482:8610   */\n      tag_493\n      jump\t// in\n    tag_624:\n        /* \"#utility.yul\":8474:8610   */\n      swap1\n      pop\n        /* \"#utility.yul\":8204:8617   */\n      swap3\n      swap2\n      pop\n      pop\n      jump\t// out\n        /* \"#utility.yul\":8623:8713   */\n    tag_494:\n        /* \"#utility.yul\":8657:8664   */\n      0x00\n        /* \"#utility.yul\":8700:8705   */\n      dup2\n        /* \"#utility.yul\":8693:8706   */\n      iszero\n        /* \"#utility.yul\":8686:8707   */\n      iszero\n        /* \"#utility.yul\":8675:8707   */\n      swap1\n      pop\n        /* \"#utility.yul\":8623:8713   */\n      swap2\n      swap1\n      pop\n      jump\t// out\n        /* \"#utility.yul\":8719:8828   */\n    tag_495:\n        /* \"#utility.yul\":8800:8821   */\n      tag_627\n        /* \"#utility.yul\":8815:8820   */\n      dup2\n        /* \"#utility.yul\":8800:8821   */\n      tag_494\n      jump\t// in\n    tag_627:\n        /* \"#utility.yul\":8795:8798   */\n      dup3\n        /* \"#utility.yul\":8788:8822   */\n      mstore\n        /* \"#utility.yul\":8719:8828   */\n      pop\n      pop\n      jump\t// out\n        /* \"#utility.yul\":8834:9363   */\n    tag_84:\n        /* \"#utility.yul\":8999:9003   */\n      0x00\n        /* \"#utility.yul\":9037:9040   */\n      0x80\n        /* \"#utility.yul\":9026:9035   */\n      dup3\n        /* \"#utility.yul\":9022:9041   */\n      add\n        /* \"#utility.yul\":9014:9041   */\n      swap1\n      pop\n        /* \"#utility.yul\":9051:9122   */\n      tag_629\n        /* \"#utility.yul\":9119:9120   */\n      0x00\n        /* \"#utility.yul\":9108:9117   */\n      dup4\n        /* \"#utility.yul\":9104:9121   */\n      add\n        /* \"#utility.yul\":9095:9101   */\n      dup8\n        /* \"#utility.yul\":9051:9122   */\n      tag_485\n      jump\t// in\n    tag_629:\n        /* \"#utility.yul\":9132:9204   */\n      tag_630\n        /* \"#utility.yul\":9200:9202   */\n      0x20\n        /* \"#utility.yul\":9189:9198   */\n      dup4\n        /* \"#utility.yul\":9185:9203   */\n      add\n        /* \"#utility.yul\":9176:9182   */\n      dup7\n        /* \"#utility.yul\":9132:9204   */\n      tag_463\n      jump\t// in\n    tag_630:\n        /* \"#utility.yul\":9214:9280   */\n      tag_631\n        /* \"#utility.yul\":9276:9278   */\n      0x40\n        /* \"#utility.yul\":9265:9274   */\n      dup4\n        /* \"#utility.yul\":9261:9279   */\n      add\n        /* \"#utility.yul\":9252:9258   */\n      dup6\n        /* \"#utility.yul\":9214:9280   */\n      tag_495\n      jump\t// in\n    tag_631:\n        /* \"#utility.yul\":9290:9356   */\n      tag_632\n        /* \"#utility.yul\":9352:9354   */\n      0x60\n        /* \"#utility.yul\":9341:9350   */\n      dup4\n        /* \"#utility.yul\":9337:9355   */\n      add\n        /* \"#utility.yul\":9328:9334   */\n      dup5\n        /* \"#utility.yul\":9290:9356   */\n      tag_495\n      jump\t// in\n    tag_632:\n        /* \"#utility.yul\":8834:9363   */\n      swap6\n      swap5\n      pop\n      pop\n      pop\n      pop\n      pop\n      jump\t// out\n        /* \"#utility.yul\":9369:9549   */\n    tag_185:\n        /* \"#utility.yul\":9417:9494   */\n      0x4e487b7100000000000000000000000000000000000000000000000000000000\n        /* \"#utility.yul\":9414:9415   */\n      0x00\n        /* \"#utility.yul\":9407:9495   */\n      mstore\n        /* \"#utility.yul\":9514:9518   */\n      0x41\n        /* \"#utility.yul\":9511:9512   */\n      0x04\n        /* \"#utility.yul\":9504:9519   */\n      mstore\n        /* \"#utility.yul\":9538:9542   */\n      0x24\n        /* \"#utility.yul\":9535:9536   */\n      0x00\n        /* \"#utility.yul\":9528:9543   */\n      revert\n        /* \"#utility.yul\":9555:9735   */\n    tag_496:\n        /* \"#utility.yul\":9603:9680   */\n      0x4e487b7100000000000000000000000000000000000000000000000000000000\n        /* \"#utility.yul\":9600:9601   */\n      0x00\n        /* \"#utility.yul\":9593:9681   */\n      mstore\n        /* \"#utility.yul\":9700:9704   */\n      0x22\n        /* \"#utility.yul\":9697:9698   */\n      0x04\n        /* \"#utility.yul\":9690:9705   */\n      mstore\n        /* \"#utility.yul\":9724:9728   */\n      0x24\n        /* \"#utility.yul\":9721:9722   */\n      0x00\n        /* \"#utility.yul\":9714:9729   */\n      revert\n        /* \"#utility.yul\":9741:10061   */\n    tag_152:\n        /* \"#utility.yul\":9785:9791   */\n      0x00\n        /* \"#utility.yul\":9822:9823   */\n      0x02\n        /* \"#utility.yul\":9816:9820   */\n      dup3\n        /* \"#utility.yul\":9812:9824   */\n      div\n        /* \"#utility.yul\":9802:9824   */\n      swap1\n      pop\n        /* \"#utility.yul\":9869:9870   */\n      0x01\n        /* \"#utility.yul\":9863:9867   */\n      dup3\n        /* \"#utility.yul\":9859:9871   */\n      and\n        /* \"#utility.yul\":9890:9908   */\n      dup1\n        /* \"#utility.yul\":9880:9961   */\n      tag_636\n      jumpi\n        /* \"#utility.yul\":9946:9950   */\n      0x7f\n        /* \"#utility.yul\":9938:9944   */\n      dup3\n        /* \"#utility.yul\":9934:9951   */\n      and\n        /* \"#utility.yul\":9924:9951   */\n      swap2\n      pop\n        /* \"#utility.yul\":9880:9961   */\n    tag_636:\n        /* \"#utility.yul\":10008:10010   */\n      0x20\n        /* \"#utility.yul\":10000:10006   */\n      dup3\n        /* \"#utility.yul\":9997:10011   */\n      lt\n        /* \"#utility.yul\":9977:9995   */\n      dup2\n        /* \"#utility.yul\":9974:10012   */\n      sub\n        /* \"#utility.yul\":9971:10055   */\n      tag_637\n      jumpi\n        /* \"#utility.yul\":10027:10045   */\n      tag_638\n      tag_496\n      jump\t// in\n    tag_638:\n        /* \"#utility.yul\":9971:10055   */\n    tag_637:\n        /* \"#utility.yul\":9792:10061   */\n      pop\n        /* \"#utility.yul\":9741:10061   */\n      swap2\n      swap1\n      pop\n      jump\t// out\n        /* \"#utility.yul\":10067:10208   */\n    tag_497:\n        /* \"#utility.yul\":10116:10120   */\n      0x00\n        /* \"#utility.yul\":10139:10142   */\n      dup2\n        /* \"#utility.yul\":10131:10142   */\n      swap1\n      pop\n        /* \"#utility.yul\":10162:10165   */\n      dup2\n        /* \"#utility.yul\":10159:10160   */\n      0x00\n        /* \"#utility.yul\":10152:10166   */\n      mstore\n        /* \"#utility.yul\":10196:10200   */\n      0x20\n        /* \"#utility.yul\":10193:10194   */\n      0x00\n        /* \"#utility.yul\":10183:10201   */\n      keccak256\n        /* \"#utility.yul\":10175:10201   */\n      swap1\n      pop\n        /* \"#utility.yul\":10067:10208   */\n      swap2\n      swap1\n      pop\n      jump\t// out\n        /* \"#utility.yul\":10214:10307   */\n    tag_498:\n        /* \"#utility.yul\":10251:10257   */\n      0x00\n        /* \"#utility.yul\":10298:10300   */\n      0x20\n        /* \"#utility.yul\":10293:10295   */\n      0x1f\n        /* \"#utility.yul\":10286:10291   */\n      dup4\n        /* \"#utility.yul\":10282:10296   */\n      add\n        /* \"#utility.yul\":10278:10301   */\n      div\n        /* \"#utility.yul\":10268:10301   */\n      swap1\n      pop\n        /* \"#utility.yul\":10214:10307   */\n      swap2\n      swap1\n      pop\n      jump\t// out\n        /* \"#utility.yul\":10313:10420   */\n    tag_499:\n        /* \"#utility.yul\":10357:10365   */\n      0x00\n        /* \"#utility.yul\":10407:10412   */\n      dup3\n        /* \"#utility.yul\":10401:10405   */\n      dup3\n        /* \"#utility.yul\":10397:10413   */\n      shl\n        /* \"#utility.yul\":10376:10413   */\n      swap1\n      pop\n        /* \"#utility.yul\":10313:10420   */\n      swap3\n      swap2\n      pop\n      pop\n      jump\t// out\n        /* \"#utility.yul\":10426:10819   */\n    tag_500:\n        /* \"#utility.yul\":10495:10501   */\n      0x00\n        /* \"#utility.yul\":10545:10546   */\n      0x08\n        /* \"#utility.yul\":10533:10543   */\n      dup4\n        /* \"#utility.yul\":10529:10547   */\n      mul\n        /* \"#utility.yul\":10568:10665   */\n      tag_643\n        /* \"#utility.yul\":10598:10664   */\n      0xffffffffffffffffffffffffffffffffffffffffffffffffffffffffffffffff\n        /* \"#utility.yul\":10587:10596   */\n      dup3\n        /* \"#utility.yul\":10568:10665   */\n      tag_499\n      jump\t// in\n    tag_643:\n        /* \"#utility.yul\":10686:10725   */\n      tag_644\n        /* \"#utility.yul\":10716:10724   */\n      dup7\n        /* \"#utility.yul\":10705:10714   */\n      dup4\n        /* \"#utility.yul\":10686:10725   */\n      tag_499\n      jump\t// in\n    tag_644:\n        /* \"#utility.yul\":10674:10725   */\n      swap6\n      pop\n        /* \"#utility.yul\":10758:10762   */\n      dup1\n        /* \"#utility.yul\":10754:10763   */\n      not\n        /* \"#utility.yul\":10747:10752   */\n      dup5\n        /* \"#utility.yul\":10743:10764   */\n      and\n        /* \"#utility.yul\":10734:10764   */\n      swap4\n      pop\n        /* \"#utility.yul\":10807:10811   */\n      dup1\n        /* \"#utility.yul\":10797:10805   */\n      dup7\n        /* \"#utility.yul\":10793:10812   */\n      and\n        /* \"#utility.yul\":10786:10791   */\n      dup5\n        /* \"#utility.yul\":10783:10813   */\n      or\n        /* \"#utility.yul\":10773:10813   */\n      swap3\n      pop\n        /* \"#utility.yul\":10502:10819   */\n      pop\n      pop\n        /* \"#utility.yul\":10426:10819   */\n      swap4\n      swap3\n      pop\n      pop\n      pop\n      jump\t// out\n        /* \"#utility.yul\":10825:10885   */\n    tag_501:\n        /* \"#utility.yul\":10853:10856   */\n      0x00\n        /* \"#utility.yul\":10874:10879   */\n      dup2\n        /* \"#utility.yul\":10867:10879   */\n      swap1\n      pop\n        /* \"#utility.yul\":10825:10885   */\n      swap2\n      swap1\n      pop\n      jump\t// out\n        /* \"#utility.yul\":10891:11033   */\n    tag_502:\n        /* \"#utility.yul\":10941:10950   */\n      0x00\n        /* \"#utility.yul\":10974:11027   */\n      tag_647\n        /* \"#utility.yul\":10992:11026   */\n      tag_648\n        /* \"#utility.yul\":11001:11025   */\n      tag_649\n        /* \"#utility.yul\":11019:11024   */\n      dup5\n        /* \"#utility.yul\":11001:11025   */\n      tag_462\n      jump\t// in\n    tag_649:\n        /* \"#utility.yul\":10992:11026   */\n      tag_501\n      jump\t// in\n    tag_648:\n        /* \"#utility.yul\":10974:11027   */\n      tag_462\n      jump\t// in\n    tag_647:\n        /* \"#utility.yul\":10961:11027   */\n      swap1\n      pop\n        /* \"#utility.yul\":10891:11033   */\n      swap2\n      swap1\n      pop\n      jump\t// out\n        /* \"#utility.yul\":11039:11114   */\n    tag_503:\n        /* \"#utility.yul\":11082:11085   */\n      0x00\n        /* \"#utility.yul\":11103:11108   */\n      dup2\n        /* \"#utility.yul\":11096:11108   */\n      swap1\n      pop\n        /* \"#utility.yul\":11039:11114   */\n      swap2\n      swap1\n      pop\n      jump\t// out\n        /* \"#utility.yul\":11120:11389   */\n    tag_504:\n        /* \"#utility.yul\":11230:11269   */\n      tag_652\n        /* \"#utility.yul\":11261:11268   */\n      dup4\n        /* \"#utility.yul\":11230:11269   */\n      tag_502\n      jump\t// in\n    tag_652:\n        /* \"#utility.yul\":11291:11382   */\n      tag_653\n        /* \"#utility.yul\":11340:11381   */\n      tag_654\n        /* \"#utility.yul\":11364:11380   */\n      dup3\n        /* \"#utility.yul\":11340:11381   */\n      tag_503\n      jump\t// in\n    tag_654:\n        /* \"#utility.yul\":11332:11338   */\n      dup5\n        /* \"#utility.yul\":11325:11329   */\n      dup5\n        /* \"#utility.yul\":11319:11330   */\n      sload\n        /* \"#utility.yul\":11291:11382   */\n      tag_500\n      jump\t// in\n    tag_653:\n        /* \"#utility.yul\":11285:11289   */\n      dup3\n        /* \"#utility.yul\":11278:11383   */\n      sstore\n        /* \"#utility.yul\":11196:11389   */\n      pop\n        /* \"#utility.yul\":11120:11389   */\n      pop\n      pop\n      pop\n      jump\t// out\n        /* \"#utility.yul\":11395:11468   */\n    tag_505:\n        /* \"#utility.yul\":11440:11443   */\n      0x00\n        /* \"#utility.yul\":11395:11468   */\n      swap1\n      jump\t// out\n        /* \"#utility.yul\":11474:11663   */\n    tag_506:\n        /* \"#utility.yul\":11551:11583   */\n      tag_657\n      tag_505\n      jump\t// in\n    tag_657:\n        /* \"#utility.yul\":11592:11657   */\n      tag_658\n        /* \"#utility.yul\":11650:11656   */\n      dup2\n        /* \"#utility.yul\":11642:11648   */\n      dup5\n        /* \"#utility.yul\":11636:11640   */\n      dup5\n        /* \"#utility.yul\":11592:11657   */\n      tag_504\n      jump\t// in\n    tag_658:\n        /* \"#utility.yul\":11527:11663   */\n      pop\n        /* \"#utility.yul\":11474:11663   */\n      pop\n      pop\n      jump\t// out\n        /* \"#utility.yul\":11669:11855   */\n    tag_507:\n        /* \"#utility.yul\":11729:11849   */\n    tag_660:\n        /* \"#utility.yul\":11746:11749   */\n      dup2\n        /* \"#utility.yul\":11739:11744   */\n      dup2\n        /* \"#utility.yul\":11736:11750   */\n      lt\n        /* \"#utility.yul\":11729:11849   */\n      iszero\n      tag_662\n      jumpi\n        /* \"#utility.yul\":11800:11839   */\n      tag_663\n        /* \"#utility.yul\":11837:11838   */\n      0x00\n        /* \"#utility.yul\":11830:11835   */\n      dup3\n        /* \"#utility.yul\":11800:11839   */\n      tag_506\n      jump\t// in\n    tag_663:\n        /* \"#utility.yul\":11773:11774   */\n      0x01\n        /* \"#utility.yul\":11766:11771   */\n      dup2\n        /* \"#utility.yul\":11762:11775   */\n      add\n        /* \"#utility.yul\":11753:11775   */\n      swap1\n      pop\n        /* \"#utility.yul\":11729:11849   */\n      jump(tag_660)\n    tag_662:\n        /* \"#utility.yul\":11669:11855   */\n      pop\n      pop\n      jump\t// out\n        /* \"#utility.yul\":11861:12404   */\n    tag_508:\n        /* \"#utility.yul\":11962:11964   */\n      0x1f\n        /* \"#utility.yul\":11957:11960   */\n      dup3\n        /* \"#utility.yul\":11954:11965   */\n      gt\n        /* \"#utility.yul\":11951:12397   */\n      iszero\n      tag_665\n      jumpi\n        /* \"#utility.yul\":11996:12034   */\n      tag_666\n        /* \"#utility.yul\":12028:12033   */\n      dup2\n        /* \"#utility.yul\":11996:12034   */\n      tag_497\n      jump\t// in\n    tag_666:\n        /* \"#utility.yul\":12080:12109   */\n      tag_667\n        /* \"#utility.yul\":12098:12108   */\n      dup5\n        /* \"#utility.yul\":12080:12109   */\n      tag_498\n      jump\t// in\n    tag_667:\n        /* \"#utility.yul\":12070:12078   */\n      dup2\n        /* \"#utility.yul\":12066:12110   */\n      add\n        /* \"#utility.yul\":12263:12265   */\n      0x20\n        /* \"#utility.yul\":12251:12261   */\n      dup6\n        /* \"#utility.yul\":12248:12266   */\n      lt\n        /* \"#utility.yul\":12245:12294   */\n      iszero\n      tag_668\n      jumpi\n        /* \"#utility.yul\":12284:12292   */\n      dup2\n        /* \"#utility.yul\":12269:12292   */\n      swap1\n      pop\n        /* \"#utility.yul\":12245:12294   */\n    tag_668:\n        /* \"#utility.yul\":12307:12387   */\n      tag_669\n        /* \"#utility.yul\":12363:12385   */\n      tag_670\n        /* \"#utility.yul\":12381:12384   */\n      dup6\n        /* \"#utility.yul\":12363:12385   */\n      tag_498\n      jump\t// in\n    tag_670:\n        /* \"#utility.yul\":12353:12361   */\n      dup4\n        /* \"#utility.yul\":12349:12386   */\n      add\n        /* \"#utility.yul\":12336:12347   */\n      dup3\n        /* \"#utility.yul\":12307:12387   */\n      tag_507\n      jump\t// in\n    tag_669:\n        /* \"#utility.yul\":11966:12397   */\n      pop\n      pop\n        /* \"#utility.yul\":11951:12397   */\n    tag_665:\n        /* \"#utility.yul\":11861:12404   */\n      pop\n      pop\n      pop\n      jump\t// out\n        /* \"#utility.yul\":12410:12527   */\n    tag_509:\n        /* \"#utility.yul\":12464:12472   */\n      0x00\n        /* \"#utility.yul\":12514:12519   */\n      dup3\n        /* \"#utility.yul\":12508:12512   */\n      dup3\n        /* \"#utility.yul\":12504:12520   */\n      shr\n        /* \"#utility.yul\":12483:12520   */\n      swap1\n      pop\n        /* \"#utility.yul\":12410:12527   */\n      swap3\n      swap2\n      pop\n      pop\n      jump\t// out\n        /* \"#utility.yul\":12533:12702   */\n    tag_510:\n        /* \"#utility.yul\":12577:12583   */\n      0x00\n        /* \"#utility.yul\":12610:12661   */\n      tag_673\n        /* \"#utility.yul\":12658:12659   */\n      0x00\n        /* \"#utility.yul\":12654:12660   */\n      not\n        /* \"#utility.yul\":12646:12651   */\n      dup5\n        /* \"#utility.yul\":12643:12644   */\n      0x08\n        /* \"#utility.yul\":12639:12652   */\n      mul\n        /* \"#utility.yul\":12610:12661   */\n      tag_509\n      jump\t// in\n    tag_673:\n        /* \"#utility.yul\":12606:12662   */\n      not\n        /* \"#utility.yul\":12691:12695   */\n      dup1\n        /* \"#utility.yul\":12685:12689   */\n      dup4\n        /* \"#utility.yul\":12681:12696   */\n      and\n        /* \"#utility.yul\":12671:12696   */\n      swap2\n      pop\n        /* \"#utility.yul\":12584:12702   */\n      pop\n        /* \"#utility.yul\":12533:12702   */\n      swap3\n      swap2\n      pop\n      pop\n      jump\t// out\n        /* \"#utility.yul\":12707:13002   */\n    tag_511:\n        /* \"#utility.yul\":12783:12787   */\n      0x00\n        /* \"#utility.yul\":12929:12958   */\n      tag_675\n        /* \"#utility.yul\":12954:12957   */\n      dup4\n        /* \"#utility.yul\":12948:12952   */\n      dup4\n        /* \"#utility.yul\":12929:12958   */\n      tag_510\n      jump\t// in\n    tag_675:\n        /* \"#utility.yul\":12921:12958   */\n      swap2\n      pop\n        /* \"#utility.yul\":12991:12994   */\n      dup3\n        /* \"#utility.yul\":12988:12989   */\n      0x02\n        /* \"#utility.yul\":12984:12995   */\n      mul\n        /* \"#utility.yul\":12978:12982   */\n      dup3\n        /* \"#utility.yul\":12975:12996   */\n      or\n        /* \"#utility.yul\":12967:12996   */\n      swap1\n      pop\n        /* \"#utility.yul\":12707:13002   */\n      swap3\n      swap2\n      pop\n      pop\n      jump\t// out\n        /* \"#utility.yul\":13007:14402   */\n    tag_108:\n        /* \"#utility.yul\":13124:13161   */\n      tag_677\n        /* \"#utility.yul\":13157:13160   */\n      dup3\n        /* \"#utility.yul\":13124:13161   */\n      tag_464\n      jump\t// in\n    tag_677:\n        /* \"#utility.yul\":13226:13244   */\n      0xffffffffffffffff\n        /* \"#utility.yul\":13218:13224   */\n      dup2\n        /* \"#utility.yul\":13215:13245   */\n      gt\n        /* \"#utility.yul\":13212:13268   */\n      iszero\n      tag_678\n      jumpi\n        /* \"#utility.yul\":13248:13266   */\n      tag_679\n      tag_185\n      jump\t// in\n    tag_679:\n        /* \"#utility.yul\":13212:13268   */\n    tag_678:\n        /* \"#utility.yul\":13292:13330   */\n      tag_680\n        /* \"#utility.yul\":13324:13328   */\n      dup3\n        /* \"#utility.yul\":13318:13329   */\n      sload\n        /* \"#utility.yul\":13292:13330   */\n      tag_152\n      jump\t// in\n    tag_680:\n        /* \"#utility.yul\":13377:13444   */\n      tag_681\n        /* \"#utility.yul\":13437:13443   */\n      dup3\n        /* \"#utility.yul\":13429:13435   */\n      dup3\n        /* \"#utility.yul\":13423:13427   */\n      dup6\n        /* \"#utility.yul\":13377:13444   */\n      tag_508\n      jump\t// in\n    tag_681:\n        /* \"#utility.yul\":13471:13472   */\n      0x00\n        /* \"#utility.yul\":13495:13499   */\n      0x20\n        /* \"#utility.yul\":13482:13499   */\n      swap1\n      pop\n        /* \"#utility.yul\":13527:13529   */\n      0x1f\n        /* \"#utility.yul\":13519:13525   */\n      dup4\n        /* \"#utility.yul\":13516:13530   */\n      gt\n        /* \"#utility.yul\":13544:13545   */\n      0x01\n        /* \"#utility.yul\":13539:14157   */\n      dup2\n      eq\n      tag_683\n      jumpi\n        /* \"#utility.yul\":14201:14202   */\n      0x00\n        /* \"#utility.yul\":14218:14224   */\n      dup5\n        /* \"#utility.yul\":14215:14292   */\n      iszero\n      tag_684\n      jumpi\n        /* \"#utility.yul\":14267:14276   */\n      dup3\n        /* \"#utility.yul\":14262:14265   */\n      dup8\n        /* \"#utility.yul\":14258:14277   */\n      add\n        /* \"#utility.yul\":14252:14278   */\n      mload\n        /* \"#utility.yul\":14243:14278   */\n      swap1\n      pop\n        /* \"#utility.yul\":14215:14292   */\n    tag_684:\n        /* \"#utility.yul\":14318:14385   */\n      tag_685\n        /* \"#utility.yul\":14378:14384   */\n      dup6\n        /* \"#utility.yul\":14371:14376   */\n      dup3\n        /* \"#utility.yul\":14318:14385   */\n      tag_511\n      jump\t// in\n    tag_685:\n        /* \"#utility.yul\":14312:14316   */\n      dup7\n        /* \"#utility.yul\":14305:14386   */\n      sstore\n        /* \"#utility.yul\":14174:14396   */\n      pop\n        /* \"#utility.yul\":13509:14396   */\n      jump(tag_682)\n        /* \"#utility.yul\":13539:14157   */\n    tag_683:\n        /* \"#utility.yul\":13591:13595   */\n      0x1f\n        /* \"#utility.yul\":13587:13596   */\n      not\n        /* \"#utility.yul\":13579:13585   */\n      dup5\n        /* \"#utility.yul\":13575:13597   */\n      and\n        /* \"#utility.yul\":13625:13662   */\n      tag_686\n        /* \"#utility.yul\":13657:13661   */\n      dup7\n        /* \"#utility.yul\":13625:13662   */\n      tag_497\n      jump\t// in\n    tag_686:\n        /* \"#utility.yul\":13684:13685   */\n      0x00\n        /* \"#utility.yul\":13698:13906   */\n    tag_687:\n        /* \"#utility.yul\":13712:13719   */\n      dup3\n        /* \"#utility.yul\":13709:13710   */\n      dup2\n        /* \"#utility.yul\":13706:13720   */\n      lt\n        /* \"#utility.yul\":13698:13906   */\n      iszero\n      tag_689\n      jumpi\n        /* \"#utility.yul\":13791:13800   */\n      dup5\n        /* \"#utility.yul\":13786:13789   */\n      dup10\n        /* \"#utility.yul\":13782:13801   */\n      add\n        /* \"#utility.yul\":13776:13802   */\n      mload\n        /* \"#utility.yul\":13768:13774   */\n      dup3\n        /* \"#utility.yul\":13761:13803   */\n      sstore\n        /* \"#utility.yul\":13842:13843   */\n      0x01\n        /* \"#utility.yul\":13834:13840   */\n      dup3\n        /* \"#utility.yul\":13830:13844   */\n      add\n        /* \"#utility.yul\":13820:13844   */\n      swap2\n      pop\n        /* \"#utility.yul\":13889:13891   */\n      0x20\n        /* \"#utility.yul\":13878:13887   */\n      dup6\n        /* \"#utility.yul\":13874:13892   */\n      add\n        /* \"#utility.yul\":13861:13892   */\n      swap5\n      pop\n        /* \"#utility.yul\":13735:13739   */\n      0x20\n        /* \"#utility.yul\":13732:13733   */\n      dup2\n        /* \"#utility.yul\":13728:13740   */\n      add\n        /* \"#utility.yul\":13723:13740   */\n      swap1\n      pop\n        /* \"#utility.yul\":13698:13906   */\n      jump(tag_687)\n    tag_689:\n        /* \"#utility.yul\":13934:13940   */\n      dup7\n        /* \"#utility.yul\":13925:13932   */\n      dup4\n        /* \"#utility.yul\":13922:13941   */\n      lt\n        /* \"#utility.yul\":13919:14098   */\n      iszero\n      tag_690\n      jumpi\n        /* \"#utility.yul\":13992:14001   */\n      dup5\n        /* \"#utility.yul\":13987:13990   */\n      dup10\n        /* \"#utility.yul\":13983:14002   */\n      add\n        /* \"#utility.yul\":13977:14003   */\n      mload\n        /* \"#utility.yul\":14035:14083   */\n      tag_691\n        /* \"#utility.yul\":14077:14081   */\n      0x1f\n        /* \"#utility.yul\":14069:14075   */\n      dup10\n        /* \"#utility.yul\":14065:14082   */\n      and\n        /* \"#utility.yul\":14054:14063   */\n      dup3\n        /* \"#utility.yul\":14035:14083   */\n      tag_510\n      jump\t// in\n    tag_691:\n        /* \"#utility.yul\":14027:14033   */\n      dup4\n        /* \"#utility.yul\":14020:14084   */\n      sstore\n        /* \"#utility.yul\":13942:14098   */\n      pop\n        /* \"#utility.yul\":13919:14098   */\n    tag_690:\n        /* \"#utility.yul\":14144:14145   */\n      0x01\n        /* \"#utility.yul\":14140:14141   */\n      0x02\n        /* \"#utility.yul\":14132:14138   */\n      dup9\n        /* \"#utility.yul\":14128:14142   */\n      mul\n        /* \"#utility.yul\":14124:14146   */\n      add\n        /* \"#utility.yul\":14118:14122   */\n      dup9\n        /* \"#utility.yul\":14111:14147   */\n      sstore\n        /* \"#utility.yul\":13546:14157   */\n      pop\n      pop\n      pop\n        /* \"#utility.yul\":13509:14396   */\n    tag_682:\n      pop\n        /* \"#utility.yul\":13099:14402   */\n      pop\n      pop\n      pop\n        /* \"#utility.yul\":13007:14402   */\n      pop\n      pop\n      jump\t// out\n        /* \"#utility.yul\":14408:14588   */\n    tag_115:\n        /* \"#utility.yul\":14456:14533   */\n      0x4e487b7100000000000000000000000000000000000000000000000000000000\n        /* \"#utility.yul\":14453:14454   */\n      0x00\n        /* \"#utility.yul\":14446:14534   */\n      mstore\n        /* \"#utility.yul\":14553:14557   */\n      0x32\n        /* \"#utility.yul\":14550:14551   */\n      0x04\n        /* \"#utility.yul\":14543:14558   */\n      mstore\n        /* \"#utility.yul\":14577:14581   */\n      0x24\n        /* \"#utility.yul\":14574:14575   */\n      0x00\n        /* \"#utility.yul\":14567:14582   */\n      revert\n        /* \"#utility.yul\":14594:14774   */\n    tag_512:\n        /* \"#utility.yul\":14642:14719   */\n      0x4e487b7100000000000000000000000000000000000000000000000000000000\n        /* \"#utility.yul\":14639:14640   */\n      0x00\n        /* \"#utility.yul\":14632:14720   */\n      mstore\n        /* \"#utility.yul\":14739:14743   */\n      0x11\n        /* \"#utility.yul\":14736:14737   */\n      0x04\n        /* \"#utility.yul\":14729:14744   */\n      mstore\n        /* \"#utility.yul\":14763:14767   */\n      0x24\n        /* \"#utility.yul\":14760:14761   */\n      0x00\n        /* \"#utility.yul\":14753:14768   */\n      revert\n        /* \"#utility.yul\":14780:15190   */\n    tag_132:\n        /* \"#utility.yul\":14820:14827   */\n      0x00\n        /* \"#utility.yul\":14843:14863   */\n      tag_695\n        /* \"#utility.yul\":14861:14862   */\n      dup3\n        /* \"#utility.yul\":14843:14863   */\n      tag_462\n      jump\t// in\n    tag_695:\n        /* \"#utility.yul\":14838:14863   */\n      swap2\n      pop\n        /* \"#utility.yul\":14877:14897   */\n      tag_696\n        /* \"#utility.yul\":14895:14896   */\n      dup4\n        /* \"#utility.yul\":14877:14897   */\n      tag_462\n      jump\t// in\n    tag_696:\n        /* \"#utility.yul\":14872:14897   */\n      swap3\n      pop\n        /* \"#utility.yul\":14932:14933   */\n      dup3\n        /* \"#utility.yul\":14929:14930   */\n      dup3\n        /* \"#utility.yul\":14925:14934   */\n      mul\n        /* \"#utility.yul\":14954:14984   */\n      tag_697\n        /* \"#utility.yul\":14972:14983   */\n      dup2\n        /* \"#utility.yul\":14954:14984   */\n      tag_462\n      jump\t// in\n    tag_697:\n        /* \"#utility.yul\":14943:14984   */\n      swap2\n      pop\n        /* \"#utility.yul\":15133:15134   */\n      dup3\n        /* \"#utility.yul\":15124:15131   */\n      dup3\n        /* \"#utility.yul\":15120:15135   */\n      div\n        /* \"#utility.yul\":15117:15118   */\n      dup5\n        /* \"#utility.yul\":15114:15136   */\n      eq\n        /* \"#utility.yul\":15094:15095   */\n      dup4\n        /* \"#utility.yul\":15087:15096   */\n      iszero\n        /* \"#utility.yul\":15067:15150   */\n      or\n        /* \"#utility.yul\":15044:15183   */\n      tag_698\n      jumpi\n        /* \"#utility.yul\":15163:15181   */\n      tag_699\n      tag_512\n      jump\t// in\n    tag_699:\n        /* \"#utility.yul\":15044:15183   */\n    tag_698:\n        /* \"#utility.yul\":14828:15190   */\n      pop\n        /* \"#utility.yul\":14780:15190   */\n      swap3\n      swap2\n      pop\n      pop\n      jump\t// out\n        /* \"#utility.yul\":15196:15520   */\n    tag_143:\n        /* \"#utility.yul\":15313:15317   */\n      0x00\n        /* \"#utility.yul\":15351:15353   */\n      0x40\n        /* \"#utility.yul\":15340:15349   */\n      dup3\n        /* \"#utility.yul\":15336:15354   */\n      add\n        /* \"#utility.yul\":15328:15354   */\n      swap1\n      pop\n        /* \"#utility.yul\":15364:15435   */\n      tag_701\n        /* \"#utility.yul\":15432:15433   */\n      0x00\n        /* \"#utility.yul\":15421:15430   */\n      dup4\n        /* \"#utility.yul\":15417:15434   */\n      add\n        /* \"#utility.yul\":15408:15414   */\n      dup6\n        /* \"#utility.yul\":15364:15435   */\n      tag_485\n      jump\t// in\n    tag_701:\n        /* \"#utility.yul\":15445:15513   */\n      tag_702\n        /* \"#utility.yul\":15509:15511   */\n      0x20\n        /* \"#utility.yul\":15498:15507   */\n      dup4\n        /* \"#utility.yul\":15494:15512   */\n      add\n        /* \"#utility.yul\":15485:15491   */\n      dup5\n        /* \"#utility.yul\":15445:15513   */\n      tag_484\n      jump\t// in\n    tag_702:\n        /* \"#utility.yul\":15196:15520   */\n      swap4\n      swap3\n      pop\n      pop\n      pop\n      jump\t// out\n        /* \"#utility.yul\":15526:15689   */\n    tag_513:\n        /* \"#utility.yul\":15666:15681   */\n      0x4e6f7420796f7572207475726e00000000000000000000000000000000000000\n        /* \"#utility.yul\":15662:15663   */\n      0x00\n        /* \"#utility.yul\":15654:15660   */\n      dup3\n        /* \"#utility.yul\":15650:15664   */\n      add\n        /* \"#utility.yul\":15643:15682   */\n      mstore\n        /* \"#utility.yul\":15526:15689   */\n      pop\n      jump\t// out\n        /* \"#utility.yul\":15695:16061   */\n    tag_514:\n        /* \"#utility.yul\":15837:15840   */\n      0x00\n        /* \"#utility.yul\":15858:15925   */\n      tag_705\n        /* \"#utility.yul\":15922:15924   */\n      0x0d\n        /* \"#utility.yul\":15917:15920   */\n      dup4\n        /* \"#utility.yul\":15858:15925   */\n      tag_465\n      jump\t// in\n    tag_705:\n        /* \"#utility.yul\":15851:15925   */\n      swap2\n      pop\n        /* \"#utility.yul\":15934:16027   */\n      tag_706\n        /* \"#utility.yul\":16023:16026   */\n      dup3\n        /* \"#utility.yul\":15934:16027   */\n      tag_513\n      jump\t// in\n    tag_706:\n        /* \"#utility.yul\":16052:16054   */\n      0x20\n        /* \"#utility.yul\":16047:16050   */\n      dup3\n        /* \"#utility.yul\":16043:16055   */\n      add\n        /* \"#utility.yul\":16036:16055   */\n      swap1\n      pop\n        /* \"#utility.yul\":15695:16061   */\n      swap2\n      swap1\n      pop\n      jump\t// out\n        /* \"#utility.yul\":16067:16486   */\n    tag_174:\n        /* \"#utility.yul\":16233:16237   */\n      0x00\n        /* \"#utility.yul\":16271:16273   */\n      0x20\n        /* \"#utility.yul\":16260:16269   */\n      dup3\n        /* \"#utility.yul\":16256:16274   */\n      add\n        /* \"#utility.yul\":16248:16274   */\n      swap1\n      pop\n        /* \"#utility.yul\":16320:16329   */\n      dup2\n        /* \"#utility.yul\":16314:16318   */\n      dup2\n        /* \"#utility.yul\":16310:16330   */\n      sub\n        /* \"#utility.yul\":16306:16307   */\n      0x00\n        /* \"#utility.yul\":16295:16304   */\n      dup4\n        /* \"#utility.yul\":16291:16308   */\n      add\n        /* \"#utility.yul\":16284:16331   */\n      mstore\n        /* \"#utility.yul\":16348:16479   */\n      tag_708\n        /* \"#utility.yul\":16474:16478   */\n      dup2\n        /* \"#utility.yul\":16348:16479   */\n      tag_514\n      jump\t// in\n    tag_708:\n        /* \"#utility.yul\":16340:16479   */\n      swap1\n      pop\n        /* \"#utility.yul\":16067:16486   */\n      swap2\n      swap1\n      pop\n      jump\t// out\n        /* \"#utility.yul\":16492:16683   */\n    tag_182:\n        /* \"#utility.yul\":16532:16535   */\n      0x00\n        /* \"#utility.yul\":16551:16571   */\n      tag_710\n        /* \"#utility.yul\":16569:16570   */\n      dup3\n        /* \"#utility.yul\":16551:16571   */\n      tag_462\n      jump\t// in\n    tag_710:\n        /* \"#utility.yul\":16546:16571   */\n      swap2\n      pop\n        /* \"#utility.yul\":16585:16605   */\n      tag_711\n        /* \"#utility.yul\":16603:16604   */\n      dup4\n        /* \"#utility.yul\":16585:16605   */\n      tag_462\n      jump\t// in\n    tag_711:\n        /* \"#utility.yul\":16580:16605   */\n      swap3\n      pop\n        /* \"#utility.yul\":16628:16629   */\n      dup3\n        /* \"#utility.yul\":16625:16626   */\n      dup3\n        /* \"#utility.yul\":16621:16630   */\n      add\n        /* \"#utility.yul\":16614:16630   */\n      swap1\n      pop\n        /* \"#utility.yul\":16649:16652   */\n      dup1\n        /* \"#utility.yul\":16646:16647   */\n      dup3\n        /* \"#utility.yul\":16643:16653   */\n      gt\n        /* \"#utility.yul\":16640:16676   */\n      iszero\n      tag_712\n      jumpi\n        /* \"#utility.yul\":16656:16674   */\n      tag_713\n      tag_512\n      jump\t// in\n    tag_713:\n        /* \"#utility.yul\":16640:16676   */\n    tag_712:\n        /* \"#utility.yul\":16492:16683   */\n      swap3\n      swap2\n      pop\n      pop\n      jump\t// out\n        /* \"#utility.yul\":16689:16837   */\n    tag_515:\n        /* \"#utility.yul\":16791:16802   */\n      0x00\n        /* \"#utility.yul\":16828:16831   */\n      dup2\n        /* \"#utility.yul\":16813:16831   */\n      swap1\n      pop\n        /* \"#utility.yul\":16689:16837   */\n      swap3\n      swap2\n      pop\n      pop\n      jump\t// out\n        /* \"#utility.yul\":16843:17000   */\n    tag_516:\n        /* \"#utility.yul\":16983:16992   */\n      0x506c617965722000000000000000000000000000000000000000000000000000\n        /* \"#utility.yul\":16979:16980   */\n      0x00\n        /* \"#utility.yul\":16971:16977   */\n      dup3\n        /* \"#utility.yul\":16967:16981   */\n      add\n        /* \"#utility.yul\":16960:16993   */\n      mstore\n        /* \"#utility.yul\":16843:17000   */\n      pop\n      jump\t// out\n        /* \"#utility.yul\":17006:17406   */\n    tag_517:\n        /* \"#utility.yul\":17166:17169   */\n      0x00\n        /* \"#utility.yul\":17187:17271   */\n      tag_717\n        /* \"#utility.yul\":17269:17270   */\n      0x07\n        /* \"#utility.yul\":17264:17267   */\n      dup4\n        /* \"#utility.yul\":17187:17271   */\n      tag_515\n      jump\t// in\n    tag_717:\n        /* \"#utility.yul\":17180:17271   */\n      swap2\n      pop\n        /* \"#utility.yul\":17280:17373   */\n      tag_718\n        /* \"#utility.yul\":17369:17372   */\n      dup3\n        /* \"#utility.yul\":17280:17373   */\n      tag_516\n      jump\t// in\n    tag_718:\n        /* \"#utility.yul\":17398:17399   */\n      0x07\n        /* \"#utility.yul\":17393:17396   */\n      dup3\n        /* \"#utility.yul\":17389:17400   */\n      add\n        /* \"#utility.yul\":17382:17400   */\n      swap1\n      pop\n        /* \"#utility.yul\":17006:17406   */\n      swap2\n      swap1\n      pop\n      jump\t// out\n        /* \"#utility.yul\":17412:17802   */\n    tag_518:\n        /* \"#utility.yul\":17518:17521   */\n      0x00\n        /* \"#utility.yul\":17546:17585   */\n      tag_720\n        /* \"#utility.yul\":17579:17584   */\n      dup3\n        /* \"#utility.yul\":17546:17585   */\n      tag_464\n      jump\t// in\n    tag_720:\n        /* \"#utility.yul\":17601:17690   */\n      tag_721\n        /* \"#utility.yul\":17683:17689   */\n      dup2\n        /* \"#utility.yul\":17678:17681   */\n      dup6\n        /* \"#utility.yul\":17601:17690   */\n      tag_515\n      jump\t// in\n    tag_721:\n        /* \"#utility.yul\":17594:17690   */\n      swap4\n      pop\n        /* \"#utility.yul\":17699:17764   */\n      tag_722\n        /* \"#utility.yul\":17757:17763   */\n      dup2\n        /* \"#utility.yul\":17752:17755   */\n      dup6\n        /* \"#utility.yul\":17745:17749   */\n      0x20\n        /* \"#utility.yul\":17738:17743   */\n      dup7\n        /* \"#utility.yul\":17734:17750   */\n      add\n        /* \"#utility.yul\":17699:17764   */\n      tag_466\n      jump\t// in\n    tag_722:\n        /* \"#utility.yul\":17789:17795   */\n      dup1\n        /* \"#utility.yul\":17784:17787   */\n      dup5\n        /* \"#utility.yul\":17780:17796   */\n      add\n        /* \"#utility.yul\":17773:17796   */\n      swap2\n      pop\n        /* \"#utility.yul\":17522:17802   */\n      pop\n        /* \"#utility.yul\":17412:17802   */\n      swap3\n      swap2\n      pop\n      pop\n      jump\t// out\n        /* \"#utility.yul\":17808:17960   */\n    tag_519:\n        /* \"#utility.yul\":17948:17952   */\n      0x3a20000000000000000000000000000000000000000000000000000000000000\n        /* \"#utility.yul\":17944:17945   */\n      0x00\n        /* \"#utility.yul\":17936:17942   */\n      dup3\n        /* \"#utility.yul\":17932:17946   */\n      add\n        /* \"#utility.yul\":17925:17953   */\n      mstore\n        /* \"#utility.yul\":17808:17960   */\n      pop\n      jump\t// out\n        /* \"#utility.yul\":17966:18366   */\n    tag_520:\n        /* \"#utility.yul\":18126:18129   */\n      0x00\n        /* \"#utility.yul\":18147:18231   */\n      tag_725\n        /* \"#utility.yul\":18229:18230   */\n      0x02\n        /* \"#utility.yul\":18224:18227   */\n      dup4\n        /* \"#utility.yul\":18147:18231   */\n      tag_515\n      jump\t// in\n    tag_725:\n        /* \"#utility.yul\":18140:18231   */\n      swap2\n      pop\n        /* \"#utility.yul\":18240:18333   */\n      tag_726\n        /* \"#utility.yul\":18329:18332   */\n      dup3\n        /* \"#utility.yul\":18240:18333   */\n      tag_519\n      jump\t// in\n    tag_726:\n        /* \"#utility.yul\":18358:18359   */\n      0x02\n        /* \"#utility.yul\":18353:18356   */\n      dup3\n        /* \"#utility.yul\":18349:18360   */\n      add\n        /* \"#utility.yul\":18342:18360   */\n      swap1\n      pop\n        /* \"#utility.yul\":17966:18366   */\n      swap2\n      swap1\n      pop\n      jump\t// out\n        /* \"#utility.yul\":18372:19179   */\n    tag_206:\n        /* \"#utility.yul\":18706:18709   */\n      0x00\n        /* \"#utility.yul\":18728:18876   */\n      tag_728\n        /* \"#utility.yul\":18872:18875   */\n      dup3\n        /* \"#utility.yul\":18728:18876   */\n      tag_517\n      jump\t// in\n    tag_728:\n        /* \"#utility.yul\":18721:18876   */\n      swap2\n      pop\n        /* \"#utility.yul\":18893:18988   */\n      tag_729\n        /* \"#utility.yul\":18984:18987   */\n      dup3\n        /* \"#utility.yul\":18975:18981   */\n      dup5\n        /* \"#utility.yul\":18893:18988   */\n      tag_518\n      jump\t// in\n    tag_729:\n        /* \"#utility.yul\":18886:18988   */\n      swap2\n      pop\n        /* \"#utility.yul\":19005:19153   */\n      tag_730\n        /* \"#utility.yul\":19149:19152   */\n      dup3\n        /* \"#utility.yul\":19005:19153   */\n      tag_520\n      jump\t// in\n    tag_730:\n        /* \"#utility.yul\":18998:19153   */\n      swap2\n      pop\n        /* \"#utility.yul\":19170:19173   */\n      dup2\n        /* \"#utility.yul\":19163:19173   */\n      swap1\n      pop\n        /* \"#utility.yul\":18372:19179   */\n      swap3\n      swap2\n      pop\n      pop\n      jump\t// out\n        /* \"#utility.yul\":19185:19357   */\n    tag_521:\n        /* \"#utility.yul\":19325:19349   */\n      0x4e6f20706c617965727320696e207468652067616d6500000000000000000000\n        /* \"#utility.yul\":19321:19322   */\n      0x00\n        /* \"#utility.yul\":19313:19319   */\n      dup3\n        /* \"#utility.yul\":19309:19323   */\n      add\n        /* \"#utility.yul\":19302:19350   */\n      mstore\n        /* \"#utility.yul\":19185:19357   */\n      pop\n      jump\t// out\n        /* \"#utility.yul\":19363:19729   */\n    tag_522:\n        /* \"#utility.yul\":19505:19508   */\n      0x00\n        /* \"#utility.yul\":19526:19593   */\n      tag_733\n        /* \"#utility.yul\":19590:19592   */\n      0x16\n        /* \"#utility.yul\":19585:19588   */\n      dup4\n        /* \"#utility.yul\":19526:19593   */\n      tag_465\n      jump\t// in\n    tag_733:\n        /* \"#utility.yul\":19519:19593   */\n      swap2\n      pop\n        /* \"#utility.yul\":19602:19695   */\n      tag_734\n        /* \"#utility.yul\":19691:19694   */\n      dup3\n        /* \"#utility.yul\":19602:19695   */\n      tag_521\n      jump\t// in\n    tag_734:\n        /* \"#utility.yul\":19720:19722   */\n      0x20\n        /* \"#utility.yul\":19715:19718   */\n      dup3\n        /* \"#utility.yul\":19711:19723   */\n      add\n        /* \"#utility.yul\":19704:19723   */\n      swap1\n      pop\n        /* \"#utility.yul\":19363:19729   */\n      swap2\n      swap1\n      pop\n      jump\t// out\n        /* \"#utility.yul\":19735:20154   */\n    tag_213:\n        /* \"#utility.yul\":19901:19905   */\n      0x00\n        /* \"#utility.yul\":19939:19941   */\n      0x20\n        /* \"#utility.yul\":19928:19937   */\n      dup3\n        /* \"#utility.yul\":19924:19942   */\n      add\n        /* \"#utility.yul\":19916:19942   */\n      swap1\n      pop\n        /* \"#utility.yul\":19988:19997   */\n      dup2\n        /* \"#utility.yul\":19982:19986   */\n      dup2\n        /* \"#utility.yul\":19978:19998   */\n      sub\n        /* \"#utility.yul\":19974:19975   */\n      0x00\n        /* \"#utility.yul\":19963:19972   */\n      dup4\n        /* \"#utility.yul\":19959:19976   */\n      add\n        /* \"#utility.yul\":19952:19999   */\n      mstore\n        /* \"#utility.yul\":20016:20147   */\n      tag_736\n        /* \"#utility.yul\":20142:20146   */\n      dup2\n        /* \"#utility.yul\":20016:20147   */\n      tag_522\n      jump\t// in\n    tag_736:\n        /* \"#utility.yul\":20008:20147   */\n      swap1\n      pop\n        /* \"#utility.yul\":19735:20154   */\n      swap2\n      swap1\n      pop\n      jump\t// out\n        /* \"#utility.yul\":20160:20330   */\n    tag_523:\n        /* \"#utility.yul\":20300:20322   */\n      0x506c61796572206973206e6f7420616374697665000000000000000000000000\n        /* \"#utility.yul\":20296:20297   */\n      0x00\n        /* \"#utility.yul\":20288:20294   */\n      dup3\n        /* \"#utility.yul\":20284:20298   */\n      add\n        /* \"#utility.yul\":20277:20323   */\n      mstore\n        /* \"#utility.yul\":20160:20330   */\n      pop\n      jump\t// out\n        /* \"#utility.yul\":20336:20702   */\n    tag_524:\n        /* \"#utility.yul\":20478:20481   */\n      0x00\n        /* \"#utility.yul\":20499:20566   */\n      tag_739\n        /* \"#utility.yul\":20563:20565   */\n      0x14\n        /* \"#utility.yul\":20558:20561   */\n      dup4\n        /* \"#utility.yul\":20499:20566   */\n      tag_465\n      jump\t// in\n    tag_739:\n        /* \"#utility.yul\":20492:20566   */\n      swap2\n      pop\n        /* \"#utility.yul\":20575:20668   */\n      tag_740\n        /* \"#utility.yul\":20664:20667   */\n      dup3\n        /* \"#utility.yul\":20575:20668   */\n      tag_523\n      jump\t// in\n    tag_740:\n        /* \"#utility.yul\":20693:20695   */\n      0x20\n        /* \"#utility.yul\":20688:20691   */\n      dup3\n        /* \"#utility.yul\":20684:20696   */\n      add\n        /* \"#utility.yul\":20677:20696   */\n      swap1\n      pop\n        /* \"#utility.yul\":20336:20702   */\n      swap2\n      swap1\n      pop\n      jump\t// out\n        /* \"#utility.yul\":20708:21127   */\n    tag_249:\n        /* \"#utility.yul\":20874:20878   */\n      0x00\n        /* \"#utility.yul\":20912:20914   */\n      0x20\n        /* \"#utility.yul\":20901:20910   */\n      dup3\n        /* \"#utility.yul\":20897:20915   */\n      add\n        /* \"#utility.yul\":20889:20915   */\n      swap1\n      pop\n        /* \"#utility.yul\":20961:20970   */\n      dup2\n        /* \"#utility.yul\":20955:20959   */\n      dup2\n        /* \"#utility.yul\":20951:20971   */\n      sub\n        /* \"#utility.yul\":20947:20948   */\n      0x00\n        /* \"#utility.yul\":20936:20945   */\n      dup4\n        /* \"#utility.yul\":20932:20949   */\n      add\n        /* \"#utility.yul\":20925:20972   */\n      mstore\n        /* \"#utility.yul\":20989:21120   */\n      tag_742\n        /* \"#utility.yul\":21115:21119   */\n      dup2\n        /* \"#utility.yul\":20989:21120   */\n      tag_524\n      jump\t// in\n    tag_742:\n        /* \"#utility.yul\":20981:21120   */\n      swap1\n      pop\n        /* \"#utility.yul\":20708:21127   */\n      swap2\n      swap1\n      pop\n      jump\t// out\n        /* \"#utility.yul\":21133:21307   */\n    tag_525:\n        /* \"#utility.yul\":21273:21299   */\n      0x506c6179657220697320616c7265616479206275737465640000000000000000\n        /* \"#utility.yul\":21269:21270   */\n      0x00\n        /* \"#utility.yul\":21261:21267   */\n      dup3\n        /* \"#utility.yul\":21257:21271   */\n      add\n        /* \"#utility.yul\":21250:21300   */\n      mstore\n        /* \"#utility.yul\":21133:21307   */\n      pop\n      jump\t// out\n        /* \"#utility.yul\":21313:21679   */\n    tag_526:\n        /* \"#utility.yul\":21455:21458   */\n      0x00\n        /* \"#utility.yul\":21476:21543   */\n      tag_745\n        /* \"#utility.yul\":21540:21542   */\n      0x18\n        /* \"#utility.yul\":21535:21538   */\n      dup4\n        /* \"#utility.yul\":21476:21543   */\n      tag_465\n      jump\t// in\n    tag_745:\n        /* \"#utility.yul\":21469:21543   */\n      swap2\n      pop\n        /* \"#utility.yul\":21552:21645   */\n      tag_746\n        /* \"#utility.yul\":21641:21644   */\n      dup3\n        /* \"#utility.yul\":21552:21645   */\n      tag_525\n      jump\t// in\n    tag_746:\n        /* \"#utility.yul\":21670:21672   */\n      0x20\n        /* \"#utility.yul\":21665:21668   */\n      dup3\n        /* \"#utility.yul\":21661:21673   */\n      add\n        /* \"#utility.yul\":21654:21673   */\n      swap1\n      pop\n        /* \"#utility.yul\":21313:21679   */\n      swap2\n      swap1\n      pop\n      jump\t// out\n        /* \"#utility.yul\":21685:22104   */\n    tag_255:\n        /* \"#utility.yul\":21851:21855   */\n      0x00\n        /* \"#utility.yul\":21889:21891   */\n      0x20\n        /* \"#utility.yul\":21878:21887   */\n      dup3\n        /* \"#utility.yul\":21874:21892   */\n      add\n        /* \"#utility.yul\":21866:21892   */\n      swap1\n      pop\n        /* \"#utility.yul\":21938:21947   */\n      dup2\n        /* \"#utility.yul\":21932:21936   */\n      dup2\n        /* \"#utility.yul\":21928:21948   */\n      sub\n        /* \"#utility.yul\":21924:21925   */\n      0x00\n        /* \"#utility.yul\":21913:21922   */\n      dup4\n        /* \"#utility.yul\":21909:21926   */\n      add\n        /* \"#utility.yul\":21902:21949   */\n      mstore\n        /* \"#utility.yul\":21966:22097   */\n      tag_748\n        /* \"#utility.yul\":22092:22096   */\n      dup2\n        /* \"#utility.yul\":21966:22097   */\n      tag_526\n      jump\t// in\n    tag_748:\n        /* \"#utility.yul\":21958:22097   */\n      swap1\n      pop\n        /* \"#utility.yul\":21685:22104   */\n      swap2\n      swap1\n      pop\n      jump\t// out\n        /* \"#utility.yul\":22110:22281   */\n    tag_527:\n        /* \"#utility.yul\":22250:22273   */\n      0x4d6178203420706c617965727320616c6c6f7765640000000000000000000000\n        /* \"#utility.yul\":22246:22247   */\n      0x00\n        /* \"#utility.yul\":22238:22244   */\n      dup3\n        /* \"#utility.yul\":22234:22248   */\n      add\n        /* \"#utility.yul\":22227:22274   */\n      mstore\n        /* \"#utility.yul\":22110:22281   */\n      pop\n      jump\t// out\n        /* \"#utility.yul\":22287:22653   */\n    tag_528:\n        /* \"#utility.yul\":22429:22432   */\n      0x00\n        /* \"#utility.yul\":22450:22517   */\n      tag_751\n        /* \"#utility.yul\":22514:22516   */\n      0x15\n        /* \"#utility.yul\":22509:22512   */\n      dup4\n        /* \"#utility.yul\":22450:22517   */\n      tag_465\n      jump\t// in\n    tag_751:\n        /* \"#utility.yul\":22443:22517   */\n      swap2\n      pop\n        /* \"#utility.yul\":22526:22619   */\n      tag_752\n        /* \"#utility.yul\":22615:22618   */\n      dup3\n        /* \"#utility.yul\":22526:22619   */\n      tag_527\n      jump\t// in\n    tag_752:\n        /* \"#utility.yul\":22644:22646   */\n      0x20\n        /* \"#utility.yul\":22639:22642   */\n      dup3\n        /* \"#utility.yul\":22635:22647   */\n      add\n        /* \"#utility.yul\":22628:22647   */\n      swap1\n      pop\n        /* \"#utility.yul\":22287:22653   */\n      swap2\n      swap1\n      pop\n      jump\t// out\n        /* \"#utility.yul\":22659:23078   */\n    tag_277:\n        /* \"#utility.yul\":22825:22829   */\n      0x00\n        /* \"#utility.yul\":22863:22865   */\n      0x20\n        /* \"#utility.yul\":22852:22861   */\n      dup3\n        /* \"#utility.yul\":22848:22866   */\n      add\n        /* \"#utility.yul\":22840:22866   */\n      swap1\n      pop\n        /* \"#utility.yul\":22912:22921   */\n      dup2\n        /* \"#utility.yul\":22906:22910   */\n      dup2\n        /* \"#utility.yul\":22902:22922   */\n      sub\n        /* \"#utility.yul\":22898:22899   */\n      0x00\n        /* \"#utility.yul\":22887:22896   */\n      dup4\n        /* \"#utility.yul\":22883:22900   */\n      add\n        /* \"#utility.yul\":22876:22923   */\n      mstore\n        /* \"#utility.yul\":22940:23071   */\n      tag_754\n        /* \"#utility.yul\":23066:23070   */\n      dup2\n        /* \"#utility.yul\":22940:23071   */\n      tag_528\n      jump\t// in\n    tag_754:\n        /* \"#utility.yul\":22932:23071   */\n      swap1\n      pop\n        /* \"#utility.yul\":22659:23078   */\n      swap2\n      swap1\n      pop\n      jump\t// out\n        /* \"#utility.yul\":23084:23253   */\n    tag_529:\n        /* \"#utility.yul\":23224:23245   */\n      0x42657420616d6f756e74206d69736d6174636800000000000000000000000000\n        /* \"#utility.yul\":23220:23221   */\n      0x00\n        /* \"#utility.yul\":23212:23218   */\n      dup3\n        /* \"#utility.yul\":23208:23222   */\n      add\n        /* \"#utility.yul\":23201:23246   */\n      mstore\n        /* \"#utility.yul\":23084:23253   */\n      pop\n      jump\t// out\n        /* \"#utility.yul\":23259:23625   */\n    tag_530:\n        /* \"#utility.yul\":23401:23404   */\n      0x00\n        /* \"#utility.yul\":23422:23489   */\n      tag_757\n        /* \"#utility.yul\":23486:23488   */\n      0x13\n        /* \"#utility.yul\":23481:23484   */\n      dup4\n        /* \"#utility.yul\":23422:23489   */\n      tag_465\n      jump\t// in\n    tag_757:\n        /* \"#utility.yul\":23415:23489   */\n      swap2\n      pop\n        /* \"#utility.yul\":23498:23591   */\n      tag_758\n        /* \"#utility.yul\":23587:23590   */\n      dup3\n        /* \"#utility.yul\":23498:23591   */\n      tag_529\n      jump\t// in\n    tag_758:\n        /* \"#utility.yul\":23616:23618   */\n      0x20\n        /* \"#utility.yul\":23611:23614   */\n      dup3\n        /* \"#utility.yul\":23607:23619   */\n      add\n        /* \"#utility.yul\":23600:23619   */\n      swap1\n      pop\n        /* \"#utility.yul\":23259:23625   */\n      swap2\n      swap1\n      pop\n      jump\t// out\n        /* \"#utility.yul\":23631:24050   */\n    tag_280:\n        /* \"#utility.yul\":23797:23801   */\n      0x00\n        /* \"#utility.yul\":23835:23837   */\n      0x20\n        /* \"#utility.yul\":23824:23833   */\n      dup3\n        /* \"#utility.yul\":23820:23838   */\n      add\n        /* \"#utility.yul\":23812:23838   */\n      swap1\n      pop\n        /* \"#utility.yul\":23884:23893   */\n      dup2\n        /* \"#utility.yul\":23878:23882   */\n      dup2\n        /* \"#utility.yul\":23874:23894   */\n      sub\n        /* \"#utility.yul\":23870:23871   */\n      0x00\n        /* \"#utility.yul\":23859:23868   */\n      dup4\n        /* \"#utility.yul\":23855:23872   */\n      add\n        /* \"#utility.yul\":23848:23895   */\n      mstore\n        /* \"#utility.yul\":23912:24043   */\n      tag_760\n        /* \"#utility.yul\":24038:24042   */\n      dup2\n        /* \"#utility.yul\":23912:24043   */\n      tag_530\n      jump\t// in\n    tag_760:\n        /* \"#utility.yul\":23904:24043   */\n      swap1\n      pop\n        /* \"#utility.yul\":23631:24050   */\n      swap2\n      swap1\n      pop\n      jump\t// out\n        /* \"#utility.yul\":24056:24289   */\n    tag_288:\n        /* \"#utility.yul\":24095:24098   */\n      0x00\n        /* \"#utility.yul\":24118:24142   */\n      tag_762\n        /* \"#utility.yul\":24136:24141   */\n      dup3\n        /* \"#utility.yul\":24118:24142   */\n      tag_462\n      jump\t// in\n    tag_762:\n        /* \"#utility.yul\":24109:24142   */\n      swap2\n      pop\n        /* \"#utility.yul\":24164:24230   */\n      0xffffffffffffffffffffffffffffffffffffffffffffffffffffffffffffffff\n        /* \"#utility.yul\":24157:24162   */\n      dup3\n        /* \"#utility.yul\":24154:24231   */\n      sub\n        /* \"#utility.yul\":24151:24254   */\n      tag_763\n      jumpi\n        /* \"#utility.yul\":24234:24252   */\n      tag_764\n      tag_512\n      jump\t// in\n    tag_764:\n        /* \"#utility.yul\":24151:24254   */\n    tag_763:\n        /* \"#utility.yul\":24281:24282   */\n      0x01\n        /* \"#utility.yul\":24274:24279   */\n      dup3\n        /* \"#utility.yul\":24270:24283   */\n      add\n        /* \"#utility.yul\":24263:24283   */\n      swap1\n      pop\n        /* \"#utility.yul\":24056:24289   */\n      swap2\n      swap1\n      pop\n      jump\t// out\n        /* \"#utility.yul\":24295:24475   */\n    tag_531:\n        /* \"#utility.yul\":24343:24420   */\n      0x4e487b7100000000000000000000000000000000000000000000000000000000\n        /* \"#utility.yul\":24340:24341   */\n      0x00\n        /* \"#utility.yul\":24333:24421   */\n      mstore\n        /* \"#utility.yul\":24440:24444   */\n      0x12\n        /* \"#utility.yul\":24437:24438   */\n      0x04\n        /* \"#utility.yul\":24430:24445   */\n      mstore\n        /* \"#utility.yul\":24464:24468   */\n      0x24\n        /* \"#utility.yul\":24461:24462   */\n      0x00\n        /* \"#utility.yul\":24454:24469   */\n      revert\n        /* \"#utility.yul\":24481:24651   */\n    tag_298:\n        /* \"#utility.yul\":24511:24512   */\n      0x00\n        /* \"#utility.yul\":24528:24546   */\n      tag_767\n        /* \"#utility.yul\":24544:24545   */\n      dup3\n        /* \"#utility.yul\":24528:24546   */\n      tag_483\n      jump\t// in\n    tag_767:\n        /* \"#utility.yul\":24523:24546   */\n      swap2\n      pop\n        /* \"#utility.yul\":24560:24578   */\n      tag_768\n        /* \"#utility.yul\":24576:24577   */\n      dup4\n        /* \"#utility.yul\":24560:24578   */\n      tag_483\n      jump\t// in\n    tag_768:\n        /* \"#utility.yul\":24555:24578   */\n      swap3\n      pop\n        /* \"#utility.yul\":24597:24598   */\n      dup3\n        /* \"#utility.yul\":24587:24622   */\n      tag_769\n      jumpi\n        /* \"#utility.yul\":24602:24620   */\n      tag_770\n      tag_531\n      jump\t// in\n    tag_770:\n        /* \"#utility.yul\":24587:24622   */\n    tag_769:\n        /* \"#utility.yul\":24643:24644   */\n      dup3\n        /* \"#utility.yul\":24640:24641   */\n      dup3\n        /* \"#utility.yul\":24636:24645   */\n      mod\n        /* \"#utility.yul\":24631:24645   */\n      swap1\n      pop\n        /* \"#utility.yul\":24481:24651   */\n      swap3\n      swap2\n      pop\n      pop\n      jump\t// out\n        /* \"#utility.yul\":24657:24824   */\n    tag_303:\n        /* \"#utility.yul\":24694:24697   */\n      0x00\n        /* \"#utility.yul\":24717:24739   */\n      tag_772\n        /* \"#utility.yul\":24733:24738   */\n      dup3\n        /* \"#utility.yul\":24717:24739   */\n      tag_483\n      jump\t// in\n    tag_772:\n        /* \"#utility.yul\":24708:24739   */\n      swap2\n      pop\n        /* \"#utility.yul\":24761:24765   */\n      0xff\n        /* \"#utility.yul\":24754:24759   */\n      dup3\n        /* \"#utility.yul\":24751:24766   */\n      sub\n        /* \"#utility.yul\":24748:24789   */\n      tag_773\n      jumpi\n        /* \"#utility.yul\":24769:24787   */\n      tag_774\n      tag_512\n      jump\t// in\n    tag_774:\n        /* \"#utility.yul\":24748:24789   */\n    tag_773:\n        /* \"#utility.yul\":24816:24817   */\n      0x01\n        /* \"#utility.yul\":24809:24814   */\n      dup3\n        /* \"#utility.yul\":24805:24818   */\n      add\n        /* \"#utility.yul\":24798:24818   */\n      swap1\n      pop\n        /* \"#utility.yul\":24657:24824   */\n      swap2\n      swap1\n      pop\n      jump\t// out\n        /* \"#utility.yul\":24830:25018   */\n    tag_305:\n        /* \"#utility.yul\":24868:24871   */\n      0x00\n        /* \"#utility.yul\":24887:24905   */\n      tag_776\n        /* \"#utility.yul\":24903:24904   */\n      dup3\n        /* \"#utility.yul\":24887:24905   */\n      tag_483\n      jump\t// in\n    tag_776:\n        /* \"#utility.yul\":24882:24905   */\n      swap2\n      pop\n        /* \"#utility.yul\":24919:24937   */\n      tag_777\n        /* \"#utility.yul\":24935:24936   */\n      dup4\n        /* \"#utility.yul\":24919:24937   */\n      tag_483\n      jump\t// in\n    tag_777:\n        /* \"#utility.yul\":24914:24937   */\n      swap3\n      pop\n        /* \"#utility.yul\":24960:24961   */\n      dup3\n        /* \"#utility.yul\":24957:24958   */\n      dup3\n        /* \"#utility.yul\":24953:24962   */\n      add\n        /* \"#utility.yul\":24946:24962   */\n      swap1\n      pop\n        /* \"#utility.yul\":24983:24987   */\n      0xff\n        /* \"#utility.yul\":24978:24981   */\n      dup2\n        /* \"#utility.yul\":24975:24988   */\n      gt\n        /* \"#utility.yul\":24972:25011   */\n      iszero\n      tag_778\n      jumpi\n        /* \"#utility.yul\":24991:25009   */\n      tag_779\n      tag_512\n      jump\t// in\n    tag_779:\n        /* \"#utility.yul\":24972:25011   */\n    tag_778:\n        /* \"#utility.yul\":24830:25018   */\n      swap3\n      swap2\n      pop\n      pop\n      jump\t// out\n        /* \"#utility.yul\":25024:25191   */\n    tag_311:\n        /* \"#utility.yul\":25061:25064   */\n      0x00\n        /* \"#utility.yul\":25084:25106   */\n      tag_781\n        /* \"#utility.yul\":25100:25105   */\n      dup3\n        /* \"#utility.yul\":25084:25106   */\n      tag_483\n      jump\t// in\n    tag_781:\n        /* \"#utility.yul\":25075:25106   */\n      swap2\n      pop\n        /* \"#utility.yul\":25128:25132   */\n      0x00\n        /* \"#utility.yul\":25121:25126   */\n      dup3\n        /* \"#utility.yul\":25118:25133   */\n      sub\n        /* \"#utility.yul\":25115:25156   */\n      tag_782\n      jumpi\n        /* \"#utility.yul\":25136:25154   */\n      tag_783\n      tag_512\n      jump\t// in\n    tag_783:\n        /* \"#utility.yul\":25115:25156   */\n    tag_782:\n        /* \"#utility.yul\":25183:25184   */\n      0x01\n        /* \"#utility.yul\":25176:25181   */\n      dup3\n        /* \"#utility.yul\":25172:25185   */\n      sub\n        /* \"#utility.yul\":25165:25185   */\n      swap1\n      pop\n        /* \"#utility.yul\":25024:25191   */\n      swap2\n      swap1\n      pop\n      jump\t// out\n        /* \"#utility.yul\":25197:25372   */\n    tag_532:\n        /* \"#utility.yul\":25337:25364   */\n      0x4e6f206361726473206c65667420696e20746865206465636b00000000000000\n        /* \"#utility.yul\":25333:25334   */\n      0x00\n        /* \"#utility.yul\":25325:25331   */\n      dup3\n        /* \"#utility.yul\":25321:25335   */\n      add\n        /* \"#utility.yul\":25314:25365   */\n      mstore\n        /* \"#utility.yul\":25197:25372   */\n      pop\n      jump\t// out\n        /* \"#utility.yul\":25378:25744   */\n    tag_533:\n        /* \"#utility.yul\":25520:25523   */\n      0x00\n        /* \"#utility.yul\":25541:25608   */\n      tag_786\n        /* \"#utility.yul\":25605:25607   */\n      0x19\n        /* \"#utility.yul\":25600:25603   */\n      dup4\n        /* \"#utility.yul\":25541:25608   */\n      tag_465\n      jump\t// in\n    tag_786:\n        /* \"#utility.yul\":25534:25608   */\n      swap2\n      pop\n        /* \"#utility.yul\":25617:25710   */\n      tag_787\n        /* \"#utility.yul\":25706:25709   */\n      dup3\n        /* \"#utility.yul\":25617:25710   */\n      tag_532\n      jump\t// in\n    tag_787:\n        /* \"#utility.yul\":25735:25737   */\n      0x20\n        /* \"#utility.yul\":25730:25733   */\n      dup3\n        /* \"#utility.yul\":25726:25738   */\n      add\n        /* \"#utility.yul\":25719:25738   */\n      swap1\n      pop\n        /* \"#utility.yul\":25378:25744   */\n      swap2\n      swap1\n      pop\n      jump\t// out\n        /* \"#utility.yul\":25750:26169   */\n    tag_315:\n        /* \"#utility.yul\":25916:25920   */\n      0x00\n        /* \"#utility.yul\":25954:25956   */\n      0x20\n        /* \"#utility.yul\":25943:25952   */\n      dup3\n        /* \"#utility.yul\":25939:25957   */\n      add\n        /* \"#utility.yul\":25931:25957   */\n      swap1\n      pop\n        /* \"#utility.yul\":26003:26012   */\n      dup2\n        /* \"#utility.yul\":25997:26001   */\n      dup2\n        /* \"#utility.yul\":25993:26013   */\n      sub\n        /* \"#utility.yul\":25989:25990   */\n      0x00\n        /* \"#utility.yul\":25978:25987   */\n      dup4\n        /* \"#utility.yul\":25974:25991   */\n      add\n        /* \"#utility.yul\":25967:26014   */\n      mstore\n        /* \"#utility.yul\":26031:26162   */\n      tag_789\n        /* \"#utility.yul\":26157:26161   */\n      dup2\n        /* \"#utility.yul\":26031:26162   */\n      tag_533\n      jump\t// in\n    tag_789:\n        /* \"#utility.yul\":26023:26162   */\n      swap1\n      pop\n        /* \"#utility.yul\":25750:26169   */\n      swap2\n      swap1\n      pop\n      jump\t// out\n        /* \"#utility.yul\":26175:26369   */\n    tag_317:\n        /* \"#utility.yul\":26215:26219   */\n      0x00\n        /* \"#utility.yul\":26235:26255   */\n      tag_791\n        /* \"#utility.yul\":26253:26254   */\n      dup3\n        /* \"#utility.yul\":26235:26255   */\n      tag_462\n      jump\t// in\n    tag_791:\n        /* \"#utility.yul\":26230:26255   */\n      swap2\n      pop\n        /* \"#utility.yul\":26269:26289   */\n      tag_792\n        /* \"#utility.yul\":26287:26288   */\n      dup4\n        /* \"#utility.yul\":26269:26289   */\n      tag_462\n      jump\t// in\n    tag_792:\n        /* \"#utility.yul\":26264:26289   */\n      swap3\n      pop\n        /* \"#utility.yul\":26313:26314   */\n      dup3\n        /* \"#utility.yul\":26310:26311   */\n      dup3\n        /* \"#utility.yul\":26306:26315   */\n      sub\n        /* \"#utility.yul\":26298:26315   */\n      swap1\n      pop\n        /* \"#utility.yul\":26337:26338   */\n      dup2\n        /* \"#utility.yul\":26331:26335   */\n      dup2\n        /* \"#utility.yul\":26328:26339   */\n      gt\n        /* \"#utility.yul\":26325:26362   */\n      iszero\n      tag_793\n      jumpi\n        /* \"#utility.yul\":26342:26360   */\n      tag_794\n      tag_512\n      jump\t// in\n    tag_794:\n        /* \"#utility.yul\":26325:26362   */\n    tag_793:\n        /* \"#utility.yul\":26175:26369   */\n      swap3\n      swap2\n      pop\n      pop\n      jump\t// out\n        /* \"#utility.yul\":26375:26555   */\n    tag_323:\n        /* \"#utility.yul\":26423:26500   */\n      0x4e487b7100000000000000000000000000000000000000000000000000000000\n        /* \"#utility.yul\":26420:26421   */\n      0x00\n        /* \"#utility.yul\":26413:26501   */\n      mstore\n        /* \"#utility.yul\":26520:26524   */\n      0x31\n        /* \"#utility.yul\":26517:26518   */\n      0x04\n        /* \"#utility.yul\":26510:26525   */\n      mstore\n        /* \"#utility.yul\":26544:26548   */\n      0x24\n        /* \"#utility.yul\":26541:26542   */\n      0x00\n        /* \"#utility.yul\":26534:26549   */\n      revert\n        /* \"#utility.yul\":26561:26996   */\n    tag_343:\n        /* \"#utility.yul\":26741:26744   */\n      0x00\n        /* \"#utility.yul\":26763:26858   */\n      tag_797\n        /* \"#utility.yul\":26854:26857   */\n      dup3\n        /* \"#utility.yul\":26845:26851   */\n      dup6\n        /* \"#utility.yul\":26763:26858   */\n      tag_518\n      jump\t// in\n    tag_797:\n        /* \"#utility.yul\":26756:26858   */\n      swap2\n      pop\n        /* \"#utility.yul\":26875:26970   */\n      tag_798\n        /* \"#utility.yul\":26966:26969   */\n      dup3\n        /* \"#utility.yul\":26957:26963   */\n      dup5\n        /* \"#utility.yul\":26875:26970   */\n      tag_518\n      jump\t// in\n    tag_798:\n        /* \"#utility.yul\":26868:26970   */\n      swap2\n      pop\n        /* \"#utility.yul\":26987:26990   */\n      dup2\n        /* \"#utility.yul\":26980:26990   */\n      swap1\n      pop\n        /* \"#utility.yul\":26561:26996   */\n      swap4\n      swap3\n      pop\n      pop\n      pop\n      jump\t// out\n        /* \"#utility.yul\":27002:27154   */\n    tag_534:\n        /* \"#utility.yul\":27142:27146   */\n      0x2c20000000000000000000000000000000000000000000000000000000000000\n        /* \"#utility.yul\":27138:27139   */\n      0x00\n        /* \"#utility.yul\":27130:27136   */\n      dup3\n        /* \"#utility.yul\":27126:27140   */\n      add\n        /* \"#utility.yul\":27119:27147   */\n      mstore\n        /* \"#utility.yul\":27002:27154   */\n      pop\n      jump\t// out\n        /* \"#utility.yul\":27160:27560   */\n    tag_535:\n        /* \"#utility.yul\":27320:27323   */\n      0x00\n        /* \"#utility.yul\":27341:27425   */\n      tag_801\n        /* \"#utility.yul\":27423:27424   */\n      0x02\n        /* \"#utility.yul\":27418:27421   */\n      dup4\n        /* \"#utility.yul\":27341:27425   */\n      tag_515\n      jump\t// in\n    tag_801:\n        /* \"#utility.yul\":27334:27425   */\n      swap2\n      pop\n        /* \"#utility.yul\":27434:27527   */\n      tag_802\n        /* \"#utility.yul\":27523:27526   */\n      dup3\n        /* \"#utility.yul\":27434:27527   */\n      tag_534\n      jump\t// in\n    tag_802:\n        /* \"#utility.yul\":27552:27553   */\n      0x02\n        /* \"#utility.yul\":27547:27550   */\n      dup3\n        /* \"#utility.yul\":27543:27554   */\n      add\n        /* \"#utility.yul\":27536:27554   */\n      swap1\n      pop\n        /* \"#utility.yul\":27160:27560   */\n      swap2\n      swap1\n      pop\n      jump\t// out\n        /* \"#utility.yul\":27566:28107   */\n    tag_347:\n        /* \"#utility.yul\":27799:27802   */\n      0x00\n        /* \"#utility.yul\":27821:27916   */\n      tag_804\n        /* \"#utility.yul\":27912:27915   */\n      dup3\n        /* \"#utility.yul\":27903:27909   */\n      dup5\n        /* \"#utility.yul\":27821:27916   */\n      tag_518\n      jump\t// in\n    tag_804:\n        /* \"#utility.yul\":27814:27916   */\n      swap2\n      pop\n        /* \"#utility.yul\":27933:28081   */\n      tag_805\n        /* \"#utility.yul\":28077:28080   */\n      dup3\n        /* \"#utility.yul\":27933:28081   */\n      tag_535\n      jump\t// in\n    tag_805:\n        /* \"#utility.yul\":27926:28081   */\n      swap2\n      pop\n        /* \"#utility.yul\":28098:28101   */\n      dup2\n        /* \"#utility.yul\":28091:28101   */\n      swap1\n      pop\n        /* \"#utility.yul\":27566:28107   */\n      swap3\n      swap2\n      pop\n      pop\n      jump\t// out\n        /* \"#utility.yul\":28113:28654   */\n    tag_371:\n        /* \"#utility.yul\":28346:28349   */\n      0x00\n        /* \"#utility.yul\":28368:28516   */\n      tag_807\n        /* \"#utility.yul\":28512:28515   */\n      dup3\n        /* \"#utility.yul\":28368:28516   */\n      tag_517\n      jump\t// in\n    tag_807:\n        /* \"#utility.yul\":28361:28516   */\n      swap2\n      pop\n        /* \"#utility.yul\":28533:28628   */\n      tag_808\n        /* \"#utility.yul\":28624:28627   */\n      dup3\n        /* \"#utility.yul\":28615:28621   */\n      dup5\n        /* \"#utility.yul\":28533:28628   */\n      tag_518\n      jump\t// in\n    tag_808:\n        /* \"#utility.yul\":28526:28628   */\n      swap2\n      pop\n        /* \"#utility.yul\":28645:28648   */\n      dup2\n        /* \"#utility.yul\":28638:28648   */\n      swap1\n      pop\n        /* \"#utility.yul\":28113:28654   */\n      swap3\n      swap2\n      pop\n      pop\n      jump\t// out\n        /* \"#utility.yul\":28660:29361   */\n    tag_375:\n        /* \"#utility.yul\":28941:28944   */\n      0x00\n        /* \"#utility.yul\":28963:29058   */\n      tag_810\n        /* \"#utility.yul\":29054:29057   */\n      dup3\n        /* \"#utility.yul\":29045:29051   */\n      dup6\n        /* \"#utility.yul\":28963:29058   */\n      tag_518\n      jump\t// in\n    tag_810:\n        /* \"#utility.yul\":28956:29058   */\n      swap2\n      pop\n        /* \"#utility.yul\":29075:29223   */\n      tag_811\n        /* \"#utility.yul\":29219:29222   */\n      dup3\n        /* \"#utility.yul\":29075:29223   */\n      tag_535\n      jump\t// in\n    tag_811:\n        /* \"#utility.yul\":29068:29223   */\n      swap2\n      pop\n        /* \"#utility.yul\":29240:29335   */\n      tag_812\n        /* \"#utility.yul\":29331:29334   */\n      dup3\n        /* \"#utility.yul\":29322:29328   */\n      dup5\n        /* \"#utility.yul\":29240:29335   */\n      tag_518\n      jump\t// in\n    tag_812:\n        /* \"#utility.yul\":29233:29335   */\n      swap2\n      pop\n        /* \"#utility.yul\":29352:29355   */\n      dup2\n        /* \"#utility.yul\":29345:29355   */\n      swap1\n      pop\n        /* \"#utility.yul\":28660:29361   */\n      swap4\n      swap3\n      pop\n      pop\n      pop\n      jump\t// out\n        /* \"#utility.yul\":29367:29552   */\n    tag_389:\n        /* \"#utility.yul\":29407:29408   */\n      0x00\n        /* \"#utility.yul\":29424:29444   */\n      tag_814\n        /* \"#utility.yul\":29442:29443   */\n      dup3\n        /* \"#utility.yul\":29424:29444   */\n      tag_462\n      jump\t// in\n    tag_814:\n        /* \"#utility.yul\":29419:29444   */\n      swap2\n      pop\n        /* \"#utility.yul\":29458:29478   */\n      tag_815\n        /* \"#utility.yul\":29476:29477   */\n      dup4\n        /* \"#utility.yul\":29458:29478   */\n      tag_462\n      jump\t// in\n    tag_815:\n        /* \"#utility.yul\":29453:29478   */\n      swap3\n      pop\n        /* \"#utility.yul\":29497:29498   */\n      dup3\n        /* \"#utility.yul\":29487:29522   */\n      tag_816\n      jumpi\n        /* \"#utility.yul\":29502:29520   */\n      tag_817\n      tag_531\n      jump\t// in\n    tag_817:\n        /* \"#utility.yul\":29487:29522   */\n    tag_816:\n        /* \"#utility.yul\":29544:29545   */\n      dup3\n        /* \"#utility.yul\":29541:29542   */\n      dup3\n        /* \"#utility.yul\":29537:29546   */\n      div\n        /* \"#utility.yul\":29532:29546   */\n      swap1\n      pop\n        /* \"#utility.yul\":29367:29552   */\n      swap3\n      swap2\n      pop\n      pop\n      jump\t// out\n        /* \"#utility.yul\":29558:29734   */\n    tag_396:\n        /* \"#utility.yul\":29590:29591   */\n      0x00\n        /* \"#utility.yul\":29607:29627   */\n      tag_819\n        /* \"#utility.yul\":29625:29626   */\n      dup3\n        /* \"#utility.yul\":29607:29627   */\n      tag_462\n      jump\t// in\n    tag_819:\n        /* \"#utility.yul\":29602:29627   */\n      swap2\n      pop\n        /* \"#utility.yul\":29641:29661   */\n      tag_820\n        /* \"#utility.yul\":29659:29660   */\n      dup4\n        /* \"#utility.yul\":29641:29661   */\n      tag_462\n      jump\t// in\n    tag_820:\n        /* \"#utility.yul\":29636:29661   */\n      swap3\n      pop\n        /* \"#utility.yul\":29680:29681   */\n      dup3\n        /* \"#utility.yul\":29670:29705   */\n      tag_821\n      jumpi\n        /* \"#utility.yul\":29685:29703   */\n      tag_822\n      tag_531\n      jump\t// in\n    tag_822:\n        /* \"#utility.yul\":29670:29705   */\n    tag_821:\n        /* \"#utility.yul\":29726:29727   */\n      dup3\n        /* \"#utility.yul\":29723:29724   */\n      dup3\n        /* \"#utility.yul\":29719:29728   */\n      mod\n        /* \"#utility.yul\":29714:29728   */\n      swap1\n      pop\n        /* \"#utility.yul\":29558:29734   */\n      swap3\n      swap2\n      pop\n      pop\n      jump\t// out\n        /* \"#utility.yul\":29740:29911   */\n    tag_399:\n        /* \"#utility.yul\":29779:29782   */\n      0x00\n        /* \"#utility.yul\":29802:29826   */\n      tag_824\n        /* \"#utility.yul\":29820:29825   */\n      dup3\n        /* \"#utility.yul\":29802:29826   */\n      tag_462\n      jump\t// in\n    tag_824:\n        /* \"#utility.yul\":29793:29826   */\n      swap2\n      pop\n        /* \"#utility.yul\":29848:29852   */\n      0x00\n        /* \"#utility.yul\":29841:29846   */\n      dup3\n        /* \"#utility.yul\":29838:29853   */\n      sub\n        /* \"#utility.yul\":29835:29876   */\n      tag_825\n      jumpi\n        /* \"#utility.yul\":29856:29874   */\n      tag_826\n      tag_512\n      jump\t// in\n    tag_826:\n        /* \"#utility.yul\":29835:29876   */\n    tag_825:\n        /* \"#utility.yul\":29903:29904   */\n      0x01\n        /* \"#utility.yul\":29896:29901   */\n      dup3\n        /* \"#utility.yul\":29892:29905   */\n      sub\n        /* \"#utility.yul\":29885:29905   */\n      swap1\n      pop\n        /* \"#utility.yul\":29740:29911   */\n      swap2\n      swap1\n      pop\n      jump\t// out\n        /* \"#utility.yul\":29917:29996   */\n    tag_536:\n        /* \"#utility.yul\":29956:29963   */\n      0x00\n        /* \"#utility.yul\":29985:29990   */\n      dup2\n        /* \"#utility.yul\":29974:29990   */\n      swap1\n      pop\n        /* \"#utility.yul\":29917:29996   */\n      swap2\n      swap1\n      pop\n      jump\t// out\n        /* \"#utility.yul\":30002:30159   */\n    tag_537:\n        /* \"#utility.yul\":30107:30152   */\n      tag_829\n        /* \"#utility.yul\":30127:30151   */\n      tag_830\n        /* \"#utility.yul\":30145:30150   */\n      dup3\n        /* \"#utility.yul\":30127:30151   */\n      tag_462\n      jump\t// in\n    tag_830:\n        /* \"#utility.yul\":30107:30152   */\n      tag_536\n      jump\t// in\n    tag_829:\n        /* \"#utility.yul\":30102:30105   */\n      dup3\n        /* \"#utility.yul\":30095:30153   */\n      mstore\n        /* \"#utility.yul\":30002:30159   */\n      pop\n      pop\n      jump\t// out\n        /* \"#utility.yul\":30165:30242   */\n    tag_538:\n        /* \"#utility.yul\":30202:30209   */\n      0x00\n        /* \"#utility.yul\":30231:30236   */\n      dup2\n        /* \"#utility.yul\":30220:30236   */\n      swap1\n      pop\n        /* \"#utility.yul\":30165:30242   */\n      swap2\n      swap1\n      pop\n      jump\t// out\n        /* \"#utility.yul\":30248:30327   */\n    tag_539:\n        /* \"#utility.yul\":30287:30294   */\n      0x00\n        /* \"#utility.yul\":30316:30321   */\n      dup2\n        /* \"#utility.yul\":30305:30321   */\n      swap1\n      pop\n        /* \"#utility.yul\":30248:30327   */\n      swap2\n      swap1\n      pop\n      jump\t// out\n        /* \"#utility.yul\":30333:30490   */\n    tag_540:\n        /* \"#utility.yul\":30438:30483   */\n      tag_834\n        /* \"#utility.yul\":30458:30482   */\n      tag_835\n        /* \"#utility.yul\":30476:30481   */\n      dup3\n        /* \"#utility.yul\":30458:30482   */\n      tag_538\n      jump\t// in\n    tag_835:\n        /* \"#utility.yul\":30438:30483   */\n      tag_539\n      jump\t// in\n    tag_834:\n        /* \"#utility.yul\":30433:30436   */\n      dup3\n        /* \"#utility.yul\":30426:30484   */\n      mstore\n        /* \"#utility.yul\":30333:30490   */\n      pop\n      pop\n      jump\t// out\n        /* \"#utility.yul\":30496:31034   */\n    tag_406:\n        /* \"#utility.yul\":30664:30667   */\n      0x00\n        /* \"#utility.yul\":30679:30754   */\n      tag_837\n        /* \"#utility.yul\":30750:30753   */\n      dup3\n        /* \"#utility.yul\":30741:30747   */\n      dup7\n        /* \"#utility.yul\":30679:30754   */\n      tag_537\n      jump\t// in\n    tag_837:\n        /* \"#utility.yul\":30779:30781   */\n      0x20\n        /* \"#utility.yul\":30774:30777   */\n      dup3\n        /* \"#utility.yul\":30770:30782   */\n      add\n        /* \"#utility.yul\":30763:30782   */\n      swap2\n      pop\n        /* \"#utility.yul\":30792:30867   */\n      tag_838\n        /* \"#utility.yul\":30863:30866   */\n      dup3\n        /* \"#utility.yul\":30854:30860   */\n      dup6\n        /* \"#utility.yul\":30792:30867   */\n      tag_537\n      jump\t// in\n    tag_838:\n        /* \"#utility.yul\":30892:30894   */\n      0x20\n        /* \"#utility.yul\":30887:30890   */\n      dup3\n        /* \"#utility.yul\":30883:30895   */\n      add\n        /* \"#utility.yul\":30876:30895   */\n      swap2\n      pop\n        /* \"#utility.yul\":30905:30980   */\n      tag_839\n        /* \"#utility.yul\":30976:30979   */\n      dup3\n        /* \"#utility.yul\":30967:30973   */\n      dup5\n        /* \"#utility.yul\":30905:30980   */\n      tag_540\n      jump\t// in\n    tag_839:\n        /* \"#utility.yul\":31005:31007   */\n      0x20\n        /* \"#utility.yul\":31000:31003   */\n      dup3\n        /* \"#utility.yul\":30996:31008   */\n      add\n        /* \"#utility.yul\":30989:31008   */\n      swap2\n      pop\n        /* \"#utility.yul\":31025:31028   */\n      dup2\n        /* \"#utility.yul\":31018:31028   */\n      swap1\n      pop\n        /* \"#utility.yul\":30496:31034   */\n      swap5\n      swap4\n      pop\n      pop\n      pop\n      pop\n      jump\t// out\n        /* \"#utility.yul\":31040:31296   */\n    tag_424:\n        /* \"#utility.yul\":31152:31155   */\n      0x00\n        /* \"#utility.yul\":31167:31242   */\n      tag_841\n        /* \"#utility.yul\":31238:31241   */\n      dup3\n        /* \"#utility.yul\":31229:31235   */\n      dup5\n        /* \"#utility.yul\":31167:31242   */\n      tag_537\n      jump\t// in\n    tag_841:\n        /* \"#utility.yul\":31267:31269   */\n      0x20\n        /* \"#utility.yul\":31262:31265   */\n      dup3\n        /* \"#utility.yul\":31258:31270   */\n      add\n        /* \"#utility.yul\":31251:31270   */\n      swap2\n      pop\n        /* \"#utility.yul\":31287:31290   */\n      dup2\n        /* \"#utility.yul\":31280:31290   */\n      swap1\n      pop\n        /* \"#utility.yul\":31040:31296   */\n      swap3\n      swap2\n      pop\n      pop\n      jump\t// out\n\n    auxdata: 0xa26469706673582212206e6367dceb3eef50ce2d15747cbd61e17e83b5878160431a89f96fceb25d1f0464736f6c634300081a0033\n}\n",
				"bytecode": {
					"linkReferences": {},
					"object": "608060405234801561000f575f80fd5b5061001e61006360201b60201c565b3360045f6101000a81548173ffffffffffffffffffffffffffffffffffffffff021916908373ffffffffffffffffffffffffffffffffffffffff160217905550610179565b5f8061006f91906100d8565b5f600190505b60348160ff16116100d5575f81908060018154018082558091505060019003905f5260205f2090602091828204019190069091909190916101000a81548160ff021916908360ff16021790555080806100cd90610151565b915050610075565b50565b5080545f8255601f0160209004905f5260205f20908101906100fa91906100fd565b50565b5b80821115610114575f815f9055506001016100fe565b5090565b7f4e487b71000000000000000000000000000000000000000000000000000000005f52601160045260245ffd5b5f60ff82169050919050565b5f61015b82610145565b915060ff820361016e5761016d610118565b5b600182019050919050565b613289806101865f395ff3fe6080604052600436106100dc575f3560e01c8063adda2c2e1161007e578063df5df4bc11610058578063df5df4bc146102a5578063ebf6e91d146102cf578063efaa55a0146102f7578063f71d96cb14610313576100dc565b8063adda2c2e14610229578063b984354a14610265578063d65ab5f21461028f576100dc565b80636bf9609c116100ba5780636bf9609c1461017157806370a88f841461019b57806376cdb03b146101d757806396b76c2314610201576100dc565b8063302bcc57146100e057806333b16d931461010a5780634fdd055b14610135575b5f80fd5b3480156100eb575f80fd5b506100f4610352565b6040516101019190612312565b60405180910390f35b348015610115575f80fd5b5061011e610358565b60405161012c929190612482565b60405180910390f35b348015610140575f80fd5b5061015b600480360381019061015691906124e5565b610a70565b604051610168919061252b565b60405180910390f35b34801561017c575f80fd5b50610185610aa1565b6040516101929190612544565b60405180910390f35b3480156101a6575f80fd5b506101c160048036038101906101bc91906124e5565b610b2d565b6040516101ce919061252b565b60405180910390f35b3480156101e2575f80fd5b506101eb610b5e565b6040516101f89190612573565b60405180910390f35b34801561020c575f80fd5b50610227600480360381019061022291906124e5565b610b83565b005b348015610234575f80fd5b5061024f600480360381019061024a91906124e5565b610c6f565b60405161025c9190612573565b60405180910390f35b348015610270575f80fd5b50610279610caa565b604051610286919061268f565b60405180910390f35b34801561029a575f80fd5b506102a3610efa565b005b3480156102b0575f80fd5b506102b96110cf565b6040516102c69190612544565b60405180910390f35b3480156102da575f80fd5b506102f560048036038101906102f091906124e5565b61115b565b005b610311600480360381019061030c91906124e5565b61147a565b005b34801561031e575f80fd5b50610339600480360381019061033491906124e5565b611679565b60405161034994939291906126c9565b60405180910390f35b60025481565b6060805f6103d760038054806020026020016040519081016040528092919081815260200182805480156103cd57602002820191905f5260205f20905f905b82829054906101000a900460ff1660ff16815260200190600101906020825f010492830192600103820291508084116103975790505b50505050506116ec565b905060065f6103e69190612104565b5b60118160ff1610156104fb575f6103fc6117c6565b9050600381908060018154018082558091505060019003905f5260205f2090602091828204019190069091909190916101000a81548160ff021916908360ff1602179055506104bc60038054806020026020016040519081016040528092919081815260200182805480156104b257602002820191905f5260205f20905f905b82829054906101000a900460ff1660ff16815260200190600101906020825f0104928301926001038202915080841161047c5790505b50505050506116ec565b91507f74719e1845aac9a5b808b73f76f15e0ded61fd1f03fc0cd802e98e8e1d2299fe816040516104ed919061252b565b60405180910390a1506103e7565b6003600590805461050d929190612122565b506105bf600580548060200260200160405190810160405280929190818152602001828054801561057f57602002820191905f5260205f20905f905b82829054906101000a900460ff1660ff16815260200190600101906020825f010492830192600103820291508084116105495790505b50505050506040518060400160405280601081526020017f4c6173742042616e6b2048616e643a2000000000000000000000000000000000815250611891565b600790816105cd9190612933565b505f5b6001805490508110156108b0575f61067a600183815481106105f5576105f4612a02565b5b905f5260205f20906004020160020180548060200260200160405190810160405280929190818152602001828054801561067057602002820191905f5260205f20905f905b82829054906101000a900460ff1660ff16815260200190600101906020825f0104928301926001038202915080841161063a5790505b50505050506116ec565b9050600182815481106106905761068f612a02565b5b905f5260205f20906004020160030160019054906101000a900460ff161580156106cd57508260ff168160ff1611806106cc575060158360ff16115b5b156108a257600182815481106106e6576106e5612a02565b5b905f5260205f2090600402015f015f9054906101000a900473ffffffffffffffffffffffffffffffffffffffff1673ffffffffffffffffffffffffffffffffffffffff166108fc60026001858154811061074357610742612a02565b5b905f5260205f2090600402016001015461075d9190612a5c565b90811502906040515f60405180830381858888f19350505050158015610785573d5f803e3d5ffd5b5060066001838154811061079c5761079b612a02565b5b905f5260205f2090600402015f015f9054906101000a900473ffffffffffffffffffffffffffffffffffffffff16908060018154018082558091505060019003905f5260205f20015f9091909190916101000a81548173ffffffffffffffffffffffffffffffffffffffff021916908373ffffffffffffffffffffffffffffffffffffffff1602179055507fe9b0a743935d9854ac97b39452742c48f05e62b1ee44825328d7bc53901b03b16001838154811061085c5761085b612a02565b5b905f5260205f2090600402015f015f9054906101000a900473ffffffffffffffffffffffffffffffffffffffff1682604051610899929190612a9d565b60405180910390a15b5080806001019150506105d0565b5061093d600680548060200260200160405190810160405280929190818152602001828054801561093357602002820191905f5260205f20905b815f9054906101000a900473ffffffffffffffffffffffffffffffffffffffff1673ffffffffffffffffffffffffffffffffffffffff16815260200190600101908083116108ea575b5050505050611a85565b6008908161094b9190612933565b50610954611cc4565b6007600681805461096490612766565b80601f016020809104026020016040519081016040528092919081815260200182805461099090612766565b80156109db5780601f106109b2576101008083540402835291602001916109db565b820191905f5260205f20905b8154815290600101906020018083116109be57829003601f168201915b5050505050915080805480602002602001604051908101604052809291908181526020018280548015610a6057602002820191905f5260205f20905b815f9054906101000a900473ffffffffffffffffffffffffffffffffffffffff1673ffffffffffffffffffffffffffffffffffffffff1681526020019060010190808311610a17575b5050505050905092509250509091565b60058181548110610a7f575f80fd5b905f5260205f209060209182820401919006915054906101000a900460ff1681565b60088054610aae90612766565b80601f0160208091040260200160405190810160405280929190818152602001828054610ada90612766565b8015610b255780601f10610afc57610100808354040283529160200191610b25565b820191905f5260205f20905b815481529060010190602001808311610b0857829003601f168201915b505050505081565b60038181548110610b3c575f80fd5b905f5260205f209060209182820401919006915054906101000a900460ff1681565b60045f9054906101000a900473ffffffffffffffffffffffffffffffffffffffff1681565b60018181548110610b9757610b96612a02565b5b905f5260205f2090600402015f015f9054906101000a900473ffffffffffffffffffffffffffffffffffffffff1673ffffffffffffffffffffffffffffffffffffffff163373ffffffffffffffffffffffffffffffffffffffff1614610c32576040517f08c379a0000000000000000000000000000000000000000000000000000000008152600401610c2990612b0e565b60405180910390fd5b5f60018281548110610c4757610c46612a02565b5b905f5260205f2090600402016003015f6101000a81548160ff02191690831515021790555050565b60068181548110610c7e575f80fd5b905f5260205f20015f915054906101000a900473ffffffffffffffffffffffffffffffffffffffff1681565b60605f60018080549050610cbe9190612b2c565b67ffffffffffffffff811115610cd757610cd661270c565b5b604051908082528060200260200182016040528015610d0a57816020015b6060815260200190600190039081610cf55790505b509050610dbe6003805480602002602001604051908101604052809291908181526020018280548015610d7e57602002820191905f5260205f20905f905b82829054906101000a900460ff1660ff16815260200190600101906020825f01049283019260010382029150808411610d485790505b50505050506040518060400160405280600681526020017f42616e6b3a200000000000000000000000000000000000000000000000000000815250611891565b815f81518110610dd157610dd0612a02565b5b60200260200101819052505f5b600180549050811015610ef257610ebb60018281548110610e0257610e01612a02565b5b905f5260205f209060040201600201805480602002602001604051908101604052809291908181526020018280548015610e7d57602002820191905f5260205f20905f905b82829054906101000a900460ff1660ff16815260200190600101906020825f01049283019260010382029150808411610e475790505b5050505050610e97600184610e929190612b2c565b611cef565b604051602001610ea79190612c2d565b604051602081830303815290604052611891565b82600183610ec99190612b2c565b81518110610eda57610ed9612a02565b5b60200260200101819052508080600101915050610dde565b508091505090565b5f60025411610f3e576040517f08c379a0000000000000000000000000000000000000000000000000000000008152600401610f3590612ca3565b60405180910390fd5b610f46611e4d565b5f5b6001805490508110156110385760018181548110610f6957610f68612a02565b5b905f5260205f209060040201600201610f806117c6565b908060018154018082558091505060019003905f5260205f2090602091828204019190069091909190916101000a81548160ff021916908360ff16021790555060018181548110610fd457610fd3612a02565b5b905f5260205f209060040201600201610feb6117c6565b908060018154018082558091505060019003905f5260205f2090602091828204019190069091909190916101000a81548160ff021916908360ff1602179055508080600101915050610f48565b5060036110436117c6565b908060018154018082558091505060019003905f5260205f2090602091828204019190069091909190916101000a81548160ff021916908360ff160217905550600361108d6117c6565b908060018154018082558091505060019003905f5260205f2090602091828204019190069091909190916101000a81548160ff021916908360ff160217905550565b600780546110dc90612766565b80601f016020809104026020016040519081016040528092919081815260200182805461110890612766565b80156111535780601f1061112a57610100808354040283529160200191611153565b820191905f5260205f20905b81548152906001019060200180831161113657829003601f168201915b505050505081565b6001818154811061116f5761116e612a02565b5b905f5260205f2090600402015f015f9054906101000a900473ffffffffffffffffffffffffffffffffffffffff1673ffffffffffffffffffffffffffffffffffffffff163373ffffffffffffffffffffffffffffffffffffffff161461120a576040517f08c379a000000000000000000000000000000000000000000000000000000000815260040161120190612b0e565b60405180910390fd5b6001818154811061121e5761121d612a02565b5b905f5260205f2090600402016003015f9054906101000a900460ff16611279576040517f08c379a000000000000000000000000000000000000000000000000000000000815260040161127090612d0b565b60405180910390fd5b6001818154811061128d5761128c612a02565b5b905f5260205f20906004020160030160019054906101000a900460ff16156112ea576040517f08c379a00000000000000000000000000000000000000000000000000000000081526004016112e190612d73565b60405180910390fd5b5f6112f36117c6565b90506001828154811061130957611308612a02565b5b905f5260205f20906004020160020181908060018154018082558091505060019003905f5260205f2090602091828204019190069091909190916101000a81548160ff021916908360ff16021790555060156113f76001848154811061137257611371612a02565b5b905f5260205f2090600402016002018054806020026020016040519081016040528092919081815260200182805480156113ed57602002820191905f5260205f20905f905b82829054906101000a900460ff1660ff16815260200190600101906020825f010492830192600103820291508084116113b75790505b50505050506116ec565b60ff16111561147657600180838154811061141557611414612a02565b5b905f5260205f20906004020160030160016101000a81548160ff0219169083151502179055505f600183815481106114505761144f612a02565b5b905f5260205f2090600402016003015f6101000a81548160ff0219169083151502179055505b5050565b6004600254106114bf576040517f08c379a00000000000000000000000000000000000000000000000000000000081526004016114b690612ddb565b60405180910390fd5b803414611501576040517f08c379a00000000000000000000000000000000000000000000000000000000081526004016114f890612e43565b60405180910390fd5b60016040518060a001604052803373ffffffffffffffffffffffffffffffffffffffff1681526020018381526020015f67ffffffffffffffff81111561154a5761154961270c565b5b6040519080825280602002602001820160405280156115785781602001602082028036833780820191505090505b5081526020016001151581526020015f1515815250908060018154018082558091505060019003905f5260205f2090600402015f909190919091505f820151815f015f6101000a81548173ffffffffffffffffffffffffffffffffffffffff021916908373ffffffffffffffffffffffffffffffffffffffff16021790555060208201518160010155604082015181600201908051906020019061161d92919061217e565b506060820151816003015f6101000a81548160ff02191690831515021790555060808201518160030160016101000a81548160ff021916908315150217905550505060025f81548092919061167190612e61565b919050555050565b60018181548110611688575f80fd5b905f5260205f2090600402015f91509050805f015f9054906101000a900473ffffffffffffffffffffffffffffffffffffffff1690806001015490806003015f9054906101000a900460ff16908060030160019054906101000a900460ff16905084565b5f805f90505f805b845181101561177d575f600d86838151811061171357611712612a02565b5b60200260200101516117259190612ed5565b90505f8160ff160361173657600d90505b600a8160ff16111561174757600a90505b60018160ff160361176157828061175d90612f05565b9350505b808461176d9190612f2d565b93505080806001019150506116f4565b505b600b8260ff161115801561179557505f8160ff16115b156117bc57600a826117a79190612f2d565b915080806117b490612f61565b91505061177f565b8192505050919050565b5f805f805490501161180d576040517f08c379a000000000000000000000000000000000000000000000000000000000815260040161180490612fd2565b60405180910390fd5b5f8060015f805490506118209190612ff0565b8154811061183157611830612a02565b5b905f5260205f2090602091828204019190069054906101000a900460ff1690505f80548061186257611861613023565b5b600190038181905f5260205f2090602091828204019190066101000a81549060ff021916905590558091505090565b60605f8290505f5b8451811015611a7a575f600d8683815181106118b8576118b7612a02565b5b60200260200101516118ca9190612ed5565b90505f8160ff16036118db57600d90505b606060018260ff1603611925576040518060400160405280600181526020017f41000000000000000000000000000000000000000000000000000000000000008152509050611a0f565b600b8260ff160361196d576040518060400160405280600181526020017f4a000000000000000000000000000000000000000000000000000000000000008152509050611a0e565b600c8260ff16036119b5576040518060400160405280600181526020017f51000000000000000000000000000000000000000000000000000000000000008152509050611a0d565b600d8260ff16036119fd576040518060400160405280600181526020017f4b000000000000000000000000000000000000000000000000000000000000008152509050611a0c565b611a098260ff16611cef565b90505b5b5b5b8381604051602001611a22929190613050565b604051602081830303815290604052935060018751611a419190612ff0565b831015611a6b5783604051602001611a5991906130bd565b60405160208183030381529060405293505b50508080600101915050611899565b508091505092915050565b60605f805b8351811015611b1d5760045f9054906101000a900473ffffffffffffffffffffffffffffffffffffffff1673ffffffffffffffffffffffffffffffffffffffff16848281518110611ade57611add612a02565b5b602002602001015173ffffffffffffffffffffffffffffffffffffffff1614611b10578180611b0c90612e61565b9250505b8080600101915050611a8a565b505f8103611b63576040518060400160405280600f81526020017f4e6f20706c617965727320776f6e2e0000000000000000000000000000000000815250915050611cbf565b5f60405180602001604052805f81525090505f5b8451811015611cb85760045f9054906101000a900473ffffffffffffffffffffffffffffffffffffffff1673ffffffffffffffffffffffffffffffffffffffff16858281518110611bcb57611bca612a02565b5b602002602001015173ffffffffffffffffffffffffffffffffffffffff1614611cab575f611c12868381518110611c0557611c04612a02565b5b6020026020010151611fc8565b90507fffffffffffffffffffffffffffffffffffffffffffffffffffffffffffffffff8114611ca9575f611c51600183611c4c9190612b2c565b611cef565b604051602001611c6191906130de565b60405160208183030381529060405290505f845103611c8257809350611ca7565b8381604051602001611c959291906130ff565b60405160208183030381529060405293505b505b505b8080600101915050611b77565b5080925050505b919050565b60015f611cd19190612220565b60035f611cde9190612241565b5f600281905550611ced61208f565b565b60605f8203611d35576040518060400160405280600181526020017f30000000000000000000000000000000000000000000000000000000000000008152509050611e48565b5f8290505f5b5f8214611d64578080611d4d90612e61565b915050600a82611d5d919061312d565b9150611d3b565b5f8167ffffffffffffffff811115611d7f57611d7e61270c565b5b6040519080825280601f01601f191660200182016040528015611db15781602001600182028036833780820191505090505b5090505f8290508593505b5f8414611e4057600a84611dd0919061315d565b6030611ddc9190612b2c565b60f81b8282611dea9061318d565b92508281518110611dfe57611dfd612a02565b5b60200101907effffffffffffffffffffffffffffffffffffffffffffffffffffffffffffff191690815f1a905350600a84611e39919061312d565b9350611dbc565b819450505050505b919050565b5f4244600143611e5d9190612ff0565b40604051602001611e70939291906131fd565b604051602081830303815290604052805190602001205f1c90505f5b5f80549050811015611fc4575f808054905083611ea9919061315d565b90505f8181548110611ebe57611ebd612a02565b5b905f5260205f2090602091828204019190069054906101000a900460ff165f8381548110611eef57611eee612a02565b5b905f5260205f2090602091828204019190069054906101000a900460ff165f8481548110611f2057611f1f612a02565b5b905f5260205f2090602091828204019190065f8581548110611f4557611f44612a02565b5b905f5260205f2090602091828204019190068491906101000a81548160ff021916908360ff1602179055508391906101000a81548160ff021916908360ff160217905550505082604051602001611f9c9190613239565b604051602081830303815290604052805190602001205f1c9250508080600101915050611e8c565b5050565b5f805f90505b600180549050811015612065578273ffffffffffffffffffffffffffffffffffffffff166001828154811061200657612005612a02565b5b905f5260205f2090600402015f015f9054906101000a900473ffffffffffffffffffffffffffffffffffffffff1673ffffffffffffffffffffffffffffffffffffffff1603612058578091505061208a565b8080600101915050611fce565b507fffffffffffffffffffffffffffffffffffffffffffffffffffffffffffffffff90505b919050565b5f8061209b9190612241565b5f600190505b60348160ff1611612101575f81908060018154018082558091505060019003905f5260205f2090602091828204019190069091909190916101000a81548160ff021916908360ff16021790555080806120f990612f05565b9150506120a1565b50565b5080545f8255905f5260205f209081019061211f9190612266565b50565b828054828255905f5260205f2090601f0160209004810192821561216d575f5260205f2091601f016020900482015b8281111561216c578254825591600101919060010190612151565b5b50905061217a9190612266565b5090565b828054828255905f5260205f2090601f0160209004810192821561220f579160200282015f5b838211156121e157835183826101000a81548160ff021916908360ff16021790555092602001926001016020815f010492830192600103026121a4565b801561220d5782816101000a81549060ff02191690556001016020815f010492830192600103026121e1565b505b50905061221c9190612266565b5090565b5080545f8255600402905f5260205f209081019061223e9190612281565b50565b5080545f8255601f0160209004905f5260205f20908101906122639190612266565b50565b5b8082111561227d575f815f905550600101612267565b5090565b5b808211156122f6575f8082015f6101000a81549073ffffffffffffffffffffffffffffffffffffffff0219169055600182015f9055600282015f6122c69190612241565b600382015f6101000a81549060ff02191690556003820160016101000a81549060ff021916905550600401612282565b5090565b5f819050919050565b61230c816122fa565b82525050565b5f6020820190506123255f830184612303565b92915050565b5f81519050919050565b5f82825260208201905092915050565b8281835e5f83830152505050565b5f601f19601f8301169050919050565b5f61236d8261232b565b6123778185612335565b9350612387818560208601612345565b61239081612353565b840191505092915050565b5f81519050919050565b5f82825260208201905092915050565b5f819050602082019050919050565b5f73ffffffffffffffffffffffffffffffffffffffff82169050919050565b5f6123ed826123c4565b9050919050565b6123fd816123e3565b82525050565b5f61240e83836123f4565b60208301905092915050565b5f602082019050919050565b5f6124308261239b565b61243a81856123a5565b9350612445836123b5565b805f5b8381101561247557815161245c8882612403565b97506124678361241a565b925050600181019050612448565b5085935050505092915050565b5f6040820190508181035f83015261249a8185612363565b905081810360208301526124ae8184612426565b90509392505050565b5f80fd5b6124c4816122fa565b81146124ce575f80fd5b50565b5f813590506124df816124bb565b92915050565b5f602082840312156124fa576124f96124b7565b5b5f612507848285016124d1565b91505092915050565b5f60ff82169050919050565b61252581612510565b82525050565b5f60208201905061253e5f83018461251c565b92915050565b5f6020820190508181035f83015261255c8184612363565b905092915050565b61256d816123e3565b82525050565b5f6020820190506125865f830184612564565b92915050565b5f81519050919050565b5f82825260208201905092915050565b5f819050602082019050919050565b5f82825260208201905092915050565b5f6125cf8261232b565b6125d981856125b5565b93506125e9818560208601612345565b6125f281612353565b840191505092915050565b5f61260883836125c5565b905092915050565b5f602082019050919050565b5f6126268261258c565b6126308185612596565b935083602082028501612642856125a6565b805f5b8581101561267d578484038952815161265e85826125fd565b945061266983612610565b925060208a01995050600181019050612645565b50829750879550505050505092915050565b5f6020820190508181035f8301526126a7818461261c565b905092915050565b5f8115159050919050565b6126c3816126af565b82525050565b5f6080820190506126dc5f830187612564565b6126e96020830186612303565b6126f660408301856126ba565b61270360608301846126ba565b95945050505050565b7f4e487b71000000000000000000000000000000000000000000000000000000005f52604160045260245ffd5b7f4e487b71000000000000000000000000000000000000000000000000000000005f52602260045260245ffd5b5f600282049050600182168061277d57607f821691505b6020821081036127905761278f612739565b5b50919050565b5f819050815f5260205f209050919050565b5f6020601f8301049050919050565b5f82821b905092915050565b5f600883026127f27fffffffffffffffffffffffffffffffffffffffffffffffffffffffffffffffff826127b7565b6127fc86836127b7565b95508019841693508086168417925050509392505050565b5f819050919050565b5f61283761283261282d846122fa565b612814565b6122fa565b9050919050565b5f819050919050565b6128508361281d565b61286461285c8261283e565b8484546127c3565b825550505050565b5f90565b61287861286c565b612883818484612847565b505050565b5b818110156128a65761289b5f82612870565b600181019050612889565b5050565b601f8211156128eb576128bc81612796565b6128c5846127a8565b810160208510156128d4578190505b6128e86128e0856127a8565b830182612888565b50505b505050565b5f82821c905092915050565b5f61290b5f19846008026128f0565b1980831691505092915050565b5f61292383836128fc565b9150826002028217905092915050565b61293c8261232b565b67ffffffffffffffff8111156129555761295461270c565b5b61295f8254612766565b61296a8282856128aa565b5f60209050601f83116001811461299b575f8415612989578287015190505b6129938582612918565b8655506129fa565b601f1984166129a986612796565b5f5b828110156129d0578489015182556001820191506020850194506020810190506129ab565b868310156129ed57848901516129e9601f8916826128fc565b8355505b6001600288020188555050505b505050505050565b7f4e487b71000000000000000000000000000000000000000000000000000000005f52603260045260245ffd5b7f4e487b71000000000000000000000000000000000000000000000000000000005f52601160045260245ffd5b5f612a66826122fa565b9150612a71836122fa565b9250828202612a7f816122fa565b91508282048414831517612a9657612a95612a2f565b5b5092915050565b5f604082019050612ab05f830185612564565b612abd602083018461251c565b9392505050565b7f4e6f7420796f7572207475726e000000000000000000000000000000000000005f82015250565b5f612af8600d83612335565b9150612b0382612ac4565b602082019050919050565b5f6020820190508181035f830152612b2581612aec565b9050919050565b5f612b36826122fa565b9150612b41836122fa565b9250828201905080821115612b5957612b58612a2f565b5b92915050565b5f81905092915050565b7f506c6179657220000000000000000000000000000000000000000000000000005f82015250565b5f612b9d600783612b5f565b9150612ba882612b69565b600782019050919050565b5f612bbd8261232b565b612bc78185612b5f565b9350612bd7818560208601612345565b80840191505092915050565b7f3a200000000000000000000000000000000000000000000000000000000000005f82015250565b5f612c17600283612b5f565b9150612c2282612be3565b600282019050919050565b5f612c3782612b91565b9150612c438284612bb3565b9150612c4e82612c0b565b915081905092915050565b7f4e6f20706c617965727320696e207468652067616d65000000000000000000005f82015250565b5f612c8d601683612335565b9150612c9882612c59565b602082019050919050565b5f6020820190508181035f830152612cba81612c81565b9050919050565b7f506c61796572206973206e6f74206163746976650000000000000000000000005f82015250565b5f612cf5601483612335565b9150612d0082612cc1565b602082019050919050565b5f6020820190508181035f830152612d2281612ce9565b9050919050565b7f506c6179657220697320616c72656164792062757374656400000000000000005f82015250565b5f612d5d601883612335565b9150612d6882612d29565b602082019050919050565b5f6020820190508181035f830152612d8a81612d51565b9050919050565b7f4d6178203420706c617965727320616c6c6f77656400000000000000000000005f82015250565b5f612dc5601583612335565b9150612dd082612d91565b602082019050919050565b5f6020820190508181035f830152612df281612db9565b9050919050565b7f42657420616d6f756e74206d69736d61746368000000000000000000000000005f82015250565b5f612e2d601383612335565b9150612e3882612df9565b602082019050919050565b5f6020820190508181035f830152612e5a81612e21565b9050919050565b5f612e6b826122fa565b91507fffffffffffffffffffffffffffffffffffffffffffffffffffffffffffffffff8203612e9d57612e9c612a2f565b5b600182019050919050565b7f4e487b71000000000000000000000000000000000000000000000000000000005f52601260045260245ffd5b5f612edf82612510565b9150612eea83612510565b925082612efa57612ef9612ea8565b5b828206905092915050565b5f612f0f82612510565b915060ff8203612f2257612f21612a2f565b5b600182019050919050565b5f612f3782612510565b9150612f4283612510565b9250828201905060ff811115612f5b57612f5a612a2f565b5b92915050565b5f612f6b82612510565b91505f8203612f7d57612f7c612a2f565b5b600182039050919050565b7f4e6f206361726473206c65667420696e20746865206465636b000000000000005f82015250565b5f612fbc601983612335565b9150612fc782612f88565b602082019050919050565b5f6020820190508181035f830152612fe981612fb0565b9050919050565b5f612ffa826122fa565b9150613005836122fa565b925082820390508181111561301d5761301c612a2f565b5b92915050565b7f4e487b71000000000000000000000000000000000000000000000000000000005f52603160045260245ffd5b5f61305b8285612bb3565b91506130678284612bb3565b91508190509392505050565b7f2c200000000000000000000000000000000000000000000000000000000000005f82015250565b5f6130a7600283612b5f565b91506130b282613073565b600282019050919050565b5f6130c88284612bb3565b91506130d38261309b565b915081905092915050565b5f6130e882612b91565b91506130f48284612bb3565b915081905092915050565b5f61310a8285612bb3565b91506131158261309b565b91506131218284612bb3565b91508190509392505050565b5f613137826122fa565b9150613142836122fa565b92508261315257613151612ea8565b5b828204905092915050565b5f613167826122fa565b9150613172836122fa565b92508261318257613181612ea8565b5b828206905092915050565b5f613197826122fa565b91505f82036131a9576131a8612a2f565b5b600182039050919050565b5f819050919050565b6131ce6131c9826122fa565b6131b4565b82525050565b5f819050919050565b5f819050919050565b6131f76131f2826131d4565b6131dd565b82525050565b5f61320882866131bd565b60208201915061321882856131bd565b60208201915061322882846131e6565b602082019150819050949350505050565b5f61324482846131bd565b6020820191508190509291505056fea26469706673582212206e6367dceb3eef50ce2d15747cbd61e17e83b5878160431a89f96fceb25d1f0464736f6c634300081a0033",
					"opcodes": "PUSH1 0x80 PUSH1 0x40 MSTORE CALLVALUE DUP1 ISZERO PUSH2 0xF JUMPI PUSH0 DUP1 REVERT JUMPDEST POP PUSH2 0x1E PUSH2 0x63 PUSH1 0x20 SHL PUSH1 0x20 SHR JUMP JUMPDEST CALLER PUSH1 0x4 PUSH0 PUSH2 0x100 EXP DUP2 SLOAD DUP2 PUSH20 0xFFFFFFFFFFFFFFFFFFFFFFFFFFFFFFFFFFFFFFFF MUL NOT AND SWAP1 DUP4 PUSH20 0xFFFFFFFFFFFFFFFFFFFFFFFFFFFFFFFFFFFFFFFF AND MUL OR SWAP1 SSTORE POP PUSH2 0x179 JUMP JUMPDEST PUSH0 DUP1 PUSH2 0x6F SWAP2 SWAP1 PUSH2 0xD8 JUMP JUMPDEST PUSH0 PUSH1 0x1 SWAP1 POP JUMPDEST PUSH1 0x34 DUP2 PUSH1 0xFF AND GT PUSH2 0xD5 JUMPI PUSH0 DUP2 SWAP1 DUP1 PUSH1 0x1 DUP2 SLOAD ADD DUP1 DUP3 SSTORE DUP1 SWAP2 POP POP PUSH1 0x1 SWAP1 SUB SWAP1 PUSH0 MSTORE PUSH1 0x20 PUSH0 KECCAK256 SWAP1 PUSH1 0x20 SWAP2 DUP3 DUP3 DIV ADD SWAP2 SWAP1 MOD SWAP1 SWAP2 SWAP1 SWAP2 SWAP1 SWAP2 PUSH2 0x100 EXP DUP2 SLOAD DUP2 PUSH1 0xFF MUL NOT AND SWAP1 DUP4 PUSH1 0xFF AND MUL OR SWAP1 SSTORE POP DUP1 DUP1 PUSH2 0xCD SWAP1 PUSH2 0x151 JUMP JUMPDEST SWAP2 POP POP PUSH2 0x75 JUMP JUMPDEST POP JUMP JUMPDEST POP DUP1 SLOAD PUSH0 DUP3 SSTORE PUSH1 0x1F ADD PUSH1 0x20 SWAP1 DIV SWAP1 PUSH0 MSTORE PUSH1 0x20 PUSH0 KECCAK256 SWAP1 DUP2 ADD SWAP1 PUSH2 0xFA SWAP2 SWAP1 PUSH2 0xFD JUMP JUMPDEST POP JUMP JUMPDEST JUMPDEST DUP1 DUP3 GT ISZERO PUSH2 0x114 JUMPI PUSH0 DUP2 PUSH0 SWAP1 SSTORE POP PUSH1 0x1 ADD PUSH2 0xFE JUMP JUMPDEST POP SWAP1 JUMP JUMPDEST PUSH32 0x4E487B7100000000000000000000000000000000000000000000000000000000 PUSH0 MSTORE PUSH1 0x11 PUSH1 0x4 MSTORE PUSH1 0x24 PUSH0 REVERT JUMPDEST PUSH0 PUSH1 0xFF DUP3 AND SWAP1 POP SWAP2 SWAP1 POP JUMP JUMPDEST PUSH0 PUSH2 0x15B DUP3 PUSH2 0x145 JUMP JUMPDEST SWAP2 POP PUSH1 0xFF DUP3 SUB PUSH2 0x16E JUMPI PUSH2 0x16D PUSH2 0x118 JUMP JUMPDEST JUMPDEST PUSH1 0x1 DUP3 ADD SWAP1 POP SWAP2 SWAP1 POP JUMP JUMPDEST PUSH2 0x3289 DUP1 PUSH2 0x186 PUSH0 CODECOPY PUSH0 RETURN INVALID PUSH1 0x80 PUSH1 0x40 MSTORE PUSH1 0x4 CALLDATASIZE LT PUSH2 0xDC JUMPI PUSH0 CALLDATALOAD PUSH1 0xE0 SHR DUP1 PUSH4 0xADDA2C2E GT PUSH2 0x7E JUMPI DUP1 PUSH4 0xDF5DF4BC GT PUSH2 0x58 JUMPI DUP1 PUSH4 0xDF5DF4BC EQ PUSH2 0x2A5 JUMPI DUP1 PUSH4 0xEBF6E91D EQ PUSH2 0x2CF JUMPI DUP1 PUSH4 0xEFAA55A0 EQ PUSH2 0x2F7 JUMPI DUP1 PUSH4 0xF71D96CB EQ PUSH2 0x313 JUMPI PUSH2 0xDC JUMP JUMPDEST DUP1 PUSH4 0xADDA2C2E EQ PUSH2 0x229 JUMPI DUP1 PUSH4 0xB984354A EQ PUSH2 0x265 JUMPI DUP1 PUSH4 0xD65AB5F2 EQ PUSH2 0x28F JUMPI PUSH2 0xDC JUMP JUMPDEST DUP1 PUSH4 0x6BF9609C GT PUSH2 0xBA JUMPI DUP1 PUSH4 0x6BF9609C EQ PUSH2 0x171 JUMPI DUP1 PUSH4 0x70A88F84 EQ PUSH2 0x19B JUMPI DUP1 PUSH4 0x76CDB03B EQ PUSH2 0x1D7 JUMPI DUP1 PUSH4 0x96B76C23 EQ PUSH2 0x201 JUMPI PUSH2 0xDC JUMP JUMPDEST DUP1 PUSH4 0x302BCC57 EQ PUSH2 0xE0 JUMPI DUP1 PUSH4 0x33B16D93 EQ PUSH2 0x10A JUMPI DUP1 PUSH4 0x4FDD055B EQ PUSH2 0x135 JUMPI JUMPDEST PUSH0 DUP1 REVERT JUMPDEST CALLVALUE DUP1 ISZERO PUSH2 0xEB JUMPI PUSH0 DUP1 REVERT JUMPDEST POP PUSH2 0xF4 PUSH2 0x352 JUMP JUMPDEST PUSH1 0x40 MLOAD PUSH2 0x101 SWAP2 SWAP1 PUSH2 0x2312 JUMP JUMPDEST PUSH1 0x40 MLOAD DUP1 SWAP2 SUB SWAP1 RETURN JUMPDEST CALLVALUE DUP1 ISZERO PUSH2 0x115 JUMPI PUSH0 DUP1 REVERT JUMPDEST POP PUSH2 0x11E PUSH2 0x358 JUMP JUMPDEST PUSH1 0x40 MLOAD PUSH2 0x12C SWAP3 SWAP2 SWAP1 PUSH2 0x2482 JUMP JUMPDEST PUSH1 0x40 MLOAD DUP1 SWAP2 SUB SWAP1 RETURN JUMPDEST CALLVALUE DUP1 ISZERO PUSH2 0x140 JUMPI PUSH0 DUP1 REVERT JUMPDEST POP PUSH2 0x15B PUSH1 0x4 DUP1 CALLDATASIZE SUB DUP2 ADD SWAP1 PUSH2 0x156 SWAP2 SWAP1 PUSH2 0x24E5 JUMP JUMPDEST PUSH2 0xA70 JUMP JUMPDEST PUSH1 0x40 MLOAD PUSH2 0x168 SWAP2 SWAP1 PUSH2 0x252B JUMP JUMPDEST PUSH1 0x40 MLOAD DUP1 SWAP2 SUB SWAP1 RETURN JUMPDEST CALLVALUE DUP1 ISZERO PUSH2 0x17C JUMPI PUSH0 DUP1 REVERT JUMPDEST POP PUSH2 0x185 PUSH2 0xAA1 JUMP JUMPDEST PUSH1 0x40 MLOAD PUSH2 0x192 SWAP2 SWAP1 PUSH2 0x2544 JUMP JUMPDEST PUSH1 0x40 MLOAD DUP1 SWAP2 SUB SWAP1 RETURN JUMPDEST CALLVALUE DUP1 ISZERO PUSH2 0x1A6 JUMPI PUSH0 DUP1 REVERT JUMPDEST POP PUSH2 0x1C1 PUSH1 0x4 DUP1 CALLDATASIZE SUB DUP2 ADD SWAP1 PUSH2 0x1BC SWAP2 SWAP1 PUSH2 0x24E5 JUMP JUMPDEST PUSH2 0xB2D JUMP JUMPDEST PUSH1 0x40 MLOAD PUSH2 0x1CE SWAP2 SWAP1 PUSH2 0x252B JUMP JUMPDEST PUSH1 0x40 MLOAD DUP1 SWAP2 SUB SWAP1 RETURN JUMPDEST CALLVALUE DUP1 ISZERO PUSH2 0x1E2 JUMPI PUSH0 DUP1 REVERT JUMPDEST POP PUSH2 0x1EB PUSH2 0xB5E JUMP JUMPDEST PUSH1 0x40 MLOAD PUSH2 0x1F8 SWAP2 SWAP1 PUSH2 0x2573 JUMP JUMPDEST PUSH1 0x40 MLOAD DUP1 SWAP2 SUB SWAP1 RETURN JUMPDEST CALLVALUE DUP1 ISZERO PUSH2 0x20C JUMPI PUSH0 DUP1 REVERT JUMPDEST POP PUSH2 0x227 PUSH1 0x4 DUP1 CALLDATASIZE SUB DUP2 ADD SWAP1 PUSH2 0x222 SWAP2 SWAP1 PUSH2 0x24E5 JUMP JUMPDEST PUSH2 0xB83 JUMP JUMPDEST STOP JUMPDEST CALLVALUE DUP1 ISZERO PUSH2 0x234 JUMPI PUSH0 DUP1 REVERT JUMPDEST POP PUSH2 0x24F PUSH1 0x4 DUP1 CALLDATASIZE SUB DUP2 ADD SWAP1 PUSH2 0x24A SWAP2 SWAP1 PUSH2 0x24E5 JUMP JUMPDEST PUSH2 0xC6F JUMP JUMPDEST PUSH1 0x40 MLOAD PUSH2 0x25C SWAP2 SWAP1 PUSH2 0x2573 JUMP JUMPDEST PUSH1 0x40 MLOAD DUP1 SWAP2 SUB SWAP1 RETURN JUMPDEST CALLVALUE DUP1 ISZERO PUSH2 0x270 JUMPI PUSH0 DUP1 REVERT JUMPDEST POP PUSH2 0x279 PUSH2 0xCAA JUMP JUMPDEST PUSH1 0x40 MLOAD PUSH2 0x286 SWAP2 SWAP1 PUSH2 0x268F JUMP JUMPDEST PUSH1 0x40 MLOAD DUP1 SWAP2 SUB SWAP1 RETURN JUMPDEST CALLVALUE DUP1 ISZERO PUSH2 0x29A JUMPI PUSH0 DUP1 REVERT JUMPDEST POP PUSH2 0x2A3 PUSH2 0xEFA JUMP JUMPDEST STOP JUMPDEST CALLVALUE DUP1 ISZERO PUSH2 0x2B0 JUMPI PUSH0 DUP1 REVERT JUMPDEST POP PUSH2 0x2B9 PUSH2 0x10CF JUMP JUMPDEST PUSH1 0x40 MLOAD PUSH2 0x2C6 SWAP2 SWAP1 PUSH2 0x2544 JUMP JUMPDEST PUSH1 0x40 MLOAD DUP1 SWAP2 SUB SWAP1 RETURN JUMPDEST CALLVALUE DUP1 ISZERO PUSH2 0x2DA JUMPI PUSH0 DUP1 REVERT JUMPDEST POP PUSH2 0x2F5 PUSH1 0x4 DUP1 CALLDATASIZE SUB DUP2 ADD SWAP1 PUSH2 0x2F0 SWAP2 SWAP1 PUSH2 0x24E5 JUMP JUMPDEST PUSH2 0x115B JUMP JUMPDEST STOP JUMPDEST PUSH2 0x311 PUSH1 0x4 DUP1 CALLDATASIZE SUB DUP2 ADD SWAP1 PUSH2 0x30C SWAP2 SWAP1 PUSH2 0x24E5 JUMP JUMPDEST PUSH2 0x147A JUMP JUMPDEST STOP JUMPDEST CALLVALUE DUP1 ISZERO PUSH2 0x31E JUMPI PUSH0 DUP1 REVERT JUMPDEST POP PUSH2 0x339 PUSH1 0x4 DUP1 CALLDATASIZE SUB DUP2 ADD SWAP1 PUSH2 0x334 SWAP2 SWAP1 PUSH2 0x24E5 JUMP JUMPDEST PUSH2 0x1679 JUMP JUMPDEST PUSH1 0x40 MLOAD PUSH2 0x349 SWAP5 SWAP4 SWAP3 SWAP2 SWAP1 PUSH2 0x26C9 JUMP JUMPDEST PUSH1 0x40 MLOAD DUP1 SWAP2 SUB SWAP1 RETURN JUMPDEST PUSH1 0x2 SLOAD DUP2 JUMP JUMPDEST PUSH1 0x60 DUP1 PUSH0 PUSH2 0x3D7 PUSH1 0x3 DUP1 SLOAD DUP1 PUSH1 0x20 MUL PUSH1 0x20 ADD PUSH1 0x40 MLOAD SWAP1 DUP2 ADD PUSH1 0x40 MSTORE DUP1 SWAP3 SWAP2 SWAP1 DUP2 DUP2 MSTORE PUSH1 0x20 ADD DUP3 DUP1 SLOAD DUP1 ISZERO PUSH2 0x3CD JUMPI PUSH1 0x20 MUL DUP3 ADD SWAP2 SWAP1 PUSH0 MSTORE PUSH1 0x20 PUSH0 KECCAK256 SWAP1 PUSH0 SWAP1 JUMPDEST DUP3 DUP3 SWAP1 SLOAD SWAP1 PUSH2 0x100 EXP SWAP1 DIV PUSH1 0xFF AND PUSH1 0xFF AND DUP2 MSTORE PUSH1 0x20 ADD SWAP1 PUSH1 0x1 ADD SWAP1 PUSH1 0x20 DUP3 PUSH0 ADD DIV SWAP3 DUP4 ADD SWAP3 PUSH1 0x1 SUB DUP3 MUL SWAP2 POP DUP1 DUP5 GT PUSH2 0x397 JUMPI SWAP1 POP JUMPDEST POP POP POP POP POP PUSH2 0x16EC JUMP JUMPDEST SWAP1 POP PUSH1 0x6 PUSH0 PUSH2 0x3E6 SWAP2 SWAP1 PUSH2 0x2104 JUMP JUMPDEST JUMPDEST PUSH1 0x11 DUP2 PUSH1 0xFF AND LT ISZERO PUSH2 0x4FB JUMPI PUSH0 PUSH2 0x3FC PUSH2 0x17C6 JUMP JUMPDEST SWAP1 POP PUSH1 0x3 DUP2 SWAP1 DUP1 PUSH1 0x1 DUP2 SLOAD ADD DUP1 DUP3 SSTORE DUP1 SWAP2 POP POP PUSH1 0x1 SWAP1 SUB SWAP1 PUSH0 MSTORE PUSH1 0x20 PUSH0 KECCAK256 SWAP1 PUSH1 0x20 SWAP2 DUP3 DUP3 DIV ADD SWAP2 SWAP1 MOD SWAP1 SWAP2 SWAP1 SWAP2 SWAP1 SWAP2 PUSH2 0x100 EXP DUP2 SLOAD DUP2 PUSH1 0xFF MUL NOT AND SWAP1 DUP4 PUSH1 0xFF AND MUL OR SWAP1 SSTORE POP PUSH2 0x4BC PUSH1 0x3 DUP1 SLOAD DUP1 PUSH1 0x20 MUL PUSH1 0x20 ADD PUSH1 0x40 MLOAD SWAP1 DUP2 ADD PUSH1 0x40 MSTORE DUP1 SWAP3 SWAP2 SWAP1 DUP2 DUP2 MSTORE PUSH1 0x20 ADD DUP3 DUP1 SLOAD DUP1 ISZERO PUSH2 0x4B2 JUMPI PUSH1 0x20 MUL DUP3 ADD SWAP2 SWAP1 PUSH0 MSTORE PUSH1 0x20 PUSH0 KECCAK256 SWAP1 PUSH0 SWAP1 JUMPDEST DUP3 DUP3 SWAP1 SLOAD SWAP1 PUSH2 0x100 EXP SWAP1 DIV PUSH1 0xFF AND PUSH1 0xFF AND DUP2 MSTORE PUSH1 0x20 ADD SWAP1 PUSH1 0x1 ADD SWAP1 PUSH1 0x20 DUP3 PUSH0 ADD DIV SWAP3 DUP4 ADD SWAP3 PUSH1 0x1 SUB DUP3 MUL SWAP2 POP DUP1 DUP5 GT PUSH2 0x47C JUMPI SWAP1 POP JUMPDEST POP POP POP POP POP PUSH2 0x16EC JUMP JUMPDEST SWAP2 POP PUSH32 0x74719E1845AAC9A5B808B73F76F15E0DED61FD1F03FC0CD802E98E8E1D2299FE DUP2 PUSH1 0x40 MLOAD PUSH2 0x4ED SWAP2 SWAP1 PUSH2 0x252B JUMP JUMPDEST PUSH1 0x40 MLOAD DUP1 SWAP2 SUB SWAP1 LOG1 POP PUSH2 0x3E7 JUMP JUMPDEST PUSH1 0x3 PUSH1 0x5 SWAP1 DUP1 SLOAD PUSH2 0x50D SWAP3 SWAP2 SWAP1 PUSH2 0x2122 JUMP JUMPDEST POP PUSH2 0x5BF PUSH1 0x5 DUP1 SLOAD DUP1 PUSH1 0x20 MUL PUSH1 0x20 ADD PUSH1 0x40 MLOAD SWAP1 DUP2 ADD PUSH1 0x40 MSTORE DUP1 SWAP3 SWAP2 SWAP1 DUP2 DUP2 MSTORE PUSH1 0x20 ADD DUP3 DUP1 SLOAD DUP1 ISZERO PUSH2 0x57F JUMPI PUSH1 0x20 MUL DUP3 ADD SWAP2 SWAP1 PUSH0 MSTORE PUSH1 0x20 PUSH0 KECCAK256 SWAP1 PUSH0 SWAP1 JUMPDEST DUP3 DUP3 SWAP1 SLOAD SWAP1 PUSH2 0x100 EXP SWAP1 DIV PUSH1 0xFF AND PUSH1 0xFF AND DUP2 MSTORE PUSH1 0x20 ADD SWAP1 PUSH1 0x1 ADD SWAP1 PUSH1 0x20 DUP3 PUSH0 ADD DIV SWAP3 DUP4 ADD SWAP3 PUSH1 0x1 SUB DUP3 MUL SWAP2 POP DUP1 DUP5 GT PUSH2 0x549 JUMPI SWAP1 POP JUMPDEST POP POP POP POP POP PUSH1 0x40 MLOAD DUP1 PUSH1 0x40 ADD PUSH1 0x40 MSTORE DUP1 PUSH1 0x10 DUP2 MSTORE PUSH1 0x20 ADD PUSH32 0x4C6173742042616E6B2048616E643A2000000000000000000000000000000000 DUP2 MSTORE POP PUSH2 0x1891 JUMP JUMPDEST PUSH1 0x7 SWAP1 DUP2 PUSH2 0x5CD SWAP2 SWAP1 PUSH2 0x2933 JUMP JUMPDEST POP PUSH0 JUMPDEST PUSH1 0x1 DUP1 SLOAD SWAP1 POP DUP2 LT ISZERO PUSH2 0x8B0 JUMPI PUSH0 PUSH2 0x67A PUSH1 0x1 DUP4 DUP2 SLOAD DUP2 LT PUSH2 0x5F5 JUMPI PUSH2 0x5F4 PUSH2 0x2A02 JUMP JUMPDEST JUMPDEST SWAP1 PUSH0 MSTORE PUSH1 0x20 PUSH0 KECCAK256 SWAP1 PUSH1 0x4 MUL ADD PUSH1 0x2 ADD DUP1 SLOAD DUP1 PUSH1 0x20 MUL PUSH1 0x20 ADD PUSH1 0x40 MLOAD SWAP1 DUP2 ADD PUSH1 0x40 MSTORE DUP1 SWAP3 SWAP2 SWAP1 DUP2 DUP2 MSTORE PUSH1 0x20 ADD DUP3 DUP1 SLOAD DUP1 ISZERO PUSH2 0x670 JUMPI PUSH1 0x20 MUL DUP3 ADD SWAP2 SWAP1 PUSH0 MSTORE PUSH1 0x20 PUSH0 KECCAK256 SWAP1 PUSH0 SWAP1 JUMPDEST DUP3 DUP3 SWAP1 SLOAD SWAP1 PUSH2 0x100 EXP SWAP1 DIV PUSH1 0xFF AND PUSH1 0xFF AND DUP2 MSTORE PUSH1 0x20 ADD SWAP1 PUSH1 0x1 ADD SWAP1 PUSH1 0x20 DUP3 PUSH0 ADD DIV SWAP3 DUP4 ADD SWAP3 PUSH1 0x1 SUB DUP3 MUL SWAP2 POP DUP1 DUP5 GT PUSH2 0x63A JUMPI SWAP1 POP JUMPDEST POP POP POP POP POP PUSH2 0x16EC JUMP JUMPDEST SWAP1 POP PUSH1 0x1 DUP3 DUP2 SLOAD DUP2 LT PUSH2 0x690 JUMPI PUSH2 0x68F PUSH2 0x2A02 JUMP JUMPDEST JUMPDEST SWAP1 PUSH0 MSTORE PUSH1 0x20 PUSH0 KECCAK256 SWAP1 PUSH1 0x4 MUL ADD PUSH1 0x3 ADD PUSH1 0x1 SWAP1 SLOAD SWAP1 PUSH2 0x100 EXP SWAP1 DIV PUSH1 0xFF AND ISZERO DUP1 ISZERO PUSH2 0x6CD JUMPI POP DUP3 PUSH1 0xFF AND DUP2 PUSH1 0xFF AND GT DUP1 PUSH2 0x6CC JUMPI POP PUSH1 0x15 DUP4 PUSH1 0xFF AND GT JUMPDEST JUMPDEST ISZERO PUSH2 0x8A2 JUMPI PUSH1 0x1 DUP3 DUP2 SLOAD DUP2 LT PUSH2 0x6E6 JUMPI PUSH2 0x6E5 PUSH2 0x2A02 JUMP JUMPDEST JUMPDEST SWAP1 PUSH0 MSTORE PUSH1 0x20 PUSH0 KECCAK256 SWAP1 PUSH1 0x4 MUL ADD PUSH0 ADD PUSH0 SWAP1 SLOAD SWAP1 PUSH2 0x100 EXP SWAP1 DIV PUSH20 0xFFFFFFFFFFFFFFFFFFFFFFFFFFFFFFFFFFFFFFFF AND PUSH20 0xFFFFFFFFFFFFFFFFFFFFFFFFFFFFFFFFFFFFFFFF AND PUSH2 0x8FC PUSH1 0x2 PUSH1 0x1 DUP6 DUP2 SLOAD DUP2 LT PUSH2 0x743 JUMPI PUSH2 0x742 PUSH2 0x2A02 JUMP JUMPDEST JUMPDEST SWAP1 PUSH0 MSTORE PUSH1 0x20 PUSH0 KECCAK256 SWAP1 PUSH1 0x4 MUL ADD PUSH1 0x1 ADD SLOAD PUSH2 0x75D SWAP2 SWAP1 PUSH2 0x2A5C JUMP JUMPDEST SWAP1 DUP2 ISZERO MUL SWAP1 PUSH1 0x40 MLOAD PUSH0 PUSH1 0x40 MLOAD DUP1 DUP4 SUB DUP2 DUP6 DUP9 DUP9 CALL SWAP4 POP POP POP POP ISZERO DUP1 ISZERO PUSH2 0x785 JUMPI RETURNDATASIZE PUSH0 DUP1 RETURNDATACOPY RETURNDATASIZE PUSH0 REVERT JUMPDEST POP PUSH1 0x6 PUSH1 0x1 DUP4 DUP2 SLOAD DUP2 LT PUSH2 0x79C JUMPI PUSH2 0x79B PUSH2 0x2A02 JUMP JUMPDEST JUMPDEST SWAP1 PUSH0 MSTORE PUSH1 0x20 PUSH0 KECCAK256 SWAP1 PUSH1 0x4 MUL ADD PUSH0 ADD PUSH0 SWAP1 SLOAD SWAP1 PUSH2 0x100 EXP SWAP1 DIV PUSH20 0xFFFFFFFFFFFFFFFFFFFFFFFFFFFFFFFFFFFFFFFF AND SWAP1 DUP1 PUSH1 0x1 DUP2 SLOAD ADD DUP1 DUP3 SSTORE DUP1 SWAP2 POP POP PUSH1 0x1 SWAP1 SUB SWAP1 PUSH0 MSTORE PUSH1 0x20 PUSH0 KECCAK256 ADD PUSH0 SWAP1 SWAP2 SWAP1 SWAP2 SWAP1 SWAP2 PUSH2 0x100 EXP DUP2 SLOAD DUP2 PUSH20 0xFFFFFFFFFFFFFFFFFFFFFFFFFFFFFFFFFFFFFFFF MUL NOT AND SWAP1 DUP4 PUSH20 0xFFFFFFFFFFFFFFFFFFFFFFFFFFFFFFFFFFFFFFFF AND MUL OR SWAP1 SSTORE POP PUSH32 0xE9B0A743935D9854AC97B39452742C48F05E62B1EE44825328D7BC53901B03B1 PUSH1 0x1 DUP4 DUP2 SLOAD DUP2 LT PUSH2 0x85C JUMPI PUSH2 0x85B PUSH2 0x2A02 JUMP JUMPDEST JUMPDEST SWAP1 PUSH0 MSTORE PUSH1 0x20 PUSH0 KECCAK256 SWAP1 PUSH1 0x4 MUL ADD PUSH0 ADD PUSH0 SWAP1 SLOAD SWAP1 PUSH2 0x100 EXP SWAP1 DIV PUSH20 0xFFFFFFFFFFFFFFFFFFFFFFFFFFFFFFFFFFFFFFFF AND DUP3 PUSH1 0x40 MLOAD PUSH2 0x899 SWAP3 SWAP2 SWAP1 PUSH2 0x2A9D JUMP JUMPDEST PUSH1 0x40 MLOAD DUP1 SWAP2 SUB SWAP1 LOG1 JUMPDEST POP DUP1 DUP1 PUSH1 0x1 ADD SWAP2 POP POP PUSH2 0x5D0 JUMP JUMPDEST POP PUSH2 0x93D PUSH1 0x6 DUP1 SLOAD DUP1 PUSH1 0x20 MUL PUSH1 0x20 ADD PUSH1 0x40 MLOAD SWAP1 DUP2 ADD PUSH1 0x40 MSTORE DUP1 SWAP3 SWAP2 SWAP1 DUP2 DUP2 MSTORE PUSH1 0x20 ADD DUP3 DUP1 SLOAD DUP1 ISZERO PUSH2 0x933 JUMPI PUSH1 0x20 MUL DUP3 ADD SWAP2 SWAP1 PUSH0 MSTORE PUSH1 0x20 PUSH0 KECCAK256 SWAP1 JUMPDEST DUP2 PUSH0 SWAP1 SLOAD SWAP1 PUSH2 0x100 EXP SWAP1 DIV PUSH20 0xFFFFFFFFFFFFFFFFFFFFFFFFFFFFFFFFFFFFFFFF AND PUSH20 0xFFFFFFFFFFFFFFFFFFFFFFFFFFFFFFFFFFFFFFFF AND DUP2 MSTORE PUSH1 0x20 ADD SWAP1 PUSH1 0x1 ADD SWAP1 DUP1 DUP4 GT PUSH2 0x8EA JUMPI JUMPDEST POP POP POP POP POP PUSH2 0x1A85 JUMP JUMPDEST PUSH1 0x8 SWAP1 DUP2 PUSH2 0x94B SWAP2 SWAP1 PUSH2 0x2933 JUMP JUMPDEST POP PUSH2 0x954 PUSH2 0x1CC4 JUMP JUMPDEST PUSH1 0x7 PUSH1 0x6 DUP2 DUP1 SLOAD PUSH2 0x964 SWAP1 PUSH2 0x2766 JUMP JUMPDEST DUP1 PUSH1 0x1F ADD PUSH1 0x20 DUP1 SWAP2 DIV MUL PUSH1 0x20 ADD PUSH1 0x40 MLOAD SWAP1 DUP2 ADD PUSH1 0x40 MSTORE DUP1 SWAP3 SWAP2 SWAP1 DUP2 DUP2 MSTORE PUSH1 0x20 ADD DUP3 DUP1 SLOAD PUSH2 0x990 SWAP1 PUSH2 0x2766 JUMP JUMPDEST DUP1 ISZERO PUSH2 0x9DB JUMPI DUP1 PUSH1 0x1F LT PUSH2 0x9B2 JUMPI PUSH2 0x100 DUP1 DUP4 SLOAD DIV MUL DUP4 MSTORE SWAP2 PUSH1 0x20 ADD SWAP2 PUSH2 0x9DB JUMP JUMPDEST DUP3 ADD SWAP2 SWAP1 PUSH0 MSTORE PUSH1 0x20 PUSH0 KECCAK256 SWAP1 JUMPDEST DUP2 SLOAD DUP2 MSTORE SWAP1 PUSH1 0x1 ADD SWAP1 PUSH1 0x20 ADD DUP1 DUP4 GT PUSH2 0x9BE JUMPI DUP3 SWAP1 SUB PUSH1 0x1F AND DUP3 ADD SWAP2 JUMPDEST POP POP POP POP POP SWAP2 POP DUP1 DUP1 SLOAD DUP1 PUSH1 0x20 MUL PUSH1 0x20 ADD PUSH1 0x40 MLOAD SWAP1 DUP2 ADD PUSH1 0x40 MSTORE DUP1 SWAP3 SWAP2 SWAP1 DUP2 DUP2 MSTORE PUSH1 0x20 ADD DUP3 DUP1 SLOAD DUP1 ISZERO PUSH2 0xA60 JUMPI PUSH1 0x20 MUL DUP3 ADD SWAP2 SWAP1 PUSH0 MSTORE PUSH1 0x20 PUSH0 KECCAK256 SWAP1 JUMPDEST DUP2 PUSH0 SWAP1 SLOAD SWAP1 PUSH2 0x100 EXP SWAP1 DIV PUSH20 0xFFFFFFFFFFFFFFFFFFFFFFFFFFFFFFFFFFFFFFFF AND PUSH20 0xFFFFFFFFFFFFFFFFFFFFFFFFFFFFFFFFFFFFFFFF AND DUP2 MSTORE PUSH1 0x20 ADD SWAP1 PUSH1 0x1 ADD SWAP1 DUP1 DUP4 GT PUSH2 0xA17 JUMPI JUMPDEST POP POP POP POP POP SWAP1 POP SWAP3 POP SWAP3 POP POP SWAP1 SWAP2 JUMP JUMPDEST PUSH1 0x5 DUP2 DUP2 SLOAD DUP2 LT PUSH2 0xA7F JUMPI PUSH0 DUP1 REVERT JUMPDEST SWAP1 PUSH0 MSTORE PUSH1 0x20 PUSH0 KECCAK256 SWAP1 PUSH1 0x20 SWAP2 DUP3 DUP3 DIV ADD SWAP2 SWAP1 MOD SWAP2 POP SLOAD SWAP1 PUSH2 0x100 EXP SWAP1 DIV PUSH1 0xFF AND DUP2 JUMP JUMPDEST PUSH1 0x8 DUP1 SLOAD PUSH2 0xAAE SWAP1 PUSH2 0x2766 JUMP JUMPDEST DUP1 PUSH1 0x1F ADD PUSH1 0x20 DUP1 SWAP2 DIV MUL PUSH1 0x20 ADD PUSH1 0x40 MLOAD SWAP1 DUP2 ADD PUSH1 0x40 MSTORE DUP1 SWAP3 SWAP2 SWAP1 DUP2 DUP2 MSTORE PUSH1 0x20 ADD DUP3 DUP1 SLOAD PUSH2 0xADA SWAP1 PUSH2 0x2766 JUMP JUMPDEST DUP1 ISZERO PUSH2 0xB25 JUMPI DUP1 PUSH1 0x1F LT PUSH2 0xAFC JUMPI PUSH2 0x100 DUP1 DUP4 SLOAD DIV MUL DUP4 MSTORE SWAP2 PUSH1 0x20 ADD SWAP2 PUSH2 0xB25 JUMP JUMPDEST DUP3 ADD SWAP2 SWAP1 PUSH0 MSTORE PUSH1 0x20 PUSH0 KECCAK256 SWAP1 JUMPDEST DUP2 SLOAD DUP2 MSTORE SWAP1 PUSH1 0x1 ADD SWAP1 PUSH1 0x20 ADD DUP1 DUP4 GT PUSH2 0xB08 JUMPI DUP3 SWAP1 SUB PUSH1 0x1F AND DUP3 ADD SWAP2 JUMPDEST POP POP POP POP POP DUP2 JUMP JUMPDEST PUSH1 0x3 DUP2 DUP2 SLOAD DUP2 LT PUSH2 0xB3C JUMPI PUSH0 DUP1 REVERT JUMPDEST SWAP1 PUSH0 MSTORE PUSH1 0x20 PUSH0 KECCAK256 SWAP1 PUSH1 0x20 SWAP2 DUP3 DUP3 DIV ADD SWAP2 SWAP1 MOD SWAP2 POP SLOAD SWAP1 PUSH2 0x100 EXP SWAP1 DIV PUSH1 0xFF AND DUP2 JUMP JUMPDEST PUSH1 0x4 PUSH0 SWAP1 SLOAD SWAP1 PUSH2 0x100 EXP SWAP1 DIV PUSH20 0xFFFFFFFFFFFFFFFFFFFFFFFFFFFFFFFFFFFFFFFF AND DUP2 JUMP JUMPDEST PUSH1 0x1 DUP2 DUP2 SLOAD DUP2 LT PUSH2 0xB97 JUMPI PUSH2 0xB96 PUSH2 0x2A02 JUMP JUMPDEST JUMPDEST SWAP1 PUSH0 MSTORE PUSH1 0x20 PUSH0 KECCAK256 SWAP1 PUSH1 0x4 MUL ADD PUSH0 ADD PUSH0 SWAP1 SLOAD SWAP1 PUSH2 0x100 EXP SWAP1 DIV PUSH20 0xFFFFFFFFFFFFFFFFFFFFFFFFFFFFFFFFFFFFFFFF AND PUSH20 0xFFFFFFFFFFFFFFFFFFFFFFFFFFFFFFFFFFFFFFFF AND CALLER PUSH20 0xFFFFFFFFFFFFFFFFFFFFFFFFFFFFFFFFFFFFFFFF AND EQ PUSH2 0xC32 JUMPI PUSH1 0x40 MLOAD PUSH32 0x8C379A000000000000000000000000000000000000000000000000000000000 DUP2 MSTORE PUSH1 0x4 ADD PUSH2 0xC29 SWAP1 PUSH2 0x2B0E JUMP JUMPDEST PUSH1 0x40 MLOAD DUP1 SWAP2 SUB SWAP1 REVERT JUMPDEST PUSH0 PUSH1 0x1 DUP3 DUP2 SLOAD DUP2 LT PUSH2 0xC47 JUMPI PUSH2 0xC46 PUSH2 0x2A02 JUMP JUMPDEST JUMPDEST SWAP1 PUSH0 MSTORE PUSH1 0x20 PUSH0 KECCAK256 SWAP1 PUSH1 0x4 MUL ADD PUSH1 0x3 ADD PUSH0 PUSH2 0x100 EXP DUP2 SLOAD DUP2 PUSH1 0xFF MUL NOT AND SWAP1 DUP4 ISZERO ISZERO MUL OR SWAP1 SSTORE POP POP JUMP JUMPDEST PUSH1 0x6 DUP2 DUP2 SLOAD DUP2 LT PUSH2 0xC7E JUMPI PUSH0 DUP1 REVERT JUMPDEST SWAP1 PUSH0 MSTORE PUSH1 0x20 PUSH0 KECCAK256 ADD PUSH0 SWAP2 POP SLOAD SWAP1 PUSH2 0x100 EXP SWAP1 DIV PUSH20 0xFFFFFFFFFFFFFFFFFFFFFFFFFFFFFFFFFFFFFFFF AND DUP2 JUMP JUMPDEST PUSH1 0x60 PUSH0 PUSH1 0x1 DUP1 DUP1 SLOAD SWAP1 POP PUSH2 0xCBE SWAP2 SWAP1 PUSH2 0x2B2C JUMP JUMPDEST PUSH8 0xFFFFFFFFFFFFFFFF DUP2 GT ISZERO PUSH2 0xCD7 JUMPI PUSH2 0xCD6 PUSH2 0x270C JUMP JUMPDEST JUMPDEST PUSH1 0x40 MLOAD SWAP1 DUP1 DUP3 MSTORE DUP1 PUSH1 0x20 MUL PUSH1 0x20 ADD DUP3 ADD PUSH1 0x40 MSTORE DUP1 ISZERO PUSH2 0xD0A JUMPI DUP2 PUSH1 0x20 ADD JUMPDEST PUSH1 0x60 DUP2 MSTORE PUSH1 0x20 ADD SWAP1 PUSH1 0x1 SWAP1 SUB SWAP1 DUP2 PUSH2 0xCF5 JUMPI SWAP1 POP JUMPDEST POP SWAP1 POP PUSH2 0xDBE PUSH1 0x3 DUP1 SLOAD DUP1 PUSH1 0x20 MUL PUSH1 0x20 ADD PUSH1 0x40 MLOAD SWAP1 DUP2 ADD PUSH1 0x40 MSTORE DUP1 SWAP3 SWAP2 SWAP1 DUP2 DUP2 MSTORE PUSH1 0x20 ADD DUP3 DUP1 SLOAD DUP1 ISZERO PUSH2 0xD7E JUMPI PUSH1 0x20 MUL DUP3 ADD SWAP2 SWAP1 PUSH0 MSTORE PUSH1 0x20 PUSH0 KECCAK256 SWAP1 PUSH0 SWAP1 JUMPDEST DUP3 DUP3 SWAP1 SLOAD SWAP1 PUSH2 0x100 EXP SWAP1 DIV PUSH1 0xFF AND PUSH1 0xFF AND DUP2 MSTORE PUSH1 0x20 ADD SWAP1 PUSH1 0x1 ADD SWAP1 PUSH1 0x20 DUP3 PUSH0 ADD DIV SWAP3 DUP4 ADD SWAP3 PUSH1 0x1 SUB DUP3 MUL SWAP2 POP DUP1 DUP5 GT PUSH2 0xD48 JUMPI SWAP1 POP JUMPDEST POP POP POP POP POP PUSH1 0x40 MLOAD DUP1 PUSH1 0x40 ADD PUSH1 0x40 MSTORE DUP1 PUSH1 0x6 DUP2 MSTORE PUSH1 0x20 ADD PUSH32 0x42616E6B3A200000000000000000000000000000000000000000000000000000 DUP2 MSTORE POP PUSH2 0x1891 JUMP JUMPDEST DUP2 PUSH0 DUP2 MLOAD DUP2 LT PUSH2 0xDD1 JUMPI PUSH2 0xDD0 PUSH2 0x2A02 JUMP JUMPDEST JUMPDEST PUSH1 0x20 MUL PUSH1 0x20 ADD ADD DUP2 SWAP1 MSTORE POP PUSH0 JUMPDEST PUSH1 0x1 DUP1 SLOAD SWAP1 POP DUP2 LT ISZERO PUSH2 0xEF2 JUMPI PUSH2 0xEBB PUSH1 0x1 DUP3 DUP2 SLOAD DUP2 LT PUSH2 0xE02 JUMPI PUSH2 0xE01 PUSH2 0x2A02 JUMP JUMPDEST JUMPDEST SWAP1 PUSH0 MSTORE PUSH1 0x20 PUSH0 KECCAK256 SWAP1 PUSH1 0x4 MUL ADD PUSH1 0x2 ADD DUP1 SLOAD DUP1 PUSH1 0x20 MUL PUSH1 0x20 ADD PUSH1 0x40 MLOAD SWAP1 DUP2 ADD PUSH1 0x40 MSTORE DUP1 SWAP3 SWAP2 SWAP1 DUP2 DUP2 MSTORE PUSH1 0x20 ADD DUP3 DUP1 SLOAD DUP1 ISZERO PUSH2 0xE7D JUMPI PUSH1 0x20 MUL DUP3 ADD SWAP2 SWAP1 PUSH0 MSTORE PUSH1 0x20 PUSH0 KECCAK256 SWAP1 PUSH0 SWAP1 JUMPDEST DUP3 DUP3 SWAP1 SLOAD SWAP1 PUSH2 0x100 EXP SWAP1 DIV PUSH1 0xFF AND PUSH1 0xFF AND DUP2 MSTORE PUSH1 0x20 ADD SWAP1 PUSH1 0x1 ADD SWAP1 PUSH1 0x20 DUP3 PUSH0 ADD DIV SWAP3 DUP4 ADD SWAP3 PUSH1 0x1 SUB DUP3 MUL SWAP2 POP DUP1 DUP5 GT PUSH2 0xE47 JUMPI SWAP1 POP JUMPDEST POP POP POP POP POP PUSH2 0xE97 PUSH1 0x1 DUP5 PUSH2 0xE92 SWAP2 SWAP1 PUSH2 0x2B2C JUMP JUMPDEST PUSH2 0x1CEF JUMP JUMPDEST PUSH1 0x40 MLOAD PUSH1 0x20 ADD PUSH2 0xEA7 SWAP2 SWAP1 PUSH2 0x2C2D JUMP JUMPDEST PUSH1 0x40 MLOAD PUSH1 0x20 DUP2 DUP4 SUB SUB DUP2 MSTORE SWAP1 PUSH1 0x40 MSTORE PUSH2 0x1891 JUMP JUMPDEST DUP3 PUSH1 0x1 DUP4 PUSH2 0xEC9 SWAP2 SWAP1 PUSH2 0x2B2C JUMP JUMPDEST DUP2 MLOAD DUP2 LT PUSH2 0xEDA JUMPI PUSH2 0xED9 PUSH2 0x2A02 JUMP JUMPDEST JUMPDEST PUSH1 0x20 MUL PUSH1 0x20 ADD ADD DUP2 SWAP1 MSTORE POP DUP1 DUP1 PUSH1 0x1 ADD SWAP2 POP POP PUSH2 0xDDE JUMP JUMPDEST POP DUP1 SWAP2 POP POP SWAP1 JUMP JUMPDEST PUSH0 PUSH1 0x2 SLOAD GT PUSH2 0xF3E JUMPI PUSH1 0x40 MLOAD PUSH32 0x8C379A000000000000000000000000000000000000000000000000000000000 DUP2 MSTORE PUSH1 0x4 ADD PUSH2 0xF35 SWAP1 PUSH2 0x2CA3 JUMP JUMPDEST PUSH1 0x40 MLOAD DUP1 SWAP2 SUB SWAP1 REVERT JUMPDEST PUSH2 0xF46 PUSH2 0x1E4D JUMP JUMPDEST PUSH0 JUMPDEST PUSH1 0x1 DUP1 SLOAD SWAP1 POP DUP2 LT ISZERO PUSH2 0x1038 JUMPI PUSH1 0x1 DUP2 DUP2 SLOAD DUP2 LT PUSH2 0xF69 JUMPI PUSH2 0xF68 PUSH2 0x2A02 JUMP JUMPDEST JUMPDEST SWAP1 PUSH0 MSTORE PUSH1 0x20 PUSH0 KECCAK256 SWAP1 PUSH1 0x4 MUL ADD PUSH1 0x2 ADD PUSH2 0xF80 PUSH2 0x17C6 JUMP JUMPDEST SWAP1 DUP1 PUSH1 0x1 DUP2 SLOAD ADD DUP1 DUP3 SSTORE DUP1 SWAP2 POP POP PUSH1 0x1 SWAP1 SUB SWAP1 PUSH0 MSTORE PUSH1 0x20 PUSH0 KECCAK256 SWAP1 PUSH1 0x20 SWAP2 DUP3 DUP3 DIV ADD SWAP2 SWAP1 MOD SWAP1 SWAP2 SWAP1 SWAP2 SWAP1 SWAP2 PUSH2 0x100 EXP DUP2 SLOAD DUP2 PUSH1 0xFF MUL NOT AND SWAP1 DUP4 PUSH1 0xFF AND MUL OR SWAP1 SSTORE POP PUSH1 0x1 DUP2 DUP2 SLOAD DUP2 LT PUSH2 0xFD4 JUMPI PUSH2 0xFD3 PUSH2 0x2A02 JUMP JUMPDEST JUMPDEST SWAP1 PUSH0 MSTORE PUSH1 0x20 PUSH0 KECCAK256 SWAP1 PUSH1 0x4 MUL ADD PUSH1 0x2 ADD PUSH2 0xFEB PUSH2 0x17C6 JUMP JUMPDEST SWAP1 DUP1 PUSH1 0x1 DUP2 SLOAD ADD DUP1 DUP3 SSTORE DUP1 SWAP2 POP POP PUSH1 0x1 SWAP1 SUB SWAP1 PUSH0 MSTORE PUSH1 0x20 PUSH0 KECCAK256 SWAP1 PUSH1 0x20 SWAP2 DUP3 DUP3 DIV ADD SWAP2 SWAP1 MOD SWAP1 SWAP2 SWAP1 SWAP2 SWAP1 SWAP2 PUSH2 0x100 EXP DUP2 SLOAD DUP2 PUSH1 0xFF MUL NOT AND SWAP1 DUP4 PUSH1 0xFF AND MUL OR SWAP1 SSTORE POP DUP1 DUP1 PUSH1 0x1 ADD SWAP2 POP POP PUSH2 0xF48 JUMP JUMPDEST POP PUSH1 0x3 PUSH2 0x1043 PUSH2 0x17C6 JUMP JUMPDEST SWAP1 DUP1 PUSH1 0x1 DUP2 SLOAD ADD DUP1 DUP3 SSTORE DUP1 SWAP2 POP POP PUSH1 0x1 SWAP1 SUB SWAP1 PUSH0 MSTORE PUSH1 0x20 PUSH0 KECCAK256 SWAP1 PUSH1 0x20 SWAP2 DUP3 DUP3 DIV ADD SWAP2 SWAP1 MOD SWAP1 SWAP2 SWAP1 SWAP2 SWAP1 SWAP2 PUSH2 0x100 EXP DUP2 SLOAD DUP2 PUSH1 0xFF MUL NOT AND SWAP1 DUP4 PUSH1 0xFF AND MUL OR SWAP1 SSTORE POP PUSH1 0x3 PUSH2 0x108D PUSH2 0x17C6 JUMP JUMPDEST SWAP1 DUP1 PUSH1 0x1 DUP2 SLOAD ADD DUP1 DUP3 SSTORE DUP1 SWAP2 POP POP PUSH1 0x1 SWAP1 SUB SWAP1 PUSH0 MSTORE PUSH1 0x20 PUSH0 KECCAK256 SWAP1 PUSH1 0x20 SWAP2 DUP3 DUP3 DIV ADD SWAP2 SWAP1 MOD SWAP1 SWAP2 SWAP1 SWAP2 SWAP1 SWAP2 PUSH2 0x100 EXP DUP2 SLOAD DUP2 PUSH1 0xFF MUL NOT AND SWAP1 DUP4 PUSH1 0xFF AND MUL OR SWAP1 SSTORE POP JUMP JUMPDEST PUSH1 0x7 DUP1 SLOAD PUSH2 0x10DC SWAP1 PUSH2 0x2766 JUMP JUMPDEST DUP1 PUSH1 0x1F ADD PUSH1 0x20 DUP1 SWAP2 DIV MUL PUSH1 0x20 ADD PUSH1 0x40 MLOAD SWAP1 DUP2 ADD PUSH1 0x40 MSTORE DUP1 SWAP3 SWAP2 SWAP1 DUP2 DUP2 MSTORE PUSH1 0x20 ADD DUP3 DUP1 SLOAD PUSH2 0x1108 SWAP1 PUSH2 0x2766 JUMP JUMPDEST DUP1 ISZERO PUSH2 0x1153 JUMPI DUP1 PUSH1 0x1F LT PUSH2 0x112A JUMPI PUSH2 0x100 DUP1 DUP4 SLOAD DIV MUL DUP4 MSTORE SWAP2 PUSH1 0x20 ADD SWAP2 PUSH2 0x1153 JUMP JUMPDEST DUP3 ADD SWAP2 SWAP1 PUSH0 MSTORE PUSH1 0x20 PUSH0 KECCAK256 SWAP1 JUMPDEST DUP2 SLOAD DUP2 MSTORE SWAP1 PUSH1 0x1 ADD SWAP1 PUSH1 0x20 ADD DUP1 DUP4 GT PUSH2 0x1136 JUMPI DUP3 SWAP1 SUB PUSH1 0x1F AND DUP3 ADD SWAP2 JUMPDEST POP POP POP POP POP DUP2 JUMP JUMPDEST PUSH1 0x1 DUP2 DUP2 SLOAD DUP2 LT PUSH2 0x116F JUMPI PUSH2 0x116E PUSH2 0x2A02 JUMP JUMPDEST JUMPDEST SWAP1 PUSH0 MSTORE PUSH1 0x20 PUSH0 KECCAK256 SWAP1 PUSH1 0x4 MUL ADD PUSH0 ADD PUSH0 SWAP1 SLOAD SWAP1 PUSH2 0x100 EXP SWAP1 DIV PUSH20 0xFFFFFFFFFFFFFFFFFFFFFFFFFFFFFFFFFFFFFFFF AND PUSH20 0xFFFFFFFFFFFFFFFFFFFFFFFFFFFFFFFFFFFFFFFF AND CALLER PUSH20 0xFFFFFFFFFFFFFFFFFFFFFFFFFFFFFFFFFFFFFFFF AND EQ PUSH2 0x120A JUMPI PUSH1 0x40 MLOAD PUSH32 0x8C379A000000000000000000000000000000000000000000000000000000000 DUP2 MSTORE PUSH1 0x4 ADD PUSH2 0x1201 SWAP1 PUSH2 0x2B0E JUMP JUMPDEST PUSH1 0x40 MLOAD DUP1 SWAP2 SUB SWAP1 REVERT JUMPDEST PUSH1 0x1 DUP2 DUP2 SLOAD DUP2 LT PUSH2 0x121E JUMPI PUSH2 0x121D PUSH2 0x2A02 JUMP JUMPDEST JUMPDEST SWAP1 PUSH0 MSTORE PUSH1 0x20 PUSH0 KECCAK256 SWAP1 PUSH1 0x4 MUL ADD PUSH1 0x3 ADD PUSH0 SWAP1 SLOAD SWAP1 PUSH2 0x100 EXP SWAP1 DIV PUSH1 0xFF AND PUSH2 0x1279 JUMPI PUSH1 0x40 MLOAD PUSH32 0x8C379A000000000000000000000000000000000000000000000000000000000 DUP2 MSTORE PUSH1 0x4 ADD PUSH2 0x1270 SWAP1 PUSH2 0x2D0B JUMP JUMPDEST PUSH1 0x40 MLOAD DUP1 SWAP2 SUB SWAP1 REVERT JUMPDEST PUSH1 0x1 DUP2 DUP2 SLOAD DUP2 LT PUSH2 0x128D JUMPI PUSH2 0x128C PUSH2 0x2A02 JUMP JUMPDEST JUMPDEST SWAP1 PUSH0 MSTORE PUSH1 0x20 PUSH0 KECCAK256 SWAP1 PUSH1 0x4 MUL ADD PUSH1 0x3 ADD PUSH1 0x1 SWAP1 SLOAD SWAP1 PUSH2 0x100 EXP SWAP1 DIV PUSH1 0xFF AND ISZERO PUSH2 0x12EA JUMPI PUSH1 0x40 MLOAD PUSH32 0x8C379A000000000000000000000000000000000000000000000000000000000 DUP2 MSTORE PUSH1 0x4 ADD PUSH2 0x12E1 SWAP1 PUSH2 0x2D73 JUMP JUMPDEST PUSH1 0x40 MLOAD DUP1 SWAP2 SUB SWAP1 REVERT JUMPDEST PUSH0 PUSH2 0x12F3 PUSH2 0x17C6 JUMP JUMPDEST SWAP1 POP PUSH1 0x1 DUP3 DUP2 SLOAD DUP2 LT PUSH2 0x1309 JUMPI PUSH2 0x1308 PUSH2 0x2A02 JUMP JUMPDEST JUMPDEST SWAP1 PUSH0 MSTORE PUSH1 0x20 PUSH0 KECCAK256 SWAP1 PUSH1 0x4 MUL ADD PUSH1 0x2 ADD DUP2 SWAP1 DUP1 PUSH1 0x1 DUP2 SLOAD ADD DUP1 DUP3 SSTORE DUP1 SWAP2 POP POP PUSH1 0x1 SWAP1 SUB SWAP1 PUSH0 MSTORE PUSH1 0x20 PUSH0 KECCAK256 SWAP1 PUSH1 0x20 SWAP2 DUP3 DUP3 DIV ADD SWAP2 SWAP1 MOD SWAP1 SWAP2 SWAP1 SWAP2 SWAP1 SWAP2 PUSH2 0x100 EXP DUP2 SLOAD DUP2 PUSH1 0xFF MUL NOT AND SWAP1 DUP4 PUSH1 0xFF AND MUL OR SWAP1 SSTORE POP PUSH1 0x15 PUSH2 0x13F7 PUSH1 0x1 DUP5 DUP2 SLOAD DUP2 LT PUSH2 0x1372 JUMPI PUSH2 0x1371 PUSH2 0x2A02 JUMP JUMPDEST JUMPDEST SWAP1 PUSH0 MSTORE PUSH1 0x20 PUSH0 KECCAK256 SWAP1 PUSH1 0x4 MUL ADD PUSH1 0x2 ADD DUP1 SLOAD DUP1 PUSH1 0x20 MUL PUSH1 0x20 ADD PUSH1 0x40 MLOAD SWAP1 DUP2 ADD PUSH1 0x40 MSTORE DUP1 SWAP3 SWAP2 SWAP1 DUP2 DUP2 MSTORE PUSH1 0x20 ADD DUP3 DUP1 SLOAD DUP1 ISZERO PUSH2 0x13ED JUMPI PUSH1 0x20 MUL DUP3 ADD SWAP2 SWAP1 PUSH0 MSTORE PUSH1 0x20 PUSH0 KECCAK256 SWAP1 PUSH0 SWAP1 JUMPDEST DUP3 DUP3 SWAP1 SLOAD SWAP1 PUSH2 0x100 EXP SWAP1 DIV PUSH1 0xFF AND PUSH1 0xFF AND DUP2 MSTORE PUSH1 0x20 ADD SWAP1 PUSH1 0x1 ADD SWAP1 PUSH1 0x20 DUP3 PUSH0 ADD DIV SWAP3 DUP4 ADD SWAP3 PUSH1 0x1 SUB DUP3 MUL SWAP2 POP DUP1 DUP5 GT PUSH2 0x13B7 JUMPI SWAP1 POP JUMPDEST POP POP POP POP POP PUSH2 0x16EC JUMP JUMPDEST PUSH1 0xFF AND GT ISZERO PUSH2 0x1476 JUMPI PUSH1 0x1 DUP1 DUP4 DUP2 SLOAD DUP2 LT PUSH2 0x1415 JUMPI PUSH2 0x1414 PUSH2 0x2A02 JUMP JUMPDEST JUMPDEST SWAP1 PUSH0 MSTORE PUSH1 0x20 PUSH0 KECCAK256 SWAP1 PUSH1 0x4 MUL ADD PUSH1 0x3 ADD PUSH1 0x1 PUSH2 0x100 EXP DUP2 SLOAD DUP2 PUSH1 0xFF MUL NOT AND SWAP1 DUP4 ISZERO ISZERO MUL OR SWAP1 SSTORE POP PUSH0 PUSH1 0x1 DUP4 DUP2 SLOAD DUP2 LT PUSH2 0x1450 JUMPI PUSH2 0x144F PUSH2 0x2A02 JUMP JUMPDEST JUMPDEST SWAP1 PUSH0 MSTORE PUSH1 0x20 PUSH0 KECCAK256 SWAP1 PUSH1 0x4 MUL ADD PUSH1 0x3 ADD PUSH0 PUSH2 0x100 EXP DUP2 SLOAD DUP2 PUSH1 0xFF MUL NOT AND SWAP1 DUP4 ISZERO ISZERO MUL OR SWAP1 SSTORE POP JUMPDEST POP POP JUMP JUMPDEST PUSH1 0x4 PUSH1 0x2 SLOAD LT PUSH2 0x14BF JUMPI PUSH1 0x40 MLOAD PUSH32 0x8C379A000000000000000000000000000000000000000000000000000000000 DUP2 MSTORE PUSH1 0x4 ADD PUSH2 0x14B6 SWAP1 PUSH2 0x2DDB JUMP JUMPDEST PUSH1 0x40 MLOAD DUP1 SWAP2 SUB SWAP1 REVERT JUMPDEST DUP1 CALLVALUE EQ PUSH2 0x1501 JUMPI PUSH1 0x40 MLOAD PUSH32 0x8C379A000000000000000000000000000000000000000000000000000000000 DUP2 MSTORE PUSH1 0x4 ADD PUSH2 0x14F8 SWAP1 PUSH2 0x2E43 JUMP JUMPDEST PUSH1 0x40 MLOAD DUP1 SWAP2 SUB SWAP1 REVERT JUMPDEST PUSH1 0x1 PUSH1 0x40 MLOAD DUP1 PUSH1 0xA0 ADD PUSH1 0x40 MSTORE DUP1 CALLER PUSH20 0xFFFFFFFFFFFFFFFFFFFFFFFFFFFFFFFFFFFFFFFF AND DUP2 MSTORE PUSH1 0x20 ADD DUP4 DUP2 MSTORE PUSH1 0x20 ADD PUSH0 PUSH8 0xFFFFFFFFFFFFFFFF DUP2 GT ISZERO PUSH2 0x154A JUMPI PUSH2 0x1549 PUSH2 0x270C JUMP JUMPDEST JUMPDEST PUSH1 0x40 MLOAD SWAP1 DUP1 DUP3 MSTORE DUP1 PUSH1 0x20 MUL PUSH1 0x20 ADD DUP3 ADD PUSH1 0x40 MSTORE DUP1 ISZERO PUSH2 0x1578 JUMPI DUP2 PUSH1 0x20 ADD PUSH1 0x20 DUP3 MUL DUP1 CALLDATASIZE DUP4 CALLDATACOPY DUP1 DUP3 ADD SWAP2 POP POP SWAP1 POP JUMPDEST POP DUP2 MSTORE PUSH1 0x20 ADD PUSH1 0x1 ISZERO ISZERO DUP2 MSTORE PUSH1 0x20 ADD PUSH0 ISZERO ISZERO DUP2 MSTORE POP SWAP1 DUP1 PUSH1 0x1 DUP2 SLOAD ADD DUP1 DUP3 SSTORE DUP1 SWAP2 POP POP PUSH1 0x1 SWAP1 SUB SWAP1 PUSH0 MSTORE PUSH1 0x20 PUSH0 KECCAK256 SWAP1 PUSH1 0x4 MUL ADD PUSH0 SWAP1 SWAP2 SWAP1 SWAP2 SWAP1 SWAP2 POP PUSH0 DUP3 ADD MLOAD DUP2 PUSH0 ADD PUSH0 PUSH2 0x100 EXP DUP2 SLOAD DUP2 PUSH20 0xFFFFFFFFFFFFFFFFFFFFFFFFFFFFFFFFFFFFFFFF MUL NOT AND SWAP1 DUP4 PUSH20 0xFFFFFFFFFFFFFFFFFFFFFFFFFFFFFFFFFFFFFFFF AND MUL OR SWAP1 SSTORE POP PUSH1 0x20 DUP3 ADD MLOAD DUP2 PUSH1 0x1 ADD SSTORE PUSH1 0x40 DUP3 ADD MLOAD DUP2 PUSH1 0x2 ADD SWAP1 DUP1 MLOAD SWAP1 PUSH1 0x20 ADD SWAP1 PUSH2 0x161D SWAP3 SWAP2 SWAP1 PUSH2 0x217E JUMP JUMPDEST POP PUSH1 0x60 DUP3 ADD MLOAD DUP2 PUSH1 0x3 ADD PUSH0 PUSH2 0x100 EXP DUP2 SLOAD DUP2 PUSH1 0xFF MUL NOT AND SWAP1 DUP4 ISZERO ISZERO MUL OR SWAP1 SSTORE POP PUSH1 0x80 DUP3 ADD MLOAD DUP2 PUSH1 0x3 ADD PUSH1 0x1 PUSH2 0x100 EXP DUP2 SLOAD DUP2 PUSH1 0xFF MUL NOT AND SWAP1 DUP4 ISZERO ISZERO MUL OR SWAP1 SSTORE POP POP POP PUSH1 0x2 PUSH0 DUP2 SLOAD DUP1 SWAP3 SWAP2 SWAP1 PUSH2 0x1671 SWAP1 PUSH2 0x2E61 JUMP JUMPDEST SWAP2 SWAP1 POP SSTORE POP POP JUMP JUMPDEST PUSH1 0x1 DUP2 DUP2 SLOAD DUP2 LT PUSH2 0x1688 JUMPI PUSH0 DUP1 REVERT JUMPDEST SWAP1 PUSH0 MSTORE PUSH1 0x20 PUSH0 KECCAK256 SWAP1 PUSH1 0x4 MUL ADD PUSH0 SWAP2 POP SWAP1 POP DUP1 PUSH0 ADD PUSH0 SWAP1 SLOAD SWAP1 PUSH2 0x100 EXP SWAP1 DIV PUSH20 0xFFFFFFFFFFFFFFFFFFFFFFFFFFFFFFFFFFFFFFFF AND SWAP1 DUP1 PUSH1 0x1 ADD SLOAD SWAP1 DUP1 PUSH1 0x3 ADD PUSH0 SWAP1 SLOAD SWAP1 PUSH2 0x100 EXP SWAP1 DIV PUSH1 0xFF AND SWAP1 DUP1 PUSH1 0x3 ADD PUSH1 0x1 SWAP1 SLOAD SWAP1 PUSH2 0x100 EXP SWAP1 DIV PUSH1 0xFF AND SWAP1 POP DUP5 JUMP JUMPDEST PUSH0 DUP1 PUSH0 SWAP1 POP PUSH0 DUP1 JUMPDEST DUP5 MLOAD DUP2 LT ISZERO PUSH2 0x177D JUMPI PUSH0 PUSH1 0xD DUP7 DUP4 DUP2 MLOAD DUP2 LT PUSH2 0x1713 JUMPI PUSH2 0x1712 PUSH2 0x2A02 JUMP JUMPDEST JUMPDEST PUSH1 0x20 MUL PUSH1 0x20 ADD ADD MLOAD PUSH2 0x1725 SWAP2 SWAP1 PUSH2 0x2ED5 JUMP JUMPDEST SWAP1 POP PUSH0 DUP2 PUSH1 0xFF AND SUB PUSH2 0x1736 JUMPI PUSH1 0xD SWAP1 POP JUMPDEST PUSH1 0xA DUP2 PUSH1 0xFF AND GT ISZERO PUSH2 0x1747 JUMPI PUSH1 0xA SWAP1 POP JUMPDEST PUSH1 0x1 DUP2 PUSH1 0xFF AND SUB PUSH2 0x1761 JUMPI DUP3 DUP1 PUSH2 0x175D SWAP1 PUSH2 0x2F05 JUMP JUMPDEST SWAP4 POP POP JUMPDEST DUP1 DUP5 PUSH2 0x176D SWAP2 SWAP1 PUSH2 0x2F2D JUMP JUMPDEST SWAP4 POP POP DUP1 DUP1 PUSH1 0x1 ADD SWAP2 POP POP PUSH2 0x16F4 JUMP JUMPDEST POP JUMPDEST PUSH1 0xB DUP3 PUSH1 0xFF AND GT ISZERO DUP1 ISZERO PUSH2 0x1795 JUMPI POP PUSH0 DUP2 PUSH1 0xFF AND GT JUMPDEST ISZERO PUSH2 0x17BC JUMPI PUSH1 0xA DUP3 PUSH2 0x17A7 SWAP2 SWAP1 PUSH2 0x2F2D JUMP JUMPDEST SWAP2 POP DUP1 DUP1 PUSH2 0x17B4 SWAP1 PUSH2 0x2F61 JUMP JUMPDEST SWAP2 POP POP PUSH2 0x177F JUMP JUMPDEST DUP2 SWAP3 POP POP POP SWAP2 SWAP1 POP JUMP JUMPDEST PUSH0 DUP1 PUSH0 DUP1 SLOAD SWAP1 POP GT PUSH2 0x180D JUMPI PUSH1 0x40 MLOAD PUSH32 0x8C379A000000000000000000000000000000000000000000000000000000000 DUP2 MSTORE PUSH1 0x4 ADD PUSH2 0x1804 SWAP1 PUSH2 0x2FD2 JUMP JUMPDEST PUSH1 0x40 MLOAD DUP1 SWAP2 SUB SWAP1 REVERT JUMPDEST PUSH0 DUP1 PUSH1 0x1 PUSH0 DUP1 SLOAD SWAP1 POP PUSH2 0x1820 SWAP2 SWAP1 PUSH2 0x2FF0 JUMP JUMPDEST DUP2 SLOAD DUP2 LT PUSH2 0x1831 JUMPI PUSH2 0x1830 PUSH2 0x2A02 JUMP JUMPDEST JUMPDEST SWAP1 PUSH0 MSTORE PUSH1 0x20 PUSH0 KECCAK256 SWAP1 PUSH1 0x20 SWAP2 DUP3 DUP3 DIV ADD SWAP2 SWAP1 MOD SWAP1 SLOAD SWAP1 PUSH2 0x100 EXP SWAP1 DIV PUSH1 0xFF AND SWAP1 POP PUSH0 DUP1 SLOAD DUP1 PUSH2 0x1862 JUMPI PUSH2 0x1861 PUSH2 0x3023 JUMP JUMPDEST JUMPDEST PUSH1 0x1 SWAP1 SUB DUP2 DUP2 SWAP1 PUSH0 MSTORE PUSH1 0x20 PUSH0 KECCAK256 SWAP1 PUSH1 0x20 SWAP2 DUP3 DUP3 DIV ADD SWAP2 SWAP1 MOD PUSH2 0x100 EXP DUP2 SLOAD SWAP1 PUSH1 0xFF MUL NOT AND SWAP1 SSTORE SWAP1 SSTORE DUP1 SWAP2 POP POP SWAP1 JUMP JUMPDEST PUSH1 0x60 PUSH0 DUP3 SWAP1 POP PUSH0 JUMPDEST DUP5 MLOAD DUP2 LT ISZERO PUSH2 0x1A7A JUMPI PUSH0 PUSH1 0xD DUP7 DUP4 DUP2 MLOAD DUP2 LT PUSH2 0x18B8 JUMPI PUSH2 0x18B7 PUSH2 0x2A02 JUMP JUMPDEST JUMPDEST PUSH1 0x20 MUL PUSH1 0x20 ADD ADD MLOAD PUSH2 0x18CA SWAP2 SWAP1 PUSH2 0x2ED5 JUMP JUMPDEST SWAP1 POP PUSH0 DUP2 PUSH1 0xFF AND SUB PUSH2 0x18DB JUMPI PUSH1 0xD SWAP1 POP JUMPDEST PUSH1 0x60 PUSH1 0x1 DUP3 PUSH1 0xFF AND SUB PUSH2 0x1925 JUMPI PUSH1 0x40 MLOAD DUP1 PUSH1 0x40 ADD PUSH1 0x40 MSTORE DUP1 PUSH1 0x1 DUP2 MSTORE PUSH1 0x20 ADD PUSH32 0x4100000000000000000000000000000000000000000000000000000000000000 DUP2 MSTORE POP SWAP1 POP PUSH2 0x1A0F JUMP JUMPDEST PUSH1 0xB DUP3 PUSH1 0xFF AND SUB PUSH2 0x196D JUMPI PUSH1 0x40 MLOAD DUP1 PUSH1 0x40 ADD PUSH1 0x40 MSTORE DUP1 PUSH1 0x1 DUP2 MSTORE PUSH1 0x20 ADD PUSH32 0x4A00000000000000000000000000000000000000000000000000000000000000 DUP2 MSTORE POP SWAP1 POP PUSH2 0x1A0E JUMP JUMPDEST PUSH1 0xC DUP3 PUSH1 0xFF AND SUB PUSH2 0x19B5 JUMPI PUSH1 0x40 MLOAD DUP1 PUSH1 0x40 ADD PUSH1 0x40 MSTORE DUP1 PUSH1 0x1 DUP2 MSTORE PUSH1 0x20 ADD PUSH32 0x5100000000000000000000000000000000000000000000000000000000000000 DUP2 MSTORE POP SWAP1 POP PUSH2 0x1A0D JUMP JUMPDEST PUSH1 0xD DUP3 PUSH1 0xFF AND SUB PUSH2 0x19FD JUMPI PUSH1 0x40 MLOAD DUP1 PUSH1 0x40 ADD PUSH1 0x40 MSTORE DUP1 PUSH1 0x1 DUP2 MSTORE PUSH1 0x20 ADD PUSH32 0x4B00000000000000000000000000000000000000000000000000000000000000 DUP2 MSTORE POP SWAP1 POP PUSH2 0x1A0C JUMP JUMPDEST PUSH2 0x1A09 DUP3 PUSH1 0xFF AND PUSH2 0x1CEF JUMP JUMPDEST SWAP1 POP JUMPDEST JUMPDEST JUMPDEST JUMPDEST DUP4 DUP2 PUSH1 0x40 MLOAD PUSH1 0x20 ADD PUSH2 0x1A22 SWAP3 SWAP2 SWAP1 PUSH2 0x3050 JUMP JUMPDEST PUSH1 0x40 MLOAD PUSH1 0x20 DUP2 DUP4 SUB SUB DUP2 MSTORE SWAP1 PUSH1 0x40 MSTORE SWAP4 POP PUSH1 0x1 DUP8 MLOAD PUSH2 0x1A41 SWAP2 SWAP1 PUSH2 0x2FF0 JUMP JUMPDEST DUP4 LT ISZERO PUSH2 0x1A6B JUMPI DUP4 PUSH1 0x40 MLOAD PUSH1 0x20 ADD PUSH2 0x1A59 SWAP2 SWAP1 PUSH2 0x30BD JUMP JUMPDEST PUSH1 0x40 MLOAD PUSH1 0x20 DUP2 DUP4 SUB SUB DUP2 MSTORE SWAP1 PUSH1 0x40 MSTORE SWAP4 POP JUMPDEST POP POP DUP1 DUP1 PUSH1 0x1 ADD SWAP2 POP POP PUSH2 0x1899 JUMP JUMPDEST POP DUP1 SWAP2 POP POP SWAP3 SWAP2 POP POP JUMP JUMPDEST PUSH1 0x60 PUSH0 DUP1 JUMPDEST DUP4 MLOAD DUP2 LT ISZERO PUSH2 0x1B1D JUMPI PUSH1 0x4 PUSH0 SWAP1 SLOAD SWAP1 PUSH2 0x100 EXP SWAP1 DIV PUSH20 0xFFFFFFFFFFFFFFFFFFFFFFFFFFFFFFFFFFFFFFFF AND PUSH20 0xFFFFFFFFFFFFFFFFFFFFFFFFFFFFFFFFFFFFFFFF AND DUP5 DUP3 DUP2 MLOAD DUP2 LT PUSH2 0x1ADE JUMPI PUSH2 0x1ADD PUSH2 0x2A02 JUMP JUMPDEST JUMPDEST PUSH1 0x20 MUL PUSH1 0x20 ADD ADD MLOAD PUSH20 0xFFFFFFFFFFFFFFFFFFFFFFFFFFFFFFFFFFFFFFFF AND EQ PUSH2 0x1B10 JUMPI DUP2 DUP1 PUSH2 0x1B0C SWAP1 PUSH2 0x2E61 JUMP JUMPDEST SWAP3 POP POP JUMPDEST DUP1 DUP1 PUSH1 0x1 ADD SWAP2 POP POP PUSH2 0x1A8A JUMP JUMPDEST POP PUSH0 DUP2 SUB PUSH2 0x1B63 JUMPI PUSH1 0x40 MLOAD DUP1 PUSH1 0x40 ADD PUSH1 0x40 MSTORE DUP1 PUSH1 0xF DUP2 MSTORE PUSH1 0x20 ADD PUSH32 0x4E6F20706C617965727320776F6E2E0000000000000000000000000000000000 DUP2 MSTORE POP SWAP2 POP POP PUSH2 0x1CBF JUMP JUMPDEST PUSH0 PUSH1 0x40 MLOAD DUP1 PUSH1 0x20 ADD PUSH1 0x40 MSTORE DUP1 PUSH0 DUP2 MSTORE POP SWAP1 POP PUSH0 JUMPDEST DUP5 MLOAD DUP2 LT ISZERO PUSH2 0x1CB8 JUMPI PUSH1 0x4 PUSH0 SWAP1 SLOAD SWAP1 PUSH2 0x100 EXP SWAP1 DIV PUSH20 0xFFFFFFFFFFFFFFFFFFFFFFFFFFFFFFFFFFFFFFFF AND PUSH20 0xFFFFFFFFFFFFFFFFFFFFFFFFFFFFFFFFFFFFFFFF AND DUP6 DUP3 DUP2 MLOAD DUP2 LT PUSH2 0x1BCB JUMPI PUSH2 0x1BCA PUSH2 0x2A02 JUMP JUMPDEST JUMPDEST PUSH1 0x20 MUL PUSH1 0x20 ADD ADD MLOAD PUSH20 0xFFFFFFFFFFFFFFFFFFFFFFFFFFFFFFFFFFFFFFFF AND EQ PUSH2 0x1CAB JUMPI PUSH0 PUSH2 0x1C12 DUP7 DUP4 DUP2 MLOAD DUP2 LT PUSH2 0x1C05 JUMPI PUSH2 0x1C04 PUSH2 0x2A02 JUMP JUMPDEST JUMPDEST PUSH1 0x20 MUL PUSH1 0x20 ADD ADD MLOAD PUSH2 0x1FC8 JUMP JUMPDEST SWAP1 POP PUSH32 0xFFFFFFFFFFFFFFFFFFFFFFFFFFFFFFFFFFFFFFFFFFFFFFFFFFFFFFFFFFFFFFFF DUP2 EQ PUSH2 0x1CA9 JUMPI PUSH0 PUSH2 0x1C51 PUSH1 0x1 DUP4 PUSH2 0x1C4C SWAP2 SWAP1 PUSH2 0x2B2C JUMP JUMPDEST PUSH2 0x1CEF JUMP JUMPDEST PUSH1 0x40 MLOAD PUSH1 0x20 ADD PUSH2 0x1C61 SWAP2 SWAP1 PUSH2 0x30DE JUMP JUMPDEST PUSH1 0x40 MLOAD PUSH1 0x20 DUP2 DUP4 SUB SUB DUP2 MSTORE SWAP1 PUSH1 0x40 MSTORE SWAP1 POP PUSH0 DUP5 MLOAD SUB PUSH2 0x1C82 JUMPI DUP1 SWAP4 POP PUSH2 0x1CA7 JUMP JUMPDEST DUP4 DUP2 PUSH1 0x40 MLOAD PUSH1 0x20 ADD PUSH2 0x1C95 SWAP3 SWAP2 SWAP1 PUSH2 0x30FF JUMP JUMPDEST PUSH1 0x40 MLOAD PUSH1 0x20 DUP2 DUP4 SUB SUB DUP2 MSTORE SWAP1 PUSH1 0x40 MSTORE SWAP4 POP JUMPDEST POP JUMPDEST POP JUMPDEST DUP1 DUP1 PUSH1 0x1 ADD SWAP2 POP POP PUSH2 0x1B77 JUMP JUMPDEST POP DUP1 SWAP3 POP POP POP JUMPDEST SWAP2 SWAP1 POP JUMP JUMPDEST PUSH1 0x1 PUSH0 PUSH2 0x1CD1 SWAP2 SWAP1 PUSH2 0x2220 JUMP JUMPDEST PUSH1 0x3 PUSH0 PUSH2 0x1CDE SWAP2 SWAP1 PUSH2 0x2241 JUMP JUMPDEST PUSH0 PUSH1 0x2 DUP2 SWAP1 SSTORE POP PUSH2 0x1CED PUSH2 0x208F JUMP JUMPDEST JUMP JUMPDEST PUSH1 0x60 PUSH0 DUP3 SUB PUSH2 0x1D35 JUMPI PUSH1 0x40 MLOAD DUP1 PUSH1 0x40 ADD PUSH1 0x40 MSTORE DUP1 PUSH1 0x1 DUP2 MSTORE PUSH1 0x20 ADD PUSH32 0x3000000000000000000000000000000000000000000000000000000000000000 DUP2 MSTORE POP SWAP1 POP PUSH2 0x1E48 JUMP JUMPDEST PUSH0 DUP3 SWAP1 POP PUSH0 JUMPDEST PUSH0 DUP3 EQ PUSH2 0x1D64 JUMPI DUP1 DUP1 PUSH2 0x1D4D SWAP1 PUSH2 0x2E61 JUMP JUMPDEST SWAP2 POP POP PUSH1 0xA DUP3 PUSH2 0x1D5D SWAP2 SWAP1 PUSH2 0x312D JUMP JUMPDEST SWAP2 POP PUSH2 0x1D3B JUMP JUMPDEST PUSH0 DUP2 PUSH8 0xFFFFFFFFFFFFFFFF DUP2 GT ISZERO PUSH2 0x1D7F JUMPI PUSH2 0x1D7E PUSH2 0x270C JUMP JUMPDEST JUMPDEST PUSH1 0x40 MLOAD SWAP1 DUP1 DUP3 MSTORE DUP1 PUSH1 0x1F ADD PUSH1 0x1F NOT AND PUSH1 0x20 ADD DUP3 ADD PUSH1 0x40 MSTORE DUP1 ISZERO PUSH2 0x1DB1 JUMPI DUP2 PUSH1 0x20 ADD PUSH1 0x1 DUP3 MUL DUP1 CALLDATASIZE DUP4 CALLDATACOPY DUP1 DUP3 ADD SWAP2 POP POP SWAP1 POP JUMPDEST POP SWAP1 POP PUSH0 DUP3 SWAP1 POP DUP6 SWAP4 POP JUMPDEST PUSH0 DUP5 EQ PUSH2 0x1E40 JUMPI PUSH1 0xA DUP5 PUSH2 0x1DD0 SWAP2 SWAP1 PUSH2 0x315D JUMP JUMPDEST PUSH1 0x30 PUSH2 0x1DDC SWAP2 SWAP1 PUSH2 0x2B2C JUMP JUMPDEST PUSH1 0xF8 SHL DUP3 DUP3 PUSH2 0x1DEA SWAP1 PUSH2 0x318D JUMP JUMPDEST SWAP3 POP DUP3 DUP2 MLOAD DUP2 LT PUSH2 0x1DFE JUMPI PUSH2 0x1DFD PUSH2 0x2A02 JUMP JUMPDEST JUMPDEST PUSH1 0x20 ADD ADD SWAP1 PUSH31 0xFFFFFFFFFFFFFFFFFFFFFFFFFFFFFFFFFFFFFFFFFFFFFFFFFFFFFFFFFFFFFF NOT AND SWAP1 DUP2 PUSH0 BYTE SWAP1 MSTORE8 POP PUSH1 0xA DUP5 PUSH2 0x1E39 SWAP2 SWAP1 PUSH2 0x312D JUMP JUMPDEST SWAP4 POP PUSH2 0x1DBC JUMP JUMPDEST DUP2 SWAP5 POP POP POP POP POP JUMPDEST SWAP2 SWAP1 POP JUMP JUMPDEST PUSH0 TIMESTAMP PREVRANDAO PUSH1 0x1 NUMBER PUSH2 0x1E5D SWAP2 SWAP1 PUSH2 0x2FF0 JUMP JUMPDEST BLOCKHASH PUSH1 0x40 MLOAD PUSH1 0x20 ADD PUSH2 0x1E70 SWAP4 SWAP3 SWAP2 SWAP1 PUSH2 0x31FD JUMP JUMPDEST PUSH1 0x40 MLOAD PUSH1 0x20 DUP2 DUP4 SUB SUB DUP2 MSTORE SWAP1 PUSH1 0x40 MSTORE DUP1 MLOAD SWAP1 PUSH1 0x20 ADD KECCAK256 PUSH0 SHR SWAP1 POP PUSH0 JUMPDEST PUSH0 DUP1 SLOAD SWAP1 POP DUP2 LT ISZERO PUSH2 0x1FC4 JUMPI PUSH0 DUP1 DUP1 SLOAD SWAP1 POP DUP4 PUSH2 0x1EA9 SWAP2 SWAP1 PUSH2 0x315D JUMP JUMPDEST SWAP1 POP PUSH0 DUP2 DUP2 SLOAD DUP2 LT PUSH2 0x1EBE JUMPI PUSH2 0x1EBD PUSH2 0x2A02 JUMP JUMPDEST JUMPDEST SWAP1 PUSH0 MSTORE PUSH1 0x20 PUSH0 KECCAK256 SWAP1 PUSH1 0x20 SWAP2 DUP3 DUP3 DIV ADD SWAP2 SWAP1 MOD SWAP1 SLOAD SWAP1 PUSH2 0x100 EXP SWAP1 DIV PUSH1 0xFF AND PUSH0 DUP4 DUP2 SLOAD DUP2 LT PUSH2 0x1EEF JUMPI PUSH2 0x1EEE PUSH2 0x2A02 JUMP JUMPDEST JUMPDEST SWAP1 PUSH0 MSTORE PUSH1 0x20 PUSH0 KECCAK256 SWAP1 PUSH1 0x20 SWAP2 DUP3 DUP3 DIV ADD SWAP2 SWAP1 MOD SWAP1 SLOAD SWAP1 PUSH2 0x100 EXP SWAP1 DIV PUSH1 0xFF AND PUSH0 DUP5 DUP2 SLOAD DUP2 LT PUSH2 0x1F20 JUMPI PUSH2 0x1F1F PUSH2 0x2A02 JUMP JUMPDEST JUMPDEST SWAP1 PUSH0 MSTORE PUSH1 0x20 PUSH0 KECCAK256 SWAP1 PUSH1 0x20 SWAP2 DUP3 DUP3 DIV ADD SWAP2 SWAP1 MOD PUSH0 DUP6 DUP2 SLOAD DUP2 LT PUSH2 0x1F45 JUMPI PUSH2 0x1F44 PUSH2 0x2A02 JUMP JUMPDEST JUMPDEST SWAP1 PUSH0 MSTORE PUSH1 0x20 PUSH0 KECCAK256 SWAP1 PUSH1 0x20 SWAP2 DUP3 DUP3 DIV ADD SWAP2 SWAP1 MOD DUP5 SWAP2 SWAP1 PUSH2 0x100 EXP DUP2 SLOAD DUP2 PUSH1 0xFF MUL NOT AND SWAP1 DUP4 PUSH1 0xFF AND MUL OR SWAP1 SSTORE POP DUP4 SWAP2 SWAP1 PUSH2 0x100 EXP DUP2 SLOAD DUP2 PUSH1 0xFF MUL NOT AND SWAP1 DUP4 PUSH1 0xFF AND MUL OR SWAP1 SSTORE POP POP POP DUP3 PUSH1 0x40 MLOAD PUSH1 0x20 ADD PUSH2 0x1F9C SWAP2 SWAP1 PUSH2 0x3239 JUMP JUMPDEST PUSH1 0x40 MLOAD PUSH1 0x20 DUP2 DUP4 SUB SUB DUP2 MSTORE SWAP1 PUSH1 0x40 MSTORE DUP1 MLOAD SWAP1 PUSH1 0x20 ADD KECCAK256 PUSH0 SHR SWAP3 POP POP DUP1 DUP1 PUSH1 0x1 ADD SWAP2 POP POP PUSH2 0x1E8C JUMP JUMPDEST POP POP JUMP JUMPDEST PUSH0 DUP1 PUSH0 SWAP1 POP JUMPDEST PUSH1 0x1 DUP1 SLOAD SWAP1 POP DUP2 LT ISZERO PUSH2 0x2065 JUMPI DUP3 PUSH20 0xFFFFFFFFFFFFFFFFFFFFFFFFFFFFFFFFFFFFFFFF AND PUSH1 0x1 DUP3 DUP2 SLOAD DUP2 LT PUSH2 0x2006 JUMPI PUSH2 0x2005 PUSH2 0x2A02 JUMP JUMPDEST JUMPDEST SWAP1 PUSH0 MSTORE PUSH1 0x20 PUSH0 KECCAK256 SWAP1 PUSH1 0x4 MUL ADD PUSH0 ADD PUSH0 SWAP1 SLOAD SWAP1 PUSH2 0x100 EXP SWAP1 DIV PUSH20 0xFFFFFFFFFFFFFFFFFFFFFFFFFFFFFFFFFFFFFFFF AND PUSH20 0xFFFFFFFFFFFFFFFFFFFFFFFFFFFFFFFFFFFFFFFF AND SUB PUSH2 0x2058 JUMPI DUP1 SWAP2 POP POP PUSH2 0x208A JUMP JUMPDEST DUP1 DUP1 PUSH1 0x1 ADD SWAP2 POP POP PUSH2 0x1FCE JUMP JUMPDEST POP PUSH32 0xFFFFFFFFFFFFFFFFFFFFFFFFFFFFFFFFFFFFFFFFFFFFFFFFFFFFFFFFFFFFFFFF SWAP1 POP JUMPDEST SWAP2 SWAP1 POP JUMP JUMPDEST PUSH0 DUP1 PUSH2 0x209B SWAP2 SWAP1 PUSH2 0x2241 JUMP JUMPDEST PUSH0 PUSH1 0x1 SWAP1 POP JUMPDEST PUSH1 0x34 DUP2 PUSH1 0xFF AND GT PUSH2 0x2101 JUMPI PUSH0 DUP2 SWAP1 DUP1 PUSH1 0x1 DUP2 SLOAD ADD DUP1 DUP3 SSTORE DUP1 SWAP2 POP POP PUSH1 0x1 SWAP1 SUB SWAP1 PUSH0 MSTORE PUSH1 0x20 PUSH0 KECCAK256 SWAP1 PUSH1 0x20 SWAP2 DUP3 DUP3 DIV ADD SWAP2 SWAP1 MOD SWAP1 SWAP2 SWAP1 SWAP2 SWAP1 SWAP2 PUSH2 0x100 EXP DUP2 SLOAD DUP2 PUSH1 0xFF MUL NOT AND SWAP1 DUP4 PUSH1 0xFF AND MUL OR SWAP1 SSTORE POP DUP1 DUP1 PUSH2 0x20F9 SWAP1 PUSH2 0x2F05 JUMP JUMPDEST SWAP2 POP POP PUSH2 0x20A1 JUMP JUMPDEST POP JUMP JUMPDEST POP DUP1 SLOAD PUSH0 DUP3 SSTORE SWAP1 PUSH0 MSTORE PUSH1 0x20 PUSH0 KECCAK256 SWAP1 DUP2 ADD SWAP1 PUSH2 0x211F SWAP2 SWAP1 PUSH2 0x2266 JUMP JUMPDEST POP JUMP JUMPDEST DUP3 DUP1 SLOAD DUP3 DUP3 SSTORE SWAP1 PUSH0 MSTORE PUSH1 0x20 PUSH0 KECCAK256 SWAP1 PUSH1 0x1F ADD PUSH1 0x20 SWAP1 DIV DUP2 ADD SWAP3 DUP3 ISZERO PUSH2 0x216D JUMPI PUSH0 MSTORE PUSH1 0x20 PUSH0 KECCAK256 SWAP2 PUSH1 0x1F ADD PUSH1 0x20 SWAP1 DIV DUP3 ADD JUMPDEST DUP3 DUP2 GT ISZERO PUSH2 0x216C JUMPI DUP3 SLOAD DUP3 SSTORE SWAP2 PUSH1 0x1 ADD SWAP2 SWAP1 PUSH1 0x1 ADD SWAP1 PUSH2 0x2151 JUMP JUMPDEST JUMPDEST POP SWAP1 POP PUSH2 0x217A SWAP2 SWAP1 PUSH2 0x2266 JUMP JUMPDEST POP SWAP1 JUMP JUMPDEST DUP3 DUP1 SLOAD DUP3 DUP3 SSTORE SWAP1 PUSH0 MSTORE PUSH1 0x20 PUSH0 KECCAK256 SWAP1 PUSH1 0x1F ADD PUSH1 0x20 SWAP1 DIV DUP2 ADD SWAP3 DUP3 ISZERO PUSH2 0x220F JUMPI SWAP2 PUSH1 0x20 MUL DUP3 ADD PUSH0 JUMPDEST DUP4 DUP3 GT ISZERO PUSH2 0x21E1 JUMPI DUP4 MLOAD DUP4 DUP3 PUSH2 0x100 EXP DUP2 SLOAD DUP2 PUSH1 0xFF MUL NOT AND SWAP1 DUP4 PUSH1 0xFF AND MUL OR SWAP1 SSTORE POP SWAP3 PUSH1 0x20 ADD SWAP3 PUSH1 0x1 ADD PUSH1 0x20 DUP2 PUSH0 ADD DIV SWAP3 DUP4 ADD SWAP3 PUSH1 0x1 SUB MUL PUSH2 0x21A4 JUMP JUMPDEST DUP1 ISZERO PUSH2 0x220D JUMPI DUP3 DUP2 PUSH2 0x100 EXP DUP2 SLOAD SWAP1 PUSH1 0xFF MUL NOT AND SWAP1 SSTORE PUSH1 0x1 ADD PUSH1 0x20 DUP2 PUSH0 ADD DIV SWAP3 DUP4 ADD SWAP3 PUSH1 0x1 SUB MUL PUSH2 0x21E1 JUMP JUMPDEST POP JUMPDEST POP SWAP1 POP PUSH2 0x221C SWAP2 SWAP1 PUSH2 0x2266 JUMP JUMPDEST POP SWAP1 JUMP JUMPDEST POP DUP1 SLOAD PUSH0 DUP3 SSTORE PUSH1 0x4 MUL SWAP1 PUSH0 MSTORE PUSH1 0x20 PUSH0 KECCAK256 SWAP1 DUP2 ADD SWAP1 PUSH2 0x223E SWAP2 SWAP1 PUSH2 0x2281 JUMP JUMPDEST POP JUMP JUMPDEST POP DUP1 SLOAD PUSH0 DUP3 SSTORE PUSH1 0x1F ADD PUSH1 0x20 SWAP1 DIV SWAP1 PUSH0 MSTORE PUSH1 0x20 PUSH0 KECCAK256 SWAP1 DUP2 ADD SWAP1 PUSH2 0x2263 SWAP2 SWAP1 PUSH2 0x2266 JUMP JUMPDEST POP JUMP JUMPDEST JUMPDEST DUP1 DUP3 GT ISZERO PUSH2 0x227D JUMPI PUSH0 DUP2 PUSH0 SWAP1 SSTORE POP PUSH1 0x1 ADD PUSH2 0x2267 JUMP JUMPDEST POP SWAP1 JUMP JUMPDEST JUMPDEST DUP1 DUP3 GT ISZERO PUSH2 0x22F6 JUMPI PUSH0 DUP1 DUP3 ADD PUSH0 PUSH2 0x100 EXP DUP2 SLOAD SWAP1 PUSH20 0xFFFFFFFFFFFFFFFFFFFFFFFFFFFFFFFFFFFFFFFF MUL NOT AND SWAP1 SSTORE PUSH1 0x1 DUP3 ADD PUSH0 SWAP1 SSTORE PUSH1 0x2 DUP3 ADD PUSH0 PUSH2 0x22C6 SWAP2 SWAP1 PUSH2 0x2241 JUMP JUMPDEST PUSH1 0x3 DUP3 ADD PUSH0 PUSH2 0x100 EXP DUP2 SLOAD SWAP1 PUSH1 0xFF MUL NOT AND SWAP1 SSTORE PUSH1 0x3 DUP3 ADD PUSH1 0x1 PUSH2 0x100 EXP DUP2 SLOAD SWAP1 PUSH1 0xFF MUL NOT AND SWAP1 SSTORE POP PUSH1 0x4 ADD PUSH2 0x2282 JUMP JUMPDEST POP SWAP1 JUMP JUMPDEST PUSH0 DUP2 SWAP1 POP SWAP2 SWAP1 POP JUMP JUMPDEST PUSH2 0x230C DUP2 PUSH2 0x22FA JUMP JUMPDEST DUP3 MSTORE POP POP JUMP JUMPDEST PUSH0 PUSH1 0x20 DUP3 ADD SWAP1 POP PUSH2 0x2325 PUSH0 DUP4 ADD DUP5 PUSH2 0x2303 JUMP JUMPDEST SWAP3 SWAP2 POP POP JUMP JUMPDEST PUSH0 DUP2 MLOAD SWAP1 POP SWAP2 SWAP1 POP JUMP JUMPDEST PUSH0 DUP3 DUP3 MSTORE PUSH1 0x20 DUP3 ADD SWAP1 POP SWAP3 SWAP2 POP POP JUMP JUMPDEST DUP3 DUP2 DUP4 MCOPY PUSH0 DUP4 DUP4 ADD MSTORE POP POP POP JUMP JUMPDEST PUSH0 PUSH1 0x1F NOT PUSH1 0x1F DUP4 ADD AND SWAP1 POP SWAP2 SWAP1 POP JUMP JUMPDEST PUSH0 PUSH2 0x236D DUP3 PUSH2 0x232B JUMP JUMPDEST PUSH2 0x2377 DUP2 DUP6 PUSH2 0x2335 JUMP JUMPDEST SWAP4 POP PUSH2 0x2387 DUP2 DUP6 PUSH1 0x20 DUP7 ADD PUSH2 0x2345 JUMP JUMPDEST PUSH2 0x2390 DUP2 PUSH2 0x2353 JUMP JUMPDEST DUP5 ADD SWAP2 POP POP SWAP3 SWAP2 POP POP JUMP JUMPDEST PUSH0 DUP2 MLOAD SWAP1 POP SWAP2 SWAP1 POP JUMP JUMPDEST PUSH0 DUP3 DUP3 MSTORE PUSH1 0x20 DUP3 ADD SWAP1 POP SWAP3 SWAP2 POP POP JUMP JUMPDEST PUSH0 DUP2 SWAP1 POP PUSH1 0x20 DUP3 ADD SWAP1 POP SWAP2 SWAP1 POP JUMP JUMPDEST PUSH0 PUSH20 0xFFFFFFFFFFFFFFFFFFFFFFFFFFFFFFFFFFFFFFFF DUP3 AND SWAP1 POP SWAP2 SWAP1 POP JUMP JUMPDEST PUSH0 PUSH2 0x23ED DUP3 PUSH2 0x23C4 JUMP JUMPDEST SWAP1 POP SWAP2 SWAP1 POP JUMP JUMPDEST PUSH2 0x23FD DUP2 PUSH2 0x23E3 JUMP JUMPDEST DUP3 MSTORE POP POP JUMP JUMPDEST PUSH0 PUSH2 0x240E DUP4 DUP4 PUSH2 0x23F4 JUMP JUMPDEST PUSH1 0x20 DUP4 ADD SWAP1 POP SWAP3 SWAP2 POP POP JUMP JUMPDEST PUSH0 PUSH1 0x20 DUP3 ADD SWAP1 POP SWAP2 SWAP1 POP JUMP JUMPDEST PUSH0 PUSH2 0x2430 DUP3 PUSH2 0x239B JUMP JUMPDEST PUSH2 0x243A DUP2 DUP6 PUSH2 0x23A5 JUMP JUMPDEST SWAP4 POP PUSH2 0x2445 DUP4 PUSH2 0x23B5 JUMP JUMPDEST DUP1 PUSH0 JUMPDEST DUP4 DUP2 LT ISZERO PUSH2 0x2475 JUMPI DUP2 MLOAD PUSH2 0x245C DUP9 DUP3 PUSH2 0x2403 JUMP JUMPDEST SWAP8 POP PUSH2 0x2467 DUP4 PUSH2 0x241A JUMP JUMPDEST SWAP3 POP POP PUSH1 0x1 DUP2 ADD SWAP1 POP PUSH2 0x2448 JUMP JUMPDEST POP DUP6 SWAP4 POP POP POP POP SWAP3 SWAP2 POP POP JUMP JUMPDEST PUSH0 PUSH1 0x40 DUP3 ADD SWAP1 POP DUP2 DUP2 SUB PUSH0 DUP4 ADD MSTORE PUSH2 0x249A DUP2 DUP6 PUSH2 0x2363 JUMP JUMPDEST SWAP1 POP DUP2 DUP2 SUB PUSH1 0x20 DUP4 ADD MSTORE PUSH2 0x24AE DUP2 DUP5 PUSH2 0x2426 JUMP JUMPDEST SWAP1 POP SWAP4 SWAP3 POP POP POP JUMP JUMPDEST PUSH0 DUP1 REVERT JUMPDEST PUSH2 0x24C4 DUP2 PUSH2 0x22FA JUMP JUMPDEST DUP2 EQ PUSH2 0x24CE JUMPI PUSH0 DUP1 REVERT JUMPDEST POP JUMP JUMPDEST PUSH0 DUP2 CALLDATALOAD SWAP1 POP PUSH2 0x24DF DUP2 PUSH2 0x24BB JUMP JUMPDEST SWAP3 SWAP2 POP POP JUMP JUMPDEST PUSH0 PUSH1 0x20 DUP3 DUP5 SUB SLT ISZERO PUSH2 0x24FA JUMPI PUSH2 0x24F9 PUSH2 0x24B7 JUMP JUMPDEST JUMPDEST PUSH0 PUSH2 0x2507 DUP5 DUP3 DUP6 ADD PUSH2 0x24D1 JUMP JUMPDEST SWAP2 POP POP SWAP3 SWAP2 POP POP JUMP JUMPDEST PUSH0 PUSH1 0xFF DUP3 AND SWAP1 POP SWAP2 SWAP1 POP JUMP JUMPDEST PUSH2 0x2525 DUP2 PUSH2 0x2510 JUMP JUMPDEST DUP3 MSTORE POP POP JUMP JUMPDEST PUSH0 PUSH1 0x20 DUP3 ADD SWAP1 POP PUSH2 0x253E PUSH0 DUP4 ADD DUP5 PUSH2 0x251C JUMP JUMPDEST SWAP3 SWAP2 POP POP JUMP JUMPDEST PUSH0 PUSH1 0x20 DUP3 ADD SWAP1 POP DUP2 DUP2 SUB PUSH0 DUP4 ADD MSTORE PUSH2 0x255C DUP2 DUP5 PUSH2 0x2363 JUMP JUMPDEST SWAP1 POP SWAP3 SWAP2 POP POP JUMP JUMPDEST PUSH2 0x256D DUP2 PUSH2 0x23E3 JUMP JUMPDEST DUP3 MSTORE POP POP JUMP JUMPDEST PUSH0 PUSH1 0x20 DUP3 ADD SWAP1 POP PUSH2 0x2586 PUSH0 DUP4 ADD DUP5 PUSH2 0x2564 JUMP JUMPDEST SWAP3 SWAP2 POP POP JUMP JUMPDEST PUSH0 DUP2 MLOAD SWAP1 POP SWAP2 SWAP1 POP JUMP JUMPDEST PUSH0 DUP3 DUP3 MSTORE PUSH1 0x20 DUP3 ADD SWAP1 POP SWAP3 SWAP2 POP POP JUMP JUMPDEST PUSH0 DUP2 SWAP1 POP PUSH1 0x20 DUP3 ADD SWAP1 POP SWAP2 SWAP1 POP JUMP JUMPDEST PUSH0 DUP3 DUP3 MSTORE PUSH1 0x20 DUP3 ADD SWAP1 POP SWAP3 SWAP2 POP POP JUMP JUMPDEST PUSH0 PUSH2 0x25CF DUP3 PUSH2 0x232B JUMP JUMPDEST PUSH2 0x25D9 DUP2 DUP6 PUSH2 0x25B5 JUMP JUMPDEST SWAP4 POP PUSH2 0x25E9 DUP2 DUP6 PUSH1 0x20 DUP7 ADD PUSH2 0x2345 JUMP JUMPDEST PUSH2 0x25F2 DUP2 PUSH2 0x2353 JUMP JUMPDEST DUP5 ADD SWAP2 POP POP SWAP3 SWAP2 POP POP JUMP JUMPDEST PUSH0 PUSH2 0x2608 DUP4 DUP4 PUSH2 0x25C5 JUMP JUMPDEST SWAP1 POP SWAP3 SWAP2 POP POP JUMP JUMPDEST PUSH0 PUSH1 0x20 DUP3 ADD SWAP1 POP SWAP2 SWAP1 POP JUMP JUMPDEST PUSH0 PUSH2 0x2626 DUP3 PUSH2 0x258C JUMP JUMPDEST PUSH2 0x2630 DUP2 DUP6 PUSH2 0x2596 JUMP JUMPDEST SWAP4 POP DUP4 PUSH1 0x20 DUP3 MUL DUP6 ADD PUSH2 0x2642 DUP6 PUSH2 0x25A6 JUMP JUMPDEST DUP1 PUSH0 JUMPDEST DUP6 DUP2 LT ISZERO PUSH2 0x267D JUMPI DUP5 DUP5 SUB DUP10 MSTORE DUP2 MLOAD PUSH2 0x265E DUP6 DUP3 PUSH2 0x25FD JUMP JUMPDEST SWAP5 POP PUSH2 0x2669 DUP4 PUSH2 0x2610 JUMP JUMPDEST SWAP3 POP PUSH1 0x20 DUP11 ADD SWAP10 POP POP PUSH1 0x1 DUP2 ADD SWAP1 POP PUSH2 0x2645 JUMP JUMPDEST POP DUP3 SWAP8 POP DUP8 SWAP6 POP POP POP POP POP POP SWAP3 SWAP2 POP POP JUMP JUMPDEST PUSH0 PUSH1 0x20 DUP3 ADD SWAP1 POP DUP2 DUP2 SUB PUSH0 DUP4 ADD MSTORE PUSH2 0x26A7 DUP2 DUP5 PUSH2 0x261C JUMP JUMPDEST SWAP1 POP SWAP3 SWAP2 POP POP JUMP JUMPDEST PUSH0 DUP2 ISZERO ISZERO SWAP1 POP SWAP2 SWAP1 POP JUMP JUMPDEST PUSH2 0x26C3 DUP2 PUSH2 0x26AF JUMP JUMPDEST DUP3 MSTORE POP POP JUMP JUMPDEST PUSH0 PUSH1 0x80 DUP3 ADD SWAP1 POP PUSH2 0x26DC PUSH0 DUP4 ADD DUP8 PUSH2 0x2564 JUMP JUMPDEST PUSH2 0x26E9 PUSH1 0x20 DUP4 ADD DUP7 PUSH2 0x2303 JUMP JUMPDEST PUSH2 0x26F6 PUSH1 0x40 DUP4 ADD DUP6 PUSH2 0x26BA JUMP JUMPDEST PUSH2 0x2703 PUSH1 0x60 DUP4 ADD DUP5 PUSH2 0x26BA JUMP JUMPDEST SWAP6 SWAP5 POP POP POP POP POP JUMP JUMPDEST PUSH32 0x4E487B7100000000000000000000000000000000000000000000000000000000 PUSH0 MSTORE PUSH1 0x41 PUSH1 0x4 MSTORE PUSH1 0x24 PUSH0 REVERT JUMPDEST PUSH32 0x4E487B7100000000000000000000000000000000000000000000000000000000 PUSH0 MSTORE PUSH1 0x22 PUSH1 0x4 MSTORE PUSH1 0x24 PUSH0 REVERT JUMPDEST PUSH0 PUSH1 0x2 DUP3 DIV SWAP1 POP PUSH1 0x1 DUP3 AND DUP1 PUSH2 0x277D JUMPI PUSH1 0x7F DUP3 AND SWAP2 POP JUMPDEST PUSH1 0x20 DUP3 LT DUP2 SUB PUSH2 0x2790 JUMPI PUSH2 0x278F PUSH2 0x2739 JUMP JUMPDEST JUMPDEST POP SWAP2 SWAP1 POP JUMP JUMPDEST PUSH0 DUP2 SWAP1 POP DUP2 PUSH0 MSTORE PUSH1 0x20 PUSH0 KECCAK256 SWAP1 POP SWAP2 SWAP1 POP JUMP JUMPDEST PUSH0 PUSH1 0x20 PUSH1 0x1F DUP4 ADD DIV SWAP1 POP SWAP2 SWAP1 POP JUMP JUMPDEST PUSH0 DUP3 DUP3 SHL SWAP1 POP SWAP3 SWAP2 POP POP JUMP JUMPDEST PUSH0 PUSH1 0x8 DUP4 MUL PUSH2 0x27F2 PUSH32 0xFFFFFFFFFFFFFFFFFFFFFFFFFFFFFFFFFFFFFFFFFFFFFFFFFFFFFFFFFFFFFFFF DUP3 PUSH2 0x27B7 JUMP JUMPDEST PUSH2 0x27FC DUP7 DUP4 PUSH2 0x27B7 JUMP JUMPDEST SWAP6 POP DUP1 NOT DUP5 AND SWAP4 POP DUP1 DUP7 AND DUP5 OR SWAP3 POP POP POP SWAP4 SWAP3 POP POP POP JUMP JUMPDEST PUSH0 DUP2 SWAP1 POP SWAP2 SWAP1 POP JUMP JUMPDEST PUSH0 PUSH2 0x2837 PUSH2 0x2832 PUSH2 0x282D DUP5 PUSH2 0x22FA JUMP JUMPDEST PUSH2 0x2814 JUMP JUMPDEST PUSH2 0x22FA JUMP JUMPDEST SWAP1 POP SWAP2 SWAP1 POP JUMP JUMPDEST PUSH0 DUP2 SWAP1 POP SWAP2 SWAP1 POP JUMP JUMPDEST PUSH2 0x2850 DUP4 PUSH2 0x281D JUMP JUMPDEST PUSH2 0x2864 PUSH2 0x285C DUP3 PUSH2 0x283E JUMP JUMPDEST DUP5 DUP5 SLOAD PUSH2 0x27C3 JUMP JUMPDEST DUP3 SSTORE POP POP POP POP JUMP JUMPDEST PUSH0 SWAP1 JUMP JUMPDEST PUSH2 0x2878 PUSH2 0x286C JUMP JUMPDEST PUSH2 0x2883 DUP2 DUP5 DUP5 PUSH2 0x2847 JUMP JUMPDEST POP POP POP JUMP JUMPDEST JUMPDEST DUP2 DUP2 LT ISZERO PUSH2 0x28A6 JUMPI PUSH2 0x289B PUSH0 DUP3 PUSH2 0x2870 JUMP JUMPDEST PUSH1 0x1 DUP2 ADD SWAP1 POP PUSH2 0x2889 JUMP JUMPDEST POP POP JUMP JUMPDEST PUSH1 0x1F DUP3 GT ISZERO PUSH2 0x28EB JUMPI PUSH2 0x28BC DUP2 PUSH2 0x2796 JUMP JUMPDEST PUSH2 0x28C5 DUP5 PUSH2 0x27A8 JUMP JUMPDEST DUP2 ADD PUSH1 0x20 DUP6 LT ISZERO PUSH2 0x28D4 JUMPI DUP2 SWAP1 POP JUMPDEST PUSH2 0x28E8 PUSH2 0x28E0 DUP6 PUSH2 0x27A8 JUMP JUMPDEST DUP4 ADD DUP3 PUSH2 0x2888 JUMP JUMPDEST POP POP JUMPDEST POP POP POP JUMP JUMPDEST PUSH0 DUP3 DUP3 SHR SWAP1 POP SWAP3 SWAP2 POP POP JUMP JUMPDEST PUSH0 PUSH2 0x290B PUSH0 NOT DUP5 PUSH1 0x8 MUL PUSH2 0x28F0 JUMP JUMPDEST NOT DUP1 DUP4 AND SWAP2 POP POP SWAP3 SWAP2 POP POP JUMP JUMPDEST PUSH0 PUSH2 0x2923 DUP4 DUP4 PUSH2 0x28FC JUMP JUMPDEST SWAP2 POP DUP3 PUSH1 0x2 MUL DUP3 OR SWAP1 POP SWAP3 SWAP2 POP POP JUMP JUMPDEST PUSH2 0x293C DUP3 PUSH2 0x232B JUMP JUMPDEST PUSH8 0xFFFFFFFFFFFFFFFF DUP2 GT ISZERO PUSH2 0x2955 JUMPI PUSH2 0x2954 PUSH2 0x270C JUMP JUMPDEST JUMPDEST PUSH2 0x295F DUP3 SLOAD PUSH2 0x2766 JUMP JUMPDEST PUSH2 0x296A DUP3 DUP3 DUP6 PUSH2 0x28AA JUMP JUMPDEST PUSH0 PUSH1 0x20 SWAP1 POP PUSH1 0x1F DUP4 GT PUSH1 0x1 DUP2 EQ PUSH2 0x299B JUMPI PUSH0 DUP5 ISZERO PUSH2 0x2989 JUMPI DUP3 DUP8 ADD MLOAD SWAP1 POP JUMPDEST PUSH2 0x2993 DUP6 DUP3 PUSH2 0x2918 JUMP JUMPDEST DUP7 SSTORE POP PUSH2 0x29FA JUMP JUMPDEST PUSH1 0x1F NOT DUP5 AND PUSH2 0x29A9 DUP7 PUSH2 0x2796 JUMP JUMPDEST PUSH0 JUMPDEST DUP3 DUP2 LT ISZERO PUSH2 0x29D0 JUMPI DUP5 DUP10 ADD MLOAD DUP3 SSTORE PUSH1 0x1 DUP3 ADD SWAP2 POP PUSH1 0x20 DUP6 ADD SWAP5 POP PUSH1 0x20 DUP2 ADD SWAP1 POP PUSH2 0x29AB JUMP JUMPDEST DUP7 DUP4 LT ISZERO PUSH2 0x29ED JUMPI DUP5 DUP10 ADD MLOAD PUSH2 0x29E9 PUSH1 0x1F DUP10 AND DUP3 PUSH2 0x28FC JUMP JUMPDEST DUP4 SSTORE POP JUMPDEST PUSH1 0x1 PUSH1 0x2 DUP9 MUL ADD DUP9 SSTORE POP POP POP JUMPDEST POP POP POP POP POP POP JUMP JUMPDEST PUSH32 0x4E487B7100000000000000000000000000000000000000000000000000000000 PUSH0 MSTORE PUSH1 0x32 PUSH1 0x4 MSTORE PUSH1 0x24 PUSH0 REVERT JUMPDEST PUSH32 0x4E487B7100000000000000000000000000000000000000000000000000000000 PUSH0 MSTORE PUSH1 0x11 PUSH1 0x4 MSTORE PUSH1 0x24 PUSH0 REVERT JUMPDEST PUSH0 PUSH2 0x2A66 DUP3 PUSH2 0x22FA JUMP JUMPDEST SWAP2 POP PUSH2 0x2A71 DUP4 PUSH2 0x22FA JUMP JUMPDEST SWAP3 POP DUP3 DUP3 MUL PUSH2 0x2A7F DUP2 PUSH2 0x22FA JUMP JUMPDEST SWAP2 POP DUP3 DUP3 DIV DUP5 EQ DUP4 ISZERO OR PUSH2 0x2A96 JUMPI PUSH2 0x2A95 PUSH2 0x2A2F JUMP JUMPDEST JUMPDEST POP SWAP3 SWAP2 POP POP JUMP JUMPDEST PUSH0 PUSH1 0x40 DUP3 ADD SWAP1 POP PUSH2 0x2AB0 PUSH0 DUP4 ADD DUP6 PUSH2 0x2564 JUMP JUMPDEST PUSH2 0x2ABD PUSH1 0x20 DUP4 ADD DUP5 PUSH2 0x251C JUMP JUMPDEST SWAP4 SWAP3 POP POP POP JUMP JUMPDEST PUSH32 0x4E6F7420796F7572207475726E00000000000000000000000000000000000000 PUSH0 DUP3 ADD MSTORE POP JUMP JUMPDEST PUSH0 PUSH2 0x2AF8 PUSH1 0xD DUP4 PUSH2 0x2335 JUMP JUMPDEST SWAP2 POP PUSH2 0x2B03 DUP3 PUSH2 0x2AC4 JUMP JUMPDEST PUSH1 0x20 DUP3 ADD SWAP1 POP SWAP2 SWAP1 POP JUMP JUMPDEST PUSH0 PUSH1 0x20 DUP3 ADD SWAP1 POP DUP2 DUP2 SUB PUSH0 DUP4 ADD MSTORE PUSH2 0x2B25 DUP2 PUSH2 0x2AEC JUMP JUMPDEST SWAP1 POP SWAP2 SWAP1 POP JUMP JUMPDEST PUSH0 PUSH2 0x2B36 DUP3 PUSH2 0x22FA JUMP JUMPDEST SWAP2 POP PUSH2 0x2B41 DUP4 PUSH2 0x22FA JUMP JUMPDEST SWAP3 POP DUP3 DUP3 ADD SWAP1 POP DUP1 DUP3 GT ISZERO PUSH2 0x2B59 JUMPI PUSH2 0x2B58 PUSH2 0x2A2F JUMP JUMPDEST JUMPDEST SWAP3 SWAP2 POP POP JUMP JUMPDEST PUSH0 DUP2 SWAP1 POP SWAP3 SWAP2 POP POP JUMP JUMPDEST PUSH32 0x506C617965722000000000000000000000000000000000000000000000000000 PUSH0 DUP3 ADD MSTORE POP JUMP JUMPDEST PUSH0 PUSH2 0x2B9D PUSH1 0x7 DUP4 PUSH2 0x2B5F JUMP JUMPDEST SWAP2 POP PUSH2 0x2BA8 DUP3 PUSH2 0x2B69 JUMP JUMPDEST PUSH1 0x7 DUP3 ADD SWAP1 POP SWAP2 SWAP1 POP JUMP JUMPDEST PUSH0 PUSH2 0x2BBD DUP3 PUSH2 0x232B JUMP JUMPDEST PUSH2 0x2BC7 DUP2 DUP6 PUSH2 0x2B5F JUMP JUMPDEST SWAP4 POP PUSH2 0x2BD7 DUP2 DUP6 PUSH1 0x20 DUP7 ADD PUSH2 0x2345 JUMP JUMPDEST DUP1 DUP5 ADD SWAP2 POP POP SWAP3 SWAP2 POP POP JUMP JUMPDEST PUSH32 0x3A20000000000000000000000000000000000000000000000000000000000000 PUSH0 DUP3 ADD MSTORE POP JUMP JUMPDEST PUSH0 PUSH2 0x2C17 PUSH1 0x2 DUP4 PUSH2 0x2B5F JUMP JUMPDEST SWAP2 POP PUSH2 0x2C22 DUP3 PUSH2 0x2BE3 JUMP JUMPDEST PUSH1 0x2 DUP3 ADD SWAP1 POP SWAP2 SWAP1 POP JUMP JUMPDEST PUSH0 PUSH2 0x2C37 DUP3 PUSH2 0x2B91 JUMP JUMPDEST SWAP2 POP PUSH2 0x2C43 DUP3 DUP5 PUSH2 0x2BB3 JUMP JUMPDEST SWAP2 POP PUSH2 0x2C4E DUP3 PUSH2 0x2C0B JUMP JUMPDEST SWAP2 POP DUP2 SWAP1 POP SWAP3 SWAP2 POP POP JUMP JUMPDEST PUSH32 0x4E6F20706C617965727320696E207468652067616D6500000000000000000000 PUSH0 DUP3 ADD MSTORE POP JUMP JUMPDEST PUSH0 PUSH2 0x2C8D PUSH1 0x16 DUP4 PUSH2 0x2335 JUMP JUMPDEST SWAP2 POP PUSH2 0x2C98 DUP3 PUSH2 0x2C59 JUMP JUMPDEST PUSH1 0x20 DUP3 ADD SWAP1 POP SWAP2 SWAP1 POP JUMP JUMPDEST PUSH0 PUSH1 0x20 DUP3 ADD SWAP1 POP DUP2 DUP2 SUB PUSH0 DUP4 ADD MSTORE PUSH2 0x2CBA DUP2 PUSH2 0x2C81 JUMP JUMPDEST SWAP1 POP SWAP2 SWAP1 POP JUMP JUMPDEST PUSH32 0x506C61796572206973206E6F7420616374697665000000000000000000000000 PUSH0 DUP3 ADD MSTORE POP JUMP JUMPDEST PUSH0 PUSH2 0x2CF5 PUSH1 0x14 DUP4 PUSH2 0x2335 JUMP JUMPDEST SWAP2 POP PUSH2 0x2D00 DUP3 PUSH2 0x2CC1 JUMP JUMPDEST PUSH1 0x20 DUP3 ADD SWAP1 POP SWAP2 SWAP1 POP JUMP JUMPDEST PUSH0 PUSH1 0x20 DUP3 ADD SWAP1 POP DUP2 DUP2 SUB PUSH0 DUP4 ADD MSTORE PUSH2 0x2D22 DUP2 PUSH2 0x2CE9 JUMP JUMPDEST SWAP1 POP SWAP2 SWAP1 POP JUMP JUMPDEST PUSH32 0x506C6179657220697320616C7265616479206275737465640000000000000000 PUSH0 DUP3 ADD MSTORE POP JUMP JUMPDEST PUSH0 PUSH2 0x2D5D PUSH1 0x18 DUP4 PUSH2 0x2335 JUMP JUMPDEST SWAP2 POP PUSH2 0x2D68 DUP3 PUSH2 0x2D29 JUMP JUMPDEST PUSH1 0x20 DUP3 ADD SWAP1 POP SWAP2 SWAP1 POP JUMP JUMPDEST PUSH0 PUSH1 0x20 DUP3 ADD SWAP1 POP DUP2 DUP2 SUB PUSH0 DUP4 ADD MSTORE PUSH2 0x2D8A DUP2 PUSH2 0x2D51 JUMP JUMPDEST SWAP1 POP SWAP2 SWAP1 POP JUMP JUMPDEST PUSH32 0x4D6178203420706C617965727320616C6C6F7765640000000000000000000000 PUSH0 DUP3 ADD MSTORE POP JUMP JUMPDEST PUSH0 PUSH2 0x2DC5 PUSH1 0x15 DUP4 PUSH2 0x2335 JUMP JUMPDEST SWAP2 POP PUSH2 0x2DD0 DUP3 PUSH2 0x2D91 JUMP JUMPDEST PUSH1 0x20 DUP3 ADD SWAP1 POP SWAP2 SWAP1 POP JUMP JUMPDEST PUSH0 PUSH1 0x20 DUP3 ADD SWAP1 POP DUP2 DUP2 SUB PUSH0 DUP4 ADD MSTORE PUSH2 0x2DF2 DUP2 PUSH2 0x2DB9 JUMP JUMPDEST SWAP1 POP SWAP2 SWAP1 POP JUMP JUMPDEST PUSH32 0x42657420616D6F756E74206D69736D6174636800000000000000000000000000 PUSH0 DUP3 ADD MSTORE POP JUMP JUMPDEST PUSH0 PUSH2 0x2E2D PUSH1 0x13 DUP4 PUSH2 0x2335 JUMP JUMPDEST SWAP2 POP PUSH2 0x2E38 DUP3 PUSH2 0x2DF9 JUMP JUMPDEST PUSH1 0x20 DUP3 ADD SWAP1 POP SWAP2 SWAP1 POP JUMP JUMPDEST PUSH0 PUSH1 0x20 DUP3 ADD SWAP1 POP DUP2 DUP2 SUB PUSH0 DUP4 ADD MSTORE PUSH2 0x2E5A DUP2 PUSH2 0x2E21 JUMP JUMPDEST SWAP1 POP SWAP2 SWAP1 POP JUMP JUMPDEST PUSH0 PUSH2 0x2E6B DUP3 PUSH2 0x22FA JUMP JUMPDEST SWAP2 POP PUSH32 0xFFFFFFFFFFFFFFFFFFFFFFFFFFFFFFFFFFFFFFFFFFFFFFFFFFFFFFFFFFFFFFFF DUP3 SUB PUSH2 0x2E9D JUMPI PUSH2 0x2E9C PUSH2 0x2A2F JUMP JUMPDEST JUMPDEST PUSH1 0x1 DUP3 ADD SWAP1 POP SWAP2 SWAP1 POP JUMP JUMPDEST PUSH32 0x4E487B7100000000000000000000000000000000000000000000000000000000 PUSH0 MSTORE PUSH1 0x12 PUSH1 0x4 MSTORE PUSH1 0x24 PUSH0 REVERT JUMPDEST PUSH0 PUSH2 0x2EDF DUP3 PUSH2 0x2510 JUMP JUMPDEST SWAP2 POP PUSH2 0x2EEA DUP4 PUSH2 0x2510 JUMP JUMPDEST SWAP3 POP DUP3 PUSH2 0x2EFA JUMPI PUSH2 0x2EF9 PUSH2 0x2EA8 JUMP JUMPDEST JUMPDEST DUP3 DUP3 MOD SWAP1 POP SWAP3 SWAP2 POP POP JUMP JUMPDEST PUSH0 PUSH2 0x2F0F DUP3 PUSH2 0x2510 JUMP JUMPDEST SWAP2 POP PUSH1 0xFF DUP3 SUB PUSH2 0x2F22 JUMPI PUSH2 0x2F21 PUSH2 0x2A2F JUMP JUMPDEST JUMPDEST PUSH1 0x1 DUP3 ADD SWAP1 POP SWAP2 SWAP1 POP JUMP JUMPDEST PUSH0 PUSH2 0x2F37 DUP3 PUSH2 0x2510 JUMP JUMPDEST SWAP2 POP PUSH2 0x2F42 DUP4 PUSH2 0x2510 JUMP JUMPDEST SWAP3 POP DUP3 DUP3 ADD SWAP1 POP PUSH1 0xFF DUP2 GT ISZERO PUSH2 0x2F5B JUMPI PUSH2 0x2F5A PUSH2 0x2A2F JUMP JUMPDEST JUMPDEST SWAP3 SWAP2 POP POP JUMP JUMPDEST PUSH0 PUSH2 0x2F6B DUP3 PUSH2 0x2510 JUMP JUMPDEST SWAP2 POP PUSH0 DUP3 SUB PUSH2 0x2F7D JUMPI PUSH2 0x2F7C PUSH2 0x2A2F JUMP JUMPDEST JUMPDEST PUSH1 0x1 DUP3 SUB SWAP1 POP SWAP2 SWAP1 POP JUMP JUMPDEST PUSH32 0x4E6F206361726473206C65667420696E20746865206465636B00000000000000 PUSH0 DUP3 ADD MSTORE POP JUMP JUMPDEST PUSH0 PUSH2 0x2FBC PUSH1 0x19 DUP4 PUSH2 0x2335 JUMP JUMPDEST SWAP2 POP PUSH2 0x2FC7 DUP3 PUSH2 0x2F88 JUMP JUMPDEST PUSH1 0x20 DUP3 ADD SWAP1 POP SWAP2 SWAP1 POP JUMP JUMPDEST PUSH0 PUSH1 0x20 DUP3 ADD SWAP1 POP DUP2 DUP2 SUB PUSH0 DUP4 ADD MSTORE PUSH2 0x2FE9 DUP2 PUSH2 0x2FB0 JUMP JUMPDEST SWAP1 POP SWAP2 SWAP1 POP JUMP JUMPDEST PUSH0 PUSH2 0x2FFA DUP3 PUSH2 0x22FA JUMP JUMPDEST SWAP2 POP PUSH2 0x3005 DUP4 PUSH2 0x22FA JUMP JUMPDEST SWAP3 POP DUP3 DUP3 SUB SWAP1 POP DUP2 DUP2 GT ISZERO PUSH2 0x301D JUMPI PUSH2 0x301C PUSH2 0x2A2F JUMP JUMPDEST JUMPDEST SWAP3 SWAP2 POP POP JUMP JUMPDEST PUSH32 0x4E487B7100000000000000000000000000000000000000000000000000000000 PUSH0 MSTORE PUSH1 0x31 PUSH1 0x4 MSTORE PUSH1 0x24 PUSH0 REVERT JUMPDEST PUSH0 PUSH2 0x305B DUP3 DUP6 PUSH2 0x2BB3 JUMP JUMPDEST SWAP2 POP PUSH2 0x3067 DUP3 DUP5 PUSH2 0x2BB3 JUMP JUMPDEST SWAP2 POP DUP2 SWAP1 POP SWAP4 SWAP3 POP POP POP JUMP JUMPDEST PUSH32 0x2C20000000000000000000000000000000000000000000000000000000000000 PUSH0 DUP3 ADD MSTORE POP JUMP JUMPDEST PUSH0 PUSH2 0x30A7 PUSH1 0x2 DUP4 PUSH2 0x2B5F JUMP JUMPDEST SWAP2 POP PUSH2 0x30B2 DUP3 PUSH2 0x3073 JUMP JUMPDEST PUSH1 0x2 DUP3 ADD SWAP1 POP SWAP2 SWAP1 POP JUMP JUMPDEST PUSH0 PUSH2 0x30C8 DUP3 DUP5 PUSH2 0x2BB3 JUMP JUMPDEST SWAP2 POP PUSH2 0x30D3 DUP3 PUSH2 0x309B JUMP JUMPDEST SWAP2 POP DUP2 SWAP1 POP SWAP3 SWAP2 POP POP JUMP JUMPDEST PUSH0 PUSH2 0x30E8 DUP3 PUSH2 0x2B91 JUMP JUMPDEST SWAP2 POP PUSH2 0x30F4 DUP3 DUP5 PUSH2 0x2BB3 JUMP JUMPDEST SWAP2 POP DUP2 SWAP1 POP SWAP3 SWAP2 POP POP JUMP JUMPDEST PUSH0 PUSH2 0x310A DUP3 DUP6 PUSH2 0x2BB3 JUMP JUMPDEST SWAP2 POP PUSH2 0x3115 DUP3 PUSH2 0x309B JUMP JUMPDEST SWAP2 POP PUSH2 0x3121 DUP3 DUP5 PUSH2 0x2BB3 JUMP JUMPDEST SWAP2 POP DUP2 SWAP1 POP SWAP4 SWAP3 POP POP POP JUMP JUMPDEST PUSH0 PUSH2 0x3137 DUP3 PUSH2 0x22FA JUMP JUMPDEST SWAP2 POP PUSH2 0x3142 DUP4 PUSH2 0x22FA JUMP JUMPDEST SWAP3 POP DUP3 PUSH2 0x3152 JUMPI PUSH2 0x3151 PUSH2 0x2EA8 JUMP JUMPDEST JUMPDEST DUP3 DUP3 DIV SWAP1 POP SWAP3 SWAP2 POP POP JUMP JUMPDEST PUSH0 PUSH2 0x3167 DUP3 PUSH2 0x22FA JUMP JUMPDEST SWAP2 POP PUSH2 0x3172 DUP4 PUSH2 0x22FA JUMP JUMPDEST SWAP3 POP DUP3 PUSH2 0x3182 JUMPI PUSH2 0x3181 PUSH2 0x2EA8 JUMP JUMPDEST JUMPDEST DUP3 DUP3 MOD SWAP1 POP SWAP3 SWAP2 POP POP JUMP JUMPDEST PUSH0 PUSH2 0x3197 DUP3 PUSH2 0x22FA JUMP JUMPDEST SWAP2 POP PUSH0 DUP3 SUB PUSH2 0x31A9 JUMPI PUSH2 0x31A8 PUSH2 0x2A2F JUMP JUMPDEST JUMPDEST PUSH1 0x1 DUP3 SUB SWAP1 POP SWAP2 SWAP1 POP JUMP JUMPDEST PUSH0 DUP2 SWAP1 POP SWAP2 SWAP1 POP JUMP JUMPDEST PUSH2 0x31CE PUSH2 0x31C9 DUP3 PUSH2 0x22FA JUMP JUMPDEST PUSH2 0x31B4 JUMP JUMPDEST DUP3 MSTORE POP POP JUMP JUMPDEST PUSH0 DUP2 SWAP1 POP SWAP2 SWAP1 POP JUMP JUMPDEST PUSH0 DUP2 SWAP1 POP SWAP2 SWAP1 POP JUMP JUMPDEST PUSH2 0x31F7 PUSH2 0x31F2 DUP3 PUSH2 0x31D4 JUMP JUMPDEST PUSH2 0x31DD JUMP JUMPDEST DUP3 MSTORE POP POP JUMP JUMPDEST PUSH0 PUSH2 0x3208 DUP3 DUP7 PUSH2 0x31BD JUMP JUMPDEST PUSH1 0x20 DUP3 ADD SWAP2 POP PUSH2 0x3218 DUP3 DUP6 PUSH2 0x31BD JUMP JUMPDEST PUSH1 0x20 DUP3 ADD SWAP2 POP PUSH2 0x3228 DUP3 DUP5 PUSH2 0x31E6 JUMP JUMPDEST PUSH1 0x20 DUP3 ADD SWAP2 POP DUP2 SWAP1 POP SWAP5 SWAP4 POP POP POP POP JUMP JUMPDEST PUSH0 PUSH2 0x3244 DUP3 DUP5 PUSH2 0x31BD JUMP JUMPDEST PUSH1 0x20 DUP3 ADD SWAP2 POP DUP2 SWAP1 POP SWAP3 SWAP2 POP POP JUMP INVALID LOG2 PUSH5 0x6970667358 0x22 SLT KECCAK256 PUSH15 0x6367DCEB3EEF50CE2D15747CBD61E1 PUSH31 0x83B5878160431A89F96FCEB25D1F0464736F6C634300081A00330000000000 "
				},
				"gasEstimates": {
					"creation": {
						"codeDepositCost": "2587400",
						"executionCost": "infinite",
						"totalCost": "infinite"
					},
					"external": {
						"bank()": "2575",
						"bankHand(uint256)": "6576",
						"determineWinner()": "infinite",
						"formattedLastBankHand()": "infinite",
						"formattedLastWinners()": "infinite",
						"getAllHandsFormatted()": "infinite",
						"hit(uint256)": "infinite",
						"joinGame(uint256)": "infinite",
						"lastBankHand(uint256)": "6599",
						"lastWinners(uint256)": "4967",
						"playerCount()": "2449",
						"players(uint256)": "infinite",
						"stand(uint256)": "31313",
						"startGame()": "infinite"
					},
					"internal": {
						"findPlayerIndex(address)": "infinite",
						"formatHand(uint8[] memory,string memory)": "infinite",
						"formatWinners(address[] memory)": "infinite",
						"resetGame()": "infinite",
						"uint2str(uint256)": "infinite"
					}
				},
				"methodIdentifiers": {
					"bank()": "76cdb03b",
					"bankHand(uint256)": "70a88f84",
					"determineWinner()": "33b16d93",
					"formattedLastBankHand()": "df5df4bc",
					"formattedLastWinners()": "6bf9609c",
					"getAllHandsFormatted()": "b984354a",
					"hit(uint256)": "ebf6e91d",
					"joinGame(uint256)": "efaa55a0",
					"lastBankHand(uint256)": "4fdd055b",
					"lastWinners(uint256)": "adda2c2e",
					"playerCount()": "302bcc57",
					"players(uint256)": "f71d96cb",
					"stand(uint256)": "96b76c23",
					"startGame()": "d65ab5f2"
				}
			},
			"storageLayout": {
				"storage": [
					{
						"astId": 854,
						"contract": "Blackjack.sol:Blackjack",
						"label": "deck",
						"offset": 0,
						"slot": "0",
						"type": "t_array(t_uint8)dyn_storage"
					},
					{
						"astId": 23,
						"contract": "Blackjack.sol:Blackjack",
						"label": "players",
						"offset": 0,
						"slot": "1",
						"type": "t_array(t_struct(Player)19_storage)dyn_storage"
					},
					{
						"astId": 25,
						"contract": "Blackjack.sol:Blackjack",
						"label": "playerCount",
						"offset": 0,
						"slot": "2",
						"type": "t_uint256"
					},
					{
						"astId": 28,
						"contract": "Blackjack.sol:Blackjack",
						"label": "bankHand",
						"offset": 0,
						"slot": "3",
						"type": "t_array(t_uint8)dyn_storage"
					},
					{
						"astId": 30,
						"contract": "Blackjack.sol:Blackjack",
						"label": "bank",
						"offset": 0,
						"slot": "4",
						"type": "t_address"
					},
					{
						"astId": 33,
						"contract": "Blackjack.sol:Blackjack",
						"label": "lastBankHand",
						"offset": 0,
						"slot": "5",
						"type": "t_array(t_uint8)dyn_storage"
					},
					{
						"astId": 36,
						"contract": "Blackjack.sol:Blackjack",
						"label": "lastWinners",
						"offset": 0,
						"slot": "6",
						"type": "t_array(t_address)dyn_storage"
					},
					{
						"astId": 446,
						"contract": "Blackjack.sol:Blackjack",
						"label": "formattedLastBankHand",
						"offset": 0,
						"slot": "7",
						"type": "t_string_storage"
					},
					{
						"astId": 587,
						"contract": "Blackjack.sol:Blackjack",
						"label": "formattedLastWinners",
						"offset": 0,
						"slot": "8",
						"type": "t_string_storage"
					}
				],
				"types": {
					"t_address": {
						"encoding": "inplace",
						"label": "address",
						"numberOfBytes": "20"
					},
					"t_array(t_address)dyn_storage": {
						"base": "t_address",
						"encoding": "dynamic_array",
						"label": "address[]",
						"numberOfBytes": "32"
					},
					"t_array(t_struct(Player)19_storage)dyn_storage": {
						"base": "t_struct(Player)19_storage",
						"encoding": "dynamic_array",
						"label": "struct Blackjack.Player[]",
						"numberOfBytes": "32"
					},
					"t_array(t_uint8)dyn_storage": {
						"base": "t_uint8",
						"encoding": "dynamic_array",
						"label": "uint8[]",
						"numberOfBytes": "32"
					},
					"t_bool": {
						"encoding": "inplace",
						"label": "bool",
						"numberOfBytes": "1"
					},
					"t_string_storage": {
						"encoding": "bytes",
						"label": "string",
						"numberOfBytes": "32"
					},
					"t_struct(Player)19_storage": {
						"encoding": "inplace",
						"label": "struct Blackjack.Player",
						"members": [
							{
								"astId": 9,
								"contract": "Blackjack.sol:Blackjack",
								"label": "addr",
								"offset": 0,
								"slot": "0",
								"type": "t_address"
							},
							{
								"astId": 11,
								"contract": "Blackjack.sol:Blackjack",
								"label": "bet",
								"offset": 0,
								"slot": "1",
								"type": "t_uint256"
							},
							{
								"astId": 14,
								"contract": "Blackjack.sol:Blackjack",
								"label": "hand",
								"offset": 0,
								"slot": "2",
								"type": "t_array(t_uint8)dyn_storage"
							},
							{
								"astId": 16,
								"contract": "Blackjack.sol:Blackjack",
								"label": "isActive",
								"offset": 0,
								"slot": "3",
								"type": "t_bool"
							},
							{
								"astId": 18,
								"contract": "Blackjack.sol:Blackjack",
								"label": "isBusted",
								"offset": 1,
								"slot": "3",
								"type": "t_bool"
							}
						],
						"numberOfBytes": "128"
					},
					"t_uint256": {
						"encoding": "inplace",
						"label": "uint256",
						"numberOfBytes": "32"
					},
					"t_uint8": {
						"encoding": "inplace",
						"label": "uint8",
						"numberOfBytes": "1"
					}
				}
			},
			"userdoc": {
				"kind": "user",
				"methods": {},
				"version": 1
			}
		}
	}
}