{
	"Blackjack.sol": {
		"Blackjack": {
			"abi": [
				{
					"inputs": [],
					"stateMutability": "payable",
					"type": "constructor"
				},
				{
					"anonymous": false,
					"inputs": [
						{
							"indexed": false,
							"internalType": "uint8",
							"name": "card",
							"type": "uint8"
						}
					],
					"name": "BankCardDrawn",
					"type": "event"
				},
				{
					"anonymous": false,
					"inputs": [
						{
							"indexed": false,
							"internalType": "address",
							"name": "winner",
							"type": "address"
						},
						{
							"indexed": false,
							"internalType": "uint8",
							"name": "score",
							"type": "uint8"
						}
					],
					"name": "GameResult",
					"type": "event"
				},
				{
					"inputs": [],
					"name": "LastBankHand",
					"outputs": [
						{
							"internalType": "string",
							"name": "",
							"type": "string"
						}
					],
					"stateMutability": "view",
					"type": "function"
				},
				{
					"inputs": [],
					"name": "Winners",
					"outputs": [
						{
							"internalType": "string",
							"name": "",
							"type": "string"
						}
					],
					"stateMutability": "view",
					"type": "function"
				},
				{
					"inputs": [],
					"name": "determineWinner",
					"outputs": [
						{
							"internalType": "string",
							"name": "",
							"type": "string"
						},
						{
							"internalType": "address[]",
							"name": "",
							"type": "address[]"
						}
					],
					"stateMutability": "nonpayable",
					"type": "function"
				},
				{
					"inputs": [],
					"name": "getAllHands",
					"outputs": [
						{
							"internalType": "string[]",
							"name": "",
							"type": "string[]"
						}
					],
					"stateMutability": "view",
					"type": "function"
				},
				{
					"inputs": [],
					"name": "hit",
					"outputs": [],
					"stateMutability": "nonpayable",
					"type": "function"
				},
				{
					"inputs": [
						{
							"internalType": "uint256",
							"name": "bet",
							"type": "uint256"
						}
					],
					"name": "joinGame",
					"outputs": [],
					"stateMutability": "payable",
					"type": "function"
				},
				{
					"inputs": [],
					"name": "playerCount",
					"outputs": [
						{
							"internalType": "uint256",
							"name": "",
							"type": "uint256"
						}
					],
					"stateMutability": "view",
					"type": "function"
				},
				{
					"inputs": [
						{
							"internalType": "uint256",
							"name": "playerIndex",
							"type": "uint256"
						}
					],
					"name": "stand",
					"outputs": [],
					"stateMutability": "nonpayable",
					"type": "function"
				},
				{
					"inputs": [],
					"name": "startGame",
					"outputs": [],
					"stateMutability": "nonpayable",
					"type": "function"
				}
			],
			"devdoc": {
				"kind": "dev",
				"methods": {},
				"version": 1
			},
			"evm": {
				"assembly": "    /* \"Blackjack.sol\":116:7034  contract Blackjack is CardDeck, Randomness {... */\n  mstore(0x40, 0x80)\n    /* \"CardDeck.sol\":140:151  resetDeck() */\n  tag_4\n    /* \"CardDeck.sol\":140:149  resetDeck */\n  shl(0x20, tag_5)\n    /* \"CardDeck.sol\":140:151  resetDeck() */\n  0x20\n  shr\n  jump\t// in\ntag_4:\n    /* \"Blackjack.sol\":643:653  msg.sender */\n  caller\n    /* \"Blackjack.sol\":636:640  bank */\n  0x04\n  0x00\n    /* \"Blackjack.sol\":636:653  bank = msg.sender */\n  0x0100\n  exp\n  dup2\n  sload\n  dup2\n  0xffffffffffffffffffffffffffffffffffffffff\n  mul\n  not\n  and\n  swap1\n  dup4\n  0xffffffffffffffffffffffffffffffffffffffff\n  and\n  mul\n  or\n  swap1\n  sstore\n  pop\n    /* \"Blackjack.sol\":116:7034  contract Blackjack is CardDeck, Randomness {... */\n  jump(tag_7)\n    /* \"CardDeck.sol\":167:361  function resetDeck() internal {... */\ntag_5:\n    /* \"CardDeck.sol\":215:219  deck */\n  0x00\n  dup1\n    /* \"CardDeck.sol\":208:219  delete deck */\n  tag_9\n  swap2\n  swap1\n  tag_10\n  jump\t// in\ntag_9:\n    /* \"CardDeck.sol\":253:260  uint8 i */\n  0x00\n    /* \"CardDeck.sol\":263:264  1 */\n  0x01\n    /* \"CardDeck.sol\":253:264  uint8 i = 1 */\n  swap1\n  pop\n    /* \"CardDeck.sol\":248:354  for (uint8 i = 1; i <= 52; i++) {... */\ntag_11:\n    /* \"CardDeck.sol\":271:273  52 */\n  0x34\n    /* \"CardDeck.sol\":266:267  i */\n  dup2\n    /* \"CardDeck.sol\":266:273  i <= 52 */\n  0xff\n  and\n  gt\n    /* \"CardDeck.sol\":248:354  for (uint8 i = 1; i <= 52; i++) {... */\n  tag_12\n  jumpi\n    /* \"CardDeck.sol\":295:299  deck */\n  0x00\n    /* \"CardDeck.sol\":305:306  i */\n  dup2\n    /* \"CardDeck.sol\":295:307  deck.push(i) */\n  swap1\n  dup1\n  0x01\n  dup2\n  sload\n  add\n  dup1\n  dup3\n  sstore\n  dup1\n  swap2\n  pop\n  pop\n  0x01\n  swap1\n  sub\n  swap1\n  0x00\n  mstore\n  keccak256(0x00, 0x20)\n  swap1\n  0x20\n  swap2\n  dup3\n  dup3\n  div\n  add\n  swap2\n  swap1\n  mod\n  swap1\n  swap2\n  swap1\n  swap2\n  swap1\n  swap2\n  0x0100\n  exp\n  dup2\n  sload\n  dup2\n  0xff\n  mul\n  not\n  and\n  swap1\n  dup4\n  0xff\n  and\n  mul\n  or\n  swap1\n  sstore\n  pop\n    /* \"CardDeck.sol\":275:278  i++ */\n  dup1\n  dup1\n  tag_15\n  swap1\n  tag_16\n  jump\t// in\ntag_15:\n  swap2\n  pop\n  pop\n    /* \"CardDeck.sol\":248:354  for (uint8 i = 1; i <= 52; i++) {... */\n  jump(tag_11)\ntag_12:\n  pop\n    /* \"CardDeck.sol\":167:361  function resetDeck() internal {... */\n  jump\t// out\n    /* \"Blackjack.sol\":116:7034  contract Blackjack is CardDeck, Randomness {... */\ntag_10:\n  pop\n  dup1\n  sload\n  0x00\n  dup3\n  sstore\n  0x1f\n  add\n  0x20\n  swap1\n  div\n  swap1\n  0x00\n  mstore\n  keccak256(0x00, 0x20)\n  swap1\n  dup2\n  add\n  swap1\n  tag_18\n  swap2\n  swap1\n  tag_19\n  jump\t// in\ntag_18:\n  pop\n  jump\t// out\ntag_19:\ntag_20:\n  dup1\n  dup3\n  gt\n  iszero\n  tag_21\n  jumpi\n  0x00\n  dup2\n  0x00\n  swap1\n  sstore\n  pop\n  0x01\n  add\n  jump(tag_20)\ntag_21:\n  pop\n  swap1\n  jump\t// out\n    /* \"#utility.yul\":7:187   */\ntag_22:\n    /* \"#utility.yul\":55:132   */\n  0x4e487b7100000000000000000000000000000000000000000000000000000000\n    /* \"#utility.yul\":52:53   */\n  0x00\n    /* \"#utility.yul\":45:133   */\n  mstore\n    /* \"#utility.yul\":152:156   */\n  0x11\n    /* \"#utility.yul\":149:150   */\n  0x04\n    /* \"#utility.yul\":142:157   */\n  mstore\n    /* \"#utility.yul\":176:180   */\n  0x24\n    /* \"#utility.yul\":173:174   */\n  0x00\n    /* \"#utility.yul\":166:181   */\n  revert\n    /* \"#utility.yul\":193:279   */\ntag_23:\n    /* \"#utility.yul\":228:235   */\n  0x00\n    /* \"#utility.yul\":268:272   */\n  0xff\n    /* \"#utility.yul\":261:266   */\n  dup3\n    /* \"#utility.yul\":257:273   */\n  and\n    /* \"#utility.yul\":246:273   */\n  swap1\n  pop\n    /* \"#utility.yul\":193:279   */\n  swap2\n  swap1\n  pop\n  jump\t// out\n    /* \"#utility.yul\":285:452   */\ntag_16:\n    /* \"#utility.yul\":322:325   */\n  0x00\n    /* \"#utility.yul\":345:367   */\n  tag_28\n    /* \"#utility.yul\":361:366   */\n  dup3\n    /* \"#utility.yul\":345:367   */\n  tag_23\n  jump\t// in\ntag_28:\n    /* \"#utility.yul\":336:367   */\n  swap2\n  pop\n    /* \"#utility.yul\":389:393   */\n  0xff\n    /* \"#utility.yul\":382:387   */\n  dup3\n    /* \"#utility.yul\":379:394   */\n  sub\n    /* \"#utility.yul\":376:417   */\n  tag_29\n  jumpi\n    /* \"#utility.yul\":397:415   */\n  tag_30\n  tag_22\n  jump\t// in\ntag_30:\n    /* \"#utility.yul\":376:417   */\ntag_29:\n    /* \"#utility.yul\":444:445   */\n  0x01\n    /* \"#utility.yul\":437:442   */\n  dup3\n    /* \"#utility.yul\":433:446   */\n  add\n    /* \"#utility.yul\":426:446   */\n  swap1\n  pop\n    /* \"#utility.yul\":285:452   */\n  swap2\n  swap1\n  pop\n  jump\t// out\n    /* \"Blackjack.sol\":116:7034  contract Blackjack is CardDeck, Randomness {... */\ntag_7:\n  dataSize(sub_0)\n  dup1\n  dataOffset(sub_0)\n  0x00\n  codecopy\n  0x00\n  return\nstop\n\nsub_0: assembly {\n        /* \"Blackjack.sol\":116:7034  contract Blackjack is CardDeck, Randomness {... */\n      mstore(0x40, 0x80)\n      jumpi(tag_1, lt(calldatasize, 0x04))\n      shr(0xe0, calldataload(0x00))\n      dup1\n      0x96b76c23\n      gt\n      tag_11\n      jumpi\n      dup1\n      0x96b76c23\n      eq\n      tag_6\n      jumpi\n      dup1\n      0x9951a417\n      eq\n      tag_7\n      jumpi\n      dup1\n      0xd0e514fa\n      eq\n      tag_8\n      jumpi\n      dup1\n      0xd65ab5f2\n      eq\n      tag_9\n      jumpi\n      dup1\n      0xefaa55a0\n      eq\n      tag_10\n      jumpi\n      jump(tag_1)\n    tag_11:\n      dup1\n      0x14106ad6\n      eq\n      tag_2\n      jumpi\n      dup1\n      0x2ae3594a\n      eq\n      tag_3\n      jumpi\n      dup1\n      0x302bcc57\n      eq\n      tag_4\n      jumpi\n      dup1\n      0x33b16d93\n      eq\n      tag_5\n      jumpi\n    tag_1:\n      0x00\n      dup1\n      revert\n        /* \"Blackjack.sol\":3820:3846  string public LastBankHand */\n    tag_2:\n      callvalue\n      dup1\n      iszero\n      tag_12\n      jumpi\n      0x00\n      dup1\n      revert\n    tag_12:\n      pop\n      tag_13\n      tag_14\n      jump\t// in\n    tag_13:\n      mload(0x40)\n      tag_15\n      swap2\n      swap1\n      tag_16\n      jump\t// in\n    tag_15:\n      mload(0x40)\n      dup1\n      swap2\n      sub\n      swap1\n      return\n        /* \"Blackjack.sol\":2954:3535  function hit() external {... */\n    tag_3:\n      callvalue\n      dup1\n      iszero\n      tag_17\n      jumpi\n      0x00\n      dup1\n      revert\n    tag_17:\n      pop\n      tag_18\n      tag_19\n      jump\t// in\n    tag_18:\n      stop\n        /* \"Blackjack.sol\":343:369  uint256 public playerCount */\n    tag_4:\n      callvalue\n      dup1\n      iszero\n      tag_20\n      jumpi\n      0x00\n      dup1\n      revert\n    tag_20:\n      pop\n      tag_21\n      tag_22\n      jump\t// in\n    tag_21:\n      mload(0x40)\n      tag_23\n      swap2\n      swap1\n      tag_24\n      jump\t// in\n    tag_23:\n      mload(0x40)\n      dup1\n      swap2\n      sub\n      swap1\n      return\n        /* \"Blackjack.sol\":3953:5009  function determineWinner() external returns (string memory, address[] memory) {... */\n    tag_5:\n      callvalue\n      dup1\n      iszero\n      tag_25\n      jumpi\n      0x00\n      dup1\n      revert\n    tag_25:\n      pop\n      tag_26\n      tag_27\n      jump\t// in\n    tag_26:\n      mload(0x40)\n      tag_28\n      swap3\n      swap2\n      swap1\n      tag_29\n      jump\t// in\n    tag_28:\n      mload(0x40)\n      dup1\n      swap2\n      sub\n      swap1\n      return\n        /* \"Blackjack.sol\":3543:3720  function stand(uint256 playerIndex) external {... */\n    tag_6:\n      callvalue\n      dup1\n      iszero\n      tag_30\n      jumpi\n      0x00\n      dup1\n      revert\n    tag_30:\n      pop\n      tag_31\n      0x04\n      dup1\n      calldatasize\n      sub\n      dup2\n      add\n      swap1\n      tag_32\n      swap2\n      swap1\n      tag_33\n      jump\t// in\n    tag_32:\n      tag_34\n      jump\t// in\n    tag_31:\n      stop\n        /* \"Blackjack.sol\":3886:3907  string public Winners */\n    tag_7:\n      callvalue\n      dup1\n      iszero\n      tag_35\n      jumpi\n      0x00\n      dup1\n      revert\n    tag_35:\n      pop\n      tag_36\n      tag_37\n      jump\t// in\n    tag_36:\n      mload(0x40)\n      tag_38\n      swap2\n      swap1\n      tag_16\n      jump\t// in\n    tag_38:\n      mload(0x40)\n      dup1\n      swap2\n      sub\n      swap1\n      return\n        /* \"Blackjack.sol\":2436:2946  function getAllHands() external view returns (string[] memory) {... */\n    tag_8:\n      callvalue\n      dup1\n      iszero\n      tag_39\n      jumpi\n      0x00\n      dup1\n      revert\n    tag_39:\n      pop\n      tag_40\n      tag_41\n      jump\t// in\n    tag_40:\n      mload(0x40)\n      tag_42\n      swap2\n      swap1\n      tag_43\n      jump\t// in\n    tag_42:\n      mload(0x40)\n      dup1\n      swap2\n      sub\n      swap1\n      return\n        /* \"Blackjack.sol\":1072:1396  function startGame() external {... */\n    tag_9:\n      callvalue\n      dup1\n      iszero\n      tag_44\n      jumpi\n      0x00\n      dup1\n      revert\n    tag_44:\n      pop\n      tag_45\n      tag_46\n      jump\t// in\n    tag_45:\n      stop\n        /* \"Blackjack.sol\":669:1064  function joinGame(uint256 bet) external payable {... */\n    tag_10:\n      tag_47\n      0x04\n      dup1\n      calldatasize\n      sub\n      dup2\n      add\n      swap1\n      tag_48\n      swap2\n      swap1\n      tag_33\n      jump\t// in\n    tag_48:\n      tag_49\n      jump\t// in\n    tag_47:\n      stop\n        /* \"Blackjack.sol\":3820:3846  string public LastBankHand */\n    tag_14:\n      0x07\n      dup1\n      sload\n      tag_50\n      swap1\n      tag_51\n      jump\t// in\n    tag_50:\n      dup1\n      0x1f\n      add\n      0x20\n      dup1\n      swap2\n      div\n      mul\n      0x20\n      add\n      mload(0x40)\n      swap1\n      dup2\n      add\n      0x40\n      mstore\n      dup1\n      swap3\n      swap2\n      swap1\n      dup2\n      dup2\n      mstore\n      0x20\n      add\n      dup3\n      dup1\n      sload\n      tag_52\n      swap1\n      tag_51\n      jump\t// in\n    tag_52:\n      dup1\n      iszero\n      tag_53\n      jumpi\n      dup1\n      0x1f\n      lt\n      tag_54\n      jumpi\n      0x0100\n      dup1\n      dup4\n      sload\n      div\n      mul\n      dup4\n      mstore\n      swap2\n      0x20\n      add\n      swap2\n      jump(tag_53)\n    tag_54:\n      dup3\n      add\n      swap2\n      swap1\n      0x00\n      mstore\n      keccak256(0x00, 0x20)\n      swap1\n    tag_55:\n      dup2\n      sload\n      dup2\n      mstore\n      swap1\n      0x01\n      add\n      swap1\n      0x20\n      add\n      dup1\n      dup4\n      gt\n      tag_55\n      jumpi\n      dup3\n      swap1\n      sub\n      0x1f\n      and\n      dup3\n      add\n      swap2\n    tag_53:\n      pop\n      pop\n      pop\n      pop\n      pop\n      dup2\n      jump\t// out\n        /* \"Blackjack.sol\":2954:3535  function hit() external {... */\n    tag_19:\n        /* \"Blackjack.sol\":2989:3008  uint256 playerIndex */\n      0x00\n        /* \"Blackjack.sol\":3011:3038  findPlayerIndex(msg.sender) */\n      tag_57\n        /* \"Blackjack.sol\":3027:3037  msg.sender */\n      caller\n        /* \"Blackjack.sol\":3011:3026  findPlayerIndex */\n      tag_58\n        /* \"Blackjack.sol\":3011:3038  findPlayerIndex(msg.sender) */\n      jump\t// in\n    tag_57:\n        /* \"Blackjack.sol\":2989:3038  uint256 playerIndex = findPlayerIndex(msg.sender) */\n      swap1\n      pop\n        /* \"Blackjack.sol\":3072:3089  type(uint256).max */\n      0xffffffffffffffffffffffffffffffffffffffffffffffffffffffffffffffff\n        /* \"Blackjack.sol\":3057:3068  playerIndex */\n      dup2\n        /* \"Blackjack.sol\":3057:3089  playerIndex != type(uint256).max */\n      sub\n        /* \"Blackjack.sol\":3049:3114  require(playerIndex != type(uint256).max, \"You are not a player\") */\n      tag_59\n      jumpi\n      mload(0x40)\n      0x08c379a000000000000000000000000000000000000000000000000000000000\n      dup2\n      mstore\n      0x04\n      add\n      tag_60\n      swap1\n      tag_61\n      jump\t// in\n    tag_60:\n      mload(0x40)\n      dup1\n      swap2\n      sub\n      swap1\n      revert\n    tag_59:\n        /* \"Blackjack.sol\":3135:3142  players */\n      0x01\n        /* \"Blackjack.sol\":3143:3154  playerIndex */\n      dup2\n        /* \"Blackjack.sol\":3135:3155  players[playerIndex] */\n      dup2\n      sload\n      dup2\n      lt\n      tag_62\n      jumpi\n      tag_63\n      tag_64\n      jump\t// in\n    tag_63:\n    tag_62:\n      swap1\n      0x00\n      mstore\n      keccak256(0x00, 0x20)\n      swap1\n      0x04\n      mul\n      add\n        /* \"Blackjack.sol\":3135:3164  players[playerIndex].isActive */\n      0x03\n      add\n      0x00\n      swap1\n      sload\n      swap1\n      0x0100\n      exp\n      swap1\n      div\n      0xff\n      and\n        /* \"Blackjack.sol\":3127:3189  require(players[playerIndex].isActive, \"Player is not active\") */\n      tag_66\n      jumpi\n      mload(0x40)\n      0x08c379a000000000000000000000000000000000000000000000000000000000\n      dup2\n      mstore\n      0x04\n      add\n      tag_67\n      swap1\n      tag_68\n      jump\t// in\n    tag_67:\n      mload(0x40)\n      dup1\n      swap2\n      sub\n      swap1\n      revert\n    tag_66:\n        /* \"Blackjack.sol\":3209:3216  players */\n      0x01\n        /* \"Blackjack.sol\":3217:3228  playerIndex */\n      dup2\n        /* \"Blackjack.sol\":3209:3229  players[playerIndex] */\n      dup2\n      sload\n      dup2\n      lt\n      tag_69\n      jumpi\n      tag_70\n      tag_64\n      jump\t// in\n    tag_70:\n    tag_69:\n      swap1\n      0x00\n      mstore\n      keccak256(0x00, 0x20)\n      swap1\n      0x04\n      mul\n      add\n        /* \"Blackjack.sol\":3209:3238  players[playerIndex].isBusted */\n      0x03\n      add\n      0x01\n      swap1\n      sload\n      swap1\n      0x0100\n      exp\n      swap1\n      div\n      0xff\n      and\n        /* \"Blackjack.sol\":3208:3238  !players[playerIndex].isBusted */\n      iszero\n        /* \"Blackjack.sol\":3200:3267  require(!players[playerIndex].isBusted, \"Player is already busted\") */\n      tag_72\n      jumpi\n      mload(0x40)\n      0x08c379a000000000000000000000000000000000000000000000000000000000\n      dup2\n      mstore\n      0x04\n      add\n      tag_73\n      swap1\n      tag_74\n      jump\t// in\n    tag_73:\n      mload(0x40)\n      dup1\n      swap2\n      sub\n      swap1\n      revert\n    tag_72:\n        /* \"Blackjack.sol\":3280:3290  uint8 card */\n      0x00\n        /* \"Blackjack.sol\":3293:3303  drawCard() */\n      tag_75\n        /* \"Blackjack.sol\":3293:3301  drawCard */\n      tag_76\n        /* \"Blackjack.sol\":3293:3303  drawCard() */\n      jump\t// in\n    tag_75:\n        /* \"Blackjack.sol\":3280:3303  uint8 card = drawCard() */\n      swap1\n      pop\n        /* \"Blackjack.sol\":3314:3321  players */\n      0x01\n        /* \"Blackjack.sol\":3322:3333  playerIndex */\n      dup3\n        /* \"Blackjack.sol\":3314:3334  players[playerIndex] */\n      dup2\n      sload\n      dup2\n      lt\n      tag_77\n      jumpi\n      tag_78\n      tag_64\n      jump\t// in\n    tag_78:\n    tag_77:\n      swap1\n      0x00\n      mstore\n      keccak256(0x00, 0x20)\n      swap1\n      0x04\n      mul\n      add\n        /* \"Blackjack.sol\":3314:3339  players[playerIndex].hand */\n      0x02\n      add\n        /* \"Blackjack.sol\":3345:3349  card */\n      dup2\n        /* \"Blackjack.sol\":3314:3350  players[playerIndex].hand.push(card) */\n      swap1\n      dup1\n      0x01\n      dup2\n      sload\n      add\n      dup1\n      dup3\n      sstore\n      dup1\n      swap2\n      pop\n      pop\n      0x01\n      swap1\n      sub\n      swap1\n      0x00\n      mstore\n      keccak256(0x00, 0x20)\n      swap1\n      0x20\n      swap2\n      dup3\n      dup3\n      div\n      add\n      swap2\n      swap1\n      mod\n      swap1\n      swap2\n      swap1\n      swap2\n      swap1\n      swap2\n      0x0100\n      exp\n      dup2\n      sload\n      dup2\n      0xff\n      mul\n      not\n      and\n      swap1\n      dup4\n      0xff\n      and\n      mul\n      or\n      swap1\n      sstore\n      pop\n        /* \"Blackjack.sol\":3409:3411  21 */\n      0x15\n        /* \"Blackjack.sol\":3367:3406  getHandValue(players[playerIndex].hand) */\n      tag_81\n        /* \"Blackjack.sol\":3380:3387  players */\n      0x01\n        /* \"Blackjack.sol\":3388:3399  playerIndex */\n      dup5\n        /* \"Blackjack.sol\":3380:3400  players[playerIndex] */\n      dup2\n      sload\n      dup2\n      lt\n      tag_82\n      jumpi\n      tag_83\n      tag_64\n      jump\t// in\n    tag_83:\n    tag_82:\n      swap1\n      0x00\n      mstore\n      keccak256(0x00, 0x20)\n      swap1\n      0x04\n      mul\n      add\n        /* \"Blackjack.sol\":3380:3405  players[playerIndex].hand */\n      0x02\n      add\n        /* \"Blackjack.sol\":3367:3406  getHandValue(players[playerIndex].hand) */\n      dup1\n      sload\n      dup1\n      0x20\n      mul\n      0x20\n      add\n      mload(0x40)\n      swap1\n      dup2\n      add\n      0x40\n      mstore\n      dup1\n      swap3\n      swap2\n      swap1\n      dup2\n      dup2\n      mstore\n      0x20\n      add\n      dup3\n      dup1\n      sload\n      dup1\n      iszero\n      tag_85\n      jumpi\n      0x20\n      mul\n      dup3\n      add\n      swap2\n      swap1\n      0x00\n      mstore\n      keccak256(0x00, 0x20)\n      swap1\n      0x00\n      swap1\n    tag_86:\n      dup3\n      dup3\n      swap1\n      sload\n      swap1\n      0x0100\n      exp\n      swap1\n      div\n      0xff\n      and\n      0xff\n      and\n      dup2\n      mstore\n      0x20\n      add\n      swap1\n      0x01\n      add\n      swap1\n      0x20\n      dup3\n      0x00\n      add\n      div\n      swap3\n      dup4\n      add\n      swap3\n      0x01\n      sub\n      dup3\n      mul\n      swap2\n      pop\n      dup1\n      dup5\n      gt\n      tag_86\n      jumpi\n      swap1\n      pop\n    tag_85:\n      pop\n      pop\n      pop\n      pop\n      pop\n        /* \"Blackjack.sol\":3367:3379  getHandValue */\n      tag_87\n        /* \"Blackjack.sol\":3367:3406  getHandValue(players[playerIndex].hand) */\n      jump\t// in\n    tag_81:\n        /* \"Blackjack.sol\":3367:3411  getHandValue(players[playerIndex].hand) > 21 */\n      0xff\n      and\n      gt\n        /* \"Blackjack.sol\":3363:3528  if (getHandValue(players[playerIndex].hand) > 21) {... */\n      iszero\n      tag_88\n      jumpi\n        /* \"Blackjack.sol\":3460:3464  true */\n      0x01\n        /* \"Blackjack.sol\":3428:3435  players */\n      dup1\n        /* \"Blackjack.sol\":3436:3447  playerIndex */\n      dup4\n        /* \"Blackjack.sol\":3428:3448  players[playerIndex] */\n      dup2\n      sload\n      dup2\n      lt\n      tag_89\n      jumpi\n      tag_90\n      tag_64\n      jump\t// in\n    tag_90:\n    tag_89:\n      swap1\n      0x00\n      mstore\n      keccak256(0x00, 0x20)\n      swap1\n      0x04\n      mul\n      add\n        /* \"Blackjack.sol\":3428:3457  players[playerIndex].isBusted */\n      0x03\n      add\n      0x01\n        /* \"Blackjack.sol\":3428:3464  players[playerIndex].isBusted = true */\n      0x0100\n      exp\n      dup2\n      sload\n      dup2\n      0xff\n      mul\n      not\n      and\n      swap1\n      dup4\n      iszero\n      iszero\n      mul\n      or\n      swap1\n      sstore\n      pop\n        /* \"Blackjack.sol\":3511:3516  false */\n      0x00\n        /* \"Blackjack.sol\":3479:3486  players */\n      0x01\n        /* \"Blackjack.sol\":3487:3498  playerIndex */\n      dup4\n        /* \"Blackjack.sol\":3479:3499  players[playerIndex] */\n      dup2\n      sload\n      dup2\n      lt\n      tag_92\n      jumpi\n      tag_93\n      tag_64\n      jump\t// in\n    tag_93:\n    tag_92:\n      swap1\n      0x00\n      mstore\n      keccak256(0x00, 0x20)\n      swap1\n      0x04\n      mul\n      add\n        /* \"Blackjack.sol\":3479:3508  players[playerIndex].isActive */\n      0x03\n      add\n      0x00\n        /* \"Blackjack.sol\":3479:3516  players[playerIndex].isActive = false */\n      0x0100\n      exp\n      dup2\n      sload\n      dup2\n      0xff\n      mul\n      not\n      and\n      swap1\n      dup4\n      iszero\n      iszero\n      mul\n      or\n      swap1\n      sstore\n      pop\n        /* \"Blackjack.sol\":3363:3528  if (getHandValue(players[playerIndex].hand) > 21) {... */\n    tag_88:\n        /* \"Blackjack.sol\":2978:3535  {... */\n      pop\n      pop\n        /* \"Blackjack.sol\":2954:3535  function hit() external {... */\n      jump\t// out\n        /* \"Blackjack.sol\":343:369  uint256 public playerCount */\n    tag_22:\n      sload(0x02)\n      dup2\n      jump\t// out\n        /* \"Blackjack.sol\":3953:5009  function determineWinner() external returns (string memory, address[] memory) {... */\n    tag_27:\n        /* \"Blackjack.sol\":3998:4011  string memory */\n      0x60\n        /* \"Blackjack.sol\":4013:4029  address[] memory */\n      dup1\n        /* \"Blackjack.sol\":4042:4057  uint8 bankScore */\n      0x00\n        /* \"Blackjack.sol\":4060:4082  getHandValue(bankHand) */\n      tag_96\n        /* \"Blackjack.sol\":4073:4081  bankHand */\n      0x03\n        /* \"Blackjack.sol\":4060:4082  getHandValue(bankHand) */\n      dup1\n      sload\n      dup1\n      0x20\n      mul\n      0x20\n      add\n      mload(0x40)\n      swap1\n      dup2\n      add\n      0x40\n      mstore\n      dup1\n      swap3\n      swap2\n      swap1\n      dup2\n      dup2\n      mstore\n      0x20\n      add\n      dup3\n      dup1\n      sload\n      dup1\n      iszero\n      tag_97\n      jumpi\n      0x20\n      mul\n      dup3\n      add\n      swap2\n      swap1\n      0x00\n      mstore\n      keccak256(0x00, 0x20)\n      swap1\n      0x00\n      swap1\n    tag_98:\n      dup3\n      dup3\n      swap1\n      sload\n      swap1\n      0x0100\n      exp\n      swap1\n      div\n      0xff\n      and\n      0xff\n      and\n      dup2\n      mstore\n      0x20\n      add\n      swap1\n      0x01\n      add\n      swap1\n      0x20\n      dup3\n      0x00\n      add\n      div\n      swap3\n      dup4\n      add\n      swap3\n      0x01\n      sub\n      dup3\n      mul\n      swap2\n      pop\n      dup1\n      dup5\n      gt\n      tag_98\n      jumpi\n      swap1\n      pop\n    tag_97:\n      pop\n      pop\n      pop\n      pop\n      pop\n        /* \"Blackjack.sol\":4060:4072  getHandValue */\n      tag_87\n        /* \"Blackjack.sol\":4060:4082  getHandValue(bankHand) */\n      jump\t// in\n    tag_96:\n        /* \"Blackjack.sol\":4042:4082  uint8 bankScore = getHandValue(bankHand) */\n      swap1\n      pop\n        /* \"Blackjack.sol\":4100:4111  lastWinners */\n      0x06\n      0x00\n        /* \"Blackjack.sol\":4093:4111  delete lastWinners */\n      tag_99\n      swap2\n      swap1\n      tag_100\n      jump\t// in\n    tag_99:\n        /* \"Blackjack.sol\":4124:4319  while (bankScore < 17) {... */\n    tag_101:\n        /* \"Blackjack.sol\":4143:4145  17 */\n      0x11\n        /* \"Blackjack.sol\":4131:4140  bankScore */\n      dup2\n        /* \"Blackjack.sol\":4131:4145  bankScore < 17 */\n      0xff\n      and\n      lt\n        /* \"Blackjack.sol\":4124:4319  while (bankScore < 17) {... */\n      iszero\n      tag_102\n      jumpi\n        /* \"Blackjack.sol\":4162:4172  uint8 card */\n      0x00\n        /* \"Blackjack.sol\":4175:4185  drawCard() */\n      tag_103\n        /* \"Blackjack.sol\":4175:4183  drawCard */\n      tag_76\n        /* \"Blackjack.sol\":4175:4185  drawCard() */\n      jump\t// in\n    tag_103:\n        /* \"Blackjack.sol\":4162:4185  uint8 card = drawCard() */\n      swap1\n      pop\n        /* \"Blackjack.sol\":4200:4208  bankHand */\n      0x03\n        /* \"Blackjack.sol\":4214:4218  card */\n      dup2\n        /* \"Blackjack.sol\":4200:4219  bankHand.push(card) */\n      swap1\n      dup1\n      0x01\n      dup2\n      sload\n      add\n      dup1\n      dup3\n      sstore\n      dup1\n      swap2\n      pop\n      pop\n      0x01\n      swap1\n      sub\n      swap1\n      0x00\n      mstore\n      keccak256(0x00, 0x20)\n      swap1\n      0x20\n      swap2\n      dup3\n      dup3\n      div\n      add\n      swap2\n      swap1\n      mod\n      swap1\n      swap2\n      swap1\n      swap2\n      swap1\n      swap2\n      0x0100\n      exp\n      dup2\n      sload\n      dup2\n      0xff\n      mul\n      not\n      and\n      swap1\n      dup4\n      0xff\n      and\n      mul\n      or\n      swap1\n      sstore\n      pop\n        /* \"Blackjack.sol\":4246:4268  getHandValue(bankHand) */\n      tag_105\n        /* \"Blackjack.sol\":4259:4267  bankHand */\n      0x03\n        /* \"Blackjack.sol\":4246:4268  getHandValue(bankHand) */\n      dup1\n      sload\n      dup1\n      0x20\n      mul\n      0x20\n      add\n      mload(0x40)\n      swap1\n      dup2\n      add\n      0x40\n      mstore\n      dup1\n      swap3\n      swap2\n      swap1\n      dup2\n      dup2\n      mstore\n      0x20\n      add\n      dup3\n      dup1\n      sload\n      dup1\n      iszero\n      tag_106\n      jumpi\n      0x20\n      mul\n      dup3\n      add\n      swap2\n      swap1\n      0x00\n      mstore\n      keccak256(0x00, 0x20)\n      swap1\n      0x00\n      swap1\n    tag_107:\n      dup3\n      dup3\n      swap1\n      sload\n      swap1\n      0x0100\n      exp\n      swap1\n      div\n      0xff\n      and\n      0xff\n      and\n      dup2\n      mstore\n      0x20\n      add\n      swap1\n      0x01\n      add\n      swap1\n      0x20\n      dup3\n      0x00\n      add\n      div\n      swap3\n      dup4\n      add\n      swap3\n      0x01\n      sub\n      dup3\n      mul\n      swap2\n      pop\n      dup1\n      dup5\n      gt\n      tag_107\n      jumpi\n      swap1\n      pop\n    tag_106:\n      pop\n      pop\n      pop\n      pop\n      pop\n        /* \"Blackjack.sol\":4246:4258  getHandValue */\n      tag_87\n        /* \"Blackjack.sol\":4246:4268  getHandValue(bankHand) */\n      jump\t// in\n    tag_105:\n        /* \"Blackjack.sol\":4234:4268  bankScore = getHandValue(bankHand) */\n      swap2\n      pop\n        /* \"Blackjack.sol\":4288:4307  BankCardDrawn(card) */\n      0x74719e1845aac9a5b808b73f76f15e0ded61fd1f03fc0cd802e98e8e1d2299fe\n        /* \"Blackjack.sol\":4302:4306  card */\n      dup2\n        /* \"Blackjack.sol\":4288:4307  BankCardDrawn(card) */\n      mload(0x40)\n      tag_108\n      swap2\n      swap1\n      tag_109\n      jump\t// in\n    tag_108:\n      mload(0x40)\n      dup1\n      swap2\n      sub\n      swap1\n      log1\n        /* \"Blackjack.sol\":4147:4319  {... */\n      pop\n        /* \"Blackjack.sol\":4124:4319  while (bankScore < 17) {... */\n      jump(tag_101)\n    tag_102:\n        /* \"Blackjack.sol\":4379:4387  bankHand */\n      0x03\n        /* \"Blackjack.sol\":4364:4376  lastBankHand */\n      0x05\n        /* \"Blackjack.sol\":4364:4387  lastBankHand = bankHand */\n      swap1\n      dup1\n      sload\n      tag_110\n      swap3\n      swap2\n      swap1\n      tag_111\n      jump\t// in\n    tag_110:\n      pop\n        /* \"Blackjack.sol\":4413:4457  formatHand(lastBankHand, \"Last Bank Hand: \") */\n      tag_112\n        /* \"Blackjack.sol\":4424:4436  lastBankHand */\n      0x05\n        /* \"Blackjack.sol\":4413:4457  formatHand(lastBankHand, \"Last Bank Hand: \") */\n      dup1\n      sload\n      dup1\n      0x20\n      mul\n      0x20\n      add\n      mload(0x40)\n      swap1\n      dup2\n      add\n      0x40\n      mstore\n      dup1\n      swap3\n      swap2\n      swap1\n      dup2\n      dup2\n      mstore\n      0x20\n      add\n      dup3\n      dup1\n      sload\n      dup1\n      iszero\n      tag_113\n      jumpi\n      0x20\n      mul\n      dup3\n      add\n      swap2\n      swap1\n      0x00\n      mstore\n      keccak256(0x00, 0x20)\n      swap1\n      0x00\n      swap1\n    tag_114:\n      dup3\n      dup3\n      swap1\n      sload\n      swap1\n      0x0100\n      exp\n      swap1\n      div\n      0xff\n      and\n      0xff\n      and\n      dup2\n      mstore\n      0x20\n      add\n      swap1\n      0x01\n      add\n      swap1\n      0x20\n      dup3\n      0x00\n      add\n      div\n      swap3\n      dup4\n      add\n      swap3\n      0x01\n      sub\n      dup3\n      mul\n      swap2\n      pop\n      dup1\n      dup5\n      gt\n      tag_114\n      jumpi\n      swap1\n      pop\n    tag_113:\n      pop\n      pop\n      pop\n      pop\n      pop\n      mload(0x40)\n      dup1\n      0x40\n      add\n      0x40\n      mstore\n      dup1\n      0x10\n      dup2\n      mstore\n      0x20\n      add\n      0x4c6173742042616e6b2048616e643a2000000000000000000000000000000000\n      dup2\n      mstore\n      pop\n        /* \"Blackjack.sol\":4413:4423  formatHand */\n      tag_115\n        /* \"Blackjack.sol\":4413:4457  formatHand(lastBankHand, \"Last Bank Hand: \") */\n      jump\t// in\n    tag_112:\n        /* \"Blackjack.sol\":4398:4410  LastBankHand */\n      0x07\n        /* \"Blackjack.sol\":4398:4457  LastBankHand = formatHand(lastBankHand, \"Last Bank Hand: \") */\n      swap1\n      dup2\n      tag_116\n      swap2\n      swap1\n      tag_117\n      jump\t// in\n    tag_116:\n      pop\n        /* \"Blackjack.sol\":4475:4484  uint256 i */\n      0x00\n        /* \"Blackjack.sol\":4470:4882  for (uint256 i = 0; i < players.length; i++) {... */\n    tag_118:\n        /* \"Blackjack.sol\":4494:4501  players */\n      0x01\n        /* \"Blackjack.sol\":4494:4508  players.length */\n      dup1\n      sload\n      swap1\n      pop\n        /* \"Blackjack.sol\":4490:4491  i */\n      dup2\n        /* \"Blackjack.sol\":4490:4508  i < players.length */\n      lt\n        /* \"Blackjack.sol\":4470:4882  for (uint256 i = 0; i < players.length; i++) {... */\n      iszero\n      tag_119\n      jumpi\n        /* \"Blackjack.sol\":4530:4547  uint8 playerScore */\n      0x00\n        /* \"Blackjack.sol\":4550:4579  getHandValue(players[i].hand) */\n      tag_121\n        /* \"Blackjack.sol\":4563:4570  players */\n      0x01\n        /* \"Blackjack.sol\":4571:4572  i */\n      dup4\n        /* \"Blackjack.sol\":4563:4573  players[i] */\n      dup2\n      sload\n      dup2\n      lt\n      tag_122\n      jumpi\n      tag_123\n      tag_64\n      jump\t// in\n    tag_123:\n    tag_122:\n      swap1\n      0x00\n      mstore\n      keccak256(0x00, 0x20)\n      swap1\n      0x04\n      mul\n      add\n        /* \"Blackjack.sol\":4563:4578  players[i].hand */\n      0x02\n      add\n        /* \"Blackjack.sol\":4550:4579  getHandValue(players[i].hand) */\n      dup1\n      sload\n      dup1\n      0x20\n      mul\n      0x20\n      add\n      mload(0x40)\n      swap1\n      dup2\n      add\n      0x40\n      mstore\n      dup1\n      swap3\n      swap2\n      swap1\n      dup2\n      dup2\n      mstore\n      0x20\n      add\n      dup3\n      dup1\n      sload\n      dup1\n      iszero\n      tag_125\n      jumpi\n      0x20\n      mul\n      dup3\n      add\n      swap2\n      swap1\n      0x00\n      mstore\n      keccak256(0x00, 0x20)\n      swap1\n      0x00\n      swap1\n    tag_126:\n      dup3\n      dup3\n      swap1\n      sload\n      swap1\n      0x0100\n      exp\n      swap1\n      div\n      0xff\n      and\n      0xff\n      and\n      dup2\n      mstore\n      0x20\n      add\n      swap1\n      0x01\n      add\n      swap1\n      0x20\n      dup3\n      0x00\n      add\n      div\n      swap3\n      dup4\n      add\n      swap3\n      0x01\n      sub\n      dup3\n      mul\n      swap2\n      pop\n      dup1\n      dup5\n      gt\n      tag_126\n      jumpi\n      swap1\n      pop\n    tag_125:\n      pop\n      pop\n      pop\n      pop\n      pop\n        /* \"Blackjack.sol\":4550:4562  getHandValue */\n      tag_87\n        /* \"Blackjack.sol\":4550:4579  getHandValue(players[i].hand) */\n      jump\t// in\n    tag_121:\n        /* \"Blackjack.sol\":4530:4579  uint8 playerScore = getHandValue(players[i].hand) */\n      swap1\n      pop\n        /* \"Blackjack.sol\":4599:4606  players */\n      0x01\n        /* \"Blackjack.sol\":4607:4608  i */\n      dup3\n        /* \"Blackjack.sol\":4599:4609  players[i] */\n      dup2\n      sload\n      dup2\n      lt\n      tag_127\n      jumpi\n      tag_128\n      tag_64\n      jump\t// in\n    tag_128:\n    tag_127:\n      swap1\n      0x00\n      mstore\n      keccak256(0x00, 0x20)\n      swap1\n      0x04\n      mul\n      add\n        /* \"Blackjack.sol\":4599:4618  players[i].isBusted */\n      0x03\n      add\n      0x01\n      swap1\n      sload\n      swap1\n      0x0100\n      exp\n      swap1\n      div\n      0xff\n      and\n        /* \"Blackjack.sol\":4598:4618  !players[i].isBusted */\n      iszero\n        /* \"Blackjack.sol\":4598:4665  !players[i].isBusted && (playerScore > bankScore || bankScore > 21) */\n      dup1\n      iszero\n      tag_130\n      jumpi\n      pop\n        /* \"Blackjack.sol\":4637:4646  bankScore */\n      dup3\n        /* \"Blackjack.sol\":4623:4646  playerScore > bankScore */\n      0xff\n      and\n        /* \"Blackjack.sol\":4623:4634  playerScore */\n      dup2\n        /* \"Blackjack.sol\":4623:4646  playerScore > bankScore */\n      0xff\n      and\n      gt\n        /* \"Blackjack.sol\":4623:4664  playerScore > bankScore || bankScore > 21 */\n      dup1\n      tag_131\n      jumpi\n      pop\n        /* \"Blackjack.sol\":4662:4664  21 */\n      0x15\n        /* \"Blackjack.sol\":4650:4659  bankScore */\n      dup4\n        /* \"Blackjack.sol\":4650:4664  bankScore > 21 */\n      0xff\n      and\n      gt\n        /* \"Blackjack.sol\":4623:4664  playerScore > bankScore || bankScore > 21 */\n    tag_131:\n        /* \"Blackjack.sol\":4598:4665  !players[i].isBusted && (playerScore > bankScore || bankScore > 21) */\n    tag_130:\n        /* \"Blackjack.sol\":4594:4871  if (!players[i].isBusted && (playerScore > bankScore || bankScore > 21)) {... */\n      iszero\n      tag_132\n      jumpi\n        /* \"Blackjack.sol\":4694:4701  players */\n      0x01\n        /* \"Blackjack.sol\":4702:4703  i */\n      dup3\n        /* \"Blackjack.sol\":4694:4704  players[i] */\n      dup2\n      sload\n      dup2\n      lt\n      tag_133\n      jumpi\n      tag_134\n      tag_64\n      jump\t// in\n    tag_134:\n    tag_133:\n      swap1\n      0x00\n      mstore\n      keccak256(0x00, 0x20)\n      swap1\n      0x04\n      mul\n      add\n        /* \"Blackjack.sol\":4694:4709  players[i].addr */\n      0x00\n      add\n      0x00\n      swap1\n      sload\n      swap1\n      0x0100\n      exp\n      swap1\n      div\n      0xffffffffffffffffffffffffffffffffffffffff\n      and\n        /* \"Blackjack.sol\":4686:4719  payable(players[i].addr).transfer */\n      0xffffffffffffffffffffffffffffffffffffffff\n      and\n        /* \"Blackjack.sol\":4686:4739  payable(players[i].addr).transfer(players[i].bet * 2) */\n      0x08fc\n        /* \"Blackjack.sol\":4737:4738  2 */\n      0x02\n        /* \"Blackjack.sol\":4720:4727  players */\n      0x01\n        /* \"Blackjack.sol\":4728:4729  i */\n      dup6\n        /* \"Blackjack.sol\":4720:4730  players[i] */\n      dup2\n      sload\n      dup2\n      lt\n      tag_136\n      jumpi\n      tag_137\n      tag_64\n      jump\t// in\n    tag_137:\n    tag_136:\n      swap1\n      0x00\n      mstore\n      keccak256(0x00, 0x20)\n      swap1\n      0x04\n      mul\n      add\n        /* \"Blackjack.sol\":4720:4734  players[i].bet */\n      0x01\n      add\n      sload\n        /* \"Blackjack.sol\":4720:4738  players[i].bet * 2 */\n      tag_139\n      swap2\n      swap1\n      tag_140\n      jump\t// in\n    tag_139:\n        /* \"Blackjack.sol\":4686:4739  payable(players[i].addr).transfer(players[i].bet * 2) */\n      swap1\n      dup2\n      iszero\n      mul\n      swap1\n      mload(0x40)\n      0x00\n      mload(0x40)\n      dup1\n      dup4\n      sub\n      dup2\n      dup6\n      dup9\n      dup9\n      call\n      swap4\n      pop\n      pop\n      pop\n      pop\n      iszero\n      dup1\n      iszero\n      tag_142\n      jumpi\n      returndatasize\n      0x00\n      dup1\n      returndatacopy\n      revert(0x00, returndatasize)\n    tag_142:\n      pop\n        /* \"Blackjack.sol\":4758:4769  lastWinners */\n      0x06\n        /* \"Blackjack.sol\":4775:4782  players */\n      0x01\n        /* \"Blackjack.sol\":4783:4784  i */\n      dup4\n        /* \"Blackjack.sol\":4775:4785  players[i] */\n      dup2\n      sload\n      dup2\n      lt\n      tag_143\n      jumpi\n      tag_144\n      tag_64\n      jump\t// in\n    tag_144:\n    tag_143:\n      swap1\n      0x00\n      mstore\n      keccak256(0x00, 0x20)\n      swap1\n      0x04\n      mul\n      add\n        /* \"Blackjack.sol\":4775:4790  players[i].addr */\n      0x00\n      add\n      0x00\n      swap1\n      sload\n      swap1\n      0x0100\n      exp\n      swap1\n      div\n      0xffffffffffffffffffffffffffffffffffffffff\n      and\n        /* \"Blackjack.sol\":4758:4791  lastWinners.push(players[i].addr) */\n      swap1\n      dup1\n      0x01\n      dup2\n      sload\n      add\n      dup1\n      dup3\n      sstore\n      dup1\n      swap2\n      pop\n      pop\n      0x01\n      swap1\n      sub\n      swap1\n      0x00\n      mstore\n      keccak256(0x00, 0x20)\n      add\n      0x00\n      swap1\n      swap2\n      swap1\n      swap2\n      swap1\n      swap2\n      0x0100\n      exp\n      dup2\n      sload\n      dup2\n      0xffffffffffffffffffffffffffffffffffffffff\n      mul\n      not\n      and\n      swap1\n      dup4\n      0xffffffffffffffffffffffffffffffffffffffff\n      and\n      mul\n      or\n      swap1\n      sstore\n      pop\n        /* \"Blackjack.sol\":4815:4855  GameResult(players[i].addr, playerScore) */\n      0xe9b0a743935d9854ac97b39452742c48f05e62b1ee44825328d7bc53901b03b1\n        /* \"Blackjack.sol\":4826:4833  players */\n      0x01\n        /* \"Blackjack.sol\":4834:4835  i */\n      dup4\n        /* \"Blackjack.sol\":4826:4836  players[i] */\n      dup2\n      sload\n      dup2\n      lt\n      tag_147\n      jumpi\n      tag_148\n      tag_64\n      jump\t// in\n    tag_148:\n    tag_147:\n      swap1\n      0x00\n      mstore\n      keccak256(0x00, 0x20)\n      swap1\n      0x04\n      mul\n      add\n        /* \"Blackjack.sol\":4826:4841  players[i].addr */\n      0x00\n      add\n      0x00\n      swap1\n      sload\n      swap1\n      0x0100\n      exp\n      swap1\n      div\n      0xffffffffffffffffffffffffffffffffffffffff\n      and\n        /* \"Blackjack.sol\":4843:4854  playerScore */\n      dup3\n        /* \"Blackjack.sol\":4815:4855  GameResult(players[i].addr, playerScore) */\n      mload(0x40)\n      tag_150\n      swap3\n      swap2\n      swap1\n      tag_151\n      jump\t// in\n    tag_150:\n      mload(0x40)\n      dup1\n      swap2\n      sub\n      swap1\n      log1\n        /* \"Blackjack.sol\":4594:4871  if (!players[i].isBusted && (playerScore > bankScore || bankScore > 21)) {... */\n    tag_132:\n        /* \"Blackjack.sol\":4515:4882  {... */\n      pop\n        /* \"Blackjack.sol\":4510:4513  i++ */\n      dup1\n      dup1\n      0x01\n      add\n      swap2\n      pop\n      pop\n        /* \"Blackjack.sol\":4470:4882  for (uint256 i = 0; i < players.length; i++) {... */\n      jump(tag_118)\n    tag_119:\n      pop\n        /* \"Blackjack.sol\":4904:4930  formatWinners(lastWinners) */\n      tag_152\n        /* \"Blackjack.sol\":4918:4929  lastWinners */\n      0x06\n        /* \"Blackjack.sol\":4904:4930  formatWinners(lastWinners) */\n      dup1\n      sload\n      dup1\n      0x20\n      mul\n      0x20\n      add\n      mload(0x40)\n      swap1\n      dup2\n      add\n      0x40\n      mstore\n      dup1\n      swap3\n      swap2\n      swap1\n      dup2\n      dup2\n      mstore\n      0x20\n      add\n      dup3\n      dup1\n      sload\n      dup1\n      iszero\n      tag_153\n      jumpi\n      0x20\n      mul\n      dup3\n      add\n      swap2\n      swap1\n      0x00\n      mstore\n      keccak256(0x00, 0x20)\n      swap1\n    tag_154:\n      dup2\n      0x00\n      swap1\n      sload\n      swap1\n      0x0100\n      exp\n      swap1\n      div\n      0xffffffffffffffffffffffffffffffffffffffff\n      and\n      0xffffffffffffffffffffffffffffffffffffffff\n      and\n      dup2\n      mstore\n      0x20\n      add\n      swap1\n      0x01\n      add\n      swap1\n      dup1\n      dup4\n      gt\n      tag_154\n      jumpi\n    tag_153:\n      pop\n      pop\n      pop\n      pop\n      pop\n        /* \"Blackjack.sol\":4904:4917  formatWinners */\n      tag_155\n        /* \"Blackjack.sol\":4904:4930  formatWinners(lastWinners) */\n      jump\t// in\n    tag_152:\n        /* \"Blackjack.sol\":4894:4901  Winners */\n      0x08\n        /* \"Blackjack.sol\":4894:4930  Winners = formatWinners(lastWinners) */\n      swap1\n      dup2\n      tag_156\n      swap2\n      swap1\n      tag_117\n      jump\t// in\n    tag_156:\n      pop\n        /* \"Blackjack.sol\":4943:4954  resetGame() */\n      tag_157\n        /* \"Blackjack.sol\":4943:4952  resetGame */\n      tag_158\n        /* \"Blackjack.sol\":4943:4954  resetGame() */\n      jump\t// in\n    tag_157:\n        /* \"Blackjack.sol\":4975:4987  LastBankHand */\n      0x07\n        /* \"Blackjack.sol\":4989:5000  lastWinners */\n      0x06\n        /* \"Blackjack.sol\":4967:5001  return (LastBankHand, lastWinners) */\n      dup2\n      dup1\n      sload\n      tag_159\n      swap1\n      tag_51\n      jump\t// in\n    tag_159:\n      dup1\n      0x1f\n      add\n      0x20\n      dup1\n      swap2\n      div\n      mul\n      0x20\n      add\n      mload(0x40)\n      swap1\n      dup2\n      add\n      0x40\n      mstore\n      dup1\n      swap3\n      swap2\n      swap1\n      dup2\n      dup2\n      mstore\n      0x20\n      add\n      dup3\n      dup1\n      sload\n      tag_160\n      swap1\n      tag_51\n      jump\t// in\n    tag_160:\n      dup1\n      iszero\n      tag_161\n      jumpi\n      dup1\n      0x1f\n      lt\n      tag_162\n      jumpi\n      0x0100\n      dup1\n      dup4\n      sload\n      div\n      mul\n      dup4\n      mstore\n      swap2\n      0x20\n      add\n      swap2\n      jump(tag_161)\n    tag_162:\n      dup3\n      add\n      swap2\n      swap1\n      0x00\n      mstore\n      keccak256(0x00, 0x20)\n      swap1\n    tag_163:\n      dup2\n      sload\n      dup2\n      mstore\n      swap1\n      0x01\n      add\n      swap1\n      0x20\n      add\n      dup1\n      dup4\n      gt\n      tag_163\n      jumpi\n      dup3\n      swap1\n      sub\n      0x1f\n      and\n      dup3\n      add\n      swap2\n    tag_161:\n      pop\n      pop\n      pop\n      pop\n      pop\n      swap2\n      pop\n      dup1\n      dup1\n      sload\n      dup1\n      0x20\n      mul\n      0x20\n      add\n      mload(0x40)\n      swap1\n      dup2\n      add\n      0x40\n      mstore\n      dup1\n      swap3\n      swap2\n      swap1\n      dup2\n      dup2\n      mstore\n      0x20\n      add\n      dup3\n      dup1\n      sload\n      dup1\n      iszero\n      tag_164\n      jumpi\n      0x20\n      mul\n      dup3\n      add\n      swap2\n      swap1\n      0x00\n      mstore\n      keccak256(0x00, 0x20)\n      swap1\n    tag_165:\n      dup2\n      0x00\n      swap1\n      sload\n      swap1\n      0x0100\n      exp\n      swap1\n      div\n      0xffffffffffffffffffffffffffffffffffffffff\n      and\n      0xffffffffffffffffffffffffffffffffffffffff\n      and\n      dup2\n      mstore\n      0x20\n      add\n      swap1\n      0x01\n      add\n      swap1\n      dup1\n      dup4\n      gt\n      tag_165\n      jumpi\n    tag_164:\n      pop\n      pop\n      pop\n      pop\n      pop\n      swap1\n      pop\n      swap3\n      pop\n      swap3\n      pop\n      pop\n        /* \"Blackjack.sol\":3953:5009  function determineWinner() external returns (string memory, address[] memory) {... */\n      swap1\n      swap2\n      jump\t// out\n        /* \"Blackjack.sol\":3543:3720  function stand(uint256 playerIndex) external {... */\n    tag_34:\n        /* \"Blackjack.sol\":3621:3628  players */\n      0x01\n        /* \"Blackjack.sol\":3629:3640  playerIndex */\n      dup2\n        /* \"Blackjack.sol\":3621:3641  players[playerIndex] */\n      dup2\n      sload\n      dup2\n      lt\n      tag_167\n      jumpi\n      tag_168\n      tag_64\n      jump\t// in\n    tag_168:\n    tag_167:\n      swap1\n      0x00\n      mstore\n      keccak256(0x00, 0x20)\n      swap1\n      0x04\n      mul\n      add\n        /* \"Blackjack.sol\":3621:3646  players[playerIndex].addr */\n      0x00\n      add\n      0x00\n      swap1\n      sload\n      swap1\n      0x0100\n      exp\n      swap1\n      div\n      0xffffffffffffffffffffffffffffffffffffffff\n      and\n        /* \"Blackjack.sol\":3607:3646  msg.sender == players[playerIndex].addr */\n      0xffffffffffffffffffffffffffffffffffffffff\n      and\n        /* \"Blackjack.sol\":3607:3617  msg.sender */\n      caller\n        /* \"Blackjack.sol\":3607:3646  msg.sender == players[playerIndex].addr */\n      0xffffffffffffffffffffffffffffffffffffffff\n      and\n      eq\n        /* \"Blackjack.sol\":3599:3664  require(msg.sender == players[playerIndex].addr, \"Not your turn\") */\n      tag_170\n      jumpi\n      mload(0x40)\n      0x08c379a000000000000000000000000000000000000000000000000000000000\n      dup2\n      mstore\n      0x04\n      add\n      tag_171\n      swap1\n      tag_172\n      jump\t// in\n    tag_171:\n      mload(0x40)\n      dup1\n      swap2\n      sub\n      swap1\n      revert\n    tag_170:\n        /* \"Blackjack.sol\":3707:3712  false */\n      0x00\n        /* \"Blackjack.sol\":3675:3682  players */\n      0x01\n        /* \"Blackjack.sol\":3683:3694  playerIndex */\n      dup3\n        /* \"Blackjack.sol\":3675:3695  players[playerIndex] */\n      dup2\n      sload\n      dup2\n      lt\n      tag_173\n      jumpi\n      tag_174\n      tag_64\n      jump\t// in\n    tag_174:\n    tag_173:\n      swap1\n      0x00\n      mstore\n      keccak256(0x00, 0x20)\n      swap1\n      0x04\n      mul\n      add\n        /* \"Blackjack.sol\":3675:3704  players[playerIndex].isActive */\n      0x03\n      add\n      0x00\n        /* \"Blackjack.sol\":3675:3712  players[playerIndex].isActive = false */\n      0x0100\n      exp\n      dup2\n      sload\n      dup2\n      0xff\n      mul\n      not\n      and\n      swap1\n      dup4\n      iszero\n      iszero\n      mul\n      or\n      swap1\n      sstore\n      pop\n        /* \"Blackjack.sol\":3543:3720  function stand(uint256 playerIndex) external {... */\n      pop\n      jump\t// out\n        /* \"Blackjack.sol\":3886:3907  string public Winners */\n    tag_37:\n      0x08\n      dup1\n      sload\n      tag_176\n      swap1\n      tag_51\n      jump\t// in\n    tag_176:\n      dup1\n      0x1f\n      add\n      0x20\n      dup1\n      swap2\n      div\n      mul\n      0x20\n      add\n      mload(0x40)\n      swap1\n      dup2\n      add\n      0x40\n      mstore\n      dup1\n      swap3\n      swap2\n      swap1\n      dup2\n      dup2\n      mstore\n      0x20\n      add\n      dup3\n      dup1\n      sload\n      tag_177\n      swap1\n      tag_51\n      jump\t// in\n    tag_177:\n      dup1\n      iszero\n      tag_178\n      jumpi\n      dup1\n      0x1f\n      lt\n      tag_179\n      jumpi\n      0x0100\n      dup1\n      dup4\n      sload\n      div\n      mul\n      dup4\n      mstore\n      swap2\n      0x20\n      add\n      swap2\n      jump(tag_178)\n    tag_179:\n      dup3\n      add\n      swap2\n      swap1\n      0x00\n      mstore\n      keccak256(0x00, 0x20)\n      swap1\n    tag_180:\n      dup2\n      sload\n      dup2\n      mstore\n      swap1\n      0x01\n      add\n      swap1\n      0x20\n      add\n      dup1\n      dup4\n      gt\n      tag_180\n      jumpi\n      dup3\n      swap1\n      sub\n      0x1f\n      and\n      dup3\n      add\n      swap2\n    tag_178:\n      pop\n      pop\n      pop\n      pop\n      pop\n      dup2\n      jump\t// out\n        /* \"Blackjack.sol\":2436:2946  function getAllHands() external view returns (string[] memory) {... */\n    tag_41:\n        /* \"Blackjack.sol\":2482:2497  string[] memory */\n      0x60\n        /* \"Blackjack.sol\":2510:2540  string[] memory formattedHands */\n      0x00\n        /* \"Blackjack.sol\":2573:2574  1 */\n      0x01\n        /* \"Blackjack.sol\":2556:2563  players */\n      dup1\n        /* \"Blackjack.sol\":2556:2570  players.length */\n      dup1\n      sload\n      swap1\n      pop\n        /* \"Blackjack.sol\":2556:2574  players.length + 1 */\n      tag_182\n      swap2\n      swap1\n      tag_183\n      jump\t// in\n    tag_182:\n        /* \"Blackjack.sol\":2543:2575  new string[](players.length + 1) */\n      0xffffffffffffffff\n      dup2\n      gt\n      iszero\n      tag_184\n      jumpi\n      tag_185\n      tag_186\n      jump\t// in\n    tag_185:\n    tag_184:\n      mload(0x40)\n      swap1\n      dup1\n      dup3\n      mstore\n      dup1\n      0x20\n      mul\n      0x20\n      add\n      dup3\n      add\n      0x40\n      mstore\n      dup1\n      iszero\n      tag_187\n      jumpi\n      dup2\n      0x20\n      add\n    tag_188:\n      0x60\n      dup2\n      mstore\n      0x20\n      add\n      swap1\n      0x01\n      swap1\n      sub\n      swap1\n      dup2\n      tag_188\n      jumpi\n      swap1\n      pop\n    tag_187:\n      pop\n        /* \"Blackjack.sol\":2510:2575  string[] memory formattedHands = new string[](players.length + 1) */\n      swap1\n      pop\n        /* \"Blackjack.sol\":2641:2671  formatHand(bankHand, \"Bank: \") */\n      tag_189\n        /* \"Blackjack.sol\":2652:2660  bankHand */\n      0x03\n        /* \"Blackjack.sol\":2641:2671  formatHand(bankHand, \"Bank: \") */\n      dup1\n      sload\n      dup1\n      0x20\n      mul\n      0x20\n      add\n      mload(0x40)\n      swap1\n      dup2\n      add\n      0x40\n      mstore\n      dup1\n      swap3\n      swap2\n      swap1\n      dup2\n      dup2\n      mstore\n      0x20\n      add\n      dup3\n      dup1\n      sload\n      dup1\n      iszero\n      tag_190\n      jumpi\n      0x20\n      mul\n      dup3\n      add\n      swap2\n      swap1\n      0x00\n      mstore\n      keccak256(0x00, 0x20)\n      swap1\n      0x00\n      swap1\n    tag_191:\n      dup3\n      dup3\n      swap1\n      sload\n      swap1\n      0x0100\n      exp\n      swap1\n      div\n      0xff\n      and\n      0xff\n      and\n      dup2\n      mstore\n      0x20\n      add\n      swap1\n      0x01\n      add\n      swap1\n      0x20\n      dup3\n      0x00\n      add\n      div\n      swap3\n      dup4\n      add\n      swap3\n      0x01\n      sub\n      dup3\n      mul\n      swap2\n      pop\n      dup1\n      dup5\n      gt\n      tag_191\n      jumpi\n      swap1\n      pop\n    tag_190:\n      pop\n      pop\n      pop\n      pop\n      pop\n      mload(0x40)\n      dup1\n      0x40\n      add\n      0x40\n      mstore\n      dup1\n      0x06\n      dup2\n      mstore\n      0x20\n      add\n      0x42616e6b3a200000000000000000000000000000000000000000000000000000\n      dup2\n      mstore\n      pop\n        /* \"Blackjack.sol\":2641:2651  formatHand */\n      tag_115\n        /* \"Blackjack.sol\":2641:2671  formatHand(bankHand, \"Bank: \") */\n      jump\t// in\n    tag_189:\n        /* \"Blackjack.sol\":2621:2635  formattedHands */\n      dup2\n        /* \"Blackjack.sol\":2636:2637  0 */\n      0x00\n        /* \"Blackjack.sol\":2621:2638  formattedHands[0] */\n      dup2\n      mload\n      dup2\n      lt\n      tag_192\n      jumpi\n      tag_193\n      tag_64\n      jump\t// in\n    tag_193:\n    tag_192:\n      0x20\n      mul\n      0x20\n      add\n      add\n        /* \"Blackjack.sol\":2621:2671  formattedHands[0] = formatHand(bankHand, \"Bank: \") */\n      dup2\n      swap1\n      mstore\n      pop\n        /* \"Blackjack.sol\":2727:2736  uint256 i */\n      0x00\n        /* \"Blackjack.sol\":2722:2905  for (uint256 i = 0; i < players.length; i++) {... */\n    tag_194:\n        /* \"Blackjack.sol\":2746:2753  players */\n      0x01\n        /* \"Blackjack.sol\":2746:2760  players.length */\n      dup1\n      sload\n      swap1\n      pop\n        /* \"Blackjack.sol\":2742:2743  i */\n      dup2\n        /* \"Blackjack.sol\":2742:2760  i < players.length */\n      lt\n        /* \"Blackjack.sol\":2722:2905  for (uint256 i = 0; i < players.length; i++) {... */\n      iszero\n      tag_195\n      jumpi\n        /* \"Blackjack.sol\":2806:2893  formatHand(players[i].hand, string(abi.encodePacked(\"Player \", uint2str(i + 1), \": \"))) */\n      tag_197\n        /* \"Blackjack.sol\":2817:2824  players */\n      0x01\n        /* \"Blackjack.sol\":2825:2826  i */\n      dup3\n        /* \"Blackjack.sol\":2817:2827  players[i] */\n      dup2\n      sload\n      dup2\n      lt\n      tag_198\n      jumpi\n      tag_199\n      tag_64\n      jump\t// in\n    tag_199:\n    tag_198:\n      swap1\n      0x00\n      mstore\n      keccak256(0x00, 0x20)\n      swap1\n      0x04\n      mul\n      add\n        /* \"Blackjack.sol\":2817:2832  players[i].hand */\n      0x02\n      add\n        /* \"Blackjack.sol\":2806:2893  formatHand(players[i].hand, string(abi.encodePacked(\"Player \", uint2str(i + 1), \": \"))) */\n      dup1\n      sload\n      dup1\n      0x20\n      mul\n      0x20\n      add\n      mload(0x40)\n      swap1\n      dup2\n      add\n      0x40\n      mstore\n      dup1\n      swap3\n      swap2\n      swap1\n      dup2\n      dup2\n      mstore\n      0x20\n      add\n      dup3\n      dup1\n      sload\n      dup1\n      iszero\n      tag_201\n      jumpi\n      0x20\n      mul\n      dup3\n      add\n      swap2\n      swap1\n      0x00\n      mstore\n      keccak256(0x00, 0x20)\n      swap1\n      0x00\n      swap1\n    tag_202:\n      dup3\n      dup3\n      swap1\n      sload\n      swap1\n      0x0100\n      exp\n      swap1\n      div\n      0xff\n      and\n      0xff\n      and\n      dup2\n      mstore\n      0x20\n      add\n      swap1\n      0x01\n      add\n      swap1\n      0x20\n      dup3\n      0x00\n      add\n      div\n      swap3\n      dup4\n      add\n      swap3\n      0x01\n      sub\n      dup3\n      mul\n      swap2\n      pop\n      dup1\n      dup5\n      gt\n      tag_202\n      jumpi\n      swap1\n      pop\n    tag_201:\n      pop\n      pop\n      pop\n      pop\n      pop\n        /* \"Blackjack.sol\":2869:2884  uint2str(i + 1) */\n      tag_203\n        /* \"Blackjack.sol\":2882:2883  1 */\n      0x01\n        /* \"Blackjack.sol\":2878:2879  i */\n      dup5\n        /* \"Blackjack.sol\":2878:2883  i + 1 */\n      tag_204\n      swap2\n      swap1\n      tag_183\n      jump\t// in\n    tag_204:\n        /* \"Blackjack.sol\":2869:2877  uint2str */\n      tag_205\n        /* \"Blackjack.sol\":2869:2884  uint2str(i + 1) */\n      jump\t// in\n    tag_203:\n        /* \"Blackjack.sol\":2841:2891  abi.encodePacked(\"Player \", uint2str(i + 1), \": \") */\n      add(0x20, mload(0x40))\n      tag_206\n      swap2\n      swap1\n      tag_207\n      jump\t// in\n    tag_206:\n      mload(0x40)\n      0x20\n      dup2\n      dup4\n      sub\n      sub\n      dup2\n      mstore\n      swap1\n      0x40\n      mstore\n        /* \"Blackjack.sol\":2806:2816  formatHand */\n      tag_115\n        /* \"Blackjack.sol\":2806:2893  formatHand(players[i].hand, string(abi.encodePacked(\"Player \", uint2str(i + 1), \": \"))) */\n      jump\t// in\n    tag_197:\n        /* \"Blackjack.sol\":2782:2796  formattedHands */\n      dup3\n        /* \"Blackjack.sol\":2801:2802  1 */\n      0x01\n        /* \"Blackjack.sol\":2797:2798  i */\n      dup4\n        /* \"Blackjack.sol\":2797:2802  i + 1 */\n      tag_208\n      swap2\n      swap1\n      tag_183\n      jump\t// in\n    tag_208:\n        /* \"Blackjack.sol\":2782:2803  formattedHands[i + 1] */\n      dup2\n      mload\n      dup2\n      lt\n      tag_209\n      jumpi\n      tag_210\n      tag_64\n      jump\t// in\n    tag_210:\n    tag_209:\n      0x20\n      mul\n      0x20\n      add\n      add\n        /* \"Blackjack.sol\":2782:2893  formattedHands[i + 1] = formatHand(players[i].hand, string(abi.encodePacked(\"Player \", uint2str(i + 1), \": \"))) */\n      dup2\n      swap1\n      mstore\n      pop\n        /* \"Blackjack.sol\":2762:2765  i++ */\n      dup1\n      dup1\n      0x01\n      add\n      swap2\n      pop\n      pop\n        /* \"Blackjack.sol\":2722:2905  for (uint256 i = 0; i < players.length; i++) {... */\n      jump(tag_194)\n    tag_195:\n      pop\n        /* \"Blackjack.sol\":2924:2938  formattedHands */\n      dup1\n        /* \"Blackjack.sol\":2917:2938  return formattedHands */\n      swap2\n      pop\n      pop\n        /* \"Blackjack.sol\":2436:2946  function getAllHands() external view returns (string[] memory) {... */\n      swap1\n      jump\t// out\n        /* \"Blackjack.sol\":1072:1396  function startGame() external {... */\n    tag_46:\n        /* \"Blackjack.sol\":1135:1136  0 */\n      0x00\n        /* \"Blackjack.sol\":1121:1132  playerCount */\n      sload(0x02)\n        /* \"Blackjack.sol\":1121:1136  playerCount > 0 */\n      gt\n        /* \"Blackjack.sol\":1113:1163  require(playerCount > 0, \"No players in the game\") */\n      tag_212\n      jumpi\n      mload(0x40)\n      0x08c379a000000000000000000000000000000000000000000000000000000000\n      dup2\n      mstore\n      0x04\n      add\n      tag_213\n      swap1\n      tag_214\n      jump\t// in\n    tag_213:\n      mload(0x40)\n      dup1\n      swap2\n      sub\n      swap1\n      revert\n    tag_212:\n        /* \"Blackjack.sol\":1174:1187  shuffleDeck() */\n      tag_215\n        /* \"Blackjack.sol\":1174:1185  shuffleDeck */\n      tag_216\n        /* \"Blackjack.sol\":1174:1187  shuffleDeck() */\n      jump\t// in\n    tag_215:\n        /* \"Blackjack.sol\":1205:1214  uint256 i */\n      0x00\n        /* \"Blackjack.sol\":1200:1351  for (uint256 i = 0; i < players.length; i++) {... */\n    tag_217:\n        /* \"Blackjack.sol\":1224:1231  players */\n      0x01\n        /* \"Blackjack.sol\":1224:1238  players.length */\n      dup1\n      sload\n      swap1\n      pop\n        /* \"Blackjack.sol\":1220:1221  i */\n      dup2\n        /* \"Blackjack.sol\":1220:1238  i < players.length */\n      lt\n        /* \"Blackjack.sol\":1200:1351  for (uint256 i = 0; i < players.length; i++) {... */\n      iszero\n      tag_218\n      jumpi\n        /* \"Blackjack.sol\":1260:1267  players */\n      0x01\n        /* \"Blackjack.sol\":1268:1269  i */\n      dup2\n        /* \"Blackjack.sol\":1260:1270  players[i] */\n      dup2\n      sload\n      dup2\n      lt\n      tag_220\n      jumpi\n      tag_221\n      tag_64\n      jump\t// in\n    tag_221:\n    tag_220:\n      swap1\n      0x00\n      mstore\n      keccak256(0x00, 0x20)\n      swap1\n      0x04\n      mul\n      add\n        /* \"Blackjack.sol\":1260:1275  players[i].hand */\n      0x02\n      add\n        /* \"Blackjack.sol\":1281:1291  drawCard() */\n      tag_223\n        /* \"Blackjack.sol\":1281:1289  drawCard */\n      tag_76\n        /* \"Blackjack.sol\":1281:1291  drawCard() */\n      jump\t// in\n    tag_223:\n        /* \"Blackjack.sol\":1260:1292  players[i].hand.push(drawCard()) */\n      swap1\n      dup1\n      0x01\n      dup2\n      sload\n      add\n      dup1\n      dup3\n      sstore\n      dup1\n      swap2\n      pop\n      pop\n      0x01\n      swap1\n      sub\n      swap1\n      0x00\n      mstore\n      keccak256(0x00, 0x20)\n      swap1\n      0x20\n      swap2\n      dup3\n      dup3\n      div\n      add\n      swap2\n      swap1\n      mod\n      swap1\n      swap2\n      swap1\n      swap2\n      swap1\n      swap2\n      0x0100\n      exp\n      dup2\n      sload\n      dup2\n      0xff\n      mul\n      not\n      and\n      swap1\n      dup4\n      0xff\n      and\n      mul\n      or\n      swap1\n      sstore\n      pop\n        /* \"Blackjack.sol\":1307:1314  players */\n      0x01\n        /* \"Blackjack.sol\":1315:1316  i */\n      dup2\n        /* \"Blackjack.sol\":1307:1317  players[i] */\n      dup2\n      sload\n      dup2\n      lt\n      tag_225\n      jumpi\n      tag_226\n      tag_64\n      jump\t// in\n    tag_226:\n    tag_225:\n      swap1\n      0x00\n      mstore\n      keccak256(0x00, 0x20)\n      swap1\n      0x04\n      mul\n      add\n        /* \"Blackjack.sol\":1307:1322  players[i].hand */\n      0x02\n      add\n        /* \"Blackjack.sol\":1328:1338  drawCard() */\n      tag_228\n        /* \"Blackjack.sol\":1328:1336  drawCard */\n      tag_76\n        /* \"Blackjack.sol\":1328:1338  drawCard() */\n      jump\t// in\n    tag_228:\n        /* \"Blackjack.sol\":1307:1339  players[i].hand.push(drawCard()) */\n      swap1\n      dup1\n      0x01\n      dup2\n      sload\n      add\n      dup1\n      dup3\n      sstore\n      dup1\n      swap2\n      pop\n      pop\n      0x01\n      swap1\n      sub\n      swap1\n      0x00\n      mstore\n      keccak256(0x00, 0x20)\n      swap1\n      0x20\n      swap2\n      dup3\n      dup3\n      div\n      add\n      swap2\n      swap1\n      mod\n      swap1\n      swap2\n      swap1\n      swap2\n      swap1\n      swap2\n      0x0100\n      exp\n      dup2\n      sload\n      dup2\n      0xff\n      mul\n      not\n      and\n      swap1\n      dup4\n      0xff\n      and\n      mul\n      or\n      swap1\n      sstore\n      pop\n        /* \"Blackjack.sol\":1240:1243  i++ */\n      dup1\n      dup1\n      0x01\n      add\n      swap2\n      pop\n      pop\n        /* \"Blackjack.sol\":1200:1351  for (uint256 i = 0; i < players.length; i++) {... */\n      jump(tag_217)\n    tag_218:\n      pop\n        /* \"Blackjack.sol\":1361:1369  bankHand */\n      0x03\n        /* \"Blackjack.sol\":1375:1385  drawCard() */\n      tag_230\n        /* \"Blackjack.sol\":1375:1383  drawCard */\n      tag_76\n        /* \"Blackjack.sol\":1375:1385  drawCard() */\n      jump\t// in\n    tag_230:\n        /* \"Blackjack.sol\":1361:1386  bankHand.push(drawCard()) */\n      swap1\n      dup1\n      0x01\n      dup2\n      sload\n      add\n      dup1\n      dup3\n      sstore\n      dup1\n      swap2\n      pop\n      pop\n      0x01\n      swap1\n      sub\n      swap1\n      0x00\n      mstore\n      keccak256(0x00, 0x20)\n      swap1\n      0x20\n      swap2\n      dup3\n      dup3\n      div\n      add\n      swap2\n      swap1\n      mod\n      swap1\n      swap2\n      swap1\n      swap2\n      swap1\n      swap2\n      0x0100\n      exp\n      dup2\n      sload\n      dup2\n      0xff\n      mul\n      not\n      and\n      swap1\n      dup4\n      0xff\n      and\n      mul\n      or\n      swap1\n      sstore\n      pop\n        /* \"Blackjack.sol\":1072:1396  function startGame() external {... */\n      jump\t// out\n        /* \"Blackjack.sol\":669:1064  function joinGame(uint256 bet) external payable {... */\n    tag_49:\n        /* \"Blackjack.sol\":750:751  4 */\n      0x04\n        /* \"Blackjack.sol\":736:747  playerCount */\n      sload(0x02)\n        /* \"Blackjack.sol\":736:751  playerCount < 4 */\n      lt\n        /* \"Blackjack.sol\":728:777  require(playerCount < 4, \"Max 4 players allowed\") */\n      tag_233\n      jumpi\n      mload(0x40)\n      0x08c379a000000000000000000000000000000000000000000000000000000000\n      dup2\n      mstore\n      0x04\n      add\n      tag_234\n      swap1\n      tag_235\n      jump\t// in\n    tag_234:\n      mload(0x40)\n      dup1\n      swap2\n      sub\n      swap1\n      revert\n    tag_233:\n        /* \"Blackjack.sol\":809:812  bet */\n      dup1\n        /* \"Blackjack.sol\":796:805  msg.value */\n      callvalue\n        /* \"Blackjack.sol\":796:812  msg.value == bet */\n      eq\n        /* \"Blackjack.sol\":788:836  require(msg.value == bet, \"Bet amount mismatch\") */\n      tag_236\n      jumpi\n      mload(0x40)\n      0x08c379a000000000000000000000000000000000000000000000000000000000\n      dup2\n      mstore\n      0x04\n      add\n      tag_237\n      swap1\n      tag_238\n      jump\t// in\n    tag_237:\n      mload(0x40)\n      dup1\n      swap2\n      sub\n      swap1\n      revert\n    tag_236:\n        /* \"Blackjack.sol\":849:856  players */\n      0x01\n        /* \"Blackjack.sol\":862:1029  Player({... */\n      mload(0x40)\n      dup1\n      0xa0\n      add\n      0x40\n      mstore\n      dup1\n        /* \"Blackjack.sol\":890:900  msg.sender */\n      caller\n        /* \"Blackjack.sol\":862:1029  Player({... */\n      0xffffffffffffffffffffffffffffffffffffffff\n      and\n      dup2\n      mstore\n      0x20\n      add\n        /* \"Blackjack.sol\":920:923  bet */\n      dup4\n        /* \"Blackjack.sol\":862:1029  Player({... */\n      dup2\n      mstore\n      0x20\n      add\n        /* \"Blackjack.sol\":956:957  0 */\n      0x00\n        /* \"Blackjack.sol\":944:958  new uint8[](0) */\n      0xffffffffffffffff\n      dup2\n      gt\n      iszero\n      tag_239\n      jumpi\n      tag_240\n      tag_186\n      jump\t// in\n    tag_240:\n    tag_239:\n      mload(0x40)\n      swap1\n      dup1\n      dup3\n      mstore\n      dup1\n      0x20\n      mul\n      0x20\n      add\n      dup3\n      add\n      0x40\n      mstore\n      dup1\n      iszero\n      tag_241\n      jumpi\n      dup2\n      0x20\n      add\n      0x20\n      dup3\n      mul\n      dup1\n      calldatasize\n      dup4\n      calldatacopy\n      dup1\n      dup3\n      add\n      swap2\n      pop\n      pop\n      swap1\n      pop\n    tag_241:\n      pop\n        /* \"Blackjack.sol\":862:1029  Player({... */\n      dup2\n      mstore\n      0x20\n      add\n        /* \"Blackjack.sol\":983:987  true */\n      0x01\n        /* \"Blackjack.sol\":862:1029  Player({... */\n      iszero\n      iszero\n      dup2\n      mstore\n      0x20\n      add\n        /* \"Blackjack.sol\":1012:1017  false */\n      0x00\n        /* \"Blackjack.sol\":862:1029  Player({... */\n      iszero\n      iszero\n      dup2\n      mstore\n      pop\n        /* \"Blackjack.sol\":849:1030  players.push(Player({... */\n      swap1\n      dup1\n      0x01\n      dup2\n      sload\n      add\n      dup1\n      dup3\n      sstore\n      dup1\n      swap2\n      pop\n      pop\n      0x01\n      swap1\n      sub\n      swap1\n      0x00\n      mstore\n      keccak256(0x00, 0x20)\n      swap1\n      0x04\n      mul\n      add\n      0x00\n      swap1\n      swap2\n      swap1\n      swap2\n      swap1\n      swap2\n      pop\n      0x00\n      dup3\n      add\n      mload\n      dup2\n      0x00\n      add\n      exp(0x0100, 0x00)\n      dup2\n      sload\n      dup2\n      0xffffffffffffffffffffffffffffffffffffffff\n      mul\n      not\n      and\n      swap1\n      dup4\n      0xffffffffffffffffffffffffffffffffffffffff\n      and\n      mul\n      or\n      swap1\n      sstore\n      pop\n      0x20\n      dup3\n      add\n      mload\n      dup2\n      0x01\n      add\n      sstore\n      0x40\n      dup3\n      add\n      mload\n      dup2\n      0x02\n      add\n      swap1\n      dup1\n      mload\n      swap1\n      0x20\n      add\n      swap1\n      tag_243\n      swap3\n      swap2\n      swap1\n      tag_244\n      jump\t// in\n    tag_243:\n      pop\n      0x60\n      dup3\n      add\n      mload\n      dup2\n      0x03\n      add\n      exp(0x0100, 0x00)\n      dup2\n      sload\n      dup2\n      0xff\n      mul\n      not\n      and\n      swap1\n      dup4\n      iszero\n      iszero\n      mul\n      or\n      swap1\n      sstore\n      pop\n      0x80\n      dup3\n      add\n      mload\n      dup2\n      0x03\n      add\n      exp(0x0100, 0x01)\n      dup2\n      sload\n      dup2\n      0xff\n      mul\n      not\n      and\n      swap1\n      dup4\n      iszero\n      iszero\n      mul\n      or\n      swap1\n      sstore\n      pop\n      pop\n      pop\n        /* \"Blackjack.sol\":1043:1054  playerCount */\n      0x02\n      0x00\n        /* \"Blackjack.sol\":1043:1056  playerCount++ */\n      dup2\n      sload\n      dup1\n      swap3\n      swap2\n      swap1\n      tag_245\n      swap1\n      tag_246\n      jump\t// in\n    tag_245:\n      swap2\n      swap1\n      pop\n      sstore\n      pop\n        /* \"Blackjack.sol\":669:1064  function joinGame(uint256 bet) external payable {... */\n      pop\n      jump\t// out\n        /* \"Blackjack.sol\":6075:6360  function findPlayerIndex(address playerAddress) internal view returns (uint256) {... */\n    tag_58:\n        /* \"Blackjack.sol\":6146:6153  uint256 */\n      0x00\n        /* \"Blackjack.sol\":6171:6180  uint256 i */\n      dup1\n        /* \"Blackjack.sol\":6183:6184  0 */\n      0x00\n        /* \"Blackjack.sol\":6171:6184  uint256 i = 0 */\n      swap1\n      pop\n        /* \"Blackjack.sol\":6166:6318  for (uint256 i = 0; i < players.length; i++) {... */\n    tag_248:\n        /* \"Blackjack.sol\":6190:6197  players */\n      0x01\n        /* \"Blackjack.sol\":6190:6204  players.length */\n      dup1\n      sload\n      swap1\n      pop\n        /* \"Blackjack.sol\":6186:6187  i */\n      dup2\n        /* \"Blackjack.sol\":6186:6204  i < players.length */\n      lt\n        /* \"Blackjack.sol\":6166:6318  for (uint256 i = 0; i < players.length; i++) {... */\n      iszero\n      tag_249\n      jumpi\n        /* \"Blackjack.sol\":6249:6262  playerAddress */\n      dup3\n        /* \"Blackjack.sol\":6230:6262  players[i].addr == playerAddress */\n      0xffffffffffffffffffffffffffffffffffffffff\n      and\n        /* \"Blackjack.sol\":6230:6237  players */\n      0x01\n        /* \"Blackjack.sol\":6238:6239  i */\n      dup3\n        /* \"Blackjack.sol\":6230:6240  players[i] */\n      dup2\n      sload\n      dup2\n      lt\n      tag_251\n      jumpi\n      tag_252\n      tag_64\n      jump\t// in\n    tag_252:\n    tag_251:\n      swap1\n      0x00\n      mstore\n      keccak256(0x00, 0x20)\n      swap1\n      0x04\n      mul\n      add\n        /* \"Blackjack.sol\":6230:6245  players[i].addr */\n      0x00\n      add\n      0x00\n      swap1\n      sload\n      swap1\n      0x0100\n      exp\n      swap1\n      div\n      0xffffffffffffffffffffffffffffffffffffffff\n      and\n        /* \"Blackjack.sol\":6230:6262  players[i].addr == playerAddress */\n      0xffffffffffffffffffffffffffffffffffffffff\n      and\n      sub\n        /* \"Blackjack.sol\":6226:6307  if (players[i].addr == playerAddress) {... */\n      tag_254\n      jumpi\n        /* \"Blackjack.sol\":6290:6291  i */\n      dup1\n        /* \"Blackjack.sol\":6283:6291  return i */\n      swap2\n      pop\n      pop\n      jump(tag_247)\n        /* \"Blackjack.sol\":6226:6307  if (players[i].addr == playerAddress) {... */\n    tag_254:\n        /* \"Blackjack.sol\":6206:6209  i++ */\n      dup1\n      dup1\n      0x01\n      add\n      swap2\n      pop\n      pop\n        /* \"Blackjack.sol\":6166:6318  for (uint256 i = 0; i < players.length; i++) {... */\n      jump(tag_248)\n    tag_249:\n      pop\n        /* \"Blackjack.sol\":6335:6352  type(uint256).max */\n      0xffffffffffffffffffffffffffffffffffffffffffffffffffffffffffffffff\n        /* \"Blackjack.sol\":6328:6352  return type(uint256).max */\n      swap1\n      pop\n        /* \"Blackjack.sol\":6075:6360  function findPlayerIndex(address playerAddress) internal view returns (uint256) {... */\n    tag_247:\n      swap2\n      swap1\n      pop\n      jump\t// out\n        /* \"CardDeck.sol\":833:1069  function drawCard() internal returns (uint8) {... */\n    tag_76:\n        /* \"CardDeck.sol\":871:876  uint8 */\n      0x00\n        /* \"CardDeck.sol\":911:912  0 */\n      dup1\n        /* \"CardDeck.sol\":897:901  deck */\n      0x00\n        /* \"CardDeck.sol\":897:908  deck.length */\n      dup1\n      sload\n      swap1\n      pop\n        /* \"CardDeck.sol\":897:912  deck.length > 0 */\n      gt\n        /* \"CardDeck.sol\":889:942  require(deck.length > 0, \"No cards left in the deck\") */\n      tag_256\n      jumpi\n      mload(0x40)\n      0x08c379a000000000000000000000000000000000000000000000000000000000\n      dup2\n      mstore\n      0x04\n      add\n      tag_257\n      swap1\n      tag_258\n      jump\t// in\n    tag_257:\n      mload(0x40)\n      dup1\n      swap2\n      sub\n      swap1\n      revert\n    tag_256:\n        /* \"CardDeck.sol\":953:963  uint8 card */\n      0x00\n        /* \"CardDeck.sol\":966:970  deck */\n      dup1\n        /* \"CardDeck.sol\":985:986  1 */\n      0x01\n        /* \"CardDeck.sol\":971:975  deck */\n      0x00\n        /* \"CardDeck.sol\":971:982  deck.length */\n      dup1\n      sload\n      swap1\n      pop\n        /* \"CardDeck.sol\":971:986  deck.length - 1 */\n      tag_259\n      swap2\n      swap1\n      tag_260\n      jump\t// in\n    tag_259:\n        /* \"CardDeck.sol\":966:987  deck[deck.length - 1] */\n      dup2\n      sload\n      dup2\n      lt\n      tag_261\n      jumpi\n      tag_262\n      tag_64\n      jump\t// in\n    tag_262:\n    tag_261:\n      swap1\n      0x00\n      mstore\n      keccak256(0x00, 0x20)\n      swap1\n      0x20\n      swap2\n      dup3\n      dup3\n      div\n      add\n      swap2\n      swap1\n      mod\n      swap1\n      sload\n      swap1\n      0x0100\n      exp\n      swap1\n      div\n      0xff\n      and\n        /* \"CardDeck.sol\":953:987  uint8 card = deck[deck.length - 1] */\n      swap1\n      pop\n        /* \"CardDeck.sol\":998:1002  deck */\n      0x00\n        /* \"CardDeck.sol\":998:1008  deck.pop() */\n      dup1\n      sload\n      dup1\n      tag_264\n      jumpi\n      tag_265\n      tag_266\n      jump\t// in\n    tag_265:\n    tag_264:\n      0x01\n      swap1\n      sub\n      dup2\n      dup2\n      swap1\n      0x00\n      mstore\n      keccak256(0x00, 0x20)\n      swap1\n      0x20\n      swap2\n      dup3\n      dup3\n      div\n      add\n      swap2\n      swap1\n      mod\n      0x0100\n      exp\n      dup2\n      sload\n      swap1\n      0xff\n      mul\n      not\n      and\n      swap1\n      sstore\n      swap1\n      sstore\n        /* \"CardDeck.sol\":1057:1061  card */\n      dup1\n        /* \"CardDeck.sol\":1050:1061  return card */\n      swap2\n      pop\n      pop\n        /* \"CardDeck.sol\":833:1069  function drawCard() internal returns (uint8) {... */\n      swap1\n      jump\t// out\n        /* \"CardDeck.sol\":1077:1707  function getHandValue(uint8[] memory hand) internal pure returns (uint8) {... */\n    tag_87:\n        /* \"CardDeck.sol\":1143:1148  uint8 */\n      0x00\n        /* \"CardDeck.sol\":1161:1172  uint8 value */\n      dup1\n        /* \"CardDeck.sol\":1175:1176  0 */\n      0x00\n        /* \"CardDeck.sol\":1161:1176  uint8 value = 0 */\n      swap1\n      pop\n        /* \"CardDeck.sol\":1187:1197  uint8 aces */\n      0x00\n        /* \"CardDeck.sol\":1219:1228  uint256 i */\n      dup1\n        /* \"CardDeck.sol\":1214:1540  for (uint256 i = 0; i < hand.length; i++) {... */\n    tag_269:\n        /* \"CardDeck.sol\":1238:1242  hand */\n      dup5\n        /* \"CardDeck.sol\":1238:1249  hand.length */\n      mload\n        /* \"CardDeck.sol\":1234:1235  i */\n      dup2\n        /* \"CardDeck.sol\":1234:1249  i < hand.length */\n      lt\n        /* \"CardDeck.sol\":1214:1540  for (uint256 i = 0; i < hand.length; i++) {... */\n      iszero\n      tag_270\n      jumpi\n        /* \"CardDeck.sol\":1271:1286  uint8 cardValue */\n      0x00\n        /* \"CardDeck.sol\":1299:1301  13 */\n      0x0d\n        /* \"CardDeck.sol\":1289:1293  hand */\n      dup7\n        /* \"CardDeck.sol\":1294:1295  i */\n      dup4\n        /* \"CardDeck.sol\":1289:1296  hand[i] */\n      dup2\n      mload\n      dup2\n      lt\n      tag_272\n      jumpi\n      tag_273\n      tag_64\n      jump\t// in\n    tag_273:\n    tag_272:\n      0x20\n      mul\n      0x20\n      add\n      add\n      mload\n        /* \"CardDeck.sol\":1289:1301  hand[i] % 13 */\n      tag_274\n      swap2\n      swap1\n      tag_275\n      jump\t// in\n    tag_274:\n        /* \"CardDeck.sol\":1271:1301  uint8 cardValue = hand[i] % 13 */\n      swap1\n      pop\n        /* \"CardDeck.sol\":1356:1357  0 */\n      0x00\n        /* \"CardDeck.sol\":1343:1352  cardValue */\n      dup2\n        /* \"CardDeck.sol\":1343:1357  cardValue == 0 */\n      0xff\n      and\n      sub\n        /* \"CardDeck.sol\":1339:1373  if (cardValue == 0) cardValue = 13 */\n      tag_276\n      jumpi\n        /* \"CardDeck.sol\":1371:1373  13 */\n      0x0d\n        /* \"CardDeck.sol\":1359:1373  cardValue = 13 */\n      swap1\n      pop\n        /* \"CardDeck.sol\":1339:1373  if (cardValue == 0) cardValue = 13 */\n    tag_276:\n        /* \"CardDeck.sol\":1404:1406  10 */\n      0x0a\n        /* \"CardDeck.sol\":1392:1401  cardValue */\n      dup2\n        /* \"CardDeck.sol\":1392:1406  cardValue > 10 */\n      0xff\n      and\n      gt\n        /* \"CardDeck.sol\":1388:1422  if (cardValue > 10) cardValue = 10 */\n      iszero\n      tag_277\n      jumpi\n        /* \"CardDeck.sol\":1420:1422  10 */\n      0x0a\n        /* \"CardDeck.sol\":1408:1422  cardValue = 10 */\n      swap1\n      pop\n        /* \"CardDeck.sol\":1388:1422  if (cardValue > 10) cardValue = 10 */\n    tag_277:\n        /* \"CardDeck.sol\":1479:1480  1 */\n      0x01\n        /* \"CardDeck.sol\":1466:1475  cardValue */\n      dup2\n        /* \"CardDeck.sol\":1466:1480  cardValue == 1 */\n      0xff\n      and\n      sub\n        /* \"CardDeck.sol\":1462:1488  if (cardValue == 1) aces++ */\n      tag_278\n      jumpi\n        /* \"CardDeck.sol\":1482:1488  aces++ */\n      dup3\n      dup1\n      tag_279\n      swap1\n      tag_280\n      jump\t// in\n    tag_279:\n      swap4\n      pop\n      pop\n        /* \"CardDeck.sol\":1462:1488  if (cardValue == 1) aces++ */\n    tag_278:\n        /* \"CardDeck.sol\":1519:1528  cardValue */\n      dup1\n        /* \"CardDeck.sol\":1510:1528  value += cardValue */\n      dup5\n      tag_281\n      swap2\n      swap1\n      tag_282\n      jump\t// in\n    tag_281:\n      swap4\n      pop\n        /* \"CardDeck.sol\":1256:1540  {... */\n      pop\n        /* \"CardDeck.sol\":1251:1254  i++ */\n      dup1\n      dup1\n      0x01\n      add\n      swap2\n      pop\n      pop\n        /* \"CardDeck.sol\":1214:1540  for (uint256 i = 0; i < hand.length; i++) {... */\n      jump(tag_269)\n    tag_270:\n      pop\n        /* \"CardDeck.sol\":1552:1675  while (value <= 11 && aces > 0) {... */\n    tag_283:\n        /* \"CardDeck.sol\":1568:1570  11 */\n      0x0b\n        /* \"CardDeck.sol\":1559:1564  value */\n      dup3\n        /* \"CardDeck.sol\":1559:1570  value <= 11 */\n      0xff\n      and\n      gt\n      iszero\n        /* \"CardDeck.sol\":1559:1582  value <= 11 && aces > 0 */\n      dup1\n      iszero\n      tag_285\n      jumpi\n      pop\n        /* \"CardDeck.sol\":1581:1582  0 */\n      0x00\n        /* \"CardDeck.sol\":1574:1578  aces */\n      dup2\n        /* \"CardDeck.sol\":1574:1582  aces > 0 */\n      0xff\n      and\n      gt\n        /* \"CardDeck.sol\":1559:1582  value <= 11 && aces > 0 */\n    tag_285:\n        /* \"CardDeck.sol\":1552:1675  while (value <= 11 && aces > 0) {... */\n      iszero\n      tag_284\n      jumpi\n        /* \"CardDeck.sol\":1608:1610  10 */\n      0x0a\n        /* \"CardDeck.sol\":1599:1610  value += 10 */\n      dup3\n      tag_286\n      swap2\n      swap1\n      tag_282\n      jump\t// in\n    tag_286:\n      swap2\n      pop\n        /* \"CardDeck.sol\":1657:1663  aces-- */\n      dup1\n      dup1\n      tag_287\n      swap1\n      tag_288\n      jump\t// in\n    tag_287:\n      swap2\n      pop\n      pop\n        /* \"CardDeck.sol\":1552:1675  while (value <= 11 && aces > 0) {... */\n      jump(tag_283)\n    tag_284:\n        /* \"CardDeck.sol\":1694:1699  value */\n      dup2\n        /* \"CardDeck.sol\":1687:1699  return value */\n      swap3\n      pop\n      pop\n      pop\n        /* \"CardDeck.sol\":1077:1707  function getHandValue(uint8[] memory hand) internal pure returns (uint8) {... */\n      swap2\n      swap1\n      pop\n      jump\t// out\n        /* \"Blackjack.sol\":1404:2428  function formatHand(uint8[] memory hand, string memory prefix) internal pure returns (string memory) {... */\n    tag_115:\n        /* \"Blackjack.sol\":1490:1503  string memory */\n      0x60\n        /* \"Blackjack.sol\":1516:1540  string memory handString */\n      0x00\n        /* \"Blackjack.sol\":1543:1549  prefix */\n      dup3\n        /* \"Blackjack.sol\":1516:1549  string memory handString = prefix */\n      swap1\n      pop\n        /* \"Blackjack.sol\":1567:1576  uint256 i */\n      0x00\n        /* \"Blackjack.sol\":1562:2391  for (uint256 i = 0; i < hand.length; i++) {... */\n    tag_290:\n        /* \"Blackjack.sol\":1586:1590  hand */\n      dup5\n        /* \"Blackjack.sol\":1586:1597  hand.length */\n      mload\n        /* \"Blackjack.sol\":1582:1583  i */\n      dup2\n        /* \"Blackjack.sol\":1582:1597  i < hand.length */\n      lt\n        /* \"Blackjack.sol\":1562:2391  for (uint256 i = 0; i < hand.length; i++) {... */\n      iszero\n      tag_291\n      jumpi\n        /* \"Blackjack.sol\":1619:1634  uint8 cardValue */\n      0x00\n        /* \"Blackjack.sol\":1647:1649  13 */\n      0x0d\n        /* \"Blackjack.sol\":1637:1641  hand */\n      dup7\n        /* \"Blackjack.sol\":1642:1643  i */\n      dup4\n        /* \"Blackjack.sol\":1637:1644  hand[i] */\n      dup2\n      mload\n      dup2\n      lt\n      tag_293\n      jumpi\n      tag_294\n      tag_64\n      jump\t// in\n    tag_294:\n    tag_293:\n      0x20\n      mul\n      0x20\n      add\n      add\n      mload\n        /* \"Blackjack.sol\":1637:1649  hand[i] % 13 */\n      tag_295\n      swap2\n      swap1\n      tag_275\n      jump\t// in\n    tag_295:\n        /* \"Blackjack.sol\":1619:1649  uint8 cardValue = hand[i] % 13 */\n      swap1\n      pop\n        /* \"Blackjack.sol\":1681:1682  0 */\n      0x00\n        /* \"Blackjack.sol\":1668:1677  cardValue */\n      dup2\n        /* \"Blackjack.sol\":1668:1682  cardValue == 0 */\n      0xff\n      and\n      sub\n        /* \"Blackjack.sol\":1664:1738  if (cardValue == 0) {... */\n      tag_296\n      jumpi\n        /* \"Blackjack.sol\":1715:1717  13 */\n      0x0d\n        /* \"Blackjack.sol\":1703:1717  cardValue = 13 */\n      swap1\n      pop\n        /* \"Blackjack.sol\":1664:1738  if (cardValue == 0) {... */\n    tag_296:\n        /* \"Blackjack.sol\":1754:1778  string memory cardSymbol */\n      0x60\n        /* \"Blackjack.sol\":1810:1811  1 */\n      0x01\n        /* \"Blackjack.sol\":1797:1806  cardValue */\n      dup3\n        /* \"Blackjack.sol\":1797:1811  cardValue == 1 */\n      0xff\n      and\n      sub\n        /* \"Blackjack.sol\":1793:2171  if (cardValue == 1) {... */\n      tag_297\n      jumpi\n        /* \"Blackjack.sol\":1832:1848  cardSymbol = \"A\" */\n      mload(0x40)\n      dup1\n      0x40\n      add\n      0x40\n      mstore\n      dup1\n      0x01\n      dup2\n      mstore\n      0x20\n      add\n      0x4100000000000000000000000000000000000000000000000000000000000000\n      dup2\n      mstore\n      pop\n      swap1\n      pop\n        /* \"Blackjack.sol\":1793:2171  if (cardValue == 1) {... */\n      jump(tag_298)\n    tag_297:\n        /* \"Blackjack.sol\":1887:1889  11 */\n      0x0b\n        /* \"Blackjack.sol\":1874:1883  cardValue */\n      dup3\n        /* \"Blackjack.sol\":1874:1889  cardValue == 11 */\n      0xff\n      and\n      sub\n        /* \"Blackjack.sol\":1870:2171  if (cardValue == 11) {... */\n      tag_299\n      jumpi\n        /* \"Blackjack.sol\":1910:1926  cardSymbol = \"J\" */\n      mload(0x40)\n      dup1\n      0x40\n      add\n      0x40\n      mstore\n      dup1\n      0x01\n      dup2\n      mstore\n      0x20\n      add\n      0x4a00000000000000000000000000000000000000000000000000000000000000\n      dup2\n      mstore\n      pop\n      swap1\n      pop\n        /* \"Blackjack.sol\":1870:2171  if (cardValue == 11) {... */\n      jump(tag_300)\n    tag_299:\n        /* \"Blackjack.sol\":1965:1967  12 */\n      0x0c\n        /* \"Blackjack.sol\":1952:1961  cardValue */\n      dup3\n        /* \"Blackjack.sol\":1952:1967  cardValue == 12 */\n      0xff\n      and\n      sub\n        /* \"Blackjack.sol\":1948:2171  if (cardValue == 12) {... */\n      tag_301\n      jumpi\n        /* \"Blackjack.sol\":1988:2004  cardSymbol = \"Q\" */\n      mload(0x40)\n      dup1\n      0x40\n      add\n      0x40\n      mstore\n      dup1\n      0x01\n      dup2\n      mstore\n      0x20\n      add\n      0x5100000000000000000000000000000000000000000000000000000000000000\n      dup2\n      mstore\n      pop\n      swap1\n      pop\n        /* \"Blackjack.sol\":1948:2171  if (cardValue == 12) {... */\n      jump(tag_302)\n    tag_301:\n        /* \"Blackjack.sol\":2043:2045  13 */\n      0x0d\n        /* \"Blackjack.sol\":2030:2039  cardValue */\n      dup3\n        /* \"Blackjack.sol\":2030:2045  cardValue == 13 */\n      0xff\n      and\n      sub\n        /* \"Blackjack.sol\":2026:2171  if (cardValue == 13) {... */\n      tag_303\n      jumpi\n        /* \"Blackjack.sol\":2066:2082  cardSymbol = \"K\" */\n      mload(0x40)\n      dup1\n      0x40\n      add\n      0x40\n      mstore\n      dup1\n      0x01\n      dup2\n      mstore\n      0x20\n      add\n      0x4b00000000000000000000000000000000000000000000000000000000000000\n      dup2\n      mstore\n      pop\n      swap1\n      pop\n        /* \"Blackjack.sol\":2026:2171  if (cardValue == 13) {... */\n      jump(tag_304)\n    tag_303:\n        /* \"Blackjack.sol\":2136:2155  uint2str(cardValue) */\n      tag_305\n        /* \"Blackjack.sol\":2145:2154  cardValue */\n      dup3\n        /* \"Blackjack.sol\":2136:2155  uint2str(cardValue) */\n      0xff\n      and\n        /* \"Blackjack.sol\":2136:2144  uint2str */\n      tag_205\n        /* \"Blackjack.sol\":2136:2155  uint2str(cardValue) */\n      jump\t// in\n    tag_305:\n        /* \"Blackjack.sol\":2123:2155  cardSymbol = uint2str(cardValue) */\n      swap1\n      pop\n        /* \"Blackjack.sol\":2026:2171  if (cardValue == 13) {... */\n    tag_304:\n        /* \"Blackjack.sol\":1948:2171  if (cardValue == 12) {... */\n    tag_302:\n        /* \"Blackjack.sol\":1870:2171  if (cardValue == 11) {... */\n    tag_300:\n        /* \"Blackjack.sol\":1793:2171  if (cardValue == 1) {... */\n    tag_298:\n        /* \"Blackjack.sol\":2224:2234  handString */\n      dup4\n        /* \"Blackjack.sol\":2236:2246  cardSymbol */\n      dup2\n        /* \"Blackjack.sol\":2207:2247  abi.encodePacked(handString, cardSymbol) */\n      add(0x20, mload(0x40))\n      tag_306\n      swap3\n      swap2\n      swap1\n      tag_307\n      jump\t// in\n    tag_306:\n      mload(0x40)\n      0x20\n      dup2\n      dup4\n      sub\n      sub\n      dup2\n      mstore\n      swap1\n      0x40\n      mstore\n        /* \"Blackjack.sol\":2187:2248  handString = string(abi.encodePacked(handString, cardSymbol)) */\n      swap4\n      pop\n        /* \"Blackjack.sol\":2287:2288  1 */\n      0x01\n        /* \"Blackjack.sol\":2273:2277  hand */\n      dup8\n        /* \"Blackjack.sol\":2273:2284  hand.length */\n      mload\n        /* \"Blackjack.sol\":2273:2288  hand.length - 1 */\n      tag_308\n      swap2\n      swap1\n      tag_260\n      jump\t// in\n    tag_308:\n        /* \"Blackjack.sol\":2269:2270  i */\n      dup4\n        /* \"Blackjack.sol\":2269:2288  i < hand.length - 1 */\n      lt\n        /* \"Blackjack.sol\":2265:2380  if (i < hand.length - 1) {... */\n      iszero\n      tag_309\n      jumpi\n        /* \"Blackjack.sol\":2346:2356  handString */\n      dup4\n        /* \"Blackjack.sol\":2329:2363  abi.encodePacked(handString, \", \") */\n      add(0x20, mload(0x40))\n      tag_310\n      swap2\n      swap1\n      tag_311\n      jump\t// in\n    tag_310:\n      mload(0x40)\n      0x20\n      dup2\n      dup4\n      sub\n      sub\n      dup2\n      mstore\n      swap1\n      0x40\n      mstore\n        /* \"Blackjack.sol\":2309:2364  handString = string(abi.encodePacked(handString, \", \")) */\n      swap4\n      pop\n        /* \"Blackjack.sol\":2265:2380  if (i < hand.length - 1) {... */\n    tag_309:\n        /* \"Blackjack.sol\":1604:2391  {... */\n      pop\n      pop\n        /* \"Blackjack.sol\":1599:1602  i++ */\n      dup1\n      dup1\n      0x01\n      add\n      swap2\n      pop\n      pop\n        /* \"Blackjack.sol\":1562:2391  for (uint256 i = 0; i < hand.length; i++) {... */\n      jump(tag_290)\n    tag_291:\n      pop\n        /* \"Blackjack.sol\":2410:2420  handString */\n      dup1\n        /* \"Blackjack.sol\":2403:2420  return handString */\n      swap2\n      pop\n      pop\n        /* \"Blackjack.sol\":1404:2428  function formatHand(uint8[] memory hand, string memory prefix) internal pure returns (string memory) {... */\n      swap3\n      swap2\n      pop\n      pop\n      jump\t// out\n        /* \"Blackjack.sol\":5017:6067  function formatWinners(address[] memory winners) internal view returns (string memory) {... */\n    tag_155:\n        /* \"Blackjack.sol\":5089:5102  string memory */\n      0x60\n        /* \"Blackjack.sol\":5115:5135  uint256 nonBankCount */\n      0x00\n        /* \"Blackjack.sol\":5155:5164  uint256 i */\n      dup1\n        /* \"Blackjack.sol\":5150:5294  for (uint256 i = 0; i < winners.length; i++) {... */\n    tag_313:\n        /* \"Blackjack.sol\":5174:5181  winners */\n      dup4\n        /* \"Blackjack.sol\":5174:5188  winners.length */\n      mload\n        /* \"Blackjack.sol\":5170:5171  i */\n      dup2\n        /* \"Blackjack.sol\":5170:5188  i < winners.length */\n      lt\n        /* \"Blackjack.sol\":5150:5294  for (uint256 i = 0; i < winners.length; i++) {... */\n      iszero\n      tag_314\n      jumpi\n        /* \"Blackjack.sol\":5228:5232  bank */\n      0x04\n      0x00\n      swap1\n      sload\n      swap1\n      0x0100\n      exp\n      swap1\n      div\n      0xffffffffffffffffffffffffffffffffffffffff\n      and\n        /* \"Blackjack.sol\":5214:5232  winners[i] != bank */\n      0xffffffffffffffffffffffffffffffffffffffff\n      and\n        /* \"Blackjack.sol\":5214:5221  winners */\n      dup5\n        /* \"Blackjack.sol\":5222:5223  i */\n      dup3\n        /* \"Blackjack.sol\":5214:5224  winners[i] */\n      dup2\n      mload\n      dup2\n      lt\n      tag_316\n      jumpi\n      tag_317\n      tag_64\n      jump\t// in\n    tag_317:\n    tag_316:\n      0x20\n      mul\n      0x20\n      add\n      add\n      mload\n        /* \"Blackjack.sol\":5214:5232  winners[i] != bank */\n      0xffffffffffffffffffffffffffffffffffffffff\n      and\n      eq\n        /* \"Blackjack.sol\":5210:5283  if (winners[i] != bank) {... */\n      tag_318\n      jumpi\n        /* \"Blackjack.sol\":5253:5267  nonBankCount++ */\n      dup2\n      dup1\n      tag_319\n      swap1\n      tag_246\n      jump\t// in\n    tag_319:\n      swap3\n      pop\n      pop\n        /* \"Blackjack.sol\":5210:5283  if (winners[i] != bank) {... */\n    tag_318:\n        /* \"Blackjack.sol\":5190:5193  i++ */\n      dup1\n      dup1\n      0x01\n      add\n      swap2\n      pop\n      pop\n        /* \"Blackjack.sol\":5150:5294  for (uint256 i = 0; i < winners.length; i++) {... */\n      jump(tag_313)\n    tag_314:\n      pop\n        /* \"Blackjack.sol\":5326:5327  0 */\n      0x00\n        /* \"Blackjack.sol\":5310:5322  nonBankCount */\n      dup2\n        /* \"Blackjack.sol\":5310:5327  nonBankCount == 0 */\n      sub\n        /* \"Blackjack.sol\":5306:5380  if (nonBankCount == 0) {... */\n      tag_320\n      jumpi\n        /* \"Blackjack.sol\":5344:5368  return \"No players won.\" */\n      mload(0x40)\n      dup1\n      0x40\n      add\n      0x40\n      mstore\n      dup1\n      0x0f\n      dup2\n      mstore\n      0x20\n      add\n      0x4e6f20706c617965727320776f6e2e0000000000000000000000000000000000\n      dup2\n      mstore\n      pop\n      swap2\n      pop\n      pop\n      jump(tag_312)\n        /* \"Blackjack.sol\":5306:5380  if (nonBankCount == 0) {... */\n    tag_320:\n        /* \"Blackjack.sol\":5392:5412  string memory result */\n      0x00\n        /* \"Blackjack.sol\":5392:5417  string memory result = \"\" */\n      mload(0x40)\n      dup1\n      0x20\n      add\n      0x40\n      mstore\n      dup1\n      0x00\n      dup2\n      mstore\n      pop\n      swap1\n      pop\n        /* \"Blackjack.sol\":5433:5442  uint256 i */\n      0x00\n        /* \"Blackjack.sol\":5428:6034  for (uint256 i = 0; i < winners.length; i++) {... */\n    tag_321:\n        /* \"Blackjack.sol\":5452:5459  winners */\n      dup5\n        /* \"Blackjack.sol\":5452:5466  winners.length */\n      mload\n        /* \"Blackjack.sol\":5448:5449  i */\n      dup2\n        /* \"Blackjack.sol\":5448:5466  i < winners.length */\n      lt\n        /* \"Blackjack.sol\":5428:6034  for (uint256 i = 0; i < winners.length; i++) {... */\n      iszero\n      tag_322\n      jumpi\n        /* \"Blackjack.sol\":5506:5510  bank */\n      0x04\n      0x00\n      swap1\n      sload\n      swap1\n      0x0100\n      exp\n      swap1\n      div\n      0xffffffffffffffffffffffffffffffffffffffff\n      and\n        /* \"Blackjack.sol\":5492:5510  winners[i] != bank */\n      0xffffffffffffffffffffffffffffffffffffffff\n      and\n        /* \"Blackjack.sol\":5492:5499  winners */\n      dup6\n        /* \"Blackjack.sol\":5500:5501  i */\n      dup3\n        /* \"Blackjack.sol\":5492:5502  winners[i] */\n      dup2\n      mload\n      dup2\n      lt\n      tag_324\n      jumpi\n      tag_325\n      tag_64\n      jump\t// in\n    tag_325:\n    tag_324:\n      0x20\n      mul\n      0x20\n      add\n      add\n      mload\n        /* \"Blackjack.sol\":5492:5510  winners[i] != bank */\n      0xffffffffffffffffffffffffffffffffffffffff\n      and\n      eq\n        /* \"Blackjack.sol\":5488:6023  if (winners[i] != bank) {... */\n      tag_326\n      jumpi\n        /* \"Blackjack.sol\":5531:5550  uint256 playerIndex */\n      0x00\n        /* \"Blackjack.sol\":5553:5580  findPlayerIndex(winners[i]) */\n      tag_327\n        /* \"Blackjack.sol\":5569:5576  winners */\n      dup7\n        /* \"Blackjack.sol\":5577:5578  i */\n      dup4\n        /* \"Blackjack.sol\":5569:5579  winners[i] */\n      dup2\n      mload\n      dup2\n      lt\n      tag_328\n      jumpi\n      tag_329\n      tag_64\n      jump\t// in\n    tag_329:\n    tag_328:\n      0x20\n      mul\n      0x20\n      add\n      add\n      mload\n        /* \"Blackjack.sol\":5553:5568  findPlayerIndex */\n      tag_58\n        /* \"Blackjack.sol\":5553:5580  findPlayerIndex(winners[i]) */\n      jump\t// in\n    tag_327:\n        /* \"Blackjack.sol\":5531:5580  uint256 playerIndex = findPlayerIndex(winners[i]) */\n      swap1\n      pop\n        /* \"Blackjack.sol\":5618:5635  type(uint256).max */\n      0xffffffffffffffffffffffffffffffffffffffffffffffffffffffffffffffff\n        /* \"Blackjack.sol\":5603:5614  playerIndex */\n      dup2\n        /* \"Blackjack.sol\":5603:5635  playerIndex != type(uint256).max */\n      eq\n        /* \"Blackjack.sol\":5599:6008  if (playerIndex != type(uint256).max) {... */\n      tag_330\n      jumpi\n        /* \"Blackjack.sol\":5660:5684  string memory playerName */\n      0x00\n        /* \"Blackjack.sol\":5722:5747  uint2str(playerIndex + 1) */\n      tag_331\n        /* \"Blackjack.sol\":5745:5746  1 */\n      0x01\n        /* \"Blackjack.sol\":5731:5742  playerIndex */\n      dup4\n        /* \"Blackjack.sol\":5731:5746  playerIndex + 1 */\n      tag_332\n      swap2\n      swap1\n      tag_183\n      jump\t// in\n    tag_332:\n        /* \"Blackjack.sol\":5722:5730  uint2str */\n      tag_205\n        /* \"Blackjack.sol\":5722:5747  uint2str(playerIndex + 1) */\n      jump\t// in\n    tag_331:\n        /* \"Blackjack.sol\":5694:5748  abi.encodePacked(\"Player \", uint2str(playerIndex + 1)) */\n      add(0x20, mload(0x40))\n      tag_333\n      swap2\n      swap1\n      tag_334\n      jump\t// in\n    tag_333:\n      mload(0x40)\n      0x20\n      dup2\n      dup4\n      sub\n      sub\n      dup2\n      mstore\n      swap1\n      0x40\n      mstore\n        /* \"Blackjack.sol\":5660:5749  string memory playerName = string(abi.encodePacked(\"Player \", uint2str(playerIndex + 1))) */\n      swap1\n      pop\n        /* \"Blackjack.sol\":5800:5801  0 */\n      0x00\n        /* \"Blackjack.sol\":5782:5788  result */\n      dup5\n        /* \"Blackjack.sol\":5776:5796  bytes(result).length */\n      mload\n        /* \"Blackjack.sol\":5776:5801  bytes(result).length == 0 */\n      sub\n        /* \"Blackjack.sol\":5772:5989  if (bytes(result).length == 0) {... */\n      tag_335\n      jumpi\n        /* \"Blackjack.sol\":5839:5849  playerName */\n      dup1\n        /* \"Blackjack.sol\":5830:5849  result = playerName */\n      swap4\n      pop\n        /* \"Blackjack.sol\":5772:5989  if (bytes(result).length == 0) {... */\n      jump(tag_336)\n    tag_335:\n        /* \"Blackjack.sol\":5939:5945  result */\n      dup4\n        /* \"Blackjack.sol\":5953:5963  playerName */\n      dup2\n        /* \"Blackjack.sol\":5922:5964  abi.encodePacked(result, \", \", playerName) */\n      add(0x20, mload(0x40))\n      tag_337\n      swap3\n      swap2\n      swap1\n      tag_338\n      jump\t// in\n    tag_337:\n      mload(0x40)\n      0x20\n      dup2\n      dup4\n      sub\n      sub\n      dup2\n      mstore\n      swap1\n      0x40\n      mstore\n        /* \"Blackjack.sol\":5906:5965  result = string(abi.encodePacked(result, \", \", playerName)) */\n      swap4\n      pop\n        /* \"Blackjack.sol\":5772:5989  if (bytes(result).length == 0) {... */\n    tag_336:\n        /* \"Blackjack.sol\":5637:6008  {... */\n      pop\n        /* \"Blackjack.sol\":5599:6008  if (playerIndex != type(uint256).max) {... */\n    tag_330:\n        /* \"Blackjack.sol\":5512:6023  {... */\n      pop\n        /* \"Blackjack.sol\":5488:6023  if (winners[i] != bank) {... */\n    tag_326:\n        /* \"Blackjack.sol\":5468:5471  i++ */\n      dup1\n      dup1\n      0x01\n      add\n      swap2\n      pop\n      pop\n        /* \"Blackjack.sol\":5428:6034  for (uint256 i = 0; i < winners.length; i++) {... */\n      jump(tag_321)\n    tag_322:\n      pop\n        /* \"Blackjack.sol\":6053:6059  result */\n      dup1\n        /* \"Blackjack.sol\":6046:6059  return result */\n      swap3\n      pop\n      pop\n      pop\n        /* \"Blackjack.sol\":5017:6067  function formatWinners(address[] memory winners) internal view returns (string memory) {... */\n    tag_312:\n      swap2\n      swap1\n      pop\n      jump\t// out\n        /* \"Blackjack.sol\":6368:6505  function resetGame() internal {... */\n    tag_158:\n        /* \"Blackjack.sol\":6416:6423  players */\n      0x01\n      0x00\n        /* \"Blackjack.sol\":6409:6423  delete players */\n      tag_340\n      swap2\n      swap1\n      tag_341\n      jump\t// in\n    tag_340:\n        /* \"Blackjack.sol\":6441:6449  bankHand */\n      0x03\n      0x00\n        /* \"Blackjack.sol\":6434:6449  delete bankHand */\n      tag_342\n      swap2\n      swap1\n      tag_343\n      jump\t// in\n    tag_342:\n        /* \"Blackjack.sol\":6474:6475  0 */\n      0x00\n        /* \"Blackjack.sol\":6460:6471  playerCount */\n      0x02\n        /* \"Blackjack.sol\":6460:6475  playerCount = 0 */\n      dup2\n      swap1\n      sstore\n      pop\n        /* \"Blackjack.sol\":6486:6497  resetDeck() */\n      tag_344\n        /* \"Blackjack.sol\":6486:6495  resetDeck */\n      tag_345\n        /* \"Blackjack.sol\":6486:6497  resetDeck() */\n      jump\t// in\n    tag_344:\n        /* \"Blackjack.sol\":6368:6505  function resetGame() internal {... */\n      jump\t// out\n        /* \"Blackjack.sol\":6513:7031  function uint2str(uint256 _i) internal pure returns (string memory _uintAsString) {... */\n    tag_205:\n        /* \"Blackjack.sol\":6566:6593  string memory _uintAsString */\n      0x60\n        /* \"Blackjack.sol\":6616:6617  0 */\n      0x00\n        /* \"Blackjack.sol\":6610:6612  _i */\n      dup3\n        /* \"Blackjack.sol\":6610:6617  _i == 0 */\n      sub\n        /* \"Blackjack.sol\":6606:6656  if (_i == 0) {... */\n      tag_347\n      jumpi\n        /* \"Blackjack.sol\":6634:6644  return \"0\" */\n      mload(0x40)\n      dup1\n      0x40\n      add\n      0x40\n      mstore\n      dup1\n      0x01\n      dup2\n      mstore\n      0x20\n      add\n      0x3000000000000000000000000000000000000000000000000000000000000000\n      dup2\n      mstore\n      pop\n      swap1\n      pop\n      jump(tag_346)\n        /* \"Blackjack.sol\":6606:6656  if (_i == 0) {... */\n    tag_347:\n        /* \"Blackjack.sol\":6666:6675  uint256 j */\n      0x00\n        /* \"Blackjack.sol\":6678:6680  _i */\n      dup3\n        /* \"Blackjack.sol\":6666:6680  uint256 j = _i */\n      swap1\n      pop\n        /* \"Blackjack.sol\":6691:6705  uint256 length */\n      0x00\n        /* \"Blackjack.sol\":6716:6788  while (j != 0) {... */\n    tag_348:\n        /* \"Blackjack.sol\":6728:6729  0 */\n      0x00\n        /* \"Blackjack.sol\":6723:6724  j */\n      dup3\n        /* \"Blackjack.sol\":6723:6729  j != 0 */\n      eq\n        /* \"Blackjack.sol\":6716:6788  while (j != 0) {... */\n      tag_349\n      jumpi\n        /* \"Blackjack.sol\":6746:6754  length++ */\n      dup1\n      dup1\n      tag_350\n      swap1\n      tag_246\n      jump\t// in\n    tag_350:\n      swap2\n      pop\n      pop\n        /* \"Blackjack.sol\":6774:6776  10 */\n      0x0a\n        /* \"Blackjack.sol\":6769:6776  j /= 10 */\n      dup3\n      tag_351\n      swap2\n      swap1\n      tag_352\n      jump\t// in\n    tag_351:\n      swap2\n      pop\n        /* \"Blackjack.sol\":6716:6788  while (j != 0) {... */\n      jump(tag_348)\n    tag_349:\n        /* \"Blackjack.sol\":6798:6815  bytes memory bstr */\n      0x00\n        /* \"Blackjack.sol\":6828:6834  length */\n      dup2\n        /* \"Blackjack.sol\":6818:6835  new bytes(length) */\n      0xffffffffffffffff\n      dup2\n      gt\n      iszero\n      tag_353\n      jumpi\n      tag_354\n      tag_186\n      jump\t// in\n    tag_354:\n    tag_353:\n      mload(0x40)\n      swap1\n      dup1\n      dup3\n      mstore\n      dup1\n      0x1f\n      add\n      not(0x1f)\n      and\n      0x20\n      add\n      dup3\n      add\n      0x40\n      mstore\n      dup1\n      iszero\n      tag_355\n      jumpi\n      dup2\n      0x20\n      add\n      0x01\n      dup3\n      mul\n      dup1\n      calldatasize\n      dup4\n      calldatacopy\n      dup1\n      dup3\n      add\n      swap2\n      pop\n      pop\n      swap1\n      pop\n    tag_355:\n      pop\n        /* \"Blackjack.sol\":6798:6835  bytes memory bstr = new bytes(length) */\n      swap1\n      pop\n        /* \"Blackjack.sol\":6846:6855  uint256 k */\n      0x00\n        /* \"Blackjack.sol\":6858:6864  length */\n      dup3\n        /* \"Blackjack.sol\":6846:6864  uint256 k = length */\n      swap1\n      pop\n        /* \"Blackjack.sol\":6879:6881  _i */\n      dup6\n        /* \"Blackjack.sol\":6875:6881  j = _i */\n      swap4\n      pop\n        /* \"Blackjack.sol\":6892:6994  while (j != 0) {... */\n    tag_356:\n        /* \"Blackjack.sol\":6904:6905  0 */\n      0x00\n        /* \"Blackjack.sol\":6899:6900  j */\n      dup5\n        /* \"Blackjack.sol\":6899:6905  j != 0 */\n      eq\n        /* \"Blackjack.sol\":6892:6994  while (j != 0) {... */\n      tag_357\n      jumpi\n        /* \"Blackjack.sol\":6956:6958  10 */\n      0x0a\n        /* \"Blackjack.sol\":6952:6953  j */\n      dup5\n        /* \"Blackjack.sol\":6952:6958  j % 10 */\n      tag_358\n      swap2\n      swap1\n      tag_359\n      jump\t// in\n    tag_358:\n        /* \"Blackjack.sol\":6947:6949  48 */\n      0x30\n        /* \"Blackjack.sol\":6947:6958  48 + j % 10 */\n      tag_360\n      swap2\n      swap1\n      tag_183\n      jump\t// in\n    tag_360:\n        /* \"Blackjack.sol\":6934:6960  bytes1(uint8(48 + j % 10)) */\n      0xf8\n      shl\n        /* \"Blackjack.sol\":6922:6926  bstr */\n      dup3\n        /* \"Blackjack.sol\":6927:6930  --k */\n      dup3\n      tag_361\n      swap1\n      tag_362\n      jump\t// in\n    tag_361:\n      swap3\n      pop\n      dup3\n        /* \"Blackjack.sol\":6922:6931  bstr[--k] */\n      dup2\n      mload\n      dup2\n      lt\n      tag_363\n      jumpi\n      tag_364\n      tag_64\n      jump\t// in\n    tag_364:\n    tag_363:\n      0x20\n      add\n      add\n        /* \"Blackjack.sol\":6922:6960  bstr[--k] = bytes1(uint8(48 + j % 10)) */\n      swap1\n      not(0xffffffffffffffffffffffffffffffffffffffffffffffffffffffffffffff)\n      and\n      swap1\n      dup2\n      0x00\n      byte\n      swap1\n      mstore8\n      pop\n        /* \"Blackjack.sol\":6980:6982  10 */\n      0x0a\n        /* \"Blackjack.sol\":6975:6982  j /= 10 */\n      dup5\n      tag_365\n      swap2\n      swap1\n      tag_352\n      jump\t// in\n    tag_365:\n      swap4\n      pop\n        /* \"Blackjack.sol\":6892:6994  while (j != 0) {... */\n      jump(tag_356)\n    tag_357:\n        /* \"Blackjack.sol\":7018:7022  bstr */\n      dup2\n        /* \"Blackjack.sol\":7004:7023  return string(bstr) */\n      swap5\n      pop\n      pop\n      pop\n      pop\n      pop\n        /* \"Blackjack.sol\":6513:7031  function uint2str(uint256 _i) internal pure returns (string memory _uintAsString) {... */\n    tag_346:\n      swap2\n      swap1\n      pop\n      jump\t// out\n        /* \"CardDeck.sol\":369:825  function shuffleDeck() internal {... */\n    tag_216:\n        /* \"CardDeck.sol\":412:424  uint256 seed */\n      0x00\n        /* \"CardDeck.sol\":462:477  block.timestamp */\n      timestamp\n        /* \"CardDeck.sol\":479:495  block.prevrandao */\n      prevrandao\n        /* \"CardDeck.sol\":522:523  1 */\n      0x01\n        /* \"CardDeck.sol\":507:519  block.number */\n      number\n        /* \"CardDeck.sol\":507:523  block.number - 1 */\n      tag_367\n      swap2\n      swap1\n      tag_260\n      jump\t// in\n    tag_367:\n        /* \"CardDeck.sol\":497:524  blockhash(block.number - 1) */\n      blockhash\n        /* \"CardDeck.sol\":445:525  abi.encodePacked(block.timestamp, block.prevrandao, blockhash(block.number - 1)) */\n      add(0x20, mload(0x40))\n      tag_368\n      swap4\n      swap3\n      swap2\n      swap1\n      tag_369\n      jump\t// in\n    tag_368:\n      mload(0x40)\n      0x20\n      dup2\n      dup4\n      sub\n      sub\n      dup2\n      mstore\n      swap1\n      0x40\n      mstore\n        /* \"CardDeck.sol\":435:526  keccak256(abi.encodePacked(block.timestamp, block.prevrandao, blockhash(block.number - 1))) */\n      dup1\n      mload\n      swap1\n      0x20\n      add\n      keccak256\n        /* \"CardDeck.sol\":427:527  uint256(keccak256(abi.encodePacked(block.timestamp, block.prevrandao, blockhash(block.number - 1)))) */\n      0x00\n      shr\n        /* \"CardDeck.sol\":412:527  uint256 seed = uint256(keccak256(abi.encodePacked(block.timestamp, block.prevrandao, blockhash(block.number - 1)))) */\n      swap1\n      pop\n        /* \"CardDeck.sol\":543:552  uint256 i */\n      0x00\n        /* \"CardDeck.sol\":538:818  for (uint256 i = 0; i < deck.length; i++) {... */\n    tag_370:\n        /* \"CardDeck.sol\":562:566  deck */\n      0x00\n        /* \"CardDeck.sol\":562:573  deck.length */\n      dup1\n      sload\n      swap1\n      pop\n        /* \"CardDeck.sol\":558:559  i */\n      dup2\n        /* \"CardDeck.sol\":558:573  i < deck.length */\n      lt\n        /* \"CardDeck.sol\":538:818  for (uint256 i = 0; i < deck.length; i++) {... */\n      iszero\n      tag_371\n      jumpi\n        /* \"CardDeck.sol\":595:612  uint256 swapIndex */\n      0x00\n        /* \"CardDeck.sol\":622:626  deck */\n      dup1\n        /* \"CardDeck.sol\":622:633  deck.length */\n      dup1\n      sload\n      swap1\n      pop\n        /* \"CardDeck.sol\":615:619  seed */\n      dup4\n        /* \"CardDeck.sol\":615:633  seed % deck.length */\n      tag_373\n      swap2\n      swap1\n      tag_359\n      jump\t// in\n    tag_373:\n        /* \"CardDeck.sol\":595:633  uint256 swapIndex = seed % deck.length */\n      swap1\n      pop\n        /* \"CardDeck.sol\":678:682  deck */\n      0x00\n        /* \"CardDeck.sol\":683:692  swapIndex */\n      dup2\n        /* \"CardDeck.sol\":678:693  deck[swapIndex] */\n      dup2\n      sload\n      dup2\n      lt\n      tag_374\n      jumpi\n      tag_375\n      tag_64\n      jump\t// in\n    tag_375:\n    tag_374:\n      swap1\n      0x00\n      mstore\n      keccak256(0x00, 0x20)\n      swap1\n      0x20\n      swap2\n      dup3\n      dup3\n      div\n      add\n      swap2\n      swap1\n      mod\n      swap1\n      sload\n      swap1\n      0x0100\n      exp\n      swap1\n      div\n      0xff\n      and\n        /* \"CardDeck.sol\":695:699  deck */\n      0x00\n        /* \"CardDeck.sol\":700:701  i */\n      dup4\n        /* \"CardDeck.sol\":695:702  deck[i] */\n      dup2\n      sload\n      dup2\n      lt\n      tag_377\n      jumpi\n      tag_378\n      tag_64\n      jump\t// in\n    tag_378:\n    tag_377:\n      swap1\n      0x00\n      mstore\n      keccak256(0x00, 0x20)\n      swap1\n      0x20\n      swap2\n      dup3\n      dup3\n      div\n      add\n      swap2\n      swap1\n      mod\n      swap1\n      sload\n      swap1\n      0x0100\n      exp\n      swap1\n      div\n      0xff\n      and\n        /* \"CardDeck.sol\":649:653  deck */\n      0x00\n        /* \"CardDeck.sol\":654:655  i */\n      dup5\n        /* \"CardDeck.sol\":649:656  deck[i] */\n      dup2\n      sload\n      dup2\n      lt\n      tag_380\n      jumpi\n      tag_381\n      tag_64\n      jump\t// in\n    tag_381:\n    tag_380:\n      swap1\n      0x00\n      mstore\n      keccak256(0x00, 0x20)\n      swap1\n      0x20\n      swap2\n      dup3\n      dup3\n      div\n      add\n      swap2\n      swap1\n      mod\n        /* \"CardDeck.sol\":658:662  deck */\n      0x00\n        /* \"CardDeck.sol\":663:672  swapIndex */\n      dup6\n        /* \"CardDeck.sol\":658:673  deck[swapIndex] */\n      dup2\n      sload\n      dup2\n      lt\n      tag_383\n      jumpi\n      tag_384\n      tag_64\n      jump\t// in\n    tag_384:\n    tag_383:\n      swap1\n      0x00\n      mstore\n      keccak256(0x00, 0x20)\n      swap1\n      0x20\n      swap2\n      dup3\n      dup3\n      div\n      add\n      swap2\n      swap1\n      mod\n        /* \"CardDeck.sol\":648:703  (deck[i], deck[swapIndex]) = (deck[swapIndex], deck[i]) */\n      dup5\n      swap2\n      swap1\n      0x0100\n      exp\n      dup2\n      sload\n      dup2\n      0xff\n      mul\n      not\n      and\n      swap1\n      dup4\n      0xff\n      and\n      mul\n      or\n      swap1\n      sstore\n      pop\n      dup4\n      swap2\n      swap1\n      0x0100\n      exp\n      dup2\n      sload\n      dup2\n      0xff\n      mul\n      not\n      and\n      swap1\n      dup4\n      0xff\n      and\n      mul\n      or\n      swap1\n      sstore\n      pop\n      pop\n      pop\n        /* \"CardDeck.sol\":778:782  seed */\n      dup3\n        /* \"CardDeck.sol\":761:783  abi.encodePacked(seed) */\n      add(0x20, mload(0x40))\n      tag_386\n      swap2\n      swap1\n      tag_387\n      jump\t// in\n    tag_386:\n      mload(0x40)\n      0x20\n      dup2\n      dup4\n      sub\n      sub\n      dup2\n      mstore\n      swap1\n      0x40\n      mstore\n        /* \"CardDeck.sol\":751:784  keccak256(abi.encodePacked(seed)) */\n      dup1\n      mload\n      swap1\n      0x20\n      add\n      keccak256\n        /* \"CardDeck.sol\":743:785  uint256(keccak256(abi.encodePacked(seed))) */\n      0x00\n      shr\n        /* \"CardDeck.sol\":736:785  seed = uint256(keccak256(abi.encodePacked(seed))) */\n      swap3\n      pop\n        /* \"CardDeck.sol\":580:818  {... */\n      pop\n        /* \"CardDeck.sol\":575:578  i++ */\n      dup1\n      dup1\n      0x01\n      add\n      swap2\n      pop\n      pop\n        /* \"CardDeck.sol\":538:818  for (uint256 i = 0; i < deck.length; i++) {... */\n      jump(tag_370)\n    tag_371:\n      pop\n        /* \"CardDeck.sol\":401:825  {... */\n      pop\n        /* \"CardDeck.sol\":369:825  function shuffleDeck() internal {... */\n      jump\t// out\n        /* \"CardDeck.sol\":167:361  function resetDeck() internal {... */\n    tag_345:\n        /* \"CardDeck.sol\":215:219  deck */\n      0x00\n      dup1\n        /* \"CardDeck.sol\":208:219  delete deck */\n      tag_389\n      swap2\n      swap1\n      tag_343\n      jump\t// in\n    tag_389:\n        /* \"CardDeck.sol\":253:260  uint8 i */\n      0x00\n        /* \"CardDeck.sol\":263:264  1 */\n      0x01\n        /* \"CardDeck.sol\":253:264  uint8 i = 1 */\n      swap1\n      pop\n        /* \"CardDeck.sol\":248:354  for (uint8 i = 1; i <= 52; i++) {... */\n    tag_390:\n        /* \"CardDeck.sol\":271:273  52 */\n      0x34\n        /* \"CardDeck.sol\":266:267  i */\n      dup2\n        /* \"CardDeck.sol\":266:273  i <= 52 */\n      0xff\n      and\n      gt\n        /* \"CardDeck.sol\":248:354  for (uint8 i = 1; i <= 52; i++) {... */\n      tag_391\n      jumpi\n        /* \"CardDeck.sol\":295:299  deck */\n      0x00\n        /* \"CardDeck.sol\":305:306  i */\n      dup2\n        /* \"CardDeck.sol\":295:307  deck.push(i) */\n      swap1\n      dup1\n      0x01\n      dup2\n      sload\n      add\n      dup1\n      dup3\n      sstore\n      dup1\n      swap2\n      pop\n      pop\n      0x01\n      swap1\n      sub\n      swap1\n      0x00\n      mstore\n      keccak256(0x00, 0x20)\n      swap1\n      0x20\n      swap2\n      dup3\n      dup3\n      div\n      add\n      swap2\n      swap1\n      mod\n      swap1\n      swap2\n      swap1\n      swap2\n      swap1\n      swap2\n      0x0100\n      exp\n      dup2\n      sload\n      dup2\n      0xff\n      mul\n      not\n      and\n      swap1\n      dup4\n      0xff\n      and\n      mul\n      or\n      swap1\n      sstore\n      pop\n        /* \"CardDeck.sol\":275:278  i++ */\n      dup1\n      dup1\n      tag_394\n      swap1\n      tag_280\n      jump\t// in\n    tag_394:\n      swap2\n      pop\n      pop\n        /* \"CardDeck.sol\":248:354  for (uint8 i = 1; i <= 52; i++) {... */\n      jump(tag_390)\n    tag_391:\n      pop\n        /* \"CardDeck.sol\":167:361  function resetDeck() internal {... */\n      jump\t// out\n    tag_100:\n      pop\n      dup1\n      sload\n      0x00\n      dup3\n      sstore\n      swap1\n      0x00\n      mstore\n      keccak256(0x00, 0x20)\n      swap1\n      dup2\n      add\n      swap1\n      tag_396\n      swap2\n      swap1\n      tag_397\n      jump\t// in\n    tag_396:\n      pop\n      jump\t// out\n    tag_111:\n      dup3\n      dup1\n      sload\n      dup3\n      dup3\n      sstore\n      swap1\n      0x00\n      mstore\n      keccak256(0x00, 0x20)\n      swap1\n      0x1f\n      add\n      0x20\n      swap1\n      div\n      dup2\n      add\n      swap3\n      dup3\n      iszero\n      tag_398\n      jumpi\n      0x00\n      mstore\n      keccak256(0x00, 0x20)\n      swap2\n      0x1f\n      add\n      0x20\n      swap1\n      div\n      dup3\n      add\n    tag_399:\n      dup3\n      dup2\n      gt\n      iszero\n      tag_400\n      jumpi\n      dup3\n      sload\n      dup3\n      sstore\n      swap2\n      0x01\n      add\n      swap2\n      swap1\n      0x01\n      add\n      swap1\n      jump(tag_399)\n    tag_400:\n    tag_398:\n      pop\n      swap1\n      pop\n      tag_401\n      swap2\n      swap1\n      tag_397\n      jump\t// in\n    tag_401:\n      pop\n      swap1\n      jump\t// out\n    tag_244:\n      dup3\n      dup1\n      sload\n      dup3\n      dup3\n      sstore\n      swap1\n      0x00\n      mstore\n      keccak256(0x00, 0x20)\n      swap1\n      0x1f\n      add\n      0x20\n      swap1\n      div\n      dup2\n      add\n      swap3\n      dup3\n      iszero\n      tag_402\n      jumpi\n      swap2\n      0x20\n      mul\n      dup3\n      add\n      0x00\n    tag_403:\n      dup4\n      dup3\n      gt\n      iszero\n      tag_404\n      jumpi\n      dup4\n      mload\n      dup4\n      dup3\n      0x0100\n      exp\n      dup2\n      sload\n      dup2\n      0xff\n      mul\n      not\n      and\n      swap1\n      dup4\n      0xff\n      and\n      mul\n      or\n      swap1\n      sstore\n      pop\n      swap3\n      0x20\n      add\n      swap3\n      0x01\n      add\n      0x20\n      dup2\n      0x00\n      add\n      div\n      swap3\n      dup4\n      add\n      swap3\n      0x01\n      sub\n      mul\n      jump(tag_403)\n    tag_404:\n      dup1\n      iszero\n      tag_405\n      jumpi\n      dup3\n      dup2\n      0x0100\n      exp\n      dup2\n      sload\n      swap1\n      0xff\n      mul\n      not\n      and\n      swap1\n      sstore\n      0x01\n      add\n      0x20\n      dup2\n      0x00\n      add\n      div\n      swap3\n      dup4\n      add\n      swap3\n      0x01\n      sub\n      mul\n      jump(tag_404)\n    tag_405:\n      pop\n    tag_402:\n      pop\n      swap1\n      pop\n      tag_406\n      swap2\n      swap1\n      tag_397\n      jump\t// in\n    tag_406:\n      pop\n      swap1\n      jump\t// out\n    tag_341:\n      pop\n      dup1\n      sload\n      0x00\n      dup3\n      sstore\n      0x04\n      mul\n      swap1\n      0x00\n      mstore\n      keccak256(0x00, 0x20)\n      swap1\n      dup2\n      add\n      swap1\n      tag_408\n      swap2\n      swap1\n      tag_409\n      jump\t// in\n    tag_408:\n      pop\n      jump\t// out\n    tag_343:\n      pop\n      dup1\n      sload\n      0x00\n      dup3\n      sstore\n      0x1f\n      add\n      0x20\n      swap1\n      div\n      swap1\n      0x00\n      mstore\n      keccak256(0x00, 0x20)\n      swap1\n      dup2\n      add\n      swap1\n      tag_411\n      swap2\n      swap1\n      tag_397\n      jump\t// in\n    tag_411:\n      pop\n      jump\t// out\n    tag_397:\n    tag_412:\n      dup1\n      dup3\n      gt\n      iszero\n      tag_413\n      jumpi\n      0x00\n      dup2\n      0x00\n      swap1\n      sstore\n      pop\n      0x01\n      add\n      jump(tag_412)\n    tag_413:\n      pop\n      swap1\n      jump\t// out\n    tag_409:\n    tag_414:\n      dup1\n      dup3\n      gt\n      iszero\n      tag_415\n      jumpi\n      0x00\n      dup1\n      dup3\n      add\n      exp(0x0100, 0x00)\n      dup2\n      sload\n      swap1\n      0xffffffffffffffffffffffffffffffffffffffff\n      mul\n      not\n      and\n      swap1\n      sstore\n      0x01\n      dup3\n      add\n      0x00\n      swap1\n      sstore\n      0x02\n      dup3\n      add\n      0x00\n      tag_416\n      swap2\n      swap1\n      tag_343\n      jump\t// in\n    tag_416:\n      0x03\n      dup3\n      add\n      exp(0x0100, 0x00)\n      dup2\n      sload\n      swap1\n      0xff\n      mul\n      not\n      and\n      swap1\n      sstore\n      0x03\n      dup3\n      add\n      exp(0x0100, 0x01)\n      dup2\n      sload\n      swap1\n      0xff\n      mul\n      not\n      and\n      swap1\n      sstore\n      pop\n      0x04\n      add\n      jump(tag_414)\n    tag_415:\n      pop\n      swap1\n      jump\t// out\n        /* \"#utility.yul\":7:106   */\n    tag_417:\n        /* \"#utility.yul\":59:65   */\n      0x00\n        /* \"#utility.yul\":93:98   */\n      dup2\n        /* \"#utility.yul\":87:99   */\n      mload\n        /* \"#utility.yul\":77:99   */\n      swap1\n      pop\n        /* \"#utility.yul\":7:106   */\n      swap2\n      swap1\n      pop\n      jump\t// out\n        /* \"#utility.yul\":112:281   */\n    tag_418:\n        /* \"#utility.yul\":196:207   */\n      0x00\n        /* \"#utility.yul\":230:236   */\n      dup3\n        /* \"#utility.yul\":225:228   */\n      dup3\n        /* \"#utility.yul\":218:237   */\n      mstore\n        /* \"#utility.yul\":270:274   */\n      0x20\n        /* \"#utility.yul\":265:268   */\n      dup3\n        /* \"#utility.yul\":261:275   */\n      add\n        /* \"#utility.yul\":246:275   */\n      swap1\n      pop\n        /* \"#utility.yul\":112:281   */\n      swap3\n      swap2\n      pop\n      pop\n      jump\t// out\n        /* \"#utility.yul\":287:426   */\n    tag_419:\n        /* \"#utility.yul\":376:382   */\n      dup3\n        /* \"#utility.yul\":371:374   */\n      dup2\n        /* \"#utility.yul\":366:369   */\n      dup4\n        /* \"#utility.yul\":360:383   */\n      mcopy\n        /* \"#utility.yul\":417:418   */\n      0x00\n        /* \"#utility.yul\":408:414   */\n      dup4\n        /* \"#utility.yul\":403:406   */\n      dup4\n        /* \"#utility.yul\":399:415   */\n      add\n        /* \"#utility.yul\":392:419   */\n      mstore\n        /* \"#utility.yul\":287:426   */\n      pop\n      pop\n      pop\n      jump\t// out\n        /* \"#utility.yul\":432:534   */\n    tag_420:\n        /* \"#utility.yul\":473:479   */\n      0x00\n        /* \"#utility.yul\":524:526   */\n      0x1f\n        /* \"#utility.yul\":520:527   */\n      not\n        /* \"#utility.yul\":515:517   */\n      0x1f\n        /* \"#utility.yul\":508:513   */\n      dup4\n        /* \"#utility.yul\":504:518   */\n      add\n        /* \"#utility.yul\":500:528   */\n      and\n        /* \"#utility.yul\":490:528   */\n      swap1\n      pop\n        /* \"#utility.yul\":432:534   */\n      swap2\n      swap1\n      pop\n      jump\t// out\n        /* \"#utility.yul\":540:917   */\n    tag_421:\n        /* \"#utility.yul\":628:631   */\n      0x00\n        /* \"#utility.yul\":656:695   */\n      tag_502\n        /* \"#utility.yul\":689:694   */\n      dup3\n        /* \"#utility.yul\":656:695   */\n      tag_417\n      jump\t// in\n    tag_502:\n        /* \"#utility.yul\":711:782   */\n      tag_503\n        /* \"#utility.yul\":775:781   */\n      dup2\n        /* \"#utility.yul\":770:773   */\n      dup6\n        /* \"#utility.yul\":711:782   */\n      tag_418\n      jump\t// in\n    tag_503:\n        /* \"#utility.yul\":704:782   */\n      swap4\n      pop\n        /* \"#utility.yul\":791:856   */\n      tag_504\n        /* \"#utility.yul\":849:855   */\n      dup2\n        /* \"#utility.yul\":844:847   */\n      dup6\n        /* \"#utility.yul\":837:841   */\n      0x20\n        /* \"#utility.yul\":830:835   */\n      dup7\n        /* \"#utility.yul\":826:842   */\n      add\n        /* \"#utility.yul\":791:856   */\n      tag_419\n      jump\t// in\n    tag_504:\n        /* \"#utility.yul\":881:910   */\n      tag_505\n        /* \"#utility.yul\":903:909   */\n      dup2\n        /* \"#utility.yul\":881:910   */\n      tag_420\n      jump\t// in\n    tag_505:\n        /* \"#utility.yul\":876:879   */\n      dup5\n        /* \"#utility.yul\":872:911   */\n      add\n        /* \"#utility.yul\":865:911   */\n      swap2\n      pop\n        /* \"#utility.yul\":632:917   */\n      pop\n        /* \"#utility.yul\":540:917   */\n      swap3\n      swap2\n      pop\n      pop\n      jump\t// out\n        /* \"#utility.yul\":923:1236   */\n    tag_16:\n        /* \"#utility.yul\":1036:1040   */\n      0x00\n        /* \"#utility.yul\":1074:1076   */\n      0x20\n        /* \"#utility.yul\":1063:1072   */\n      dup3\n        /* \"#utility.yul\":1059:1077   */\n      add\n        /* \"#utility.yul\":1051:1077   */\n      swap1\n      pop\n        /* \"#utility.yul\":1123:1132   */\n      dup2\n        /* \"#utility.yul\":1117:1121   */\n      dup2\n        /* \"#utility.yul\":1113:1133   */\n      sub\n        /* \"#utility.yul\":1109:1110   */\n      0x00\n        /* \"#utility.yul\":1098:1107   */\n      dup4\n        /* \"#utility.yul\":1094:1111   */\n      add\n        /* \"#utility.yul\":1087:1134   */\n      mstore\n        /* \"#utility.yul\":1151:1229   */\n      tag_507\n        /* \"#utility.yul\":1224:1228   */\n      dup2\n        /* \"#utility.yul\":1215:1221   */\n      dup5\n        /* \"#utility.yul\":1151:1229   */\n      tag_421\n      jump\t// in\n    tag_507:\n        /* \"#utility.yul\":1143:1229   */\n      swap1\n      pop\n        /* \"#utility.yul\":923:1236   */\n      swap3\n      swap2\n      pop\n      pop\n      jump\t// out\n        /* \"#utility.yul\":1242:1319   */\n    tag_422:\n        /* \"#utility.yul\":1279:1286   */\n      0x00\n        /* \"#utility.yul\":1308:1313   */\n      dup2\n        /* \"#utility.yul\":1297:1313   */\n      swap1\n      pop\n        /* \"#utility.yul\":1242:1319   */\n      swap2\n      swap1\n      pop\n      jump\t// out\n        /* \"#utility.yul\":1325:1443   */\n    tag_423:\n        /* \"#utility.yul\":1412:1436   */\n      tag_510\n        /* \"#utility.yul\":1430:1435   */\n      dup2\n        /* \"#utility.yul\":1412:1436   */\n      tag_422\n      jump\t// in\n    tag_510:\n        /* \"#utility.yul\":1407:1410   */\n      dup3\n        /* \"#utility.yul\":1400:1437   */\n      mstore\n        /* \"#utility.yul\":1325:1443   */\n      pop\n      pop\n      jump\t// out\n        /* \"#utility.yul\":1449:1671   */\n    tag_24:\n        /* \"#utility.yul\":1542:1546   */\n      0x00\n        /* \"#utility.yul\":1580:1582   */\n      0x20\n        /* \"#utility.yul\":1569:1578   */\n      dup3\n        /* \"#utility.yul\":1565:1583   */\n      add\n        /* \"#utility.yul\":1557:1583   */\n      swap1\n      pop\n        /* \"#utility.yul\":1593:1664   */\n      tag_512\n        /* \"#utility.yul\":1661:1662   */\n      0x00\n        /* \"#utility.yul\":1650:1659   */\n      dup4\n        /* \"#utility.yul\":1646:1663   */\n      add\n        /* \"#utility.yul\":1637:1643   */\n      dup5\n        /* \"#utility.yul\":1593:1664   */\n      tag_423\n      jump\t// in\n    tag_512:\n        /* \"#utility.yul\":1449:1671   */\n      swap3\n      swap2\n      pop\n      pop\n      jump\t// out\n        /* \"#utility.yul\":1677:1791   */\n    tag_424:\n        /* \"#utility.yul\":1744:1750   */\n      0x00\n        /* \"#utility.yul\":1778:1783   */\n      dup2\n        /* \"#utility.yul\":1772:1784   */\n      mload\n        /* \"#utility.yul\":1762:1784   */\n      swap1\n      pop\n        /* \"#utility.yul\":1677:1791   */\n      swap2\n      swap1\n      pop\n      jump\t// out\n        /* \"#utility.yul\":1797:1981   */\n    tag_425:\n        /* \"#utility.yul\":1896:1907   */\n      0x00\n        /* \"#utility.yul\":1930:1936   */\n      dup3\n        /* \"#utility.yul\":1925:1928   */\n      dup3\n        /* \"#utility.yul\":1918:1937   */\n      mstore\n        /* \"#utility.yul\":1970:1974   */\n      0x20\n        /* \"#utility.yul\":1965:1968   */\n      dup3\n        /* \"#utility.yul\":1961:1975   */\n      add\n        /* \"#utility.yul\":1946:1975   */\n      swap1\n      pop\n        /* \"#utility.yul\":1797:1981   */\n      swap3\n      swap2\n      pop\n      pop\n      jump\t// out\n        /* \"#utility.yul\":1987:2119   */\n    tag_426:\n        /* \"#utility.yul\":2054:2058   */\n      0x00\n        /* \"#utility.yul\":2077:2080   */\n      dup2\n        /* \"#utility.yul\":2069:2080   */\n      swap1\n      pop\n        /* \"#utility.yul\":2107:2111   */\n      0x20\n        /* \"#utility.yul\":2102:2105   */\n      dup3\n        /* \"#utility.yul\":2098:2112   */\n      add\n        /* \"#utility.yul\":2090:2112   */\n      swap1\n      pop\n        /* \"#utility.yul\":1987:2119   */\n      swap2\n      swap1\n      pop\n      jump\t// out\n        /* \"#utility.yul\":2125:2251   */\n    tag_427:\n        /* \"#utility.yul\":2162:2169   */\n      0x00\n        /* \"#utility.yul\":2202:2244   */\n      0xffffffffffffffffffffffffffffffffffffffff\n        /* \"#utility.yul\":2195:2200   */\n      dup3\n        /* \"#utility.yul\":2191:2245   */\n      and\n        /* \"#utility.yul\":2180:2245   */\n      swap1\n      pop\n        /* \"#utility.yul\":2125:2251   */\n      swap2\n      swap1\n      pop\n      jump\t// out\n        /* \"#utility.yul\":2257:2353   */\n    tag_428:\n        /* \"#utility.yul\":2294:2301   */\n      0x00\n        /* \"#utility.yul\":2323:2347   */\n      tag_518\n        /* \"#utility.yul\":2341:2346   */\n      dup3\n        /* \"#utility.yul\":2323:2347   */\n      tag_427\n      jump\t// in\n    tag_518:\n        /* \"#utility.yul\":2312:2347   */\n      swap1\n      pop\n        /* \"#utility.yul\":2257:2353   */\n      swap2\n      swap1\n      pop\n      jump\t// out\n        /* \"#utility.yul\":2359:2467   */\n    tag_429:\n        /* \"#utility.yul\":2436:2460   */\n      tag_520\n        /* \"#utility.yul\":2454:2459   */\n      dup2\n        /* \"#utility.yul\":2436:2460   */\n      tag_428\n      jump\t// in\n    tag_520:\n        /* \"#utility.yul\":2431:2434   */\n      dup3\n        /* \"#utility.yul\":2424:2461   */\n      mstore\n        /* \"#utility.yul\":2359:2467   */\n      pop\n      pop\n      jump\t// out\n        /* \"#utility.yul\":2473:2652   */\n    tag_430:\n        /* \"#utility.yul\":2542:2552   */\n      0x00\n        /* \"#utility.yul\":2563:2609   */\n      tag_522\n        /* \"#utility.yul\":2605:2608   */\n      dup4\n        /* \"#utility.yul\":2597:2603   */\n      dup4\n        /* \"#utility.yul\":2563:2609   */\n      tag_429\n      jump\t// in\n    tag_522:\n        /* \"#utility.yul\":2641:2645   */\n      0x20\n        /* \"#utility.yul\":2636:2639   */\n      dup4\n        /* \"#utility.yul\":2632:2646   */\n      add\n        /* \"#utility.yul\":2618:2646   */\n      swap1\n      pop\n        /* \"#utility.yul\":2473:2652   */\n      swap3\n      swap2\n      pop\n      pop\n      jump\t// out\n        /* \"#utility.yul\":2658:2771   */\n    tag_431:\n        /* \"#utility.yul\":2728:2732   */\n      0x00\n        /* \"#utility.yul\":2760:2764   */\n      0x20\n        /* \"#utility.yul\":2755:2758   */\n      dup3\n        /* \"#utility.yul\":2751:2765   */\n      add\n        /* \"#utility.yul\":2743:2765   */\n      swap1\n      pop\n        /* \"#utility.yul\":2658:2771   */\n      swap2\n      swap1\n      pop\n      jump\t// out\n        /* \"#utility.yul\":2807:3539   */\n    tag_432:\n        /* \"#utility.yul\":2926:2929   */\n      0x00\n        /* \"#utility.yul\":2955:3009   */\n      tag_525\n        /* \"#utility.yul\":3003:3008   */\n      dup3\n        /* \"#utility.yul\":2955:3009   */\n      tag_424\n      jump\t// in\n    tag_525:\n        /* \"#utility.yul\":3025:3111   */\n      tag_526\n        /* \"#utility.yul\":3104:3110   */\n      dup2\n        /* \"#utility.yul\":3099:3102   */\n      dup6\n        /* \"#utility.yul\":3025:3111   */\n      tag_425\n      jump\t// in\n    tag_526:\n        /* \"#utility.yul\":3018:3111   */\n      swap4\n      pop\n        /* \"#utility.yul\":3135:3191   */\n      tag_527\n        /* \"#utility.yul\":3185:3190   */\n      dup4\n        /* \"#utility.yul\":3135:3191   */\n      tag_426\n      jump\t// in\n    tag_527:\n        /* \"#utility.yul\":3214:3221   */\n      dup1\n        /* \"#utility.yul\":3245:3246   */\n      0x00\n        /* \"#utility.yul\":3230:3514   */\n    tag_528:\n        /* \"#utility.yul\":3255:3261   */\n      dup4\n        /* \"#utility.yul\":3252:3253   */\n      dup2\n        /* \"#utility.yul\":3249:3262   */\n      lt\n        /* \"#utility.yul\":3230:3514   */\n      iszero\n      tag_530\n      jumpi\n        /* \"#utility.yul\":3331:3337   */\n      dup2\n        /* \"#utility.yul\":3325:3338   */\n      mload\n        /* \"#utility.yul\":3358:3421   */\n      tag_531\n        /* \"#utility.yul\":3417:3420   */\n      dup9\n        /* \"#utility.yul\":3402:3415   */\n      dup3\n        /* \"#utility.yul\":3358:3421   */\n      tag_430\n      jump\t// in\n    tag_531:\n        /* \"#utility.yul\":3351:3421   */\n      swap8\n      pop\n        /* \"#utility.yul\":3444:3504   */\n      tag_532\n        /* \"#utility.yul\":3497:3503   */\n      dup4\n        /* \"#utility.yul\":3444:3504   */\n      tag_431\n      jump\t// in\n    tag_532:\n        /* \"#utility.yul\":3434:3504   */\n      swap3\n      pop\n        /* \"#utility.yul\":3290:3514   */\n      pop\n        /* \"#utility.yul\":3277:3278   */\n      0x01\n        /* \"#utility.yul\":3274:3275   */\n      dup2\n        /* \"#utility.yul\":3270:3279   */\n      add\n        /* \"#utility.yul\":3265:3279   */\n      swap1\n      pop\n        /* \"#utility.yul\":3230:3514   */\n      jump(tag_528)\n    tag_530:\n        /* \"#utility.yul\":3234:3248   */\n      pop\n        /* \"#utility.yul\":3530:3533   */\n      dup6\n        /* \"#utility.yul\":3523:3533   */\n      swap4\n      pop\n        /* \"#utility.yul\":2931:3539   */\n      pop\n      pop\n      pop\n        /* \"#utility.yul\":2807:3539   */\n      swap3\n      swap2\n      pop\n      pop\n      jump\t// out\n        /* \"#utility.yul\":3545:4119   */\n    tag_29:\n        /* \"#utility.yul\":3736:3740   */\n      0x00\n        /* \"#utility.yul\":3774:3776   */\n      0x40\n        /* \"#utility.yul\":3763:3772   */\n      dup3\n        /* \"#utility.yul\":3759:3777   */\n      add\n        /* \"#utility.yul\":3751:3777   */\n      swap1\n      pop\n        /* \"#utility.yul\":3823:3832   */\n      dup2\n        /* \"#utility.yul\":3817:3821   */\n      dup2\n        /* \"#utility.yul\":3813:3833   */\n      sub\n        /* \"#utility.yul\":3809:3810   */\n      0x00\n        /* \"#utility.yul\":3798:3807   */\n      dup4\n        /* \"#utility.yul\":3794:3811   */\n      add\n        /* \"#utility.yul\":3787:3834   */\n      mstore\n        /* \"#utility.yul\":3851:3929   */\n      tag_534\n        /* \"#utility.yul\":3924:3928   */\n      dup2\n        /* \"#utility.yul\":3915:3921   */\n      dup6\n        /* \"#utility.yul\":3851:3929   */\n      tag_421\n      jump\t// in\n    tag_534:\n        /* \"#utility.yul\":3843:3929   */\n      swap1\n      pop\n        /* \"#utility.yul\":3976:3985   */\n      dup2\n        /* \"#utility.yul\":3970:3974   */\n      dup2\n        /* \"#utility.yul\":3966:3986   */\n      sub\n        /* \"#utility.yul\":3961:3963   */\n      0x20\n        /* \"#utility.yul\":3950:3959   */\n      dup4\n        /* \"#utility.yul\":3946:3964   */\n      add\n        /* \"#utility.yul\":3939:3987   */\n      mstore\n        /* \"#utility.yul\":4004:4112   */\n      tag_535\n        /* \"#utility.yul\":4107:4111   */\n      dup2\n        /* \"#utility.yul\":4098:4104   */\n      dup5\n        /* \"#utility.yul\":4004:4112   */\n      tag_432\n      jump\t// in\n    tag_535:\n        /* \"#utility.yul\":3996:4112   */\n      swap1\n      pop\n        /* \"#utility.yul\":3545:4119   */\n      swap4\n      swap3\n      pop\n      pop\n      pop\n      jump\t// out\n        /* \"#utility.yul\":4206:4323   */\n    tag_434:\n        /* \"#utility.yul\":4315:4316   */\n      0x00\n        /* \"#utility.yul\":4312:4313   */\n      dup1\n        /* \"#utility.yul\":4305:4317   */\n      revert\n        /* \"#utility.yul\":4452:4574   */\n    tag_436:\n        /* \"#utility.yul\":4525:4549   */\n      tag_540\n        /* \"#utility.yul\":4543:4548   */\n      dup2\n        /* \"#utility.yul\":4525:4549   */\n      tag_422\n      jump\t// in\n    tag_540:\n        /* \"#utility.yul\":4518:4523   */\n      dup2\n        /* \"#utility.yul\":4515:4550   */\n      eq\n        /* \"#utility.yul\":4505:4568   */\n      tag_541\n      jumpi\n        /* \"#utility.yul\":4564:4565   */\n      0x00\n        /* \"#utility.yul\":4561:4562   */\n      dup1\n        /* \"#utility.yul\":4554:4566   */\n      revert\n        /* \"#utility.yul\":4505:4568   */\n    tag_541:\n        /* \"#utility.yul\":4452:4574   */\n      pop\n      jump\t// out\n        /* \"#utility.yul\":4580:4719   */\n    tag_437:\n        /* \"#utility.yul\":4626:4631   */\n      0x00\n        /* \"#utility.yul\":4664:4670   */\n      dup2\n        /* \"#utility.yul\":4651:4671   */\n      calldataload\n        /* \"#utility.yul\":4642:4671   */\n      swap1\n      pop\n        /* \"#utility.yul\":4680:4713   */\n      tag_543\n        /* \"#utility.yul\":4707:4712   */\n      dup2\n        /* \"#utility.yul\":4680:4713   */\n      tag_436\n      jump\t// in\n    tag_543:\n        /* \"#utility.yul\":4580:4719   */\n      swap3\n      swap2\n      pop\n      pop\n      jump\t// out\n        /* \"#utility.yul\":4725:5054   */\n    tag_33:\n        /* \"#utility.yul\":4784:4790   */\n      0x00\n        /* \"#utility.yul\":4833:4835   */\n      0x20\n        /* \"#utility.yul\":4821:4830   */\n      dup3\n        /* \"#utility.yul\":4812:4819   */\n      dup5\n        /* \"#utility.yul\":4808:4831   */\n      sub\n        /* \"#utility.yul\":4804:4836   */\n      slt\n        /* \"#utility.yul\":4801:4920   */\n      iszero\n      tag_545\n      jumpi\n        /* \"#utility.yul\":4839:4918   */\n      tag_546\n      tag_434\n      jump\t// in\n    tag_546:\n        /* \"#utility.yul\":4801:4920   */\n    tag_545:\n        /* \"#utility.yul\":4959:4960   */\n      0x00\n        /* \"#utility.yul\":4984:5037   */\n      tag_547\n        /* \"#utility.yul\":5029:5036   */\n      dup5\n        /* \"#utility.yul\":5020:5026   */\n      dup3\n        /* \"#utility.yul\":5009:5018   */\n      dup6\n        /* \"#utility.yul\":5005:5027   */\n      add\n        /* \"#utility.yul\":4984:5037   */\n      tag_437\n      jump\t// in\n    tag_547:\n        /* \"#utility.yul\":4974:5037   */\n      swap2\n      pop\n        /* \"#utility.yul\":4930:5047   */\n      pop\n        /* \"#utility.yul\":4725:5054   */\n      swap3\n      swap2\n      pop\n      pop\n      jump\t// out\n        /* \"#utility.yul\":5060:5184   */\n    tag_438:\n        /* \"#utility.yul\":5137:5143   */\n      0x00\n        /* \"#utility.yul\":5171:5176   */\n      dup2\n        /* \"#utility.yul\":5165:5177   */\n      mload\n        /* \"#utility.yul\":5155:5177   */\n      swap1\n      pop\n        /* \"#utility.yul\":5060:5184   */\n      swap2\n      swap1\n      pop\n      jump\t// out\n        /* \"#utility.yul\":5190:5384   */\n    tag_439:\n        /* \"#utility.yul\":5299:5310   */\n      0x00\n        /* \"#utility.yul\":5333:5339   */\n      dup3\n        /* \"#utility.yul\":5328:5331   */\n      dup3\n        /* \"#utility.yul\":5321:5340   */\n      mstore\n        /* \"#utility.yul\":5373:5377   */\n      0x20\n        /* \"#utility.yul\":5368:5371   */\n      dup3\n        /* \"#utility.yul\":5364:5378   */\n      add\n        /* \"#utility.yul\":5349:5378   */\n      swap1\n      pop\n        /* \"#utility.yul\":5190:5384   */\n      swap3\n      swap2\n      pop\n      pop\n      jump\t// out\n        /* \"#utility.yul\":5390:5532   */\n    tag_440:\n        /* \"#utility.yul\":5467:5471   */\n      0x00\n        /* \"#utility.yul\":5490:5493   */\n      dup2\n        /* \"#utility.yul\":5482:5493   */\n      swap1\n      pop\n        /* \"#utility.yul\":5520:5524   */\n      0x20\n        /* \"#utility.yul\":5515:5518   */\n      dup3\n        /* \"#utility.yul\":5511:5525   */\n      add\n        /* \"#utility.yul\":5503:5525   */\n      swap1\n      pop\n        /* \"#utility.yul\":5390:5532   */\n      swap2\n      swap1\n      pop\n      jump\t// out\n        /* \"#utility.yul\":5538:5697   */\n    tag_441:\n        /* \"#utility.yul\":5612:5623   */\n      0x00\n        /* \"#utility.yul\":5646:5652   */\n      dup3\n        /* \"#utility.yul\":5641:5644   */\n      dup3\n        /* \"#utility.yul\":5634:5653   */\n      mstore\n        /* \"#utility.yul\":5686:5690   */\n      0x20\n        /* \"#utility.yul\":5681:5684   */\n      dup3\n        /* \"#utility.yul\":5677:5691   */\n      add\n        /* \"#utility.yul\":5662:5691   */\n      swap1\n      pop\n        /* \"#utility.yul\":5538:5697   */\n      swap3\n      swap2\n      pop\n      pop\n      jump\t// out\n        /* \"#utility.yul\":5703:6060   */\n    tag_442:\n        /* \"#utility.yul\":5781:5784   */\n      0x00\n        /* \"#utility.yul\":5809:5848   */\n      tag_553\n        /* \"#utility.yul\":5842:5847   */\n      dup3\n        /* \"#utility.yul\":5809:5848   */\n      tag_417\n      jump\t// in\n    tag_553:\n        /* \"#utility.yul\":5864:5925   */\n      tag_554\n        /* \"#utility.yul\":5918:5924   */\n      dup2\n        /* \"#utility.yul\":5913:5916   */\n      dup6\n        /* \"#utility.yul\":5864:5925   */\n      tag_441\n      jump\t// in\n    tag_554:\n        /* \"#utility.yul\":5857:5925   */\n      swap4\n      pop\n        /* \"#utility.yul\":5934:5999   */\n      tag_555\n        /* \"#utility.yul\":5992:5998   */\n      dup2\n        /* \"#utility.yul\":5987:5990   */\n      dup6\n        /* \"#utility.yul\":5980:5984   */\n      0x20\n        /* \"#utility.yul\":5973:5978   */\n      dup7\n        /* \"#utility.yul\":5969:5985   */\n      add\n        /* \"#utility.yul\":5934:5999   */\n      tag_419\n      jump\t// in\n    tag_555:\n        /* \"#utility.yul\":6024:6053   */\n      tag_556\n        /* \"#utility.yul\":6046:6052   */\n      dup2\n        /* \"#utility.yul\":6024:6053   */\n      tag_420\n      jump\t// in\n    tag_556:\n        /* \"#utility.yul\":6019:6022   */\n      dup5\n        /* \"#utility.yul\":6015:6054   */\n      add\n        /* \"#utility.yul\":6008:6054   */\n      swap2\n      pop\n        /* \"#utility.yul\":5785:6060   */\n      pop\n        /* \"#utility.yul\":5703:6060   */\n      swap3\n      swap2\n      pop\n      pop\n      jump\t// out\n        /* \"#utility.yul\":6066:6262   */\n    tag_443:\n        /* \"#utility.yul\":6155:6165   */\n      0x00\n        /* \"#utility.yul\":6190:6256   */\n      tag_558\n        /* \"#utility.yul\":6252:6255   */\n      dup4\n        /* \"#utility.yul\":6244:6250   */\n      dup4\n        /* \"#utility.yul\":6190:6256   */\n      tag_442\n      jump\t// in\n    tag_558:\n        /* \"#utility.yul\":6176:6256   */\n      swap1\n      pop\n        /* \"#utility.yul\":6066:6262   */\n      swap3\n      swap2\n      pop\n      pop\n      jump\t// out\n        /* \"#utility.yul\":6268:6391   */\n    tag_444:\n        /* \"#utility.yul\":6348:6352   */\n      0x00\n        /* \"#utility.yul\":6380:6384   */\n      0x20\n        /* \"#utility.yul\":6375:6378   */\n      dup3\n        /* \"#utility.yul\":6371:6385   */\n      add\n        /* \"#utility.yul\":6363:6385   */\n      swap1\n      pop\n        /* \"#utility.yul\":6268:6391   */\n      swap2\n      swap1\n      pop\n      jump\t// out\n        /* \"#utility.yul\":6425:7416   */\n    tag_445:\n        /* \"#utility.yul\":6564:6567   */\n      0x00\n        /* \"#utility.yul\":6593:6657   */\n      tag_561\n        /* \"#utility.yul\":6651:6656   */\n      dup3\n        /* \"#utility.yul\":6593:6657   */\n      tag_438\n      jump\t// in\n    tag_561:\n        /* \"#utility.yul\":6673:6769   */\n      tag_562\n        /* \"#utility.yul\":6762:6768   */\n      dup2\n        /* \"#utility.yul\":6757:6760   */\n      dup6\n        /* \"#utility.yul\":6673:6769   */\n      tag_439\n      jump\t// in\n    tag_562:\n        /* \"#utility.yul\":6666:6769   */\n      swap4\n      pop\n        /* \"#utility.yul\":6795:6798   */\n      dup4\n        /* \"#utility.yul\":6840:6844   */\n      0x20\n        /* \"#utility.yul\":6832:6838   */\n      dup3\n        /* \"#utility.yul\":6828:6845   */\n      mul\n        /* \"#utility.yul\":6823:6826   */\n      dup6\n        /* \"#utility.yul\":6819:6846   */\n      add\n        /* \"#utility.yul\":6870:6936   */\n      tag_563\n        /* \"#utility.yul\":6930:6935   */\n      dup6\n        /* \"#utility.yul\":6870:6936   */\n      tag_440\n      jump\t// in\n    tag_563:\n        /* \"#utility.yul\":6959:6966   */\n      dup1\n        /* \"#utility.yul\":6990:6991   */\n      0x00\n        /* \"#utility.yul\":6975:7371   */\n    tag_564:\n        /* \"#utility.yul\":7000:7006   */\n      dup6\n        /* \"#utility.yul\":6997:6998   */\n      dup2\n        /* \"#utility.yul\":6994:7007   */\n      lt\n        /* \"#utility.yul\":6975:7371   */\n      iszero\n      tag_566\n      jumpi\n        /* \"#utility.yul\":7071:7080   */\n      dup5\n        /* \"#utility.yul\":7065:7069   */\n      dup5\n        /* \"#utility.yul\":7061:7081   */\n      sub\n        /* \"#utility.yul\":7056:7059   */\n      dup10\n        /* \"#utility.yul\":7049:7082   */\n      mstore\n        /* \"#utility.yul\":7122:7128   */\n      dup2\n        /* \"#utility.yul\":7116:7129   */\n      mload\n        /* \"#utility.yul\":7150:7234   */\n      tag_567\n        /* \"#utility.yul\":7229:7233   */\n      dup6\n        /* \"#utility.yul\":7214:7227   */\n      dup3\n        /* \"#utility.yul\":7150:7234   */\n      tag_443\n      jump\t// in\n    tag_567:\n        /* \"#utility.yul\":7142:7234   */\n      swap5\n      pop\n        /* \"#utility.yul\":7257:7327   */\n      tag_568\n        /* \"#utility.yul\":7320:7326   */\n      dup4\n        /* \"#utility.yul\":7257:7327   */\n      tag_444\n      jump\t// in\n    tag_568:\n        /* \"#utility.yul\":7247:7327   */\n      swap3\n      pop\n        /* \"#utility.yul\":7356:7360   */\n      0x20\n        /* \"#utility.yul\":7351:7354   */\n      dup11\n        /* \"#utility.yul\":7347:7361   */\n      add\n        /* \"#utility.yul\":7340:7361   */\n      swap10\n      pop\n        /* \"#utility.yul\":7035:7371   */\n      pop\n        /* \"#utility.yul\":7022:7023   */\n      0x01\n        /* \"#utility.yul\":7019:7020   */\n      dup2\n        /* \"#utility.yul\":7015:7024   */\n      add\n        /* \"#utility.yul\":7010:7024   */\n      swap1\n      pop\n        /* \"#utility.yul\":6975:7371   */\n      jump(tag_564)\n    tag_566:\n        /* \"#utility.yul\":6979:6993   */\n      pop\n        /* \"#utility.yul\":7387:7391   */\n      dup3\n        /* \"#utility.yul\":7380:7391   */\n      swap8\n      pop\n        /* \"#utility.yul\":7407:7410   */\n      dup8\n        /* \"#utility.yul\":7400:7410   */\n      swap6\n      pop\n        /* \"#utility.yul\":6569:7416   */\n      pop\n      pop\n      pop\n      pop\n      pop\n        /* \"#utility.yul\":6425:7416   */\n      swap3\n      swap2\n      pop\n      pop\n      jump\t// out\n        /* \"#utility.yul\":7422:7835   */\n    tag_43:\n        /* \"#utility.yul\":7585:7589   */\n      0x00\n        /* \"#utility.yul\":7623:7625   */\n      0x20\n        /* \"#utility.yul\":7612:7621   */\n      dup3\n        /* \"#utility.yul\":7608:7626   */\n      add\n        /* \"#utility.yul\":7600:7626   */\n      swap1\n      pop\n        /* \"#utility.yul\":7672:7681   */\n      dup2\n        /* \"#utility.yul\":7666:7670   */\n      dup2\n        /* \"#utility.yul\":7662:7682   */\n      sub\n        /* \"#utility.yul\":7658:7659   */\n      0x00\n        /* \"#utility.yul\":7647:7656   */\n      dup4\n        /* \"#utility.yul\":7643:7660   */\n      add\n        /* \"#utility.yul\":7636:7683   */\n      mstore\n        /* \"#utility.yul\":7700:7828   */\n      tag_570\n        /* \"#utility.yul\":7823:7827   */\n      dup2\n        /* \"#utility.yul\":7814:7820   */\n      dup5\n        /* \"#utility.yul\":7700:7828   */\n      tag_445\n      jump\t// in\n    tag_570:\n        /* \"#utility.yul\":7692:7828   */\n      swap1\n      pop\n        /* \"#utility.yul\":7422:7835   */\n      swap3\n      swap2\n      pop\n      pop\n      jump\t// out\n        /* \"#utility.yul\":7841:8021   */\n    tag_446:\n        /* \"#utility.yul\":7889:7966   */\n      0x4e487b7100000000000000000000000000000000000000000000000000000000\n        /* \"#utility.yul\":7886:7887   */\n      0x00\n        /* \"#utility.yul\":7879:7967   */\n      mstore\n        /* \"#utility.yul\":7986:7990   */\n      0x22\n        /* \"#utility.yul\":7983:7984   */\n      0x04\n        /* \"#utility.yul\":7976:7991   */\n      mstore\n        /* \"#utility.yul\":8010:8014   */\n      0x24\n        /* \"#utility.yul\":8007:8008   */\n      0x00\n        /* \"#utility.yul\":8000:8015   */\n      revert\n        /* \"#utility.yul\":8027:8347   */\n    tag_51:\n        /* \"#utility.yul\":8071:8077   */\n      0x00\n        /* \"#utility.yul\":8108:8109   */\n      0x02\n        /* \"#utility.yul\":8102:8106   */\n      dup3\n        /* \"#utility.yul\":8098:8110   */\n      div\n        /* \"#utility.yul\":8088:8110   */\n      swap1\n      pop\n        /* \"#utility.yul\":8155:8156   */\n      0x01\n        /* \"#utility.yul\":8149:8153   */\n      dup3\n        /* \"#utility.yul\":8145:8157   */\n      and\n        /* \"#utility.yul\":8176:8194   */\n      dup1\n        /* \"#utility.yul\":8166:8247   */\n      tag_573\n      jumpi\n        /* \"#utility.yul\":8232:8236   */\n      0x7f\n        /* \"#utility.yul\":8224:8230   */\n      dup3\n        /* \"#utility.yul\":8220:8237   */\n      and\n        /* \"#utility.yul\":8210:8237   */\n      swap2\n      pop\n        /* \"#utility.yul\":8166:8247   */\n    tag_573:\n        /* \"#utility.yul\":8294:8296   */\n      0x20\n        /* \"#utility.yul\":8286:8292   */\n      dup3\n        /* \"#utility.yul\":8283:8297   */\n      lt\n        /* \"#utility.yul\":8263:8281   */\n      dup2\n        /* \"#utility.yul\":8260:8298   */\n      sub\n        /* \"#utility.yul\":8257:8341   */\n      tag_574\n      jumpi\n        /* \"#utility.yul\":8313:8331   */\n      tag_575\n      tag_446\n      jump\t// in\n    tag_575:\n        /* \"#utility.yul\":8257:8341   */\n    tag_574:\n        /* \"#utility.yul\":8078:8347   */\n      pop\n        /* \"#utility.yul\":8027:8347   */\n      swap2\n      swap1\n      pop\n      jump\t// out\n        /* \"#utility.yul\":8353:8523   */\n    tag_447:\n        /* \"#utility.yul\":8493:8515   */\n      0x596f7520617265206e6f74206120706c61796572000000000000000000000000\n        /* \"#utility.yul\":8489:8490   */\n      0x00\n        /* \"#utility.yul\":8481:8487   */\n      dup3\n        /* \"#utility.yul\":8477:8491   */\n      add\n        /* \"#utility.yul\":8470:8516   */\n      mstore\n        /* \"#utility.yul\":8353:8523   */\n      pop\n      jump\t// out\n        /* \"#utility.yul\":8529:8895   */\n    tag_448:\n        /* \"#utility.yul\":8671:8674   */\n      0x00\n        /* \"#utility.yul\":8692:8759   */\n      tag_578\n        /* \"#utility.yul\":8756:8758   */\n      0x14\n        /* \"#utility.yul\":8751:8754   */\n      dup4\n        /* \"#utility.yul\":8692:8759   */\n      tag_418\n      jump\t// in\n    tag_578:\n        /* \"#utility.yul\":8685:8759   */\n      swap2\n      pop\n        /* \"#utility.yul\":8768:8861   */\n      tag_579\n        /* \"#utility.yul\":8857:8860   */\n      dup3\n        /* \"#utility.yul\":8768:8861   */\n      tag_447\n      jump\t// in\n    tag_579:\n        /* \"#utility.yul\":8886:8888   */\n      0x20\n        /* \"#utility.yul\":8881:8884   */\n      dup3\n        /* \"#utility.yul\":8877:8889   */\n      add\n        /* \"#utility.yul\":8870:8889   */\n      swap1\n      pop\n        /* \"#utility.yul\":8529:8895   */\n      swap2\n      swap1\n      pop\n      jump\t// out\n        /* \"#utility.yul\":8901:9320   */\n    tag_61:\n        /* \"#utility.yul\":9067:9071   */\n      0x00\n        /* \"#utility.yul\":9105:9107   */\n      0x20\n        /* \"#utility.yul\":9094:9103   */\n      dup3\n        /* \"#utility.yul\":9090:9108   */\n      add\n        /* \"#utility.yul\":9082:9108   */\n      swap1\n      pop\n        /* \"#utility.yul\":9154:9163   */\n      dup2\n        /* \"#utility.yul\":9148:9152   */\n      dup2\n        /* \"#utility.yul\":9144:9164   */\n      sub\n        /* \"#utility.yul\":9140:9141   */\n      0x00\n        /* \"#utility.yul\":9129:9138   */\n      dup4\n        /* \"#utility.yul\":9125:9142   */\n      add\n        /* \"#utility.yul\":9118:9165   */\n      mstore\n        /* \"#utility.yul\":9182:9313   */\n      tag_581\n        /* \"#utility.yul\":9308:9312   */\n      dup2\n        /* \"#utility.yul\":9182:9313   */\n      tag_448\n      jump\t// in\n    tag_581:\n        /* \"#utility.yul\":9174:9313   */\n      swap1\n      pop\n        /* \"#utility.yul\":8901:9320   */\n      swap2\n      swap1\n      pop\n      jump\t// out\n        /* \"#utility.yul\":9326:9506   */\n    tag_64:\n        /* \"#utility.yul\":9374:9451   */\n      0x4e487b7100000000000000000000000000000000000000000000000000000000\n        /* \"#utility.yul\":9371:9372   */\n      0x00\n        /* \"#utility.yul\":9364:9452   */\n      mstore\n        /* \"#utility.yul\":9471:9475   */\n      0x32\n        /* \"#utility.yul\":9468:9469   */\n      0x04\n        /* \"#utility.yul\":9461:9476   */\n      mstore\n        /* \"#utility.yul\":9495:9499   */\n      0x24\n        /* \"#utility.yul\":9492:9493   */\n      0x00\n        /* \"#utility.yul\":9485:9500   */\n      revert\n        /* \"#utility.yul\":9512:9682   */\n    tag_449:\n        /* \"#utility.yul\":9652:9674   */\n      0x506c61796572206973206e6f7420616374697665000000000000000000000000\n        /* \"#utility.yul\":9648:9649   */\n      0x00\n        /* \"#utility.yul\":9640:9646   */\n      dup3\n        /* \"#utility.yul\":9636:9650   */\n      add\n        /* \"#utility.yul\":9629:9675   */\n      mstore\n        /* \"#utility.yul\":9512:9682   */\n      pop\n      jump\t// out\n        /* \"#utility.yul\":9688:10054   */\n    tag_450:\n        /* \"#utility.yul\":9830:9833   */\n      0x00\n        /* \"#utility.yul\":9851:9918   */\n      tag_585\n        /* \"#utility.yul\":9915:9917   */\n      0x14\n        /* \"#utility.yul\":9910:9913   */\n      dup4\n        /* \"#utility.yul\":9851:9918   */\n      tag_418\n      jump\t// in\n    tag_585:\n        /* \"#utility.yul\":9844:9918   */\n      swap2\n      pop\n        /* \"#utility.yul\":9927:10020   */\n      tag_586\n        /* \"#utility.yul\":10016:10019   */\n      dup3\n        /* \"#utility.yul\":9927:10020   */\n      tag_449\n      jump\t// in\n    tag_586:\n        /* \"#utility.yul\":10045:10047   */\n      0x20\n        /* \"#utility.yul\":10040:10043   */\n      dup3\n        /* \"#utility.yul\":10036:10048   */\n      add\n        /* \"#utility.yul\":10029:10048   */\n      swap1\n      pop\n        /* \"#utility.yul\":9688:10054   */\n      swap2\n      swap1\n      pop\n      jump\t// out\n        /* \"#utility.yul\":10060:10479   */\n    tag_68:\n        /* \"#utility.yul\":10226:10230   */\n      0x00\n        /* \"#utility.yul\":10264:10266   */\n      0x20\n        /* \"#utility.yul\":10253:10262   */\n      dup3\n        /* \"#utility.yul\":10249:10267   */\n      add\n        /* \"#utility.yul\":10241:10267   */\n      swap1\n      pop\n        /* \"#utility.yul\":10313:10322   */\n      dup2\n        /* \"#utility.yul\":10307:10311   */\n      dup2\n        /* \"#utility.yul\":10303:10323   */\n      sub\n        /* \"#utility.yul\":10299:10300   */\n      0x00\n        /* \"#utility.yul\":10288:10297   */\n      dup4\n        /* \"#utility.yul\":10284:10301   */\n      add\n        /* \"#utility.yul\":10277:10324   */\n      mstore\n        /* \"#utility.yul\":10341:10472   */\n      tag_588\n        /* \"#utility.yul\":10467:10471   */\n      dup2\n        /* \"#utility.yul\":10341:10472   */\n      tag_450\n      jump\t// in\n    tag_588:\n        /* \"#utility.yul\":10333:10472   */\n      swap1\n      pop\n        /* \"#utility.yul\":10060:10479   */\n      swap2\n      swap1\n      pop\n      jump\t// out\n        /* \"#utility.yul\":10485:10659   */\n    tag_451:\n        /* \"#utility.yul\":10625:10651   */\n      0x506c6179657220697320616c7265616479206275737465640000000000000000\n        /* \"#utility.yul\":10621:10622   */\n      0x00\n        /* \"#utility.yul\":10613:10619   */\n      dup3\n        /* \"#utility.yul\":10609:10623   */\n      add\n        /* \"#utility.yul\":10602:10652   */\n      mstore\n        /* \"#utility.yul\":10485:10659   */\n      pop\n      jump\t// out\n        /* \"#utility.yul\":10665:11031   */\n    tag_452:\n        /* \"#utility.yul\":10807:10810   */\n      0x00\n        /* \"#utility.yul\":10828:10895   */\n      tag_591\n        /* \"#utility.yul\":10892:10894   */\n      0x18\n        /* \"#utility.yul\":10887:10890   */\n      dup4\n        /* \"#utility.yul\":10828:10895   */\n      tag_418\n      jump\t// in\n    tag_591:\n        /* \"#utility.yul\":10821:10895   */\n      swap2\n      pop\n        /* \"#utility.yul\":10904:10997   */\n      tag_592\n        /* \"#utility.yul\":10993:10996   */\n      dup3\n        /* \"#utility.yul\":10904:10997   */\n      tag_451\n      jump\t// in\n    tag_592:\n        /* \"#utility.yul\":11022:11024   */\n      0x20\n        /* \"#utility.yul\":11017:11020   */\n      dup3\n        /* \"#utility.yul\":11013:11025   */\n      add\n        /* \"#utility.yul\":11006:11025   */\n      swap1\n      pop\n        /* \"#utility.yul\":10665:11031   */\n      swap2\n      swap1\n      pop\n      jump\t// out\n        /* \"#utility.yul\":11037:11456   */\n    tag_74:\n        /* \"#utility.yul\":11203:11207   */\n      0x00\n        /* \"#utility.yul\":11241:11243   */\n      0x20\n        /* \"#utility.yul\":11230:11239   */\n      dup3\n        /* \"#utility.yul\":11226:11244   */\n      add\n        /* \"#utility.yul\":11218:11244   */\n      swap1\n      pop\n        /* \"#utility.yul\":11290:11299   */\n      dup2\n        /* \"#utility.yul\":11284:11288   */\n      dup2\n        /* \"#utility.yul\":11280:11300   */\n      sub\n        /* \"#utility.yul\":11276:11277   */\n      0x00\n        /* \"#utility.yul\":11265:11274   */\n      dup4\n        /* \"#utility.yul\":11261:11278   */\n      add\n        /* \"#utility.yul\":11254:11301   */\n      mstore\n        /* \"#utility.yul\":11318:11449   */\n      tag_594\n        /* \"#utility.yul\":11444:11448   */\n      dup2\n        /* \"#utility.yul\":11318:11449   */\n      tag_452\n      jump\t// in\n    tag_594:\n        /* \"#utility.yul\":11310:11449   */\n      swap1\n      pop\n        /* \"#utility.yul\":11037:11456   */\n      swap2\n      swap1\n      pop\n      jump\t// out\n        /* \"#utility.yul\":11462:11548   */\n    tag_453:\n        /* \"#utility.yul\":11497:11504   */\n      0x00\n        /* \"#utility.yul\":11537:11541   */\n      0xff\n        /* \"#utility.yul\":11530:11535   */\n      dup3\n        /* \"#utility.yul\":11526:11542   */\n      and\n        /* \"#utility.yul\":11515:11542   */\n      swap1\n      pop\n        /* \"#utility.yul\":11462:11548   */\n      swap2\n      swap1\n      pop\n      jump\t// out\n        /* \"#utility.yul\":11554:11666   */\n    tag_454:\n        /* \"#utility.yul\":11637:11659   */\n      tag_597\n        /* \"#utility.yul\":11653:11658   */\n      dup2\n        /* \"#utility.yul\":11637:11659   */\n      tag_453\n      jump\t// in\n    tag_597:\n        /* \"#utility.yul\":11632:11635   */\n      dup3\n        /* \"#utility.yul\":11625:11660   */\n      mstore\n        /* \"#utility.yul\":11554:11666   */\n      pop\n      pop\n      jump\t// out\n        /* \"#utility.yul\":11672:11886   */\n    tag_109:\n        /* \"#utility.yul\":11761:11765   */\n      0x00\n        /* \"#utility.yul\":11799:11801   */\n      0x20\n        /* \"#utility.yul\":11788:11797   */\n      dup3\n        /* \"#utility.yul\":11784:11802   */\n      add\n        /* \"#utility.yul\":11776:11802   */\n      swap1\n      pop\n        /* \"#utility.yul\":11812:11879   */\n      tag_599\n        /* \"#utility.yul\":11876:11877   */\n      0x00\n        /* \"#utility.yul\":11865:11874   */\n      dup4\n        /* \"#utility.yul\":11861:11878   */\n      add\n        /* \"#utility.yul\":11852:11858   */\n      dup5\n        /* \"#utility.yul\":11812:11879   */\n      tag_454\n      jump\t// in\n    tag_599:\n        /* \"#utility.yul\":11672:11886   */\n      swap3\n      swap2\n      pop\n      pop\n      jump\t// out\n        /* \"#utility.yul\":11892:12072   */\n    tag_186:\n        /* \"#utility.yul\":11940:12017   */\n      0x4e487b7100000000000000000000000000000000000000000000000000000000\n        /* \"#utility.yul\":11937:11938   */\n      0x00\n        /* \"#utility.yul\":11930:12018   */\n      mstore\n        /* \"#utility.yul\":12037:12041   */\n      0x41\n        /* \"#utility.yul\":12034:12035   */\n      0x04\n        /* \"#utility.yul\":12027:12042   */\n      mstore\n        /* \"#utility.yul\":12061:12065   */\n      0x24\n        /* \"#utility.yul\":12058:12059   */\n      0x00\n        /* \"#utility.yul\":12051:12066   */\n      revert\n        /* \"#utility.yul\":12078:12219   */\n    tag_455:\n        /* \"#utility.yul\":12127:12131   */\n      0x00\n        /* \"#utility.yul\":12150:12153   */\n      dup2\n        /* \"#utility.yul\":12142:12153   */\n      swap1\n      pop\n        /* \"#utility.yul\":12173:12176   */\n      dup2\n        /* \"#utility.yul\":12170:12171   */\n      0x00\n        /* \"#utility.yul\":12163:12177   */\n      mstore\n        /* \"#utility.yul\":12207:12211   */\n      0x20\n        /* \"#utility.yul\":12204:12205   */\n      0x00\n        /* \"#utility.yul\":12194:12212   */\n      keccak256\n        /* \"#utility.yul\":12186:12212   */\n      swap1\n      pop\n        /* \"#utility.yul\":12078:12219   */\n      swap2\n      swap1\n      pop\n      jump\t// out\n        /* \"#utility.yul\":12225:12318   */\n    tag_456:\n        /* \"#utility.yul\":12262:12268   */\n      0x00\n        /* \"#utility.yul\":12309:12311   */\n      0x20\n        /* \"#utility.yul\":12304:12306   */\n      0x1f\n        /* \"#utility.yul\":12297:12302   */\n      dup4\n        /* \"#utility.yul\":12293:12307   */\n      add\n        /* \"#utility.yul\":12289:12312   */\n      div\n        /* \"#utility.yul\":12279:12312   */\n      swap1\n      pop\n        /* \"#utility.yul\":12225:12318   */\n      swap2\n      swap1\n      pop\n      jump\t// out\n        /* \"#utility.yul\":12324:12431   */\n    tag_457:\n        /* \"#utility.yul\":12368:12376   */\n      0x00\n        /* \"#utility.yul\":12418:12423   */\n      dup3\n        /* \"#utility.yul\":12412:12416   */\n      dup3\n        /* \"#utility.yul\":12408:12424   */\n      shl\n        /* \"#utility.yul\":12387:12424   */\n      swap1\n      pop\n        /* \"#utility.yul\":12324:12431   */\n      swap3\n      swap2\n      pop\n      pop\n      jump\t// out\n        /* \"#utility.yul\":12437:12830   */\n    tag_458:\n        /* \"#utility.yul\":12506:12512   */\n      0x00\n        /* \"#utility.yul\":12556:12557   */\n      0x08\n        /* \"#utility.yul\":12544:12554   */\n      dup4\n        /* \"#utility.yul\":12540:12558   */\n      mul\n        /* \"#utility.yul\":12579:12676   */\n      tag_605\n        /* \"#utility.yul\":12609:12675   */\n      0xffffffffffffffffffffffffffffffffffffffffffffffffffffffffffffffff\n        /* \"#utility.yul\":12598:12607   */\n      dup3\n        /* \"#utility.yul\":12579:12676   */\n      tag_457\n      jump\t// in\n    tag_605:\n        /* \"#utility.yul\":12697:12736   */\n      tag_606\n        /* \"#utility.yul\":12727:12735   */\n      dup7\n        /* \"#utility.yul\":12716:12725   */\n      dup4\n        /* \"#utility.yul\":12697:12736   */\n      tag_457\n      jump\t// in\n    tag_606:\n        /* \"#utility.yul\":12685:12736   */\n      swap6\n      pop\n        /* \"#utility.yul\":12769:12773   */\n      dup1\n        /* \"#utility.yul\":12765:12774   */\n      not\n        /* \"#utility.yul\":12758:12763   */\n      dup5\n        /* \"#utility.yul\":12754:12775   */\n      and\n        /* \"#utility.yul\":12745:12775   */\n      swap4\n      pop\n        /* \"#utility.yul\":12818:12822   */\n      dup1\n        /* \"#utility.yul\":12808:12816   */\n      dup7\n        /* \"#utility.yul\":12804:12823   */\n      and\n        /* \"#utility.yul\":12797:12802   */\n      dup5\n        /* \"#utility.yul\":12794:12824   */\n      or\n        /* \"#utility.yul\":12784:12824   */\n      swap3\n      pop\n        /* \"#utility.yul\":12513:12830   */\n      pop\n      pop\n        /* \"#utility.yul\":12437:12830   */\n      swap4\n      swap3\n      pop\n      pop\n      pop\n      jump\t// out\n        /* \"#utility.yul\":12836:12896   */\n    tag_459:\n        /* \"#utility.yul\":12864:12867   */\n      0x00\n        /* \"#utility.yul\":12885:12890   */\n      dup2\n        /* \"#utility.yul\":12878:12890   */\n      swap1\n      pop\n        /* \"#utility.yul\":12836:12896   */\n      swap2\n      swap1\n      pop\n      jump\t// out\n        /* \"#utility.yul\":12902:13044   */\n    tag_460:\n        /* \"#utility.yul\":12952:12961   */\n      0x00\n        /* \"#utility.yul\":12985:13038   */\n      tag_609\n        /* \"#utility.yul\":13003:13037   */\n      tag_610\n        /* \"#utility.yul\":13012:13036   */\n      tag_611\n        /* \"#utility.yul\":13030:13035   */\n      dup5\n        /* \"#utility.yul\":13012:13036   */\n      tag_422\n      jump\t// in\n    tag_611:\n        /* \"#utility.yul\":13003:13037   */\n      tag_459\n      jump\t// in\n    tag_610:\n        /* \"#utility.yul\":12985:13038   */\n      tag_422\n      jump\t// in\n    tag_609:\n        /* \"#utility.yul\":12972:13038   */\n      swap1\n      pop\n        /* \"#utility.yul\":12902:13044   */\n      swap2\n      swap1\n      pop\n      jump\t// out\n        /* \"#utility.yul\":13050:13125   */\n    tag_461:\n        /* \"#utility.yul\":13093:13096   */\n      0x00\n        /* \"#utility.yul\":13114:13119   */\n      dup2\n        /* \"#utility.yul\":13107:13119   */\n      swap1\n      pop\n        /* \"#utility.yul\":13050:13125   */\n      swap2\n      swap1\n      pop\n      jump\t// out\n        /* \"#utility.yul\":13131:13400   */\n    tag_462:\n        /* \"#utility.yul\":13241:13280   */\n      tag_614\n        /* \"#utility.yul\":13272:13279   */\n      dup4\n        /* \"#utility.yul\":13241:13280   */\n      tag_460\n      jump\t// in\n    tag_614:\n        /* \"#utility.yul\":13302:13393   */\n      tag_615\n        /* \"#utility.yul\":13351:13392   */\n      tag_616\n        /* \"#utility.yul\":13375:13391   */\n      dup3\n        /* \"#utility.yul\":13351:13392   */\n      tag_461\n      jump\t// in\n    tag_616:\n        /* \"#utility.yul\":13343:13349   */\n      dup5\n        /* \"#utility.yul\":13336:13340   */\n      dup5\n        /* \"#utility.yul\":13330:13341   */\n      sload\n        /* \"#utility.yul\":13302:13393   */\n      tag_458\n      jump\t// in\n    tag_615:\n        /* \"#utility.yul\":13296:13300   */\n      dup3\n        /* \"#utility.yul\":13289:13394   */\n      sstore\n        /* \"#utility.yul\":13207:13400   */\n      pop\n        /* \"#utility.yul\":13131:13400   */\n      pop\n      pop\n      pop\n      jump\t// out\n        /* \"#utility.yul\":13406:13479   */\n    tag_463:\n        /* \"#utility.yul\":13451:13454   */\n      0x00\n        /* \"#utility.yul\":13406:13479   */\n      swap1\n      jump\t// out\n        /* \"#utility.yul\":13485:13674   */\n    tag_464:\n        /* \"#utility.yul\":13562:13594   */\n      tag_619\n      tag_463\n      jump\t// in\n    tag_619:\n        /* \"#utility.yul\":13603:13668   */\n      tag_620\n        /* \"#utility.yul\":13661:13667   */\n      dup2\n        /* \"#utility.yul\":13653:13659   */\n      dup5\n        /* \"#utility.yul\":13647:13651   */\n      dup5\n        /* \"#utility.yul\":13603:13668   */\n      tag_462\n      jump\t// in\n    tag_620:\n        /* \"#utility.yul\":13538:13674   */\n      pop\n        /* \"#utility.yul\":13485:13674   */\n      pop\n      pop\n      jump\t// out\n        /* \"#utility.yul\":13680:13866   */\n    tag_465:\n        /* \"#utility.yul\":13740:13860   */\n    tag_622:\n        /* \"#utility.yul\":13757:13760   */\n      dup2\n        /* \"#utility.yul\":13750:13755   */\n      dup2\n        /* \"#utility.yul\":13747:13761   */\n      lt\n        /* \"#utility.yul\":13740:13860   */\n      iszero\n      tag_624\n      jumpi\n        /* \"#utility.yul\":13811:13850   */\n      tag_625\n        /* \"#utility.yul\":13848:13849   */\n      0x00\n        /* \"#utility.yul\":13841:13846   */\n      dup3\n        /* \"#utility.yul\":13811:13850   */\n      tag_464\n      jump\t// in\n    tag_625:\n        /* \"#utility.yul\":13784:13785   */\n      0x01\n        /* \"#utility.yul\":13777:13782   */\n      dup2\n        /* \"#utility.yul\":13773:13786   */\n      add\n        /* \"#utility.yul\":13764:13786   */\n      swap1\n      pop\n        /* \"#utility.yul\":13740:13860   */\n      jump(tag_622)\n    tag_624:\n        /* \"#utility.yul\":13680:13866   */\n      pop\n      pop\n      jump\t// out\n        /* \"#utility.yul\":13872:14415   */\n    tag_466:\n        /* \"#utility.yul\":13973:13975   */\n      0x1f\n        /* \"#utility.yul\":13968:13971   */\n      dup3\n        /* \"#utility.yul\":13965:13976   */\n      gt\n        /* \"#utility.yul\":13962:14408   */\n      iszero\n      tag_627\n      jumpi\n        /* \"#utility.yul\":14007:14045   */\n      tag_628\n        /* \"#utility.yul\":14039:14044   */\n      dup2\n        /* \"#utility.yul\":14007:14045   */\n      tag_455\n      jump\t// in\n    tag_628:\n        /* \"#utility.yul\":14091:14120   */\n      tag_629\n        /* \"#utility.yul\":14109:14119   */\n      dup5\n        /* \"#utility.yul\":14091:14120   */\n      tag_456\n      jump\t// in\n    tag_629:\n        /* \"#utility.yul\":14081:14089   */\n      dup2\n        /* \"#utility.yul\":14077:14121   */\n      add\n        /* \"#utility.yul\":14274:14276   */\n      0x20\n        /* \"#utility.yul\":14262:14272   */\n      dup6\n        /* \"#utility.yul\":14259:14277   */\n      lt\n        /* \"#utility.yul\":14256:14305   */\n      iszero\n      tag_630\n      jumpi\n        /* \"#utility.yul\":14295:14303   */\n      dup2\n        /* \"#utility.yul\":14280:14303   */\n      swap1\n      pop\n        /* \"#utility.yul\":14256:14305   */\n    tag_630:\n        /* \"#utility.yul\":14318:14398   */\n      tag_631\n        /* \"#utility.yul\":14374:14396   */\n      tag_632\n        /* \"#utility.yul\":14392:14395   */\n      dup6\n        /* \"#utility.yul\":14374:14396   */\n      tag_456\n      jump\t// in\n    tag_632:\n        /* \"#utility.yul\":14364:14372   */\n      dup4\n        /* \"#utility.yul\":14360:14397   */\n      add\n        /* \"#utility.yul\":14347:14358   */\n      dup3\n        /* \"#utility.yul\":14318:14398   */\n      tag_465\n      jump\t// in\n    tag_631:\n        /* \"#utility.yul\":13977:14408   */\n      pop\n      pop\n        /* \"#utility.yul\":13962:14408   */\n    tag_627:\n        /* \"#utility.yul\":13872:14415   */\n      pop\n      pop\n      pop\n      jump\t// out\n        /* \"#utility.yul\":14421:14538   */\n    tag_467:\n        /* \"#utility.yul\":14475:14483   */\n      0x00\n        /* \"#utility.yul\":14525:14530   */\n      dup3\n        /* \"#utility.yul\":14519:14523   */\n      dup3\n        /* \"#utility.yul\":14515:14531   */\n      shr\n        /* \"#utility.yul\":14494:14531   */\n      swap1\n      pop\n        /* \"#utility.yul\":14421:14538   */\n      swap3\n      swap2\n      pop\n      pop\n      jump\t// out\n        /* \"#utility.yul\":14544:14713   */\n    tag_468:\n        /* \"#utility.yul\":14588:14594   */\n      0x00\n        /* \"#utility.yul\":14621:14672   */\n      tag_635\n        /* \"#utility.yul\":14669:14670   */\n      0x00\n        /* \"#utility.yul\":14665:14671   */\n      not\n        /* \"#utility.yul\":14657:14662   */\n      dup5\n        /* \"#utility.yul\":14654:14655   */\n      0x08\n        /* \"#utility.yul\":14650:14663   */\n      mul\n        /* \"#utility.yul\":14621:14672   */\n      tag_467\n      jump\t// in\n    tag_635:\n        /* \"#utility.yul\":14617:14673   */\n      not\n        /* \"#utility.yul\":14702:14706   */\n      dup1\n        /* \"#utility.yul\":14696:14700   */\n      dup4\n        /* \"#utility.yul\":14692:14707   */\n      and\n        /* \"#utility.yul\":14682:14707   */\n      swap2\n      pop\n        /* \"#utility.yul\":14595:14713   */\n      pop\n        /* \"#utility.yul\":14544:14713   */\n      swap3\n      swap2\n      pop\n      pop\n      jump\t// out\n        /* \"#utility.yul\":14718:15013   */\n    tag_469:\n        /* \"#utility.yul\":14794:14798   */\n      0x00\n        /* \"#utility.yul\":14940:14969   */\n      tag_637\n        /* \"#utility.yul\":14965:14968   */\n      dup4\n        /* \"#utility.yul\":14959:14963   */\n      dup4\n        /* \"#utility.yul\":14940:14969   */\n      tag_468\n      jump\t// in\n    tag_637:\n        /* \"#utility.yul\":14932:14969   */\n      swap2\n      pop\n        /* \"#utility.yul\":15002:15005   */\n      dup3\n        /* \"#utility.yul\":14999:15000   */\n      0x02\n        /* \"#utility.yul\":14995:15006   */\n      mul\n        /* \"#utility.yul\":14989:14993   */\n      dup3\n        /* \"#utility.yul\":14986:15007   */\n      or\n        /* \"#utility.yul\":14978:15007   */\n      swap1\n      pop\n        /* \"#utility.yul\":14718:15013   */\n      swap3\n      swap2\n      pop\n      pop\n      jump\t// out\n        /* \"#utility.yul\":15018:16413   */\n    tag_117:\n        /* \"#utility.yul\":15135:15172   */\n      tag_639\n        /* \"#utility.yul\":15168:15171   */\n      dup3\n        /* \"#utility.yul\":15135:15172   */\n      tag_417\n      jump\t// in\n    tag_639:\n        /* \"#utility.yul\":15237:15255   */\n      0xffffffffffffffff\n        /* \"#utility.yul\":15229:15235   */\n      dup2\n        /* \"#utility.yul\":15226:15256   */\n      gt\n        /* \"#utility.yul\":15223:15279   */\n      iszero\n      tag_640\n      jumpi\n        /* \"#utility.yul\":15259:15277   */\n      tag_641\n      tag_186\n      jump\t// in\n    tag_641:\n        /* \"#utility.yul\":15223:15279   */\n    tag_640:\n        /* \"#utility.yul\":15303:15341   */\n      tag_642\n        /* \"#utility.yul\":15335:15339   */\n      dup3\n        /* \"#utility.yul\":15329:15340   */\n      sload\n        /* \"#utility.yul\":15303:15341   */\n      tag_51\n      jump\t// in\n    tag_642:\n        /* \"#utility.yul\":15388:15455   */\n      tag_643\n        /* \"#utility.yul\":15448:15454   */\n      dup3\n        /* \"#utility.yul\":15440:15446   */\n      dup3\n        /* \"#utility.yul\":15434:15438   */\n      dup6\n        /* \"#utility.yul\":15388:15455   */\n      tag_466\n      jump\t// in\n    tag_643:\n        /* \"#utility.yul\":15482:15483   */\n      0x00\n        /* \"#utility.yul\":15506:15510   */\n      0x20\n        /* \"#utility.yul\":15493:15510   */\n      swap1\n      pop\n        /* \"#utility.yul\":15538:15540   */\n      0x1f\n        /* \"#utility.yul\":15530:15536   */\n      dup4\n        /* \"#utility.yul\":15527:15541   */\n      gt\n        /* \"#utility.yul\":15555:15556   */\n      0x01\n        /* \"#utility.yul\":15550:16168   */\n      dup2\n      eq\n      tag_645\n      jumpi\n        /* \"#utility.yul\":16212:16213   */\n      0x00\n        /* \"#utility.yul\":16229:16235   */\n      dup5\n        /* \"#utility.yul\":16226:16303   */\n      iszero\n      tag_646\n      jumpi\n        /* \"#utility.yul\":16278:16287   */\n      dup3\n        /* \"#utility.yul\":16273:16276   */\n      dup8\n        /* \"#utility.yul\":16269:16288   */\n      add\n        /* \"#utility.yul\":16263:16289   */\n      mload\n        /* \"#utility.yul\":16254:16289   */\n      swap1\n      pop\n        /* \"#utility.yul\":16226:16303   */\n    tag_646:\n        /* \"#utility.yul\":16329:16396   */\n      tag_647\n        /* \"#utility.yul\":16389:16395   */\n      dup6\n        /* \"#utility.yul\":16382:16387   */\n      dup3\n        /* \"#utility.yul\":16329:16396   */\n      tag_469\n      jump\t// in\n    tag_647:\n        /* \"#utility.yul\":16323:16327   */\n      dup7\n        /* \"#utility.yul\":16316:16397   */\n      sstore\n        /* \"#utility.yul\":16185:16407   */\n      pop\n        /* \"#utility.yul\":15520:16407   */\n      jump(tag_644)\n        /* \"#utility.yul\":15550:16168   */\n    tag_645:\n        /* \"#utility.yul\":15602:15606   */\n      0x1f\n        /* \"#utility.yul\":15598:15607   */\n      not\n        /* \"#utility.yul\":15590:15596   */\n      dup5\n        /* \"#utility.yul\":15586:15608   */\n      and\n        /* \"#utility.yul\":15636:15673   */\n      tag_648\n        /* \"#utility.yul\":15668:15672   */\n      dup7\n        /* \"#utility.yul\":15636:15673   */\n      tag_455\n      jump\t// in\n    tag_648:\n        /* \"#utility.yul\":15695:15696   */\n      0x00\n        /* \"#utility.yul\":15709:15917   */\n    tag_649:\n        /* \"#utility.yul\":15723:15730   */\n      dup3\n        /* \"#utility.yul\":15720:15721   */\n      dup2\n        /* \"#utility.yul\":15717:15731   */\n      lt\n        /* \"#utility.yul\":15709:15917   */\n      iszero\n      tag_651\n      jumpi\n        /* \"#utility.yul\":15802:15811   */\n      dup5\n        /* \"#utility.yul\":15797:15800   */\n      dup10\n        /* \"#utility.yul\":15793:15812   */\n      add\n        /* \"#utility.yul\":15787:15813   */\n      mload\n        /* \"#utility.yul\":15779:15785   */\n      dup3\n        /* \"#utility.yul\":15772:15814   */\n      sstore\n        /* \"#utility.yul\":15853:15854   */\n      0x01\n        /* \"#utility.yul\":15845:15851   */\n      dup3\n        /* \"#utility.yul\":15841:15855   */\n      add\n        /* \"#utility.yul\":15831:15855   */\n      swap2\n      pop\n        /* \"#utility.yul\":15900:15902   */\n      0x20\n        /* \"#utility.yul\":15889:15898   */\n      dup6\n        /* \"#utility.yul\":15885:15903   */\n      add\n        /* \"#utility.yul\":15872:15903   */\n      swap5\n      pop\n        /* \"#utility.yul\":15746:15750   */\n      0x20\n        /* \"#utility.yul\":15743:15744   */\n      dup2\n        /* \"#utility.yul\":15739:15751   */\n      add\n        /* \"#utility.yul\":15734:15751   */\n      swap1\n      pop\n        /* \"#utility.yul\":15709:15917   */\n      jump(tag_649)\n    tag_651:\n        /* \"#utility.yul\":15945:15951   */\n      dup7\n        /* \"#utility.yul\":15936:15943   */\n      dup4\n        /* \"#utility.yul\":15933:15952   */\n      lt\n        /* \"#utility.yul\":15930:16109   */\n      iszero\n      tag_652\n      jumpi\n        /* \"#utility.yul\":16003:16012   */\n      dup5\n        /* \"#utility.yul\":15998:16001   */\n      dup10\n        /* \"#utility.yul\":15994:16013   */\n      add\n        /* \"#utility.yul\":15988:16014   */\n      mload\n        /* \"#utility.yul\":16046:16094   */\n      tag_653\n        /* \"#utility.yul\":16088:16092   */\n      0x1f\n        /* \"#utility.yul\":16080:16086   */\n      dup10\n        /* \"#utility.yul\":16076:16093   */\n      and\n        /* \"#utility.yul\":16065:16074   */\n      dup3\n        /* \"#utility.yul\":16046:16094   */\n      tag_468\n      jump\t// in\n    tag_653:\n        /* \"#utility.yul\":16038:16044   */\n      dup4\n        /* \"#utility.yul\":16031:16095   */\n      sstore\n        /* \"#utility.yul\":15953:16109   */\n      pop\n        /* \"#utility.yul\":15930:16109   */\n    tag_652:\n        /* \"#utility.yul\":16155:16156   */\n      0x01\n        /* \"#utility.yul\":16151:16152   */\n      0x02\n        /* \"#utility.yul\":16143:16149   */\n      dup9\n        /* \"#utility.yul\":16139:16153   */\n      mul\n        /* \"#utility.yul\":16135:16157   */\n      add\n        /* \"#utility.yul\":16129:16133   */\n      dup9\n        /* \"#utility.yul\":16122:16158   */\n      sstore\n        /* \"#utility.yul\":15557:16168   */\n      pop\n      pop\n      pop\n        /* \"#utility.yul\":15520:16407   */\n    tag_644:\n      pop\n        /* \"#utility.yul\":15110:16413   */\n      pop\n      pop\n      pop\n        /* \"#utility.yul\":15018:16413   */\n      pop\n      pop\n      jump\t// out\n        /* \"#utility.yul\":16419:16599   */\n    tag_470:\n        /* \"#utility.yul\":16467:16544   */\n      0x4e487b7100000000000000000000000000000000000000000000000000000000\n        /* \"#utility.yul\":16464:16465   */\n      0x00\n        /* \"#utility.yul\":16457:16545   */\n      mstore\n        /* \"#utility.yul\":16564:16568   */\n      0x11\n        /* \"#utility.yul\":16561:16562   */\n      0x04\n        /* \"#utility.yul\":16554:16569   */\n      mstore\n        /* \"#utility.yul\":16588:16592   */\n      0x24\n        /* \"#utility.yul\":16585:16586   */\n      0x00\n        /* \"#utility.yul\":16578:16593   */\n      revert\n        /* \"#utility.yul\":16605:17015   */\n    tag_140:\n        /* \"#utility.yul\":16645:16652   */\n      0x00\n        /* \"#utility.yul\":16668:16688   */\n      tag_656\n        /* \"#utility.yul\":16686:16687   */\n      dup3\n        /* \"#utility.yul\":16668:16688   */\n      tag_422\n      jump\t// in\n    tag_656:\n        /* \"#utility.yul\":16663:16688   */\n      swap2\n      pop\n        /* \"#utility.yul\":16702:16722   */\n      tag_657\n        /* \"#utility.yul\":16720:16721   */\n      dup4\n        /* \"#utility.yul\":16702:16722   */\n      tag_422\n      jump\t// in\n    tag_657:\n        /* \"#utility.yul\":16697:16722   */\n      swap3\n      pop\n        /* \"#utility.yul\":16757:16758   */\n      dup3\n        /* \"#utility.yul\":16754:16755   */\n      dup3\n        /* \"#utility.yul\":16750:16759   */\n      mul\n        /* \"#utility.yul\":16779:16809   */\n      tag_658\n        /* \"#utility.yul\":16797:16808   */\n      dup2\n        /* \"#utility.yul\":16779:16809   */\n      tag_422\n      jump\t// in\n    tag_658:\n        /* \"#utility.yul\":16768:16809   */\n      swap2\n      pop\n        /* \"#utility.yul\":16958:16959   */\n      dup3\n        /* \"#utility.yul\":16949:16956   */\n      dup3\n        /* \"#utility.yul\":16945:16960   */\n      div\n        /* \"#utility.yul\":16942:16943   */\n      dup5\n        /* \"#utility.yul\":16939:16961   */\n      eq\n        /* \"#utility.yul\":16919:16920   */\n      dup4\n        /* \"#utility.yul\":16912:16921   */\n      iszero\n        /* \"#utility.yul\":16892:16975   */\n      or\n        /* \"#utility.yul\":16869:17008   */\n      tag_659\n      jumpi\n        /* \"#utility.yul\":16988:17006   */\n      tag_660\n      tag_470\n      jump\t// in\n    tag_660:\n        /* \"#utility.yul\":16869:17008   */\n    tag_659:\n        /* \"#utility.yul\":16653:17015   */\n      pop\n        /* \"#utility.yul\":16605:17015   */\n      swap3\n      swap2\n      pop\n      pop\n      jump\t// out\n        /* \"#utility.yul\":17021:17139   */\n    tag_471:\n        /* \"#utility.yul\":17108:17132   */\n      tag_662\n        /* \"#utility.yul\":17126:17131   */\n      dup2\n        /* \"#utility.yul\":17108:17132   */\n      tag_428\n      jump\t// in\n    tag_662:\n        /* \"#utility.yul\":17103:17106   */\n      dup3\n        /* \"#utility.yul\":17096:17133   */\n      mstore\n        /* \"#utility.yul\":17021:17139   */\n      pop\n      pop\n      jump\t// out\n        /* \"#utility.yul\":17145:17469   */\n    tag_151:\n        /* \"#utility.yul\":17262:17266   */\n      0x00\n        /* \"#utility.yul\":17300:17302   */\n      0x40\n        /* \"#utility.yul\":17289:17298   */\n      dup3\n        /* \"#utility.yul\":17285:17303   */\n      add\n        /* \"#utility.yul\":17277:17303   */\n      swap1\n      pop\n        /* \"#utility.yul\":17313:17384   */\n      tag_664\n        /* \"#utility.yul\":17381:17382   */\n      0x00\n        /* \"#utility.yul\":17370:17379   */\n      dup4\n        /* \"#utility.yul\":17366:17383   */\n      add\n        /* \"#utility.yul\":17357:17363   */\n      dup6\n        /* \"#utility.yul\":17313:17384   */\n      tag_471\n      jump\t// in\n    tag_664:\n        /* \"#utility.yul\":17394:17462   */\n      tag_665\n        /* \"#utility.yul\":17458:17460   */\n      0x20\n        /* \"#utility.yul\":17447:17456   */\n      dup4\n        /* \"#utility.yul\":17443:17461   */\n      add\n        /* \"#utility.yul\":17434:17440   */\n      dup5\n        /* \"#utility.yul\":17394:17462   */\n      tag_454\n      jump\t// in\n    tag_665:\n        /* \"#utility.yul\":17145:17469   */\n      swap4\n      swap3\n      pop\n      pop\n      pop\n      jump\t// out\n        /* \"#utility.yul\":17475:17638   */\n    tag_472:\n        /* \"#utility.yul\":17615:17630   */\n      0x4e6f7420796f7572207475726e00000000000000000000000000000000000000\n        /* \"#utility.yul\":17611:17612   */\n      0x00\n        /* \"#utility.yul\":17603:17609   */\n      dup3\n        /* \"#utility.yul\":17599:17613   */\n      add\n        /* \"#utility.yul\":17592:17631   */\n      mstore\n        /* \"#utility.yul\":17475:17638   */\n      pop\n      jump\t// out\n        /* \"#utility.yul\":17644:18010   */\n    tag_473:\n        /* \"#utility.yul\":17786:17789   */\n      0x00\n        /* \"#utility.yul\":17807:17874   */\n      tag_668\n        /* \"#utility.yul\":17871:17873   */\n      0x0d\n        /* \"#utility.yul\":17866:17869   */\n      dup4\n        /* \"#utility.yul\":17807:17874   */\n      tag_418\n      jump\t// in\n    tag_668:\n        /* \"#utility.yul\":17800:17874   */\n      swap2\n      pop\n        /* \"#utility.yul\":17883:17976   */\n      tag_669\n        /* \"#utility.yul\":17972:17975   */\n      dup3\n        /* \"#utility.yul\":17883:17976   */\n      tag_472\n      jump\t// in\n    tag_669:\n        /* \"#utility.yul\":18001:18003   */\n      0x20\n        /* \"#utility.yul\":17996:17999   */\n      dup3\n        /* \"#utility.yul\":17992:18004   */\n      add\n        /* \"#utility.yul\":17985:18004   */\n      swap1\n      pop\n        /* \"#utility.yul\":17644:18010   */\n      swap2\n      swap1\n      pop\n      jump\t// out\n        /* \"#utility.yul\":18016:18435   */\n    tag_172:\n        /* \"#utility.yul\":18182:18186   */\n      0x00\n        /* \"#utility.yul\":18220:18222   */\n      0x20\n        /* \"#utility.yul\":18209:18218   */\n      dup3\n        /* \"#utility.yul\":18205:18223   */\n      add\n        /* \"#utility.yul\":18197:18223   */\n      swap1\n      pop\n        /* \"#utility.yul\":18269:18278   */\n      dup2\n        /* \"#utility.yul\":18263:18267   */\n      dup2\n        /* \"#utility.yul\":18259:18279   */\n      sub\n        /* \"#utility.yul\":18255:18256   */\n      0x00\n        /* \"#utility.yul\":18244:18253   */\n      dup4\n        /* \"#utility.yul\":18240:18257   */\n      add\n        /* \"#utility.yul\":18233:18280   */\n      mstore\n        /* \"#utility.yul\":18297:18428   */\n      tag_671\n        /* \"#utility.yul\":18423:18427   */\n      dup2\n        /* \"#utility.yul\":18297:18428   */\n      tag_473\n      jump\t// in\n    tag_671:\n        /* \"#utility.yul\":18289:18428   */\n      swap1\n      pop\n        /* \"#utility.yul\":18016:18435   */\n      swap2\n      swap1\n      pop\n      jump\t// out\n        /* \"#utility.yul\":18441:18632   */\n    tag_183:\n        /* \"#utility.yul\":18481:18484   */\n      0x00\n        /* \"#utility.yul\":18500:18520   */\n      tag_673\n        /* \"#utility.yul\":18518:18519   */\n      dup3\n        /* \"#utility.yul\":18500:18520   */\n      tag_422\n      jump\t// in\n    tag_673:\n        /* \"#utility.yul\":18495:18520   */\n      swap2\n      pop\n        /* \"#utility.yul\":18534:18554   */\n      tag_674\n        /* \"#utility.yul\":18552:18553   */\n      dup4\n        /* \"#utility.yul\":18534:18554   */\n      tag_422\n      jump\t// in\n    tag_674:\n        /* \"#utility.yul\":18529:18554   */\n      swap3\n      pop\n        /* \"#utility.yul\":18577:18578   */\n      dup3\n        /* \"#utility.yul\":18574:18575   */\n      dup3\n        /* \"#utility.yul\":18570:18579   */\n      add\n        /* \"#utility.yul\":18563:18579   */\n      swap1\n      pop\n        /* \"#utility.yul\":18598:18601   */\n      dup1\n        /* \"#utility.yul\":18595:18596   */\n      dup3\n        /* \"#utility.yul\":18592:18602   */\n      gt\n        /* \"#utility.yul\":18589:18625   */\n      iszero\n      tag_675\n      jumpi\n        /* \"#utility.yul\":18605:18623   */\n      tag_676\n      tag_470\n      jump\t// in\n    tag_676:\n        /* \"#utility.yul\":18589:18625   */\n    tag_675:\n        /* \"#utility.yul\":18441:18632   */\n      swap3\n      swap2\n      pop\n      pop\n      jump\t// out\n        /* \"#utility.yul\":18638:18786   */\n    tag_474:\n        /* \"#utility.yul\":18740:18751   */\n      0x00\n        /* \"#utility.yul\":18777:18780   */\n      dup2\n        /* \"#utility.yul\":18762:18780   */\n      swap1\n      pop\n        /* \"#utility.yul\":18638:18786   */\n      swap3\n      swap2\n      pop\n      pop\n      jump\t// out\n        /* \"#utility.yul\":18792:18949   */\n    tag_475:\n        /* \"#utility.yul\":18932:18941   */\n      0x506c617965722000000000000000000000000000000000000000000000000000\n        /* \"#utility.yul\":18928:18929   */\n      0x00\n        /* \"#utility.yul\":18920:18926   */\n      dup3\n        /* \"#utility.yul\":18916:18930   */\n      add\n        /* \"#utility.yul\":18909:18942   */\n      mstore\n        /* \"#utility.yul\":18792:18949   */\n      pop\n      jump\t// out\n        /* \"#utility.yul\":18955:19355   */\n    tag_476:\n        /* \"#utility.yul\":19115:19118   */\n      0x00\n        /* \"#utility.yul\":19136:19220   */\n      tag_680\n        /* \"#utility.yul\":19218:19219   */\n      0x07\n        /* \"#utility.yul\":19213:19216   */\n      dup4\n        /* \"#utility.yul\":19136:19220   */\n      tag_474\n      jump\t// in\n    tag_680:\n        /* \"#utility.yul\":19129:19220   */\n      swap2\n      pop\n        /* \"#utility.yul\":19229:19322   */\n      tag_681\n        /* \"#utility.yul\":19318:19321   */\n      dup3\n        /* \"#utility.yul\":19229:19322   */\n      tag_475\n      jump\t// in\n    tag_681:\n        /* \"#utility.yul\":19347:19348   */\n      0x07\n        /* \"#utility.yul\":19342:19345   */\n      dup3\n        /* \"#utility.yul\":19338:19349   */\n      add\n        /* \"#utility.yul\":19331:19349   */\n      swap1\n      pop\n        /* \"#utility.yul\":18955:19355   */\n      swap2\n      swap1\n      pop\n      jump\t// out\n        /* \"#utility.yul\":19361:19751   */\n    tag_477:\n        /* \"#utility.yul\":19467:19470   */\n      0x00\n        /* \"#utility.yul\":19495:19534   */\n      tag_683\n        /* \"#utility.yul\":19528:19533   */\n      dup3\n        /* \"#utility.yul\":19495:19534   */\n      tag_417\n      jump\t// in\n    tag_683:\n        /* \"#utility.yul\":19550:19639   */\n      tag_684\n        /* \"#utility.yul\":19632:19638   */\n      dup2\n        /* \"#utility.yul\":19627:19630   */\n      dup6\n        /* \"#utility.yul\":19550:19639   */\n      tag_474\n      jump\t// in\n    tag_684:\n        /* \"#utility.yul\":19543:19639   */\n      swap4\n      pop\n        /* \"#utility.yul\":19648:19713   */\n      tag_685\n        /* \"#utility.yul\":19706:19712   */\n      dup2\n        /* \"#utility.yul\":19701:19704   */\n      dup6\n        /* \"#utility.yul\":19694:19698   */\n      0x20\n        /* \"#utility.yul\":19687:19692   */\n      dup7\n        /* \"#utility.yul\":19683:19699   */\n      add\n        /* \"#utility.yul\":19648:19713   */\n      tag_419\n      jump\t// in\n    tag_685:\n        /* \"#utility.yul\":19738:19744   */\n      dup1\n        /* \"#utility.yul\":19733:19736   */\n      dup5\n        /* \"#utility.yul\":19729:19745   */\n      add\n        /* \"#utility.yul\":19722:19745   */\n      swap2\n      pop\n        /* \"#utility.yul\":19471:19751   */\n      pop\n        /* \"#utility.yul\":19361:19751   */\n      swap3\n      swap2\n      pop\n      pop\n      jump\t// out\n        /* \"#utility.yul\":19757:19909   */\n    tag_478:\n        /* \"#utility.yul\":19897:19901   */\n      0x3a20000000000000000000000000000000000000000000000000000000000000\n        /* \"#utility.yul\":19893:19894   */\n      0x00\n        /* \"#utility.yul\":19885:19891   */\n      dup3\n        /* \"#utility.yul\":19881:19895   */\n      add\n        /* \"#utility.yul\":19874:19902   */\n      mstore\n        /* \"#utility.yul\":19757:19909   */\n      pop\n      jump\t// out\n        /* \"#utility.yul\":19915:20315   */\n    tag_479:\n        /* \"#utility.yul\":20075:20078   */\n      0x00\n        /* \"#utility.yul\":20096:20180   */\n      tag_688\n        /* \"#utility.yul\":20178:20179   */\n      0x02\n        /* \"#utility.yul\":20173:20176   */\n      dup4\n        /* \"#utility.yul\":20096:20180   */\n      tag_474\n      jump\t// in\n    tag_688:\n        /* \"#utility.yul\":20089:20180   */\n      swap2\n      pop\n        /* \"#utility.yul\":20189:20282   */\n      tag_689\n        /* \"#utility.yul\":20278:20281   */\n      dup3\n        /* \"#utility.yul\":20189:20282   */\n      tag_478\n      jump\t// in\n    tag_689:\n        /* \"#utility.yul\":20307:20308   */\n      0x02\n        /* \"#utility.yul\":20302:20305   */\n      dup3\n        /* \"#utility.yul\":20298:20309   */\n      add\n        /* \"#utility.yul\":20291:20309   */\n      swap1\n      pop\n        /* \"#utility.yul\":19915:20315   */\n      swap2\n      swap1\n      pop\n      jump\t// out\n        /* \"#utility.yul\":20321:21128   */\n    tag_207:\n        /* \"#utility.yul\":20655:20658   */\n      0x00\n        /* \"#utility.yul\":20677:20825   */\n      tag_691\n        /* \"#utility.yul\":20821:20824   */\n      dup3\n        /* \"#utility.yul\":20677:20825   */\n      tag_476\n      jump\t// in\n    tag_691:\n        /* \"#utility.yul\":20670:20825   */\n      swap2\n      pop\n        /* \"#utility.yul\":20842:20937   */\n      tag_692\n        /* \"#utility.yul\":20933:20936   */\n      dup3\n        /* \"#utility.yul\":20924:20930   */\n      dup5\n        /* \"#utility.yul\":20842:20937   */\n      tag_477\n      jump\t// in\n    tag_692:\n        /* \"#utility.yul\":20835:20937   */\n      swap2\n      pop\n        /* \"#utility.yul\":20954:21102   */\n      tag_693\n        /* \"#utility.yul\":21098:21101   */\n      dup3\n        /* \"#utility.yul\":20954:21102   */\n      tag_479\n      jump\t// in\n    tag_693:\n        /* \"#utility.yul\":20947:21102   */\n      swap2\n      pop\n        /* \"#utility.yul\":21119:21122   */\n      dup2\n        /* \"#utility.yul\":21112:21122   */\n      swap1\n      pop\n        /* \"#utility.yul\":20321:21128   */\n      swap3\n      swap2\n      pop\n      pop\n      jump\t// out\n        /* \"#utility.yul\":21134:21306   */\n    tag_480:\n        /* \"#utility.yul\":21274:21298   */\n      0x4e6f20706c617965727320696e207468652067616d6500000000000000000000\n        /* \"#utility.yul\":21270:21271   */\n      0x00\n        /* \"#utility.yul\":21262:21268   */\n      dup3\n        /* \"#utility.yul\":21258:21272   */\n      add\n        /* \"#utility.yul\":21251:21299   */\n      mstore\n        /* \"#utility.yul\":21134:21306   */\n      pop\n      jump\t// out\n        /* \"#utility.yul\":21312:21678   */\n    tag_481:\n        /* \"#utility.yul\":21454:21457   */\n      0x00\n        /* \"#utility.yul\":21475:21542   */\n      tag_696\n        /* \"#utility.yul\":21539:21541   */\n      0x16\n        /* \"#utility.yul\":21534:21537   */\n      dup4\n        /* \"#utility.yul\":21475:21542   */\n      tag_418\n      jump\t// in\n    tag_696:\n        /* \"#utility.yul\":21468:21542   */\n      swap2\n      pop\n        /* \"#utility.yul\":21551:21644   */\n      tag_697\n        /* \"#utility.yul\":21640:21643   */\n      dup3\n        /* \"#utility.yul\":21551:21644   */\n      tag_480\n      jump\t// in\n    tag_697:\n        /* \"#utility.yul\":21669:21671   */\n      0x20\n        /* \"#utility.yul\":21664:21667   */\n      dup3\n        /* \"#utility.yul\":21660:21672   */\n      add\n        /* \"#utility.yul\":21653:21672   */\n      swap1\n      pop\n        /* \"#utility.yul\":21312:21678   */\n      swap2\n      swap1\n      pop\n      jump\t// out\n        /* \"#utility.yul\":21684:22103   */\n    tag_214:\n        /* \"#utility.yul\":21850:21854   */\n      0x00\n        /* \"#utility.yul\":21888:21890   */\n      0x20\n        /* \"#utility.yul\":21877:21886   */\n      dup3\n        /* \"#utility.yul\":21873:21891   */\n      add\n        /* \"#utility.yul\":21865:21891   */\n      swap1\n      pop\n        /* \"#utility.yul\":21937:21946   */\n      dup2\n        /* \"#utility.yul\":21931:21935   */\n      dup2\n        /* \"#utility.yul\":21927:21947   */\n      sub\n        /* \"#utility.yul\":21923:21924   */\n      0x00\n        /* \"#utility.yul\":21912:21921   */\n      dup4\n        /* \"#utility.yul\":21908:21925   */\n      add\n        /* \"#utility.yul\":21901:21948   */\n      mstore\n        /* \"#utility.yul\":21965:22096   */\n      tag_699\n        /* \"#utility.yul\":22091:22095   */\n      dup2\n        /* \"#utility.yul\":21965:22096   */\n      tag_481\n      jump\t// in\n    tag_699:\n        /* \"#utility.yul\":21957:22096   */\n      swap1\n      pop\n        /* \"#utility.yul\":21684:22103   */\n      swap2\n      swap1\n      pop\n      jump\t// out\n        /* \"#utility.yul\":22109:22280   */\n    tag_482:\n        /* \"#utility.yul\":22249:22272   */\n      0x4d6178203420706c617965727320616c6c6f7765640000000000000000000000\n        /* \"#utility.yul\":22245:22246   */\n      0x00\n        /* \"#utility.yul\":22237:22243   */\n      dup3\n        /* \"#utility.yul\":22233:22247   */\n      add\n        /* \"#utility.yul\":22226:22273   */\n      mstore\n        /* \"#utility.yul\":22109:22280   */\n      pop\n      jump\t// out\n        /* \"#utility.yul\":22286:22652   */\n    tag_483:\n        /* \"#utility.yul\":22428:22431   */\n      0x00\n        /* \"#utility.yul\":22449:22516   */\n      tag_702\n        /* \"#utility.yul\":22513:22515   */\n      0x15\n        /* \"#utility.yul\":22508:22511   */\n      dup4\n        /* \"#utility.yul\":22449:22516   */\n      tag_418\n      jump\t// in\n    tag_702:\n        /* \"#utility.yul\":22442:22516   */\n      swap2\n      pop\n        /* \"#utility.yul\":22525:22618   */\n      tag_703\n        /* \"#utility.yul\":22614:22617   */\n      dup3\n        /* \"#utility.yul\":22525:22618   */\n      tag_482\n      jump\t// in\n    tag_703:\n        /* \"#utility.yul\":22643:22645   */\n      0x20\n        /* \"#utility.yul\":22638:22641   */\n      dup3\n        /* \"#utility.yul\":22634:22646   */\n      add\n        /* \"#utility.yul\":22627:22646   */\n      swap1\n      pop\n        /* \"#utility.yul\":22286:22652   */\n      swap2\n      swap1\n      pop\n      jump\t// out\n        /* \"#utility.yul\":22658:23077   */\n    tag_235:\n        /* \"#utility.yul\":22824:22828   */\n      0x00\n        /* \"#utility.yul\":22862:22864   */\n      0x20\n        /* \"#utility.yul\":22851:22860   */\n      dup3\n        /* \"#utility.yul\":22847:22865   */\n      add\n        /* \"#utility.yul\":22839:22865   */\n      swap1\n      pop\n        /* \"#utility.yul\":22911:22920   */\n      dup2\n        /* \"#utility.yul\":22905:22909   */\n      dup2\n        /* \"#utility.yul\":22901:22921   */\n      sub\n        /* \"#utility.yul\":22897:22898   */\n      0x00\n        /* \"#utility.yul\":22886:22895   */\n      dup4\n        /* \"#utility.yul\":22882:22899   */\n      add\n        /* \"#utility.yul\":22875:22922   */\n      mstore\n        /* \"#utility.yul\":22939:23070   */\n      tag_705\n        /* \"#utility.yul\":23065:23069   */\n      dup2\n        /* \"#utility.yul\":22939:23070   */\n      tag_483\n      jump\t// in\n    tag_705:\n        /* \"#utility.yul\":22931:23070   */\n      swap1\n      pop\n        /* \"#utility.yul\":22658:23077   */\n      swap2\n      swap1\n      pop\n      jump\t// out\n        /* \"#utility.yul\":23083:23252   */\n    tag_484:\n        /* \"#utility.yul\":23223:23244   */\n      0x42657420616d6f756e74206d69736d6174636800000000000000000000000000\n        /* \"#utility.yul\":23219:23220   */\n      0x00\n        /* \"#utility.yul\":23211:23217   */\n      dup3\n        /* \"#utility.yul\":23207:23221   */\n      add\n        /* \"#utility.yul\":23200:23245   */\n      mstore\n        /* \"#utility.yul\":23083:23252   */\n      pop\n      jump\t// out\n        /* \"#utility.yul\":23258:23624   */\n    tag_485:\n        /* \"#utility.yul\":23400:23403   */\n      0x00\n        /* \"#utility.yul\":23421:23488   */\n      tag_708\n        /* \"#utility.yul\":23485:23487   */\n      0x13\n        /* \"#utility.yul\":23480:23483   */\n      dup4\n        /* \"#utility.yul\":23421:23488   */\n      tag_418\n      jump\t// in\n    tag_708:\n        /* \"#utility.yul\":23414:23488   */\n      swap2\n      pop\n        /* \"#utility.yul\":23497:23590   */\n      tag_709\n        /* \"#utility.yul\":23586:23589   */\n      dup3\n        /* \"#utility.yul\":23497:23590   */\n      tag_484\n      jump\t// in\n    tag_709:\n        /* \"#utility.yul\":23615:23617   */\n      0x20\n        /* \"#utility.yul\":23610:23613   */\n      dup3\n        /* \"#utility.yul\":23606:23618   */\n      add\n        /* \"#utility.yul\":23599:23618   */\n      swap1\n      pop\n        /* \"#utility.yul\":23258:23624   */\n      swap2\n      swap1\n      pop\n      jump\t// out\n        /* \"#utility.yul\":23630:24049   */\n    tag_238:\n        /* \"#utility.yul\":23796:23800   */\n      0x00\n        /* \"#utility.yul\":23834:23836   */\n      0x20\n        /* \"#utility.yul\":23823:23832   */\n      dup3\n        /* \"#utility.yul\":23819:23837   */\n      add\n        /* \"#utility.yul\":23811:23837   */\n      swap1\n      pop\n        /* \"#utility.yul\":23883:23892   */\n      dup2\n        /* \"#utility.yul\":23877:23881   */\n      dup2\n        /* \"#utility.yul\":23873:23893   */\n      sub\n        /* \"#utility.yul\":23869:23870   */\n      0x00\n        /* \"#utility.yul\":23858:23867   */\n      dup4\n        /* \"#utility.yul\":23854:23871   */\n      add\n        /* \"#utility.yul\":23847:23894   */\n      mstore\n        /* \"#utility.yul\":23911:24042   */\n      tag_711\n        /* \"#utility.yul\":24037:24041   */\n      dup2\n        /* \"#utility.yul\":23911:24042   */\n      tag_485\n      jump\t// in\n    tag_711:\n        /* \"#utility.yul\":23903:24042   */\n      swap1\n      pop\n        /* \"#utility.yul\":23630:24049   */\n      swap2\n      swap1\n      pop\n      jump\t// out\n        /* \"#utility.yul\":24055:24288   */\n    tag_246:\n        /* \"#utility.yul\":24094:24097   */\n      0x00\n        /* \"#utility.yul\":24117:24141   */\n      tag_713\n        /* \"#utility.yul\":24135:24140   */\n      dup3\n        /* \"#utility.yul\":24117:24141   */\n      tag_422\n      jump\t// in\n    tag_713:\n        /* \"#utility.yul\":24108:24141   */\n      swap2\n      pop\n        /* \"#utility.yul\":24163:24229   */\n      0xffffffffffffffffffffffffffffffffffffffffffffffffffffffffffffffff\n        /* \"#utility.yul\":24156:24161   */\n      dup3\n        /* \"#utility.yul\":24153:24230   */\n      sub\n        /* \"#utility.yul\":24150:24253   */\n      tag_714\n      jumpi\n        /* \"#utility.yul\":24233:24251   */\n      tag_715\n      tag_470\n      jump\t// in\n    tag_715:\n        /* \"#utility.yul\":24150:24253   */\n    tag_714:\n        /* \"#utility.yul\":24280:24281   */\n      0x01\n        /* \"#utility.yul\":24273:24278   */\n      dup3\n        /* \"#utility.yul\":24269:24282   */\n      add\n        /* \"#utility.yul\":24262:24282   */\n      swap1\n      pop\n        /* \"#utility.yul\":24055:24288   */\n      swap2\n      swap1\n      pop\n      jump\t// out\n        /* \"#utility.yul\":24294:24469   */\n    tag_486:\n        /* \"#utility.yul\":24434:24461   */\n      0x4e6f206361726473206c65667420696e20746865206465636b00000000000000\n        /* \"#utility.yul\":24430:24431   */\n      0x00\n        /* \"#utility.yul\":24422:24428   */\n      dup3\n        /* \"#utility.yul\":24418:24432   */\n      add\n        /* \"#utility.yul\":24411:24462   */\n      mstore\n        /* \"#utility.yul\":24294:24469   */\n      pop\n      jump\t// out\n        /* \"#utility.yul\":24475:24841   */\n    tag_487:\n        /* \"#utility.yul\":24617:24620   */\n      0x00\n        /* \"#utility.yul\":24638:24705   */\n      tag_718\n        /* \"#utility.yul\":24702:24704   */\n      0x19\n        /* \"#utility.yul\":24697:24700   */\n      dup4\n        /* \"#utility.yul\":24638:24705   */\n      tag_418\n      jump\t// in\n    tag_718:\n        /* \"#utility.yul\":24631:24705   */\n      swap2\n      pop\n        /* \"#utility.yul\":24714:24807   */\n      tag_719\n        /* \"#utility.yul\":24803:24806   */\n      dup3\n        /* \"#utility.yul\":24714:24807   */\n      tag_486\n      jump\t// in\n    tag_719:\n        /* \"#utility.yul\":24832:24834   */\n      0x20\n        /* \"#utility.yul\":24827:24830   */\n      dup3\n        /* \"#utility.yul\":24823:24835   */\n      add\n        /* \"#utility.yul\":24816:24835   */\n      swap1\n      pop\n        /* \"#utility.yul\":24475:24841   */\n      swap2\n      swap1\n      pop\n      jump\t// out\n        /* \"#utility.yul\":24847:25266   */\n    tag_258:\n        /* \"#utility.yul\":25013:25017   */\n      0x00\n        /* \"#utility.yul\":25051:25053   */\n      0x20\n        /* \"#utility.yul\":25040:25049   */\n      dup3\n        /* \"#utility.yul\":25036:25054   */\n      add\n        /* \"#utility.yul\":25028:25054   */\n      swap1\n      pop\n        /* \"#utility.yul\":25100:25109   */\n      dup2\n        /* \"#utility.yul\":25094:25098   */\n      dup2\n        /* \"#utility.yul\":25090:25110   */\n      sub\n        /* \"#utility.yul\":25086:25087   */\n      0x00\n        /* \"#utility.yul\":25075:25084   */\n      dup4\n        /* \"#utility.yul\":25071:25088   */\n      add\n        /* \"#utility.yul\":25064:25111   */\n      mstore\n        /* \"#utility.yul\":25128:25259   */\n      tag_721\n        /* \"#utility.yul\":25254:25258   */\n      dup2\n        /* \"#utility.yul\":25128:25259   */\n      tag_487\n      jump\t// in\n    tag_721:\n        /* \"#utility.yul\":25120:25259   */\n      swap1\n      pop\n        /* \"#utility.yul\":24847:25266   */\n      swap2\n      swap1\n      pop\n      jump\t// out\n        /* \"#utility.yul\":25272:25466   */\n    tag_260:\n        /* \"#utility.yul\":25312:25316   */\n      0x00\n        /* \"#utility.yul\":25332:25352   */\n      tag_723\n        /* \"#utility.yul\":25350:25351   */\n      dup3\n        /* \"#utility.yul\":25332:25352   */\n      tag_422\n      jump\t// in\n    tag_723:\n        /* \"#utility.yul\":25327:25352   */\n      swap2\n      pop\n        /* \"#utility.yul\":25366:25386   */\n      tag_724\n        /* \"#utility.yul\":25384:25385   */\n      dup4\n        /* \"#utility.yul\":25366:25386   */\n      tag_422\n      jump\t// in\n    tag_724:\n        /* \"#utility.yul\":25361:25386   */\n      swap3\n      pop\n        /* \"#utility.yul\":25410:25411   */\n      dup3\n        /* \"#utility.yul\":25407:25408   */\n      dup3\n        /* \"#utility.yul\":25403:25412   */\n      sub\n        /* \"#utility.yul\":25395:25412   */\n      swap1\n      pop\n        /* \"#utility.yul\":25434:25435   */\n      dup2\n        /* \"#utility.yul\":25428:25432   */\n      dup2\n        /* \"#utility.yul\":25425:25436   */\n      gt\n        /* \"#utility.yul\":25422:25459   */\n      iszero\n      tag_725\n      jumpi\n        /* \"#utility.yul\":25439:25457   */\n      tag_726\n      tag_470\n      jump\t// in\n    tag_726:\n        /* \"#utility.yul\":25422:25459   */\n    tag_725:\n        /* \"#utility.yul\":25272:25466   */\n      swap3\n      swap2\n      pop\n      pop\n      jump\t// out\n        /* \"#utility.yul\":25472:25652   */\n    tag_266:\n        /* \"#utility.yul\":25520:25597   */\n      0x4e487b7100000000000000000000000000000000000000000000000000000000\n        /* \"#utility.yul\":25517:25518   */\n      0x00\n        /* \"#utility.yul\":25510:25598   */\n      mstore\n        /* \"#utility.yul\":25617:25621   */\n      0x31\n        /* \"#utility.yul\":25614:25615   */\n      0x04\n        /* \"#utility.yul\":25607:25622   */\n      mstore\n        /* \"#utility.yul\":25641:25645   */\n      0x24\n        /* \"#utility.yul\":25638:25639   */\n      0x00\n        /* \"#utility.yul\":25631:25646   */\n      revert\n        /* \"#utility.yul\":25658:25838   */\n    tag_488:\n        /* \"#utility.yul\":25706:25783   */\n      0x4e487b7100000000000000000000000000000000000000000000000000000000\n        /* \"#utility.yul\":25703:25704   */\n      0x00\n        /* \"#utility.yul\":25696:25784   */\n      mstore\n        /* \"#utility.yul\":25803:25807   */\n      0x12\n        /* \"#utility.yul\":25800:25801   */\n      0x04\n        /* \"#utility.yul\":25793:25808   */\n      mstore\n        /* \"#utility.yul\":25827:25831   */\n      0x24\n        /* \"#utility.yul\":25824:25825   */\n      0x00\n        /* \"#utility.yul\":25817:25832   */\n      revert\n        /* \"#utility.yul\":25844:26014   */\n    tag_275:\n        /* \"#utility.yul\":25874:25875   */\n      0x00\n        /* \"#utility.yul\":25891:25909   */\n      tag_730\n        /* \"#utility.yul\":25907:25908   */\n      dup3\n        /* \"#utility.yul\":25891:25909   */\n      tag_453\n      jump\t// in\n    tag_730:\n        /* \"#utility.yul\":25886:25909   */\n      swap2\n      pop\n        /* \"#utility.yul\":25923:25941   */\n      tag_731\n        /* \"#utility.yul\":25939:25940   */\n      dup4\n        /* \"#utility.yul\":25923:25941   */\n      tag_453\n      jump\t// in\n    tag_731:\n        /* \"#utility.yul\":25918:25941   */\n      swap3\n      pop\n        /* \"#utility.yul\":25960:25961   */\n      dup3\n        /* \"#utility.yul\":25950:25985   */\n      tag_732\n      jumpi\n        /* \"#utility.yul\":25965:25983   */\n      tag_733\n      tag_488\n      jump\t// in\n    tag_733:\n        /* \"#utility.yul\":25950:25985   */\n    tag_732:\n        /* \"#utility.yul\":26006:26007   */\n      dup3\n        /* \"#utility.yul\":26003:26004   */\n      dup3\n        /* \"#utility.yul\":25999:26008   */\n      mod\n        /* \"#utility.yul\":25994:26008   */\n      swap1\n      pop\n        /* \"#utility.yul\":25844:26014   */\n      swap3\n      swap2\n      pop\n      pop\n      jump\t// out\n        /* \"#utility.yul\":26020:26187   */\n    tag_280:\n        /* \"#utility.yul\":26057:26060   */\n      0x00\n        /* \"#utility.yul\":26080:26102   */\n      tag_735\n        /* \"#utility.yul\":26096:26101   */\n      dup3\n        /* \"#utility.yul\":26080:26102   */\n      tag_453\n      jump\t// in\n    tag_735:\n        /* \"#utility.yul\":26071:26102   */\n      swap2\n      pop\n        /* \"#utility.yul\":26124:26128   */\n      0xff\n        /* \"#utility.yul\":26117:26122   */\n      dup3\n        /* \"#utility.yul\":26114:26129   */\n      sub\n        /* \"#utility.yul\":26111:26152   */\n      tag_736\n      jumpi\n        /* \"#utility.yul\":26132:26150   */\n      tag_737\n      tag_470\n      jump\t// in\n    tag_737:\n        /* \"#utility.yul\":26111:26152   */\n    tag_736:\n        /* \"#utility.yul\":26179:26180   */\n      0x01\n        /* \"#utility.yul\":26172:26177   */\n      dup3\n        /* \"#utility.yul\":26168:26181   */\n      add\n        /* \"#utility.yul\":26161:26181   */\n      swap1\n      pop\n        /* \"#utility.yul\":26020:26187   */\n      swap2\n      swap1\n      pop\n      jump\t// out\n        /* \"#utility.yul\":26193:26381   */\n    tag_282:\n        /* \"#utility.yul\":26231:26234   */\n      0x00\n        /* \"#utility.yul\":26250:26268   */\n      tag_739\n        /* \"#utility.yul\":26266:26267   */\n      dup3\n        /* \"#utility.yul\":26250:26268   */\n      tag_453\n      jump\t// in\n    tag_739:\n        /* \"#utility.yul\":26245:26268   */\n      swap2\n      pop\n        /* \"#utility.yul\":26282:26300   */\n      tag_740\n        /* \"#utility.yul\":26298:26299   */\n      dup4\n        /* \"#utility.yul\":26282:26300   */\n      tag_453\n      jump\t// in\n    tag_740:\n        /* \"#utility.yul\":26277:26300   */\n      swap3\n      pop\n        /* \"#utility.yul\":26323:26324   */\n      dup3\n        /* \"#utility.yul\":26320:26321   */\n      dup3\n        /* \"#utility.yul\":26316:26325   */\n      add\n        /* \"#utility.yul\":26309:26325   */\n      swap1\n      pop\n        /* \"#utility.yul\":26346:26350   */\n      0xff\n        /* \"#utility.yul\":26341:26344   */\n      dup2\n        /* \"#utility.yul\":26338:26351   */\n      gt\n        /* \"#utility.yul\":26335:26374   */\n      iszero\n      tag_741\n      jumpi\n        /* \"#utility.yul\":26354:26372   */\n      tag_742\n      tag_470\n      jump\t// in\n    tag_742:\n        /* \"#utility.yul\":26335:26374   */\n    tag_741:\n        /* \"#utility.yul\":26193:26381   */\n      swap3\n      swap2\n      pop\n      pop\n      jump\t// out\n        /* \"#utility.yul\":26387:26554   */\n    tag_288:\n        /* \"#utility.yul\":26424:26427   */\n      0x00\n        /* \"#utility.yul\":26447:26469   */\n      tag_744\n        /* \"#utility.yul\":26463:26468   */\n      dup3\n        /* \"#utility.yul\":26447:26469   */\n      tag_453\n      jump\t// in\n    tag_744:\n        /* \"#utility.yul\":26438:26469   */\n      swap2\n      pop\n        /* \"#utility.yul\":26491:26495   */\n      0x00\n        /* \"#utility.yul\":26484:26489   */\n      dup3\n        /* \"#utility.yul\":26481:26496   */\n      sub\n        /* \"#utility.yul\":26478:26519   */\n      tag_745\n      jumpi\n        /* \"#utility.yul\":26499:26517   */\n      tag_746\n      tag_470\n      jump\t// in\n    tag_746:\n        /* \"#utility.yul\":26478:26519   */\n    tag_745:\n        /* \"#utility.yul\":26546:26547   */\n      0x01\n        /* \"#utility.yul\":26539:26544   */\n      dup3\n        /* \"#utility.yul\":26535:26548   */\n      sub\n        /* \"#utility.yul\":26528:26548   */\n      swap1\n      pop\n        /* \"#utility.yul\":26387:26554   */\n      swap2\n      swap1\n      pop\n      jump\t// out\n        /* \"#utility.yul\":26560:26995   */\n    tag_307:\n        /* \"#utility.yul\":26740:26743   */\n      0x00\n        /* \"#utility.yul\":26762:26857   */\n      tag_748\n        /* \"#utility.yul\":26853:26856   */\n      dup3\n        /* \"#utility.yul\":26844:26850   */\n      dup6\n        /* \"#utility.yul\":26762:26857   */\n      tag_477\n      jump\t// in\n    tag_748:\n        /* \"#utility.yul\":26755:26857   */\n      swap2\n      pop\n        /* \"#utility.yul\":26874:26969   */\n      tag_749\n        /* \"#utility.yul\":26965:26968   */\n      dup3\n        /* \"#utility.yul\":26956:26962   */\n      dup5\n        /* \"#utility.yul\":26874:26969   */\n      tag_477\n      jump\t// in\n    tag_749:\n        /* \"#utility.yul\":26867:26969   */\n      swap2\n      pop\n        /* \"#utility.yul\":26986:26989   */\n      dup2\n        /* \"#utility.yul\":26979:26989   */\n      swap1\n      pop\n        /* \"#utility.yul\":26560:26995   */\n      swap4\n      swap3\n      pop\n      pop\n      pop\n      jump\t// out\n        /* \"#utility.yul\":27001:27153   */\n    tag_489:\n        /* \"#utility.yul\":27141:27145   */\n      0x2c20000000000000000000000000000000000000000000000000000000000000\n        /* \"#utility.yul\":27137:27138   */\n      0x00\n        /* \"#utility.yul\":27129:27135   */\n      dup3\n        /* \"#utility.yul\":27125:27139   */\n      add\n        /* \"#utility.yul\":27118:27146   */\n      mstore\n        /* \"#utility.yul\":27001:27153   */\n      pop\n      jump\t// out\n        /* \"#utility.yul\":27159:27559   */\n    tag_490:\n        /* \"#utility.yul\":27319:27322   */\n      0x00\n        /* \"#utility.yul\":27340:27424   */\n      tag_752\n        /* \"#utility.yul\":27422:27423   */\n      0x02\n        /* \"#utility.yul\":27417:27420   */\n      dup4\n        /* \"#utility.yul\":27340:27424   */\n      tag_474\n      jump\t// in\n    tag_752:\n        /* \"#utility.yul\":27333:27424   */\n      swap2\n      pop\n        /* \"#utility.yul\":27433:27526   */\n      tag_753\n        /* \"#utility.yul\":27522:27525   */\n      dup3\n        /* \"#utility.yul\":27433:27526   */\n      tag_489\n      jump\t// in\n    tag_753:\n        /* \"#utility.yul\":27551:27552   */\n      0x02\n        /* \"#utility.yul\":27546:27549   */\n      dup3\n        /* \"#utility.yul\":27542:27553   */\n      add\n        /* \"#utility.yul\":27535:27553   */\n      swap1\n      pop\n        /* \"#utility.yul\":27159:27559   */\n      swap2\n      swap1\n      pop\n      jump\t// out\n        /* \"#utility.yul\":27565:28106   */\n    tag_311:\n        /* \"#utility.yul\":27798:27801   */\n      0x00\n        /* \"#utility.yul\":27820:27915   */\n      tag_755\n        /* \"#utility.yul\":27911:27914   */\n      dup3\n        /* \"#utility.yul\":27902:27908   */\n      dup5\n        /* \"#utility.yul\":27820:27915   */\n      tag_477\n      jump\t// in\n    tag_755:\n        /* \"#utility.yul\":27813:27915   */\n      swap2\n      pop\n        /* \"#utility.yul\":27932:28080   */\n      tag_756\n        /* \"#utility.yul\":28076:28079   */\n      dup3\n        /* \"#utility.yul\":27932:28080   */\n      tag_490\n      jump\t// in\n    tag_756:\n        /* \"#utility.yul\":27925:28080   */\n      swap2\n      pop\n        /* \"#utility.yul\":28097:28100   */\n      dup2\n        /* \"#utility.yul\":28090:28100   */\n      swap1\n      pop\n        /* \"#utility.yul\":27565:28106   */\n      swap3\n      swap2\n      pop\n      pop\n      jump\t// out\n        /* \"#utility.yul\":28112:28653   */\n    tag_334:\n        /* \"#utility.yul\":28345:28348   */\n      0x00\n        /* \"#utility.yul\":28367:28515   */\n      tag_758\n        /* \"#utility.yul\":28511:28514   */\n      dup3\n        /* \"#utility.yul\":28367:28515   */\n      tag_476\n      jump\t// in\n    tag_758:\n        /* \"#utility.yul\":28360:28515   */\n      swap2\n      pop\n        /* \"#utility.yul\":28532:28627   */\n      tag_759\n        /* \"#utility.yul\":28623:28626   */\n      dup3\n        /* \"#utility.yul\":28614:28620   */\n      dup5\n        /* \"#utility.yul\":28532:28627   */\n      tag_477\n      jump\t// in\n    tag_759:\n        /* \"#utility.yul\":28525:28627   */\n      swap2\n      pop\n        /* \"#utility.yul\":28644:28647   */\n      dup2\n        /* \"#utility.yul\":28637:28647   */\n      swap1\n      pop\n        /* \"#utility.yul\":28112:28653   */\n      swap3\n      swap2\n      pop\n      pop\n      jump\t// out\n        /* \"#utility.yul\":28659:29360   */\n    tag_338:\n        /* \"#utility.yul\":28940:28943   */\n      0x00\n        /* \"#utility.yul\":28962:29057   */\n      tag_761\n        /* \"#utility.yul\":29053:29056   */\n      dup3\n        /* \"#utility.yul\":29044:29050   */\n      dup6\n        /* \"#utility.yul\":28962:29057   */\n      tag_477\n      jump\t// in\n    tag_761:\n        /* \"#utility.yul\":28955:29057   */\n      swap2\n      pop\n        /* \"#utility.yul\":29074:29222   */\n      tag_762\n        /* \"#utility.yul\":29218:29221   */\n      dup3\n        /* \"#utility.yul\":29074:29222   */\n      tag_490\n      jump\t// in\n    tag_762:\n        /* \"#utility.yul\":29067:29222   */\n      swap2\n      pop\n        /* \"#utility.yul\":29239:29334   */\n      tag_763\n        /* \"#utility.yul\":29330:29333   */\n      dup3\n        /* \"#utility.yul\":29321:29327   */\n      dup5\n        /* \"#utility.yul\":29239:29334   */\n      tag_477\n      jump\t// in\n    tag_763:\n        /* \"#utility.yul\":29232:29334   */\n      swap2\n      pop\n        /* \"#utility.yul\":29351:29354   */\n      dup2\n        /* \"#utility.yul\":29344:29354   */\n      swap1\n      pop\n        /* \"#utility.yul\":28659:29360   */\n      swap4\n      swap3\n      pop\n      pop\n      pop\n      jump\t// out\n        /* \"#utility.yul\":29366:29551   */\n    tag_352:\n        /* \"#utility.yul\":29406:29407   */\n      0x00\n        /* \"#utility.yul\":29423:29443   */\n      tag_765\n        /* \"#utility.yul\":29441:29442   */\n      dup3\n        /* \"#utility.yul\":29423:29443   */\n      tag_422\n      jump\t// in\n    tag_765:\n        /* \"#utility.yul\":29418:29443   */\n      swap2\n      pop\n        /* \"#utility.yul\":29457:29477   */\n      tag_766\n        /* \"#utility.yul\":29475:29476   */\n      dup4\n        /* \"#utility.yul\":29457:29477   */\n      tag_422\n      jump\t// in\n    tag_766:\n        /* \"#utility.yul\":29452:29477   */\n      swap3\n      pop\n        /* \"#utility.yul\":29496:29497   */\n      dup3\n        /* \"#utility.yul\":29486:29521   */\n      tag_767\n      jumpi\n        /* \"#utility.yul\":29501:29519   */\n      tag_768\n      tag_488\n      jump\t// in\n    tag_768:\n        /* \"#utility.yul\":29486:29521   */\n    tag_767:\n        /* \"#utility.yul\":29543:29544   */\n      dup3\n        /* \"#utility.yul\":29540:29541   */\n      dup3\n        /* \"#utility.yul\":29536:29545   */\n      div\n        /* \"#utility.yul\":29531:29545   */\n      swap1\n      pop\n        /* \"#utility.yul\":29366:29551   */\n      swap3\n      swap2\n      pop\n      pop\n      jump\t// out\n        /* \"#utility.yul\":29557:29733   */\n    tag_359:\n        /* \"#utility.yul\":29589:29590   */\n      0x00\n        /* \"#utility.yul\":29606:29626   */\n      tag_770\n        /* \"#utility.yul\":29624:29625   */\n      dup3\n        /* \"#utility.yul\":29606:29626   */\n      tag_422\n      jump\t// in\n    tag_770:\n        /* \"#utility.yul\":29601:29626   */\n      swap2\n      pop\n        /* \"#utility.yul\":29640:29660   */\n      tag_771\n        /* \"#utility.yul\":29658:29659   */\n      dup4\n        /* \"#utility.yul\":29640:29660   */\n      tag_422\n      jump\t// in\n    tag_771:\n        /* \"#utility.yul\":29635:29660   */\n      swap3\n      pop\n        /* \"#utility.yul\":29679:29680   */\n      dup3\n        /* \"#utility.yul\":29669:29704   */\n      tag_772\n      jumpi\n        /* \"#utility.yul\":29684:29702   */\n      tag_773\n      tag_488\n      jump\t// in\n    tag_773:\n        /* \"#utility.yul\":29669:29704   */\n    tag_772:\n        /* \"#utility.yul\":29725:29726   */\n      dup3\n        /* \"#utility.yul\":29722:29723   */\n      dup3\n        /* \"#utility.yul\":29718:29727   */\n      mod\n        /* \"#utility.yul\":29713:29727   */\n      swap1\n      pop\n        /* \"#utility.yul\":29557:29733   */\n      swap3\n      swap2\n      pop\n      pop\n      jump\t// out\n        /* \"#utility.yul\":29739:29910   */\n    tag_362:\n        /* \"#utility.yul\":29778:29781   */\n      0x00\n        /* \"#utility.yul\":29801:29825   */\n      tag_775\n        /* \"#utility.yul\":29819:29824   */\n      dup3\n        /* \"#utility.yul\":29801:29825   */\n      tag_422\n      jump\t// in\n    tag_775:\n        /* \"#utility.yul\":29792:29825   */\n      swap2\n      pop\n        /* \"#utility.yul\":29847:29851   */\n      0x00\n        /* \"#utility.yul\":29840:29845   */\n      dup3\n        /* \"#utility.yul\":29837:29852   */\n      sub\n        /* \"#utility.yul\":29834:29875   */\n      tag_776\n      jumpi\n        /* \"#utility.yul\":29855:29873   */\n      tag_777\n      tag_470\n      jump\t// in\n    tag_777:\n        /* \"#utility.yul\":29834:29875   */\n    tag_776:\n        /* \"#utility.yul\":29902:29903   */\n      0x01\n        /* \"#utility.yul\":29895:29900   */\n      dup3\n        /* \"#utility.yul\":29891:29904   */\n      sub\n        /* \"#utility.yul\":29884:29904   */\n      swap1\n      pop\n        /* \"#utility.yul\":29739:29910   */\n      swap2\n      swap1\n      pop\n      jump\t// out\n        /* \"#utility.yul\":29916:29995   */\n    tag_491:\n        /* \"#utility.yul\":29955:29962   */\n      0x00\n        /* \"#utility.yul\":29984:29989   */\n      dup2\n        /* \"#utility.yul\":29973:29989   */\n      swap1\n      pop\n        /* \"#utility.yul\":29916:29995   */\n      swap2\n      swap1\n      pop\n      jump\t// out\n        /* \"#utility.yul\":30001:30158   */\n    tag_492:\n        /* \"#utility.yul\":30106:30151   */\n      tag_780\n        /* \"#utility.yul\":30126:30150   */\n      tag_781\n        /* \"#utility.yul\":30144:30149   */\n      dup3\n        /* \"#utility.yul\":30126:30150   */\n      tag_422\n      jump\t// in\n    tag_781:\n        /* \"#utility.yul\":30106:30151   */\n      tag_491\n      jump\t// in\n    tag_780:\n        /* \"#utility.yul\":30101:30104   */\n      dup3\n        /* \"#utility.yul\":30094:30152   */\n      mstore\n        /* \"#utility.yul\":30001:30158   */\n      pop\n      pop\n      jump\t// out\n        /* \"#utility.yul\":30164:30241   */\n    tag_493:\n        /* \"#utility.yul\":30201:30208   */\n      0x00\n        /* \"#utility.yul\":30230:30235   */\n      dup2\n        /* \"#utility.yul\":30219:30235   */\n      swap1\n      pop\n        /* \"#utility.yul\":30164:30241   */\n      swap2\n      swap1\n      pop\n      jump\t// out\n        /* \"#utility.yul\":30247:30326   */\n    tag_494:\n        /* \"#utility.yul\":30286:30293   */\n      0x00\n        /* \"#utility.yul\":30315:30320   */\n      dup2\n        /* \"#utility.yul\":30304:30320   */\n      swap1\n      pop\n        /* \"#utility.yul\":30247:30326   */\n      swap2\n      swap1\n      pop\n      jump\t// out\n        /* \"#utility.yul\":30332:30489   */\n    tag_495:\n        /* \"#utility.yul\":30437:30482   */\n      tag_785\n        /* \"#utility.yul\":30457:30481   */\n      tag_786\n        /* \"#utility.yul\":30475:30480   */\n      dup3\n        /* \"#utility.yul\":30457:30481   */\n      tag_493\n      jump\t// in\n    tag_786:\n        /* \"#utility.yul\":30437:30482   */\n      tag_494\n      jump\t// in\n    tag_785:\n        /* \"#utility.yul\":30432:30435   */\n      dup3\n        /* \"#utility.yul\":30425:30483   */\n      mstore\n        /* \"#utility.yul\":30332:30489   */\n      pop\n      pop\n      jump\t// out\n        /* \"#utility.yul\":30495:31033   */\n    tag_369:\n        /* \"#utility.yul\":30663:30666   */\n      0x00\n        /* \"#utility.yul\":30678:30753   */\n      tag_788\n        /* \"#utility.yul\":30749:30752   */\n      dup3\n        /* \"#utility.yul\":30740:30746   */\n      dup7\n        /* \"#utility.yul\":30678:30753   */\n      tag_492\n      jump\t// in\n    tag_788:\n        /* \"#utility.yul\":30778:30780   */\n      0x20\n        /* \"#utility.yul\":30773:30776   */\n      dup3\n        /* \"#utility.yul\":30769:30781   */\n      add\n        /* \"#utility.yul\":30762:30781   */\n      swap2\n      pop\n        /* \"#utility.yul\":30791:30866   */\n      tag_789\n        /* \"#utility.yul\":30862:30865   */\n      dup3\n        /* \"#utility.yul\":30853:30859   */\n      dup6\n        /* \"#utility.yul\":30791:30866   */\n      tag_492\n      jump\t// in\n    tag_789:\n        /* \"#utility.yul\":30891:30893   */\n      0x20\n        /* \"#utility.yul\":30886:30889   */\n      dup3\n        /* \"#utility.yul\":30882:30894   */\n      add\n        /* \"#utility.yul\":30875:30894   */\n      swap2\n      pop\n        /* \"#utility.yul\":30904:30979   */\n      tag_790\n        /* \"#utility.yul\":30975:30978   */\n      dup3\n        /* \"#utility.yul\":30966:30972   */\n      dup5\n        /* \"#utility.yul\":30904:30979   */\n      tag_495\n      jump\t// in\n    tag_790:\n        /* \"#utility.yul\":31004:31006   */\n      0x20\n        /* \"#utility.yul\":30999:31002   */\n      dup3\n        /* \"#utility.yul\":30995:31007   */\n      add\n        /* \"#utility.yul\":30988:31007   */\n      swap2\n      pop\n        /* \"#utility.yul\":31024:31027   */\n      dup2\n        /* \"#utility.yul\":31017:31027   */\n      swap1\n      pop\n        /* \"#utility.yul\":30495:31033   */\n      swap5\n      swap4\n      pop\n      pop\n      pop\n      pop\n      jump\t// out\n        /* \"#utility.yul\":31039:31295   */\n    tag_387:\n        /* \"#utility.yul\":31151:31154   */\n      0x00\n        /* \"#utility.yul\":31166:31241   */\n      tag_792\n        /* \"#utility.yul\":31237:31240   */\n      dup3\n        /* \"#utility.yul\":31228:31234   */\n      dup5\n        /* \"#utility.yul\":31166:31241   */\n      tag_492\n      jump\t// in\n    tag_792:\n        /* \"#utility.yul\":31266:31268   */\n      0x20\n        /* \"#utility.yul\":31261:31264   */\n      dup3\n        /* \"#utility.yul\":31257:31269   */\n      add\n        /* \"#utility.yul\":31250:31269   */\n      swap2\n      pop\n        /* \"#utility.yul\":31286:31289   */\n      dup2\n        /* \"#utility.yul\":31279:31289   */\n      swap1\n      pop\n        /* \"#utility.yul\":31039:31295   */\n      swap3\n      swap2\n      pop\n      pop\n      jump\t// out\n\n    auxdata: 0xa2646970667358221220fd9f9e09ade53be38e81aca4ff80cdfa3e640af65c8d5068fdf0382c9686b5e664736f6c634300081a0033\n}\n",
				"bytecode": {
					"linkReferences": {},
					"object": "608060405261001261005760201b60201c565b3360045f6101000a81548173ffffffffffffffffffffffffffffffffffffffff021916908373ffffffffffffffffffffffffffffffffffffffff16021790555061016d565b5f8061006391906100cc565b5f600190505b60348160ff16116100c9575f81908060018154018082558091505060019003905f5260205f2090602091828204019190069091909190916101000a81548160ff021916908360ff16021790555080806100c190610145565b915050610069565b50565b5080545f8255601f0160209004905f5260205f20908101906100ee91906100f1565b50565b5b80821115610108575f815f9055506001016100f2565b5090565b7f4e487b71000000000000000000000000000000000000000000000000000000005f52601160045260245ffd5b5f60ff82169050919050565b5f61014f82610139565b915060ff82036101625761016161010c565b5b600182019050919050565b612f358061017a5f395ff3fe608060405260043610610085575f3560e01c806396b76c231161005857806396b76c231461011e5780639951a41714610146578063d0e514fa14610170578063d65ab5f21461019a578063efaa55a0146101b057610085565b806314106ad6146100895780632ae3594a146100b3578063302bcc57146100c957806333b16d93146100f3575b5f80fd5b348015610094575f80fd5b5061009d6101cc565b6040516100aa9190612024565b60405180910390f35b3480156100be575f80fd5b506100c7610258565b005b3480156100d4575f80fd5b506100dd610536565b6040516100ea919061205c565b60405180910390f35b3480156100fe575f80fd5b5061010761053c565b60405161011592919061215c565b60405180910390f35b348015610129575f80fd5b50610144600480360381019061013f91906121bf565b610c54565b005b348015610151575f80fd5b5061015a610d40565b6040516101679190612024565b60405180910390f35b34801561017b575f80fd5b50610184610dcc565b60405161019191906122ed565b60405180910390f35b3480156101a5575f80fd5b506101ae61101c565b005b6101ca60048036038101906101c591906121bf565b6111a7565b005b600780546101d99061233a565b80601f01602080910402602001604051908101604052809291908181526020018280546102059061233a565b80156102505780601f1061022757610100808354040283529160200191610250565b820191905f5260205f20905b81548152906001019060200180831161023357829003601f168201915b505050505081565b5f610262336113a6565b90507fffffffffffffffffffffffffffffffffffffffffffffffffffffffffffffffff81036102c6576040517f08c379a00000000000000000000000000000000000000000000000000000000081526004016102bd906123b4565b60405180910390fd5b600181815481106102da576102d96123d2565b5b905f5260205f2090600402016003015f9054906101000a900460ff16610335576040517f08c379a000000000000000000000000000000000000000000000000000000000815260040161032c90612449565b60405180910390fd5b60018181548110610349576103486123d2565b5b905f5260205f20906004020160030160019054906101000a900460ff16156103a6576040517f08c379a000000000000000000000000000000000000000000000000000000000815260040161039d906124b1565b60405180910390fd5b5f6103af61146d565b9050600182815481106103c5576103c46123d2565b5b905f5260205f20906004020160020181908060018154018082558091505060019003905f5260205f2090602091828204019190069091909190916101000a81548160ff021916908360ff16021790555060156104b36001848154811061042e5761042d6123d2565b5b905f5260205f2090600402016002018054806020026020016040519081016040528092919081815260200182805480156104a957602002820191905f5260205f20905f905b82829054906101000a900460ff1660ff16815260200190600101906020825f010492830192600103820291508084116104735790505b5050505050611538565b60ff1611156105325760018083815481106104d1576104d06123d2565b5b905f5260205f20906004020160030160016101000a81548160ff0219169083151502179055505f6001838154811061050c5761050b6123d2565b5b905f5260205f2090600402016003015f6101000a81548160ff0219169083151502179055505b5050565b60025481565b6060805f6105bb60038054806020026020016040519081016040528092919081815260200182805480156105b157602002820191905f5260205f20905f905b82829054906101000a900460ff1660ff16815260200190600101906020825f0104928301926001038202915080841161057b5790505b5050505050611538565b905060065f6105ca9190611dbe565b5b60118160ff1610156106df575f6105e061146d565b9050600381908060018154018082558091505060019003905f5260205f2090602091828204019190069091909190916101000a81548160ff021916908360ff1602179055506106a0600380548060200260200160405190810160405280929190818152602001828054801561069657602002820191905f5260205f20905f905b82829054906101000a900460ff1660ff16815260200190600101906020825f010492830192600103820291508084116106605790505b5050505050611538565b91507f74719e1845aac9a5b808b73f76f15e0ded61fd1f03fc0cd802e98e8e1d2299fe816040516106d191906124ea565b60405180910390a1506105cb565b600360059080546106f1929190611ddc565b506107a3600580548060200260200160405190810160405280929190818152602001828054801561076357602002820191905f5260205f20905f905b82829054906101000a900460ff1660ff16815260200190600101906020825f0104928301926001038202915080841161072d5790505b50505050506040518060400160405280601081526020017f4c6173742042616e6b2048616e643a2000000000000000000000000000000000815250611612565b600790816107b191906126cd565b505f5b600180549050811015610a94575f61085e600183815481106107d9576107d86123d2565b5b905f5260205f20906004020160020180548060200260200160405190810160405280929190818152602001828054801561085457602002820191905f5260205f20905f905b82829054906101000a900460ff1660ff16815260200190600101906020825f0104928301926001038202915080841161081e5790505b5050505050611538565b905060018281548110610874576108736123d2565b5b905f5260205f20906004020160030160019054906101000a900460ff161580156108b157508260ff168160ff1611806108b0575060158360ff16115b5b15610a8657600182815481106108ca576108c96123d2565b5b905f5260205f2090600402015f015f9054906101000a900473ffffffffffffffffffffffffffffffffffffffff1673ffffffffffffffffffffffffffffffffffffffff166108fc600260018581548110610927576109266123d2565b5b905f5260205f2090600402016001015461094191906127c9565b90811502906040515f60405180830381858888f19350505050158015610969573d5f803e3d5ffd5b506006600183815481106109805761097f6123d2565b5b905f5260205f2090600402015f015f9054906101000a900473ffffffffffffffffffffffffffffffffffffffff16908060018154018082558091505060019003905f5260205f20015f9091909190916101000a81548173ffffffffffffffffffffffffffffffffffffffff021916908373ffffffffffffffffffffffffffffffffffffffff1602179055507fe9b0a743935d9854ac97b39452742c48f05e62b1ee44825328d7bc53901b03b160018381548110610a4057610a3f6123d2565b5b905f5260205f2090600402015f015f9054906101000a900473ffffffffffffffffffffffffffffffffffffffff1682604051610a7d929190612819565b60405180910390a15b5080806001019150506107b4565b50610b216006805480602002602001604051908101604052809291908181526020018280548015610b1757602002820191905f5260205f20905b815f9054906101000a900473ffffffffffffffffffffffffffffffffffffffff1673ffffffffffffffffffffffffffffffffffffffff1681526020019060010190808311610ace575b5050505050611806565b60089081610b2f91906126cd565b50610b38611a45565b60076006818054610b489061233a565b80601f0160208091040260200160405190810160405280929190818152602001828054610b749061233a565b8015610bbf5780601f10610b9657610100808354040283529160200191610bbf565b820191905f5260205f20905b815481529060010190602001808311610ba257829003601f168201915b5050505050915080805480602002602001604051908101604052809291908181526020018280548015610c4457602002820191905f5260205f20905b815f9054906101000a900473ffffffffffffffffffffffffffffffffffffffff1673ffffffffffffffffffffffffffffffffffffffff1681526020019060010190808311610bfb575b5050505050905092509250509091565b60018181548110610c6857610c676123d2565b5b905f5260205f2090600402015f015f9054906101000a900473ffffffffffffffffffffffffffffffffffffffff1673ffffffffffffffffffffffffffffffffffffffff163373ffffffffffffffffffffffffffffffffffffffff1614610d03576040517f08c379a0000000000000000000000000000000000000000000000000000000008152600401610cfa9061288a565b60405180910390fd5b5f60018281548110610d1857610d176123d2565b5b905f5260205f2090600402016003015f6101000a81548160ff02191690831515021790555050565b60088054610d4d9061233a565b80601f0160208091040260200160405190810160405280929190818152602001828054610d799061233a565b8015610dc45780601f10610d9b57610100808354040283529160200191610dc4565b820191905f5260205f20905b815481529060010190602001808311610da757829003601f168201915b505050505081565b60605f60018080549050610de091906128a8565b67ffffffffffffffff811115610df957610df8612503565b5b604051908082528060200260200182016040528015610e2c57816020015b6060815260200190600190039081610e175790505b509050610ee06003805480602002602001604051908101604052809291908181526020018280548015610ea057602002820191905f5260205f20905f905b82829054906101000a900460ff1660ff16815260200190600101906020825f01049283019260010382029150808411610e6a5790505b50505050506040518060400160405280600681526020017f42616e6b3a200000000000000000000000000000000000000000000000000000815250611612565b815f81518110610ef357610ef26123d2565b5b60200260200101819052505f5b60018054905081101561101457610fdd60018281548110610f2457610f236123d2565b5b905f5260205f209060040201600201805480602002602001604051908101604052809291908181526020018280548015610f9f57602002820191905f5260205f20905f905b82829054906101000a900460ff1660ff16815260200190600101906020825f01049283019260010382029150808411610f695790505b5050505050610fb9600184610fb491906128a8565b611a70565b604051602001610fc991906129a9565b604051602081830303815290604052611612565b82600183610feb91906128a8565b81518110610ffc57610ffb6123d2565b5b60200260200101819052508080600101915050610f00565b508091505090565b5f60025411611060576040517f08c379a000000000000000000000000000000000000000000000000000000000815260040161105790612a1f565b60405180910390fd5b611068611bce565b5f5b60018054905081101561115a576001818154811061108b5761108a6123d2565b5b905f5260205f2090600402016002016110a261146d565b908060018154018082558091505060019003905f5260205f2090602091828204019190069091909190916101000a81548160ff021916908360ff160217905550600181815481106110f6576110f56123d2565b5b905f5260205f20906004020160020161110d61146d565b908060018154018082558091505060019003905f5260205f2090602091828204019190069091909190916101000a81548160ff021916908360ff160217905550808060010191505061106a565b50600361116561146d565b908060018154018082558091505060019003905f5260205f2090602091828204019190069091909190916101000a81548160ff021916908360ff160217905550565b6004600254106111ec576040517f08c379a00000000000000000000000000000000000000000000000000000000081526004016111e390612a87565b60405180910390fd5b80341461122e576040517f08c379a000000000000000000000000000000000000000000000000000000000815260040161122590612aef565b60405180910390fd5b60016040518060a001604052803373ffffffffffffffffffffffffffffffffffffffff1681526020018381526020015f67ffffffffffffffff81111561127757611276612503565b5b6040519080825280602002602001820160405280156112a55781602001602082028036833780820191505090505b5081526020016001151581526020015f1515815250908060018154018082558091505060019003905f5260205f2090600402015f909190919091505f820151815f015f6101000a81548173ffffffffffffffffffffffffffffffffffffffff021916908373ffffffffffffffffffffffffffffffffffffffff16021790555060208201518160010155604082015181600201908051906020019061134a929190611e38565b506060820151816003015f6101000a81548160ff02191690831515021790555060808201518160030160016101000a81548160ff021916908315150217905550505060025f81548092919061139e90612b0d565b919050555050565b5f805f90505b600180549050811015611443578273ffffffffffffffffffffffffffffffffffffffff16600182815481106113e4576113e36123d2565b5b905f5260205f2090600402015f015f9054906101000a900473ffffffffffffffffffffffffffffffffffffffff1673ffffffffffffffffffffffffffffffffffffffff16036114365780915050611468565b80806001019150506113ac565b507fffffffffffffffffffffffffffffffffffffffffffffffffffffffffffffffff90505b919050565b5f805f80549050116114b4576040517f08c379a00000000000000000000000000000000000000000000000000000000081526004016114ab90612b9e565b60405180910390fd5b5f8060015f805490506114c79190612bbc565b815481106114d8576114d76123d2565b5b905f5260205f2090602091828204019190069054906101000a900460ff1690505f80548061150957611508612bef565b5b600190038181905f5260205f2090602091828204019190066101000a81549060ff021916905590558091505090565b5f805f90505f805b84518110156115c9575f600d86838151811061155f5761155e6123d2565b5b60200260200101516115719190612c49565b90505f8160ff160361158257600d90505b600a8160ff16111561159357600a90505b60018160ff16036115ad5782806115a990612c79565b9350505b80846115b99190612ca1565b9350508080600101915050611540565b505b600b8260ff16111580156115e157505f8160ff16115b1561160857600a826115f39190612ca1565b9150808061160090612cd5565b9150506115cb565b8192505050919050565b60605f8290505f5b84518110156117fb575f600d868381518110611639576116386123d2565b5b602002602001015161164b9190612c49565b90505f8160ff160361165c57600d90505b606060018260ff16036116a6576040518060400160405280600181526020017f41000000000000000000000000000000000000000000000000000000000000008152509050611790565b600b8260ff16036116ee576040518060400160405280600181526020017f4a00000000000000000000000000000000000000000000000000000000000000815250905061178f565b600c8260ff1603611736576040518060400160405280600181526020017f5100000000000000000000000000000000000000000000000000000000000000815250905061178e565b600d8260ff160361177e576040518060400160405280600181526020017f4b00000000000000000000000000000000000000000000000000000000000000815250905061178d565b61178a8260ff16611a70565b90505b5b5b5b83816040516020016117a3929190612cfc565b6040516020818303038152906040529350600187516117c29190612bbc565b8310156117ec57836040516020016117da9190612d69565b60405160208183030381529060405293505b5050808060010191505061161a565b508091505092915050565b60605f805b835181101561189e5760045f9054906101000a900473ffffffffffffffffffffffffffffffffffffffff1673ffffffffffffffffffffffffffffffffffffffff1684828151811061185f5761185e6123d2565b5b602002602001015173ffffffffffffffffffffffffffffffffffffffff161461189157818061188d90612b0d565b9250505b808060010191505061180b565b505f81036118e4576040518060400160405280600f81526020017f4e6f20706c617965727320776f6e2e0000000000000000000000000000000000815250915050611a40565b5f60405180602001604052805f81525090505f5b8451811015611a395760045f9054906101000a900473ffffffffffffffffffffffffffffffffffffffff1673ffffffffffffffffffffffffffffffffffffffff1685828151811061194c5761194b6123d2565b5b602002602001015173ffffffffffffffffffffffffffffffffffffffff1614611a2c575f611993868381518110611986576119856123d2565b5b60200260200101516113a6565b90507fffffffffffffffffffffffffffffffffffffffffffffffffffffffffffffffff8114611a2a575f6119d26001836119cd91906128a8565b611a70565b6040516020016119e29190612d8a565b60405160208183030381529060405290505f845103611a0357809350611a28565b8381604051602001611a16929190612dab565b60405160208183030381529060405293505b505b505b80806001019150506118f8565b5080925050505b919050565b60015f611a529190611eda565b60035f611a5f9190611efb565b5f600281905550611a6e611d49565b565b60605f8203611ab6576040518060400160405280600181526020017f30000000000000000000000000000000000000000000000000000000000000008152509050611bc9565b5f8290505f5b5f8214611ae5578080611ace90612b0d565b915050600a82611ade9190612dd9565b9150611abc565b5f8167ffffffffffffffff811115611b0057611aff612503565b5b6040519080825280601f01601f191660200182016040528015611b325781602001600182028036833780820191505090505b5090505f8290508593505b5f8414611bc157600a84611b519190612e09565b6030611b5d91906128a8565b60f81b8282611b6b90612e39565b92508281518110611b7f57611b7e6123d2565b5b60200101907effffffffffffffffffffffffffffffffffffffffffffffffffffffffffffff191690815f1a905350600a84611bba9190612dd9565b9350611b3d565b819450505050505b919050565b5f4244600143611bde9190612bbc565b40604051602001611bf193929190612ea9565b604051602081830303815290604052805190602001205f1c90505f5b5f80549050811015611d45575f808054905083611c2a9190612e09565b90505f8181548110611c3f57611c3e6123d2565b5b905f5260205f2090602091828204019190069054906101000a900460ff165f8381548110611c7057611c6f6123d2565b5b905f5260205f2090602091828204019190069054906101000a900460ff165f8481548110611ca157611ca06123d2565b5b905f5260205f2090602091828204019190065f8581548110611cc657611cc56123d2565b5b905f5260205f2090602091828204019190068491906101000a81548160ff021916908360ff1602179055508391906101000a81548160ff021916908360ff160217905550505082604051602001611d1d9190612ee5565b604051602081830303815290604052805190602001205f1c9250508080600101915050611c0d565b5050565b5f80611d559190611efb565b5f600190505b60348160ff1611611dbb575f81908060018154018082558091505060019003905f5260205f2090602091828204019190069091909190916101000a81548160ff021916908360ff1602179055508080611db390612c79565b915050611d5b565b50565b5080545f8255905f5260205f2090810190611dd99190611f20565b50565b828054828255905f5260205f2090601f01602090048101928215611e27575f5260205f2091601f016020900482015b82811115611e26578254825591600101919060010190611e0b565b5b509050611e349190611f20565b5090565b828054828255905f5260205f2090601f01602090048101928215611ec9579160200282015f5b83821115611e9b57835183826101000a81548160ff021916908360ff16021790555092602001926001016020815f01049283019260010302611e5e565b8015611ec75782816101000a81549060ff02191690556001016020815f01049283019260010302611e9b565b505b509050611ed69190611f20565b5090565b5080545f8255600402905f5260205f2090810190611ef89190611f3b565b50565b5080545f8255601f0160209004905f5260205f2090810190611f1d9190611f20565b50565b5b80821115611f37575f815f905550600101611f21565b5090565b5b80821115611fb0575f8082015f6101000a81549073ffffffffffffffffffffffffffffffffffffffff0219169055600182015f9055600282015f611f809190611efb565b600382015f6101000a81549060ff02191690556003820160016101000a81549060ff021916905550600401611f3c565b5090565b5f81519050919050565b5f82825260208201905092915050565b8281835e5f83830152505050565b5f601f19601f8301169050919050565b5f611ff682611fb4565b6120008185611fbe565b9350612010818560208601611fce565b61201981611fdc565b840191505092915050565b5f6020820190508181035f83015261203c8184611fec565b905092915050565b5f819050919050565b61205681612044565b82525050565b5f60208201905061206f5f83018461204d565b92915050565b5f81519050919050565b5f82825260208201905092915050565b5f819050602082019050919050565b5f73ffffffffffffffffffffffffffffffffffffffff82169050919050565b5f6120c78261209e565b9050919050565b6120d7816120bd565b82525050565b5f6120e883836120ce565b60208301905092915050565b5f602082019050919050565b5f61210a82612075565b612114818561207f565b935061211f8361208f565b805f5b8381101561214f57815161213688826120dd565b9750612141836120f4565b925050600181019050612122565b5085935050505092915050565b5f6040820190508181035f8301526121748185611fec565b905081810360208301526121888184612100565b90509392505050565b5f80fd5b61219e81612044565b81146121a8575f80fd5b50565b5f813590506121b981612195565b92915050565b5f602082840312156121d4576121d3612191565b5b5f6121e1848285016121ab565b91505092915050565b5f81519050919050565b5f82825260208201905092915050565b5f819050602082019050919050565b5f82825260208201905092915050565b5f61222d82611fb4565b6122378185612213565b9350612247818560208601611fce565b61225081611fdc565b840191505092915050565b5f6122668383612223565b905092915050565b5f602082019050919050565b5f612284826121ea565b61228e81856121f4565b9350836020820285016122a085612204565b805f5b858110156122db57848403895281516122bc858261225b565b94506122c78361226e565b925060208a019950506001810190506122a3565b50829750879550505050505092915050565b5f6020820190508181035f830152612305818461227a565b905092915050565b7f4e487b71000000000000000000000000000000000000000000000000000000005f52602260045260245ffd5b5f600282049050600182168061235157607f821691505b6020821081036123645761236361230d565b5b50919050565b7f596f7520617265206e6f74206120706c617965720000000000000000000000005f82015250565b5f61239e601483611fbe565b91506123a98261236a565b602082019050919050565b5f6020820190508181035f8301526123cb81612392565b9050919050565b7f4e487b71000000000000000000000000000000000000000000000000000000005f52603260045260245ffd5b7f506c61796572206973206e6f74206163746976650000000000000000000000005f82015250565b5f612433601483611fbe565b915061243e826123ff565b602082019050919050565b5f6020820190508181035f83015261246081612427565b9050919050565b7f506c6179657220697320616c72656164792062757374656400000000000000005f82015250565b5f61249b601883611fbe565b91506124a682612467565b602082019050919050565b5f6020820190508181035f8301526124c88161248f565b9050919050565b5f60ff82169050919050565b6124e4816124cf565b82525050565b5f6020820190506124fd5f8301846124db565b92915050565b7f4e487b71000000000000000000000000000000000000000000000000000000005f52604160045260245ffd5b5f819050815f5260205f209050919050565b5f6020601f8301049050919050565b5f82821b905092915050565b5f6008830261258c7fffffffffffffffffffffffffffffffffffffffffffffffffffffffffffffffff82612551565b6125968683612551565b95508019841693508086168417925050509392505050565b5f819050919050565b5f6125d16125cc6125c784612044565b6125ae565b612044565b9050919050565b5f819050919050565b6125ea836125b7565b6125fe6125f6826125d8565b84845461255d565b825550505050565b5f90565b612612612606565b61261d8184846125e1565b505050565b5b81811015612640576126355f8261260a565b600181019050612623565b5050565b601f8211156126855761265681612530565b61265f84612542565b8101602085101561266e578190505b61268261267a85612542565b830182612622565b50505b505050565b5f82821c905092915050565b5f6126a55f198460080261268a565b1980831691505092915050565b5f6126bd8383612696565b9150826002028217905092915050565b6126d682611fb4565b67ffffffffffffffff8111156126ef576126ee612503565b5b6126f9825461233a565b612704828285612644565b5f60209050601f831160018114612735575f8415612723578287015190505b61272d85826126b2565b865550612794565b601f19841661274386612530565b5f5b8281101561276a57848901518255600182019150602085019450602081019050612745565b868310156127875784890151612783601f891682612696565b8355505b6001600288020188555050505b505050505050565b7f4e487b71000000000000000000000000000000000000000000000000000000005f52601160045260245ffd5b5f6127d382612044565b91506127de83612044565b92508282026127ec81612044565b915082820484148315176128035761280261279c565b5b5092915050565b612813816120bd565b82525050565b5f60408201905061282c5f83018561280a565b61283960208301846124db565b9392505050565b7f4e6f7420796f7572207475726e000000000000000000000000000000000000005f82015250565b5f612874600d83611fbe565b915061287f82612840565b602082019050919050565b5f6020820190508181035f8301526128a181612868565b9050919050565b5f6128b282612044565b91506128bd83612044565b92508282019050808211156128d5576128d461279c565b5b92915050565b5f81905092915050565b7f506c6179657220000000000000000000000000000000000000000000000000005f82015250565b5f6129196007836128db565b9150612924826128e5565b600782019050919050565b5f61293982611fb4565b61294381856128db565b9350612953818560208601611fce565b80840191505092915050565b7f3a200000000000000000000000000000000000000000000000000000000000005f82015250565b5f6129936002836128db565b915061299e8261295f565b600282019050919050565b5f6129b38261290d565b91506129bf828461292f565b91506129ca82612987565b915081905092915050565b7f4e6f20706c617965727320696e207468652067616d65000000000000000000005f82015250565b5f612a09601683611fbe565b9150612a14826129d5565b602082019050919050565b5f6020820190508181035f830152612a36816129fd565b9050919050565b7f4d6178203420706c617965727320616c6c6f77656400000000000000000000005f82015250565b5f612a71601583611fbe565b9150612a7c82612a3d565b602082019050919050565b5f6020820190508181035f830152612a9e81612a65565b9050919050565b7f42657420616d6f756e74206d69736d61746368000000000000000000000000005f82015250565b5f612ad9601383611fbe565b9150612ae482612aa5565b602082019050919050565b5f6020820190508181035f830152612b0681612acd565b9050919050565b5f612b1782612044565b91507fffffffffffffffffffffffffffffffffffffffffffffffffffffffffffffffff8203612b4957612b4861279c565b5b600182019050919050565b7f4e6f206361726473206c65667420696e20746865206465636b000000000000005f82015250565b5f612b88601983611fbe565b9150612b9382612b54565b602082019050919050565b5f6020820190508181035f830152612bb581612b7c565b9050919050565b5f612bc682612044565b9150612bd183612044565b9250828203905081811115612be957612be861279c565b5b92915050565b7f4e487b71000000000000000000000000000000000000000000000000000000005f52603160045260245ffd5b7f4e487b71000000000000000000000000000000000000000000000000000000005f52601260045260245ffd5b5f612c53826124cf565b9150612c5e836124cf565b925082612c6e57612c6d612c1c565b5b828206905092915050565b5f612c83826124cf565b915060ff8203612c9657612c9561279c565b5b600182019050919050565b5f612cab826124cf565b9150612cb6836124cf565b9250828201905060ff811115612ccf57612cce61279c565b5b92915050565b5f612cdf826124cf565b91505f8203612cf157612cf061279c565b5b600182039050919050565b5f612d07828561292f565b9150612d13828461292f565b91508190509392505050565b7f2c200000000000000000000000000000000000000000000000000000000000005f82015250565b5f612d536002836128db565b9150612d5e82612d1f565b600282019050919050565b5f612d74828461292f565b9150612d7f82612d47565b915081905092915050565b5f612d948261290d565b9150612da0828461292f565b915081905092915050565b5f612db6828561292f565b9150612dc182612d47565b9150612dcd828461292f565b91508190509392505050565b5f612de382612044565b9150612dee83612044565b925082612dfe57612dfd612c1c565b5b828204905092915050565b5f612e1382612044565b9150612e1e83612044565b925082612e2e57612e2d612c1c565b5b828206905092915050565b5f612e4382612044565b91505f8203612e5557612e5461279c565b5b600182039050919050565b5f819050919050565b612e7a612e7582612044565b612e60565b82525050565b5f819050919050565b5f819050919050565b612ea3612e9e82612e80565b612e89565b82525050565b5f612eb48286612e69565b602082019150612ec48285612e69565b602082019150612ed48284612e92565b602082019150819050949350505050565b5f612ef08284612e69565b6020820191508190509291505056fea2646970667358221220fd9f9e09ade53be38e81aca4ff80cdfa3e640af65c8d5068fdf0382c9686b5e664736f6c634300081a0033",
					"opcodes": "PUSH1 0x80 PUSH1 0x40 MSTORE PUSH2 0x12 PUSH2 0x57 PUSH1 0x20 SHL PUSH1 0x20 SHR JUMP JUMPDEST CALLER PUSH1 0x4 PUSH0 PUSH2 0x100 EXP DUP2 SLOAD DUP2 PUSH20 0xFFFFFFFFFFFFFFFFFFFFFFFFFFFFFFFFFFFFFFFF MUL NOT AND SWAP1 DUP4 PUSH20 0xFFFFFFFFFFFFFFFFFFFFFFFFFFFFFFFFFFFFFFFF AND MUL OR SWAP1 SSTORE POP PUSH2 0x16D JUMP JUMPDEST PUSH0 DUP1 PUSH2 0x63 SWAP2 SWAP1 PUSH2 0xCC JUMP JUMPDEST PUSH0 PUSH1 0x1 SWAP1 POP JUMPDEST PUSH1 0x34 DUP2 PUSH1 0xFF AND GT PUSH2 0xC9 JUMPI PUSH0 DUP2 SWAP1 DUP1 PUSH1 0x1 DUP2 SLOAD ADD DUP1 DUP3 SSTORE DUP1 SWAP2 POP POP PUSH1 0x1 SWAP1 SUB SWAP1 PUSH0 MSTORE PUSH1 0x20 PUSH0 KECCAK256 SWAP1 PUSH1 0x20 SWAP2 DUP3 DUP3 DIV ADD SWAP2 SWAP1 MOD SWAP1 SWAP2 SWAP1 SWAP2 SWAP1 SWAP2 PUSH2 0x100 EXP DUP2 SLOAD DUP2 PUSH1 0xFF MUL NOT AND SWAP1 DUP4 PUSH1 0xFF AND MUL OR SWAP1 SSTORE POP DUP1 DUP1 PUSH2 0xC1 SWAP1 PUSH2 0x145 JUMP JUMPDEST SWAP2 POP POP PUSH2 0x69 JUMP JUMPDEST POP JUMP JUMPDEST POP DUP1 SLOAD PUSH0 DUP3 SSTORE PUSH1 0x1F ADD PUSH1 0x20 SWAP1 DIV SWAP1 PUSH0 MSTORE PUSH1 0x20 PUSH0 KECCAK256 SWAP1 DUP2 ADD SWAP1 PUSH2 0xEE SWAP2 SWAP1 PUSH2 0xF1 JUMP JUMPDEST POP JUMP JUMPDEST JUMPDEST DUP1 DUP3 GT ISZERO PUSH2 0x108 JUMPI PUSH0 DUP2 PUSH0 SWAP1 SSTORE POP PUSH1 0x1 ADD PUSH2 0xF2 JUMP JUMPDEST POP SWAP1 JUMP JUMPDEST PUSH32 0x4E487B7100000000000000000000000000000000000000000000000000000000 PUSH0 MSTORE PUSH1 0x11 PUSH1 0x4 MSTORE PUSH1 0x24 PUSH0 REVERT JUMPDEST PUSH0 PUSH1 0xFF DUP3 AND SWAP1 POP SWAP2 SWAP1 POP JUMP JUMPDEST PUSH0 PUSH2 0x14F DUP3 PUSH2 0x139 JUMP JUMPDEST SWAP2 POP PUSH1 0xFF DUP3 SUB PUSH2 0x162 JUMPI PUSH2 0x161 PUSH2 0x10C JUMP JUMPDEST JUMPDEST PUSH1 0x1 DUP3 ADD SWAP1 POP SWAP2 SWAP1 POP JUMP JUMPDEST PUSH2 0x2F35 DUP1 PUSH2 0x17A PUSH0 CODECOPY PUSH0 RETURN INVALID PUSH1 0x80 PUSH1 0x40 MSTORE PUSH1 0x4 CALLDATASIZE LT PUSH2 0x85 JUMPI PUSH0 CALLDATALOAD PUSH1 0xE0 SHR DUP1 PUSH4 0x96B76C23 GT PUSH2 0x58 JUMPI DUP1 PUSH4 0x96B76C23 EQ PUSH2 0x11E JUMPI DUP1 PUSH4 0x9951A417 EQ PUSH2 0x146 JUMPI DUP1 PUSH4 0xD0E514FA EQ PUSH2 0x170 JUMPI DUP1 PUSH4 0xD65AB5F2 EQ PUSH2 0x19A JUMPI DUP1 PUSH4 0xEFAA55A0 EQ PUSH2 0x1B0 JUMPI PUSH2 0x85 JUMP JUMPDEST DUP1 PUSH4 0x14106AD6 EQ PUSH2 0x89 JUMPI DUP1 PUSH4 0x2AE3594A EQ PUSH2 0xB3 JUMPI DUP1 PUSH4 0x302BCC57 EQ PUSH2 0xC9 JUMPI DUP1 PUSH4 0x33B16D93 EQ PUSH2 0xF3 JUMPI JUMPDEST PUSH0 DUP1 REVERT JUMPDEST CALLVALUE DUP1 ISZERO PUSH2 0x94 JUMPI PUSH0 DUP1 REVERT JUMPDEST POP PUSH2 0x9D PUSH2 0x1CC JUMP JUMPDEST PUSH1 0x40 MLOAD PUSH2 0xAA SWAP2 SWAP1 PUSH2 0x2024 JUMP JUMPDEST PUSH1 0x40 MLOAD DUP1 SWAP2 SUB SWAP1 RETURN JUMPDEST CALLVALUE DUP1 ISZERO PUSH2 0xBE JUMPI PUSH0 DUP1 REVERT JUMPDEST POP PUSH2 0xC7 PUSH2 0x258 JUMP JUMPDEST STOP JUMPDEST CALLVALUE DUP1 ISZERO PUSH2 0xD4 JUMPI PUSH0 DUP1 REVERT JUMPDEST POP PUSH2 0xDD PUSH2 0x536 JUMP JUMPDEST PUSH1 0x40 MLOAD PUSH2 0xEA SWAP2 SWAP1 PUSH2 0x205C JUMP JUMPDEST PUSH1 0x40 MLOAD DUP1 SWAP2 SUB SWAP1 RETURN JUMPDEST CALLVALUE DUP1 ISZERO PUSH2 0xFE JUMPI PUSH0 DUP1 REVERT JUMPDEST POP PUSH2 0x107 PUSH2 0x53C JUMP JUMPDEST PUSH1 0x40 MLOAD PUSH2 0x115 SWAP3 SWAP2 SWAP1 PUSH2 0x215C JUMP JUMPDEST PUSH1 0x40 MLOAD DUP1 SWAP2 SUB SWAP1 RETURN JUMPDEST CALLVALUE DUP1 ISZERO PUSH2 0x129 JUMPI PUSH0 DUP1 REVERT JUMPDEST POP PUSH2 0x144 PUSH1 0x4 DUP1 CALLDATASIZE SUB DUP2 ADD SWAP1 PUSH2 0x13F SWAP2 SWAP1 PUSH2 0x21BF JUMP JUMPDEST PUSH2 0xC54 JUMP JUMPDEST STOP JUMPDEST CALLVALUE DUP1 ISZERO PUSH2 0x151 JUMPI PUSH0 DUP1 REVERT JUMPDEST POP PUSH2 0x15A PUSH2 0xD40 JUMP JUMPDEST PUSH1 0x40 MLOAD PUSH2 0x167 SWAP2 SWAP1 PUSH2 0x2024 JUMP JUMPDEST PUSH1 0x40 MLOAD DUP1 SWAP2 SUB SWAP1 RETURN JUMPDEST CALLVALUE DUP1 ISZERO PUSH2 0x17B JUMPI PUSH0 DUP1 REVERT JUMPDEST POP PUSH2 0x184 PUSH2 0xDCC JUMP JUMPDEST PUSH1 0x40 MLOAD PUSH2 0x191 SWAP2 SWAP1 PUSH2 0x22ED JUMP JUMPDEST PUSH1 0x40 MLOAD DUP1 SWAP2 SUB SWAP1 RETURN JUMPDEST CALLVALUE DUP1 ISZERO PUSH2 0x1A5 JUMPI PUSH0 DUP1 REVERT JUMPDEST POP PUSH2 0x1AE PUSH2 0x101C JUMP JUMPDEST STOP JUMPDEST PUSH2 0x1CA PUSH1 0x4 DUP1 CALLDATASIZE SUB DUP2 ADD SWAP1 PUSH2 0x1C5 SWAP2 SWAP1 PUSH2 0x21BF JUMP JUMPDEST PUSH2 0x11A7 JUMP JUMPDEST STOP JUMPDEST PUSH1 0x7 DUP1 SLOAD PUSH2 0x1D9 SWAP1 PUSH2 0x233A JUMP JUMPDEST DUP1 PUSH1 0x1F ADD PUSH1 0x20 DUP1 SWAP2 DIV MUL PUSH1 0x20 ADD PUSH1 0x40 MLOAD SWAP1 DUP2 ADD PUSH1 0x40 MSTORE DUP1 SWAP3 SWAP2 SWAP1 DUP2 DUP2 MSTORE PUSH1 0x20 ADD DUP3 DUP1 SLOAD PUSH2 0x205 SWAP1 PUSH2 0x233A JUMP JUMPDEST DUP1 ISZERO PUSH2 0x250 JUMPI DUP1 PUSH1 0x1F LT PUSH2 0x227 JUMPI PUSH2 0x100 DUP1 DUP4 SLOAD DIV MUL DUP4 MSTORE SWAP2 PUSH1 0x20 ADD SWAP2 PUSH2 0x250 JUMP JUMPDEST DUP3 ADD SWAP2 SWAP1 PUSH0 MSTORE PUSH1 0x20 PUSH0 KECCAK256 SWAP1 JUMPDEST DUP2 SLOAD DUP2 MSTORE SWAP1 PUSH1 0x1 ADD SWAP1 PUSH1 0x20 ADD DUP1 DUP4 GT PUSH2 0x233 JUMPI DUP3 SWAP1 SUB PUSH1 0x1F AND DUP3 ADD SWAP2 JUMPDEST POP POP POP POP POP DUP2 JUMP JUMPDEST PUSH0 PUSH2 0x262 CALLER PUSH2 0x13A6 JUMP JUMPDEST SWAP1 POP PUSH32 0xFFFFFFFFFFFFFFFFFFFFFFFFFFFFFFFFFFFFFFFFFFFFFFFFFFFFFFFFFFFFFFFF DUP2 SUB PUSH2 0x2C6 JUMPI PUSH1 0x40 MLOAD PUSH32 0x8C379A000000000000000000000000000000000000000000000000000000000 DUP2 MSTORE PUSH1 0x4 ADD PUSH2 0x2BD SWAP1 PUSH2 0x23B4 JUMP JUMPDEST PUSH1 0x40 MLOAD DUP1 SWAP2 SUB SWAP1 REVERT JUMPDEST PUSH1 0x1 DUP2 DUP2 SLOAD DUP2 LT PUSH2 0x2DA JUMPI PUSH2 0x2D9 PUSH2 0x23D2 JUMP JUMPDEST JUMPDEST SWAP1 PUSH0 MSTORE PUSH1 0x20 PUSH0 KECCAK256 SWAP1 PUSH1 0x4 MUL ADD PUSH1 0x3 ADD PUSH0 SWAP1 SLOAD SWAP1 PUSH2 0x100 EXP SWAP1 DIV PUSH1 0xFF AND PUSH2 0x335 JUMPI PUSH1 0x40 MLOAD PUSH32 0x8C379A000000000000000000000000000000000000000000000000000000000 DUP2 MSTORE PUSH1 0x4 ADD PUSH2 0x32C SWAP1 PUSH2 0x2449 JUMP JUMPDEST PUSH1 0x40 MLOAD DUP1 SWAP2 SUB SWAP1 REVERT JUMPDEST PUSH1 0x1 DUP2 DUP2 SLOAD DUP2 LT PUSH2 0x349 JUMPI PUSH2 0x348 PUSH2 0x23D2 JUMP JUMPDEST JUMPDEST SWAP1 PUSH0 MSTORE PUSH1 0x20 PUSH0 KECCAK256 SWAP1 PUSH1 0x4 MUL ADD PUSH1 0x3 ADD PUSH1 0x1 SWAP1 SLOAD SWAP1 PUSH2 0x100 EXP SWAP1 DIV PUSH1 0xFF AND ISZERO PUSH2 0x3A6 JUMPI PUSH1 0x40 MLOAD PUSH32 0x8C379A000000000000000000000000000000000000000000000000000000000 DUP2 MSTORE PUSH1 0x4 ADD PUSH2 0x39D SWAP1 PUSH2 0x24B1 JUMP JUMPDEST PUSH1 0x40 MLOAD DUP1 SWAP2 SUB SWAP1 REVERT JUMPDEST PUSH0 PUSH2 0x3AF PUSH2 0x146D JUMP JUMPDEST SWAP1 POP PUSH1 0x1 DUP3 DUP2 SLOAD DUP2 LT PUSH2 0x3C5 JUMPI PUSH2 0x3C4 PUSH2 0x23D2 JUMP JUMPDEST JUMPDEST SWAP1 PUSH0 MSTORE PUSH1 0x20 PUSH0 KECCAK256 SWAP1 PUSH1 0x4 MUL ADD PUSH1 0x2 ADD DUP2 SWAP1 DUP1 PUSH1 0x1 DUP2 SLOAD ADD DUP1 DUP3 SSTORE DUP1 SWAP2 POP POP PUSH1 0x1 SWAP1 SUB SWAP1 PUSH0 MSTORE PUSH1 0x20 PUSH0 KECCAK256 SWAP1 PUSH1 0x20 SWAP2 DUP3 DUP3 DIV ADD SWAP2 SWAP1 MOD SWAP1 SWAP2 SWAP1 SWAP2 SWAP1 SWAP2 PUSH2 0x100 EXP DUP2 SLOAD DUP2 PUSH1 0xFF MUL NOT AND SWAP1 DUP4 PUSH1 0xFF AND MUL OR SWAP1 SSTORE POP PUSH1 0x15 PUSH2 0x4B3 PUSH1 0x1 DUP5 DUP2 SLOAD DUP2 LT PUSH2 0x42E JUMPI PUSH2 0x42D PUSH2 0x23D2 JUMP JUMPDEST JUMPDEST SWAP1 PUSH0 MSTORE PUSH1 0x20 PUSH0 KECCAK256 SWAP1 PUSH1 0x4 MUL ADD PUSH1 0x2 ADD DUP1 SLOAD DUP1 PUSH1 0x20 MUL PUSH1 0x20 ADD PUSH1 0x40 MLOAD SWAP1 DUP2 ADD PUSH1 0x40 MSTORE DUP1 SWAP3 SWAP2 SWAP1 DUP2 DUP2 MSTORE PUSH1 0x20 ADD DUP3 DUP1 SLOAD DUP1 ISZERO PUSH2 0x4A9 JUMPI PUSH1 0x20 MUL DUP3 ADD SWAP2 SWAP1 PUSH0 MSTORE PUSH1 0x20 PUSH0 KECCAK256 SWAP1 PUSH0 SWAP1 JUMPDEST DUP3 DUP3 SWAP1 SLOAD SWAP1 PUSH2 0x100 EXP SWAP1 DIV PUSH1 0xFF AND PUSH1 0xFF AND DUP2 MSTORE PUSH1 0x20 ADD SWAP1 PUSH1 0x1 ADD SWAP1 PUSH1 0x20 DUP3 PUSH0 ADD DIV SWAP3 DUP4 ADD SWAP3 PUSH1 0x1 SUB DUP3 MUL SWAP2 POP DUP1 DUP5 GT PUSH2 0x473 JUMPI SWAP1 POP JUMPDEST POP POP POP POP POP PUSH2 0x1538 JUMP JUMPDEST PUSH1 0xFF AND GT ISZERO PUSH2 0x532 JUMPI PUSH1 0x1 DUP1 DUP4 DUP2 SLOAD DUP2 LT PUSH2 0x4D1 JUMPI PUSH2 0x4D0 PUSH2 0x23D2 JUMP JUMPDEST JUMPDEST SWAP1 PUSH0 MSTORE PUSH1 0x20 PUSH0 KECCAK256 SWAP1 PUSH1 0x4 MUL ADD PUSH1 0x3 ADD PUSH1 0x1 PUSH2 0x100 EXP DUP2 SLOAD DUP2 PUSH1 0xFF MUL NOT AND SWAP1 DUP4 ISZERO ISZERO MUL OR SWAP1 SSTORE POP PUSH0 PUSH1 0x1 DUP4 DUP2 SLOAD DUP2 LT PUSH2 0x50C JUMPI PUSH2 0x50B PUSH2 0x23D2 JUMP JUMPDEST JUMPDEST SWAP1 PUSH0 MSTORE PUSH1 0x20 PUSH0 KECCAK256 SWAP1 PUSH1 0x4 MUL ADD PUSH1 0x3 ADD PUSH0 PUSH2 0x100 EXP DUP2 SLOAD DUP2 PUSH1 0xFF MUL NOT AND SWAP1 DUP4 ISZERO ISZERO MUL OR SWAP1 SSTORE POP JUMPDEST POP POP JUMP JUMPDEST PUSH1 0x2 SLOAD DUP2 JUMP JUMPDEST PUSH1 0x60 DUP1 PUSH0 PUSH2 0x5BB PUSH1 0x3 DUP1 SLOAD DUP1 PUSH1 0x20 MUL PUSH1 0x20 ADD PUSH1 0x40 MLOAD SWAP1 DUP2 ADD PUSH1 0x40 MSTORE DUP1 SWAP3 SWAP2 SWAP1 DUP2 DUP2 MSTORE PUSH1 0x20 ADD DUP3 DUP1 SLOAD DUP1 ISZERO PUSH2 0x5B1 JUMPI PUSH1 0x20 MUL DUP3 ADD SWAP2 SWAP1 PUSH0 MSTORE PUSH1 0x20 PUSH0 KECCAK256 SWAP1 PUSH0 SWAP1 JUMPDEST DUP3 DUP3 SWAP1 SLOAD SWAP1 PUSH2 0x100 EXP SWAP1 DIV PUSH1 0xFF AND PUSH1 0xFF AND DUP2 MSTORE PUSH1 0x20 ADD SWAP1 PUSH1 0x1 ADD SWAP1 PUSH1 0x20 DUP3 PUSH0 ADD DIV SWAP3 DUP4 ADD SWAP3 PUSH1 0x1 SUB DUP3 MUL SWAP2 POP DUP1 DUP5 GT PUSH2 0x57B JUMPI SWAP1 POP JUMPDEST POP POP POP POP POP PUSH2 0x1538 JUMP JUMPDEST SWAP1 POP PUSH1 0x6 PUSH0 PUSH2 0x5CA SWAP2 SWAP1 PUSH2 0x1DBE JUMP JUMPDEST JUMPDEST PUSH1 0x11 DUP2 PUSH1 0xFF AND LT ISZERO PUSH2 0x6DF JUMPI PUSH0 PUSH2 0x5E0 PUSH2 0x146D JUMP JUMPDEST SWAP1 POP PUSH1 0x3 DUP2 SWAP1 DUP1 PUSH1 0x1 DUP2 SLOAD ADD DUP1 DUP3 SSTORE DUP1 SWAP2 POP POP PUSH1 0x1 SWAP1 SUB SWAP1 PUSH0 MSTORE PUSH1 0x20 PUSH0 KECCAK256 SWAP1 PUSH1 0x20 SWAP2 DUP3 DUP3 DIV ADD SWAP2 SWAP1 MOD SWAP1 SWAP2 SWAP1 SWAP2 SWAP1 SWAP2 PUSH2 0x100 EXP DUP2 SLOAD DUP2 PUSH1 0xFF MUL NOT AND SWAP1 DUP4 PUSH1 0xFF AND MUL OR SWAP1 SSTORE POP PUSH2 0x6A0 PUSH1 0x3 DUP1 SLOAD DUP1 PUSH1 0x20 MUL PUSH1 0x20 ADD PUSH1 0x40 MLOAD SWAP1 DUP2 ADD PUSH1 0x40 MSTORE DUP1 SWAP3 SWAP2 SWAP1 DUP2 DUP2 MSTORE PUSH1 0x20 ADD DUP3 DUP1 SLOAD DUP1 ISZERO PUSH2 0x696 JUMPI PUSH1 0x20 MUL DUP3 ADD SWAP2 SWAP1 PUSH0 MSTORE PUSH1 0x20 PUSH0 KECCAK256 SWAP1 PUSH0 SWAP1 JUMPDEST DUP3 DUP3 SWAP1 SLOAD SWAP1 PUSH2 0x100 EXP SWAP1 DIV PUSH1 0xFF AND PUSH1 0xFF AND DUP2 MSTORE PUSH1 0x20 ADD SWAP1 PUSH1 0x1 ADD SWAP1 PUSH1 0x20 DUP3 PUSH0 ADD DIV SWAP3 DUP4 ADD SWAP3 PUSH1 0x1 SUB DUP3 MUL SWAP2 POP DUP1 DUP5 GT PUSH2 0x660 JUMPI SWAP1 POP JUMPDEST POP POP POP POP POP PUSH2 0x1538 JUMP JUMPDEST SWAP2 POP PUSH32 0x74719E1845AAC9A5B808B73F76F15E0DED61FD1F03FC0CD802E98E8E1D2299FE DUP2 PUSH1 0x40 MLOAD PUSH2 0x6D1 SWAP2 SWAP1 PUSH2 0x24EA JUMP JUMPDEST PUSH1 0x40 MLOAD DUP1 SWAP2 SUB SWAP1 LOG1 POP PUSH2 0x5CB JUMP JUMPDEST PUSH1 0x3 PUSH1 0x5 SWAP1 DUP1 SLOAD PUSH2 0x6F1 SWAP3 SWAP2 SWAP1 PUSH2 0x1DDC JUMP JUMPDEST POP PUSH2 0x7A3 PUSH1 0x5 DUP1 SLOAD DUP1 PUSH1 0x20 MUL PUSH1 0x20 ADD PUSH1 0x40 MLOAD SWAP1 DUP2 ADD PUSH1 0x40 MSTORE DUP1 SWAP3 SWAP2 SWAP1 DUP2 DUP2 MSTORE PUSH1 0x20 ADD DUP3 DUP1 SLOAD DUP1 ISZERO PUSH2 0x763 JUMPI PUSH1 0x20 MUL DUP3 ADD SWAP2 SWAP1 PUSH0 MSTORE PUSH1 0x20 PUSH0 KECCAK256 SWAP1 PUSH0 SWAP1 JUMPDEST DUP3 DUP3 SWAP1 SLOAD SWAP1 PUSH2 0x100 EXP SWAP1 DIV PUSH1 0xFF AND PUSH1 0xFF AND DUP2 MSTORE PUSH1 0x20 ADD SWAP1 PUSH1 0x1 ADD SWAP1 PUSH1 0x20 DUP3 PUSH0 ADD DIV SWAP3 DUP4 ADD SWAP3 PUSH1 0x1 SUB DUP3 MUL SWAP2 POP DUP1 DUP5 GT PUSH2 0x72D JUMPI SWAP1 POP JUMPDEST POP POP POP POP POP PUSH1 0x40 MLOAD DUP1 PUSH1 0x40 ADD PUSH1 0x40 MSTORE DUP1 PUSH1 0x10 DUP2 MSTORE PUSH1 0x20 ADD PUSH32 0x4C6173742042616E6B2048616E643A2000000000000000000000000000000000 DUP2 MSTORE POP PUSH2 0x1612 JUMP JUMPDEST PUSH1 0x7 SWAP1 DUP2 PUSH2 0x7B1 SWAP2 SWAP1 PUSH2 0x26CD JUMP JUMPDEST POP PUSH0 JUMPDEST PUSH1 0x1 DUP1 SLOAD SWAP1 POP DUP2 LT ISZERO PUSH2 0xA94 JUMPI PUSH0 PUSH2 0x85E PUSH1 0x1 DUP4 DUP2 SLOAD DUP2 LT PUSH2 0x7D9 JUMPI PUSH2 0x7D8 PUSH2 0x23D2 JUMP JUMPDEST JUMPDEST SWAP1 PUSH0 MSTORE PUSH1 0x20 PUSH0 KECCAK256 SWAP1 PUSH1 0x4 MUL ADD PUSH1 0x2 ADD DUP1 SLOAD DUP1 PUSH1 0x20 MUL PUSH1 0x20 ADD PUSH1 0x40 MLOAD SWAP1 DUP2 ADD PUSH1 0x40 MSTORE DUP1 SWAP3 SWAP2 SWAP1 DUP2 DUP2 MSTORE PUSH1 0x20 ADD DUP3 DUP1 SLOAD DUP1 ISZERO PUSH2 0x854 JUMPI PUSH1 0x20 MUL DUP3 ADD SWAP2 SWAP1 PUSH0 MSTORE PUSH1 0x20 PUSH0 KECCAK256 SWAP1 PUSH0 SWAP1 JUMPDEST DUP3 DUP3 SWAP1 SLOAD SWAP1 PUSH2 0x100 EXP SWAP1 DIV PUSH1 0xFF AND PUSH1 0xFF AND DUP2 MSTORE PUSH1 0x20 ADD SWAP1 PUSH1 0x1 ADD SWAP1 PUSH1 0x20 DUP3 PUSH0 ADD DIV SWAP3 DUP4 ADD SWAP3 PUSH1 0x1 SUB DUP3 MUL SWAP2 POP DUP1 DUP5 GT PUSH2 0x81E JUMPI SWAP1 POP JUMPDEST POP POP POP POP POP PUSH2 0x1538 JUMP JUMPDEST SWAP1 POP PUSH1 0x1 DUP3 DUP2 SLOAD DUP2 LT PUSH2 0x874 JUMPI PUSH2 0x873 PUSH2 0x23D2 JUMP JUMPDEST JUMPDEST SWAP1 PUSH0 MSTORE PUSH1 0x20 PUSH0 KECCAK256 SWAP1 PUSH1 0x4 MUL ADD PUSH1 0x3 ADD PUSH1 0x1 SWAP1 SLOAD SWAP1 PUSH2 0x100 EXP SWAP1 DIV PUSH1 0xFF AND ISZERO DUP1 ISZERO PUSH2 0x8B1 JUMPI POP DUP3 PUSH1 0xFF AND DUP2 PUSH1 0xFF AND GT DUP1 PUSH2 0x8B0 JUMPI POP PUSH1 0x15 DUP4 PUSH1 0xFF AND GT JUMPDEST JUMPDEST ISZERO PUSH2 0xA86 JUMPI PUSH1 0x1 DUP3 DUP2 SLOAD DUP2 LT PUSH2 0x8CA JUMPI PUSH2 0x8C9 PUSH2 0x23D2 JUMP JUMPDEST JUMPDEST SWAP1 PUSH0 MSTORE PUSH1 0x20 PUSH0 KECCAK256 SWAP1 PUSH1 0x4 MUL ADD PUSH0 ADD PUSH0 SWAP1 SLOAD SWAP1 PUSH2 0x100 EXP SWAP1 DIV PUSH20 0xFFFFFFFFFFFFFFFFFFFFFFFFFFFFFFFFFFFFFFFF AND PUSH20 0xFFFFFFFFFFFFFFFFFFFFFFFFFFFFFFFFFFFFFFFF AND PUSH2 0x8FC PUSH1 0x2 PUSH1 0x1 DUP6 DUP2 SLOAD DUP2 LT PUSH2 0x927 JUMPI PUSH2 0x926 PUSH2 0x23D2 JUMP JUMPDEST JUMPDEST SWAP1 PUSH0 MSTORE PUSH1 0x20 PUSH0 KECCAK256 SWAP1 PUSH1 0x4 MUL ADD PUSH1 0x1 ADD SLOAD PUSH2 0x941 SWAP2 SWAP1 PUSH2 0x27C9 JUMP JUMPDEST SWAP1 DUP2 ISZERO MUL SWAP1 PUSH1 0x40 MLOAD PUSH0 PUSH1 0x40 MLOAD DUP1 DUP4 SUB DUP2 DUP6 DUP9 DUP9 CALL SWAP4 POP POP POP POP ISZERO DUP1 ISZERO PUSH2 0x969 JUMPI RETURNDATASIZE PUSH0 DUP1 RETURNDATACOPY RETURNDATASIZE PUSH0 REVERT JUMPDEST POP PUSH1 0x6 PUSH1 0x1 DUP4 DUP2 SLOAD DUP2 LT PUSH2 0x980 JUMPI PUSH2 0x97F PUSH2 0x23D2 JUMP JUMPDEST JUMPDEST SWAP1 PUSH0 MSTORE PUSH1 0x20 PUSH0 KECCAK256 SWAP1 PUSH1 0x4 MUL ADD PUSH0 ADD PUSH0 SWAP1 SLOAD SWAP1 PUSH2 0x100 EXP SWAP1 DIV PUSH20 0xFFFFFFFFFFFFFFFFFFFFFFFFFFFFFFFFFFFFFFFF AND SWAP1 DUP1 PUSH1 0x1 DUP2 SLOAD ADD DUP1 DUP3 SSTORE DUP1 SWAP2 POP POP PUSH1 0x1 SWAP1 SUB SWAP1 PUSH0 MSTORE PUSH1 0x20 PUSH0 KECCAK256 ADD PUSH0 SWAP1 SWAP2 SWAP1 SWAP2 SWAP1 SWAP2 PUSH2 0x100 EXP DUP2 SLOAD DUP2 PUSH20 0xFFFFFFFFFFFFFFFFFFFFFFFFFFFFFFFFFFFFFFFF MUL NOT AND SWAP1 DUP4 PUSH20 0xFFFFFFFFFFFFFFFFFFFFFFFFFFFFFFFFFFFFFFFF AND MUL OR SWAP1 SSTORE POP PUSH32 0xE9B0A743935D9854AC97B39452742C48F05E62B1EE44825328D7BC53901B03B1 PUSH1 0x1 DUP4 DUP2 SLOAD DUP2 LT PUSH2 0xA40 JUMPI PUSH2 0xA3F PUSH2 0x23D2 JUMP JUMPDEST JUMPDEST SWAP1 PUSH0 MSTORE PUSH1 0x20 PUSH0 KECCAK256 SWAP1 PUSH1 0x4 MUL ADD PUSH0 ADD PUSH0 SWAP1 SLOAD SWAP1 PUSH2 0x100 EXP SWAP1 DIV PUSH20 0xFFFFFFFFFFFFFFFFFFFFFFFFFFFFFFFFFFFFFFFF AND DUP3 PUSH1 0x40 MLOAD PUSH2 0xA7D SWAP3 SWAP2 SWAP1 PUSH2 0x2819 JUMP JUMPDEST PUSH1 0x40 MLOAD DUP1 SWAP2 SUB SWAP1 LOG1 JUMPDEST POP DUP1 DUP1 PUSH1 0x1 ADD SWAP2 POP POP PUSH2 0x7B4 JUMP JUMPDEST POP PUSH2 0xB21 PUSH1 0x6 DUP1 SLOAD DUP1 PUSH1 0x20 MUL PUSH1 0x20 ADD PUSH1 0x40 MLOAD SWAP1 DUP2 ADD PUSH1 0x40 MSTORE DUP1 SWAP3 SWAP2 SWAP1 DUP2 DUP2 MSTORE PUSH1 0x20 ADD DUP3 DUP1 SLOAD DUP1 ISZERO PUSH2 0xB17 JUMPI PUSH1 0x20 MUL DUP3 ADD SWAP2 SWAP1 PUSH0 MSTORE PUSH1 0x20 PUSH0 KECCAK256 SWAP1 JUMPDEST DUP2 PUSH0 SWAP1 SLOAD SWAP1 PUSH2 0x100 EXP SWAP1 DIV PUSH20 0xFFFFFFFFFFFFFFFFFFFFFFFFFFFFFFFFFFFFFFFF AND PUSH20 0xFFFFFFFFFFFFFFFFFFFFFFFFFFFFFFFFFFFFFFFF AND DUP2 MSTORE PUSH1 0x20 ADD SWAP1 PUSH1 0x1 ADD SWAP1 DUP1 DUP4 GT PUSH2 0xACE JUMPI JUMPDEST POP POP POP POP POP PUSH2 0x1806 JUMP JUMPDEST PUSH1 0x8 SWAP1 DUP2 PUSH2 0xB2F SWAP2 SWAP1 PUSH2 0x26CD JUMP JUMPDEST POP PUSH2 0xB38 PUSH2 0x1A45 JUMP JUMPDEST PUSH1 0x7 PUSH1 0x6 DUP2 DUP1 SLOAD PUSH2 0xB48 SWAP1 PUSH2 0x233A JUMP JUMPDEST DUP1 PUSH1 0x1F ADD PUSH1 0x20 DUP1 SWAP2 DIV MUL PUSH1 0x20 ADD PUSH1 0x40 MLOAD SWAP1 DUP2 ADD PUSH1 0x40 MSTORE DUP1 SWAP3 SWAP2 SWAP1 DUP2 DUP2 MSTORE PUSH1 0x20 ADD DUP3 DUP1 SLOAD PUSH2 0xB74 SWAP1 PUSH2 0x233A JUMP JUMPDEST DUP1 ISZERO PUSH2 0xBBF JUMPI DUP1 PUSH1 0x1F LT PUSH2 0xB96 JUMPI PUSH2 0x100 DUP1 DUP4 SLOAD DIV MUL DUP4 MSTORE SWAP2 PUSH1 0x20 ADD SWAP2 PUSH2 0xBBF JUMP JUMPDEST DUP3 ADD SWAP2 SWAP1 PUSH0 MSTORE PUSH1 0x20 PUSH0 KECCAK256 SWAP1 JUMPDEST DUP2 SLOAD DUP2 MSTORE SWAP1 PUSH1 0x1 ADD SWAP1 PUSH1 0x20 ADD DUP1 DUP4 GT PUSH2 0xBA2 JUMPI DUP3 SWAP1 SUB PUSH1 0x1F AND DUP3 ADD SWAP2 JUMPDEST POP POP POP POP POP SWAP2 POP DUP1 DUP1 SLOAD DUP1 PUSH1 0x20 MUL PUSH1 0x20 ADD PUSH1 0x40 MLOAD SWAP1 DUP2 ADD PUSH1 0x40 MSTORE DUP1 SWAP3 SWAP2 SWAP1 DUP2 DUP2 MSTORE PUSH1 0x20 ADD DUP3 DUP1 SLOAD DUP1 ISZERO PUSH2 0xC44 JUMPI PUSH1 0x20 MUL DUP3 ADD SWAP2 SWAP1 PUSH0 MSTORE PUSH1 0x20 PUSH0 KECCAK256 SWAP1 JUMPDEST DUP2 PUSH0 SWAP1 SLOAD SWAP1 PUSH2 0x100 EXP SWAP1 DIV PUSH20 0xFFFFFFFFFFFFFFFFFFFFFFFFFFFFFFFFFFFFFFFF AND PUSH20 0xFFFFFFFFFFFFFFFFFFFFFFFFFFFFFFFFFFFFFFFF AND DUP2 MSTORE PUSH1 0x20 ADD SWAP1 PUSH1 0x1 ADD SWAP1 DUP1 DUP4 GT PUSH2 0xBFB JUMPI JUMPDEST POP POP POP POP POP SWAP1 POP SWAP3 POP SWAP3 POP POP SWAP1 SWAP2 JUMP JUMPDEST PUSH1 0x1 DUP2 DUP2 SLOAD DUP2 LT PUSH2 0xC68 JUMPI PUSH2 0xC67 PUSH2 0x23D2 JUMP JUMPDEST JUMPDEST SWAP1 PUSH0 MSTORE PUSH1 0x20 PUSH0 KECCAK256 SWAP1 PUSH1 0x4 MUL ADD PUSH0 ADD PUSH0 SWAP1 SLOAD SWAP1 PUSH2 0x100 EXP SWAP1 DIV PUSH20 0xFFFFFFFFFFFFFFFFFFFFFFFFFFFFFFFFFFFFFFFF AND PUSH20 0xFFFFFFFFFFFFFFFFFFFFFFFFFFFFFFFFFFFFFFFF AND CALLER PUSH20 0xFFFFFFFFFFFFFFFFFFFFFFFFFFFFFFFFFFFFFFFF AND EQ PUSH2 0xD03 JUMPI PUSH1 0x40 MLOAD PUSH32 0x8C379A000000000000000000000000000000000000000000000000000000000 DUP2 MSTORE PUSH1 0x4 ADD PUSH2 0xCFA SWAP1 PUSH2 0x288A JUMP JUMPDEST PUSH1 0x40 MLOAD DUP1 SWAP2 SUB SWAP1 REVERT JUMPDEST PUSH0 PUSH1 0x1 DUP3 DUP2 SLOAD DUP2 LT PUSH2 0xD18 JUMPI PUSH2 0xD17 PUSH2 0x23D2 JUMP JUMPDEST JUMPDEST SWAP1 PUSH0 MSTORE PUSH1 0x20 PUSH0 KECCAK256 SWAP1 PUSH1 0x4 MUL ADD PUSH1 0x3 ADD PUSH0 PUSH2 0x100 EXP DUP2 SLOAD DUP2 PUSH1 0xFF MUL NOT AND SWAP1 DUP4 ISZERO ISZERO MUL OR SWAP1 SSTORE POP POP JUMP JUMPDEST PUSH1 0x8 DUP1 SLOAD PUSH2 0xD4D SWAP1 PUSH2 0x233A JUMP JUMPDEST DUP1 PUSH1 0x1F ADD PUSH1 0x20 DUP1 SWAP2 DIV MUL PUSH1 0x20 ADD PUSH1 0x40 MLOAD SWAP1 DUP2 ADD PUSH1 0x40 MSTORE DUP1 SWAP3 SWAP2 SWAP1 DUP2 DUP2 MSTORE PUSH1 0x20 ADD DUP3 DUP1 SLOAD PUSH2 0xD79 SWAP1 PUSH2 0x233A JUMP JUMPDEST DUP1 ISZERO PUSH2 0xDC4 JUMPI DUP1 PUSH1 0x1F LT PUSH2 0xD9B JUMPI PUSH2 0x100 DUP1 DUP4 SLOAD DIV MUL DUP4 MSTORE SWAP2 PUSH1 0x20 ADD SWAP2 PUSH2 0xDC4 JUMP JUMPDEST DUP3 ADD SWAP2 SWAP1 PUSH0 MSTORE PUSH1 0x20 PUSH0 KECCAK256 SWAP1 JUMPDEST DUP2 SLOAD DUP2 MSTORE SWAP1 PUSH1 0x1 ADD SWAP1 PUSH1 0x20 ADD DUP1 DUP4 GT PUSH2 0xDA7 JUMPI DUP3 SWAP1 SUB PUSH1 0x1F AND DUP3 ADD SWAP2 JUMPDEST POP POP POP POP POP DUP2 JUMP JUMPDEST PUSH1 0x60 PUSH0 PUSH1 0x1 DUP1 DUP1 SLOAD SWAP1 POP PUSH2 0xDE0 SWAP2 SWAP1 PUSH2 0x28A8 JUMP JUMPDEST PUSH8 0xFFFFFFFFFFFFFFFF DUP2 GT ISZERO PUSH2 0xDF9 JUMPI PUSH2 0xDF8 PUSH2 0x2503 JUMP JUMPDEST JUMPDEST PUSH1 0x40 MLOAD SWAP1 DUP1 DUP3 MSTORE DUP1 PUSH1 0x20 MUL PUSH1 0x20 ADD DUP3 ADD PUSH1 0x40 MSTORE DUP1 ISZERO PUSH2 0xE2C JUMPI DUP2 PUSH1 0x20 ADD JUMPDEST PUSH1 0x60 DUP2 MSTORE PUSH1 0x20 ADD SWAP1 PUSH1 0x1 SWAP1 SUB SWAP1 DUP2 PUSH2 0xE17 JUMPI SWAP1 POP JUMPDEST POP SWAP1 POP PUSH2 0xEE0 PUSH1 0x3 DUP1 SLOAD DUP1 PUSH1 0x20 MUL PUSH1 0x20 ADD PUSH1 0x40 MLOAD SWAP1 DUP2 ADD PUSH1 0x40 MSTORE DUP1 SWAP3 SWAP2 SWAP1 DUP2 DUP2 MSTORE PUSH1 0x20 ADD DUP3 DUP1 SLOAD DUP1 ISZERO PUSH2 0xEA0 JUMPI PUSH1 0x20 MUL DUP3 ADD SWAP2 SWAP1 PUSH0 MSTORE PUSH1 0x20 PUSH0 KECCAK256 SWAP1 PUSH0 SWAP1 JUMPDEST DUP3 DUP3 SWAP1 SLOAD SWAP1 PUSH2 0x100 EXP SWAP1 DIV PUSH1 0xFF AND PUSH1 0xFF AND DUP2 MSTORE PUSH1 0x20 ADD SWAP1 PUSH1 0x1 ADD SWAP1 PUSH1 0x20 DUP3 PUSH0 ADD DIV SWAP3 DUP4 ADD SWAP3 PUSH1 0x1 SUB DUP3 MUL SWAP2 POP DUP1 DUP5 GT PUSH2 0xE6A JUMPI SWAP1 POP JUMPDEST POP POP POP POP POP PUSH1 0x40 MLOAD DUP1 PUSH1 0x40 ADD PUSH1 0x40 MSTORE DUP1 PUSH1 0x6 DUP2 MSTORE PUSH1 0x20 ADD PUSH32 0x42616E6B3A200000000000000000000000000000000000000000000000000000 DUP2 MSTORE POP PUSH2 0x1612 JUMP JUMPDEST DUP2 PUSH0 DUP2 MLOAD DUP2 LT PUSH2 0xEF3 JUMPI PUSH2 0xEF2 PUSH2 0x23D2 JUMP JUMPDEST JUMPDEST PUSH1 0x20 MUL PUSH1 0x20 ADD ADD DUP2 SWAP1 MSTORE POP PUSH0 JUMPDEST PUSH1 0x1 DUP1 SLOAD SWAP1 POP DUP2 LT ISZERO PUSH2 0x1014 JUMPI PUSH2 0xFDD PUSH1 0x1 DUP3 DUP2 SLOAD DUP2 LT PUSH2 0xF24 JUMPI PUSH2 0xF23 PUSH2 0x23D2 JUMP JUMPDEST JUMPDEST SWAP1 PUSH0 MSTORE PUSH1 0x20 PUSH0 KECCAK256 SWAP1 PUSH1 0x4 MUL ADD PUSH1 0x2 ADD DUP1 SLOAD DUP1 PUSH1 0x20 MUL PUSH1 0x20 ADD PUSH1 0x40 MLOAD SWAP1 DUP2 ADD PUSH1 0x40 MSTORE DUP1 SWAP3 SWAP2 SWAP1 DUP2 DUP2 MSTORE PUSH1 0x20 ADD DUP3 DUP1 SLOAD DUP1 ISZERO PUSH2 0xF9F JUMPI PUSH1 0x20 MUL DUP3 ADD SWAP2 SWAP1 PUSH0 MSTORE PUSH1 0x20 PUSH0 KECCAK256 SWAP1 PUSH0 SWAP1 JUMPDEST DUP3 DUP3 SWAP1 SLOAD SWAP1 PUSH2 0x100 EXP SWAP1 DIV PUSH1 0xFF AND PUSH1 0xFF AND DUP2 MSTORE PUSH1 0x20 ADD SWAP1 PUSH1 0x1 ADD SWAP1 PUSH1 0x20 DUP3 PUSH0 ADD DIV SWAP3 DUP4 ADD SWAP3 PUSH1 0x1 SUB DUP3 MUL SWAP2 POP DUP1 DUP5 GT PUSH2 0xF69 JUMPI SWAP1 POP JUMPDEST POP POP POP POP POP PUSH2 0xFB9 PUSH1 0x1 DUP5 PUSH2 0xFB4 SWAP2 SWAP1 PUSH2 0x28A8 JUMP JUMPDEST PUSH2 0x1A70 JUMP JUMPDEST PUSH1 0x40 MLOAD PUSH1 0x20 ADD PUSH2 0xFC9 SWAP2 SWAP1 PUSH2 0x29A9 JUMP JUMPDEST PUSH1 0x40 MLOAD PUSH1 0x20 DUP2 DUP4 SUB SUB DUP2 MSTORE SWAP1 PUSH1 0x40 MSTORE PUSH2 0x1612 JUMP JUMPDEST DUP3 PUSH1 0x1 DUP4 PUSH2 0xFEB SWAP2 SWAP1 PUSH2 0x28A8 JUMP JUMPDEST DUP2 MLOAD DUP2 LT PUSH2 0xFFC JUMPI PUSH2 0xFFB PUSH2 0x23D2 JUMP JUMPDEST JUMPDEST PUSH1 0x20 MUL PUSH1 0x20 ADD ADD DUP2 SWAP1 MSTORE POP DUP1 DUP1 PUSH1 0x1 ADD SWAP2 POP POP PUSH2 0xF00 JUMP JUMPDEST POP DUP1 SWAP2 POP POP SWAP1 JUMP JUMPDEST PUSH0 PUSH1 0x2 SLOAD GT PUSH2 0x1060 JUMPI PUSH1 0x40 MLOAD PUSH32 0x8C379A000000000000000000000000000000000000000000000000000000000 DUP2 MSTORE PUSH1 0x4 ADD PUSH2 0x1057 SWAP1 PUSH2 0x2A1F JUMP JUMPDEST PUSH1 0x40 MLOAD DUP1 SWAP2 SUB SWAP1 REVERT JUMPDEST PUSH2 0x1068 PUSH2 0x1BCE JUMP JUMPDEST PUSH0 JUMPDEST PUSH1 0x1 DUP1 SLOAD SWAP1 POP DUP2 LT ISZERO PUSH2 0x115A JUMPI PUSH1 0x1 DUP2 DUP2 SLOAD DUP2 LT PUSH2 0x108B JUMPI PUSH2 0x108A PUSH2 0x23D2 JUMP JUMPDEST JUMPDEST SWAP1 PUSH0 MSTORE PUSH1 0x20 PUSH0 KECCAK256 SWAP1 PUSH1 0x4 MUL ADD PUSH1 0x2 ADD PUSH2 0x10A2 PUSH2 0x146D JUMP JUMPDEST SWAP1 DUP1 PUSH1 0x1 DUP2 SLOAD ADD DUP1 DUP3 SSTORE DUP1 SWAP2 POP POP PUSH1 0x1 SWAP1 SUB SWAP1 PUSH0 MSTORE PUSH1 0x20 PUSH0 KECCAK256 SWAP1 PUSH1 0x20 SWAP2 DUP3 DUP3 DIV ADD SWAP2 SWAP1 MOD SWAP1 SWAP2 SWAP1 SWAP2 SWAP1 SWAP2 PUSH2 0x100 EXP DUP2 SLOAD DUP2 PUSH1 0xFF MUL NOT AND SWAP1 DUP4 PUSH1 0xFF AND MUL OR SWAP1 SSTORE POP PUSH1 0x1 DUP2 DUP2 SLOAD DUP2 LT PUSH2 0x10F6 JUMPI PUSH2 0x10F5 PUSH2 0x23D2 JUMP JUMPDEST JUMPDEST SWAP1 PUSH0 MSTORE PUSH1 0x20 PUSH0 KECCAK256 SWAP1 PUSH1 0x4 MUL ADD PUSH1 0x2 ADD PUSH2 0x110D PUSH2 0x146D JUMP JUMPDEST SWAP1 DUP1 PUSH1 0x1 DUP2 SLOAD ADD DUP1 DUP3 SSTORE DUP1 SWAP2 POP POP PUSH1 0x1 SWAP1 SUB SWAP1 PUSH0 MSTORE PUSH1 0x20 PUSH0 KECCAK256 SWAP1 PUSH1 0x20 SWAP2 DUP3 DUP3 DIV ADD SWAP2 SWAP1 MOD SWAP1 SWAP2 SWAP1 SWAP2 SWAP1 SWAP2 PUSH2 0x100 EXP DUP2 SLOAD DUP2 PUSH1 0xFF MUL NOT AND SWAP1 DUP4 PUSH1 0xFF AND MUL OR SWAP1 SSTORE POP DUP1 DUP1 PUSH1 0x1 ADD SWAP2 POP POP PUSH2 0x106A JUMP JUMPDEST POP PUSH1 0x3 PUSH2 0x1165 PUSH2 0x146D JUMP JUMPDEST SWAP1 DUP1 PUSH1 0x1 DUP2 SLOAD ADD DUP1 DUP3 SSTORE DUP1 SWAP2 POP POP PUSH1 0x1 SWAP1 SUB SWAP1 PUSH0 MSTORE PUSH1 0x20 PUSH0 KECCAK256 SWAP1 PUSH1 0x20 SWAP2 DUP3 DUP3 DIV ADD SWAP2 SWAP1 MOD SWAP1 SWAP2 SWAP1 SWAP2 SWAP1 SWAP2 PUSH2 0x100 EXP DUP2 SLOAD DUP2 PUSH1 0xFF MUL NOT AND SWAP1 DUP4 PUSH1 0xFF AND MUL OR SWAP1 SSTORE POP JUMP JUMPDEST PUSH1 0x4 PUSH1 0x2 SLOAD LT PUSH2 0x11EC JUMPI PUSH1 0x40 MLOAD PUSH32 0x8C379A000000000000000000000000000000000000000000000000000000000 DUP2 MSTORE PUSH1 0x4 ADD PUSH2 0x11E3 SWAP1 PUSH2 0x2A87 JUMP JUMPDEST PUSH1 0x40 MLOAD DUP1 SWAP2 SUB SWAP1 REVERT JUMPDEST DUP1 CALLVALUE EQ PUSH2 0x122E JUMPI PUSH1 0x40 MLOAD PUSH32 0x8C379A000000000000000000000000000000000000000000000000000000000 DUP2 MSTORE PUSH1 0x4 ADD PUSH2 0x1225 SWAP1 PUSH2 0x2AEF JUMP JUMPDEST PUSH1 0x40 MLOAD DUP1 SWAP2 SUB SWAP1 REVERT JUMPDEST PUSH1 0x1 PUSH1 0x40 MLOAD DUP1 PUSH1 0xA0 ADD PUSH1 0x40 MSTORE DUP1 CALLER PUSH20 0xFFFFFFFFFFFFFFFFFFFFFFFFFFFFFFFFFFFFFFFF AND DUP2 MSTORE PUSH1 0x20 ADD DUP4 DUP2 MSTORE PUSH1 0x20 ADD PUSH0 PUSH8 0xFFFFFFFFFFFFFFFF DUP2 GT ISZERO PUSH2 0x1277 JUMPI PUSH2 0x1276 PUSH2 0x2503 JUMP JUMPDEST JUMPDEST PUSH1 0x40 MLOAD SWAP1 DUP1 DUP3 MSTORE DUP1 PUSH1 0x20 MUL PUSH1 0x20 ADD DUP3 ADD PUSH1 0x40 MSTORE DUP1 ISZERO PUSH2 0x12A5 JUMPI DUP2 PUSH1 0x20 ADD PUSH1 0x20 DUP3 MUL DUP1 CALLDATASIZE DUP4 CALLDATACOPY DUP1 DUP3 ADD SWAP2 POP POP SWAP1 POP JUMPDEST POP DUP2 MSTORE PUSH1 0x20 ADD PUSH1 0x1 ISZERO ISZERO DUP2 MSTORE PUSH1 0x20 ADD PUSH0 ISZERO ISZERO DUP2 MSTORE POP SWAP1 DUP1 PUSH1 0x1 DUP2 SLOAD ADD DUP1 DUP3 SSTORE DUP1 SWAP2 POP POP PUSH1 0x1 SWAP1 SUB SWAP1 PUSH0 MSTORE PUSH1 0x20 PUSH0 KECCAK256 SWAP1 PUSH1 0x4 MUL ADD PUSH0 SWAP1 SWAP2 SWAP1 SWAP2 SWAP1 SWAP2 POP PUSH0 DUP3 ADD MLOAD DUP2 PUSH0 ADD PUSH0 PUSH2 0x100 EXP DUP2 SLOAD DUP2 PUSH20 0xFFFFFFFFFFFFFFFFFFFFFFFFFFFFFFFFFFFFFFFF MUL NOT AND SWAP1 DUP4 PUSH20 0xFFFFFFFFFFFFFFFFFFFFFFFFFFFFFFFFFFFFFFFF AND MUL OR SWAP1 SSTORE POP PUSH1 0x20 DUP3 ADD MLOAD DUP2 PUSH1 0x1 ADD SSTORE PUSH1 0x40 DUP3 ADD MLOAD DUP2 PUSH1 0x2 ADD SWAP1 DUP1 MLOAD SWAP1 PUSH1 0x20 ADD SWAP1 PUSH2 0x134A SWAP3 SWAP2 SWAP1 PUSH2 0x1E38 JUMP JUMPDEST POP PUSH1 0x60 DUP3 ADD MLOAD DUP2 PUSH1 0x3 ADD PUSH0 PUSH2 0x100 EXP DUP2 SLOAD DUP2 PUSH1 0xFF MUL NOT AND SWAP1 DUP4 ISZERO ISZERO MUL OR SWAP1 SSTORE POP PUSH1 0x80 DUP3 ADD MLOAD DUP2 PUSH1 0x3 ADD PUSH1 0x1 PUSH2 0x100 EXP DUP2 SLOAD DUP2 PUSH1 0xFF MUL NOT AND SWAP1 DUP4 ISZERO ISZERO MUL OR SWAP1 SSTORE POP POP POP PUSH1 0x2 PUSH0 DUP2 SLOAD DUP1 SWAP3 SWAP2 SWAP1 PUSH2 0x139E SWAP1 PUSH2 0x2B0D JUMP JUMPDEST SWAP2 SWAP1 POP SSTORE POP POP JUMP JUMPDEST PUSH0 DUP1 PUSH0 SWAP1 POP JUMPDEST PUSH1 0x1 DUP1 SLOAD SWAP1 POP DUP2 LT ISZERO PUSH2 0x1443 JUMPI DUP3 PUSH20 0xFFFFFFFFFFFFFFFFFFFFFFFFFFFFFFFFFFFFFFFF AND PUSH1 0x1 DUP3 DUP2 SLOAD DUP2 LT PUSH2 0x13E4 JUMPI PUSH2 0x13E3 PUSH2 0x23D2 JUMP JUMPDEST JUMPDEST SWAP1 PUSH0 MSTORE PUSH1 0x20 PUSH0 KECCAK256 SWAP1 PUSH1 0x4 MUL ADD PUSH0 ADD PUSH0 SWAP1 SLOAD SWAP1 PUSH2 0x100 EXP SWAP1 DIV PUSH20 0xFFFFFFFFFFFFFFFFFFFFFFFFFFFFFFFFFFFFFFFF AND PUSH20 0xFFFFFFFFFFFFFFFFFFFFFFFFFFFFFFFFFFFFFFFF AND SUB PUSH2 0x1436 JUMPI DUP1 SWAP2 POP POP PUSH2 0x1468 JUMP JUMPDEST DUP1 DUP1 PUSH1 0x1 ADD SWAP2 POP POP PUSH2 0x13AC JUMP JUMPDEST POP PUSH32 0xFFFFFFFFFFFFFFFFFFFFFFFFFFFFFFFFFFFFFFFFFFFFFFFFFFFFFFFFFFFFFFFF SWAP1 POP JUMPDEST SWAP2 SWAP1 POP JUMP JUMPDEST PUSH0 DUP1 PUSH0 DUP1 SLOAD SWAP1 POP GT PUSH2 0x14B4 JUMPI PUSH1 0x40 MLOAD PUSH32 0x8C379A000000000000000000000000000000000000000000000000000000000 DUP2 MSTORE PUSH1 0x4 ADD PUSH2 0x14AB SWAP1 PUSH2 0x2B9E JUMP JUMPDEST PUSH1 0x40 MLOAD DUP1 SWAP2 SUB SWAP1 REVERT JUMPDEST PUSH0 DUP1 PUSH1 0x1 PUSH0 DUP1 SLOAD SWAP1 POP PUSH2 0x14C7 SWAP2 SWAP1 PUSH2 0x2BBC JUMP JUMPDEST DUP2 SLOAD DUP2 LT PUSH2 0x14D8 JUMPI PUSH2 0x14D7 PUSH2 0x23D2 JUMP JUMPDEST JUMPDEST SWAP1 PUSH0 MSTORE PUSH1 0x20 PUSH0 KECCAK256 SWAP1 PUSH1 0x20 SWAP2 DUP3 DUP3 DIV ADD SWAP2 SWAP1 MOD SWAP1 SLOAD SWAP1 PUSH2 0x100 EXP SWAP1 DIV PUSH1 0xFF AND SWAP1 POP PUSH0 DUP1 SLOAD DUP1 PUSH2 0x1509 JUMPI PUSH2 0x1508 PUSH2 0x2BEF JUMP JUMPDEST JUMPDEST PUSH1 0x1 SWAP1 SUB DUP2 DUP2 SWAP1 PUSH0 MSTORE PUSH1 0x20 PUSH0 KECCAK256 SWAP1 PUSH1 0x20 SWAP2 DUP3 DUP3 DIV ADD SWAP2 SWAP1 MOD PUSH2 0x100 EXP DUP2 SLOAD SWAP1 PUSH1 0xFF MUL NOT AND SWAP1 SSTORE SWAP1 SSTORE DUP1 SWAP2 POP POP SWAP1 JUMP JUMPDEST PUSH0 DUP1 PUSH0 SWAP1 POP PUSH0 DUP1 JUMPDEST DUP5 MLOAD DUP2 LT ISZERO PUSH2 0x15C9 JUMPI PUSH0 PUSH1 0xD DUP7 DUP4 DUP2 MLOAD DUP2 LT PUSH2 0x155F JUMPI PUSH2 0x155E PUSH2 0x23D2 JUMP JUMPDEST JUMPDEST PUSH1 0x20 MUL PUSH1 0x20 ADD ADD MLOAD PUSH2 0x1571 SWAP2 SWAP1 PUSH2 0x2C49 JUMP JUMPDEST SWAP1 POP PUSH0 DUP2 PUSH1 0xFF AND SUB PUSH2 0x1582 JUMPI PUSH1 0xD SWAP1 POP JUMPDEST PUSH1 0xA DUP2 PUSH1 0xFF AND GT ISZERO PUSH2 0x1593 JUMPI PUSH1 0xA SWAP1 POP JUMPDEST PUSH1 0x1 DUP2 PUSH1 0xFF AND SUB PUSH2 0x15AD JUMPI DUP3 DUP1 PUSH2 0x15A9 SWAP1 PUSH2 0x2C79 JUMP JUMPDEST SWAP4 POP POP JUMPDEST DUP1 DUP5 PUSH2 0x15B9 SWAP2 SWAP1 PUSH2 0x2CA1 JUMP JUMPDEST SWAP4 POP POP DUP1 DUP1 PUSH1 0x1 ADD SWAP2 POP POP PUSH2 0x1540 JUMP JUMPDEST POP JUMPDEST PUSH1 0xB DUP3 PUSH1 0xFF AND GT ISZERO DUP1 ISZERO PUSH2 0x15E1 JUMPI POP PUSH0 DUP2 PUSH1 0xFF AND GT JUMPDEST ISZERO PUSH2 0x1608 JUMPI PUSH1 0xA DUP3 PUSH2 0x15F3 SWAP2 SWAP1 PUSH2 0x2CA1 JUMP JUMPDEST SWAP2 POP DUP1 DUP1 PUSH2 0x1600 SWAP1 PUSH2 0x2CD5 JUMP JUMPDEST SWAP2 POP POP PUSH2 0x15CB JUMP JUMPDEST DUP2 SWAP3 POP POP POP SWAP2 SWAP1 POP JUMP JUMPDEST PUSH1 0x60 PUSH0 DUP3 SWAP1 POP PUSH0 JUMPDEST DUP5 MLOAD DUP2 LT ISZERO PUSH2 0x17FB JUMPI PUSH0 PUSH1 0xD DUP7 DUP4 DUP2 MLOAD DUP2 LT PUSH2 0x1639 JUMPI PUSH2 0x1638 PUSH2 0x23D2 JUMP JUMPDEST JUMPDEST PUSH1 0x20 MUL PUSH1 0x20 ADD ADD MLOAD PUSH2 0x164B SWAP2 SWAP1 PUSH2 0x2C49 JUMP JUMPDEST SWAP1 POP PUSH0 DUP2 PUSH1 0xFF AND SUB PUSH2 0x165C JUMPI PUSH1 0xD SWAP1 POP JUMPDEST PUSH1 0x60 PUSH1 0x1 DUP3 PUSH1 0xFF AND SUB PUSH2 0x16A6 JUMPI PUSH1 0x40 MLOAD DUP1 PUSH1 0x40 ADD PUSH1 0x40 MSTORE DUP1 PUSH1 0x1 DUP2 MSTORE PUSH1 0x20 ADD PUSH32 0x4100000000000000000000000000000000000000000000000000000000000000 DUP2 MSTORE POP SWAP1 POP PUSH2 0x1790 JUMP JUMPDEST PUSH1 0xB DUP3 PUSH1 0xFF AND SUB PUSH2 0x16EE JUMPI PUSH1 0x40 MLOAD DUP1 PUSH1 0x40 ADD PUSH1 0x40 MSTORE DUP1 PUSH1 0x1 DUP2 MSTORE PUSH1 0x20 ADD PUSH32 0x4A00000000000000000000000000000000000000000000000000000000000000 DUP2 MSTORE POP SWAP1 POP PUSH2 0x178F JUMP JUMPDEST PUSH1 0xC DUP3 PUSH1 0xFF AND SUB PUSH2 0x1736 JUMPI PUSH1 0x40 MLOAD DUP1 PUSH1 0x40 ADD PUSH1 0x40 MSTORE DUP1 PUSH1 0x1 DUP2 MSTORE PUSH1 0x20 ADD PUSH32 0x5100000000000000000000000000000000000000000000000000000000000000 DUP2 MSTORE POP SWAP1 POP PUSH2 0x178E JUMP JUMPDEST PUSH1 0xD DUP3 PUSH1 0xFF AND SUB PUSH2 0x177E JUMPI PUSH1 0x40 MLOAD DUP1 PUSH1 0x40 ADD PUSH1 0x40 MSTORE DUP1 PUSH1 0x1 DUP2 MSTORE PUSH1 0x20 ADD PUSH32 0x4B00000000000000000000000000000000000000000000000000000000000000 DUP2 MSTORE POP SWAP1 POP PUSH2 0x178D JUMP JUMPDEST PUSH2 0x178A DUP3 PUSH1 0xFF AND PUSH2 0x1A70 JUMP JUMPDEST SWAP1 POP JUMPDEST JUMPDEST JUMPDEST JUMPDEST DUP4 DUP2 PUSH1 0x40 MLOAD PUSH1 0x20 ADD PUSH2 0x17A3 SWAP3 SWAP2 SWAP1 PUSH2 0x2CFC JUMP JUMPDEST PUSH1 0x40 MLOAD PUSH1 0x20 DUP2 DUP4 SUB SUB DUP2 MSTORE SWAP1 PUSH1 0x40 MSTORE SWAP4 POP PUSH1 0x1 DUP8 MLOAD PUSH2 0x17C2 SWAP2 SWAP1 PUSH2 0x2BBC JUMP JUMPDEST DUP4 LT ISZERO PUSH2 0x17EC JUMPI DUP4 PUSH1 0x40 MLOAD PUSH1 0x20 ADD PUSH2 0x17DA SWAP2 SWAP1 PUSH2 0x2D69 JUMP JUMPDEST PUSH1 0x40 MLOAD PUSH1 0x20 DUP2 DUP4 SUB SUB DUP2 MSTORE SWAP1 PUSH1 0x40 MSTORE SWAP4 POP JUMPDEST POP POP DUP1 DUP1 PUSH1 0x1 ADD SWAP2 POP POP PUSH2 0x161A JUMP JUMPDEST POP DUP1 SWAP2 POP POP SWAP3 SWAP2 POP POP JUMP JUMPDEST PUSH1 0x60 PUSH0 DUP1 JUMPDEST DUP4 MLOAD DUP2 LT ISZERO PUSH2 0x189E JUMPI PUSH1 0x4 PUSH0 SWAP1 SLOAD SWAP1 PUSH2 0x100 EXP SWAP1 DIV PUSH20 0xFFFFFFFFFFFFFFFFFFFFFFFFFFFFFFFFFFFFFFFF AND PUSH20 0xFFFFFFFFFFFFFFFFFFFFFFFFFFFFFFFFFFFFFFFF AND DUP5 DUP3 DUP2 MLOAD DUP2 LT PUSH2 0x185F JUMPI PUSH2 0x185E PUSH2 0x23D2 JUMP JUMPDEST JUMPDEST PUSH1 0x20 MUL PUSH1 0x20 ADD ADD MLOAD PUSH20 0xFFFFFFFFFFFFFFFFFFFFFFFFFFFFFFFFFFFFFFFF AND EQ PUSH2 0x1891 JUMPI DUP2 DUP1 PUSH2 0x188D SWAP1 PUSH2 0x2B0D JUMP JUMPDEST SWAP3 POP POP JUMPDEST DUP1 DUP1 PUSH1 0x1 ADD SWAP2 POP POP PUSH2 0x180B JUMP JUMPDEST POP PUSH0 DUP2 SUB PUSH2 0x18E4 JUMPI PUSH1 0x40 MLOAD DUP1 PUSH1 0x40 ADD PUSH1 0x40 MSTORE DUP1 PUSH1 0xF DUP2 MSTORE PUSH1 0x20 ADD PUSH32 0x4E6F20706C617965727320776F6E2E0000000000000000000000000000000000 DUP2 MSTORE POP SWAP2 POP POP PUSH2 0x1A40 JUMP JUMPDEST PUSH0 PUSH1 0x40 MLOAD DUP1 PUSH1 0x20 ADD PUSH1 0x40 MSTORE DUP1 PUSH0 DUP2 MSTORE POP SWAP1 POP PUSH0 JUMPDEST DUP5 MLOAD DUP2 LT ISZERO PUSH2 0x1A39 JUMPI PUSH1 0x4 PUSH0 SWAP1 SLOAD SWAP1 PUSH2 0x100 EXP SWAP1 DIV PUSH20 0xFFFFFFFFFFFFFFFFFFFFFFFFFFFFFFFFFFFFFFFF AND PUSH20 0xFFFFFFFFFFFFFFFFFFFFFFFFFFFFFFFFFFFFFFFF AND DUP6 DUP3 DUP2 MLOAD DUP2 LT PUSH2 0x194C JUMPI PUSH2 0x194B PUSH2 0x23D2 JUMP JUMPDEST JUMPDEST PUSH1 0x20 MUL PUSH1 0x20 ADD ADD MLOAD PUSH20 0xFFFFFFFFFFFFFFFFFFFFFFFFFFFFFFFFFFFFFFFF AND EQ PUSH2 0x1A2C JUMPI PUSH0 PUSH2 0x1993 DUP7 DUP4 DUP2 MLOAD DUP2 LT PUSH2 0x1986 JUMPI PUSH2 0x1985 PUSH2 0x23D2 JUMP JUMPDEST JUMPDEST PUSH1 0x20 MUL PUSH1 0x20 ADD ADD MLOAD PUSH2 0x13A6 JUMP JUMPDEST SWAP1 POP PUSH32 0xFFFFFFFFFFFFFFFFFFFFFFFFFFFFFFFFFFFFFFFFFFFFFFFFFFFFFFFFFFFFFFFF DUP2 EQ PUSH2 0x1A2A JUMPI PUSH0 PUSH2 0x19D2 PUSH1 0x1 DUP4 PUSH2 0x19CD SWAP2 SWAP1 PUSH2 0x28A8 JUMP JUMPDEST PUSH2 0x1A70 JUMP JUMPDEST PUSH1 0x40 MLOAD PUSH1 0x20 ADD PUSH2 0x19E2 SWAP2 SWAP1 PUSH2 0x2D8A JUMP JUMPDEST PUSH1 0x40 MLOAD PUSH1 0x20 DUP2 DUP4 SUB SUB DUP2 MSTORE SWAP1 PUSH1 0x40 MSTORE SWAP1 POP PUSH0 DUP5 MLOAD SUB PUSH2 0x1A03 JUMPI DUP1 SWAP4 POP PUSH2 0x1A28 JUMP JUMPDEST DUP4 DUP2 PUSH1 0x40 MLOAD PUSH1 0x20 ADD PUSH2 0x1A16 SWAP3 SWAP2 SWAP1 PUSH2 0x2DAB JUMP JUMPDEST PUSH1 0x40 MLOAD PUSH1 0x20 DUP2 DUP4 SUB SUB DUP2 MSTORE SWAP1 PUSH1 0x40 MSTORE SWAP4 POP JUMPDEST POP JUMPDEST POP JUMPDEST DUP1 DUP1 PUSH1 0x1 ADD SWAP2 POP POP PUSH2 0x18F8 JUMP JUMPDEST POP DUP1 SWAP3 POP POP POP JUMPDEST SWAP2 SWAP1 POP JUMP JUMPDEST PUSH1 0x1 PUSH0 PUSH2 0x1A52 SWAP2 SWAP1 PUSH2 0x1EDA JUMP JUMPDEST PUSH1 0x3 PUSH0 PUSH2 0x1A5F SWAP2 SWAP1 PUSH2 0x1EFB JUMP JUMPDEST PUSH0 PUSH1 0x2 DUP2 SWAP1 SSTORE POP PUSH2 0x1A6E PUSH2 0x1D49 JUMP JUMPDEST JUMP JUMPDEST PUSH1 0x60 PUSH0 DUP3 SUB PUSH2 0x1AB6 JUMPI PUSH1 0x40 MLOAD DUP1 PUSH1 0x40 ADD PUSH1 0x40 MSTORE DUP1 PUSH1 0x1 DUP2 MSTORE PUSH1 0x20 ADD PUSH32 0x3000000000000000000000000000000000000000000000000000000000000000 DUP2 MSTORE POP SWAP1 POP PUSH2 0x1BC9 JUMP JUMPDEST PUSH0 DUP3 SWAP1 POP PUSH0 JUMPDEST PUSH0 DUP3 EQ PUSH2 0x1AE5 JUMPI DUP1 DUP1 PUSH2 0x1ACE SWAP1 PUSH2 0x2B0D JUMP JUMPDEST SWAP2 POP POP PUSH1 0xA DUP3 PUSH2 0x1ADE SWAP2 SWAP1 PUSH2 0x2DD9 JUMP JUMPDEST SWAP2 POP PUSH2 0x1ABC JUMP JUMPDEST PUSH0 DUP2 PUSH8 0xFFFFFFFFFFFFFFFF DUP2 GT ISZERO PUSH2 0x1B00 JUMPI PUSH2 0x1AFF PUSH2 0x2503 JUMP JUMPDEST JUMPDEST PUSH1 0x40 MLOAD SWAP1 DUP1 DUP3 MSTORE DUP1 PUSH1 0x1F ADD PUSH1 0x1F NOT AND PUSH1 0x20 ADD DUP3 ADD PUSH1 0x40 MSTORE DUP1 ISZERO PUSH2 0x1B32 JUMPI DUP2 PUSH1 0x20 ADD PUSH1 0x1 DUP3 MUL DUP1 CALLDATASIZE DUP4 CALLDATACOPY DUP1 DUP3 ADD SWAP2 POP POP SWAP1 POP JUMPDEST POP SWAP1 POP PUSH0 DUP3 SWAP1 POP DUP6 SWAP4 POP JUMPDEST PUSH0 DUP5 EQ PUSH2 0x1BC1 JUMPI PUSH1 0xA DUP5 PUSH2 0x1B51 SWAP2 SWAP1 PUSH2 0x2E09 JUMP JUMPDEST PUSH1 0x30 PUSH2 0x1B5D SWAP2 SWAP1 PUSH2 0x28A8 JUMP JUMPDEST PUSH1 0xF8 SHL DUP3 DUP3 PUSH2 0x1B6B SWAP1 PUSH2 0x2E39 JUMP JUMPDEST SWAP3 POP DUP3 DUP2 MLOAD DUP2 LT PUSH2 0x1B7F JUMPI PUSH2 0x1B7E PUSH2 0x23D2 JUMP JUMPDEST JUMPDEST PUSH1 0x20 ADD ADD SWAP1 PUSH31 0xFFFFFFFFFFFFFFFFFFFFFFFFFFFFFFFFFFFFFFFFFFFFFFFFFFFFFFFFFFFFFF NOT AND SWAP1 DUP2 PUSH0 BYTE SWAP1 MSTORE8 POP PUSH1 0xA DUP5 PUSH2 0x1BBA SWAP2 SWAP1 PUSH2 0x2DD9 JUMP JUMPDEST SWAP4 POP PUSH2 0x1B3D JUMP JUMPDEST DUP2 SWAP5 POP POP POP POP POP JUMPDEST SWAP2 SWAP1 POP JUMP JUMPDEST PUSH0 TIMESTAMP PREVRANDAO PUSH1 0x1 NUMBER PUSH2 0x1BDE SWAP2 SWAP1 PUSH2 0x2BBC JUMP JUMPDEST BLOCKHASH PUSH1 0x40 MLOAD PUSH1 0x20 ADD PUSH2 0x1BF1 SWAP4 SWAP3 SWAP2 SWAP1 PUSH2 0x2EA9 JUMP JUMPDEST PUSH1 0x40 MLOAD PUSH1 0x20 DUP2 DUP4 SUB SUB DUP2 MSTORE SWAP1 PUSH1 0x40 MSTORE DUP1 MLOAD SWAP1 PUSH1 0x20 ADD KECCAK256 PUSH0 SHR SWAP1 POP PUSH0 JUMPDEST PUSH0 DUP1 SLOAD SWAP1 POP DUP2 LT ISZERO PUSH2 0x1D45 JUMPI PUSH0 DUP1 DUP1 SLOAD SWAP1 POP DUP4 PUSH2 0x1C2A SWAP2 SWAP1 PUSH2 0x2E09 JUMP JUMPDEST SWAP1 POP PUSH0 DUP2 DUP2 SLOAD DUP2 LT PUSH2 0x1C3F JUMPI PUSH2 0x1C3E PUSH2 0x23D2 JUMP JUMPDEST JUMPDEST SWAP1 PUSH0 MSTORE PUSH1 0x20 PUSH0 KECCAK256 SWAP1 PUSH1 0x20 SWAP2 DUP3 DUP3 DIV ADD SWAP2 SWAP1 MOD SWAP1 SLOAD SWAP1 PUSH2 0x100 EXP SWAP1 DIV PUSH1 0xFF AND PUSH0 DUP4 DUP2 SLOAD DUP2 LT PUSH2 0x1C70 JUMPI PUSH2 0x1C6F PUSH2 0x23D2 JUMP JUMPDEST JUMPDEST SWAP1 PUSH0 MSTORE PUSH1 0x20 PUSH0 KECCAK256 SWAP1 PUSH1 0x20 SWAP2 DUP3 DUP3 DIV ADD SWAP2 SWAP1 MOD SWAP1 SLOAD SWAP1 PUSH2 0x100 EXP SWAP1 DIV PUSH1 0xFF AND PUSH0 DUP5 DUP2 SLOAD DUP2 LT PUSH2 0x1CA1 JUMPI PUSH2 0x1CA0 PUSH2 0x23D2 JUMP JUMPDEST JUMPDEST SWAP1 PUSH0 MSTORE PUSH1 0x20 PUSH0 KECCAK256 SWAP1 PUSH1 0x20 SWAP2 DUP3 DUP3 DIV ADD SWAP2 SWAP1 MOD PUSH0 DUP6 DUP2 SLOAD DUP2 LT PUSH2 0x1CC6 JUMPI PUSH2 0x1CC5 PUSH2 0x23D2 JUMP JUMPDEST JUMPDEST SWAP1 PUSH0 MSTORE PUSH1 0x20 PUSH0 KECCAK256 SWAP1 PUSH1 0x20 SWAP2 DUP3 DUP3 DIV ADD SWAP2 SWAP1 MOD DUP5 SWAP2 SWAP1 PUSH2 0x100 EXP DUP2 SLOAD DUP2 PUSH1 0xFF MUL NOT AND SWAP1 DUP4 PUSH1 0xFF AND MUL OR SWAP1 SSTORE POP DUP4 SWAP2 SWAP1 PUSH2 0x100 EXP DUP2 SLOAD DUP2 PUSH1 0xFF MUL NOT AND SWAP1 DUP4 PUSH1 0xFF AND MUL OR SWAP1 SSTORE POP POP POP DUP3 PUSH1 0x40 MLOAD PUSH1 0x20 ADD PUSH2 0x1D1D SWAP2 SWAP1 PUSH2 0x2EE5 JUMP JUMPDEST PUSH1 0x40 MLOAD PUSH1 0x20 DUP2 DUP4 SUB SUB DUP2 MSTORE SWAP1 PUSH1 0x40 MSTORE DUP1 MLOAD SWAP1 PUSH1 0x20 ADD KECCAK256 PUSH0 SHR SWAP3 POP POP DUP1 DUP1 PUSH1 0x1 ADD SWAP2 POP POP PUSH2 0x1C0D JUMP JUMPDEST POP POP JUMP JUMPDEST PUSH0 DUP1 PUSH2 0x1D55 SWAP2 SWAP1 PUSH2 0x1EFB JUMP JUMPDEST PUSH0 PUSH1 0x1 SWAP1 POP JUMPDEST PUSH1 0x34 DUP2 PUSH1 0xFF AND GT PUSH2 0x1DBB JUMPI PUSH0 DUP2 SWAP1 DUP1 PUSH1 0x1 DUP2 SLOAD ADD DUP1 DUP3 SSTORE DUP1 SWAP2 POP POP PUSH1 0x1 SWAP1 SUB SWAP1 PUSH0 MSTORE PUSH1 0x20 PUSH0 KECCAK256 SWAP1 PUSH1 0x20 SWAP2 DUP3 DUP3 DIV ADD SWAP2 SWAP1 MOD SWAP1 SWAP2 SWAP1 SWAP2 SWAP1 SWAP2 PUSH2 0x100 EXP DUP2 SLOAD DUP2 PUSH1 0xFF MUL NOT AND SWAP1 DUP4 PUSH1 0xFF AND MUL OR SWAP1 SSTORE POP DUP1 DUP1 PUSH2 0x1DB3 SWAP1 PUSH2 0x2C79 JUMP JUMPDEST SWAP2 POP POP PUSH2 0x1D5B JUMP JUMPDEST POP JUMP JUMPDEST POP DUP1 SLOAD PUSH0 DUP3 SSTORE SWAP1 PUSH0 MSTORE PUSH1 0x20 PUSH0 KECCAK256 SWAP1 DUP2 ADD SWAP1 PUSH2 0x1DD9 SWAP2 SWAP1 PUSH2 0x1F20 JUMP JUMPDEST POP JUMP JUMPDEST DUP3 DUP1 SLOAD DUP3 DUP3 SSTORE SWAP1 PUSH0 MSTORE PUSH1 0x20 PUSH0 KECCAK256 SWAP1 PUSH1 0x1F ADD PUSH1 0x20 SWAP1 DIV DUP2 ADD SWAP3 DUP3 ISZERO PUSH2 0x1E27 JUMPI PUSH0 MSTORE PUSH1 0x20 PUSH0 KECCAK256 SWAP2 PUSH1 0x1F ADD PUSH1 0x20 SWAP1 DIV DUP3 ADD JUMPDEST DUP3 DUP2 GT ISZERO PUSH2 0x1E26 JUMPI DUP3 SLOAD DUP3 SSTORE SWAP2 PUSH1 0x1 ADD SWAP2 SWAP1 PUSH1 0x1 ADD SWAP1 PUSH2 0x1E0B JUMP JUMPDEST JUMPDEST POP SWAP1 POP PUSH2 0x1E34 SWAP2 SWAP1 PUSH2 0x1F20 JUMP JUMPDEST POP SWAP1 JUMP JUMPDEST DUP3 DUP1 SLOAD DUP3 DUP3 SSTORE SWAP1 PUSH0 MSTORE PUSH1 0x20 PUSH0 KECCAK256 SWAP1 PUSH1 0x1F ADD PUSH1 0x20 SWAP1 DIV DUP2 ADD SWAP3 DUP3 ISZERO PUSH2 0x1EC9 JUMPI SWAP2 PUSH1 0x20 MUL DUP3 ADD PUSH0 JUMPDEST DUP4 DUP3 GT ISZERO PUSH2 0x1E9B JUMPI DUP4 MLOAD DUP4 DUP3 PUSH2 0x100 EXP DUP2 SLOAD DUP2 PUSH1 0xFF MUL NOT AND SWAP1 DUP4 PUSH1 0xFF AND MUL OR SWAP1 SSTORE POP SWAP3 PUSH1 0x20 ADD SWAP3 PUSH1 0x1 ADD PUSH1 0x20 DUP2 PUSH0 ADD DIV SWAP3 DUP4 ADD SWAP3 PUSH1 0x1 SUB MUL PUSH2 0x1E5E JUMP JUMPDEST DUP1 ISZERO PUSH2 0x1EC7 JUMPI DUP3 DUP2 PUSH2 0x100 EXP DUP2 SLOAD SWAP1 PUSH1 0xFF MUL NOT AND SWAP1 SSTORE PUSH1 0x1 ADD PUSH1 0x20 DUP2 PUSH0 ADD DIV SWAP3 DUP4 ADD SWAP3 PUSH1 0x1 SUB MUL PUSH2 0x1E9B JUMP JUMPDEST POP JUMPDEST POP SWAP1 POP PUSH2 0x1ED6 SWAP2 SWAP1 PUSH2 0x1F20 JUMP JUMPDEST POP SWAP1 JUMP JUMPDEST POP DUP1 SLOAD PUSH0 DUP3 SSTORE PUSH1 0x4 MUL SWAP1 PUSH0 MSTORE PUSH1 0x20 PUSH0 KECCAK256 SWAP1 DUP2 ADD SWAP1 PUSH2 0x1EF8 SWAP2 SWAP1 PUSH2 0x1F3B JUMP JUMPDEST POP JUMP JUMPDEST POP DUP1 SLOAD PUSH0 DUP3 SSTORE PUSH1 0x1F ADD PUSH1 0x20 SWAP1 DIV SWAP1 PUSH0 MSTORE PUSH1 0x20 PUSH0 KECCAK256 SWAP1 DUP2 ADD SWAP1 PUSH2 0x1F1D SWAP2 SWAP1 PUSH2 0x1F20 JUMP JUMPDEST POP JUMP JUMPDEST JUMPDEST DUP1 DUP3 GT ISZERO PUSH2 0x1F37 JUMPI PUSH0 DUP2 PUSH0 SWAP1 SSTORE POP PUSH1 0x1 ADD PUSH2 0x1F21 JUMP JUMPDEST POP SWAP1 JUMP JUMPDEST JUMPDEST DUP1 DUP3 GT ISZERO PUSH2 0x1FB0 JUMPI PUSH0 DUP1 DUP3 ADD PUSH0 PUSH2 0x100 EXP DUP2 SLOAD SWAP1 PUSH20 0xFFFFFFFFFFFFFFFFFFFFFFFFFFFFFFFFFFFFFFFF MUL NOT AND SWAP1 SSTORE PUSH1 0x1 DUP3 ADD PUSH0 SWAP1 SSTORE PUSH1 0x2 DUP3 ADD PUSH0 PUSH2 0x1F80 SWAP2 SWAP1 PUSH2 0x1EFB JUMP JUMPDEST PUSH1 0x3 DUP3 ADD PUSH0 PUSH2 0x100 EXP DUP2 SLOAD SWAP1 PUSH1 0xFF MUL NOT AND SWAP1 SSTORE PUSH1 0x3 DUP3 ADD PUSH1 0x1 PUSH2 0x100 EXP DUP2 SLOAD SWAP1 PUSH1 0xFF MUL NOT AND SWAP1 SSTORE POP PUSH1 0x4 ADD PUSH2 0x1F3C JUMP JUMPDEST POP SWAP1 JUMP JUMPDEST PUSH0 DUP2 MLOAD SWAP1 POP SWAP2 SWAP1 POP JUMP JUMPDEST PUSH0 DUP3 DUP3 MSTORE PUSH1 0x20 DUP3 ADD SWAP1 POP SWAP3 SWAP2 POP POP JUMP JUMPDEST DUP3 DUP2 DUP4 MCOPY PUSH0 DUP4 DUP4 ADD MSTORE POP POP POP JUMP JUMPDEST PUSH0 PUSH1 0x1F NOT PUSH1 0x1F DUP4 ADD AND SWAP1 POP SWAP2 SWAP1 POP JUMP JUMPDEST PUSH0 PUSH2 0x1FF6 DUP3 PUSH2 0x1FB4 JUMP JUMPDEST PUSH2 0x2000 DUP2 DUP6 PUSH2 0x1FBE JUMP JUMPDEST SWAP4 POP PUSH2 0x2010 DUP2 DUP6 PUSH1 0x20 DUP7 ADD PUSH2 0x1FCE JUMP JUMPDEST PUSH2 0x2019 DUP2 PUSH2 0x1FDC JUMP JUMPDEST DUP5 ADD SWAP2 POP POP SWAP3 SWAP2 POP POP JUMP JUMPDEST PUSH0 PUSH1 0x20 DUP3 ADD SWAP1 POP DUP2 DUP2 SUB PUSH0 DUP4 ADD MSTORE PUSH2 0x203C DUP2 DUP5 PUSH2 0x1FEC JUMP JUMPDEST SWAP1 POP SWAP3 SWAP2 POP POP JUMP JUMPDEST PUSH0 DUP2 SWAP1 POP SWAP2 SWAP1 POP JUMP JUMPDEST PUSH2 0x2056 DUP2 PUSH2 0x2044 JUMP JUMPDEST DUP3 MSTORE POP POP JUMP JUMPDEST PUSH0 PUSH1 0x20 DUP3 ADD SWAP1 POP PUSH2 0x206F PUSH0 DUP4 ADD DUP5 PUSH2 0x204D JUMP JUMPDEST SWAP3 SWAP2 POP POP JUMP JUMPDEST PUSH0 DUP2 MLOAD SWAP1 POP SWAP2 SWAP1 POP JUMP JUMPDEST PUSH0 DUP3 DUP3 MSTORE PUSH1 0x20 DUP3 ADD SWAP1 POP SWAP3 SWAP2 POP POP JUMP JUMPDEST PUSH0 DUP2 SWAP1 POP PUSH1 0x20 DUP3 ADD SWAP1 POP SWAP2 SWAP1 POP JUMP JUMPDEST PUSH0 PUSH20 0xFFFFFFFFFFFFFFFFFFFFFFFFFFFFFFFFFFFFFFFF DUP3 AND SWAP1 POP SWAP2 SWAP1 POP JUMP JUMPDEST PUSH0 PUSH2 0x20C7 DUP3 PUSH2 0x209E JUMP JUMPDEST SWAP1 POP SWAP2 SWAP1 POP JUMP JUMPDEST PUSH2 0x20D7 DUP2 PUSH2 0x20BD JUMP JUMPDEST DUP3 MSTORE POP POP JUMP JUMPDEST PUSH0 PUSH2 0x20E8 DUP4 DUP4 PUSH2 0x20CE JUMP JUMPDEST PUSH1 0x20 DUP4 ADD SWAP1 POP SWAP3 SWAP2 POP POP JUMP JUMPDEST PUSH0 PUSH1 0x20 DUP3 ADD SWAP1 POP SWAP2 SWAP1 POP JUMP JUMPDEST PUSH0 PUSH2 0x210A DUP3 PUSH2 0x2075 JUMP JUMPDEST PUSH2 0x2114 DUP2 DUP6 PUSH2 0x207F JUMP JUMPDEST SWAP4 POP PUSH2 0x211F DUP4 PUSH2 0x208F JUMP JUMPDEST DUP1 PUSH0 JUMPDEST DUP4 DUP2 LT ISZERO PUSH2 0x214F JUMPI DUP2 MLOAD PUSH2 0x2136 DUP9 DUP3 PUSH2 0x20DD JUMP JUMPDEST SWAP8 POP PUSH2 0x2141 DUP4 PUSH2 0x20F4 JUMP JUMPDEST SWAP3 POP POP PUSH1 0x1 DUP2 ADD SWAP1 POP PUSH2 0x2122 JUMP JUMPDEST POP DUP6 SWAP4 POP POP POP POP SWAP3 SWAP2 POP POP JUMP JUMPDEST PUSH0 PUSH1 0x40 DUP3 ADD SWAP1 POP DUP2 DUP2 SUB PUSH0 DUP4 ADD MSTORE PUSH2 0x2174 DUP2 DUP6 PUSH2 0x1FEC JUMP JUMPDEST SWAP1 POP DUP2 DUP2 SUB PUSH1 0x20 DUP4 ADD MSTORE PUSH2 0x2188 DUP2 DUP5 PUSH2 0x2100 JUMP JUMPDEST SWAP1 POP SWAP4 SWAP3 POP POP POP JUMP JUMPDEST PUSH0 DUP1 REVERT JUMPDEST PUSH2 0x219E DUP2 PUSH2 0x2044 JUMP JUMPDEST DUP2 EQ PUSH2 0x21A8 JUMPI PUSH0 DUP1 REVERT JUMPDEST POP JUMP JUMPDEST PUSH0 DUP2 CALLDATALOAD SWAP1 POP PUSH2 0x21B9 DUP2 PUSH2 0x2195 JUMP JUMPDEST SWAP3 SWAP2 POP POP JUMP JUMPDEST PUSH0 PUSH1 0x20 DUP3 DUP5 SUB SLT ISZERO PUSH2 0x21D4 JUMPI PUSH2 0x21D3 PUSH2 0x2191 JUMP JUMPDEST JUMPDEST PUSH0 PUSH2 0x21E1 DUP5 DUP3 DUP6 ADD PUSH2 0x21AB JUMP JUMPDEST SWAP2 POP POP SWAP3 SWAP2 POP POP JUMP JUMPDEST PUSH0 DUP2 MLOAD SWAP1 POP SWAP2 SWAP1 POP JUMP JUMPDEST PUSH0 DUP3 DUP3 MSTORE PUSH1 0x20 DUP3 ADD SWAP1 POP SWAP3 SWAP2 POP POP JUMP JUMPDEST PUSH0 DUP2 SWAP1 POP PUSH1 0x20 DUP3 ADD SWAP1 POP SWAP2 SWAP1 POP JUMP JUMPDEST PUSH0 DUP3 DUP3 MSTORE PUSH1 0x20 DUP3 ADD SWAP1 POP SWAP3 SWAP2 POP POP JUMP JUMPDEST PUSH0 PUSH2 0x222D DUP3 PUSH2 0x1FB4 JUMP JUMPDEST PUSH2 0x2237 DUP2 DUP6 PUSH2 0x2213 JUMP JUMPDEST SWAP4 POP PUSH2 0x2247 DUP2 DUP6 PUSH1 0x20 DUP7 ADD PUSH2 0x1FCE JUMP JUMPDEST PUSH2 0x2250 DUP2 PUSH2 0x1FDC JUMP JUMPDEST DUP5 ADD SWAP2 POP POP SWAP3 SWAP2 POP POP JUMP JUMPDEST PUSH0 PUSH2 0x2266 DUP4 DUP4 PUSH2 0x2223 JUMP JUMPDEST SWAP1 POP SWAP3 SWAP2 POP POP JUMP JUMPDEST PUSH0 PUSH1 0x20 DUP3 ADD SWAP1 POP SWAP2 SWAP1 POP JUMP JUMPDEST PUSH0 PUSH2 0x2284 DUP3 PUSH2 0x21EA JUMP JUMPDEST PUSH2 0x228E DUP2 DUP6 PUSH2 0x21F4 JUMP JUMPDEST SWAP4 POP DUP4 PUSH1 0x20 DUP3 MUL DUP6 ADD PUSH2 0x22A0 DUP6 PUSH2 0x2204 JUMP JUMPDEST DUP1 PUSH0 JUMPDEST DUP6 DUP2 LT ISZERO PUSH2 0x22DB JUMPI DUP5 DUP5 SUB DUP10 MSTORE DUP2 MLOAD PUSH2 0x22BC DUP6 DUP3 PUSH2 0x225B JUMP JUMPDEST SWAP5 POP PUSH2 0x22C7 DUP4 PUSH2 0x226E JUMP JUMPDEST SWAP3 POP PUSH1 0x20 DUP11 ADD SWAP10 POP POP PUSH1 0x1 DUP2 ADD SWAP1 POP PUSH2 0x22A3 JUMP JUMPDEST POP DUP3 SWAP8 POP DUP8 SWAP6 POP POP POP POP POP POP SWAP3 SWAP2 POP POP JUMP JUMPDEST PUSH0 PUSH1 0x20 DUP3 ADD SWAP1 POP DUP2 DUP2 SUB PUSH0 DUP4 ADD MSTORE PUSH2 0x2305 DUP2 DUP5 PUSH2 0x227A JUMP JUMPDEST SWAP1 POP SWAP3 SWAP2 POP POP JUMP JUMPDEST PUSH32 0x4E487B7100000000000000000000000000000000000000000000000000000000 PUSH0 MSTORE PUSH1 0x22 PUSH1 0x4 MSTORE PUSH1 0x24 PUSH0 REVERT JUMPDEST PUSH0 PUSH1 0x2 DUP3 DIV SWAP1 POP PUSH1 0x1 DUP3 AND DUP1 PUSH2 0x2351 JUMPI PUSH1 0x7F DUP3 AND SWAP2 POP JUMPDEST PUSH1 0x20 DUP3 LT DUP2 SUB PUSH2 0x2364 JUMPI PUSH2 0x2363 PUSH2 0x230D JUMP JUMPDEST JUMPDEST POP SWAP2 SWAP1 POP JUMP JUMPDEST PUSH32 0x596F7520617265206E6F74206120706C61796572000000000000000000000000 PUSH0 DUP3 ADD MSTORE POP JUMP JUMPDEST PUSH0 PUSH2 0x239E PUSH1 0x14 DUP4 PUSH2 0x1FBE JUMP JUMPDEST SWAP2 POP PUSH2 0x23A9 DUP3 PUSH2 0x236A JUMP JUMPDEST PUSH1 0x20 DUP3 ADD SWAP1 POP SWAP2 SWAP1 POP JUMP JUMPDEST PUSH0 PUSH1 0x20 DUP3 ADD SWAP1 POP DUP2 DUP2 SUB PUSH0 DUP4 ADD MSTORE PUSH2 0x23CB DUP2 PUSH2 0x2392 JUMP JUMPDEST SWAP1 POP SWAP2 SWAP1 POP JUMP JUMPDEST PUSH32 0x4E487B7100000000000000000000000000000000000000000000000000000000 PUSH0 MSTORE PUSH1 0x32 PUSH1 0x4 MSTORE PUSH1 0x24 PUSH0 REVERT JUMPDEST PUSH32 0x506C61796572206973206E6F7420616374697665000000000000000000000000 PUSH0 DUP3 ADD MSTORE POP JUMP JUMPDEST PUSH0 PUSH2 0x2433 PUSH1 0x14 DUP4 PUSH2 0x1FBE JUMP JUMPDEST SWAP2 POP PUSH2 0x243E DUP3 PUSH2 0x23FF JUMP JUMPDEST PUSH1 0x20 DUP3 ADD SWAP1 POP SWAP2 SWAP1 POP JUMP JUMPDEST PUSH0 PUSH1 0x20 DUP3 ADD SWAP1 POP DUP2 DUP2 SUB PUSH0 DUP4 ADD MSTORE PUSH2 0x2460 DUP2 PUSH2 0x2427 JUMP JUMPDEST SWAP1 POP SWAP2 SWAP1 POP JUMP JUMPDEST PUSH32 0x506C6179657220697320616C7265616479206275737465640000000000000000 PUSH0 DUP3 ADD MSTORE POP JUMP JUMPDEST PUSH0 PUSH2 0x249B PUSH1 0x18 DUP4 PUSH2 0x1FBE JUMP JUMPDEST SWAP2 POP PUSH2 0x24A6 DUP3 PUSH2 0x2467 JUMP JUMPDEST PUSH1 0x20 DUP3 ADD SWAP1 POP SWAP2 SWAP1 POP JUMP JUMPDEST PUSH0 PUSH1 0x20 DUP3 ADD SWAP1 POP DUP2 DUP2 SUB PUSH0 DUP4 ADD MSTORE PUSH2 0x24C8 DUP2 PUSH2 0x248F JUMP JUMPDEST SWAP1 POP SWAP2 SWAP1 POP JUMP JUMPDEST PUSH0 PUSH1 0xFF DUP3 AND SWAP1 POP SWAP2 SWAP1 POP JUMP JUMPDEST PUSH2 0x24E4 DUP2 PUSH2 0x24CF JUMP JUMPDEST DUP3 MSTORE POP POP JUMP JUMPDEST PUSH0 PUSH1 0x20 DUP3 ADD SWAP1 POP PUSH2 0x24FD PUSH0 DUP4 ADD DUP5 PUSH2 0x24DB JUMP JUMPDEST SWAP3 SWAP2 POP POP JUMP JUMPDEST PUSH32 0x4E487B7100000000000000000000000000000000000000000000000000000000 PUSH0 MSTORE PUSH1 0x41 PUSH1 0x4 MSTORE PUSH1 0x24 PUSH0 REVERT JUMPDEST PUSH0 DUP2 SWAP1 POP DUP2 PUSH0 MSTORE PUSH1 0x20 PUSH0 KECCAK256 SWAP1 POP SWAP2 SWAP1 POP JUMP JUMPDEST PUSH0 PUSH1 0x20 PUSH1 0x1F DUP4 ADD DIV SWAP1 POP SWAP2 SWAP1 POP JUMP JUMPDEST PUSH0 DUP3 DUP3 SHL SWAP1 POP SWAP3 SWAP2 POP POP JUMP JUMPDEST PUSH0 PUSH1 0x8 DUP4 MUL PUSH2 0x258C PUSH32 0xFFFFFFFFFFFFFFFFFFFFFFFFFFFFFFFFFFFFFFFFFFFFFFFFFFFFFFFFFFFFFFFF DUP3 PUSH2 0x2551 JUMP JUMPDEST PUSH2 0x2596 DUP7 DUP4 PUSH2 0x2551 JUMP JUMPDEST SWAP6 POP DUP1 NOT DUP5 AND SWAP4 POP DUP1 DUP7 AND DUP5 OR SWAP3 POP POP POP SWAP4 SWAP3 POP POP POP JUMP JUMPDEST PUSH0 DUP2 SWAP1 POP SWAP2 SWAP1 POP JUMP JUMPDEST PUSH0 PUSH2 0x25D1 PUSH2 0x25CC PUSH2 0x25C7 DUP5 PUSH2 0x2044 JUMP JUMPDEST PUSH2 0x25AE JUMP JUMPDEST PUSH2 0x2044 JUMP JUMPDEST SWAP1 POP SWAP2 SWAP1 POP JUMP JUMPDEST PUSH0 DUP2 SWAP1 POP SWAP2 SWAP1 POP JUMP JUMPDEST PUSH2 0x25EA DUP4 PUSH2 0x25B7 JUMP JUMPDEST PUSH2 0x25FE PUSH2 0x25F6 DUP3 PUSH2 0x25D8 JUMP JUMPDEST DUP5 DUP5 SLOAD PUSH2 0x255D JUMP JUMPDEST DUP3 SSTORE POP POP POP POP JUMP JUMPDEST PUSH0 SWAP1 JUMP JUMPDEST PUSH2 0x2612 PUSH2 0x2606 JUMP JUMPDEST PUSH2 0x261D DUP2 DUP5 DUP5 PUSH2 0x25E1 JUMP JUMPDEST POP POP POP JUMP JUMPDEST JUMPDEST DUP2 DUP2 LT ISZERO PUSH2 0x2640 JUMPI PUSH2 0x2635 PUSH0 DUP3 PUSH2 0x260A JUMP JUMPDEST PUSH1 0x1 DUP2 ADD SWAP1 POP PUSH2 0x2623 JUMP JUMPDEST POP POP JUMP JUMPDEST PUSH1 0x1F DUP3 GT ISZERO PUSH2 0x2685 JUMPI PUSH2 0x2656 DUP2 PUSH2 0x2530 JUMP JUMPDEST PUSH2 0x265F DUP5 PUSH2 0x2542 JUMP JUMPDEST DUP2 ADD PUSH1 0x20 DUP6 LT ISZERO PUSH2 0x266E JUMPI DUP2 SWAP1 POP JUMPDEST PUSH2 0x2682 PUSH2 0x267A DUP6 PUSH2 0x2542 JUMP JUMPDEST DUP4 ADD DUP3 PUSH2 0x2622 JUMP JUMPDEST POP POP JUMPDEST POP POP POP JUMP JUMPDEST PUSH0 DUP3 DUP3 SHR SWAP1 POP SWAP3 SWAP2 POP POP JUMP JUMPDEST PUSH0 PUSH2 0x26A5 PUSH0 NOT DUP5 PUSH1 0x8 MUL PUSH2 0x268A JUMP JUMPDEST NOT DUP1 DUP4 AND SWAP2 POP POP SWAP3 SWAP2 POP POP JUMP JUMPDEST PUSH0 PUSH2 0x26BD DUP4 DUP4 PUSH2 0x2696 JUMP JUMPDEST SWAP2 POP DUP3 PUSH1 0x2 MUL DUP3 OR SWAP1 POP SWAP3 SWAP2 POP POP JUMP JUMPDEST PUSH2 0x26D6 DUP3 PUSH2 0x1FB4 JUMP JUMPDEST PUSH8 0xFFFFFFFFFFFFFFFF DUP2 GT ISZERO PUSH2 0x26EF JUMPI PUSH2 0x26EE PUSH2 0x2503 JUMP JUMPDEST JUMPDEST PUSH2 0x26F9 DUP3 SLOAD PUSH2 0x233A JUMP JUMPDEST PUSH2 0x2704 DUP3 DUP3 DUP6 PUSH2 0x2644 JUMP JUMPDEST PUSH0 PUSH1 0x20 SWAP1 POP PUSH1 0x1F DUP4 GT PUSH1 0x1 DUP2 EQ PUSH2 0x2735 JUMPI PUSH0 DUP5 ISZERO PUSH2 0x2723 JUMPI DUP3 DUP8 ADD MLOAD SWAP1 POP JUMPDEST PUSH2 0x272D DUP6 DUP3 PUSH2 0x26B2 JUMP JUMPDEST DUP7 SSTORE POP PUSH2 0x2794 JUMP JUMPDEST PUSH1 0x1F NOT DUP5 AND PUSH2 0x2743 DUP7 PUSH2 0x2530 JUMP JUMPDEST PUSH0 JUMPDEST DUP3 DUP2 LT ISZERO PUSH2 0x276A JUMPI DUP5 DUP10 ADD MLOAD DUP3 SSTORE PUSH1 0x1 DUP3 ADD SWAP2 POP PUSH1 0x20 DUP6 ADD SWAP5 POP PUSH1 0x20 DUP2 ADD SWAP1 POP PUSH2 0x2745 JUMP JUMPDEST DUP7 DUP4 LT ISZERO PUSH2 0x2787 JUMPI DUP5 DUP10 ADD MLOAD PUSH2 0x2783 PUSH1 0x1F DUP10 AND DUP3 PUSH2 0x2696 JUMP JUMPDEST DUP4 SSTORE POP JUMPDEST PUSH1 0x1 PUSH1 0x2 DUP9 MUL ADD DUP9 SSTORE POP POP POP JUMPDEST POP POP POP POP POP POP JUMP JUMPDEST PUSH32 0x4E487B7100000000000000000000000000000000000000000000000000000000 PUSH0 MSTORE PUSH1 0x11 PUSH1 0x4 MSTORE PUSH1 0x24 PUSH0 REVERT JUMPDEST PUSH0 PUSH2 0x27D3 DUP3 PUSH2 0x2044 JUMP JUMPDEST SWAP2 POP PUSH2 0x27DE DUP4 PUSH2 0x2044 JUMP JUMPDEST SWAP3 POP DUP3 DUP3 MUL PUSH2 0x27EC DUP2 PUSH2 0x2044 JUMP JUMPDEST SWAP2 POP DUP3 DUP3 DIV DUP5 EQ DUP4 ISZERO OR PUSH2 0x2803 JUMPI PUSH2 0x2802 PUSH2 0x279C JUMP JUMPDEST JUMPDEST POP SWAP3 SWAP2 POP POP JUMP JUMPDEST PUSH2 0x2813 DUP2 PUSH2 0x20BD JUMP JUMPDEST DUP3 MSTORE POP POP JUMP JUMPDEST PUSH0 PUSH1 0x40 DUP3 ADD SWAP1 POP PUSH2 0x282C PUSH0 DUP4 ADD DUP6 PUSH2 0x280A JUMP JUMPDEST PUSH2 0x2839 PUSH1 0x20 DUP4 ADD DUP5 PUSH2 0x24DB JUMP JUMPDEST SWAP4 SWAP3 POP POP POP JUMP JUMPDEST PUSH32 0x4E6F7420796F7572207475726E00000000000000000000000000000000000000 PUSH0 DUP3 ADD MSTORE POP JUMP JUMPDEST PUSH0 PUSH2 0x2874 PUSH1 0xD DUP4 PUSH2 0x1FBE JUMP JUMPDEST SWAP2 POP PUSH2 0x287F DUP3 PUSH2 0x2840 JUMP JUMPDEST PUSH1 0x20 DUP3 ADD SWAP1 POP SWAP2 SWAP1 POP JUMP JUMPDEST PUSH0 PUSH1 0x20 DUP3 ADD SWAP1 POP DUP2 DUP2 SUB PUSH0 DUP4 ADD MSTORE PUSH2 0x28A1 DUP2 PUSH2 0x2868 JUMP JUMPDEST SWAP1 POP SWAP2 SWAP1 POP JUMP JUMPDEST PUSH0 PUSH2 0x28B2 DUP3 PUSH2 0x2044 JUMP JUMPDEST SWAP2 POP PUSH2 0x28BD DUP4 PUSH2 0x2044 JUMP JUMPDEST SWAP3 POP DUP3 DUP3 ADD SWAP1 POP DUP1 DUP3 GT ISZERO PUSH2 0x28D5 JUMPI PUSH2 0x28D4 PUSH2 0x279C JUMP JUMPDEST JUMPDEST SWAP3 SWAP2 POP POP JUMP JUMPDEST PUSH0 DUP2 SWAP1 POP SWAP3 SWAP2 POP POP JUMP JUMPDEST PUSH32 0x506C617965722000000000000000000000000000000000000000000000000000 PUSH0 DUP3 ADD MSTORE POP JUMP JUMPDEST PUSH0 PUSH2 0x2919 PUSH1 0x7 DUP4 PUSH2 0x28DB JUMP JUMPDEST SWAP2 POP PUSH2 0x2924 DUP3 PUSH2 0x28E5 JUMP JUMPDEST PUSH1 0x7 DUP3 ADD SWAP1 POP SWAP2 SWAP1 POP JUMP JUMPDEST PUSH0 PUSH2 0x2939 DUP3 PUSH2 0x1FB4 JUMP JUMPDEST PUSH2 0x2943 DUP2 DUP6 PUSH2 0x28DB JUMP JUMPDEST SWAP4 POP PUSH2 0x2953 DUP2 DUP6 PUSH1 0x20 DUP7 ADD PUSH2 0x1FCE JUMP JUMPDEST DUP1 DUP5 ADD SWAP2 POP POP SWAP3 SWAP2 POP POP JUMP JUMPDEST PUSH32 0x3A20000000000000000000000000000000000000000000000000000000000000 PUSH0 DUP3 ADD MSTORE POP JUMP JUMPDEST PUSH0 PUSH2 0x2993 PUSH1 0x2 DUP4 PUSH2 0x28DB JUMP JUMPDEST SWAP2 POP PUSH2 0x299E DUP3 PUSH2 0x295F JUMP JUMPDEST PUSH1 0x2 DUP3 ADD SWAP1 POP SWAP2 SWAP1 POP JUMP JUMPDEST PUSH0 PUSH2 0x29B3 DUP3 PUSH2 0x290D JUMP JUMPDEST SWAP2 POP PUSH2 0x29BF DUP3 DUP5 PUSH2 0x292F JUMP JUMPDEST SWAP2 POP PUSH2 0x29CA DUP3 PUSH2 0x2987 JUMP JUMPDEST SWAP2 POP DUP2 SWAP1 POP SWAP3 SWAP2 POP POP JUMP JUMPDEST PUSH32 0x4E6F20706C617965727320696E207468652067616D6500000000000000000000 PUSH0 DUP3 ADD MSTORE POP JUMP JUMPDEST PUSH0 PUSH2 0x2A09 PUSH1 0x16 DUP4 PUSH2 0x1FBE JUMP JUMPDEST SWAP2 POP PUSH2 0x2A14 DUP3 PUSH2 0x29D5 JUMP JUMPDEST PUSH1 0x20 DUP3 ADD SWAP1 POP SWAP2 SWAP1 POP JUMP JUMPDEST PUSH0 PUSH1 0x20 DUP3 ADD SWAP1 POP DUP2 DUP2 SUB PUSH0 DUP4 ADD MSTORE PUSH2 0x2A36 DUP2 PUSH2 0x29FD JUMP JUMPDEST SWAP1 POP SWAP2 SWAP1 POP JUMP JUMPDEST PUSH32 0x4D6178203420706C617965727320616C6C6F7765640000000000000000000000 PUSH0 DUP3 ADD MSTORE POP JUMP JUMPDEST PUSH0 PUSH2 0x2A71 PUSH1 0x15 DUP4 PUSH2 0x1FBE JUMP JUMPDEST SWAP2 POP PUSH2 0x2A7C DUP3 PUSH2 0x2A3D JUMP JUMPDEST PUSH1 0x20 DUP3 ADD SWAP1 POP SWAP2 SWAP1 POP JUMP JUMPDEST PUSH0 PUSH1 0x20 DUP3 ADD SWAP1 POP DUP2 DUP2 SUB PUSH0 DUP4 ADD MSTORE PUSH2 0x2A9E DUP2 PUSH2 0x2A65 JUMP JUMPDEST SWAP1 POP SWAP2 SWAP1 POP JUMP JUMPDEST PUSH32 0x42657420616D6F756E74206D69736D6174636800000000000000000000000000 PUSH0 DUP3 ADD MSTORE POP JUMP JUMPDEST PUSH0 PUSH2 0x2AD9 PUSH1 0x13 DUP4 PUSH2 0x1FBE JUMP JUMPDEST SWAP2 POP PUSH2 0x2AE4 DUP3 PUSH2 0x2AA5 JUMP JUMPDEST PUSH1 0x20 DUP3 ADD SWAP1 POP SWAP2 SWAP1 POP JUMP JUMPDEST PUSH0 PUSH1 0x20 DUP3 ADD SWAP1 POP DUP2 DUP2 SUB PUSH0 DUP4 ADD MSTORE PUSH2 0x2B06 DUP2 PUSH2 0x2ACD JUMP JUMPDEST SWAP1 POP SWAP2 SWAP1 POP JUMP JUMPDEST PUSH0 PUSH2 0x2B17 DUP3 PUSH2 0x2044 JUMP JUMPDEST SWAP2 POP PUSH32 0xFFFFFFFFFFFFFFFFFFFFFFFFFFFFFFFFFFFFFFFFFFFFFFFFFFFFFFFFFFFFFFFF DUP3 SUB PUSH2 0x2B49 JUMPI PUSH2 0x2B48 PUSH2 0x279C JUMP JUMPDEST JUMPDEST PUSH1 0x1 DUP3 ADD SWAP1 POP SWAP2 SWAP1 POP JUMP JUMPDEST PUSH32 0x4E6F206361726473206C65667420696E20746865206465636B00000000000000 PUSH0 DUP3 ADD MSTORE POP JUMP JUMPDEST PUSH0 PUSH2 0x2B88 PUSH1 0x19 DUP4 PUSH2 0x1FBE JUMP JUMPDEST SWAP2 POP PUSH2 0x2B93 DUP3 PUSH2 0x2B54 JUMP JUMPDEST PUSH1 0x20 DUP3 ADD SWAP1 POP SWAP2 SWAP1 POP JUMP JUMPDEST PUSH0 PUSH1 0x20 DUP3 ADD SWAP1 POP DUP2 DUP2 SUB PUSH0 DUP4 ADD MSTORE PUSH2 0x2BB5 DUP2 PUSH2 0x2B7C JUMP JUMPDEST SWAP1 POP SWAP2 SWAP1 POP JUMP JUMPDEST PUSH0 PUSH2 0x2BC6 DUP3 PUSH2 0x2044 JUMP JUMPDEST SWAP2 POP PUSH2 0x2BD1 DUP4 PUSH2 0x2044 JUMP JUMPDEST SWAP3 POP DUP3 DUP3 SUB SWAP1 POP DUP2 DUP2 GT ISZERO PUSH2 0x2BE9 JUMPI PUSH2 0x2BE8 PUSH2 0x279C JUMP JUMPDEST JUMPDEST SWAP3 SWAP2 POP POP JUMP JUMPDEST PUSH32 0x4E487B7100000000000000000000000000000000000000000000000000000000 PUSH0 MSTORE PUSH1 0x31 PUSH1 0x4 MSTORE PUSH1 0x24 PUSH0 REVERT JUMPDEST PUSH32 0x4E487B7100000000000000000000000000000000000000000000000000000000 PUSH0 MSTORE PUSH1 0x12 PUSH1 0x4 MSTORE PUSH1 0x24 PUSH0 REVERT JUMPDEST PUSH0 PUSH2 0x2C53 DUP3 PUSH2 0x24CF JUMP JUMPDEST SWAP2 POP PUSH2 0x2C5E DUP4 PUSH2 0x24CF JUMP JUMPDEST SWAP3 POP DUP3 PUSH2 0x2C6E JUMPI PUSH2 0x2C6D PUSH2 0x2C1C JUMP JUMPDEST JUMPDEST DUP3 DUP3 MOD SWAP1 POP SWAP3 SWAP2 POP POP JUMP JUMPDEST PUSH0 PUSH2 0x2C83 DUP3 PUSH2 0x24CF JUMP JUMPDEST SWAP2 POP PUSH1 0xFF DUP3 SUB PUSH2 0x2C96 JUMPI PUSH2 0x2C95 PUSH2 0x279C JUMP JUMPDEST JUMPDEST PUSH1 0x1 DUP3 ADD SWAP1 POP SWAP2 SWAP1 POP JUMP JUMPDEST PUSH0 PUSH2 0x2CAB DUP3 PUSH2 0x24CF JUMP JUMPDEST SWAP2 POP PUSH2 0x2CB6 DUP4 PUSH2 0x24CF JUMP JUMPDEST SWAP3 POP DUP3 DUP3 ADD SWAP1 POP PUSH1 0xFF DUP2 GT ISZERO PUSH2 0x2CCF JUMPI PUSH2 0x2CCE PUSH2 0x279C JUMP JUMPDEST JUMPDEST SWAP3 SWAP2 POP POP JUMP JUMPDEST PUSH0 PUSH2 0x2CDF DUP3 PUSH2 0x24CF JUMP JUMPDEST SWAP2 POP PUSH0 DUP3 SUB PUSH2 0x2CF1 JUMPI PUSH2 0x2CF0 PUSH2 0x279C JUMP JUMPDEST JUMPDEST PUSH1 0x1 DUP3 SUB SWAP1 POP SWAP2 SWAP1 POP JUMP JUMPDEST PUSH0 PUSH2 0x2D07 DUP3 DUP6 PUSH2 0x292F JUMP JUMPDEST SWAP2 POP PUSH2 0x2D13 DUP3 DUP5 PUSH2 0x292F JUMP JUMPDEST SWAP2 POP DUP2 SWAP1 POP SWAP4 SWAP3 POP POP POP JUMP JUMPDEST PUSH32 0x2C20000000000000000000000000000000000000000000000000000000000000 PUSH0 DUP3 ADD MSTORE POP JUMP JUMPDEST PUSH0 PUSH2 0x2D53 PUSH1 0x2 DUP4 PUSH2 0x28DB JUMP JUMPDEST SWAP2 POP PUSH2 0x2D5E DUP3 PUSH2 0x2D1F JUMP JUMPDEST PUSH1 0x2 DUP3 ADD SWAP1 POP SWAP2 SWAP1 POP JUMP JUMPDEST PUSH0 PUSH2 0x2D74 DUP3 DUP5 PUSH2 0x292F JUMP JUMPDEST SWAP2 POP PUSH2 0x2D7F DUP3 PUSH2 0x2D47 JUMP JUMPDEST SWAP2 POP DUP2 SWAP1 POP SWAP3 SWAP2 POP POP JUMP JUMPDEST PUSH0 PUSH2 0x2D94 DUP3 PUSH2 0x290D JUMP JUMPDEST SWAP2 POP PUSH2 0x2DA0 DUP3 DUP5 PUSH2 0x292F JUMP JUMPDEST SWAP2 POP DUP2 SWAP1 POP SWAP3 SWAP2 POP POP JUMP JUMPDEST PUSH0 PUSH2 0x2DB6 DUP3 DUP6 PUSH2 0x292F JUMP JUMPDEST SWAP2 POP PUSH2 0x2DC1 DUP3 PUSH2 0x2D47 JUMP JUMPDEST SWAP2 POP PUSH2 0x2DCD DUP3 DUP5 PUSH2 0x292F JUMP JUMPDEST SWAP2 POP DUP2 SWAP1 POP SWAP4 SWAP3 POP POP POP JUMP JUMPDEST PUSH0 PUSH2 0x2DE3 DUP3 PUSH2 0x2044 JUMP JUMPDEST SWAP2 POP PUSH2 0x2DEE DUP4 PUSH2 0x2044 JUMP JUMPDEST SWAP3 POP DUP3 PUSH2 0x2DFE JUMPI PUSH2 0x2DFD PUSH2 0x2C1C JUMP JUMPDEST JUMPDEST DUP3 DUP3 DIV SWAP1 POP SWAP3 SWAP2 POP POP JUMP JUMPDEST PUSH0 PUSH2 0x2E13 DUP3 PUSH2 0x2044 JUMP JUMPDEST SWAP2 POP PUSH2 0x2E1E DUP4 PUSH2 0x2044 JUMP JUMPDEST SWAP3 POP DUP3 PUSH2 0x2E2E JUMPI PUSH2 0x2E2D PUSH2 0x2C1C JUMP JUMPDEST JUMPDEST DUP3 DUP3 MOD SWAP1 POP SWAP3 SWAP2 POP POP JUMP JUMPDEST PUSH0 PUSH2 0x2E43 DUP3 PUSH2 0x2044 JUMP JUMPDEST SWAP2 POP PUSH0 DUP3 SUB PUSH2 0x2E55 JUMPI PUSH2 0x2E54 PUSH2 0x279C JUMP JUMPDEST JUMPDEST PUSH1 0x1 DUP3 SUB SWAP1 POP SWAP2 SWAP1 POP JUMP JUMPDEST PUSH0 DUP2 SWAP1 POP SWAP2 SWAP1 POP JUMP JUMPDEST PUSH2 0x2E7A PUSH2 0x2E75 DUP3 PUSH2 0x2044 JUMP JUMPDEST PUSH2 0x2E60 JUMP JUMPDEST DUP3 MSTORE POP POP JUMP JUMPDEST PUSH0 DUP2 SWAP1 POP SWAP2 SWAP1 POP JUMP JUMPDEST PUSH0 DUP2 SWAP1 POP SWAP2 SWAP1 POP JUMP JUMPDEST PUSH2 0x2EA3 PUSH2 0x2E9E DUP3 PUSH2 0x2E80 JUMP JUMPDEST PUSH2 0x2E89 JUMP JUMPDEST DUP3 MSTORE POP POP JUMP JUMPDEST PUSH0 PUSH2 0x2EB4 DUP3 DUP7 PUSH2 0x2E69 JUMP JUMPDEST PUSH1 0x20 DUP3 ADD SWAP2 POP PUSH2 0x2EC4 DUP3 DUP6 PUSH2 0x2E69 JUMP JUMPDEST PUSH1 0x20 DUP3 ADD SWAP2 POP PUSH2 0x2ED4 DUP3 DUP5 PUSH2 0x2E92 JUMP JUMPDEST PUSH1 0x20 DUP3 ADD SWAP2 POP DUP2 SWAP1 POP SWAP5 SWAP4 POP POP POP POP JUMP JUMPDEST PUSH0 PUSH2 0x2EF0 DUP3 DUP5 PUSH2 0x2E69 JUMP JUMPDEST PUSH1 0x20 DUP3 ADD SWAP2 POP DUP2 SWAP1 POP SWAP3 SWAP2 POP POP JUMP INVALID LOG2 PUSH5 0x6970667358 0x22 SLT KECCAK256 REVERT SWAP16 SWAP15 MULMOD 0xAD 0xE5 EXTCODESIZE 0xE3 DUP15 DUP2 0xAC LOG4 SELFDESTRUCT DUP1 0xCD STATICCALL RETURNDATACOPY PUSH5 0xAF65C8D50 PUSH9 0xFDF0382C9686B5E664 PUSH20 0x6F6C634300081A00330000000000000000000000 "
				},
				"gasEstimates": {
					"creation": {
						"codeDepositCost": "2417000",
						"executionCost": "infinite",
						"totalCost": "infinite"
					},
					"external": {
						"LastBankHand()": "infinite",
						"Winners()": "infinite",
						"determineWinner()": "infinite",
						"getAllHands()": "infinite",
						"hit()": "infinite",
						"joinGame(uint256)": "infinite",
						"playerCount()": "2470",
						"stand(uint256)": "31224",
						"startGame()": "infinite"
					},
					"internal": {
						"findPlayerIndex(address)": "infinite",
						"formatHand(uint8[] memory,string memory)": "infinite",
						"formatWinners(address[] memory)": "infinite",
						"resetGame()": "infinite",
						"uint2str(uint256)": "infinite"
					}
				},
				"methodIdentifiers": {
					"LastBankHand()": "14106ad6",
					"Winners()": "9951a417",
					"determineWinner()": "33b16d93",
					"getAllHands()": "d0e514fa",
					"hit()": "2ae3594a",
					"joinGame(uint256)": "efaa55a0",
					"playerCount()": "302bcc57",
					"stand(uint256)": "96b76c23",
					"startGame()": "d65ab5f2"
				}
			},
			"storageLayout": {
				"storage": [
					{
						"astId": 852,
						"contract": "Blackjack.sol:Blackjack",
						"label": "deck",
						"offset": 0,
						"slot": "0",
						"type": "t_array(t_uint8)dyn_storage"
					},
					{
						"astId": 23,
						"contract": "Blackjack.sol:Blackjack",
						"label": "players",
						"offset": 0,
						"slot": "1",
						"type": "t_array(t_struct(Player)19_storage)dyn_storage"
					},
					{
						"astId": 25,
						"contract": "Blackjack.sol:Blackjack",
						"label": "playerCount",
						"offset": 0,
						"slot": "2",
						"type": "t_uint256"
					},
					{
						"astId": 28,
						"contract": "Blackjack.sol:Blackjack",
						"label": "bankHand",
						"offset": 0,
						"slot": "3",
						"type": "t_array(t_uint8)dyn_storage"
					},
					{
						"astId": 30,
						"contract": "Blackjack.sol:Blackjack",
						"label": "bank",
						"offset": 0,
						"slot": "4",
						"type": "t_address"
					},
					{
						"astId": 33,
						"contract": "Blackjack.sol:Blackjack",
						"label": "lastBankHand",
						"offset": 0,
						"slot": "5",
						"type": "t_array(t_uint8)dyn_storage"
					},
					{
						"astId": 36,
						"contract": "Blackjack.sol:Blackjack",
						"label": "lastWinners",
						"offset": 0,
						"slot": "6",
						"type": "t_array(t_address)dyn_storage"
					},
					{
						"astId": 444,
						"contract": "Blackjack.sol:Blackjack",
						"label": "LastBankHand",
						"offset": 0,
						"slot": "7",
						"type": "t_string_storage"
					},
					{
						"astId": 446,
						"contract": "Blackjack.sol:Blackjack",
						"label": "Winners",
						"offset": 0,
						"slot": "8",
						"type": "t_string_storage"
					}
				],
				"types": {
					"t_address": {
						"encoding": "inplace",
						"label": "address",
						"numberOfBytes": "20"
					},
					"t_array(t_address)dyn_storage": {
						"base": "t_address",
						"encoding": "dynamic_array",
						"label": "address[]",
						"numberOfBytes": "32"
					},
					"t_array(t_struct(Player)19_storage)dyn_storage": {
						"base": "t_struct(Player)19_storage",
						"encoding": "dynamic_array",
						"label": "struct Blackjack.Player[]",
						"numberOfBytes": "32"
					},
					"t_array(t_uint8)dyn_storage": {
						"base": "t_uint8",
						"encoding": "dynamic_array",
						"label": "uint8[]",
						"numberOfBytes": "32"
					},
					"t_bool": {
						"encoding": "inplace",
						"label": "bool",
						"numberOfBytes": "1"
					},
					"t_string_storage": {
						"encoding": "bytes",
						"label": "string",
						"numberOfBytes": "32"
					},
					"t_struct(Player)19_storage": {
						"encoding": "inplace",
						"label": "struct Blackjack.Player",
						"members": [
							{
								"astId": 9,
								"contract": "Blackjack.sol:Blackjack",
								"label": "addr",
								"offset": 0,
								"slot": "0",
								"type": "t_address"
							},
							{
								"astId": 11,
								"contract": "Blackjack.sol:Blackjack",
								"label": "bet",
								"offset": 0,
								"slot": "1",
								"type": "t_uint256"
							},
							{
								"astId": 14,
								"contract": "Blackjack.sol:Blackjack",
								"label": "hand",
								"offset": 0,
								"slot": "2",
								"type": "t_array(t_uint8)dyn_storage"
							},
							{
								"astId": 16,
								"contract": "Blackjack.sol:Blackjack",
								"label": "isActive",
								"offset": 0,
								"slot": "3",
								"type": "t_bool"
							},
							{
								"astId": 18,
								"contract": "Blackjack.sol:Blackjack",
								"label": "isBusted",
								"offset": 1,
								"slot": "3",
								"type": "t_bool"
							}
						],
						"numberOfBytes": "128"
					},
					"t_uint256": {
						"encoding": "inplace",
						"label": "uint256",
						"numberOfBytes": "32"
					},
					"t_uint8": {
						"encoding": "inplace",
						"label": "uint8",
						"numberOfBytes": "1"
					}
				}
			},
			"userdoc": {
				"kind": "user",
				"methods": {},
				"version": 1
			}
		}
	}
}