{
	"R1.sol": {
		"CommitReveal": {
			"abi": [
				{
					"inputs": [
						{
							"internalType": "bytes32",
							"name": "hash",
							"type": "bytes32"
						}
					],
					"name": "commitHash",
					"outputs": [],
					"stateMutability": "nonpayable",
					"type": "function"
				},
				{
					"inputs": [
						{
							"internalType": "address",
							"name": "",
							"type": "address"
						}
					],
					"name": "commitments",
					"outputs": [
						{
							"internalType": "bytes32",
							"name": "",
							"type": "bytes32"
						}
					],
					"stateMutability": "view",
					"type": "function"
				},
				{
					"inputs": [
						{
							"internalType": "address",
							"name": "",
							"type": "address"
						}
					],
					"name": "revealedNumbers",
					"outputs": [
						{
							"internalType": "uint256",
							"name": "",
							"type": "uint256"
						}
					],
					"stateMutability": "view",
					"type": "function"
				}
			],
			"devdoc": {
				"kind": "dev",
				"methods": {},
				"version": 1
			},
			"evm": {
				"assembly": "    /* \"R1.sol\":60:628  contract CommitReveal {... */\n  mstore(0x40, 0x80)\n  callvalue\n  dup1\n  iszero\n  tag_1\n  jumpi\n  0x00\n  dup1\n  revert\ntag_1:\n  pop\n  dataSize(sub_0)\n  dup1\n  dataOffset(sub_0)\n  0x00\n  codecopy\n  0x00\n  return\nstop\n\nsub_0: assembly {\n        /* \"R1.sol\":60:628  contract CommitReveal {... */\n      mstore(0x40, 0x80)\n      callvalue\n      dup1\n      iszero\n      tag_1\n      jumpi\n      0x00\n      dup1\n      revert\n    tag_1:\n      pop\n      jumpi(tag_2, lt(calldatasize, 0x04))\n      shr(0xe0, calldataload(0x00))\n      dup1\n      0x3c37b640\n      eq\n      tag_3\n      jumpi\n      dup1\n      0x872fd939\n      eq\n      tag_4\n      jumpi\n      dup1\n      0xe8fcf723\n      eq\n      tag_5\n      jumpi\n    tag_2:\n      0x00\n      dup1\n      revert\n        /* \"R1.sol\":201:367  function commitHash(bytes32 hash) external {... */\n    tag_3:\n      tag_6\n      0x04\n      dup1\n      calldatasize\n      sub\n      dup2\n      add\n      swap1\n      tag_7\n      swap2\n      swap1\n      tag_8\n      jump\t// in\n    tag_7:\n      tag_9\n      jump\t// in\n    tag_6:\n      stop\n        /* \"R1.sol\":142:192  mapping(address => uint256) public revealedNumbers */\n    tag_4:\n      tag_10\n      0x04\n      dup1\n      calldatasize\n      sub\n      dup2\n      add\n      swap1\n      tag_11\n      swap2\n      swap1\n      tag_12\n      jump\t// in\n    tag_11:\n      tag_13\n      jump\t// in\n    tag_10:\n      mload(0x40)\n      tag_14\n      swap2\n      swap1\n      tag_15\n      jump\t// in\n    tag_14:\n      mload(0x40)\n      dup1\n      swap2\n      sub\n      swap1\n      return\n        /* \"R1.sol\":89:135  mapping(address => bytes32) public commitments */\n    tag_5:\n      tag_16\n      0x04\n      dup1\n      calldatasize\n      sub\n      dup2\n      add\n      swap1\n      tag_17\n      swap2\n      swap1\n      tag_12\n      jump\t// in\n    tag_17:\n      tag_18\n      jump\t// in\n    tag_16:\n      mload(0x40)\n      tag_19\n      swap2\n      swap1\n      tag_20\n      jump\t// in\n    tag_19:\n      mload(0x40)\n      dup1\n      swap2\n      sub\n      swap1\n      return\n        /* \"R1.sol\":201:367  function commitHash(bytes32 hash) external {... */\n    tag_9:\n        /* \"R1.sol\":290:291  0 */\n      0x00\n        /* \"R1.sol\":263:291  commitments[msg.sender] == 0 */\n      dup1\n      shl\n        /* \"R1.sol\":263:274  commitments */\n      0x00\n        /* \"R1.sol\":263:286  commitments[msg.sender] */\n      dup1\n        /* \"R1.sol\":275:285  msg.sender */\n      caller\n        /* \"R1.sol\":263:286  commitments[msg.sender] */\n      0xffffffffffffffffffffffffffffffffffffffff\n      and\n      0xffffffffffffffffffffffffffffffffffffffff\n      and\n      dup2\n      mstore\n      0x20\n      add\n      swap1\n      dup2\n      mstore\n      0x20\n      add\n      0x00\n      keccak256\n      sload\n        /* \"R1.sol\":263:291  commitments[msg.sender] == 0 */\n      eq\n        /* \"R1.sol\":255:318  require(commitments[msg.sender] == 0, \"Hash already committed\") */\n      tag_22\n      jumpi\n      mload(0x40)\n      0x08c379a000000000000000000000000000000000000000000000000000000000\n      dup2\n      mstore\n      0x04\n      add\n      tag_23\n      swap1\n      tag_24\n      jump\t// in\n    tag_23:\n      mload(0x40)\n      dup1\n      swap2\n      sub\n      swap1\n      revert\n    tag_22:\n        /* \"R1.sol\":355:359  hash */\n      dup1\n        /* \"R1.sol\":329:340  commitments */\n      0x00\n        /* \"R1.sol\":329:352  commitments[msg.sender] */\n      dup1\n        /* \"R1.sol\":341:351  msg.sender */\n      caller\n        /* \"R1.sol\":329:352  commitments[msg.sender] */\n      0xffffffffffffffffffffffffffffffffffffffff\n      and\n      0xffffffffffffffffffffffffffffffffffffffff\n      and\n      dup2\n      mstore\n      0x20\n      add\n      swap1\n      dup2\n      mstore\n      0x20\n      add\n      0x00\n      keccak256\n        /* \"R1.sol\":329:359  commitments[msg.sender] = hash */\n      dup2\n      swap1\n      sstore\n      pop\n        /* \"R1.sol\":201:367  function commitHash(bytes32 hash) external {... */\n      pop\n      jump\t// out\n        /* \"R1.sol\":142:192  mapping(address => uint256) public revealedNumbers */\n    tag_13:\n      mstore(0x20, 0x01)\n      dup1\n      0x00\n      mstore\n      keccak256(0x00, 0x40)\n      0x00\n      swap2\n      pop\n      swap1\n      pop\n      sload\n      dup2\n      jump\t// out\n        /* \"R1.sol\":89:135  mapping(address => bytes32) public commitments */\n    tag_18:\n      mstore(0x20, 0x00)\n      dup1\n      0x00\n      mstore\n      keccak256(0x00, 0x40)\n      0x00\n      swap2\n      pop\n      swap1\n      pop\n      sload\n      dup2\n      jump\t// out\n        /* \"#utility.yul\":88:205   */\n    tag_26:\n        /* \"#utility.yul\":197:198   */\n      0x00\n        /* \"#utility.yul\":194:195   */\n      dup1\n        /* \"#utility.yul\":187:199   */\n      revert\n        /* \"#utility.yul\":334:411   */\n    tag_28:\n        /* \"#utility.yul\":371:378   */\n      0x00\n        /* \"#utility.yul\":400:405   */\n      dup2\n        /* \"#utility.yul\":389:405   */\n      swap1\n      pop\n        /* \"#utility.yul\":334:411   */\n      swap2\n      swap1\n      pop\n      jump\t// out\n        /* \"#utility.yul\":417:539   */\n    tag_29:\n        /* \"#utility.yul\":490:514   */\n      tag_47\n        /* \"#utility.yul\":508:513   */\n      dup2\n        /* \"#utility.yul\":490:514   */\n      tag_28\n      jump\t// in\n    tag_47:\n        /* \"#utility.yul\":483:488   */\n      dup2\n        /* \"#utility.yul\":480:515   */\n      eq\n        /* \"#utility.yul\":470:533   */\n      tag_48\n      jumpi\n        /* \"#utility.yul\":529:530   */\n      0x00\n        /* \"#utility.yul\":526:527   */\n      dup1\n        /* \"#utility.yul\":519:531   */\n      revert\n        /* \"#utility.yul\":470:533   */\n    tag_48:\n        /* \"#utility.yul\":417:539   */\n      pop\n      jump\t// out\n        /* \"#utility.yul\":545:684   */\n    tag_30:\n        /* \"#utility.yul\":591:596   */\n      0x00\n        /* \"#utility.yul\":629:635   */\n      dup2\n        /* \"#utility.yul\":616:636   */\n      calldataload\n        /* \"#utility.yul\":607:636   */\n      swap1\n      pop\n        /* \"#utility.yul\":645:678   */\n      tag_50\n        /* \"#utility.yul\":672:677   */\n      dup2\n        /* \"#utility.yul\":645:678   */\n      tag_29\n      jump\t// in\n    tag_50:\n        /* \"#utility.yul\":545:684   */\n      swap3\n      swap2\n      pop\n      pop\n      jump\t// out\n        /* \"#utility.yul\":690:1019   */\n    tag_8:\n        /* \"#utility.yul\":749:755   */\n      0x00\n        /* \"#utility.yul\":798:800   */\n      0x20\n        /* \"#utility.yul\":786:795   */\n      dup3\n        /* \"#utility.yul\":777:784   */\n      dup5\n        /* \"#utility.yul\":773:796   */\n      sub\n        /* \"#utility.yul\":769:801   */\n      slt\n        /* \"#utility.yul\":766:885   */\n      iszero\n      tag_52\n      jumpi\n        /* \"#utility.yul\":804:883   */\n      tag_53\n      tag_26\n      jump\t// in\n    tag_53:\n        /* \"#utility.yul\":766:885   */\n    tag_52:\n        /* \"#utility.yul\":924:925   */\n      0x00\n        /* \"#utility.yul\":949:1002   */\n      tag_54\n        /* \"#utility.yul\":994:1001   */\n      dup5\n        /* \"#utility.yul\":985:991   */\n      dup3\n        /* \"#utility.yul\":974:983   */\n      dup6\n        /* \"#utility.yul\":970:992   */\n      add\n        /* \"#utility.yul\":949:1002   */\n      tag_30\n      jump\t// in\n    tag_54:\n        /* \"#utility.yul\":939:1002   */\n      swap2\n      pop\n        /* \"#utility.yul\":895:1012   */\n      pop\n        /* \"#utility.yul\":690:1019   */\n      swap3\n      swap2\n      pop\n      pop\n      jump\t// out\n        /* \"#utility.yul\":1025:1151   */\n    tag_31:\n        /* \"#utility.yul\":1062:1069   */\n      0x00\n        /* \"#utility.yul\":1102:1144   */\n      0xffffffffffffffffffffffffffffffffffffffff\n        /* \"#utility.yul\":1095:1100   */\n      dup3\n        /* \"#utility.yul\":1091:1145   */\n      and\n        /* \"#utility.yul\":1080:1145   */\n      swap1\n      pop\n        /* \"#utility.yul\":1025:1151   */\n      swap2\n      swap1\n      pop\n      jump\t// out\n        /* \"#utility.yul\":1157:1253   */\n    tag_32:\n        /* \"#utility.yul\":1194:1201   */\n      0x00\n        /* \"#utility.yul\":1223:1247   */\n      tag_57\n        /* \"#utility.yul\":1241:1246   */\n      dup3\n        /* \"#utility.yul\":1223:1247   */\n      tag_31\n      jump\t// in\n    tag_57:\n        /* \"#utility.yul\":1212:1247   */\n      swap1\n      pop\n        /* \"#utility.yul\":1157:1253   */\n      swap2\n      swap1\n      pop\n      jump\t// out\n        /* \"#utility.yul\":1259:1381   */\n    tag_33:\n        /* \"#utility.yul\":1332:1356   */\n      tag_59\n        /* \"#utility.yul\":1350:1355   */\n      dup2\n        /* \"#utility.yul\":1332:1356   */\n      tag_32\n      jump\t// in\n    tag_59:\n        /* \"#utility.yul\":1325:1330   */\n      dup2\n        /* \"#utility.yul\":1322:1357   */\n      eq\n        /* \"#utility.yul\":1312:1375   */\n      tag_60\n      jumpi\n        /* \"#utility.yul\":1371:1372   */\n      0x00\n        /* \"#utility.yul\":1368:1369   */\n      dup1\n        /* \"#utility.yul\":1361:1373   */\n      revert\n        /* \"#utility.yul\":1312:1375   */\n    tag_60:\n        /* \"#utility.yul\":1259:1381   */\n      pop\n      jump\t// out\n        /* \"#utility.yul\":1387:1526   */\n    tag_34:\n        /* \"#utility.yul\":1433:1438   */\n      0x00\n        /* \"#utility.yul\":1471:1477   */\n      dup2\n        /* \"#utility.yul\":1458:1478   */\n      calldataload\n        /* \"#utility.yul\":1449:1478   */\n      swap1\n      pop\n        /* \"#utility.yul\":1487:1520   */\n      tag_62\n        /* \"#utility.yul\":1514:1519   */\n      dup2\n        /* \"#utility.yul\":1487:1520   */\n      tag_33\n      jump\t// in\n    tag_62:\n        /* \"#utility.yul\":1387:1526   */\n      swap3\n      swap2\n      pop\n      pop\n      jump\t// out\n        /* \"#utility.yul\":1532:1861   */\n    tag_12:\n        /* \"#utility.yul\":1591:1597   */\n      0x00\n        /* \"#utility.yul\":1640:1642   */\n      0x20\n        /* \"#utility.yul\":1628:1637   */\n      dup3\n        /* \"#utility.yul\":1619:1626   */\n      dup5\n        /* \"#utility.yul\":1615:1638   */\n      sub\n        /* \"#utility.yul\":1611:1643   */\n      slt\n        /* \"#utility.yul\":1608:1727   */\n      iszero\n      tag_64\n      jumpi\n        /* \"#utility.yul\":1646:1725   */\n      tag_65\n      tag_26\n      jump\t// in\n    tag_65:\n        /* \"#utility.yul\":1608:1727   */\n    tag_64:\n        /* \"#utility.yul\":1766:1767   */\n      0x00\n        /* \"#utility.yul\":1791:1844   */\n      tag_66\n        /* \"#utility.yul\":1836:1843   */\n      dup5\n        /* \"#utility.yul\":1827:1833   */\n      dup3\n        /* \"#utility.yul\":1816:1825   */\n      dup6\n        /* \"#utility.yul\":1812:1834   */\n      add\n        /* \"#utility.yul\":1791:1844   */\n      tag_34\n      jump\t// in\n    tag_66:\n        /* \"#utility.yul\":1781:1844   */\n      swap2\n      pop\n        /* \"#utility.yul\":1737:1854   */\n      pop\n        /* \"#utility.yul\":1532:1861   */\n      swap3\n      swap2\n      pop\n      pop\n      jump\t// out\n        /* \"#utility.yul\":1867:1944   */\n    tag_35:\n        /* \"#utility.yul\":1904:1911   */\n      0x00\n        /* \"#utility.yul\":1933:1938   */\n      dup2\n        /* \"#utility.yul\":1922:1938   */\n      swap1\n      pop\n        /* \"#utility.yul\":1867:1944   */\n      swap2\n      swap1\n      pop\n      jump\t// out\n        /* \"#utility.yul\":1950:2068   */\n    tag_36:\n        /* \"#utility.yul\":2037:2061   */\n      tag_69\n        /* \"#utility.yul\":2055:2060   */\n      dup2\n        /* \"#utility.yul\":2037:2061   */\n      tag_35\n      jump\t// in\n    tag_69:\n        /* \"#utility.yul\":2032:2035   */\n      dup3\n        /* \"#utility.yul\":2025:2062   */\n      mstore\n        /* \"#utility.yul\":1950:2068   */\n      pop\n      pop\n      jump\t// out\n        /* \"#utility.yul\":2074:2296   */\n    tag_15:\n        /* \"#utility.yul\":2167:2171   */\n      0x00\n        /* \"#utility.yul\":2205:2207   */\n      0x20\n        /* \"#utility.yul\":2194:2203   */\n      dup3\n        /* \"#utility.yul\":2190:2208   */\n      add\n        /* \"#utility.yul\":2182:2208   */\n      swap1\n      pop\n        /* \"#utility.yul\":2218:2289   */\n      tag_71\n        /* \"#utility.yul\":2286:2287   */\n      0x00\n        /* \"#utility.yul\":2275:2284   */\n      dup4\n        /* \"#utility.yul\":2271:2288   */\n      add\n        /* \"#utility.yul\":2262:2268   */\n      dup5\n        /* \"#utility.yul\":2218:2289   */\n      tag_36\n      jump\t// in\n    tag_71:\n        /* \"#utility.yul\":2074:2296   */\n      swap3\n      swap2\n      pop\n      pop\n      jump\t// out\n        /* \"#utility.yul\":2302:2420   */\n    tag_37:\n        /* \"#utility.yul\":2389:2413   */\n      tag_73\n        /* \"#utility.yul\":2407:2412   */\n      dup2\n        /* \"#utility.yul\":2389:2413   */\n      tag_28\n      jump\t// in\n    tag_73:\n        /* \"#utility.yul\":2384:2387   */\n      dup3\n        /* \"#utility.yul\":2377:2414   */\n      mstore\n        /* \"#utility.yul\":2302:2420   */\n      pop\n      pop\n      jump\t// out\n        /* \"#utility.yul\":2426:2648   */\n    tag_20:\n        /* \"#utility.yul\":2519:2523   */\n      0x00\n        /* \"#utility.yul\":2557:2559   */\n      0x20\n        /* \"#utility.yul\":2546:2555   */\n      dup3\n        /* \"#utility.yul\":2542:2560   */\n      add\n        /* \"#utility.yul\":2534:2560   */\n      swap1\n      pop\n        /* \"#utility.yul\":2570:2641   */\n      tag_75\n        /* \"#utility.yul\":2638:2639   */\n      0x00\n        /* \"#utility.yul\":2627:2636   */\n      dup4\n        /* \"#utility.yul\":2623:2640   */\n      add\n        /* \"#utility.yul\":2614:2620   */\n      dup5\n        /* \"#utility.yul\":2570:2641   */\n      tag_37\n      jump\t// in\n    tag_75:\n        /* \"#utility.yul\":2426:2648   */\n      swap3\n      swap2\n      pop\n      pop\n      jump\t// out\n        /* \"#utility.yul\":2654:2823   */\n    tag_38:\n        /* \"#utility.yul\":2738:2749   */\n      0x00\n        /* \"#utility.yul\":2772:2778   */\n      dup3\n        /* \"#utility.yul\":2767:2770   */\n      dup3\n        /* \"#utility.yul\":2760:2779   */\n      mstore\n        /* \"#utility.yul\":2812:2816   */\n      0x20\n        /* \"#utility.yul\":2807:2810   */\n      dup3\n        /* \"#utility.yul\":2803:2817   */\n      add\n        /* \"#utility.yul\":2788:2817   */\n      swap1\n      pop\n        /* \"#utility.yul\":2654:2823   */\n      swap3\n      swap2\n      pop\n      pop\n      jump\t// out\n        /* \"#utility.yul\":2829:3001   */\n    tag_39:\n        /* \"#utility.yul\":2969:2993   */\n      0x4861736820616c726561647920636f6d6d697474656400000000000000000000\n        /* \"#utility.yul\":2965:2966   */\n      0x00\n        /* \"#utility.yul\":2957:2963   */\n      dup3\n        /* \"#utility.yul\":2953:2967   */\n      add\n        /* \"#utility.yul\":2946:2994   */\n      mstore\n        /* \"#utility.yul\":2829:3001   */\n      pop\n      jump\t// out\n        /* \"#utility.yul\":3007:3373   */\n    tag_40:\n        /* \"#utility.yul\":3149:3152   */\n      0x00\n        /* \"#utility.yul\":3170:3237   */\n      tag_79\n        /* \"#utility.yul\":3234:3236   */\n      0x16\n        /* \"#utility.yul\":3229:3232   */\n      dup4\n        /* \"#utility.yul\":3170:3237   */\n      tag_38\n      jump\t// in\n    tag_79:\n        /* \"#utility.yul\":3163:3237   */\n      swap2\n      pop\n        /* \"#utility.yul\":3246:3339   */\n      tag_80\n        /* \"#utility.yul\":3335:3338   */\n      dup3\n        /* \"#utility.yul\":3246:3339   */\n      tag_39\n      jump\t// in\n    tag_80:\n        /* \"#utility.yul\":3364:3366   */\n      0x20\n        /* \"#utility.yul\":3359:3362   */\n      dup3\n        /* \"#utility.yul\":3355:3367   */\n      add\n        /* \"#utility.yul\":3348:3367   */\n      swap1\n      pop\n        /* \"#utility.yul\":3007:3373   */\n      swap2\n      swap1\n      pop\n      jump\t// out\n        /* \"#utility.yul\":3379:3798   */\n    tag_24:\n        /* \"#utility.yul\":3545:3549   */\n      0x00\n        /* \"#utility.yul\":3583:3585   */\n      0x20\n        /* \"#utility.yul\":3572:3581   */\n      dup3\n        /* \"#utility.yul\":3568:3586   */\n      add\n        /* \"#utility.yul\":3560:3586   */\n      swap1\n      pop\n        /* \"#utility.yul\":3632:3641   */\n      dup2\n        /* \"#utility.yul\":3626:3630   */\n      dup2\n        /* \"#utility.yul\":3622:3642   */\n      sub\n        /* \"#utility.yul\":3618:3619   */\n      0x00\n        /* \"#utility.yul\":3607:3616   */\n      dup4\n        /* \"#utility.yul\":3603:3620   */\n      add\n        /* \"#utility.yul\":3596:3643   */\n      mstore\n        /* \"#utility.yul\":3660:3791   */\n      tag_82\n        /* \"#utility.yul\":3786:3790   */\n      dup2\n        /* \"#utility.yul\":3660:3791   */\n      tag_40\n      jump\t// in\n    tag_82:\n        /* \"#utility.yul\":3652:3791   */\n      swap1\n      pop\n        /* \"#utility.yul\":3379:3798   */\n      swap2\n      swap1\n      pop\n      jump\t// out\n\n    auxdata: 0xa2646970667358221220921fa80be06ce460ea0539bc1fc757252dfdb54d889c0db43216c84133cd315864736f6c634300081a0033\n}\n",
				"bytecode": {
					"linkReferences": {},
					"object": "6080604052348015600e575f80fd5b5061039a8061001c5f395ff3fe608060405234801561000f575f80fd5b506004361061003f575f3560e01c80633c37b64014610043578063872fd9391461005f578063e8fcf7231461008f575b5f80fd5b61005d600480360381019061005891906101e3565b6100bf565b005b61007960048036038101906100749190610268565b610183565b60405161008691906102ab565b60405180910390f35b6100a960048036038101906100a49190610268565b610198565b6040516100b691906102d3565b60405180910390f35b5f801b5f803373ffffffffffffffffffffffffffffffffffffffff1673ffffffffffffffffffffffffffffffffffffffff1681526020019081526020015f20541461013f576040517f08c379a000000000000000000000000000000000000000000000000000000000815260040161013690610346565b60405180910390fd5b805f803373ffffffffffffffffffffffffffffffffffffffff1673ffffffffffffffffffffffffffffffffffffffff1681526020019081526020015f208190555050565b6001602052805f5260405f205f915090505481565b5f602052805f5260405f205f915090505481565b5f80fd5b5f819050919050565b6101c2816101b0565b81146101cc575f80fd5b50565b5f813590506101dd816101b9565b92915050565b5f602082840312156101f8576101f76101ac565b5b5f610205848285016101cf565b91505092915050565b5f73ffffffffffffffffffffffffffffffffffffffff82169050919050565b5f6102378261020e565b9050919050565b6102478161022d565b8114610251575f80fd5b50565b5f813590506102628161023e565b92915050565b5f6020828403121561027d5761027c6101ac565b5b5f61028a84828501610254565b91505092915050565b5f819050919050565b6102a581610293565b82525050565b5f6020820190506102be5f83018461029c565b92915050565b6102cd816101b0565b82525050565b5f6020820190506102e65f8301846102c4565b92915050565b5f82825260208201905092915050565b7f4861736820616c726561647920636f6d6d6974746564000000000000000000005f82015250565b5f6103306016836102ec565b915061033b826102fc565b602082019050919050565b5f6020820190508181035f83015261035d81610324565b905091905056fea2646970667358221220921fa80be06ce460ea0539bc1fc757252dfdb54d889c0db43216c84133cd315864736f6c634300081a0033",
					"opcodes": "PUSH1 0x80 PUSH1 0x40 MSTORE CALLVALUE DUP1 ISZERO PUSH1 0xE JUMPI PUSH0 DUP1 REVERT JUMPDEST POP PUSH2 0x39A DUP1 PUSH2 0x1C PUSH0 CODECOPY PUSH0 RETURN INVALID PUSH1 0x80 PUSH1 0x40 MSTORE CALLVALUE DUP1 ISZERO PUSH2 0xF JUMPI PUSH0 DUP1 REVERT JUMPDEST POP PUSH1 0x4 CALLDATASIZE LT PUSH2 0x3F JUMPI PUSH0 CALLDATALOAD PUSH1 0xE0 SHR DUP1 PUSH4 0x3C37B640 EQ PUSH2 0x43 JUMPI DUP1 PUSH4 0x872FD939 EQ PUSH2 0x5F JUMPI DUP1 PUSH4 0xE8FCF723 EQ PUSH2 0x8F JUMPI JUMPDEST PUSH0 DUP1 REVERT JUMPDEST PUSH2 0x5D PUSH1 0x4 DUP1 CALLDATASIZE SUB DUP2 ADD SWAP1 PUSH2 0x58 SWAP2 SWAP1 PUSH2 0x1E3 JUMP JUMPDEST PUSH2 0xBF JUMP JUMPDEST STOP JUMPDEST PUSH2 0x79 PUSH1 0x4 DUP1 CALLDATASIZE SUB DUP2 ADD SWAP1 PUSH2 0x74 SWAP2 SWAP1 PUSH2 0x268 JUMP JUMPDEST PUSH2 0x183 JUMP JUMPDEST PUSH1 0x40 MLOAD PUSH2 0x86 SWAP2 SWAP1 PUSH2 0x2AB JUMP JUMPDEST PUSH1 0x40 MLOAD DUP1 SWAP2 SUB SWAP1 RETURN JUMPDEST PUSH2 0xA9 PUSH1 0x4 DUP1 CALLDATASIZE SUB DUP2 ADD SWAP1 PUSH2 0xA4 SWAP2 SWAP1 PUSH2 0x268 JUMP JUMPDEST PUSH2 0x198 JUMP JUMPDEST PUSH1 0x40 MLOAD PUSH2 0xB6 SWAP2 SWAP1 PUSH2 0x2D3 JUMP JUMPDEST PUSH1 0x40 MLOAD DUP1 SWAP2 SUB SWAP1 RETURN JUMPDEST PUSH0 DUP1 SHL PUSH0 DUP1 CALLER PUSH20 0xFFFFFFFFFFFFFFFFFFFFFFFFFFFFFFFFFFFFFFFF AND PUSH20 0xFFFFFFFFFFFFFFFFFFFFFFFFFFFFFFFFFFFFFFFF AND DUP2 MSTORE PUSH1 0x20 ADD SWAP1 DUP2 MSTORE PUSH1 0x20 ADD PUSH0 KECCAK256 SLOAD EQ PUSH2 0x13F JUMPI PUSH1 0x40 MLOAD PUSH32 0x8C379A000000000000000000000000000000000000000000000000000000000 DUP2 MSTORE PUSH1 0x4 ADD PUSH2 0x136 SWAP1 PUSH2 0x346 JUMP JUMPDEST PUSH1 0x40 MLOAD DUP1 SWAP2 SUB SWAP1 REVERT JUMPDEST DUP1 PUSH0 DUP1 CALLER PUSH20 0xFFFFFFFFFFFFFFFFFFFFFFFFFFFFFFFFFFFFFFFF AND PUSH20 0xFFFFFFFFFFFFFFFFFFFFFFFFFFFFFFFFFFFFFFFF AND DUP2 MSTORE PUSH1 0x20 ADD SWAP1 DUP2 MSTORE PUSH1 0x20 ADD PUSH0 KECCAK256 DUP2 SWAP1 SSTORE POP POP JUMP JUMPDEST PUSH1 0x1 PUSH1 0x20 MSTORE DUP1 PUSH0 MSTORE PUSH1 0x40 PUSH0 KECCAK256 PUSH0 SWAP2 POP SWAP1 POP SLOAD DUP2 JUMP JUMPDEST PUSH0 PUSH1 0x20 MSTORE DUP1 PUSH0 MSTORE PUSH1 0x40 PUSH0 KECCAK256 PUSH0 SWAP2 POP SWAP1 POP SLOAD DUP2 JUMP JUMPDEST PUSH0 DUP1 REVERT JUMPDEST PUSH0 DUP2 SWAP1 POP SWAP2 SWAP1 POP JUMP JUMPDEST PUSH2 0x1C2 DUP2 PUSH2 0x1B0 JUMP JUMPDEST DUP2 EQ PUSH2 0x1CC JUMPI PUSH0 DUP1 REVERT JUMPDEST POP JUMP JUMPDEST PUSH0 DUP2 CALLDATALOAD SWAP1 POP PUSH2 0x1DD DUP2 PUSH2 0x1B9 JUMP JUMPDEST SWAP3 SWAP2 POP POP JUMP JUMPDEST PUSH0 PUSH1 0x20 DUP3 DUP5 SUB SLT ISZERO PUSH2 0x1F8 JUMPI PUSH2 0x1F7 PUSH2 0x1AC JUMP JUMPDEST JUMPDEST PUSH0 PUSH2 0x205 DUP5 DUP3 DUP6 ADD PUSH2 0x1CF JUMP JUMPDEST SWAP2 POP POP SWAP3 SWAP2 POP POP JUMP JUMPDEST PUSH0 PUSH20 0xFFFFFFFFFFFFFFFFFFFFFFFFFFFFFFFFFFFFFFFF DUP3 AND SWAP1 POP SWAP2 SWAP1 POP JUMP JUMPDEST PUSH0 PUSH2 0x237 DUP3 PUSH2 0x20E JUMP JUMPDEST SWAP1 POP SWAP2 SWAP1 POP JUMP JUMPDEST PUSH2 0x247 DUP2 PUSH2 0x22D JUMP JUMPDEST DUP2 EQ PUSH2 0x251 JUMPI PUSH0 DUP1 REVERT JUMPDEST POP JUMP JUMPDEST PUSH0 DUP2 CALLDATALOAD SWAP1 POP PUSH2 0x262 DUP2 PUSH2 0x23E JUMP JUMPDEST SWAP3 SWAP2 POP POP JUMP JUMPDEST PUSH0 PUSH1 0x20 DUP3 DUP5 SUB SLT ISZERO PUSH2 0x27D JUMPI PUSH2 0x27C PUSH2 0x1AC JUMP JUMPDEST JUMPDEST PUSH0 PUSH2 0x28A DUP5 DUP3 DUP6 ADD PUSH2 0x254 JUMP JUMPDEST SWAP2 POP POP SWAP3 SWAP2 POP POP JUMP JUMPDEST PUSH0 DUP2 SWAP1 POP SWAP2 SWAP1 POP JUMP JUMPDEST PUSH2 0x2A5 DUP2 PUSH2 0x293 JUMP JUMPDEST DUP3 MSTORE POP POP JUMP JUMPDEST PUSH0 PUSH1 0x20 DUP3 ADD SWAP1 POP PUSH2 0x2BE PUSH0 DUP4 ADD DUP5 PUSH2 0x29C JUMP JUMPDEST SWAP3 SWAP2 POP POP JUMP JUMPDEST PUSH2 0x2CD DUP2 PUSH2 0x1B0 JUMP JUMPDEST DUP3 MSTORE POP POP JUMP JUMPDEST PUSH0 PUSH1 0x20 DUP3 ADD SWAP1 POP PUSH2 0x2E6 PUSH0 DUP4 ADD DUP5 PUSH2 0x2C4 JUMP JUMPDEST SWAP3 SWAP2 POP POP JUMP JUMPDEST PUSH0 DUP3 DUP3 MSTORE PUSH1 0x20 DUP3 ADD SWAP1 POP SWAP3 SWAP2 POP POP JUMP JUMPDEST PUSH32 0x4861736820616C726561647920636F6D6D697474656400000000000000000000 PUSH0 DUP3 ADD MSTORE POP JUMP JUMPDEST PUSH0 PUSH2 0x330 PUSH1 0x16 DUP4 PUSH2 0x2EC JUMP JUMPDEST SWAP2 POP PUSH2 0x33B DUP3 PUSH2 0x2FC JUMP JUMPDEST PUSH1 0x20 DUP3 ADD SWAP1 POP SWAP2 SWAP1 POP JUMP JUMPDEST PUSH0 PUSH1 0x20 DUP3 ADD SWAP1 POP DUP2 DUP2 SUB PUSH0 DUP4 ADD MSTORE PUSH2 0x35D DUP2 PUSH2 0x324 JUMP JUMPDEST SWAP1 POP SWAP2 SWAP1 POP JUMP INVALID LOG2 PUSH5 0x6970667358 0x22 SLT KECCAK256 SWAP3 0x1F 0xA8 SIGNEXTEND 0xE0 PUSH13 0xE460EA0539BC1FC757252DFDB5 0x4D DUP9 SWAP13 0xD 0xB4 ORIGIN AND 0xC8 COINBASE CALLER 0xCD BALANCE PC PUSH5 0x736F6C6343 STOP ADDMOD BYTE STOP CALLER "
				},
				"gasEstimates": {
					"creation": {
						"codeDepositCost": "184400",
						"executionCost": "224",
						"totalCost": "184624"
					},
					"external": {
						"commitHash(bytes32)": "24795",
						"commitments(address)": "2823",
						"revealedNumbers(address)": "2802"
					},
					"internal": {
						"_revealCommitment(address,uint256)": "infinite"
					}
				},
				"methodIdentifiers": {
					"commitHash(bytes32)": "3c37b640",
					"commitments(address)": "e8fcf723",
					"revealedNumbers(address)": "872fd939"
				}
			},
			"storageLayout": {
				"storage": [
					{
						"astId": 5,
						"contract": "R1.sol:CommitReveal",
						"label": "commitments",
						"offset": 0,
						"slot": "0",
						"type": "t_mapping(t_address,t_bytes32)"
					},
					{
						"astId": 9,
						"contract": "R1.sol:CommitReveal",
						"label": "revealedNumbers",
						"offset": 0,
						"slot": "1",
						"type": "t_mapping(t_address,t_uint256)"
					}
				],
				"types": {
					"t_address": {
						"encoding": "inplace",
						"label": "address",
						"numberOfBytes": "20"
					},
					"t_bytes32": {
						"encoding": "inplace",
						"label": "bytes32",
						"numberOfBytes": "32"
					},
					"t_mapping(t_address,t_bytes32)": {
						"encoding": "mapping",
						"key": "t_address",
						"label": "mapping(address => bytes32)",
						"numberOfBytes": "32",
						"value": "t_bytes32"
					},
					"t_mapping(t_address,t_uint256)": {
						"encoding": "mapping",
						"key": "t_address",
						"label": "mapping(address => uint256)",
						"numberOfBytes": "32",
						"value": "t_uint256"
					},
					"t_uint256": {
						"encoding": "inplace",
						"label": "uint256",
						"numberOfBytes": "32"
					}
				}
			},
			"userdoc": {
				"kind": "user",
				"methods": {},
				"version": 1
			}
		}
	}
}