{
	"data": {
		"bytecode": {
			"linkReferences": {
				"CardLibrary.sol": {
					"CardUtils": [
						{
							"length": 20,
							"start": 3098
						},
						{
							"length": 20,
							"start": 3291
						},
						{
							"length": 20,
							"start": 5098
						},
						{
							"length": 20,
							"start": 5270
						},
						{
							"length": 20,
							"start": 8563
						},
						{
							"length": 20,
							"start": 8686
						},
						{
							"length": 20,
							"start": 9226
						},
						{
							"length": 20,
							"start": 9560
						},
						{
							"length": 20,
							"start": 9765
						},
						{
							"length": 20,
							"start": 13336
						},
						{
							"length": 20,
							"start": 13601
						}
					]
				}
			},
			"object": "60806040525f600b553360045f6101000a81548173ffffffffffffffffffffffffffffffffffffffff021916908373ffffffffffffffffffffffffffffffffffffffff1602179055507f5569044719a1ec3b04d0afa9e7a5310c7c0473331d13dc9fafe143b2c4e8148a5f1b60055f6006811061007f5761007e610218565b5b01819055507f8cdee82cb3ac6d59f1f417405a3eecf497b31f3d06d4c506f96deb67789f61e95f1b60056001600681106100bc576100bb610218565b5b01819055507f99ab169e1c348aec31efd8dfb67cd8c9a0b8671e1175932dda6708b0cc02a5025f1b60056002600681106100f9576100f8610218565b5b01819055507f447dd11b9e568a4a39776c37476a0dc1aa52f08dec0e496bda446aacc5bded485f1b600560036006811061013657610135610218565b5b01819055507f88456bed5a4300ee8dbd308a84179f780647bb3c4153152528902c7141799b045f1b600560046006811061017357610172610218565b5b01819055507f0aeb49e17c56367f7bbd1ca11b9e0db05383c0d776987b6355d2dc2e7b60143e5f1b600580600681106101af576101ae610218565b5b01819055505f805f6101000a81548160ff021916908360058111156101d7576101d6610245565b5b02179055506101ea6101ef60201b60201c565b6102db565b6101fd61020560201b60201c565b601281905550565b5f603c4261021391906102a8565b905090565b7f4e487b71000000000000000000000000000000000000000000000000000000005f52603260045260245ffd5b7f4e487b71000000000000000000000000000000000000000000000000000000005f52602160045260245ffd5b5f819050919050565b7f4e487b71000000000000000000000000000000000000000000000000000000005f52601160045260245ffd5b5f6102b282610272565b91506102bd83610272565b92508282019050808211156102d5576102d461027b565b5b92915050565b615dfa806102e85f395ff3fe608060405260043610610165575f3560e01c8063a8378e6b116100d0578063c9f09d3811610089578063da8e4a9511610063578063da8e4a951461048e578063efaa55a0146104b9578063fcfafeb6146104d5578063fe7d567d146104eb57610165565b8063c9f09d3814610437578063cea135161461044d578063d65ab5f21461047857610165565b8063a8378e6b14610339578063ae65f4ff14610375578063bd097e21146103b1578063bf867f6b146103bb578063c19d93fb146103f7578063c6fd5d4e1461042157610165565b80636f9fb98a116101225780636f9fb98a1461024d578063784f49ca1461027757806384054d3d1461028d57806385c7d61d14610297578063872fd939146102c157806391b3f40e146102fd57610165565b8063089ac36f1461016957806328657aa514610191578063302bcc57146101bb5780633c37b640146101e55780634bd76fc41461020d5780635345448514610237575b5f80fd5b348015610174575f80fd5b5061018f600480360381019061018a9190613d79565b610513565b005b34801561019c575f80fd5b506101a5610c0c565b6040516101b29190613db3565b60405180910390f35b3480156101c6575f80fd5b506101cf610c12565b6040516101dc9190613db3565b60405180910390f35b3480156101f0575f80fd5b5061020b60048036038101906102069190613dff565b610c18565b005b348015610218575f80fd5b50610221610d53565b60405161022e9190613e44565b60405180910390f35b348015610242575f80fd5b5061024b610d65565b005b348015610258575f80fd5b50610261610edf565b60405161026e9190613db3565b60405180910390f35b348015610282575f80fd5b5061028b610ee6565b005b61029561108b565b005b3480156102a2575f80fd5b506102ab611377565b6040516102b89190613db3565b60405180910390f35b3480156102cc575f80fd5b506102e760048036038101906102e29190613eb7565b61137d565b6040516102f49190613db3565b60405180910390f35b348015610308575f80fd5b50610323600480360381019061031e9190613eb7565b611392565b6040516103309190613e44565b60405180910390f35b348015610344575f80fd5b5061035f600480360381019061035a9190613eb7565b6113af565b60405161036c9190613e44565b60405180910390f35b348015610380575f80fd5b5061039b60048036038101906103969190613eb7565b6113cc565b6040516103a89190613ef1565b60405180910390f35b6103b96113e1565b005b3480156103c6575f80fd5b506103e160048036038101906103dc9190613d79565b6114cc565b6040516103ee9190613ef1565b60405180910390f35b348015610402575f80fd5b5061040b6114e5565b6040516104189190613f7d565b60405180910390f35b34801561042c575f80fd5b506104356114f5565b005b348015610442575f80fd5b5061044b611703565b005b348015610458575f80fd5b50610461611979565b60405161046f9291906141ff565b60405180910390f35b348015610483575f80fd5b5061048c611c0a565b005b348015610499575f80fd5b506104a261220c565b6040516104b0929190614306565b60405180910390f35b6104d360048036038101906104ce9190613d79565b6123b8565b005b3480156104e0575f80fd5b506104e961262b565b005b3480156104f6575f80fd5b50610511600480360381019061050c9190613d79565b612c5b565b005b60045f9054906101000a900473ffffffffffffffffffffffffffffffffffffffff1673ffffffffffffffffffffffffffffffffffffffff163373ffffffffffffffffffffffffffffffffffffffff16146105a2576040517f08c379a0000000000000000000000000000000000000000000000000000000008152600401610599906143b4565b60405180910390fd5b60038060058111156105b7576105b6613f0a565b5b5f8054906101000a900460ff1660058111156105d6576105d5613f0a565b5b14610616576040517f08c379a000000000000000000000000000000000000000000000000000000000815260040161060d9061441c565b60405180910390fd5b5f5b6001805490508110156106fc57600f5f6001838154811061063c5761063b61443a565b5b905f5260205f2090600402015f015f9054906101000a900473ffffffffffffffffffffffffffffffffffffffff1673ffffffffffffffffffffffffffffffffffffffff1673ffffffffffffffffffffffffffffffffffffffff1681526020019081526020015f205f9054906101000a900460ff166106ef576040517f08c379a00000000000000000000000000000000000000000000000000000000081526004016106e6906144d7565b60405180910390fd5b8080600101915050610618565b506006600b5410610742576040517f08c379a00000000000000000000000000000000000000000000000000000000081526004016107399061453f565b60405180910390fd5b6005600b54600681106107585761075761443a565b5b01548260405160200161076b919061457d565b60405160208183030381529060405280519060200120146107c1576040517f08c379a00000000000000000000000000000000000000000000000000000000081526004016107b890614607565b60405180910390fd5b600b5f8154809291906107d390614652565b91905055505f5b600180549050811015610abd575f600182815481106107fc576107fb61443a565b5b905f5260205f2090600402019050600e5f825f015f9054906101000a900473ffffffffffffffffffffffffffffffffffffffff1673ffffffffffffffffffffffffffffffffffffffff1673ffffffffffffffffffffffffffffffffffffffff1681526020019081526020015f205f9054906101000a900460ff16801561088f5750806003015f9054906101000a900460ff165b80156108aa57508060030160019054906101000a900460ff16155b15610aaf575f61092d8260020180548060200260200160405190810160405280929190818152602001828054801561092357602002820191905f5260205f20905f905b82829054906101000a900460ff1660ff16815260200190600101906020825f010492830192600103820291508084116108ed5790505b5050505050612f91565b90505f73__$d2f6b017be7de1f9aeeafac1e5f6c413f3$__6310f8b35c83886040518363ffffffff1660e01b81526004016109699291906146a8565b602060405180830381865af4158015610984573d5f803e3d5ffd5b505050506040513d601f19601f820116820180604052508101906109a891906146f9565b90508260020181908060018154018082558091505060019003905f5260205f2090602091828204019190069091909190916101000a81548160ff021916908360ff160217905550601573__$d2f6b017be7de1f9aeeafac1e5f6c413f3$__63345e3d68856002016040518263ffffffff1660e01b8152600401610a2b919061544e565b602060405180830381865af4158015610a46573d5f803e3d5ffd5b505050506040513d601f19601f82011682018060405250810190610a6a91906146f9565b60ff161115610aac5760018360030160016101000a81548160ff0219169083151502179055505f836003015f6101000a81548160ff0219169083151502179055505b50505b5080806001019150506107da565b505f5b600180549050811015610b6f575f600f5f60018481548110610ae557610ae461443a565b5b905f5260205f2090600402015f015f9054906101000a900473ffffffffffffffffffffffffffffffffffffffff1673ffffffffffffffffffffffffffffffffffffffff1673ffffffffffffffffffffffffffffffffffffffff1681526020019081526020015f205f6101000a81548160ff0219169083151502179055508080600101915050610ac0565b505f600190505f5b600180549050811015610bce5760018181548110610b9857610b9761443a565b5b905f5260205f2090600402016003015f9054906101000a900460ff1615610bc1575f9150610bce565b8080600101915050610b77565b508015610c075760055f806101000a81548160ff02191690836005811115610bf957610bf8613f0a565b5b0217905550610c06612fef565b5b505050565b60115481565b60025481565b6001806005811115610c2d57610c2c613f0a565b5b5f8054906101000a900460ff166005811115610c4c57610c4b613f0a565b5b14610c8c576040517f08c379a0000000000000000000000000000000000000000000000000000000008152600401610c839061441c565b60405180910390fd5b5f801b600c5f3373ffffffffffffffffffffffffffffffffffffffff1673ffffffffffffffffffffffffffffffffffffffff1681526020019081526020015f205414610d0d576040517f08c379a0000000000000000000000000000000000000000000000000000000008152600401610d04906154b8565b60405180910390fd5b81600c5f3373ffffffffffffffffffffffffffffffffffffffff1673ffffffffffffffffffffffffffffffffffffffff1681526020019081526020015f20819055505050565b60105f9054906101000a900460ff1681565b60045f9054906101000a900473ffffffffffffffffffffffffffffffffffffffff1673ffffffffffffffffffffffffffffffffffffffff163373ffffffffffffffffffffffffffffffffffffffff1614610df4576040517f08c379a0000000000000000000000000000000000000000000000000000000008152600401610deb906143b4565b60405180910390fd5b5f806005811115610e0857610e07613f0a565b5b5f8054906101000a900460ff166005811115610e2757610e26613f0a565b5b14610e67576040517f08c379a0000000000000000000000000000000000000000000000000000000008152600401610e5e9061441c565b60405180910390fd5b5f60025411610eab576040517f08c379a0000000000000000000000000000000000000000000000000000000008152600401610ea290615520565b60405180910390fd5b60015f806101000a81548160ff02191690836005811115610ecf57610ece613f0a565b5b0217905550610edc6132fe565b50565b5f47905090565b5f805b600180549050811015610f80573373ffffffffffffffffffffffffffffffffffffffff1660018281548110610f2157610f2061443a565b5b905f5260205f2090600402015f015f9054906101000a900473ffffffffffffffffffffffffffffffffffffffff1673ffffffffffffffffffffffffffffffffffffffff1603610f735760019150610f80565b8080600101915050610ee9565b5080610fc1576040517f08c379a0000000000000000000000000000000000000000000000000000000008152600401610fb8906155ae565b60405180910390fd5b6003806005811115610fd657610fd5613f0a565b5b5f8054906101000a900460ff166005811115610ff557610ff4613f0a565b5b14611035576040517f08c379a000000000000000000000000000000000000000000000000000000000815260040161102c9061441c565b60405180910390fd5b61103e3361330e565b61107d576040517f08c379a00000000000000000000000000000000000000000000000000000000081526004016110749061563c565b60405180910390fd5b611087600161341e565b5050565b60058060058111156110a05761109f613f0a565b5b5f8054906101000a900460ff1660058111156110bf576110be613f0a565b5b146110ff576040517f08c379a00000000000000000000000000000000000000000000000000000000081526004016110f69061441c565b60405180910390fd5b5f73__$d2f6b017be7de1f9aeeafac1e5f6c413f3$__63345e3d6860036040518263ffffffff1660e01b8152600401611138919061544e565b602060405180830381865af4158015611153573d5f803e3d5ffd5b505050506040513d601f19601f8201168201806040525081019061117791906146f9565b90505f5b600180549050811015611372575f6001828154811061119d5761119c61443a565b5b905f5260205f20906004020190505f73__$d2f6b017be7de1f9aeeafac1e5f6c413f3$__63345e3d68836002016040518263ffffffff1660e01b81526004016111e6919061544e565b602060405180830381865af4158015611201573d5f803e3d5ffd5b505050506040513d601f19601f8201168201806040525081019061122591906146f9565b90508160030160019054906101000a900460ff1680611259575060158460ff161115801561125857508060ff168460ff16115b5b15611265575050611365565b8060ff168460ff16036112e6575f82600101549050825f015f9054906101000a900473ffffffffffffffffffffffffffffffffffffffff1673ffffffffffffffffffffffffffffffffffffffff166108fc8290811502906040515f60405180830381858888f193505050501580156112df573d5f803e3d5ffd5b5050611362565b5f600283600101546112f8919061565a565b9050825f015f9054906101000a900473ffffffffffffffffffffffffffffffffffffffff1673ffffffffffffffffffffffffffffffffffffffff166108fc8290811502906040515f60405180830381858888f1935050505015801561135f573d5f803e3d5ffd5b50505b50505b808060010191505061117b565b505050565b60125481565b600d602052805f5260405f205f915090505481565b600e602052805f5260405f205f915054906101000a900460ff1681565b600f602052805f5260405f205f915054906101000a900460ff1681565b600c602052805f5260405f205f915090505481565b60045f9054906101000a900473ffffffffffffffffffffffffffffffffffffffff1673ffffffffffffffffffffffffffffffffffffffff163373ffffffffffffffffffffffffffffffffffffffff1614611470576040517f08c379a0000000000000000000000000000000000000000000000000000000008152600401611467906143b4565b60405180910390fd5b5f34116114b2576040517f08c379a00000000000000000000000000000000000000000000000000000000081526004016114a99061570b565b60405180910390fd5b3460115f8282546114c39190615729565b92505081905550565b600581600681106114db575f80fd5b015f915090505481565b5f8054906101000a900460ff1681565b60045f9054906101000a900473ffffffffffffffffffffffffffffffffffffffff1673ffffffffffffffffffffffffffffffffffffffff163373ffffffffffffffffffffffffffffffffffffffff1614611584576040517f08c379a000000000000000000000000000000000000000000000000000000000815260040161157b906143b4565b60405180910390fd5b600180600581111561159957611598613f0a565b5b5f8054906101000a900460ff1660058111156115b8576115b7613f0a565b5b146115f8576040517f08c379a00000000000000000000000000000000000000000000000000000000081526004016115ef9061441c565b60405180910390fd5b5f5b6001805490508110156116d6575f801b600c5f600184815481106116215761162061443a565b5b905f5260205f2090600402015f015f9054906101000a900473ffffffffffffffffffffffffffffffffffffffff1673ffffffffffffffffffffffffffffffffffffffff1673ffffffffffffffffffffffffffffffffffffffff1681526020019081526020015f2054036116c9576040517f08c379a00000000000000000000000000000000000000000000000000000000081526004016116c0906157a6565b60405180910390fd5b80806001019150506115fa565b5060025f806101000a81548160ff021916908360058111156116fb576116fa613f0a565b5b021790555050565b5f805b60018054905081101561179d573373ffffffffffffffffffffffffffffffffffffffff166001828154811061173e5761173d61443a565b5b905f5260205f2090600402015f015f9054906101000a900473ffffffffffffffffffffffffffffffffffffffff1673ffffffffffffffffffffffffffffffffffffffff1603611790576001915061179d565b8080600101915050611706565b50806117de576040517f08c379a00000000000000000000000000000000000000000000000000000000081526004016117d5906155ae565b60405180910390fd5b60038060058111156117f3576117f2613f0a565b5b5f8054906101000a900460ff16600581111561181257611811613f0a565b5b14611852576040517f08c379a00000000000000000000000000000000000000000000000000000000081526004016118499061441c565b60405180910390fd5b61185b3361330e565b61189a576040517f08c379a00000000000000000000000000000000000000000000000000000000081526004016118919061563c565b60405180910390fd5b6118a35f61341e565b5f600190505f5b60018054905081101561193b57600181815481106118cb576118ca61443a565b5b905f5260205f2090600402016003015f9054906101000a900460ff1680156119215750600181815481106119025761190161443a565b5b905f5260205f20906004020160030160019054906101000a900460ff16155b1561192e575f915061193b565b80806001019150506118aa565b5080156119745760055f806101000a81548160ff0219169083600581111561196657611965613f0a565b5b0217905550611973612fef565b5b505050565b60608060038054905067ffffffffffffffff81111561199b5761199a6157c4565b5b6040519080825280602002602001820160405280156119ce57816020015b60608152602001906001900390816119b95790505b5091505f5b600380549050811015611a4557611a1a600382815481106119f7576119f661443a565b5b905f5260205f2090602091828204019190069054906101000a900460ff1661369f565b838281518110611a2d57611a2c61443a565b5b602002602001018190525080806001019150506119d3565b5060018054905067ffffffffffffffff811115611a6557611a646157c4565b5b604051908082528060200260200182016040528015611a9857816020015b6060815260200190600190039081611a835790505b5090505f5b600180549050811015611c05575f60018281548110611abf57611abe61443a565b5b905f5260205f2090600402016002018054905067ffffffffffffffff811115611aeb57611aea6157c4565b5b604051908082528060200260200182016040528015611b1e57816020015b6060815260200190600190039081611b095790505b5090505f5b60018381548110611b3757611b3661443a565b5b905f5260205f20906004020160020180549050811015611bd757611bac60018481548110611b6857611b6761443a565b5b905f5260205f2090600402016002018281548110611b8957611b8861443a565b5b905f5260205f2090602091828204019190069054906101000a900460ff1661369f565b828281518110611bbf57611bbe61443a565b5b60200260200101819052508080600101915050611b23565b5080838381518110611bec57611beb61443a565b5b6020026020010181905250508080600101915050611a9d565b509091565b60045f9054906101000a900473ffffffffffffffffffffffffffffffffffffffff1673ffffffffffffffffffffffffffffffffffffffff163373ffffffffffffffffffffffffffffffffffffffff1614611c99576040517f08c379a0000000000000000000000000000000000000000000000000000000008152600401611c90906143b4565b60405180910390fd5b6002806005811115611cae57611cad613f0a565b5b5f8054906101000a900460ff166005811115611ccd57611ccc613f0a565b5b14611d0d576040517f08c379a0000000000000000000000000000000000000000000000000000000008152600401611d049061441c565b60405180910390fd5b5f600d5f60045f9054906101000a900473ffffffffffffffffffffffffffffffffffffffff1673ffffffffffffffffffffffffffffffffffffffff1673ffffffffffffffffffffffffffffffffffffffff1681526020019081526020015f205490505f8103611db1576040517f08c379a0000000000000000000000000000000000000000000000000000000008152600401611da89061583b565b60405180910390fd5b5f5b600180549050811015612057575f60018281548110611dd557611dd461443a565b5b905f5260205f2090600402015f015f9054906101000a900473ffffffffffffffffffffffffffffffffffffffff1690505f600d5f8373ffffffffffffffffffffffffffffffffffffffff1673ffffffffffffffffffffffffffffffffffffffff1681526020019081526020015f205490505f8103611e88576040517f08c379a0000000000000000000000000000000000000000000000000000000008152600401611e7f906158c9565b60405180910390fd5b5f73__$d2f6b017be7de1f9aeeafac1e5f6c413f3$__6310f8b35c83876040518363ffffffff1660e01b8152600401611ec29291906146a8565b602060405180830381865af4158015611edd573d5f803e3d5ffd5b505050506040513d601f19601f82011682018060405250810190611f0191906146f9565b90505f73__$d2f6b017be7de1f9aeeafac1e5f6c413f3$__6310f8b35c87856040518363ffffffff1660e01b8152600401611f3d9291906146a8565b602060405180830381865af4158015611f58573d5f803e3d5ffd5b505050506040513d601f19601f82011682018060405250810190611f7c91906146f9565b905060018581548110611f9257611f9161443a565b5b905f5260205f20906004020160020182908060018154018082558091505060019003905f5260205f2090602091828204019190069091909190916101000a81548160ff021916908360ff16021790555060018581548110611ff657611ff561443a565b5b905f5260205f20906004020160020181908060018154018082558091505060019003905f5260205f2090602091828204019190069091909190916101000a81548160ff021916908360ff160217905550505050508080600101915050611db3565b505f805b60018054905081101561211e5781612105600183815481106120805761207f61443a565b5b905f5260205f2090600402016002018054806020026020016040519081016040528092919081815260200182805480156120fb57602002820191905f5260205f20905f905b82829054906101000a900460ff1660ff16815260200190600101906020825f010492830192600103820291508084116120c55790505b5050505050612f91565b61210f9190615729565b9150808060010191505061205b565b505f73__$d2f6b017be7de1f9aeeafac1e5f6c413f3$__6310f8b35c83856040518363ffffffff1660e01b81526004016121599291906146a8565b602060405180830381865af4158015612174573d5f803e3d5ffd5b505050506040513d601f19601f8201168201806040525081019061219891906146f9565b9050600381908060018154018082558091505060019003905f5260205f2090602091828204019190069091909190916101000a81548160ff021916908360ff16021790555060035f806101000a81548160ff0219169083600581111561220157612200613f0a565b5b021790555050505050565b60605f60018054905067ffffffffffffffff81111561222e5761222d6157c4565b5b60405190808252806020026020018201604052801561225c5781602001602082028036833780820191505090505b5091505f5b60018054905081101561233a5773__$d2f6b017be7de1f9aeeafac1e5f6c413f3$__63345e3d686001838154811061229c5761229b61443a565b5b905f5260205f2090600402016002016040518263ffffffff1660e01b81526004016122c7919061544e565b602060405180830381865af41580156122e2573d5f803e3d5ffd5b505050506040513d601f19601f8201168201806040525081019061230691906146f9565b8382815181106123195761231861443a565b5b602002602001019060ff16908160ff16815250508080600101915050612261565b5073__$d2f6b017be7de1f9aeeafac1e5f6c413f3$__63345e3d6860036040518263ffffffff1660e01b8152600401612373919061544e565b602060405180830381865af415801561238e573d5f803e3d5ffd5b505050506040513d601f19601f820116820180604052508101906123b291906146f9565b90509091565b5f8060058111156123cc576123cb613f0a565b5b5f8054906101000a900460ff1660058111156123eb576123ea613f0a565b5b1461242b576040517f08c379a00000000000000000000000000000000000000000000000000000000081526004016124229061441c565b60405180910390fd5b600460025410612470576040517f08c379a000000000000000000000000000000000000000000000000000000000815260040161246790615931565b60405180910390fd5b8134146124b2576040517f08c379a00000000000000000000000000000000000000000000000000000000081526004016124a990615999565b60405180910390fd5b60016040518060a001604052803373ffffffffffffffffffffffffffffffffffffffff1681526020018481526020015f67ffffffffffffffff8111156124fb576124fa6157c4565b5b6040519080825280602002602001820160405280156125295781602001602082028036833780820191505090505b5081526020016001151581526020015f1515815250908060018154018082558091505060019003905f5260205f2090600402015f909190919091505f820151815f015f6101000a81548173ffffffffffffffffffffffffffffffffffffffff021916908373ffffffffffffffffffffffffffffffffffffffff1602179055506020820151816001015560408201518160020190805190602001906125ce929190613c85565b506060820151816003015f6101000a81548160ff02191690831515021790555060808201518160030160016101000a81548160ff021916908315150217905550505060025f81548092919061262290614652565b91905055505050565b612636601254613831565b612675576040517f08c379a000000000000000000000000000000000000000000000000000000000815260040161266c90615a01565b60405180910390fd5b6001600581111561268957612688613f0a565b5b5f8054906101000a900460ff1660058111156126a8576126a7613f0a565b5b03612819575f5b6001805490508110156127d4575f801b600c5f600184815481106126d6576126d561443a565b5b905f5260205f2090600402015f015f9054906101000a900473ffffffffffffffffffffffffffffffffffffffff1673ffffffffffffffffffffffffffffffffffffffff1673ffffffffffffffffffffffffffffffffffffffff1681526020019081526020015f205414801561277757506001818154811061275a5761275961443a565b5b905f5260205f2090600402016003015f9054906101000a900460ff165b156127c7576127c6600182815481106127935761279261443a565b5b905f5260205f2090600402015f015f9054906101000a900473ffffffffffffffffffffffffffffffffffffffff1661383c565b5b80806001019150506126af565b506127dd61394a565b1561280c5760055f806101000a81548160ff0219169083600581111561280657612805613f0a565b5b02179055505b6128146132fe565b612c58565b6002600581111561282d5761282c613f0a565b5b5f8054906101000a900460ff16600581111561284c5761284b613f0a565b5b03612a67575f600190505f5b60018054905081101561297e575f600d5f6001848154811061287d5761287c61443a565b5b905f5260205f2090600402015f015f9054906101000a900473ffffffffffffffffffffffffffffffffffffffff1673ffffffffffffffffffffffffffffffffffffffff1673ffffffffffffffffffffffffffffffffffffffff1681526020019081526020015f205414801561291e5750600181815481106129015761290061443a565b5b905f5260205f2090600402016003015f9054906101000a900460ff165b156129715761296d6001828154811061293a5761293961443a565b5b905f5260205f2090600402015f015f9054906101000a900473ffffffffffffffffffffffffffffffffffffffff1661383c565b5f91505b8080600101915050612858565b5061298761394a565b156129b65760055f806101000a81548160ff021916908360058111156129b0576129af613f0a565b5b02179055505b5f600d5f60045f9054906101000a900473ffffffffffffffffffffffffffffffffffffffff1673ffffffffffffffffffffffffffffffffffffffff1673ffffffffffffffffffffffffffffffffffffffff1681526020019081526020015f205403612a5257612a236139eb565b60055f806101000a81548160ff02191690836005811115612a4757612a46613f0a565b5b021790555050612c59565b8015612a6157612a606132fe565b5b50612c57565b60036005811115612a7b57612a7a613f0a565b5b5f8054906101000a900460ff166005811115612a9a57612a99613f0a565b5b03612c56575f600190505f5b600180549050811015612bd75760018181548110612ac757612ac661443a565b5b905f5260205f2090600402016003015f9054906101000a900460ff168015612b775750600f5f60018381548110612b0157612b0061443a565b5b905f5260205f2090600402015f015f9054906101000a900473ffffffffffffffffffffffffffffffffffffffff1673ffffffffffffffffffffffffffffffffffffffff1673ffffffffffffffffffffffffffffffffffffffff1681526020019081526020015f205f9054906101000a900460ff16155b15612bca57612bc660018281548110612b9357612b9261443a565b5b905f5260205f2090600402015f015f9054906101000a900473ffffffffffffffffffffffffffffffffffffffff1661383c565b5f91505b8080600101915050612aa6565b50612be061394a565b15612c0f5760055f806101000a81548160ff02191690836005811115612c0957612c08613f0a565b5b02179055505b8015612c4b57612c1d6139eb565b60055f806101000a81548160ff02191690836005811115612c4157612c40613f0a565b5b0217905550612c54565b612c536132fe565b5b505b5b5b5b565b6002806005811115612c7057612c6f613f0a565b5b5f8054906101000a900460ff166005811115612c8f57612c8e613f0a565b5b14612ccf576040517f08c379a0000000000000000000000000000000000000000000000000000000008152600401612cc69061441c565b60405180910390fd5b5f600d5f3373ffffffffffffffffffffffffffffffffffffffff1673ffffffffffffffffffffffffffffffffffffffff1681526020019081526020015f205414612d4e576040517f08c379a0000000000000000000000000000000000000000000000000000000008152600401612d4590615a69565b60405180910390fd5b60045f9054906101000a900473ffffffffffffffffffffffffffffffffffffffff1673ffffffffffffffffffffffffffffffffffffffff163373ffffffffffffffffffffffffffffffffffffffff1603612ea0576005600b5460068110612db857612db761443a565b5b015482604051602001612dcb919061457d565b6040516020818303038152906040528051906020012014612e21576040517f08c379a0000000000000000000000000000000000000000000000000000000008152600401612e1890615ad1565b60405180910390fd5b81600d5f60045f9054906101000a900473ffffffffffffffffffffffffffffffffffffffff1673ffffffffffffffffffffffffffffffffffffffff1673ffffffffffffffffffffffffffffffffffffffff1681526020019081526020015f2081905550600b5f815480929190612e9690614652565b9190505550612f8d565b5f82604051602001612eb2919061457d565b604051602081830303815290604052805190602001209050600c5f3373ffffffffffffffffffffffffffffffffffffffff1673ffffffffffffffffffffffffffffffffffffffff1681526020019081526020015f20548114612f49576040517f08c379a0000000000000000000000000000000000000000000000000000000008152600401612f4090615b39565b60405180910390fd5b82600d5f3373ffffffffffffffffffffffffffffffffffffffff1673ffffffffffffffffffffffffffffffffffffffff1681526020019081526020015f2081905550505b5050565b5f805f90505f5b8351811015612fe557838181518110612fb457612fb361443a565b5b602002602001015160ff16606483612fcc919061565a565b612fd69190615729565b91508080600101915050612f98565b5080915050919050565b60058081111561300257613001613f0a565b5b5f8054906101000a900460ff16600581111561302157613020613f0a565b5b14613061576040517f08c379a000000000000000000000000000000000000000000000000000000000815260040161305890615bc7565b60405180910390fd5b5f805b6001805490508110156131295781600c5f600184815481106130895761308861443a565b5b905f5260205f2090600402015f015f9054906101000a900473ffffffffffffffffffffffffffffffffffffffff1673ffffffffffffffffffffffffffffffffffffffff1673ffffffffffffffffffffffffffffffffffffffff1681526020019081526020015f2054604051602001613102929190615c05565b604051602081830303815290604052805190602001205f1c91508080600101915050613064565b505f5b601173__$d2f6b017be7de1f9aeeafac1e5f6c413f3$__63345e3d6860036040518263ffffffff1660e01b8152600401613166919061544e565b602060405180830381865af4158015613181573d5f803e3d5ffd5b505050506040513d601f19601f820116820180604052508101906131a591906146f9565b60ff1610156132fa578061322a600380548060200260200160405190810160405280929190818152602001828054801561322057602002820191905f5260205f20905f905b82829054906101000a900460ff1660ff16815260200190600101906020825f010492830192600103820291508084116131ea5790505b5050505050612f91565b6132349190615729565b90505f73__$d2f6b017be7de1f9aeeafac1e5f6c413f3$__6310f8b35c84846040518363ffffffff1660e01b81526004016132709291906146a8565b602060405180830381865af415801561328b573d5f803e3d5ffd5b505050506040513d601f19601f820116820180604052508101906132af91906146f9565b9050600381908060018154018082558091505060019003905f5260205f2090602091828204019190069091909190916101000a81548160ff021916908360ff1602179055505061312c565b5050565b613306613af9565b601281905550565b5f805f90505b600180549050811015613414578273ffffffffffffffffffffffffffffffffffffffff166001828154811061334c5761334b61443a565b5b905f5260205f2090600402015f015f9054906101000a900473ffffffffffffffffffffffffffffffffffffffff1673ffffffffffffffffffffffffffffffffffffffff160361340757600181815481106133a9576133a861443a565b5b905f5260205f2090600402016003015f9054906101000a900460ff1680156133ff5750600181815481106133e0576133df61443a565b5b905f5260205f20906004020160030160019054906101000a900460ff16155b915050613419565b8080600101915050613314565b505f90505b919050565b600380600581111561343357613432613f0a565b5b5f8054906101000a900460ff16600581111561345257613451613f0a565b5b14613492576040517f08c379a00000000000000000000000000000000000000000000000000000000081526004016134899061441c565b60405180910390fd5b600f5f3373ffffffffffffffffffffffffffffffffffffffff1673ffffffffffffffffffffffffffffffffffffffff1681526020019081526020015f205f9054906101000a900460ff161561351c576040517f08c379a000000000000000000000000000000000000000000000000000000000815260040161351390615c7a565b60405180910390fd5b81600e5f3373ffffffffffffffffffffffffffffffffffffffff1673ffffffffffffffffffffffffffffffffffffffff1681526020019081526020015f205f6101000a81548160ff0219169083151502179055506001600f5f3373ffffffffffffffffffffffffffffffffffffffff1673ffffffffffffffffffffffffffffffffffffffff1681526020019081526020015f205f6101000a81548160ff0219169083151502179055508161369b575f5b600180549050811015613699573373ffffffffffffffffffffffffffffffffffffffff16600182815481106136045761360361443a565b5b905f5260205f2090600402015f015f9054906101000a900473ffffffffffffffffffffffffffffffffffffffff1673ffffffffffffffffffffffffffffffffffffffff160361368c575f600182815481106136625761366161443a565b5b905f5260205f2090600402016003015f6101000a81548160ff021916908315150217905550613699565b80806001019150506135cc565b505b5050565b606060018260ff16036136e9576040518060400160405280600181526020017f4100000000000000000000000000000000000000000000000000000000000000815250905061382c565b60028260ff16101580156137015750600a8260ff1611155b15613719576137128260ff16613b0c565b905061382c565b600b8260ff1603613761576040518060400160405280600181526020017f4a00000000000000000000000000000000000000000000000000000000000000815250905061382c565b600c8260ff16036137a9576040518060400160405280600181526020017f5100000000000000000000000000000000000000000000000000000000000000815250905061382c565b600d8260ff16036137f1576040518060400160405280600181526020017f4b00000000000000000000000000000000000000000000000000000000000000815250905061382c565b6040517f08c379a000000000000000000000000000000000000000000000000000000000815260040161382390615ce2565b60405180910390fd5b919050565b5f8142119050919050565b5f5b600180549050811015613946578173ffffffffffffffffffffffffffffffffffffffff16600182815481106138765761387561443a565b5b905f5260205f2090600402015f015f9054906101000a900473ffffffffffffffffffffffffffffffffffffffff1673ffffffffffffffffffffffffffffffffffffffff1603613939575f600182815481106138d4576138d361443a565b5b905f5260205f2090600402016003015f6101000a81548160ff021916908315150217905550600180828154811061390e5761390d61443a565b5b905f5260205f20906004020160030160016101000a81548160ff021916908315150217905550613946565b808060010191505061383e565b5050565b5f805f90505b6001805490508110156139e257600181815481106139715761397061443a565b5b905f5260205f2090600402016003015f9054906101000a900460ff1680156139c75750600181815481106139a8576139a761443a565b5b905f5260205f20906004020160030160019054906101000a900460ff16155b156139d5575f9150506139e8565b8080600101915050613950565b50600190505b90565b5f5b600180549050811015613af65760018181548110613a0e57613a0d61443a565b5b905f5260205f2090600402016003015f9054906101000a900460ff1615613ae9575f600260018381548110613a4657613a4561443a565b5b905f5260205f20906004020160010154613a60919061565a565b905060018281548110613a7657613a7561443a565b5b905f5260205f2090600402015f015f9054906101000a900473ffffffffffffffffffffffffffffffffffffffff1673ffffffffffffffffffffffffffffffffffffffff166108fc8290811502906040515f60405180830381858888f19350505050158015613ae6573d5f803e3d5ffd5b50505b80806001019150506139ed565b50565b5f603c42613b079190615729565b905090565b60605f8203613b52576040518060400160405280600181526020017f30000000000000000000000000000000000000000000000000000000000000008152509050613c80565b5f8290505f5b5f8214613b81578080613b6a90614652565b915050600a82613b7a9190615d2d565b9150613b58565b5f8167ffffffffffffffff811115613b9c57613b9b6157c4565b5b6040519080825280601f01601f191660200182016040528015613bce5781602001600182028036833780820191505090505b5090505f8290505b5f8614613c7857600181613bea9190615d5d565b90505f600a8088613bfb9190615d2d565b613c05919061565a565b87613c109190615d5d565b6030613c1c9190615d90565b90508060f81b838381518110613c3557613c3461443a565b5b60200101907effffffffffffffffffffffffffffffffffffffffffffffffffffffffffffff191690815f1a905350600a87613c709190615d2d565b965050613bd6565b819450505050505b919050565b828054828255905f5260205f2090601f01602090048101928215613d16579160200282015f5b83821115613ce857835183826101000a81548160ff021916908360ff16021790555092602001926001016020815f01049283019260010302613cab565b8015613d145782816101000a81549060ff02191690556001016020815f01049283019260010302613ce8565b505b509050613d239190613d27565b5090565b5b80821115613d3e575f815f905550600101613d28565b5090565b5f80fd5b5f819050919050565b613d5881613d46565b8114613d62575f80fd5b50565b5f81359050613d7381613d4f565b92915050565b5f60208284031215613d8e57613d8d613d42565b5b5f613d9b84828501613d65565b91505092915050565b613dad81613d46565b82525050565b5f602082019050613dc65f830184613da4565b92915050565b5f819050919050565b613dde81613dcc565b8114613de8575f80fd5b50565b5f81359050613df981613dd5565b92915050565b5f60208284031215613e1457613e13613d42565b5b5f613e2184828501613deb565b91505092915050565b5f8115159050919050565b613e3e81613e2a565b82525050565b5f602082019050613e575f830184613e35565b92915050565b5f73ffffffffffffffffffffffffffffffffffffffff82169050919050565b5f613e8682613e5d565b9050919050565b613e9681613e7c565b8114613ea0575f80fd5b50565b5f81359050613eb181613e8d565b92915050565b5f60208284031215613ecc57613ecb613d42565b5b5f613ed984828501613ea3565b91505092915050565b613eeb81613dcc565b82525050565b5f602082019050613f045f830184613ee2565b92915050565b7f4e487b71000000000000000000000000000000000000000000000000000000005f52602160045260245ffd5b60068110613f4857613f47613f0a565b5b50565b5f819050613f5882613f37565b919050565b5f613f6782613f4b565b9050919050565b613f7781613f5d565b82525050565b5f602082019050613f905f830184613f6e565b92915050565b5f81519050919050565b5f82825260208201905092915050565b5f819050602082019050919050565b5f81519050919050565b5f82825260208201905092915050565b8281835e5f83830152505050565b5f601f19601f8301169050919050565b5f61400182613fbf565b61400b8185613fc9565b935061401b818560208601613fd9565b61402481613fe7565b840191505092915050565b5f61403a8383613ff7565b905092915050565b5f602082019050919050565b5f61405882613f96565b6140628185613fa0565b93508360208202850161407485613fb0565b805f5b858110156140af5784840389528151614090858261402f565b945061409b83614042565b925060208a01995050600181019050614077565b50829750879550505050505092915050565b5f81519050919050565b5f82825260208201905092915050565b5f819050602082019050919050565b5f82825260208201905092915050565b5f61410482613f96565b61410e81856140ea565b93508360208202850161412085613fb0565b805f5b8581101561415b578484038952815161413c858261402f565b945061414783614042565b925060208a01995050600181019050614123565b50829750879550505050505092915050565b5f61417883836140fa565b905092915050565b5f602082019050919050565b5f614196826140c1565b6141a081856140cb565b9350836020820285016141b2856140db565b805f5b858110156141ed57848403895281516141ce858261416d565b94506141d983614180565b925060208a019950506001810190506141b5565b50829750879550505050505092915050565b5f6040820190508181035f830152614217818561404e565b9050818103602083015261422b818461418c565b90509392505050565b5f81519050919050565b5f82825260208201905092915050565b5f819050602082019050919050565b5f60ff82169050919050565b6142728161425d565b82525050565b5f6142838383614269565b60208301905092915050565b5f602082019050919050565b5f6142a582614234565b6142af818561423e565b93506142ba8361424e565b805f5b838110156142ea5781516142d18882614278565b97506142dc8361428f565b9250506001810190506142bd565b5085935050505092915050565b6143008161425d565b82525050565b5f6040820190508181035f83015261431e818561429b565b905061432d60208301846142f7565b9392505050565b5f82825260208201905092915050565b7f4f6e6c79207468652062616e6b2063616e20706572666f726d207468697320615f8201527f6374696f6e000000000000000000000000000000000000000000000000000000602082015250565b5f61439e602583614334565b91506143a982614344565b604082019050919050565b5f6020820190508181035f8301526143cb81614392565b9050919050565b7f496e76616c696420737461746520666f72207468697320616374696f6e0000005f82015250565b5f614406601d83614334565b9150614411826143d2565b602082019050919050565b5f6020820190508181035f830152614433816143fa565b9050919050565b7f4e487b71000000000000000000000000000000000000000000000000000000005f52603260045260245ffd5b7f4e6f7420616c6c20706c61796572732068617665206d616465207468656972205f8201527f63686f6963650000000000000000000000000000000000000000000000000000602082015250565b5f6144c1602683614334565b91506144cc82614467565b604082019050919050565b5f6020820190508181035f8301526144ee816144b5565b9050919050565b7f4e6f206d6f72652068617368657320617661696c61626c6500000000000000005f82015250565b5f614529601883614334565b9150614534826144f5565b602082019050919050565b5f6020820190508181035f8301526145568161451d565b9050919050565b5f819050919050565b61457761457282613d46565b61455d565b82525050565b5f6145888284614566565b60208201915081905092915050565b7f4861736820646f6573206e6f74206d6174636820746865206e6578742062616e5f8201527f6b20686173680000000000000000000000000000000000000000000000000000602082015250565b5f6145f1602683614334565b91506145fc82614597565b604082019050919050565b5f6020820190508181035f83015261461e816145e5565b9050919050565b7f4e487b71000000000000000000000000000000000000000000000000000000005f52601160045260245ffd5b5f61465c82613d46565b91507fffffffffffffffffffffffffffffffffffffffffffffffffffffffffffffffff820361468e5761468d614625565b5b600182019050919050565b6146a281613d46565b82525050565b5f6040820190506146bb5f830185614699565b6146c86020830184614699565b9392505050565b6146d88161425d565b81146146e2575f80fd5b50565b5f815190506146f3816146cf565b92915050565b5f6020828403121561470e5761470d613d42565b5b5f61471b848285016146e5565b91505092915050565b5f81549050919050565b5f82825260208201905092915050565b5f819050815f5260205f209050919050565b6147598161425d565b82525050565b5f815f1c9050919050565b5f60ff82169050919050565b5f6147886147838361475f565b61476a565b9050919050565b5f8160081c9050919050565b5f6147ad6147a88361478f565b61476a565b9050919050565b5f8160101c9050919050565b5f6147d26147cd836147b4565b61476a565b9050919050565b5f8160181c9050919050565b5f6147f76147f2836147d9565b61476a565b9050919050565b5f8160201c9050919050565b5f61481c614817836147fe565b61476a565b9050919050565b5f8160281c9050919050565b5f61484161483c83614823565b61476a565b9050919050565b5f8160301c9050919050565b5f61486661486183614848565b61476a565b9050919050565b5f8160381c9050919050565b5f61488b6148868361486d565b61476a565b9050919050565b5f8160401c9050919050565b5f6148b06148ab83614892565b61476a565b9050919050565b5f8160481c9050919050565b5f6148d56148d0836148b7565b61476a565b9050919050565b5f8160501c9050919050565b5f6148fa6148f5836148dc565b61476a565b9050919050565b5f8160581c9050919050565b5f61491f61491a83614901565b61476a565b9050919050565b5f8160601c9050919050565b5f61494461493f83614926565b61476a565b9050919050565b5f8160681c9050919050565b5f6149696149648361494b565b61476a565b9050919050565b5f8160701c9050919050565b5f61498e61498983614970565b61476a565b9050919050565b5f8160781c9050919050565b5f6149b36149ae83614995565b61476a565b9050919050565b5f8160801c9050919050565b5f6149d86149d3836149ba565b61476a565b9050919050565b5f8160881c9050919050565b5f6149fd6149f8836149df565b61476a565b9050919050565b5f8160901c9050919050565b5f614a22614a1d83614a04565b61476a565b9050919050565b5f8160981c9050919050565b5f614a47614a4283614a29565b61476a565b9050919050565b5f8160a01c9050919050565b5f614a6c614a6783614a4e565b61476a565b9050919050565b5f8160a81c9050919050565b5f614a91614a8c83614a73565b61476a565b9050919050565b5f8160b01c9050919050565b5f614ab6614ab183614a98565b61476a565b9050919050565b5f8160b81c9050919050565b5f614adb614ad683614abd565b61476a565b9050919050565b5f8160c01c9050919050565b5f614b00614afb83614ae2565b61476a565b9050919050565b5f8160c81c9050919050565b5f614b25614b2083614b07565b61476a565b9050919050565b5f8160d01c9050919050565b5f614b4a614b4583614b2c565b61476a565b9050919050565b5f8160d81c9050919050565b5f614b6f614b6a83614b51565b61476a565b9050919050565b5f8160e01c9050919050565b5f614b94614b8f83614b76565b61476a565b9050919050565b5f8160e81c9050919050565b5f614bb9614bb483614b9b565b61476a565b9050919050565b5f8160f01c9050919050565b5f614bde614bd983614bc0565b61476a565b9050919050565b5f8160f81c9050919050565b5f614c03614bfe83614be5565b61476a565b9050919050565b5f614c1482614724565b614c1e818561472e565b935083614c2a8461473e565b5f600115614f56575b83600160200382011015614f55578154614c5588614c5083614776565b614750565b602088019750614c6d88614c688361479b565b614750565b602088019750614c8588614c80836147c0565b614750565b602088019750614c9d88614c98836147e5565b614750565b602088019750614cb588614cb08361480a565b614750565b602088019750614ccd88614cc88361482f565b614750565b602088019750614ce588614ce083614854565b614750565b602088019750614cfd88614cf883614879565b614750565b602088019750614d1588614d108361489e565b614750565b602088019750614d2d88614d28836148c3565b614750565b602088019750614d4588614d40836148e8565b614750565b602088019750614d5d88614d588361490d565b614750565b602088019750614d7588614d7083614932565b614750565b602088019750614d8d88614d8883614957565b614750565b602088019750614da588614da08361497c565b614750565b602088019750614dbd88614db8836149a1565b614750565b602088019750614dd588614dd0836149c6565b614750565b602088019750614ded88614de8836149eb565b614750565b602088019750614e0588614e0083614a10565b614750565b602088019750614e1d88614e1883614a35565b614750565b602088019750614e3588614e3083614a5a565b614750565b602088019750614e4d88614e4883614a7f565b614750565b602088019750614e6588614e6083614aa4565b614750565b602088019750614e7d88614e7883614ac9565b614750565b602088019750614e9588614e9083614aee565b614750565b602088019750614ead88614ea883614b13565b614750565b602088019750614ec588614ec083614b38565b614750565b602088019750614edd88614ed883614b5d565b614750565b602088019750614ef588614ef083614b82565b614750565b602088019750614f0d88614f0883614ba7565b614750565b602088019750614f2588614f2083614bcc565b614750565b602088019750614f3d88614f3883614bf1565b614750565b60208801975060018301925050602081019050614c33565b5b60011561544157815484821015614f8657614f7988614f7483614776565b614750565b6020880197506001820191505b84821015614fad57614fa088614f9b8361479b565b614750565b6020880197506001820191505b84821015614fd457614fc788614fc2836147c0565b614750565b6020880197506001820191505b84821015614ffb57614fee88614fe9836147e5565b614750565b6020880197506001820191505b8482101561502257615015886150108361480a565b614750565b6020880197506001820191505b848210156150495761503c886150378361482f565b614750565b6020880197506001820191505b84821015615070576150638861505e83614854565b614750565b6020880197506001820191505b848210156150975761508a8861508583614879565b614750565b6020880197506001820191505b848210156150be576150b1886150ac8361489e565b614750565b6020880197506001820191505b848210156150e5576150d8886150d3836148c3565b614750565b6020880197506001820191505b8482101561510c576150ff886150fa836148e8565b614750565b6020880197506001820191505b8482101561513357615126886151218361490d565b614750565b6020880197506001820191505b8482101561515a5761514d8861514883614932565b614750565b6020880197506001820191505b84821015615181576151748861516f83614957565b614750565b6020880197506001820191505b848210156151a85761519b886151968361497c565b614750565b6020880197506001820191505b848210156151cf576151c2886151bd836149a1565b614750565b6020880197506001820191505b848210156151f6576151e9886151e4836149c6565b614750565b6020880197506001820191505b8482101561521d576152108861520b836149eb565b614750565b6020880197506001820191505b84821015615244576152378861523283614a10565b614750565b6020880197506001820191505b8482101561526b5761525e8861525983614a35565b614750565b6020880197506001820191505b84821015615292576152858861528083614a5a565b614750565b6020880197506001820191505b848210156152b9576152ac886152a783614a7f565b614750565b6020880197506001820191505b848210156152e0576152d3886152ce83614aa4565b614750565b6020880197506001820191505b84821015615307576152fa886152f583614ac9565b614750565b6020880197506001820191505b8482101561532e576153218861531c83614aee565b614750565b6020880197506001820191505b84821015615355576153488861534383614b13565b614750565b6020880197506001820191505b8482101561537c5761536f8861536a83614b38565b614750565b6020880197506001820191505b848210156153a3576153968861539183614b5d565b614750565b6020880197506001820191505b848210156153ca576153bd886153b883614b82565b614750565b6020880197506001820191505b848210156153f1576153e4886153df83614ba7565b614750565b6020880197506001820191505b848210156154185761540b8861540683614bcc565b614750565b6020880197506001820191505b8482101561543f576154328861542d83614bf1565b614750565b6020880197506001820191505b505b8694505050505092915050565b5f6020820190508181035f8301526154668184614c0a565b905092915050565b7f506c61796572206861736820616c726561647920636f6d6d69747465640000005f82015250565b5f6154a2601d83614334565b91506154ad8261546e565b602082019050919050565b5f6020820190508181035f8301526154cf81615496565b9050919050565b7f4e6f20706c61796572732068617665206a6f696e6564000000000000000000005f82015250565b5f61550a601683614334565b9150615515826154d6565b602082019050919050565b5f6020820190508181035f830152615537816154fe565b9050919050565b7f4f6e6c792070617274696369706174696e6720706c61796572732063616e20705f8201527f6572666f726d207468697320616374696f6e0000000000000000000000000000602082015250565b5f615598603283614334565b91506155a38261553e565b604082019050919050565b5f6020820190508181035f8301526155c58161558c565b9050919050565b7f506c61796572206973206e6f7420616374697665206f722069732062757374655f8201527f6400000000000000000000000000000000000000000000000000000000000000602082015250565b5f615626602183614334565b9150615631826155cc565b604082019050919050565b5f6020820190508181035f8301526156538161561a565b9050919050565b5f61566482613d46565b915061566f83613d46565b925082820261567d81613d46565b9150828204841483151761569457615693614625565b5b5092915050565b7f4d7573742073656e6420736f6d652045544820746f2066756e642074686520635f8201527f6f6e747261637400000000000000000000000000000000000000000000000000602082015250565b5f6156f5602783614334565b91506157008261569b565b604082019050919050565b5f6020820190508181035f830152615722816156e9565b9050919050565b5f61573382613d46565b915061573e83613d46565b925082820190508082111561575657615755614625565b5b92915050565b7f4e6f7420616c6c20706c617965727320636f6d6d6974746564000000000000005f82015250565b5f615790601983614334565b915061579b8261575c565b602082019050919050565b5f6020820190508181035f8301526157bd81615784565b9050919050565b7f4e487b71000000000000000000000000000000000000000000000000000000005f52604160045260245ffd5b7f42616e6b20686173206e6f742072657665616c656420697473206e756d6265725f82015250565b5f615825602083614334565b9150615830826157f1565b602082019050919050565b5f6020820190508181035f83015261585281615819565b9050919050565b7f506c6179657220686173206e6f742072657665616c6564207468656972206e755f8201527f6d62657200000000000000000000000000000000000000000000000000000000602082015250565b5f6158b3602483614334565b91506158be82615859565b604082019050919050565b5f6020820190508181035f8301526158e0816158a7565b9050919050565b7f4d6178203420706c617965727320616c6c6f77656400000000000000000000005f82015250565b5f61591b601583614334565b9150615926826158e7565b602082019050919050565b5f6020820190508181035f8301526159488161590f565b9050919050565b7f42657420616d6f756e74206d69736d61746368000000000000000000000000005f82015250565b5f615983601383614334565b915061598e8261594f565b602082019050919050565b5f6020820190508181035f8301526159b081615977565b9050919050565b7f54696d656f7574206e6f742079657420706173736564000000000000000000005f82015250565b5f6159eb601683614334565b91506159f6826159b7565b602082019050919050565b5f6020820190508181035f830152615a18816159df565b9050919050565b7f4e756d62657220616c72656164792072657665616c65640000000000000000005f82015250565b5f615a53601783614334565b9150615a5e82615a1f565b602082019050919050565b5f6020820190508181035f830152615a8081615a47565b9050919050565b7f4861736820646f6573206e6f74206d6174636820666f7220696e6465782030005f82015250565b5f615abb601f83614334565b9150615ac682615a87565b602082019050919050565b5f6020820190508181035f830152615ae881615aaf565b9050919050565b7f4861736820646f6573206e6f74206d61746368000000000000000000000000005f82015250565b5f615b23601383614334565b9150615b2e82615aef565b602082019050919050565b5f6020820190508181035f830152615b5081615b17565b9050919050565b7f42616e6b2063617264732063616e206f6e6c7920626520647261776e20696e205f8201527f436f6d706c657465642073746174650000000000000000000000000000000000602082015250565b5f615bb1602f83614334565b9150615bbc82615b57565b604082019050919050565b5f6020820190508181035f830152615bde81615ba5565b9050919050565b5f819050919050565b615bff615bfa82613dcc565b615be5565b82525050565b5f615c108285614566565b602082019150615c208284615bee565b6020820191508190509392505050565b7f43686f69636520616c7265616479206d616465000000000000000000000000005f82015250565b5f615c64601383614334565b9150615c6f82615c30565b602082019050919050565b5f6020820190508181035f830152615c9181615c58565b9050919050565b7f496e76616c696420636172642076616c756500000000000000000000000000005f82015250565b5f615ccc601283614334565b9150615cd782615c98565b602082019050919050565b5f6020820190508181035f830152615cf981615cc0565b9050919050565b7f4e487b71000000000000000000000000000000000000000000000000000000005f52601260045260245ffd5b5f615d3782613d46565b9150615d4283613d46565b925082615d5257615d51615d00565b5b828204905092915050565b5f615d6782613d46565b9150615d7283613d46565b9250828203905081811115615d8a57615d89614625565b5b92915050565b5f615d9a8261425d565b9150615da58361425d565b9250828201905060ff811115615dbe57615dbd614625565b5b9291505056fea26469706673582212206d72339cdb938d7433dc3257b5e9c3aa4a80c4efbfea7f6feb5a169305390ac664736f6c634300081a0033",
			"opcodes": "PUSH1 0x80 PUSH1 0x40 MSTORE PUSH0 PUSH1 0xB SSTORE CALLER PUSH1 0x4 PUSH0 PUSH2 0x100 EXP DUP2 SLOAD DUP2 PUSH20 0xFFFFFFFFFFFFFFFFFFFFFFFFFFFFFFFFFFFFFFFF MUL NOT AND SWAP1 DUP4 PUSH20 0xFFFFFFFFFFFFFFFFFFFFFFFFFFFFFFFFFFFFFFFF AND MUL OR SWAP1 SSTORE POP PUSH32 0x5569044719A1EC3B04D0AFA9E7A5310C7C0473331D13DC9FAFE143B2C4E8148A PUSH0 SHL PUSH1 0x5 PUSH0 PUSH1 0x6 DUP2 LT PUSH2 0x7F JUMPI PUSH2 0x7E PUSH2 0x218 JUMP JUMPDEST JUMPDEST ADD DUP2 SWAP1 SSTORE POP PUSH32 0x8CDEE82CB3AC6D59F1F417405A3EECF497B31F3D06D4C506F96DEB67789F61E9 PUSH0 SHL PUSH1 0x5 PUSH1 0x1 PUSH1 0x6 DUP2 LT PUSH2 0xBC JUMPI PUSH2 0xBB PUSH2 0x218 JUMP JUMPDEST JUMPDEST ADD DUP2 SWAP1 SSTORE POP PUSH32 0x99AB169E1C348AEC31EFD8DFB67CD8C9A0B8671E1175932DDA6708B0CC02A502 PUSH0 SHL PUSH1 0x5 PUSH1 0x2 PUSH1 0x6 DUP2 LT PUSH2 0xF9 JUMPI PUSH2 0xF8 PUSH2 0x218 JUMP JUMPDEST JUMPDEST ADD DUP2 SWAP1 SSTORE POP PUSH32 0x447DD11B9E568A4A39776C37476A0DC1AA52F08DEC0E496BDA446AACC5BDED48 PUSH0 SHL PUSH1 0x5 PUSH1 0x3 PUSH1 0x6 DUP2 LT PUSH2 0x136 JUMPI PUSH2 0x135 PUSH2 0x218 JUMP JUMPDEST JUMPDEST ADD DUP2 SWAP1 SSTORE POP PUSH32 0x88456BED5A4300EE8DBD308A84179F780647BB3C4153152528902C7141799B04 PUSH0 SHL PUSH1 0x5 PUSH1 0x4 PUSH1 0x6 DUP2 LT PUSH2 0x173 JUMPI PUSH2 0x172 PUSH2 0x218 JUMP JUMPDEST JUMPDEST ADD DUP2 SWAP1 SSTORE POP PUSH32 0xAEB49E17C56367F7BBD1CA11B9E0DB05383C0D776987B6355D2DC2E7B60143E PUSH0 SHL PUSH1 0x5 DUP1 PUSH1 0x6 DUP2 LT PUSH2 0x1AF JUMPI PUSH2 0x1AE PUSH2 0x218 JUMP JUMPDEST JUMPDEST ADD DUP2 SWAP1 SSTORE POP PUSH0 DUP1 PUSH0 PUSH2 0x100 EXP DUP2 SLOAD DUP2 PUSH1 0xFF MUL NOT AND SWAP1 DUP4 PUSH1 0x5 DUP2 GT ISZERO PUSH2 0x1D7 JUMPI PUSH2 0x1D6 PUSH2 0x245 JUMP JUMPDEST JUMPDEST MUL OR SWAP1 SSTORE POP PUSH2 0x1EA PUSH2 0x1EF PUSH1 0x20 SHL PUSH1 0x20 SHR JUMP JUMPDEST PUSH2 0x2DB JUMP JUMPDEST PUSH2 0x1FD PUSH2 0x205 PUSH1 0x20 SHL PUSH1 0x20 SHR JUMP JUMPDEST PUSH1 0x12 DUP2 SWAP1 SSTORE POP JUMP JUMPDEST PUSH0 PUSH1 0x3C TIMESTAMP PUSH2 0x213 SWAP2 SWAP1 PUSH2 0x2A8 JUMP JUMPDEST SWAP1 POP SWAP1 JUMP JUMPDEST PUSH32 0x4E487B7100000000000000000000000000000000000000000000000000000000 PUSH0 MSTORE PUSH1 0x32 PUSH1 0x4 MSTORE PUSH1 0x24 PUSH0 REVERT JUMPDEST PUSH32 0x4E487B7100000000000000000000000000000000000000000000000000000000 PUSH0 MSTORE PUSH1 0x21 PUSH1 0x4 MSTORE PUSH1 0x24 PUSH0 REVERT JUMPDEST PUSH0 DUP2 SWAP1 POP SWAP2 SWAP1 POP JUMP JUMPDEST PUSH32 0x4E487B7100000000000000000000000000000000000000000000000000000000 PUSH0 MSTORE PUSH1 0x11 PUSH1 0x4 MSTORE PUSH1 0x24 PUSH0 REVERT JUMPDEST PUSH0 PUSH2 0x2B2 DUP3 PUSH2 0x272 JUMP JUMPDEST SWAP2 POP PUSH2 0x2BD DUP4 PUSH2 0x272 JUMP JUMPDEST SWAP3 POP DUP3 DUP3 ADD SWAP1 POP DUP1 DUP3 GT ISZERO PUSH2 0x2D5 JUMPI PUSH2 0x2D4 PUSH2 0x27B JUMP JUMPDEST JUMPDEST SWAP3 SWAP2 POP POP JUMP JUMPDEST PUSH2 0x5DFA DUP1 PUSH2 0x2E8 PUSH0 CODECOPY PUSH0 RETURN INVALID PUSH1 0x80 PUSH1 0x40 MSTORE PUSH1 0x4 CALLDATASIZE LT PUSH2 0x165 JUMPI PUSH0 CALLDATALOAD PUSH1 0xE0 SHR DUP1 PUSH4 0xA8378E6B GT PUSH2 0xD0 JUMPI DUP1 PUSH4 0xC9F09D38 GT PUSH2 0x89 JUMPI DUP1 PUSH4 0xDA8E4A95 GT PUSH2 0x63 JUMPI DUP1 PUSH4 0xDA8E4A95 EQ PUSH2 0x48E JUMPI DUP1 PUSH4 0xEFAA55A0 EQ PUSH2 0x4B9 JUMPI DUP1 PUSH4 0xFCFAFEB6 EQ PUSH2 0x4D5 JUMPI DUP1 PUSH4 0xFE7D567D EQ PUSH2 0x4EB JUMPI PUSH2 0x165 JUMP JUMPDEST DUP1 PUSH4 0xC9F09D38 EQ PUSH2 0x437 JUMPI DUP1 PUSH4 0xCEA13516 EQ PUSH2 0x44D JUMPI DUP1 PUSH4 0xD65AB5F2 EQ PUSH2 0x478 JUMPI PUSH2 0x165 JUMP JUMPDEST DUP1 PUSH4 0xA8378E6B EQ PUSH2 0x339 JUMPI DUP1 PUSH4 0xAE65F4FF EQ PUSH2 0x375 JUMPI DUP1 PUSH4 0xBD097E21 EQ PUSH2 0x3B1 JUMPI DUP1 PUSH4 0xBF867F6B EQ PUSH2 0x3BB JUMPI DUP1 PUSH4 0xC19D93FB EQ PUSH2 0x3F7 JUMPI DUP1 PUSH4 0xC6FD5D4E EQ PUSH2 0x421 JUMPI PUSH2 0x165 JUMP JUMPDEST DUP1 PUSH4 0x6F9FB98A GT PUSH2 0x122 JUMPI DUP1 PUSH4 0x6F9FB98A EQ PUSH2 0x24D JUMPI DUP1 PUSH4 0x784F49CA EQ PUSH2 0x277 JUMPI DUP1 PUSH4 0x84054D3D EQ PUSH2 0x28D JUMPI DUP1 PUSH4 0x85C7D61D EQ PUSH2 0x297 JUMPI DUP1 PUSH4 0x872FD939 EQ PUSH2 0x2C1 JUMPI DUP1 PUSH4 0x91B3F40E EQ PUSH2 0x2FD JUMPI PUSH2 0x165 JUMP JUMPDEST DUP1 PUSH4 0x89AC36F EQ PUSH2 0x169 JUMPI DUP1 PUSH4 0x28657AA5 EQ PUSH2 0x191 JUMPI DUP1 PUSH4 0x302BCC57 EQ PUSH2 0x1BB JUMPI DUP1 PUSH4 0x3C37B640 EQ PUSH2 0x1E5 JUMPI DUP1 PUSH4 0x4BD76FC4 EQ PUSH2 0x20D JUMPI DUP1 PUSH4 0x53454485 EQ PUSH2 0x237 JUMPI JUMPDEST PUSH0 DUP1 REVERT JUMPDEST CALLVALUE DUP1 ISZERO PUSH2 0x174 JUMPI PUSH0 DUP1 REVERT JUMPDEST POP PUSH2 0x18F PUSH1 0x4 DUP1 CALLDATASIZE SUB DUP2 ADD SWAP1 PUSH2 0x18A SWAP2 SWAP1 PUSH2 0x3D79 JUMP JUMPDEST PUSH2 0x513 JUMP JUMPDEST STOP JUMPDEST CALLVALUE DUP1 ISZERO PUSH2 0x19C JUMPI PUSH0 DUP1 REVERT JUMPDEST POP PUSH2 0x1A5 PUSH2 0xC0C JUMP JUMPDEST PUSH1 0x40 MLOAD PUSH2 0x1B2 SWAP2 SWAP1 PUSH2 0x3DB3 JUMP JUMPDEST PUSH1 0x40 MLOAD DUP1 SWAP2 SUB SWAP1 RETURN JUMPDEST CALLVALUE DUP1 ISZERO PUSH2 0x1C6 JUMPI PUSH0 DUP1 REVERT JUMPDEST POP PUSH2 0x1CF PUSH2 0xC12 JUMP JUMPDEST PUSH1 0x40 MLOAD PUSH2 0x1DC SWAP2 SWAP1 PUSH2 0x3DB3 JUMP JUMPDEST PUSH1 0x40 MLOAD DUP1 SWAP2 SUB SWAP1 RETURN JUMPDEST CALLVALUE DUP1 ISZERO PUSH2 0x1F0 JUMPI PUSH0 DUP1 REVERT JUMPDEST POP PUSH2 0x20B PUSH1 0x4 DUP1 CALLDATASIZE SUB DUP2 ADD SWAP1 PUSH2 0x206 SWAP2 SWAP1 PUSH2 0x3DFF JUMP JUMPDEST PUSH2 0xC18 JUMP JUMPDEST STOP JUMPDEST CALLVALUE DUP1 ISZERO PUSH2 0x218 JUMPI PUSH0 DUP1 REVERT JUMPDEST POP PUSH2 0x221 PUSH2 0xD53 JUMP JUMPDEST PUSH1 0x40 MLOAD PUSH2 0x22E SWAP2 SWAP1 PUSH2 0x3E44 JUMP JUMPDEST PUSH1 0x40 MLOAD DUP1 SWAP2 SUB SWAP1 RETURN JUMPDEST CALLVALUE DUP1 ISZERO PUSH2 0x242 JUMPI PUSH0 DUP1 REVERT JUMPDEST POP PUSH2 0x24B PUSH2 0xD65 JUMP JUMPDEST STOP JUMPDEST CALLVALUE DUP1 ISZERO PUSH2 0x258 JUMPI PUSH0 DUP1 REVERT JUMPDEST POP PUSH2 0x261 PUSH2 0xEDF JUMP JUMPDEST PUSH1 0x40 MLOAD PUSH2 0x26E SWAP2 SWAP1 PUSH2 0x3DB3 JUMP JUMPDEST PUSH1 0x40 MLOAD DUP1 SWAP2 SUB SWAP1 RETURN JUMPDEST CALLVALUE DUP1 ISZERO PUSH2 0x282 JUMPI PUSH0 DUP1 REVERT JUMPDEST POP PUSH2 0x28B PUSH2 0xEE6 JUMP JUMPDEST STOP JUMPDEST PUSH2 0x295 PUSH2 0x108B JUMP JUMPDEST STOP JUMPDEST CALLVALUE DUP1 ISZERO PUSH2 0x2A2 JUMPI PUSH0 DUP1 REVERT JUMPDEST POP PUSH2 0x2AB PUSH2 0x1377 JUMP JUMPDEST PUSH1 0x40 MLOAD PUSH2 0x2B8 SWAP2 SWAP1 PUSH2 0x3DB3 JUMP JUMPDEST PUSH1 0x40 MLOAD DUP1 SWAP2 SUB SWAP1 RETURN JUMPDEST CALLVALUE DUP1 ISZERO PUSH2 0x2CC JUMPI PUSH0 DUP1 REVERT JUMPDEST POP PUSH2 0x2E7 PUSH1 0x4 DUP1 CALLDATASIZE SUB DUP2 ADD SWAP1 PUSH2 0x2E2 SWAP2 SWAP1 PUSH2 0x3EB7 JUMP JUMPDEST PUSH2 0x137D JUMP JUMPDEST PUSH1 0x40 MLOAD PUSH2 0x2F4 SWAP2 SWAP1 PUSH2 0x3DB3 JUMP JUMPDEST PUSH1 0x40 MLOAD DUP1 SWAP2 SUB SWAP1 RETURN JUMPDEST CALLVALUE DUP1 ISZERO PUSH2 0x308 JUMPI PUSH0 DUP1 REVERT JUMPDEST POP PUSH2 0x323 PUSH1 0x4 DUP1 CALLDATASIZE SUB DUP2 ADD SWAP1 PUSH2 0x31E SWAP2 SWAP1 PUSH2 0x3EB7 JUMP JUMPDEST PUSH2 0x1392 JUMP JUMPDEST PUSH1 0x40 MLOAD PUSH2 0x330 SWAP2 SWAP1 PUSH2 0x3E44 JUMP JUMPDEST PUSH1 0x40 MLOAD DUP1 SWAP2 SUB SWAP1 RETURN JUMPDEST CALLVALUE DUP1 ISZERO PUSH2 0x344 JUMPI PUSH0 DUP1 REVERT JUMPDEST POP PUSH2 0x35F PUSH1 0x4 DUP1 CALLDATASIZE SUB DUP2 ADD SWAP1 PUSH2 0x35A SWAP2 SWAP1 PUSH2 0x3EB7 JUMP JUMPDEST PUSH2 0x13AF JUMP JUMPDEST PUSH1 0x40 MLOAD PUSH2 0x36C SWAP2 SWAP1 PUSH2 0x3E44 JUMP JUMPDEST PUSH1 0x40 MLOAD DUP1 SWAP2 SUB SWAP1 RETURN JUMPDEST CALLVALUE DUP1 ISZERO PUSH2 0x380 JUMPI PUSH0 DUP1 REVERT JUMPDEST POP PUSH2 0x39B PUSH1 0x4 DUP1 CALLDATASIZE SUB DUP2 ADD SWAP1 PUSH2 0x396 SWAP2 SWAP1 PUSH2 0x3EB7 JUMP JUMPDEST PUSH2 0x13CC JUMP JUMPDEST PUSH1 0x40 MLOAD PUSH2 0x3A8 SWAP2 SWAP1 PUSH2 0x3EF1 JUMP JUMPDEST PUSH1 0x40 MLOAD DUP1 SWAP2 SUB SWAP1 RETURN JUMPDEST PUSH2 0x3B9 PUSH2 0x13E1 JUMP JUMPDEST STOP JUMPDEST CALLVALUE DUP1 ISZERO PUSH2 0x3C6 JUMPI PUSH0 DUP1 REVERT JUMPDEST POP PUSH2 0x3E1 PUSH1 0x4 DUP1 CALLDATASIZE SUB DUP2 ADD SWAP1 PUSH2 0x3DC SWAP2 SWAP1 PUSH2 0x3D79 JUMP JUMPDEST PUSH2 0x14CC JUMP JUMPDEST PUSH1 0x40 MLOAD PUSH2 0x3EE SWAP2 SWAP1 PUSH2 0x3EF1 JUMP JUMPDEST PUSH1 0x40 MLOAD DUP1 SWAP2 SUB SWAP1 RETURN JUMPDEST CALLVALUE DUP1 ISZERO PUSH2 0x402 JUMPI PUSH0 DUP1 REVERT JUMPDEST POP PUSH2 0x40B PUSH2 0x14E5 JUMP JUMPDEST PUSH1 0x40 MLOAD PUSH2 0x418 SWAP2 SWAP1 PUSH2 0x3F7D JUMP JUMPDEST PUSH1 0x40 MLOAD DUP1 SWAP2 SUB SWAP1 RETURN JUMPDEST CALLVALUE DUP1 ISZERO PUSH2 0x42C JUMPI PUSH0 DUP1 REVERT JUMPDEST POP PUSH2 0x435 PUSH2 0x14F5 JUMP JUMPDEST STOP JUMPDEST CALLVALUE DUP1 ISZERO PUSH2 0x442 JUMPI PUSH0 DUP1 REVERT JUMPDEST POP PUSH2 0x44B PUSH2 0x1703 JUMP JUMPDEST STOP JUMPDEST CALLVALUE DUP1 ISZERO PUSH2 0x458 JUMPI PUSH0 DUP1 REVERT JUMPDEST POP PUSH2 0x461 PUSH2 0x1979 JUMP JUMPDEST PUSH1 0x40 MLOAD PUSH2 0x46F SWAP3 SWAP2 SWAP1 PUSH2 0x41FF JUMP JUMPDEST PUSH1 0x40 MLOAD DUP1 SWAP2 SUB SWAP1 RETURN JUMPDEST CALLVALUE DUP1 ISZERO PUSH2 0x483 JUMPI PUSH0 DUP1 REVERT JUMPDEST POP PUSH2 0x48C PUSH2 0x1C0A JUMP JUMPDEST STOP JUMPDEST CALLVALUE DUP1 ISZERO PUSH2 0x499 JUMPI PUSH0 DUP1 REVERT JUMPDEST POP PUSH2 0x4A2 PUSH2 0x220C JUMP JUMPDEST PUSH1 0x40 MLOAD PUSH2 0x4B0 SWAP3 SWAP2 SWAP1 PUSH2 0x4306 JUMP JUMPDEST PUSH1 0x40 MLOAD DUP1 SWAP2 SUB SWAP1 RETURN JUMPDEST PUSH2 0x4D3 PUSH1 0x4 DUP1 CALLDATASIZE SUB DUP2 ADD SWAP1 PUSH2 0x4CE SWAP2 SWAP1 PUSH2 0x3D79 JUMP JUMPDEST PUSH2 0x23B8 JUMP JUMPDEST STOP JUMPDEST CALLVALUE DUP1 ISZERO PUSH2 0x4E0 JUMPI PUSH0 DUP1 REVERT JUMPDEST POP PUSH2 0x4E9 PUSH2 0x262B JUMP JUMPDEST STOP JUMPDEST CALLVALUE DUP1 ISZERO PUSH2 0x4F6 JUMPI PUSH0 DUP1 REVERT JUMPDEST POP PUSH2 0x511 PUSH1 0x4 DUP1 CALLDATASIZE SUB DUP2 ADD SWAP1 PUSH2 0x50C SWAP2 SWAP1 PUSH2 0x3D79 JUMP JUMPDEST PUSH2 0x2C5B JUMP JUMPDEST STOP JUMPDEST PUSH1 0x4 PUSH0 SWAP1 SLOAD SWAP1 PUSH2 0x100 EXP SWAP1 DIV PUSH20 0xFFFFFFFFFFFFFFFFFFFFFFFFFFFFFFFFFFFFFFFF AND PUSH20 0xFFFFFFFFFFFFFFFFFFFFFFFFFFFFFFFFFFFFFFFF AND CALLER PUSH20 0xFFFFFFFFFFFFFFFFFFFFFFFFFFFFFFFFFFFFFFFF AND EQ PUSH2 0x5A2 JUMPI PUSH1 0x40 MLOAD PUSH32 0x8C379A000000000000000000000000000000000000000000000000000000000 DUP2 MSTORE PUSH1 0x4 ADD PUSH2 0x599 SWAP1 PUSH2 0x43B4 JUMP JUMPDEST PUSH1 0x40 MLOAD DUP1 SWAP2 SUB SWAP1 REVERT JUMPDEST PUSH1 0x3 DUP1 PUSH1 0x5 DUP2 GT ISZERO PUSH2 0x5B7 JUMPI PUSH2 0x5B6 PUSH2 0x3F0A JUMP JUMPDEST JUMPDEST PUSH0 DUP1 SLOAD SWAP1 PUSH2 0x100 EXP SWAP1 DIV PUSH1 0xFF AND PUSH1 0x5 DUP2 GT ISZERO PUSH2 0x5D6 JUMPI PUSH2 0x5D5 PUSH2 0x3F0A JUMP JUMPDEST JUMPDEST EQ PUSH2 0x616 JUMPI PUSH1 0x40 MLOAD PUSH32 0x8C379A000000000000000000000000000000000000000000000000000000000 DUP2 MSTORE PUSH1 0x4 ADD PUSH2 0x60D SWAP1 PUSH2 0x441C JUMP JUMPDEST PUSH1 0x40 MLOAD DUP1 SWAP2 SUB SWAP1 REVERT JUMPDEST PUSH0 JUMPDEST PUSH1 0x1 DUP1 SLOAD SWAP1 POP DUP2 LT ISZERO PUSH2 0x6FC JUMPI PUSH1 0xF PUSH0 PUSH1 0x1 DUP4 DUP2 SLOAD DUP2 LT PUSH2 0x63C JUMPI PUSH2 0x63B PUSH2 0x443A JUMP JUMPDEST JUMPDEST SWAP1 PUSH0 MSTORE PUSH1 0x20 PUSH0 KECCAK256 SWAP1 PUSH1 0x4 MUL ADD PUSH0 ADD PUSH0 SWAP1 SLOAD SWAP1 PUSH2 0x100 EXP SWAP1 DIV PUSH20 0xFFFFFFFFFFFFFFFFFFFFFFFFFFFFFFFFFFFFFFFF AND PUSH20 0xFFFFFFFFFFFFFFFFFFFFFFFFFFFFFFFFFFFFFFFF AND PUSH20 0xFFFFFFFFFFFFFFFFFFFFFFFFFFFFFFFFFFFFFFFF AND DUP2 MSTORE PUSH1 0x20 ADD SWAP1 DUP2 MSTORE PUSH1 0x20 ADD PUSH0 KECCAK256 PUSH0 SWAP1 SLOAD SWAP1 PUSH2 0x100 EXP SWAP1 DIV PUSH1 0xFF AND PUSH2 0x6EF JUMPI PUSH1 0x40 MLOAD PUSH32 0x8C379A000000000000000000000000000000000000000000000000000000000 DUP2 MSTORE PUSH1 0x4 ADD PUSH2 0x6E6 SWAP1 PUSH2 0x44D7 JUMP JUMPDEST PUSH1 0x40 MLOAD DUP1 SWAP2 SUB SWAP1 REVERT JUMPDEST DUP1 DUP1 PUSH1 0x1 ADD SWAP2 POP POP PUSH2 0x618 JUMP JUMPDEST POP PUSH1 0x6 PUSH1 0xB SLOAD LT PUSH2 0x742 JUMPI PUSH1 0x40 MLOAD PUSH32 0x8C379A000000000000000000000000000000000000000000000000000000000 DUP2 MSTORE PUSH1 0x4 ADD PUSH2 0x739 SWAP1 PUSH2 0x453F JUMP JUMPDEST PUSH1 0x40 MLOAD DUP1 SWAP2 SUB SWAP1 REVERT JUMPDEST PUSH1 0x5 PUSH1 0xB SLOAD PUSH1 0x6 DUP2 LT PUSH2 0x758 JUMPI PUSH2 0x757 PUSH2 0x443A JUMP JUMPDEST JUMPDEST ADD SLOAD DUP3 PUSH1 0x40 MLOAD PUSH1 0x20 ADD PUSH2 0x76B SWAP2 SWAP1 PUSH2 0x457D JUMP JUMPDEST PUSH1 0x40 MLOAD PUSH1 0x20 DUP2 DUP4 SUB SUB DUP2 MSTORE SWAP1 PUSH1 0x40 MSTORE DUP1 MLOAD SWAP1 PUSH1 0x20 ADD KECCAK256 EQ PUSH2 0x7C1 JUMPI PUSH1 0x40 MLOAD PUSH32 0x8C379A000000000000000000000000000000000000000000000000000000000 DUP2 MSTORE PUSH1 0x4 ADD PUSH2 0x7B8 SWAP1 PUSH2 0x4607 JUMP JUMPDEST PUSH1 0x40 MLOAD DUP1 SWAP2 SUB SWAP1 REVERT JUMPDEST PUSH1 0xB PUSH0 DUP2 SLOAD DUP1 SWAP3 SWAP2 SWAP1 PUSH2 0x7D3 SWAP1 PUSH2 0x4652 JUMP JUMPDEST SWAP2 SWAP1 POP SSTORE POP PUSH0 JUMPDEST PUSH1 0x1 DUP1 SLOAD SWAP1 POP DUP2 LT ISZERO PUSH2 0xABD JUMPI PUSH0 PUSH1 0x1 DUP3 DUP2 SLOAD DUP2 LT PUSH2 0x7FC JUMPI PUSH2 0x7FB PUSH2 0x443A JUMP JUMPDEST JUMPDEST SWAP1 PUSH0 MSTORE PUSH1 0x20 PUSH0 KECCAK256 SWAP1 PUSH1 0x4 MUL ADD SWAP1 POP PUSH1 0xE PUSH0 DUP3 PUSH0 ADD PUSH0 SWAP1 SLOAD SWAP1 PUSH2 0x100 EXP SWAP1 DIV PUSH20 0xFFFFFFFFFFFFFFFFFFFFFFFFFFFFFFFFFFFFFFFF AND PUSH20 0xFFFFFFFFFFFFFFFFFFFFFFFFFFFFFFFFFFFFFFFF AND PUSH20 0xFFFFFFFFFFFFFFFFFFFFFFFFFFFFFFFFFFFFFFFF AND DUP2 MSTORE PUSH1 0x20 ADD SWAP1 DUP2 MSTORE PUSH1 0x20 ADD PUSH0 KECCAK256 PUSH0 SWAP1 SLOAD SWAP1 PUSH2 0x100 EXP SWAP1 DIV PUSH1 0xFF AND DUP1 ISZERO PUSH2 0x88F JUMPI POP DUP1 PUSH1 0x3 ADD PUSH0 SWAP1 SLOAD SWAP1 PUSH2 0x100 EXP SWAP1 DIV PUSH1 0xFF AND JUMPDEST DUP1 ISZERO PUSH2 0x8AA JUMPI POP DUP1 PUSH1 0x3 ADD PUSH1 0x1 SWAP1 SLOAD SWAP1 PUSH2 0x100 EXP SWAP1 DIV PUSH1 0xFF AND ISZERO JUMPDEST ISZERO PUSH2 0xAAF JUMPI PUSH0 PUSH2 0x92D DUP3 PUSH1 0x2 ADD DUP1 SLOAD DUP1 PUSH1 0x20 MUL PUSH1 0x20 ADD PUSH1 0x40 MLOAD SWAP1 DUP2 ADD PUSH1 0x40 MSTORE DUP1 SWAP3 SWAP2 SWAP1 DUP2 DUP2 MSTORE PUSH1 0x20 ADD DUP3 DUP1 SLOAD DUP1 ISZERO PUSH2 0x923 JUMPI PUSH1 0x20 MUL DUP3 ADD SWAP2 SWAP1 PUSH0 MSTORE PUSH1 0x20 PUSH0 KECCAK256 SWAP1 PUSH0 SWAP1 JUMPDEST DUP3 DUP3 SWAP1 SLOAD SWAP1 PUSH2 0x100 EXP SWAP1 DIV PUSH1 0xFF AND PUSH1 0xFF AND DUP2 MSTORE PUSH1 0x20 ADD SWAP1 PUSH1 0x1 ADD SWAP1 PUSH1 0x20 DUP3 PUSH0 ADD DIV SWAP3 DUP4 ADD SWAP3 PUSH1 0x1 SUB DUP3 MUL SWAP2 POP DUP1 DUP5 GT PUSH2 0x8ED JUMPI SWAP1 POP JUMPDEST POP POP POP POP POP PUSH2 0x2F91 JUMP JUMPDEST SWAP1 POP PUSH0 PUSH20 0x0 PUSH4 0x10F8B35C DUP4 DUP9 PUSH1 0x40 MLOAD DUP4 PUSH4 0xFFFFFFFF AND PUSH1 0xE0 SHL DUP2 MSTORE PUSH1 0x4 ADD PUSH2 0x969 SWAP3 SWAP2 SWAP1 PUSH2 0x46A8 JUMP JUMPDEST PUSH1 0x20 PUSH1 0x40 MLOAD DUP1 DUP4 SUB DUP2 DUP7 GAS DELEGATECALL ISZERO DUP1 ISZERO PUSH2 0x984 JUMPI RETURNDATASIZE PUSH0 DUP1 RETURNDATACOPY RETURNDATASIZE PUSH0 REVERT JUMPDEST POP POP POP POP PUSH1 0x40 MLOAD RETURNDATASIZE PUSH1 0x1F NOT PUSH1 0x1F DUP3 ADD AND DUP3 ADD DUP1 PUSH1 0x40 MSTORE POP DUP2 ADD SWAP1 PUSH2 0x9A8 SWAP2 SWAP1 PUSH2 0x46F9 JUMP JUMPDEST SWAP1 POP DUP3 PUSH1 0x2 ADD DUP2 SWAP1 DUP1 PUSH1 0x1 DUP2 SLOAD ADD DUP1 DUP3 SSTORE DUP1 SWAP2 POP POP PUSH1 0x1 SWAP1 SUB SWAP1 PUSH0 MSTORE PUSH1 0x20 PUSH0 KECCAK256 SWAP1 PUSH1 0x20 SWAP2 DUP3 DUP3 DIV ADD SWAP2 SWAP1 MOD SWAP1 SWAP2 SWAP1 SWAP2 SWAP1 SWAP2 PUSH2 0x100 EXP DUP2 SLOAD DUP2 PUSH1 0xFF MUL NOT AND SWAP1 DUP4 PUSH1 0xFF AND MUL OR SWAP1 SSTORE POP PUSH1 0x15 PUSH20 0x0 PUSH4 0x345E3D68 DUP6 PUSH1 0x2 ADD PUSH1 0x40 MLOAD DUP3 PUSH4 0xFFFFFFFF AND PUSH1 0xE0 SHL DUP2 MSTORE PUSH1 0x4 ADD PUSH2 0xA2B SWAP2 SWAP1 PUSH2 0x544E JUMP JUMPDEST PUSH1 0x20 PUSH1 0x40 MLOAD DUP1 DUP4 SUB DUP2 DUP7 GAS DELEGATECALL ISZERO DUP1 ISZERO PUSH2 0xA46 JUMPI RETURNDATASIZE PUSH0 DUP1 RETURNDATACOPY RETURNDATASIZE PUSH0 REVERT JUMPDEST POP POP POP POP PUSH1 0x40 MLOAD RETURNDATASIZE PUSH1 0x1F NOT PUSH1 0x1F DUP3 ADD AND DUP3 ADD DUP1 PUSH1 0x40 MSTORE POP DUP2 ADD SWAP1 PUSH2 0xA6A SWAP2 SWAP1 PUSH2 0x46F9 JUMP JUMPDEST PUSH1 0xFF AND GT ISZERO PUSH2 0xAAC JUMPI PUSH1 0x1 DUP4 PUSH1 0x3 ADD PUSH1 0x1 PUSH2 0x100 EXP DUP2 SLOAD DUP2 PUSH1 0xFF MUL NOT AND SWAP1 DUP4 ISZERO ISZERO MUL OR SWAP1 SSTORE POP PUSH0 DUP4 PUSH1 0x3 ADD PUSH0 PUSH2 0x100 EXP DUP2 SLOAD DUP2 PUSH1 0xFF MUL NOT AND SWAP1 DUP4 ISZERO ISZERO MUL OR SWAP1 SSTORE POP JUMPDEST POP POP JUMPDEST POP DUP1 DUP1 PUSH1 0x1 ADD SWAP2 POP POP PUSH2 0x7DA JUMP JUMPDEST POP PUSH0 JUMPDEST PUSH1 0x1 DUP1 SLOAD SWAP1 POP DUP2 LT ISZERO PUSH2 0xB6F JUMPI PUSH0 PUSH1 0xF PUSH0 PUSH1 0x1 DUP5 DUP2 SLOAD DUP2 LT PUSH2 0xAE5 JUMPI PUSH2 0xAE4 PUSH2 0x443A JUMP JUMPDEST JUMPDEST SWAP1 PUSH0 MSTORE PUSH1 0x20 PUSH0 KECCAK256 SWAP1 PUSH1 0x4 MUL ADD PUSH0 ADD PUSH0 SWAP1 SLOAD SWAP1 PUSH2 0x100 EXP SWAP1 DIV PUSH20 0xFFFFFFFFFFFFFFFFFFFFFFFFFFFFFFFFFFFFFFFF AND PUSH20 0xFFFFFFFFFFFFFFFFFFFFFFFFFFFFFFFFFFFFFFFF AND PUSH20 0xFFFFFFFFFFFFFFFFFFFFFFFFFFFFFFFFFFFFFFFF AND DUP2 MSTORE PUSH1 0x20 ADD SWAP1 DUP2 MSTORE PUSH1 0x20 ADD PUSH0 KECCAK256 PUSH0 PUSH2 0x100 EXP DUP2 SLOAD DUP2 PUSH1 0xFF MUL NOT AND SWAP1 DUP4 ISZERO ISZERO MUL OR SWAP1 SSTORE POP DUP1 DUP1 PUSH1 0x1 ADD SWAP2 POP POP PUSH2 0xAC0 JUMP JUMPDEST POP PUSH0 PUSH1 0x1 SWAP1 POP PUSH0 JUMPDEST PUSH1 0x1 DUP1 SLOAD SWAP1 POP DUP2 LT ISZERO PUSH2 0xBCE JUMPI PUSH1 0x1 DUP2 DUP2 SLOAD DUP2 LT PUSH2 0xB98 JUMPI PUSH2 0xB97 PUSH2 0x443A JUMP JUMPDEST JUMPDEST SWAP1 PUSH0 MSTORE PUSH1 0x20 PUSH0 KECCAK256 SWAP1 PUSH1 0x4 MUL ADD PUSH1 0x3 ADD PUSH0 SWAP1 SLOAD SWAP1 PUSH2 0x100 EXP SWAP1 DIV PUSH1 0xFF AND ISZERO PUSH2 0xBC1 JUMPI PUSH0 SWAP2 POP PUSH2 0xBCE JUMP JUMPDEST DUP1 DUP1 PUSH1 0x1 ADD SWAP2 POP POP PUSH2 0xB77 JUMP JUMPDEST POP DUP1 ISZERO PUSH2 0xC07 JUMPI PUSH1 0x5 PUSH0 DUP1 PUSH2 0x100 EXP DUP2 SLOAD DUP2 PUSH1 0xFF MUL NOT AND SWAP1 DUP4 PUSH1 0x5 DUP2 GT ISZERO PUSH2 0xBF9 JUMPI PUSH2 0xBF8 PUSH2 0x3F0A JUMP JUMPDEST JUMPDEST MUL OR SWAP1 SSTORE POP PUSH2 0xC06 PUSH2 0x2FEF JUMP JUMPDEST JUMPDEST POP POP POP JUMP JUMPDEST PUSH1 0x11 SLOAD DUP2 JUMP JUMPDEST PUSH1 0x2 SLOAD DUP2 JUMP JUMPDEST PUSH1 0x1 DUP1 PUSH1 0x5 DUP2 GT ISZERO PUSH2 0xC2D JUMPI PUSH2 0xC2C PUSH2 0x3F0A JUMP JUMPDEST JUMPDEST PUSH0 DUP1 SLOAD SWAP1 PUSH2 0x100 EXP SWAP1 DIV PUSH1 0xFF AND PUSH1 0x5 DUP2 GT ISZERO PUSH2 0xC4C JUMPI PUSH2 0xC4B PUSH2 0x3F0A JUMP JUMPDEST JUMPDEST EQ PUSH2 0xC8C JUMPI PUSH1 0x40 MLOAD PUSH32 0x8C379A000000000000000000000000000000000000000000000000000000000 DUP2 MSTORE PUSH1 0x4 ADD PUSH2 0xC83 SWAP1 PUSH2 0x441C JUMP JUMPDEST PUSH1 0x40 MLOAD DUP1 SWAP2 SUB SWAP1 REVERT JUMPDEST PUSH0 DUP1 SHL PUSH1 0xC PUSH0 CALLER PUSH20 0xFFFFFFFFFFFFFFFFFFFFFFFFFFFFFFFFFFFFFFFF AND PUSH20 0xFFFFFFFFFFFFFFFFFFFFFFFFFFFFFFFFFFFFFFFF AND DUP2 MSTORE PUSH1 0x20 ADD SWAP1 DUP2 MSTORE PUSH1 0x20 ADD PUSH0 KECCAK256 SLOAD EQ PUSH2 0xD0D JUMPI PUSH1 0x40 MLOAD PUSH32 0x8C379A000000000000000000000000000000000000000000000000000000000 DUP2 MSTORE PUSH1 0x4 ADD PUSH2 0xD04 SWAP1 PUSH2 0x54B8 JUMP JUMPDEST PUSH1 0x40 MLOAD DUP1 SWAP2 SUB SWAP1 REVERT JUMPDEST DUP2 PUSH1 0xC PUSH0 CALLER PUSH20 0xFFFFFFFFFFFFFFFFFFFFFFFFFFFFFFFFFFFFFFFF AND PUSH20 0xFFFFFFFFFFFFFFFFFFFFFFFFFFFFFFFFFFFFFFFF AND DUP2 MSTORE PUSH1 0x20 ADD SWAP1 DUP2 MSTORE PUSH1 0x20 ADD PUSH0 KECCAK256 DUP2 SWAP1 SSTORE POP POP POP JUMP JUMPDEST PUSH1 0x10 PUSH0 SWAP1 SLOAD SWAP1 PUSH2 0x100 EXP SWAP1 DIV PUSH1 0xFF AND DUP2 JUMP JUMPDEST PUSH1 0x4 PUSH0 SWAP1 SLOAD SWAP1 PUSH2 0x100 EXP SWAP1 DIV PUSH20 0xFFFFFFFFFFFFFFFFFFFFFFFFFFFFFFFFFFFFFFFF AND PUSH20 0xFFFFFFFFFFFFFFFFFFFFFFFFFFFFFFFFFFFFFFFF AND CALLER PUSH20 0xFFFFFFFFFFFFFFFFFFFFFFFFFFFFFFFFFFFFFFFF AND EQ PUSH2 0xDF4 JUMPI PUSH1 0x40 MLOAD PUSH32 0x8C379A000000000000000000000000000000000000000000000000000000000 DUP2 MSTORE PUSH1 0x4 ADD PUSH2 0xDEB SWAP1 PUSH2 0x43B4 JUMP JUMPDEST PUSH1 0x40 MLOAD DUP1 SWAP2 SUB SWAP1 REVERT JUMPDEST PUSH0 DUP1 PUSH1 0x5 DUP2 GT ISZERO PUSH2 0xE08 JUMPI PUSH2 0xE07 PUSH2 0x3F0A JUMP JUMPDEST JUMPDEST PUSH0 DUP1 SLOAD SWAP1 PUSH2 0x100 EXP SWAP1 DIV PUSH1 0xFF AND PUSH1 0x5 DUP2 GT ISZERO PUSH2 0xE27 JUMPI PUSH2 0xE26 PUSH2 0x3F0A JUMP JUMPDEST JUMPDEST EQ PUSH2 0xE67 JUMPI PUSH1 0x40 MLOAD PUSH32 0x8C379A000000000000000000000000000000000000000000000000000000000 DUP2 MSTORE PUSH1 0x4 ADD PUSH2 0xE5E SWAP1 PUSH2 0x441C JUMP JUMPDEST PUSH1 0x40 MLOAD DUP1 SWAP2 SUB SWAP1 REVERT JUMPDEST PUSH0 PUSH1 0x2 SLOAD GT PUSH2 0xEAB JUMPI PUSH1 0x40 MLOAD PUSH32 0x8C379A000000000000000000000000000000000000000000000000000000000 DUP2 MSTORE PUSH1 0x4 ADD PUSH2 0xEA2 SWAP1 PUSH2 0x5520 JUMP JUMPDEST PUSH1 0x40 MLOAD DUP1 SWAP2 SUB SWAP1 REVERT JUMPDEST PUSH1 0x1 PUSH0 DUP1 PUSH2 0x100 EXP DUP2 SLOAD DUP2 PUSH1 0xFF MUL NOT AND SWAP1 DUP4 PUSH1 0x5 DUP2 GT ISZERO PUSH2 0xECF JUMPI PUSH2 0xECE PUSH2 0x3F0A JUMP JUMPDEST JUMPDEST MUL OR SWAP1 SSTORE POP PUSH2 0xEDC PUSH2 0x32FE JUMP JUMPDEST POP JUMP JUMPDEST PUSH0 SELFBALANCE SWAP1 POP SWAP1 JUMP JUMPDEST PUSH0 DUP1 JUMPDEST PUSH1 0x1 DUP1 SLOAD SWAP1 POP DUP2 LT ISZERO PUSH2 0xF80 JUMPI CALLER PUSH20 0xFFFFFFFFFFFFFFFFFFFFFFFFFFFFFFFFFFFFFFFF AND PUSH1 0x1 DUP3 DUP2 SLOAD DUP2 LT PUSH2 0xF21 JUMPI PUSH2 0xF20 PUSH2 0x443A JUMP JUMPDEST JUMPDEST SWAP1 PUSH0 MSTORE PUSH1 0x20 PUSH0 KECCAK256 SWAP1 PUSH1 0x4 MUL ADD PUSH0 ADD PUSH0 SWAP1 SLOAD SWAP1 PUSH2 0x100 EXP SWAP1 DIV PUSH20 0xFFFFFFFFFFFFFFFFFFFFFFFFFFFFFFFFFFFFFFFF AND PUSH20 0xFFFFFFFFFFFFFFFFFFFFFFFFFFFFFFFFFFFFFFFF AND SUB PUSH2 0xF73 JUMPI PUSH1 0x1 SWAP2 POP PUSH2 0xF80 JUMP JUMPDEST DUP1 DUP1 PUSH1 0x1 ADD SWAP2 POP POP PUSH2 0xEE9 JUMP JUMPDEST POP DUP1 PUSH2 0xFC1 JUMPI PUSH1 0x40 MLOAD PUSH32 0x8C379A000000000000000000000000000000000000000000000000000000000 DUP2 MSTORE PUSH1 0x4 ADD PUSH2 0xFB8 SWAP1 PUSH2 0x55AE JUMP JUMPDEST PUSH1 0x40 MLOAD DUP1 SWAP2 SUB SWAP1 REVERT JUMPDEST PUSH1 0x3 DUP1 PUSH1 0x5 DUP2 GT ISZERO PUSH2 0xFD6 JUMPI PUSH2 0xFD5 PUSH2 0x3F0A JUMP JUMPDEST JUMPDEST PUSH0 DUP1 SLOAD SWAP1 PUSH2 0x100 EXP SWAP1 DIV PUSH1 0xFF AND PUSH1 0x5 DUP2 GT ISZERO PUSH2 0xFF5 JUMPI PUSH2 0xFF4 PUSH2 0x3F0A JUMP JUMPDEST JUMPDEST EQ PUSH2 0x1035 JUMPI PUSH1 0x40 MLOAD PUSH32 0x8C379A000000000000000000000000000000000000000000000000000000000 DUP2 MSTORE PUSH1 0x4 ADD PUSH2 0x102C SWAP1 PUSH2 0x441C JUMP JUMPDEST PUSH1 0x40 MLOAD DUP1 SWAP2 SUB SWAP1 REVERT JUMPDEST PUSH2 0x103E CALLER PUSH2 0x330E JUMP JUMPDEST PUSH2 0x107D JUMPI PUSH1 0x40 MLOAD PUSH32 0x8C379A000000000000000000000000000000000000000000000000000000000 DUP2 MSTORE PUSH1 0x4 ADD PUSH2 0x1074 SWAP1 PUSH2 0x563C JUMP JUMPDEST PUSH1 0x40 MLOAD DUP1 SWAP2 SUB SWAP1 REVERT JUMPDEST PUSH2 0x1087 PUSH1 0x1 PUSH2 0x341E JUMP JUMPDEST POP POP JUMP JUMPDEST PUSH1 0x5 DUP1 PUSH1 0x5 DUP2 GT ISZERO PUSH2 0x10A0 JUMPI PUSH2 0x109F PUSH2 0x3F0A JUMP JUMPDEST JUMPDEST PUSH0 DUP1 SLOAD SWAP1 PUSH2 0x100 EXP SWAP1 DIV PUSH1 0xFF AND PUSH1 0x5 DUP2 GT ISZERO PUSH2 0x10BF JUMPI PUSH2 0x10BE PUSH2 0x3F0A JUMP JUMPDEST JUMPDEST EQ PUSH2 0x10FF JUMPI PUSH1 0x40 MLOAD PUSH32 0x8C379A000000000000000000000000000000000000000000000000000000000 DUP2 MSTORE PUSH1 0x4 ADD PUSH2 0x10F6 SWAP1 PUSH2 0x441C JUMP JUMPDEST PUSH1 0x40 MLOAD DUP1 SWAP2 SUB SWAP1 REVERT JUMPDEST PUSH0 PUSH20 0x0 PUSH4 0x345E3D68 PUSH1 0x3 PUSH1 0x40 MLOAD DUP3 PUSH4 0xFFFFFFFF AND PUSH1 0xE0 SHL DUP2 MSTORE PUSH1 0x4 ADD PUSH2 0x1138 SWAP2 SWAP1 PUSH2 0x544E JUMP JUMPDEST PUSH1 0x20 PUSH1 0x40 MLOAD DUP1 DUP4 SUB DUP2 DUP7 GAS DELEGATECALL ISZERO DUP1 ISZERO PUSH2 0x1153 JUMPI RETURNDATASIZE PUSH0 DUP1 RETURNDATACOPY RETURNDATASIZE PUSH0 REVERT JUMPDEST POP POP POP POP PUSH1 0x40 MLOAD RETURNDATASIZE PUSH1 0x1F NOT PUSH1 0x1F DUP3 ADD AND DUP3 ADD DUP1 PUSH1 0x40 MSTORE POP DUP2 ADD SWAP1 PUSH2 0x1177 SWAP2 SWAP1 PUSH2 0x46F9 JUMP JUMPDEST SWAP1 POP PUSH0 JUMPDEST PUSH1 0x1 DUP1 SLOAD SWAP1 POP DUP2 LT ISZERO PUSH2 0x1372 JUMPI PUSH0 PUSH1 0x1 DUP3 DUP2 SLOAD DUP2 LT PUSH2 0x119D JUMPI PUSH2 0x119C PUSH2 0x443A JUMP JUMPDEST JUMPDEST SWAP1 PUSH0 MSTORE PUSH1 0x20 PUSH0 KECCAK256 SWAP1 PUSH1 0x4 MUL ADD SWAP1 POP PUSH0 PUSH20 0x0 PUSH4 0x345E3D68 DUP4 PUSH1 0x2 ADD PUSH1 0x40 MLOAD DUP3 PUSH4 0xFFFFFFFF AND PUSH1 0xE0 SHL DUP2 MSTORE PUSH1 0x4 ADD PUSH2 0x11E6 SWAP2 SWAP1 PUSH2 0x544E JUMP JUMPDEST PUSH1 0x20 PUSH1 0x40 MLOAD DUP1 DUP4 SUB DUP2 DUP7 GAS DELEGATECALL ISZERO DUP1 ISZERO PUSH2 0x1201 JUMPI RETURNDATASIZE PUSH0 DUP1 RETURNDATACOPY RETURNDATASIZE PUSH0 REVERT JUMPDEST POP POP POP POP PUSH1 0x40 MLOAD RETURNDATASIZE PUSH1 0x1F NOT PUSH1 0x1F DUP3 ADD AND DUP3 ADD DUP1 PUSH1 0x40 MSTORE POP DUP2 ADD SWAP1 PUSH2 0x1225 SWAP2 SWAP1 PUSH2 0x46F9 JUMP JUMPDEST SWAP1 POP DUP2 PUSH1 0x3 ADD PUSH1 0x1 SWAP1 SLOAD SWAP1 PUSH2 0x100 EXP SWAP1 DIV PUSH1 0xFF AND DUP1 PUSH2 0x1259 JUMPI POP PUSH1 0x15 DUP5 PUSH1 0xFF AND GT ISZERO DUP1 ISZERO PUSH2 0x1258 JUMPI POP DUP1 PUSH1 0xFF AND DUP5 PUSH1 0xFF AND GT JUMPDEST JUMPDEST ISZERO PUSH2 0x1265 JUMPI POP POP PUSH2 0x1365 JUMP JUMPDEST DUP1 PUSH1 0xFF AND DUP5 PUSH1 0xFF AND SUB PUSH2 0x12E6 JUMPI PUSH0 DUP3 PUSH1 0x1 ADD SLOAD SWAP1 POP DUP3 PUSH0 ADD PUSH0 SWAP1 SLOAD SWAP1 PUSH2 0x100 EXP SWAP1 DIV PUSH20 0xFFFFFFFFFFFFFFFFFFFFFFFFFFFFFFFFFFFFFFFF AND PUSH20 0xFFFFFFFFFFFFFFFFFFFFFFFFFFFFFFFFFFFFFFFF AND PUSH2 0x8FC DUP3 SWAP1 DUP2 ISZERO MUL SWAP1 PUSH1 0x40 MLOAD PUSH0 PUSH1 0x40 MLOAD DUP1 DUP4 SUB DUP2 DUP6 DUP9 DUP9 CALL SWAP4 POP POP POP POP ISZERO DUP1 ISZERO PUSH2 0x12DF JUMPI RETURNDATASIZE PUSH0 DUP1 RETURNDATACOPY RETURNDATASIZE PUSH0 REVERT JUMPDEST POP POP PUSH2 0x1362 JUMP JUMPDEST PUSH0 PUSH1 0x2 DUP4 PUSH1 0x1 ADD SLOAD PUSH2 0x12F8 SWAP2 SWAP1 PUSH2 0x565A JUMP JUMPDEST SWAP1 POP DUP3 PUSH0 ADD PUSH0 SWAP1 SLOAD SWAP1 PUSH2 0x100 EXP SWAP1 DIV PUSH20 0xFFFFFFFFFFFFFFFFFFFFFFFFFFFFFFFFFFFFFFFF AND PUSH20 0xFFFFFFFFFFFFFFFFFFFFFFFFFFFFFFFFFFFFFFFF AND PUSH2 0x8FC DUP3 SWAP1 DUP2 ISZERO MUL SWAP1 PUSH1 0x40 MLOAD PUSH0 PUSH1 0x40 MLOAD DUP1 DUP4 SUB DUP2 DUP6 DUP9 DUP9 CALL SWAP4 POP POP POP POP ISZERO DUP1 ISZERO PUSH2 0x135F JUMPI RETURNDATASIZE PUSH0 DUP1 RETURNDATACOPY RETURNDATASIZE PUSH0 REVERT JUMPDEST POP POP JUMPDEST POP POP JUMPDEST DUP1 DUP1 PUSH1 0x1 ADD SWAP2 POP POP PUSH2 0x117B JUMP JUMPDEST POP POP POP JUMP JUMPDEST PUSH1 0x12 SLOAD DUP2 JUMP JUMPDEST PUSH1 0xD PUSH1 0x20 MSTORE DUP1 PUSH0 MSTORE PUSH1 0x40 PUSH0 KECCAK256 PUSH0 SWAP2 POP SWAP1 POP SLOAD DUP2 JUMP JUMPDEST PUSH1 0xE PUSH1 0x20 MSTORE DUP1 PUSH0 MSTORE PUSH1 0x40 PUSH0 KECCAK256 PUSH0 SWAP2 POP SLOAD SWAP1 PUSH2 0x100 EXP SWAP1 DIV PUSH1 0xFF AND DUP2 JUMP JUMPDEST PUSH1 0xF PUSH1 0x20 MSTORE DUP1 PUSH0 MSTORE PUSH1 0x40 PUSH0 KECCAK256 PUSH0 SWAP2 POP SLOAD SWAP1 PUSH2 0x100 EXP SWAP1 DIV PUSH1 0xFF AND DUP2 JUMP JUMPDEST PUSH1 0xC PUSH1 0x20 MSTORE DUP1 PUSH0 MSTORE PUSH1 0x40 PUSH0 KECCAK256 PUSH0 SWAP2 POP SWAP1 POP SLOAD DUP2 JUMP JUMPDEST PUSH1 0x4 PUSH0 SWAP1 SLOAD SWAP1 PUSH2 0x100 EXP SWAP1 DIV PUSH20 0xFFFFFFFFFFFFFFFFFFFFFFFFFFFFFFFFFFFFFFFF AND PUSH20 0xFFFFFFFFFFFFFFFFFFFFFFFFFFFFFFFFFFFFFFFF AND CALLER PUSH20 0xFFFFFFFFFFFFFFFFFFFFFFFFFFFFFFFFFFFFFFFF AND EQ PUSH2 0x1470 JUMPI PUSH1 0x40 MLOAD PUSH32 0x8C379A000000000000000000000000000000000000000000000000000000000 DUP2 MSTORE PUSH1 0x4 ADD PUSH2 0x1467 SWAP1 PUSH2 0x43B4 JUMP JUMPDEST PUSH1 0x40 MLOAD DUP1 SWAP2 SUB SWAP1 REVERT JUMPDEST PUSH0 CALLVALUE GT PUSH2 0x14B2 JUMPI PUSH1 0x40 MLOAD PUSH32 0x8C379A000000000000000000000000000000000000000000000000000000000 DUP2 MSTORE PUSH1 0x4 ADD PUSH2 0x14A9 SWAP1 PUSH2 0x570B JUMP JUMPDEST PUSH1 0x40 MLOAD DUP1 SWAP2 SUB SWAP1 REVERT JUMPDEST CALLVALUE PUSH1 0x11 PUSH0 DUP3 DUP3 SLOAD PUSH2 0x14C3 SWAP2 SWAP1 PUSH2 0x5729 JUMP JUMPDEST SWAP3 POP POP DUP2 SWAP1 SSTORE POP JUMP JUMPDEST PUSH1 0x5 DUP2 PUSH1 0x6 DUP2 LT PUSH2 0x14DB JUMPI PUSH0 DUP1 REVERT JUMPDEST ADD PUSH0 SWAP2 POP SWAP1 POP SLOAD DUP2 JUMP JUMPDEST PUSH0 DUP1 SLOAD SWAP1 PUSH2 0x100 EXP SWAP1 DIV PUSH1 0xFF AND DUP2 JUMP JUMPDEST PUSH1 0x4 PUSH0 SWAP1 SLOAD SWAP1 PUSH2 0x100 EXP SWAP1 DIV PUSH20 0xFFFFFFFFFFFFFFFFFFFFFFFFFFFFFFFFFFFFFFFF AND PUSH20 0xFFFFFFFFFFFFFFFFFFFFFFFFFFFFFFFFFFFFFFFF AND CALLER PUSH20 0xFFFFFFFFFFFFFFFFFFFFFFFFFFFFFFFFFFFFFFFF AND EQ PUSH2 0x1584 JUMPI PUSH1 0x40 MLOAD PUSH32 0x8C379A000000000000000000000000000000000000000000000000000000000 DUP2 MSTORE PUSH1 0x4 ADD PUSH2 0x157B SWAP1 PUSH2 0x43B4 JUMP JUMPDEST PUSH1 0x40 MLOAD DUP1 SWAP2 SUB SWAP1 REVERT JUMPDEST PUSH1 0x1 DUP1 PUSH1 0x5 DUP2 GT ISZERO PUSH2 0x1599 JUMPI PUSH2 0x1598 PUSH2 0x3F0A JUMP JUMPDEST JUMPDEST PUSH0 DUP1 SLOAD SWAP1 PUSH2 0x100 EXP SWAP1 DIV PUSH1 0xFF AND PUSH1 0x5 DUP2 GT ISZERO PUSH2 0x15B8 JUMPI PUSH2 0x15B7 PUSH2 0x3F0A JUMP JUMPDEST JUMPDEST EQ PUSH2 0x15F8 JUMPI PUSH1 0x40 MLOAD PUSH32 0x8C379A000000000000000000000000000000000000000000000000000000000 DUP2 MSTORE PUSH1 0x4 ADD PUSH2 0x15EF SWAP1 PUSH2 0x441C JUMP JUMPDEST PUSH1 0x40 MLOAD DUP1 SWAP2 SUB SWAP1 REVERT JUMPDEST PUSH0 JUMPDEST PUSH1 0x1 DUP1 SLOAD SWAP1 POP DUP2 LT ISZERO PUSH2 0x16D6 JUMPI PUSH0 DUP1 SHL PUSH1 0xC PUSH0 PUSH1 0x1 DUP5 DUP2 SLOAD DUP2 LT PUSH2 0x1621 JUMPI PUSH2 0x1620 PUSH2 0x443A JUMP JUMPDEST JUMPDEST SWAP1 PUSH0 MSTORE PUSH1 0x20 PUSH0 KECCAK256 SWAP1 PUSH1 0x4 MUL ADD PUSH0 ADD PUSH0 SWAP1 SLOAD SWAP1 PUSH2 0x100 EXP SWAP1 DIV PUSH20 0xFFFFFFFFFFFFFFFFFFFFFFFFFFFFFFFFFFFFFFFF AND PUSH20 0xFFFFFFFFFFFFFFFFFFFFFFFFFFFFFFFFFFFFFFFF AND PUSH20 0xFFFFFFFFFFFFFFFFFFFFFFFFFFFFFFFFFFFFFFFF AND DUP2 MSTORE PUSH1 0x20 ADD SWAP1 DUP2 MSTORE PUSH1 0x20 ADD PUSH0 KECCAK256 SLOAD SUB PUSH2 0x16C9 JUMPI PUSH1 0x40 MLOAD PUSH32 0x8C379A000000000000000000000000000000000000000000000000000000000 DUP2 MSTORE PUSH1 0x4 ADD PUSH2 0x16C0 SWAP1 PUSH2 0x57A6 JUMP JUMPDEST PUSH1 0x40 MLOAD DUP1 SWAP2 SUB SWAP1 REVERT JUMPDEST DUP1 DUP1 PUSH1 0x1 ADD SWAP2 POP POP PUSH2 0x15FA JUMP JUMPDEST POP PUSH1 0x2 PUSH0 DUP1 PUSH2 0x100 EXP DUP2 SLOAD DUP2 PUSH1 0xFF MUL NOT AND SWAP1 DUP4 PUSH1 0x5 DUP2 GT ISZERO PUSH2 0x16FB JUMPI PUSH2 0x16FA PUSH2 0x3F0A JUMP JUMPDEST JUMPDEST MUL OR SWAP1 SSTORE POP POP JUMP JUMPDEST PUSH0 DUP1 JUMPDEST PUSH1 0x1 DUP1 SLOAD SWAP1 POP DUP2 LT ISZERO PUSH2 0x179D JUMPI CALLER PUSH20 0xFFFFFFFFFFFFFFFFFFFFFFFFFFFFFFFFFFFFFFFF AND PUSH1 0x1 DUP3 DUP2 SLOAD DUP2 LT PUSH2 0x173E JUMPI PUSH2 0x173D PUSH2 0x443A JUMP JUMPDEST JUMPDEST SWAP1 PUSH0 MSTORE PUSH1 0x20 PUSH0 KECCAK256 SWAP1 PUSH1 0x4 MUL ADD PUSH0 ADD PUSH0 SWAP1 SLOAD SWAP1 PUSH2 0x100 EXP SWAP1 DIV PUSH20 0xFFFFFFFFFFFFFFFFFFFFFFFFFFFFFFFFFFFFFFFF AND PUSH20 0xFFFFFFFFFFFFFFFFFFFFFFFFFFFFFFFFFFFFFFFF AND SUB PUSH2 0x1790 JUMPI PUSH1 0x1 SWAP2 POP PUSH2 0x179D JUMP JUMPDEST DUP1 DUP1 PUSH1 0x1 ADD SWAP2 POP POP PUSH2 0x1706 JUMP JUMPDEST POP DUP1 PUSH2 0x17DE JUMPI PUSH1 0x40 MLOAD PUSH32 0x8C379A000000000000000000000000000000000000000000000000000000000 DUP2 MSTORE PUSH1 0x4 ADD PUSH2 0x17D5 SWAP1 PUSH2 0x55AE JUMP JUMPDEST PUSH1 0x40 MLOAD DUP1 SWAP2 SUB SWAP1 REVERT JUMPDEST PUSH1 0x3 DUP1 PUSH1 0x5 DUP2 GT ISZERO PUSH2 0x17F3 JUMPI PUSH2 0x17F2 PUSH2 0x3F0A JUMP JUMPDEST JUMPDEST PUSH0 DUP1 SLOAD SWAP1 PUSH2 0x100 EXP SWAP1 DIV PUSH1 0xFF AND PUSH1 0x5 DUP2 GT ISZERO PUSH2 0x1812 JUMPI PUSH2 0x1811 PUSH2 0x3F0A JUMP JUMPDEST JUMPDEST EQ PUSH2 0x1852 JUMPI PUSH1 0x40 MLOAD PUSH32 0x8C379A000000000000000000000000000000000000000000000000000000000 DUP2 MSTORE PUSH1 0x4 ADD PUSH2 0x1849 SWAP1 PUSH2 0x441C JUMP JUMPDEST PUSH1 0x40 MLOAD DUP1 SWAP2 SUB SWAP1 REVERT JUMPDEST PUSH2 0x185B CALLER PUSH2 0x330E JUMP JUMPDEST PUSH2 0x189A JUMPI PUSH1 0x40 MLOAD PUSH32 0x8C379A000000000000000000000000000000000000000000000000000000000 DUP2 MSTORE PUSH1 0x4 ADD PUSH2 0x1891 SWAP1 PUSH2 0x563C JUMP JUMPDEST PUSH1 0x40 MLOAD DUP1 SWAP2 SUB SWAP1 REVERT JUMPDEST PUSH2 0x18A3 PUSH0 PUSH2 0x341E JUMP JUMPDEST PUSH0 PUSH1 0x1 SWAP1 POP PUSH0 JUMPDEST PUSH1 0x1 DUP1 SLOAD SWAP1 POP DUP2 LT ISZERO PUSH2 0x193B JUMPI PUSH1 0x1 DUP2 DUP2 SLOAD DUP2 LT PUSH2 0x18CB JUMPI PUSH2 0x18CA PUSH2 0x443A JUMP JUMPDEST JUMPDEST SWAP1 PUSH0 MSTORE PUSH1 0x20 PUSH0 KECCAK256 SWAP1 PUSH1 0x4 MUL ADD PUSH1 0x3 ADD PUSH0 SWAP1 SLOAD SWAP1 PUSH2 0x100 EXP SWAP1 DIV PUSH1 0xFF AND DUP1 ISZERO PUSH2 0x1921 JUMPI POP PUSH1 0x1 DUP2 DUP2 SLOAD DUP2 LT PUSH2 0x1902 JUMPI PUSH2 0x1901 PUSH2 0x443A JUMP JUMPDEST JUMPDEST SWAP1 PUSH0 MSTORE PUSH1 0x20 PUSH0 KECCAK256 SWAP1 PUSH1 0x4 MUL ADD PUSH1 0x3 ADD PUSH1 0x1 SWAP1 SLOAD SWAP1 PUSH2 0x100 EXP SWAP1 DIV PUSH1 0xFF AND ISZERO JUMPDEST ISZERO PUSH2 0x192E JUMPI PUSH0 SWAP2 POP PUSH2 0x193B JUMP JUMPDEST DUP1 DUP1 PUSH1 0x1 ADD SWAP2 POP POP PUSH2 0x18AA JUMP JUMPDEST POP DUP1 ISZERO PUSH2 0x1974 JUMPI PUSH1 0x5 PUSH0 DUP1 PUSH2 0x100 EXP DUP2 SLOAD DUP2 PUSH1 0xFF MUL NOT AND SWAP1 DUP4 PUSH1 0x5 DUP2 GT ISZERO PUSH2 0x1966 JUMPI PUSH2 0x1965 PUSH2 0x3F0A JUMP JUMPDEST JUMPDEST MUL OR SWAP1 SSTORE POP PUSH2 0x1973 PUSH2 0x2FEF JUMP JUMPDEST JUMPDEST POP POP POP JUMP JUMPDEST PUSH1 0x60 DUP1 PUSH1 0x3 DUP1 SLOAD SWAP1 POP PUSH8 0xFFFFFFFFFFFFFFFF DUP2 GT ISZERO PUSH2 0x199B JUMPI PUSH2 0x199A PUSH2 0x57C4 JUMP JUMPDEST JUMPDEST PUSH1 0x40 MLOAD SWAP1 DUP1 DUP3 MSTORE DUP1 PUSH1 0x20 MUL PUSH1 0x20 ADD DUP3 ADD PUSH1 0x40 MSTORE DUP1 ISZERO PUSH2 0x19CE JUMPI DUP2 PUSH1 0x20 ADD JUMPDEST PUSH1 0x60 DUP2 MSTORE PUSH1 0x20 ADD SWAP1 PUSH1 0x1 SWAP1 SUB SWAP1 DUP2 PUSH2 0x19B9 JUMPI SWAP1 POP JUMPDEST POP SWAP2 POP PUSH0 JUMPDEST PUSH1 0x3 DUP1 SLOAD SWAP1 POP DUP2 LT ISZERO PUSH2 0x1A45 JUMPI PUSH2 0x1A1A PUSH1 0x3 DUP3 DUP2 SLOAD DUP2 LT PUSH2 0x19F7 JUMPI PUSH2 0x19F6 PUSH2 0x443A JUMP JUMPDEST JUMPDEST SWAP1 PUSH0 MSTORE PUSH1 0x20 PUSH0 KECCAK256 SWAP1 PUSH1 0x20 SWAP2 DUP3 DUP3 DIV ADD SWAP2 SWAP1 MOD SWAP1 SLOAD SWAP1 PUSH2 0x100 EXP SWAP1 DIV PUSH1 0xFF AND PUSH2 0x369F JUMP JUMPDEST DUP4 DUP3 DUP2 MLOAD DUP2 LT PUSH2 0x1A2D JUMPI PUSH2 0x1A2C PUSH2 0x443A JUMP JUMPDEST JUMPDEST PUSH1 0x20 MUL PUSH1 0x20 ADD ADD DUP2 SWAP1 MSTORE POP DUP1 DUP1 PUSH1 0x1 ADD SWAP2 POP POP PUSH2 0x19D3 JUMP JUMPDEST POP PUSH1 0x1 DUP1 SLOAD SWAP1 POP PUSH8 0xFFFFFFFFFFFFFFFF DUP2 GT ISZERO PUSH2 0x1A65 JUMPI PUSH2 0x1A64 PUSH2 0x57C4 JUMP JUMPDEST JUMPDEST PUSH1 0x40 MLOAD SWAP1 DUP1 DUP3 MSTORE DUP1 PUSH1 0x20 MUL PUSH1 0x20 ADD DUP3 ADD PUSH1 0x40 MSTORE DUP1 ISZERO PUSH2 0x1A98 JUMPI DUP2 PUSH1 0x20 ADD JUMPDEST PUSH1 0x60 DUP2 MSTORE PUSH1 0x20 ADD SWAP1 PUSH1 0x1 SWAP1 SUB SWAP1 DUP2 PUSH2 0x1A83 JUMPI SWAP1 POP JUMPDEST POP SWAP1 POP PUSH0 JUMPDEST PUSH1 0x1 DUP1 SLOAD SWAP1 POP DUP2 LT ISZERO PUSH2 0x1C05 JUMPI PUSH0 PUSH1 0x1 DUP3 DUP2 SLOAD DUP2 LT PUSH2 0x1ABF JUMPI PUSH2 0x1ABE PUSH2 0x443A JUMP JUMPDEST JUMPDEST SWAP1 PUSH0 MSTORE PUSH1 0x20 PUSH0 KECCAK256 SWAP1 PUSH1 0x4 MUL ADD PUSH1 0x2 ADD DUP1 SLOAD SWAP1 POP PUSH8 0xFFFFFFFFFFFFFFFF DUP2 GT ISZERO PUSH2 0x1AEB JUMPI PUSH2 0x1AEA PUSH2 0x57C4 JUMP JUMPDEST JUMPDEST PUSH1 0x40 MLOAD SWAP1 DUP1 DUP3 MSTORE DUP1 PUSH1 0x20 MUL PUSH1 0x20 ADD DUP3 ADD PUSH1 0x40 MSTORE DUP1 ISZERO PUSH2 0x1B1E JUMPI DUP2 PUSH1 0x20 ADD JUMPDEST PUSH1 0x60 DUP2 MSTORE PUSH1 0x20 ADD SWAP1 PUSH1 0x1 SWAP1 SUB SWAP1 DUP2 PUSH2 0x1B09 JUMPI SWAP1 POP JUMPDEST POP SWAP1 POP PUSH0 JUMPDEST PUSH1 0x1 DUP4 DUP2 SLOAD DUP2 LT PUSH2 0x1B37 JUMPI PUSH2 0x1B36 PUSH2 0x443A JUMP JUMPDEST JUMPDEST SWAP1 PUSH0 MSTORE PUSH1 0x20 PUSH0 KECCAK256 SWAP1 PUSH1 0x4 MUL ADD PUSH1 0x2 ADD DUP1 SLOAD SWAP1 POP DUP2 LT ISZERO PUSH2 0x1BD7 JUMPI PUSH2 0x1BAC PUSH1 0x1 DUP5 DUP2 SLOAD DUP2 LT PUSH2 0x1B68 JUMPI PUSH2 0x1B67 PUSH2 0x443A JUMP JUMPDEST JUMPDEST SWAP1 PUSH0 MSTORE PUSH1 0x20 PUSH0 KECCAK256 SWAP1 PUSH1 0x4 MUL ADD PUSH1 0x2 ADD DUP3 DUP2 SLOAD DUP2 LT PUSH2 0x1B89 JUMPI PUSH2 0x1B88 PUSH2 0x443A JUMP JUMPDEST JUMPDEST SWAP1 PUSH0 MSTORE PUSH1 0x20 PUSH0 KECCAK256 SWAP1 PUSH1 0x20 SWAP2 DUP3 DUP3 DIV ADD SWAP2 SWAP1 MOD SWAP1 SLOAD SWAP1 PUSH2 0x100 EXP SWAP1 DIV PUSH1 0xFF AND PUSH2 0x369F JUMP JUMPDEST DUP3 DUP3 DUP2 MLOAD DUP2 LT PUSH2 0x1BBF JUMPI PUSH2 0x1BBE PUSH2 0x443A JUMP JUMPDEST JUMPDEST PUSH1 0x20 MUL PUSH1 0x20 ADD ADD DUP2 SWAP1 MSTORE POP DUP1 DUP1 PUSH1 0x1 ADD SWAP2 POP POP PUSH2 0x1B23 JUMP JUMPDEST POP DUP1 DUP4 DUP4 DUP2 MLOAD DUP2 LT PUSH2 0x1BEC JUMPI PUSH2 0x1BEB PUSH2 0x443A JUMP JUMPDEST JUMPDEST PUSH1 0x20 MUL PUSH1 0x20 ADD ADD DUP2 SWAP1 MSTORE POP POP DUP1 DUP1 PUSH1 0x1 ADD SWAP2 POP POP PUSH2 0x1A9D JUMP JUMPDEST POP SWAP1 SWAP2 JUMP JUMPDEST PUSH1 0x4 PUSH0 SWAP1 SLOAD SWAP1 PUSH2 0x100 EXP SWAP1 DIV PUSH20 0xFFFFFFFFFFFFFFFFFFFFFFFFFFFFFFFFFFFFFFFF AND PUSH20 0xFFFFFFFFFFFFFFFFFFFFFFFFFFFFFFFFFFFFFFFF AND CALLER PUSH20 0xFFFFFFFFFFFFFFFFFFFFFFFFFFFFFFFFFFFFFFFF AND EQ PUSH2 0x1C99 JUMPI PUSH1 0x40 MLOAD PUSH32 0x8C379A000000000000000000000000000000000000000000000000000000000 DUP2 MSTORE PUSH1 0x4 ADD PUSH2 0x1C90 SWAP1 PUSH2 0x43B4 JUMP JUMPDEST PUSH1 0x40 MLOAD DUP1 SWAP2 SUB SWAP1 REVERT JUMPDEST PUSH1 0x2 DUP1 PUSH1 0x5 DUP2 GT ISZERO PUSH2 0x1CAE JUMPI PUSH2 0x1CAD PUSH2 0x3F0A JUMP JUMPDEST JUMPDEST PUSH0 DUP1 SLOAD SWAP1 PUSH2 0x100 EXP SWAP1 DIV PUSH1 0xFF AND PUSH1 0x5 DUP2 GT ISZERO PUSH2 0x1CCD JUMPI PUSH2 0x1CCC PUSH2 0x3F0A JUMP JUMPDEST JUMPDEST EQ PUSH2 0x1D0D JUMPI PUSH1 0x40 MLOAD PUSH32 0x8C379A000000000000000000000000000000000000000000000000000000000 DUP2 MSTORE PUSH1 0x4 ADD PUSH2 0x1D04 SWAP1 PUSH2 0x441C JUMP JUMPDEST PUSH1 0x40 MLOAD DUP1 SWAP2 SUB SWAP1 REVERT JUMPDEST PUSH0 PUSH1 0xD PUSH0 PUSH1 0x4 PUSH0 SWAP1 SLOAD SWAP1 PUSH2 0x100 EXP SWAP1 DIV PUSH20 0xFFFFFFFFFFFFFFFFFFFFFFFFFFFFFFFFFFFFFFFF AND PUSH20 0xFFFFFFFFFFFFFFFFFFFFFFFFFFFFFFFFFFFFFFFF AND PUSH20 0xFFFFFFFFFFFFFFFFFFFFFFFFFFFFFFFFFFFFFFFF AND DUP2 MSTORE PUSH1 0x20 ADD SWAP1 DUP2 MSTORE PUSH1 0x20 ADD PUSH0 KECCAK256 SLOAD SWAP1 POP PUSH0 DUP2 SUB PUSH2 0x1DB1 JUMPI PUSH1 0x40 MLOAD PUSH32 0x8C379A000000000000000000000000000000000000000000000000000000000 DUP2 MSTORE PUSH1 0x4 ADD PUSH2 0x1DA8 SWAP1 PUSH2 0x583B JUMP JUMPDEST PUSH1 0x40 MLOAD DUP1 SWAP2 SUB SWAP1 REVERT JUMPDEST PUSH0 JUMPDEST PUSH1 0x1 DUP1 SLOAD SWAP1 POP DUP2 LT ISZERO PUSH2 0x2057 JUMPI PUSH0 PUSH1 0x1 DUP3 DUP2 SLOAD DUP2 LT PUSH2 0x1DD5 JUMPI PUSH2 0x1DD4 PUSH2 0x443A JUMP JUMPDEST JUMPDEST SWAP1 PUSH0 MSTORE PUSH1 0x20 PUSH0 KECCAK256 SWAP1 PUSH1 0x4 MUL ADD PUSH0 ADD PUSH0 SWAP1 SLOAD SWAP1 PUSH2 0x100 EXP SWAP1 DIV PUSH20 0xFFFFFFFFFFFFFFFFFFFFFFFFFFFFFFFFFFFFFFFF AND SWAP1 POP PUSH0 PUSH1 0xD PUSH0 DUP4 PUSH20 0xFFFFFFFFFFFFFFFFFFFFFFFFFFFFFFFFFFFFFFFF AND PUSH20 0xFFFFFFFFFFFFFFFFFFFFFFFFFFFFFFFFFFFFFFFF AND DUP2 MSTORE PUSH1 0x20 ADD SWAP1 DUP2 MSTORE PUSH1 0x20 ADD PUSH0 KECCAK256 SLOAD SWAP1 POP PUSH0 DUP2 SUB PUSH2 0x1E88 JUMPI PUSH1 0x40 MLOAD PUSH32 0x8C379A000000000000000000000000000000000000000000000000000000000 DUP2 MSTORE PUSH1 0x4 ADD PUSH2 0x1E7F SWAP1 PUSH2 0x58C9 JUMP JUMPDEST PUSH1 0x40 MLOAD DUP1 SWAP2 SUB SWAP1 REVERT JUMPDEST PUSH0 PUSH20 0x0 PUSH4 0x10F8B35C DUP4 DUP8 PUSH1 0x40 MLOAD DUP4 PUSH4 0xFFFFFFFF AND PUSH1 0xE0 SHL DUP2 MSTORE PUSH1 0x4 ADD PUSH2 0x1EC2 SWAP3 SWAP2 SWAP1 PUSH2 0x46A8 JUMP JUMPDEST PUSH1 0x20 PUSH1 0x40 MLOAD DUP1 DUP4 SUB DUP2 DUP7 GAS DELEGATECALL ISZERO DUP1 ISZERO PUSH2 0x1EDD JUMPI RETURNDATASIZE PUSH0 DUP1 RETURNDATACOPY RETURNDATASIZE PUSH0 REVERT JUMPDEST POP POP POP POP PUSH1 0x40 MLOAD RETURNDATASIZE PUSH1 0x1F NOT PUSH1 0x1F DUP3 ADD AND DUP3 ADD DUP1 PUSH1 0x40 MSTORE POP DUP2 ADD SWAP1 PUSH2 0x1F01 SWAP2 SWAP1 PUSH2 0x46F9 JUMP JUMPDEST SWAP1 POP PUSH0 PUSH20 0x0 PUSH4 0x10F8B35C DUP8 DUP6 PUSH1 0x40 MLOAD DUP4 PUSH4 0xFFFFFFFF AND PUSH1 0xE0 SHL DUP2 MSTORE PUSH1 0x4 ADD PUSH2 0x1F3D SWAP3 SWAP2 SWAP1 PUSH2 0x46A8 JUMP JUMPDEST PUSH1 0x20 PUSH1 0x40 MLOAD DUP1 DUP4 SUB DUP2 DUP7 GAS DELEGATECALL ISZERO DUP1 ISZERO PUSH2 0x1F58 JUMPI RETURNDATASIZE PUSH0 DUP1 RETURNDATACOPY RETURNDATASIZE PUSH0 REVERT JUMPDEST POP POP POP POP PUSH1 0x40 MLOAD RETURNDATASIZE PUSH1 0x1F NOT PUSH1 0x1F DUP3 ADD AND DUP3 ADD DUP1 PUSH1 0x40 MSTORE POP DUP2 ADD SWAP1 PUSH2 0x1F7C SWAP2 SWAP1 PUSH2 0x46F9 JUMP JUMPDEST SWAP1 POP PUSH1 0x1 DUP6 DUP2 SLOAD DUP2 LT PUSH2 0x1F92 JUMPI PUSH2 0x1F91 PUSH2 0x443A JUMP JUMPDEST JUMPDEST SWAP1 PUSH0 MSTORE PUSH1 0x20 PUSH0 KECCAK256 SWAP1 PUSH1 0x4 MUL ADD PUSH1 0x2 ADD DUP3 SWAP1 DUP1 PUSH1 0x1 DUP2 SLOAD ADD DUP1 DUP3 SSTORE DUP1 SWAP2 POP POP PUSH1 0x1 SWAP1 SUB SWAP1 PUSH0 MSTORE PUSH1 0x20 PUSH0 KECCAK256 SWAP1 PUSH1 0x20 SWAP2 DUP3 DUP3 DIV ADD SWAP2 SWAP1 MOD SWAP1 SWAP2 SWAP1 SWAP2 SWAP1 SWAP2 PUSH2 0x100 EXP DUP2 SLOAD DUP2 PUSH1 0xFF MUL NOT AND SWAP1 DUP4 PUSH1 0xFF AND MUL OR SWAP1 SSTORE POP PUSH1 0x1 DUP6 DUP2 SLOAD DUP2 LT PUSH2 0x1FF6 JUMPI PUSH2 0x1FF5 PUSH2 0x443A JUMP JUMPDEST JUMPDEST SWAP1 PUSH0 MSTORE PUSH1 0x20 PUSH0 KECCAK256 SWAP1 PUSH1 0x4 MUL ADD PUSH1 0x2 ADD DUP2 SWAP1 DUP1 PUSH1 0x1 DUP2 SLOAD ADD DUP1 DUP3 SSTORE DUP1 SWAP2 POP POP PUSH1 0x1 SWAP1 SUB SWAP1 PUSH0 MSTORE PUSH1 0x20 PUSH0 KECCAK256 SWAP1 PUSH1 0x20 SWAP2 DUP3 DUP3 DIV ADD SWAP2 SWAP1 MOD SWAP1 SWAP2 SWAP1 SWAP2 SWAP1 SWAP2 PUSH2 0x100 EXP DUP2 SLOAD DUP2 PUSH1 0xFF MUL NOT AND SWAP1 DUP4 PUSH1 0xFF AND MUL OR SWAP1 SSTORE POP POP POP POP POP DUP1 DUP1 PUSH1 0x1 ADD SWAP2 POP POP PUSH2 0x1DB3 JUMP JUMPDEST POP PUSH0 DUP1 JUMPDEST PUSH1 0x1 DUP1 SLOAD SWAP1 POP DUP2 LT ISZERO PUSH2 0x211E JUMPI DUP2 PUSH2 0x2105 PUSH1 0x1 DUP4 DUP2 SLOAD DUP2 LT PUSH2 0x2080 JUMPI PUSH2 0x207F PUSH2 0x443A JUMP JUMPDEST JUMPDEST SWAP1 PUSH0 MSTORE PUSH1 0x20 PUSH0 KECCAK256 SWAP1 PUSH1 0x4 MUL ADD PUSH1 0x2 ADD DUP1 SLOAD DUP1 PUSH1 0x20 MUL PUSH1 0x20 ADD PUSH1 0x40 MLOAD SWAP1 DUP2 ADD PUSH1 0x40 MSTORE DUP1 SWAP3 SWAP2 SWAP1 DUP2 DUP2 MSTORE PUSH1 0x20 ADD DUP3 DUP1 SLOAD DUP1 ISZERO PUSH2 0x20FB JUMPI PUSH1 0x20 MUL DUP3 ADD SWAP2 SWAP1 PUSH0 MSTORE PUSH1 0x20 PUSH0 KECCAK256 SWAP1 PUSH0 SWAP1 JUMPDEST DUP3 DUP3 SWAP1 SLOAD SWAP1 PUSH2 0x100 EXP SWAP1 DIV PUSH1 0xFF AND PUSH1 0xFF AND DUP2 MSTORE PUSH1 0x20 ADD SWAP1 PUSH1 0x1 ADD SWAP1 PUSH1 0x20 DUP3 PUSH0 ADD DIV SWAP3 DUP4 ADD SWAP3 PUSH1 0x1 SUB DUP3 MUL SWAP2 POP DUP1 DUP5 GT PUSH2 0x20C5 JUMPI SWAP1 POP JUMPDEST POP POP POP POP POP PUSH2 0x2F91 JUMP JUMPDEST PUSH2 0x210F SWAP2 SWAP1 PUSH2 0x5729 JUMP JUMPDEST SWAP2 POP DUP1 DUP1 PUSH1 0x1 ADD SWAP2 POP POP PUSH2 0x205B JUMP JUMPDEST POP PUSH0 PUSH20 0x0 PUSH4 0x10F8B35C DUP4 DUP6 PUSH1 0x40 MLOAD DUP4 PUSH4 0xFFFFFFFF AND PUSH1 0xE0 SHL DUP2 MSTORE PUSH1 0x4 ADD PUSH2 0x2159 SWAP3 SWAP2 SWAP1 PUSH2 0x46A8 JUMP JUMPDEST PUSH1 0x20 PUSH1 0x40 MLOAD DUP1 DUP4 SUB DUP2 DUP7 GAS DELEGATECALL ISZERO DUP1 ISZERO PUSH2 0x2174 JUMPI RETURNDATASIZE PUSH0 DUP1 RETURNDATACOPY RETURNDATASIZE PUSH0 REVERT JUMPDEST POP POP POP POP PUSH1 0x40 MLOAD RETURNDATASIZE PUSH1 0x1F NOT PUSH1 0x1F DUP3 ADD AND DUP3 ADD DUP1 PUSH1 0x40 MSTORE POP DUP2 ADD SWAP1 PUSH2 0x2198 SWAP2 SWAP1 PUSH2 0x46F9 JUMP JUMPDEST SWAP1 POP PUSH1 0x3 DUP2 SWAP1 DUP1 PUSH1 0x1 DUP2 SLOAD ADD DUP1 DUP3 SSTORE DUP1 SWAP2 POP POP PUSH1 0x1 SWAP1 SUB SWAP1 PUSH0 MSTORE PUSH1 0x20 PUSH0 KECCAK256 SWAP1 PUSH1 0x20 SWAP2 DUP3 DUP3 DIV ADD SWAP2 SWAP1 MOD SWAP1 SWAP2 SWAP1 SWAP2 SWAP1 SWAP2 PUSH2 0x100 EXP DUP2 SLOAD DUP2 PUSH1 0xFF MUL NOT AND SWAP1 DUP4 PUSH1 0xFF AND MUL OR SWAP1 SSTORE POP PUSH1 0x3 PUSH0 DUP1 PUSH2 0x100 EXP DUP2 SLOAD DUP2 PUSH1 0xFF MUL NOT AND SWAP1 DUP4 PUSH1 0x5 DUP2 GT ISZERO PUSH2 0x2201 JUMPI PUSH2 0x2200 PUSH2 0x3F0A JUMP JUMPDEST JUMPDEST MUL OR SWAP1 SSTORE POP POP POP POP POP JUMP JUMPDEST PUSH1 0x60 PUSH0 PUSH1 0x1 DUP1 SLOAD SWAP1 POP PUSH8 0xFFFFFFFFFFFFFFFF DUP2 GT ISZERO PUSH2 0x222E JUMPI PUSH2 0x222D PUSH2 0x57C4 JUMP JUMPDEST JUMPDEST PUSH1 0x40 MLOAD SWAP1 DUP1 DUP3 MSTORE DUP1 PUSH1 0x20 MUL PUSH1 0x20 ADD DUP3 ADD PUSH1 0x40 MSTORE DUP1 ISZERO PUSH2 0x225C JUMPI DUP2 PUSH1 0x20 ADD PUSH1 0x20 DUP3 MUL DUP1 CALLDATASIZE DUP4 CALLDATACOPY DUP1 DUP3 ADD SWAP2 POP POP SWAP1 POP JUMPDEST POP SWAP2 POP PUSH0 JUMPDEST PUSH1 0x1 DUP1 SLOAD SWAP1 POP DUP2 LT ISZERO PUSH2 0x233A JUMPI PUSH20 0x0 PUSH4 0x345E3D68 PUSH1 0x1 DUP4 DUP2 SLOAD DUP2 LT PUSH2 0x229C JUMPI PUSH2 0x229B PUSH2 0x443A JUMP JUMPDEST JUMPDEST SWAP1 PUSH0 MSTORE PUSH1 0x20 PUSH0 KECCAK256 SWAP1 PUSH1 0x4 MUL ADD PUSH1 0x2 ADD PUSH1 0x40 MLOAD DUP3 PUSH4 0xFFFFFFFF AND PUSH1 0xE0 SHL DUP2 MSTORE PUSH1 0x4 ADD PUSH2 0x22C7 SWAP2 SWAP1 PUSH2 0x544E JUMP JUMPDEST PUSH1 0x20 PUSH1 0x40 MLOAD DUP1 DUP4 SUB DUP2 DUP7 GAS DELEGATECALL ISZERO DUP1 ISZERO PUSH2 0x22E2 JUMPI RETURNDATASIZE PUSH0 DUP1 RETURNDATACOPY RETURNDATASIZE PUSH0 REVERT JUMPDEST POP POP POP POP PUSH1 0x40 MLOAD RETURNDATASIZE PUSH1 0x1F NOT PUSH1 0x1F DUP3 ADD AND DUP3 ADD DUP1 PUSH1 0x40 MSTORE POP DUP2 ADD SWAP1 PUSH2 0x2306 SWAP2 SWAP1 PUSH2 0x46F9 JUMP JUMPDEST DUP4 DUP3 DUP2 MLOAD DUP2 LT PUSH2 0x2319 JUMPI PUSH2 0x2318 PUSH2 0x443A JUMP JUMPDEST JUMPDEST PUSH1 0x20 MUL PUSH1 0x20 ADD ADD SWAP1 PUSH1 0xFF AND SWAP1 DUP2 PUSH1 0xFF AND DUP2 MSTORE POP POP DUP1 DUP1 PUSH1 0x1 ADD SWAP2 POP POP PUSH2 0x2261 JUMP JUMPDEST POP PUSH20 0x0 PUSH4 0x345E3D68 PUSH1 0x3 PUSH1 0x40 MLOAD DUP3 PUSH4 0xFFFFFFFF AND PUSH1 0xE0 SHL DUP2 MSTORE PUSH1 0x4 ADD PUSH2 0x2373 SWAP2 SWAP1 PUSH2 0x544E JUMP JUMPDEST PUSH1 0x20 PUSH1 0x40 MLOAD DUP1 DUP4 SUB DUP2 DUP7 GAS DELEGATECALL ISZERO DUP1 ISZERO PUSH2 0x238E JUMPI RETURNDATASIZE PUSH0 DUP1 RETURNDATACOPY RETURNDATASIZE PUSH0 REVERT JUMPDEST POP POP POP POP PUSH1 0x40 MLOAD RETURNDATASIZE PUSH1 0x1F NOT PUSH1 0x1F DUP3 ADD AND DUP3 ADD DUP1 PUSH1 0x40 MSTORE POP DUP2 ADD SWAP1 PUSH2 0x23B2 SWAP2 SWAP1 PUSH2 0x46F9 JUMP JUMPDEST SWAP1 POP SWAP1 SWAP2 JUMP JUMPDEST PUSH0 DUP1 PUSH1 0x5 DUP2 GT ISZERO PUSH2 0x23CC JUMPI PUSH2 0x23CB PUSH2 0x3F0A JUMP JUMPDEST JUMPDEST PUSH0 DUP1 SLOAD SWAP1 PUSH2 0x100 EXP SWAP1 DIV PUSH1 0xFF AND PUSH1 0x5 DUP2 GT ISZERO PUSH2 0x23EB JUMPI PUSH2 0x23EA PUSH2 0x3F0A JUMP JUMPDEST JUMPDEST EQ PUSH2 0x242B JUMPI PUSH1 0x40 MLOAD PUSH32 0x8C379A000000000000000000000000000000000000000000000000000000000 DUP2 MSTORE PUSH1 0x4 ADD PUSH2 0x2422 SWAP1 PUSH2 0x441C JUMP JUMPDEST PUSH1 0x40 MLOAD DUP1 SWAP2 SUB SWAP1 REVERT JUMPDEST PUSH1 0x4 PUSH1 0x2 SLOAD LT PUSH2 0x2470 JUMPI PUSH1 0x40 MLOAD PUSH32 0x8C379A000000000000000000000000000000000000000000000000000000000 DUP2 MSTORE PUSH1 0x4 ADD PUSH2 0x2467 SWAP1 PUSH2 0x5931 JUMP JUMPDEST PUSH1 0x40 MLOAD DUP1 SWAP2 SUB SWAP1 REVERT JUMPDEST DUP2 CALLVALUE EQ PUSH2 0x24B2 JUMPI PUSH1 0x40 MLOAD PUSH32 0x8C379A000000000000000000000000000000000000000000000000000000000 DUP2 MSTORE PUSH1 0x4 ADD PUSH2 0x24A9 SWAP1 PUSH2 0x5999 JUMP JUMPDEST PUSH1 0x40 MLOAD DUP1 SWAP2 SUB SWAP1 REVERT JUMPDEST PUSH1 0x1 PUSH1 0x40 MLOAD DUP1 PUSH1 0xA0 ADD PUSH1 0x40 MSTORE DUP1 CALLER PUSH20 0xFFFFFFFFFFFFFFFFFFFFFFFFFFFFFFFFFFFFFFFF AND DUP2 MSTORE PUSH1 0x20 ADD DUP5 DUP2 MSTORE PUSH1 0x20 ADD PUSH0 PUSH8 0xFFFFFFFFFFFFFFFF DUP2 GT ISZERO PUSH2 0x24FB JUMPI PUSH2 0x24FA PUSH2 0x57C4 JUMP JUMPDEST JUMPDEST PUSH1 0x40 MLOAD SWAP1 DUP1 DUP3 MSTORE DUP1 PUSH1 0x20 MUL PUSH1 0x20 ADD DUP3 ADD PUSH1 0x40 MSTORE DUP1 ISZERO PUSH2 0x2529 JUMPI DUP2 PUSH1 0x20 ADD PUSH1 0x20 DUP3 MUL DUP1 CALLDATASIZE DUP4 CALLDATACOPY DUP1 DUP3 ADD SWAP2 POP POP SWAP1 POP JUMPDEST POP DUP2 MSTORE PUSH1 0x20 ADD PUSH1 0x1 ISZERO ISZERO DUP2 MSTORE PUSH1 0x20 ADD PUSH0 ISZERO ISZERO DUP2 MSTORE POP SWAP1 DUP1 PUSH1 0x1 DUP2 SLOAD ADD DUP1 DUP3 SSTORE DUP1 SWAP2 POP POP PUSH1 0x1 SWAP1 SUB SWAP1 PUSH0 MSTORE PUSH1 0x20 PUSH0 KECCAK256 SWAP1 PUSH1 0x4 MUL ADD PUSH0 SWAP1 SWAP2 SWAP1 SWAP2 SWAP1 SWAP2 POP PUSH0 DUP3 ADD MLOAD DUP2 PUSH0 ADD PUSH0 PUSH2 0x100 EXP DUP2 SLOAD DUP2 PUSH20 0xFFFFFFFFFFFFFFFFFFFFFFFFFFFFFFFFFFFFFFFF MUL NOT AND SWAP1 DUP4 PUSH20 0xFFFFFFFFFFFFFFFFFFFFFFFFFFFFFFFFFFFFFFFF AND MUL OR SWAP1 SSTORE POP PUSH1 0x20 DUP3 ADD MLOAD DUP2 PUSH1 0x1 ADD SSTORE PUSH1 0x40 DUP3 ADD MLOAD DUP2 PUSH1 0x2 ADD SWAP1 DUP1 MLOAD SWAP1 PUSH1 0x20 ADD SWAP1 PUSH2 0x25CE SWAP3 SWAP2 SWAP1 PUSH2 0x3C85 JUMP JUMPDEST POP PUSH1 0x60 DUP3 ADD MLOAD DUP2 PUSH1 0x3 ADD PUSH0 PUSH2 0x100 EXP DUP2 SLOAD DUP2 PUSH1 0xFF MUL NOT AND SWAP1 DUP4 ISZERO ISZERO MUL OR SWAP1 SSTORE POP PUSH1 0x80 DUP3 ADD MLOAD DUP2 PUSH1 0x3 ADD PUSH1 0x1 PUSH2 0x100 EXP DUP2 SLOAD DUP2 PUSH1 0xFF MUL NOT AND SWAP1 DUP4 ISZERO ISZERO MUL OR SWAP1 SSTORE POP POP POP PUSH1 0x2 PUSH0 DUP2 SLOAD DUP1 SWAP3 SWAP2 SWAP1 PUSH2 0x2622 SWAP1 PUSH2 0x4652 JUMP JUMPDEST SWAP2 SWAP1 POP SSTORE POP POP POP JUMP JUMPDEST PUSH2 0x2636 PUSH1 0x12 SLOAD PUSH2 0x3831 JUMP JUMPDEST PUSH2 0x2675 JUMPI PUSH1 0x40 MLOAD PUSH32 0x8C379A000000000000000000000000000000000000000000000000000000000 DUP2 MSTORE PUSH1 0x4 ADD PUSH2 0x266C SWAP1 PUSH2 0x5A01 JUMP JUMPDEST PUSH1 0x40 MLOAD DUP1 SWAP2 SUB SWAP1 REVERT JUMPDEST PUSH1 0x1 PUSH1 0x5 DUP2 GT ISZERO PUSH2 0x2689 JUMPI PUSH2 0x2688 PUSH2 0x3F0A JUMP JUMPDEST JUMPDEST PUSH0 DUP1 SLOAD SWAP1 PUSH2 0x100 EXP SWAP1 DIV PUSH1 0xFF AND PUSH1 0x5 DUP2 GT ISZERO PUSH2 0x26A8 JUMPI PUSH2 0x26A7 PUSH2 0x3F0A JUMP JUMPDEST JUMPDEST SUB PUSH2 0x2819 JUMPI PUSH0 JUMPDEST PUSH1 0x1 DUP1 SLOAD SWAP1 POP DUP2 LT ISZERO PUSH2 0x27D4 JUMPI PUSH0 DUP1 SHL PUSH1 0xC PUSH0 PUSH1 0x1 DUP5 DUP2 SLOAD DUP2 LT PUSH2 0x26D6 JUMPI PUSH2 0x26D5 PUSH2 0x443A JUMP JUMPDEST JUMPDEST SWAP1 PUSH0 MSTORE PUSH1 0x20 PUSH0 KECCAK256 SWAP1 PUSH1 0x4 MUL ADD PUSH0 ADD PUSH0 SWAP1 SLOAD SWAP1 PUSH2 0x100 EXP SWAP1 DIV PUSH20 0xFFFFFFFFFFFFFFFFFFFFFFFFFFFFFFFFFFFFFFFF AND PUSH20 0xFFFFFFFFFFFFFFFFFFFFFFFFFFFFFFFFFFFFFFFF AND PUSH20 0xFFFFFFFFFFFFFFFFFFFFFFFFFFFFFFFFFFFFFFFF AND DUP2 MSTORE PUSH1 0x20 ADD SWAP1 DUP2 MSTORE PUSH1 0x20 ADD PUSH0 KECCAK256 SLOAD EQ DUP1 ISZERO PUSH2 0x2777 JUMPI POP PUSH1 0x1 DUP2 DUP2 SLOAD DUP2 LT PUSH2 0x275A JUMPI PUSH2 0x2759 PUSH2 0x443A JUMP JUMPDEST JUMPDEST SWAP1 PUSH0 MSTORE PUSH1 0x20 PUSH0 KECCAK256 SWAP1 PUSH1 0x4 MUL ADD PUSH1 0x3 ADD PUSH0 SWAP1 SLOAD SWAP1 PUSH2 0x100 EXP SWAP1 DIV PUSH1 0xFF AND JUMPDEST ISZERO PUSH2 0x27C7 JUMPI PUSH2 0x27C6 PUSH1 0x1 DUP3 DUP2 SLOAD DUP2 LT PUSH2 0x2793 JUMPI PUSH2 0x2792 PUSH2 0x443A JUMP JUMPDEST JUMPDEST SWAP1 PUSH0 MSTORE PUSH1 0x20 PUSH0 KECCAK256 SWAP1 PUSH1 0x4 MUL ADD PUSH0 ADD PUSH0 SWAP1 SLOAD SWAP1 PUSH2 0x100 EXP SWAP1 DIV PUSH20 0xFFFFFFFFFFFFFFFFFFFFFFFFFFFFFFFFFFFFFFFF AND PUSH2 0x383C JUMP JUMPDEST JUMPDEST DUP1 DUP1 PUSH1 0x1 ADD SWAP2 POP POP PUSH2 0x26AF JUMP JUMPDEST POP PUSH2 0x27DD PUSH2 0x394A JUMP JUMPDEST ISZERO PUSH2 0x280C JUMPI PUSH1 0x5 PUSH0 DUP1 PUSH2 0x100 EXP DUP2 SLOAD DUP2 PUSH1 0xFF MUL NOT AND SWAP1 DUP4 PUSH1 0x5 DUP2 GT ISZERO PUSH2 0x2806 JUMPI PUSH2 0x2805 PUSH2 0x3F0A JUMP JUMPDEST JUMPDEST MUL OR SWAP1 SSTORE POP JUMPDEST PUSH2 0x2814 PUSH2 0x32FE JUMP JUMPDEST PUSH2 0x2C58 JUMP JUMPDEST PUSH1 0x2 PUSH1 0x5 DUP2 GT ISZERO PUSH2 0x282D JUMPI PUSH2 0x282C PUSH2 0x3F0A JUMP JUMPDEST JUMPDEST PUSH0 DUP1 SLOAD SWAP1 PUSH2 0x100 EXP SWAP1 DIV PUSH1 0xFF AND PUSH1 0x5 DUP2 GT ISZERO PUSH2 0x284C JUMPI PUSH2 0x284B PUSH2 0x3F0A JUMP JUMPDEST JUMPDEST SUB PUSH2 0x2A67 JUMPI PUSH0 PUSH1 0x1 SWAP1 POP PUSH0 JUMPDEST PUSH1 0x1 DUP1 SLOAD SWAP1 POP DUP2 LT ISZERO PUSH2 0x297E JUMPI PUSH0 PUSH1 0xD PUSH0 PUSH1 0x1 DUP5 DUP2 SLOAD DUP2 LT PUSH2 0x287D JUMPI PUSH2 0x287C PUSH2 0x443A JUMP JUMPDEST JUMPDEST SWAP1 PUSH0 MSTORE PUSH1 0x20 PUSH0 KECCAK256 SWAP1 PUSH1 0x4 MUL ADD PUSH0 ADD PUSH0 SWAP1 SLOAD SWAP1 PUSH2 0x100 EXP SWAP1 DIV PUSH20 0xFFFFFFFFFFFFFFFFFFFFFFFFFFFFFFFFFFFFFFFF AND PUSH20 0xFFFFFFFFFFFFFFFFFFFFFFFFFFFFFFFFFFFFFFFF AND PUSH20 0xFFFFFFFFFFFFFFFFFFFFFFFFFFFFFFFFFFFFFFFF AND DUP2 MSTORE PUSH1 0x20 ADD SWAP1 DUP2 MSTORE PUSH1 0x20 ADD PUSH0 KECCAK256 SLOAD EQ DUP1 ISZERO PUSH2 0x291E JUMPI POP PUSH1 0x1 DUP2 DUP2 SLOAD DUP2 LT PUSH2 0x2901 JUMPI PUSH2 0x2900 PUSH2 0x443A JUMP JUMPDEST JUMPDEST SWAP1 PUSH0 MSTORE PUSH1 0x20 PUSH0 KECCAK256 SWAP1 PUSH1 0x4 MUL ADD PUSH1 0x3 ADD PUSH0 SWAP1 SLOAD SWAP1 PUSH2 0x100 EXP SWAP1 DIV PUSH1 0xFF AND JUMPDEST ISZERO PUSH2 0x2971 JUMPI PUSH2 0x296D PUSH1 0x1 DUP3 DUP2 SLOAD DUP2 LT PUSH2 0x293A JUMPI PUSH2 0x2939 PUSH2 0x443A JUMP JUMPDEST JUMPDEST SWAP1 PUSH0 MSTORE PUSH1 0x20 PUSH0 KECCAK256 SWAP1 PUSH1 0x4 MUL ADD PUSH0 ADD PUSH0 SWAP1 SLOAD SWAP1 PUSH2 0x100 EXP SWAP1 DIV PUSH20 0xFFFFFFFFFFFFFFFFFFFFFFFFFFFFFFFFFFFFFFFF AND PUSH2 0x383C JUMP JUMPDEST PUSH0 SWAP2 POP JUMPDEST DUP1 DUP1 PUSH1 0x1 ADD SWAP2 POP POP PUSH2 0x2858 JUMP JUMPDEST POP PUSH2 0x2987 PUSH2 0x394A JUMP JUMPDEST ISZERO PUSH2 0x29B6 JUMPI PUSH1 0x5 PUSH0 DUP1 PUSH2 0x100 EXP DUP2 SLOAD DUP2 PUSH1 0xFF MUL NOT AND SWAP1 DUP4 PUSH1 0x5 DUP2 GT ISZERO PUSH2 0x29B0 JUMPI PUSH2 0x29AF PUSH2 0x3F0A JUMP JUMPDEST JUMPDEST MUL OR SWAP1 SSTORE POP JUMPDEST PUSH0 PUSH1 0xD PUSH0 PUSH1 0x4 PUSH0 SWAP1 SLOAD SWAP1 PUSH2 0x100 EXP SWAP1 DIV PUSH20 0xFFFFFFFFFFFFFFFFFFFFFFFFFFFFFFFFFFFFFFFF AND PUSH20 0xFFFFFFFFFFFFFFFFFFFFFFFFFFFFFFFFFFFFFFFF AND PUSH20 0xFFFFFFFFFFFFFFFFFFFFFFFFFFFFFFFFFFFFFFFF AND DUP2 MSTORE PUSH1 0x20 ADD SWAP1 DUP2 MSTORE PUSH1 0x20 ADD PUSH0 KECCAK256 SLOAD SUB PUSH2 0x2A52 JUMPI PUSH2 0x2A23 PUSH2 0x39EB JUMP JUMPDEST PUSH1 0x5 PUSH0 DUP1 PUSH2 0x100 EXP DUP2 SLOAD DUP2 PUSH1 0xFF MUL NOT AND SWAP1 DUP4 PUSH1 0x5 DUP2 GT ISZERO PUSH2 0x2A47 JUMPI PUSH2 0x2A46 PUSH2 0x3F0A JUMP JUMPDEST JUMPDEST MUL OR SWAP1 SSTORE POP POP PUSH2 0x2C59 JUMP JUMPDEST DUP1 ISZERO PUSH2 0x2A61 JUMPI PUSH2 0x2A60 PUSH2 0x32FE JUMP JUMPDEST JUMPDEST POP PUSH2 0x2C57 JUMP JUMPDEST PUSH1 0x3 PUSH1 0x5 DUP2 GT ISZERO PUSH2 0x2A7B JUMPI PUSH2 0x2A7A PUSH2 0x3F0A JUMP JUMPDEST JUMPDEST PUSH0 DUP1 SLOAD SWAP1 PUSH2 0x100 EXP SWAP1 DIV PUSH1 0xFF AND PUSH1 0x5 DUP2 GT ISZERO PUSH2 0x2A9A JUMPI PUSH2 0x2A99 PUSH2 0x3F0A JUMP JUMPDEST JUMPDEST SUB PUSH2 0x2C56 JUMPI PUSH0 PUSH1 0x1 SWAP1 POP PUSH0 JUMPDEST PUSH1 0x1 DUP1 SLOAD SWAP1 POP DUP2 LT ISZERO PUSH2 0x2BD7 JUMPI PUSH1 0x1 DUP2 DUP2 SLOAD DUP2 LT PUSH2 0x2AC7 JUMPI PUSH2 0x2AC6 PUSH2 0x443A JUMP JUMPDEST JUMPDEST SWAP1 PUSH0 MSTORE PUSH1 0x20 PUSH0 KECCAK256 SWAP1 PUSH1 0x4 MUL ADD PUSH1 0x3 ADD PUSH0 SWAP1 SLOAD SWAP1 PUSH2 0x100 EXP SWAP1 DIV PUSH1 0xFF AND DUP1 ISZERO PUSH2 0x2B77 JUMPI POP PUSH1 0xF PUSH0 PUSH1 0x1 DUP4 DUP2 SLOAD DUP2 LT PUSH2 0x2B01 JUMPI PUSH2 0x2B00 PUSH2 0x443A JUMP JUMPDEST JUMPDEST SWAP1 PUSH0 MSTORE PUSH1 0x20 PUSH0 KECCAK256 SWAP1 PUSH1 0x4 MUL ADD PUSH0 ADD PUSH0 SWAP1 SLOAD SWAP1 PUSH2 0x100 EXP SWAP1 DIV PUSH20 0xFFFFFFFFFFFFFFFFFFFFFFFFFFFFFFFFFFFFFFFF AND PUSH20 0xFFFFFFFFFFFFFFFFFFFFFFFFFFFFFFFFFFFFFFFF AND PUSH20 0xFFFFFFFFFFFFFFFFFFFFFFFFFFFFFFFFFFFFFFFF AND DUP2 MSTORE PUSH1 0x20 ADD SWAP1 DUP2 MSTORE PUSH1 0x20 ADD PUSH0 KECCAK256 PUSH0 SWAP1 SLOAD SWAP1 PUSH2 0x100 EXP SWAP1 DIV PUSH1 0xFF AND ISZERO JUMPDEST ISZERO PUSH2 0x2BCA JUMPI PUSH2 0x2BC6 PUSH1 0x1 DUP3 DUP2 SLOAD DUP2 LT PUSH2 0x2B93 JUMPI PUSH2 0x2B92 PUSH2 0x443A JUMP JUMPDEST JUMPDEST SWAP1 PUSH0 MSTORE PUSH1 0x20 PUSH0 KECCAK256 SWAP1 PUSH1 0x4 MUL ADD PUSH0 ADD PUSH0 SWAP1 SLOAD SWAP1 PUSH2 0x100 EXP SWAP1 DIV PUSH20 0xFFFFFFFFFFFFFFFFFFFFFFFFFFFFFFFFFFFFFFFF AND PUSH2 0x383C JUMP JUMPDEST PUSH0 SWAP2 POP JUMPDEST DUP1 DUP1 PUSH1 0x1 ADD SWAP2 POP POP PUSH2 0x2AA6 JUMP JUMPDEST POP PUSH2 0x2BE0 PUSH2 0x394A JUMP JUMPDEST ISZERO PUSH2 0x2C0F JUMPI PUSH1 0x5 PUSH0 DUP1 PUSH2 0x100 EXP DUP2 SLOAD DUP2 PUSH1 0xFF MUL NOT AND SWAP1 DUP4 PUSH1 0x5 DUP2 GT ISZERO PUSH2 0x2C09 JUMPI PUSH2 0x2C08 PUSH2 0x3F0A JUMP JUMPDEST JUMPDEST MUL OR SWAP1 SSTORE POP JUMPDEST DUP1 ISZERO PUSH2 0x2C4B JUMPI PUSH2 0x2C1D PUSH2 0x39EB JUMP JUMPDEST PUSH1 0x5 PUSH0 DUP1 PUSH2 0x100 EXP DUP2 SLOAD DUP2 PUSH1 0xFF MUL NOT AND SWAP1 DUP4 PUSH1 0x5 DUP2 GT ISZERO PUSH2 0x2C41 JUMPI PUSH2 0x2C40 PUSH2 0x3F0A JUMP JUMPDEST JUMPDEST MUL OR SWAP1 SSTORE POP PUSH2 0x2C54 JUMP JUMPDEST PUSH2 0x2C53 PUSH2 0x32FE JUMP JUMPDEST JUMPDEST POP JUMPDEST JUMPDEST JUMPDEST JUMPDEST JUMP JUMPDEST PUSH1 0x2 DUP1 PUSH1 0x5 DUP2 GT ISZERO PUSH2 0x2C70 JUMPI PUSH2 0x2C6F PUSH2 0x3F0A JUMP JUMPDEST JUMPDEST PUSH0 DUP1 SLOAD SWAP1 PUSH2 0x100 EXP SWAP1 DIV PUSH1 0xFF AND PUSH1 0x5 DUP2 GT ISZERO PUSH2 0x2C8F JUMPI PUSH2 0x2C8E PUSH2 0x3F0A JUMP JUMPDEST JUMPDEST EQ PUSH2 0x2CCF JUMPI PUSH1 0x40 MLOAD PUSH32 0x8C379A000000000000000000000000000000000000000000000000000000000 DUP2 MSTORE PUSH1 0x4 ADD PUSH2 0x2CC6 SWAP1 PUSH2 0x441C JUMP JUMPDEST PUSH1 0x40 MLOAD DUP1 SWAP2 SUB SWAP1 REVERT JUMPDEST PUSH0 PUSH1 0xD PUSH0 CALLER PUSH20 0xFFFFFFFFFFFFFFFFFFFFFFFFFFFFFFFFFFFFFFFF AND PUSH20 0xFFFFFFFFFFFFFFFFFFFFFFFFFFFFFFFFFFFFFFFF AND DUP2 MSTORE PUSH1 0x20 ADD SWAP1 DUP2 MSTORE PUSH1 0x20 ADD PUSH0 KECCAK256 SLOAD EQ PUSH2 0x2D4E JUMPI PUSH1 0x40 MLOAD PUSH32 0x8C379A000000000000000000000000000000000000000000000000000000000 DUP2 MSTORE PUSH1 0x4 ADD PUSH2 0x2D45 SWAP1 PUSH2 0x5A69 JUMP JUMPDEST PUSH1 0x40 MLOAD DUP1 SWAP2 SUB SWAP1 REVERT JUMPDEST PUSH1 0x4 PUSH0 SWAP1 SLOAD SWAP1 PUSH2 0x100 EXP SWAP1 DIV PUSH20 0xFFFFFFFFFFFFFFFFFFFFFFFFFFFFFFFFFFFFFFFF AND PUSH20 0xFFFFFFFFFFFFFFFFFFFFFFFFFFFFFFFFFFFFFFFF AND CALLER PUSH20 0xFFFFFFFFFFFFFFFFFFFFFFFFFFFFFFFFFFFFFFFF AND SUB PUSH2 0x2EA0 JUMPI PUSH1 0x5 PUSH1 0xB SLOAD PUSH1 0x6 DUP2 LT PUSH2 0x2DB8 JUMPI PUSH2 0x2DB7 PUSH2 0x443A JUMP JUMPDEST JUMPDEST ADD SLOAD DUP3 PUSH1 0x40 MLOAD PUSH1 0x20 ADD PUSH2 0x2DCB SWAP2 SWAP1 PUSH2 0x457D JUMP JUMPDEST PUSH1 0x40 MLOAD PUSH1 0x20 DUP2 DUP4 SUB SUB DUP2 MSTORE SWAP1 PUSH1 0x40 MSTORE DUP1 MLOAD SWAP1 PUSH1 0x20 ADD KECCAK256 EQ PUSH2 0x2E21 JUMPI PUSH1 0x40 MLOAD PUSH32 0x8C379A000000000000000000000000000000000000000000000000000000000 DUP2 MSTORE PUSH1 0x4 ADD PUSH2 0x2E18 SWAP1 PUSH2 0x5AD1 JUMP JUMPDEST PUSH1 0x40 MLOAD DUP1 SWAP2 SUB SWAP1 REVERT JUMPDEST DUP2 PUSH1 0xD PUSH0 PUSH1 0x4 PUSH0 SWAP1 SLOAD SWAP1 PUSH2 0x100 EXP SWAP1 DIV PUSH20 0xFFFFFFFFFFFFFFFFFFFFFFFFFFFFFFFFFFFFFFFF AND PUSH20 0xFFFFFFFFFFFFFFFFFFFFFFFFFFFFFFFFFFFFFFFF AND PUSH20 0xFFFFFFFFFFFFFFFFFFFFFFFFFFFFFFFFFFFFFFFF AND DUP2 MSTORE PUSH1 0x20 ADD SWAP1 DUP2 MSTORE PUSH1 0x20 ADD PUSH0 KECCAK256 DUP2 SWAP1 SSTORE POP PUSH1 0xB PUSH0 DUP2 SLOAD DUP1 SWAP3 SWAP2 SWAP1 PUSH2 0x2E96 SWAP1 PUSH2 0x4652 JUMP JUMPDEST SWAP2 SWAP1 POP SSTORE POP PUSH2 0x2F8D JUMP JUMPDEST PUSH0 DUP3 PUSH1 0x40 MLOAD PUSH1 0x20 ADD PUSH2 0x2EB2 SWAP2 SWAP1 PUSH2 0x457D JUMP JUMPDEST PUSH1 0x40 MLOAD PUSH1 0x20 DUP2 DUP4 SUB SUB DUP2 MSTORE SWAP1 PUSH1 0x40 MSTORE DUP1 MLOAD SWAP1 PUSH1 0x20 ADD KECCAK256 SWAP1 POP PUSH1 0xC PUSH0 CALLER PUSH20 0xFFFFFFFFFFFFFFFFFFFFFFFFFFFFFFFFFFFFFFFF AND PUSH20 0xFFFFFFFFFFFFFFFFFFFFFFFFFFFFFFFFFFFFFFFF AND DUP2 MSTORE PUSH1 0x20 ADD SWAP1 DUP2 MSTORE PUSH1 0x20 ADD PUSH0 KECCAK256 SLOAD DUP2 EQ PUSH2 0x2F49 JUMPI PUSH1 0x40 MLOAD PUSH32 0x8C379A000000000000000000000000000000000000000000000000000000000 DUP2 MSTORE PUSH1 0x4 ADD PUSH2 0x2F40 SWAP1 PUSH2 0x5B39 JUMP JUMPDEST PUSH1 0x40 MLOAD DUP1 SWAP2 SUB SWAP1 REVERT JUMPDEST DUP3 PUSH1 0xD PUSH0 CALLER PUSH20 0xFFFFFFFFFFFFFFFFFFFFFFFFFFFFFFFFFFFFFFFF AND PUSH20 0xFFFFFFFFFFFFFFFFFFFFFFFFFFFFFFFFFFFFFFFF AND DUP2 MSTORE PUSH1 0x20 ADD SWAP1 DUP2 MSTORE PUSH1 0x20 ADD PUSH0 KECCAK256 DUP2 SWAP1 SSTORE POP POP JUMPDEST POP POP JUMP JUMPDEST PUSH0 DUP1 PUSH0 SWAP1 POP PUSH0 JUMPDEST DUP4 MLOAD DUP2 LT ISZERO PUSH2 0x2FE5 JUMPI DUP4 DUP2 DUP2 MLOAD DUP2 LT PUSH2 0x2FB4 JUMPI PUSH2 0x2FB3 PUSH2 0x443A JUMP JUMPDEST JUMPDEST PUSH1 0x20 MUL PUSH1 0x20 ADD ADD MLOAD PUSH1 0xFF AND PUSH1 0x64 DUP4 PUSH2 0x2FCC SWAP2 SWAP1 PUSH2 0x565A JUMP JUMPDEST PUSH2 0x2FD6 SWAP2 SWAP1 PUSH2 0x5729 JUMP JUMPDEST SWAP2 POP DUP1 DUP1 PUSH1 0x1 ADD SWAP2 POP POP PUSH2 0x2F98 JUMP JUMPDEST POP DUP1 SWAP2 POP POP SWAP2 SWAP1 POP JUMP JUMPDEST PUSH1 0x5 DUP1 DUP2 GT ISZERO PUSH2 0x3002 JUMPI PUSH2 0x3001 PUSH2 0x3F0A JUMP JUMPDEST JUMPDEST PUSH0 DUP1 SLOAD SWAP1 PUSH2 0x100 EXP SWAP1 DIV PUSH1 0xFF AND PUSH1 0x5 DUP2 GT ISZERO PUSH2 0x3021 JUMPI PUSH2 0x3020 PUSH2 0x3F0A JUMP JUMPDEST JUMPDEST EQ PUSH2 0x3061 JUMPI PUSH1 0x40 MLOAD PUSH32 0x8C379A000000000000000000000000000000000000000000000000000000000 DUP2 MSTORE PUSH1 0x4 ADD PUSH2 0x3058 SWAP1 PUSH2 0x5BC7 JUMP JUMPDEST PUSH1 0x40 MLOAD DUP1 SWAP2 SUB SWAP1 REVERT JUMPDEST PUSH0 DUP1 JUMPDEST PUSH1 0x1 DUP1 SLOAD SWAP1 POP DUP2 LT ISZERO PUSH2 0x3129 JUMPI DUP2 PUSH1 0xC PUSH0 PUSH1 0x1 DUP5 DUP2 SLOAD DUP2 LT PUSH2 0x3089 JUMPI PUSH2 0x3088 PUSH2 0x443A JUMP JUMPDEST JUMPDEST SWAP1 PUSH0 MSTORE PUSH1 0x20 PUSH0 KECCAK256 SWAP1 PUSH1 0x4 MUL ADD PUSH0 ADD PUSH0 SWAP1 SLOAD SWAP1 PUSH2 0x100 EXP SWAP1 DIV PUSH20 0xFFFFFFFFFFFFFFFFFFFFFFFFFFFFFFFFFFFFFFFF AND PUSH20 0xFFFFFFFFFFFFFFFFFFFFFFFFFFFFFFFFFFFFFFFF AND PUSH20 0xFFFFFFFFFFFFFFFFFFFFFFFFFFFFFFFFFFFFFFFF AND DUP2 MSTORE PUSH1 0x20 ADD SWAP1 DUP2 MSTORE PUSH1 0x20 ADD PUSH0 KECCAK256 SLOAD PUSH1 0x40 MLOAD PUSH1 0x20 ADD PUSH2 0x3102 SWAP3 SWAP2 SWAP1 PUSH2 0x5C05 JUMP JUMPDEST PUSH1 0x40 MLOAD PUSH1 0x20 DUP2 DUP4 SUB SUB DUP2 MSTORE SWAP1 PUSH1 0x40 MSTORE DUP1 MLOAD SWAP1 PUSH1 0x20 ADD KECCAK256 PUSH0 SHR SWAP2 POP DUP1 DUP1 PUSH1 0x1 ADD SWAP2 POP POP PUSH2 0x3064 JUMP JUMPDEST POP PUSH0 JUMPDEST PUSH1 0x11 PUSH20 0x0 PUSH4 0x345E3D68 PUSH1 0x3 PUSH1 0x40 MLOAD DUP3 PUSH4 0xFFFFFFFF AND PUSH1 0xE0 SHL DUP2 MSTORE PUSH1 0x4 ADD PUSH2 0x3166 SWAP2 SWAP1 PUSH2 0x544E JUMP JUMPDEST PUSH1 0x20 PUSH1 0x40 MLOAD DUP1 DUP4 SUB DUP2 DUP7 GAS DELEGATECALL ISZERO DUP1 ISZERO PUSH2 0x3181 JUMPI RETURNDATASIZE PUSH0 DUP1 RETURNDATACOPY RETURNDATASIZE PUSH0 REVERT JUMPDEST POP POP POP POP PUSH1 0x40 MLOAD RETURNDATASIZE PUSH1 0x1F NOT PUSH1 0x1F DUP3 ADD AND DUP3 ADD DUP1 PUSH1 0x40 MSTORE POP DUP2 ADD SWAP1 PUSH2 0x31A5 SWAP2 SWAP1 PUSH2 0x46F9 JUMP JUMPDEST PUSH1 0xFF AND LT ISZERO PUSH2 0x32FA JUMPI DUP1 PUSH2 0x322A PUSH1 0x3 DUP1 SLOAD DUP1 PUSH1 0x20 MUL PUSH1 0x20 ADD PUSH1 0x40 MLOAD SWAP1 DUP2 ADD PUSH1 0x40 MSTORE DUP1 SWAP3 SWAP2 SWAP1 DUP2 DUP2 MSTORE PUSH1 0x20 ADD DUP3 DUP1 SLOAD DUP1 ISZERO PUSH2 0x3220 JUMPI PUSH1 0x20 MUL DUP3 ADD SWAP2 SWAP1 PUSH0 MSTORE PUSH1 0x20 PUSH0 KECCAK256 SWAP1 PUSH0 SWAP1 JUMPDEST DUP3 DUP3 SWAP1 SLOAD SWAP1 PUSH2 0x100 EXP SWAP1 DIV PUSH1 0xFF AND PUSH1 0xFF AND DUP2 MSTORE PUSH1 0x20 ADD SWAP1 PUSH1 0x1 ADD SWAP1 PUSH1 0x20 DUP3 PUSH0 ADD DIV SWAP3 DUP4 ADD SWAP3 PUSH1 0x1 SUB DUP3 MUL SWAP2 POP DUP1 DUP5 GT PUSH2 0x31EA JUMPI SWAP1 POP JUMPDEST POP POP POP POP POP PUSH2 0x2F91 JUMP JUMPDEST PUSH2 0x3234 SWAP2 SWAP1 PUSH2 0x5729 JUMP JUMPDEST SWAP1 POP PUSH0 PUSH20 0x0 PUSH4 0x10F8B35C DUP5 DUP5 PUSH1 0x40 MLOAD DUP4 PUSH4 0xFFFFFFFF AND PUSH1 0xE0 SHL DUP2 MSTORE PUSH1 0x4 ADD PUSH2 0x3270 SWAP3 SWAP2 SWAP1 PUSH2 0x46A8 JUMP JUMPDEST PUSH1 0x20 PUSH1 0x40 MLOAD DUP1 DUP4 SUB DUP2 DUP7 GAS DELEGATECALL ISZERO DUP1 ISZERO PUSH2 0x328B JUMPI RETURNDATASIZE PUSH0 DUP1 RETURNDATACOPY RETURNDATASIZE PUSH0 REVERT JUMPDEST POP POP POP POP PUSH1 0x40 MLOAD RETURNDATASIZE PUSH1 0x1F NOT PUSH1 0x1F DUP3 ADD AND DUP3 ADD DUP1 PUSH1 0x40 MSTORE POP DUP2 ADD SWAP1 PUSH2 0x32AF SWAP2 SWAP1 PUSH2 0x46F9 JUMP JUMPDEST SWAP1 POP PUSH1 0x3 DUP2 SWAP1 DUP1 PUSH1 0x1 DUP2 SLOAD ADD DUP1 DUP3 SSTORE DUP1 SWAP2 POP POP PUSH1 0x1 SWAP1 SUB SWAP1 PUSH0 MSTORE PUSH1 0x20 PUSH0 KECCAK256 SWAP1 PUSH1 0x20 SWAP2 DUP3 DUP3 DIV ADD SWAP2 SWAP1 MOD SWAP1 SWAP2 SWAP1 SWAP2 SWAP1 SWAP2 PUSH2 0x100 EXP DUP2 SLOAD DUP2 PUSH1 0xFF MUL NOT AND SWAP1 DUP4 PUSH1 0xFF AND MUL OR SWAP1 SSTORE POP POP PUSH2 0x312C JUMP JUMPDEST POP POP JUMP JUMPDEST PUSH2 0x3306 PUSH2 0x3AF9 JUMP JUMPDEST PUSH1 0x12 DUP2 SWAP1 SSTORE POP JUMP JUMPDEST PUSH0 DUP1 PUSH0 SWAP1 POP JUMPDEST PUSH1 0x1 DUP1 SLOAD SWAP1 POP DUP2 LT ISZERO PUSH2 0x3414 JUMPI DUP3 PUSH20 0xFFFFFFFFFFFFFFFFFFFFFFFFFFFFFFFFFFFFFFFF AND PUSH1 0x1 DUP3 DUP2 SLOAD DUP2 LT PUSH2 0x334C JUMPI PUSH2 0x334B PUSH2 0x443A JUMP JUMPDEST JUMPDEST SWAP1 PUSH0 MSTORE PUSH1 0x20 PUSH0 KECCAK256 SWAP1 PUSH1 0x4 MUL ADD PUSH0 ADD PUSH0 SWAP1 SLOAD SWAP1 PUSH2 0x100 EXP SWAP1 DIV PUSH20 0xFFFFFFFFFFFFFFFFFFFFFFFFFFFFFFFFFFFFFFFF AND PUSH20 0xFFFFFFFFFFFFFFFFFFFFFFFFFFFFFFFFFFFFFFFF AND SUB PUSH2 0x3407 JUMPI PUSH1 0x1 DUP2 DUP2 SLOAD DUP2 LT PUSH2 0x33A9 JUMPI PUSH2 0x33A8 PUSH2 0x443A JUMP JUMPDEST JUMPDEST SWAP1 PUSH0 MSTORE PUSH1 0x20 PUSH0 KECCAK256 SWAP1 PUSH1 0x4 MUL ADD PUSH1 0x3 ADD PUSH0 SWAP1 SLOAD SWAP1 PUSH2 0x100 EXP SWAP1 DIV PUSH1 0xFF AND DUP1 ISZERO PUSH2 0x33FF JUMPI POP PUSH1 0x1 DUP2 DUP2 SLOAD DUP2 LT PUSH2 0x33E0 JUMPI PUSH2 0x33DF PUSH2 0x443A JUMP JUMPDEST JUMPDEST SWAP1 PUSH0 MSTORE PUSH1 0x20 PUSH0 KECCAK256 SWAP1 PUSH1 0x4 MUL ADD PUSH1 0x3 ADD PUSH1 0x1 SWAP1 SLOAD SWAP1 PUSH2 0x100 EXP SWAP1 DIV PUSH1 0xFF AND ISZERO JUMPDEST SWAP2 POP POP PUSH2 0x3419 JUMP JUMPDEST DUP1 DUP1 PUSH1 0x1 ADD SWAP2 POP POP PUSH2 0x3314 JUMP JUMPDEST POP PUSH0 SWAP1 POP JUMPDEST SWAP2 SWAP1 POP JUMP JUMPDEST PUSH1 0x3 DUP1 PUSH1 0x5 DUP2 GT ISZERO PUSH2 0x3433 JUMPI PUSH2 0x3432 PUSH2 0x3F0A JUMP JUMPDEST JUMPDEST PUSH0 DUP1 SLOAD SWAP1 PUSH2 0x100 EXP SWAP1 DIV PUSH1 0xFF AND PUSH1 0x5 DUP2 GT ISZERO PUSH2 0x3452 JUMPI PUSH2 0x3451 PUSH2 0x3F0A JUMP JUMPDEST JUMPDEST EQ PUSH2 0x3492 JUMPI PUSH1 0x40 MLOAD PUSH32 0x8C379A000000000000000000000000000000000000000000000000000000000 DUP2 MSTORE PUSH1 0x4 ADD PUSH2 0x3489 SWAP1 PUSH2 0x441C JUMP JUMPDEST PUSH1 0x40 MLOAD DUP1 SWAP2 SUB SWAP1 REVERT JUMPDEST PUSH1 0xF PUSH0 CALLER PUSH20 0xFFFFFFFFFFFFFFFFFFFFFFFFFFFFFFFFFFFFFFFF AND PUSH20 0xFFFFFFFFFFFFFFFFFFFFFFFFFFFFFFFFFFFFFFFF AND DUP2 MSTORE PUSH1 0x20 ADD SWAP1 DUP2 MSTORE PUSH1 0x20 ADD PUSH0 KECCAK256 PUSH0 SWAP1 SLOAD SWAP1 PUSH2 0x100 EXP SWAP1 DIV PUSH1 0xFF AND ISZERO PUSH2 0x351C JUMPI PUSH1 0x40 MLOAD PUSH32 0x8C379A000000000000000000000000000000000000000000000000000000000 DUP2 MSTORE PUSH1 0x4 ADD PUSH2 0x3513 SWAP1 PUSH2 0x5C7A JUMP JUMPDEST PUSH1 0x40 MLOAD DUP1 SWAP2 SUB SWAP1 REVERT JUMPDEST DUP2 PUSH1 0xE PUSH0 CALLER PUSH20 0xFFFFFFFFFFFFFFFFFFFFFFFFFFFFFFFFFFFFFFFF AND PUSH20 0xFFFFFFFFFFFFFFFFFFFFFFFFFFFFFFFFFFFFFFFF AND DUP2 MSTORE PUSH1 0x20 ADD SWAP1 DUP2 MSTORE PUSH1 0x20 ADD PUSH0 KECCAK256 PUSH0 PUSH2 0x100 EXP DUP2 SLOAD DUP2 PUSH1 0xFF MUL NOT AND SWAP1 DUP4 ISZERO ISZERO MUL OR SWAP1 SSTORE POP PUSH1 0x1 PUSH1 0xF PUSH0 CALLER PUSH20 0xFFFFFFFFFFFFFFFFFFFFFFFFFFFFFFFFFFFFFFFF AND PUSH20 0xFFFFFFFFFFFFFFFFFFFFFFFFFFFFFFFFFFFFFFFF AND DUP2 MSTORE PUSH1 0x20 ADD SWAP1 DUP2 MSTORE PUSH1 0x20 ADD PUSH0 KECCAK256 PUSH0 PUSH2 0x100 EXP DUP2 SLOAD DUP2 PUSH1 0xFF MUL NOT AND SWAP1 DUP4 ISZERO ISZERO MUL OR SWAP1 SSTORE POP DUP2 PUSH2 0x369B JUMPI PUSH0 JUMPDEST PUSH1 0x1 DUP1 SLOAD SWAP1 POP DUP2 LT ISZERO PUSH2 0x3699 JUMPI CALLER PUSH20 0xFFFFFFFFFFFFFFFFFFFFFFFFFFFFFFFFFFFFFFFF AND PUSH1 0x1 DUP3 DUP2 SLOAD DUP2 LT PUSH2 0x3604 JUMPI PUSH2 0x3603 PUSH2 0x443A JUMP JUMPDEST JUMPDEST SWAP1 PUSH0 MSTORE PUSH1 0x20 PUSH0 KECCAK256 SWAP1 PUSH1 0x4 MUL ADD PUSH0 ADD PUSH0 SWAP1 SLOAD SWAP1 PUSH2 0x100 EXP SWAP1 DIV PUSH20 0xFFFFFFFFFFFFFFFFFFFFFFFFFFFFFFFFFFFFFFFF AND PUSH20 0xFFFFFFFFFFFFFFFFFFFFFFFFFFFFFFFFFFFFFFFF AND SUB PUSH2 0x368C JUMPI PUSH0 PUSH1 0x1 DUP3 DUP2 SLOAD DUP2 LT PUSH2 0x3662 JUMPI PUSH2 0x3661 PUSH2 0x443A JUMP JUMPDEST JUMPDEST SWAP1 PUSH0 MSTORE PUSH1 0x20 PUSH0 KECCAK256 SWAP1 PUSH1 0x4 MUL ADD PUSH1 0x3 ADD PUSH0 PUSH2 0x100 EXP DUP2 SLOAD DUP2 PUSH1 0xFF MUL NOT AND SWAP1 DUP4 ISZERO ISZERO MUL OR SWAP1 SSTORE POP PUSH2 0x3699 JUMP JUMPDEST DUP1 DUP1 PUSH1 0x1 ADD SWAP2 POP POP PUSH2 0x35CC JUMP JUMPDEST POP JUMPDEST POP POP JUMP JUMPDEST PUSH1 0x60 PUSH1 0x1 DUP3 PUSH1 0xFF AND SUB PUSH2 0x36E9 JUMPI PUSH1 0x40 MLOAD DUP1 PUSH1 0x40 ADD PUSH1 0x40 MSTORE DUP1 PUSH1 0x1 DUP2 MSTORE PUSH1 0x20 ADD PUSH32 0x4100000000000000000000000000000000000000000000000000000000000000 DUP2 MSTORE POP SWAP1 POP PUSH2 0x382C JUMP JUMPDEST PUSH1 0x2 DUP3 PUSH1 0xFF AND LT ISZERO DUP1 ISZERO PUSH2 0x3701 JUMPI POP PUSH1 0xA DUP3 PUSH1 0xFF AND GT ISZERO JUMPDEST ISZERO PUSH2 0x3719 JUMPI PUSH2 0x3712 DUP3 PUSH1 0xFF AND PUSH2 0x3B0C JUMP JUMPDEST SWAP1 POP PUSH2 0x382C JUMP JUMPDEST PUSH1 0xB DUP3 PUSH1 0xFF AND SUB PUSH2 0x3761 JUMPI PUSH1 0x40 MLOAD DUP1 PUSH1 0x40 ADD PUSH1 0x40 MSTORE DUP1 PUSH1 0x1 DUP2 MSTORE PUSH1 0x20 ADD PUSH32 0x4A00000000000000000000000000000000000000000000000000000000000000 DUP2 MSTORE POP SWAP1 POP PUSH2 0x382C JUMP JUMPDEST PUSH1 0xC DUP3 PUSH1 0xFF AND SUB PUSH2 0x37A9 JUMPI PUSH1 0x40 MLOAD DUP1 PUSH1 0x40 ADD PUSH1 0x40 MSTORE DUP1 PUSH1 0x1 DUP2 MSTORE PUSH1 0x20 ADD PUSH32 0x5100000000000000000000000000000000000000000000000000000000000000 DUP2 MSTORE POP SWAP1 POP PUSH2 0x382C JUMP JUMPDEST PUSH1 0xD DUP3 PUSH1 0xFF AND SUB PUSH2 0x37F1 JUMPI PUSH1 0x40 MLOAD DUP1 PUSH1 0x40 ADD PUSH1 0x40 MSTORE DUP1 PUSH1 0x1 DUP2 MSTORE PUSH1 0x20 ADD PUSH32 0x4B00000000000000000000000000000000000000000000000000000000000000 DUP2 MSTORE POP SWAP1 POP PUSH2 0x382C JUMP JUMPDEST PUSH1 0x40 MLOAD PUSH32 0x8C379A000000000000000000000000000000000000000000000000000000000 DUP2 MSTORE PUSH1 0x4 ADD PUSH2 0x3823 SWAP1 PUSH2 0x5CE2 JUMP JUMPDEST PUSH1 0x40 MLOAD DUP1 SWAP2 SUB SWAP1 REVERT JUMPDEST SWAP2 SWAP1 POP JUMP JUMPDEST PUSH0 DUP2 TIMESTAMP GT SWAP1 POP SWAP2 SWAP1 POP JUMP JUMPDEST PUSH0 JUMPDEST PUSH1 0x1 DUP1 SLOAD SWAP1 POP DUP2 LT ISZERO PUSH2 0x3946 JUMPI DUP2 PUSH20 0xFFFFFFFFFFFFFFFFFFFFFFFFFFFFFFFFFFFFFFFF AND PUSH1 0x1 DUP3 DUP2 SLOAD DUP2 LT PUSH2 0x3876 JUMPI PUSH2 0x3875 PUSH2 0x443A JUMP JUMPDEST JUMPDEST SWAP1 PUSH0 MSTORE PUSH1 0x20 PUSH0 KECCAK256 SWAP1 PUSH1 0x4 MUL ADD PUSH0 ADD PUSH0 SWAP1 SLOAD SWAP1 PUSH2 0x100 EXP SWAP1 DIV PUSH20 0xFFFFFFFFFFFFFFFFFFFFFFFFFFFFFFFFFFFFFFFF AND PUSH20 0xFFFFFFFFFFFFFFFFFFFFFFFFFFFFFFFFFFFFFFFF AND SUB PUSH2 0x3939 JUMPI PUSH0 PUSH1 0x1 DUP3 DUP2 SLOAD DUP2 LT PUSH2 0x38D4 JUMPI PUSH2 0x38D3 PUSH2 0x443A JUMP JUMPDEST JUMPDEST SWAP1 PUSH0 MSTORE PUSH1 0x20 PUSH0 KECCAK256 SWAP1 PUSH1 0x4 MUL ADD PUSH1 0x3 ADD PUSH0 PUSH2 0x100 EXP DUP2 SLOAD DUP2 PUSH1 0xFF MUL NOT AND SWAP1 DUP4 ISZERO ISZERO MUL OR SWAP1 SSTORE POP PUSH1 0x1 DUP1 DUP3 DUP2 SLOAD DUP2 LT PUSH2 0x390E JUMPI PUSH2 0x390D PUSH2 0x443A JUMP JUMPDEST JUMPDEST SWAP1 PUSH0 MSTORE PUSH1 0x20 PUSH0 KECCAK256 SWAP1 PUSH1 0x4 MUL ADD PUSH1 0x3 ADD PUSH1 0x1 PUSH2 0x100 EXP DUP2 SLOAD DUP2 PUSH1 0xFF MUL NOT AND SWAP1 DUP4 ISZERO ISZERO MUL OR SWAP1 SSTORE POP PUSH2 0x3946 JUMP JUMPDEST DUP1 DUP1 PUSH1 0x1 ADD SWAP2 POP POP PUSH2 0x383E JUMP JUMPDEST POP POP JUMP JUMPDEST PUSH0 DUP1 PUSH0 SWAP1 POP JUMPDEST PUSH1 0x1 DUP1 SLOAD SWAP1 POP DUP2 LT ISZERO PUSH2 0x39E2 JUMPI PUSH1 0x1 DUP2 DUP2 SLOAD DUP2 LT PUSH2 0x3971 JUMPI PUSH2 0x3970 PUSH2 0x443A JUMP JUMPDEST JUMPDEST SWAP1 PUSH0 MSTORE PUSH1 0x20 PUSH0 KECCAK256 SWAP1 PUSH1 0x4 MUL ADD PUSH1 0x3 ADD PUSH0 SWAP1 SLOAD SWAP1 PUSH2 0x100 EXP SWAP1 DIV PUSH1 0xFF AND DUP1 ISZERO PUSH2 0x39C7 JUMPI POP PUSH1 0x1 DUP2 DUP2 SLOAD DUP2 LT PUSH2 0x39A8 JUMPI PUSH2 0x39A7 PUSH2 0x443A JUMP JUMPDEST JUMPDEST SWAP1 PUSH0 MSTORE PUSH1 0x20 PUSH0 KECCAK256 SWAP1 PUSH1 0x4 MUL ADD PUSH1 0x3 ADD PUSH1 0x1 SWAP1 SLOAD SWAP1 PUSH2 0x100 EXP SWAP1 DIV PUSH1 0xFF AND ISZERO JUMPDEST ISZERO PUSH2 0x39D5 JUMPI PUSH0 SWAP2 POP POP PUSH2 0x39E8 JUMP JUMPDEST DUP1 DUP1 PUSH1 0x1 ADD SWAP2 POP POP PUSH2 0x3950 JUMP JUMPDEST POP PUSH1 0x1 SWAP1 POP JUMPDEST SWAP1 JUMP JUMPDEST PUSH0 JUMPDEST PUSH1 0x1 DUP1 SLOAD SWAP1 POP DUP2 LT ISZERO PUSH2 0x3AF6 JUMPI PUSH1 0x1 DUP2 DUP2 SLOAD DUP2 LT PUSH2 0x3A0E JUMPI PUSH2 0x3A0D PUSH2 0x443A JUMP JUMPDEST JUMPDEST SWAP1 PUSH0 MSTORE PUSH1 0x20 PUSH0 KECCAK256 SWAP1 PUSH1 0x4 MUL ADD PUSH1 0x3 ADD PUSH0 SWAP1 SLOAD SWAP1 PUSH2 0x100 EXP SWAP1 DIV PUSH1 0xFF AND ISZERO PUSH2 0x3AE9 JUMPI PUSH0 PUSH1 0x2 PUSH1 0x1 DUP4 DUP2 SLOAD DUP2 LT PUSH2 0x3A46 JUMPI PUSH2 0x3A45 PUSH2 0x443A JUMP JUMPDEST JUMPDEST SWAP1 PUSH0 MSTORE PUSH1 0x20 PUSH0 KECCAK256 SWAP1 PUSH1 0x4 MUL ADD PUSH1 0x1 ADD SLOAD PUSH2 0x3A60 SWAP2 SWAP1 PUSH2 0x565A JUMP JUMPDEST SWAP1 POP PUSH1 0x1 DUP3 DUP2 SLOAD DUP2 LT PUSH2 0x3A76 JUMPI PUSH2 0x3A75 PUSH2 0x443A JUMP JUMPDEST JUMPDEST SWAP1 PUSH0 MSTORE PUSH1 0x20 PUSH0 KECCAK256 SWAP1 PUSH1 0x4 MUL ADD PUSH0 ADD PUSH0 SWAP1 SLOAD SWAP1 PUSH2 0x100 EXP SWAP1 DIV PUSH20 0xFFFFFFFFFFFFFFFFFFFFFFFFFFFFFFFFFFFFFFFF AND PUSH20 0xFFFFFFFFFFFFFFFFFFFFFFFFFFFFFFFFFFFFFFFF AND PUSH2 0x8FC DUP3 SWAP1 DUP2 ISZERO MUL SWAP1 PUSH1 0x40 MLOAD PUSH0 PUSH1 0x40 MLOAD DUP1 DUP4 SUB DUP2 DUP6 DUP9 DUP9 CALL SWAP4 POP POP POP POP ISZERO DUP1 ISZERO PUSH2 0x3AE6 JUMPI RETURNDATASIZE PUSH0 DUP1 RETURNDATACOPY RETURNDATASIZE PUSH0 REVERT JUMPDEST POP POP JUMPDEST DUP1 DUP1 PUSH1 0x1 ADD SWAP2 POP POP PUSH2 0x39ED JUMP JUMPDEST POP JUMP JUMPDEST PUSH0 PUSH1 0x3C TIMESTAMP PUSH2 0x3B07 SWAP2 SWAP1 PUSH2 0x5729 JUMP JUMPDEST SWAP1 POP SWAP1 JUMP JUMPDEST PUSH1 0x60 PUSH0 DUP3 SUB PUSH2 0x3B52 JUMPI PUSH1 0x40 MLOAD DUP1 PUSH1 0x40 ADD PUSH1 0x40 MSTORE DUP1 PUSH1 0x1 DUP2 MSTORE PUSH1 0x20 ADD PUSH32 0x3000000000000000000000000000000000000000000000000000000000000000 DUP2 MSTORE POP SWAP1 POP PUSH2 0x3C80 JUMP JUMPDEST PUSH0 DUP3 SWAP1 POP PUSH0 JUMPDEST PUSH0 DUP3 EQ PUSH2 0x3B81 JUMPI DUP1 DUP1 PUSH2 0x3B6A SWAP1 PUSH2 0x4652 JUMP JUMPDEST SWAP2 POP POP PUSH1 0xA DUP3 PUSH2 0x3B7A SWAP2 SWAP1 PUSH2 0x5D2D JUMP JUMPDEST SWAP2 POP PUSH2 0x3B58 JUMP JUMPDEST PUSH0 DUP2 PUSH8 0xFFFFFFFFFFFFFFFF DUP2 GT ISZERO PUSH2 0x3B9C JUMPI PUSH2 0x3B9B PUSH2 0x57C4 JUMP JUMPDEST JUMPDEST PUSH1 0x40 MLOAD SWAP1 DUP1 DUP3 MSTORE DUP1 PUSH1 0x1F ADD PUSH1 0x1F NOT AND PUSH1 0x20 ADD DUP3 ADD PUSH1 0x40 MSTORE DUP1 ISZERO PUSH2 0x3BCE JUMPI DUP2 PUSH1 0x20 ADD PUSH1 0x1 DUP3 MUL DUP1 CALLDATASIZE DUP4 CALLDATACOPY DUP1 DUP3 ADD SWAP2 POP POP SWAP1 POP JUMPDEST POP SWAP1 POP PUSH0 DUP3 SWAP1 POP JUMPDEST PUSH0 DUP7 EQ PUSH2 0x3C78 JUMPI PUSH1 0x1 DUP2 PUSH2 0x3BEA SWAP2 SWAP1 PUSH2 0x5D5D JUMP JUMPDEST SWAP1 POP PUSH0 PUSH1 0xA DUP1 DUP9 PUSH2 0x3BFB SWAP2 SWAP1 PUSH2 0x5D2D JUMP JUMPDEST PUSH2 0x3C05 SWAP2 SWAP1 PUSH2 0x565A JUMP JUMPDEST DUP8 PUSH2 0x3C10 SWAP2 SWAP1 PUSH2 0x5D5D JUMP JUMPDEST PUSH1 0x30 PUSH2 0x3C1C SWAP2 SWAP1 PUSH2 0x5D90 JUMP JUMPDEST SWAP1 POP DUP1 PUSH1 0xF8 SHL DUP4 DUP4 DUP2 MLOAD DUP2 LT PUSH2 0x3C35 JUMPI PUSH2 0x3C34 PUSH2 0x443A JUMP JUMPDEST JUMPDEST PUSH1 0x20 ADD ADD SWAP1 PUSH31 0xFFFFFFFFFFFFFFFFFFFFFFFFFFFFFFFFFFFFFFFFFFFFFFFFFFFFFFFFFFFFFF NOT AND SWAP1 DUP2 PUSH0 BYTE SWAP1 MSTORE8 POP PUSH1 0xA DUP8 PUSH2 0x3C70 SWAP2 SWAP1 PUSH2 0x5D2D JUMP JUMPDEST SWAP7 POP POP PUSH2 0x3BD6 JUMP JUMPDEST DUP2 SWAP5 POP POP POP POP POP JUMPDEST SWAP2 SWAP1 POP JUMP JUMPDEST DUP3 DUP1 SLOAD DUP3 DUP3 SSTORE SWAP1 PUSH0 MSTORE PUSH1 0x20 PUSH0 KECCAK256 SWAP1 PUSH1 0x1F ADD PUSH1 0x20 SWAP1 DIV DUP2 ADD SWAP3 DUP3 ISZERO PUSH2 0x3D16 JUMPI SWAP2 PUSH1 0x20 MUL DUP3 ADD PUSH0 JUMPDEST DUP4 DUP3 GT ISZERO PUSH2 0x3CE8 JUMPI DUP4 MLOAD DUP4 DUP3 PUSH2 0x100 EXP DUP2 SLOAD DUP2 PUSH1 0xFF MUL NOT AND SWAP1 DUP4 PUSH1 0xFF AND MUL OR SWAP1 SSTORE POP SWAP3 PUSH1 0x20 ADD SWAP3 PUSH1 0x1 ADD PUSH1 0x20 DUP2 PUSH0 ADD DIV SWAP3 DUP4 ADD SWAP3 PUSH1 0x1 SUB MUL PUSH2 0x3CAB JUMP JUMPDEST DUP1 ISZERO PUSH2 0x3D14 JUMPI DUP3 DUP2 PUSH2 0x100 EXP DUP2 SLOAD SWAP1 PUSH1 0xFF MUL NOT AND SWAP1 SSTORE PUSH1 0x1 ADD PUSH1 0x20 DUP2 PUSH0 ADD DIV SWAP3 DUP4 ADD SWAP3 PUSH1 0x1 SUB MUL PUSH2 0x3CE8 JUMP JUMPDEST POP JUMPDEST POP SWAP1 POP PUSH2 0x3D23 SWAP2 SWAP1 PUSH2 0x3D27 JUMP JUMPDEST POP SWAP1 JUMP JUMPDEST JUMPDEST DUP1 DUP3 GT ISZERO PUSH2 0x3D3E JUMPI PUSH0 DUP2 PUSH0 SWAP1 SSTORE POP PUSH1 0x1 ADD PUSH2 0x3D28 JUMP JUMPDEST POP SWAP1 JUMP JUMPDEST PUSH0 DUP1 REVERT JUMPDEST PUSH0 DUP2 SWAP1 POP SWAP2 SWAP1 POP JUMP JUMPDEST PUSH2 0x3D58 DUP2 PUSH2 0x3D46 JUMP JUMPDEST DUP2 EQ PUSH2 0x3D62 JUMPI PUSH0 DUP1 REVERT JUMPDEST POP JUMP JUMPDEST PUSH0 DUP2 CALLDATALOAD SWAP1 POP PUSH2 0x3D73 DUP2 PUSH2 0x3D4F JUMP JUMPDEST SWAP3 SWAP2 POP POP JUMP JUMPDEST PUSH0 PUSH1 0x20 DUP3 DUP5 SUB SLT ISZERO PUSH2 0x3D8E JUMPI PUSH2 0x3D8D PUSH2 0x3D42 JUMP JUMPDEST JUMPDEST PUSH0 PUSH2 0x3D9B DUP5 DUP3 DUP6 ADD PUSH2 0x3D65 JUMP JUMPDEST SWAP2 POP POP SWAP3 SWAP2 POP POP JUMP JUMPDEST PUSH2 0x3DAD DUP2 PUSH2 0x3D46 JUMP JUMPDEST DUP3 MSTORE POP POP JUMP JUMPDEST PUSH0 PUSH1 0x20 DUP3 ADD SWAP1 POP PUSH2 0x3DC6 PUSH0 DUP4 ADD DUP5 PUSH2 0x3DA4 JUMP JUMPDEST SWAP3 SWAP2 POP POP JUMP JUMPDEST PUSH0 DUP2 SWAP1 POP SWAP2 SWAP1 POP JUMP JUMPDEST PUSH2 0x3DDE DUP2 PUSH2 0x3DCC JUMP JUMPDEST DUP2 EQ PUSH2 0x3DE8 JUMPI PUSH0 DUP1 REVERT JUMPDEST POP JUMP JUMPDEST PUSH0 DUP2 CALLDATALOAD SWAP1 POP PUSH2 0x3DF9 DUP2 PUSH2 0x3DD5 JUMP JUMPDEST SWAP3 SWAP2 POP POP JUMP JUMPDEST PUSH0 PUSH1 0x20 DUP3 DUP5 SUB SLT ISZERO PUSH2 0x3E14 JUMPI PUSH2 0x3E13 PUSH2 0x3D42 JUMP JUMPDEST JUMPDEST PUSH0 PUSH2 0x3E21 DUP5 DUP3 DUP6 ADD PUSH2 0x3DEB JUMP JUMPDEST SWAP2 POP POP SWAP3 SWAP2 POP POP JUMP JUMPDEST PUSH0 DUP2 ISZERO ISZERO SWAP1 POP SWAP2 SWAP1 POP JUMP JUMPDEST PUSH2 0x3E3E DUP2 PUSH2 0x3E2A JUMP JUMPDEST DUP3 MSTORE POP POP JUMP JUMPDEST PUSH0 PUSH1 0x20 DUP3 ADD SWAP1 POP PUSH2 0x3E57 PUSH0 DUP4 ADD DUP5 PUSH2 0x3E35 JUMP JUMPDEST SWAP3 SWAP2 POP POP JUMP JUMPDEST PUSH0 PUSH20 0xFFFFFFFFFFFFFFFFFFFFFFFFFFFFFFFFFFFFFFFF DUP3 AND SWAP1 POP SWAP2 SWAP1 POP JUMP JUMPDEST PUSH0 PUSH2 0x3E86 DUP3 PUSH2 0x3E5D JUMP JUMPDEST SWAP1 POP SWAP2 SWAP1 POP JUMP JUMPDEST PUSH2 0x3E96 DUP2 PUSH2 0x3E7C JUMP JUMPDEST DUP2 EQ PUSH2 0x3EA0 JUMPI PUSH0 DUP1 REVERT JUMPDEST POP JUMP JUMPDEST PUSH0 DUP2 CALLDATALOAD SWAP1 POP PUSH2 0x3EB1 DUP2 PUSH2 0x3E8D JUMP JUMPDEST SWAP3 SWAP2 POP POP JUMP JUMPDEST PUSH0 PUSH1 0x20 DUP3 DUP5 SUB SLT ISZERO PUSH2 0x3ECC JUMPI PUSH2 0x3ECB PUSH2 0x3D42 JUMP JUMPDEST JUMPDEST PUSH0 PUSH2 0x3ED9 DUP5 DUP3 DUP6 ADD PUSH2 0x3EA3 JUMP JUMPDEST SWAP2 POP POP SWAP3 SWAP2 POP POP JUMP JUMPDEST PUSH2 0x3EEB DUP2 PUSH2 0x3DCC JUMP JUMPDEST DUP3 MSTORE POP POP JUMP JUMPDEST PUSH0 PUSH1 0x20 DUP3 ADD SWAP1 POP PUSH2 0x3F04 PUSH0 DUP4 ADD DUP5 PUSH2 0x3EE2 JUMP JUMPDEST SWAP3 SWAP2 POP POP JUMP JUMPDEST PUSH32 0x4E487B7100000000000000000000000000000000000000000000000000000000 PUSH0 MSTORE PUSH1 0x21 PUSH1 0x4 MSTORE PUSH1 0x24 PUSH0 REVERT JUMPDEST PUSH1 0x6 DUP2 LT PUSH2 0x3F48 JUMPI PUSH2 0x3F47 PUSH2 0x3F0A JUMP JUMPDEST JUMPDEST POP JUMP JUMPDEST PUSH0 DUP2 SWAP1 POP PUSH2 0x3F58 DUP3 PUSH2 0x3F37 JUMP JUMPDEST SWAP2 SWAP1 POP JUMP JUMPDEST PUSH0 PUSH2 0x3F67 DUP3 PUSH2 0x3F4B JUMP JUMPDEST SWAP1 POP SWAP2 SWAP1 POP JUMP JUMPDEST PUSH2 0x3F77 DUP2 PUSH2 0x3F5D JUMP JUMPDEST DUP3 MSTORE POP POP JUMP JUMPDEST PUSH0 PUSH1 0x20 DUP3 ADD SWAP1 POP PUSH2 0x3F90 PUSH0 DUP4 ADD DUP5 PUSH2 0x3F6E JUMP JUMPDEST SWAP3 SWAP2 POP POP JUMP JUMPDEST PUSH0 DUP2 MLOAD SWAP1 POP SWAP2 SWAP1 POP JUMP JUMPDEST PUSH0 DUP3 DUP3 MSTORE PUSH1 0x20 DUP3 ADD SWAP1 POP SWAP3 SWAP2 POP POP JUMP JUMPDEST PUSH0 DUP2 SWAP1 POP PUSH1 0x20 DUP3 ADD SWAP1 POP SWAP2 SWAP1 POP JUMP JUMPDEST PUSH0 DUP2 MLOAD SWAP1 POP SWAP2 SWAP1 POP JUMP JUMPDEST PUSH0 DUP3 DUP3 MSTORE PUSH1 0x20 DUP3 ADD SWAP1 POP SWAP3 SWAP2 POP POP JUMP JUMPDEST DUP3 DUP2 DUP4 MCOPY PUSH0 DUP4 DUP4 ADD MSTORE POP POP POP JUMP JUMPDEST PUSH0 PUSH1 0x1F NOT PUSH1 0x1F DUP4 ADD AND SWAP1 POP SWAP2 SWAP1 POP JUMP JUMPDEST PUSH0 PUSH2 0x4001 DUP3 PUSH2 0x3FBF JUMP JUMPDEST PUSH2 0x400B DUP2 DUP6 PUSH2 0x3FC9 JUMP JUMPDEST SWAP4 POP PUSH2 0x401B DUP2 DUP6 PUSH1 0x20 DUP7 ADD PUSH2 0x3FD9 JUMP JUMPDEST PUSH2 0x4024 DUP2 PUSH2 0x3FE7 JUMP JUMPDEST DUP5 ADD SWAP2 POP POP SWAP3 SWAP2 POP POP JUMP JUMPDEST PUSH0 PUSH2 0x403A DUP4 DUP4 PUSH2 0x3FF7 JUMP JUMPDEST SWAP1 POP SWAP3 SWAP2 POP POP JUMP JUMPDEST PUSH0 PUSH1 0x20 DUP3 ADD SWAP1 POP SWAP2 SWAP1 POP JUMP JUMPDEST PUSH0 PUSH2 0x4058 DUP3 PUSH2 0x3F96 JUMP JUMPDEST PUSH2 0x4062 DUP2 DUP6 PUSH2 0x3FA0 JUMP JUMPDEST SWAP4 POP DUP4 PUSH1 0x20 DUP3 MUL DUP6 ADD PUSH2 0x4074 DUP6 PUSH2 0x3FB0 JUMP JUMPDEST DUP1 PUSH0 JUMPDEST DUP6 DUP2 LT ISZERO PUSH2 0x40AF JUMPI DUP5 DUP5 SUB DUP10 MSTORE DUP2 MLOAD PUSH2 0x4090 DUP6 DUP3 PUSH2 0x402F JUMP JUMPDEST SWAP5 POP PUSH2 0x409B DUP4 PUSH2 0x4042 JUMP JUMPDEST SWAP3 POP PUSH1 0x20 DUP11 ADD SWAP10 POP POP PUSH1 0x1 DUP2 ADD SWAP1 POP PUSH2 0x4077 JUMP JUMPDEST POP DUP3 SWAP8 POP DUP8 SWAP6 POP POP POP POP POP POP SWAP3 SWAP2 POP POP JUMP JUMPDEST PUSH0 DUP2 MLOAD SWAP1 POP SWAP2 SWAP1 POP JUMP JUMPDEST PUSH0 DUP3 DUP3 MSTORE PUSH1 0x20 DUP3 ADD SWAP1 POP SWAP3 SWAP2 POP POP JUMP JUMPDEST PUSH0 DUP2 SWAP1 POP PUSH1 0x20 DUP3 ADD SWAP1 POP SWAP2 SWAP1 POP JUMP JUMPDEST PUSH0 DUP3 DUP3 MSTORE PUSH1 0x20 DUP3 ADD SWAP1 POP SWAP3 SWAP2 POP POP JUMP JUMPDEST PUSH0 PUSH2 0x4104 DUP3 PUSH2 0x3F96 JUMP JUMPDEST PUSH2 0x410E DUP2 DUP6 PUSH2 0x40EA JUMP JUMPDEST SWAP4 POP DUP4 PUSH1 0x20 DUP3 MUL DUP6 ADD PUSH2 0x4120 DUP6 PUSH2 0x3FB0 JUMP JUMPDEST DUP1 PUSH0 JUMPDEST DUP6 DUP2 LT ISZERO PUSH2 0x415B JUMPI DUP5 DUP5 SUB DUP10 MSTORE DUP2 MLOAD PUSH2 0x413C DUP6 DUP3 PUSH2 0x402F JUMP JUMPDEST SWAP5 POP PUSH2 0x4147 DUP4 PUSH2 0x4042 JUMP JUMPDEST SWAP3 POP PUSH1 0x20 DUP11 ADD SWAP10 POP POP PUSH1 0x1 DUP2 ADD SWAP1 POP PUSH2 0x4123 JUMP JUMPDEST POP DUP3 SWAP8 POP DUP8 SWAP6 POP POP POP POP POP POP SWAP3 SWAP2 POP POP JUMP JUMPDEST PUSH0 PUSH2 0x4178 DUP4 DUP4 PUSH2 0x40FA JUMP JUMPDEST SWAP1 POP SWAP3 SWAP2 POP POP JUMP JUMPDEST PUSH0 PUSH1 0x20 DUP3 ADD SWAP1 POP SWAP2 SWAP1 POP JUMP JUMPDEST PUSH0 PUSH2 0x4196 DUP3 PUSH2 0x40C1 JUMP JUMPDEST PUSH2 0x41A0 DUP2 DUP6 PUSH2 0x40CB JUMP JUMPDEST SWAP4 POP DUP4 PUSH1 0x20 DUP3 MUL DUP6 ADD PUSH2 0x41B2 DUP6 PUSH2 0x40DB JUMP JUMPDEST DUP1 PUSH0 JUMPDEST DUP6 DUP2 LT ISZERO PUSH2 0x41ED JUMPI DUP5 DUP5 SUB DUP10 MSTORE DUP2 MLOAD PUSH2 0x41CE DUP6 DUP3 PUSH2 0x416D JUMP JUMPDEST SWAP5 POP PUSH2 0x41D9 DUP4 PUSH2 0x4180 JUMP JUMPDEST SWAP3 POP PUSH1 0x20 DUP11 ADD SWAP10 POP POP PUSH1 0x1 DUP2 ADD SWAP1 POP PUSH2 0x41B5 JUMP JUMPDEST POP DUP3 SWAP8 POP DUP8 SWAP6 POP POP POP POP POP POP SWAP3 SWAP2 POP POP JUMP JUMPDEST PUSH0 PUSH1 0x40 DUP3 ADD SWAP1 POP DUP2 DUP2 SUB PUSH0 DUP4 ADD MSTORE PUSH2 0x4217 DUP2 DUP6 PUSH2 0x404E JUMP JUMPDEST SWAP1 POP DUP2 DUP2 SUB PUSH1 0x20 DUP4 ADD MSTORE PUSH2 0x422B DUP2 DUP5 PUSH2 0x418C JUMP JUMPDEST SWAP1 POP SWAP4 SWAP3 POP POP POP JUMP JUMPDEST PUSH0 DUP2 MLOAD SWAP1 POP SWAP2 SWAP1 POP JUMP JUMPDEST PUSH0 DUP3 DUP3 MSTORE PUSH1 0x20 DUP3 ADD SWAP1 POP SWAP3 SWAP2 POP POP JUMP JUMPDEST PUSH0 DUP2 SWAP1 POP PUSH1 0x20 DUP3 ADD SWAP1 POP SWAP2 SWAP1 POP JUMP JUMPDEST PUSH0 PUSH1 0xFF DUP3 AND SWAP1 POP SWAP2 SWAP1 POP JUMP JUMPDEST PUSH2 0x4272 DUP2 PUSH2 0x425D JUMP JUMPDEST DUP3 MSTORE POP POP JUMP JUMPDEST PUSH0 PUSH2 0x4283 DUP4 DUP4 PUSH2 0x4269 JUMP JUMPDEST PUSH1 0x20 DUP4 ADD SWAP1 POP SWAP3 SWAP2 POP POP JUMP JUMPDEST PUSH0 PUSH1 0x20 DUP3 ADD SWAP1 POP SWAP2 SWAP1 POP JUMP JUMPDEST PUSH0 PUSH2 0x42A5 DUP3 PUSH2 0x4234 JUMP JUMPDEST PUSH2 0x42AF DUP2 DUP6 PUSH2 0x423E JUMP JUMPDEST SWAP4 POP PUSH2 0x42BA DUP4 PUSH2 0x424E JUMP JUMPDEST DUP1 PUSH0 JUMPDEST DUP4 DUP2 LT ISZERO PUSH2 0x42EA JUMPI DUP2 MLOAD PUSH2 0x42D1 DUP9 DUP3 PUSH2 0x4278 JUMP JUMPDEST SWAP8 POP PUSH2 0x42DC DUP4 PUSH2 0x428F JUMP JUMPDEST SWAP3 POP POP PUSH1 0x1 DUP2 ADD SWAP1 POP PUSH2 0x42BD JUMP JUMPDEST POP DUP6 SWAP4 POP POP POP POP SWAP3 SWAP2 POP POP JUMP JUMPDEST PUSH2 0x4300 DUP2 PUSH2 0x425D JUMP JUMPDEST DUP3 MSTORE POP POP JUMP JUMPDEST PUSH0 PUSH1 0x40 DUP3 ADD SWAP1 POP DUP2 DUP2 SUB PUSH0 DUP4 ADD MSTORE PUSH2 0x431E DUP2 DUP6 PUSH2 0x429B JUMP JUMPDEST SWAP1 POP PUSH2 0x432D PUSH1 0x20 DUP4 ADD DUP5 PUSH2 0x42F7 JUMP JUMPDEST SWAP4 SWAP3 POP POP POP JUMP JUMPDEST PUSH0 DUP3 DUP3 MSTORE PUSH1 0x20 DUP3 ADD SWAP1 POP SWAP3 SWAP2 POP POP JUMP JUMPDEST PUSH32 0x4F6E6C79207468652062616E6B2063616E20706572666F726D20746869732061 PUSH0 DUP3 ADD MSTORE PUSH32 0x6374696F6E000000000000000000000000000000000000000000000000000000 PUSH1 0x20 DUP3 ADD MSTORE POP JUMP JUMPDEST PUSH0 PUSH2 0x439E PUSH1 0x25 DUP4 PUSH2 0x4334 JUMP JUMPDEST SWAP2 POP PUSH2 0x43A9 DUP3 PUSH2 0x4344 JUMP JUMPDEST PUSH1 0x40 DUP3 ADD SWAP1 POP SWAP2 SWAP1 POP JUMP JUMPDEST PUSH0 PUSH1 0x20 DUP3 ADD SWAP1 POP DUP2 DUP2 SUB PUSH0 DUP4 ADD MSTORE PUSH2 0x43CB DUP2 PUSH2 0x4392 JUMP JUMPDEST SWAP1 POP SWAP2 SWAP1 POP JUMP JUMPDEST PUSH32 0x496E76616C696420737461746520666F72207468697320616374696F6E000000 PUSH0 DUP3 ADD MSTORE POP JUMP JUMPDEST PUSH0 PUSH2 0x4406 PUSH1 0x1D DUP4 PUSH2 0x4334 JUMP JUMPDEST SWAP2 POP PUSH2 0x4411 DUP3 PUSH2 0x43D2 JUMP JUMPDEST PUSH1 0x20 DUP3 ADD SWAP1 POP SWAP2 SWAP1 POP JUMP JUMPDEST PUSH0 PUSH1 0x20 DUP3 ADD SWAP1 POP DUP2 DUP2 SUB PUSH0 DUP4 ADD MSTORE PUSH2 0x4433 DUP2 PUSH2 0x43FA JUMP JUMPDEST SWAP1 POP SWAP2 SWAP1 POP JUMP JUMPDEST PUSH32 0x4E487B7100000000000000000000000000000000000000000000000000000000 PUSH0 MSTORE PUSH1 0x32 PUSH1 0x4 MSTORE PUSH1 0x24 PUSH0 REVERT JUMPDEST PUSH32 0x4E6F7420616C6C20706C61796572732068617665206D61646520746865697220 PUSH0 DUP3 ADD MSTORE PUSH32 0x63686F6963650000000000000000000000000000000000000000000000000000 PUSH1 0x20 DUP3 ADD MSTORE POP JUMP JUMPDEST PUSH0 PUSH2 0x44C1 PUSH1 0x26 DUP4 PUSH2 0x4334 JUMP JUMPDEST SWAP2 POP PUSH2 0x44CC DUP3 PUSH2 0x4467 JUMP JUMPDEST PUSH1 0x40 DUP3 ADD SWAP1 POP SWAP2 SWAP1 POP JUMP JUMPDEST PUSH0 PUSH1 0x20 DUP3 ADD SWAP1 POP DUP2 DUP2 SUB PUSH0 DUP4 ADD MSTORE PUSH2 0x44EE DUP2 PUSH2 0x44B5 JUMP JUMPDEST SWAP1 POP SWAP2 SWAP1 POP JUMP JUMPDEST PUSH32 0x4E6F206D6F72652068617368657320617661696C61626C650000000000000000 PUSH0 DUP3 ADD MSTORE POP JUMP JUMPDEST PUSH0 PUSH2 0x4529 PUSH1 0x18 DUP4 PUSH2 0x4334 JUMP JUMPDEST SWAP2 POP PUSH2 0x4534 DUP3 PUSH2 0x44F5 JUMP JUMPDEST PUSH1 0x20 DUP3 ADD SWAP1 POP SWAP2 SWAP1 POP JUMP JUMPDEST PUSH0 PUSH1 0x20 DUP3 ADD SWAP1 POP DUP2 DUP2 SUB PUSH0 DUP4 ADD MSTORE PUSH2 0x4556 DUP2 PUSH2 0x451D JUMP JUMPDEST SWAP1 POP SWAP2 SWAP1 POP JUMP JUMPDEST PUSH0 DUP2 SWAP1 POP SWAP2 SWAP1 POP JUMP JUMPDEST PUSH2 0x4577 PUSH2 0x4572 DUP3 PUSH2 0x3D46 JUMP JUMPDEST PUSH2 0x455D JUMP JUMPDEST DUP3 MSTORE POP POP JUMP JUMPDEST PUSH0 PUSH2 0x4588 DUP3 DUP5 PUSH2 0x4566 JUMP JUMPDEST PUSH1 0x20 DUP3 ADD SWAP2 POP DUP2 SWAP1 POP SWAP3 SWAP2 POP POP JUMP JUMPDEST PUSH32 0x4861736820646F6573206E6F74206D6174636820746865206E6578742062616E PUSH0 DUP3 ADD MSTORE PUSH32 0x6B20686173680000000000000000000000000000000000000000000000000000 PUSH1 0x20 DUP3 ADD MSTORE POP JUMP JUMPDEST PUSH0 PUSH2 0x45F1 PUSH1 0x26 DUP4 PUSH2 0x4334 JUMP JUMPDEST SWAP2 POP PUSH2 0x45FC DUP3 PUSH2 0x4597 JUMP JUMPDEST PUSH1 0x40 DUP3 ADD SWAP1 POP SWAP2 SWAP1 POP JUMP JUMPDEST PUSH0 PUSH1 0x20 DUP3 ADD SWAP1 POP DUP2 DUP2 SUB PUSH0 DUP4 ADD MSTORE PUSH2 0x461E DUP2 PUSH2 0x45E5 JUMP JUMPDEST SWAP1 POP SWAP2 SWAP1 POP JUMP JUMPDEST PUSH32 0x4E487B7100000000000000000000000000000000000000000000000000000000 PUSH0 MSTORE PUSH1 0x11 PUSH1 0x4 MSTORE PUSH1 0x24 PUSH0 REVERT JUMPDEST PUSH0 PUSH2 0x465C DUP3 PUSH2 0x3D46 JUMP JUMPDEST SWAP2 POP PUSH32 0xFFFFFFFFFFFFFFFFFFFFFFFFFFFFFFFFFFFFFFFFFFFFFFFFFFFFFFFFFFFFFFFF DUP3 SUB PUSH2 0x468E JUMPI PUSH2 0x468D PUSH2 0x4625 JUMP JUMPDEST JUMPDEST PUSH1 0x1 DUP3 ADD SWAP1 POP SWAP2 SWAP1 POP JUMP JUMPDEST PUSH2 0x46A2 DUP2 PUSH2 0x3D46 JUMP JUMPDEST DUP3 MSTORE POP POP JUMP JUMPDEST PUSH0 PUSH1 0x40 DUP3 ADD SWAP1 POP PUSH2 0x46BB PUSH0 DUP4 ADD DUP6 PUSH2 0x4699 JUMP JUMPDEST PUSH2 0x46C8 PUSH1 0x20 DUP4 ADD DUP5 PUSH2 0x4699 JUMP JUMPDEST SWAP4 SWAP3 POP POP POP JUMP JUMPDEST PUSH2 0x46D8 DUP2 PUSH2 0x425D JUMP JUMPDEST DUP2 EQ PUSH2 0x46E2 JUMPI PUSH0 DUP1 REVERT JUMPDEST POP JUMP JUMPDEST PUSH0 DUP2 MLOAD SWAP1 POP PUSH2 0x46F3 DUP2 PUSH2 0x46CF JUMP JUMPDEST SWAP3 SWAP2 POP POP JUMP JUMPDEST PUSH0 PUSH1 0x20 DUP3 DUP5 SUB SLT ISZERO PUSH2 0x470E JUMPI PUSH2 0x470D PUSH2 0x3D42 JUMP JUMPDEST JUMPDEST PUSH0 PUSH2 0x471B DUP5 DUP3 DUP6 ADD PUSH2 0x46E5 JUMP JUMPDEST SWAP2 POP POP SWAP3 SWAP2 POP POP JUMP JUMPDEST PUSH0 DUP2 SLOAD SWAP1 POP SWAP2 SWAP1 POP JUMP JUMPDEST PUSH0 DUP3 DUP3 MSTORE PUSH1 0x20 DUP3 ADD SWAP1 POP SWAP3 SWAP2 POP POP JUMP JUMPDEST PUSH0 DUP2 SWAP1 POP DUP2 PUSH0 MSTORE PUSH1 0x20 PUSH0 KECCAK256 SWAP1 POP SWAP2 SWAP1 POP JUMP JUMPDEST PUSH2 0x4759 DUP2 PUSH2 0x425D JUMP JUMPDEST DUP3 MSTORE POP POP JUMP JUMPDEST PUSH0 DUP2 PUSH0 SHR SWAP1 POP SWAP2 SWAP1 POP JUMP JUMPDEST PUSH0 PUSH1 0xFF DUP3 AND SWAP1 POP SWAP2 SWAP1 POP JUMP JUMPDEST PUSH0 PUSH2 0x4788 PUSH2 0x4783 DUP4 PUSH2 0x475F JUMP JUMPDEST PUSH2 0x476A JUMP JUMPDEST SWAP1 POP SWAP2 SWAP1 POP JUMP JUMPDEST PUSH0 DUP2 PUSH1 0x8 SHR SWAP1 POP SWAP2 SWAP1 POP JUMP JUMPDEST PUSH0 PUSH2 0x47AD PUSH2 0x47A8 DUP4 PUSH2 0x478F JUMP JUMPDEST PUSH2 0x476A JUMP JUMPDEST SWAP1 POP SWAP2 SWAP1 POP JUMP JUMPDEST PUSH0 DUP2 PUSH1 0x10 SHR SWAP1 POP SWAP2 SWAP1 POP JUMP JUMPDEST PUSH0 PUSH2 0x47D2 PUSH2 0x47CD DUP4 PUSH2 0x47B4 JUMP JUMPDEST PUSH2 0x476A JUMP JUMPDEST SWAP1 POP SWAP2 SWAP1 POP JUMP JUMPDEST PUSH0 DUP2 PUSH1 0x18 SHR SWAP1 POP SWAP2 SWAP1 POP JUMP JUMPDEST PUSH0 PUSH2 0x47F7 PUSH2 0x47F2 DUP4 PUSH2 0x47D9 JUMP JUMPDEST PUSH2 0x476A JUMP JUMPDEST SWAP1 POP SWAP2 SWAP1 POP JUMP JUMPDEST PUSH0 DUP2 PUSH1 0x20 SHR SWAP1 POP SWAP2 SWAP1 POP JUMP JUMPDEST PUSH0 PUSH2 0x481C PUSH2 0x4817 DUP4 PUSH2 0x47FE JUMP JUMPDEST PUSH2 0x476A JUMP JUMPDEST SWAP1 POP SWAP2 SWAP1 POP JUMP JUMPDEST PUSH0 DUP2 PUSH1 0x28 SHR SWAP1 POP SWAP2 SWAP1 POP JUMP JUMPDEST PUSH0 PUSH2 0x4841 PUSH2 0x483C DUP4 PUSH2 0x4823 JUMP JUMPDEST PUSH2 0x476A JUMP JUMPDEST SWAP1 POP SWAP2 SWAP1 POP JUMP JUMPDEST PUSH0 DUP2 PUSH1 0x30 SHR SWAP1 POP SWAP2 SWAP1 POP JUMP JUMPDEST PUSH0 PUSH2 0x4866 PUSH2 0x4861 DUP4 PUSH2 0x4848 JUMP JUMPDEST PUSH2 0x476A JUMP JUMPDEST SWAP1 POP SWAP2 SWAP1 POP JUMP JUMPDEST PUSH0 DUP2 PUSH1 0x38 SHR SWAP1 POP SWAP2 SWAP1 POP JUMP JUMPDEST PUSH0 PUSH2 0x488B PUSH2 0x4886 DUP4 PUSH2 0x486D JUMP JUMPDEST PUSH2 0x476A JUMP JUMPDEST SWAP1 POP SWAP2 SWAP1 POP JUMP JUMPDEST PUSH0 DUP2 PUSH1 0x40 SHR SWAP1 POP SWAP2 SWAP1 POP JUMP JUMPDEST PUSH0 PUSH2 0x48B0 PUSH2 0x48AB DUP4 PUSH2 0x4892 JUMP JUMPDEST PUSH2 0x476A JUMP JUMPDEST SWAP1 POP SWAP2 SWAP1 POP JUMP JUMPDEST PUSH0 DUP2 PUSH1 0x48 SHR SWAP1 POP SWAP2 SWAP1 POP JUMP JUMPDEST PUSH0 PUSH2 0x48D5 PUSH2 0x48D0 DUP4 PUSH2 0x48B7 JUMP JUMPDEST PUSH2 0x476A JUMP JUMPDEST SWAP1 POP SWAP2 SWAP1 POP JUMP JUMPDEST PUSH0 DUP2 PUSH1 0x50 SHR SWAP1 POP SWAP2 SWAP1 POP JUMP JUMPDEST PUSH0 PUSH2 0x48FA PUSH2 0x48F5 DUP4 PUSH2 0x48DC JUMP JUMPDEST PUSH2 0x476A JUMP JUMPDEST SWAP1 POP SWAP2 SWAP1 POP JUMP JUMPDEST PUSH0 DUP2 PUSH1 0x58 SHR SWAP1 POP SWAP2 SWAP1 POP JUMP JUMPDEST PUSH0 PUSH2 0x491F PUSH2 0x491A DUP4 PUSH2 0x4901 JUMP JUMPDEST PUSH2 0x476A JUMP JUMPDEST SWAP1 POP SWAP2 SWAP1 POP JUMP JUMPDEST PUSH0 DUP2 PUSH1 0x60 SHR SWAP1 POP SWAP2 SWAP1 POP JUMP JUMPDEST PUSH0 PUSH2 0x4944 PUSH2 0x493F DUP4 PUSH2 0x4926 JUMP JUMPDEST PUSH2 0x476A JUMP JUMPDEST SWAP1 POP SWAP2 SWAP1 POP JUMP JUMPDEST PUSH0 DUP2 PUSH1 0x68 SHR SWAP1 POP SWAP2 SWAP1 POP JUMP JUMPDEST PUSH0 PUSH2 0x4969 PUSH2 0x4964 DUP4 PUSH2 0x494B JUMP JUMPDEST PUSH2 0x476A JUMP JUMPDEST SWAP1 POP SWAP2 SWAP1 POP JUMP JUMPDEST PUSH0 DUP2 PUSH1 0x70 SHR SWAP1 POP SWAP2 SWAP1 POP JUMP JUMPDEST PUSH0 PUSH2 0x498E PUSH2 0x4989 DUP4 PUSH2 0x4970 JUMP JUMPDEST PUSH2 0x476A JUMP JUMPDEST SWAP1 POP SWAP2 SWAP1 POP JUMP JUMPDEST PUSH0 DUP2 PUSH1 0x78 SHR SWAP1 POP SWAP2 SWAP1 POP JUMP JUMPDEST PUSH0 PUSH2 0x49B3 PUSH2 0x49AE DUP4 PUSH2 0x4995 JUMP JUMPDEST PUSH2 0x476A JUMP JUMPDEST SWAP1 POP SWAP2 SWAP1 POP JUMP JUMPDEST PUSH0 DUP2 PUSH1 0x80 SHR SWAP1 POP SWAP2 SWAP1 POP JUMP JUMPDEST PUSH0 PUSH2 0x49D8 PUSH2 0x49D3 DUP4 PUSH2 0x49BA JUMP JUMPDEST PUSH2 0x476A JUMP JUMPDEST SWAP1 POP SWAP2 SWAP1 POP JUMP JUMPDEST PUSH0 DUP2 PUSH1 0x88 SHR SWAP1 POP SWAP2 SWAP1 POP JUMP JUMPDEST PUSH0 PUSH2 0x49FD PUSH2 0x49F8 DUP4 PUSH2 0x49DF JUMP JUMPDEST PUSH2 0x476A JUMP JUMPDEST SWAP1 POP SWAP2 SWAP1 POP JUMP JUMPDEST PUSH0 DUP2 PUSH1 0x90 SHR SWAP1 POP SWAP2 SWAP1 POP JUMP JUMPDEST PUSH0 PUSH2 0x4A22 PUSH2 0x4A1D DUP4 PUSH2 0x4A04 JUMP JUMPDEST PUSH2 0x476A JUMP JUMPDEST SWAP1 POP SWAP2 SWAP1 POP JUMP JUMPDEST PUSH0 DUP2 PUSH1 0x98 SHR SWAP1 POP SWAP2 SWAP1 POP JUMP JUMPDEST PUSH0 PUSH2 0x4A47 PUSH2 0x4A42 DUP4 PUSH2 0x4A29 JUMP JUMPDEST PUSH2 0x476A JUMP JUMPDEST SWAP1 POP SWAP2 SWAP1 POP JUMP JUMPDEST PUSH0 DUP2 PUSH1 0xA0 SHR SWAP1 POP SWAP2 SWAP1 POP JUMP JUMPDEST PUSH0 PUSH2 0x4A6C PUSH2 0x4A67 DUP4 PUSH2 0x4A4E JUMP JUMPDEST PUSH2 0x476A JUMP JUMPDEST SWAP1 POP SWAP2 SWAP1 POP JUMP JUMPDEST PUSH0 DUP2 PUSH1 0xA8 SHR SWAP1 POP SWAP2 SWAP1 POP JUMP JUMPDEST PUSH0 PUSH2 0x4A91 PUSH2 0x4A8C DUP4 PUSH2 0x4A73 JUMP JUMPDEST PUSH2 0x476A JUMP JUMPDEST SWAP1 POP SWAP2 SWAP1 POP JUMP JUMPDEST PUSH0 DUP2 PUSH1 0xB0 SHR SWAP1 POP SWAP2 SWAP1 POP JUMP JUMPDEST PUSH0 PUSH2 0x4AB6 PUSH2 0x4AB1 DUP4 PUSH2 0x4A98 JUMP JUMPDEST PUSH2 0x476A JUMP JUMPDEST SWAP1 POP SWAP2 SWAP1 POP JUMP JUMPDEST PUSH0 DUP2 PUSH1 0xB8 SHR SWAP1 POP SWAP2 SWAP1 POP JUMP JUMPDEST PUSH0 PUSH2 0x4ADB PUSH2 0x4AD6 DUP4 PUSH2 0x4ABD JUMP JUMPDEST PUSH2 0x476A JUMP JUMPDEST SWAP1 POP SWAP2 SWAP1 POP JUMP JUMPDEST PUSH0 DUP2 PUSH1 0xC0 SHR SWAP1 POP SWAP2 SWAP1 POP JUMP JUMPDEST PUSH0 PUSH2 0x4B00 PUSH2 0x4AFB DUP4 PUSH2 0x4AE2 JUMP JUMPDEST PUSH2 0x476A JUMP JUMPDEST SWAP1 POP SWAP2 SWAP1 POP JUMP JUMPDEST PUSH0 DUP2 PUSH1 0xC8 SHR SWAP1 POP SWAP2 SWAP1 POP JUMP JUMPDEST PUSH0 PUSH2 0x4B25 PUSH2 0x4B20 DUP4 PUSH2 0x4B07 JUMP JUMPDEST PUSH2 0x476A JUMP JUMPDEST SWAP1 POP SWAP2 SWAP1 POP JUMP JUMPDEST PUSH0 DUP2 PUSH1 0xD0 SHR SWAP1 POP SWAP2 SWAP1 POP JUMP JUMPDEST PUSH0 PUSH2 0x4B4A PUSH2 0x4B45 DUP4 PUSH2 0x4B2C JUMP JUMPDEST PUSH2 0x476A JUMP JUMPDEST SWAP1 POP SWAP2 SWAP1 POP JUMP JUMPDEST PUSH0 DUP2 PUSH1 0xD8 SHR SWAP1 POP SWAP2 SWAP1 POP JUMP JUMPDEST PUSH0 PUSH2 0x4B6F PUSH2 0x4B6A DUP4 PUSH2 0x4B51 JUMP JUMPDEST PUSH2 0x476A JUMP JUMPDEST SWAP1 POP SWAP2 SWAP1 POP JUMP JUMPDEST PUSH0 DUP2 PUSH1 0xE0 SHR SWAP1 POP SWAP2 SWAP1 POP JUMP JUMPDEST PUSH0 PUSH2 0x4B94 PUSH2 0x4B8F DUP4 PUSH2 0x4B76 JUMP JUMPDEST PUSH2 0x476A JUMP JUMPDEST SWAP1 POP SWAP2 SWAP1 POP JUMP JUMPDEST PUSH0 DUP2 PUSH1 0xE8 SHR SWAP1 POP SWAP2 SWAP1 POP JUMP JUMPDEST PUSH0 PUSH2 0x4BB9 PUSH2 0x4BB4 DUP4 PUSH2 0x4B9B JUMP JUMPDEST PUSH2 0x476A JUMP JUMPDEST SWAP1 POP SWAP2 SWAP1 POP JUMP JUMPDEST PUSH0 DUP2 PUSH1 0xF0 SHR SWAP1 POP SWAP2 SWAP1 POP JUMP JUMPDEST PUSH0 PUSH2 0x4BDE PUSH2 0x4BD9 DUP4 PUSH2 0x4BC0 JUMP JUMPDEST PUSH2 0x476A JUMP JUMPDEST SWAP1 POP SWAP2 SWAP1 POP JUMP JUMPDEST PUSH0 DUP2 PUSH1 0xF8 SHR SWAP1 POP SWAP2 SWAP1 POP JUMP JUMPDEST PUSH0 PUSH2 0x4C03 PUSH2 0x4BFE DUP4 PUSH2 0x4BE5 JUMP JUMPDEST PUSH2 0x476A JUMP JUMPDEST SWAP1 POP SWAP2 SWAP1 POP JUMP JUMPDEST PUSH0 PUSH2 0x4C14 DUP3 PUSH2 0x4724 JUMP JUMPDEST PUSH2 0x4C1E DUP2 DUP6 PUSH2 0x472E JUMP JUMPDEST SWAP4 POP DUP4 PUSH2 0x4C2A DUP5 PUSH2 0x473E JUMP JUMPDEST PUSH0 PUSH1 0x1 ISZERO PUSH2 0x4F56 JUMPI JUMPDEST DUP4 PUSH1 0x1 PUSH1 0x20 SUB DUP3 ADD LT ISZERO PUSH2 0x4F55 JUMPI DUP2 SLOAD PUSH2 0x4C55 DUP9 PUSH2 0x4C50 DUP4 PUSH2 0x4776 JUMP JUMPDEST PUSH2 0x4750 JUMP JUMPDEST PUSH1 0x20 DUP9 ADD SWAP8 POP PUSH2 0x4C6D DUP9 PUSH2 0x4C68 DUP4 PUSH2 0x479B JUMP JUMPDEST PUSH2 0x4750 JUMP JUMPDEST PUSH1 0x20 DUP9 ADD SWAP8 POP PUSH2 0x4C85 DUP9 PUSH2 0x4C80 DUP4 PUSH2 0x47C0 JUMP JUMPDEST PUSH2 0x4750 JUMP JUMPDEST PUSH1 0x20 DUP9 ADD SWAP8 POP PUSH2 0x4C9D DUP9 PUSH2 0x4C98 DUP4 PUSH2 0x47E5 JUMP JUMPDEST PUSH2 0x4750 JUMP JUMPDEST PUSH1 0x20 DUP9 ADD SWAP8 POP PUSH2 0x4CB5 DUP9 PUSH2 0x4CB0 DUP4 PUSH2 0x480A JUMP JUMPDEST PUSH2 0x4750 JUMP JUMPDEST PUSH1 0x20 DUP9 ADD SWAP8 POP PUSH2 0x4CCD DUP9 PUSH2 0x4CC8 DUP4 PUSH2 0x482F JUMP JUMPDEST PUSH2 0x4750 JUMP JUMPDEST PUSH1 0x20 DUP9 ADD SWAP8 POP PUSH2 0x4CE5 DUP9 PUSH2 0x4CE0 DUP4 PUSH2 0x4854 JUMP JUMPDEST PUSH2 0x4750 JUMP JUMPDEST PUSH1 0x20 DUP9 ADD SWAP8 POP PUSH2 0x4CFD DUP9 PUSH2 0x4CF8 DUP4 PUSH2 0x4879 JUMP JUMPDEST PUSH2 0x4750 JUMP JUMPDEST PUSH1 0x20 DUP9 ADD SWAP8 POP PUSH2 0x4D15 DUP9 PUSH2 0x4D10 DUP4 PUSH2 0x489E JUMP JUMPDEST PUSH2 0x4750 JUMP JUMPDEST PUSH1 0x20 DUP9 ADD SWAP8 POP PUSH2 0x4D2D DUP9 PUSH2 0x4D28 DUP4 PUSH2 0x48C3 JUMP JUMPDEST PUSH2 0x4750 JUMP JUMPDEST PUSH1 0x20 DUP9 ADD SWAP8 POP PUSH2 0x4D45 DUP9 PUSH2 0x4D40 DUP4 PUSH2 0x48E8 JUMP JUMPDEST PUSH2 0x4750 JUMP JUMPDEST PUSH1 0x20 DUP9 ADD SWAP8 POP PUSH2 0x4D5D DUP9 PUSH2 0x4D58 DUP4 PUSH2 0x490D JUMP JUMPDEST PUSH2 0x4750 JUMP JUMPDEST PUSH1 0x20 DUP9 ADD SWAP8 POP PUSH2 0x4D75 DUP9 PUSH2 0x4D70 DUP4 PUSH2 0x4932 JUMP JUMPDEST PUSH2 0x4750 JUMP JUMPDEST PUSH1 0x20 DUP9 ADD SWAP8 POP PUSH2 0x4D8D DUP9 PUSH2 0x4D88 DUP4 PUSH2 0x4957 JUMP JUMPDEST PUSH2 0x4750 JUMP JUMPDEST PUSH1 0x20 DUP9 ADD SWAP8 POP PUSH2 0x4DA5 DUP9 PUSH2 0x4DA0 DUP4 PUSH2 0x497C JUMP JUMPDEST PUSH2 0x4750 JUMP JUMPDEST PUSH1 0x20 DUP9 ADD SWAP8 POP PUSH2 0x4DBD DUP9 PUSH2 0x4DB8 DUP4 PUSH2 0x49A1 JUMP JUMPDEST PUSH2 0x4750 JUMP JUMPDEST PUSH1 0x20 DUP9 ADD SWAP8 POP PUSH2 0x4DD5 DUP9 PUSH2 0x4DD0 DUP4 PUSH2 0x49C6 JUMP JUMPDEST PUSH2 0x4750 JUMP JUMPDEST PUSH1 0x20 DUP9 ADD SWAP8 POP PUSH2 0x4DED DUP9 PUSH2 0x4DE8 DUP4 PUSH2 0x49EB JUMP JUMPDEST PUSH2 0x4750 JUMP JUMPDEST PUSH1 0x20 DUP9 ADD SWAP8 POP PUSH2 0x4E05 DUP9 PUSH2 0x4E00 DUP4 PUSH2 0x4A10 JUMP JUMPDEST PUSH2 0x4750 JUMP JUMPDEST PUSH1 0x20 DUP9 ADD SWAP8 POP PUSH2 0x4E1D DUP9 PUSH2 0x4E18 DUP4 PUSH2 0x4A35 JUMP JUMPDEST PUSH2 0x4750 JUMP JUMPDEST PUSH1 0x20 DUP9 ADD SWAP8 POP PUSH2 0x4E35 DUP9 PUSH2 0x4E30 DUP4 PUSH2 0x4A5A JUMP JUMPDEST PUSH2 0x4750 JUMP JUMPDEST PUSH1 0x20 DUP9 ADD SWAP8 POP PUSH2 0x4E4D DUP9 PUSH2 0x4E48 DUP4 PUSH2 0x4A7F JUMP JUMPDEST PUSH2 0x4750 JUMP JUMPDEST PUSH1 0x20 DUP9 ADD SWAP8 POP PUSH2 0x4E65 DUP9 PUSH2 0x4E60 DUP4 PUSH2 0x4AA4 JUMP JUMPDEST PUSH2 0x4750 JUMP JUMPDEST PUSH1 0x20 DUP9 ADD SWAP8 POP PUSH2 0x4E7D DUP9 PUSH2 0x4E78 DUP4 PUSH2 0x4AC9 JUMP JUMPDEST PUSH2 0x4750 JUMP JUMPDEST PUSH1 0x20 DUP9 ADD SWAP8 POP PUSH2 0x4E95 DUP9 PUSH2 0x4E90 DUP4 PUSH2 0x4AEE JUMP JUMPDEST PUSH2 0x4750 JUMP JUMPDEST PUSH1 0x20 DUP9 ADD SWAP8 POP PUSH2 0x4EAD DUP9 PUSH2 0x4EA8 DUP4 PUSH2 0x4B13 JUMP JUMPDEST PUSH2 0x4750 JUMP JUMPDEST PUSH1 0x20 DUP9 ADD SWAP8 POP PUSH2 0x4EC5 DUP9 PUSH2 0x4EC0 DUP4 PUSH2 0x4B38 JUMP JUMPDEST PUSH2 0x4750 JUMP JUMPDEST PUSH1 0x20 DUP9 ADD SWAP8 POP PUSH2 0x4EDD DUP9 PUSH2 0x4ED8 DUP4 PUSH2 0x4B5D JUMP JUMPDEST PUSH2 0x4750 JUMP JUMPDEST PUSH1 0x20 DUP9 ADD SWAP8 POP PUSH2 0x4EF5 DUP9 PUSH2 0x4EF0 DUP4 PUSH2 0x4B82 JUMP JUMPDEST PUSH2 0x4750 JUMP JUMPDEST PUSH1 0x20 DUP9 ADD SWAP8 POP PUSH2 0x4F0D DUP9 PUSH2 0x4F08 DUP4 PUSH2 0x4BA7 JUMP JUMPDEST PUSH2 0x4750 JUMP JUMPDEST PUSH1 0x20 DUP9 ADD SWAP8 POP PUSH2 0x4F25 DUP9 PUSH2 0x4F20 DUP4 PUSH2 0x4BCC JUMP JUMPDEST PUSH2 0x4750 JUMP JUMPDEST PUSH1 0x20 DUP9 ADD SWAP8 POP PUSH2 0x4F3D DUP9 PUSH2 0x4F38 DUP4 PUSH2 0x4BF1 JUMP JUMPDEST PUSH2 0x4750 JUMP JUMPDEST PUSH1 0x20 DUP9 ADD SWAP8 POP PUSH1 0x1 DUP4 ADD SWAP3 POP POP PUSH1 0x20 DUP2 ADD SWAP1 POP PUSH2 0x4C33 JUMP JUMPDEST JUMPDEST PUSH1 0x1 ISZERO PUSH2 0x5441 JUMPI DUP2 SLOAD DUP5 DUP3 LT ISZERO PUSH2 0x4F86 JUMPI PUSH2 0x4F79 DUP9 PUSH2 0x4F74 DUP4 PUSH2 0x4776 JUMP JUMPDEST PUSH2 0x4750 JUMP JUMPDEST PUSH1 0x20 DUP9 ADD SWAP8 POP PUSH1 0x1 DUP3 ADD SWAP2 POP JUMPDEST DUP5 DUP3 LT ISZERO PUSH2 0x4FAD JUMPI PUSH2 0x4FA0 DUP9 PUSH2 0x4F9B DUP4 PUSH2 0x479B JUMP JUMPDEST PUSH2 0x4750 JUMP JUMPDEST PUSH1 0x20 DUP9 ADD SWAP8 POP PUSH1 0x1 DUP3 ADD SWAP2 POP JUMPDEST DUP5 DUP3 LT ISZERO PUSH2 0x4FD4 JUMPI PUSH2 0x4FC7 DUP9 PUSH2 0x4FC2 DUP4 PUSH2 0x47C0 JUMP JUMPDEST PUSH2 0x4750 JUMP JUMPDEST PUSH1 0x20 DUP9 ADD SWAP8 POP PUSH1 0x1 DUP3 ADD SWAP2 POP JUMPDEST DUP5 DUP3 LT ISZERO PUSH2 0x4FFB JUMPI PUSH2 0x4FEE DUP9 PUSH2 0x4FE9 DUP4 PUSH2 0x47E5 JUMP JUMPDEST PUSH2 0x4750 JUMP JUMPDEST PUSH1 0x20 DUP9 ADD SWAP8 POP PUSH1 0x1 DUP3 ADD SWAP2 POP JUMPDEST DUP5 DUP3 LT ISZERO PUSH2 0x5022 JUMPI PUSH2 0x5015 DUP9 PUSH2 0x5010 DUP4 PUSH2 0x480A JUMP JUMPDEST PUSH2 0x4750 JUMP JUMPDEST PUSH1 0x20 DUP9 ADD SWAP8 POP PUSH1 0x1 DUP3 ADD SWAP2 POP JUMPDEST DUP5 DUP3 LT ISZERO PUSH2 0x5049 JUMPI PUSH2 0x503C DUP9 PUSH2 0x5037 DUP4 PUSH2 0x482F JUMP JUMPDEST PUSH2 0x4750 JUMP JUMPDEST PUSH1 0x20 DUP9 ADD SWAP8 POP PUSH1 0x1 DUP3 ADD SWAP2 POP JUMPDEST DUP5 DUP3 LT ISZERO PUSH2 0x5070 JUMPI PUSH2 0x5063 DUP9 PUSH2 0x505E DUP4 PUSH2 0x4854 JUMP JUMPDEST PUSH2 0x4750 JUMP JUMPDEST PUSH1 0x20 DUP9 ADD SWAP8 POP PUSH1 0x1 DUP3 ADD SWAP2 POP JUMPDEST DUP5 DUP3 LT ISZERO PUSH2 0x5097 JUMPI PUSH2 0x508A DUP9 PUSH2 0x5085 DUP4 PUSH2 0x4879 JUMP JUMPDEST PUSH2 0x4750 JUMP JUMPDEST PUSH1 0x20 DUP9 ADD SWAP8 POP PUSH1 0x1 DUP3 ADD SWAP2 POP JUMPDEST DUP5 DUP3 LT ISZERO PUSH2 0x50BE JUMPI PUSH2 0x50B1 DUP9 PUSH2 0x50AC DUP4 PUSH2 0x489E JUMP JUMPDEST PUSH2 0x4750 JUMP JUMPDEST PUSH1 0x20 DUP9 ADD SWAP8 POP PUSH1 0x1 DUP3 ADD SWAP2 POP JUMPDEST DUP5 DUP3 LT ISZERO PUSH2 0x50E5 JUMPI PUSH2 0x50D8 DUP9 PUSH2 0x50D3 DUP4 PUSH2 0x48C3 JUMP JUMPDEST PUSH2 0x4750 JUMP JUMPDEST PUSH1 0x20 DUP9 ADD SWAP8 POP PUSH1 0x1 DUP3 ADD SWAP2 POP JUMPDEST DUP5 DUP3 LT ISZERO PUSH2 0x510C JUMPI PUSH2 0x50FF DUP9 PUSH2 0x50FA DUP4 PUSH2 0x48E8 JUMP JUMPDEST PUSH2 0x4750 JUMP JUMPDEST PUSH1 0x20 DUP9 ADD SWAP8 POP PUSH1 0x1 DUP3 ADD SWAP2 POP JUMPDEST DUP5 DUP3 LT ISZERO PUSH2 0x5133 JUMPI PUSH2 0x5126 DUP9 PUSH2 0x5121 DUP4 PUSH2 0x490D JUMP JUMPDEST PUSH2 0x4750 JUMP JUMPDEST PUSH1 0x20 DUP9 ADD SWAP8 POP PUSH1 0x1 DUP3 ADD SWAP2 POP JUMPDEST DUP5 DUP3 LT ISZERO PUSH2 0x515A JUMPI PUSH2 0x514D DUP9 PUSH2 0x5148 DUP4 PUSH2 0x4932 JUMP JUMPDEST PUSH2 0x4750 JUMP JUMPDEST PUSH1 0x20 DUP9 ADD SWAP8 POP PUSH1 0x1 DUP3 ADD SWAP2 POP JUMPDEST DUP5 DUP3 LT ISZERO PUSH2 0x5181 JUMPI PUSH2 0x5174 DUP9 PUSH2 0x516F DUP4 PUSH2 0x4957 JUMP JUMPDEST PUSH2 0x4750 JUMP JUMPDEST PUSH1 0x20 DUP9 ADD SWAP8 POP PUSH1 0x1 DUP3 ADD SWAP2 POP JUMPDEST DUP5 DUP3 LT ISZERO PUSH2 0x51A8 JUMPI PUSH2 0x519B DUP9 PUSH2 0x5196 DUP4 PUSH2 0x497C JUMP JUMPDEST PUSH2 0x4750 JUMP JUMPDEST PUSH1 0x20 DUP9 ADD SWAP8 POP PUSH1 0x1 DUP3 ADD SWAP2 POP JUMPDEST DUP5 DUP3 LT ISZERO PUSH2 0x51CF JUMPI PUSH2 0x51C2 DUP9 PUSH2 0x51BD DUP4 PUSH2 0x49A1 JUMP JUMPDEST PUSH2 0x4750 JUMP JUMPDEST PUSH1 0x20 DUP9 ADD SWAP8 POP PUSH1 0x1 DUP3 ADD SWAP2 POP JUMPDEST DUP5 DUP3 LT ISZERO PUSH2 0x51F6 JUMPI PUSH2 0x51E9 DUP9 PUSH2 0x51E4 DUP4 PUSH2 0x49C6 JUMP JUMPDEST PUSH2 0x4750 JUMP JUMPDEST PUSH1 0x20 DUP9 ADD SWAP8 POP PUSH1 0x1 DUP3 ADD SWAP2 POP JUMPDEST DUP5 DUP3 LT ISZERO PUSH2 0x521D JUMPI PUSH2 0x5210 DUP9 PUSH2 0x520B DUP4 PUSH2 0x49EB JUMP JUMPDEST PUSH2 0x4750 JUMP JUMPDEST PUSH1 0x20 DUP9 ADD SWAP8 POP PUSH1 0x1 DUP3 ADD SWAP2 POP JUMPDEST DUP5 DUP3 LT ISZERO PUSH2 0x5244 JUMPI PUSH2 0x5237 DUP9 PUSH2 0x5232 DUP4 PUSH2 0x4A10 JUMP JUMPDEST PUSH2 0x4750 JUMP JUMPDEST PUSH1 0x20 DUP9 ADD SWAP8 POP PUSH1 0x1 DUP3 ADD SWAP2 POP JUMPDEST DUP5 DUP3 LT ISZERO PUSH2 0x526B JUMPI PUSH2 0x525E DUP9 PUSH2 0x5259 DUP4 PUSH2 0x4A35 JUMP JUMPDEST PUSH2 0x4750 JUMP JUMPDEST PUSH1 0x20 DUP9 ADD SWAP8 POP PUSH1 0x1 DUP3 ADD SWAP2 POP JUMPDEST DUP5 DUP3 LT ISZERO PUSH2 0x5292 JUMPI PUSH2 0x5285 DUP9 PUSH2 0x5280 DUP4 PUSH2 0x4A5A JUMP JUMPDEST PUSH2 0x4750 JUMP JUMPDEST PUSH1 0x20 DUP9 ADD SWAP8 POP PUSH1 0x1 DUP3 ADD SWAP2 POP JUMPDEST DUP5 DUP3 LT ISZERO PUSH2 0x52B9 JUMPI PUSH2 0x52AC DUP9 PUSH2 0x52A7 DUP4 PUSH2 0x4A7F JUMP JUMPDEST PUSH2 0x4750 JUMP JUMPDEST PUSH1 0x20 DUP9 ADD SWAP8 POP PUSH1 0x1 DUP3 ADD SWAP2 POP JUMPDEST DUP5 DUP3 LT ISZERO PUSH2 0x52E0 JUMPI PUSH2 0x52D3 DUP9 PUSH2 0x52CE DUP4 PUSH2 0x4AA4 JUMP JUMPDEST PUSH2 0x4750 JUMP JUMPDEST PUSH1 0x20 DUP9 ADD SWAP8 POP PUSH1 0x1 DUP3 ADD SWAP2 POP JUMPDEST DUP5 DUP3 LT ISZERO PUSH2 0x5307 JUMPI PUSH2 0x52FA DUP9 PUSH2 0x52F5 DUP4 PUSH2 0x4AC9 JUMP JUMPDEST PUSH2 0x4750 JUMP JUMPDEST PUSH1 0x20 DUP9 ADD SWAP8 POP PUSH1 0x1 DUP3 ADD SWAP2 POP JUMPDEST DUP5 DUP3 LT ISZERO PUSH2 0x532E JUMPI PUSH2 0x5321 DUP9 PUSH2 0x531C DUP4 PUSH2 0x4AEE JUMP JUMPDEST PUSH2 0x4750 JUMP JUMPDEST PUSH1 0x20 DUP9 ADD SWAP8 POP PUSH1 0x1 DUP3 ADD SWAP2 POP JUMPDEST DUP5 DUP3 LT ISZERO PUSH2 0x5355 JUMPI PUSH2 0x5348 DUP9 PUSH2 0x5343 DUP4 PUSH2 0x4B13 JUMP JUMPDEST PUSH2 0x4750 JUMP JUMPDEST PUSH1 0x20 DUP9 ADD SWAP8 POP PUSH1 0x1 DUP3 ADD SWAP2 POP JUMPDEST DUP5 DUP3 LT ISZERO PUSH2 0x537C JUMPI PUSH2 0x536F DUP9 PUSH2 0x536A DUP4 PUSH2 0x4B38 JUMP JUMPDEST PUSH2 0x4750 JUMP JUMPDEST PUSH1 0x20 DUP9 ADD SWAP8 POP PUSH1 0x1 DUP3 ADD SWAP2 POP JUMPDEST DUP5 DUP3 LT ISZERO PUSH2 0x53A3 JUMPI PUSH2 0x5396 DUP9 PUSH2 0x5391 DUP4 PUSH2 0x4B5D JUMP JUMPDEST PUSH2 0x4750 JUMP JUMPDEST PUSH1 0x20 DUP9 ADD SWAP8 POP PUSH1 0x1 DUP3 ADD SWAP2 POP JUMPDEST DUP5 DUP3 LT ISZERO PUSH2 0x53CA JUMPI PUSH2 0x53BD DUP9 PUSH2 0x53B8 DUP4 PUSH2 0x4B82 JUMP JUMPDEST PUSH2 0x4750 JUMP JUMPDEST PUSH1 0x20 DUP9 ADD SWAP8 POP PUSH1 0x1 DUP3 ADD SWAP2 POP JUMPDEST DUP5 DUP3 LT ISZERO PUSH2 0x53F1 JUMPI PUSH2 0x53E4 DUP9 PUSH2 0x53DF DUP4 PUSH2 0x4BA7 JUMP JUMPDEST PUSH2 0x4750 JUMP JUMPDEST PUSH1 0x20 DUP9 ADD SWAP8 POP PUSH1 0x1 DUP3 ADD SWAP2 POP JUMPDEST DUP5 DUP3 LT ISZERO PUSH2 0x5418 JUMPI PUSH2 0x540B DUP9 PUSH2 0x5406 DUP4 PUSH2 0x4BCC JUMP JUMPDEST PUSH2 0x4750 JUMP JUMPDEST PUSH1 0x20 DUP9 ADD SWAP8 POP PUSH1 0x1 DUP3 ADD SWAP2 POP JUMPDEST DUP5 DUP3 LT ISZERO PUSH2 0x543F JUMPI PUSH2 0x5432 DUP9 PUSH2 0x542D DUP4 PUSH2 0x4BF1 JUMP JUMPDEST PUSH2 0x4750 JUMP JUMPDEST PUSH1 0x20 DUP9 ADD SWAP8 POP PUSH1 0x1 DUP3 ADD SWAP2 POP JUMPDEST POP JUMPDEST DUP7 SWAP5 POP POP POP POP POP SWAP3 SWAP2 POP POP JUMP JUMPDEST PUSH0 PUSH1 0x20 DUP3 ADD SWAP1 POP DUP2 DUP2 SUB PUSH0 DUP4 ADD MSTORE PUSH2 0x5466 DUP2 DUP5 PUSH2 0x4C0A JUMP JUMPDEST SWAP1 POP SWAP3 SWAP2 POP POP JUMP JUMPDEST PUSH32 0x506C61796572206861736820616C726561647920636F6D6D6974746564000000 PUSH0 DUP3 ADD MSTORE POP JUMP JUMPDEST PUSH0 PUSH2 0x54A2 PUSH1 0x1D DUP4 PUSH2 0x4334 JUMP JUMPDEST SWAP2 POP PUSH2 0x54AD DUP3 PUSH2 0x546E JUMP JUMPDEST PUSH1 0x20 DUP3 ADD SWAP1 POP SWAP2 SWAP1 POP JUMP JUMPDEST PUSH0 PUSH1 0x20 DUP3 ADD SWAP1 POP DUP2 DUP2 SUB PUSH0 DUP4 ADD MSTORE PUSH2 0x54CF DUP2 PUSH2 0x5496 JUMP JUMPDEST SWAP1 POP SWAP2 SWAP1 POP JUMP JUMPDEST PUSH32 0x4E6F20706C61796572732068617665206A6F696E656400000000000000000000 PUSH0 DUP3 ADD MSTORE POP JUMP JUMPDEST PUSH0 PUSH2 0x550A PUSH1 0x16 DUP4 PUSH2 0x4334 JUMP JUMPDEST SWAP2 POP PUSH2 0x5515 DUP3 PUSH2 0x54D6 JUMP JUMPDEST PUSH1 0x20 DUP3 ADD SWAP1 POP SWAP2 SWAP1 POP JUMP JUMPDEST PUSH0 PUSH1 0x20 DUP3 ADD SWAP1 POP DUP2 DUP2 SUB PUSH0 DUP4 ADD MSTORE PUSH2 0x5537 DUP2 PUSH2 0x54FE JUMP JUMPDEST SWAP1 POP SWAP2 SWAP1 POP JUMP JUMPDEST PUSH32 0x4F6E6C792070617274696369706174696E6720706C61796572732063616E2070 PUSH0 DUP3 ADD MSTORE PUSH32 0x6572666F726D207468697320616374696F6E0000000000000000000000000000 PUSH1 0x20 DUP3 ADD MSTORE POP JUMP JUMPDEST PUSH0 PUSH2 0x5598 PUSH1 0x32 DUP4 PUSH2 0x4334 JUMP JUMPDEST SWAP2 POP PUSH2 0x55A3 DUP3 PUSH2 0x553E JUMP JUMPDEST PUSH1 0x40 DUP3 ADD SWAP1 POP SWAP2 SWAP1 POP JUMP JUMPDEST PUSH0 PUSH1 0x20 DUP3 ADD SWAP1 POP DUP2 DUP2 SUB PUSH0 DUP4 ADD MSTORE PUSH2 0x55C5 DUP2 PUSH2 0x558C JUMP JUMPDEST SWAP1 POP SWAP2 SWAP1 POP JUMP JUMPDEST PUSH32 0x506C61796572206973206E6F7420616374697665206F72206973206275737465 PUSH0 DUP3 ADD MSTORE PUSH32 0x6400000000000000000000000000000000000000000000000000000000000000 PUSH1 0x20 DUP3 ADD MSTORE POP JUMP JUMPDEST PUSH0 PUSH2 0x5626 PUSH1 0x21 DUP4 PUSH2 0x4334 JUMP JUMPDEST SWAP2 POP PUSH2 0x5631 DUP3 PUSH2 0x55CC JUMP JUMPDEST PUSH1 0x40 DUP3 ADD SWAP1 POP SWAP2 SWAP1 POP JUMP JUMPDEST PUSH0 PUSH1 0x20 DUP3 ADD SWAP1 POP DUP2 DUP2 SUB PUSH0 DUP4 ADD MSTORE PUSH2 0x5653 DUP2 PUSH2 0x561A JUMP JUMPDEST SWAP1 POP SWAP2 SWAP1 POP JUMP JUMPDEST PUSH0 PUSH2 0x5664 DUP3 PUSH2 0x3D46 JUMP JUMPDEST SWAP2 POP PUSH2 0x566F DUP4 PUSH2 0x3D46 JUMP JUMPDEST SWAP3 POP DUP3 DUP3 MUL PUSH2 0x567D DUP2 PUSH2 0x3D46 JUMP JUMPDEST SWAP2 POP DUP3 DUP3 DIV DUP5 EQ DUP4 ISZERO OR PUSH2 0x5694 JUMPI PUSH2 0x5693 PUSH2 0x4625 JUMP JUMPDEST JUMPDEST POP SWAP3 SWAP2 POP POP JUMP JUMPDEST PUSH32 0x4D7573742073656E6420736F6D652045544820746F2066756E64207468652063 PUSH0 DUP3 ADD MSTORE PUSH32 0x6F6E747261637400000000000000000000000000000000000000000000000000 PUSH1 0x20 DUP3 ADD MSTORE POP JUMP JUMPDEST PUSH0 PUSH2 0x56F5 PUSH1 0x27 DUP4 PUSH2 0x4334 JUMP JUMPDEST SWAP2 POP PUSH2 0x5700 DUP3 PUSH2 0x569B JUMP JUMPDEST PUSH1 0x40 DUP3 ADD SWAP1 POP SWAP2 SWAP1 POP JUMP JUMPDEST PUSH0 PUSH1 0x20 DUP3 ADD SWAP1 POP DUP2 DUP2 SUB PUSH0 DUP4 ADD MSTORE PUSH2 0x5722 DUP2 PUSH2 0x56E9 JUMP JUMPDEST SWAP1 POP SWAP2 SWAP1 POP JUMP JUMPDEST PUSH0 PUSH2 0x5733 DUP3 PUSH2 0x3D46 JUMP JUMPDEST SWAP2 POP PUSH2 0x573E DUP4 PUSH2 0x3D46 JUMP JUMPDEST SWAP3 POP DUP3 DUP3 ADD SWAP1 POP DUP1 DUP3 GT ISZERO PUSH2 0x5756 JUMPI PUSH2 0x5755 PUSH2 0x4625 JUMP JUMPDEST JUMPDEST SWAP3 SWAP2 POP POP JUMP JUMPDEST PUSH32 0x4E6F7420616C6C20706C617965727320636F6D6D697474656400000000000000 PUSH0 DUP3 ADD MSTORE POP JUMP JUMPDEST PUSH0 PUSH2 0x5790 PUSH1 0x19 DUP4 PUSH2 0x4334 JUMP JUMPDEST SWAP2 POP PUSH2 0x579B DUP3 PUSH2 0x575C JUMP JUMPDEST PUSH1 0x20 DUP3 ADD SWAP1 POP SWAP2 SWAP1 POP JUMP JUMPDEST PUSH0 PUSH1 0x20 DUP3 ADD SWAP1 POP DUP2 DUP2 SUB PUSH0 DUP4 ADD MSTORE PUSH2 0x57BD DUP2 PUSH2 0x5784 JUMP JUMPDEST SWAP1 POP SWAP2 SWAP1 POP JUMP JUMPDEST PUSH32 0x4E487B7100000000000000000000000000000000000000000000000000000000 PUSH0 MSTORE PUSH1 0x41 PUSH1 0x4 MSTORE PUSH1 0x24 PUSH0 REVERT JUMPDEST PUSH32 0x42616E6B20686173206E6F742072657665616C656420697473206E756D626572 PUSH0 DUP3 ADD MSTORE POP JUMP JUMPDEST PUSH0 PUSH2 0x5825 PUSH1 0x20 DUP4 PUSH2 0x4334 JUMP JUMPDEST SWAP2 POP PUSH2 0x5830 DUP3 PUSH2 0x57F1 JUMP JUMPDEST PUSH1 0x20 DUP3 ADD SWAP1 POP SWAP2 SWAP1 POP JUMP JUMPDEST PUSH0 PUSH1 0x20 DUP3 ADD SWAP1 POP DUP2 DUP2 SUB PUSH0 DUP4 ADD MSTORE PUSH2 0x5852 DUP2 PUSH2 0x5819 JUMP JUMPDEST SWAP1 POP SWAP2 SWAP1 POP JUMP JUMPDEST PUSH32 0x506C6179657220686173206E6F742072657665616C6564207468656972206E75 PUSH0 DUP3 ADD MSTORE PUSH32 0x6D62657200000000000000000000000000000000000000000000000000000000 PUSH1 0x20 DUP3 ADD MSTORE POP JUMP JUMPDEST PUSH0 PUSH2 0x58B3 PUSH1 0x24 DUP4 PUSH2 0x4334 JUMP JUMPDEST SWAP2 POP PUSH2 0x58BE DUP3 PUSH2 0x5859 JUMP JUMPDEST PUSH1 0x40 DUP3 ADD SWAP1 POP SWAP2 SWAP1 POP JUMP JUMPDEST PUSH0 PUSH1 0x20 DUP3 ADD SWAP1 POP DUP2 DUP2 SUB PUSH0 DUP4 ADD MSTORE PUSH2 0x58E0 DUP2 PUSH2 0x58A7 JUMP JUMPDEST SWAP1 POP SWAP2 SWAP1 POP JUMP JUMPDEST PUSH32 0x4D6178203420706C617965727320616C6C6F7765640000000000000000000000 PUSH0 DUP3 ADD MSTORE POP JUMP JUMPDEST PUSH0 PUSH2 0x591B PUSH1 0x15 DUP4 PUSH2 0x4334 JUMP JUMPDEST SWAP2 POP PUSH2 0x5926 DUP3 PUSH2 0x58E7 JUMP JUMPDEST PUSH1 0x20 DUP3 ADD SWAP1 POP SWAP2 SWAP1 POP JUMP JUMPDEST PUSH0 PUSH1 0x20 DUP3 ADD SWAP1 POP DUP2 DUP2 SUB PUSH0 DUP4 ADD MSTORE PUSH2 0x5948 DUP2 PUSH2 0x590F JUMP JUMPDEST SWAP1 POP SWAP2 SWAP1 POP JUMP JUMPDEST PUSH32 0x42657420616D6F756E74206D69736D6174636800000000000000000000000000 PUSH0 DUP3 ADD MSTORE POP JUMP JUMPDEST PUSH0 PUSH2 0x5983 PUSH1 0x13 DUP4 PUSH2 0x4334 JUMP JUMPDEST SWAP2 POP PUSH2 0x598E DUP3 PUSH2 0x594F JUMP JUMPDEST PUSH1 0x20 DUP3 ADD SWAP1 POP SWAP2 SWAP1 POP JUMP JUMPDEST PUSH0 PUSH1 0x20 DUP3 ADD SWAP1 POP DUP2 DUP2 SUB PUSH0 DUP4 ADD MSTORE PUSH2 0x59B0 DUP2 PUSH2 0x5977 JUMP JUMPDEST SWAP1 POP SWAP2 SWAP1 POP JUMP JUMPDEST PUSH32 0x54696D656F7574206E6F74207965742070617373656400000000000000000000 PUSH0 DUP3 ADD MSTORE POP JUMP JUMPDEST PUSH0 PUSH2 0x59EB PUSH1 0x16 DUP4 PUSH2 0x4334 JUMP JUMPDEST SWAP2 POP PUSH2 0x59F6 DUP3 PUSH2 0x59B7 JUMP JUMPDEST PUSH1 0x20 DUP3 ADD SWAP1 POP SWAP2 SWAP1 POP JUMP JUMPDEST PUSH0 PUSH1 0x20 DUP3 ADD SWAP1 POP DUP2 DUP2 SUB PUSH0 DUP4 ADD MSTORE PUSH2 0x5A18 DUP2 PUSH2 0x59DF JUMP JUMPDEST SWAP1 POP SWAP2 SWAP1 POP JUMP JUMPDEST PUSH32 0x4E756D62657220616C72656164792072657665616C6564000000000000000000 PUSH0 DUP3 ADD MSTORE POP JUMP JUMPDEST PUSH0 PUSH2 0x5A53 PUSH1 0x17 DUP4 PUSH2 0x4334 JUMP JUMPDEST SWAP2 POP PUSH2 0x5A5E DUP3 PUSH2 0x5A1F JUMP JUMPDEST PUSH1 0x20 DUP3 ADD SWAP1 POP SWAP2 SWAP1 POP JUMP JUMPDEST PUSH0 PUSH1 0x20 DUP3 ADD SWAP1 POP DUP2 DUP2 SUB PUSH0 DUP4 ADD MSTORE PUSH2 0x5A80 DUP2 PUSH2 0x5A47 JUMP JUMPDEST SWAP1 POP SWAP2 SWAP1 POP JUMP JUMPDEST PUSH32 0x4861736820646F6573206E6F74206D6174636820666F7220696E646578203000 PUSH0 DUP3 ADD MSTORE POP JUMP JUMPDEST PUSH0 PUSH2 0x5ABB PUSH1 0x1F DUP4 PUSH2 0x4334 JUMP JUMPDEST SWAP2 POP PUSH2 0x5AC6 DUP3 PUSH2 0x5A87 JUMP JUMPDEST PUSH1 0x20 DUP3 ADD SWAP1 POP SWAP2 SWAP1 POP JUMP JUMPDEST PUSH0 PUSH1 0x20 DUP3 ADD SWAP1 POP DUP2 DUP2 SUB PUSH0 DUP4 ADD MSTORE PUSH2 0x5AE8 DUP2 PUSH2 0x5AAF JUMP JUMPDEST SWAP1 POP SWAP2 SWAP1 POP JUMP JUMPDEST PUSH32 0x4861736820646F6573206E6F74206D6174636800000000000000000000000000 PUSH0 DUP3 ADD MSTORE POP JUMP JUMPDEST PUSH0 PUSH2 0x5B23 PUSH1 0x13 DUP4 PUSH2 0x4334 JUMP JUMPDEST SWAP2 POP PUSH2 0x5B2E DUP3 PUSH2 0x5AEF JUMP JUMPDEST PUSH1 0x20 DUP3 ADD SWAP1 POP SWAP2 SWAP1 POP JUMP JUMPDEST PUSH0 PUSH1 0x20 DUP3 ADD SWAP1 POP DUP2 DUP2 SUB PUSH0 DUP4 ADD MSTORE PUSH2 0x5B50 DUP2 PUSH2 0x5B17 JUMP JUMPDEST SWAP1 POP SWAP2 SWAP1 POP JUMP JUMPDEST PUSH32 0x42616E6B2063617264732063616E206F6E6C7920626520647261776E20696E20 PUSH0 DUP3 ADD MSTORE PUSH32 0x436F6D706C657465642073746174650000000000000000000000000000000000 PUSH1 0x20 DUP3 ADD MSTORE POP JUMP JUMPDEST PUSH0 PUSH2 0x5BB1 PUSH1 0x2F DUP4 PUSH2 0x4334 JUMP JUMPDEST SWAP2 POP PUSH2 0x5BBC DUP3 PUSH2 0x5B57 JUMP JUMPDEST PUSH1 0x40 DUP3 ADD SWAP1 POP SWAP2 SWAP1 POP JUMP JUMPDEST PUSH0 PUSH1 0x20 DUP3 ADD SWAP1 POP DUP2 DUP2 SUB PUSH0 DUP4 ADD MSTORE PUSH2 0x5BDE DUP2 PUSH2 0x5BA5 JUMP JUMPDEST SWAP1 POP SWAP2 SWAP1 POP JUMP JUMPDEST PUSH0 DUP2 SWAP1 POP SWAP2 SWAP1 POP JUMP JUMPDEST PUSH2 0x5BFF PUSH2 0x5BFA DUP3 PUSH2 0x3DCC JUMP JUMPDEST PUSH2 0x5BE5 JUMP JUMPDEST DUP3 MSTORE POP POP JUMP JUMPDEST PUSH0 PUSH2 0x5C10 DUP3 DUP6 PUSH2 0x4566 JUMP JUMPDEST PUSH1 0x20 DUP3 ADD SWAP2 POP PUSH2 0x5C20 DUP3 DUP5 PUSH2 0x5BEE JUMP JUMPDEST PUSH1 0x20 DUP3 ADD SWAP2 POP DUP2 SWAP1 POP SWAP4 SWAP3 POP POP POP JUMP JUMPDEST PUSH32 0x43686F69636520616C7265616479206D61646500000000000000000000000000 PUSH0 DUP3 ADD MSTORE POP JUMP JUMPDEST PUSH0 PUSH2 0x5C64 PUSH1 0x13 DUP4 PUSH2 0x4334 JUMP JUMPDEST SWAP2 POP PUSH2 0x5C6F DUP3 PUSH2 0x5C30 JUMP JUMPDEST PUSH1 0x20 DUP3 ADD SWAP1 POP SWAP2 SWAP1 POP JUMP JUMPDEST PUSH0 PUSH1 0x20 DUP3 ADD SWAP1 POP DUP2 DUP2 SUB PUSH0 DUP4 ADD MSTORE PUSH2 0x5C91 DUP2 PUSH2 0x5C58 JUMP JUMPDEST SWAP1 POP SWAP2 SWAP1 POP JUMP JUMPDEST PUSH32 0x496E76616C696420636172642076616C75650000000000000000000000000000 PUSH0 DUP3 ADD MSTORE POP JUMP JUMPDEST PUSH0 PUSH2 0x5CCC PUSH1 0x12 DUP4 PUSH2 0x4334 JUMP JUMPDEST SWAP2 POP PUSH2 0x5CD7 DUP3 PUSH2 0x5C98 JUMP JUMPDEST PUSH1 0x20 DUP3 ADD SWAP1 POP SWAP2 SWAP1 POP JUMP JUMPDEST PUSH0 PUSH1 0x20 DUP3 ADD SWAP1 POP DUP2 DUP2 SUB PUSH0 DUP4 ADD MSTORE PUSH2 0x5CF9 DUP2 PUSH2 0x5CC0 JUMP JUMPDEST SWAP1 POP SWAP2 SWAP1 POP JUMP JUMPDEST PUSH32 0x4E487B7100000000000000000000000000000000000000000000000000000000 PUSH0 MSTORE PUSH1 0x12 PUSH1 0x4 MSTORE PUSH1 0x24 PUSH0 REVERT JUMPDEST PUSH0 PUSH2 0x5D37 DUP3 PUSH2 0x3D46 JUMP JUMPDEST SWAP2 POP PUSH2 0x5D42 DUP4 PUSH2 0x3D46 JUMP JUMPDEST SWAP3 POP DUP3 PUSH2 0x5D52 JUMPI PUSH2 0x5D51 PUSH2 0x5D00 JUMP JUMPDEST JUMPDEST DUP3 DUP3 DIV SWAP1 POP SWAP3 SWAP2 POP POP JUMP JUMPDEST PUSH0 PUSH2 0x5D67 DUP3 PUSH2 0x3D46 JUMP JUMPDEST SWAP2 POP PUSH2 0x5D72 DUP4 PUSH2 0x3D46 JUMP JUMPDEST SWAP3 POP DUP3 DUP3 SUB SWAP1 POP DUP2 DUP2 GT ISZERO PUSH2 0x5D8A JUMPI PUSH2 0x5D89 PUSH2 0x4625 JUMP JUMPDEST JUMPDEST SWAP3 SWAP2 POP POP JUMP JUMPDEST PUSH0 PUSH2 0x5D9A DUP3 PUSH2 0x425D JUMP JUMPDEST SWAP2 POP PUSH2 0x5DA5 DUP4 PUSH2 0x425D JUMP JUMPDEST SWAP3 POP DUP3 DUP3 ADD SWAP1 POP PUSH1 0xFF DUP2 GT ISZERO PUSH2 0x5DBE JUMPI PUSH2 0x5DBD PUSH2 0x4625 JUMP JUMPDEST JUMPDEST SWAP3 SWAP2 POP POP JUMP INVALID LOG2 PUSH5 0x6970667358 0x22 SLT KECCAK256 PUSH14 0x72339CDB938D7433DC3257B5E9C3 0xAA BLOBBASEFEE DUP1 0xC4 0xEF 0xBF 0xEA PUSH32 0x6FEB5A169305390AC664736F6C634300081A0033000000000000000000000000 "
		},
		"gasEstimates": {
			"creation": {
				"codeDepositCost": "4811600",
				"executionCost": "infinite",
				"totalCost": "infinite"
			},
			"external": {
				"actionDeadline()": "2514",
				"bankBalance()": "2471",
				"bankHashes(uint256)": "2811",
				"bankHashesSet()": "2578",
				"calculateAllCardValues()": "infinite",
				"cashout()": "infinite",
				"commitHash(bytes32)": "27119",
				"distributeCards(uint256)": "infinite",
				"fundContract()": "infinite",
				"getAllCards()": "infinite",
				"getContractBalance()": "357",
				"handleTimeout()": "infinite",
				"hasChosen(address)": "2856",
				"joinGame(uint256)": "infinite",
				"playerChoices(address)": "2966",
				"playerCount()": "2493",
				"playerHashes(address)": "2847",
				"playerHit()": "infinite",
				"playerStand()": "infinite",
				"revealNumber(uint256)": "infinite",
				"revealedNumbers(address)": "2913",
				"startCommittingPhase()": "infinite",
				"startGame()": "infinite",
				"startRevealPhase()": "infinite",
				"state()": "2662"
			},
			"internal": {
				"allPlayersBusted()": "infinite",
				"generateBankCards()": "infinite",
				"getCardRepresentation(uint8)": "infinite",
				"isPlayerActive(address payable)": "infinite",
				"payoutToAllPlayers()": "infinite",
				"playerHitOrStand(bool)": "infinite",
				"removeInactivePlayer(address payable)": "infinite",
				"resetActionDeadline()": "infinite",
				"uint2str(uint256)": "infinite"
			}
		},
		"methodIdentifiers": {
			"actionDeadline()": "85c7d61d",
			"bankBalance()": "28657aa5",
			"bankHashes(uint256)": "bf867f6b",
			"bankHashesSet()": "4bd76fc4",
			"calculateAllCardValues()": "da8e4a95",
			"cashout()": "84054d3d",
			"commitHash(bytes32)": "3c37b640",
			"distributeCards(uint256)": "089ac36f",
			"fundContract()": "bd097e21",
			"getAllCards()": "cea13516",
			"getContractBalance()": "6f9fb98a",
			"handleTimeout()": "fcfafeb6",
			"hasChosen(address)": "a8378e6b",
			"joinGame(uint256)": "efaa55a0",
			"playerChoices(address)": "91b3f40e",
			"playerCount()": "302bcc57",
			"playerHashes(address)": "ae65f4ff",
			"playerHit()": "784f49ca",
			"playerStand()": "c9f09d38",
			"revealNumber(uint256)": "fe7d567d",
			"revealedNumbers(address)": "872fd939",
			"startCommittingPhase()": "53454485",
			"startGame()": "d65ab5f2",
			"startRevealPhase()": "c6fd5d4e",
			"state()": "c19d93fb"
		}
	},
	"abi": [
		{
			"inputs": [],
			"stateMutability": "payable",
			"type": "constructor"
		},
		{
			"anonymous": false,
			"inputs": [
				{
					"indexed": false,
					"internalType": "uint256",
					"name": "timeRemaining",
					"type": "uint256"
				}
			],
			"name": "TimeLeft",
			"type": "event"
		},
		{
			"inputs": [],
			"name": "actionDeadline",
			"outputs": [
				{
					"internalType": "uint256",
					"name": "",
					"type": "uint256"
				}
			],
			"stateMutability": "view",
			"type": "function"
		},
		{
			"inputs": [],
			"name": "bankBalance",
			"outputs": [
				{
					"internalType": "uint256",
					"name": "",
					"type": "uint256"
				}
			],
			"stateMutability": "view",
			"type": "function"
		},
		{
			"inputs": [
				{
					"internalType": "uint256",
					"name": "",
					"type": "uint256"
				}
			],
			"name": "bankHashes",
			"outputs": [
				{
					"internalType": "bytes32",
					"name": "",
					"type": "bytes32"
				}
			],
			"stateMutability": "view",
			"type": "function"
		},
		{
			"inputs": [],
			"name": "bankHashesSet",
			"outputs": [
				{
					"internalType": "bool",
					"name": "",
					"type": "bool"
				}
			],
			"stateMutability": "view",
			"type": "function"
		},
		{
			"inputs": [],
			"name": "calculateAllCardValues",
			"outputs": [
				{
					"internalType": "uint8[]",
					"name": "playerValues",
					"type": "uint8[]"
				},
				{
					"internalType": "uint8",
					"name": "bankValue",
					"type": "uint8"
				}
			],
			"stateMutability": "view",
			"type": "function"
		},
		{
			"inputs": [],
			"name": "cashout",
			"outputs": [],
			"stateMutability": "payable",
			"type": "function"
		},
		{
			"inputs": [
				{
					"internalType": "bytes32",
					"name": "hash",
					"type": "bytes32"
				}
			],
			"name": "commitHash",
			"outputs": [],
			"stateMutability": "nonpayable",
			"type": "function"
		},
		{
			"inputs": [
				{
					"internalType": "uint256",
					"name": "randomNumber",
					"type": "uint256"
				}
			],
			"name": "distributeCards",
			"outputs": [],
			"stateMutability": "nonpayable",
			"type": "function"
		},
		{
			"inputs": [],
			"name": "fundContract",
			"outputs": [],
			"stateMutability": "payable",
			"type": "function"
		},
		{
			"inputs": [],
			"name": "getAllCards",
			"outputs": [
				{
					"internalType": "string[]",
					"name": "bankCards",
					"type": "string[]"
				},
				{
					"internalType": "string[][]",
					"name": "playerCards",
					"type": "string[][]"
				}
			],
			"stateMutability": "view",
			"type": "function"
		},
		{
			"inputs": [],
			"name": "getContractBalance",
			"outputs": [
				{
					"internalType": "uint256",
					"name": "",
					"type": "uint256"
				}
			],
			"stateMutability": "view",
			"type": "function"
		},
		{
			"inputs": [],
			"name": "handleTimeout",
			"outputs": [],
			"stateMutability": "nonpayable",
			"type": "function"
		},
		{
			"inputs": [
				{
					"internalType": "address",
					"name": "",
					"type": "address"
				}
			],
			"name": "hasChosen",
			"outputs": [
				{
					"internalType": "bool",
					"name": "",
					"type": "bool"
				}
			],
			"stateMutability": "view",
			"type": "function"
		},
		{
			"inputs": [
				{
					"internalType": "uint256",
					"name": "bet",
					"type": "uint256"
				}
			],
			"name": "joinGame",
			"outputs": [],
			"stateMutability": "payable",
			"type": "function"
		},
		{
			"inputs": [
				{
					"internalType": "address",
					"name": "",
					"type": "address"
				}
			],
			"name": "playerChoices",
			"outputs": [
				{
					"internalType": "bool",
					"name": "",
					"type": "bool"
				}
			],
			"stateMutability": "view",
			"type": "function"
		},
		{
			"inputs": [],
			"name": "playerCount",
			"outputs": [
				{
					"internalType": "uint256",
					"name": "",
					"type": "uint256"
				}
			],
			"stateMutability": "view",
			"type": "function"
		},
		{
			"inputs": [
				{
					"internalType": "address",
					"name": "",
					"type": "address"
				}
			],
			"name": "playerHashes",
			"outputs": [
				{
					"internalType": "bytes32",
					"name": "",
					"type": "bytes32"
				}
			],
			"stateMutability": "view",
			"type": "function"
		},
		{
			"inputs": [],
			"name": "playerHit",
			"outputs": [],
			"stateMutability": "nonpayable",
			"type": "function"
		},
		{
			"inputs": [],
			"name": "playerStand",
			"outputs": [],
			"stateMutability": "nonpayable",
			"type": "function"
		},
		{
			"inputs": [
				{
					"internalType": "uint256",
					"name": "number",
					"type": "uint256"
				}
			],
			"name": "revealNumber",
			"outputs": [],
			"stateMutability": "nonpayable",
			"type": "function"
		},
		{
			"inputs": [
				{
					"internalType": "address",
					"name": "",
					"type": "address"
				}
			],
			"name": "revealedNumbers",
			"outputs": [
				{
					"internalType": "uint256",
					"name": "",
					"type": "uint256"
				}
			],
			"stateMutability": "view",
			"type": "function"
		},
		{
			"inputs": [],
			"name": "startCommittingPhase",
			"outputs": [],
			"stateMutability": "nonpayable",
			"type": "function"
		},
		{
			"inputs": [],
			"name": "startGame",
			"outputs": [],
			"stateMutability": "nonpayable",
			"type": "function"
		},
		{
			"inputs": [],
			"name": "startRevealPhase",
			"outputs": [],
			"stateMutability": "nonpayable",
			"type": "function"
		},
		{
			"inputs": [],
			"name": "state",
			"outputs": [
				{
					"internalType": "enum CardGame.GameState",
					"name": "",
					"type": "uint8"
				}
			],
			"stateMutability": "view",
			"type": "function"
		}
	]
}