{
	"data": {
		"bytecode": {
			"linkReferences": {},
			"object": "61071161004d600b8282823980515f1a6073146041577f4e487b71000000000000000000000000000000000000000000000000000000005f525f60045260245ffd5b305f52607381538281f3fe730000000000000000000000000000000000000000301460806040526004361061004a575f3560e01c806310f8b35c1461004e5780632387e5a51461007e578063345e3d68146100ae575b5f80fd5b610068600480360381019061006391906102e3565b6100de565b604051610075919061033c565b60405180910390f35b610098600480360381019061009391906102e3565b61012f565b6040516100a5919061033c565b60405180910390f35b6100c860048036038101906100c391906104cf565b610180565b6040516100d5919061033c565b60405180910390f35b5f806001600d85856040516020016100f7929190610536565b604051602081830303815290604052805190602001205f1c610119919061058e565b61012391906105eb565b90508091505092915050565b5f806001600d8585604051602001610148929190610536565b604051602081830303815290604052805190602001205f1c61016a919061058e565b61017491906105eb565b90508091505092915050565b5f805f90505f805b84518160ff161015610256575f858260ff16815181106101ab576101aa61061e565b5b6020026020010151905060028160ff16101580156101cd5750600a8160ff1611155b156101e55780846101de919061064b565b9350610242565b600b8160ff16101580156101fd5750600d8160ff1611155b1561021657600a8461020f919061064b565b9350610241565b60018160ff16036102405760018361022e919061064b565b9250600b8461023d919061064b565b93505b5b5b50808061024e9061067f565b915050610188565b505b60158260ff1611801561026d57505f8160ff16115b1561029557600a8261027f91906106a7565b915060018161028e91906106a7565b9050610258565b8192505050919050565b5f604051905090565b5f80fd5b5f80fd5b5f819050919050565b6102c2816102b0565b81146102cc575f80fd5b50565b5f813590506102dd816102b9565b92915050565b5f80604083850312156102f9576102f86102a8565b5b5f610306858286016102cf565b9250506020610317858286016102cf565b9150509250929050565b5f60ff82169050919050565b61033681610321565b82525050565b5f60208201905061034f5f83018461032d565b92915050565b5f80fd5b5f601f19601f8301169050919050565b7f4e487b71000000000000000000000000000000000000000000000000000000005f52604160045260245ffd5b61039f82610359565b810181811067ffffffffffffffff821117156103be576103bd610369565b5b80604052505050565b5f6103d061029f565b90506103dc8282610396565b919050565b5f67ffffffffffffffff8211156103fb576103fa610369565b5b602082029050602081019050919050565b5f80fd5b61041981610321565b8114610423575f80fd5b50565b5f8135905061043481610410565b92915050565b5f61044c610447846103e1565b6103c7565b9050808382526020820190506020840283018581111561046f5761046e61040c565b5b835b8181101561049857806104848882610426565b845260208401935050602081019050610471565b5050509392505050565b5f82601f8301126104b6576104b5610355565b5b81356104c684826020860161043a565b91505092915050565b5f602082840312156104e4576104e36102a8565b5b5f82013567ffffffffffffffff811115610501576105006102ac565b5b61050d848285016104a2565b91505092915050565b5f819050919050565b61053061052b826102b0565b610516565b82525050565b5f610541828561051f565b602082019150610551828461051f565b6020820191508190509392505050565b7f4e487b71000000000000000000000000000000000000000000000000000000005f52601260045260245ffd5b5f610598826102b0565b91506105a3836102b0565b9250826105b3576105b2610561565b5b828206905092915050565b7f4e487b71000000000000000000000000000000000000000000000000000000005f52601160045260245ffd5b5f6105f5826102b0565b9150610600836102b0565b9250828201905080821115610618576106176105be565b5b92915050565b7f4e487b71000000000000000000000000000000000000000000000000000000005f52603260045260245ffd5b5f61065582610321565b915061066083610321565b9250828201905060ff811115610679576106786105be565b5b92915050565b5f61068982610321565b915060ff820361069c5761069b6105be565b5b600182019050919050565b5f6106b182610321565b91506106bc83610321565b9250828203905060ff8111156106d5576106d46105be565b5b9291505056fea264697066735822122063bb2a1e0fdaf1292e926028feeff56266583070e3b8f87cb9a8ea91caeb18f764736f6c634300081a0033",
			"opcodes": "PUSH2 0x711 PUSH2 0x4D PUSH1 0xB DUP3 DUP3 DUP3 CODECOPY DUP1 MLOAD PUSH0 BYTE PUSH1 0x73 EQ PUSH1 0x41 JUMPI PUSH32 0x4E487B7100000000000000000000000000000000000000000000000000000000 PUSH0 MSTORE PUSH0 PUSH1 0x4 MSTORE PUSH1 0x24 PUSH0 REVERT JUMPDEST ADDRESS PUSH0 MSTORE PUSH1 0x73 DUP2 MSTORE8 DUP3 DUP2 RETURN INVALID PUSH20 0x0 ADDRESS EQ PUSH1 0x80 PUSH1 0x40 MSTORE PUSH1 0x4 CALLDATASIZE LT PUSH2 0x4A JUMPI PUSH0 CALLDATALOAD PUSH1 0xE0 SHR DUP1 PUSH4 0x10F8B35C EQ PUSH2 0x4E JUMPI DUP1 PUSH4 0x2387E5A5 EQ PUSH2 0x7E JUMPI DUP1 PUSH4 0x345E3D68 EQ PUSH2 0xAE JUMPI JUMPDEST PUSH0 DUP1 REVERT JUMPDEST PUSH2 0x68 PUSH1 0x4 DUP1 CALLDATASIZE SUB DUP2 ADD SWAP1 PUSH2 0x63 SWAP2 SWAP1 PUSH2 0x2E3 JUMP JUMPDEST PUSH2 0xDE JUMP JUMPDEST PUSH1 0x40 MLOAD PUSH2 0x75 SWAP2 SWAP1 PUSH2 0x33C JUMP JUMPDEST PUSH1 0x40 MLOAD DUP1 SWAP2 SUB SWAP1 RETURN JUMPDEST PUSH2 0x98 PUSH1 0x4 DUP1 CALLDATASIZE SUB DUP2 ADD SWAP1 PUSH2 0x93 SWAP2 SWAP1 PUSH2 0x2E3 JUMP JUMPDEST PUSH2 0x12F JUMP JUMPDEST PUSH1 0x40 MLOAD PUSH2 0xA5 SWAP2 SWAP1 PUSH2 0x33C JUMP JUMPDEST PUSH1 0x40 MLOAD DUP1 SWAP2 SUB SWAP1 RETURN JUMPDEST PUSH2 0xC8 PUSH1 0x4 DUP1 CALLDATASIZE SUB DUP2 ADD SWAP1 PUSH2 0xC3 SWAP2 SWAP1 PUSH2 0x4CF JUMP JUMPDEST PUSH2 0x180 JUMP JUMPDEST PUSH1 0x40 MLOAD PUSH2 0xD5 SWAP2 SWAP1 PUSH2 0x33C JUMP JUMPDEST PUSH1 0x40 MLOAD DUP1 SWAP2 SUB SWAP1 RETURN JUMPDEST PUSH0 DUP1 PUSH1 0x1 PUSH1 0xD DUP6 DUP6 PUSH1 0x40 MLOAD PUSH1 0x20 ADD PUSH2 0xF7 SWAP3 SWAP2 SWAP1 PUSH2 0x536 JUMP JUMPDEST PUSH1 0x40 MLOAD PUSH1 0x20 DUP2 DUP4 SUB SUB DUP2 MSTORE SWAP1 PUSH1 0x40 MSTORE DUP1 MLOAD SWAP1 PUSH1 0x20 ADD KECCAK256 PUSH0 SHR PUSH2 0x119 SWAP2 SWAP1 PUSH2 0x58E JUMP JUMPDEST PUSH2 0x123 SWAP2 SWAP1 PUSH2 0x5EB JUMP JUMPDEST SWAP1 POP DUP1 SWAP2 POP POP SWAP3 SWAP2 POP POP JUMP JUMPDEST PUSH0 DUP1 PUSH1 0x1 PUSH1 0xD DUP6 DUP6 PUSH1 0x40 MLOAD PUSH1 0x20 ADD PUSH2 0x148 SWAP3 SWAP2 SWAP1 PUSH2 0x536 JUMP JUMPDEST PUSH1 0x40 MLOAD PUSH1 0x20 DUP2 DUP4 SUB SUB DUP2 MSTORE SWAP1 PUSH1 0x40 MSTORE DUP1 MLOAD SWAP1 PUSH1 0x20 ADD KECCAK256 PUSH0 SHR PUSH2 0x16A SWAP2 SWAP1 PUSH2 0x58E JUMP JUMPDEST PUSH2 0x174 SWAP2 SWAP1 PUSH2 0x5EB JUMP JUMPDEST SWAP1 POP DUP1 SWAP2 POP POP SWAP3 SWAP2 POP POP JUMP JUMPDEST PUSH0 DUP1 PUSH0 SWAP1 POP PUSH0 DUP1 JUMPDEST DUP5 MLOAD DUP2 PUSH1 0xFF AND LT ISZERO PUSH2 0x256 JUMPI PUSH0 DUP6 DUP3 PUSH1 0xFF AND DUP2 MLOAD DUP2 LT PUSH2 0x1AB JUMPI PUSH2 0x1AA PUSH2 0x61E JUMP JUMPDEST JUMPDEST PUSH1 0x20 MUL PUSH1 0x20 ADD ADD MLOAD SWAP1 POP PUSH1 0x2 DUP2 PUSH1 0xFF AND LT ISZERO DUP1 ISZERO PUSH2 0x1CD JUMPI POP PUSH1 0xA DUP2 PUSH1 0xFF AND GT ISZERO JUMPDEST ISZERO PUSH2 0x1E5 JUMPI DUP1 DUP5 PUSH2 0x1DE SWAP2 SWAP1 PUSH2 0x64B JUMP JUMPDEST SWAP4 POP PUSH2 0x242 JUMP JUMPDEST PUSH1 0xB DUP2 PUSH1 0xFF AND LT ISZERO DUP1 ISZERO PUSH2 0x1FD JUMPI POP PUSH1 0xD DUP2 PUSH1 0xFF AND GT ISZERO JUMPDEST ISZERO PUSH2 0x216 JUMPI PUSH1 0xA DUP5 PUSH2 0x20F SWAP2 SWAP1 PUSH2 0x64B JUMP JUMPDEST SWAP4 POP PUSH2 0x241 JUMP JUMPDEST PUSH1 0x1 DUP2 PUSH1 0xFF AND SUB PUSH2 0x240 JUMPI PUSH1 0x1 DUP4 PUSH2 0x22E SWAP2 SWAP1 PUSH2 0x64B JUMP JUMPDEST SWAP3 POP PUSH1 0xB DUP5 PUSH2 0x23D SWAP2 SWAP1 PUSH2 0x64B JUMP JUMPDEST SWAP4 POP JUMPDEST JUMPDEST JUMPDEST POP DUP1 DUP1 PUSH2 0x24E SWAP1 PUSH2 0x67F JUMP JUMPDEST SWAP2 POP POP PUSH2 0x188 JUMP JUMPDEST POP JUMPDEST PUSH1 0x15 DUP3 PUSH1 0xFF AND GT DUP1 ISZERO PUSH2 0x26D JUMPI POP PUSH0 DUP2 PUSH1 0xFF AND GT JUMPDEST ISZERO PUSH2 0x295 JUMPI PUSH1 0xA DUP3 PUSH2 0x27F SWAP2 SWAP1 PUSH2 0x6A7 JUMP JUMPDEST SWAP2 POP PUSH1 0x1 DUP2 PUSH2 0x28E SWAP2 SWAP1 PUSH2 0x6A7 JUMP JUMPDEST SWAP1 POP PUSH2 0x258 JUMP JUMPDEST DUP2 SWAP3 POP POP POP SWAP2 SWAP1 POP JUMP JUMPDEST PUSH0 PUSH1 0x40 MLOAD SWAP1 POP SWAP1 JUMP JUMPDEST PUSH0 DUP1 REVERT JUMPDEST PUSH0 DUP1 REVERT JUMPDEST PUSH0 DUP2 SWAP1 POP SWAP2 SWAP1 POP JUMP JUMPDEST PUSH2 0x2C2 DUP2 PUSH2 0x2B0 JUMP JUMPDEST DUP2 EQ PUSH2 0x2CC JUMPI PUSH0 DUP1 REVERT JUMPDEST POP JUMP JUMPDEST PUSH0 DUP2 CALLDATALOAD SWAP1 POP PUSH2 0x2DD DUP2 PUSH2 0x2B9 JUMP JUMPDEST SWAP3 SWAP2 POP POP JUMP JUMPDEST PUSH0 DUP1 PUSH1 0x40 DUP4 DUP6 SUB SLT ISZERO PUSH2 0x2F9 JUMPI PUSH2 0x2F8 PUSH2 0x2A8 JUMP JUMPDEST JUMPDEST PUSH0 PUSH2 0x306 DUP6 DUP3 DUP7 ADD PUSH2 0x2CF JUMP JUMPDEST SWAP3 POP POP PUSH1 0x20 PUSH2 0x317 DUP6 DUP3 DUP7 ADD PUSH2 0x2CF JUMP JUMPDEST SWAP2 POP POP SWAP3 POP SWAP3 SWAP1 POP JUMP JUMPDEST PUSH0 PUSH1 0xFF DUP3 AND SWAP1 POP SWAP2 SWAP1 POP JUMP JUMPDEST PUSH2 0x336 DUP2 PUSH2 0x321 JUMP JUMPDEST DUP3 MSTORE POP POP JUMP JUMPDEST PUSH0 PUSH1 0x20 DUP3 ADD SWAP1 POP PUSH2 0x34F PUSH0 DUP4 ADD DUP5 PUSH2 0x32D JUMP JUMPDEST SWAP3 SWAP2 POP POP JUMP JUMPDEST PUSH0 DUP1 REVERT JUMPDEST PUSH0 PUSH1 0x1F NOT PUSH1 0x1F DUP4 ADD AND SWAP1 POP SWAP2 SWAP1 POP JUMP JUMPDEST PUSH32 0x4E487B7100000000000000000000000000000000000000000000000000000000 PUSH0 MSTORE PUSH1 0x41 PUSH1 0x4 MSTORE PUSH1 0x24 PUSH0 REVERT JUMPDEST PUSH2 0x39F DUP3 PUSH2 0x359 JUMP JUMPDEST DUP2 ADD DUP2 DUP2 LT PUSH8 0xFFFFFFFFFFFFFFFF DUP3 GT OR ISZERO PUSH2 0x3BE JUMPI PUSH2 0x3BD PUSH2 0x369 JUMP JUMPDEST JUMPDEST DUP1 PUSH1 0x40 MSTORE POP POP POP JUMP JUMPDEST PUSH0 PUSH2 0x3D0 PUSH2 0x29F JUMP JUMPDEST SWAP1 POP PUSH2 0x3DC DUP3 DUP3 PUSH2 0x396 JUMP JUMPDEST SWAP2 SWAP1 POP JUMP JUMPDEST PUSH0 PUSH8 0xFFFFFFFFFFFFFFFF DUP3 GT ISZERO PUSH2 0x3FB JUMPI PUSH2 0x3FA PUSH2 0x369 JUMP JUMPDEST JUMPDEST PUSH1 0x20 DUP3 MUL SWAP1 POP PUSH1 0x20 DUP2 ADD SWAP1 POP SWAP2 SWAP1 POP JUMP JUMPDEST PUSH0 DUP1 REVERT JUMPDEST PUSH2 0x419 DUP2 PUSH2 0x321 JUMP JUMPDEST DUP2 EQ PUSH2 0x423 JUMPI PUSH0 DUP1 REVERT JUMPDEST POP JUMP JUMPDEST PUSH0 DUP2 CALLDATALOAD SWAP1 POP PUSH2 0x434 DUP2 PUSH2 0x410 JUMP JUMPDEST SWAP3 SWAP2 POP POP JUMP JUMPDEST PUSH0 PUSH2 0x44C PUSH2 0x447 DUP5 PUSH2 0x3E1 JUMP JUMPDEST PUSH2 0x3C7 JUMP JUMPDEST SWAP1 POP DUP1 DUP4 DUP3 MSTORE PUSH1 0x20 DUP3 ADD SWAP1 POP PUSH1 0x20 DUP5 MUL DUP4 ADD DUP6 DUP2 GT ISZERO PUSH2 0x46F JUMPI PUSH2 0x46E PUSH2 0x40C JUMP JUMPDEST JUMPDEST DUP4 JUMPDEST DUP2 DUP2 LT ISZERO PUSH2 0x498 JUMPI DUP1 PUSH2 0x484 DUP9 DUP3 PUSH2 0x426 JUMP JUMPDEST DUP5 MSTORE PUSH1 0x20 DUP5 ADD SWAP4 POP POP PUSH1 0x20 DUP2 ADD SWAP1 POP PUSH2 0x471 JUMP JUMPDEST POP POP POP SWAP4 SWAP3 POP POP POP JUMP JUMPDEST PUSH0 DUP3 PUSH1 0x1F DUP4 ADD SLT PUSH2 0x4B6 JUMPI PUSH2 0x4B5 PUSH2 0x355 JUMP JUMPDEST JUMPDEST DUP2 CALLDATALOAD PUSH2 0x4C6 DUP5 DUP3 PUSH1 0x20 DUP7 ADD PUSH2 0x43A JUMP JUMPDEST SWAP2 POP POP SWAP3 SWAP2 POP POP JUMP JUMPDEST PUSH0 PUSH1 0x20 DUP3 DUP5 SUB SLT ISZERO PUSH2 0x4E4 JUMPI PUSH2 0x4E3 PUSH2 0x2A8 JUMP JUMPDEST JUMPDEST PUSH0 DUP3 ADD CALLDATALOAD PUSH8 0xFFFFFFFFFFFFFFFF DUP2 GT ISZERO PUSH2 0x501 JUMPI PUSH2 0x500 PUSH2 0x2AC JUMP JUMPDEST JUMPDEST PUSH2 0x50D DUP5 DUP3 DUP6 ADD PUSH2 0x4A2 JUMP JUMPDEST SWAP2 POP POP SWAP3 SWAP2 POP POP JUMP JUMPDEST PUSH0 DUP2 SWAP1 POP SWAP2 SWAP1 POP JUMP JUMPDEST PUSH2 0x530 PUSH2 0x52B DUP3 PUSH2 0x2B0 JUMP JUMPDEST PUSH2 0x516 JUMP JUMPDEST DUP3 MSTORE POP POP JUMP JUMPDEST PUSH0 PUSH2 0x541 DUP3 DUP6 PUSH2 0x51F JUMP JUMPDEST PUSH1 0x20 DUP3 ADD SWAP2 POP PUSH2 0x551 DUP3 DUP5 PUSH2 0x51F JUMP JUMPDEST PUSH1 0x20 DUP3 ADD SWAP2 POP DUP2 SWAP1 POP SWAP4 SWAP3 POP POP POP JUMP JUMPDEST PUSH32 0x4E487B7100000000000000000000000000000000000000000000000000000000 PUSH0 MSTORE PUSH1 0x12 PUSH1 0x4 MSTORE PUSH1 0x24 PUSH0 REVERT JUMPDEST PUSH0 PUSH2 0x598 DUP3 PUSH2 0x2B0 JUMP JUMPDEST SWAP2 POP PUSH2 0x5A3 DUP4 PUSH2 0x2B0 JUMP JUMPDEST SWAP3 POP DUP3 PUSH2 0x5B3 JUMPI PUSH2 0x5B2 PUSH2 0x561 JUMP JUMPDEST JUMPDEST DUP3 DUP3 MOD SWAP1 POP SWAP3 SWAP2 POP POP JUMP JUMPDEST PUSH32 0x4E487B7100000000000000000000000000000000000000000000000000000000 PUSH0 MSTORE PUSH1 0x11 PUSH1 0x4 MSTORE PUSH1 0x24 PUSH0 REVERT JUMPDEST PUSH0 PUSH2 0x5F5 DUP3 PUSH2 0x2B0 JUMP JUMPDEST SWAP2 POP PUSH2 0x600 DUP4 PUSH2 0x2B0 JUMP JUMPDEST SWAP3 POP DUP3 DUP3 ADD SWAP1 POP DUP1 DUP3 GT ISZERO PUSH2 0x618 JUMPI PUSH2 0x617 PUSH2 0x5BE JUMP JUMPDEST JUMPDEST SWAP3 SWAP2 POP POP JUMP JUMPDEST PUSH32 0x4E487B7100000000000000000000000000000000000000000000000000000000 PUSH0 MSTORE PUSH1 0x32 PUSH1 0x4 MSTORE PUSH1 0x24 PUSH0 REVERT JUMPDEST PUSH0 PUSH2 0x655 DUP3 PUSH2 0x321 JUMP JUMPDEST SWAP2 POP PUSH2 0x660 DUP4 PUSH2 0x321 JUMP JUMPDEST SWAP3 POP DUP3 DUP3 ADD SWAP1 POP PUSH1 0xFF DUP2 GT ISZERO PUSH2 0x679 JUMPI PUSH2 0x678 PUSH2 0x5BE JUMP JUMPDEST JUMPDEST SWAP3 SWAP2 POP POP JUMP JUMPDEST PUSH0 PUSH2 0x689 DUP3 PUSH2 0x321 JUMP JUMPDEST SWAP2 POP PUSH1 0xFF DUP3 SUB PUSH2 0x69C JUMPI PUSH2 0x69B PUSH2 0x5BE JUMP JUMPDEST JUMPDEST PUSH1 0x1 DUP3 ADD SWAP1 POP SWAP2 SWAP1 POP JUMP JUMPDEST PUSH0 PUSH2 0x6B1 DUP3 PUSH2 0x321 JUMP JUMPDEST SWAP2 POP PUSH2 0x6BC DUP4 PUSH2 0x321 JUMP JUMPDEST SWAP3 POP DUP3 DUP3 SUB SWAP1 POP PUSH1 0xFF DUP2 GT ISZERO PUSH2 0x6D5 JUMPI PUSH2 0x6D4 PUSH2 0x5BE JUMP JUMPDEST JUMPDEST SWAP3 SWAP2 POP POP JUMP INVALID LOG2 PUSH5 0x6970667358 0x22 SLT KECCAK256 PUSH4 0xBB2A1E0F 0xDA CALL 0x29 0x2E SWAP3 PUSH1 0x28 INVALID 0xEF CREATE2 PUSH3 0x665830 PUSH17 0xE3B8F87CB9A8EA91CAEB18F764736F6C63 NUMBER STOP ADDMOD BYTE STOP CALLER "
		},
		"gasEstimates": {
			"creation": {
				"codeDepositCost": "361800",
				"executionCost": "422",
				"totalCost": "362222"
			},
			"external": {
				"calculateHandValue(uint8[])": "infinite",
				"generateHand(uint256,uint256)": "infinite",
				"hit(uint256,uint256)": "infinite"
			},
			"internal": {
				"concatenateHand(uint8[] memory)": "infinite"
			}
		},
		"methodIdentifiers": {
			"calculateHandValue(uint8[])": "345e3d68",
			"generateHand(uint256,uint256)": "10f8b35c",
			"hit(uint256,uint256)": "2387e5a5"
		}
	},
	"abi": [
		{
			"inputs": [
				{
					"internalType": "uint8[]",
					"name": "cards",
					"type": "uint8[]"
				}
			],
			"name": "calculateHandValue",
			"outputs": [
				{
					"internalType": "uint8",
					"name": "",
					"type": "uint8"
				}
			],
			"stateMutability": "pure",
			"type": "function"
		},
		{
			"inputs": [
				{
					"internalType": "uint256",
					"name": "Number1",
					"type": "uint256"
				},
				{
					"internalType": "uint256",
					"name": "Number2",
					"type": "uint256"
				}
			],
			"name": "generateHand",
			"outputs": [
				{
					"internalType": "uint8",
					"name": "",
					"type": "uint8"
				}
			],
			"stateMutability": "pure",
			"type": "function"
		},
		{
			"inputs": [
				{
					"internalType": "uint256",
					"name": "playerNumber",
					"type": "uint256"
				},
				{
					"internalType": "uint256",
					"name": "randomNumber",
					"type": "uint256"
				}
			],
			"name": "hit",
			"outputs": [
				{
					"internalType": "uint8",
					"name": "",
					"type": "uint8"
				}
			],
			"stateMutability": "pure",
			"type": "function"
		}
	]
}