{
	"data": {
		"bytecode": {
			"linkReferences": {
				"CardLibrary.sol": {
					"CardUtils": [
						{
							"length": 20,
							"start": 3015
						},
						{
							"length": 20,
							"start": 3208
						},
						{
							"length": 20,
							"start": 5008
						},
						{
							"length": 20,
							"start": 5180
						},
						{
							"length": 20,
							"start": 8238
						},
						{
							"length": 20,
							"start": 8361
						},
						{
							"length": 20,
							"start": 8901
						},
						{
							"length": 20,
							"start": 9235
						},
						{
							"length": 20,
							"start": 9440
						},
						{
							"length": 20,
							"start": 13011
						},
						{
							"length": 20,
							"start": 13276
						}
					]
				}
			},
			"object": "60806040525f600b553360045f6101000a81548173ffffffffffffffffffffffffffffffffffffffff021916908373ffffffffffffffffffffffffffffffffffffffff1602179055507f5569044719a1ec3b04d0afa9e7a5310c7c0473331d13dc9fafe143b2c4e8148a5f1b60055f6006811061007f5761007e61021f565b5b01819055507f8cdee82cb3ac6d59f1f417405a3eecf497b31f3d06d4c506f96deb67789f61e95f1b60056001600681106100bc576100bb61021f565b5b01819055507f99ab169e1c348aec31efd8dfb67cd8c9a0b8671e1175932dda6708b0cc02a5025f1b60056002600681106100f9576100f861021f565b5b01819055507f447dd11b9e568a4a39776c37476a0dc1aa52f08dec0e496bda446aacc5bded485f1b60056003600681106101365761013561021f565b5b01819055507f88456bed5a4300ee8dbd308a84179f780647bb3c4153152528902c7141799b045f1b60056004600681106101735761017261021f565b5b01819055507f0aeb49e17c56367f7bbd1ca11b9e0db05383c0d776987b6355d2dc2e7b60143e5f1b600580600681106101af576101ae61021f565b5b01819055505f805f6101000a81548160ff021916908360058111156101d7576101d661024c565b5b0217905550346011819055506101f16101f660201b60201c565b6102e2565b61020461020c60201b60201c565b601281905550565b5f603c4261021a91906102af565b905090565b7f4e487b71000000000000000000000000000000000000000000000000000000005f52603260045260245ffd5b7f4e487b71000000000000000000000000000000000000000000000000000000005f52602160045260245ffd5b5f819050919050565b7f4e487b71000000000000000000000000000000000000000000000000000000005f52601160045260245ffd5b5f6102b982610279565b91506102c483610279565b92508282019050808211156102dc576102db610282565b5b92915050565b615c20806102ef5f395ff3fe60806040526004361061013f575f3560e01c8063a8378e6b116100b5578063cea135161161006e578063cea13516146103f3578063d65ab5f21461041e578063da8e4a9514610434578063efaa55a01461045f578063fcfafeb61461047b578063fe7d567d146104915761013f565b8063a8378e6b146102e9578063ae65f4ff14610325578063bf867f6b14610361578063c19d93fb1461039d578063c6fd5d4e146103c7578063c9f09d38146103dd5761013f565b806353454485116101075780635345448514610211578063784f49ca1461022757806384054d3d1461023d57806385c7d61d14610247578063872fd9391461027157806391b3f40e146102ad5761013f565b8063089ac36f1461014357806328657aa51461016b578063302bcc57146101955780633c37b640146101bf5780634bd76fc4146101e7575b5f80fd5b34801561014e575f80fd5b5061016960048036038101906101649190613c2d565b6104b9565b005b348015610176575f80fd5b5061017f610bb2565b60405161018c9190613c67565b60405180910390f35b3480156101a0575f80fd5b506101a9610bb8565b6040516101b69190613c67565b60405180910390f35b3480156101ca575f80fd5b506101e560048036038101906101e09190613cb3565b610bbe565b005b3480156101f2575f80fd5b506101fb610cf9565b6040516102089190613cf8565b60405180910390f35b34801561021c575f80fd5b50610225610d0b565b005b348015610232575f80fd5b5061023b610e85565b005b61024561102a565b005b348015610252575f80fd5b5061025b611316565b6040516102689190613c67565b60405180910390f35b34801561027c575f80fd5b5061029760048036038101906102929190613d6b565b61131c565b6040516102a49190613c67565b60405180910390f35b3480156102b8575f80fd5b506102d360048036038101906102ce9190613d6b565b611331565b6040516102e09190613cf8565b60405180910390f35b3480156102f4575f80fd5b5061030f600480360381019061030a9190613d6b565b61134e565b60405161031c9190613cf8565b60405180910390f35b348015610330575f80fd5b5061034b60048036038101906103469190613d6b565b61136b565b6040516103589190613da5565b60405180910390f35b34801561036c575f80fd5b5061038760048036038101906103829190613c2d565b611380565b6040516103949190613da5565b60405180910390f35b3480156103a8575f80fd5b506103b1611399565b6040516103be9190613e31565b60405180910390f35b3480156103d2575f80fd5b506103db6113a9565b005b3480156103e8575f80fd5b506103f16115b7565b005b3480156103fe575f80fd5b5061040761182d565b6040516104159291906140b3565b60405180910390f35b348015610429575f80fd5b50610432611abe565b005b34801561043f575f80fd5b506104486120c0565b6040516104569291906141ba565b60405180910390f35b61047960048036038101906104749190613c2d565b61226c565b005b348015610486575f80fd5b5061048f6124df565b005b34801561049c575f80fd5b506104b760048036038101906104b29190613c2d565b612b0f565b005b60045f9054906101000a900473ffffffffffffffffffffffffffffffffffffffff1673ffffffffffffffffffffffffffffffffffffffff163373ffffffffffffffffffffffffffffffffffffffff1614610548576040517f08c379a000000000000000000000000000000000000000000000000000000000815260040161053f90614268565b60405180910390fd5b600380600581111561055d5761055c613dbe565b5b5f8054906101000a900460ff16600581111561057c5761057b613dbe565b5b146105bc576040517f08c379a00000000000000000000000000000000000000000000000000000000081526004016105b3906142d0565b60405180910390fd5b5f5b6001805490508110156106a257600f5f600183815481106105e2576105e16142ee565b5b905f5260205f2090600402015f015f9054906101000a900473ffffffffffffffffffffffffffffffffffffffff1673ffffffffffffffffffffffffffffffffffffffff1673ffffffffffffffffffffffffffffffffffffffff1681526020019081526020015f205f9054906101000a900460ff16610695576040517f08c379a000000000000000000000000000000000000000000000000000000000815260040161068c9061438b565b60405180910390fd5b80806001019150506105be565b506006600b54106106e8576040517f08c379a00000000000000000000000000000000000000000000000000000000081526004016106df906143f3565b60405180910390fd5b6005600b54600681106106fe576106fd6142ee565b5b0154826040516020016107119190614431565b6040516020818303038152906040528051906020012014610767576040517f08c379a000000000000000000000000000000000000000000000000000000000815260040161075e906144bb565b60405180910390fd5b600b5f81548092919061077990614506565b91905055505f5b600180549050811015610a63575f600182815481106107a2576107a16142ee565b5b905f5260205f2090600402019050600e5f825f015f9054906101000a900473ffffffffffffffffffffffffffffffffffffffff1673ffffffffffffffffffffffffffffffffffffffff1673ffffffffffffffffffffffffffffffffffffffff1681526020019081526020015f205f9054906101000a900460ff1680156108355750806003015f9054906101000a900460ff165b801561085057508060030160019054906101000a900460ff16155b15610a55575f6108d3826002018054806020026020016040519081016040528092919081815260200182805480156108c957602002820191905f5260205f20905f905b82829054906101000a900460ff1660ff16815260200190600101906020825f010492830192600103820291508084116108935790505b5050505050612e45565b90505f73__$d2f6b017be7de1f9aeeafac1e5f6c413f3$__6310f8b35c83886040518363ffffffff1660e01b815260040161090f92919061455c565b602060405180830381865af415801561092a573d5f803e3d5ffd5b505050506040513d601f19601f8201168201806040525081019061094e91906145ad565b90508260020181908060018154018082558091505060019003905f5260205f2090602091828204019190069091909190916101000a81548160ff021916908360ff160217905550601573__$d2f6b017be7de1f9aeeafac1e5f6c413f3$__63345e3d68856002016040518263ffffffff1660e01b81526004016109d19190615302565b602060405180830381865af41580156109ec573d5f803e3d5ffd5b505050506040513d601f19601f82011682018060405250810190610a1091906145ad565b60ff161115610a525760018360030160016101000a81548160ff0219169083151502179055505f836003015f6101000a81548160ff0219169083151502179055505b50505b508080600101915050610780565b505f5b600180549050811015610b15575f600f5f60018481548110610a8b57610a8a6142ee565b5b905f5260205f2090600402015f015f9054906101000a900473ffffffffffffffffffffffffffffffffffffffff1673ffffffffffffffffffffffffffffffffffffffff1673ffffffffffffffffffffffffffffffffffffffff1681526020019081526020015f205f6101000a81548160ff0219169083151502179055508080600101915050610a66565b505f600190505f5b600180549050811015610b745760018181548110610b3e57610b3d6142ee565b5b905f5260205f2090600402016003015f9054906101000a900460ff1615610b67575f9150610b74565b8080600101915050610b1d565b508015610bad5760055f806101000a81548160ff02191690836005811115610b9f57610b9e613dbe565b5b0217905550610bac612ea3565b5b505050565b60115481565b60025481565b6001806005811115610bd357610bd2613dbe565b5b5f8054906101000a900460ff166005811115610bf257610bf1613dbe565b5b14610c32576040517f08c379a0000000000000000000000000000000000000000000000000000000008152600401610c29906142d0565b60405180910390fd5b5f801b600c5f3373ffffffffffffffffffffffffffffffffffffffff1673ffffffffffffffffffffffffffffffffffffffff1681526020019081526020015f205414610cb3576040517f08c379a0000000000000000000000000000000000000000000000000000000008152600401610caa9061536c565b60405180910390fd5b81600c5f3373ffffffffffffffffffffffffffffffffffffffff1673ffffffffffffffffffffffffffffffffffffffff1681526020019081526020015f20819055505050565b60105f9054906101000a900460ff1681565b60045f9054906101000a900473ffffffffffffffffffffffffffffffffffffffff1673ffffffffffffffffffffffffffffffffffffffff163373ffffffffffffffffffffffffffffffffffffffff1614610d9a576040517f08c379a0000000000000000000000000000000000000000000000000000000008152600401610d9190614268565b60405180910390fd5b5f806005811115610dae57610dad613dbe565b5b5f8054906101000a900460ff166005811115610dcd57610dcc613dbe565b5b14610e0d576040517f08c379a0000000000000000000000000000000000000000000000000000000008152600401610e04906142d0565b60405180910390fd5b5f60025411610e51576040517f08c379a0000000000000000000000000000000000000000000000000000000008152600401610e48906153d4565b60405180910390fd5b60015f806101000a81548160ff02191690836005811115610e7557610e74613dbe565b5b0217905550610e826131b2565b50565b5f805b600180549050811015610f1f573373ffffffffffffffffffffffffffffffffffffffff1660018281548110610ec057610ebf6142ee565b5b905f5260205f2090600402015f015f9054906101000a900473ffffffffffffffffffffffffffffffffffffffff1673ffffffffffffffffffffffffffffffffffffffff1603610f125760019150610f1f565b8080600101915050610e88565b5080610f60576040517f08c379a0000000000000000000000000000000000000000000000000000000008152600401610f5790615462565b60405180910390fd5b6003806005811115610f7557610f74613dbe565b5b5f8054906101000a900460ff166005811115610f9457610f93613dbe565b5b14610fd4576040517f08c379a0000000000000000000000000000000000000000000000000000000008152600401610fcb906142d0565b60405180910390fd5b610fdd336131c2565b61101c576040517f08c379a0000000000000000000000000000000000000000000000000000000008152600401611013906154f0565b60405180910390fd5b61102660016132d2565b5050565b600580600581111561103f5761103e613dbe565b5b5f8054906101000a900460ff16600581111561105e5761105d613dbe565b5b1461109e576040517f08c379a0000000000000000000000000000000000000000000000000000000008152600401611095906142d0565b60405180910390fd5b5f73__$d2f6b017be7de1f9aeeafac1e5f6c413f3$__63345e3d6860036040518263ffffffff1660e01b81526004016110d79190615302565b602060405180830381865af41580156110f2573d5f803e3d5ffd5b505050506040513d601f19601f8201168201806040525081019061111691906145ad565b90505f5b600180549050811015611311575f6001828154811061113c5761113b6142ee565b5b905f5260205f20906004020190505f73__$d2f6b017be7de1f9aeeafac1e5f6c413f3$__63345e3d68836002016040518263ffffffff1660e01b81526004016111859190615302565b602060405180830381865af41580156111a0573d5f803e3d5ffd5b505050506040513d601f19601f820116820180604052508101906111c491906145ad565b90508160030160019054906101000a900460ff16806111f8575060158460ff16111580156111f757508060ff168460ff16115b5b15611204575050611304565b8060ff168460ff1603611285575f82600101549050825f015f9054906101000a900473ffffffffffffffffffffffffffffffffffffffff1673ffffffffffffffffffffffffffffffffffffffff166108fc8290811502906040515f60405180830381858888f1935050505015801561127e573d5f803e3d5ffd5b5050611301565b5f60028360010154611297919061550e565b9050825f015f9054906101000a900473ffffffffffffffffffffffffffffffffffffffff1673ffffffffffffffffffffffffffffffffffffffff166108fc8290811502906040515f60405180830381858888f193505050501580156112fe573d5f803e3d5ffd5b50505b50505b808060010191505061111a565b505050565b60125481565b600d602052805f5260405f205f915090505481565b600e602052805f5260405f205f915054906101000a900460ff1681565b600f602052805f5260405f205f915054906101000a900460ff1681565b600c602052805f5260405f205f915090505481565b6005816006811061138f575f80fd5b015f915090505481565b5f8054906101000a900460ff1681565b60045f9054906101000a900473ffffffffffffffffffffffffffffffffffffffff1673ffffffffffffffffffffffffffffffffffffffff163373ffffffffffffffffffffffffffffffffffffffff1614611438576040517f08c379a000000000000000000000000000000000000000000000000000000000815260040161142f90614268565b60405180910390fd5b600180600581111561144d5761144c613dbe565b5b5f8054906101000a900460ff16600581111561146c5761146b613dbe565b5b146114ac576040517f08c379a00000000000000000000000000000000000000000000000000000000081526004016114a3906142d0565b60405180910390fd5b5f5b60018054905081101561158a575f801b600c5f600184815481106114d5576114d46142ee565b5b905f5260205f2090600402015f015f9054906101000a900473ffffffffffffffffffffffffffffffffffffffff1673ffffffffffffffffffffffffffffffffffffffff1673ffffffffffffffffffffffffffffffffffffffff1681526020019081526020015f20540361157d576040517f08c379a000000000000000000000000000000000000000000000000000000000815260040161157490615599565b60405180910390fd5b80806001019150506114ae565b5060025f806101000a81548160ff021916908360058111156115af576115ae613dbe565b5b021790555050565b5f805b600180549050811015611651573373ffffffffffffffffffffffffffffffffffffffff16600182815481106115f2576115f16142ee565b5b905f5260205f2090600402015f015f9054906101000a900473ffffffffffffffffffffffffffffffffffffffff1673ffffffffffffffffffffffffffffffffffffffff16036116445760019150611651565b80806001019150506115ba565b5080611692576040517f08c379a000000000000000000000000000000000000000000000000000000000815260040161168990615462565b60405180910390fd5b60038060058111156116a7576116a6613dbe565b5b5f8054906101000a900460ff1660058111156116c6576116c5613dbe565b5b14611706576040517f08c379a00000000000000000000000000000000000000000000000000000000081526004016116fd906142d0565b60405180910390fd5b61170f336131c2565b61174e576040517f08c379a0000000000000000000000000000000000000000000000000000000008152600401611745906154f0565b60405180910390fd5b6117575f6132d2565b5f600190505f5b6001805490508110156117ef576001818154811061177f5761177e6142ee565b5b905f5260205f2090600402016003015f9054906101000a900460ff1680156117d55750600181815481106117b6576117b56142ee565b5b905f5260205f20906004020160030160019054906101000a900460ff16155b156117e2575f91506117ef565b808060010191505061175e565b5080156118285760055f806101000a81548160ff0219169083600581111561181a57611819613dbe565b5b0217905550611827612ea3565b5b505050565b60608060038054905067ffffffffffffffff81111561184f5761184e6155b7565b5b60405190808252806020026020018201604052801561188257816020015b606081526020019060019003908161186d5790505b5091505f5b6003805490508110156118f9576118ce600382815481106118ab576118aa6142ee565b5b905f5260205f2090602091828204019190069054906101000a900460ff16613553565b8382815181106118e1576118e06142ee565b5b60200260200101819052508080600101915050611887565b5060018054905067ffffffffffffffff811115611919576119186155b7565b5b60405190808252806020026020018201604052801561194c57816020015b60608152602001906001900390816119375790505b5090505f5b600180549050811015611ab9575f60018281548110611973576119726142ee565b5b905f5260205f2090600402016002018054905067ffffffffffffffff81111561199f5761199e6155b7565b5b6040519080825280602002602001820160405280156119d257816020015b60608152602001906001900390816119bd5790505b5090505f5b600183815481106119eb576119ea6142ee565b5b905f5260205f20906004020160020180549050811015611a8b57611a6060018481548110611a1c57611a1b6142ee565b5b905f5260205f2090600402016002018281548110611a3d57611a3c6142ee565b5b905f5260205f2090602091828204019190069054906101000a900460ff16613553565b828281518110611a7357611a726142ee565b5b602002602001018190525080806001019150506119d7565b5080838381518110611aa057611a9f6142ee565b5b6020026020010181905250508080600101915050611951565b509091565b60045f9054906101000a900473ffffffffffffffffffffffffffffffffffffffff1673ffffffffffffffffffffffffffffffffffffffff163373ffffffffffffffffffffffffffffffffffffffff1614611b4d576040517f08c379a0000000000000000000000000000000000000000000000000000000008152600401611b4490614268565b60405180910390fd5b6002806005811115611b6257611b61613dbe565b5b5f8054906101000a900460ff166005811115611b8157611b80613dbe565b5b14611bc1576040517f08c379a0000000000000000000000000000000000000000000000000000000008152600401611bb8906142d0565b60405180910390fd5b5f600d5f60045f9054906101000a900473ffffffffffffffffffffffffffffffffffffffff1673ffffffffffffffffffffffffffffffffffffffff1673ffffffffffffffffffffffffffffffffffffffff1681526020019081526020015f205490505f8103611c65576040517f08c379a0000000000000000000000000000000000000000000000000000000008152600401611c5c9061562e565b60405180910390fd5b5f5b600180549050811015611f0b575f60018281548110611c8957611c886142ee565b5b905f5260205f2090600402015f015f9054906101000a900473ffffffffffffffffffffffffffffffffffffffff1690505f600d5f8373ffffffffffffffffffffffffffffffffffffffff1673ffffffffffffffffffffffffffffffffffffffff1681526020019081526020015f205490505f8103611d3c576040517f08c379a0000000000000000000000000000000000000000000000000000000008152600401611d33906156bc565b60405180910390fd5b5f73__$d2f6b017be7de1f9aeeafac1e5f6c413f3$__6310f8b35c83876040518363ffffffff1660e01b8152600401611d7692919061455c565b602060405180830381865af4158015611d91573d5f803e3d5ffd5b505050506040513d601f19601f82011682018060405250810190611db591906145ad565b90505f73__$d2f6b017be7de1f9aeeafac1e5f6c413f3$__6310f8b35c87856040518363ffffffff1660e01b8152600401611df192919061455c565b602060405180830381865af4158015611e0c573d5f803e3d5ffd5b505050506040513d601f19601f82011682018060405250810190611e3091906145ad565b905060018581548110611e4657611e456142ee565b5b905f5260205f20906004020160020182908060018154018082558091505060019003905f5260205f2090602091828204019190069091909190916101000a81548160ff021916908360ff16021790555060018581548110611eaa57611ea96142ee565b5b905f5260205f20906004020160020181908060018154018082558091505060019003905f5260205f2090602091828204019190069091909190916101000a81548160ff021916908360ff160217905550505050508080600101915050611c67565b505f805b600180549050811015611fd25781611fb960018381548110611f3457611f336142ee565b5b905f5260205f209060040201600201805480602002602001604051908101604052809291908181526020018280548015611faf57602002820191905f5260205f20905f905b82829054906101000a900460ff1660ff16815260200190600101906020825f01049283019260010382029150808411611f795790505b5050505050612e45565b611fc391906156da565b91508080600101915050611f0f565b505f73__$d2f6b017be7de1f9aeeafac1e5f6c413f3$__6310f8b35c83856040518363ffffffff1660e01b815260040161200d92919061455c565b602060405180830381865af4158015612028573d5f803e3d5ffd5b505050506040513d601f19601f8201168201806040525081019061204c91906145ad565b9050600381908060018154018082558091505060019003905f5260205f2090602091828204019190069091909190916101000a81548160ff021916908360ff16021790555060035f806101000a81548160ff021916908360058111156120b5576120b4613dbe565b5b021790555050505050565b60605f60018054905067ffffffffffffffff8111156120e2576120e16155b7565b5b6040519080825280602002602001820160405280156121105781602001602082028036833780820191505090505b5091505f5b6001805490508110156121ee5773__$d2f6b017be7de1f9aeeafac1e5f6c413f3$__63345e3d68600183815481106121505761214f6142ee565b5b905f5260205f2090600402016002016040518263ffffffff1660e01b815260040161217b9190615302565b602060405180830381865af4158015612196573d5f803e3d5ffd5b505050506040513d601f19601f820116820180604052508101906121ba91906145ad565b8382815181106121cd576121cc6142ee565b5b602002602001019060ff16908160ff16815250508080600101915050612115565b5073__$d2f6b017be7de1f9aeeafac1e5f6c413f3$__63345e3d6860036040518263ffffffff1660e01b81526004016122279190615302565b602060405180830381865af4158015612242573d5f803e3d5ffd5b505050506040513d601f19601f8201168201806040525081019061226691906145ad565b90509091565b5f8060058111156122805761227f613dbe565b5b5f8054906101000a900460ff16600581111561229f5761229e613dbe565b5b146122df576040517f08c379a00000000000000000000000000000000000000000000000000000000081526004016122d6906142d0565b60405180910390fd5b600460025410612324576040517f08c379a000000000000000000000000000000000000000000000000000000000815260040161231b90615757565b60405180910390fd5b813414612366576040517f08c379a000000000000000000000000000000000000000000000000000000000815260040161235d906157bf565b60405180910390fd5b60016040518060a001604052803373ffffffffffffffffffffffffffffffffffffffff1681526020018481526020015f67ffffffffffffffff8111156123af576123ae6155b7565b5b6040519080825280602002602001820160405280156123dd5781602001602082028036833780820191505090505b5081526020016001151581526020015f1515815250908060018154018082558091505060019003905f5260205f2090600402015f909190919091505f820151815f015f6101000a81548173ffffffffffffffffffffffffffffffffffffffff021916908373ffffffffffffffffffffffffffffffffffffffff160217905550602082015181600101556040820151816002019080519060200190612482929190613b39565b506060820151816003015f6101000a81548160ff02191690831515021790555060808201518160030160016101000a81548160ff021916908315150217905550505060025f8154809291906124d690614506565b91905055505050565b6124ea6012546136e5565b612529576040517f08c379a000000000000000000000000000000000000000000000000000000000815260040161252090615827565b60405180910390fd5b6001600581111561253d5761253c613dbe565b5b5f8054906101000a900460ff16600581111561255c5761255b613dbe565b5b036126cd575f5b600180549050811015612688575f801b600c5f6001848154811061258a576125896142ee565b5b905f5260205f2090600402015f015f9054906101000a900473ffffffffffffffffffffffffffffffffffffffff1673ffffffffffffffffffffffffffffffffffffffff1673ffffffffffffffffffffffffffffffffffffffff1681526020019081526020015f205414801561262b57506001818154811061260e5761260d6142ee565b5b905f5260205f2090600402016003015f9054906101000a900460ff165b1561267b5761267a60018281548110612647576126466142ee565b5b905f5260205f2090600402015f015f9054906101000a900473ffffffffffffffffffffffffffffffffffffffff166136f0565b5b8080600101915050612563565b506126916137fe565b156126c05760055f806101000a81548160ff021916908360058111156126ba576126b9613dbe565b5b02179055505b6126c86131b2565b612b0c565b600260058111156126e1576126e0613dbe565b5b5f8054906101000a900460ff166005811115612700576126ff613dbe565b5b0361291b575f600190505f5b600180549050811015612832575f600d5f60018481548110612731576127306142ee565b5b905f5260205f2090600402015f015f9054906101000a900473ffffffffffffffffffffffffffffffffffffffff1673ffffffffffffffffffffffffffffffffffffffff1673ffffffffffffffffffffffffffffffffffffffff1681526020019081526020015f20541480156127d25750600181815481106127b5576127b46142ee565b5b905f5260205f2090600402016003015f9054906101000a900460ff165b1561282557612821600182815481106127ee576127ed6142ee565b5b905f5260205f2090600402015f015f9054906101000a900473ffffffffffffffffffffffffffffffffffffffff166136f0565b5f91505b808060010191505061270c565b5061283b6137fe565b1561286a5760055f806101000a81548160ff0219169083600581111561286457612863613dbe565b5b02179055505b5f600d5f60045f9054906101000a900473ffffffffffffffffffffffffffffffffffffffff1673ffffffffffffffffffffffffffffffffffffffff1673ffffffffffffffffffffffffffffffffffffffff1681526020019081526020015f205403612906576128d761389f565b60055f806101000a81548160ff021916908360058111156128fb576128fa613dbe565b5b021790555050612b0d565b8015612915576129146131b2565b5b50612b0b565b6003600581111561292f5761292e613dbe565b5b5f8054906101000a900460ff16600581111561294e5761294d613dbe565b5b03612b0a575f600190505f5b600180549050811015612a8b576001818154811061297b5761297a6142ee565b5b905f5260205f2090600402016003015f9054906101000a900460ff168015612a2b5750600f5f600183815481106129b5576129b46142ee565b5b905f5260205f2090600402015f015f9054906101000a900473ffffffffffffffffffffffffffffffffffffffff1673ffffffffffffffffffffffffffffffffffffffff1673ffffffffffffffffffffffffffffffffffffffff1681526020019081526020015f205f9054906101000a900460ff16155b15612a7e57612a7a60018281548110612a4757612a466142ee565b5b905f5260205f2090600402015f015f9054906101000a900473ffffffffffffffffffffffffffffffffffffffff166136f0565b5f91505b808060010191505061295a565b50612a946137fe565b15612ac35760055f806101000a81548160ff02191690836005811115612abd57612abc613dbe565b5b02179055505b8015612aff57612ad161389f565b60055f806101000a81548160ff02191690836005811115612af557612af4613dbe565b5b0217905550612b08565b612b076131b2565b5b505b5b5b5b565b6002806005811115612b2457612b23613dbe565b5b5f8054906101000a900460ff166005811115612b4357612b42613dbe565b5b14612b83576040517f08c379a0000000000000000000000000000000000000000000000000000000008152600401612b7a906142d0565b60405180910390fd5b5f600d5f3373ffffffffffffffffffffffffffffffffffffffff1673ffffffffffffffffffffffffffffffffffffffff1681526020019081526020015f205414612c02576040517f08c379a0000000000000000000000000000000000000000000000000000000008152600401612bf99061588f565b60405180910390fd5b60045f9054906101000a900473ffffffffffffffffffffffffffffffffffffffff1673ffffffffffffffffffffffffffffffffffffffff163373ffffffffffffffffffffffffffffffffffffffff1603612d54576005600b5460068110612c6c57612c6b6142ee565b5b015482604051602001612c7f9190614431565b6040516020818303038152906040528051906020012014612cd5576040517f08c379a0000000000000000000000000000000000000000000000000000000008152600401612ccc906158f7565b60405180910390fd5b81600d5f60045f9054906101000a900473ffffffffffffffffffffffffffffffffffffffff1673ffffffffffffffffffffffffffffffffffffffff1673ffffffffffffffffffffffffffffffffffffffff1681526020019081526020015f2081905550600b5f815480929190612d4a90614506565b9190505550612e41565b5f82604051602001612d669190614431565b604051602081830303815290604052805190602001209050600c5f3373ffffffffffffffffffffffffffffffffffffffff1673ffffffffffffffffffffffffffffffffffffffff1681526020019081526020015f20548114612dfd576040517f08c379a0000000000000000000000000000000000000000000000000000000008152600401612df49061595f565b60405180910390fd5b82600d5f3373ffffffffffffffffffffffffffffffffffffffff1673ffffffffffffffffffffffffffffffffffffffff1681526020019081526020015f2081905550505b5050565b5f805f90505f5b8351811015612e9957838181518110612e6857612e676142ee565b5b602002602001015160ff16606483612e80919061550e565b612e8a91906156da565b91508080600101915050612e4c565b5080915050919050565b600580811115612eb657612eb5613dbe565b5b5f8054906101000a900460ff166005811115612ed557612ed4613dbe565b5b14612f15576040517f08c379a0000000000000000000000000000000000000000000000000000000008152600401612f0c906159ed565b60405180910390fd5b5f805b600180549050811015612fdd5781600c5f60018481548110612f3d57612f3c6142ee565b5b905f5260205f2090600402015f015f9054906101000a900473ffffffffffffffffffffffffffffffffffffffff1673ffffffffffffffffffffffffffffffffffffffff1673ffffffffffffffffffffffffffffffffffffffff1681526020019081526020015f2054604051602001612fb6929190615a2b565b604051602081830303815290604052805190602001205f1c91508080600101915050612f18565b505f5b601173__$d2f6b017be7de1f9aeeafac1e5f6c413f3$__63345e3d6860036040518263ffffffff1660e01b815260040161301a9190615302565b602060405180830381865af4158015613035573d5f803e3d5ffd5b505050506040513d601f19601f8201168201806040525081019061305991906145ad565b60ff1610156131ae57806130de60038054806020026020016040519081016040528092919081815260200182805480156130d457602002820191905f5260205f20905f905b82829054906101000a900460ff1660ff16815260200190600101906020825f0104928301926001038202915080841161309e5790505b5050505050612e45565b6130e891906156da565b90505f73__$d2f6b017be7de1f9aeeafac1e5f6c413f3$__6310f8b35c84846040518363ffffffff1660e01b815260040161312492919061455c565b602060405180830381865af415801561313f573d5f803e3d5ffd5b505050506040513d601f19601f8201168201806040525081019061316391906145ad565b9050600381908060018154018082558091505060019003905f5260205f2090602091828204019190069091909190916101000a81548160ff021916908360ff16021790555050612fe0565b5050565b6131ba6139ad565b601281905550565b5f805f90505b6001805490508110156132c8578273ffffffffffffffffffffffffffffffffffffffff1660018281548110613200576131ff6142ee565b5b905f5260205f2090600402015f015f9054906101000a900473ffffffffffffffffffffffffffffffffffffffff1673ffffffffffffffffffffffffffffffffffffffff16036132bb576001818154811061325d5761325c6142ee565b5b905f5260205f2090600402016003015f9054906101000a900460ff1680156132b3575060018181548110613294576132936142ee565b5b905f5260205f20906004020160030160019054906101000a900460ff16155b9150506132cd565b80806001019150506131c8565b505f90505b919050565b60038060058111156132e7576132e6613dbe565b5b5f8054906101000a900460ff16600581111561330657613305613dbe565b5b14613346576040517f08c379a000000000000000000000000000000000000000000000000000000000815260040161333d906142d0565b60405180910390fd5b600f5f3373ffffffffffffffffffffffffffffffffffffffff1673ffffffffffffffffffffffffffffffffffffffff1681526020019081526020015f205f9054906101000a900460ff16156133d0576040517f08c379a00000000000000000000000000000000000000000000000000000000081526004016133c790615aa0565b60405180910390fd5b81600e5f3373ffffffffffffffffffffffffffffffffffffffff1673ffffffffffffffffffffffffffffffffffffffff1681526020019081526020015f205f6101000a81548160ff0219169083151502179055506001600f5f3373ffffffffffffffffffffffffffffffffffffffff1673ffffffffffffffffffffffffffffffffffffffff1681526020019081526020015f205f6101000a81548160ff0219169083151502179055508161354f575f5b60018054905081101561354d573373ffffffffffffffffffffffffffffffffffffffff16600182815481106134b8576134b76142ee565b5b905f5260205f2090600402015f015f9054906101000a900473ffffffffffffffffffffffffffffffffffffffff1673ffffffffffffffffffffffffffffffffffffffff1603613540575f60018281548110613516576135156142ee565b5b905f5260205f2090600402016003015f6101000a81548160ff02191690831515021790555061354d565b8080600101915050613480565b505b5050565b606060018260ff160361359d576040518060400160405280600181526020017f410000000000000000000000000000000000000000000000000000000000000081525090506136e0565b60028260ff16101580156135b55750600a8260ff1611155b156135cd576135c68260ff166139c0565b90506136e0565b600b8260ff1603613615576040518060400160405280600181526020017f4a0000000000000000000000000000000000000000000000000000000000000081525090506136e0565b600c8260ff160361365d576040518060400160405280600181526020017f510000000000000000000000000000000000000000000000000000000000000081525090506136e0565b600d8260ff16036136a5576040518060400160405280600181526020017f4b0000000000000000000000000000000000000000000000000000000000000081525090506136e0565b6040517f08c379a00000000000000000000000000000000000000000000000000000000081526004016136d790615b08565b60405180910390fd5b919050565b5f8142119050919050565b5f5b6001805490508110156137fa578173ffffffffffffffffffffffffffffffffffffffff166001828154811061372a576137296142ee565b5b905f5260205f2090600402015f015f9054906101000a900473ffffffffffffffffffffffffffffffffffffffff1673ffffffffffffffffffffffffffffffffffffffff16036137ed575f60018281548110613788576137876142ee565b5b905f5260205f2090600402016003015f6101000a81548160ff02191690831515021790555060018082815481106137c2576137c16142ee565b5b905f5260205f20906004020160030160016101000a81548160ff0219169083151502179055506137fa565b80806001019150506136f2565b5050565b5f805f90505b6001805490508110156138965760018181548110613825576138246142ee565b5b905f5260205f2090600402016003015f9054906101000a900460ff16801561387b57506001818154811061385c5761385b6142ee565b5b905f5260205f20906004020160030160019054906101000a900460ff16155b15613889575f91505061389c565b8080600101915050613804565b50600190505b90565b5f5b6001805490508110156139aa57600181815481106138c2576138c16142ee565b5b905f5260205f2090600402016003015f9054906101000a900460ff161561399d575f6002600183815481106138fa576138f96142ee565b5b905f5260205f20906004020160010154613914919061550e565b90506001828154811061392a576139296142ee565b5b905f5260205f2090600402015f015f9054906101000a900473ffffffffffffffffffffffffffffffffffffffff1673ffffffffffffffffffffffffffffffffffffffff166108fc8290811502906040515f60405180830381858888f1935050505015801561399a573d5f803e3d5ffd5b50505b80806001019150506138a1565b50565b5f603c426139bb91906156da565b905090565b60605f8203613a06576040518060400160405280600181526020017f30000000000000000000000000000000000000000000000000000000000000008152509050613b34565b5f8290505f5b5f8214613a35578080613a1e90614506565b915050600a82613a2e9190615b53565b9150613a0c565b5f8167ffffffffffffffff811115613a5057613a4f6155b7565b5b6040519080825280601f01601f191660200182016040528015613a825781602001600182028036833780820191505090505b5090505f8290505b5f8614613b2c57600181613a9e9190615b83565b90505f600a8088613aaf9190615b53565b613ab9919061550e565b87613ac49190615b83565b6030613ad09190615bb6565b90508060f81b838381518110613ae957613ae86142ee565b5b60200101907effffffffffffffffffffffffffffffffffffffffffffffffffffffffffffff191690815f1a905350600a87613b249190615b53565b965050613a8a565b819450505050505b919050565b828054828255905f5260205f2090601f01602090048101928215613bca579160200282015f5b83821115613b9c57835183826101000a81548160ff021916908360ff16021790555092602001926001016020815f01049283019260010302613b5f565b8015613bc85782816101000a81549060ff02191690556001016020815f01049283019260010302613b9c565b505b509050613bd79190613bdb565b5090565b5b80821115613bf2575f815f905550600101613bdc565b5090565b5f80fd5b5f819050919050565b613c0c81613bfa565b8114613c16575f80fd5b50565b5f81359050613c2781613c03565b92915050565b5f60208284031215613c4257613c41613bf6565b5b5f613c4f84828501613c19565b91505092915050565b613c6181613bfa565b82525050565b5f602082019050613c7a5f830184613c58565b92915050565b5f819050919050565b613c9281613c80565b8114613c9c575f80fd5b50565b5f81359050613cad81613c89565b92915050565b5f60208284031215613cc857613cc7613bf6565b5b5f613cd584828501613c9f565b91505092915050565b5f8115159050919050565b613cf281613cde565b82525050565b5f602082019050613d0b5f830184613ce9565b92915050565b5f73ffffffffffffffffffffffffffffffffffffffff82169050919050565b5f613d3a82613d11565b9050919050565b613d4a81613d30565b8114613d54575f80fd5b50565b5f81359050613d6581613d41565b92915050565b5f60208284031215613d8057613d7f613bf6565b5b5f613d8d84828501613d57565b91505092915050565b613d9f81613c80565b82525050565b5f602082019050613db85f830184613d96565b92915050565b7f4e487b71000000000000000000000000000000000000000000000000000000005f52602160045260245ffd5b60068110613dfc57613dfb613dbe565b5b50565b5f819050613e0c82613deb565b919050565b5f613e1b82613dff565b9050919050565b613e2b81613e11565b82525050565b5f602082019050613e445f830184613e22565b92915050565b5f81519050919050565b5f82825260208201905092915050565b5f819050602082019050919050565b5f81519050919050565b5f82825260208201905092915050565b8281835e5f83830152505050565b5f601f19601f8301169050919050565b5f613eb582613e73565b613ebf8185613e7d565b9350613ecf818560208601613e8d565b613ed881613e9b565b840191505092915050565b5f613eee8383613eab565b905092915050565b5f602082019050919050565b5f613f0c82613e4a565b613f168185613e54565b935083602082028501613f2885613e64565b805f5b85811015613f635784840389528151613f448582613ee3565b9450613f4f83613ef6565b925060208a01995050600181019050613f2b565b50829750879550505050505092915050565b5f81519050919050565b5f82825260208201905092915050565b5f819050602082019050919050565b5f82825260208201905092915050565b5f613fb882613e4a565b613fc28185613f9e565b935083602082028501613fd485613e64565b805f5b8581101561400f5784840389528151613ff08582613ee3565b9450613ffb83613ef6565b925060208a01995050600181019050613fd7565b50829750879550505050505092915050565b5f61402c8383613fae565b905092915050565b5f602082019050919050565b5f61404a82613f75565b6140548185613f7f565b93508360208202850161406685613f8f565b805f5b858110156140a157848403895281516140828582614021565b945061408d83614034565b925060208a01995050600181019050614069565b50829750879550505050505092915050565b5f6040820190508181035f8301526140cb8185613f02565b905081810360208301526140df8184614040565b90509392505050565b5f81519050919050565b5f82825260208201905092915050565b5f819050602082019050919050565b5f60ff82169050919050565b61412681614111565b82525050565b5f614137838361411d565b60208301905092915050565b5f602082019050919050565b5f614159826140e8565b61416381856140f2565b935061416e83614102565b805f5b8381101561419e578151614185888261412c565b975061419083614143565b925050600181019050614171565b5085935050505092915050565b6141b481614111565b82525050565b5f6040820190508181035f8301526141d2818561414f565b90506141e160208301846141ab565b9392505050565b5f82825260208201905092915050565b7f4f6e6c79207468652062616e6b2063616e20706572666f726d207468697320615f8201527f6374696f6e000000000000000000000000000000000000000000000000000000602082015250565b5f6142526025836141e8565b915061425d826141f8565b604082019050919050565b5f6020820190508181035f83015261427f81614246565b9050919050565b7f496e76616c696420737461746520666f72207468697320616374696f6e0000005f82015250565b5f6142ba601d836141e8565b91506142c582614286565b602082019050919050565b5f6020820190508181035f8301526142e7816142ae565b9050919050565b7f4e487b71000000000000000000000000000000000000000000000000000000005f52603260045260245ffd5b7f4e6f7420616c6c20706c61796572732068617665206d616465207468656972205f8201527f63686f6963650000000000000000000000000000000000000000000000000000602082015250565b5f6143756026836141e8565b91506143808261431b565b604082019050919050565b5f6020820190508181035f8301526143a281614369565b9050919050565b7f4e6f206d6f72652068617368657320617661696c61626c6500000000000000005f82015250565b5f6143dd6018836141e8565b91506143e8826143a9565b602082019050919050565b5f6020820190508181035f83015261440a816143d1565b9050919050565b5f819050919050565b61442b61442682613bfa565b614411565b82525050565b5f61443c828461441a565b60208201915081905092915050565b7f4861736820646f6573206e6f74206d6174636820746865206e6578742062616e5f8201527f6b20686173680000000000000000000000000000000000000000000000000000602082015250565b5f6144a56026836141e8565b91506144b08261444b565b604082019050919050565b5f6020820190508181035f8301526144d281614499565b9050919050565b7f4e487b71000000000000000000000000000000000000000000000000000000005f52601160045260245ffd5b5f61451082613bfa565b91507fffffffffffffffffffffffffffffffffffffffffffffffffffffffffffffffff8203614542576145416144d9565b5b600182019050919050565b61455681613bfa565b82525050565b5f60408201905061456f5f83018561454d565b61457c602083018461454d565b9392505050565b61458c81614111565b8114614596575f80fd5b50565b5f815190506145a781614583565b92915050565b5f602082840312156145c2576145c1613bf6565b5b5f6145cf84828501614599565b91505092915050565b5f81549050919050565b5f82825260208201905092915050565b5f819050815f5260205f209050919050565b61460d81614111565b82525050565b5f815f1c9050919050565b5f60ff82169050919050565b5f61463c61463783614613565b61461e565b9050919050565b5f8160081c9050919050565b5f61466161465c83614643565b61461e565b9050919050565b5f8160101c9050919050565b5f61468661468183614668565b61461e565b9050919050565b5f8160181c9050919050565b5f6146ab6146a68361468d565b61461e565b9050919050565b5f8160201c9050919050565b5f6146d06146cb836146b2565b61461e565b9050919050565b5f8160281c9050919050565b5f6146f56146f0836146d7565b61461e565b9050919050565b5f8160301c9050919050565b5f61471a614715836146fc565b61461e565b9050919050565b5f8160381c9050919050565b5f61473f61473a83614721565b61461e565b9050919050565b5f8160401c9050919050565b5f61476461475f83614746565b61461e565b9050919050565b5f8160481c9050919050565b5f6147896147848361476b565b61461e565b9050919050565b5f8160501c9050919050565b5f6147ae6147a983614790565b61461e565b9050919050565b5f8160581c9050919050565b5f6147d36147ce836147b5565b61461e565b9050919050565b5f8160601c9050919050565b5f6147f86147f3836147da565b61461e565b9050919050565b5f8160681c9050919050565b5f61481d614818836147ff565b61461e565b9050919050565b5f8160701c9050919050565b5f61484261483d83614824565b61461e565b9050919050565b5f8160781c9050919050565b5f61486761486283614849565b61461e565b9050919050565b5f8160801c9050919050565b5f61488c6148878361486e565b61461e565b9050919050565b5f8160881c9050919050565b5f6148b16148ac83614893565b61461e565b9050919050565b5f8160901c9050919050565b5f6148d66148d1836148b8565b61461e565b9050919050565b5f8160981c9050919050565b5f6148fb6148f6836148dd565b61461e565b9050919050565b5f8160a01c9050919050565b5f61492061491b83614902565b61461e565b9050919050565b5f8160a81c9050919050565b5f61494561494083614927565b61461e565b9050919050565b5f8160b01c9050919050565b5f61496a6149658361494c565b61461e565b9050919050565b5f8160b81c9050919050565b5f61498f61498a83614971565b61461e565b9050919050565b5f8160c01c9050919050565b5f6149b46149af83614996565b61461e565b9050919050565b5f8160c81c9050919050565b5f6149d96149d4836149bb565b61461e565b9050919050565b5f8160d01c9050919050565b5f6149fe6149f9836149e0565b61461e565b9050919050565b5f8160d81c9050919050565b5f614a23614a1e83614a05565b61461e565b9050919050565b5f8160e01c9050919050565b5f614a48614a4383614a2a565b61461e565b9050919050565b5f8160e81c9050919050565b5f614a6d614a6883614a4f565b61461e565b9050919050565b5f8160f01c9050919050565b5f614a92614a8d83614a74565b61461e565b9050919050565b5f8160f81c9050919050565b5f614ab7614ab283614a99565b61461e565b9050919050565b5f614ac8826145d8565b614ad281856145e2565b935083614ade846145f2565b5f600115614e0a575b83600160200382011015614e09578154614b0988614b048361462a565b614604565b602088019750614b2188614b1c8361464f565b614604565b602088019750614b3988614b3483614674565b614604565b602088019750614b5188614b4c83614699565b614604565b602088019750614b6988614b64836146be565b614604565b602088019750614b8188614b7c836146e3565b614604565b602088019750614b9988614b9483614708565b614604565b602088019750614bb188614bac8361472d565b614604565b602088019750614bc988614bc483614752565b614604565b602088019750614be188614bdc83614777565b614604565b602088019750614bf988614bf48361479c565b614604565b602088019750614c1188614c0c836147c1565b614604565b602088019750614c2988614c24836147e6565b614604565b602088019750614c4188614c3c8361480b565b614604565b602088019750614c5988614c5483614830565b614604565b602088019750614c7188614c6c83614855565b614604565b602088019750614c8988614c848361487a565b614604565b602088019750614ca188614c9c8361489f565b614604565b602088019750614cb988614cb4836148c4565b614604565b602088019750614cd188614ccc836148e9565b614604565b602088019750614ce988614ce48361490e565b614604565b602088019750614d0188614cfc83614933565b614604565b602088019750614d1988614d1483614958565b614604565b602088019750614d3188614d2c8361497d565b614604565b602088019750614d4988614d44836149a2565b614604565b602088019750614d6188614d5c836149c7565b614604565b602088019750614d7988614d74836149ec565b614604565b602088019750614d9188614d8c83614a11565b614604565b602088019750614da988614da483614a36565b614604565b602088019750614dc188614dbc83614a5b565b614604565b602088019750614dd988614dd483614a80565b614604565b602088019750614df188614dec83614aa5565b614604565b60208801975060018301925050602081019050614ae7565b5b6001156152f557815484821015614e3a57614e2d88614e288361462a565b614604565b6020880197506001820191505b84821015614e6157614e5488614e4f8361464f565b614604565b6020880197506001820191505b84821015614e8857614e7b88614e7683614674565b614604565b6020880197506001820191505b84821015614eaf57614ea288614e9d83614699565b614604565b6020880197506001820191505b84821015614ed657614ec988614ec4836146be565b614604565b6020880197506001820191505b84821015614efd57614ef088614eeb836146e3565b614604565b6020880197506001820191505b84821015614f2457614f1788614f1283614708565b614604565b6020880197506001820191505b84821015614f4b57614f3e88614f398361472d565b614604565b6020880197506001820191505b84821015614f7257614f6588614f6083614752565b614604565b6020880197506001820191505b84821015614f9957614f8c88614f8783614777565b614604565b6020880197506001820191505b84821015614fc057614fb388614fae8361479c565b614604565b6020880197506001820191505b84821015614fe757614fda88614fd5836147c1565b614604565b6020880197506001820191505b8482101561500e5761500188614ffc836147e6565b614604565b6020880197506001820191505b8482101561503557615028886150238361480b565b614604565b6020880197506001820191505b8482101561505c5761504f8861504a83614830565b614604565b6020880197506001820191505b84821015615083576150768861507183614855565b614604565b6020880197506001820191505b848210156150aa5761509d886150988361487a565b614604565b6020880197506001820191505b848210156150d1576150c4886150bf8361489f565b614604565b6020880197506001820191505b848210156150f8576150eb886150e6836148c4565b614604565b6020880197506001820191505b8482101561511f576151128861510d836148e9565b614604565b6020880197506001820191505b8482101561514657615139886151348361490e565b614604565b6020880197506001820191505b8482101561516d576151608861515b83614933565b614604565b6020880197506001820191505b84821015615194576151878861518283614958565b614604565b6020880197506001820191505b848210156151bb576151ae886151a98361497d565b614604565b6020880197506001820191505b848210156151e2576151d5886151d0836149a2565b614604565b6020880197506001820191505b84821015615209576151fc886151f7836149c7565b614604565b6020880197506001820191505b84821015615230576152238861521e836149ec565b614604565b6020880197506001820191505b848210156152575761524a8861524583614a11565b614604565b6020880197506001820191505b8482101561527e576152718861526c83614a36565b614604565b6020880197506001820191505b848210156152a5576152988861529383614a5b565b614604565b6020880197506001820191505b848210156152cc576152bf886152ba83614a80565b614604565b6020880197506001820191505b848210156152f3576152e6886152e183614aa5565b614604565b6020880197506001820191505b505b8694505050505092915050565b5f6020820190508181035f83015261531a8184614abe565b905092915050565b7f506c61796572206861736820616c726561647920636f6d6d69747465640000005f82015250565b5f615356601d836141e8565b915061536182615322565b602082019050919050565b5f6020820190508181035f8301526153838161534a565b9050919050565b7f4e6f20706c61796572732068617665206a6f696e6564000000000000000000005f82015250565b5f6153be6016836141e8565b91506153c98261538a565b602082019050919050565b5f6020820190508181035f8301526153eb816153b2565b9050919050565b7f4f6e6c792070617274696369706174696e6720706c61796572732063616e20705f8201527f6572666f726d207468697320616374696f6e0000000000000000000000000000602082015250565b5f61544c6032836141e8565b9150615457826153f2565b604082019050919050565b5f6020820190508181035f83015261547981615440565b9050919050565b7f506c61796572206973206e6f7420616374697665206f722069732062757374655f8201527f6400000000000000000000000000000000000000000000000000000000000000602082015250565b5f6154da6021836141e8565b91506154e582615480565b604082019050919050565b5f6020820190508181035f830152615507816154ce565b9050919050565b5f61551882613bfa565b915061552383613bfa565b925082820261553181613bfa565b91508282048414831517615548576155476144d9565b5b5092915050565b7f4e6f7420616c6c20706c617965727320636f6d6d6974746564000000000000005f82015250565b5f6155836019836141e8565b915061558e8261554f565b602082019050919050565b5f6020820190508181035f8301526155b081615577565b9050919050565b7f4e487b71000000000000000000000000000000000000000000000000000000005f52604160045260245ffd5b7f42616e6b20686173206e6f742072657665616c656420697473206e756d6265725f82015250565b5f6156186020836141e8565b9150615623826155e4565b602082019050919050565b5f6020820190508181035f8301526156458161560c565b9050919050565b7f506c6179657220686173206e6f742072657665616c6564207468656972206e755f8201527f6d62657200000000000000000000000000000000000000000000000000000000602082015250565b5f6156a66024836141e8565b91506156b18261564c565b604082019050919050565b5f6020820190508181035f8301526156d38161569a565b9050919050565b5f6156e482613bfa565b91506156ef83613bfa565b9250828201905080821115615707576157066144d9565b5b92915050565b7f4d6178203420706c617965727320616c6c6f77656400000000000000000000005f82015250565b5f6157416015836141e8565b915061574c8261570d565b602082019050919050565b5f6020820190508181035f83015261576e81615735565b9050919050565b7f42657420616d6f756e74206d69736d61746368000000000000000000000000005f82015250565b5f6157a96013836141e8565b91506157b482615775565b602082019050919050565b5f6020820190508181035f8301526157d68161579d565b9050919050565b7f54696d656f7574206e6f742079657420706173736564000000000000000000005f82015250565b5f6158116016836141e8565b915061581c826157dd565b602082019050919050565b5f6020820190508181035f83015261583e81615805565b9050919050565b7f4e756d62657220616c72656164792072657665616c65640000000000000000005f82015250565b5f6158796017836141e8565b915061588482615845565b602082019050919050565b5f6020820190508181035f8301526158a68161586d565b9050919050565b7f4861736820646f6573206e6f74206d6174636820666f7220696e6465782030005f82015250565b5f6158e1601f836141e8565b91506158ec826158ad565b602082019050919050565b5f6020820190508181035f83015261590e816158d5565b9050919050565b7f4861736820646f6573206e6f74206d61746368000000000000000000000000005f82015250565b5f6159496013836141e8565b915061595482615915565b602082019050919050565b5f6020820190508181035f8301526159768161593d565b9050919050565b7f42616e6b2063617264732063616e206f6e6c7920626520647261776e20696e205f8201527f436f6d706c657465642073746174650000000000000000000000000000000000602082015250565b5f6159d7602f836141e8565b91506159e28261597d565b604082019050919050565b5f6020820190508181035f830152615a04816159cb565b9050919050565b5f819050919050565b615a25615a2082613c80565b615a0b565b82525050565b5f615a36828561441a565b602082019150615a468284615a14565b6020820191508190509392505050565b7f43686f69636520616c7265616479206d616465000000000000000000000000005f82015250565b5f615a8a6013836141e8565b9150615a9582615a56565b602082019050919050565b5f6020820190508181035f830152615ab781615a7e565b9050919050565b7f496e76616c696420636172642076616c756500000000000000000000000000005f82015250565b5f615af26012836141e8565b9150615afd82615abe565b602082019050919050565b5f6020820190508181035f830152615b1f81615ae6565b9050919050565b7f4e487b71000000000000000000000000000000000000000000000000000000005f52601260045260245ffd5b5f615b5d82613bfa565b9150615b6883613bfa565b925082615b7857615b77615b26565b5b828204905092915050565b5f615b8d82613bfa565b9150615b9883613bfa565b9250828203905081811115615bb057615baf6144d9565b5b92915050565b5f615bc082614111565b9150615bcb83614111565b9250828201905060ff811115615be457615be36144d9565b5b9291505056fea2646970667358221220da25d3624625e43b11941bf74272cf88436f3d2108de14f3457d754281456be264736f6c634300081a0033",
			"opcodes": "PUSH1 0x80 PUSH1 0x40 MSTORE PUSH0 PUSH1 0xB SSTORE CALLER PUSH1 0x4 PUSH0 PUSH2 0x100 EXP DUP2 SLOAD DUP2 PUSH20 0xFFFFFFFFFFFFFFFFFFFFFFFFFFFFFFFFFFFFFFFF MUL NOT AND SWAP1 DUP4 PUSH20 0xFFFFFFFFFFFFFFFFFFFFFFFFFFFFFFFFFFFFFFFF AND MUL OR SWAP1 SSTORE POP PUSH32 0x5569044719A1EC3B04D0AFA9E7A5310C7C0473331D13DC9FAFE143B2C4E8148A PUSH0 SHL PUSH1 0x5 PUSH0 PUSH1 0x6 DUP2 LT PUSH2 0x7F JUMPI PUSH2 0x7E PUSH2 0x21F JUMP JUMPDEST JUMPDEST ADD DUP2 SWAP1 SSTORE POP PUSH32 0x8CDEE82CB3AC6D59F1F417405A3EECF497B31F3D06D4C506F96DEB67789F61E9 PUSH0 SHL PUSH1 0x5 PUSH1 0x1 PUSH1 0x6 DUP2 LT PUSH2 0xBC JUMPI PUSH2 0xBB PUSH2 0x21F JUMP JUMPDEST JUMPDEST ADD DUP2 SWAP1 SSTORE POP PUSH32 0x99AB169E1C348AEC31EFD8DFB67CD8C9A0B8671E1175932DDA6708B0CC02A502 PUSH0 SHL PUSH1 0x5 PUSH1 0x2 PUSH1 0x6 DUP2 LT PUSH2 0xF9 JUMPI PUSH2 0xF8 PUSH2 0x21F JUMP JUMPDEST JUMPDEST ADD DUP2 SWAP1 SSTORE POP PUSH32 0x447DD11B9E568A4A39776C37476A0DC1AA52F08DEC0E496BDA446AACC5BDED48 PUSH0 SHL PUSH1 0x5 PUSH1 0x3 PUSH1 0x6 DUP2 LT PUSH2 0x136 JUMPI PUSH2 0x135 PUSH2 0x21F JUMP JUMPDEST JUMPDEST ADD DUP2 SWAP1 SSTORE POP PUSH32 0x88456BED5A4300EE8DBD308A84179F780647BB3C4153152528902C7141799B04 PUSH0 SHL PUSH1 0x5 PUSH1 0x4 PUSH1 0x6 DUP2 LT PUSH2 0x173 JUMPI PUSH2 0x172 PUSH2 0x21F JUMP JUMPDEST JUMPDEST ADD DUP2 SWAP1 SSTORE POP PUSH32 0xAEB49E17C56367F7BBD1CA11B9E0DB05383C0D776987B6355D2DC2E7B60143E PUSH0 SHL PUSH1 0x5 DUP1 PUSH1 0x6 DUP2 LT PUSH2 0x1AF JUMPI PUSH2 0x1AE PUSH2 0x21F JUMP JUMPDEST JUMPDEST ADD DUP2 SWAP1 SSTORE POP PUSH0 DUP1 PUSH0 PUSH2 0x100 EXP DUP2 SLOAD DUP2 PUSH1 0xFF MUL NOT AND SWAP1 DUP4 PUSH1 0x5 DUP2 GT ISZERO PUSH2 0x1D7 JUMPI PUSH2 0x1D6 PUSH2 0x24C JUMP JUMPDEST JUMPDEST MUL OR SWAP1 SSTORE POP CALLVALUE PUSH1 0x11 DUP2 SWAP1 SSTORE POP PUSH2 0x1F1 PUSH2 0x1F6 PUSH1 0x20 SHL PUSH1 0x20 SHR JUMP JUMPDEST PUSH2 0x2E2 JUMP JUMPDEST PUSH2 0x204 PUSH2 0x20C PUSH1 0x20 SHL PUSH1 0x20 SHR JUMP JUMPDEST PUSH1 0x12 DUP2 SWAP1 SSTORE POP JUMP JUMPDEST PUSH0 PUSH1 0x3C TIMESTAMP PUSH2 0x21A SWAP2 SWAP1 PUSH2 0x2AF JUMP JUMPDEST SWAP1 POP SWAP1 JUMP JUMPDEST PUSH32 0x4E487B7100000000000000000000000000000000000000000000000000000000 PUSH0 MSTORE PUSH1 0x32 PUSH1 0x4 MSTORE PUSH1 0x24 PUSH0 REVERT JUMPDEST PUSH32 0x4E487B7100000000000000000000000000000000000000000000000000000000 PUSH0 MSTORE PUSH1 0x21 PUSH1 0x4 MSTORE PUSH1 0x24 PUSH0 REVERT JUMPDEST PUSH0 DUP2 SWAP1 POP SWAP2 SWAP1 POP JUMP JUMPDEST PUSH32 0x4E487B7100000000000000000000000000000000000000000000000000000000 PUSH0 MSTORE PUSH1 0x11 PUSH1 0x4 MSTORE PUSH1 0x24 PUSH0 REVERT JUMPDEST PUSH0 PUSH2 0x2B9 DUP3 PUSH2 0x279 JUMP JUMPDEST SWAP2 POP PUSH2 0x2C4 DUP4 PUSH2 0x279 JUMP JUMPDEST SWAP3 POP DUP3 DUP3 ADD SWAP1 POP DUP1 DUP3 GT ISZERO PUSH2 0x2DC JUMPI PUSH2 0x2DB PUSH2 0x282 JUMP JUMPDEST JUMPDEST SWAP3 SWAP2 POP POP JUMP JUMPDEST PUSH2 0x5C20 DUP1 PUSH2 0x2EF PUSH0 CODECOPY PUSH0 RETURN INVALID PUSH1 0x80 PUSH1 0x40 MSTORE PUSH1 0x4 CALLDATASIZE LT PUSH2 0x13F JUMPI PUSH0 CALLDATALOAD PUSH1 0xE0 SHR DUP1 PUSH4 0xA8378E6B GT PUSH2 0xB5 JUMPI DUP1 PUSH4 0xCEA13516 GT PUSH2 0x6E JUMPI DUP1 PUSH4 0xCEA13516 EQ PUSH2 0x3F3 JUMPI DUP1 PUSH4 0xD65AB5F2 EQ PUSH2 0x41E JUMPI DUP1 PUSH4 0xDA8E4A95 EQ PUSH2 0x434 JUMPI DUP1 PUSH4 0xEFAA55A0 EQ PUSH2 0x45F JUMPI DUP1 PUSH4 0xFCFAFEB6 EQ PUSH2 0x47B JUMPI DUP1 PUSH4 0xFE7D567D EQ PUSH2 0x491 JUMPI PUSH2 0x13F JUMP JUMPDEST DUP1 PUSH4 0xA8378E6B EQ PUSH2 0x2E9 JUMPI DUP1 PUSH4 0xAE65F4FF EQ PUSH2 0x325 JUMPI DUP1 PUSH4 0xBF867F6B EQ PUSH2 0x361 JUMPI DUP1 PUSH4 0xC19D93FB EQ PUSH2 0x39D JUMPI DUP1 PUSH4 0xC6FD5D4E EQ PUSH2 0x3C7 JUMPI DUP1 PUSH4 0xC9F09D38 EQ PUSH2 0x3DD JUMPI PUSH2 0x13F JUMP JUMPDEST DUP1 PUSH4 0x53454485 GT PUSH2 0x107 JUMPI DUP1 PUSH4 0x53454485 EQ PUSH2 0x211 JUMPI DUP1 PUSH4 0x784F49CA EQ PUSH2 0x227 JUMPI DUP1 PUSH4 0x84054D3D EQ PUSH2 0x23D JUMPI DUP1 PUSH4 0x85C7D61D EQ PUSH2 0x247 JUMPI DUP1 PUSH4 0x872FD939 EQ PUSH2 0x271 JUMPI DUP1 PUSH4 0x91B3F40E EQ PUSH2 0x2AD JUMPI PUSH2 0x13F JUMP JUMPDEST DUP1 PUSH4 0x89AC36F EQ PUSH2 0x143 JUMPI DUP1 PUSH4 0x28657AA5 EQ PUSH2 0x16B JUMPI DUP1 PUSH4 0x302BCC57 EQ PUSH2 0x195 JUMPI DUP1 PUSH4 0x3C37B640 EQ PUSH2 0x1BF JUMPI DUP1 PUSH4 0x4BD76FC4 EQ PUSH2 0x1E7 JUMPI JUMPDEST PUSH0 DUP1 REVERT JUMPDEST CALLVALUE DUP1 ISZERO PUSH2 0x14E JUMPI PUSH0 DUP1 REVERT JUMPDEST POP PUSH2 0x169 PUSH1 0x4 DUP1 CALLDATASIZE SUB DUP2 ADD SWAP1 PUSH2 0x164 SWAP2 SWAP1 PUSH2 0x3C2D JUMP JUMPDEST PUSH2 0x4B9 JUMP JUMPDEST STOP JUMPDEST CALLVALUE DUP1 ISZERO PUSH2 0x176 JUMPI PUSH0 DUP1 REVERT JUMPDEST POP PUSH2 0x17F PUSH2 0xBB2 JUMP JUMPDEST PUSH1 0x40 MLOAD PUSH2 0x18C SWAP2 SWAP1 PUSH2 0x3C67 JUMP JUMPDEST PUSH1 0x40 MLOAD DUP1 SWAP2 SUB SWAP1 RETURN JUMPDEST CALLVALUE DUP1 ISZERO PUSH2 0x1A0 JUMPI PUSH0 DUP1 REVERT JUMPDEST POP PUSH2 0x1A9 PUSH2 0xBB8 JUMP JUMPDEST PUSH1 0x40 MLOAD PUSH2 0x1B6 SWAP2 SWAP1 PUSH2 0x3C67 JUMP JUMPDEST PUSH1 0x40 MLOAD DUP1 SWAP2 SUB SWAP1 RETURN JUMPDEST CALLVALUE DUP1 ISZERO PUSH2 0x1CA JUMPI PUSH0 DUP1 REVERT JUMPDEST POP PUSH2 0x1E5 PUSH1 0x4 DUP1 CALLDATASIZE SUB DUP2 ADD SWAP1 PUSH2 0x1E0 SWAP2 SWAP1 PUSH2 0x3CB3 JUMP JUMPDEST PUSH2 0xBBE JUMP JUMPDEST STOP JUMPDEST CALLVALUE DUP1 ISZERO PUSH2 0x1F2 JUMPI PUSH0 DUP1 REVERT JUMPDEST POP PUSH2 0x1FB PUSH2 0xCF9 JUMP JUMPDEST PUSH1 0x40 MLOAD PUSH2 0x208 SWAP2 SWAP1 PUSH2 0x3CF8 JUMP JUMPDEST PUSH1 0x40 MLOAD DUP1 SWAP2 SUB SWAP1 RETURN JUMPDEST CALLVALUE DUP1 ISZERO PUSH2 0x21C JUMPI PUSH0 DUP1 REVERT JUMPDEST POP PUSH2 0x225 PUSH2 0xD0B JUMP JUMPDEST STOP JUMPDEST CALLVALUE DUP1 ISZERO PUSH2 0x232 JUMPI PUSH0 DUP1 REVERT JUMPDEST POP PUSH2 0x23B PUSH2 0xE85 JUMP JUMPDEST STOP JUMPDEST PUSH2 0x245 PUSH2 0x102A JUMP JUMPDEST STOP JUMPDEST CALLVALUE DUP1 ISZERO PUSH2 0x252 JUMPI PUSH0 DUP1 REVERT JUMPDEST POP PUSH2 0x25B PUSH2 0x1316 JUMP JUMPDEST PUSH1 0x40 MLOAD PUSH2 0x268 SWAP2 SWAP1 PUSH2 0x3C67 JUMP JUMPDEST PUSH1 0x40 MLOAD DUP1 SWAP2 SUB SWAP1 RETURN JUMPDEST CALLVALUE DUP1 ISZERO PUSH2 0x27C JUMPI PUSH0 DUP1 REVERT JUMPDEST POP PUSH2 0x297 PUSH1 0x4 DUP1 CALLDATASIZE SUB DUP2 ADD SWAP1 PUSH2 0x292 SWAP2 SWAP1 PUSH2 0x3D6B JUMP JUMPDEST PUSH2 0x131C JUMP JUMPDEST PUSH1 0x40 MLOAD PUSH2 0x2A4 SWAP2 SWAP1 PUSH2 0x3C67 JUMP JUMPDEST PUSH1 0x40 MLOAD DUP1 SWAP2 SUB SWAP1 RETURN JUMPDEST CALLVALUE DUP1 ISZERO PUSH2 0x2B8 JUMPI PUSH0 DUP1 REVERT JUMPDEST POP PUSH2 0x2D3 PUSH1 0x4 DUP1 CALLDATASIZE SUB DUP2 ADD SWAP1 PUSH2 0x2CE SWAP2 SWAP1 PUSH2 0x3D6B JUMP JUMPDEST PUSH2 0x1331 JUMP JUMPDEST PUSH1 0x40 MLOAD PUSH2 0x2E0 SWAP2 SWAP1 PUSH2 0x3CF8 JUMP JUMPDEST PUSH1 0x40 MLOAD DUP1 SWAP2 SUB SWAP1 RETURN JUMPDEST CALLVALUE DUP1 ISZERO PUSH2 0x2F4 JUMPI PUSH0 DUP1 REVERT JUMPDEST POP PUSH2 0x30F PUSH1 0x4 DUP1 CALLDATASIZE SUB DUP2 ADD SWAP1 PUSH2 0x30A SWAP2 SWAP1 PUSH2 0x3D6B JUMP JUMPDEST PUSH2 0x134E JUMP JUMPDEST PUSH1 0x40 MLOAD PUSH2 0x31C SWAP2 SWAP1 PUSH2 0x3CF8 JUMP JUMPDEST PUSH1 0x40 MLOAD DUP1 SWAP2 SUB SWAP1 RETURN JUMPDEST CALLVALUE DUP1 ISZERO PUSH2 0x330 JUMPI PUSH0 DUP1 REVERT JUMPDEST POP PUSH2 0x34B PUSH1 0x4 DUP1 CALLDATASIZE SUB DUP2 ADD SWAP1 PUSH2 0x346 SWAP2 SWAP1 PUSH2 0x3D6B JUMP JUMPDEST PUSH2 0x136B JUMP JUMPDEST PUSH1 0x40 MLOAD PUSH2 0x358 SWAP2 SWAP1 PUSH2 0x3DA5 JUMP JUMPDEST PUSH1 0x40 MLOAD DUP1 SWAP2 SUB SWAP1 RETURN JUMPDEST CALLVALUE DUP1 ISZERO PUSH2 0x36C JUMPI PUSH0 DUP1 REVERT JUMPDEST POP PUSH2 0x387 PUSH1 0x4 DUP1 CALLDATASIZE SUB DUP2 ADD SWAP1 PUSH2 0x382 SWAP2 SWAP1 PUSH2 0x3C2D JUMP JUMPDEST PUSH2 0x1380 JUMP JUMPDEST PUSH1 0x40 MLOAD PUSH2 0x394 SWAP2 SWAP1 PUSH2 0x3DA5 JUMP JUMPDEST PUSH1 0x40 MLOAD DUP1 SWAP2 SUB SWAP1 RETURN JUMPDEST CALLVALUE DUP1 ISZERO PUSH2 0x3A8 JUMPI PUSH0 DUP1 REVERT JUMPDEST POP PUSH2 0x3B1 PUSH2 0x1399 JUMP JUMPDEST PUSH1 0x40 MLOAD PUSH2 0x3BE SWAP2 SWAP1 PUSH2 0x3E31 JUMP JUMPDEST PUSH1 0x40 MLOAD DUP1 SWAP2 SUB SWAP1 RETURN JUMPDEST CALLVALUE DUP1 ISZERO PUSH2 0x3D2 JUMPI PUSH0 DUP1 REVERT JUMPDEST POP PUSH2 0x3DB PUSH2 0x13A9 JUMP JUMPDEST STOP JUMPDEST CALLVALUE DUP1 ISZERO PUSH2 0x3E8 JUMPI PUSH0 DUP1 REVERT JUMPDEST POP PUSH2 0x3F1 PUSH2 0x15B7 JUMP JUMPDEST STOP JUMPDEST CALLVALUE DUP1 ISZERO PUSH2 0x3FE JUMPI PUSH0 DUP1 REVERT JUMPDEST POP PUSH2 0x407 PUSH2 0x182D JUMP JUMPDEST PUSH1 0x40 MLOAD PUSH2 0x415 SWAP3 SWAP2 SWAP1 PUSH2 0x40B3 JUMP JUMPDEST PUSH1 0x40 MLOAD DUP1 SWAP2 SUB SWAP1 RETURN JUMPDEST CALLVALUE DUP1 ISZERO PUSH2 0x429 JUMPI PUSH0 DUP1 REVERT JUMPDEST POP PUSH2 0x432 PUSH2 0x1ABE JUMP JUMPDEST STOP JUMPDEST CALLVALUE DUP1 ISZERO PUSH2 0x43F JUMPI PUSH0 DUP1 REVERT JUMPDEST POP PUSH2 0x448 PUSH2 0x20C0 JUMP JUMPDEST PUSH1 0x40 MLOAD PUSH2 0x456 SWAP3 SWAP2 SWAP1 PUSH2 0x41BA JUMP JUMPDEST PUSH1 0x40 MLOAD DUP1 SWAP2 SUB SWAP1 RETURN JUMPDEST PUSH2 0x479 PUSH1 0x4 DUP1 CALLDATASIZE SUB DUP2 ADD SWAP1 PUSH2 0x474 SWAP2 SWAP1 PUSH2 0x3C2D JUMP JUMPDEST PUSH2 0x226C JUMP JUMPDEST STOP JUMPDEST CALLVALUE DUP1 ISZERO PUSH2 0x486 JUMPI PUSH0 DUP1 REVERT JUMPDEST POP PUSH2 0x48F PUSH2 0x24DF JUMP JUMPDEST STOP JUMPDEST CALLVALUE DUP1 ISZERO PUSH2 0x49C JUMPI PUSH0 DUP1 REVERT JUMPDEST POP PUSH2 0x4B7 PUSH1 0x4 DUP1 CALLDATASIZE SUB DUP2 ADD SWAP1 PUSH2 0x4B2 SWAP2 SWAP1 PUSH2 0x3C2D JUMP JUMPDEST PUSH2 0x2B0F JUMP JUMPDEST STOP JUMPDEST PUSH1 0x4 PUSH0 SWAP1 SLOAD SWAP1 PUSH2 0x100 EXP SWAP1 DIV PUSH20 0xFFFFFFFFFFFFFFFFFFFFFFFFFFFFFFFFFFFFFFFF AND PUSH20 0xFFFFFFFFFFFFFFFFFFFFFFFFFFFFFFFFFFFFFFFF AND CALLER PUSH20 0xFFFFFFFFFFFFFFFFFFFFFFFFFFFFFFFFFFFFFFFF AND EQ PUSH2 0x548 JUMPI PUSH1 0x40 MLOAD PUSH32 0x8C379A000000000000000000000000000000000000000000000000000000000 DUP2 MSTORE PUSH1 0x4 ADD PUSH2 0x53F SWAP1 PUSH2 0x4268 JUMP JUMPDEST PUSH1 0x40 MLOAD DUP1 SWAP2 SUB SWAP1 REVERT JUMPDEST PUSH1 0x3 DUP1 PUSH1 0x5 DUP2 GT ISZERO PUSH2 0x55D JUMPI PUSH2 0x55C PUSH2 0x3DBE JUMP JUMPDEST JUMPDEST PUSH0 DUP1 SLOAD SWAP1 PUSH2 0x100 EXP SWAP1 DIV PUSH1 0xFF AND PUSH1 0x5 DUP2 GT ISZERO PUSH2 0x57C JUMPI PUSH2 0x57B PUSH2 0x3DBE JUMP JUMPDEST JUMPDEST EQ PUSH2 0x5BC JUMPI PUSH1 0x40 MLOAD PUSH32 0x8C379A000000000000000000000000000000000000000000000000000000000 DUP2 MSTORE PUSH1 0x4 ADD PUSH2 0x5B3 SWAP1 PUSH2 0x42D0 JUMP JUMPDEST PUSH1 0x40 MLOAD DUP1 SWAP2 SUB SWAP1 REVERT JUMPDEST PUSH0 JUMPDEST PUSH1 0x1 DUP1 SLOAD SWAP1 POP DUP2 LT ISZERO PUSH2 0x6A2 JUMPI PUSH1 0xF PUSH0 PUSH1 0x1 DUP4 DUP2 SLOAD DUP2 LT PUSH2 0x5E2 JUMPI PUSH2 0x5E1 PUSH2 0x42EE JUMP JUMPDEST JUMPDEST SWAP1 PUSH0 MSTORE PUSH1 0x20 PUSH0 KECCAK256 SWAP1 PUSH1 0x4 MUL ADD PUSH0 ADD PUSH0 SWAP1 SLOAD SWAP1 PUSH2 0x100 EXP SWAP1 DIV PUSH20 0xFFFFFFFFFFFFFFFFFFFFFFFFFFFFFFFFFFFFFFFF AND PUSH20 0xFFFFFFFFFFFFFFFFFFFFFFFFFFFFFFFFFFFFFFFF AND PUSH20 0xFFFFFFFFFFFFFFFFFFFFFFFFFFFFFFFFFFFFFFFF AND DUP2 MSTORE PUSH1 0x20 ADD SWAP1 DUP2 MSTORE PUSH1 0x20 ADD PUSH0 KECCAK256 PUSH0 SWAP1 SLOAD SWAP1 PUSH2 0x100 EXP SWAP1 DIV PUSH1 0xFF AND PUSH2 0x695 JUMPI PUSH1 0x40 MLOAD PUSH32 0x8C379A000000000000000000000000000000000000000000000000000000000 DUP2 MSTORE PUSH1 0x4 ADD PUSH2 0x68C SWAP1 PUSH2 0x438B JUMP JUMPDEST PUSH1 0x40 MLOAD DUP1 SWAP2 SUB SWAP1 REVERT JUMPDEST DUP1 DUP1 PUSH1 0x1 ADD SWAP2 POP POP PUSH2 0x5BE JUMP JUMPDEST POP PUSH1 0x6 PUSH1 0xB SLOAD LT PUSH2 0x6E8 JUMPI PUSH1 0x40 MLOAD PUSH32 0x8C379A000000000000000000000000000000000000000000000000000000000 DUP2 MSTORE PUSH1 0x4 ADD PUSH2 0x6DF SWAP1 PUSH2 0x43F3 JUMP JUMPDEST PUSH1 0x40 MLOAD DUP1 SWAP2 SUB SWAP1 REVERT JUMPDEST PUSH1 0x5 PUSH1 0xB SLOAD PUSH1 0x6 DUP2 LT PUSH2 0x6FE JUMPI PUSH2 0x6FD PUSH2 0x42EE JUMP JUMPDEST JUMPDEST ADD SLOAD DUP3 PUSH1 0x40 MLOAD PUSH1 0x20 ADD PUSH2 0x711 SWAP2 SWAP1 PUSH2 0x4431 JUMP JUMPDEST PUSH1 0x40 MLOAD PUSH1 0x20 DUP2 DUP4 SUB SUB DUP2 MSTORE SWAP1 PUSH1 0x40 MSTORE DUP1 MLOAD SWAP1 PUSH1 0x20 ADD KECCAK256 EQ PUSH2 0x767 JUMPI PUSH1 0x40 MLOAD PUSH32 0x8C379A000000000000000000000000000000000000000000000000000000000 DUP2 MSTORE PUSH1 0x4 ADD PUSH2 0x75E SWAP1 PUSH2 0x44BB JUMP JUMPDEST PUSH1 0x40 MLOAD DUP1 SWAP2 SUB SWAP1 REVERT JUMPDEST PUSH1 0xB PUSH0 DUP2 SLOAD DUP1 SWAP3 SWAP2 SWAP1 PUSH2 0x779 SWAP1 PUSH2 0x4506 JUMP JUMPDEST SWAP2 SWAP1 POP SSTORE POP PUSH0 JUMPDEST PUSH1 0x1 DUP1 SLOAD SWAP1 POP DUP2 LT ISZERO PUSH2 0xA63 JUMPI PUSH0 PUSH1 0x1 DUP3 DUP2 SLOAD DUP2 LT PUSH2 0x7A2 JUMPI PUSH2 0x7A1 PUSH2 0x42EE JUMP JUMPDEST JUMPDEST SWAP1 PUSH0 MSTORE PUSH1 0x20 PUSH0 KECCAK256 SWAP1 PUSH1 0x4 MUL ADD SWAP1 POP PUSH1 0xE PUSH0 DUP3 PUSH0 ADD PUSH0 SWAP1 SLOAD SWAP1 PUSH2 0x100 EXP SWAP1 DIV PUSH20 0xFFFFFFFFFFFFFFFFFFFFFFFFFFFFFFFFFFFFFFFF AND PUSH20 0xFFFFFFFFFFFFFFFFFFFFFFFFFFFFFFFFFFFFFFFF AND PUSH20 0xFFFFFFFFFFFFFFFFFFFFFFFFFFFFFFFFFFFFFFFF AND DUP2 MSTORE PUSH1 0x20 ADD SWAP1 DUP2 MSTORE PUSH1 0x20 ADD PUSH0 KECCAK256 PUSH0 SWAP1 SLOAD SWAP1 PUSH2 0x100 EXP SWAP1 DIV PUSH1 0xFF AND DUP1 ISZERO PUSH2 0x835 JUMPI POP DUP1 PUSH1 0x3 ADD PUSH0 SWAP1 SLOAD SWAP1 PUSH2 0x100 EXP SWAP1 DIV PUSH1 0xFF AND JUMPDEST DUP1 ISZERO PUSH2 0x850 JUMPI POP DUP1 PUSH1 0x3 ADD PUSH1 0x1 SWAP1 SLOAD SWAP1 PUSH2 0x100 EXP SWAP1 DIV PUSH1 0xFF AND ISZERO JUMPDEST ISZERO PUSH2 0xA55 JUMPI PUSH0 PUSH2 0x8D3 DUP3 PUSH1 0x2 ADD DUP1 SLOAD DUP1 PUSH1 0x20 MUL PUSH1 0x20 ADD PUSH1 0x40 MLOAD SWAP1 DUP2 ADD PUSH1 0x40 MSTORE DUP1 SWAP3 SWAP2 SWAP1 DUP2 DUP2 MSTORE PUSH1 0x20 ADD DUP3 DUP1 SLOAD DUP1 ISZERO PUSH2 0x8C9 JUMPI PUSH1 0x20 MUL DUP3 ADD SWAP2 SWAP1 PUSH0 MSTORE PUSH1 0x20 PUSH0 KECCAK256 SWAP1 PUSH0 SWAP1 JUMPDEST DUP3 DUP3 SWAP1 SLOAD SWAP1 PUSH2 0x100 EXP SWAP1 DIV PUSH1 0xFF AND PUSH1 0xFF AND DUP2 MSTORE PUSH1 0x20 ADD SWAP1 PUSH1 0x1 ADD SWAP1 PUSH1 0x20 DUP3 PUSH0 ADD DIV SWAP3 DUP4 ADD SWAP3 PUSH1 0x1 SUB DUP3 MUL SWAP2 POP DUP1 DUP5 GT PUSH2 0x893 JUMPI SWAP1 POP JUMPDEST POP POP POP POP POP PUSH2 0x2E45 JUMP JUMPDEST SWAP1 POP PUSH0 PUSH20 0x0 PUSH4 0x10F8B35C DUP4 DUP9 PUSH1 0x40 MLOAD DUP4 PUSH4 0xFFFFFFFF AND PUSH1 0xE0 SHL DUP2 MSTORE PUSH1 0x4 ADD PUSH2 0x90F SWAP3 SWAP2 SWAP1 PUSH2 0x455C JUMP JUMPDEST PUSH1 0x20 PUSH1 0x40 MLOAD DUP1 DUP4 SUB DUP2 DUP7 GAS DELEGATECALL ISZERO DUP1 ISZERO PUSH2 0x92A JUMPI RETURNDATASIZE PUSH0 DUP1 RETURNDATACOPY RETURNDATASIZE PUSH0 REVERT JUMPDEST POP POP POP POP PUSH1 0x40 MLOAD RETURNDATASIZE PUSH1 0x1F NOT PUSH1 0x1F DUP3 ADD AND DUP3 ADD DUP1 PUSH1 0x40 MSTORE POP DUP2 ADD SWAP1 PUSH2 0x94E SWAP2 SWAP1 PUSH2 0x45AD JUMP JUMPDEST SWAP1 POP DUP3 PUSH1 0x2 ADD DUP2 SWAP1 DUP1 PUSH1 0x1 DUP2 SLOAD ADD DUP1 DUP3 SSTORE DUP1 SWAP2 POP POP PUSH1 0x1 SWAP1 SUB SWAP1 PUSH0 MSTORE PUSH1 0x20 PUSH0 KECCAK256 SWAP1 PUSH1 0x20 SWAP2 DUP3 DUP3 DIV ADD SWAP2 SWAP1 MOD SWAP1 SWAP2 SWAP1 SWAP2 SWAP1 SWAP2 PUSH2 0x100 EXP DUP2 SLOAD DUP2 PUSH1 0xFF MUL NOT AND SWAP1 DUP4 PUSH1 0xFF AND MUL OR SWAP1 SSTORE POP PUSH1 0x15 PUSH20 0x0 PUSH4 0x345E3D68 DUP6 PUSH1 0x2 ADD PUSH1 0x40 MLOAD DUP3 PUSH4 0xFFFFFFFF AND PUSH1 0xE0 SHL DUP2 MSTORE PUSH1 0x4 ADD PUSH2 0x9D1 SWAP2 SWAP1 PUSH2 0x5302 JUMP JUMPDEST PUSH1 0x20 PUSH1 0x40 MLOAD DUP1 DUP4 SUB DUP2 DUP7 GAS DELEGATECALL ISZERO DUP1 ISZERO PUSH2 0x9EC JUMPI RETURNDATASIZE PUSH0 DUP1 RETURNDATACOPY RETURNDATASIZE PUSH0 REVERT JUMPDEST POP POP POP POP PUSH1 0x40 MLOAD RETURNDATASIZE PUSH1 0x1F NOT PUSH1 0x1F DUP3 ADD AND DUP3 ADD DUP1 PUSH1 0x40 MSTORE POP DUP2 ADD SWAP1 PUSH2 0xA10 SWAP2 SWAP1 PUSH2 0x45AD JUMP JUMPDEST PUSH1 0xFF AND GT ISZERO PUSH2 0xA52 JUMPI PUSH1 0x1 DUP4 PUSH1 0x3 ADD PUSH1 0x1 PUSH2 0x100 EXP DUP2 SLOAD DUP2 PUSH1 0xFF MUL NOT AND SWAP1 DUP4 ISZERO ISZERO MUL OR SWAP1 SSTORE POP PUSH0 DUP4 PUSH1 0x3 ADD PUSH0 PUSH2 0x100 EXP DUP2 SLOAD DUP2 PUSH1 0xFF MUL NOT AND SWAP1 DUP4 ISZERO ISZERO MUL OR SWAP1 SSTORE POP JUMPDEST POP POP JUMPDEST POP DUP1 DUP1 PUSH1 0x1 ADD SWAP2 POP POP PUSH2 0x780 JUMP JUMPDEST POP PUSH0 JUMPDEST PUSH1 0x1 DUP1 SLOAD SWAP1 POP DUP2 LT ISZERO PUSH2 0xB15 JUMPI PUSH0 PUSH1 0xF PUSH0 PUSH1 0x1 DUP5 DUP2 SLOAD DUP2 LT PUSH2 0xA8B JUMPI PUSH2 0xA8A PUSH2 0x42EE JUMP JUMPDEST JUMPDEST SWAP1 PUSH0 MSTORE PUSH1 0x20 PUSH0 KECCAK256 SWAP1 PUSH1 0x4 MUL ADD PUSH0 ADD PUSH0 SWAP1 SLOAD SWAP1 PUSH2 0x100 EXP SWAP1 DIV PUSH20 0xFFFFFFFFFFFFFFFFFFFFFFFFFFFFFFFFFFFFFFFF AND PUSH20 0xFFFFFFFFFFFFFFFFFFFFFFFFFFFFFFFFFFFFFFFF AND PUSH20 0xFFFFFFFFFFFFFFFFFFFFFFFFFFFFFFFFFFFFFFFF AND DUP2 MSTORE PUSH1 0x20 ADD SWAP1 DUP2 MSTORE PUSH1 0x20 ADD PUSH0 KECCAK256 PUSH0 PUSH2 0x100 EXP DUP2 SLOAD DUP2 PUSH1 0xFF MUL NOT AND SWAP1 DUP4 ISZERO ISZERO MUL OR SWAP1 SSTORE POP DUP1 DUP1 PUSH1 0x1 ADD SWAP2 POP POP PUSH2 0xA66 JUMP JUMPDEST POP PUSH0 PUSH1 0x1 SWAP1 POP PUSH0 JUMPDEST PUSH1 0x1 DUP1 SLOAD SWAP1 POP DUP2 LT ISZERO PUSH2 0xB74 JUMPI PUSH1 0x1 DUP2 DUP2 SLOAD DUP2 LT PUSH2 0xB3E JUMPI PUSH2 0xB3D PUSH2 0x42EE JUMP JUMPDEST JUMPDEST SWAP1 PUSH0 MSTORE PUSH1 0x20 PUSH0 KECCAK256 SWAP1 PUSH1 0x4 MUL ADD PUSH1 0x3 ADD PUSH0 SWAP1 SLOAD SWAP1 PUSH2 0x100 EXP SWAP1 DIV PUSH1 0xFF AND ISZERO PUSH2 0xB67 JUMPI PUSH0 SWAP2 POP PUSH2 0xB74 JUMP JUMPDEST DUP1 DUP1 PUSH1 0x1 ADD SWAP2 POP POP PUSH2 0xB1D JUMP JUMPDEST POP DUP1 ISZERO PUSH2 0xBAD JUMPI PUSH1 0x5 PUSH0 DUP1 PUSH2 0x100 EXP DUP2 SLOAD DUP2 PUSH1 0xFF MUL NOT AND SWAP1 DUP4 PUSH1 0x5 DUP2 GT ISZERO PUSH2 0xB9F JUMPI PUSH2 0xB9E PUSH2 0x3DBE JUMP JUMPDEST JUMPDEST MUL OR SWAP1 SSTORE POP PUSH2 0xBAC PUSH2 0x2EA3 JUMP JUMPDEST JUMPDEST POP POP POP JUMP JUMPDEST PUSH1 0x11 SLOAD DUP2 JUMP JUMPDEST PUSH1 0x2 SLOAD DUP2 JUMP JUMPDEST PUSH1 0x1 DUP1 PUSH1 0x5 DUP2 GT ISZERO PUSH2 0xBD3 JUMPI PUSH2 0xBD2 PUSH2 0x3DBE JUMP JUMPDEST JUMPDEST PUSH0 DUP1 SLOAD SWAP1 PUSH2 0x100 EXP SWAP1 DIV PUSH1 0xFF AND PUSH1 0x5 DUP2 GT ISZERO PUSH2 0xBF2 JUMPI PUSH2 0xBF1 PUSH2 0x3DBE JUMP JUMPDEST JUMPDEST EQ PUSH2 0xC32 JUMPI PUSH1 0x40 MLOAD PUSH32 0x8C379A000000000000000000000000000000000000000000000000000000000 DUP2 MSTORE PUSH1 0x4 ADD PUSH2 0xC29 SWAP1 PUSH2 0x42D0 JUMP JUMPDEST PUSH1 0x40 MLOAD DUP1 SWAP2 SUB SWAP1 REVERT JUMPDEST PUSH0 DUP1 SHL PUSH1 0xC PUSH0 CALLER PUSH20 0xFFFFFFFFFFFFFFFFFFFFFFFFFFFFFFFFFFFFFFFF AND PUSH20 0xFFFFFFFFFFFFFFFFFFFFFFFFFFFFFFFFFFFFFFFF AND DUP2 MSTORE PUSH1 0x20 ADD SWAP1 DUP2 MSTORE PUSH1 0x20 ADD PUSH0 KECCAK256 SLOAD EQ PUSH2 0xCB3 JUMPI PUSH1 0x40 MLOAD PUSH32 0x8C379A000000000000000000000000000000000000000000000000000000000 DUP2 MSTORE PUSH1 0x4 ADD PUSH2 0xCAA SWAP1 PUSH2 0x536C JUMP JUMPDEST PUSH1 0x40 MLOAD DUP1 SWAP2 SUB SWAP1 REVERT JUMPDEST DUP2 PUSH1 0xC PUSH0 CALLER PUSH20 0xFFFFFFFFFFFFFFFFFFFFFFFFFFFFFFFFFFFFFFFF AND PUSH20 0xFFFFFFFFFFFFFFFFFFFFFFFFFFFFFFFFFFFFFFFF AND DUP2 MSTORE PUSH1 0x20 ADD SWAP1 DUP2 MSTORE PUSH1 0x20 ADD PUSH0 KECCAK256 DUP2 SWAP1 SSTORE POP POP POP JUMP JUMPDEST PUSH1 0x10 PUSH0 SWAP1 SLOAD SWAP1 PUSH2 0x100 EXP SWAP1 DIV PUSH1 0xFF AND DUP2 JUMP JUMPDEST PUSH1 0x4 PUSH0 SWAP1 SLOAD SWAP1 PUSH2 0x100 EXP SWAP1 DIV PUSH20 0xFFFFFFFFFFFFFFFFFFFFFFFFFFFFFFFFFFFFFFFF AND PUSH20 0xFFFFFFFFFFFFFFFFFFFFFFFFFFFFFFFFFFFFFFFF AND CALLER PUSH20 0xFFFFFFFFFFFFFFFFFFFFFFFFFFFFFFFFFFFFFFFF AND EQ PUSH2 0xD9A JUMPI PUSH1 0x40 MLOAD PUSH32 0x8C379A000000000000000000000000000000000000000000000000000000000 DUP2 MSTORE PUSH1 0x4 ADD PUSH2 0xD91 SWAP1 PUSH2 0x4268 JUMP JUMPDEST PUSH1 0x40 MLOAD DUP1 SWAP2 SUB SWAP1 REVERT JUMPDEST PUSH0 DUP1 PUSH1 0x5 DUP2 GT ISZERO PUSH2 0xDAE JUMPI PUSH2 0xDAD PUSH2 0x3DBE JUMP JUMPDEST JUMPDEST PUSH0 DUP1 SLOAD SWAP1 PUSH2 0x100 EXP SWAP1 DIV PUSH1 0xFF AND PUSH1 0x5 DUP2 GT ISZERO PUSH2 0xDCD JUMPI PUSH2 0xDCC PUSH2 0x3DBE JUMP JUMPDEST JUMPDEST EQ PUSH2 0xE0D JUMPI PUSH1 0x40 MLOAD PUSH32 0x8C379A000000000000000000000000000000000000000000000000000000000 DUP2 MSTORE PUSH1 0x4 ADD PUSH2 0xE04 SWAP1 PUSH2 0x42D0 JUMP JUMPDEST PUSH1 0x40 MLOAD DUP1 SWAP2 SUB SWAP1 REVERT JUMPDEST PUSH0 PUSH1 0x2 SLOAD GT PUSH2 0xE51 JUMPI PUSH1 0x40 MLOAD PUSH32 0x8C379A000000000000000000000000000000000000000000000000000000000 DUP2 MSTORE PUSH1 0x4 ADD PUSH2 0xE48 SWAP1 PUSH2 0x53D4 JUMP JUMPDEST PUSH1 0x40 MLOAD DUP1 SWAP2 SUB SWAP1 REVERT JUMPDEST PUSH1 0x1 PUSH0 DUP1 PUSH2 0x100 EXP DUP2 SLOAD DUP2 PUSH1 0xFF MUL NOT AND SWAP1 DUP4 PUSH1 0x5 DUP2 GT ISZERO PUSH2 0xE75 JUMPI PUSH2 0xE74 PUSH2 0x3DBE JUMP JUMPDEST JUMPDEST MUL OR SWAP1 SSTORE POP PUSH2 0xE82 PUSH2 0x31B2 JUMP JUMPDEST POP JUMP JUMPDEST PUSH0 DUP1 JUMPDEST PUSH1 0x1 DUP1 SLOAD SWAP1 POP DUP2 LT ISZERO PUSH2 0xF1F JUMPI CALLER PUSH20 0xFFFFFFFFFFFFFFFFFFFFFFFFFFFFFFFFFFFFFFFF AND PUSH1 0x1 DUP3 DUP2 SLOAD DUP2 LT PUSH2 0xEC0 JUMPI PUSH2 0xEBF PUSH2 0x42EE JUMP JUMPDEST JUMPDEST SWAP1 PUSH0 MSTORE PUSH1 0x20 PUSH0 KECCAK256 SWAP1 PUSH1 0x4 MUL ADD PUSH0 ADD PUSH0 SWAP1 SLOAD SWAP1 PUSH2 0x100 EXP SWAP1 DIV PUSH20 0xFFFFFFFFFFFFFFFFFFFFFFFFFFFFFFFFFFFFFFFF AND PUSH20 0xFFFFFFFFFFFFFFFFFFFFFFFFFFFFFFFFFFFFFFFF AND SUB PUSH2 0xF12 JUMPI PUSH1 0x1 SWAP2 POP PUSH2 0xF1F JUMP JUMPDEST DUP1 DUP1 PUSH1 0x1 ADD SWAP2 POP POP PUSH2 0xE88 JUMP JUMPDEST POP DUP1 PUSH2 0xF60 JUMPI PUSH1 0x40 MLOAD PUSH32 0x8C379A000000000000000000000000000000000000000000000000000000000 DUP2 MSTORE PUSH1 0x4 ADD PUSH2 0xF57 SWAP1 PUSH2 0x5462 JUMP JUMPDEST PUSH1 0x40 MLOAD DUP1 SWAP2 SUB SWAP1 REVERT JUMPDEST PUSH1 0x3 DUP1 PUSH1 0x5 DUP2 GT ISZERO PUSH2 0xF75 JUMPI PUSH2 0xF74 PUSH2 0x3DBE JUMP JUMPDEST JUMPDEST PUSH0 DUP1 SLOAD SWAP1 PUSH2 0x100 EXP SWAP1 DIV PUSH1 0xFF AND PUSH1 0x5 DUP2 GT ISZERO PUSH2 0xF94 JUMPI PUSH2 0xF93 PUSH2 0x3DBE JUMP JUMPDEST JUMPDEST EQ PUSH2 0xFD4 JUMPI PUSH1 0x40 MLOAD PUSH32 0x8C379A000000000000000000000000000000000000000000000000000000000 DUP2 MSTORE PUSH1 0x4 ADD PUSH2 0xFCB SWAP1 PUSH2 0x42D0 JUMP JUMPDEST PUSH1 0x40 MLOAD DUP1 SWAP2 SUB SWAP1 REVERT JUMPDEST PUSH2 0xFDD CALLER PUSH2 0x31C2 JUMP JUMPDEST PUSH2 0x101C JUMPI PUSH1 0x40 MLOAD PUSH32 0x8C379A000000000000000000000000000000000000000000000000000000000 DUP2 MSTORE PUSH1 0x4 ADD PUSH2 0x1013 SWAP1 PUSH2 0x54F0 JUMP JUMPDEST PUSH1 0x40 MLOAD DUP1 SWAP2 SUB SWAP1 REVERT JUMPDEST PUSH2 0x1026 PUSH1 0x1 PUSH2 0x32D2 JUMP JUMPDEST POP POP JUMP JUMPDEST PUSH1 0x5 DUP1 PUSH1 0x5 DUP2 GT ISZERO PUSH2 0x103F JUMPI PUSH2 0x103E PUSH2 0x3DBE JUMP JUMPDEST JUMPDEST PUSH0 DUP1 SLOAD SWAP1 PUSH2 0x100 EXP SWAP1 DIV PUSH1 0xFF AND PUSH1 0x5 DUP2 GT ISZERO PUSH2 0x105E JUMPI PUSH2 0x105D PUSH2 0x3DBE JUMP JUMPDEST JUMPDEST EQ PUSH2 0x109E JUMPI PUSH1 0x40 MLOAD PUSH32 0x8C379A000000000000000000000000000000000000000000000000000000000 DUP2 MSTORE PUSH1 0x4 ADD PUSH2 0x1095 SWAP1 PUSH2 0x42D0 JUMP JUMPDEST PUSH1 0x40 MLOAD DUP1 SWAP2 SUB SWAP1 REVERT JUMPDEST PUSH0 PUSH20 0x0 PUSH4 0x345E3D68 PUSH1 0x3 PUSH1 0x40 MLOAD DUP3 PUSH4 0xFFFFFFFF AND PUSH1 0xE0 SHL DUP2 MSTORE PUSH1 0x4 ADD PUSH2 0x10D7 SWAP2 SWAP1 PUSH2 0x5302 JUMP JUMPDEST PUSH1 0x20 PUSH1 0x40 MLOAD DUP1 DUP4 SUB DUP2 DUP7 GAS DELEGATECALL ISZERO DUP1 ISZERO PUSH2 0x10F2 JUMPI RETURNDATASIZE PUSH0 DUP1 RETURNDATACOPY RETURNDATASIZE PUSH0 REVERT JUMPDEST POP POP POP POP PUSH1 0x40 MLOAD RETURNDATASIZE PUSH1 0x1F NOT PUSH1 0x1F DUP3 ADD AND DUP3 ADD DUP1 PUSH1 0x40 MSTORE POP DUP2 ADD SWAP1 PUSH2 0x1116 SWAP2 SWAP1 PUSH2 0x45AD JUMP JUMPDEST SWAP1 POP PUSH0 JUMPDEST PUSH1 0x1 DUP1 SLOAD SWAP1 POP DUP2 LT ISZERO PUSH2 0x1311 JUMPI PUSH0 PUSH1 0x1 DUP3 DUP2 SLOAD DUP2 LT PUSH2 0x113C JUMPI PUSH2 0x113B PUSH2 0x42EE JUMP JUMPDEST JUMPDEST SWAP1 PUSH0 MSTORE PUSH1 0x20 PUSH0 KECCAK256 SWAP1 PUSH1 0x4 MUL ADD SWAP1 POP PUSH0 PUSH20 0x0 PUSH4 0x345E3D68 DUP4 PUSH1 0x2 ADD PUSH1 0x40 MLOAD DUP3 PUSH4 0xFFFFFFFF AND PUSH1 0xE0 SHL DUP2 MSTORE PUSH1 0x4 ADD PUSH2 0x1185 SWAP2 SWAP1 PUSH2 0x5302 JUMP JUMPDEST PUSH1 0x20 PUSH1 0x40 MLOAD DUP1 DUP4 SUB DUP2 DUP7 GAS DELEGATECALL ISZERO DUP1 ISZERO PUSH2 0x11A0 JUMPI RETURNDATASIZE PUSH0 DUP1 RETURNDATACOPY RETURNDATASIZE PUSH0 REVERT JUMPDEST POP POP POP POP PUSH1 0x40 MLOAD RETURNDATASIZE PUSH1 0x1F NOT PUSH1 0x1F DUP3 ADD AND DUP3 ADD DUP1 PUSH1 0x40 MSTORE POP DUP2 ADD SWAP1 PUSH2 0x11C4 SWAP2 SWAP1 PUSH2 0x45AD JUMP JUMPDEST SWAP1 POP DUP2 PUSH1 0x3 ADD PUSH1 0x1 SWAP1 SLOAD SWAP1 PUSH2 0x100 EXP SWAP1 DIV PUSH1 0xFF AND DUP1 PUSH2 0x11F8 JUMPI POP PUSH1 0x15 DUP5 PUSH1 0xFF AND GT ISZERO DUP1 ISZERO PUSH2 0x11F7 JUMPI POP DUP1 PUSH1 0xFF AND DUP5 PUSH1 0xFF AND GT JUMPDEST JUMPDEST ISZERO PUSH2 0x1204 JUMPI POP POP PUSH2 0x1304 JUMP JUMPDEST DUP1 PUSH1 0xFF AND DUP5 PUSH1 0xFF AND SUB PUSH2 0x1285 JUMPI PUSH0 DUP3 PUSH1 0x1 ADD SLOAD SWAP1 POP DUP3 PUSH0 ADD PUSH0 SWAP1 SLOAD SWAP1 PUSH2 0x100 EXP SWAP1 DIV PUSH20 0xFFFFFFFFFFFFFFFFFFFFFFFFFFFFFFFFFFFFFFFF AND PUSH20 0xFFFFFFFFFFFFFFFFFFFFFFFFFFFFFFFFFFFFFFFF AND PUSH2 0x8FC DUP3 SWAP1 DUP2 ISZERO MUL SWAP1 PUSH1 0x40 MLOAD PUSH0 PUSH1 0x40 MLOAD DUP1 DUP4 SUB DUP2 DUP6 DUP9 DUP9 CALL SWAP4 POP POP POP POP ISZERO DUP1 ISZERO PUSH2 0x127E JUMPI RETURNDATASIZE PUSH0 DUP1 RETURNDATACOPY RETURNDATASIZE PUSH0 REVERT JUMPDEST POP POP PUSH2 0x1301 JUMP JUMPDEST PUSH0 PUSH1 0x2 DUP4 PUSH1 0x1 ADD SLOAD PUSH2 0x1297 SWAP2 SWAP1 PUSH2 0x550E JUMP JUMPDEST SWAP1 POP DUP3 PUSH0 ADD PUSH0 SWAP1 SLOAD SWAP1 PUSH2 0x100 EXP SWAP1 DIV PUSH20 0xFFFFFFFFFFFFFFFFFFFFFFFFFFFFFFFFFFFFFFFF AND PUSH20 0xFFFFFFFFFFFFFFFFFFFFFFFFFFFFFFFFFFFFFFFF AND PUSH2 0x8FC DUP3 SWAP1 DUP2 ISZERO MUL SWAP1 PUSH1 0x40 MLOAD PUSH0 PUSH1 0x40 MLOAD DUP1 DUP4 SUB DUP2 DUP6 DUP9 DUP9 CALL SWAP4 POP POP POP POP ISZERO DUP1 ISZERO PUSH2 0x12FE JUMPI RETURNDATASIZE PUSH0 DUP1 RETURNDATACOPY RETURNDATASIZE PUSH0 REVERT JUMPDEST POP POP JUMPDEST POP POP JUMPDEST DUP1 DUP1 PUSH1 0x1 ADD SWAP2 POP POP PUSH2 0x111A JUMP JUMPDEST POP POP POP JUMP JUMPDEST PUSH1 0x12 SLOAD DUP2 JUMP JUMPDEST PUSH1 0xD PUSH1 0x20 MSTORE DUP1 PUSH0 MSTORE PUSH1 0x40 PUSH0 KECCAK256 PUSH0 SWAP2 POP SWAP1 POP SLOAD DUP2 JUMP JUMPDEST PUSH1 0xE PUSH1 0x20 MSTORE DUP1 PUSH0 MSTORE PUSH1 0x40 PUSH0 KECCAK256 PUSH0 SWAP2 POP SLOAD SWAP1 PUSH2 0x100 EXP SWAP1 DIV PUSH1 0xFF AND DUP2 JUMP JUMPDEST PUSH1 0xF PUSH1 0x20 MSTORE DUP1 PUSH0 MSTORE PUSH1 0x40 PUSH0 KECCAK256 PUSH0 SWAP2 POP SLOAD SWAP1 PUSH2 0x100 EXP SWAP1 DIV PUSH1 0xFF AND DUP2 JUMP JUMPDEST PUSH1 0xC PUSH1 0x20 MSTORE DUP1 PUSH0 MSTORE PUSH1 0x40 PUSH0 KECCAK256 PUSH0 SWAP2 POP SWAP1 POP SLOAD DUP2 JUMP JUMPDEST PUSH1 0x5 DUP2 PUSH1 0x6 DUP2 LT PUSH2 0x138F JUMPI PUSH0 DUP1 REVERT JUMPDEST ADD PUSH0 SWAP2 POP SWAP1 POP SLOAD DUP2 JUMP JUMPDEST PUSH0 DUP1 SLOAD SWAP1 PUSH2 0x100 EXP SWAP1 DIV PUSH1 0xFF AND DUP2 JUMP JUMPDEST PUSH1 0x4 PUSH0 SWAP1 SLOAD SWAP1 PUSH2 0x100 EXP SWAP1 DIV PUSH20 0xFFFFFFFFFFFFFFFFFFFFFFFFFFFFFFFFFFFFFFFF AND PUSH20 0xFFFFFFFFFFFFFFFFFFFFFFFFFFFFFFFFFFFFFFFF AND CALLER PUSH20 0xFFFFFFFFFFFFFFFFFFFFFFFFFFFFFFFFFFFFFFFF AND EQ PUSH2 0x1438 JUMPI PUSH1 0x40 MLOAD PUSH32 0x8C379A000000000000000000000000000000000000000000000000000000000 DUP2 MSTORE PUSH1 0x4 ADD PUSH2 0x142F SWAP1 PUSH2 0x4268 JUMP JUMPDEST PUSH1 0x40 MLOAD DUP1 SWAP2 SUB SWAP1 REVERT JUMPDEST PUSH1 0x1 DUP1 PUSH1 0x5 DUP2 GT ISZERO PUSH2 0x144D JUMPI PUSH2 0x144C PUSH2 0x3DBE JUMP JUMPDEST JUMPDEST PUSH0 DUP1 SLOAD SWAP1 PUSH2 0x100 EXP SWAP1 DIV PUSH1 0xFF AND PUSH1 0x5 DUP2 GT ISZERO PUSH2 0x146C JUMPI PUSH2 0x146B PUSH2 0x3DBE JUMP JUMPDEST JUMPDEST EQ PUSH2 0x14AC JUMPI PUSH1 0x40 MLOAD PUSH32 0x8C379A000000000000000000000000000000000000000000000000000000000 DUP2 MSTORE PUSH1 0x4 ADD PUSH2 0x14A3 SWAP1 PUSH2 0x42D0 JUMP JUMPDEST PUSH1 0x40 MLOAD DUP1 SWAP2 SUB SWAP1 REVERT JUMPDEST PUSH0 JUMPDEST PUSH1 0x1 DUP1 SLOAD SWAP1 POP DUP2 LT ISZERO PUSH2 0x158A JUMPI PUSH0 DUP1 SHL PUSH1 0xC PUSH0 PUSH1 0x1 DUP5 DUP2 SLOAD DUP2 LT PUSH2 0x14D5 JUMPI PUSH2 0x14D4 PUSH2 0x42EE JUMP JUMPDEST JUMPDEST SWAP1 PUSH0 MSTORE PUSH1 0x20 PUSH0 KECCAK256 SWAP1 PUSH1 0x4 MUL ADD PUSH0 ADD PUSH0 SWAP1 SLOAD SWAP1 PUSH2 0x100 EXP SWAP1 DIV PUSH20 0xFFFFFFFFFFFFFFFFFFFFFFFFFFFFFFFFFFFFFFFF AND PUSH20 0xFFFFFFFFFFFFFFFFFFFFFFFFFFFFFFFFFFFFFFFF AND PUSH20 0xFFFFFFFFFFFFFFFFFFFFFFFFFFFFFFFFFFFFFFFF AND DUP2 MSTORE PUSH1 0x20 ADD SWAP1 DUP2 MSTORE PUSH1 0x20 ADD PUSH0 KECCAK256 SLOAD SUB PUSH2 0x157D JUMPI PUSH1 0x40 MLOAD PUSH32 0x8C379A000000000000000000000000000000000000000000000000000000000 DUP2 MSTORE PUSH1 0x4 ADD PUSH2 0x1574 SWAP1 PUSH2 0x5599 JUMP JUMPDEST PUSH1 0x40 MLOAD DUP1 SWAP2 SUB SWAP1 REVERT JUMPDEST DUP1 DUP1 PUSH1 0x1 ADD SWAP2 POP POP PUSH2 0x14AE JUMP JUMPDEST POP PUSH1 0x2 PUSH0 DUP1 PUSH2 0x100 EXP DUP2 SLOAD DUP2 PUSH1 0xFF MUL NOT AND SWAP1 DUP4 PUSH1 0x5 DUP2 GT ISZERO PUSH2 0x15AF JUMPI PUSH2 0x15AE PUSH2 0x3DBE JUMP JUMPDEST JUMPDEST MUL OR SWAP1 SSTORE POP POP JUMP JUMPDEST PUSH0 DUP1 JUMPDEST PUSH1 0x1 DUP1 SLOAD SWAP1 POP DUP2 LT ISZERO PUSH2 0x1651 JUMPI CALLER PUSH20 0xFFFFFFFFFFFFFFFFFFFFFFFFFFFFFFFFFFFFFFFF AND PUSH1 0x1 DUP3 DUP2 SLOAD DUP2 LT PUSH2 0x15F2 JUMPI PUSH2 0x15F1 PUSH2 0x42EE JUMP JUMPDEST JUMPDEST SWAP1 PUSH0 MSTORE PUSH1 0x20 PUSH0 KECCAK256 SWAP1 PUSH1 0x4 MUL ADD PUSH0 ADD PUSH0 SWAP1 SLOAD SWAP1 PUSH2 0x100 EXP SWAP1 DIV PUSH20 0xFFFFFFFFFFFFFFFFFFFFFFFFFFFFFFFFFFFFFFFF AND PUSH20 0xFFFFFFFFFFFFFFFFFFFFFFFFFFFFFFFFFFFFFFFF AND SUB PUSH2 0x1644 JUMPI PUSH1 0x1 SWAP2 POP PUSH2 0x1651 JUMP JUMPDEST DUP1 DUP1 PUSH1 0x1 ADD SWAP2 POP POP PUSH2 0x15BA JUMP JUMPDEST POP DUP1 PUSH2 0x1692 JUMPI PUSH1 0x40 MLOAD PUSH32 0x8C379A000000000000000000000000000000000000000000000000000000000 DUP2 MSTORE PUSH1 0x4 ADD PUSH2 0x1689 SWAP1 PUSH2 0x5462 JUMP JUMPDEST PUSH1 0x40 MLOAD DUP1 SWAP2 SUB SWAP1 REVERT JUMPDEST PUSH1 0x3 DUP1 PUSH1 0x5 DUP2 GT ISZERO PUSH2 0x16A7 JUMPI PUSH2 0x16A6 PUSH2 0x3DBE JUMP JUMPDEST JUMPDEST PUSH0 DUP1 SLOAD SWAP1 PUSH2 0x100 EXP SWAP1 DIV PUSH1 0xFF AND PUSH1 0x5 DUP2 GT ISZERO PUSH2 0x16C6 JUMPI PUSH2 0x16C5 PUSH2 0x3DBE JUMP JUMPDEST JUMPDEST EQ PUSH2 0x1706 JUMPI PUSH1 0x40 MLOAD PUSH32 0x8C379A000000000000000000000000000000000000000000000000000000000 DUP2 MSTORE PUSH1 0x4 ADD PUSH2 0x16FD SWAP1 PUSH2 0x42D0 JUMP JUMPDEST PUSH1 0x40 MLOAD DUP1 SWAP2 SUB SWAP1 REVERT JUMPDEST PUSH2 0x170F CALLER PUSH2 0x31C2 JUMP JUMPDEST PUSH2 0x174E JUMPI PUSH1 0x40 MLOAD PUSH32 0x8C379A000000000000000000000000000000000000000000000000000000000 DUP2 MSTORE PUSH1 0x4 ADD PUSH2 0x1745 SWAP1 PUSH2 0x54F0 JUMP JUMPDEST PUSH1 0x40 MLOAD DUP1 SWAP2 SUB SWAP1 REVERT JUMPDEST PUSH2 0x1757 PUSH0 PUSH2 0x32D2 JUMP JUMPDEST PUSH0 PUSH1 0x1 SWAP1 POP PUSH0 JUMPDEST PUSH1 0x1 DUP1 SLOAD SWAP1 POP DUP2 LT ISZERO PUSH2 0x17EF JUMPI PUSH1 0x1 DUP2 DUP2 SLOAD DUP2 LT PUSH2 0x177F JUMPI PUSH2 0x177E PUSH2 0x42EE JUMP JUMPDEST JUMPDEST SWAP1 PUSH0 MSTORE PUSH1 0x20 PUSH0 KECCAK256 SWAP1 PUSH1 0x4 MUL ADD PUSH1 0x3 ADD PUSH0 SWAP1 SLOAD SWAP1 PUSH2 0x100 EXP SWAP1 DIV PUSH1 0xFF AND DUP1 ISZERO PUSH2 0x17D5 JUMPI POP PUSH1 0x1 DUP2 DUP2 SLOAD DUP2 LT PUSH2 0x17B6 JUMPI PUSH2 0x17B5 PUSH2 0x42EE JUMP JUMPDEST JUMPDEST SWAP1 PUSH0 MSTORE PUSH1 0x20 PUSH0 KECCAK256 SWAP1 PUSH1 0x4 MUL ADD PUSH1 0x3 ADD PUSH1 0x1 SWAP1 SLOAD SWAP1 PUSH2 0x100 EXP SWAP1 DIV PUSH1 0xFF AND ISZERO JUMPDEST ISZERO PUSH2 0x17E2 JUMPI PUSH0 SWAP2 POP PUSH2 0x17EF JUMP JUMPDEST DUP1 DUP1 PUSH1 0x1 ADD SWAP2 POP POP PUSH2 0x175E JUMP JUMPDEST POP DUP1 ISZERO PUSH2 0x1828 JUMPI PUSH1 0x5 PUSH0 DUP1 PUSH2 0x100 EXP DUP2 SLOAD DUP2 PUSH1 0xFF MUL NOT AND SWAP1 DUP4 PUSH1 0x5 DUP2 GT ISZERO PUSH2 0x181A JUMPI PUSH2 0x1819 PUSH2 0x3DBE JUMP JUMPDEST JUMPDEST MUL OR SWAP1 SSTORE POP PUSH2 0x1827 PUSH2 0x2EA3 JUMP JUMPDEST JUMPDEST POP POP POP JUMP JUMPDEST PUSH1 0x60 DUP1 PUSH1 0x3 DUP1 SLOAD SWAP1 POP PUSH8 0xFFFFFFFFFFFFFFFF DUP2 GT ISZERO PUSH2 0x184F JUMPI PUSH2 0x184E PUSH2 0x55B7 JUMP JUMPDEST JUMPDEST PUSH1 0x40 MLOAD SWAP1 DUP1 DUP3 MSTORE DUP1 PUSH1 0x20 MUL PUSH1 0x20 ADD DUP3 ADD PUSH1 0x40 MSTORE DUP1 ISZERO PUSH2 0x1882 JUMPI DUP2 PUSH1 0x20 ADD JUMPDEST PUSH1 0x60 DUP2 MSTORE PUSH1 0x20 ADD SWAP1 PUSH1 0x1 SWAP1 SUB SWAP1 DUP2 PUSH2 0x186D JUMPI SWAP1 POP JUMPDEST POP SWAP2 POP PUSH0 JUMPDEST PUSH1 0x3 DUP1 SLOAD SWAP1 POP DUP2 LT ISZERO PUSH2 0x18F9 JUMPI PUSH2 0x18CE PUSH1 0x3 DUP3 DUP2 SLOAD DUP2 LT PUSH2 0x18AB JUMPI PUSH2 0x18AA PUSH2 0x42EE JUMP JUMPDEST JUMPDEST SWAP1 PUSH0 MSTORE PUSH1 0x20 PUSH0 KECCAK256 SWAP1 PUSH1 0x20 SWAP2 DUP3 DUP3 DIV ADD SWAP2 SWAP1 MOD SWAP1 SLOAD SWAP1 PUSH2 0x100 EXP SWAP1 DIV PUSH1 0xFF AND PUSH2 0x3553 JUMP JUMPDEST DUP4 DUP3 DUP2 MLOAD DUP2 LT PUSH2 0x18E1 JUMPI PUSH2 0x18E0 PUSH2 0x42EE JUMP JUMPDEST JUMPDEST PUSH1 0x20 MUL PUSH1 0x20 ADD ADD DUP2 SWAP1 MSTORE POP DUP1 DUP1 PUSH1 0x1 ADD SWAP2 POP POP PUSH2 0x1887 JUMP JUMPDEST POP PUSH1 0x1 DUP1 SLOAD SWAP1 POP PUSH8 0xFFFFFFFFFFFFFFFF DUP2 GT ISZERO PUSH2 0x1919 JUMPI PUSH2 0x1918 PUSH2 0x55B7 JUMP JUMPDEST JUMPDEST PUSH1 0x40 MLOAD SWAP1 DUP1 DUP3 MSTORE DUP1 PUSH1 0x20 MUL PUSH1 0x20 ADD DUP3 ADD PUSH1 0x40 MSTORE DUP1 ISZERO PUSH2 0x194C JUMPI DUP2 PUSH1 0x20 ADD JUMPDEST PUSH1 0x60 DUP2 MSTORE PUSH1 0x20 ADD SWAP1 PUSH1 0x1 SWAP1 SUB SWAP1 DUP2 PUSH2 0x1937 JUMPI SWAP1 POP JUMPDEST POP SWAP1 POP PUSH0 JUMPDEST PUSH1 0x1 DUP1 SLOAD SWAP1 POP DUP2 LT ISZERO PUSH2 0x1AB9 JUMPI PUSH0 PUSH1 0x1 DUP3 DUP2 SLOAD DUP2 LT PUSH2 0x1973 JUMPI PUSH2 0x1972 PUSH2 0x42EE JUMP JUMPDEST JUMPDEST SWAP1 PUSH0 MSTORE PUSH1 0x20 PUSH0 KECCAK256 SWAP1 PUSH1 0x4 MUL ADD PUSH1 0x2 ADD DUP1 SLOAD SWAP1 POP PUSH8 0xFFFFFFFFFFFFFFFF DUP2 GT ISZERO PUSH2 0x199F JUMPI PUSH2 0x199E PUSH2 0x55B7 JUMP JUMPDEST JUMPDEST PUSH1 0x40 MLOAD SWAP1 DUP1 DUP3 MSTORE DUP1 PUSH1 0x20 MUL PUSH1 0x20 ADD DUP3 ADD PUSH1 0x40 MSTORE DUP1 ISZERO PUSH2 0x19D2 JUMPI DUP2 PUSH1 0x20 ADD JUMPDEST PUSH1 0x60 DUP2 MSTORE PUSH1 0x20 ADD SWAP1 PUSH1 0x1 SWAP1 SUB SWAP1 DUP2 PUSH2 0x19BD JUMPI SWAP1 POP JUMPDEST POP SWAP1 POP PUSH0 JUMPDEST PUSH1 0x1 DUP4 DUP2 SLOAD DUP2 LT PUSH2 0x19EB JUMPI PUSH2 0x19EA PUSH2 0x42EE JUMP JUMPDEST JUMPDEST SWAP1 PUSH0 MSTORE PUSH1 0x20 PUSH0 KECCAK256 SWAP1 PUSH1 0x4 MUL ADD PUSH1 0x2 ADD DUP1 SLOAD SWAP1 POP DUP2 LT ISZERO PUSH2 0x1A8B JUMPI PUSH2 0x1A60 PUSH1 0x1 DUP5 DUP2 SLOAD DUP2 LT PUSH2 0x1A1C JUMPI PUSH2 0x1A1B PUSH2 0x42EE JUMP JUMPDEST JUMPDEST SWAP1 PUSH0 MSTORE PUSH1 0x20 PUSH0 KECCAK256 SWAP1 PUSH1 0x4 MUL ADD PUSH1 0x2 ADD DUP3 DUP2 SLOAD DUP2 LT PUSH2 0x1A3D JUMPI PUSH2 0x1A3C PUSH2 0x42EE JUMP JUMPDEST JUMPDEST SWAP1 PUSH0 MSTORE PUSH1 0x20 PUSH0 KECCAK256 SWAP1 PUSH1 0x20 SWAP2 DUP3 DUP3 DIV ADD SWAP2 SWAP1 MOD SWAP1 SLOAD SWAP1 PUSH2 0x100 EXP SWAP1 DIV PUSH1 0xFF AND PUSH2 0x3553 JUMP JUMPDEST DUP3 DUP3 DUP2 MLOAD DUP2 LT PUSH2 0x1A73 JUMPI PUSH2 0x1A72 PUSH2 0x42EE JUMP JUMPDEST JUMPDEST PUSH1 0x20 MUL PUSH1 0x20 ADD ADD DUP2 SWAP1 MSTORE POP DUP1 DUP1 PUSH1 0x1 ADD SWAP2 POP POP PUSH2 0x19D7 JUMP JUMPDEST POP DUP1 DUP4 DUP4 DUP2 MLOAD DUP2 LT PUSH2 0x1AA0 JUMPI PUSH2 0x1A9F PUSH2 0x42EE JUMP JUMPDEST JUMPDEST PUSH1 0x20 MUL PUSH1 0x20 ADD ADD DUP2 SWAP1 MSTORE POP POP DUP1 DUP1 PUSH1 0x1 ADD SWAP2 POP POP PUSH2 0x1951 JUMP JUMPDEST POP SWAP1 SWAP2 JUMP JUMPDEST PUSH1 0x4 PUSH0 SWAP1 SLOAD SWAP1 PUSH2 0x100 EXP SWAP1 DIV PUSH20 0xFFFFFFFFFFFFFFFFFFFFFFFFFFFFFFFFFFFFFFFF AND PUSH20 0xFFFFFFFFFFFFFFFFFFFFFFFFFFFFFFFFFFFFFFFF AND CALLER PUSH20 0xFFFFFFFFFFFFFFFFFFFFFFFFFFFFFFFFFFFFFFFF AND EQ PUSH2 0x1B4D JUMPI PUSH1 0x40 MLOAD PUSH32 0x8C379A000000000000000000000000000000000000000000000000000000000 DUP2 MSTORE PUSH1 0x4 ADD PUSH2 0x1B44 SWAP1 PUSH2 0x4268 JUMP JUMPDEST PUSH1 0x40 MLOAD DUP1 SWAP2 SUB SWAP1 REVERT JUMPDEST PUSH1 0x2 DUP1 PUSH1 0x5 DUP2 GT ISZERO PUSH2 0x1B62 JUMPI PUSH2 0x1B61 PUSH2 0x3DBE JUMP JUMPDEST JUMPDEST PUSH0 DUP1 SLOAD SWAP1 PUSH2 0x100 EXP SWAP1 DIV PUSH1 0xFF AND PUSH1 0x5 DUP2 GT ISZERO PUSH2 0x1B81 JUMPI PUSH2 0x1B80 PUSH2 0x3DBE JUMP JUMPDEST JUMPDEST EQ PUSH2 0x1BC1 JUMPI PUSH1 0x40 MLOAD PUSH32 0x8C379A000000000000000000000000000000000000000000000000000000000 DUP2 MSTORE PUSH1 0x4 ADD PUSH2 0x1BB8 SWAP1 PUSH2 0x42D0 JUMP JUMPDEST PUSH1 0x40 MLOAD DUP1 SWAP2 SUB SWAP1 REVERT JUMPDEST PUSH0 PUSH1 0xD PUSH0 PUSH1 0x4 PUSH0 SWAP1 SLOAD SWAP1 PUSH2 0x100 EXP SWAP1 DIV PUSH20 0xFFFFFFFFFFFFFFFFFFFFFFFFFFFFFFFFFFFFFFFF AND PUSH20 0xFFFFFFFFFFFFFFFFFFFFFFFFFFFFFFFFFFFFFFFF AND PUSH20 0xFFFFFFFFFFFFFFFFFFFFFFFFFFFFFFFFFFFFFFFF AND DUP2 MSTORE PUSH1 0x20 ADD SWAP1 DUP2 MSTORE PUSH1 0x20 ADD PUSH0 KECCAK256 SLOAD SWAP1 POP PUSH0 DUP2 SUB PUSH2 0x1C65 JUMPI PUSH1 0x40 MLOAD PUSH32 0x8C379A000000000000000000000000000000000000000000000000000000000 DUP2 MSTORE PUSH1 0x4 ADD PUSH2 0x1C5C SWAP1 PUSH2 0x562E JUMP JUMPDEST PUSH1 0x40 MLOAD DUP1 SWAP2 SUB SWAP1 REVERT JUMPDEST PUSH0 JUMPDEST PUSH1 0x1 DUP1 SLOAD SWAP1 POP DUP2 LT ISZERO PUSH2 0x1F0B JUMPI PUSH0 PUSH1 0x1 DUP3 DUP2 SLOAD DUP2 LT PUSH2 0x1C89 JUMPI PUSH2 0x1C88 PUSH2 0x42EE JUMP JUMPDEST JUMPDEST SWAP1 PUSH0 MSTORE PUSH1 0x20 PUSH0 KECCAK256 SWAP1 PUSH1 0x4 MUL ADD PUSH0 ADD PUSH0 SWAP1 SLOAD SWAP1 PUSH2 0x100 EXP SWAP1 DIV PUSH20 0xFFFFFFFFFFFFFFFFFFFFFFFFFFFFFFFFFFFFFFFF AND SWAP1 POP PUSH0 PUSH1 0xD PUSH0 DUP4 PUSH20 0xFFFFFFFFFFFFFFFFFFFFFFFFFFFFFFFFFFFFFFFF AND PUSH20 0xFFFFFFFFFFFFFFFFFFFFFFFFFFFFFFFFFFFFFFFF AND DUP2 MSTORE PUSH1 0x20 ADD SWAP1 DUP2 MSTORE PUSH1 0x20 ADD PUSH0 KECCAK256 SLOAD SWAP1 POP PUSH0 DUP2 SUB PUSH2 0x1D3C JUMPI PUSH1 0x40 MLOAD PUSH32 0x8C379A000000000000000000000000000000000000000000000000000000000 DUP2 MSTORE PUSH1 0x4 ADD PUSH2 0x1D33 SWAP1 PUSH2 0x56BC JUMP JUMPDEST PUSH1 0x40 MLOAD DUP1 SWAP2 SUB SWAP1 REVERT JUMPDEST PUSH0 PUSH20 0x0 PUSH4 0x10F8B35C DUP4 DUP8 PUSH1 0x40 MLOAD DUP4 PUSH4 0xFFFFFFFF AND PUSH1 0xE0 SHL DUP2 MSTORE PUSH1 0x4 ADD PUSH2 0x1D76 SWAP3 SWAP2 SWAP1 PUSH2 0x455C JUMP JUMPDEST PUSH1 0x20 PUSH1 0x40 MLOAD DUP1 DUP4 SUB DUP2 DUP7 GAS DELEGATECALL ISZERO DUP1 ISZERO PUSH2 0x1D91 JUMPI RETURNDATASIZE PUSH0 DUP1 RETURNDATACOPY RETURNDATASIZE PUSH0 REVERT JUMPDEST POP POP POP POP PUSH1 0x40 MLOAD RETURNDATASIZE PUSH1 0x1F NOT PUSH1 0x1F DUP3 ADD AND DUP3 ADD DUP1 PUSH1 0x40 MSTORE POP DUP2 ADD SWAP1 PUSH2 0x1DB5 SWAP2 SWAP1 PUSH2 0x45AD JUMP JUMPDEST SWAP1 POP PUSH0 PUSH20 0x0 PUSH4 0x10F8B35C DUP8 DUP6 PUSH1 0x40 MLOAD DUP4 PUSH4 0xFFFFFFFF AND PUSH1 0xE0 SHL DUP2 MSTORE PUSH1 0x4 ADD PUSH2 0x1DF1 SWAP3 SWAP2 SWAP1 PUSH2 0x455C JUMP JUMPDEST PUSH1 0x20 PUSH1 0x40 MLOAD DUP1 DUP4 SUB DUP2 DUP7 GAS DELEGATECALL ISZERO DUP1 ISZERO PUSH2 0x1E0C JUMPI RETURNDATASIZE PUSH0 DUP1 RETURNDATACOPY RETURNDATASIZE PUSH0 REVERT JUMPDEST POP POP POP POP PUSH1 0x40 MLOAD RETURNDATASIZE PUSH1 0x1F NOT PUSH1 0x1F DUP3 ADD AND DUP3 ADD DUP1 PUSH1 0x40 MSTORE POP DUP2 ADD SWAP1 PUSH2 0x1E30 SWAP2 SWAP1 PUSH2 0x45AD JUMP JUMPDEST SWAP1 POP PUSH1 0x1 DUP6 DUP2 SLOAD DUP2 LT PUSH2 0x1E46 JUMPI PUSH2 0x1E45 PUSH2 0x42EE JUMP JUMPDEST JUMPDEST SWAP1 PUSH0 MSTORE PUSH1 0x20 PUSH0 KECCAK256 SWAP1 PUSH1 0x4 MUL ADD PUSH1 0x2 ADD DUP3 SWAP1 DUP1 PUSH1 0x1 DUP2 SLOAD ADD DUP1 DUP3 SSTORE DUP1 SWAP2 POP POP PUSH1 0x1 SWAP1 SUB SWAP1 PUSH0 MSTORE PUSH1 0x20 PUSH0 KECCAK256 SWAP1 PUSH1 0x20 SWAP2 DUP3 DUP3 DIV ADD SWAP2 SWAP1 MOD SWAP1 SWAP2 SWAP1 SWAP2 SWAP1 SWAP2 PUSH2 0x100 EXP DUP2 SLOAD DUP2 PUSH1 0xFF MUL NOT AND SWAP1 DUP4 PUSH1 0xFF AND MUL OR SWAP1 SSTORE POP PUSH1 0x1 DUP6 DUP2 SLOAD DUP2 LT PUSH2 0x1EAA JUMPI PUSH2 0x1EA9 PUSH2 0x42EE JUMP JUMPDEST JUMPDEST SWAP1 PUSH0 MSTORE PUSH1 0x20 PUSH0 KECCAK256 SWAP1 PUSH1 0x4 MUL ADD PUSH1 0x2 ADD DUP2 SWAP1 DUP1 PUSH1 0x1 DUP2 SLOAD ADD DUP1 DUP3 SSTORE DUP1 SWAP2 POP POP PUSH1 0x1 SWAP1 SUB SWAP1 PUSH0 MSTORE PUSH1 0x20 PUSH0 KECCAK256 SWAP1 PUSH1 0x20 SWAP2 DUP3 DUP3 DIV ADD SWAP2 SWAP1 MOD SWAP1 SWAP2 SWAP1 SWAP2 SWAP1 SWAP2 PUSH2 0x100 EXP DUP2 SLOAD DUP2 PUSH1 0xFF MUL NOT AND SWAP1 DUP4 PUSH1 0xFF AND MUL OR SWAP1 SSTORE POP POP POP POP POP DUP1 DUP1 PUSH1 0x1 ADD SWAP2 POP POP PUSH2 0x1C67 JUMP JUMPDEST POP PUSH0 DUP1 JUMPDEST PUSH1 0x1 DUP1 SLOAD SWAP1 POP DUP2 LT ISZERO PUSH2 0x1FD2 JUMPI DUP2 PUSH2 0x1FB9 PUSH1 0x1 DUP4 DUP2 SLOAD DUP2 LT PUSH2 0x1F34 JUMPI PUSH2 0x1F33 PUSH2 0x42EE JUMP JUMPDEST JUMPDEST SWAP1 PUSH0 MSTORE PUSH1 0x20 PUSH0 KECCAK256 SWAP1 PUSH1 0x4 MUL ADD PUSH1 0x2 ADD DUP1 SLOAD DUP1 PUSH1 0x20 MUL PUSH1 0x20 ADD PUSH1 0x40 MLOAD SWAP1 DUP2 ADD PUSH1 0x40 MSTORE DUP1 SWAP3 SWAP2 SWAP1 DUP2 DUP2 MSTORE PUSH1 0x20 ADD DUP3 DUP1 SLOAD DUP1 ISZERO PUSH2 0x1FAF JUMPI PUSH1 0x20 MUL DUP3 ADD SWAP2 SWAP1 PUSH0 MSTORE PUSH1 0x20 PUSH0 KECCAK256 SWAP1 PUSH0 SWAP1 JUMPDEST DUP3 DUP3 SWAP1 SLOAD SWAP1 PUSH2 0x100 EXP SWAP1 DIV PUSH1 0xFF AND PUSH1 0xFF AND DUP2 MSTORE PUSH1 0x20 ADD SWAP1 PUSH1 0x1 ADD SWAP1 PUSH1 0x20 DUP3 PUSH0 ADD DIV SWAP3 DUP4 ADD SWAP3 PUSH1 0x1 SUB DUP3 MUL SWAP2 POP DUP1 DUP5 GT PUSH2 0x1F79 JUMPI SWAP1 POP JUMPDEST POP POP POP POP POP PUSH2 0x2E45 JUMP JUMPDEST PUSH2 0x1FC3 SWAP2 SWAP1 PUSH2 0x56DA JUMP JUMPDEST SWAP2 POP DUP1 DUP1 PUSH1 0x1 ADD SWAP2 POP POP PUSH2 0x1F0F JUMP JUMPDEST POP PUSH0 PUSH20 0x0 PUSH4 0x10F8B35C DUP4 DUP6 PUSH1 0x40 MLOAD DUP4 PUSH4 0xFFFFFFFF AND PUSH1 0xE0 SHL DUP2 MSTORE PUSH1 0x4 ADD PUSH2 0x200D SWAP3 SWAP2 SWAP1 PUSH2 0x455C JUMP JUMPDEST PUSH1 0x20 PUSH1 0x40 MLOAD DUP1 DUP4 SUB DUP2 DUP7 GAS DELEGATECALL ISZERO DUP1 ISZERO PUSH2 0x2028 JUMPI RETURNDATASIZE PUSH0 DUP1 RETURNDATACOPY RETURNDATASIZE PUSH0 REVERT JUMPDEST POP POP POP POP PUSH1 0x40 MLOAD RETURNDATASIZE PUSH1 0x1F NOT PUSH1 0x1F DUP3 ADD AND DUP3 ADD DUP1 PUSH1 0x40 MSTORE POP DUP2 ADD SWAP1 PUSH2 0x204C SWAP2 SWAP1 PUSH2 0x45AD JUMP JUMPDEST SWAP1 POP PUSH1 0x3 DUP2 SWAP1 DUP1 PUSH1 0x1 DUP2 SLOAD ADD DUP1 DUP3 SSTORE DUP1 SWAP2 POP POP PUSH1 0x1 SWAP1 SUB SWAP1 PUSH0 MSTORE PUSH1 0x20 PUSH0 KECCAK256 SWAP1 PUSH1 0x20 SWAP2 DUP3 DUP3 DIV ADD SWAP2 SWAP1 MOD SWAP1 SWAP2 SWAP1 SWAP2 SWAP1 SWAP2 PUSH2 0x100 EXP DUP2 SLOAD DUP2 PUSH1 0xFF MUL NOT AND SWAP1 DUP4 PUSH1 0xFF AND MUL OR SWAP1 SSTORE POP PUSH1 0x3 PUSH0 DUP1 PUSH2 0x100 EXP DUP2 SLOAD DUP2 PUSH1 0xFF MUL NOT AND SWAP1 DUP4 PUSH1 0x5 DUP2 GT ISZERO PUSH2 0x20B5 JUMPI PUSH2 0x20B4 PUSH2 0x3DBE JUMP JUMPDEST JUMPDEST MUL OR SWAP1 SSTORE POP POP POP POP POP JUMP JUMPDEST PUSH1 0x60 PUSH0 PUSH1 0x1 DUP1 SLOAD SWAP1 POP PUSH8 0xFFFFFFFFFFFFFFFF DUP2 GT ISZERO PUSH2 0x20E2 JUMPI PUSH2 0x20E1 PUSH2 0x55B7 JUMP JUMPDEST JUMPDEST PUSH1 0x40 MLOAD SWAP1 DUP1 DUP3 MSTORE DUP1 PUSH1 0x20 MUL PUSH1 0x20 ADD DUP3 ADD PUSH1 0x40 MSTORE DUP1 ISZERO PUSH2 0x2110 JUMPI DUP2 PUSH1 0x20 ADD PUSH1 0x20 DUP3 MUL DUP1 CALLDATASIZE DUP4 CALLDATACOPY DUP1 DUP3 ADD SWAP2 POP POP SWAP1 POP JUMPDEST POP SWAP2 POP PUSH0 JUMPDEST PUSH1 0x1 DUP1 SLOAD SWAP1 POP DUP2 LT ISZERO PUSH2 0x21EE JUMPI PUSH20 0x0 PUSH4 0x345E3D68 PUSH1 0x1 DUP4 DUP2 SLOAD DUP2 LT PUSH2 0x2150 JUMPI PUSH2 0x214F PUSH2 0x42EE JUMP JUMPDEST JUMPDEST SWAP1 PUSH0 MSTORE PUSH1 0x20 PUSH0 KECCAK256 SWAP1 PUSH1 0x4 MUL ADD PUSH1 0x2 ADD PUSH1 0x40 MLOAD DUP3 PUSH4 0xFFFFFFFF AND PUSH1 0xE0 SHL DUP2 MSTORE PUSH1 0x4 ADD PUSH2 0x217B SWAP2 SWAP1 PUSH2 0x5302 JUMP JUMPDEST PUSH1 0x20 PUSH1 0x40 MLOAD DUP1 DUP4 SUB DUP2 DUP7 GAS DELEGATECALL ISZERO DUP1 ISZERO PUSH2 0x2196 JUMPI RETURNDATASIZE PUSH0 DUP1 RETURNDATACOPY RETURNDATASIZE PUSH0 REVERT JUMPDEST POP POP POP POP PUSH1 0x40 MLOAD RETURNDATASIZE PUSH1 0x1F NOT PUSH1 0x1F DUP3 ADD AND DUP3 ADD DUP1 PUSH1 0x40 MSTORE POP DUP2 ADD SWAP1 PUSH2 0x21BA SWAP2 SWAP1 PUSH2 0x45AD JUMP JUMPDEST DUP4 DUP3 DUP2 MLOAD DUP2 LT PUSH2 0x21CD JUMPI PUSH2 0x21CC PUSH2 0x42EE JUMP JUMPDEST JUMPDEST PUSH1 0x20 MUL PUSH1 0x20 ADD ADD SWAP1 PUSH1 0xFF AND SWAP1 DUP2 PUSH1 0xFF AND DUP2 MSTORE POP POP DUP1 DUP1 PUSH1 0x1 ADD SWAP2 POP POP PUSH2 0x2115 JUMP JUMPDEST POP PUSH20 0x0 PUSH4 0x345E3D68 PUSH1 0x3 PUSH1 0x40 MLOAD DUP3 PUSH4 0xFFFFFFFF AND PUSH1 0xE0 SHL DUP2 MSTORE PUSH1 0x4 ADD PUSH2 0x2227 SWAP2 SWAP1 PUSH2 0x5302 JUMP JUMPDEST PUSH1 0x20 PUSH1 0x40 MLOAD DUP1 DUP4 SUB DUP2 DUP7 GAS DELEGATECALL ISZERO DUP1 ISZERO PUSH2 0x2242 JUMPI RETURNDATASIZE PUSH0 DUP1 RETURNDATACOPY RETURNDATASIZE PUSH0 REVERT JUMPDEST POP POP POP POP PUSH1 0x40 MLOAD RETURNDATASIZE PUSH1 0x1F NOT PUSH1 0x1F DUP3 ADD AND DUP3 ADD DUP1 PUSH1 0x40 MSTORE POP DUP2 ADD SWAP1 PUSH2 0x2266 SWAP2 SWAP1 PUSH2 0x45AD JUMP JUMPDEST SWAP1 POP SWAP1 SWAP2 JUMP JUMPDEST PUSH0 DUP1 PUSH1 0x5 DUP2 GT ISZERO PUSH2 0x2280 JUMPI PUSH2 0x227F PUSH2 0x3DBE JUMP JUMPDEST JUMPDEST PUSH0 DUP1 SLOAD SWAP1 PUSH2 0x100 EXP SWAP1 DIV PUSH1 0xFF AND PUSH1 0x5 DUP2 GT ISZERO PUSH2 0x229F JUMPI PUSH2 0x229E PUSH2 0x3DBE JUMP JUMPDEST JUMPDEST EQ PUSH2 0x22DF JUMPI PUSH1 0x40 MLOAD PUSH32 0x8C379A000000000000000000000000000000000000000000000000000000000 DUP2 MSTORE PUSH1 0x4 ADD PUSH2 0x22D6 SWAP1 PUSH2 0x42D0 JUMP JUMPDEST PUSH1 0x40 MLOAD DUP1 SWAP2 SUB SWAP1 REVERT JUMPDEST PUSH1 0x4 PUSH1 0x2 SLOAD LT PUSH2 0x2324 JUMPI PUSH1 0x40 MLOAD PUSH32 0x8C379A000000000000000000000000000000000000000000000000000000000 DUP2 MSTORE PUSH1 0x4 ADD PUSH2 0x231B SWAP1 PUSH2 0x5757 JUMP JUMPDEST PUSH1 0x40 MLOAD DUP1 SWAP2 SUB SWAP1 REVERT JUMPDEST DUP2 CALLVALUE EQ PUSH2 0x2366 JUMPI PUSH1 0x40 MLOAD PUSH32 0x8C379A000000000000000000000000000000000000000000000000000000000 DUP2 MSTORE PUSH1 0x4 ADD PUSH2 0x235D SWAP1 PUSH2 0x57BF JUMP JUMPDEST PUSH1 0x40 MLOAD DUP1 SWAP2 SUB SWAP1 REVERT JUMPDEST PUSH1 0x1 PUSH1 0x40 MLOAD DUP1 PUSH1 0xA0 ADD PUSH1 0x40 MSTORE DUP1 CALLER PUSH20 0xFFFFFFFFFFFFFFFFFFFFFFFFFFFFFFFFFFFFFFFF AND DUP2 MSTORE PUSH1 0x20 ADD DUP5 DUP2 MSTORE PUSH1 0x20 ADD PUSH0 PUSH8 0xFFFFFFFFFFFFFFFF DUP2 GT ISZERO PUSH2 0x23AF JUMPI PUSH2 0x23AE PUSH2 0x55B7 JUMP JUMPDEST JUMPDEST PUSH1 0x40 MLOAD SWAP1 DUP1 DUP3 MSTORE DUP1 PUSH1 0x20 MUL PUSH1 0x20 ADD DUP3 ADD PUSH1 0x40 MSTORE DUP1 ISZERO PUSH2 0x23DD JUMPI DUP2 PUSH1 0x20 ADD PUSH1 0x20 DUP3 MUL DUP1 CALLDATASIZE DUP4 CALLDATACOPY DUP1 DUP3 ADD SWAP2 POP POP SWAP1 POP JUMPDEST POP DUP2 MSTORE PUSH1 0x20 ADD PUSH1 0x1 ISZERO ISZERO DUP2 MSTORE PUSH1 0x20 ADD PUSH0 ISZERO ISZERO DUP2 MSTORE POP SWAP1 DUP1 PUSH1 0x1 DUP2 SLOAD ADD DUP1 DUP3 SSTORE DUP1 SWAP2 POP POP PUSH1 0x1 SWAP1 SUB SWAP1 PUSH0 MSTORE PUSH1 0x20 PUSH0 KECCAK256 SWAP1 PUSH1 0x4 MUL ADD PUSH0 SWAP1 SWAP2 SWAP1 SWAP2 SWAP1 SWAP2 POP PUSH0 DUP3 ADD MLOAD DUP2 PUSH0 ADD PUSH0 PUSH2 0x100 EXP DUP2 SLOAD DUP2 PUSH20 0xFFFFFFFFFFFFFFFFFFFFFFFFFFFFFFFFFFFFFFFF MUL NOT AND SWAP1 DUP4 PUSH20 0xFFFFFFFFFFFFFFFFFFFFFFFFFFFFFFFFFFFFFFFF AND MUL OR SWAP1 SSTORE POP PUSH1 0x20 DUP3 ADD MLOAD DUP2 PUSH1 0x1 ADD SSTORE PUSH1 0x40 DUP3 ADD MLOAD DUP2 PUSH1 0x2 ADD SWAP1 DUP1 MLOAD SWAP1 PUSH1 0x20 ADD SWAP1 PUSH2 0x2482 SWAP3 SWAP2 SWAP1 PUSH2 0x3B39 JUMP JUMPDEST POP PUSH1 0x60 DUP3 ADD MLOAD DUP2 PUSH1 0x3 ADD PUSH0 PUSH2 0x100 EXP DUP2 SLOAD DUP2 PUSH1 0xFF MUL NOT AND SWAP1 DUP4 ISZERO ISZERO MUL OR SWAP1 SSTORE POP PUSH1 0x80 DUP3 ADD MLOAD DUP2 PUSH1 0x3 ADD PUSH1 0x1 PUSH2 0x100 EXP DUP2 SLOAD DUP2 PUSH1 0xFF MUL NOT AND SWAP1 DUP4 ISZERO ISZERO MUL OR SWAP1 SSTORE POP POP POP PUSH1 0x2 PUSH0 DUP2 SLOAD DUP1 SWAP3 SWAP2 SWAP1 PUSH2 0x24D6 SWAP1 PUSH2 0x4506 JUMP JUMPDEST SWAP2 SWAP1 POP SSTORE POP POP POP JUMP JUMPDEST PUSH2 0x24EA PUSH1 0x12 SLOAD PUSH2 0x36E5 JUMP JUMPDEST PUSH2 0x2529 JUMPI PUSH1 0x40 MLOAD PUSH32 0x8C379A000000000000000000000000000000000000000000000000000000000 DUP2 MSTORE PUSH1 0x4 ADD PUSH2 0x2520 SWAP1 PUSH2 0x5827 JUMP JUMPDEST PUSH1 0x40 MLOAD DUP1 SWAP2 SUB SWAP1 REVERT JUMPDEST PUSH1 0x1 PUSH1 0x5 DUP2 GT ISZERO PUSH2 0x253D JUMPI PUSH2 0x253C PUSH2 0x3DBE JUMP JUMPDEST JUMPDEST PUSH0 DUP1 SLOAD SWAP1 PUSH2 0x100 EXP SWAP1 DIV PUSH1 0xFF AND PUSH1 0x5 DUP2 GT ISZERO PUSH2 0x255C JUMPI PUSH2 0x255B PUSH2 0x3DBE JUMP JUMPDEST JUMPDEST SUB PUSH2 0x26CD JUMPI PUSH0 JUMPDEST PUSH1 0x1 DUP1 SLOAD SWAP1 POP DUP2 LT ISZERO PUSH2 0x2688 JUMPI PUSH0 DUP1 SHL PUSH1 0xC PUSH0 PUSH1 0x1 DUP5 DUP2 SLOAD DUP2 LT PUSH2 0x258A JUMPI PUSH2 0x2589 PUSH2 0x42EE JUMP JUMPDEST JUMPDEST SWAP1 PUSH0 MSTORE PUSH1 0x20 PUSH0 KECCAK256 SWAP1 PUSH1 0x4 MUL ADD PUSH0 ADD PUSH0 SWAP1 SLOAD SWAP1 PUSH2 0x100 EXP SWAP1 DIV PUSH20 0xFFFFFFFFFFFFFFFFFFFFFFFFFFFFFFFFFFFFFFFF AND PUSH20 0xFFFFFFFFFFFFFFFFFFFFFFFFFFFFFFFFFFFFFFFF AND PUSH20 0xFFFFFFFFFFFFFFFFFFFFFFFFFFFFFFFFFFFFFFFF AND DUP2 MSTORE PUSH1 0x20 ADD SWAP1 DUP2 MSTORE PUSH1 0x20 ADD PUSH0 KECCAK256 SLOAD EQ DUP1 ISZERO PUSH2 0x262B JUMPI POP PUSH1 0x1 DUP2 DUP2 SLOAD DUP2 LT PUSH2 0x260E JUMPI PUSH2 0x260D PUSH2 0x42EE JUMP JUMPDEST JUMPDEST SWAP1 PUSH0 MSTORE PUSH1 0x20 PUSH0 KECCAK256 SWAP1 PUSH1 0x4 MUL ADD PUSH1 0x3 ADD PUSH0 SWAP1 SLOAD SWAP1 PUSH2 0x100 EXP SWAP1 DIV PUSH1 0xFF AND JUMPDEST ISZERO PUSH2 0x267B JUMPI PUSH2 0x267A PUSH1 0x1 DUP3 DUP2 SLOAD DUP2 LT PUSH2 0x2647 JUMPI PUSH2 0x2646 PUSH2 0x42EE JUMP JUMPDEST JUMPDEST SWAP1 PUSH0 MSTORE PUSH1 0x20 PUSH0 KECCAK256 SWAP1 PUSH1 0x4 MUL ADD PUSH0 ADD PUSH0 SWAP1 SLOAD SWAP1 PUSH2 0x100 EXP SWAP1 DIV PUSH20 0xFFFFFFFFFFFFFFFFFFFFFFFFFFFFFFFFFFFFFFFF AND PUSH2 0x36F0 JUMP JUMPDEST JUMPDEST DUP1 DUP1 PUSH1 0x1 ADD SWAP2 POP POP PUSH2 0x2563 JUMP JUMPDEST POP PUSH2 0x2691 PUSH2 0x37FE JUMP JUMPDEST ISZERO PUSH2 0x26C0 JUMPI PUSH1 0x5 PUSH0 DUP1 PUSH2 0x100 EXP DUP2 SLOAD DUP2 PUSH1 0xFF MUL NOT AND SWAP1 DUP4 PUSH1 0x5 DUP2 GT ISZERO PUSH2 0x26BA JUMPI PUSH2 0x26B9 PUSH2 0x3DBE JUMP JUMPDEST JUMPDEST MUL OR SWAP1 SSTORE POP JUMPDEST PUSH2 0x26C8 PUSH2 0x31B2 JUMP JUMPDEST PUSH2 0x2B0C JUMP JUMPDEST PUSH1 0x2 PUSH1 0x5 DUP2 GT ISZERO PUSH2 0x26E1 JUMPI PUSH2 0x26E0 PUSH2 0x3DBE JUMP JUMPDEST JUMPDEST PUSH0 DUP1 SLOAD SWAP1 PUSH2 0x100 EXP SWAP1 DIV PUSH1 0xFF AND PUSH1 0x5 DUP2 GT ISZERO PUSH2 0x2700 JUMPI PUSH2 0x26FF PUSH2 0x3DBE JUMP JUMPDEST JUMPDEST SUB PUSH2 0x291B JUMPI PUSH0 PUSH1 0x1 SWAP1 POP PUSH0 JUMPDEST PUSH1 0x1 DUP1 SLOAD SWAP1 POP DUP2 LT ISZERO PUSH2 0x2832 JUMPI PUSH0 PUSH1 0xD PUSH0 PUSH1 0x1 DUP5 DUP2 SLOAD DUP2 LT PUSH2 0x2731 JUMPI PUSH2 0x2730 PUSH2 0x42EE JUMP JUMPDEST JUMPDEST SWAP1 PUSH0 MSTORE PUSH1 0x20 PUSH0 KECCAK256 SWAP1 PUSH1 0x4 MUL ADD PUSH0 ADD PUSH0 SWAP1 SLOAD SWAP1 PUSH2 0x100 EXP SWAP1 DIV PUSH20 0xFFFFFFFFFFFFFFFFFFFFFFFFFFFFFFFFFFFFFFFF AND PUSH20 0xFFFFFFFFFFFFFFFFFFFFFFFFFFFFFFFFFFFFFFFF AND PUSH20 0xFFFFFFFFFFFFFFFFFFFFFFFFFFFFFFFFFFFFFFFF AND DUP2 MSTORE PUSH1 0x20 ADD SWAP1 DUP2 MSTORE PUSH1 0x20 ADD PUSH0 KECCAK256 SLOAD EQ DUP1 ISZERO PUSH2 0x27D2 JUMPI POP PUSH1 0x1 DUP2 DUP2 SLOAD DUP2 LT PUSH2 0x27B5 JUMPI PUSH2 0x27B4 PUSH2 0x42EE JUMP JUMPDEST JUMPDEST SWAP1 PUSH0 MSTORE PUSH1 0x20 PUSH0 KECCAK256 SWAP1 PUSH1 0x4 MUL ADD PUSH1 0x3 ADD PUSH0 SWAP1 SLOAD SWAP1 PUSH2 0x100 EXP SWAP1 DIV PUSH1 0xFF AND JUMPDEST ISZERO PUSH2 0x2825 JUMPI PUSH2 0x2821 PUSH1 0x1 DUP3 DUP2 SLOAD DUP2 LT PUSH2 0x27EE JUMPI PUSH2 0x27ED PUSH2 0x42EE JUMP JUMPDEST JUMPDEST SWAP1 PUSH0 MSTORE PUSH1 0x20 PUSH0 KECCAK256 SWAP1 PUSH1 0x4 MUL ADD PUSH0 ADD PUSH0 SWAP1 SLOAD SWAP1 PUSH2 0x100 EXP SWAP1 DIV PUSH20 0xFFFFFFFFFFFFFFFFFFFFFFFFFFFFFFFFFFFFFFFF AND PUSH2 0x36F0 JUMP JUMPDEST PUSH0 SWAP2 POP JUMPDEST DUP1 DUP1 PUSH1 0x1 ADD SWAP2 POP POP PUSH2 0x270C JUMP JUMPDEST POP PUSH2 0x283B PUSH2 0x37FE JUMP JUMPDEST ISZERO PUSH2 0x286A JUMPI PUSH1 0x5 PUSH0 DUP1 PUSH2 0x100 EXP DUP2 SLOAD DUP2 PUSH1 0xFF MUL NOT AND SWAP1 DUP4 PUSH1 0x5 DUP2 GT ISZERO PUSH2 0x2864 JUMPI PUSH2 0x2863 PUSH2 0x3DBE JUMP JUMPDEST JUMPDEST MUL OR SWAP1 SSTORE POP JUMPDEST PUSH0 PUSH1 0xD PUSH0 PUSH1 0x4 PUSH0 SWAP1 SLOAD SWAP1 PUSH2 0x100 EXP SWAP1 DIV PUSH20 0xFFFFFFFFFFFFFFFFFFFFFFFFFFFFFFFFFFFFFFFF AND PUSH20 0xFFFFFFFFFFFFFFFFFFFFFFFFFFFFFFFFFFFFFFFF AND PUSH20 0xFFFFFFFFFFFFFFFFFFFFFFFFFFFFFFFFFFFFFFFF AND DUP2 MSTORE PUSH1 0x20 ADD SWAP1 DUP2 MSTORE PUSH1 0x20 ADD PUSH0 KECCAK256 SLOAD SUB PUSH2 0x2906 JUMPI PUSH2 0x28D7 PUSH2 0x389F JUMP JUMPDEST PUSH1 0x5 PUSH0 DUP1 PUSH2 0x100 EXP DUP2 SLOAD DUP2 PUSH1 0xFF MUL NOT AND SWAP1 DUP4 PUSH1 0x5 DUP2 GT ISZERO PUSH2 0x28FB JUMPI PUSH2 0x28FA PUSH2 0x3DBE JUMP JUMPDEST JUMPDEST MUL OR SWAP1 SSTORE POP POP PUSH2 0x2B0D JUMP JUMPDEST DUP1 ISZERO PUSH2 0x2915 JUMPI PUSH2 0x2914 PUSH2 0x31B2 JUMP JUMPDEST JUMPDEST POP PUSH2 0x2B0B JUMP JUMPDEST PUSH1 0x3 PUSH1 0x5 DUP2 GT ISZERO PUSH2 0x292F JUMPI PUSH2 0x292E PUSH2 0x3DBE JUMP JUMPDEST JUMPDEST PUSH0 DUP1 SLOAD SWAP1 PUSH2 0x100 EXP SWAP1 DIV PUSH1 0xFF AND PUSH1 0x5 DUP2 GT ISZERO PUSH2 0x294E JUMPI PUSH2 0x294D PUSH2 0x3DBE JUMP JUMPDEST JUMPDEST SUB PUSH2 0x2B0A JUMPI PUSH0 PUSH1 0x1 SWAP1 POP PUSH0 JUMPDEST PUSH1 0x1 DUP1 SLOAD SWAP1 POP DUP2 LT ISZERO PUSH2 0x2A8B JUMPI PUSH1 0x1 DUP2 DUP2 SLOAD DUP2 LT PUSH2 0x297B JUMPI PUSH2 0x297A PUSH2 0x42EE JUMP JUMPDEST JUMPDEST SWAP1 PUSH0 MSTORE PUSH1 0x20 PUSH0 KECCAK256 SWAP1 PUSH1 0x4 MUL ADD PUSH1 0x3 ADD PUSH0 SWAP1 SLOAD SWAP1 PUSH2 0x100 EXP SWAP1 DIV PUSH1 0xFF AND DUP1 ISZERO PUSH2 0x2A2B JUMPI POP PUSH1 0xF PUSH0 PUSH1 0x1 DUP4 DUP2 SLOAD DUP2 LT PUSH2 0x29B5 JUMPI PUSH2 0x29B4 PUSH2 0x42EE JUMP JUMPDEST JUMPDEST SWAP1 PUSH0 MSTORE PUSH1 0x20 PUSH0 KECCAK256 SWAP1 PUSH1 0x4 MUL ADD PUSH0 ADD PUSH0 SWAP1 SLOAD SWAP1 PUSH2 0x100 EXP SWAP1 DIV PUSH20 0xFFFFFFFFFFFFFFFFFFFFFFFFFFFFFFFFFFFFFFFF AND PUSH20 0xFFFFFFFFFFFFFFFFFFFFFFFFFFFFFFFFFFFFFFFF AND PUSH20 0xFFFFFFFFFFFFFFFFFFFFFFFFFFFFFFFFFFFFFFFF AND DUP2 MSTORE PUSH1 0x20 ADD SWAP1 DUP2 MSTORE PUSH1 0x20 ADD PUSH0 KECCAK256 PUSH0 SWAP1 SLOAD SWAP1 PUSH2 0x100 EXP SWAP1 DIV PUSH1 0xFF AND ISZERO JUMPDEST ISZERO PUSH2 0x2A7E JUMPI PUSH2 0x2A7A PUSH1 0x1 DUP3 DUP2 SLOAD DUP2 LT PUSH2 0x2A47 JUMPI PUSH2 0x2A46 PUSH2 0x42EE JUMP JUMPDEST JUMPDEST SWAP1 PUSH0 MSTORE PUSH1 0x20 PUSH0 KECCAK256 SWAP1 PUSH1 0x4 MUL ADD PUSH0 ADD PUSH0 SWAP1 SLOAD SWAP1 PUSH2 0x100 EXP SWAP1 DIV PUSH20 0xFFFFFFFFFFFFFFFFFFFFFFFFFFFFFFFFFFFFFFFF AND PUSH2 0x36F0 JUMP JUMPDEST PUSH0 SWAP2 POP JUMPDEST DUP1 DUP1 PUSH1 0x1 ADD SWAP2 POP POP PUSH2 0x295A JUMP JUMPDEST POP PUSH2 0x2A94 PUSH2 0x37FE JUMP JUMPDEST ISZERO PUSH2 0x2AC3 JUMPI PUSH1 0x5 PUSH0 DUP1 PUSH2 0x100 EXP DUP2 SLOAD DUP2 PUSH1 0xFF MUL NOT AND SWAP1 DUP4 PUSH1 0x5 DUP2 GT ISZERO PUSH2 0x2ABD JUMPI PUSH2 0x2ABC PUSH2 0x3DBE JUMP JUMPDEST JUMPDEST MUL OR SWAP1 SSTORE POP JUMPDEST DUP1 ISZERO PUSH2 0x2AFF JUMPI PUSH2 0x2AD1 PUSH2 0x389F JUMP JUMPDEST PUSH1 0x5 PUSH0 DUP1 PUSH2 0x100 EXP DUP2 SLOAD DUP2 PUSH1 0xFF MUL NOT AND SWAP1 DUP4 PUSH1 0x5 DUP2 GT ISZERO PUSH2 0x2AF5 JUMPI PUSH2 0x2AF4 PUSH2 0x3DBE JUMP JUMPDEST JUMPDEST MUL OR SWAP1 SSTORE POP PUSH2 0x2B08 JUMP JUMPDEST PUSH2 0x2B07 PUSH2 0x31B2 JUMP JUMPDEST JUMPDEST POP JUMPDEST JUMPDEST JUMPDEST JUMPDEST JUMP JUMPDEST PUSH1 0x2 DUP1 PUSH1 0x5 DUP2 GT ISZERO PUSH2 0x2B24 JUMPI PUSH2 0x2B23 PUSH2 0x3DBE JUMP JUMPDEST JUMPDEST PUSH0 DUP1 SLOAD SWAP1 PUSH2 0x100 EXP SWAP1 DIV PUSH1 0xFF AND PUSH1 0x5 DUP2 GT ISZERO PUSH2 0x2B43 JUMPI PUSH2 0x2B42 PUSH2 0x3DBE JUMP JUMPDEST JUMPDEST EQ PUSH2 0x2B83 JUMPI PUSH1 0x40 MLOAD PUSH32 0x8C379A000000000000000000000000000000000000000000000000000000000 DUP2 MSTORE PUSH1 0x4 ADD PUSH2 0x2B7A SWAP1 PUSH2 0x42D0 JUMP JUMPDEST PUSH1 0x40 MLOAD DUP1 SWAP2 SUB SWAP1 REVERT JUMPDEST PUSH0 PUSH1 0xD PUSH0 CALLER PUSH20 0xFFFFFFFFFFFFFFFFFFFFFFFFFFFFFFFFFFFFFFFF AND PUSH20 0xFFFFFFFFFFFFFFFFFFFFFFFFFFFFFFFFFFFFFFFF AND DUP2 MSTORE PUSH1 0x20 ADD SWAP1 DUP2 MSTORE PUSH1 0x20 ADD PUSH0 KECCAK256 SLOAD EQ PUSH2 0x2C02 JUMPI PUSH1 0x40 MLOAD PUSH32 0x8C379A000000000000000000000000000000000000000000000000000000000 DUP2 MSTORE PUSH1 0x4 ADD PUSH2 0x2BF9 SWAP1 PUSH2 0x588F JUMP JUMPDEST PUSH1 0x40 MLOAD DUP1 SWAP2 SUB SWAP1 REVERT JUMPDEST PUSH1 0x4 PUSH0 SWAP1 SLOAD SWAP1 PUSH2 0x100 EXP SWAP1 DIV PUSH20 0xFFFFFFFFFFFFFFFFFFFFFFFFFFFFFFFFFFFFFFFF AND PUSH20 0xFFFFFFFFFFFFFFFFFFFFFFFFFFFFFFFFFFFFFFFF AND CALLER PUSH20 0xFFFFFFFFFFFFFFFFFFFFFFFFFFFFFFFFFFFFFFFF AND SUB PUSH2 0x2D54 JUMPI PUSH1 0x5 PUSH1 0xB SLOAD PUSH1 0x6 DUP2 LT PUSH2 0x2C6C JUMPI PUSH2 0x2C6B PUSH2 0x42EE JUMP JUMPDEST JUMPDEST ADD SLOAD DUP3 PUSH1 0x40 MLOAD PUSH1 0x20 ADD PUSH2 0x2C7F SWAP2 SWAP1 PUSH2 0x4431 JUMP JUMPDEST PUSH1 0x40 MLOAD PUSH1 0x20 DUP2 DUP4 SUB SUB DUP2 MSTORE SWAP1 PUSH1 0x40 MSTORE DUP1 MLOAD SWAP1 PUSH1 0x20 ADD KECCAK256 EQ PUSH2 0x2CD5 JUMPI PUSH1 0x40 MLOAD PUSH32 0x8C379A000000000000000000000000000000000000000000000000000000000 DUP2 MSTORE PUSH1 0x4 ADD PUSH2 0x2CCC SWAP1 PUSH2 0x58F7 JUMP JUMPDEST PUSH1 0x40 MLOAD DUP1 SWAP2 SUB SWAP1 REVERT JUMPDEST DUP2 PUSH1 0xD PUSH0 PUSH1 0x4 PUSH0 SWAP1 SLOAD SWAP1 PUSH2 0x100 EXP SWAP1 DIV PUSH20 0xFFFFFFFFFFFFFFFFFFFFFFFFFFFFFFFFFFFFFFFF AND PUSH20 0xFFFFFFFFFFFFFFFFFFFFFFFFFFFFFFFFFFFFFFFF AND PUSH20 0xFFFFFFFFFFFFFFFFFFFFFFFFFFFFFFFFFFFFFFFF AND DUP2 MSTORE PUSH1 0x20 ADD SWAP1 DUP2 MSTORE PUSH1 0x20 ADD PUSH0 KECCAK256 DUP2 SWAP1 SSTORE POP PUSH1 0xB PUSH0 DUP2 SLOAD DUP1 SWAP3 SWAP2 SWAP1 PUSH2 0x2D4A SWAP1 PUSH2 0x4506 JUMP JUMPDEST SWAP2 SWAP1 POP SSTORE POP PUSH2 0x2E41 JUMP JUMPDEST PUSH0 DUP3 PUSH1 0x40 MLOAD PUSH1 0x20 ADD PUSH2 0x2D66 SWAP2 SWAP1 PUSH2 0x4431 JUMP JUMPDEST PUSH1 0x40 MLOAD PUSH1 0x20 DUP2 DUP4 SUB SUB DUP2 MSTORE SWAP1 PUSH1 0x40 MSTORE DUP1 MLOAD SWAP1 PUSH1 0x20 ADD KECCAK256 SWAP1 POP PUSH1 0xC PUSH0 CALLER PUSH20 0xFFFFFFFFFFFFFFFFFFFFFFFFFFFFFFFFFFFFFFFF AND PUSH20 0xFFFFFFFFFFFFFFFFFFFFFFFFFFFFFFFFFFFFFFFF AND DUP2 MSTORE PUSH1 0x20 ADD SWAP1 DUP2 MSTORE PUSH1 0x20 ADD PUSH0 KECCAK256 SLOAD DUP2 EQ PUSH2 0x2DFD JUMPI PUSH1 0x40 MLOAD PUSH32 0x8C379A000000000000000000000000000000000000000000000000000000000 DUP2 MSTORE PUSH1 0x4 ADD PUSH2 0x2DF4 SWAP1 PUSH2 0x595F JUMP JUMPDEST PUSH1 0x40 MLOAD DUP1 SWAP2 SUB SWAP1 REVERT JUMPDEST DUP3 PUSH1 0xD PUSH0 CALLER PUSH20 0xFFFFFFFFFFFFFFFFFFFFFFFFFFFFFFFFFFFFFFFF AND PUSH20 0xFFFFFFFFFFFFFFFFFFFFFFFFFFFFFFFFFFFFFFFF AND DUP2 MSTORE PUSH1 0x20 ADD SWAP1 DUP2 MSTORE PUSH1 0x20 ADD PUSH0 KECCAK256 DUP2 SWAP1 SSTORE POP POP JUMPDEST POP POP JUMP JUMPDEST PUSH0 DUP1 PUSH0 SWAP1 POP PUSH0 JUMPDEST DUP4 MLOAD DUP2 LT ISZERO PUSH2 0x2E99 JUMPI DUP4 DUP2 DUP2 MLOAD DUP2 LT PUSH2 0x2E68 JUMPI PUSH2 0x2E67 PUSH2 0x42EE JUMP JUMPDEST JUMPDEST PUSH1 0x20 MUL PUSH1 0x20 ADD ADD MLOAD PUSH1 0xFF AND PUSH1 0x64 DUP4 PUSH2 0x2E80 SWAP2 SWAP1 PUSH2 0x550E JUMP JUMPDEST PUSH2 0x2E8A SWAP2 SWAP1 PUSH2 0x56DA JUMP JUMPDEST SWAP2 POP DUP1 DUP1 PUSH1 0x1 ADD SWAP2 POP POP PUSH2 0x2E4C JUMP JUMPDEST POP DUP1 SWAP2 POP POP SWAP2 SWAP1 POP JUMP JUMPDEST PUSH1 0x5 DUP1 DUP2 GT ISZERO PUSH2 0x2EB6 JUMPI PUSH2 0x2EB5 PUSH2 0x3DBE JUMP JUMPDEST JUMPDEST PUSH0 DUP1 SLOAD SWAP1 PUSH2 0x100 EXP SWAP1 DIV PUSH1 0xFF AND PUSH1 0x5 DUP2 GT ISZERO PUSH2 0x2ED5 JUMPI PUSH2 0x2ED4 PUSH2 0x3DBE JUMP JUMPDEST JUMPDEST EQ PUSH2 0x2F15 JUMPI PUSH1 0x40 MLOAD PUSH32 0x8C379A000000000000000000000000000000000000000000000000000000000 DUP2 MSTORE PUSH1 0x4 ADD PUSH2 0x2F0C SWAP1 PUSH2 0x59ED JUMP JUMPDEST PUSH1 0x40 MLOAD DUP1 SWAP2 SUB SWAP1 REVERT JUMPDEST PUSH0 DUP1 JUMPDEST PUSH1 0x1 DUP1 SLOAD SWAP1 POP DUP2 LT ISZERO PUSH2 0x2FDD JUMPI DUP2 PUSH1 0xC PUSH0 PUSH1 0x1 DUP5 DUP2 SLOAD DUP2 LT PUSH2 0x2F3D JUMPI PUSH2 0x2F3C PUSH2 0x42EE JUMP JUMPDEST JUMPDEST SWAP1 PUSH0 MSTORE PUSH1 0x20 PUSH0 KECCAK256 SWAP1 PUSH1 0x4 MUL ADD PUSH0 ADD PUSH0 SWAP1 SLOAD SWAP1 PUSH2 0x100 EXP SWAP1 DIV PUSH20 0xFFFFFFFFFFFFFFFFFFFFFFFFFFFFFFFFFFFFFFFF AND PUSH20 0xFFFFFFFFFFFFFFFFFFFFFFFFFFFFFFFFFFFFFFFF AND PUSH20 0xFFFFFFFFFFFFFFFFFFFFFFFFFFFFFFFFFFFFFFFF AND DUP2 MSTORE PUSH1 0x20 ADD SWAP1 DUP2 MSTORE PUSH1 0x20 ADD PUSH0 KECCAK256 SLOAD PUSH1 0x40 MLOAD PUSH1 0x20 ADD PUSH2 0x2FB6 SWAP3 SWAP2 SWAP1 PUSH2 0x5A2B JUMP JUMPDEST PUSH1 0x40 MLOAD PUSH1 0x20 DUP2 DUP4 SUB SUB DUP2 MSTORE SWAP1 PUSH1 0x40 MSTORE DUP1 MLOAD SWAP1 PUSH1 0x20 ADD KECCAK256 PUSH0 SHR SWAP2 POP DUP1 DUP1 PUSH1 0x1 ADD SWAP2 POP POP PUSH2 0x2F18 JUMP JUMPDEST POP PUSH0 JUMPDEST PUSH1 0x11 PUSH20 0x0 PUSH4 0x345E3D68 PUSH1 0x3 PUSH1 0x40 MLOAD DUP3 PUSH4 0xFFFFFFFF AND PUSH1 0xE0 SHL DUP2 MSTORE PUSH1 0x4 ADD PUSH2 0x301A SWAP2 SWAP1 PUSH2 0x5302 JUMP JUMPDEST PUSH1 0x20 PUSH1 0x40 MLOAD DUP1 DUP4 SUB DUP2 DUP7 GAS DELEGATECALL ISZERO DUP1 ISZERO PUSH2 0x3035 JUMPI RETURNDATASIZE PUSH0 DUP1 RETURNDATACOPY RETURNDATASIZE PUSH0 REVERT JUMPDEST POP POP POP POP PUSH1 0x40 MLOAD RETURNDATASIZE PUSH1 0x1F NOT PUSH1 0x1F DUP3 ADD AND DUP3 ADD DUP1 PUSH1 0x40 MSTORE POP DUP2 ADD SWAP1 PUSH2 0x3059 SWAP2 SWAP1 PUSH2 0x45AD JUMP JUMPDEST PUSH1 0xFF AND LT ISZERO PUSH2 0x31AE JUMPI DUP1 PUSH2 0x30DE PUSH1 0x3 DUP1 SLOAD DUP1 PUSH1 0x20 MUL PUSH1 0x20 ADD PUSH1 0x40 MLOAD SWAP1 DUP2 ADD PUSH1 0x40 MSTORE DUP1 SWAP3 SWAP2 SWAP1 DUP2 DUP2 MSTORE PUSH1 0x20 ADD DUP3 DUP1 SLOAD DUP1 ISZERO PUSH2 0x30D4 JUMPI PUSH1 0x20 MUL DUP3 ADD SWAP2 SWAP1 PUSH0 MSTORE PUSH1 0x20 PUSH0 KECCAK256 SWAP1 PUSH0 SWAP1 JUMPDEST DUP3 DUP3 SWAP1 SLOAD SWAP1 PUSH2 0x100 EXP SWAP1 DIV PUSH1 0xFF AND PUSH1 0xFF AND DUP2 MSTORE PUSH1 0x20 ADD SWAP1 PUSH1 0x1 ADD SWAP1 PUSH1 0x20 DUP3 PUSH0 ADD DIV SWAP3 DUP4 ADD SWAP3 PUSH1 0x1 SUB DUP3 MUL SWAP2 POP DUP1 DUP5 GT PUSH2 0x309E JUMPI SWAP1 POP JUMPDEST POP POP POP POP POP PUSH2 0x2E45 JUMP JUMPDEST PUSH2 0x30E8 SWAP2 SWAP1 PUSH2 0x56DA JUMP JUMPDEST SWAP1 POP PUSH0 PUSH20 0x0 PUSH4 0x10F8B35C DUP5 DUP5 PUSH1 0x40 MLOAD DUP4 PUSH4 0xFFFFFFFF AND PUSH1 0xE0 SHL DUP2 MSTORE PUSH1 0x4 ADD PUSH2 0x3124 SWAP3 SWAP2 SWAP1 PUSH2 0x455C JUMP JUMPDEST PUSH1 0x20 PUSH1 0x40 MLOAD DUP1 DUP4 SUB DUP2 DUP7 GAS DELEGATECALL ISZERO DUP1 ISZERO PUSH2 0x313F JUMPI RETURNDATASIZE PUSH0 DUP1 RETURNDATACOPY RETURNDATASIZE PUSH0 REVERT JUMPDEST POP POP POP POP PUSH1 0x40 MLOAD RETURNDATASIZE PUSH1 0x1F NOT PUSH1 0x1F DUP3 ADD AND DUP3 ADD DUP1 PUSH1 0x40 MSTORE POP DUP2 ADD SWAP1 PUSH2 0x3163 SWAP2 SWAP1 PUSH2 0x45AD JUMP JUMPDEST SWAP1 POP PUSH1 0x3 DUP2 SWAP1 DUP1 PUSH1 0x1 DUP2 SLOAD ADD DUP1 DUP3 SSTORE DUP1 SWAP2 POP POP PUSH1 0x1 SWAP1 SUB SWAP1 PUSH0 MSTORE PUSH1 0x20 PUSH0 KECCAK256 SWAP1 PUSH1 0x20 SWAP2 DUP3 DUP3 DIV ADD SWAP2 SWAP1 MOD SWAP1 SWAP2 SWAP1 SWAP2 SWAP1 SWAP2 PUSH2 0x100 EXP DUP2 SLOAD DUP2 PUSH1 0xFF MUL NOT AND SWAP1 DUP4 PUSH1 0xFF AND MUL OR SWAP1 SSTORE POP POP PUSH2 0x2FE0 JUMP JUMPDEST POP POP JUMP JUMPDEST PUSH2 0x31BA PUSH2 0x39AD JUMP JUMPDEST PUSH1 0x12 DUP2 SWAP1 SSTORE POP JUMP JUMPDEST PUSH0 DUP1 PUSH0 SWAP1 POP JUMPDEST PUSH1 0x1 DUP1 SLOAD SWAP1 POP DUP2 LT ISZERO PUSH2 0x32C8 JUMPI DUP3 PUSH20 0xFFFFFFFFFFFFFFFFFFFFFFFFFFFFFFFFFFFFFFFF AND PUSH1 0x1 DUP3 DUP2 SLOAD DUP2 LT PUSH2 0x3200 JUMPI PUSH2 0x31FF PUSH2 0x42EE JUMP JUMPDEST JUMPDEST SWAP1 PUSH0 MSTORE PUSH1 0x20 PUSH0 KECCAK256 SWAP1 PUSH1 0x4 MUL ADD PUSH0 ADD PUSH0 SWAP1 SLOAD SWAP1 PUSH2 0x100 EXP SWAP1 DIV PUSH20 0xFFFFFFFFFFFFFFFFFFFFFFFFFFFFFFFFFFFFFFFF AND PUSH20 0xFFFFFFFFFFFFFFFFFFFFFFFFFFFFFFFFFFFFFFFF AND SUB PUSH2 0x32BB JUMPI PUSH1 0x1 DUP2 DUP2 SLOAD DUP2 LT PUSH2 0x325D JUMPI PUSH2 0x325C PUSH2 0x42EE JUMP JUMPDEST JUMPDEST SWAP1 PUSH0 MSTORE PUSH1 0x20 PUSH0 KECCAK256 SWAP1 PUSH1 0x4 MUL ADD PUSH1 0x3 ADD PUSH0 SWAP1 SLOAD SWAP1 PUSH2 0x100 EXP SWAP1 DIV PUSH1 0xFF AND DUP1 ISZERO PUSH2 0x32B3 JUMPI POP PUSH1 0x1 DUP2 DUP2 SLOAD DUP2 LT PUSH2 0x3294 JUMPI PUSH2 0x3293 PUSH2 0x42EE JUMP JUMPDEST JUMPDEST SWAP1 PUSH0 MSTORE PUSH1 0x20 PUSH0 KECCAK256 SWAP1 PUSH1 0x4 MUL ADD PUSH1 0x3 ADD PUSH1 0x1 SWAP1 SLOAD SWAP1 PUSH2 0x100 EXP SWAP1 DIV PUSH1 0xFF AND ISZERO JUMPDEST SWAP2 POP POP PUSH2 0x32CD JUMP JUMPDEST DUP1 DUP1 PUSH1 0x1 ADD SWAP2 POP POP PUSH2 0x31C8 JUMP JUMPDEST POP PUSH0 SWAP1 POP JUMPDEST SWAP2 SWAP1 POP JUMP JUMPDEST PUSH1 0x3 DUP1 PUSH1 0x5 DUP2 GT ISZERO PUSH2 0x32E7 JUMPI PUSH2 0x32E6 PUSH2 0x3DBE JUMP JUMPDEST JUMPDEST PUSH0 DUP1 SLOAD SWAP1 PUSH2 0x100 EXP SWAP1 DIV PUSH1 0xFF AND PUSH1 0x5 DUP2 GT ISZERO PUSH2 0x3306 JUMPI PUSH2 0x3305 PUSH2 0x3DBE JUMP JUMPDEST JUMPDEST EQ PUSH2 0x3346 JUMPI PUSH1 0x40 MLOAD PUSH32 0x8C379A000000000000000000000000000000000000000000000000000000000 DUP2 MSTORE PUSH1 0x4 ADD PUSH2 0x333D SWAP1 PUSH2 0x42D0 JUMP JUMPDEST PUSH1 0x40 MLOAD DUP1 SWAP2 SUB SWAP1 REVERT JUMPDEST PUSH1 0xF PUSH0 CALLER PUSH20 0xFFFFFFFFFFFFFFFFFFFFFFFFFFFFFFFFFFFFFFFF AND PUSH20 0xFFFFFFFFFFFFFFFFFFFFFFFFFFFFFFFFFFFFFFFF AND DUP2 MSTORE PUSH1 0x20 ADD SWAP1 DUP2 MSTORE PUSH1 0x20 ADD PUSH0 KECCAK256 PUSH0 SWAP1 SLOAD SWAP1 PUSH2 0x100 EXP SWAP1 DIV PUSH1 0xFF AND ISZERO PUSH2 0x33D0 JUMPI PUSH1 0x40 MLOAD PUSH32 0x8C379A000000000000000000000000000000000000000000000000000000000 DUP2 MSTORE PUSH1 0x4 ADD PUSH2 0x33C7 SWAP1 PUSH2 0x5AA0 JUMP JUMPDEST PUSH1 0x40 MLOAD DUP1 SWAP2 SUB SWAP1 REVERT JUMPDEST DUP2 PUSH1 0xE PUSH0 CALLER PUSH20 0xFFFFFFFFFFFFFFFFFFFFFFFFFFFFFFFFFFFFFFFF AND PUSH20 0xFFFFFFFFFFFFFFFFFFFFFFFFFFFFFFFFFFFFFFFF AND DUP2 MSTORE PUSH1 0x20 ADD SWAP1 DUP2 MSTORE PUSH1 0x20 ADD PUSH0 KECCAK256 PUSH0 PUSH2 0x100 EXP DUP2 SLOAD DUP2 PUSH1 0xFF MUL NOT AND SWAP1 DUP4 ISZERO ISZERO MUL OR SWAP1 SSTORE POP PUSH1 0x1 PUSH1 0xF PUSH0 CALLER PUSH20 0xFFFFFFFFFFFFFFFFFFFFFFFFFFFFFFFFFFFFFFFF AND PUSH20 0xFFFFFFFFFFFFFFFFFFFFFFFFFFFFFFFFFFFFFFFF AND DUP2 MSTORE PUSH1 0x20 ADD SWAP1 DUP2 MSTORE PUSH1 0x20 ADD PUSH0 KECCAK256 PUSH0 PUSH2 0x100 EXP DUP2 SLOAD DUP2 PUSH1 0xFF MUL NOT AND SWAP1 DUP4 ISZERO ISZERO MUL OR SWAP1 SSTORE POP DUP2 PUSH2 0x354F JUMPI PUSH0 JUMPDEST PUSH1 0x1 DUP1 SLOAD SWAP1 POP DUP2 LT ISZERO PUSH2 0x354D JUMPI CALLER PUSH20 0xFFFFFFFFFFFFFFFFFFFFFFFFFFFFFFFFFFFFFFFF AND PUSH1 0x1 DUP3 DUP2 SLOAD DUP2 LT PUSH2 0x34B8 JUMPI PUSH2 0x34B7 PUSH2 0x42EE JUMP JUMPDEST JUMPDEST SWAP1 PUSH0 MSTORE PUSH1 0x20 PUSH0 KECCAK256 SWAP1 PUSH1 0x4 MUL ADD PUSH0 ADD PUSH0 SWAP1 SLOAD SWAP1 PUSH2 0x100 EXP SWAP1 DIV PUSH20 0xFFFFFFFFFFFFFFFFFFFFFFFFFFFFFFFFFFFFFFFF AND PUSH20 0xFFFFFFFFFFFFFFFFFFFFFFFFFFFFFFFFFFFFFFFF AND SUB PUSH2 0x3540 JUMPI PUSH0 PUSH1 0x1 DUP3 DUP2 SLOAD DUP2 LT PUSH2 0x3516 JUMPI PUSH2 0x3515 PUSH2 0x42EE JUMP JUMPDEST JUMPDEST SWAP1 PUSH0 MSTORE PUSH1 0x20 PUSH0 KECCAK256 SWAP1 PUSH1 0x4 MUL ADD PUSH1 0x3 ADD PUSH0 PUSH2 0x100 EXP DUP2 SLOAD DUP2 PUSH1 0xFF MUL NOT AND SWAP1 DUP4 ISZERO ISZERO MUL OR SWAP1 SSTORE POP PUSH2 0x354D JUMP JUMPDEST DUP1 DUP1 PUSH1 0x1 ADD SWAP2 POP POP PUSH2 0x3480 JUMP JUMPDEST POP JUMPDEST POP POP JUMP JUMPDEST PUSH1 0x60 PUSH1 0x1 DUP3 PUSH1 0xFF AND SUB PUSH2 0x359D JUMPI PUSH1 0x40 MLOAD DUP1 PUSH1 0x40 ADD PUSH1 0x40 MSTORE DUP1 PUSH1 0x1 DUP2 MSTORE PUSH1 0x20 ADD PUSH32 0x4100000000000000000000000000000000000000000000000000000000000000 DUP2 MSTORE POP SWAP1 POP PUSH2 0x36E0 JUMP JUMPDEST PUSH1 0x2 DUP3 PUSH1 0xFF AND LT ISZERO DUP1 ISZERO PUSH2 0x35B5 JUMPI POP PUSH1 0xA DUP3 PUSH1 0xFF AND GT ISZERO JUMPDEST ISZERO PUSH2 0x35CD JUMPI PUSH2 0x35C6 DUP3 PUSH1 0xFF AND PUSH2 0x39C0 JUMP JUMPDEST SWAP1 POP PUSH2 0x36E0 JUMP JUMPDEST PUSH1 0xB DUP3 PUSH1 0xFF AND SUB PUSH2 0x3615 JUMPI PUSH1 0x40 MLOAD DUP1 PUSH1 0x40 ADD PUSH1 0x40 MSTORE DUP1 PUSH1 0x1 DUP2 MSTORE PUSH1 0x20 ADD PUSH32 0x4A00000000000000000000000000000000000000000000000000000000000000 DUP2 MSTORE POP SWAP1 POP PUSH2 0x36E0 JUMP JUMPDEST PUSH1 0xC DUP3 PUSH1 0xFF AND SUB PUSH2 0x365D JUMPI PUSH1 0x40 MLOAD DUP1 PUSH1 0x40 ADD PUSH1 0x40 MSTORE DUP1 PUSH1 0x1 DUP2 MSTORE PUSH1 0x20 ADD PUSH32 0x5100000000000000000000000000000000000000000000000000000000000000 DUP2 MSTORE POP SWAP1 POP PUSH2 0x36E0 JUMP JUMPDEST PUSH1 0xD DUP3 PUSH1 0xFF AND SUB PUSH2 0x36A5 JUMPI PUSH1 0x40 MLOAD DUP1 PUSH1 0x40 ADD PUSH1 0x40 MSTORE DUP1 PUSH1 0x1 DUP2 MSTORE PUSH1 0x20 ADD PUSH32 0x4B00000000000000000000000000000000000000000000000000000000000000 DUP2 MSTORE POP SWAP1 POP PUSH2 0x36E0 JUMP JUMPDEST PUSH1 0x40 MLOAD PUSH32 0x8C379A000000000000000000000000000000000000000000000000000000000 DUP2 MSTORE PUSH1 0x4 ADD PUSH2 0x36D7 SWAP1 PUSH2 0x5B08 JUMP JUMPDEST PUSH1 0x40 MLOAD DUP1 SWAP2 SUB SWAP1 REVERT JUMPDEST SWAP2 SWAP1 POP JUMP JUMPDEST PUSH0 DUP2 TIMESTAMP GT SWAP1 POP SWAP2 SWAP1 POP JUMP JUMPDEST PUSH0 JUMPDEST PUSH1 0x1 DUP1 SLOAD SWAP1 POP DUP2 LT ISZERO PUSH2 0x37FA JUMPI DUP2 PUSH20 0xFFFFFFFFFFFFFFFFFFFFFFFFFFFFFFFFFFFFFFFF AND PUSH1 0x1 DUP3 DUP2 SLOAD DUP2 LT PUSH2 0x372A JUMPI PUSH2 0x3729 PUSH2 0x42EE JUMP JUMPDEST JUMPDEST SWAP1 PUSH0 MSTORE PUSH1 0x20 PUSH0 KECCAK256 SWAP1 PUSH1 0x4 MUL ADD PUSH0 ADD PUSH0 SWAP1 SLOAD SWAP1 PUSH2 0x100 EXP SWAP1 DIV PUSH20 0xFFFFFFFFFFFFFFFFFFFFFFFFFFFFFFFFFFFFFFFF AND PUSH20 0xFFFFFFFFFFFFFFFFFFFFFFFFFFFFFFFFFFFFFFFF AND SUB PUSH2 0x37ED JUMPI PUSH0 PUSH1 0x1 DUP3 DUP2 SLOAD DUP2 LT PUSH2 0x3788 JUMPI PUSH2 0x3787 PUSH2 0x42EE JUMP JUMPDEST JUMPDEST SWAP1 PUSH0 MSTORE PUSH1 0x20 PUSH0 KECCAK256 SWAP1 PUSH1 0x4 MUL ADD PUSH1 0x3 ADD PUSH0 PUSH2 0x100 EXP DUP2 SLOAD DUP2 PUSH1 0xFF MUL NOT AND SWAP1 DUP4 ISZERO ISZERO MUL OR SWAP1 SSTORE POP PUSH1 0x1 DUP1 DUP3 DUP2 SLOAD DUP2 LT PUSH2 0x37C2 JUMPI PUSH2 0x37C1 PUSH2 0x42EE JUMP JUMPDEST JUMPDEST SWAP1 PUSH0 MSTORE PUSH1 0x20 PUSH0 KECCAK256 SWAP1 PUSH1 0x4 MUL ADD PUSH1 0x3 ADD PUSH1 0x1 PUSH2 0x100 EXP DUP2 SLOAD DUP2 PUSH1 0xFF MUL NOT AND SWAP1 DUP4 ISZERO ISZERO MUL OR SWAP1 SSTORE POP PUSH2 0x37FA JUMP JUMPDEST DUP1 DUP1 PUSH1 0x1 ADD SWAP2 POP POP PUSH2 0x36F2 JUMP JUMPDEST POP POP JUMP JUMPDEST PUSH0 DUP1 PUSH0 SWAP1 POP JUMPDEST PUSH1 0x1 DUP1 SLOAD SWAP1 POP DUP2 LT ISZERO PUSH2 0x3896 JUMPI PUSH1 0x1 DUP2 DUP2 SLOAD DUP2 LT PUSH2 0x3825 JUMPI PUSH2 0x3824 PUSH2 0x42EE JUMP JUMPDEST JUMPDEST SWAP1 PUSH0 MSTORE PUSH1 0x20 PUSH0 KECCAK256 SWAP1 PUSH1 0x4 MUL ADD PUSH1 0x3 ADD PUSH0 SWAP1 SLOAD SWAP1 PUSH2 0x100 EXP SWAP1 DIV PUSH1 0xFF AND DUP1 ISZERO PUSH2 0x387B JUMPI POP PUSH1 0x1 DUP2 DUP2 SLOAD DUP2 LT PUSH2 0x385C JUMPI PUSH2 0x385B PUSH2 0x42EE JUMP JUMPDEST JUMPDEST SWAP1 PUSH0 MSTORE PUSH1 0x20 PUSH0 KECCAK256 SWAP1 PUSH1 0x4 MUL ADD PUSH1 0x3 ADD PUSH1 0x1 SWAP1 SLOAD SWAP1 PUSH2 0x100 EXP SWAP1 DIV PUSH1 0xFF AND ISZERO JUMPDEST ISZERO PUSH2 0x3889 JUMPI PUSH0 SWAP2 POP POP PUSH2 0x389C JUMP JUMPDEST DUP1 DUP1 PUSH1 0x1 ADD SWAP2 POP POP PUSH2 0x3804 JUMP JUMPDEST POP PUSH1 0x1 SWAP1 POP JUMPDEST SWAP1 JUMP JUMPDEST PUSH0 JUMPDEST PUSH1 0x1 DUP1 SLOAD SWAP1 POP DUP2 LT ISZERO PUSH2 0x39AA JUMPI PUSH1 0x1 DUP2 DUP2 SLOAD DUP2 LT PUSH2 0x38C2 JUMPI PUSH2 0x38C1 PUSH2 0x42EE JUMP JUMPDEST JUMPDEST SWAP1 PUSH0 MSTORE PUSH1 0x20 PUSH0 KECCAK256 SWAP1 PUSH1 0x4 MUL ADD PUSH1 0x3 ADD PUSH0 SWAP1 SLOAD SWAP1 PUSH2 0x100 EXP SWAP1 DIV PUSH1 0xFF AND ISZERO PUSH2 0x399D JUMPI PUSH0 PUSH1 0x2 PUSH1 0x1 DUP4 DUP2 SLOAD DUP2 LT PUSH2 0x38FA JUMPI PUSH2 0x38F9 PUSH2 0x42EE JUMP JUMPDEST JUMPDEST SWAP1 PUSH0 MSTORE PUSH1 0x20 PUSH0 KECCAK256 SWAP1 PUSH1 0x4 MUL ADD PUSH1 0x1 ADD SLOAD PUSH2 0x3914 SWAP2 SWAP1 PUSH2 0x550E JUMP JUMPDEST SWAP1 POP PUSH1 0x1 DUP3 DUP2 SLOAD DUP2 LT PUSH2 0x392A JUMPI PUSH2 0x3929 PUSH2 0x42EE JUMP JUMPDEST JUMPDEST SWAP1 PUSH0 MSTORE PUSH1 0x20 PUSH0 KECCAK256 SWAP1 PUSH1 0x4 MUL ADD PUSH0 ADD PUSH0 SWAP1 SLOAD SWAP1 PUSH2 0x100 EXP SWAP1 DIV PUSH20 0xFFFFFFFFFFFFFFFFFFFFFFFFFFFFFFFFFFFFFFFF AND PUSH20 0xFFFFFFFFFFFFFFFFFFFFFFFFFFFFFFFFFFFFFFFF AND PUSH2 0x8FC DUP3 SWAP1 DUP2 ISZERO MUL SWAP1 PUSH1 0x40 MLOAD PUSH0 PUSH1 0x40 MLOAD DUP1 DUP4 SUB DUP2 DUP6 DUP9 DUP9 CALL SWAP4 POP POP POP POP ISZERO DUP1 ISZERO PUSH2 0x399A JUMPI RETURNDATASIZE PUSH0 DUP1 RETURNDATACOPY RETURNDATASIZE PUSH0 REVERT JUMPDEST POP POP JUMPDEST DUP1 DUP1 PUSH1 0x1 ADD SWAP2 POP POP PUSH2 0x38A1 JUMP JUMPDEST POP JUMP JUMPDEST PUSH0 PUSH1 0x3C TIMESTAMP PUSH2 0x39BB SWAP2 SWAP1 PUSH2 0x56DA JUMP JUMPDEST SWAP1 POP SWAP1 JUMP JUMPDEST PUSH1 0x60 PUSH0 DUP3 SUB PUSH2 0x3A06 JUMPI PUSH1 0x40 MLOAD DUP1 PUSH1 0x40 ADD PUSH1 0x40 MSTORE DUP1 PUSH1 0x1 DUP2 MSTORE PUSH1 0x20 ADD PUSH32 0x3000000000000000000000000000000000000000000000000000000000000000 DUP2 MSTORE POP SWAP1 POP PUSH2 0x3B34 JUMP JUMPDEST PUSH0 DUP3 SWAP1 POP PUSH0 JUMPDEST PUSH0 DUP3 EQ PUSH2 0x3A35 JUMPI DUP1 DUP1 PUSH2 0x3A1E SWAP1 PUSH2 0x4506 JUMP JUMPDEST SWAP2 POP POP PUSH1 0xA DUP3 PUSH2 0x3A2E SWAP2 SWAP1 PUSH2 0x5B53 JUMP JUMPDEST SWAP2 POP PUSH2 0x3A0C JUMP JUMPDEST PUSH0 DUP2 PUSH8 0xFFFFFFFFFFFFFFFF DUP2 GT ISZERO PUSH2 0x3A50 JUMPI PUSH2 0x3A4F PUSH2 0x55B7 JUMP JUMPDEST JUMPDEST PUSH1 0x40 MLOAD SWAP1 DUP1 DUP3 MSTORE DUP1 PUSH1 0x1F ADD PUSH1 0x1F NOT AND PUSH1 0x20 ADD DUP3 ADD PUSH1 0x40 MSTORE DUP1 ISZERO PUSH2 0x3A82 JUMPI DUP2 PUSH1 0x20 ADD PUSH1 0x1 DUP3 MUL DUP1 CALLDATASIZE DUP4 CALLDATACOPY DUP1 DUP3 ADD SWAP2 POP POP SWAP1 POP JUMPDEST POP SWAP1 POP PUSH0 DUP3 SWAP1 POP JUMPDEST PUSH0 DUP7 EQ PUSH2 0x3B2C JUMPI PUSH1 0x1 DUP2 PUSH2 0x3A9E SWAP2 SWAP1 PUSH2 0x5B83 JUMP JUMPDEST SWAP1 POP PUSH0 PUSH1 0xA DUP1 DUP9 PUSH2 0x3AAF SWAP2 SWAP1 PUSH2 0x5B53 JUMP JUMPDEST PUSH2 0x3AB9 SWAP2 SWAP1 PUSH2 0x550E JUMP JUMPDEST DUP8 PUSH2 0x3AC4 SWAP2 SWAP1 PUSH2 0x5B83 JUMP JUMPDEST PUSH1 0x30 PUSH2 0x3AD0 SWAP2 SWAP1 PUSH2 0x5BB6 JUMP JUMPDEST SWAP1 POP DUP1 PUSH1 0xF8 SHL DUP4 DUP4 DUP2 MLOAD DUP2 LT PUSH2 0x3AE9 JUMPI PUSH2 0x3AE8 PUSH2 0x42EE JUMP JUMPDEST JUMPDEST PUSH1 0x20 ADD ADD SWAP1 PUSH31 0xFFFFFFFFFFFFFFFFFFFFFFFFFFFFFFFFFFFFFFFFFFFFFFFFFFFFFFFFFFFFFF NOT AND SWAP1 DUP2 PUSH0 BYTE SWAP1 MSTORE8 POP PUSH1 0xA DUP8 PUSH2 0x3B24 SWAP2 SWAP1 PUSH2 0x5B53 JUMP JUMPDEST SWAP7 POP POP PUSH2 0x3A8A JUMP JUMPDEST DUP2 SWAP5 POP POP POP POP POP JUMPDEST SWAP2 SWAP1 POP JUMP JUMPDEST DUP3 DUP1 SLOAD DUP3 DUP3 SSTORE SWAP1 PUSH0 MSTORE PUSH1 0x20 PUSH0 KECCAK256 SWAP1 PUSH1 0x1F ADD PUSH1 0x20 SWAP1 DIV DUP2 ADD SWAP3 DUP3 ISZERO PUSH2 0x3BCA JUMPI SWAP2 PUSH1 0x20 MUL DUP3 ADD PUSH0 JUMPDEST DUP4 DUP3 GT ISZERO PUSH2 0x3B9C JUMPI DUP4 MLOAD DUP4 DUP3 PUSH2 0x100 EXP DUP2 SLOAD DUP2 PUSH1 0xFF MUL NOT AND SWAP1 DUP4 PUSH1 0xFF AND MUL OR SWAP1 SSTORE POP SWAP3 PUSH1 0x20 ADD SWAP3 PUSH1 0x1 ADD PUSH1 0x20 DUP2 PUSH0 ADD DIV SWAP3 DUP4 ADD SWAP3 PUSH1 0x1 SUB MUL PUSH2 0x3B5F JUMP JUMPDEST DUP1 ISZERO PUSH2 0x3BC8 JUMPI DUP3 DUP2 PUSH2 0x100 EXP DUP2 SLOAD SWAP1 PUSH1 0xFF MUL NOT AND SWAP1 SSTORE PUSH1 0x1 ADD PUSH1 0x20 DUP2 PUSH0 ADD DIV SWAP3 DUP4 ADD SWAP3 PUSH1 0x1 SUB MUL PUSH2 0x3B9C JUMP JUMPDEST POP JUMPDEST POP SWAP1 POP PUSH2 0x3BD7 SWAP2 SWAP1 PUSH2 0x3BDB JUMP JUMPDEST POP SWAP1 JUMP JUMPDEST JUMPDEST DUP1 DUP3 GT ISZERO PUSH2 0x3BF2 JUMPI PUSH0 DUP2 PUSH0 SWAP1 SSTORE POP PUSH1 0x1 ADD PUSH2 0x3BDC JUMP JUMPDEST POP SWAP1 JUMP JUMPDEST PUSH0 DUP1 REVERT JUMPDEST PUSH0 DUP2 SWAP1 POP SWAP2 SWAP1 POP JUMP JUMPDEST PUSH2 0x3C0C DUP2 PUSH2 0x3BFA JUMP JUMPDEST DUP2 EQ PUSH2 0x3C16 JUMPI PUSH0 DUP1 REVERT JUMPDEST POP JUMP JUMPDEST PUSH0 DUP2 CALLDATALOAD SWAP1 POP PUSH2 0x3C27 DUP2 PUSH2 0x3C03 JUMP JUMPDEST SWAP3 SWAP2 POP POP JUMP JUMPDEST PUSH0 PUSH1 0x20 DUP3 DUP5 SUB SLT ISZERO PUSH2 0x3C42 JUMPI PUSH2 0x3C41 PUSH2 0x3BF6 JUMP JUMPDEST JUMPDEST PUSH0 PUSH2 0x3C4F DUP5 DUP3 DUP6 ADD PUSH2 0x3C19 JUMP JUMPDEST SWAP2 POP POP SWAP3 SWAP2 POP POP JUMP JUMPDEST PUSH2 0x3C61 DUP2 PUSH2 0x3BFA JUMP JUMPDEST DUP3 MSTORE POP POP JUMP JUMPDEST PUSH0 PUSH1 0x20 DUP3 ADD SWAP1 POP PUSH2 0x3C7A PUSH0 DUP4 ADD DUP5 PUSH2 0x3C58 JUMP JUMPDEST SWAP3 SWAP2 POP POP JUMP JUMPDEST PUSH0 DUP2 SWAP1 POP SWAP2 SWAP1 POP JUMP JUMPDEST PUSH2 0x3C92 DUP2 PUSH2 0x3C80 JUMP JUMPDEST DUP2 EQ PUSH2 0x3C9C JUMPI PUSH0 DUP1 REVERT JUMPDEST POP JUMP JUMPDEST PUSH0 DUP2 CALLDATALOAD SWAP1 POP PUSH2 0x3CAD DUP2 PUSH2 0x3C89 JUMP JUMPDEST SWAP3 SWAP2 POP POP JUMP JUMPDEST PUSH0 PUSH1 0x20 DUP3 DUP5 SUB SLT ISZERO PUSH2 0x3CC8 JUMPI PUSH2 0x3CC7 PUSH2 0x3BF6 JUMP JUMPDEST JUMPDEST PUSH0 PUSH2 0x3CD5 DUP5 DUP3 DUP6 ADD PUSH2 0x3C9F JUMP JUMPDEST SWAP2 POP POP SWAP3 SWAP2 POP POP JUMP JUMPDEST PUSH0 DUP2 ISZERO ISZERO SWAP1 POP SWAP2 SWAP1 POP JUMP JUMPDEST PUSH2 0x3CF2 DUP2 PUSH2 0x3CDE JUMP JUMPDEST DUP3 MSTORE POP POP JUMP JUMPDEST PUSH0 PUSH1 0x20 DUP3 ADD SWAP1 POP PUSH2 0x3D0B PUSH0 DUP4 ADD DUP5 PUSH2 0x3CE9 JUMP JUMPDEST SWAP3 SWAP2 POP POP JUMP JUMPDEST PUSH0 PUSH20 0xFFFFFFFFFFFFFFFFFFFFFFFFFFFFFFFFFFFFFFFF DUP3 AND SWAP1 POP SWAP2 SWAP1 POP JUMP JUMPDEST PUSH0 PUSH2 0x3D3A DUP3 PUSH2 0x3D11 JUMP JUMPDEST SWAP1 POP SWAP2 SWAP1 POP JUMP JUMPDEST PUSH2 0x3D4A DUP2 PUSH2 0x3D30 JUMP JUMPDEST DUP2 EQ PUSH2 0x3D54 JUMPI PUSH0 DUP1 REVERT JUMPDEST POP JUMP JUMPDEST PUSH0 DUP2 CALLDATALOAD SWAP1 POP PUSH2 0x3D65 DUP2 PUSH2 0x3D41 JUMP JUMPDEST SWAP3 SWAP2 POP POP JUMP JUMPDEST PUSH0 PUSH1 0x20 DUP3 DUP5 SUB SLT ISZERO PUSH2 0x3D80 JUMPI PUSH2 0x3D7F PUSH2 0x3BF6 JUMP JUMPDEST JUMPDEST PUSH0 PUSH2 0x3D8D DUP5 DUP3 DUP6 ADD PUSH2 0x3D57 JUMP JUMPDEST SWAP2 POP POP SWAP3 SWAP2 POP POP JUMP JUMPDEST PUSH2 0x3D9F DUP2 PUSH2 0x3C80 JUMP JUMPDEST DUP3 MSTORE POP POP JUMP JUMPDEST PUSH0 PUSH1 0x20 DUP3 ADD SWAP1 POP PUSH2 0x3DB8 PUSH0 DUP4 ADD DUP5 PUSH2 0x3D96 JUMP JUMPDEST SWAP3 SWAP2 POP POP JUMP JUMPDEST PUSH32 0x4E487B7100000000000000000000000000000000000000000000000000000000 PUSH0 MSTORE PUSH1 0x21 PUSH1 0x4 MSTORE PUSH1 0x24 PUSH0 REVERT JUMPDEST PUSH1 0x6 DUP2 LT PUSH2 0x3DFC JUMPI PUSH2 0x3DFB PUSH2 0x3DBE JUMP JUMPDEST JUMPDEST POP JUMP JUMPDEST PUSH0 DUP2 SWAP1 POP PUSH2 0x3E0C DUP3 PUSH2 0x3DEB JUMP JUMPDEST SWAP2 SWAP1 POP JUMP JUMPDEST PUSH0 PUSH2 0x3E1B DUP3 PUSH2 0x3DFF JUMP JUMPDEST SWAP1 POP SWAP2 SWAP1 POP JUMP JUMPDEST PUSH2 0x3E2B DUP2 PUSH2 0x3E11 JUMP JUMPDEST DUP3 MSTORE POP POP JUMP JUMPDEST PUSH0 PUSH1 0x20 DUP3 ADD SWAP1 POP PUSH2 0x3E44 PUSH0 DUP4 ADD DUP5 PUSH2 0x3E22 JUMP JUMPDEST SWAP3 SWAP2 POP POP JUMP JUMPDEST PUSH0 DUP2 MLOAD SWAP1 POP SWAP2 SWAP1 POP JUMP JUMPDEST PUSH0 DUP3 DUP3 MSTORE PUSH1 0x20 DUP3 ADD SWAP1 POP SWAP3 SWAP2 POP POP JUMP JUMPDEST PUSH0 DUP2 SWAP1 POP PUSH1 0x20 DUP3 ADD SWAP1 POP SWAP2 SWAP1 POP JUMP JUMPDEST PUSH0 DUP2 MLOAD SWAP1 POP SWAP2 SWAP1 POP JUMP JUMPDEST PUSH0 DUP3 DUP3 MSTORE PUSH1 0x20 DUP3 ADD SWAP1 POP SWAP3 SWAP2 POP POP JUMP JUMPDEST DUP3 DUP2 DUP4 MCOPY PUSH0 DUP4 DUP4 ADD MSTORE POP POP POP JUMP JUMPDEST PUSH0 PUSH1 0x1F NOT PUSH1 0x1F DUP4 ADD AND SWAP1 POP SWAP2 SWAP1 POP JUMP JUMPDEST PUSH0 PUSH2 0x3EB5 DUP3 PUSH2 0x3E73 JUMP JUMPDEST PUSH2 0x3EBF DUP2 DUP6 PUSH2 0x3E7D JUMP JUMPDEST SWAP4 POP PUSH2 0x3ECF DUP2 DUP6 PUSH1 0x20 DUP7 ADD PUSH2 0x3E8D JUMP JUMPDEST PUSH2 0x3ED8 DUP2 PUSH2 0x3E9B JUMP JUMPDEST DUP5 ADD SWAP2 POP POP SWAP3 SWAP2 POP POP JUMP JUMPDEST PUSH0 PUSH2 0x3EEE DUP4 DUP4 PUSH2 0x3EAB JUMP JUMPDEST SWAP1 POP SWAP3 SWAP2 POP POP JUMP JUMPDEST PUSH0 PUSH1 0x20 DUP3 ADD SWAP1 POP SWAP2 SWAP1 POP JUMP JUMPDEST PUSH0 PUSH2 0x3F0C DUP3 PUSH2 0x3E4A JUMP JUMPDEST PUSH2 0x3F16 DUP2 DUP6 PUSH2 0x3E54 JUMP JUMPDEST SWAP4 POP DUP4 PUSH1 0x20 DUP3 MUL DUP6 ADD PUSH2 0x3F28 DUP6 PUSH2 0x3E64 JUMP JUMPDEST DUP1 PUSH0 JUMPDEST DUP6 DUP2 LT ISZERO PUSH2 0x3F63 JUMPI DUP5 DUP5 SUB DUP10 MSTORE DUP2 MLOAD PUSH2 0x3F44 DUP6 DUP3 PUSH2 0x3EE3 JUMP JUMPDEST SWAP5 POP PUSH2 0x3F4F DUP4 PUSH2 0x3EF6 JUMP JUMPDEST SWAP3 POP PUSH1 0x20 DUP11 ADD SWAP10 POP POP PUSH1 0x1 DUP2 ADD SWAP1 POP PUSH2 0x3F2B JUMP JUMPDEST POP DUP3 SWAP8 POP DUP8 SWAP6 POP POP POP POP POP POP SWAP3 SWAP2 POP POP JUMP JUMPDEST PUSH0 DUP2 MLOAD SWAP1 POP SWAP2 SWAP1 POP JUMP JUMPDEST PUSH0 DUP3 DUP3 MSTORE PUSH1 0x20 DUP3 ADD SWAP1 POP SWAP3 SWAP2 POP POP JUMP JUMPDEST PUSH0 DUP2 SWAP1 POP PUSH1 0x20 DUP3 ADD SWAP1 POP SWAP2 SWAP1 POP JUMP JUMPDEST PUSH0 DUP3 DUP3 MSTORE PUSH1 0x20 DUP3 ADD SWAP1 POP SWAP3 SWAP2 POP POP JUMP JUMPDEST PUSH0 PUSH2 0x3FB8 DUP3 PUSH2 0x3E4A JUMP JUMPDEST PUSH2 0x3FC2 DUP2 DUP6 PUSH2 0x3F9E JUMP JUMPDEST SWAP4 POP DUP4 PUSH1 0x20 DUP3 MUL DUP6 ADD PUSH2 0x3FD4 DUP6 PUSH2 0x3E64 JUMP JUMPDEST DUP1 PUSH0 JUMPDEST DUP6 DUP2 LT ISZERO PUSH2 0x400F JUMPI DUP5 DUP5 SUB DUP10 MSTORE DUP2 MLOAD PUSH2 0x3FF0 DUP6 DUP3 PUSH2 0x3EE3 JUMP JUMPDEST SWAP5 POP PUSH2 0x3FFB DUP4 PUSH2 0x3EF6 JUMP JUMPDEST SWAP3 POP PUSH1 0x20 DUP11 ADD SWAP10 POP POP PUSH1 0x1 DUP2 ADD SWAP1 POP PUSH2 0x3FD7 JUMP JUMPDEST POP DUP3 SWAP8 POP DUP8 SWAP6 POP POP POP POP POP POP SWAP3 SWAP2 POP POP JUMP JUMPDEST PUSH0 PUSH2 0x402C DUP4 DUP4 PUSH2 0x3FAE JUMP JUMPDEST SWAP1 POP SWAP3 SWAP2 POP POP JUMP JUMPDEST PUSH0 PUSH1 0x20 DUP3 ADD SWAP1 POP SWAP2 SWAP1 POP JUMP JUMPDEST PUSH0 PUSH2 0x404A DUP3 PUSH2 0x3F75 JUMP JUMPDEST PUSH2 0x4054 DUP2 DUP6 PUSH2 0x3F7F JUMP JUMPDEST SWAP4 POP DUP4 PUSH1 0x20 DUP3 MUL DUP6 ADD PUSH2 0x4066 DUP6 PUSH2 0x3F8F JUMP JUMPDEST DUP1 PUSH0 JUMPDEST DUP6 DUP2 LT ISZERO PUSH2 0x40A1 JUMPI DUP5 DUP5 SUB DUP10 MSTORE DUP2 MLOAD PUSH2 0x4082 DUP6 DUP3 PUSH2 0x4021 JUMP JUMPDEST SWAP5 POP PUSH2 0x408D DUP4 PUSH2 0x4034 JUMP JUMPDEST SWAP3 POP PUSH1 0x20 DUP11 ADD SWAP10 POP POP PUSH1 0x1 DUP2 ADD SWAP1 POP PUSH2 0x4069 JUMP JUMPDEST POP DUP3 SWAP8 POP DUP8 SWAP6 POP POP POP POP POP POP SWAP3 SWAP2 POP POP JUMP JUMPDEST PUSH0 PUSH1 0x40 DUP3 ADD SWAP1 POP DUP2 DUP2 SUB PUSH0 DUP4 ADD MSTORE PUSH2 0x40CB DUP2 DUP6 PUSH2 0x3F02 JUMP JUMPDEST SWAP1 POP DUP2 DUP2 SUB PUSH1 0x20 DUP4 ADD MSTORE PUSH2 0x40DF DUP2 DUP5 PUSH2 0x4040 JUMP JUMPDEST SWAP1 POP SWAP4 SWAP3 POP POP POP JUMP JUMPDEST PUSH0 DUP2 MLOAD SWAP1 POP SWAP2 SWAP1 POP JUMP JUMPDEST PUSH0 DUP3 DUP3 MSTORE PUSH1 0x20 DUP3 ADD SWAP1 POP SWAP3 SWAP2 POP POP JUMP JUMPDEST PUSH0 DUP2 SWAP1 POP PUSH1 0x20 DUP3 ADD SWAP1 POP SWAP2 SWAP1 POP JUMP JUMPDEST PUSH0 PUSH1 0xFF DUP3 AND SWAP1 POP SWAP2 SWAP1 POP JUMP JUMPDEST PUSH2 0x4126 DUP2 PUSH2 0x4111 JUMP JUMPDEST DUP3 MSTORE POP POP JUMP JUMPDEST PUSH0 PUSH2 0x4137 DUP4 DUP4 PUSH2 0x411D JUMP JUMPDEST PUSH1 0x20 DUP4 ADD SWAP1 POP SWAP3 SWAP2 POP POP JUMP JUMPDEST PUSH0 PUSH1 0x20 DUP3 ADD SWAP1 POP SWAP2 SWAP1 POP JUMP JUMPDEST PUSH0 PUSH2 0x4159 DUP3 PUSH2 0x40E8 JUMP JUMPDEST PUSH2 0x4163 DUP2 DUP6 PUSH2 0x40F2 JUMP JUMPDEST SWAP4 POP PUSH2 0x416E DUP4 PUSH2 0x4102 JUMP JUMPDEST DUP1 PUSH0 JUMPDEST DUP4 DUP2 LT ISZERO PUSH2 0x419E JUMPI DUP2 MLOAD PUSH2 0x4185 DUP9 DUP3 PUSH2 0x412C JUMP JUMPDEST SWAP8 POP PUSH2 0x4190 DUP4 PUSH2 0x4143 JUMP JUMPDEST SWAP3 POP POP PUSH1 0x1 DUP2 ADD SWAP1 POP PUSH2 0x4171 JUMP JUMPDEST POP DUP6 SWAP4 POP POP POP POP SWAP3 SWAP2 POP POP JUMP JUMPDEST PUSH2 0x41B4 DUP2 PUSH2 0x4111 JUMP JUMPDEST DUP3 MSTORE POP POP JUMP JUMPDEST PUSH0 PUSH1 0x40 DUP3 ADD SWAP1 POP DUP2 DUP2 SUB PUSH0 DUP4 ADD MSTORE PUSH2 0x41D2 DUP2 DUP6 PUSH2 0x414F JUMP JUMPDEST SWAP1 POP PUSH2 0x41E1 PUSH1 0x20 DUP4 ADD DUP5 PUSH2 0x41AB JUMP JUMPDEST SWAP4 SWAP3 POP POP POP JUMP JUMPDEST PUSH0 DUP3 DUP3 MSTORE PUSH1 0x20 DUP3 ADD SWAP1 POP SWAP3 SWAP2 POP POP JUMP JUMPDEST PUSH32 0x4F6E6C79207468652062616E6B2063616E20706572666F726D20746869732061 PUSH0 DUP3 ADD MSTORE PUSH32 0x6374696F6E000000000000000000000000000000000000000000000000000000 PUSH1 0x20 DUP3 ADD MSTORE POP JUMP JUMPDEST PUSH0 PUSH2 0x4252 PUSH1 0x25 DUP4 PUSH2 0x41E8 JUMP JUMPDEST SWAP2 POP PUSH2 0x425D DUP3 PUSH2 0x41F8 JUMP JUMPDEST PUSH1 0x40 DUP3 ADD SWAP1 POP SWAP2 SWAP1 POP JUMP JUMPDEST PUSH0 PUSH1 0x20 DUP3 ADD SWAP1 POP DUP2 DUP2 SUB PUSH0 DUP4 ADD MSTORE PUSH2 0x427F DUP2 PUSH2 0x4246 JUMP JUMPDEST SWAP1 POP SWAP2 SWAP1 POP JUMP JUMPDEST PUSH32 0x496E76616C696420737461746520666F72207468697320616374696F6E000000 PUSH0 DUP3 ADD MSTORE POP JUMP JUMPDEST PUSH0 PUSH2 0x42BA PUSH1 0x1D DUP4 PUSH2 0x41E8 JUMP JUMPDEST SWAP2 POP PUSH2 0x42C5 DUP3 PUSH2 0x4286 JUMP JUMPDEST PUSH1 0x20 DUP3 ADD SWAP1 POP SWAP2 SWAP1 POP JUMP JUMPDEST PUSH0 PUSH1 0x20 DUP3 ADD SWAP1 POP DUP2 DUP2 SUB PUSH0 DUP4 ADD MSTORE PUSH2 0x42E7 DUP2 PUSH2 0x42AE JUMP JUMPDEST SWAP1 POP SWAP2 SWAP1 POP JUMP JUMPDEST PUSH32 0x4E487B7100000000000000000000000000000000000000000000000000000000 PUSH0 MSTORE PUSH1 0x32 PUSH1 0x4 MSTORE PUSH1 0x24 PUSH0 REVERT JUMPDEST PUSH32 0x4E6F7420616C6C20706C61796572732068617665206D61646520746865697220 PUSH0 DUP3 ADD MSTORE PUSH32 0x63686F6963650000000000000000000000000000000000000000000000000000 PUSH1 0x20 DUP3 ADD MSTORE POP JUMP JUMPDEST PUSH0 PUSH2 0x4375 PUSH1 0x26 DUP4 PUSH2 0x41E8 JUMP JUMPDEST SWAP2 POP PUSH2 0x4380 DUP3 PUSH2 0x431B JUMP JUMPDEST PUSH1 0x40 DUP3 ADD SWAP1 POP SWAP2 SWAP1 POP JUMP JUMPDEST PUSH0 PUSH1 0x20 DUP3 ADD SWAP1 POP DUP2 DUP2 SUB PUSH0 DUP4 ADD MSTORE PUSH2 0x43A2 DUP2 PUSH2 0x4369 JUMP JUMPDEST SWAP1 POP SWAP2 SWAP1 POP JUMP JUMPDEST PUSH32 0x4E6F206D6F72652068617368657320617661696C61626C650000000000000000 PUSH0 DUP3 ADD MSTORE POP JUMP JUMPDEST PUSH0 PUSH2 0x43DD PUSH1 0x18 DUP4 PUSH2 0x41E8 JUMP JUMPDEST SWAP2 POP PUSH2 0x43E8 DUP3 PUSH2 0x43A9 JUMP JUMPDEST PUSH1 0x20 DUP3 ADD SWAP1 POP SWAP2 SWAP1 POP JUMP JUMPDEST PUSH0 PUSH1 0x20 DUP3 ADD SWAP1 POP DUP2 DUP2 SUB PUSH0 DUP4 ADD MSTORE PUSH2 0x440A DUP2 PUSH2 0x43D1 JUMP JUMPDEST SWAP1 POP SWAP2 SWAP1 POP JUMP JUMPDEST PUSH0 DUP2 SWAP1 POP SWAP2 SWAP1 POP JUMP JUMPDEST PUSH2 0x442B PUSH2 0x4426 DUP3 PUSH2 0x3BFA JUMP JUMPDEST PUSH2 0x4411 JUMP JUMPDEST DUP3 MSTORE POP POP JUMP JUMPDEST PUSH0 PUSH2 0x443C DUP3 DUP5 PUSH2 0x441A JUMP JUMPDEST PUSH1 0x20 DUP3 ADD SWAP2 POP DUP2 SWAP1 POP SWAP3 SWAP2 POP POP JUMP JUMPDEST PUSH32 0x4861736820646F6573206E6F74206D6174636820746865206E6578742062616E PUSH0 DUP3 ADD MSTORE PUSH32 0x6B20686173680000000000000000000000000000000000000000000000000000 PUSH1 0x20 DUP3 ADD MSTORE POP JUMP JUMPDEST PUSH0 PUSH2 0x44A5 PUSH1 0x26 DUP4 PUSH2 0x41E8 JUMP JUMPDEST SWAP2 POP PUSH2 0x44B0 DUP3 PUSH2 0x444B JUMP JUMPDEST PUSH1 0x40 DUP3 ADD SWAP1 POP SWAP2 SWAP1 POP JUMP JUMPDEST PUSH0 PUSH1 0x20 DUP3 ADD SWAP1 POP DUP2 DUP2 SUB PUSH0 DUP4 ADD MSTORE PUSH2 0x44D2 DUP2 PUSH2 0x4499 JUMP JUMPDEST SWAP1 POP SWAP2 SWAP1 POP JUMP JUMPDEST PUSH32 0x4E487B7100000000000000000000000000000000000000000000000000000000 PUSH0 MSTORE PUSH1 0x11 PUSH1 0x4 MSTORE PUSH1 0x24 PUSH0 REVERT JUMPDEST PUSH0 PUSH2 0x4510 DUP3 PUSH2 0x3BFA JUMP JUMPDEST SWAP2 POP PUSH32 0xFFFFFFFFFFFFFFFFFFFFFFFFFFFFFFFFFFFFFFFFFFFFFFFFFFFFFFFFFFFFFFFF DUP3 SUB PUSH2 0x4542 JUMPI PUSH2 0x4541 PUSH2 0x44D9 JUMP JUMPDEST JUMPDEST PUSH1 0x1 DUP3 ADD SWAP1 POP SWAP2 SWAP1 POP JUMP JUMPDEST PUSH2 0x4556 DUP2 PUSH2 0x3BFA JUMP JUMPDEST DUP3 MSTORE POP POP JUMP JUMPDEST PUSH0 PUSH1 0x40 DUP3 ADD SWAP1 POP PUSH2 0x456F PUSH0 DUP4 ADD DUP6 PUSH2 0x454D JUMP JUMPDEST PUSH2 0x457C PUSH1 0x20 DUP4 ADD DUP5 PUSH2 0x454D JUMP JUMPDEST SWAP4 SWAP3 POP POP POP JUMP JUMPDEST PUSH2 0x458C DUP2 PUSH2 0x4111 JUMP JUMPDEST DUP2 EQ PUSH2 0x4596 JUMPI PUSH0 DUP1 REVERT JUMPDEST POP JUMP JUMPDEST PUSH0 DUP2 MLOAD SWAP1 POP PUSH2 0x45A7 DUP2 PUSH2 0x4583 JUMP JUMPDEST SWAP3 SWAP2 POP POP JUMP JUMPDEST PUSH0 PUSH1 0x20 DUP3 DUP5 SUB SLT ISZERO PUSH2 0x45C2 JUMPI PUSH2 0x45C1 PUSH2 0x3BF6 JUMP JUMPDEST JUMPDEST PUSH0 PUSH2 0x45CF DUP5 DUP3 DUP6 ADD PUSH2 0x4599 JUMP JUMPDEST SWAP2 POP POP SWAP3 SWAP2 POP POP JUMP JUMPDEST PUSH0 DUP2 SLOAD SWAP1 POP SWAP2 SWAP1 POP JUMP JUMPDEST PUSH0 DUP3 DUP3 MSTORE PUSH1 0x20 DUP3 ADD SWAP1 POP SWAP3 SWAP2 POP POP JUMP JUMPDEST PUSH0 DUP2 SWAP1 POP DUP2 PUSH0 MSTORE PUSH1 0x20 PUSH0 KECCAK256 SWAP1 POP SWAP2 SWAP1 POP JUMP JUMPDEST PUSH2 0x460D DUP2 PUSH2 0x4111 JUMP JUMPDEST DUP3 MSTORE POP POP JUMP JUMPDEST PUSH0 DUP2 PUSH0 SHR SWAP1 POP SWAP2 SWAP1 POP JUMP JUMPDEST PUSH0 PUSH1 0xFF DUP3 AND SWAP1 POP SWAP2 SWAP1 POP JUMP JUMPDEST PUSH0 PUSH2 0x463C PUSH2 0x4637 DUP4 PUSH2 0x4613 JUMP JUMPDEST PUSH2 0x461E JUMP JUMPDEST SWAP1 POP SWAP2 SWAP1 POP JUMP JUMPDEST PUSH0 DUP2 PUSH1 0x8 SHR SWAP1 POP SWAP2 SWAP1 POP JUMP JUMPDEST PUSH0 PUSH2 0x4661 PUSH2 0x465C DUP4 PUSH2 0x4643 JUMP JUMPDEST PUSH2 0x461E JUMP JUMPDEST SWAP1 POP SWAP2 SWAP1 POP JUMP JUMPDEST PUSH0 DUP2 PUSH1 0x10 SHR SWAP1 POP SWAP2 SWAP1 POP JUMP JUMPDEST PUSH0 PUSH2 0x4686 PUSH2 0x4681 DUP4 PUSH2 0x4668 JUMP JUMPDEST PUSH2 0x461E JUMP JUMPDEST SWAP1 POP SWAP2 SWAP1 POP JUMP JUMPDEST PUSH0 DUP2 PUSH1 0x18 SHR SWAP1 POP SWAP2 SWAP1 POP JUMP JUMPDEST PUSH0 PUSH2 0x46AB PUSH2 0x46A6 DUP4 PUSH2 0x468D JUMP JUMPDEST PUSH2 0x461E JUMP JUMPDEST SWAP1 POP SWAP2 SWAP1 POP JUMP JUMPDEST PUSH0 DUP2 PUSH1 0x20 SHR SWAP1 POP SWAP2 SWAP1 POP JUMP JUMPDEST PUSH0 PUSH2 0x46D0 PUSH2 0x46CB DUP4 PUSH2 0x46B2 JUMP JUMPDEST PUSH2 0x461E JUMP JUMPDEST SWAP1 POP SWAP2 SWAP1 POP JUMP JUMPDEST PUSH0 DUP2 PUSH1 0x28 SHR SWAP1 POP SWAP2 SWAP1 POP JUMP JUMPDEST PUSH0 PUSH2 0x46F5 PUSH2 0x46F0 DUP4 PUSH2 0x46D7 JUMP JUMPDEST PUSH2 0x461E JUMP JUMPDEST SWAP1 POP SWAP2 SWAP1 POP JUMP JUMPDEST PUSH0 DUP2 PUSH1 0x30 SHR SWAP1 POP SWAP2 SWAP1 POP JUMP JUMPDEST PUSH0 PUSH2 0x471A PUSH2 0x4715 DUP4 PUSH2 0x46FC JUMP JUMPDEST PUSH2 0x461E JUMP JUMPDEST SWAP1 POP SWAP2 SWAP1 POP JUMP JUMPDEST PUSH0 DUP2 PUSH1 0x38 SHR SWAP1 POP SWAP2 SWAP1 POP JUMP JUMPDEST PUSH0 PUSH2 0x473F PUSH2 0x473A DUP4 PUSH2 0x4721 JUMP JUMPDEST PUSH2 0x461E JUMP JUMPDEST SWAP1 POP SWAP2 SWAP1 POP JUMP JUMPDEST PUSH0 DUP2 PUSH1 0x40 SHR SWAP1 POP SWAP2 SWAP1 POP JUMP JUMPDEST PUSH0 PUSH2 0x4764 PUSH2 0x475F DUP4 PUSH2 0x4746 JUMP JUMPDEST PUSH2 0x461E JUMP JUMPDEST SWAP1 POP SWAP2 SWAP1 POP JUMP JUMPDEST PUSH0 DUP2 PUSH1 0x48 SHR SWAP1 POP SWAP2 SWAP1 POP JUMP JUMPDEST PUSH0 PUSH2 0x4789 PUSH2 0x4784 DUP4 PUSH2 0x476B JUMP JUMPDEST PUSH2 0x461E JUMP JUMPDEST SWAP1 POP SWAP2 SWAP1 POP JUMP JUMPDEST PUSH0 DUP2 PUSH1 0x50 SHR SWAP1 POP SWAP2 SWAP1 POP JUMP JUMPDEST PUSH0 PUSH2 0x47AE PUSH2 0x47A9 DUP4 PUSH2 0x4790 JUMP JUMPDEST PUSH2 0x461E JUMP JUMPDEST SWAP1 POP SWAP2 SWAP1 POP JUMP JUMPDEST PUSH0 DUP2 PUSH1 0x58 SHR SWAP1 POP SWAP2 SWAP1 POP JUMP JUMPDEST PUSH0 PUSH2 0x47D3 PUSH2 0x47CE DUP4 PUSH2 0x47B5 JUMP JUMPDEST PUSH2 0x461E JUMP JUMPDEST SWAP1 POP SWAP2 SWAP1 POP JUMP JUMPDEST PUSH0 DUP2 PUSH1 0x60 SHR SWAP1 POP SWAP2 SWAP1 POP JUMP JUMPDEST PUSH0 PUSH2 0x47F8 PUSH2 0x47F3 DUP4 PUSH2 0x47DA JUMP JUMPDEST PUSH2 0x461E JUMP JUMPDEST SWAP1 POP SWAP2 SWAP1 POP JUMP JUMPDEST PUSH0 DUP2 PUSH1 0x68 SHR SWAP1 POP SWAP2 SWAP1 POP JUMP JUMPDEST PUSH0 PUSH2 0x481D PUSH2 0x4818 DUP4 PUSH2 0x47FF JUMP JUMPDEST PUSH2 0x461E JUMP JUMPDEST SWAP1 POP SWAP2 SWAP1 POP JUMP JUMPDEST PUSH0 DUP2 PUSH1 0x70 SHR SWAP1 POP SWAP2 SWAP1 POP JUMP JUMPDEST PUSH0 PUSH2 0x4842 PUSH2 0x483D DUP4 PUSH2 0x4824 JUMP JUMPDEST PUSH2 0x461E JUMP JUMPDEST SWAP1 POP SWAP2 SWAP1 POP JUMP JUMPDEST PUSH0 DUP2 PUSH1 0x78 SHR SWAP1 POP SWAP2 SWAP1 POP JUMP JUMPDEST PUSH0 PUSH2 0x4867 PUSH2 0x4862 DUP4 PUSH2 0x4849 JUMP JUMPDEST PUSH2 0x461E JUMP JUMPDEST SWAP1 POP SWAP2 SWAP1 POP JUMP JUMPDEST PUSH0 DUP2 PUSH1 0x80 SHR SWAP1 POP SWAP2 SWAP1 POP JUMP JUMPDEST PUSH0 PUSH2 0x488C PUSH2 0x4887 DUP4 PUSH2 0x486E JUMP JUMPDEST PUSH2 0x461E JUMP JUMPDEST SWAP1 POP SWAP2 SWAP1 POP JUMP JUMPDEST PUSH0 DUP2 PUSH1 0x88 SHR SWAP1 POP SWAP2 SWAP1 POP JUMP JUMPDEST PUSH0 PUSH2 0x48B1 PUSH2 0x48AC DUP4 PUSH2 0x4893 JUMP JUMPDEST PUSH2 0x461E JUMP JUMPDEST SWAP1 POP SWAP2 SWAP1 POP JUMP JUMPDEST PUSH0 DUP2 PUSH1 0x90 SHR SWAP1 POP SWAP2 SWAP1 POP JUMP JUMPDEST PUSH0 PUSH2 0x48D6 PUSH2 0x48D1 DUP4 PUSH2 0x48B8 JUMP JUMPDEST PUSH2 0x461E JUMP JUMPDEST SWAP1 POP SWAP2 SWAP1 POP JUMP JUMPDEST PUSH0 DUP2 PUSH1 0x98 SHR SWAP1 POP SWAP2 SWAP1 POP JUMP JUMPDEST PUSH0 PUSH2 0x48FB PUSH2 0x48F6 DUP4 PUSH2 0x48DD JUMP JUMPDEST PUSH2 0x461E JUMP JUMPDEST SWAP1 POP SWAP2 SWAP1 POP JUMP JUMPDEST PUSH0 DUP2 PUSH1 0xA0 SHR SWAP1 POP SWAP2 SWAP1 POP JUMP JUMPDEST PUSH0 PUSH2 0x4920 PUSH2 0x491B DUP4 PUSH2 0x4902 JUMP JUMPDEST PUSH2 0x461E JUMP JUMPDEST SWAP1 POP SWAP2 SWAP1 POP JUMP JUMPDEST PUSH0 DUP2 PUSH1 0xA8 SHR SWAP1 POP SWAP2 SWAP1 POP JUMP JUMPDEST PUSH0 PUSH2 0x4945 PUSH2 0x4940 DUP4 PUSH2 0x4927 JUMP JUMPDEST PUSH2 0x461E JUMP JUMPDEST SWAP1 POP SWAP2 SWAP1 POP JUMP JUMPDEST PUSH0 DUP2 PUSH1 0xB0 SHR SWAP1 POP SWAP2 SWAP1 POP JUMP JUMPDEST PUSH0 PUSH2 0x496A PUSH2 0x4965 DUP4 PUSH2 0x494C JUMP JUMPDEST PUSH2 0x461E JUMP JUMPDEST SWAP1 POP SWAP2 SWAP1 POP JUMP JUMPDEST PUSH0 DUP2 PUSH1 0xB8 SHR SWAP1 POP SWAP2 SWAP1 POP JUMP JUMPDEST PUSH0 PUSH2 0x498F PUSH2 0x498A DUP4 PUSH2 0x4971 JUMP JUMPDEST PUSH2 0x461E JUMP JUMPDEST SWAP1 POP SWAP2 SWAP1 POP JUMP JUMPDEST PUSH0 DUP2 PUSH1 0xC0 SHR SWAP1 POP SWAP2 SWAP1 POP JUMP JUMPDEST PUSH0 PUSH2 0x49B4 PUSH2 0x49AF DUP4 PUSH2 0x4996 JUMP JUMPDEST PUSH2 0x461E JUMP JUMPDEST SWAP1 POP SWAP2 SWAP1 POP JUMP JUMPDEST PUSH0 DUP2 PUSH1 0xC8 SHR SWAP1 POP SWAP2 SWAP1 POP JUMP JUMPDEST PUSH0 PUSH2 0x49D9 PUSH2 0x49D4 DUP4 PUSH2 0x49BB JUMP JUMPDEST PUSH2 0x461E JUMP JUMPDEST SWAP1 POP SWAP2 SWAP1 POP JUMP JUMPDEST PUSH0 DUP2 PUSH1 0xD0 SHR SWAP1 POP SWAP2 SWAP1 POP JUMP JUMPDEST PUSH0 PUSH2 0x49FE PUSH2 0x49F9 DUP4 PUSH2 0x49E0 JUMP JUMPDEST PUSH2 0x461E JUMP JUMPDEST SWAP1 POP SWAP2 SWAP1 POP JUMP JUMPDEST PUSH0 DUP2 PUSH1 0xD8 SHR SWAP1 POP SWAP2 SWAP1 POP JUMP JUMPDEST PUSH0 PUSH2 0x4A23 PUSH2 0x4A1E DUP4 PUSH2 0x4A05 JUMP JUMPDEST PUSH2 0x461E JUMP JUMPDEST SWAP1 POP SWAP2 SWAP1 POP JUMP JUMPDEST PUSH0 DUP2 PUSH1 0xE0 SHR SWAP1 POP SWAP2 SWAP1 POP JUMP JUMPDEST PUSH0 PUSH2 0x4A48 PUSH2 0x4A43 DUP4 PUSH2 0x4A2A JUMP JUMPDEST PUSH2 0x461E JUMP JUMPDEST SWAP1 POP SWAP2 SWAP1 POP JUMP JUMPDEST PUSH0 DUP2 PUSH1 0xE8 SHR SWAP1 POP SWAP2 SWAP1 POP JUMP JUMPDEST PUSH0 PUSH2 0x4A6D PUSH2 0x4A68 DUP4 PUSH2 0x4A4F JUMP JUMPDEST PUSH2 0x461E JUMP JUMPDEST SWAP1 POP SWAP2 SWAP1 POP JUMP JUMPDEST PUSH0 DUP2 PUSH1 0xF0 SHR SWAP1 POP SWAP2 SWAP1 POP JUMP JUMPDEST PUSH0 PUSH2 0x4A92 PUSH2 0x4A8D DUP4 PUSH2 0x4A74 JUMP JUMPDEST PUSH2 0x461E JUMP JUMPDEST SWAP1 POP SWAP2 SWAP1 POP JUMP JUMPDEST PUSH0 DUP2 PUSH1 0xF8 SHR SWAP1 POP SWAP2 SWAP1 POP JUMP JUMPDEST PUSH0 PUSH2 0x4AB7 PUSH2 0x4AB2 DUP4 PUSH2 0x4A99 JUMP JUMPDEST PUSH2 0x461E JUMP JUMPDEST SWAP1 POP SWAP2 SWAP1 POP JUMP JUMPDEST PUSH0 PUSH2 0x4AC8 DUP3 PUSH2 0x45D8 JUMP JUMPDEST PUSH2 0x4AD2 DUP2 DUP6 PUSH2 0x45E2 JUMP JUMPDEST SWAP4 POP DUP4 PUSH2 0x4ADE DUP5 PUSH2 0x45F2 JUMP JUMPDEST PUSH0 PUSH1 0x1 ISZERO PUSH2 0x4E0A JUMPI JUMPDEST DUP4 PUSH1 0x1 PUSH1 0x20 SUB DUP3 ADD LT ISZERO PUSH2 0x4E09 JUMPI DUP2 SLOAD PUSH2 0x4B09 DUP9 PUSH2 0x4B04 DUP4 PUSH2 0x462A JUMP JUMPDEST PUSH2 0x4604 JUMP JUMPDEST PUSH1 0x20 DUP9 ADD SWAP8 POP PUSH2 0x4B21 DUP9 PUSH2 0x4B1C DUP4 PUSH2 0x464F JUMP JUMPDEST PUSH2 0x4604 JUMP JUMPDEST PUSH1 0x20 DUP9 ADD SWAP8 POP PUSH2 0x4B39 DUP9 PUSH2 0x4B34 DUP4 PUSH2 0x4674 JUMP JUMPDEST PUSH2 0x4604 JUMP JUMPDEST PUSH1 0x20 DUP9 ADD SWAP8 POP PUSH2 0x4B51 DUP9 PUSH2 0x4B4C DUP4 PUSH2 0x4699 JUMP JUMPDEST PUSH2 0x4604 JUMP JUMPDEST PUSH1 0x20 DUP9 ADD SWAP8 POP PUSH2 0x4B69 DUP9 PUSH2 0x4B64 DUP4 PUSH2 0x46BE JUMP JUMPDEST PUSH2 0x4604 JUMP JUMPDEST PUSH1 0x20 DUP9 ADD SWAP8 POP PUSH2 0x4B81 DUP9 PUSH2 0x4B7C DUP4 PUSH2 0x46E3 JUMP JUMPDEST PUSH2 0x4604 JUMP JUMPDEST PUSH1 0x20 DUP9 ADD SWAP8 POP PUSH2 0x4B99 DUP9 PUSH2 0x4B94 DUP4 PUSH2 0x4708 JUMP JUMPDEST PUSH2 0x4604 JUMP JUMPDEST PUSH1 0x20 DUP9 ADD SWAP8 POP PUSH2 0x4BB1 DUP9 PUSH2 0x4BAC DUP4 PUSH2 0x472D JUMP JUMPDEST PUSH2 0x4604 JUMP JUMPDEST PUSH1 0x20 DUP9 ADD SWAP8 POP PUSH2 0x4BC9 DUP9 PUSH2 0x4BC4 DUP4 PUSH2 0x4752 JUMP JUMPDEST PUSH2 0x4604 JUMP JUMPDEST PUSH1 0x20 DUP9 ADD SWAP8 POP PUSH2 0x4BE1 DUP9 PUSH2 0x4BDC DUP4 PUSH2 0x4777 JUMP JUMPDEST PUSH2 0x4604 JUMP JUMPDEST PUSH1 0x20 DUP9 ADD SWAP8 POP PUSH2 0x4BF9 DUP9 PUSH2 0x4BF4 DUP4 PUSH2 0x479C JUMP JUMPDEST PUSH2 0x4604 JUMP JUMPDEST PUSH1 0x20 DUP9 ADD SWAP8 POP PUSH2 0x4C11 DUP9 PUSH2 0x4C0C DUP4 PUSH2 0x47C1 JUMP JUMPDEST PUSH2 0x4604 JUMP JUMPDEST PUSH1 0x20 DUP9 ADD SWAP8 POP PUSH2 0x4C29 DUP9 PUSH2 0x4C24 DUP4 PUSH2 0x47E6 JUMP JUMPDEST PUSH2 0x4604 JUMP JUMPDEST PUSH1 0x20 DUP9 ADD SWAP8 POP PUSH2 0x4C41 DUP9 PUSH2 0x4C3C DUP4 PUSH2 0x480B JUMP JUMPDEST PUSH2 0x4604 JUMP JUMPDEST PUSH1 0x20 DUP9 ADD SWAP8 POP PUSH2 0x4C59 DUP9 PUSH2 0x4C54 DUP4 PUSH2 0x4830 JUMP JUMPDEST PUSH2 0x4604 JUMP JUMPDEST PUSH1 0x20 DUP9 ADD SWAP8 POP PUSH2 0x4C71 DUP9 PUSH2 0x4C6C DUP4 PUSH2 0x4855 JUMP JUMPDEST PUSH2 0x4604 JUMP JUMPDEST PUSH1 0x20 DUP9 ADD SWAP8 POP PUSH2 0x4C89 DUP9 PUSH2 0x4C84 DUP4 PUSH2 0x487A JUMP JUMPDEST PUSH2 0x4604 JUMP JUMPDEST PUSH1 0x20 DUP9 ADD SWAP8 POP PUSH2 0x4CA1 DUP9 PUSH2 0x4C9C DUP4 PUSH2 0x489F JUMP JUMPDEST PUSH2 0x4604 JUMP JUMPDEST PUSH1 0x20 DUP9 ADD SWAP8 POP PUSH2 0x4CB9 DUP9 PUSH2 0x4CB4 DUP4 PUSH2 0x48C4 JUMP JUMPDEST PUSH2 0x4604 JUMP JUMPDEST PUSH1 0x20 DUP9 ADD SWAP8 POP PUSH2 0x4CD1 DUP9 PUSH2 0x4CCC DUP4 PUSH2 0x48E9 JUMP JUMPDEST PUSH2 0x4604 JUMP JUMPDEST PUSH1 0x20 DUP9 ADD SWAP8 POP PUSH2 0x4CE9 DUP9 PUSH2 0x4CE4 DUP4 PUSH2 0x490E JUMP JUMPDEST PUSH2 0x4604 JUMP JUMPDEST PUSH1 0x20 DUP9 ADD SWAP8 POP PUSH2 0x4D01 DUP9 PUSH2 0x4CFC DUP4 PUSH2 0x4933 JUMP JUMPDEST PUSH2 0x4604 JUMP JUMPDEST PUSH1 0x20 DUP9 ADD SWAP8 POP PUSH2 0x4D19 DUP9 PUSH2 0x4D14 DUP4 PUSH2 0x4958 JUMP JUMPDEST PUSH2 0x4604 JUMP JUMPDEST PUSH1 0x20 DUP9 ADD SWAP8 POP PUSH2 0x4D31 DUP9 PUSH2 0x4D2C DUP4 PUSH2 0x497D JUMP JUMPDEST PUSH2 0x4604 JUMP JUMPDEST PUSH1 0x20 DUP9 ADD SWAP8 POP PUSH2 0x4D49 DUP9 PUSH2 0x4D44 DUP4 PUSH2 0x49A2 JUMP JUMPDEST PUSH2 0x4604 JUMP JUMPDEST PUSH1 0x20 DUP9 ADD SWAP8 POP PUSH2 0x4D61 DUP9 PUSH2 0x4D5C DUP4 PUSH2 0x49C7 JUMP JUMPDEST PUSH2 0x4604 JUMP JUMPDEST PUSH1 0x20 DUP9 ADD SWAP8 POP PUSH2 0x4D79 DUP9 PUSH2 0x4D74 DUP4 PUSH2 0x49EC JUMP JUMPDEST PUSH2 0x4604 JUMP JUMPDEST PUSH1 0x20 DUP9 ADD SWAP8 POP PUSH2 0x4D91 DUP9 PUSH2 0x4D8C DUP4 PUSH2 0x4A11 JUMP JUMPDEST PUSH2 0x4604 JUMP JUMPDEST PUSH1 0x20 DUP9 ADD SWAP8 POP PUSH2 0x4DA9 DUP9 PUSH2 0x4DA4 DUP4 PUSH2 0x4A36 JUMP JUMPDEST PUSH2 0x4604 JUMP JUMPDEST PUSH1 0x20 DUP9 ADD SWAP8 POP PUSH2 0x4DC1 DUP9 PUSH2 0x4DBC DUP4 PUSH2 0x4A5B JUMP JUMPDEST PUSH2 0x4604 JUMP JUMPDEST PUSH1 0x20 DUP9 ADD SWAP8 POP PUSH2 0x4DD9 DUP9 PUSH2 0x4DD4 DUP4 PUSH2 0x4A80 JUMP JUMPDEST PUSH2 0x4604 JUMP JUMPDEST PUSH1 0x20 DUP9 ADD SWAP8 POP PUSH2 0x4DF1 DUP9 PUSH2 0x4DEC DUP4 PUSH2 0x4AA5 JUMP JUMPDEST PUSH2 0x4604 JUMP JUMPDEST PUSH1 0x20 DUP9 ADD SWAP8 POP PUSH1 0x1 DUP4 ADD SWAP3 POP POP PUSH1 0x20 DUP2 ADD SWAP1 POP PUSH2 0x4AE7 JUMP JUMPDEST JUMPDEST PUSH1 0x1 ISZERO PUSH2 0x52F5 JUMPI DUP2 SLOAD DUP5 DUP3 LT ISZERO PUSH2 0x4E3A JUMPI PUSH2 0x4E2D DUP9 PUSH2 0x4E28 DUP4 PUSH2 0x462A JUMP JUMPDEST PUSH2 0x4604 JUMP JUMPDEST PUSH1 0x20 DUP9 ADD SWAP8 POP PUSH1 0x1 DUP3 ADD SWAP2 POP JUMPDEST DUP5 DUP3 LT ISZERO PUSH2 0x4E61 JUMPI PUSH2 0x4E54 DUP9 PUSH2 0x4E4F DUP4 PUSH2 0x464F JUMP JUMPDEST PUSH2 0x4604 JUMP JUMPDEST PUSH1 0x20 DUP9 ADD SWAP8 POP PUSH1 0x1 DUP3 ADD SWAP2 POP JUMPDEST DUP5 DUP3 LT ISZERO PUSH2 0x4E88 JUMPI PUSH2 0x4E7B DUP9 PUSH2 0x4E76 DUP4 PUSH2 0x4674 JUMP JUMPDEST PUSH2 0x4604 JUMP JUMPDEST PUSH1 0x20 DUP9 ADD SWAP8 POP PUSH1 0x1 DUP3 ADD SWAP2 POP JUMPDEST DUP5 DUP3 LT ISZERO PUSH2 0x4EAF JUMPI PUSH2 0x4EA2 DUP9 PUSH2 0x4E9D DUP4 PUSH2 0x4699 JUMP JUMPDEST PUSH2 0x4604 JUMP JUMPDEST PUSH1 0x20 DUP9 ADD SWAP8 POP PUSH1 0x1 DUP3 ADD SWAP2 POP JUMPDEST DUP5 DUP3 LT ISZERO PUSH2 0x4ED6 JUMPI PUSH2 0x4EC9 DUP9 PUSH2 0x4EC4 DUP4 PUSH2 0x46BE JUMP JUMPDEST PUSH2 0x4604 JUMP JUMPDEST PUSH1 0x20 DUP9 ADD SWAP8 POP PUSH1 0x1 DUP3 ADD SWAP2 POP JUMPDEST DUP5 DUP3 LT ISZERO PUSH2 0x4EFD JUMPI PUSH2 0x4EF0 DUP9 PUSH2 0x4EEB DUP4 PUSH2 0x46E3 JUMP JUMPDEST PUSH2 0x4604 JUMP JUMPDEST PUSH1 0x20 DUP9 ADD SWAP8 POP PUSH1 0x1 DUP3 ADD SWAP2 POP JUMPDEST DUP5 DUP3 LT ISZERO PUSH2 0x4F24 JUMPI PUSH2 0x4F17 DUP9 PUSH2 0x4F12 DUP4 PUSH2 0x4708 JUMP JUMPDEST PUSH2 0x4604 JUMP JUMPDEST PUSH1 0x20 DUP9 ADD SWAP8 POP PUSH1 0x1 DUP3 ADD SWAP2 POP JUMPDEST DUP5 DUP3 LT ISZERO PUSH2 0x4F4B JUMPI PUSH2 0x4F3E DUP9 PUSH2 0x4F39 DUP4 PUSH2 0x472D JUMP JUMPDEST PUSH2 0x4604 JUMP JUMPDEST PUSH1 0x20 DUP9 ADD SWAP8 POP PUSH1 0x1 DUP3 ADD SWAP2 POP JUMPDEST DUP5 DUP3 LT ISZERO PUSH2 0x4F72 JUMPI PUSH2 0x4F65 DUP9 PUSH2 0x4F60 DUP4 PUSH2 0x4752 JUMP JUMPDEST PUSH2 0x4604 JUMP JUMPDEST PUSH1 0x20 DUP9 ADD SWAP8 POP PUSH1 0x1 DUP3 ADD SWAP2 POP JUMPDEST DUP5 DUP3 LT ISZERO PUSH2 0x4F99 JUMPI PUSH2 0x4F8C DUP9 PUSH2 0x4F87 DUP4 PUSH2 0x4777 JUMP JUMPDEST PUSH2 0x4604 JUMP JUMPDEST PUSH1 0x20 DUP9 ADD SWAP8 POP PUSH1 0x1 DUP3 ADD SWAP2 POP JUMPDEST DUP5 DUP3 LT ISZERO PUSH2 0x4FC0 JUMPI PUSH2 0x4FB3 DUP9 PUSH2 0x4FAE DUP4 PUSH2 0x479C JUMP JUMPDEST PUSH2 0x4604 JUMP JUMPDEST PUSH1 0x20 DUP9 ADD SWAP8 POP PUSH1 0x1 DUP3 ADD SWAP2 POP JUMPDEST DUP5 DUP3 LT ISZERO PUSH2 0x4FE7 JUMPI PUSH2 0x4FDA DUP9 PUSH2 0x4FD5 DUP4 PUSH2 0x47C1 JUMP JUMPDEST PUSH2 0x4604 JUMP JUMPDEST PUSH1 0x20 DUP9 ADD SWAP8 POP PUSH1 0x1 DUP3 ADD SWAP2 POP JUMPDEST DUP5 DUP3 LT ISZERO PUSH2 0x500E JUMPI PUSH2 0x5001 DUP9 PUSH2 0x4FFC DUP4 PUSH2 0x47E6 JUMP JUMPDEST PUSH2 0x4604 JUMP JUMPDEST PUSH1 0x20 DUP9 ADD SWAP8 POP PUSH1 0x1 DUP3 ADD SWAP2 POP JUMPDEST DUP5 DUP3 LT ISZERO PUSH2 0x5035 JUMPI PUSH2 0x5028 DUP9 PUSH2 0x5023 DUP4 PUSH2 0x480B JUMP JUMPDEST PUSH2 0x4604 JUMP JUMPDEST PUSH1 0x20 DUP9 ADD SWAP8 POP PUSH1 0x1 DUP3 ADD SWAP2 POP JUMPDEST DUP5 DUP3 LT ISZERO PUSH2 0x505C JUMPI PUSH2 0x504F DUP9 PUSH2 0x504A DUP4 PUSH2 0x4830 JUMP JUMPDEST PUSH2 0x4604 JUMP JUMPDEST PUSH1 0x20 DUP9 ADD SWAP8 POP PUSH1 0x1 DUP3 ADD SWAP2 POP JUMPDEST DUP5 DUP3 LT ISZERO PUSH2 0x5083 JUMPI PUSH2 0x5076 DUP9 PUSH2 0x5071 DUP4 PUSH2 0x4855 JUMP JUMPDEST PUSH2 0x4604 JUMP JUMPDEST PUSH1 0x20 DUP9 ADD SWAP8 POP PUSH1 0x1 DUP3 ADD SWAP2 POP JUMPDEST DUP5 DUP3 LT ISZERO PUSH2 0x50AA JUMPI PUSH2 0x509D DUP9 PUSH2 0x5098 DUP4 PUSH2 0x487A JUMP JUMPDEST PUSH2 0x4604 JUMP JUMPDEST PUSH1 0x20 DUP9 ADD SWAP8 POP PUSH1 0x1 DUP3 ADD SWAP2 POP JUMPDEST DUP5 DUP3 LT ISZERO PUSH2 0x50D1 JUMPI PUSH2 0x50C4 DUP9 PUSH2 0x50BF DUP4 PUSH2 0x489F JUMP JUMPDEST PUSH2 0x4604 JUMP JUMPDEST PUSH1 0x20 DUP9 ADD SWAP8 POP PUSH1 0x1 DUP3 ADD SWAP2 POP JUMPDEST DUP5 DUP3 LT ISZERO PUSH2 0x50F8 JUMPI PUSH2 0x50EB DUP9 PUSH2 0x50E6 DUP4 PUSH2 0x48C4 JUMP JUMPDEST PUSH2 0x4604 JUMP JUMPDEST PUSH1 0x20 DUP9 ADD SWAP8 POP PUSH1 0x1 DUP3 ADD SWAP2 POP JUMPDEST DUP5 DUP3 LT ISZERO PUSH2 0x511F JUMPI PUSH2 0x5112 DUP9 PUSH2 0x510D DUP4 PUSH2 0x48E9 JUMP JUMPDEST PUSH2 0x4604 JUMP JUMPDEST PUSH1 0x20 DUP9 ADD SWAP8 POP PUSH1 0x1 DUP3 ADD SWAP2 POP JUMPDEST DUP5 DUP3 LT ISZERO PUSH2 0x5146 JUMPI PUSH2 0x5139 DUP9 PUSH2 0x5134 DUP4 PUSH2 0x490E JUMP JUMPDEST PUSH2 0x4604 JUMP JUMPDEST PUSH1 0x20 DUP9 ADD SWAP8 POP PUSH1 0x1 DUP3 ADD SWAP2 POP JUMPDEST DUP5 DUP3 LT ISZERO PUSH2 0x516D JUMPI PUSH2 0x5160 DUP9 PUSH2 0x515B DUP4 PUSH2 0x4933 JUMP JUMPDEST PUSH2 0x4604 JUMP JUMPDEST PUSH1 0x20 DUP9 ADD SWAP8 POP PUSH1 0x1 DUP3 ADD SWAP2 POP JUMPDEST DUP5 DUP3 LT ISZERO PUSH2 0x5194 JUMPI PUSH2 0x5187 DUP9 PUSH2 0x5182 DUP4 PUSH2 0x4958 JUMP JUMPDEST PUSH2 0x4604 JUMP JUMPDEST PUSH1 0x20 DUP9 ADD SWAP8 POP PUSH1 0x1 DUP3 ADD SWAP2 POP JUMPDEST DUP5 DUP3 LT ISZERO PUSH2 0x51BB JUMPI PUSH2 0x51AE DUP9 PUSH2 0x51A9 DUP4 PUSH2 0x497D JUMP JUMPDEST PUSH2 0x4604 JUMP JUMPDEST PUSH1 0x20 DUP9 ADD SWAP8 POP PUSH1 0x1 DUP3 ADD SWAP2 POP JUMPDEST DUP5 DUP3 LT ISZERO PUSH2 0x51E2 JUMPI PUSH2 0x51D5 DUP9 PUSH2 0x51D0 DUP4 PUSH2 0x49A2 JUMP JUMPDEST PUSH2 0x4604 JUMP JUMPDEST PUSH1 0x20 DUP9 ADD SWAP8 POP PUSH1 0x1 DUP3 ADD SWAP2 POP JUMPDEST DUP5 DUP3 LT ISZERO PUSH2 0x5209 JUMPI PUSH2 0x51FC DUP9 PUSH2 0x51F7 DUP4 PUSH2 0x49C7 JUMP JUMPDEST PUSH2 0x4604 JUMP JUMPDEST PUSH1 0x20 DUP9 ADD SWAP8 POP PUSH1 0x1 DUP3 ADD SWAP2 POP JUMPDEST DUP5 DUP3 LT ISZERO PUSH2 0x5230 JUMPI PUSH2 0x5223 DUP9 PUSH2 0x521E DUP4 PUSH2 0x49EC JUMP JUMPDEST PUSH2 0x4604 JUMP JUMPDEST PUSH1 0x20 DUP9 ADD SWAP8 POP PUSH1 0x1 DUP3 ADD SWAP2 POP JUMPDEST DUP5 DUP3 LT ISZERO PUSH2 0x5257 JUMPI PUSH2 0x524A DUP9 PUSH2 0x5245 DUP4 PUSH2 0x4A11 JUMP JUMPDEST PUSH2 0x4604 JUMP JUMPDEST PUSH1 0x20 DUP9 ADD SWAP8 POP PUSH1 0x1 DUP3 ADD SWAP2 POP JUMPDEST DUP5 DUP3 LT ISZERO PUSH2 0x527E JUMPI PUSH2 0x5271 DUP9 PUSH2 0x526C DUP4 PUSH2 0x4A36 JUMP JUMPDEST PUSH2 0x4604 JUMP JUMPDEST PUSH1 0x20 DUP9 ADD SWAP8 POP PUSH1 0x1 DUP3 ADD SWAP2 POP JUMPDEST DUP5 DUP3 LT ISZERO PUSH2 0x52A5 JUMPI PUSH2 0x5298 DUP9 PUSH2 0x5293 DUP4 PUSH2 0x4A5B JUMP JUMPDEST PUSH2 0x4604 JUMP JUMPDEST PUSH1 0x20 DUP9 ADD SWAP8 POP PUSH1 0x1 DUP3 ADD SWAP2 POP JUMPDEST DUP5 DUP3 LT ISZERO PUSH2 0x52CC JUMPI PUSH2 0x52BF DUP9 PUSH2 0x52BA DUP4 PUSH2 0x4A80 JUMP JUMPDEST PUSH2 0x4604 JUMP JUMPDEST PUSH1 0x20 DUP9 ADD SWAP8 POP PUSH1 0x1 DUP3 ADD SWAP2 POP JUMPDEST DUP5 DUP3 LT ISZERO PUSH2 0x52F3 JUMPI PUSH2 0x52E6 DUP9 PUSH2 0x52E1 DUP4 PUSH2 0x4AA5 JUMP JUMPDEST PUSH2 0x4604 JUMP JUMPDEST PUSH1 0x20 DUP9 ADD SWAP8 POP PUSH1 0x1 DUP3 ADD SWAP2 POP JUMPDEST POP JUMPDEST DUP7 SWAP5 POP POP POP POP POP SWAP3 SWAP2 POP POP JUMP JUMPDEST PUSH0 PUSH1 0x20 DUP3 ADD SWAP1 POP DUP2 DUP2 SUB PUSH0 DUP4 ADD MSTORE PUSH2 0x531A DUP2 DUP5 PUSH2 0x4ABE JUMP JUMPDEST SWAP1 POP SWAP3 SWAP2 POP POP JUMP JUMPDEST PUSH32 0x506C61796572206861736820616C726561647920636F6D6D6974746564000000 PUSH0 DUP3 ADD MSTORE POP JUMP JUMPDEST PUSH0 PUSH2 0x5356 PUSH1 0x1D DUP4 PUSH2 0x41E8 JUMP JUMPDEST SWAP2 POP PUSH2 0x5361 DUP3 PUSH2 0x5322 JUMP JUMPDEST PUSH1 0x20 DUP3 ADD SWAP1 POP SWAP2 SWAP1 POP JUMP JUMPDEST PUSH0 PUSH1 0x20 DUP3 ADD SWAP1 POP DUP2 DUP2 SUB PUSH0 DUP4 ADD MSTORE PUSH2 0x5383 DUP2 PUSH2 0x534A JUMP JUMPDEST SWAP1 POP SWAP2 SWAP1 POP JUMP JUMPDEST PUSH32 0x4E6F20706C61796572732068617665206A6F696E656400000000000000000000 PUSH0 DUP3 ADD MSTORE POP JUMP JUMPDEST PUSH0 PUSH2 0x53BE PUSH1 0x16 DUP4 PUSH2 0x41E8 JUMP JUMPDEST SWAP2 POP PUSH2 0x53C9 DUP3 PUSH2 0x538A JUMP JUMPDEST PUSH1 0x20 DUP3 ADD SWAP1 POP SWAP2 SWAP1 POP JUMP JUMPDEST PUSH0 PUSH1 0x20 DUP3 ADD SWAP1 POP DUP2 DUP2 SUB PUSH0 DUP4 ADD MSTORE PUSH2 0x53EB DUP2 PUSH2 0x53B2 JUMP JUMPDEST SWAP1 POP SWAP2 SWAP1 POP JUMP JUMPDEST PUSH32 0x4F6E6C792070617274696369706174696E6720706C61796572732063616E2070 PUSH0 DUP3 ADD MSTORE PUSH32 0x6572666F726D207468697320616374696F6E0000000000000000000000000000 PUSH1 0x20 DUP3 ADD MSTORE POP JUMP JUMPDEST PUSH0 PUSH2 0x544C PUSH1 0x32 DUP4 PUSH2 0x41E8 JUMP JUMPDEST SWAP2 POP PUSH2 0x5457 DUP3 PUSH2 0x53F2 JUMP JUMPDEST PUSH1 0x40 DUP3 ADD SWAP1 POP SWAP2 SWAP1 POP JUMP JUMPDEST PUSH0 PUSH1 0x20 DUP3 ADD SWAP1 POP DUP2 DUP2 SUB PUSH0 DUP4 ADD MSTORE PUSH2 0x5479 DUP2 PUSH2 0x5440 JUMP JUMPDEST SWAP1 POP SWAP2 SWAP1 POP JUMP JUMPDEST PUSH32 0x506C61796572206973206E6F7420616374697665206F72206973206275737465 PUSH0 DUP3 ADD MSTORE PUSH32 0x6400000000000000000000000000000000000000000000000000000000000000 PUSH1 0x20 DUP3 ADD MSTORE POP JUMP JUMPDEST PUSH0 PUSH2 0x54DA PUSH1 0x21 DUP4 PUSH2 0x41E8 JUMP JUMPDEST SWAP2 POP PUSH2 0x54E5 DUP3 PUSH2 0x5480 JUMP JUMPDEST PUSH1 0x40 DUP3 ADD SWAP1 POP SWAP2 SWAP1 POP JUMP JUMPDEST PUSH0 PUSH1 0x20 DUP3 ADD SWAP1 POP DUP2 DUP2 SUB PUSH0 DUP4 ADD MSTORE PUSH2 0x5507 DUP2 PUSH2 0x54CE JUMP JUMPDEST SWAP1 POP SWAP2 SWAP1 POP JUMP JUMPDEST PUSH0 PUSH2 0x5518 DUP3 PUSH2 0x3BFA JUMP JUMPDEST SWAP2 POP PUSH2 0x5523 DUP4 PUSH2 0x3BFA JUMP JUMPDEST SWAP3 POP DUP3 DUP3 MUL PUSH2 0x5531 DUP2 PUSH2 0x3BFA JUMP JUMPDEST SWAP2 POP DUP3 DUP3 DIV DUP5 EQ DUP4 ISZERO OR PUSH2 0x5548 JUMPI PUSH2 0x5547 PUSH2 0x44D9 JUMP JUMPDEST JUMPDEST POP SWAP3 SWAP2 POP POP JUMP JUMPDEST PUSH32 0x4E6F7420616C6C20706C617965727320636F6D6D697474656400000000000000 PUSH0 DUP3 ADD MSTORE POP JUMP JUMPDEST PUSH0 PUSH2 0x5583 PUSH1 0x19 DUP4 PUSH2 0x41E8 JUMP JUMPDEST SWAP2 POP PUSH2 0x558E DUP3 PUSH2 0x554F JUMP JUMPDEST PUSH1 0x20 DUP3 ADD SWAP1 POP SWAP2 SWAP1 POP JUMP JUMPDEST PUSH0 PUSH1 0x20 DUP3 ADD SWAP1 POP DUP2 DUP2 SUB PUSH0 DUP4 ADD MSTORE PUSH2 0x55B0 DUP2 PUSH2 0x5577 JUMP JUMPDEST SWAP1 POP SWAP2 SWAP1 POP JUMP JUMPDEST PUSH32 0x4E487B7100000000000000000000000000000000000000000000000000000000 PUSH0 MSTORE PUSH1 0x41 PUSH1 0x4 MSTORE PUSH1 0x24 PUSH0 REVERT JUMPDEST PUSH32 0x42616E6B20686173206E6F742072657665616C656420697473206E756D626572 PUSH0 DUP3 ADD MSTORE POP JUMP JUMPDEST PUSH0 PUSH2 0x5618 PUSH1 0x20 DUP4 PUSH2 0x41E8 JUMP JUMPDEST SWAP2 POP PUSH2 0x5623 DUP3 PUSH2 0x55E4 JUMP JUMPDEST PUSH1 0x20 DUP3 ADD SWAP1 POP SWAP2 SWAP1 POP JUMP JUMPDEST PUSH0 PUSH1 0x20 DUP3 ADD SWAP1 POP DUP2 DUP2 SUB PUSH0 DUP4 ADD MSTORE PUSH2 0x5645 DUP2 PUSH2 0x560C JUMP JUMPDEST SWAP1 POP SWAP2 SWAP1 POP JUMP JUMPDEST PUSH32 0x506C6179657220686173206E6F742072657665616C6564207468656972206E75 PUSH0 DUP3 ADD MSTORE PUSH32 0x6D62657200000000000000000000000000000000000000000000000000000000 PUSH1 0x20 DUP3 ADD MSTORE POP JUMP JUMPDEST PUSH0 PUSH2 0x56A6 PUSH1 0x24 DUP4 PUSH2 0x41E8 JUMP JUMPDEST SWAP2 POP PUSH2 0x56B1 DUP3 PUSH2 0x564C JUMP JUMPDEST PUSH1 0x40 DUP3 ADD SWAP1 POP SWAP2 SWAP1 POP JUMP JUMPDEST PUSH0 PUSH1 0x20 DUP3 ADD SWAP1 POP DUP2 DUP2 SUB PUSH0 DUP4 ADD MSTORE PUSH2 0x56D3 DUP2 PUSH2 0x569A JUMP JUMPDEST SWAP1 POP SWAP2 SWAP1 POP JUMP JUMPDEST PUSH0 PUSH2 0x56E4 DUP3 PUSH2 0x3BFA JUMP JUMPDEST SWAP2 POP PUSH2 0x56EF DUP4 PUSH2 0x3BFA JUMP JUMPDEST SWAP3 POP DUP3 DUP3 ADD SWAP1 POP DUP1 DUP3 GT ISZERO PUSH2 0x5707 JUMPI PUSH2 0x5706 PUSH2 0x44D9 JUMP JUMPDEST JUMPDEST SWAP3 SWAP2 POP POP JUMP JUMPDEST PUSH32 0x4D6178203420706C617965727320616C6C6F7765640000000000000000000000 PUSH0 DUP3 ADD MSTORE POP JUMP JUMPDEST PUSH0 PUSH2 0x5741 PUSH1 0x15 DUP4 PUSH2 0x41E8 JUMP JUMPDEST SWAP2 POP PUSH2 0x574C DUP3 PUSH2 0x570D JUMP JUMPDEST PUSH1 0x20 DUP3 ADD SWAP1 POP SWAP2 SWAP1 POP JUMP JUMPDEST PUSH0 PUSH1 0x20 DUP3 ADD SWAP1 POP DUP2 DUP2 SUB PUSH0 DUP4 ADD MSTORE PUSH2 0x576E DUP2 PUSH2 0x5735 JUMP JUMPDEST SWAP1 POP SWAP2 SWAP1 POP JUMP JUMPDEST PUSH32 0x42657420616D6F756E74206D69736D6174636800000000000000000000000000 PUSH0 DUP3 ADD MSTORE POP JUMP JUMPDEST PUSH0 PUSH2 0x57A9 PUSH1 0x13 DUP4 PUSH2 0x41E8 JUMP JUMPDEST SWAP2 POP PUSH2 0x57B4 DUP3 PUSH2 0x5775 JUMP JUMPDEST PUSH1 0x20 DUP3 ADD SWAP1 POP SWAP2 SWAP1 POP JUMP JUMPDEST PUSH0 PUSH1 0x20 DUP3 ADD SWAP1 POP DUP2 DUP2 SUB PUSH0 DUP4 ADD MSTORE PUSH2 0x57D6 DUP2 PUSH2 0x579D JUMP JUMPDEST SWAP1 POP SWAP2 SWAP1 POP JUMP JUMPDEST PUSH32 0x54696D656F7574206E6F74207965742070617373656400000000000000000000 PUSH0 DUP3 ADD MSTORE POP JUMP JUMPDEST PUSH0 PUSH2 0x5811 PUSH1 0x16 DUP4 PUSH2 0x41E8 JUMP JUMPDEST SWAP2 POP PUSH2 0x581C DUP3 PUSH2 0x57DD JUMP JUMPDEST PUSH1 0x20 DUP3 ADD SWAP1 POP SWAP2 SWAP1 POP JUMP JUMPDEST PUSH0 PUSH1 0x20 DUP3 ADD SWAP1 POP DUP2 DUP2 SUB PUSH0 DUP4 ADD MSTORE PUSH2 0x583E DUP2 PUSH2 0x5805 JUMP JUMPDEST SWAP1 POP SWAP2 SWAP1 POP JUMP JUMPDEST PUSH32 0x4E756D62657220616C72656164792072657665616C6564000000000000000000 PUSH0 DUP3 ADD MSTORE POP JUMP JUMPDEST PUSH0 PUSH2 0x5879 PUSH1 0x17 DUP4 PUSH2 0x41E8 JUMP JUMPDEST SWAP2 POP PUSH2 0x5884 DUP3 PUSH2 0x5845 JUMP JUMPDEST PUSH1 0x20 DUP3 ADD SWAP1 POP SWAP2 SWAP1 POP JUMP JUMPDEST PUSH0 PUSH1 0x20 DUP3 ADD SWAP1 POP DUP2 DUP2 SUB PUSH0 DUP4 ADD MSTORE PUSH2 0x58A6 DUP2 PUSH2 0x586D JUMP JUMPDEST SWAP1 POP SWAP2 SWAP1 POP JUMP JUMPDEST PUSH32 0x4861736820646F6573206E6F74206D6174636820666F7220696E646578203000 PUSH0 DUP3 ADD MSTORE POP JUMP JUMPDEST PUSH0 PUSH2 0x58E1 PUSH1 0x1F DUP4 PUSH2 0x41E8 JUMP JUMPDEST SWAP2 POP PUSH2 0x58EC DUP3 PUSH2 0x58AD JUMP JUMPDEST PUSH1 0x20 DUP3 ADD SWAP1 POP SWAP2 SWAP1 POP JUMP JUMPDEST PUSH0 PUSH1 0x20 DUP3 ADD SWAP1 POP DUP2 DUP2 SUB PUSH0 DUP4 ADD MSTORE PUSH2 0x590E DUP2 PUSH2 0x58D5 JUMP JUMPDEST SWAP1 POP SWAP2 SWAP1 POP JUMP JUMPDEST PUSH32 0x4861736820646F6573206E6F74206D6174636800000000000000000000000000 PUSH0 DUP3 ADD MSTORE POP JUMP JUMPDEST PUSH0 PUSH2 0x5949 PUSH1 0x13 DUP4 PUSH2 0x41E8 JUMP JUMPDEST SWAP2 POP PUSH2 0x5954 DUP3 PUSH2 0x5915 JUMP JUMPDEST PUSH1 0x20 DUP3 ADD SWAP1 POP SWAP2 SWAP1 POP JUMP JUMPDEST PUSH0 PUSH1 0x20 DUP3 ADD SWAP1 POP DUP2 DUP2 SUB PUSH0 DUP4 ADD MSTORE PUSH2 0x5976 DUP2 PUSH2 0x593D JUMP JUMPDEST SWAP1 POP SWAP2 SWAP1 POP JUMP JUMPDEST PUSH32 0x42616E6B2063617264732063616E206F6E6C7920626520647261776E20696E20 PUSH0 DUP3 ADD MSTORE PUSH32 0x436F6D706C657465642073746174650000000000000000000000000000000000 PUSH1 0x20 DUP3 ADD MSTORE POP JUMP JUMPDEST PUSH0 PUSH2 0x59D7 PUSH1 0x2F DUP4 PUSH2 0x41E8 JUMP JUMPDEST SWAP2 POP PUSH2 0x59E2 DUP3 PUSH2 0x597D JUMP JUMPDEST PUSH1 0x40 DUP3 ADD SWAP1 POP SWAP2 SWAP1 POP JUMP JUMPDEST PUSH0 PUSH1 0x20 DUP3 ADD SWAP1 POP DUP2 DUP2 SUB PUSH0 DUP4 ADD MSTORE PUSH2 0x5A04 DUP2 PUSH2 0x59CB JUMP JUMPDEST SWAP1 POP SWAP2 SWAP1 POP JUMP JUMPDEST PUSH0 DUP2 SWAP1 POP SWAP2 SWAP1 POP JUMP JUMPDEST PUSH2 0x5A25 PUSH2 0x5A20 DUP3 PUSH2 0x3C80 JUMP JUMPDEST PUSH2 0x5A0B JUMP JUMPDEST DUP3 MSTORE POP POP JUMP JUMPDEST PUSH0 PUSH2 0x5A36 DUP3 DUP6 PUSH2 0x441A JUMP JUMPDEST PUSH1 0x20 DUP3 ADD SWAP2 POP PUSH2 0x5A46 DUP3 DUP5 PUSH2 0x5A14 JUMP JUMPDEST PUSH1 0x20 DUP3 ADD SWAP2 POP DUP2 SWAP1 POP SWAP4 SWAP3 POP POP POP JUMP JUMPDEST PUSH32 0x43686F69636520616C7265616479206D61646500000000000000000000000000 PUSH0 DUP3 ADD MSTORE POP JUMP JUMPDEST PUSH0 PUSH2 0x5A8A PUSH1 0x13 DUP4 PUSH2 0x41E8 JUMP JUMPDEST SWAP2 POP PUSH2 0x5A95 DUP3 PUSH2 0x5A56 JUMP JUMPDEST PUSH1 0x20 DUP3 ADD SWAP1 POP SWAP2 SWAP1 POP JUMP JUMPDEST PUSH0 PUSH1 0x20 DUP3 ADD SWAP1 POP DUP2 DUP2 SUB PUSH0 DUP4 ADD MSTORE PUSH2 0x5AB7 DUP2 PUSH2 0x5A7E JUMP JUMPDEST SWAP1 POP SWAP2 SWAP1 POP JUMP JUMPDEST PUSH32 0x496E76616C696420636172642076616C75650000000000000000000000000000 PUSH0 DUP3 ADD MSTORE POP JUMP JUMPDEST PUSH0 PUSH2 0x5AF2 PUSH1 0x12 DUP4 PUSH2 0x41E8 JUMP JUMPDEST SWAP2 POP PUSH2 0x5AFD DUP3 PUSH2 0x5ABE JUMP JUMPDEST PUSH1 0x20 DUP3 ADD SWAP1 POP SWAP2 SWAP1 POP JUMP JUMPDEST PUSH0 PUSH1 0x20 DUP3 ADD SWAP1 POP DUP2 DUP2 SUB PUSH0 DUP4 ADD MSTORE PUSH2 0x5B1F DUP2 PUSH2 0x5AE6 JUMP JUMPDEST SWAP1 POP SWAP2 SWAP1 POP JUMP JUMPDEST PUSH32 0x4E487B7100000000000000000000000000000000000000000000000000000000 PUSH0 MSTORE PUSH1 0x12 PUSH1 0x4 MSTORE PUSH1 0x24 PUSH0 REVERT JUMPDEST PUSH0 PUSH2 0x5B5D DUP3 PUSH2 0x3BFA JUMP JUMPDEST SWAP2 POP PUSH2 0x5B68 DUP4 PUSH2 0x3BFA JUMP JUMPDEST SWAP3 POP DUP3 PUSH2 0x5B78 JUMPI PUSH2 0x5B77 PUSH2 0x5B26 JUMP JUMPDEST JUMPDEST DUP3 DUP3 DIV SWAP1 POP SWAP3 SWAP2 POP POP JUMP JUMPDEST PUSH0 PUSH2 0x5B8D DUP3 PUSH2 0x3BFA JUMP JUMPDEST SWAP2 POP PUSH2 0x5B98 DUP4 PUSH2 0x3BFA JUMP JUMPDEST SWAP3 POP DUP3 DUP3 SUB SWAP1 POP DUP2 DUP2 GT ISZERO PUSH2 0x5BB0 JUMPI PUSH2 0x5BAF PUSH2 0x44D9 JUMP JUMPDEST JUMPDEST SWAP3 SWAP2 POP POP JUMP JUMPDEST PUSH0 PUSH2 0x5BC0 DUP3 PUSH2 0x4111 JUMP JUMPDEST SWAP2 POP PUSH2 0x5BCB DUP4 PUSH2 0x4111 JUMP JUMPDEST SWAP3 POP DUP3 DUP3 ADD SWAP1 POP PUSH1 0xFF DUP2 GT ISZERO PUSH2 0x5BE4 JUMPI PUSH2 0x5BE3 PUSH2 0x44D9 JUMP JUMPDEST JUMPDEST SWAP3 SWAP2 POP POP JUMP INVALID LOG2 PUSH5 0x6970667358 0x22 SLT KECCAK256 0xDA 0x25 0xD3 PUSH3 0x4625E4 EXTCODESIZE GT SWAP5 SHL 0xF7 TIMESTAMP PUSH19 0xCF88436F3D2108DE14F3457D754281456BE264 PUSH20 0x6F6C634300081A00330000000000000000000000 "
		},
		"gasEstimates": {
			"creation": {
				"codeDepositCost": "4716800",
				"executionCost": "infinite",
				"totalCost": "infinite"
			},
			"external": {
				"actionDeadline()": "2514",
				"bankBalance()": "2471",
				"bankHashes(uint256)": "2789",
				"bankHashesSet()": "2578",
				"calculateAllCardValues()": "infinite",
				"cashout()": "infinite",
				"commitHash(bytes32)": "27119",
				"distributeCards(uint256)": "infinite",
				"getAllCards()": "infinite",
				"handleTimeout()": "infinite",
				"hasChosen(address)": "2856",
				"joinGame(uint256)": "infinite",
				"playerChoices(address)": "2966",
				"playerCount()": "2493",
				"playerHashes(address)": "2847",
				"playerHit()": "infinite",
				"playerStand()": "infinite",
				"revealNumber(uint256)": "infinite",
				"revealedNumbers(address)": "2913",
				"startCommittingPhase()": "infinite",
				"startGame()": "infinite",
				"startRevealPhase()": "infinite",
				"state()": "2640"
			},
			"internal": {
				"allPlayersBusted()": "infinite",
				"generateBankCards()": "infinite",
				"getCardRepresentation(uint8)": "infinite",
				"isPlayerActive(address payable)": "infinite",
				"payoutToAllPlayers()": "infinite",
				"playerHitOrStand(bool)": "infinite",
				"removeInactivePlayer(address payable)": "infinite",
				"resetActionDeadline()": "infinite",
				"uint2str(uint256)": "infinite"
			}
		},
		"methodIdentifiers": {
			"actionDeadline()": "85c7d61d",
			"bankBalance()": "28657aa5",
			"bankHashes(uint256)": "bf867f6b",
			"bankHashesSet()": "4bd76fc4",
			"calculateAllCardValues()": "da8e4a95",
			"cashout()": "84054d3d",
			"commitHash(bytes32)": "3c37b640",
			"distributeCards(uint256)": "089ac36f",
			"getAllCards()": "cea13516",
			"handleTimeout()": "fcfafeb6",
			"hasChosen(address)": "a8378e6b",
			"joinGame(uint256)": "efaa55a0",
			"playerChoices(address)": "91b3f40e",
			"playerCount()": "302bcc57",
			"playerHashes(address)": "ae65f4ff",
			"playerHit()": "784f49ca",
			"playerStand()": "c9f09d38",
			"revealNumber(uint256)": "fe7d567d",
			"revealedNumbers(address)": "872fd939",
			"startCommittingPhase()": "53454485",
			"startGame()": "d65ab5f2",
			"startRevealPhase()": "c6fd5d4e",
			"state()": "c19d93fb"
		}
	},
	"abi": [
		{
			"inputs": [],
			"stateMutability": "payable",
			"type": "constructor"
		},
		{
			"anonymous": false,
			"inputs": [
				{
					"indexed": false,
					"internalType": "uint256",
					"name": "timeRemaining",
					"type": "uint256"
				}
			],
			"name": "TimeLeft",
			"type": "event"
		},
		{
			"inputs": [],
			"name": "actionDeadline",
			"outputs": [
				{
					"internalType": "uint256",
					"name": "",
					"type": "uint256"
				}
			],
			"stateMutability": "view",
			"type": "function"
		},
		{
			"inputs": [],
			"name": "bankBalance",
			"outputs": [
				{
					"internalType": "uint256",
					"name": "",
					"type": "uint256"
				}
			],
			"stateMutability": "view",
			"type": "function"
		},
		{
			"inputs": [
				{
					"internalType": "uint256",
					"name": "",
					"type": "uint256"
				}
			],
			"name": "bankHashes",
			"outputs": [
				{
					"internalType": "bytes32",
					"name": "",
					"type": "bytes32"
				}
			],
			"stateMutability": "view",
			"type": "function"
		},
		{
			"inputs": [],
			"name": "bankHashesSet",
			"outputs": [
				{
					"internalType": "bool",
					"name": "",
					"type": "bool"
				}
			],
			"stateMutability": "view",
			"type": "function"
		},
		{
			"inputs": [],
			"name": "calculateAllCardValues",
			"outputs": [
				{
					"internalType": "uint8[]",
					"name": "playerValues",
					"type": "uint8[]"
				},
				{
					"internalType": "uint8",
					"name": "bankValue",
					"type": "uint8"
				}
			],
			"stateMutability": "view",
			"type": "function"
		},
		{
			"inputs": [],
			"name": "cashout",
			"outputs": [],
			"stateMutability": "payable",
			"type": "function"
		},
		{
			"inputs": [
				{
					"internalType": "bytes32",
					"name": "hash",
					"type": "bytes32"
				}
			],
			"name": "commitHash",
			"outputs": [],
			"stateMutability": "nonpayable",
			"type": "function"
		},
		{
			"inputs": [
				{
					"internalType": "uint256",
					"name": "randomNumber",
					"type": "uint256"
				}
			],
			"name": "distributeCards",
			"outputs": [],
			"stateMutability": "nonpayable",
			"type": "function"
		},
		{
			"inputs": [],
			"name": "getAllCards",
			"outputs": [
				{
					"internalType": "string[]",
					"name": "bankCards",
					"type": "string[]"
				},
				{
					"internalType": "string[][]",
					"name": "playerCards",
					"type": "string[][]"
				}
			],
			"stateMutability": "view",
			"type": "function"
		},
		{
			"inputs": [],
			"name": "handleTimeout",
			"outputs": [],
			"stateMutability": "nonpayable",
			"type": "function"
		},
		{
			"inputs": [
				{
					"internalType": "address",
					"name": "",
					"type": "address"
				}
			],
			"name": "hasChosen",
			"outputs": [
				{
					"internalType": "bool",
					"name": "",
					"type": "bool"
				}
			],
			"stateMutability": "view",
			"type": "function"
		},
		{
			"inputs": [
				{
					"internalType": "uint256",
					"name": "bet",
					"type": "uint256"
				}
			],
			"name": "joinGame",
			"outputs": [],
			"stateMutability": "payable",
			"type": "function"
		},
		{
			"inputs": [
				{
					"internalType": "address",
					"name": "",
					"type": "address"
				}
			],
			"name": "playerChoices",
			"outputs": [
				{
					"internalType": "bool",
					"name": "",
					"type": "bool"
				}
			],
			"stateMutability": "view",
			"type": "function"
		},
		{
			"inputs": [],
			"name": "playerCount",
			"outputs": [
				{
					"internalType": "uint256",
					"name": "",
					"type": "uint256"
				}
			],
			"stateMutability": "view",
			"type": "function"
		},
		{
			"inputs": [
				{
					"internalType": "address",
					"name": "",
					"type": "address"
				}
			],
			"name": "playerHashes",
			"outputs": [
				{
					"internalType": "bytes32",
					"name": "",
					"type": "bytes32"
				}
			],
			"stateMutability": "view",
			"type": "function"
		},
		{
			"inputs": [],
			"name": "playerHit",
			"outputs": [],
			"stateMutability": "nonpayable",
			"type": "function"
		},
		{
			"inputs": [],
			"name": "playerStand",
			"outputs": [],
			"stateMutability": "nonpayable",
			"type": "function"
		},
		{
			"inputs": [
				{
					"internalType": "uint256",
					"name": "number",
					"type": "uint256"
				}
			],
			"name": "revealNumber",
			"outputs": [],
			"stateMutability": "nonpayable",
			"type": "function"
		},
		{
			"inputs": [
				{
					"internalType": "address",
					"name": "",
					"type": "address"
				}
			],
			"name": "revealedNumbers",
			"outputs": [
				{
					"internalType": "uint256",
					"name": "",
					"type": "uint256"
				}
			],
			"stateMutability": "view",
			"type": "function"
		},
		{
			"inputs": [],
			"name": "startCommittingPhase",
			"outputs": [],
			"stateMutability": "nonpayable",
			"type": "function"
		},
		{
			"inputs": [],
			"name": "startGame",
			"outputs": [],
			"stateMutability": "nonpayable",
			"type": "function"
		},
		{
			"inputs": [],
			"name": "startRevealPhase",
			"outputs": [],
			"stateMutability": "nonpayable",
			"type": "function"
		},
		{
			"inputs": [],
			"name": "state",
			"outputs": [
				{
					"internalType": "enum CardGame.GameState",
					"name": "",
					"type": "uint8"
				}
			],
			"stateMutability": "view",
			"type": "function"
		}
	]
}